{
  "_format": "hh-sol-artifact-1",
  "contractName": "Proton",
  "sourceName": "contracts/v1/tokens/Proton.sol",
  "abi": [
    {
      "inputs": [],
      "stateMutability": "nonpayable",
      "type": "constructor"
    },
    {
      "anonymous": false,
      "inputs": [
        {
          "indexed": true,
          "internalType": "address",
          "name": "owner",
          "type": "address"
        },
        {
          "indexed": true,
          "internalType": "address",
          "name": "approved",
          "type": "address"
        },
        {
          "indexed": true,
          "internalType": "uint256",
          "name": "tokenId",
          "type": "uint256"
        }
      ],
      "name": "Approval",
      "type": "event"
    },
    {
      "anonymous": false,
      "inputs": [
        {
          "indexed": true,
          "internalType": "address",
          "name": "owner",
          "type": "address"
        },
        {
          "indexed": true,
          "internalType": "address",
          "name": "operator",
          "type": "address"
        },
        {
          "indexed": false,
          "internalType": "bool",
          "name": "approved",
          "type": "bool"
        }
      ],
      "name": "ApprovalForAll",
      "type": "event"
    },
    {
      "anonymous": false,
      "inputs": [
        {
          "indexed": true,
          "internalType": "address",
          "name": "chargedParticles",
          "type": "address"
        }
      ],
      "name": "ChargedParticlesSet",
      "type": "event"
    },
    {
      "anonymous": false,
      "inputs": [
        {
          "indexed": true,
          "internalType": "address",
          "name": "chargedSettings",
          "type": "address"
        }
      ],
      "name": "ChargedSettingsSet",
      "type": "event"
    },
    {
      "anonymous": false,
      "inputs": [
        {
          "indexed": true,
          "internalType": "address",
          "name": "chargedState",
          "type": "address"
        }
      ],
      "name": "ChargedStateSet",
      "type": "event"
    },
    {
      "anonymous": false,
      "inputs": [
        {
          "indexed": true,
          "internalType": "uint256",
          "name": "tokenId",
          "type": "uint256"
        },
        {
          "indexed": false,
          "internalType": "uint256",
          "name": "royaltiesPct",
          "type": "uint256"
        }
      ],
      "name": "CreatorRoyaltiesSet",
      "type": "event"
    },
    {
      "anonymous": false,
      "inputs": [
        {
          "indexed": true,
          "internalType": "address",
          "name": "receiver",
          "type": "address"
        },
        {
          "indexed": false,
          "internalType": "uint256",
          "name": "amount",
          "type": "uint256"
        }
      ],
      "name": "FeesWithdrawn",
      "type": "event"
    },
    {
      "anonymous": false,
      "inputs": [
        {
          "indexed": true,
          "internalType": "address",
          "name": "previousOwner",
          "type": "address"
        },
        {
          "indexed": true,
          "internalType": "address",
          "name": "newOwner",
          "type": "address"
        }
      ],
      "name": "OwnershipTransferred",
      "type": "event"
    },
    {
      "anonymous": false,
      "inputs": [
        {
          "indexed": false,
          "internalType": "bool",
          "name": "isPaused",
          "type": "bool"
        }
      ],
      "name": "PausedStateSet",
      "type": "event"
    },
    {
      "anonymous": false,
      "inputs": [
        {
          "indexed": true,
          "internalType": "uint256",
          "name": "tokenId",
          "type": "uint256"
        },
        {
          "indexed": true,
          "internalType": "address",
          "name": "oldOwner",
          "type": "address"
        },
        {
          "indexed": true,
          "internalType": "address",
          "name": "newOwner",
          "type": "address"
        },
        {
          "indexed": false,
          "internalType": "uint256",
          "name": "salePrice",
          "type": "uint256"
        },
        {
          "indexed": false,
          "internalType": "address",
          "name": "creator",
          "type": "address"
        },
        {
          "indexed": false,
          "internalType": "uint256",
          "name": "creatorRoyalties",
          "type": "uint256"
        }
      ],
      "name": "ProtonSold",
      "type": "event"
    },
    {
      "anonymous": false,
      "inputs": [
        {
          "indexed": true,
          "internalType": "address",
          "name": "receiver",
          "type": "address"
        },
        {
          "indexed": false,
          "internalType": "uint256",
          "name": "amountClaimed",
          "type": "uint256"
        }
      ],
      "name": "RoyaltiesClaimed",
      "type": "event"
    },
    {
      "anonymous": false,
      "inputs": [
        {
          "indexed": true,
          "internalType": "uint256",
          "name": "tokenId",
          "type": "uint256"
        },
        {
          "indexed": false,
          "internalType": "uint256",
          "name": "salePrice",
          "type": "uint256"
        }
      ],
      "name": "SalePriceSet",
      "type": "event"
    },
    {
      "anonymous": false,
      "inputs": [
        {
          "indexed": true,
          "internalType": "address",
          "name": "from",
          "type": "address"
        },
        {
          "indexed": true,
          "internalType": "address",
          "name": "to",
          "type": "address"
        },
        {
          "indexed": true,
          "internalType": "uint256",
          "name": "tokenId",
          "type": "uint256"
        }
      ],
      "name": "Transfer",
      "type": "event"
    },
    {
      "anonymous": false,
      "inputs": [
        {
          "indexed": true,
          "internalType": "address",
          "name": "from",
          "type": "address"
        },
        {
          "indexed": true,
          "internalType": "address",
          "name": "to",
          "type": "address"
        },
        {
          "indexed": false,
          "internalType": "uint256",
          "name": "startTokenId",
          "type": "uint256"
        },
        {
          "indexed": false,
          "internalType": "uint256",
          "name": "count",
          "type": "uint256"
        }
      ],
      "name": "TransferBatch",
      "type": "event"
    },
    {
      "anonymous": false,
      "inputs": [
        {
          "indexed": true,
          "internalType": "address",
          "name": "universe",
          "type": "address"
        }
      ],
      "name": "UniverseSet",
      "type": "event"
    },
    {
      "anonymous": false,
      "inputs": [
        {
          "indexed": true,
          "internalType": "address",
          "name": "receiver",
          "type": "address"
        },
        {
          "indexed": true,
          "internalType": "address",
          "name": "tokenAddress",
          "type": "address"
        },
        {
          "indexed": true,
          "internalType": "uint256",
          "name": "tokenId",
          "type": "uint256"
        },
        {
          "indexed": false,
          "internalType": "uint256",
          "name": "amount",
          "type": "uint256"
        }
      ],
      "name": "WithdrawStuckERC1155",
      "type": "event"
    },
    {
      "anonymous": false,
      "inputs": [
        {
          "indexed": true,
          "internalType": "address",
          "name": "receiver",
          "type": "address"
        },
        {
          "indexed": true,
          "internalType": "address",
          "name": "tokenAddress",
          "type": "address"
        },
        {
          "indexed": false,
          "internalType": "uint256",
          "name": "amount",
          "type": "uint256"
        }
      ],
      "name": "WithdrawStuckERC20",
      "type": "event"
    },
    {
      "anonymous": false,
      "inputs": [
        {
          "indexed": true,
          "internalType": "address",
          "name": "receiver",
          "type": "address"
        },
        {
          "indexed": true,
          "internalType": "address",
          "name": "tokenAddress",
          "type": "address"
        },
        {
          "indexed": true,
          "internalType": "uint256",
          "name": "tokenId",
          "type": "uint256"
        }
      ],
      "name": "WithdrawStuckERC721",
      "type": "event"
    },
    {
      "anonymous": false,
      "inputs": [
        {
          "indexed": true,
          "internalType": "address",
          "name": "receiver",
          "type": "address"
        },
        {
          "indexed": false,
          "internalType": "uint256",
          "name": "amount",
          "type": "uint256"
        }
      ],
      "name": "WithdrawStuckEther",
      "type": "event"
    },
    {
      "inputs": [
        {
          "internalType": "address",
          "name": "to",
          "type": "address"
        },
        {
          "internalType": "uint256",
          "name": "tokenId",
          "type": "uint256"
        }
      ],
      "name": "approve",
      "outputs": [],
      "stateMutability": "nonpayable",
      "type": "function"
    },
    {
      "inputs": [
        {
          "internalType": "address",
          "name": "owner",
          "type": "address"
        }
      ],
      "name": "balanceOf",
      "outputs": [
        {
          "internalType": "uint256",
          "name": "",
          "type": "uint256"
        }
      ],
      "stateMutability": "view",
      "type": "function"
    },
    {
      "inputs": [
        {
          "internalType": "address",
          "name": "creator",
          "type": "address"
        },
        {
          "internalType": "uint256",
          "name": "annuityPercent",
          "type": "uint256"
        },
        {
          "internalType": "uint256",
          "name": "royaltiesPercent",
          "type": "uint256"
        },
        {
          "internalType": "string[]",
          "name": "tokenMetaUris",
          "type": "string[]"
        },
        {
          "internalType": "uint256[]",
          "name": "salePrices",
          "type": "uint256[]"
        }
      ],
      "name": "batchProtonsForSale",
      "outputs": [],
      "stateMutability": "nonpayable",
      "type": "function"
    },
    {
      "inputs": [
        {
          "internalType": "uint256",
          "name": "tokenId",
          "type": "uint256"
        }
      ],
      "name": "buyProton",
      "outputs": [
        {
          "internalType": "bool",
          "name": "",
          "type": "bool"
        }
      ],
      "stateMutability": "payable",
      "type": "function"
    },
    {
      "inputs": [],
      "name": "claimCreatorRoyalties",
      "outputs": [
        {
          "internalType": "uint256",
          "name": "",
          "type": "uint256"
        }
      ],
      "stateMutability": "nonpayable",
      "type": "function"
    },
    {
      "inputs": [
        {
          "internalType": "address",
          "name": "creator",
          "type": "address"
        },
        {
          "internalType": "address",
          "name": "receiver",
          "type": "address"
        },
        {
          "internalType": "string",
          "name": "tokenMetaUri",
          "type": "string"
        }
      ],
      "name": "createBasicProton",
      "outputs": [
        {
          "internalType": "uint256",
          "name": "newTokenId",
          "type": "uint256"
        }
      ],
      "stateMutability": "nonpayable",
      "type": "function"
    },
    {
      "inputs": [
        {
          "internalType": "address",
          "name": "creator",
          "type": "address"
        },
        {
          "internalType": "address",
          "name": "receiver",
          "type": "address"
        },
        {
          "internalType": "address",
          "name": "referrer",
          "type": "address"
        },
        {
          "internalType": "string",
          "name": "tokenMetaUri",
          "type": "string"
        },
        {
          "internalType": "string",
          "name": "walletManagerId",
          "type": "string"
        },
        {
          "internalType": "address",
          "name": "assetToken",
          "type": "address"
        },
        {
          "internalType": "uint256",
          "name": "assetAmount",
          "type": "uint256"
        },
        {
          "internalType": "uint256",
          "name": "annuityPercent",
          "type": "uint256"
        }
      ],
      "name": "createChargedParticle",
      "outputs": [
        {
          "internalType": "uint256",
          "name": "newTokenId",
          "type": "uint256"
        }
      ],
      "stateMutability": "nonpayable",
      "type": "function"
    },
    {
      "inputs": [
        {
          "internalType": "address",
          "name": "creator",
          "type": "address"
        },
        {
          "internalType": "address",
          "name": "receiver",
          "type": "address"
        },
        {
          "internalType": "string",
          "name": "tokenMetaUri",
          "type": "string"
        },
        {
          "internalType": "uint256",
          "name": "annuityPercent",
          "type": "uint256"
        }
      ],
      "name": "createProton",
      "outputs": [
        {
          "internalType": "uint256",
          "name": "newTokenId",
          "type": "uint256"
        }
      ],
      "stateMutability": "nonpayable",
      "type": "function"
    },
    {
      "inputs": [
        {
          "internalType": "address",
          "name": "creator",
          "type": "address"
        },
        {
          "internalType": "address",
          "name": "receiver",
          "type": "address"
        },
        {
          "internalType": "string",
          "name": "tokenMetaUri",
          "type": "string"
        },
        {
          "internalType": "uint256",
          "name": "annuityPercent",
          "type": "uint256"
        },
        {
          "internalType": "uint256",
          "name": "royaltiesPercent",
          "type": "uint256"
        },
        {
          "internalType": "uint256",
          "name": "salePrice",
          "type": "uint256"
        }
      ],
      "name": "createProtonForSale",
      "outputs": [
        {
          "internalType": "uint256",
          "name": "newTokenId",
          "type": "uint256"
        }
      ],
      "stateMutability": "nonpayable",
      "type": "function"
    },
    {
      "inputs": [
        {
          "internalType": "uint256",
          "name": "tokenId",
          "type": "uint256"
        }
      ],
      "name": "creatorOf",
      "outputs": [
        {
          "internalType": "address",
          "name": "",
          "type": "address"
        }
      ],
      "stateMutability": "view",
      "type": "function"
    },
    {
      "inputs": [
        {
          "internalType": "uint256",
          "name": "tokenId",
          "type": "uint256"
        }
      ],
      "name": "getApproved",
      "outputs": [
        {
          "internalType": "address",
          "name": "",
          "type": "address"
        }
      ],
      "stateMutability": "view",
      "type": "function"
    },
    {
      "inputs": [
        {
          "internalType": "address",
          "name": "account",
          "type": "address"
        }
      ],
      "name": "getCreatorRoyalties",
      "outputs": [
        {
          "internalType": "uint256",
          "name": "",
          "type": "uint256"
        }
      ],
      "stateMutability": "view",
      "type": "function"
    },
    {
      "inputs": [
        {
          "internalType": "uint256",
          "name": "tokenId",
          "type": "uint256"
        }
      ],
      "name": "getCreatorRoyaltiesPct",
      "outputs": [
        {
          "internalType": "uint256",
          "name": "",
          "type": "uint256"
        }
      ],
      "stateMutability": "view",
      "type": "function"
    },
    {
      "inputs": [
        {
          "internalType": "uint256",
          "name": "tokenId",
          "type": "uint256"
        }
      ],
      "name": "getCreatorRoyaltiesReceiver",
      "outputs": [
        {
          "internalType": "address",
          "name": "",
          "type": "address"
        }
      ],
      "stateMutability": "view",
      "type": "function"
    },
    {
      "inputs": [
        {
          "internalType": "uint256",
          "name": "tokenId",
          "type": "uint256"
        }
      ],
      "name": "getLastSellPrice",
      "outputs": [
        {
          "internalType": "uint256",
          "name": "",
          "type": "uint256"
        }
      ],
      "stateMutability": "view",
      "type": "function"
    },
    {
      "inputs": [
        {
          "internalType": "uint256",
          "name": "tokenId",
          "type": "uint256"
        }
      ],
      "name": "getSalePrice",
      "outputs": [
        {
          "internalType": "uint256",
          "name": "",
          "type": "uint256"
        }
      ],
      "stateMutability": "view",
      "type": "function"
    },
    {
      "inputs": [
        {
          "internalType": "address",
          "name": "owner",
          "type": "address"
        },
        {
          "internalType": "address",
          "name": "operator",
          "type": "address"
        }
      ],
      "name": "isApprovedForAll",
      "outputs": [
        {
          "internalType": "bool",
          "name": "",
          "type": "bool"
        }
      ],
      "stateMutability": "view",
      "type": "function"
    },
    {
      "inputs": [
        {
          "internalType": "address",
          "name": "forwarder",
          "type": "address"
        }
      ],
      "name": "isTrustedForwarder",
      "outputs": [
        {
          "internalType": "bool",
          "name": "",
          "type": "bool"
        }
      ],
      "stateMutability": "view",
      "type": "function"
    },
    {
      "inputs": [],
      "name": "name",
      "outputs": [
        {
          "internalType": "string",
          "name": "",
          "type": "string"
        }
      ],
      "stateMutability": "view",
      "type": "function"
    },
    {
      "inputs": [],
      "name": "owner",
      "outputs": [
        {
          "internalType": "address",
          "name": "",
          "type": "address"
        }
      ],
      "stateMutability": "view",
      "type": "function"
    },
    {
      "inputs": [
        {
          "internalType": "uint256",
          "name": "tokenId",
          "type": "uint256"
        }
      ],
      "name": "ownerOf",
      "outputs": [
        {
          "internalType": "address",
          "name": "",
          "type": "address"
        }
      ],
      "stateMutability": "view",
      "type": "function"
    },
    {
      "inputs": [],
      "name": "renounceOwnership",
      "outputs": [],
      "stateMutability": "nonpayable",
      "type": "function"
    },
    {
      "inputs": [
        {
          "internalType": "address",
          "name": "from",
          "type": "address"
        },
        {
          "internalType": "address",
          "name": "to",
          "type": "address"
        },
        {
          "internalType": "uint256",
          "name": "tokenId",
          "type": "uint256"
        }
      ],
      "name": "safeTransferFrom",
      "outputs": [],
      "stateMutability": "nonpayable",
      "type": "function"
    },
    {
      "inputs": [
        {
          "internalType": "address",
          "name": "from",
          "type": "address"
        },
        {
          "internalType": "address",
          "name": "to",
          "type": "address"
        },
        {
          "internalType": "uint256",
          "name": "tokenId",
          "type": "uint256"
        },
        {
          "internalType": "bytes",
          "name": "_data",
          "type": "bytes"
        }
      ],
      "name": "safeTransferFrom",
      "outputs": [],
      "stateMutability": "nonpayable",
      "type": "function"
    },
    {
      "inputs": [
        {
          "internalType": "address",
          "name": "operator",
          "type": "address"
        },
        {
          "internalType": "bool",
          "name": "approved",
          "type": "bool"
        }
      ],
      "name": "setApprovalForAll",
      "outputs": [],
      "stateMutability": "nonpayable",
      "type": "function"
    },
    {
      "inputs": [
        {
          "internalType": "address",
          "name": "chargedParticles",
          "type": "address"
        }
      ],
      "name": "setChargedParticles",
      "outputs": [],
      "stateMutability": "nonpayable",
      "type": "function"
    },
    {
      "inputs": [
        {
          "internalType": "address",
          "name": "settings",
          "type": "address"
        }
      ],
      "name": "setChargedSettings",
      "outputs": [],
      "stateMutability": "nonpayable",
      "type": "function"
    },
    {
      "inputs": [
        {
          "internalType": "address",
          "name": "stateController",
          "type": "address"
        }
      ],
      "name": "setChargedState",
      "outputs": [],
      "stateMutability": "nonpayable",
      "type": "function"
    },
    {
      "inputs": [
        {
          "internalType": "uint256",
          "name": "tokenId",
          "type": "uint256"
        },
        {
          "internalType": "address",
          "name": "receiver",
          "type": "address"
        }
      ],
      "name": "setCreatorRoyaltiesReceiver",
      "outputs": [],
      "stateMutability": "nonpayable",
      "type": "function"
    },
    {
      "inputs": [
        {
          "internalType": "bool",
          "name": "state",
          "type": "bool"
        }
      ],
      "name": "setPausedState",
      "outputs": [],
      "stateMutability": "nonpayable",
      "type": "function"
    },
    {
      "inputs": [
        {
          "internalType": "uint256",
          "name": "tokenId",
          "type": "uint256"
        },
        {
          "internalType": "uint256",
          "name": "royaltiesPct",
          "type": "uint256"
        }
      ],
      "name": "setRoyaltiesPct",
      "outputs": [],
      "stateMutability": "nonpayable",
      "type": "function"
    },
    {
      "inputs": [
        {
          "internalType": "uint256",
          "name": "tokenId",
          "type": "uint256"
        },
        {
          "internalType": "uint256",
          "name": "salePrice",
          "type": "uint256"
        }
      ],
      "name": "setSalePrice",
      "outputs": [],
      "stateMutability": "nonpayable",
      "type": "function"
    },
    {
      "inputs": [
        {
          "internalType": "address",
          "name": "_trustedForwarder",
          "type": "address"
        }
      ],
      "name": "setTrustedForwarder",
      "outputs": [],
      "stateMutability": "nonpayable",
      "type": "function"
    },
    {
      "inputs": [
        {
          "internalType": "address",
          "name": "universe",
          "type": "address"
        }
      ],
      "name": "setUniverse",
      "outputs": [],
      "stateMutability": "nonpayable",
      "type": "function"
    },
    {
      "inputs": [
        {
          "internalType": "bytes4",
          "name": "interfaceId",
          "type": "bytes4"
        }
      ],
      "name": "supportsInterface",
      "outputs": [
        {
          "internalType": "bool",
          "name": "",
          "type": "bool"
        }
      ],
      "stateMutability": "view",
      "type": "function"
    },
    {
      "inputs": [],
      "name": "symbol",
      "outputs": [
        {
          "internalType": "string",
          "name": "",
          "type": "string"
        }
      ],
      "stateMutability": "view",
      "type": "function"
    },
    {
      "inputs": [
        {
          "internalType": "uint256",
          "name": "index",
          "type": "uint256"
        }
      ],
      "name": "tokenByIndex",
      "outputs": [
        {
          "internalType": "uint256",
          "name": "",
          "type": "uint256"
        }
      ],
      "stateMutability": "view",
      "type": "function"
    },
    {
      "inputs": [
        {
          "internalType": "address",
          "name": "owner",
          "type": "address"
        },
        {
          "internalType": "uint256",
          "name": "index",
          "type": "uint256"
        }
      ],
      "name": "tokenOfOwnerByIndex",
      "outputs": [
        {
          "internalType": "uint256",
          "name": "",
          "type": "uint256"
        }
      ],
      "stateMutability": "view",
      "type": "function"
    },
    {
      "inputs": [
        {
          "internalType": "uint256",
          "name": "tokenId",
          "type": "uint256"
        }
      ],
      "name": "tokenURI",
      "outputs": [
        {
          "internalType": "string",
          "name": "",
          "type": "string"
        }
      ],
      "stateMutability": "view",
      "type": "function"
    },
    {
      "inputs": [],
      "name": "totalSupply",
      "outputs": [
        {
          "internalType": "uint256",
          "name": "",
          "type": "uint256"
        }
      ],
      "stateMutability": "view",
      "type": "function"
    },
    {
      "inputs": [
        {
          "internalType": "address",
          "name": "from",
          "type": "address"
        },
        {
          "internalType": "address",
          "name": "to",
          "type": "address"
        },
        {
          "internalType": "uint256",
          "name": "tokenId",
          "type": "uint256"
        }
      ],
      "name": "transferFrom",
      "outputs": [],
      "stateMutability": "nonpayable",
      "type": "function"
    },
    {
      "inputs": [
        {
          "internalType": "address",
          "name": "newOwner",
          "type": "address"
        }
      ],
      "name": "transferOwnership",
      "outputs": [],
      "stateMutability": "nonpayable",
      "type": "function"
    },
    {
      "inputs": [],
      "name": "trustedForwarder",
      "outputs": [
        {
          "internalType": "address",
          "name": "",
          "type": "address"
        }
      ],
      "stateMutability": "view",
      "type": "function"
    },
    {
      "inputs": [],
      "name": "versionRecipient",
      "outputs": [
        {
          "internalType": "string",
          "name": "",
          "type": "string"
        }
      ],
      "stateMutability": "view",
      "type": "function"
    },
    {
      "inputs": [
        {
          "internalType": "address payable",
          "name": "receiver",
          "type": "address"
        },
        {
          "internalType": "address",
          "name": "tokenAddress",
          "type": "address"
        },
        {
          "internalType": "uint256",
          "name": "tokenId",
          "type": "uint256"
        }
      ],
      "name": "withdrawERC721",
      "outputs": [],
      "stateMutability": "nonpayable",
      "type": "function"
    },
    {
      "inputs": [
        {
          "internalType": "address payable",
          "name": "receiver",
          "type": "address"
        },
        {
          "internalType": "address",
          "name": "tokenAddress",
          "type": "address"
        },
        {
          "internalType": "uint256",
          "name": "amount",
          "type": "uint256"
        }
      ],
      "name": "withdrawErc20",
      "outputs": [],
      "stateMutability": "nonpayable",
      "type": "function"
    },
    {
      "inputs": [
        {
          "internalType": "address payable",
          "name": "receiver",
          "type": "address"
        },
        {
          "internalType": "uint256",
          "name": "amount",
          "type": "uint256"
        }
      ],
      "name": "withdrawEther",
      "outputs": [],
      "stateMutability": "nonpayable",
      "type": "function"
    }
  ],
  "bytecode": "0x60806040523480156200001157600080fd5b506040518060400160405280601a81526020017f43686172676564205061727469636c6573202d2050726f746f6e0000000000008152506040518060400160405280600681526020017f50524f544f4e0000000000000000000000000000000000000000000000000000815250620000966301ffc9a760e01b620001d160201b60201c565b8160069080519060200190620000ae92919062000367565b508060079080519060200190620000c792919062000367565b50620000e06380ac58cd60e01b620001d160201b60201c565b620000f8635b5e139f60e01b620001d160201b60201c565b6200011063780e9d6360e01b620001d160201b60201c565b5050600062000124620002a960201b60201c565b905080600960006101000a81548173ffffffffffffffffffffffffffffffffffffffff021916908373ffffffffffffffffffffffffffffffffffffffff1602179055508073ffffffffffffffffffffffffffffffffffffffff16600073ffffffffffffffffffffffffffffffffffffffff167f8be0079c531659141344cd1fd0a4f28419497f9722a3daafe3b4186f6b6457e060405160405180910390a3506001600b8190555062000482565b63ffffffff60e01b817bffffffffffffffffffffffffffffffffffffffffffffffffffffffff191614156200023d576040517f08c379a000000000000000000000000000000000000000000000000000000000815260040162000234906200044f565b60405180910390fd5b6001600080837bffffffffffffffffffffffffffffffffffffffffffffffffffffffff19167bffffffffffffffffffffffffffffffffffffffffffffffffffffffff1916815260200190815260200160002060006101000a81548160ff02191690831515021790555050565b6000620002c0620002c560201b620028b81760201c565b905090565b60006018600036905010158015620002ea5750620002e9336200030d60201b60201c565b5b156200030057601436033560601c905062000309565b3390506200030a565b5b90565b6000600a60009054906101000a900473ffffffffffffffffffffffffffffffffffffffff1673ffffffffffffffffffffffffffffffffffffffff168273ffffffffffffffffffffffffffffffffffffffff16149050919050565b828054600181600116156101000203166002900490600052602060002090601f016020900481019282601f10620003aa57805160ff1916838001178555620003db565b82800160010185558215620003db579182015b82811115620003da578251825591602001919060010190620003bd565b5b509050620003ea9190620003ee565b5090565b5b8082111562000409576000816000905550600101620003ef565b5090565b60006200041c601c8362000471565b91507f4552433136353a20696e76616c696420696e74657266616365206964000000006000830152602082019050919050565b600060208201905081810360008301526200046a816200040d565b9050919050565b600082825260208201905092915050565b616c8280620004926000396000f3fe6080604052600436106102875760003560e01c80636e5559fd1161015a578063ad82c42c116100c1578063c95d09981161007a578063c95d099814610a74578063da74222814610a9d578063db9f60ff14610ac6578063e985e9c514610aef578063f2fde38b14610b2c578063f8eb5fc514610b5557610287565b8063ad82c42c14610956578063ae9704cd14610993578063b7683e93146109bc578063b88d4fde146109e5578063c87b56dd14610a0e578063c8c680d514610a4b57610287565b806382e9870f1161011357806382e9870f1461082d578063846ec08c1461085d5780638da5cb5b1461089a5780639390afc7146108c557806395d89b4114610902578063a22cb4651461092d57610287565b80636e5559fd1461071f5780636ed6237e1461074857806370a0823114610771578063715018a6146107ae57806371e715f4146107c55780637da0a8771461080257610287565b80632f745c59116101fe578063522f6815116101b7578063522f6815146105d7578063572b6c0514610600578063589a17431461063d57806362c517491461067a5780636348af34146106b75780636352211e146106e257610287565b80632f745c59146104b75780632fc77797146104f45780634025feb21461051d57806342842e0e14610546578063486ff0cd1461056f5780634f6ccce71461059a57610287565b8063095ea7b311610250578063095ea7b3146103975780631593dee1146103c057806318160ddd146103e957806323b872dd14610414578063250b2c801461043d5780632c0cd5a31461047a57610287565b8062e4eb991461028c57806301ffc9a7146102c9578063053992c51461030657806306fdde031461032f578063081812fc1461035a575b600080fd5b34801561029857600080fd5b506102b360048036038101906102ae9190615529565b610b92565b6040516102c0919061692b565b60405180910390f35b3480156102d557600080fd5b506102f060048036038101906102eb9190615889565b610bfd565b6040516102fd919061654e565b60405180910390f35b34801561031257600080fd5b5061032d60048036038101906103289190615969565b610c64565b005b34801561033b57600080fd5b50610344610d14565b6040516103519190616569565b60405180910390f35b34801561036657600080fd5b50610381600480360381019061037c91906158db565b610db6565b60405161038e91906162fd565b60405180910390f35b3480156103a357600080fd5b506103be60048036038101906103b9919061574b565b610e3b565b005b3480156103cc57600080fd5b506103e760048036038101906103e29190615319565b610f53565b005b3480156103f557600080fd5b506103fe610ffa565b60405161040b919061692b565b60405180910390f35b34801561042057600080fd5b5061043b60048036038101906104369190615645565b61100b565b005b34801561044957600080fd5b50610464600480360381019061045f91906158db565b61106b565b604051610471919061692b565b60405180910390f35b34801561048657600080fd5b506104a1600480360381019061049c91906154c2565b611088565b6040516104ae919061692b565b60405180910390f35b3480156104c357600080fd5b506104de60048036038101906104d9919061574b565b6110f3565b6040516104eb919061692b565b60405180910390f35b34801561050057600080fd5b5061051b6004803603810190610516919061592d565b61114e565b005b34801561052957600080fd5b50610544600480360381019061053f9190615319565b61129e565b005b34801561055257600080fd5b5061056d60048036038101906105689190615645565b611345565b005b34801561057b57600080fd5b50610584611365565b6040516105919190616569565b60405180910390f35b3480156105a657600080fd5b506105c160048036038101906105bc91906158db565b611385565b6040516105ce919061692b565b60405180910390f35b3480156105e357600080fd5b506105fe60048036038101906105f99190615368565b6113a8565b005b34801561060c57600080fd5b50610627600480360381019061062291906152c7565b61144d565b604051610634919061654e565b60405180910390f35b34801561064957600080fd5b50610664600480360381019061065f91906158db565b6114a7565b60405161067191906162fd565b60405180910390f35b34801561068657600080fd5b506106a1600480360381019061069c91906153e0565b6114e4565b6040516106ae919061692b565b60405180910390f35b3480156106c357600080fd5b506106cc6115aa565b6040516106d9919061692b565b60405180910390f35b3480156106ee57600080fd5b50610709600480360381019061070491906158db565b611667565b60405161071691906162fd565b60405180910390f35b34801561072b57600080fd5b50610746600480360381019061074191906152c7565b6116bb565b005b34801561075457600080fd5b5061076f600480360381019061076a9190615787565b6117d9565b005b34801561077d57600080fd5b50610798600480360381019061079391906152c7565b611841565b6040516107a5919061692b565b60405180910390f35b3480156107ba57600080fd5b506107c3611900565b005b3480156107d157600080fd5b506107ec60048036038101906107e791906158db565b611a58565b6040516107f991906162fd565b60405180910390f35b34801561080e57600080fd5b50610817611a6a565b60405161082491906162fd565b60405180910390f35b610847600480360381019061084291906158db565b611a90565b604051610854919061654e565b60405180910390f35b34801561086957600080fd5b50610884600480360381019061087f91906152c7565b611b48565b604051610891919061692b565b60405180910390f35b3480156108a657600080fd5b506108af611b91565b6040516108bc91906162fd565b60405180910390f35b3480156108d157600080fd5b506108ec60048036038101906108e791906155a4565b611bbb565b6040516108f9919061692b565b60405180910390f35b34801561090e57600080fd5b50610917611c27565b6040516109249190616569565b60405180910390f35b34801561093957600080fd5b50610954600480360381019061094f919061570f565b611cc9565b005b34801561096257600080fd5b5061097d600480360381019061097891906158db565b611e4a565b60405161098a919061692b565b60405180910390f35b34801561099f57600080fd5b506109ba60048036038101906109b591906152c7565b611e67565b005b3480156109c857600080fd5b506109e360048036038101906109de91906152c7565b611f85565b005b3480156109f157600080fd5b50610a0c6004803603810190610a079190615694565b6120a3565b005b348015610a1a57600080fd5b50610a356004803603810190610a3091906158db565b612105565b604051610a429190616569565b60405180910390f35b348015610a5757600080fd5b50610a726004803603810190610a6d9190615969565b612202565b005b348015610a8057600080fd5b50610a9b6004803603810190610a9691906152c7565b61235c565b005b348015610aa957600080fd5b50610ac46004803603810190610abf91906152c7565b61247a565b005b348015610ad257600080fd5b50610aed6004803603810190610ae89190615837565b612555565b005b348015610afb57600080fd5b50610b166004803603810190610b1191906153a4565b612640565b604051610b23919061654e565b60405180910390f35b348015610b3857600080fd5b50610b536004803603810190610b4e91906152c7565b6126d4565b005b348015610b6157600080fd5b50610b7c6004803603810190610b7791906158db565b61289b565b604051610b89919061692b565b60405180910390f35b6000601760009054906101000a900460ff1615610be4576040517f08c379a0000000000000000000000000000000000000000000000000000000008152600401610bdb9061684b565b60405180910390fd5b610bf3858585856000806128f4565b9050949350505050565b6000806000837bffffffffffffffffffffffffffffffffffffffffffffffffffffffff19167bffffffffffffffffffffffffffffffffffffffffffffffffffffffff1916815260200190815260200160002060009054906101000a900460ff169050919050565b601760009054906101000a900460ff1615610cb4576040517f08c379a0000000000000000000000000000000000000000000000000000000008152600401610cab9061684b565b60405180910390fd5b81610cc6610cc0612a51565b82612a60565b610d05576040517f08c379a0000000000000000000000000000000000000000000000000000000008152600401610cfc906168eb565b60405180910390fd5b610d0f8383612b3e565b505050565b606060068054600181600116156101000203166002900480601f016020809104026020016040519081016040528092919081815260200182805460018160011615610100020316600290048015610dac5780601f10610d8157610100808354040283529160200191610dac565b820191906000526020600020905b815481529060010190602001808311610d8f57829003601f168201915b5050505050905090565b6000610dc182612c26565b610e00576040517f08c379a0000000000000000000000000000000000000000000000000000000008152600401610df7906168ab565b60405180910390fd5b6004600083815260200190815260200160002060009054906101000a900473ffffffffffffffffffffffffffffffffffffffff169050919050565b6000610e4682611667565b90508073ffffffffffffffffffffffffffffffffffffffff168373ffffffffffffffffffffffffffffffffffffffff161415610eb7576040517f08c379a0000000000000000000000000000000000000000000000000000000008152600401610eae9061690b565b60405180910390fd5b8073ffffffffffffffffffffffffffffffffffffffff16610ed6612a51565b73ffffffffffffffffffffffffffffffffffffffff161480610f055750610f0481610eff612a51565b612640565b5b610f44576040517f08c379a0000000000000000000000000000000000000000000000000000000008152600401610f3b9061678b565b60405180910390fd5b610f4e8383612c43565b505050565b610f5b612a51565b73ffffffffffffffffffffffffffffffffffffffff16600960009054906101000a900473ffffffffffffffffffffffffffffffffffffffff1673ffffffffffffffffffffffffffffffffffffffff1614610fea576040517f08c379a0000000000000000000000000000000000000000000000000000000008152600401610fe19061674b565b60405180910390fd5b610ff5838383612cfc565b505050565b60006110066002612e91565b905090565b61101c611016612a51565b82612a60565b61105b576040517f08c379a00000000000000000000000000000000000000000000000000000000081526004016110529061678b565b60405180910390fd5b611066838383612ea6565b505050565b600060166000838152602001908152602001600020549050919050565b6000601760009054906101000a900460ff16156110da576040517f08c379a00000000000000000000000000000000000000000000000000000000081526004016110d19061684b565b60405180910390fd5b6110ea84848460008060006128f4565b90509392505050565b600061114682600160008673ffffffffffffffffffffffffffffffffffffffff1673ffffffffffffffffffffffffffffffffffffffff168152602001908152602001600020612f6190919063ffffffff16565b905092915050565b601760009054906101000a900460ff161561119e576040517f08c379a00000000000000000000000000000000000000000000000000000000081526004016111959061684b565b60405180910390fd5b816111a7612a51565b73ffffffffffffffffffffffffffffffffffffffff166011600083815260200190815260200160002060009054906101000a900473ffffffffffffffffffffffffffffffffffffffff1673ffffffffffffffffffffffffffffffffffffffff1614611247576040517f08c379a000000000000000000000000000000000000000000000000000000000815260040161123e906167ab565b60405180910390fd5b816013600085815260200190815260200160002060006101000a81548173ffffffffffffffffffffffffffffffffffffffff021916908373ffffffffffffffffffffffffffffffffffffffff160217905550505050565b6112a6612a51565b73ffffffffffffffffffffffffffffffffffffffff16600960009054906101000a900473ffffffffffffffffffffffffffffffffffffffff1673ffffffffffffffffffffffffffffffffffffffff1614611335576040517f08c379a000000000000000000000000000000000000000000000000000000000815260040161132c9061674b565b60405180910390fd5b611340838383612f7b565b505050565b611360838383604051806020016040528060008152506120a3565b505050565b60606040518060600160405280602e8152602001616c1f602e9139905090565b60008061139c83600261317790919063ffffffff16565b50905080915050919050565b6113b0612a51565b73ffffffffffffffffffffffffffffffffffffffff16600960009054906101000a900473ffffffffffffffffffffffffffffffffffffffff1673ffffffffffffffffffffffffffffffffffffffff161461143f576040517f08c379a00000000000000000000000000000000000000000000000000000000081526004016114369061674b565b60405180910390fd5b61144982826131a3565b5050565b6000600a60009054906101000a900473ffffffffffffffffffffffffffffffffffffffff1673ffffffffffffffffffffffffffffffffffffffff168273ffffffffffffffffffffffffffffffffffffffff16149050919050565b60006011600083815260200190815260200160002060009054906101000a900473ffffffffffffffffffffffffffffffffffffffff169050919050565b60006002600b54141561152c576040517f08c379a0000000000000000000000000000000000000000000000000000000008152600401611523906168cb565b60405180910390fd5b6002600b81905550601760009054906101000a900460ff1615611584576040517f08c379a000000000000000000000000000000000000000000000000000000000815260040161157b9061684b565b60405180910390fd5b6115948989898989898989613295565b90506001600b8190555098975050505050505050565b60006002600b5414156115f2576040517f08c379a00000000000000000000000000000000000000000000000000000000081526004016115e9906168cb565b60405180910390fd5b6002600b81905550601760009054906101000a900460ff161561164a576040517f08c379a00000000000000000000000000000000000000000000000000000000081526004016116419061684b565b60405180910390fd5b61165a611655612a51565b613352565b90506001600b8190555090565b60006116b4826040518060400160405280600c81526020017f4552433732313a452d3430350000000000000000000000000000000000000000815250600261349a9092919063ffffffff16565b9050919050565b6116c3612a51565b73ffffffffffffffffffffffffffffffffffffffff16600960009054906101000a900473ffffffffffffffffffffffffffffffffffffffff1673ffffffffffffffffffffffffffffffffffffffff1614611752576040517f08c379a00000000000000000000000000000000000000000000000000000000081526004016117499061674b565b60405180910390fd5b80600f60006101000a81548173ffffffffffffffffffffffffffffffffffffffff021916908373ffffffffffffffffffffffffffffffffffffffff1602179055508073ffffffffffffffffffffffffffffffffffffffff167f5ce0e6b7fd36339ee97339831b6c72694ecee88c62aab49919d9cabe0a732e4160405160405180910390a250565b601760009054906101000a900460ff1615611829576040517f08c379a00000000000000000000000000000000000000000000000000000000081526004016118209061684b565b60405180910390fd5b611838878787878787876134b9565b50505050505050565b60008073ffffffffffffffffffffffffffffffffffffffff168273ffffffffffffffffffffffffffffffffffffffff1614156118b2576040517f08c379a00000000000000000000000000000000000000000000000000000000081526004016118a9906165eb565b60405180910390fd5b6118f9600160008473ffffffffffffffffffffffffffffffffffffffff1673ffffffffffffffffffffffffffffffffffffffff1681526020019081526020016000206136fe565b9050919050565b611908612a51565b73ffffffffffffffffffffffffffffffffffffffff16600960009054906101000a900473ffffffffffffffffffffffffffffffffffffffff1673ffffffffffffffffffffffffffffffffffffffff1614611997576040517f08c379a000000000000000000000000000000000000000000000000000000000815260040161198e9061674b565b60405180910390fd5b600073ffffffffffffffffffffffffffffffffffffffff16600960009054906101000a900473ffffffffffffffffffffffffffffffffffffffff1673ffffffffffffffffffffffffffffffffffffffff167f8be0079c531659141344cd1fd0a4f28419497f9722a3daafe3b4186f6b6457e060405160405180910390a36000600960006101000a81548173ffffffffffffffffffffffffffffffffffffffff021916908373ffffffffffffffffffffffffffffffffffffffff160217905550565b6000611a6382613713565b9050919050565b600a60009054906101000a900473ffffffffffffffffffffffffffffffffffffffff1681565b60006002600b541415611ad8576040517f08c379a0000000000000000000000000000000000000000000000000000000008152600401611acf906168cb565b60405180910390fd5b6002600b81905550601760009054906101000a900460ff1615611b30576040517f08c379a0000000000000000000000000000000000000000000000000000000008152600401611b279061684b565b60405180910390fd5b611b39826137c1565b90506001600b81905550919050565b6000601460008373ffffffffffffffffffffffffffffffffffffffff1673ffffffffffffffffffffffffffffffffffffffff168152602001908152602001600020549050919050565b6000600960009054906101000a900473ffffffffffffffffffffffffffffffffffffffff16905090565b6000601760009054906101000a900460ff1615611c0d576040517f08c379a0000000000000000000000000000000000000000000000000000000008152600401611c049061684b565b60405180910390fd5b611c1b8787878787876128f4565b90509695505050505050565b606060078054600181600116156101000203166002900480601f016020809104026020016040519081016040528092919081815260200182805460018160011615610100020316600290048015611cbf5780601f10611c9457610100808354040283529160200191611cbf565b820191906000526020600020905b815481529060010190602001808311611ca257829003601f168201915b5050505050905090565b611cd1612a51565b73ffffffffffffffffffffffffffffffffffffffff168273ffffffffffffffffffffffffffffffffffffffff161415611d3f576040517f08c379a0000000000000000000000000000000000000000000000000000000008152600401611d369061690b565b60405180910390fd5b8060056000611d4c612a51565b73ffffffffffffffffffffffffffffffffffffffff1673ffffffffffffffffffffffffffffffffffffffff16815260200190815260200160002060008473ffffffffffffffffffffffffffffffffffffffff1673ffffffffffffffffffffffffffffffffffffffff16815260200190815260200160002060006101000a81548160ff0219169083151502179055508173ffffffffffffffffffffffffffffffffffffffff16611df9612a51565b73ffffffffffffffffffffffffffffffffffffffff167f17307eab39ab6107e8899845ad3d59bd9653f200f220920489ca2b5937696c3183604051611e3e919061654e565b60405180910390a35050565b600060126000838152602001908152602001600020549050919050565b611e6f612a51565b73ffffffffffffffffffffffffffffffffffffffff16600960009054906101000a900473ffffffffffffffffffffffffffffffffffffffff1673ffffffffffffffffffffffffffffffffffffffff1614611efe576040517f08c379a0000000000000000000000000000000000000000000000000000000008152600401611ef59061674b565b60405180910390fd5b80600c60006101000a81548173ffffffffffffffffffffffffffffffffffffffff021916908373ffffffffffffffffffffffffffffffffffffffff1602179055508073ffffffffffffffffffffffffffffffffffffffff167ff28fa0fe2abe5dad2066ebce6edc9d403e4facb3603e47e6c0e7ea3e57dfe03260405160405180910390a250565b611f8d612a51565b73ffffffffffffffffffffffffffffffffffffffff16600960009054906101000a900473ffffffffffffffffffffffffffffffffffffffff1673ffffffffffffffffffffffffffffffffffffffff161461201c576040517f08c379a00000000000000000000000000000000000000000000000000000000081526004016120139061674b565b60405180910390fd5b80600d60006101000a81548173ffffffffffffffffffffffffffffffffffffffff021916908373ffffffffffffffffffffffffffffffffffffffff1602179055508073ffffffffffffffffffffffffffffffffffffffff167f62ff39aed768a426c7582b6e1062ab2631df1869b2d574e36f8274d2e2b0ab8160405160405180910390a250565b6120b46120ae612a51565b83612a60565b6120f3576040517f08c379a00000000000000000000000000000000000000000000000000000000081526004016120ea9061678b565b60405180910390fd5b6120ff84848484613b7c565b50505050565b606061211082612c26565b61214f576040517f08c379a0000000000000000000000000000000000000000000000000000000008152600401612146906168ab565b60405180910390fd5b600860008381526020019081526020016000208054600181600116156101000203166002900480601f0160208091040260200160405190810160405280929190818152602001828054600181600116156101000203166002900480156121f65780601f106121cb576101008083540402835291602001916121f6565b820191906000526020600020905b8154815290600101906020018083116121d957829003601f168201915b50505050509050919050565b601760009054906101000a900460ff1615612252576040517f08c379a00000000000000000000000000000000000000000000000000000000081526004016122499061684b565b60405180910390fd5b8161225b612a51565b73ffffffffffffffffffffffffffffffffffffffff166011600083815260200190815260200160002060009054906101000a900473ffffffffffffffffffffffffffffffffffffffff1673ffffffffffffffffffffffffffffffffffffffff16146122fb576040517f08c379a00000000000000000000000000000000000000000000000000000000081526004016122f2906167ab565b60405180910390fd5b8261230d612307612a51565b82612a60565b61234c576040517f08c379a0000000000000000000000000000000000000000000000000000000008152600401612343906168eb565b60405180910390fd5b6123568484613bd8565b50505050565b612364612a51565b73ffffffffffffffffffffffffffffffffffffffff16600960009054906101000a900473ffffffffffffffffffffffffffffffffffffffff1673ffffffffffffffffffffffffffffffffffffffff16146123f3576040517f08c379a00000000000000000000000000000000000000000000000000000000081526004016123ea9061674b565b60405180910390fd5b80600e60006101000a81548173ffffffffffffffffffffffffffffffffffffffff021916908373ffffffffffffffffffffffffffffffffffffffff1602179055508073ffffffffffffffffffffffffffffffffffffffff167f7ad4c1bc3e874ec0bf47846feb5648b384e8511dc9e5f9803578c9d2b4ec9e6e60405160405180910390a250565b612482612a51565b73ffffffffffffffffffffffffffffffffffffffff16600960009054906101000a900473ffffffffffffffffffffffffffffffffffffffff1673ffffffffffffffffffffffffffffffffffffffff1614612511576040517f08c379a00000000000000000000000000000000000000000000000000000000081526004016125089061674b565b60405180910390fd5b80600a60006101000a81548173ffffffffffffffffffffffffffffffffffffffff021916908373ffffffffffffffffffffffffffffffffffffffff16021790555050565b61255d612a51565b73ffffffffffffffffffffffffffffffffffffffff16600960009054906101000a900473ffffffffffffffffffffffffffffffffffffffff1673ffffffffffffffffffffffffffffffffffffffff16146125ec576040517f08c379a00000000000000000000000000000000000000000000000000000000081526004016125e39061674b565b60405180910390fd5b80601760006101000a81548160ff0219169083151502179055507fa9bfed3d98385b3777389e321dbde773cf7d335fa604fefbae3dca93564f558681604051612635919061654e565b60405180910390a150565b6000600560008473ffffffffffffffffffffffffffffffffffffffff1673ffffffffffffffffffffffffffffffffffffffff16815260200190815260200160002060008373ffffffffffffffffffffffffffffffffffffffff1673ffffffffffffffffffffffffffffffffffffffff16815260200190815260200160002060009054906101000a900460ff16905092915050565b6126dc612a51565b73ffffffffffffffffffffffffffffffffffffffff16600960009054906101000a900473ffffffffffffffffffffffffffffffffffffffff1673ffffffffffffffffffffffffffffffffffffffff161461276b576040517f08c379a00000000000000000000000000000000000000000000000000000000081526004016127629061674b565b60405180910390fd5b600073ffffffffffffffffffffffffffffffffffffffff168173ffffffffffffffffffffffffffffffffffffffff1614156127db576040517f08c379a00000000000000000000000000000000000000000000000000000000081526004016127d2906165ab565b60405180910390fd5b8073ffffffffffffffffffffffffffffffffffffffff16600960009054906101000a900473ffffffffffffffffffffffffffffffffffffffff1673ffffffffffffffffffffffffffffffffffffffff167f8be0079c531659141344cd1fd0a4f28419497f9722a3daafe3b4186f6b6457e060405160405180910390a380600960006101000a81548173ffffffffffffffffffffffffffffffffffffffff021916908373ffffffffffffffffffffffffffffffffffffffff16021790555050565b600060156000838152602001908152602001600020549050919050565b600060186000369050101580156128d457506128d33361144d565b5b156128e857601436033560601c90506128f0565b3390506128f1565b5b90565b60006129006010613c71565b61290a6010613c87565b9050612926868260405180602001604052806000815250613c95565b866011600083815260200190815260200160002060006101000a81548173ffffffffffffffffffffffffffffffffffffffff021916908373ffffffffffffffffffffffffffffffffffffffff1602179055506129828186613cf0565b6000831115612996576129958184613bd8565b5b60008211156129aa576129a98183612b3e565b5b6000841115612a4757600e60009054906101000a900473ffffffffffffffffffffffffffffffffffffffff1673ffffffffffffffffffffffffffffffffffffffff166315aea5d730838a886040518563ffffffff1660e01b8152600401612a14949392919061646a565b600060405180830381600087803b158015612a2e57600080fd5b505af1158015612a42573d6000803e3d6000fd5b505050505b9695505050505050565b6000612a5b6128b8565b905090565b6000612a6b82612c26565b612aaa576040517f08c379a0000000000000000000000000000000000000000000000000000000008152600401612aa1906168ab565b60405180910390fd5b6000612ab583611667565b90508073ffffffffffffffffffffffffffffffffffffffff168473ffffffffffffffffffffffffffffffffffffffff161480612b2457508373ffffffffffffffffffffffffffffffffffffffff16612b0c84610db6565b73ffffffffffffffffffffffffffffffffffffffff16145b80612b355750612b348185612640565b5b91505092915050565b600d60009054906101000a900473ffffffffffffffffffffffffffffffffffffffff1673ffffffffffffffffffffffffffffffffffffffff1663d4bf99163084600085116040518463ffffffff1660e01b8152600401612ba0939291906164af565b600060405180830381600087803b158015612bba57600080fd5b505af1158015612bce573d6000803e3d6000fd5b50505050806015600084815260200190815260200160002081905550817fe23ea816dce6d7f5c0b85cbd597e7c3b97b2453791152c0b94e5e5c5f314d2f082604051612c1a919061692b565b60405180910390a25050565b6000612c3c826002613d6490919063ffffffff16565b9050919050565b816004600083815260200190815260200160002060006101000a81548173ffffffffffffffffffffffffffffffffffffffff021916908373ffffffffffffffffffffffffffffffffffffffff160217905550808273ffffffffffffffffffffffffffffffffffffffff16612cb683611667565b73ffffffffffffffffffffffffffffffffffffffff167f8c5be1e5ebec7d5bd14f71427d1e84f3dd0314c0f7b2291e5b200ac8c7c3b92560405160405180910390a45050565b600073ffffffffffffffffffffffffffffffffffffffff168373ffffffffffffffffffffffffffffffffffffffff161415612d6c576040517f08c379a0000000000000000000000000000000000000000000000000000000008152600401612d63906165cb565b60405180910390fd5b808273ffffffffffffffffffffffffffffffffffffffff166370a08231306040518263ffffffff1660e01b8152600401612da691906162fd565b60206040518083038186803b158015612dbe57600080fd5b505afa158015612dd2573d6000803e3d6000fd5b505050506040513d601f19601f82011682018060405250810190612df69190615904565b10612e8c57612e2683828473ffffffffffffffffffffffffffffffffffffffff16613d7e9092919063ffffffff16565b8173ffffffffffffffffffffffffffffffffffffffff168373ffffffffffffffffffffffffffffffffffffffff167f6c9d637297625e945b296ff73a71fcfbd0a9e062652b6491a921c4c60194176b83604051612e83919061692b565b60405180910390a35b505050565b6000612e9f82600001613e04565b9050919050565b60006015600083815260200190815260200160002081905550600d60009054906101000a900473ffffffffffffffffffffffffffffffffffffffff1673ffffffffffffffffffffffffffffffffffffffff1663d4bf9916308360006040518463ffffffff1660e01b8152600401612f1f939291906164af565b600060405180830381600087803b158015612f3957600080fd5b505af1158015612f4d573d6000803e3d6000fd5b50505050612f5c838383613e15565b505050565b6000612f708360000183614021565b60001c905092915050565b600073ffffffffffffffffffffffffffffffffffffffff168373ffffffffffffffffffffffffffffffffffffffff161415612feb576040517f08c379a0000000000000000000000000000000000000000000000000000000008152600401612fe2906165cb565b60405180910390fd5b3073ffffffffffffffffffffffffffffffffffffffff168273ffffffffffffffffffffffffffffffffffffffff16636352211e836040518263ffffffff1660e01b815260040161303b919061692b565b60206040518083038186803b15801561305357600080fd5b505afa158015613067573d6000803e3d6000fd5b505050506040513d601f19601f8201168201806040525081019061308b91906152f0565b73ffffffffffffffffffffffffffffffffffffffff161415613172578173ffffffffffffffffffffffffffffffffffffffff166323b872dd3085846040518463ffffffff1660e01b81526004016130e493929190616364565b600060405180830381600087803b1580156130fe57600080fd5b505af1158015613112573d6000803e3d6000fd5b50505050808273ffffffffffffffffffffffffffffffffffffffff168473ffffffffffffffffffffffffffffffffffffffff167ffefe036cac4ee3a4aca074a81cbcc4376e1484693289078dbec149c890101d5b60405160405180910390a45b505050565b60008060008061318a866000018661408e565b915091508160001c8160001c9350935050509250929050565b600073ffffffffffffffffffffffffffffffffffffffff168273ffffffffffffffffffffffffffffffffffffffff161415613213576040517f08c379a000000000000000000000000000000000000000000000000000000000815260040161320a906165cb565b60405180910390fd5b80471061329157613243818373ffffffffffffffffffffffffffffffffffffffff1661411190919063ffffffff16565b8173ffffffffffffffffffffffffffffffffffffffff167eddb683bb45cd5d0ad8a200c6fae7152b1c236ee90a4a37db692407f5cc38bd82604051613288919061692b565b60405180910390a25b5050565b60008073ffffffffffffffffffffffffffffffffffffffff16600f60009054906101000a900473ffffffffffffffffffffffffffffffffffffffff1673ffffffffffffffffffffffffffffffffffffffff161415613328576040517f08c379a000000000000000000000000000000000000000000000000000000000815260040161331f906167eb565b60405180910390fd5b613337898988856000806128f4565b9050613346818686868b614205565b98975050505050505050565b600080601460008473ffffffffffffffffffffffffffffffffffffffff1673ffffffffffffffffffffffffffffffffffffffff168152602001908152602001600020549050600081116133da576040517f08c379a00000000000000000000000000000000000000000000000000000000081526004016133d19061682b565b60405180910390fd5b601460008473ffffffffffffffffffffffffffffffffffffffff1673ffffffffffffffffffffffffffffffffffffffff16815260200190815260200160002060009055613446818473ffffffffffffffffffffffffffffffffffffffff1661411190919063ffffffff16565b8273ffffffffffffffffffffffffffffffffffffffff167f8fbbda19f4a70036f6f585dc4160142a8fa2a20ffb9393d23274f78de4e398888260405161348c919061692b565b60405180910390a250919050565b60006134ad846000018460001b84614386565b60001c90509392505050565b818190508484905014613501576040517f08c379a00000000000000000000000000000000000000000000000000000000081526004016134f89061662b565b60405180910390fd5b6000309050600085859050905060005b818110156136f2576135236010613c71565b600061352f6010613c87565b905061354b8b8260405180602001604052806000815250613c95565b8a6011600083815260200190815260200160002060006101000a81548173ffffffffffffffffffffffffffffffffffffffff021916908373ffffffffffffffffffffffffffffffffffffffff160217905550613607818989858181106135ad57fe5b90506020028101906135bf919061697d565b8080601f016020809104026020016040519081016040528093929190818152602001838380828437600081840152601f19601f82011690508083019250505050505050613cf0565b600089111561361b5761361a818a613bd8565b5b600086868481811061362957fe5b9050602002013590506000811115613646576136458282612b3e565b5b60008b11156136e357600e60009054906101000a900473ffffffffffffffffffffffffffffffffffffffff1673ffffffffffffffffffffffffffffffffffffffff166315aea5d786848f8f6040518563ffffffff1660e01b81526004016136b0949392919061646a565b600060405180830381600087803b1580156136ca57600080fd5b505af11580156136de573d6000803e3d6000fd5b505050505b50508080600101915050613511565b50505050505050505050565b600061370c82600001614417565b9050919050565b6000806013600084815260200190815260200160002060009054906101000a900473ffffffffffffffffffffffffffffffffffffffff169050600073ffffffffffffffffffffffffffffffffffffffff168173ffffffffffffffffffffffffffffffffffffffff1614156137b8576011600084815260200190815260200160002060009054906101000a900473ffffffffffffffffffffffffffffffffffffffff1690505b80915050919050565b600080601560008481526020019081526020016000205490506000811161381d576040517f08c379a0000000000000000000000000000000000000000000000000000000008152600401613814906166ab565b60405180910390fd5b80341015613860576040517f08c379a00000000000000000000000000000000000000000000000000000000081526004016138579061668b565b60405180910390fd5b600081905060008061387186611667565b9050600061387d612a51565b9050600061388a88613713565b90506000601260008a81526020019081526020016000205490506000601660008b81526020019081526020016000205490506000821180156138cc5750600081115b80156138d757508088115b1561391d576139056127106138f784848c0361442890919063ffffffff16565b61449890919063ffffffff16565b955061391a86886144e290919063ffffffff16565b96505b87601660008c815260200190815260200160002081905550600073ffffffffffffffffffffffffffffffffffffffff16600c60009054906101000a900473ffffffffffffffffffffffffffffffffffffffff1673ffffffffffffffffffffffffffffffffffffffff1614613a2557600c60009054906101000a900473ffffffffffffffffffffffffffffffffffffffff1673ffffffffffffffffffffffffffffffffffffffff16638b9309b2308c88888d898d6040518863ffffffff1660e01b81526004016139f297969594939291906163fb565b600060405180830381600087803b158015613a0c57600080fd5b505af1158015613a20573d6000803e3d6000fd5b505050505b6000861115613ac457613a8086601460008673ffffffffffffffffffffffffffffffffffffffff1673ffffffffffffffffffffffffffffffffffffffff1681526020019081526020016000205461452c90919063ffffffff16565b601460008573ffffffffffffffffffffffffffffffffffffffff1673ffffffffffffffffffffffffffffffffffffffff168152602001908152602001600020819055505b613acf85858c612ea6565b613af8878673ffffffffffffffffffffffffffffffffffffffff1661411190919063ffffffff16565b8373ffffffffffffffffffffffffffffffffffffffff168573ffffffffffffffffffffffffffffffffffffffff168b7f71a2ee63bc7695052e3a9837d5a45dd1cc0ce12717e39cef6eb6afb0d91697ed8b878b604051613b5a93929190616946565b60405180910390a4613b6b88614581565b600198505050505050505050919050565b613b87848484612ea6565b613b93848484846145d6565b613bd2576040517f08c379a0000000000000000000000000000000000000000000000000000000008152600401613bc9906166eb565b60405180910390fd5b50505050565b611f40811115613c1d576040517f08c379a0000000000000000000000000000000000000000000000000000000008152600401613c14906166cb565b60405180910390fd5b806012600084815260200190815260200160002081905550817fd91bd92b973231f564eaa17c9bc62c86b96a8885f3cdcb990d5a3f0415580d9082604051613c65919061692b565b60405180910390a25050565b6001816000016000828254019250508190555050565b600081600001549050919050565b613c9f8383614757565b613cac60008484846145d6565b613ceb576040517f08c379a0000000000000000000000000000000000000000000000000000000008152600401613ce2906166eb565b60405180910390fd5b505050565b613cf982612c26565b613d38576040517f08c379a0000000000000000000000000000000000000000000000000000000008152600401613d2f906168ab565b60405180910390fd5b80600860008481526020019081526020016000209080519060200190613d5f929190615031565b505050565b6000613d76836000018360001b6148d9565b905092915050565b613dff8363a9059cbb60e01b8484604051602401613d9d9291906163d2565b604051602081830303815290604052907bffffffffffffffffffffffffffffffffffffffffffffffffffffffff19166020820180517bffffffffffffffffffffffffffffffffffffffffffffffffffffffff83818316178352505050506148fc565b505050565b600081600001805490509050919050565b8273ffffffffffffffffffffffffffffffffffffffff16613e3582611667565b73ffffffffffffffffffffffffffffffffffffffff1614613e8b576040517f08c379a0000000000000000000000000000000000000000000000000000000008152600401613e829061680b565b60405180910390fd5b600073ffffffffffffffffffffffffffffffffffffffff168273ffffffffffffffffffffffffffffffffffffffff161415613efb576040517f08c379a0000000000000000000000000000000000000000000000000000000008152600401613ef2906165eb565b60405180910390fd5b613f06600082612c43565b613f5781600160008673ffffffffffffffffffffffffffffffffffffffff1673ffffffffffffffffffffffffffffffffffffffff1681526020019081526020016000206149c390919063ffffffff16565b50613fa981600160008573ffffffffffffffffffffffffffffffffffffffff1673ffffffffffffffffffffffffffffffffffffffff1681526020019081526020016000206149dd90919063ffffffff16565b50613fc0818360026149f79092919063ffffffff16565b50808273ffffffffffffffffffffffffffffffffffffffff168473ffffffffffffffffffffffffffffffffffffffff167fddf252ad1be2c89b69c2b068fc378daa952ba7f163c4a11628f55a4df523b3ef60405160405180910390a4505050565b60008183600001805490501161406c576040517f08c379a00000000000000000000000000000000000000000000000000000000081526004016140639061658b565b60405180910390fd5b82600001828154811061407b57fe5b9060005260206000200154905092915050565b600080828460000180549050116140da576040517f08c379a00000000000000000000000000000000000000000000000000000000081526004016140d19061670b565b60405180910390fd5b60008460000184815481106140eb57fe5b906000526020600020906002020190508060000154816001015492509250509250929050565b80471015614154576040517f08c379a000000000000000000000000000000000000000000000000000000000815260040161414b9061666b565b60405180910390fd5b60008273ffffffffffffffffffffffffffffffffffffffff168260405161417a906162e8565b60006040518083038185875af1925050503d80600081146141b7576040519150601f19603f3d011682016040523d82523d6000602084013e6141bc565b606091505b5050905080614200576040517f08c379a00000000000000000000000000000000000000000000000000000000081526004016141f79061664b565b60405180910390fd5b505050565b614217614210612a51565b8484614a2c565b8273ffffffffffffffffffffffffffffffffffffffff1663095ea7b3600f60009054906101000a900473ffffffffffffffffffffffffffffffffffffffff16846040518363ffffffff1660e01b81526004016142749291906163d2565b602060405180830381600087803b15801561428e57600080fd5b505af11580156142a2573d6000803e3d6000fd5b505050506040513d601f19601f820116820180604052508101906142c69190615860565b50600f60009054906101000a900473ffffffffffffffffffffffffffffffffffffffff1673ffffffffffffffffffffffffffffffffffffffff16630bdde2ca3087878787876040518763ffffffff1660e01b815260040161432c969594939291906164e6565b602060405180830381600087803b15801561434657600080fd5b505af115801561435a573d6000803e3d6000fd5b505050506040513d601f19601f8201168201806040525081019061437e9190615904565b505050505050565b600080846001016000858152602001908152602001600020549050600081141583906143e8576040517f08c379a00000000000000000000000000000000000000000000000000000000081526004016143df9190616569565b60405180910390fd5b508460000160018203815481106143fb57fe5b9060005260206000209060020201600101549150509392505050565b600081600001805490509050919050565b60008083141561443b5760009050614492565b600082840290508284828161444c57fe5b041461448d576040517f08c379a00000000000000000000000000000000000000000000000000000000081526004016144849061672b565b60405180910390fd5b809150505b92915050565b60006144da83836040518060400160405280601a81526020017f536166654d6174683a206469766973696f6e206279207a65726f000000000000815250614bd0565b905092915050565b600061452483836040518060400160405280601e81526020017f536166654d6174683a207375627472616374696f6e206f766572666c6f770000815250614c31565b905092915050565b600080828401905083811015614577576040517f08c379a000000000000000000000000000000000000000000000000000000000815260040161456e9061660b565b60405180910390fd5b8091505092915050565b600061459682346144e290919063ffffffff16565b905060008111156145d2576145d1816145ad612a51565b73ffffffffffffffffffffffffffffffffffffffff1661411190919063ffffffff16565b5b5050565b60006145f78473ffffffffffffffffffffffffffffffffffffffff16614c8c565b614604576001905061474f565b60606146e863150b7a0260e01b614619612a51565b88878760405160240161462f9493929190616318565b604051602081830303815290604052907bffffffffffffffffffffffffffffffffffffffffffffffffffffffff19166020820180517bffffffffffffffffffffffffffffffffffffffffffffffffffffffff83818316178352505050506040518060400160405280600c81526020017f4552433732313a452d34303200000000000000000000000000000000000000008152508773ffffffffffffffffffffffffffffffffffffffff16614c9f9092919063ffffffff16565b905060008180602001905181019061470091906158b2565b905063150b7a0260e01b7bffffffffffffffffffffffffffffffffffffffffffffffffffffffff1916817bffffffffffffffffffffffffffffffffffffffffffffffffffffffff191614925050505b949350505050565b600073ffffffffffffffffffffffffffffffffffffffff168273ffffffffffffffffffffffffffffffffffffffff1614156147c7576040517f08c379a00000000000000000000000000000000000000000000000000000000081526004016147be906165eb565b60405180910390fd5b6147d081612c26565b15614810576040517f08c379a00000000000000000000000000000000000000000000000000000000081526004016148079061676b565b60405180910390fd5b61486181600160008573ffffffffffffffffffffffffffffffffffffffff1673ffffffffffffffffffffffffffffffffffffffff1681526020019081526020016000206149dd90919063ffffffff16565b50614878818360026149f79092919063ffffffff16565b50808273ffffffffffffffffffffffffffffffffffffffff16600073ffffffffffffffffffffffffffffffffffffffff167fddf252ad1be2c89b69c2b068fc378daa952ba7f163c4a11628f55a4df523b3ef60405160405180910390a45050565b600080836001016000848152602001908152602001600020541415905092915050565b606061495e826040518060400160405280602081526020017f5361666545524332303a206c6f772d6c6576656c2063616c6c206661696c65648152508573ffffffffffffffffffffffffffffffffffffffff16614c9f9092919063ffffffff16565b90506000815111156149be578080602001905181019061497e9190615860565b6149bd576040517f08c379a00000000000000000000000000000000000000000000000000000000081526004016149b49061686b565b60405180910390fd5b5b505050565b60006149d5836000018360001b614cb7565b905092915050565b60006149ef836000018360001b614d9f565b905092915050565b6000614a23846000018460001b8473ffffffffffffffffffffffffffffffffffffffff1660001b614e0f565b90509392505050565b60008273ffffffffffffffffffffffffffffffffffffffff166370a08231856040518263ffffffff1660e01b8152600401614a6791906162fd565b60206040518083038186803b158015614a7f57600080fd5b505afa158015614a93573d6000803e3d6000fd5b505050506040513d601f19601f82011682018060405250810190614ab79190615904565b905080821115614afc576040517f08c379a0000000000000000000000000000000000000000000000000000000008152600401614af39061682b565b60405180910390fd5b8273ffffffffffffffffffffffffffffffffffffffff166323b872dd8530856040518463ffffffff1660e01b8152600401614b399392919061639b565b602060405180830381600087803b158015614b5357600080fd5b505af1158015614b67573d6000803e3d6000fd5b505050506040513d601f19601f82011682018060405250810190614b8b9190615860565b614bca576040517f08c379a0000000000000000000000000000000000000000000000000000000008152600401614bc19061688b565b60405180910390fd5b50505050565b60008083118290614c17576040517f08c379a0000000000000000000000000000000000000000000000000000000008152600401614c0e9190616569565b60405180910390fd5b506000838581614c2357fe5b049050809150509392505050565b6000838311158290614c79576040517f08c379a0000000000000000000000000000000000000000000000000000000008152600401614c709190616569565b60405180910390fd5b5060008385039050809150509392505050565b600080823b905060008111915050919050565b6060614cae8484600085614eeb565b90509392505050565b60008083600101600084815260200190815260200160002054905060008114614d935760006001820390506000600186600001805490500390506000866000018281548110614d0257fe5b9060005260206000200154905080876000018481548110614d1f57fe5b9060005260206000200181905550600183018760010160008381526020019081526020016000208190555086600001805480614d5757fe5b60019003818190600052602060002001600090559055866001016000878152602001908152602001600020600090556001945050505050614d99565b60009150505b92915050565b6000614dab838361500e565b614e04578260000182908060018154018082558091505060019003906000526020600020016000909190919091505582600001805490508360010160008481526020019081526020016000208190555060019050614e09565b600090505b92915050565b6000808460010160008581526020019081526020016000205490506000811415614eb657846000016040518060400160405280868152602001858152509080600181540180825580915050600190039060005260206000209060020201600090919091909150600082015181600001556020820151816001015550508460000180549050856001016000868152602001908152602001600020819055506001915050614ee4565b82856000016001830381548110614ec957fe5b90600052602060002090600202016001018190555060009150505b9392505050565b6060614ef685614c8c565b614f35576040517f08c379a0000000000000000000000000000000000000000000000000000000008152600401614f2c906167cb565b60405180910390fd5b600060608673ffffffffffffffffffffffffffffffffffffffff168587604051614f5f91906162d1565b60006040518083038185875af1925050503d8060008114614f9c576040519150601f19603f3d011682016040523d82523d6000602084013e614fa1565b606091505b50915091508115614fb6578092505050615006565b600081511115614fc95780518082602001fd5b836040517f08c379a0000000000000000000000000000000000000000000000000000000008152600401614ffd9190616569565b60405180910390fd5b949350505050565b600080836001016000848152602001908152602001600020541415905092915050565b828054600181600116156101000203166002900490600052602060002090601f016020900481019282601f1061507257805160ff19168380011785556150a0565b828001600101855582156150a0579182015b8281111561509f578251825591602001919060010190615084565b5b5090506150ad91906150b1565b5090565b5b808211156150ca5760008160009055506001016150b2565b5090565b6000813590506150dd81616bab565b92915050565b6000815190506150f281616bab565b92915050565b60008135905061510781616bc2565b92915050565b60008083601f84011261511f57600080fd5b8235905067ffffffffffffffff81111561513857600080fd5b60208301915083602082028301111561515057600080fd5b9250929050565b60008083601f84011261516957600080fd5b8235905067ffffffffffffffff81111561518257600080fd5b60208301915083602082028301111561519a57600080fd5b9250929050565b6000813590506151b081616bd9565b92915050565b6000815190506151c581616bd9565b92915050565b6000813590506151da81616bf0565b92915050565b6000815190506151ef81616bf0565b92915050565b600082601f83011261520657600080fd5b813561521961521482616a01565b6169d4565b9150808252602083016020830185838301111561523557600080fd5b615240838284616b58565b50505092915050565b600082601f83011261525a57600080fd5b813561526d61526882616a2d565b6169d4565b9150808252602083016020830185838301111561528957600080fd5b615294838284616b58565b50505092915050565b6000813590506152ac81616c07565b92915050565b6000815190506152c181616c07565b92915050565b6000602082840312156152d957600080fd5b60006152e7848285016150ce565b91505092915050565b60006020828403121561530257600080fd5b6000615310848285016150e3565b91505092915050565b60008060006060848603121561532e57600080fd5b600061533c868287016150f8565b935050602061534d868287016150ce565b925050604061535e8682870161529d565b9150509250925092565b6000806040838503121561537b57600080fd5b6000615389858286016150f8565b925050602061539a8582860161529d565b9150509250929050565b600080604083850312156153b757600080fd5b60006153c5858286016150ce565b92505060206153d6858286016150ce565b9150509250929050565b600080600080600080600080610100898b0312156153fd57600080fd5b600061540b8b828c016150ce565b985050602061541c8b828c016150ce565b975050604061542d8b828c016150ce565b965050606089013567ffffffffffffffff81111561544a57600080fd5b6154568b828c01615249565b955050608089013567ffffffffffffffff81111561547357600080fd5b61547f8b828c01615249565b94505060a06154908b828c016150ce565b93505060c06154a18b828c0161529d565b92505060e06154b28b828c0161529d565b9150509295985092959890939650565b6000806000606084860312156154d757600080fd5b60006154e5868287016150ce565b93505060206154f6868287016150ce565b925050604084013567ffffffffffffffff81111561551357600080fd5b61551f86828701615249565b9150509250925092565b6000806000806080858703121561553f57600080fd5b600061554d878288016150ce565b945050602061555e878288016150ce565b935050604085013567ffffffffffffffff81111561557b57600080fd5b61558787828801615249565b92505060606155988782880161529d565b91505092959194509250565b60008060008060008060c087890312156155bd57600080fd5b60006155cb89828a016150ce565b96505060206155dc89828a016150ce565b955050604087013567ffffffffffffffff8111156155f957600080fd5b61560589828a01615249565b945050606061561689828a0161529d565b935050608061562789828a0161529d565b92505060a061563889828a0161529d565b9150509295509295509295565b60008060006060848603121561565a57600080fd5b6000615668868287016150ce565b9350506020615679868287016150ce565b925050604061568a8682870161529d565b9150509250925092565b600080600080608085870312156156aa57600080fd5b60006156b8878288016150ce565b94505060206156c9878288016150ce565b93505060406156da8782880161529d565b925050606085013567ffffffffffffffff8111156156f757600080fd5b615703878288016151f5565b91505092959194509250565b6000806040838503121561572257600080fd5b6000615730858286016150ce565b9250506020615741858286016151a1565b9150509250929050565b6000806040838503121561575e57600080fd5b600061576c858286016150ce565b925050602061577d8582860161529d565b9150509250929050565b600080600080600080600060a0888a0312156157a257600080fd5b60006157b08a828b016150ce565b97505060206157c18a828b0161529d565b96505060406157d28a828b0161529d565b955050606088013567ffffffffffffffff8111156157ef57600080fd5b6157fb8a828b0161510d565b9450945050608088013567ffffffffffffffff81111561581a57600080fd5b6158268a828b01615157565b925092505092959891949750929550565b60006020828403121561584957600080fd5b6000615857848285016151a1565b91505092915050565b60006020828403121561587257600080fd5b6000615880848285016151b6565b91505092915050565b60006020828403121561589b57600080fd5b60006158a9848285016151cb565b91505092915050565b6000602082840312156158c457600080fd5b60006158d2848285016151e0565b91505092915050565b6000602082840312156158ed57600080fd5b60006158fb8482850161529d565b91505092915050565b60006020828403121561591657600080fd5b6000615924848285016152b2565b91505092915050565b6000806040838503121561594057600080fd5b600061594e8582860161529d565b925050602061595f858286016150ce565b9150509250929050565b6000806040838503121561597c57600080fd5b600061598a8582860161529d565b925050602061599b8582860161529d565b9150509250929050565b6159ae81616b22565b82525050565b6159bd81616aae565b82525050565b6159cc81616a9c565b82525050565b6159db81616ac0565b82525050565b60006159ec82616a59565b6159f68185616a6f565b9350615a06818560208601616b67565b615a0f81616b9a565b840191505092915050565b6000615a2582616a59565b615a2f8185616a80565b9350615a3f818560208601616b67565b80840191505092915050565b6000615a5682616a64565b615a608185616a8b565b9350615a70818560208601616b67565b615a7981616b9a565b840191505092915050565b6000615a91602283616a8b565b91507f456e756d657261626c655365743a20696e646578206f7574206f6620626f756e60008301527f64730000000000000000000000000000000000000000000000000000000000006020830152604082019050919050565b6000615af7602683616a8b565b91507f4f776e61626c653a206e6577206f776e657220697320746865207a65726f206160008301527f64647265737300000000000000000000000000000000000000000000000000006020830152604082019050919050565b6000615b5d600983616a8b565b91507f4248503a452d34303300000000000000000000000000000000000000000000006000830152602082019050919050565b6000615b9d600c83616a8b565b91507f4552433732313a452d34303300000000000000000000000000000000000000006000830152602082019050919050565b6000615bdd601b83616a8b565b91507f536166654d6174683a206164646974696f6e206f766572666c6f7700000000006000830152602082019050919050565b6000615c1d600983616a8b565b91507f5052543a452d32303200000000000000000000000000000000000000000000006000830152602082019050919050565b6000615c5d603a83616a8b565b91507f416464726573733a20756e61626c6520746f2073656e642076616c75652c207260008301527f6563697069656e74206d617920686176652072657665727465640000000000006020830152604082019050919050565b6000615cc3601d83616a8b565b91507f416464726573733a20696e73756666696369656e742062616c616e63650000006000830152602082019050919050565b6000615d03600983616a8b565b91507f5052543a452d34313400000000000000000000000000000000000000000000006000830152602082019050919050565b6000615d43600983616a8b565b91507f5052543a452d34313600000000000000000000000000000000000000000000006000830152602082019050919050565b6000615d83600983616a8b565b91507f5052543a452d34323100000000000000000000000000000000000000000000006000830152602082019050919050565b6000615dc3600c83616a8b565b91507f4552433732313a452d34303200000000000000000000000000000000000000006000830152602082019050919050565b6000615e03602283616a8b565b91507f456e756d657261626c654d61703a20696e646578206f7574206f6620626f756e60008301527f64730000000000000000000000000000000000000000000000000000000000006020830152604082019050919050565b6000615e69602183616a8b565b91507f536166654d6174683a206d756c7469706c69636174696f6e206f766572666c6f60008301527f77000000000000000000000000000000000000000000000000000000000000006020830152604082019050919050565b6000615ecf602083616a8b565b91507f4f776e61626c653a2063616c6c6572206973206e6f7420746865206f776e65726000830152602082019050919050565b6000615f0f600c83616a8b565b91507f4552433732313a452d34303700000000000000000000000000000000000000006000830152602082019050919050565b6000615f4f600c83616a8b565b91507f4552433732313a452d31303500000000000000000000000000000000000000006000830152602082019050919050565b6000615f8f600983616a8b565b91507f5052543a452d31303400000000000000000000000000000000000000000000006000830152602082019050919050565b6000615fcf600083616a80565b9150600082019050919050565b6000615fe9601d83616a8b565b91507f416464726573733a2063616c6c20746f206e6f6e2d636f6e74726163740000006000830152602082019050919050565b6000616029600983616a8b565b91507f5052543a452d31303700000000000000000000000000000000000000000000006000830152602082019050919050565b6000616069600c83616a8b565b91507f4552433732313a452d31303200000000000000000000000000000000000000006000830152602082019050919050565b60006160a9600983616a8b565b91507f5052543a452d34313100000000000000000000000000000000000000000000006000830152602082019050919050565b60006160e9600983616a8b565b91507f5052543a452d31303100000000000000000000000000000000000000000000006000830152602082019050919050565b6000616129602a83616a8b565b91507f5361666545524332303a204552433230206f7065726174696f6e20646964206e60008301527f6f742073756363656564000000000000000000000000000000000000000000006020830152604082019050919050565b600061618f600983616a8b565b91507f5052543a452d34303100000000000000000000000000000000000000000000006000830152602082019050919050565b60006161cf600c83616a8b565b91507f4552433732313a452d34303500000000000000000000000000000000000000006000830152602082019050919050565b600061620f601f83616a8b565b91507f5265656e7472616e637947756172643a207265656e7472616e742063616c6c006000830152602082019050919050565b600061624f600983616a8b565b91507f5052543a452d31303500000000000000000000000000000000000000000000006000830152602082019050919050565b600061628f600c83616a8b565b91507f4552433732313a452d31313100000000000000000000000000000000000000006000830152602082019050919050565b6162cb81616b18565b82525050565b60006162dd8284615a1a565b915081905092915050565b60006162f382615fc2565b9150819050919050565b600060208201905061631260008301846159c3565b92915050565b600060808201905061632d60008301876159b4565b61633a60208301866159c3565b61634760408301856162c2565b818103606083015261635981846159e1565b905095945050505050565b600060608201905061637960008301866159c3565b61638660208301856159a5565b61639360408301846162c2565b949350505050565b60006060820190506163b060008301866159c3565b6163bd60208301856159c3565b6163ca60408301846162c2565b949350505050565b60006040820190506163e760008301856159c3565b6163f460208301846162c2565b9392505050565b600060e082019050616410600083018a6159c3565b61641d60208301896162c2565b61642a60408301886159c3565b61643760608301876159c3565b61644460808301866162c2565b61645160a08301856159c3565b61645e60c08301846162c2565b98975050505050505050565b600060808201905061647f60008301876159c3565b61648c60208301866162c2565b61649960408301856159c3565b6164a660608301846162c2565b95945050505050565b60006060820190506164c460008301866159c3565b6164d160208301856162c2565b6164de60408301846159d2565b949350505050565b600060c0820190506164fb60008301896159c3565b61650860208301886162c2565b818103604083015261651a8187615a4b565b905061652960608301866159c3565b61653660808301856162c2565b61654360a08301846159c3565b979650505050505050565b600060208201905061656360008301846159d2565b92915050565b600060208201905081810360008301526165838184615a4b565b905092915050565b600060208201905081810360008301526165a481615a84565b9050919050565b600060208201905081810360008301526165c481615aea565b9050919050565b600060208201905081810360008301526165e481615b50565b9050919050565b6000602082019050818103600083015261660481615b90565b9050919050565b6000602082019050818103600083015261662481615bd0565b9050919050565b6000602082019050818103600083015261664481615c10565b9050919050565b6000602082019050818103600083015261666481615c50565b9050919050565b6000602082019050818103600083015261668481615cb6565b9050919050565b600060208201905081810360008301526166a481615cf6565b9050919050565b600060208201905081810360008301526166c481615d36565b9050919050565b600060208201905081810360008301526166e481615d76565b9050919050565b6000602082019050818103600083015261670481615db6565b9050919050565b6000602082019050818103600083015261672481615df6565b9050919050565b6000602082019050818103600083015261674481615e5c565b9050919050565b6000602082019050818103600083015261676481615ec2565b9050919050565b6000602082019050818103600083015261678481615f02565b9050919050565b600060208201905081810360008301526167a481615f42565b9050919050565b600060208201905081810360008301526167c481615f82565b9050919050565b600060208201905081810360008301526167e481615fdc565b9050919050565b600060208201905081810360008301526168048161601c565b9050919050565b600060208201905081810360008301526168248161605c565b9050919050565b600060208201905081810360008301526168448161609c565b9050919050565b60006020820190508181036000830152616864816160dc565b9050919050565b600060208201905081810360008301526168848161611c565b9050919050565b600060208201905081810360008301526168a481616182565b9050919050565b600060208201905081810360008301526168c4816161c2565b9050919050565b600060208201905081810360008301526168e481616202565b9050919050565b6000602082019050818103600083015261690481616242565b9050919050565b6000602082019050818103600083015261692481616282565b9050919050565b600060208201905061694060008301846162c2565b92915050565b600060608201905061695b60008301866162c2565b61696860208301856159c3565b61697560408301846162c2565b949350505050565b6000808335600160200384360303811261699657600080fd5b80840192508235915067ffffffffffffffff8211156169b457600080fd5b6020830192506001820236038313156169cc57600080fd5b509250929050565b6000604051905081810181811067ffffffffffffffff821117156169f757600080fd5b8060405250919050565b600067ffffffffffffffff821115616a1857600080fd5b601f19601f8301169050602081019050919050565b600067ffffffffffffffff821115616a4457600080fd5b601f19601f8301169050602081019050919050565b600081519050919050565b600081519050919050565b600082825260208201905092915050565b600081905092915050565b600082825260208201905092915050565b6000616aa782616af8565b9050919050565b6000616ab982616af8565b9050919050565b60008115159050919050565b60007fffffffff0000000000000000000000000000000000000000000000000000000082169050919050565b600073ffffffffffffffffffffffffffffffffffffffff82169050919050565b6000819050919050565b6000616b2d82616b34565b9050919050565b6000616b3f82616b46565b9050919050565b6000616b5182616af8565b9050919050565b82818337600083830152505050565b60005b83811015616b85578082015181840152602081019050616b6a565b83811115616b94576000848401525b50505050565b6000601f19601f8301169050919050565b616bb481616a9c565b8114616bbf57600080fd5b50565b616bcb81616aae565b8114616bd657600080fd5b50565b616be281616ac0565b8114616bed57600080fd5b50565b616bf981616acc565b8114616c0457600080fd5b50565b616c1081616b18565b8114616c1b57600080fd5b5056fe312e302e302d626574612e312f636861726765642d7061727469636c65732e72656c61792e726563697069656e74a26469706673582212206417fbf34553ee1c2535cc80f4e6852020d5ab78a428505d3acefd21cf5ba6fb64736f6c634300060c0033",
  "linkReferences": {},
  "deployedLinkReferences": {}
}