{"contracts/AccountRegistryBridge.sol":{"AccountRegistryBridge":{"abi":[{"inputs":[],"name":"IMPLMENTATION","outputs":[{"internalType":"address","name":"","type":"address"}],"stateMutability":"view","type":"function"},{"inputs":[],"name":"REGISTRY","outputs":[{"internalType":"address","name":"","type":"address"}],"stateMutability":"view","type":"function"},{"inputs":[{"internalType":"address","name":"contractAddress","type":"address"},{"internalType":"uint256","name":"tokenId","type":"uint256"}],"name":"account","outputs":[{"internalType":"address","name":"","type":"address"}],"stateMutability":"view","type":"function"},{"inputs":[{"internalType":"address","name":"contractAddress","type":"address"},{"internalType":"uint256","name":"tokenId","type":"uint256"}],"name":"createAccount","outputs":[{"internalType":"address","name":"","type":"address"}],"stateMutability":"nonpayable","type":"function"}],"devdoc":{"kind":"dev","methods":{},"version":1},"evm":{"bytecode":{"linkReferences":{},"object":"608060405234801561001057600080fd5b506102ad806100206000396000f3fe608060405234801561001057600080fd5b506004361061004c5760003560e01c806306433b1b14610051578063192df655146100885780635fbfb9cf1461009b5780637fdfc7b2146100ae575b600080fd5b61006c732d25602551487c3f3354dd80d76d54383a24335881565b6040516001600160a01b03909116815260200160405180910390f35b61006c61009636600461022e565b6100c9565b61006c6100a936600461022e565b61017d565b61006c73db46d1dc155634fbc732f92e853b10b288ad5a1d81565b604051632f4de29b60e11b815273db46d1dc155634fbc732f92e853b10b288ad5a1d60048201524660248201526001600160a01b03831660448201526064810182905260006084820181905290732d25602551487c3f3354dd80d76d54383a24335890635e9bc5369060a401602060405180830381865afa158015610152573d6000803e3d6000fd5b505050506040513d601f19601f82011682018060405250810190610176919061025a565b9392505050565b60405163da7323b360e01b815273db46d1dc155634fbc732f92e853b10b288ad5a1d60048201524660248201526001600160a01b03831660448201526064810182905260006084820181905260c060a483015260c4820181905290732d25602551487c3f3354dd80d76d54383a2433589063da7323b39060e4016020604051808303816000875af1158015610152573d6000803e3d6000fd5b6001600160a01b038116811461022b57600080fd5b50565b6000806040838503121561024157600080fd5b823561024c81610216565b946020939093013593505050565b60006020828403121561026c57600080fd5b81516101768161021656fea26469706673582212206a5aa5e0dc8e57020b1904a66487285e34b6ea5734af007ef5995dfb6eea458664736f6c63430008110033","opcodes":"PUSH1 0x80 PUSH1 0x40 MSTORE CALLVALUE DUP1 ISZERO PUSH2 0x10 JUMPI PUSH1 0x0 DUP1 REVERT JUMPDEST POP PUSH2 0x2AD DUP1 PUSH2 0x20 PUSH1 0x0 CODECOPY PUSH1 0x0 RETURN INVALID PUSH1 0x80 PUSH1 0x40 MSTORE CALLVALUE DUP1 ISZERO PUSH2 0x10 JUMPI PUSH1 0x0 DUP1 REVERT JUMPDEST POP PUSH1 0x4 CALLDATASIZE LT PUSH2 0x4C JUMPI PUSH1 0x0 CALLDATALOAD PUSH1 0xE0 SHR DUP1 PUSH4 0x6433B1B EQ PUSH2 0x51 JUMPI DUP1 PUSH4 0x192DF655 EQ PUSH2 0x88 JUMPI DUP1 PUSH4 0x5FBFB9CF EQ PUSH2 0x9B JUMPI DUP1 PUSH4 0x7FDFC7B2 EQ PUSH2 0xAE JUMPI JUMPDEST PUSH1 0x0 DUP1 REVERT JUMPDEST PUSH2 0x6C PUSH20 0x2D25602551487C3F3354DD80D76D54383A243358 DUP2 JUMP JUMPDEST PUSH1 0x40 MLOAD PUSH1 0x1 PUSH1 0x1 PUSH1 0xA0 SHL SUB SWAP1 SWAP2 AND DUP2 MSTORE PUSH1 0x20 ADD PUSH1 0x40 MLOAD DUP1 SWAP2 SUB SWAP1 RETURN JUMPDEST PUSH2 0x6C PUSH2 0x96 CALLDATASIZE PUSH1 0x4 PUSH2 0x22E JUMP JUMPDEST PUSH2 0xC9 JUMP JUMPDEST PUSH2 0x6C PUSH2 0xA9 CALLDATASIZE PUSH1 0x4 PUSH2 0x22E JUMP JUMPDEST PUSH2 0x17D JUMP JUMPDEST PUSH2 0x6C PUSH20 0xDB46D1DC155634FBC732F92E853B10B288AD5A1D DUP2 JUMP JUMPDEST PUSH1 0x40 MLOAD PUSH4 0x2F4DE29B PUSH1 0xE1 SHL DUP2 MSTORE PUSH20 0xDB46D1DC155634FBC732F92E853B10B288AD5A1D PUSH1 0x4 DUP3 ADD MSTORE CHAINID PUSH1 0x24 DUP3 ADD MSTORE PUSH1 0x1 PUSH1 0x1 PUSH1 0xA0 SHL SUB DUP4 AND PUSH1 0x44 DUP3 ADD MSTORE PUSH1 0x64 DUP2 ADD DUP3 SWAP1 MSTORE PUSH1 0x0 PUSH1 0x84 DUP3 ADD DUP2 SWAP1 MSTORE SWAP1 PUSH20 0x2D25602551487C3F3354DD80D76D54383A243358 SWAP1 PUSH4 0x5E9BC536 SWAP1 PUSH1 0xA4 ADD PUSH1 0x20 PUSH1 0x40 MLOAD DUP1 DUP4 SUB DUP2 DUP7 GAS STATICCALL ISZERO DUP1 ISZERO PUSH2 0x152 JUMPI RETURNDATASIZE PUSH1 0x0 DUP1 RETURNDATACOPY RETURNDATASIZE PUSH1 0x0 REVERT JUMPDEST POP POP POP POP PUSH1 0x40 MLOAD RETURNDATASIZE PUSH1 0x1F NOT PUSH1 0x1F DUP3 ADD AND DUP3 ADD DUP1 PUSH1 0x40 MSTORE POP DUP2 ADD SWAP1 PUSH2 0x176 SWAP2 SWAP1 PUSH2 0x25A JUMP JUMPDEST SWAP4 SWAP3 POP POP POP JUMP JUMPDEST PUSH1 0x40 MLOAD PUSH4 0xDA7323B3 PUSH1 0xE0 SHL DUP2 MSTORE PUSH20 0xDB46D1DC155634FBC732F92E853B10B288AD5A1D PUSH1 0x4 DUP3 ADD MSTORE CHAINID PUSH1 0x24 DUP3 ADD MSTORE PUSH1 0x1 PUSH1 0x1 PUSH1 0xA0 SHL SUB DUP4 AND PUSH1 0x44 DUP3 ADD MSTORE PUSH1 0x64 DUP2 ADD DUP3 SWAP1 MSTORE PUSH1 0x0 PUSH1 0x84 DUP3 ADD DUP2 SWAP1 MSTORE PUSH1 0xC0 PUSH1 0xA4 DUP4 ADD MSTORE PUSH1 0xC4 DUP3 ADD DUP2 SWAP1 MSTORE SWAP1 PUSH20 0x2D25602551487C3F3354DD80D76D54383A243358 SWAP1 PUSH4 0xDA7323B3 SWAP1 PUSH1 0xE4 ADD PUSH1 0x20 PUSH1 0x40 MLOAD DUP1 DUP4 SUB DUP2 PUSH1 0x0 DUP8 GAS CALL ISZERO DUP1 ISZERO PUSH2 0x152 JUMPI RETURNDATASIZE PUSH1 0x0 DUP1 RETURNDATACOPY RETURNDATASIZE PUSH1 0x0 REVERT JUMPDEST PUSH1 0x1 PUSH1 0x1 PUSH1 0xA0 SHL SUB DUP2 AND DUP2 EQ PUSH2 0x22B JUMPI PUSH1 0x0 DUP1 REVERT JUMPDEST POP JUMP JUMPDEST PUSH1 0x0 DUP1 PUSH1 0x40 DUP4 DUP6 SUB SLT ISZERO PUSH2 0x241 JUMPI PUSH1 0x0 DUP1 REVERT JUMPDEST DUP3 CALLDATALOAD PUSH2 0x24C DUP2 PUSH2 0x216 JUMP JUMPDEST SWAP5 PUSH1 0x20 SWAP4 SWAP1 SWAP4 ADD CALLDATALOAD SWAP4 POP POP POP JUMP JUMPDEST PUSH1 0x0 PUSH1 0x20 DUP3 DUP5 SUB SLT ISZERO PUSH2 0x26C JUMPI PUSH1 0x0 DUP1 REVERT JUMPDEST DUP2 MLOAD PUSH2 0x176 DUP2 PUSH2 0x216 JUMP INVALID LOG2 PUSH5 0x6970667358 0x22 SLT KECCAK256 PUSH11 0x5AA5E0DC8E57020B1904A6 PUSH5 0x87285E34B6 0xEA JUMPI CALLVALUE 0xAF STOP PUSH31 0xF5995DFB6EEA458664736F6C63430008110033000000000000000000000000 "},"gasEstimates":{"creation":{"codeDepositCost":"137000","executionCost":"183","totalCost":"137183"},"external":{"IMPLMENTATION()":"248","REGISTRY()":"182","account(address,uint256)":"infinite","createAccount(address,uint256)":"infinite"}},"methodIdentifiers":{"IMPLMENTATION()":"7fdfc7b2","REGISTRY()":"06433b1b","account(address,uint256)":"192df655","createAccount(address,uint256)":"5fbfb9cf"}},"storageLayout":{"storage":[],"types":null},"userdoc":{"kind":"user","methods":{},"version":1}}}}