{"contracts/ChargedParticlesAccount.sol":{"ChargedParticlesAccount":{"abi":[{"inputs":[],"name":"AccountLocked","type":"error"},{"inputs":[],"name":"ExceedsMaxLockTime","type":"error"},{"inputs":[],"name":"InvalidInput","type":"error"},{"inputs":[],"name":"NotAuthorized","type":"error"},{"inputs":[],"name":"OwnershipCycle","type":"error"},{"anonymous":false,"inputs":[{"indexed":false,"internalType":"uint256","name":"lockedUntil","type":"uint256"}],"name":"LockUpdated","type":"event"},{"anonymous":false,"inputs":[{"indexed":false,"internalType":"address","name":"owner","type":"address"},{"indexed":false,"internalType":"bytes4","name":"selector","type":"bytes4"},{"indexed":false,"internalType":"address","name":"implementation","type":"address"}],"name":"OverrideUpdated","type":"event"},{"anonymous":false,"inputs":[{"indexed":false,"internalType":"address","name":"owner","type":"address"},{"indexed":false,"internalType":"address","name":"caller","type":"address"},{"indexed":false,"internalType":"bool","name":"hasPermission","type":"bool"}],"name":"PermissionUpdated","type":"event"},{"anonymous":false,"inputs":[{"indexed":true,"internalType":"address","name":"target","type":"address"},{"indexed":true,"internalType":"uint256","name":"value","type":"uint256"},{"indexed":false,"internalType":"bytes","name":"data","type":"bytes"}],"name":"TransactionExecuted","type":"event"},{"inputs":[{"internalType":"address","name":"receiver","type":"address"},{"internalType":"address","name":"nftTokenAddress","type":"address"},{"internalType":"uint256","name":"nftTokenId","type":"uint256"},{"internalType":"uint256","name":"nftTokenAmount","type":"uint256"}],"name":"breakCovalentBond","outputs":[],"stateMutability":"nonpayable","type":"function"},{"inputs":[{"internalType":"address","name":"nftTokenAddress","type":"address"},{"internalType":"uint256","name":"nftTokenId","type":"uint256"},{"internalType":"uint256","name":"nftTokenAmount","type":"uint256"}],"name":"covalentBond","outputs":[],"stateMutability":"nonpayable","type":"function"},{"inputs":[{"internalType":"address","name":"to","type":"address"},{"internalType":"uint256","name":"value","type":"uint256"},{"internalType":"bytes","name":"data","type":"bytes"}],"name":"executeCall","outputs":[{"internalType":"bytes","name":"","type":"bytes"}],"stateMutability":"payable","type":"function"},{"inputs":[{"internalType":"address","name":"caller","type":"address"}],"name":"isAuthorized","outputs":[{"internalType":"bool","name":"","type":"bool"}],"stateMutability":"view","type":"function"},{"inputs":[],"name":"isLocked","outputs":[{"internalType":"bool","name":"","type":"bool"}],"stateMutability":"view","type":"function"},{"inputs":[{"internalType":"uint256","name":"_lockedUntil","type":"uint256"}],"name":"lock","outputs":[],"stateMutability":"nonpayable","type":"function"},{"inputs":[],"name":"lockedUntil","outputs":[{"internalType":"uint256","name":"","type":"uint256"}],"stateMutability":"view","type":"function"},{"inputs":[{"internalType":"address","name":"","type":"address"},{"internalType":"address","name":"","type":"address"},{"internalType":"uint256[]","name":"","type":"uint256[]"},{"internalType":"uint256[]","name":"","type":"uint256[]"},{"internalType":"bytes","name":"","type":"bytes"}],"name":"onERC1155BatchReceived","outputs":[{"internalType":"bytes4","name":"","type":"bytes4"}],"stateMutability":"pure","type":"function"},{"inputs":[{"internalType":"address","name":"","type":"address"},{"internalType":"address","name":"","type":"address"},{"internalType":"uint256","name":"","type":"uint256"},{"internalType":"uint256","name":"","type":"uint256"},{"internalType":"bytes","name":"","type":"bytes"}],"name":"onERC1155Received","outputs":[{"internalType":"bytes4","name":"","type":"bytes4"}],"stateMutability":"pure","type":"function"},{"inputs":[{"internalType":"address","name":"","type":"address"},{"internalType":"address","name":"","type":"address"},{"internalType":"uint256","name":"receivedTokenId","type":"uint256"},{"internalType":"bytes","name":"","type":"bytes"}],"name":"onERC721Received","outputs":[{"internalType":"bytes4","name":"","type":"bytes4"}],"stateMutability":"view","type":"function"},{"inputs":[],"name":"owner","outputs":[{"internalType":"address","name":"","type":"address"}],"stateMutability":"view","type":"function"},{"inputs":[{"internalType":"address","name":"","type":"address"},{"internalType":"address","name":"","type":"address"}],"name":"permissions","outputs":[{"internalType":"bool","name":"","type":"bool"}],"stateMutability":"view","type":"function"},{"inputs":[{"internalType":"address[]","name":"callers","type":"address[]"},{"internalType":"bool[]","name":"_permissions","type":"bool[]"}],"name":"setPermissions","outputs":[],"stateMutability":"nonpayable","type":"function"},{"inputs":[{"internalType":"bytes4","name":"interfaceId","type":"bytes4"}],"name":"supportsInterface","outputs":[{"internalType":"bool","name":"","type":"bool"}],"stateMutability":"pure","type":"function"},{"inputs":[],"name":"token","outputs":[{"internalType":"uint256","name":"chainId","type":"uint256"},{"internalType":"address","name":"tokenContract","type":"address"},{"internalType":"uint256","name":"tokenId","type":"uint256"}],"stateMutability":"view","type":"function"},{"stateMutability":"payable","type":"receive"}],"devdoc":{"kind":"dev","methods":{"executeCall(address,uint256,bytes)":{"details":"executes a low-level call against an account if the caller is authorized to make calls"},"isAuthorized(address)":{"details":"Returns the authorization status for a given caller"},"isLocked()":{"details":"returns the current lock status of the account as a boolean"},"lock(uint256)":{"details":"locks the account until a certain timestamp"},"onERC1155BatchReceived(address,address,uint256[],uint256[],bytes)":{"details":"Allows ERC-1155 token batches to be received. This function can be overriden."},"onERC1155Received(address,address,uint256,uint256,bytes)":{"details":"Allows ERC-1155 tokens to be received. This function can be overriden."},"onERC721Received(address,address,uint256,bytes)":{"details":"Allows ERC-721 tokens to be received so long as they do not cause an ownership cycle. This function can be overriden."},"owner()":{"details":"Returns the owner of the ERC-721 token which owns this account. By default, the owner of the token has full permissions on the account."},"setPermissions(address[],bool[])":{"details":"grants a given caller execution permissions"},"supportsInterface(bytes4)":{"details":"Returns true if a given interfaceId is supported by this account. This method can be extended by an override."},"token()":{"details":"Returns the EIP-155 chain ID, token contract address, and token ID for the token that owns this account."}},"version":1},"evm":{"bytecode":{"linkReferences":{},"object":"608060405234801561001057600080fd5b50611159806100206000396000f3fe6080604052600436106100ec5760003560e01c8063a4e2d6341161008a578063dd46706411610059578063dd467064146102b7578063f23a6e61146102d7578063fc0c546a14610303578063fe9fbb801461033b57600080fd5b8063a4e2d63414610230578063a737a29914610247578063bc197c8114610267578063ce0617ec1461029357600080fd5b80631f9838b5116100c65780631f9838b5146101885780636b764e1b146101c35780638da5cb5b146101e35780639e5d4c491461021057600080fd5b806301ffc9a7146100f8578063039721b11461012d578063150b7a021461014f57600080fd5b366100f357005b600080fd5b34801561010457600080fd5b50610118610113366004610a92565b61035b565b60405190151581526020015b60405180910390f35b34801561013957600080fd5b5061014d610148366004610b0f565b6103c2565b005b34801561015b57600080fd5b5061016f61016a366004610c4a565b61058b565b6040516001600160e01b03199091168152602001610124565b34801561019457600080fd5b506101186101a3366004610cb6565b600160209081526000928352604080842090915290825290205460ff1681565b3480156101cf57600080fd5b5061014d6101de366004610cef565b6105f3565b3480156101ef57600080fd5b506101f8610661565b6040516001600160a01b039091168152602001610124565b61022361021e366004610d35565b6106f7565b6040516101249190610dbe565b34801561023c57600080fd5b506000544210610118565b34801561025357600080fd5b5061014d610262366004610e0c565b61079b565b34801561027357600080fd5b5061016f610282366004610ec1565b63bc197c8160e01b95945050505050565b34801561029f57600080fd5b506102a960005481565b604051908152602001610124565b3480156102c357600080fd5b5061014d6102d2366004610f6f565b6107fd565b3480156102e357600080fd5b5061016f6102f2366004610f88565b63f23a6e6160e01b95945050505050565b34801561030f57600080fd5b506103186108c2565b604080519384526001600160a01b03909216602084015290820152606001610124565b34801561034757600080fd5b50610118610356366004610ff1565b6108da565b6000806001600160e01b031983166301ffc9a760e01b148061038d57506001600160e01b03198316630271189760e51b145b806103a857506001600160e01b03198316631dfe9a6f60e31b145b905080156103b95750600192915050565b50600092915050565b6000544210156103e557604051636315bfbb60e01b815260040160405180910390fd5b60006103ef610661565b9050336001600160a01b0382161461041a5760405163ea8e4eb560e01b815260040160405180910390fd5b8382811461043b5760405163b4fa3fb360e01b815260040160405180910390fd5b60005b81811015610582578484828181106104585761045861100e565b905060200201602081019061046d9190611024565b6001600160a01b0384166000908152600160205260408120908989858181106104985761049861100e565b90506020020160208101906104ad9190610ff1565b6001600160a01b031681526020810191909152604001600020805460ff19169115159190911790557f394777a58092892d136a90c4bb7e4350c72ac50fba6a0208128677f36527dcf5838888848181106105095761050961100e565b905060200201602081019061051e9190610ff1565b8787858181106105305761053061100e565b90506020020160208101906105459190611024565b604080516001600160a01b03948516815293909216602084015215159082015260600160405180910390a18061057a8161105c565b91505061043e565b50505050505050565b6000806000806105996109c3565b92509250925046831480156105b657506001600160a01b03821633145b80156105c157508581145b156105df5760405163b79e3f3f60e01b815260040160405180910390fd5b50630a85bd0160e11b979650505050505050565b604051632142170760e11b81523060048201526001600160a01b038581166024830152604482018490528416906342842e0e90606401600060405180830381600087803b15801561064357600080fd5b505af1158015610657573d6000803e3d6000fd5b5050505050505050565b60008060008061066f6109c3565b925092509250468314610686576000935050505090565b6040516331a9108f60e11b8152600481018290526001600160a01b03831690636352211e90602401602060405180830381865afa1580156106cb573d6000803e3d6000fd5b505050506040513d601f19601f820116820180604052508101906106ef9190611075565b935050505090565b6060610702336108da565b61071f5760405163ea8e4eb560e01b815260040160405180910390fd5b60005442101561074257604051636315bfbb60e01b815260040160405180910390fd5b83856001600160a01b03167f47d99ad340f52da66535aff7e10da1ceb85a32bcbd9fa1c42314d194545e14d2858560405161077e929190611092565b60405180910390a361079285858585610a16565b95945050505050565b604051632142170760e11b8152336004820152306024820152604481018390526001600160a01b038416906342842e0e90606401600060405180830381600087803b1580156107e957600080fd5b505af1158015610582573d6000803e3d6000fd5b610805610661565b6001600160a01b0316336001600160a01b0316146108365760405163ea8e4eb560e01b815260040160405180910390fd5b60005442101561085957604051636315bfbb60e01b815260040160405180910390fd5b610867426301e133806110c1565b811115610887576040516301814f7d60e31b815260040160405180910390fd5b60008190556040518181527fa7b24c66dd3269a292a60b3facdbb8f3e7557d1e19e64d99e0d6ee7250be63ad9060200160405180910390a150565b60008060006108cf6109c3565b925092509250909192565b60008060006108e76109c3565b6040516331a9108f60e11b8152600481018290529194509250600091506001600160a01b03841690636352211e90602401602060405180830381865afa158015610935573d6000803e3d6000fd5b505050506040513d601f19601f820116820180604052508101906109599190611075565b9050806001600160a01b0316856001600160a01b03160361097f57506001949350505050565b6001600160a01b0380821660009081526001602090815260408083209389168352929052205460ff16156109b857506001949350505050565b506000949350505050565b604080516060808252608082019092526000918291829182919060208201818036833701905050905060ad604d60208301303c80806020019051810190610a0a91906110da565b93509350935050909192565b60606000856001600160a01b0316858585604051610a35929190611113565b60006040518083038185875af1925050503d8060008114610a72576040519150601f19603f3d011682016040523d82523d6000602084013e610a77565b606091505b509250905080610a8957815160208301fd5b50949350505050565b600060208284031215610aa457600080fd5b81356001600160e01b031981168114610abc57600080fd5b9392505050565b60008083601f840112610ad557600080fd5b50813567ffffffffffffffff811115610aed57600080fd5b6020830191508360208260051b8501011115610b0857600080fd5b9250929050565b60008060008060408587031215610b2557600080fd5b843567ffffffffffffffff80821115610b3d57600080fd5b610b4988838901610ac3565b90965094506020870135915080821115610b6257600080fd5b50610b6f87828801610ac3565b95989497509550505050565b6001600160a01b0381168114610b9057600080fd5b50565b634e487b7160e01b600052604160045260246000fd5b604051601f8201601f1916810167ffffffffffffffff81118282101715610bd257610bd2610b93565b604052919050565b600082601f830112610beb57600080fd5b813567ffffffffffffffff811115610c0557610c05610b93565b610c18601f8201601f1916602001610ba9565b818152846020838601011115610c2d57600080fd5b816020850160208301376000918101602001919091529392505050565b60008060008060808587031215610c6057600080fd5b8435610c6b81610b7b565b93506020850135610c7b81610b7b565b925060408501359150606085013567ffffffffffffffff811115610c9e57600080fd5b610caa87828801610bda565b91505092959194509250565b60008060408385031215610cc957600080fd5b8235610cd481610b7b565b91506020830135610ce481610b7b565b809150509250929050565b60008060008060808587031215610d0557600080fd5b8435610d1081610b7b565b93506020850135610d2081610b7b565b93969395505050506040820135916060013590565b60008060008060608587031215610d4b57600080fd5b8435610d5681610b7b565b935060208501359250604085013567ffffffffffffffff80821115610d7a57600080fd5b818701915087601f830112610d8e57600080fd5b813581811115610d9d57600080fd5b886020828501011115610daf57600080fd5b95989497505060200194505050565b600060208083528351808285015260005b81811015610deb57858101830151858201604001528201610dcf565b506000604082860101526040601f19601f8301168501019250505092915050565b600080600060608486031215610e2157600080fd5b8335610e2c81610b7b565b95602085013595506040909401359392505050565b600082601f830112610e5257600080fd5b8135602067ffffffffffffffff821115610e6e57610e6e610b93565b8160051b610e7d828201610ba9565b9283528481018201928281019087851115610e9757600080fd5b83870192505b84831015610eb657823582529183019190830190610e9d565b979650505050505050565b600080600080600060a08688031215610ed957600080fd5b8535610ee481610b7b565b94506020860135610ef481610b7b565b9350604086013567ffffffffffffffff80821115610f1157600080fd5b610f1d89838a01610e41565b94506060880135915080821115610f3357600080fd5b610f3f89838a01610e41565b93506080880135915080821115610f5557600080fd5b50610f6288828901610bda565b9150509295509295909350565b600060208284031215610f8157600080fd5b5035919050565b600080600080600060a08688031215610fa057600080fd5b8535610fab81610b7b565b94506020860135610fbb81610b7b565b93506040860135925060608601359150608086013567ffffffffffffffff811115610fe557600080fd5b610f6288828901610bda565b60006020828403121561100357600080fd5b8135610abc81610b7b565b634e487b7160e01b600052603260045260246000fd5b60006020828403121561103657600080fd5b81358015158114610abc57600080fd5b634e487b7160e01b600052601160045260246000fd5b60006001820161106e5761106e611046565b5060010190565b60006020828403121561108757600080fd5b8151610abc81610b7b565b60208152816020820152818360408301376000818301604090810191909152601f909201601f19160101919050565b808201808211156110d4576110d4611046565b92915050565b6000806000606084860312156110ef57600080fd5b83519250602084015161110181610b7b565b80925050604084015190509250925092565b818382376000910190815291905056fea264697066735822122063e6912474b85020b5a9835811ba76231c769e7f9cde34faffb5d227a7ea56e564736f6c63430008110033","opcodes":"PUSH1 0x80 PUSH1 0x40 MSTORE CALLVALUE DUP1 ISZERO PUSH2 0x10 JUMPI PUSH1 0x0 DUP1 REVERT JUMPDEST POP PUSH2 0x1159 DUP1 PUSH2 0x20 PUSH1 0x0 CODECOPY PUSH1 0x0 RETURN INVALID PUSH1 0x80 PUSH1 0x40 MSTORE PUSH1 0x4 CALLDATASIZE LT PUSH2 0xEC JUMPI PUSH1 0x0 CALLDATALOAD PUSH1 0xE0 SHR DUP1 PUSH4 0xA4E2D634 GT PUSH2 0x8A JUMPI DUP1 PUSH4 0xDD467064 GT PUSH2 0x59 JUMPI DUP1 PUSH4 0xDD467064 EQ PUSH2 0x2B7 JUMPI DUP1 PUSH4 0xF23A6E61 EQ PUSH2 0x2D7 JUMPI DUP1 PUSH4 0xFC0C546A EQ PUSH2 0x303 JUMPI DUP1 PUSH4 0xFE9FBB80 EQ PUSH2 0x33B JUMPI PUSH1 0x0 DUP1 REVERT JUMPDEST DUP1 PUSH4 0xA4E2D634 EQ PUSH2 0x230 JUMPI DUP1 PUSH4 0xA737A299 EQ PUSH2 0x247 JUMPI DUP1 PUSH4 0xBC197C81 EQ PUSH2 0x267 JUMPI DUP1 PUSH4 0xCE0617EC EQ PUSH2 0x293 JUMPI PUSH1 0x0 DUP1 REVERT JUMPDEST DUP1 PUSH4 0x1F9838B5 GT PUSH2 0xC6 JUMPI DUP1 PUSH4 0x1F9838B5 EQ PUSH2 0x188 JUMPI DUP1 PUSH4 0x6B764E1B EQ PUSH2 0x1C3 JUMPI DUP1 PUSH4 0x8DA5CB5B EQ PUSH2 0x1E3 JUMPI DUP1 PUSH4 0x9E5D4C49 EQ PUSH2 0x210 JUMPI PUSH1 0x0 DUP1 REVERT JUMPDEST DUP1 PUSH4 0x1FFC9A7 EQ PUSH2 0xF8 JUMPI DUP1 PUSH4 0x39721B1 EQ PUSH2 0x12D JUMPI DUP1 PUSH4 0x150B7A02 EQ PUSH2 0x14F JUMPI PUSH1 0x0 DUP1 REVERT JUMPDEST CALLDATASIZE PUSH2 0xF3 JUMPI STOP JUMPDEST PUSH1 0x0 DUP1 REVERT JUMPDEST CALLVALUE DUP1 ISZERO PUSH2 0x104 JUMPI PUSH1 0x0 DUP1 REVERT JUMPDEST POP PUSH2 0x118 PUSH2 0x113 CALLDATASIZE PUSH1 0x4 PUSH2 0xA92 JUMP JUMPDEST PUSH2 0x35B JUMP JUMPDEST PUSH1 0x40 MLOAD SWAP1 ISZERO ISZERO DUP2 MSTORE PUSH1 0x20 ADD JUMPDEST PUSH1 0x40 MLOAD DUP1 SWAP2 SUB SWAP1 RETURN JUMPDEST CALLVALUE DUP1 ISZERO PUSH2 0x139 JUMPI PUSH1 0x0 DUP1 REVERT JUMPDEST POP PUSH2 0x14D PUSH2 0x148 CALLDATASIZE PUSH1 0x4 PUSH2 0xB0F JUMP JUMPDEST PUSH2 0x3C2 JUMP JUMPDEST STOP JUMPDEST CALLVALUE DUP1 ISZERO PUSH2 0x15B JUMPI PUSH1 0x0 DUP1 REVERT JUMPDEST POP PUSH2 0x16F PUSH2 0x16A CALLDATASIZE PUSH1 0x4 PUSH2 0xC4A JUMP JUMPDEST PUSH2 0x58B JUMP JUMPDEST PUSH1 0x40 MLOAD PUSH1 0x1 PUSH1 0x1 PUSH1 0xE0 SHL SUB NOT SWAP1 SWAP2 AND DUP2 MSTORE PUSH1 0x20 ADD PUSH2 0x124 JUMP JUMPDEST CALLVALUE DUP1 ISZERO PUSH2 0x194 JUMPI PUSH1 0x0 DUP1 REVERT JUMPDEST POP PUSH2 0x118 PUSH2 0x1A3 CALLDATASIZE PUSH1 0x4 PUSH2 0xCB6 JUMP JUMPDEST PUSH1 0x1 PUSH1 0x20 SWAP1 DUP2 MSTORE PUSH1 0x0 SWAP3 DUP4 MSTORE PUSH1 0x40 DUP1 DUP5 KECCAK256 SWAP1 SWAP2 MSTORE SWAP1 DUP3 MSTORE SWAP1 KECCAK256 SLOAD PUSH1 0xFF AND DUP2 JUMP JUMPDEST CALLVALUE DUP1 ISZERO PUSH2 0x1CF JUMPI PUSH1 0x0 DUP1 REVERT JUMPDEST POP PUSH2 0x14D PUSH2 0x1DE CALLDATASIZE PUSH1 0x4 PUSH2 0xCEF JUMP JUMPDEST PUSH2 0x5F3 JUMP JUMPDEST CALLVALUE DUP1 ISZERO PUSH2 0x1EF JUMPI PUSH1 0x0 DUP1 REVERT JUMPDEST POP PUSH2 0x1F8 PUSH2 0x661 JUMP JUMPDEST PUSH1 0x40 MLOAD PUSH1 0x1 PUSH1 0x1 PUSH1 0xA0 SHL SUB SWAP1 SWAP2 AND DUP2 MSTORE PUSH1 0x20 ADD PUSH2 0x124 JUMP JUMPDEST PUSH2 0x223 PUSH2 0x21E CALLDATASIZE PUSH1 0x4 PUSH2 0xD35 JUMP JUMPDEST PUSH2 0x6F7 JUMP JUMPDEST PUSH1 0x40 MLOAD PUSH2 0x124 SWAP2 SWAP1 PUSH2 0xDBE JUMP JUMPDEST CALLVALUE DUP1 ISZERO PUSH2 0x23C JUMPI PUSH1 0x0 DUP1 REVERT JUMPDEST POP PUSH1 0x0 SLOAD TIMESTAMP LT PUSH2 0x118 JUMP JUMPDEST CALLVALUE DUP1 ISZERO PUSH2 0x253 JUMPI PUSH1 0x0 DUP1 REVERT JUMPDEST POP PUSH2 0x14D PUSH2 0x262 CALLDATASIZE PUSH1 0x4 PUSH2 0xE0C JUMP JUMPDEST PUSH2 0x79B JUMP JUMPDEST CALLVALUE DUP1 ISZERO PUSH2 0x273 JUMPI PUSH1 0x0 DUP1 REVERT JUMPDEST POP PUSH2 0x16F PUSH2 0x282 CALLDATASIZE PUSH1 0x4 PUSH2 0xEC1 JUMP JUMPDEST PUSH4 0xBC197C81 PUSH1 0xE0 SHL SWAP6 SWAP5 POP POP POP POP POP JUMP JUMPDEST CALLVALUE DUP1 ISZERO PUSH2 0x29F JUMPI PUSH1 0x0 DUP1 REVERT JUMPDEST POP PUSH2 0x2A9 PUSH1 0x0 SLOAD DUP2 JUMP JUMPDEST PUSH1 0x40 MLOAD SWAP1 DUP2 MSTORE PUSH1 0x20 ADD PUSH2 0x124 JUMP JUMPDEST CALLVALUE DUP1 ISZERO PUSH2 0x2C3 JUMPI PUSH1 0x0 DUP1 REVERT JUMPDEST POP PUSH2 0x14D PUSH2 0x2D2 CALLDATASIZE PUSH1 0x4 PUSH2 0xF6F JUMP JUMPDEST PUSH2 0x7FD JUMP JUMPDEST CALLVALUE DUP1 ISZERO PUSH2 0x2E3 JUMPI PUSH1 0x0 DUP1 REVERT JUMPDEST POP PUSH2 0x16F PUSH2 0x2F2 CALLDATASIZE PUSH1 0x4 PUSH2 0xF88 JUMP JUMPDEST PUSH4 0xF23A6E61 PUSH1 0xE0 SHL SWAP6 SWAP5 POP POP POP POP POP JUMP JUMPDEST CALLVALUE DUP1 ISZERO PUSH2 0x30F JUMPI PUSH1 0x0 DUP1 REVERT JUMPDEST POP PUSH2 0x318 PUSH2 0x8C2 JUMP JUMPDEST PUSH1 0x40 DUP1 MLOAD SWAP4 DUP5 MSTORE PUSH1 0x1 PUSH1 0x1 PUSH1 0xA0 SHL SUB SWAP1 SWAP3 AND PUSH1 0x20 DUP5 ADD MSTORE SWAP1 DUP3 ADD MSTORE PUSH1 0x60 ADD PUSH2 0x124 JUMP JUMPDEST CALLVALUE DUP1 ISZERO PUSH2 0x347 JUMPI PUSH1 0x0 DUP1 REVERT JUMPDEST POP PUSH2 0x118 PUSH2 0x356 CALLDATASIZE PUSH1 0x4 PUSH2 0xFF1 JUMP JUMPDEST PUSH2 0x8DA JUMP JUMPDEST PUSH1 0x0 DUP1 PUSH1 0x1 PUSH1 0x1 PUSH1 0xE0 SHL SUB NOT DUP4 AND PUSH4 0x1FFC9A7 PUSH1 0xE0 SHL EQ DUP1 PUSH2 0x38D JUMPI POP PUSH1 0x1 PUSH1 0x1 PUSH1 0xE0 SHL SUB NOT DUP4 AND PUSH4 0x2711897 PUSH1 0xE5 SHL EQ JUMPDEST DUP1 PUSH2 0x3A8 JUMPI POP PUSH1 0x1 PUSH1 0x1 PUSH1 0xE0 SHL SUB NOT DUP4 AND PUSH4 0x1DFE9A6F PUSH1 0xE3 SHL EQ JUMPDEST SWAP1 POP DUP1 ISZERO PUSH2 0x3B9 JUMPI POP PUSH1 0x1 SWAP3 SWAP2 POP POP JUMP JUMPDEST POP PUSH1 0x0 SWAP3 SWAP2 POP POP JUMP JUMPDEST PUSH1 0x0 SLOAD TIMESTAMP LT ISZERO PUSH2 0x3E5 JUMPI PUSH1 0x40 MLOAD PUSH4 0x6315BFBB PUSH1 0xE0 SHL DUP2 MSTORE PUSH1 0x4 ADD PUSH1 0x40 MLOAD DUP1 SWAP2 SUB SWAP1 REVERT JUMPDEST PUSH1 0x0 PUSH2 0x3EF PUSH2 0x661 JUMP JUMPDEST SWAP1 POP CALLER PUSH1 0x1 PUSH1 0x1 PUSH1 0xA0 SHL SUB DUP3 AND EQ PUSH2 0x41A JUMPI PUSH1 0x40 MLOAD PUSH4 0xEA8E4EB5 PUSH1 0xE0 SHL DUP2 MSTORE PUSH1 0x4 ADD PUSH1 0x40 MLOAD DUP1 SWAP2 SUB SWAP1 REVERT JUMPDEST DUP4 DUP3 DUP2 EQ PUSH2 0x43B JUMPI PUSH1 0x40 MLOAD PUSH4 0xB4FA3FB3 PUSH1 0xE0 SHL DUP2 MSTORE PUSH1 0x4 ADD PUSH1 0x40 MLOAD DUP1 SWAP2 SUB SWAP1 REVERT JUMPDEST PUSH1 0x0 JUMPDEST DUP2 DUP2 LT ISZERO PUSH2 0x582 JUMPI DUP5 DUP5 DUP3 DUP2 DUP2 LT PUSH2 0x458 JUMPI PUSH2 0x458 PUSH2 0x100E JUMP JUMPDEST SWAP1 POP PUSH1 0x20 MUL ADD PUSH1 0x20 DUP2 ADD SWAP1 PUSH2 0x46D SWAP2 SWAP1 PUSH2 0x1024 JUMP JUMPDEST PUSH1 0x1 PUSH1 0x1 PUSH1 0xA0 SHL SUB DUP5 AND PUSH1 0x0 SWAP1 DUP2 MSTORE PUSH1 0x1 PUSH1 0x20 MSTORE PUSH1 0x40 DUP2 KECCAK256 SWAP1 DUP10 DUP10 DUP6 DUP2 DUP2 LT PUSH2 0x498 JUMPI PUSH2 0x498 PUSH2 0x100E JUMP JUMPDEST SWAP1 POP PUSH1 0x20 MUL ADD PUSH1 0x20 DUP2 ADD SWAP1 PUSH2 0x4AD SWAP2 SWAP1 PUSH2 0xFF1 JUMP JUMPDEST PUSH1 0x1 PUSH1 0x1 PUSH1 0xA0 SHL SUB AND DUP2 MSTORE PUSH1 0x20 DUP2 ADD SWAP2 SWAP1 SWAP2 MSTORE PUSH1 0x40 ADD PUSH1 0x0 KECCAK256 DUP1 SLOAD PUSH1 0xFF NOT AND SWAP2 ISZERO ISZERO SWAP2 SWAP1 SWAP2 OR SWAP1 SSTORE PUSH32 0x394777A58092892D136A90C4BB7E4350C72AC50FBA6A0208128677F36527DCF5 DUP4 DUP9 DUP9 DUP5 DUP2 DUP2 LT PUSH2 0x509 JUMPI PUSH2 0x509 PUSH2 0x100E JUMP JUMPDEST SWAP1 POP PUSH1 0x20 MUL ADD PUSH1 0x20 DUP2 ADD SWAP1 PUSH2 0x51E SWAP2 SWAP1 PUSH2 0xFF1 JUMP JUMPDEST DUP8 DUP8 DUP6 DUP2 DUP2 LT PUSH2 0x530 JUMPI PUSH2 0x530 PUSH2 0x100E JUMP JUMPDEST SWAP1 POP PUSH1 0x20 MUL ADD PUSH1 0x20 DUP2 ADD SWAP1 PUSH2 0x545 SWAP2 SWAP1 PUSH2 0x1024 JUMP JUMPDEST PUSH1 0x40 DUP1 MLOAD PUSH1 0x1 PUSH1 0x1 PUSH1 0xA0 SHL SUB SWAP5 DUP6 AND DUP2 MSTORE SWAP4 SWAP1 SWAP3 AND PUSH1 0x20 DUP5 ADD MSTORE ISZERO ISZERO SWAP1 DUP3 ADD MSTORE PUSH1 0x60 ADD PUSH1 0x40 MLOAD DUP1 SWAP2 SUB SWAP1 LOG1 DUP1 PUSH2 0x57A DUP2 PUSH2 0x105C JUMP JUMPDEST SWAP2 POP POP PUSH2 0x43E JUMP JUMPDEST POP POP POP POP POP POP POP JUMP JUMPDEST PUSH1 0x0 DUP1 PUSH1 0x0 DUP1 PUSH2 0x599 PUSH2 0x9C3 JUMP JUMPDEST SWAP3 POP SWAP3 POP SWAP3 POP CHAINID DUP4 EQ DUP1 ISZERO PUSH2 0x5B6 JUMPI POP PUSH1 0x1 PUSH1 0x1 PUSH1 0xA0 SHL SUB DUP3 AND CALLER EQ JUMPDEST DUP1 ISZERO PUSH2 0x5C1 JUMPI POP DUP6 DUP2 EQ JUMPDEST ISZERO PUSH2 0x5DF JUMPI PUSH1 0x40 MLOAD PUSH4 0xB79E3F3F PUSH1 0xE0 SHL DUP2 MSTORE PUSH1 0x4 ADD PUSH1 0x40 MLOAD DUP1 SWAP2 SUB SWAP1 REVERT JUMPDEST POP PUSH4 0xA85BD01 PUSH1 0xE1 SHL SWAP8 SWAP7 POP POP POP POP POP POP POP JUMP JUMPDEST PUSH1 0x40 MLOAD PUSH4 0x21421707 PUSH1 0xE1 SHL DUP2 MSTORE ADDRESS PUSH1 0x4 DUP3 ADD MSTORE PUSH1 0x1 PUSH1 0x1 PUSH1 0xA0 SHL SUB DUP6 DUP2 AND PUSH1 0x24 DUP4 ADD MSTORE PUSH1 0x44 DUP3 ADD DUP5 SWAP1 MSTORE DUP5 AND SWAP1 PUSH4 0x42842E0E SWAP1 PUSH1 0x64 ADD PUSH1 0x0 PUSH1 0x40 MLOAD DUP1 DUP4 SUB DUP2 PUSH1 0x0 DUP8 DUP1 EXTCODESIZE ISZERO DUP1 ISZERO PUSH2 0x643 JUMPI PUSH1 0x0 DUP1 REVERT JUMPDEST POP GAS CALL ISZERO DUP1 ISZERO PUSH2 0x657 JUMPI RETURNDATASIZE PUSH1 0x0 DUP1 RETURNDATACOPY RETURNDATASIZE PUSH1 0x0 REVERT JUMPDEST POP POP POP POP POP POP POP POP JUMP JUMPDEST PUSH1 0x0 DUP1 PUSH1 0x0 DUP1 PUSH2 0x66F PUSH2 0x9C3 JUMP JUMPDEST SWAP3 POP SWAP3 POP SWAP3 POP CHAINID DUP4 EQ PUSH2 0x686 JUMPI PUSH1 0x0 SWAP4 POP POP POP POP SWAP1 JUMP JUMPDEST PUSH1 0x40 MLOAD PUSH4 0x31A9108F PUSH1 0xE1 SHL DUP2 MSTORE PUSH1 0x4 DUP2 ADD DUP3 SWAP1 MSTORE PUSH1 0x1 PUSH1 0x1 PUSH1 0xA0 SHL SUB DUP4 AND SWAP1 PUSH4 0x6352211E SWAP1 PUSH1 0x24 ADD PUSH1 0x20 PUSH1 0x40 MLOAD DUP1 DUP4 SUB DUP2 DUP7 GAS STATICCALL ISZERO DUP1 ISZERO PUSH2 0x6CB JUMPI RETURNDATASIZE PUSH1 0x0 DUP1 RETURNDATACOPY RETURNDATASIZE PUSH1 0x0 REVERT JUMPDEST POP POP POP POP PUSH1 0x40 MLOAD RETURNDATASIZE PUSH1 0x1F NOT PUSH1 0x1F DUP3 ADD AND DUP3 ADD DUP1 PUSH1 0x40 MSTORE POP DUP2 ADD SWAP1 PUSH2 0x6EF SWAP2 SWAP1 PUSH2 0x1075 JUMP JUMPDEST SWAP4 POP POP POP POP SWAP1 JUMP JUMPDEST PUSH1 0x60 PUSH2 0x702 CALLER PUSH2 0x8DA JUMP JUMPDEST PUSH2 0x71F JUMPI PUSH1 0x40 MLOAD PUSH4 0xEA8E4EB5 PUSH1 0xE0 SHL DUP2 MSTORE PUSH1 0x4 ADD PUSH1 0x40 MLOAD DUP1 SWAP2 SUB SWAP1 REVERT JUMPDEST PUSH1 0x0 SLOAD TIMESTAMP LT ISZERO PUSH2 0x742 JUMPI PUSH1 0x40 MLOAD PUSH4 0x6315BFBB PUSH1 0xE0 SHL DUP2 MSTORE PUSH1 0x4 ADD PUSH1 0x40 MLOAD DUP1 SWAP2 SUB SWAP1 REVERT JUMPDEST DUP4 DUP6 PUSH1 0x1 PUSH1 0x1 PUSH1 0xA0 SHL SUB AND PUSH32 0x47D99AD340F52DA66535AFF7E10DA1CEB85A32BCBD9FA1C42314D194545E14D2 DUP6 DUP6 PUSH1 0x40 MLOAD PUSH2 0x77E SWAP3 SWAP2 SWAP1 PUSH2 0x1092 JUMP JUMPDEST PUSH1 0x40 MLOAD DUP1 SWAP2 SUB SWAP1 LOG3 PUSH2 0x792 DUP6 DUP6 DUP6 DUP6 PUSH2 0xA16 JUMP JUMPDEST SWAP6 SWAP5 POP POP POP POP POP JUMP JUMPDEST PUSH1 0x40 MLOAD PUSH4 0x21421707 PUSH1 0xE1 SHL DUP2 MSTORE CALLER PUSH1 0x4 DUP3 ADD MSTORE ADDRESS PUSH1 0x24 DUP3 ADD MSTORE PUSH1 0x44 DUP2 ADD DUP4 SWAP1 MSTORE PUSH1 0x1 PUSH1 0x1 PUSH1 0xA0 SHL SUB DUP5 AND SWAP1 PUSH4 0x42842E0E SWAP1 PUSH1 0x64 ADD PUSH1 0x0 PUSH1 0x40 MLOAD DUP1 DUP4 SUB DUP2 PUSH1 0x0 DUP8 DUP1 EXTCODESIZE ISZERO DUP1 ISZERO PUSH2 0x7E9 JUMPI PUSH1 0x0 DUP1 REVERT JUMPDEST POP GAS CALL ISZERO DUP1 ISZERO PUSH2 0x582 JUMPI RETURNDATASIZE PUSH1 0x0 DUP1 RETURNDATACOPY RETURNDATASIZE PUSH1 0x0 REVERT JUMPDEST PUSH2 0x805 PUSH2 0x661 JUMP JUMPDEST PUSH1 0x1 PUSH1 0x1 PUSH1 0xA0 SHL SUB AND CALLER PUSH1 0x1 PUSH1 0x1 PUSH1 0xA0 SHL SUB AND EQ PUSH2 0x836 JUMPI PUSH1 0x40 MLOAD PUSH4 0xEA8E4EB5 PUSH1 0xE0 SHL DUP2 MSTORE PUSH1 0x4 ADD PUSH1 0x40 MLOAD DUP1 SWAP2 SUB SWAP1 REVERT JUMPDEST PUSH1 0x0 SLOAD TIMESTAMP LT ISZERO PUSH2 0x859 JUMPI PUSH1 0x40 MLOAD PUSH4 0x6315BFBB PUSH1 0xE0 SHL DUP2 MSTORE PUSH1 0x4 ADD PUSH1 0x40 MLOAD DUP1 SWAP2 SUB SWAP1 REVERT JUMPDEST PUSH2 0x867 TIMESTAMP PUSH4 0x1E13380 PUSH2 0x10C1 JUMP JUMPDEST DUP2 GT ISZERO PUSH2 0x887 JUMPI PUSH1 0x40 MLOAD PUSH4 0x1814F7D PUSH1 0xE3 SHL DUP2 MSTORE PUSH1 0x4 ADD PUSH1 0x40 MLOAD DUP1 SWAP2 SUB SWAP1 REVERT JUMPDEST PUSH1 0x0 DUP2 SWAP1 SSTORE PUSH1 0x40 MLOAD DUP2 DUP2 MSTORE PUSH32 0xA7B24C66DD3269A292A60B3FACDBB8F3E7557D1E19E64D99E0D6EE7250BE63AD SWAP1 PUSH1 0x20 ADD PUSH1 0x40 MLOAD DUP1 SWAP2 SUB SWAP1 LOG1 POP JUMP JUMPDEST PUSH1 0x0 DUP1 PUSH1 0x0 PUSH2 0x8CF PUSH2 0x9C3 JUMP JUMPDEST SWAP3 POP SWAP3 POP SWAP3 POP SWAP1 SWAP2 SWAP3 JUMP JUMPDEST PUSH1 0x0 DUP1 PUSH1 0x0 PUSH2 0x8E7 PUSH2 0x9C3 JUMP JUMPDEST PUSH1 0x40 MLOAD PUSH4 0x31A9108F PUSH1 0xE1 SHL DUP2 MSTORE PUSH1 0x4 DUP2 ADD DUP3 SWAP1 MSTORE SWAP2 SWAP5 POP SWAP3 POP PUSH1 0x0 SWAP2 POP PUSH1 0x1 PUSH1 0x1 PUSH1 0xA0 SHL SUB DUP5 AND SWAP1 PUSH4 0x6352211E SWAP1 PUSH1 0x24 ADD PUSH1 0x20 PUSH1 0x40 MLOAD DUP1 DUP4 SUB DUP2 DUP7 GAS STATICCALL ISZERO DUP1 ISZERO PUSH2 0x935 JUMPI RETURNDATASIZE PUSH1 0x0 DUP1 RETURNDATACOPY RETURNDATASIZE PUSH1 0x0 REVERT JUMPDEST POP POP POP POP PUSH1 0x40 MLOAD RETURNDATASIZE PUSH1 0x1F NOT PUSH1 0x1F DUP3 ADD AND DUP3 ADD DUP1 PUSH1 0x40 MSTORE POP DUP2 ADD SWAP1 PUSH2 0x959 SWAP2 SWAP1 PUSH2 0x1075 JUMP JUMPDEST SWAP1 POP DUP1 PUSH1 0x1 PUSH1 0x1 PUSH1 0xA0 SHL SUB AND DUP6 PUSH1 0x1 PUSH1 0x1 PUSH1 0xA0 SHL SUB AND SUB PUSH2 0x97F JUMPI POP PUSH1 0x1 SWAP5 SWAP4 POP POP POP POP JUMP JUMPDEST PUSH1 0x1 PUSH1 0x1 PUSH1 0xA0 SHL SUB DUP1 DUP3 AND PUSH1 0x0 SWAP1 DUP2 MSTORE PUSH1 0x1 PUSH1 0x20 SWAP1 DUP2 MSTORE PUSH1 0x40 DUP1 DUP4 KECCAK256 SWAP4 DUP10 AND DUP4 MSTORE SWAP3 SWAP1 MSTORE KECCAK256 SLOAD PUSH1 0xFF AND ISZERO PUSH2 0x9B8 JUMPI POP PUSH1 0x1 SWAP5 SWAP4 POP POP POP POP JUMP JUMPDEST POP PUSH1 0x0 SWAP5 SWAP4 POP POP POP POP JUMP JUMPDEST PUSH1 0x40 DUP1 MLOAD PUSH1 0x60 DUP1 DUP3 MSTORE PUSH1 0x80 DUP3 ADD SWAP1 SWAP3 MSTORE PUSH1 0x0 SWAP2 DUP3 SWAP2 DUP3 SWAP2 DUP3 SWAP2 SWAP1 PUSH1 0x20 DUP3 ADD DUP2 DUP1 CALLDATASIZE DUP4 CALLDATACOPY ADD SWAP1 POP POP SWAP1 POP PUSH1 0xAD PUSH1 0x4D PUSH1 0x20 DUP4 ADD ADDRESS EXTCODECOPY DUP1 DUP1 PUSH1 0x20 ADD SWAP1 MLOAD DUP2 ADD SWAP1 PUSH2 0xA0A SWAP2 SWAP1 PUSH2 0x10DA JUMP JUMPDEST SWAP4 POP SWAP4 POP SWAP4 POP POP SWAP1 SWAP2 SWAP3 JUMP JUMPDEST PUSH1 0x60 PUSH1 0x0 DUP6 PUSH1 0x1 PUSH1 0x1 PUSH1 0xA0 SHL SUB AND DUP6 DUP6 DUP6 PUSH1 0x40 MLOAD PUSH2 0xA35 SWAP3 SWAP2 SWAP1 PUSH2 0x1113 JUMP JUMPDEST PUSH1 0x0 PUSH1 0x40 MLOAD DUP1 DUP4 SUB DUP2 DUP6 DUP8 GAS CALL SWAP3 POP POP POP RETURNDATASIZE DUP1 PUSH1 0x0 DUP2 EQ PUSH2 0xA72 JUMPI PUSH1 0x40 MLOAD SWAP2 POP PUSH1 0x1F NOT PUSH1 0x3F RETURNDATASIZE ADD AND DUP3 ADD PUSH1 0x40 MSTORE RETURNDATASIZE DUP3 MSTORE RETURNDATASIZE PUSH1 0x0 PUSH1 0x20 DUP5 ADD RETURNDATACOPY PUSH2 0xA77 JUMP JUMPDEST PUSH1 0x60 SWAP2 POP JUMPDEST POP SWAP3 POP SWAP1 POP DUP1 PUSH2 0xA89 JUMPI DUP2 MLOAD PUSH1 0x20 DUP4 ADD REVERT JUMPDEST POP SWAP5 SWAP4 POP POP POP POP JUMP JUMPDEST PUSH1 0x0 PUSH1 0x20 DUP3 DUP5 SUB SLT ISZERO PUSH2 0xAA4 JUMPI PUSH1 0x0 DUP1 REVERT JUMPDEST DUP2 CALLDATALOAD PUSH1 0x1 PUSH1 0x1 PUSH1 0xE0 SHL SUB NOT DUP2 AND DUP2 EQ PUSH2 0xABC JUMPI PUSH1 0x0 DUP1 REVERT JUMPDEST SWAP4 SWAP3 POP POP POP JUMP JUMPDEST PUSH1 0x0 DUP1 DUP4 PUSH1 0x1F DUP5 ADD SLT PUSH2 0xAD5 JUMPI PUSH1 0x0 DUP1 REVERT JUMPDEST POP DUP2 CALLDATALOAD PUSH8 0xFFFFFFFFFFFFFFFF DUP2 GT ISZERO PUSH2 0xAED JUMPI PUSH1 0x0 DUP1 REVERT JUMPDEST PUSH1 0x20 DUP4 ADD SWAP2 POP DUP4 PUSH1 0x20 DUP3 PUSH1 0x5 SHL DUP6 ADD ADD GT ISZERO PUSH2 0xB08 JUMPI PUSH1 0x0 DUP1 REVERT JUMPDEST SWAP3 POP SWAP3 SWAP1 POP JUMP JUMPDEST PUSH1 0x0 DUP1 PUSH1 0x0 DUP1 PUSH1 0x40 DUP6 DUP8 SUB SLT ISZERO PUSH2 0xB25 JUMPI PUSH1 0x0 DUP1 REVERT JUMPDEST DUP5 CALLDATALOAD PUSH8 0xFFFFFFFFFFFFFFFF DUP1 DUP3 GT ISZERO PUSH2 0xB3D JUMPI PUSH1 0x0 DUP1 REVERT JUMPDEST PUSH2 0xB49 DUP9 DUP4 DUP10 ADD PUSH2 0xAC3 JUMP JUMPDEST SWAP1 SWAP7 POP SWAP5 POP PUSH1 0x20 DUP8 ADD CALLDATALOAD SWAP2 POP DUP1 DUP3 GT ISZERO PUSH2 0xB62 JUMPI PUSH1 0x0 DUP1 REVERT JUMPDEST POP PUSH2 0xB6F DUP8 DUP3 DUP9 ADD PUSH2 0xAC3 JUMP JUMPDEST SWAP6 SWAP9 SWAP5 SWAP8 POP SWAP6 POP POP POP POP JUMP JUMPDEST PUSH1 0x1 PUSH1 0x1 PUSH1 0xA0 SHL SUB DUP2 AND DUP2 EQ PUSH2 0xB90 JUMPI PUSH1 0x0 DUP1 REVERT JUMPDEST POP JUMP JUMPDEST PUSH4 0x4E487B71 PUSH1 0xE0 SHL PUSH1 0x0 MSTORE PUSH1 0x41 PUSH1 0x4 MSTORE PUSH1 0x24 PUSH1 0x0 REVERT JUMPDEST PUSH1 0x40 MLOAD PUSH1 0x1F DUP3 ADD PUSH1 0x1F NOT AND DUP2 ADD PUSH8 0xFFFFFFFFFFFFFFFF DUP2 GT DUP3 DUP3 LT OR ISZERO PUSH2 0xBD2 JUMPI PUSH2 0xBD2 PUSH2 0xB93 JUMP JUMPDEST PUSH1 0x40 MSTORE SWAP2 SWAP1 POP JUMP JUMPDEST PUSH1 0x0 DUP3 PUSH1 0x1F DUP4 ADD SLT PUSH2 0xBEB JUMPI PUSH1 0x0 DUP1 REVERT JUMPDEST DUP2 CALLDATALOAD PUSH8 0xFFFFFFFFFFFFFFFF DUP2 GT ISZERO PUSH2 0xC05 JUMPI PUSH2 0xC05 PUSH2 0xB93 JUMP JUMPDEST PUSH2 0xC18 PUSH1 0x1F DUP3 ADD PUSH1 0x1F NOT AND PUSH1 0x20 ADD PUSH2 0xBA9 JUMP JUMPDEST DUP2 DUP2 MSTORE DUP5 PUSH1 0x20 DUP4 DUP7 ADD ADD GT ISZERO PUSH2 0xC2D JUMPI PUSH1 0x0 DUP1 REVERT JUMPDEST DUP2 PUSH1 0x20 DUP6 ADD PUSH1 0x20 DUP4 ADD CALLDATACOPY PUSH1 0x0 SWAP2 DUP2 ADD PUSH1 0x20 ADD SWAP2 SWAP1 SWAP2 MSTORE SWAP4 SWAP3 POP POP POP JUMP JUMPDEST PUSH1 0x0 DUP1 PUSH1 0x0 DUP1 PUSH1 0x80 DUP6 DUP8 SUB SLT ISZERO PUSH2 0xC60 JUMPI PUSH1 0x0 DUP1 REVERT JUMPDEST DUP5 CALLDATALOAD PUSH2 0xC6B DUP2 PUSH2 0xB7B JUMP JUMPDEST SWAP4 POP PUSH1 0x20 DUP6 ADD CALLDATALOAD PUSH2 0xC7B DUP2 PUSH2 0xB7B JUMP JUMPDEST SWAP3 POP PUSH1 0x40 DUP6 ADD CALLDATALOAD SWAP2 POP PUSH1 0x60 DUP6 ADD CALLDATALOAD PUSH8 0xFFFFFFFFFFFFFFFF DUP2 GT ISZERO PUSH2 0xC9E JUMPI PUSH1 0x0 DUP1 REVERT JUMPDEST PUSH2 0xCAA DUP8 DUP3 DUP9 ADD PUSH2 0xBDA JUMP JUMPDEST SWAP2 POP POP SWAP3 SWAP6 SWAP2 SWAP5 POP SWAP3 POP JUMP JUMPDEST PUSH1 0x0 DUP1 PUSH1 0x40 DUP4 DUP6 SUB SLT ISZERO PUSH2 0xCC9 JUMPI PUSH1 0x0 DUP1 REVERT JUMPDEST DUP3 CALLDATALOAD PUSH2 0xCD4 DUP2 PUSH2 0xB7B JUMP JUMPDEST SWAP2 POP PUSH1 0x20 DUP4 ADD CALLDATALOAD PUSH2 0xCE4 DUP2 PUSH2 0xB7B JUMP JUMPDEST DUP1 SWAP2 POP POP SWAP3 POP SWAP3 SWAP1 POP JUMP JUMPDEST PUSH1 0x0 DUP1 PUSH1 0x0 DUP1 PUSH1 0x80 DUP6 DUP8 SUB SLT ISZERO PUSH2 0xD05 JUMPI PUSH1 0x0 DUP1 REVERT JUMPDEST DUP5 CALLDATALOAD PUSH2 0xD10 DUP2 PUSH2 0xB7B JUMP JUMPDEST SWAP4 POP PUSH1 0x20 DUP6 ADD CALLDATALOAD PUSH2 0xD20 DUP2 PUSH2 0xB7B JUMP JUMPDEST SWAP4 SWAP7 SWAP4 SWAP6 POP POP POP POP PUSH1 0x40 DUP3 ADD CALLDATALOAD SWAP2 PUSH1 0x60 ADD CALLDATALOAD SWAP1 JUMP JUMPDEST PUSH1 0x0 DUP1 PUSH1 0x0 DUP1 PUSH1 0x60 DUP6 DUP8 SUB SLT ISZERO PUSH2 0xD4B JUMPI PUSH1 0x0 DUP1 REVERT JUMPDEST DUP5 CALLDATALOAD PUSH2 0xD56 DUP2 PUSH2 0xB7B JUMP JUMPDEST SWAP4 POP PUSH1 0x20 DUP6 ADD CALLDATALOAD SWAP3 POP PUSH1 0x40 DUP6 ADD CALLDATALOAD PUSH8 0xFFFFFFFFFFFFFFFF DUP1 DUP3 GT ISZERO PUSH2 0xD7A JUMPI PUSH1 0x0 DUP1 REVERT JUMPDEST DUP2 DUP8 ADD SWAP2 POP DUP8 PUSH1 0x1F DUP4 ADD SLT PUSH2 0xD8E JUMPI PUSH1 0x0 DUP1 REVERT JUMPDEST DUP2 CALLDATALOAD DUP2 DUP2 GT ISZERO PUSH2 0xD9D JUMPI PUSH1 0x0 DUP1 REVERT JUMPDEST DUP9 PUSH1 0x20 DUP3 DUP6 ADD ADD GT ISZERO PUSH2 0xDAF JUMPI PUSH1 0x0 DUP1 REVERT JUMPDEST SWAP6 SWAP9 SWAP5 SWAP8 POP POP PUSH1 0x20 ADD SWAP5 POP POP POP JUMP JUMPDEST PUSH1 0x0 PUSH1 0x20 DUP1 DUP4 MSTORE DUP4 MLOAD DUP1 DUP3 DUP6 ADD MSTORE PUSH1 0x0 JUMPDEST DUP2 DUP2 LT ISZERO PUSH2 0xDEB JUMPI DUP6 DUP2 ADD DUP4 ADD MLOAD DUP6 DUP3 ADD PUSH1 0x40 ADD MSTORE DUP3 ADD PUSH2 0xDCF JUMP JUMPDEST POP PUSH1 0x0 PUSH1 0x40 DUP3 DUP7 ADD ADD MSTORE PUSH1 0x40 PUSH1 0x1F NOT PUSH1 0x1F DUP4 ADD AND DUP6 ADD ADD SWAP3 POP POP POP SWAP3 SWAP2 POP POP JUMP JUMPDEST PUSH1 0x0 DUP1 PUSH1 0x0 PUSH1 0x60 DUP5 DUP7 SUB SLT ISZERO PUSH2 0xE21 JUMPI PUSH1 0x0 DUP1 REVERT JUMPDEST DUP4 CALLDATALOAD PUSH2 0xE2C DUP2 PUSH2 0xB7B JUMP JUMPDEST SWAP6 PUSH1 0x20 DUP6 ADD CALLDATALOAD SWAP6 POP PUSH1 0x40 SWAP1 SWAP5 ADD CALLDATALOAD SWAP4 SWAP3 POP POP POP JUMP JUMPDEST PUSH1 0x0 DUP3 PUSH1 0x1F DUP4 ADD SLT PUSH2 0xE52 JUMPI PUSH1 0x0 DUP1 REVERT JUMPDEST DUP2 CALLDATALOAD PUSH1 0x20 PUSH8 0xFFFFFFFFFFFFFFFF DUP3 GT ISZERO PUSH2 0xE6E JUMPI PUSH2 0xE6E PUSH2 0xB93 JUMP JUMPDEST DUP2 PUSH1 0x5 SHL PUSH2 0xE7D DUP3 DUP3 ADD PUSH2 0xBA9 JUMP JUMPDEST SWAP3 DUP4 MSTORE DUP5 DUP2 ADD DUP3 ADD SWAP3 DUP3 DUP2 ADD SWAP1 DUP8 DUP6 GT ISZERO PUSH2 0xE97 JUMPI PUSH1 0x0 DUP1 REVERT JUMPDEST DUP4 DUP8 ADD SWAP3 POP JUMPDEST DUP5 DUP4 LT ISZERO PUSH2 0xEB6 JUMPI DUP3 CALLDATALOAD DUP3 MSTORE SWAP2 DUP4 ADD SWAP2 SWAP1 DUP4 ADD SWAP1 PUSH2 0xE9D JUMP JUMPDEST SWAP8 SWAP7 POP POP POP POP POP POP POP JUMP JUMPDEST PUSH1 0x0 DUP1 PUSH1 0x0 DUP1 PUSH1 0x0 PUSH1 0xA0 DUP7 DUP9 SUB SLT ISZERO PUSH2 0xED9 JUMPI PUSH1 0x0 DUP1 REVERT JUMPDEST DUP6 CALLDATALOAD PUSH2 0xEE4 DUP2 PUSH2 0xB7B JUMP JUMPDEST SWAP5 POP PUSH1 0x20 DUP7 ADD CALLDATALOAD PUSH2 0xEF4 DUP2 PUSH2 0xB7B JUMP JUMPDEST SWAP4 POP PUSH1 0x40 DUP7 ADD CALLDATALOAD PUSH8 0xFFFFFFFFFFFFFFFF DUP1 DUP3 GT ISZERO PUSH2 0xF11 JUMPI PUSH1 0x0 DUP1 REVERT JUMPDEST PUSH2 0xF1D DUP10 DUP4 DUP11 ADD PUSH2 0xE41 JUMP JUMPDEST SWAP5 POP PUSH1 0x60 DUP9 ADD CALLDATALOAD SWAP2 POP DUP1 DUP3 GT ISZERO PUSH2 0xF33 JUMPI PUSH1 0x0 DUP1 REVERT JUMPDEST PUSH2 0xF3F DUP10 DUP4 DUP11 ADD PUSH2 0xE41 JUMP JUMPDEST SWAP4 POP PUSH1 0x80 DUP9 ADD CALLDATALOAD SWAP2 POP DUP1 DUP3 GT ISZERO PUSH2 0xF55 JUMPI PUSH1 0x0 DUP1 REVERT JUMPDEST POP PUSH2 0xF62 DUP9 DUP3 DUP10 ADD PUSH2 0xBDA JUMP JUMPDEST SWAP2 POP POP SWAP3 SWAP6 POP SWAP3 SWAP6 SWAP1 SWAP4 POP JUMP JUMPDEST PUSH1 0x0 PUSH1 0x20 DUP3 DUP5 SUB SLT ISZERO PUSH2 0xF81 JUMPI PUSH1 0x0 DUP1 REVERT JUMPDEST POP CALLDATALOAD SWAP2 SWAP1 POP JUMP JUMPDEST PUSH1 0x0 DUP1 PUSH1 0x0 DUP1 PUSH1 0x0 PUSH1 0xA0 DUP7 DUP9 SUB SLT ISZERO PUSH2 0xFA0 JUMPI PUSH1 0x0 DUP1 REVERT JUMPDEST DUP6 CALLDATALOAD PUSH2 0xFAB DUP2 PUSH2 0xB7B JUMP JUMPDEST SWAP5 POP PUSH1 0x20 DUP7 ADD CALLDATALOAD PUSH2 0xFBB DUP2 PUSH2 0xB7B JUMP JUMPDEST SWAP4 POP PUSH1 0x40 DUP7 ADD CALLDATALOAD SWAP3 POP PUSH1 0x60 DUP7 ADD CALLDATALOAD SWAP2 POP PUSH1 0x80 DUP7 ADD CALLDATALOAD PUSH8 0xFFFFFFFFFFFFFFFF DUP2 GT ISZERO PUSH2 0xFE5 JUMPI PUSH1 0x0 DUP1 REVERT JUMPDEST PUSH2 0xF62 DUP9 DUP3 DUP10 ADD PUSH2 0xBDA JUMP JUMPDEST PUSH1 0x0 PUSH1 0x20 DUP3 DUP5 SUB SLT ISZERO PUSH2 0x1003 JUMPI PUSH1 0x0 DUP1 REVERT JUMPDEST DUP2 CALLDATALOAD PUSH2 0xABC DUP2 PUSH2 0xB7B JUMP JUMPDEST PUSH4 0x4E487B71 PUSH1 0xE0 SHL PUSH1 0x0 MSTORE PUSH1 0x32 PUSH1 0x4 MSTORE PUSH1 0x24 PUSH1 0x0 REVERT JUMPDEST PUSH1 0x0 PUSH1 0x20 DUP3 DUP5 SUB SLT ISZERO PUSH2 0x1036 JUMPI PUSH1 0x0 DUP1 REVERT JUMPDEST DUP2 CALLDATALOAD DUP1 ISZERO ISZERO DUP2 EQ PUSH2 0xABC JUMPI PUSH1 0x0 DUP1 REVERT JUMPDEST PUSH4 0x4E487B71 PUSH1 0xE0 SHL PUSH1 0x0 MSTORE PUSH1 0x11 PUSH1 0x4 MSTORE PUSH1 0x24 PUSH1 0x0 REVERT JUMPDEST PUSH1 0x0 PUSH1 0x1 DUP3 ADD PUSH2 0x106E JUMPI PUSH2 0x106E PUSH2 0x1046 JUMP JUMPDEST POP PUSH1 0x1 ADD SWAP1 JUMP JUMPDEST PUSH1 0x0 PUSH1 0x20 DUP3 DUP5 SUB SLT ISZERO PUSH2 0x1087 JUMPI PUSH1 0x0 DUP1 REVERT JUMPDEST DUP2 MLOAD PUSH2 0xABC DUP2 PUSH2 0xB7B JUMP JUMPDEST PUSH1 0x20 DUP2 MSTORE DUP2 PUSH1 0x20 DUP3 ADD MSTORE DUP2 DUP4 PUSH1 0x40 DUP4 ADD CALLDATACOPY PUSH1 0x0 DUP2 DUP4 ADD PUSH1 0x40 SWAP1 DUP2 ADD SWAP2 SWAP1 SWAP2 MSTORE PUSH1 0x1F SWAP1 SWAP3 ADD PUSH1 0x1F NOT AND ADD ADD SWAP2 SWAP1 POP JUMP JUMPDEST DUP1 DUP3 ADD DUP1 DUP3 GT ISZERO PUSH2 0x10D4 JUMPI PUSH2 0x10D4 PUSH2 0x1046 JUMP JUMPDEST SWAP3 SWAP2 POP POP JUMP JUMPDEST PUSH1 0x0 DUP1 PUSH1 0x0 PUSH1 0x60 DUP5 DUP7 SUB SLT ISZERO PUSH2 0x10EF JUMPI PUSH1 0x0 DUP1 REVERT JUMPDEST DUP4 MLOAD SWAP3 POP PUSH1 0x20 DUP5 ADD MLOAD PUSH2 0x1101 DUP2 PUSH2 0xB7B JUMP JUMPDEST DUP1 SWAP3 POP POP PUSH1 0x40 DUP5 ADD MLOAD SWAP1 POP SWAP3 POP SWAP3 POP SWAP3 JUMP JUMPDEST DUP2 DUP4 DUP3 CALLDATACOPY PUSH1 0x0 SWAP2 ADD SWAP1 DUP2 MSTORE SWAP2 SWAP1 POP JUMP INVALID LOG2 PUSH5 0x6970667358 0x22 SLT KECCAK256 PUSH4 0xE6912474 0xB8 POP KECCAK256 0xB5 0xA9 DUP4 PC GT 0xBA PUSH23 0x231C769E7F9CDE34FAFFB5D227A7EA56E564736F6C6343 STOP ADDMOD GT STOP CALLER "},"gasEstimates":{"creation":{"codeDepositCost":"888200","executionCost":"922","totalCost":"889122"},"external":{"breakCovalentBond(address,address,uint256,uint256)":"infinite","covalentBond(address,uint256,uint256)":"infinite","executeCall(address,uint256,bytes)":"infinite","isAuthorized(address)":"infinite","isLocked()":"2315","lock(uint256)":"infinite","lockedUntil()":"2384","onERC1155BatchReceived(address,address,uint256[],uint256[],bytes)":"infinite","onERC1155Received(address,address,uint256,uint256,bytes)":"infinite","onERC721Received(address,address,uint256,bytes)":"infinite","owner()":"infinite","permissions(address,address)":"infinite","setPermissions(address[],bool[])":"infinite","supportsInterface(bytes4)":"538","token()":"infinite"}},"methodIdentifiers":{"breakCovalentBond(address,address,uint256,uint256)":"6b764e1b","covalentBond(address,uint256,uint256)":"a737a299","executeCall(address,uint256,bytes)":"9e5d4c49","isAuthorized(address)":"fe9fbb80","isLocked()":"a4e2d634","lock(uint256)":"dd467064","lockedUntil()":"ce0617ec","onERC1155BatchReceived(address,address,uint256[],uint256[],bytes)":"bc197c81","onERC1155Received(address,address,uint256,uint256,bytes)":"f23a6e61","onERC721Received(address,address,uint256,bytes)":"150b7a02","owner()":"8da5cb5b","permissions(address,address)":"1f9838b5","setPermissions(address[],bool[])":"039721b1","supportsInterface(bytes4)":"01ffc9a7","token()":"fc0c546a"}},"storageLayout":{"storage":[{"astId":287,"contract":"contracts/ChargedParticlesAccount.sol:ChargedParticlesAccount","label":"lockedUntil","offset":0,"slot":"0","type":"t_uint256"},{"astId":294,"contract":"contracts/ChargedParticlesAccount.sol:ChargedParticlesAccount","label":"permissions","offset":0,"slot":"1","type":"t_mapping(t_address,t_mapping(t_address,t_bool))"}],"types":{"t_address":{"encoding":"inplace","label":"address","numberOfBytes":"20"},"t_bool":{"encoding":"inplace","label":"bool","numberOfBytes":"1"},"t_mapping(t_address,t_bool)":{"encoding":"mapping","key":"t_address","label":"mapping(address => bool)","numberOfBytes":"32","value":"t_bool"},"t_mapping(t_address,t_mapping(t_address,t_bool))":{"encoding":"mapping","key":"t_address","label":"mapping(address => mapping(address => bool))","numberOfBytes":"32","value":"t_mapping(t_address,t_bool)"},"t_uint256":{"encoding":"inplace","label":"uint256","numberOfBytes":"32"}}},"userdoc":{"kind":"user","methods":{},"version":1}}}}