{"contracts/AccountRegistryBridge.sol":{"AccountRegistryBridge":{"abi":[{"inputs":[],"name":"IMPLEMENTATION","outputs":[{"internalType":"address","name":"","type":"address"}],"stateMutability":"view","type":"function"},{"inputs":[],"name":"REGISTRY","outputs":[{"internalType":"address","name":"","type":"address"}],"stateMutability":"view","type":"function"},{"inputs":[{"internalType":"address","name":"contractAddress","type":"address"},{"internalType":"uint256","name":"tokenId","type":"uint256"}],"name":"account","outputs":[{"internalType":"address","name":"","type":"address"}],"stateMutability":"view","type":"function"},{"inputs":[{"internalType":"address","name":"contractAddress","type":"address"},{"internalType":"uint256","name":"tokenId","type":"uint256"}],"name":"createAccount","outputs":[{"internalType":"address","name":"","type":"address"}],"stateMutability":"nonpayable","type":"function"}],"devdoc":{"kind":"dev","methods":{},"version":1},"evm":{"bytecode":{"linkReferences":{},"object":"608060405234801561001057600080fd5b5061029f806100206000396000f3fe608060405234801561001057600080fd5b506004361061004c5760003560e01c806306433b1b14610051578063192df655146100885780633a4741bd1461009b5780635fbfb9cf146100b6575b600080fd5b61006c7302101dfb77fde026414827fdc604ddaf224f092181565b6040516001600160a01b03909116815260200160405180910390f35b61006c610096366004610220565b6100c9565b61006c732d25602551487c3f3354dd80d76d54383a24335881565b61006c6100c4366004610220565b61017d565b60405163246a002160e01b8152732d25602551487c3f3354dd80d76d54383a24335860048201526000602482018190524660448301526001600160a01b038416606483015260848201839052907302101dfb77fde026414827fdc604ddaf224f09219063246a00219060a401602060405180830381865afa158015610152573d6000803e3d6000fd5b505050506040513d601f19601f82011682018060405250810190610176919061024c565b9392505050565b604051638a54c52f60e01b8152732d25602551487c3f3354dd80d76d54383a24335860048201526000602482018190524660448301526001600160a01b038416606483015260848201839052907302101dfb77fde026414827fdc604ddaf224f092190638a54c52f9060a4016020604051808303816000875af1158015610152573d6000803e3d6000fd5b6001600160a01b038116811461021d57600080fd5b50565b6000806040838503121561023357600080fd5b823561023e81610208565b946020939093013593505050565b60006020828403121561025e57600080fd5b81516101768161020856fea264697066735822122076764d0e6825b0a387a421cff599da2214256000f08c283c24ee97998cb6a4c764736f6c63430008110033","opcodes":"PUSH1 0x80 PUSH1 0x40 MSTORE CALLVALUE DUP1 ISZERO PUSH2 0x10 JUMPI PUSH1 0x0 DUP1 REVERT JUMPDEST POP PUSH2 0x29F DUP1 PUSH2 0x20 PUSH1 0x0 CODECOPY PUSH1 0x0 RETURN INVALID PUSH1 0x80 PUSH1 0x40 MSTORE CALLVALUE DUP1 ISZERO PUSH2 0x10 JUMPI PUSH1 0x0 DUP1 REVERT JUMPDEST POP PUSH1 0x4 CALLDATASIZE LT PUSH2 0x4C JUMPI PUSH1 0x0 CALLDATALOAD PUSH1 0xE0 SHR DUP1 PUSH4 0x6433B1B EQ PUSH2 0x51 JUMPI DUP1 PUSH4 0x192DF655 EQ PUSH2 0x88 JUMPI DUP1 PUSH4 0x3A4741BD EQ PUSH2 0x9B JUMPI DUP1 PUSH4 0x5FBFB9CF EQ PUSH2 0xB6 JUMPI JUMPDEST PUSH1 0x0 DUP1 REVERT JUMPDEST PUSH2 0x6C PUSH20 0x2101DFB77FDE026414827FDC604DDAF224F0921 DUP2 JUMP JUMPDEST PUSH1 0x40 MLOAD PUSH1 0x1 PUSH1 0x1 PUSH1 0xA0 SHL SUB SWAP1 SWAP2 AND DUP2 MSTORE PUSH1 0x20 ADD PUSH1 0x40 MLOAD DUP1 SWAP2 SUB SWAP1 RETURN JUMPDEST PUSH2 0x6C PUSH2 0x96 CALLDATASIZE PUSH1 0x4 PUSH2 0x220 JUMP JUMPDEST PUSH2 0xC9 JUMP JUMPDEST PUSH2 0x6C PUSH20 0x2D25602551487C3F3354DD80D76D54383A243358 DUP2 JUMP JUMPDEST PUSH2 0x6C PUSH2 0xC4 CALLDATASIZE PUSH1 0x4 PUSH2 0x220 JUMP JUMPDEST PUSH2 0x17D JUMP JUMPDEST PUSH1 0x40 MLOAD PUSH4 0x246A0021 PUSH1 0xE0 SHL DUP2 MSTORE PUSH20 0x2D25602551487C3F3354DD80D76D54383A243358 PUSH1 0x4 DUP3 ADD MSTORE PUSH1 0x0 PUSH1 0x24 DUP3 ADD DUP2 SWAP1 MSTORE CHAINID PUSH1 0x44 DUP4 ADD MSTORE PUSH1 0x1 PUSH1 0x1 PUSH1 0xA0 SHL SUB DUP5 AND PUSH1 0x64 DUP4 ADD MSTORE PUSH1 0x84 DUP3 ADD DUP4 SWAP1 MSTORE SWAP1 PUSH20 0x2101DFB77FDE026414827FDC604DDAF224F0921 SWAP1 PUSH4 0x246A0021 SWAP1 PUSH1 0xA4 ADD PUSH1 0x20 PUSH1 0x40 MLOAD DUP1 DUP4 SUB DUP2 DUP7 GAS STATICCALL ISZERO DUP1 ISZERO PUSH2 0x152 JUMPI RETURNDATASIZE PUSH1 0x0 DUP1 RETURNDATACOPY RETURNDATASIZE PUSH1 0x0 REVERT JUMPDEST POP POP POP POP PUSH1 0x40 MLOAD RETURNDATASIZE PUSH1 0x1F NOT PUSH1 0x1F DUP3 ADD AND DUP3 ADD DUP1 PUSH1 0x40 MSTORE POP DUP2 ADD SWAP1 PUSH2 0x176 SWAP2 SWAP1 PUSH2 0x24C JUMP JUMPDEST SWAP4 SWAP3 POP POP POP JUMP JUMPDEST PUSH1 0x40 MLOAD PUSH4 0x8A54C52F PUSH1 0xE0 SHL DUP2 MSTORE PUSH20 0x2D25602551487C3F3354DD80D76D54383A243358 PUSH1 0x4 DUP3 ADD MSTORE PUSH1 0x0 PUSH1 0x24 DUP3 ADD DUP2 SWAP1 MSTORE CHAINID PUSH1 0x44 DUP4 ADD MSTORE PUSH1 0x1 PUSH1 0x1 PUSH1 0xA0 SHL SUB DUP5 AND PUSH1 0x64 DUP4 ADD MSTORE PUSH1 0x84 DUP3 ADD DUP4 SWAP1 MSTORE SWAP1 PUSH20 0x2101DFB77FDE026414827FDC604DDAF224F0921 SWAP1 PUSH4 0x8A54C52F SWAP1 PUSH1 0xA4 ADD PUSH1 0x20 PUSH1 0x40 MLOAD DUP1 DUP4 SUB DUP2 PUSH1 0x0 DUP8 GAS CALL ISZERO DUP1 ISZERO PUSH2 0x152 JUMPI RETURNDATASIZE PUSH1 0x0 DUP1 RETURNDATACOPY RETURNDATASIZE PUSH1 0x0 REVERT JUMPDEST PUSH1 0x1 PUSH1 0x1 PUSH1 0xA0 SHL SUB DUP2 AND DUP2 EQ PUSH2 0x21D JUMPI PUSH1 0x0 DUP1 REVERT JUMPDEST POP JUMP JUMPDEST PUSH1 0x0 DUP1 PUSH1 0x40 DUP4 DUP6 SUB SLT ISZERO PUSH2 0x233 JUMPI PUSH1 0x0 DUP1 REVERT JUMPDEST DUP3 CALLDATALOAD PUSH2 0x23E DUP2 PUSH2 0x208 JUMP JUMPDEST SWAP5 PUSH1 0x20 SWAP4 SWAP1 SWAP4 ADD CALLDATALOAD SWAP4 POP POP POP JUMP JUMPDEST PUSH1 0x0 PUSH1 0x20 DUP3 DUP5 SUB SLT ISZERO PUSH2 0x25E JUMPI PUSH1 0x0 DUP1 REVERT JUMPDEST DUP2 MLOAD PUSH2 0x176 DUP2 PUSH2 0x208 JUMP INVALID LOG2 PUSH5 0x6970667358 0x22 SLT KECCAK256 PUSH23 0x764D0E6825B0A387A421CFF599DA2214256000F08C283C 0x24 0xEE SWAP8 SWAP10 DUP13 0xB6 LOG4 0xC7 PUSH5 0x736F6C6343 STOP ADDMOD GT STOP CALLER "},"gasEstimates":{"creation":{"codeDepositCost":"134200","executionCost":"177","totalCost":"134377"},"external":{"IMPLEMENTATION()":"226","REGISTRY()":"182","account(address,uint256)":"infinite","createAccount(address,uint256)":"infinite"}},"methodIdentifiers":{"IMPLEMENTATION()":"3a4741bd","REGISTRY()":"06433b1b","account(address,uint256)":"192df655","createAccount(address,uint256)":"5fbfb9cf"}},"storageLayout":{"storage":[],"types":null},"userdoc":{"kind":"user","methods":{},"version":1}}}}