{"contracts/ChargedParticlesAccount.sol":{"ChargedParticlesAccount":{"abi":[{"inputs":[],"name":"AccountLocked","type":"error"},{"inputs":[],"name":"ExceedsMaxLockTime","type":"error"},{"inputs":[],"name":"InvalidInput","type":"error"},{"inputs":[],"name":"NotAuthorized","type":"error"},{"inputs":[],"name":"OwnershipCycle","type":"error"},{"anonymous":false,"inputs":[{"indexed":false,"internalType":"uint256","name":"lockedUntil","type":"uint256"}],"name":"LockUpdated","type":"event"},{"anonymous":false,"inputs":[{"indexed":false,"internalType":"address","name":"owner","type":"address"},{"indexed":false,"internalType":"bytes4","name":"selector","type":"bytes4"},{"indexed":false,"internalType":"address","name":"implementation","type":"address"}],"name":"OverrideUpdated","type":"event"},{"anonymous":false,"inputs":[{"indexed":false,"internalType":"address","name":"owner","type":"address"},{"indexed":false,"internalType":"address","name":"caller","type":"address"},{"indexed":false,"internalType":"bool","name":"hasPermission","type":"bool"}],"name":"PermissionUpdated","type":"event"},{"inputs":[{"internalType":"address","name":"receiver","type":"address"},{"internalType":"address","name":"nftTokenAddress","type":"address"},{"internalType":"uint256","name":"nftTokenId","type":"uint256"},{"internalType":"uint256","name":"nftTokenAmount","type":"uint256"}],"name":"breakCovalentBond","outputs":[],"stateMutability":"nonpayable","type":"function"},{"inputs":[{"internalType":"address","name":"nftTokenAddress","type":"address"},{"internalType":"uint256","name":"nftTokenId","type":"uint256"},{"internalType":"uint256","name":"nftTokenAmount","type":"uint256"}],"name":"covalentBond","outputs":[],"stateMutability":"nonpayable","type":"function"},{"inputs":[{"internalType":"address","name":"receiver","type":"address"},{"internalType":"address","name":"assetToken","type":"address"},{"internalType":"uint256","name":"assetAmount","type":"uint256"}],"name":"dischargeParticle","outputs":[],"stateMutability":"nonpayable","type":"function"},{"inputs":[{"internalType":"address","name":"assetToken","type":"address"},{"internalType":"uint256","name":"assetAmount","type":"uint256"}],"name":"energizeParticle","outputs":[],"stateMutability":"nonpayable","type":"function"},{"inputs":[{"internalType":"address","name":"to","type":"address"},{"internalType":"uint256","name":"value","type":"uint256"},{"internalType":"bytes","name":"data","type":"bytes"}],"name":"executeCall","outputs":[{"internalType":"bytes","name":"","type":"bytes"}],"stateMutability":"payable","type":"function"},{"inputs":[],"name":"isLocked","outputs":[{"internalType":"bool","name":"","type":"bool"}],"stateMutability":"view","type":"function"},{"inputs":[{"internalType":"address","name":"signer","type":"address"},{"internalType":"bytes","name":"context","type":"bytes"}],"name":"isValidSigner","outputs":[{"internalType":"bytes4","name":"magicValue","type":"bytes4"}],"stateMutability":"view","type":"function"},{"inputs":[{"internalType":"uint256","name":"_lockedUntil","type":"uint256"}],"name":"lock","outputs":[],"stateMutability":"nonpayable","type":"function"},{"inputs":[],"name":"lockedUntil","outputs":[{"internalType":"uint256","name":"","type":"uint256"}],"stateMutability":"view","type":"function"},{"inputs":[{"internalType":"address","name":"","type":"address"},{"internalType":"address","name":"","type":"address"},{"internalType":"uint256[]","name":"","type":"uint256[]"},{"internalType":"uint256[]","name":"","type":"uint256[]"},{"internalType":"bytes","name":"","type":"bytes"}],"name":"onERC1155BatchReceived","outputs":[{"internalType":"bytes4","name":"","type":"bytes4"}],"stateMutability":"pure","type":"function"},{"inputs":[{"internalType":"address","name":"","type":"address"},{"internalType":"address","name":"","type":"address"},{"internalType":"uint256","name":"","type":"uint256"},{"internalType":"uint256","name":"","type":"uint256"},{"internalType":"bytes","name":"","type":"bytes"}],"name":"onERC1155Received","outputs":[{"internalType":"bytes4","name":"","type":"bytes4"}],"stateMutability":"pure","type":"function"},{"inputs":[{"internalType":"address","name":"","type":"address"},{"internalType":"address","name":"","type":"address"},{"internalType":"uint256","name":"receivedTokenId","type":"uint256"},{"internalType":"bytes","name":"","type":"bytes"}],"name":"onERC721Received","outputs":[{"internalType":"bytes4","name":"","type":"bytes4"}],"stateMutability":"view","type":"function"},{"inputs":[],"name":"owner","outputs":[{"internalType":"address","name":"","type":"address"}],"stateMutability":"view","type":"function"},{"inputs":[{"internalType":"bytes","name":"_data","type":"bytes"}],"name":"parseFirst4Bytes","outputs":[{"internalType":"bytes4","name":"","type":"bytes4"}],"stateMutability":"pure","type":"function"},{"inputs":[{"internalType":"address","name":"","type":"address"},{"internalType":"address","name":"","type":"address"}],"name":"permissions","outputs":[{"internalType":"bool","name":"","type":"bool"}],"stateMutability":"view","type":"function"},{"inputs":[{"internalType":"address[]","name":"callers","type":"address[]"},{"internalType":"bool[]","name":"_permissions","type":"bool[]"}],"name":"setPermissions","outputs":[],"stateMutability":"nonpayable","type":"function"},{"inputs":[],"name":"state","outputs":[{"internalType":"uint256","name":"","type":"uint256"}],"stateMutability":"view","type":"function"},{"inputs":[{"internalType":"bytes4","name":"interfaceId","type":"bytes4"}],"name":"supportsInterface","outputs":[{"internalType":"bool","name":"","type":"bool"}],"stateMutability":"pure","type":"function"},{"inputs":[],"name":"token","outputs":[{"internalType":"uint256","name":"chainId","type":"uint256"},{"internalType":"address","name":"tokenContract","type":"address"},{"internalType":"uint256","name":"tokenId","type":"uint256"}],"stateMutability":"view","type":"function"},{"stateMutability":"payable","type":"receive"}],"devdoc":{"kind":"dev","methods":{"executeCall(address,uint256,bytes)":{"details":"executes a low-level call against an account if the caller is authorized to make calls"},"isLocked()":{"details":"returns the current lock status of the account as a boolean"},"isValidSigner(address,bytes)":{"details":"Returns the authorization status for a given caller"},"lock(uint256)":{"details":"locks the account until a certain timestamp"},"onERC1155BatchReceived(address,address,uint256[],uint256[],bytes)":{"details":"Allows ERC-1155 token batches to be received. This function can be overriden."},"onERC1155Received(address,address,uint256,uint256,bytes)":{"details":"Allows ERC-1155 tokens to be received. This function can be overriden."},"onERC721Received(address,address,uint256,bytes)":{"details":"Allows ERC-721 tokens to be received so long as they do not cause an ownership cycle. This function can be overriden."},"owner()":{"details":"Returns the owner of the ERC-721 token which owns this account. By default, the owner of the token has full permissions on the account."},"setPermissions(address[],bool[])":{"details":"grants a given caller execution permissions"},"state()":{"details":"Returns a value that SHOULD be modified each time the account changes state.","returns":{"_0":"The current account state"}},"supportsInterface(bytes4)":{"details":"Returns true if a given interfaceId is supported by this account. This method can be extended by an override."},"token()":{"details":"Returns the EIP-155 chain ID, token contract address, and token ID for the token that owns this account."}},"version":1},"evm":{"bytecode":{"linkReferences":{},"object":"608060405234801561001057600080fd5b506114de806100206000396000f3fe6080604052600436106101185760003560e01c8063a65e78f1116100a0578063ce0617ec11610064578063ce0617ec1461033d578063d0ad253514610353578063dd46706414610373578063f23a6e6114610393578063fc0c546a146103bf57600080fd5b8063a65e78f114610293578063a737a299146102b3578063bc197c81146102d3578063c19d93fb146102ff578063ca1cc2201461031d57600080fd5b8063523e3260116100e7578063523e3260146101ef5780636b764e1b1461020f5780638da5cb5b1461022f5780639e5d4c491461025c578063a4e2d6341461027c57600080fd5b806301ffc9a714610124578063039721b114610159578063150b7a021461017b5780631f9838b5146101b457600080fd5b3661011f57005b600080fd5b34801561013057600080fd5b5061014461013f366004610cc6565b6103f7565b60405190151581526020015b60405180910390f35b34801561016557600080fd5b50610179610174366004610d3c565b61045e565b005b34801561018757600080fd5b5061019b610196366004610e77565b610627565b6040516001600160e01b03199091168152602001610150565b3480156101c057600080fd5b506101446101cf366004610ee3565b600160209081526000928352604080842090915290825290205460ff1681565b3480156101fb57600080fd5b5061019b61020a366004610f5e565b61068f565b34801561021b57600080fd5b5061017961022a366004610fb3565b610793565b34801561023b57600080fd5b50610244610801565b6040516001600160a01b039091168152602001610150565b61026f61026a366004610ff9565b610897565b6040516101509190611049565b34801561028857600080fd5b506000544210610144565b34801561029f57600080fd5b506101796102ae366004611097565b610967565b3480156102bf57600080fd5b506101796102ce3660046110c3565b6109e3565b3480156102df57600080fd5b5061019b6102ee366004611178565b63bc197c8160e01b95945050505050565b34801561030b57600080fd5b5060015b604051908152602001610150565b34801561032957600080fd5b50610179610338366004611226565b610a45565b34801561034957600080fd5b5061030f60005481565b34801561035f57600080fd5b5061019b61036e366004611267565b610abe565b34801561037f57600080fd5b5061017961038e3660046112a9565b610adf565b34801561039f57600080fd5b5061019b6103ae3660046112c2565b63f23a6e6160e01b95945050505050565b3480156103cb57600080fd5b506103d4610ba4565b604080519384526001600160a01b03909216602084015290820152606001610150565b6000806001600160e01b031983166301ffc9a760e01b148061042957506001600160e01b03198316630271189760e51b145b8061044457506001600160e01b03198316636faff5f160e01b145b905080156104555750600192915050565b50600092915050565b60005442101561048157604051636315bfbb60e01b815260040160405180910390fd5b600061048b610801565b9050336001600160a01b038216146104b65760405163ea8e4eb560e01b815260040160405180910390fd5b838281146104d75760405163b4fa3fb360e01b815260040160405180910390fd5b60005b8181101561061e578484828181106104f4576104f461132b565b9050602002016020810190610509919061134f565b6001600160a01b0384166000908152600160205260408120908989858181106105345761053461132b565b9050602002016020810190610549919061136c565b6001600160a01b031681526020810191909152604001600020805460ff19169115159190911790557f394777a58092892d136a90c4bb7e4350c72ac50fba6a0208128677f36527dcf5838888848181106105a5576105a561132b565b90506020020160208101906105ba919061136c565b8787858181106105cc576105cc61132b565b90506020020160208101906105e1919061134f565b604080516001600160a01b03948516815293909216602084015215159082015260600160405180910390a1806106168161139f565b9150506104da565b50505050505050565b600080600080610635610bbc565b925092509250468314801561065257506001600160a01b03821633145b801561065d57508581145b1561067b5760405163b79e3f3f60e01b815260040160405180910390fd5b50630a85bd0160e11b979650505050505050565b600080600061069c610bbc565b6040516331a9108f60e11b8152600481018290529194509250600091506001600160a01b03841690636352211e90602401602060405180830381865afa1580156106ea573d6000803e3d6000fd5b505050506040513d601f19601f8201168201806040525081019061070e91906113b8565b9050806001600160a01b0316876001600160a01b03160361073c5750630291f19360e51b925061078c915050565b6001600160a01b038082166000908152600160209081526040808320938b168352929052205460ff161561077d5750630291f19360e51b925061078c915050565b506001600160e01b0319925050505b9392505050565b604051632142170760e11b81523060048201526001600160a01b038581166024830152604482018490528416906342842e0e90606401600060405180830381600087803b1580156107e357600080fd5b505af11580156107f7573d6000803e3d6000fd5b5050505050505050565b60008060008061080f610bbc565b925092509250468314610826576000935050505090565b6040516331a9108f60e11b8152600481018290526001600160a01b03831690636352211e90602401602060405180830381865afa15801561086b573d6000803e3d6000fd5b505050506040513d601f19601f8201168201806040525081019061088f91906113b8565b935050505090565b606082826108a633838361068f565b6001600160e01b03191663523e326060e01b146108d65760405163ea8e4eb560e01b815260040160405180910390fd5b6000544210156108f957604051636315bfbb60e01b815260040160405180910390fd5b84846109058282610c0f565b61094e5760405162461bcd60e51b815260206004820152601660248201527513595d1a1bd908185b1b081b9bdd08185b1b1bddd95960521b604482015260640160405180910390fd5b61095a89898989610c4a565b9998505050505050505050565b6040516323b872dd60e01b8152336004820152306024820152604481018290526001600160a01b038316906323b872dd906064016020604051808303816000875af11580156109ba573d6000803e3d6000fd5b505050506040513d601f19601f820116820180604052508101906109de91906113d5565b505050565b604051632142170760e11b8152336004820152306024820152604481018390526001600160a01b038416906342842e0e90606401600060405180830381600087803b158015610a3157600080fd5b505af115801561061e573d6000803e3d6000fd5b60405163a9059cbb60e01b81526001600160a01b0384811660048301526024820183905283169063a9059cbb906044016020604051808303816000875af1158015610a94573d6000803e3d6000fd5b505050506040513d601f19601f82011682018060405250810190610ab891906113d5565b50505050565b6000610acd60048284866113f2565b610ad69161141c565b90505b92915050565b610ae7610801565b6001600160a01b0316336001600160a01b031614610b185760405163ea8e4eb560e01b815260040160405180910390fd5b600054421015610b3b57604051636315bfbb60e01b815260040160405180910390fd5b610b49426301e1338061144c565b811115610b69576040516301814f7d60e31b815260040160405180910390fd5b60008190556040518181527fa7b24c66dd3269a292a60b3facdbb8f3e7557d1e19e64d99e0d6ee7250be63ad9060200160405180910390a150565b6000806000610bb1610bbc565b925092509250909192565b604080516060808252608082019092526000918291829182919060208201818036833701905050905060ad604d60208301303c80806020019051810190610c03919061145f565b93509350935050909192565b600080610c1c8484610abe565b90506001600160e01b0319811663095ea7b360e01b03610c40576000915050610ad9565b5060019392505050565b60606000856001600160a01b0316858585604051610c69929190611498565b60006040518083038185875af1925050503d8060008114610ca6576040519150601f19603f3d011682016040523d82523d6000602084013e610cab565b606091505b509250905080610cbd57815160208301fd5b50949350505050565b600060208284031215610cd857600080fd5b81356001600160e01b03198116811461078c57600080fd5b60008083601f840112610d0257600080fd5b50813567ffffffffffffffff811115610d1a57600080fd5b6020830191508360208260051b8501011115610d3557600080fd5b9250929050565b60008060008060408587031215610d5257600080fd5b843567ffffffffffffffff80821115610d6a57600080fd5b610d7688838901610cf0565b90965094506020870135915080821115610d8f57600080fd5b50610d9c87828801610cf0565b95989497509550505050565b6001600160a01b0381168114610dbd57600080fd5b50565b634e487b7160e01b600052604160045260246000fd5b604051601f8201601f1916810167ffffffffffffffff81118282101715610dff57610dff610dc0565b604052919050565b600082601f830112610e1857600080fd5b813567ffffffffffffffff811115610e3257610e32610dc0565b610e45601f8201601f1916602001610dd6565b818152846020838601011115610e5a57600080fd5b816020850160208301376000918101602001919091529392505050565b60008060008060808587031215610e8d57600080fd5b8435610e9881610da8565b93506020850135610ea881610da8565b925060408501359150606085013567ffffffffffffffff811115610ecb57600080fd5b610ed787828801610e07565b91505092959194509250565b60008060408385031215610ef657600080fd5b8235610f0181610da8565b91506020830135610f1181610da8565b809150509250929050565b60008083601f840112610f2e57600080fd5b50813567ffffffffffffffff811115610f4657600080fd5b602083019150836020828501011115610d3557600080fd5b600080600060408486031215610f7357600080fd5b8335610f7e81610da8565b9250602084013567ffffffffffffffff811115610f9a57600080fd5b610fa686828701610f1c565b9497909650939450505050565b60008060008060808587031215610fc957600080fd5b8435610fd481610da8565b93506020850135610fe481610da8565b93969395505050506040820135916060013590565b6000806000806060858703121561100f57600080fd5b843561101a81610da8565b935060208501359250604085013567ffffffffffffffff81111561103d57600080fd5b610d9c87828801610f1c565b600060208083528351808285015260005b818110156110765785810183015185820160400152820161105a565b506000604082860101526040601f19601f8301168501019250505092915050565b600080604083850312156110aa57600080fd5b82356110b581610da8565b946020939093013593505050565b6000806000606084860312156110d857600080fd5b83356110e381610da8565b95602085013595506040909401359392505050565b600082601f83011261110957600080fd5b8135602067ffffffffffffffff82111561112557611125610dc0565b8160051b611134828201610dd6565b928352848101820192828101908785111561114e57600080fd5b83870192505b8483101561116d57823582529183019190830190611154565b979650505050505050565b600080600080600060a0868803121561119057600080fd5b853561119b81610da8565b945060208601356111ab81610da8565b9350604086013567ffffffffffffffff808211156111c857600080fd5b6111d489838a016110f8565b945060608801359150808211156111ea57600080fd5b6111f689838a016110f8565b9350608088013591508082111561120c57600080fd5b5061121988828901610e07565b9150509295509295909350565b60008060006060848603121561123b57600080fd5b833561124681610da8565b9250602084013561125681610da8565b929592945050506040919091013590565b6000806020838503121561127a57600080fd5b823567ffffffffffffffff81111561129157600080fd5b61129d85828601610f1c565b90969095509350505050565b6000602082840312156112bb57600080fd5b5035919050565b600080600080600060a086880312156112da57600080fd5b85356112e581610da8565b945060208601356112f581610da8565b93506040860135925060608601359150608086013567ffffffffffffffff81111561131f57600080fd5b61121988828901610e07565b634e487b7160e01b600052603260045260246000fd5b8015158114610dbd57600080fd5b60006020828403121561136157600080fd5b813561078c81611341565b60006020828403121561137e57600080fd5b813561078c81610da8565b634e487b7160e01b600052601160045260246000fd5b6000600182016113b1576113b1611389565b5060010190565b6000602082840312156113ca57600080fd5b815161078c81610da8565b6000602082840312156113e757600080fd5b815161078c81611341565b6000808585111561140257600080fd5b8386111561140f57600080fd5b5050820193919092039150565b6001600160e01b031981358181169160048510156114445780818660040360031b1b83161692505b505092915050565b80820180821115610ad957610ad9611389565b60008060006060848603121561147457600080fd5b83519250602084015161148681610da8565b80925050604084015190509250925092565b818382376000910190815291905056fea26469706673582212202bfbf80ffe15d1df88f5d173e03c2c577716222924fa8199d75029f601d910f964736f6c63430008110033","opcodes":"PUSH1 0x80 PUSH1 0x40 MSTORE CALLVALUE DUP1 ISZERO PUSH2 0x10 JUMPI PUSH1 0x0 DUP1 REVERT JUMPDEST POP PUSH2 0x14DE DUP1 PUSH2 0x20 PUSH1 0x0 CODECOPY PUSH1 0x0 RETURN INVALID PUSH1 0x80 PUSH1 0x40 MSTORE PUSH1 0x4 CALLDATASIZE LT PUSH2 0x118 JUMPI PUSH1 0x0 CALLDATALOAD PUSH1 0xE0 SHR DUP1 PUSH4 0xA65E78F1 GT PUSH2 0xA0 JUMPI DUP1 PUSH4 0xCE0617EC GT PUSH2 0x64 JUMPI DUP1 PUSH4 0xCE0617EC EQ PUSH2 0x33D JUMPI DUP1 PUSH4 0xD0AD2535 EQ PUSH2 0x353 JUMPI DUP1 PUSH4 0xDD467064 EQ PUSH2 0x373 JUMPI DUP1 PUSH4 0xF23A6E61 EQ PUSH2 0x393 JUMPI DUP1 PUSH4 0xFC0C546A EQ PUSH2 0x3BF JUMPI PUSH1 0x0 DUP1 REVERT JUMPDEST DUP1 PUSH4 0xA65E78F1 EQ PUSH2 0x293 JUMPI DUP1 PUSH4 0xA737A299 EQ PUSH2 0x2B3 JUMPI DUP1 PUSH4 0xBC197C81 EQ PUSH2 0x2D3 JUMPI DUP1 PUSH4 0xC19D93FB EQ PUSH2 0x2FF JUMPI DUP1 PUSH4 0xCA1CC220 EQ PUSH2 0x31D JUMPI PUSH1 0x0 DUP1 REVERT JUMPDEST DUP1 PUSH4 0x523E3260 GT PUSH2 0xE7 JUMPI DUP1 PUSH4 0x523E3260 EQ PUSH2 0x1EF JUMPI DUP1 PUSH4 0x6B764E1B EQ PUSH2 0x20F JUMPI DUP1 PUSH4 0x8DA5CB5B EQ PUSH2 0x22F JUMPI DUP1 PUSH4 0x9E5D4C49 EQ PUSH2 0x25C JUMPI DUP1 PUSH4 0xA4E2D634 EQ PUSH2 0x27C JUMPI PUSH1 0x0 DUP1 REVERT JUMPDEST DUP1 PUSH4 0x1FFC9A7 EQ PUSH2 0x124 JUMPI DUP1 PUSH4 0x39721B1 EQ PUSH2 0x159 JUMPI DUP1 PUSH4 0x150B7A02 EQ PUSH2 0x17B JUMPI DUP1 PUSH4 0x1F9838B5 EQ PUSH2 0x1B4 JUMPI PUSH1 0x0 DUP1 REVERT JUMPDEST CALLDATASIZE PUSH2 0x11F JUMPI STOP JUMPDEST PUSH1 0x0 DUP1 REVERT JUMPDEST CALLVALUE DUP1 ISZERO PUSH2 0x130 JUMPI PUSH1 0x0 DUP1 REVERT JUMPDEST POP PUSH2 0x144 PUSH2 0x13F CALLDATASIZE PUSH1 0x4 PUSH2 0xCC6 JUMP JUMPDEST PUSH2 0x3F7 JUMP JUMPDEST PUSH1 0x40 MLOAD SWAP1 ISZERO ISZERO DUP2 MSTORE PUSH1 0x20 ADD JUMPDEST PUSH1 0x40 MLOAD DUP1 SWAP2 SUB SWAP1 RETURN JUMPDEST CALLVALUE DUP1 ISZERO PUSH2 0x165 JUMPI PUSH1 0x0 DUP1 REVERT JUMPDEST POP PUSH2 0x179 PUSH2 0x174 CALLDATASIZE PUSH1 0x4 PUSH2 0xD3C JUMP JUMPDEST PUSH2 0x45E JUMP JUMPDEST STOP JUMPDEST CALLVALUE DUP1 ISZERO PUSH2 0x187 JUMPI PUSH1 0x0 DUP1 REVERT JUMPDEST POP PUSH2 0x19B PUSH2 0x196 CALLDATASIZE PUSH1 0x4 PUSH2 0xE77 JUMP JUMPDEST PUSH2 0x627 JUMP JUMPDEST PUSH1 0x40 MLOAD PUSH1 0x1 PUSH1 0x1 PUSH1 0xE0 SHL SUB NOT SWAP1 SWAP2 AND DUP2 MSTORE PUSH1 0x20 ADD PUSH2 0x150 JUMP JUMPDEST CALLVALUE DUP1 ISZERO PUSH2 0x1C0 JUMPI PUSH1 0x0 DUP1 REVERT JUMPDEST POP PUSH2 0x144 PUSH2 0x1CF CALLDATASIZE PUSH1 0x4 PUSH2 0xEE3 JUMP JUMPDEST PUSH1 0x1 PUSH1 0x20 SWAP1 DUP2 MSTORE PUSH1 0x0 SWAP3 DUP4 MSTORE PUSH1 0x40 DUP1 DUP5 KECCAK256 SWAP1 SWAP2 MSTORE SWAP1 DUP3 MSTORE SWAP1 KECCAK256 SLOAD PUSH1 0xFF AND DUP2 JUMP JUMPDEST CALLVALUE DUP1 ISZERO PUSH2 0x1FB JUMPI PUSH1 0x0 DUP1 REVERT JUMPDEST POP PUSH2 0x19B PUSH2 0x20A CALLDATASIZE PUSH1 0x4 PUSH2 0xF5E JUMP JUMPDEST PUSH2 0x68F JUMP JUMPDEST CALLVALUE DUP1 ISZERO PUSH2 0x21B JUMPI PUSH1 0x0 DUP1 REVERT JUMPDEST POP PUSH2 0x179 PUSH2 0x22A CALLDATASIZE PUSH1 0x4 PUSH2 0xFB3 JUMP JUMPDEST PUSH2 0x793 JUMP JUMPDEST CALLVALUE DUP1 ISZERO PUSH2 0x23B JUMPI PUSH1 0x0 DUP1 REVERT JUMPDEST POP PUSH2 0x244 PUSH2 0x801 JUMP JUMPDEST PUSH1 0x40 MLOAD PUSH1 0x1 PUSH1 0x1 PUSH1 0xA0 SHL SUB SWAP1 SWAP2 AND DUP2 MSTORE PUSH1 0x20 ADD PUSH2 0x150 JUMP JUMPDEST PUSH2 0x26F PUSH2 0x26A CALLDATASIZE PUSH1 0x4 PUSH2 0xFF9 JUMP JUMPDEST PUSH2 0x897 JUMP JUMPDEST PUSH1 0x40 MLOAD PUSH2 0x150 SWAP2 SWAP1 PUSH2 0x1049 JUMP JUMPDEST CALLVALUE DUP1 ISZERO PUSH2 0x288 JUMPI PUSH1 0x0 DUP1 REVERT JUMPDEST POP PUSH1 0x0 SLOAD TIMESTAMP LT PUSH2 0x144 JUMP JUMPDEST CALLVALUE DUP1 ISZERO PUSH2 0x29F JUMPI PUSH1 0x0 DUP1 REVERT JUMPDEST POP PUSH2 0x179 PUSH2 0x2AE CALLDATASIZE PUSH1 0x4 PUSH2 0x1097 JUMP JUMPDEST PUSH2 0x967 JUMP JUMPDEST CALLVALUE DUP1 ISZERO PUSH2 0x2BF JUMPI PUSH1 0x0 DUP1 REVERT JUMPDEST POP PUSH2 0x179 PUSH2 0x2CE CALLDATASIZE PUSH1 0x4 PUSH2 0x10C3 JUMP JUMPDEST PUSH2 0x9E3 JUMP JUMPDEST CALLVALUE DUP1 ISZERO PUSH2 0x2DF JUMPI PUSH1 0x0 DUP1 REVERT JUMPDEST POP PUSH2 0x19B PUSH2 0x2EE CALLDATASIZE PUSH1 0x4 PUSH2 0x1178 JUMP JUMPDEST PUSH4 0xBC197C81 PUSH1 0xE0 SHL SWAP6 SWAP5 POP POP POP POP POP JUMP JUMPDEST CALLVALUE DUP1 ISZERO PUSH2 0x30B JUMPI PUSH1 0x0 DUP1 REVERT JUMPDEST POP PUSH1 0x1 JUMPDEST PUSH1 0x40 MLOAD SWAP1 DUP2 MSTORE PUSH1 0x20 ADD PUSH2 0x150 JUMP JUMPDEST CALLVALUE DUP1 ISZERO PUSH2 0x329 JUMPI PUSH1 0x0 DUP1 REVERT JUMPDEST POP PUSH2 0x179 PUSH2 0x338 CALLDATASIZE PUSH1 0x4 PUSH2 0x1226 JUMP JUMPDEST PUSH2 0xA45 JUMP JUMPDEST CALLVALUE DUP1 ISZERO PUSH2 0x349 JUMPI PUSH1 0x0 DUP1 REVERT JUMPDEST POP PUSH2 0x30F PUSH1 0x0 SLOAD DUP2 JUMP JUMPDEST CALLVALUE DUP1 ISZERO PUSH2 0x35F JUMPI PUSH1 0x0 DUP1 REVERT JUMPDEST POP PUSH2 0x19B PUSH2 0x36E CALLDATASIZE PUSH1 0x4 PUSH2 0x1267 JUMP JUMPDEST PUSH2 0xABE JUMP JUMPDEST CALLVALUE DUP1 ISZERO PUSH2 0x37F JUMPI PUSH1 0x0 DUP1 REVERT JUMPDEST POP PUSH2 0x179 PUSH2 0x38E CALLDATASIZE PUSH1 0x4 PUSH2 0x12A9 JUMP JUMPDEST PUSH2 0xADF JUMP JUMPDEST CALLVALUE DUP1 ISZERO PUSH2 0x39F JUMPI PUSH1 0x0 DUP1 REVERT JUMPDEST POP PUSH2 0x19B PUSH2 0x3AE CALLDATASIZE PUSH1 0x4 PUSH2 0x12C2 JUMP JUMPDEST PUSH4 0xF23A6E61 PUSH1 0xE0 SHL SWAP6 SWAP5 POP POP POP POP POP JUMP JUMPDEST CALLVALUE DUP1 ISZERO PUSH2 0x3CB JUMPI PUSH1 0x0 DUP1 REVERT JUMPDEST POP PUSH2 0x3D4 PUSH2 0xBA4 JUMP JUMPDEST PUSH1 0x40 DUP1 MLOAD SWAP4 DUP5 MSTORE PUSH1 0x1 PUSH1 0x1 PUSH1 0xA0 SHL SUB SWAP1 SWAP3 AND PUSH1 0x20 DUP5 ADD MSTORE SWAP1 DUP3 ADD MSTORE PUSH1 0x60 ADD PUSH2 0x150 JUMP JUMPDEST PUSH1 0x0 DUP1 PUSH1 0x1 PUSH1 0x1 PUSH1 0xE0 SHL SUB NOT DUP4 AND PUSH4 0x1FFC9A7 PUSH1 0xE0 SHL EQ DUP1 PUSH2 0x429 JUMPI POP PUSH1 0x1 PUSH1 0x1 PUSH1 0xE0 SHL SUB NOT DUP4 AND PUSH4 0x2711897 PUSH1 0xE5 SHL EQ JUMPDEST DUP1 PUSH2 0x444 JUMPI POP PUSH1 0x1 PUSH1 0x1 PUSH1 0xE0 SHL SUB NOT DUP4 AND PUSH4 0x6FAFF5F1 PUSH1 0xE0 SHL EQ JUMPDEST SWAP1 POP DUP1 ISZERO PUSH2 0x455 JUMPI POP PUSH1 0x1 SWAP3 SWAP2 POP POP JUMP JUMPDEST POP PUSH1 0x0 SWAP3 SWAP2 POP POP JUMP JUMPDEST PUSH1 0x0 SLOAD TIMESTAMP LT ISZERO PUSH2 0x481 JUMPI PUSH1 0x40 MLOAD PUSH4 0x6315BFBB PUSH1 0xE0 SHL DUP2 MSTORE PUSH1 0x4 ADD PUSH1 0x40 MLOAD DUP1 SWAP2 SUB SWAP1 REVERT JUMPDEST PUSH1 0x0 PUSH2 0x48B PUSH2 0x801 JUMP JUMPDEST SWAP1 POP CALLER PUSH1 0x1 PUSH1 0x1 PUSH1 0xA0 SHL SUB DUP3 AND EQ PUSH2 0x4B6 JUMPI PUSH1 0x40 MLOAD PUSH4 0xEA8E4EB5 PUSH1 0xE0 SHL DUP2 MSTORE PUSH1 0x4 ADD PUSH1 0x40 MLOAD DUP1 SWAP2 SUB SWAP1 REVERT JUMPDEST DUP4 DUP3 DUP2 EQ PUSH2 0x4D7 JUMPI PUSH1 0x40 MLOAD PUSH4 0xB4FA3FB3 PUSH1 0xE0 SHL DUP2 MSTORE PUSH1 0x4 ADD PUSH1 0x40 MLOAD DUP1 SWAP2 SUB SWAP1 REVERT JUMPDEST PUSH1 0x0 JUMPDEST DUP2 DUP2 LT ISZERO PUSH2 0x61E JUMPI DUP5 DUP5 DUP3 DUP2 DUP2 LT PUSH2 0x4F4 JUMPI PUSH2 0x4F4 PUSH2 0x132B JUMP JUMPDEST SWAP1 POP PUSH1 0x20 MUL ADD PUSH1 0x20 DUP2 ADD SWAP1 PUSH2 0x509 SWAP2 SWAP1 PUSH2 0x134F JUMP JUMPDEST PUSH1 0x1 PUSH1 0x1 PUSH1 0xA0 SHL SUB DUP5 AND PUSH1 0x0 SWAP1 DUP2 MSTORE PUSH1 0x1 PUSH1 0x20 MSTORE PUSH1 0x40 DUP2 KECCAK256 SWAP1 DUP10 DUP10 DUP6 DUP2 DUP2 LT PUSH2 0x534 JUMPI PUSH2 0x534 PUSH2 0x132B JUMP JUMPDEST SWAP1 POP PUSH1 0x20 MUL ADD PUSH1 0x20 DUP2 ADD SWAP1 PUSH2 0x549 SWAP2 SWAP1 PUSH2 0x136C JUMP JUMPDEST PUSH1 0x1 PUSH1 0x1 PUSH1 0xA0 SHL SUB AND DUP2 MSTORE PUSH1 0x20 DUP2 ADD SWAP2 SWAP1 SWAP2 MSTORE PUSH1 0x40 ADD PUSH1 0x0 KECCAK256 DUP1 SLOAD PUSH1 0xFF NOT AND SWAP2 ISZERO ISZERO SWAP2 SWAP1 SWAP2 OR SWAP1 SSTORE PUSH32 0x394777A58092892D136A90C4BB7E4350C72AC50FBA6A0208128677F36527DCF5 DUP4 DUP9 DUP9 DUP5 DUP2 DUP2 LT PUSH2 0x5A5 JUMPI PUSH2 0x5A5 PUSH2 0x132B JUMP JUMPDEST SWAP1 POP PUSH1 0x20 MUL ADD PUSH1 0x20 DUP2 ADD SWAP1 PUSH2 0x5BA SWAP2 SWAP1 PUSH2 0x136C JUMP JUMPDEST DUP8 DUP8 DUP6 DUP2 DUP2 LT PUSH2 0x5CC JUMPI PUSH2 0x5CC PUSH2 0x132B JUMP JUMPDEST SWAP1 POP PUSH1 0x20 MUL ADD PUSH1 0x20 DUP2 ADD SWAP1 PUSH2 0x5E1 SWAP2 SWAP1 PUSH2 0x134F JUMP JUMPDEST PUSH1 0x40 DUP1 MLOAD PUSH1 0x1 PUSH1 0x1 PUSH1 0xA0 SHL SUB SWAP5 DUP6 AND DUP2 MSTORE SWAP4 SWAP1 SWAP3 AND PUSH1 0x20 DUP5 ADD MSTORE ISZERO ISZERO SWAP1 DUP3 ADD MSTORE PUSH1 0x60 ADD PUSH1 0x40 MLOAD DUP1 SWAP2 SUB SWAP1 LOG1 DUP1 PUSH2 0x616 DUP2 PUSH2 0x139F JUMP JUMPDEST SWAP2 POP POP PUSH2 0x4DA JUMP JUMPDEST POP POP POP POP POP POP POP JUMP JUMPDEST PUSH1 0x0 DUP1 PUSH1 0x0 DUP1 PUSH2 0x635 PUSH2 0xBBC JUMP JUMPDEST SWAP3 POP SWAP3 POP SWAP3 POP CHAINID DUP4 EQ DUP1 ISZERO PUSH2 0x652 JUMPI POP PUSH1 0x1 PUSH1 0x1 PUSH1 0xA0 SHL SUB DUP3 AND CALLER EQ JUMPDEST DUP1 ISZERO PUSH2 0x65D JUMPI POP DUP6 DUP2 EQ JUMPDEST ISZERO PUSH2 0x67B JUMPI PUSH1 0x40 MLOAD PUSH4 0xB79E3F3F PUSH1 0xE0 SHL DUP2 MSTORE PUSH1 0x4 ADD PUSH1 0x40 MLOAD DUP1 SWAP2 SUB SWAP1 REVERT JUMPDEST POP PUSH4 0xA85BD01 PUSH1 0xE1 SHL SWAP8 SWAP7 POP POP POP POP POP POP POP JUMP JUMPDEST PUSH1 0x0 DUP1 PUSH1 0x0 PUSH2 0x69C PUSH2 0xBBC JUMP JUMPDEST PUSH1 0x40 MLOAD PUSH4 0x31A9108F PUSH1 0xE1 SHL DUP2 MSTORE PUSH1 0x4 DUP2 ADD DUP3 SWAP1 MSTORE SWAP2 SWAP5 POP SWAP3 POP PUSH1 0x0 SWAP2 POP PUSH1 0x1 PUSH1 0x1 PUSH1 0xA0 SHL SUB DUP5 AND SWAP1 PUSH4 0x6352211E SWAP1 PUSH1 0x24 ADD PUSH1 0x20 PUSH1 0x40 MLOAD DUP1 DUP4 SUB DUP2 DUP7 GAS STATICCALL ISZERO DUP1 ISZERO PUSH2 0x6EA JUMPI RETURNDATASIZE PUSH1 0x0 DUP1 RETURNDATACOPY RETURNDATASIZE PUSH1 0x0 REVERT JUMPDEST POP POP POP POP PUSH1 0x40 MLOAD RETURNDATASIZE PUSH1 0x1F NOT PUSH1 0x1F DUP3 ADD AND DUP3 ADD DUP1 PUSH1 0x40 MSTORE POP DUP2 ADD SWAP1 PUSH2 0x70E SWAP2 SWAP1 PUSH2 0x13B8 JUMP JUMPDEST SWAP1 POP DUP1 PUSH1 0x1 PUSH1 0x1 PUSH1 0xA0 SHL SUB AND DUP8 PUSH1 0x1 PUSH1 0x1 PUSH1 0xA0 SHL SUB AND SUB PUSH2 0x73C JUMPI POP PUSH4 0x291F193 PUSH1 0xE5 SHL SWAP3 POP PUSH2 0x78C SWAP2 POP POP JUMP JUMPDEST PUSH1 0x1 PUSH1 0x1 PUSH1 0xA0 SHL SUB DUP1 DUP3 AND PUSH1 0x0 SWAP1 DUP2 MSTORE PUSH1 0x1 PUSH1 0x20 SWAP1 DUP2 MSTORE PUSH1 0x40 DUP1 DUP4 KECCAK256 SWAP4 DUP12 AND DUP4 MSTORE SWAP3 SWAP1 MSTORE KECCAK256 SLOAD PUSH1 0xFF AND ISZERO PUSH2 0x77D JUMPI POP PUSH4 0x291F193 PUSH1 0xE5 SHL SWAP3 POP PUSH2 0x78C SWAP2 POP POP JUMP JUMPDEST POP PUSH1 0x1 PUSH1 0x1 PUSH1 0xE0 SHL SUB NOT SWAP3 POP POP POP JUMPDEST SWAP4 SWAP3 POP POP POP JUMP JUMPDEST PUSH1 0x40 MLOAD PUSH4 0x21421707 PUSH1 0xE1 SHL DUP2 MSTORE ADDRESS PUSH1 0x4 DUP3 ADD MSTORE PUSH1 0x1 PUSH1 0x1 PUSH1 0xA0 SHL SUB DUP6 DUP2 AND PUSH1 0x24 DUP4 ADD MSTORE PUSH1 0x44 DUP3 ADD DUP5 SWAP1 MSTORE DUP5 AND SWAP1 PUSH4 0x42842E0E SWAP1 PUSH1 0x64 ADD PUSH1 0x0 PUSH1 0x40 MLOAD DUP1 DUP4 SUB DUP2 PUSH1 0x0 DUP8 DUP1 EXTCODESIZE ISZERO DUP1 ISZERO PUSH2 0x7E3 JUMPI PUSH1 0x0 DUP1 REVERT JUMPDEST POP GAS CALL ISZERO DUP1 ISZERO PUSH2 0x7F7 JUMPI RETURNDATASIZE PUSH1 0x0 DUP1 RETURNDATACOPY RETURNDATASIZE PUSH1 0x0 REVERT JUMPDEST POP POP POP POP POP POP POP POP JUMP JUMPDEST PUSH1 0x0 DUP1 PUSH1 0x0 DUP1 PUSH2 0x80F PUSH2 0xBBC JUMP JUMPDEST SWAP3 POP SWAP3 POP SWAP3 POP CHAINID DUP4 EQ PUSH2 0x826 JUMPI PUSH1 0x0 SWAP4 POP POP POP POP SWAP1 JUMP JUMPDEST PUSH1 0x40 MLOAD PUSH4 0x31A9108F PUSH1 0xE1 SHL DUP2 MSTORE PUSH1 0x4 DUP2 ADD DUP3 SWAP1 MSTORE PUSH1 0x1 PUSH1 0x1 PUSH1 0xA0 SHL SUB DUP4 AND SWAP1 PUSH4 0x6352211E SWAP1 PUSH1 0x24 ADD PUSH1 0x20 PUSH1 0x40 MLOAD DUP1 DUP4 SUB DUP2 DUP7 GAS STATICCALL ISZERO DUP1 ISZERO PUSH2 0x86B JUMPI RETURNDATASIZE PUSH1 0x0 DUP1 RETURNDATACOPY RETURNDATASIZE PUSH1 0x0 REVERT JUMPDEST POP POP POP POP PUSH1 0x40 MLOAD RETURNDATASIZE PUSH1 0x1F NOT PUSH1 0x1F DUP3 ADD AND DUP3 ADD DUP1 PUSH1 0x40 MSTORE POP DUP2 ADD SWAP1 PUSH2 0x88F SWAP2 SWAP1 PUSH2 0x13B8 JUMP JUMPDEST SWAP4 POP POP POP POP SWAP1 JUMP JUMPDEST PUSH1 0x60 DUP3 DUP3 PUSH2 0x8A6 CALLER DUP4 DUP4 PUSH2 0x68F JUMP JUMPDEST PUSH1 0x1 PUSH1 0x1 PUSH1 0xE0 SHL SUB NOT AND PUSH4 0x523E3260 PUSH1 0xE0 SHL EQ PUSH2 0x8D6 JUMPI PUSH1 0x40 MLOAD PUSH4 0xEA8E4EB5 PUSH1 0xE0 SHL DUP2 MSTORE PUSH1 0x4 ADD PUSH1 0x40 MLOAD DUP1 SWAP2 SUB SWAP1 REVERT JUMPDEST PUSH1 0x0 SLOAD TIMESTAMP LT ISZERO PUSH2 0x8F9 JUMPI PUSH1 0x40 MLOAD PUSH4 0x6315BFBB PUSH1 0xE0 SHL DUP2 MSTORE PUSH1 0x4 ADD PUSH1 0x40 MLOAD DUP1 SWAP2 SUB SWAP1 REVERT JUMPDEST DUP5 DUP5 PUSH2 0x905 DUP3 DUP3 PUSH2 0xC0F JUMP JUMPDEST PUSH2 0x94E JUMPI PUSH1 0x40 MLOAD PUSH3 0x461BCD PUSH1 0xE5 SHL DUP2 MSTORE PUSH1 0x20 PUSH1 0x4 DUP3 ADD MSTORE PUSH1 0x16 PUSH1 0x24 DUP3 ADD MSTORE PUSH22 0x13595D1A1BD908185B1B081B9BDD08185B1B1BDDD959 PUSH1 0x52 SHL PUSH1 0x44 DUP3 ADD MSTORE PUSH1 0x64 ADD PUSH1 0x40 MLOAD DUP1 SWAP2 SUB SWAP1 REVERT JUMPDEST PUSH2 0x95A DUP10 DUP10 DUP10 DUP10 PUSH2 0xC4A JUMP JUMPDEST SWAP10 SWAP9 POP POP POP POP POP POP POP POP POP JUMP JUMPDEST PUSH1 0x40 MLOAD PUSH4 0x23B872DD PUSH1 0xE0 SHL DUP2 MSTORE CALLER PUSH1 0x4 DUP3 ADD MSTORE ADDRESS PUSH1 0x24 DUP3 ADD MSTORE PUSH1 0x44 DUP2 ADD DUP3 SWAP1 MSTORE PUSH1 0x1 PUSH1 0x1 PUSH1 0xA0 SHL SUB DUP4 AND SWAP1 PUSH4 0x23B872DD SWAP1 PUSH1 0x64 ADD PUSH1 0x20 PUSH1 0x40 MLOAD DUP1 DUP4 SUB DUP2 PUSH1 0x0 DUP8 GAS CALL ISZERO DUP1 ISZERO PUSH2 0x9BA JUMPI RETURNDATASIZE PUSH1 0x0 DUP1 RETURNDATACOPY RETURNDATASIZE PUSH1 0x0 REVERT JUMPDEST POP POP POP POP PUSH1 0x40 MLOAD RETURNDATASIZE PUSH1 0x1F NOT PUSH1 0x1F DUP3 ADD AND DUP3 ADD DUP1 PUSH1 0x40 MSTORE POP DUP2 ADD SWAP1 PUSH2 0x9DE SWAP2 SWAP1 PUSH2 0x13D5 JUMP JUMPDEST POP POP POP JUMP JUMPDEST PUSH1 0x40 MLOAD PUSH4 0x21421707 PUSH1 0xE1 SHL DUP2 MSTORE CALLER PUSH1 0x4 DUP3 ADD MSTORE ADDRESS PUSH1 0x24 DUP3 ADD MSTORE PUSH1 0x44 DUP2 ADD DUP4 SWAP1 MSTORE PUSH1 0x1 PUSH1 0x1 PUSH1 0xA0 SHL SUB DUP5 AND SWAP1 PUSH4 0x42842E0E SWAP1 PUSH1 0x64 ADD PUSH1 0x0 PUSH1 0x40 MLOAD DUP1 DUP4 SUB DUP2 PUSH1 0x0 DUP8 DUP1 EXTCODESIZE ISZERO DUP1 ISZERO PUSH2 0xA31 JUMPI PUSH1 0x0 DUP1 REVERT JUMPDEST POP GAS CALL ISZERO DUP1 ISZERO PUSH2 0x61E JUMPI RETURNDATASIZE PUSH1 0x0 DUP1 RETURNDATACOPY RETURNDATASIZE PUSH1 0x0 REVERT JUMPDEST PUSH1 0x40 MLOAD PUSH4 0xA9059CBB PUSH1 0xE0 SHL DUP2 MSTORE PUSH1 0x1 PUSH1 0x1 PUSH1 0xA0 SHL SUB DUP5 DUP2 AND PUSH1 0x4 DUP4 ADD MSTORE PUSH1 0x24 DUP3 ADD DUP4 SWAP1 MSTORE DUP4 AND SWAP1 PUSH4 0xA9059CBB SWAP1 PUSH1 0x44 ADD PUSH1 0x20 PUSH1 0x40 MLOAD DUP1 DUP4 SUB DUP2 PUSH1 0x0 DUP8 GAS CALL ISZERO DUP1 ISZERO PUSH2 0xA94 JUMPI RETURNDATASIZE PUSH1 0x0 DUP1 RETURNDATACOPY RETURNDATASIZE PUSH1 0x0 REVERT JUMPDEST POP POP POP POP PUSH1 0x40 MLOAD RETURNDATASIZE PUSH1 0x1F NOT PUSH1 0x1F DUP3 ADD AND DUP3 ADD DUP1 PUSH1 0x40 MSTORE POP DUP2 ADD SWAP1 PUSH2 0xAB8 SWAP2 SWAP1 PUSH2 0x13D5 JUMP JUMPDEST POP POP POP POP JUMP JUMPDEST PUSH1 0x0 PUSH2 0xACD PUSH1 0x4 DUP3 DUP5 DUP7 PUSH2 0x13F2 JUMP JUMPDEST PUSH2 0xAD6 SWAP2 PUSH2 0x141C JUMP JUMPDEST SWAP1 POP JUMPDEST SWAP3 SWAP2 POP POP JUMP JUMPDEST PUSH2 0xAE7 PUSH2 0x801 JUMP JUMPDEST PUSH1 0x1 PUSH1 0x1 PUSH1 0xA0 SHL SUB AND CALLER PUSH1 0x1 PUSH1 0x1 PUSH1 0xA0 SHL SUB AND EQ PUSH2 0xB18 JUMPI PUSH1 0x40 MLOAD PUSH4 0xEA8E4EB5 PUSH1 0xE0 SHL DUP2 MSTORE PUSH1 0x4 ADD PUSH1 0x40 MLOAD DUP1 SWAP2 SUB SWAP1 REVERT JUMPDEST PUSH1 0x0 SLOAD TIMESTAMP LT ISZERO PUSH2 0xB3B JUMPI PUSH1 0x40 MLOAD PUSH4 0x6315BFBB PUSH1 0xE0 SHL DUP2 MSTORE PUSH1 0x4 ADD PUSH1 0x40 MLOAD DUP1 SWAP2 SUB SWAP1 REVERT JUMPDEST PUSH2 0xB49 TIMESTAMP PUSH4 0x1E13380 PUSH2 0x144C JUMP JUMPDEST DUP2 GT ISZERO PUSH2 0xB69 JUMPI PUSH1 0x40 MLOAD PUSH4 0x1814F7D PUSH1 0xE3 SHL DUP2 MSTORE PUSH1 0x4 ADD PUSH1 0x40 MLOAD DUP1 SWAP2 SUB SWAP1 REVERT JUMPDEST PUSH1 0x0 DUP2 SWAP1 SSTORE PUSH1 0x40 MLOAD DUP2 DUP2 MSTORE PUSH32 0xA7B24C66DD3269A292A60B3FACDBB8F3E7557D1E19E64D99E0D6EE7250BE63AD SWAP1 PUSH1 0x20 ADD PUSH1 0x40 MLOAD DUP1 SWAP2 SUB SWAP1 LOG1 POP JUMP JUMPDEST PUSH1 0x0 DUP1 PUSH1 0x0 PUSH2 0xBB1 PUSH2 0xBBC JUMP JUMPDEST SWAP3 POP SWAP3 POP SWAP3 POP SWAP1 SWAP2 SWAP3 JUMP JUMPDEST PUSH1 0x40 DUP1 MLOAD PUSH1 0x60 DUP1 DUP3 MSTORE PUSH1 0x80 DUP3 ADD SWAP1 SWAP3 MSTORE PUSH1 0x0 SWAP2 DUP3 SWAP2 DUP3 SWAP2 DUP3 SWAP2 SWAP1 PUSH1 0x20 DUP3 ADD DUP2 DUP1 CALLDATASIZE DUP4 CALLDATACOPY ADD SWAP1 POP POP SWAP1 POP PUSH1 0xAD PUSH1 0x4D PUSH1 0x20 DUP4 ADD ADDRESS EXTCODECOPY DUP1 DUP1 PUSH1 0x20 ADD SWAP1 MLOAD DUP2 ADD SWAP1 PUSH2 0xC03 SWAP2 SWAP1 PUSH2 0x145F JUMP JUMPDEST SWAP4 POP SWAP4 POP SWAP4 POP POP SWAP1 SWAP2 SWAP3 JUMP JUMPDEST PUSH1 0x0 DUP1 PUSH2 0xC1C DUP5 DUP5 PUSH2 0xABE JUMP JUMPDEST SWAP1 POP PUSH1 0x1 PUSH1 0x1 PUSH1 0xE0 SHL SUB NOT DUP2 AND PUSH4 0x95EA7B3 PUSH1 0xE0 SHL SUB PUSH2 0xC40 JUMPI PUSH1 0x0 SWAP2 POP POP PUSH2 0xAD9 JUMP JUMPDEST POP PUSH1 0x1 SWAP4 SWAP3 POP POP POP JUMP JUMPDEST PUSH1 0x60 PUSH1 0x0 DUP6 PUSH1 0x1 PUSH1 0x1 PUSH1 0xA0 SHL SUB AND DUP6 DUP6 DUP6 PUSH1 0x40 MLOAD PUSH2 0xC69 SWAP3 SWAP2 SWAP1 PUSH2 0x1498 JUMP JUMPDEST PUSH1 0x0 PUSH1 0x40 MLOAD DUP1 DUP4 SUB DUP2 DUP6 DUP8 GAS CALL SWAP3 POP POP POP RETURNDATASIZE DUP1 PUSH1 0x0 DUP2 EQ PUSH2 0xCA6 JUMPI PUSH1 0x40 MLOAD SWAP2 POP PUSH1 0x1F NOT PUSH1 0x3F RETURNDATASIZE ADD AND DUP3 ADD PUSH1 0x40 MSTORE RETURNDATASIZE DUP3 MSTORE RETURNDATASIZE PUSH1 0x0 PUSH1 0x20 DUP5 ADD RETURNDATACOPY PUSH2 0xCAB JUMP JUMPDEST PUSH1 0x60 SWAP2 POP JUMPDEST POP SWAP3 POP SWAP1 POP DUP1 PUSH2 0xCBD JUMPI DUP2 MLOAD PUSH1 0x20 DUP4 ADD REVERT JUMPDEST POP SWAP5 SWAP4 POP POP POP POP JUMP JUMPDEST PUSH1 0x0 PUSH1 0x20 DUP3 DUP5 SUB SLT ISZERO PUSH2 0xCD8 JUMPI PUSH1 0x0 DUP1 REVERT JUMPDEST DUP2 CALLDATALOAD PUSH1 0x1 PUSH1 0x1 PUSH1 0xE0 SHL SUB NOT DUP2 AND DUP2 EQ PUSH2 0x78C JUMPI PUSH1 0x0 DUP1 REVERT JUMPDEST PUSH1 0x0 DUP1 DUP4 PUSH1 0x1F DUP5 ADD SLT PUSH2 0xD02 JUMPI PUSH1 0x0 DUP1 REVERT JUMPDEST POP DUP2 CALLDATALOAD PUSH8 0xFFFFFFFFFFFFFFFF DUP2 GT ISZERO PUSH2 0xD1A JUMPI PUSH1 0x0 DUP1 REVERT JUMPDEST PUSH1 0x20 DUP4 ADD SWAP2 POP DUP4 PUSH1 0x20 DUP3 PUSH1 0x5 SHL DUP6 ADD ADD GT ISZERO PUSH2 0xD35 JUMPI PUSH1 0x0 DUP1 REVERT JUMPDEST SWAP3 POP SWAP3 SWAP1 POP JUMP JUMPDEST PUSH1 0x0 DUP1 PUSH1 0x0 DUP1 PUSH1 0x40 DUP6 DUP8 SUB SLT ISZERO PUSH2 0xD52 JUMPI PUSH1 0x0 DUP1 REVERT JUMPDEST DUP5 CALLDATALOAD PUSH8 0xFFFFFFFFFFFFFFFF DUP1 DUP3 GT ISZERO PUSH2 0xD6A JUMPI PUSH1 0x0 DUP1 REVERT JUMPDEST PUSH2 0xD76 DUP9 DUP4 DUP10 ADD PUSH2 0xCF0 JUMP JUMPDEST SWAP1 SWAP7 POP SWAP5 POP PUSH1 0x20 DUP8 ADD CALLDATALOAD SWAP2 POP DUP1 DUP3 GT ISZERO PUSH2 0xD8F JUMPI PUSH1 0x0 DUP1 REVERT JUMPDEST POP PUSH2 0xD9C DUP8 DUP3 DUP9 ADD PUSH2 0xCF0 JUMP JUMPDEST SWAP6 SWAP9 SWAP5 SWAP8 POP SWAP6 POP POP POP POP JUMP JUMPDEST PUSH1 0x1 PUSH1 0x1 PUSH1 0xA0 SHL SUB DUP2 AND DUP2 EQ PUSH2 0xDBD JUMPI PUSH1 0x0 DUP1 REVERT JUMPDEST POP JUMP JUMPDEST PUSH4 0x4E487B71 PUSH1 0xE0 SHL PUSH1 0x0 MSTORE PUSH1 0x41 PUSH1 0x4 MSTORE PUSH1 0x24 PUSH1 0x0 REVERT JUMPDEST PUSH1 0x40 MLOAD PUSH1 0x1F DUP3 ADD PUSH1 0x1F NOT AND DUP2 ADD PUSH8 0xFFFFFFFFFFFFFFFF DUP2 GT DUP3 DUP3 LT OR ISZERO PUSH2 0xDFF JUMPI PUSH2 0xDFF PUSH2 0xDC0 JUMP JUMPDEST PUSH1 0x40 MSTORE SWAP2 SWAP1 POP JUMP JUMPDEST PUSH1 0x0 DUP3 PUSH1 0x1F DUP4 ADD SLT PUSH2 0xE18 JUMPI PUSH1 0x0 DUP1 REVERT JUMPDEST DUP2 CALLDATALOAD PUSH8 0xFFFFFFFFFFFFFFFF DUP2 GT ISZERO PUSH2 0xE32 JUMPI PUSH2 0xE32 PUSH2 0xDC0 JUMP JUMPDEST PUSH2 0xE45 PUSH1 0x1F DUP3 ADD PUSH1 0x1F NOT AND PUSH1 0x20 ADD PUSH2 0xDD6 JUMP JUMPDEST DUP2 DUP2 MSTORE DUP5 PUSH1 0x20 DUP4 DUP7 ADD ADD GT ISZERO PUSH2 0xE5A JUMPI PUSH1 0x0 DUP1 REVERT JUMPDEST DUP2 PUSH1 0x20 DUP6 ADD PUSH1 0x20 DUP4 ADD CALLDATACOPY PUSH1 0x0 SWAP2 DUP2 ADD PUSH1 0x20 ADD SWAP2 SWAP1 SWAP2 MSTORE SWAP4 SWAP3 POP POP POP JUMP JUMPDEST PUSH1 0x0 DUP1 PUSH1 0x0 DUP1 PUSH1 0x80 DUP6 DUP8 SUB SLT ISZERO PUSH2 0xE8D JUMPI PUSH1 0x0 DUP1 REVERT JUMPDEST DUP5 CALLDATALOAD PUSH2 0xE98 DUP2 PUSH2 0xDA8 JUMP JUMPDEST SWAP4 POP PUSH1 0x20 DUP6 ADD CALLDATALOAD PUSH2 0xEA8 DUP2 PUSH2 0xDA8 JUMP JUMPDEST SWAP3 POP PUSH1 0x40 DUP6 ADD CALLDATALOAD SWAP2 POP PUSH1 0x60 DUP6 ADD CALLDATALOAD PUSH8 0xFFFFFFFFFFFFFFFF DUP2 GT ISZERO PUSH2 0xECB JUMPI PUSH1 0x0 DUP1 REVERT JUMPDEST PUSH2 0xED7 DUP8 DUP3 DUP9 ADD PUSH2 0xE07 JUMP JUMPDEST SWAP2 POP POP SWAP3 SWAP6 SWAP2 SWAP5 POP SWAP3 POP JUMP JUMPDEST PUSH1 0x0 DUP1 PUSH1 0x40 DUP4 DUP6 SUB SLT ISZERO PUSH2 0xEF6 JUMPI PUSH1 0x0 DUP1 REVERT JUMPDEST DUP3 CALLDATALOAD PUSH2 0xF01 DUP2 PUSH2 0xDA8 JUMP JUMPDEST SWAP2 POP PUSH1 0x20 DUP4 ADD CALLDATALOAD PUSH2 0xF11 DUP2 PUSH2 0xDA8 JUMP JUMPDEST DUP1 SWAP2 POP POP SWAP3 POP SWAP3 SWAP1 POP JUMP JUMPDEST PUSH1 0x0 DUP1 DUP4 PUSH1 0x1F DUP5 ADD SLT PUSH2 0xF2E JUMPI PUSH1 0x0 DUP1 REVERT JUMPDEST POP DUP2 CALLDATALOAD PUSH8 0xFFFFFFFFFFFFFFFF DUP2 GT ISZERO PUSH2 0xF46 JUMPI PUSH1 0x0 DUP1 REVERT JUMPDEST PUSH1 0x20 DUP4 ADD SWAP2 POP DUP4 PUSH1 0x20 DUP3 DUP6 ADD ADD GT ISZERO PUSH2 0xD35 JUMPI PUSH1 0x0 DUP1 REVERT JUMPDEST PUSH1 0x0 DUP1 PUSH1 0x0 PUSH1 0x40 DUP5 DUP7 SUB SLT ISZERO PUSH2 0xF73 JUMPI PUSH1 0x0 DUP1 REVERT JUMPDEST DUP4 CALLDATALOAD PUSH2 0xF7E DUP2 PUSH2 0xDA8 JUMP JUMPDEST SWAP3 POP PUSH1 0x20 DUP5 ADD CALLDATALOAD PUSH8 0xFFFFFFFFFFFFFFFF DUP2 GT ISZERO PUSH2 0xF9A JUMPI PUSH1 0x0 DUP1 REVERT JUMPDEST PUSH2 0xFA6 DUP7 DUP3 DUP8 ADD PUSH2 0xF1C JUMP JUMPDEST SWAP5 SWAP8 SWAP1 SWAP7 POP SWAP4 SWAP5 POP POP POP POP JUMP JUMPDEST PUSH1 0x0 DUP1 PUSH1 0x0 DUP1 PUSH1 0x80 DUP6 DUP8 SUB SLT ISZERO PUSH2 0xFC9 JUMPI PUSH1 0x0 DUP1 REVERT JUMPDEST DUP5 CALLDATALOAD PUSH2 0xFD4 DUP2 PUSH2 0xDA8 JUMP JUMPDEST SWAP4 POP PUSH1 0x20 DUP6 ADD CALLDATALOAD PUSH2 0xFE4 DUP2 PUSH2 0xDA8 JUMP JUMPDEST SWAP4 SWAP7 SWAP4 SWAP6 POP POP POP POP PUSH1 0x40 DUP3 ADD CALLDATALOAD SWAP2 PUSH1 0x60 ADD CALLDATALOAD SWAP1 JUMP JUMPDEST PUSH1 0x0 DUP1 PUSH1 0x0 DUP1 PUSH1 0x60 DUP6 DUP8 SUB SLT ISZERO PUSH2 0x100F JUMPI PUSH1 0x0 DUP1 REVERT JUMPDEST DUP5 CALLDATALOAD PUSH2 0x101A DUP2 PUSH2 0xDA8 JUMP JUMPDEST SWAP4 POP PUSH1 0x20 DUP6 ADD CALLDATALOAD SWAP3 POP PUSH1 0x40 DUP6 ADD CALLDATALOAD PUSH8 0xFFFFFFFFFFFFFFFF DUP2 GT ISZERO PUSH2 0x103D JUMPI PUSH1 0x0 DUP1 REVERT JUMPDEST PUSH2 0xD9C DUP8 DUP3 DUP9 ADD PUSH2 0xF1C JUMP JUMPDEST PUSH1 0x0 PUSH1 0x20 DUP1 DUP4 MSTORE DUP4 MLOAD DUP1 DUP3 DUP6 ADD MSTORE PUSH1 0x0 JUMPDEST DUP2 DUP2 LT ISZERO PUSH2 0x1076 JUMPI DUP6 DUP2 ADD DUP4 ADD MLOAD DUP6 DUP3 ADD PUSH1 0x40 ADD MSTORE DUP3 ADD PUSH2 0x105A JUMP JUMPDEST POP PUSH1 0x0 PUSH1 0x40 DUP3 DUP7 ADD ADD MSTORE PUSH1 0x40 PUSH1 0x1F NOT PUSH1 0x1F DUP4 ADD AND DUP6 ADD ADD SWAP3 POP POP POP SWAP3 SWAP2 POP POP JUMP JUMPDEST PUSH1 0x0 DUP1 PUSH1 0x40 DUP4 DUP6 SUB SLT ISZERO PUSH2 0x10AA JUMPI PUSH1 0x0 DUP1 REVERT JUMPDEST DUP3 CALLDATALOAD PUSH2 0x10B5 DUP2 PUSH2 0xDA8 JUMP JUMPDEST SWAP5 PUSH1 0x20 SWAP4 SWAP1 SWAP4 ADD CALLDATALOAD SWAP4 POP POP POP JUMP JUMPDEST PUSH1 0x0 DUP1 PUSH1 0x0 PUSH1 0x60 DUP5 DUP7 SUB SLT ISZERO PUSH2 0x10D8 JUMPI PUSH1 0x0 DUP1 REVERT JUMPDEST DUP4 CALLDATALOAD PUSH2 0x10E3 DUP2 PUSH2 0xDA8 JUMP JUMPDEST SWAP6 PUSH1 0x20 DUP6 ADD CALLDATALOAD SWAP6 POP PUSH1 0x40 SWAP1 SWAP5 ADD CALLDATALOAD SWAP4 SWAP3 POP POP POP JUMP JUMPDEST PUSH1 0x0 DUP3 PUSH1 0x1F DUP4 ADD SLT PUSH2 0x1109 JUMPI PUSH1 0x0 DUP1 REVERT JUMPDEST DUP2 CALLDATALOAD PUSH1 0x20 PUSH8 0xFFFFFFFFFFFFFFFF DUP3 GT ISZERO PUSH2 0x1125 JUMPI PUSH2 0x1125 PUSH2 0xDC0 JUMP JUMPDEST DUP2 PUSH1 0x5 SHL PUSH2 0x1134 DUP3 DUP3 ADD PUSH2 0xDD6 JUMP JUMPDEST SWAP3 DUP4 MSTORE DUP5 DUP2 ADD DUP3 ADD SWAP3 DUP3 DUP2 ADD SWAP1 DUP8 DUP6 GT ISZERO PUSH2 0x114E JUMPI PUSH1 0x0 DUP1 REVERT JUMPDEST DUP4 DUP8 ADD SWAP3 POP JUMPDEST DUP5 DUP4 LT ISZERO PUSH2 0x116D JUMPI DUP3 CALLDATALOAD DUP3 MSTORE SWAP2 DUP4 ADD SWAP2 SWAP1 DUP4 ADD SWAP1 PUSH2 0x1154 JUMP JUMPDEST SWAP8 SWAP7 POP POP POP POP POP POP POP JUMP JUMPDEST PUSH1 0x0 DUP1 PUSH1 0x0 DUP1 PUSH1 0x0 PUSH1 0xA0 DUP7 DUP9 SUB SLT ISZERO PUSH2 0x1190 JUMPI PUSH1 0x0 DUP1 REVERT JUMPDEST DUP6 CALLDATALOAD PUSH2 0x119B DUP2 PUSH2 0xDA8 JUMP JUMPDEST SWAP5 POP PUSH1 0x20 DUP7 ADD CALLDATALOAD PUSH2 0x11AB DUP2 PUSH2 0xDA8 JUMP JUMPDEST SWAP4 POP PUSH1 0x40 DUP7 ADD CALLDATALOAD PUSH8 0xFFFFFFFFFFFFFFFF DUP1 DUP3 GT ISZERO PUSH2 0x11C8 JUMPI PUSH1 0x0 DUP1 REVERT JUMPDEST PUSH2 0x11D4 DUP10 DUP4 DUP11 ADD PUSH2 0x10F8 JUMP JUMPDEST SWAP5 POP PUSH1 0x60 DUP9 ADD CALLDATALOAD SWAP2 POP DUP1 DUP3 GT ISZERO PUSH2 0x11EA JUMPI PUSH1 0x0 DUP1 REVERT JUMPDEST PUSH2 0x11F6 DUP10 DUP4 DUP11 ADD PUSH2 0x10F8 JUMP JUMPDEST SWAP4 POP PUSH1 0x80 DUP9 ADD CALLDATALOAD SWAP2 POP DUP1 DUP3 GT ISZERO PUSH2 0x120C JUMPI PUSH1 0x0 DUP1 REVERT JUMPDEST POP PUSH2 0x1219 DUP9 DUP3 DUP10 ADD PUSH2 0xE07 JUMP JUMPDEST SWAP2 POP POP SWAP3 SWAP6 POP SWAP3 SWAP6 SWAP1 SWAP4 POP JUMP JUMPDEST PUSH1 0x0 DUP1 PUSH1 0x0 PUSH1 0x60 DUP5 DUP7 SUB SLT ISZERO PUSH2 0x123B JUMPI PUSH1 0x0 DUP1 REVERT JUMPDEST DUP4 CALLDATALOAD PUSH2 0x1246 DUP2 PUSH2 0xDA8 JUMP JUMPDEST SWAP3 POP PUSH1 0x20 DUP5 ADD CALLDATALOAD PUSH2 0x1256 DUP2 PUSH2 0xDA8 JUMP JUMPDEST SWAP3 SWAP6 SWAP3 SWAP5 POP POP POP PUSH1 0x40 SWAP2 SWAP1 SWAP2 ADD CALLDATALOAD SWAP1 JUMP JUMPDEST PUSH1 0x0 DUP1 PUSH1 0x20 DUP4 DUP6 SUB SLT ISZERO PUSH2 0x127A JUMPI PUSH1 0x0 DUP1 REVERT JUMPDEST DUP3 CALLDATALOAD PUSH8 0xFFFFFFFFFFFFFFFF DUP2 GT ISZERO PUSH2 0x1291 JUMPI PUSH1 0x0 DUP1 REVERT JUMPDEST PUSH2 0x129D DUP6 DUP3 DUP7 ADD PUSH2 0xF1C JUMP JUMPDEST SWAP1 SWAP7 SWAP1 SWAP6 POP SWAP4 POP POP POP POP JUMP JUMPDEST PUSH1 0x0 PUSH1 0x20 DUP3 DUP5 SUB SLT ISZERO PUSH2 0x12BB JUMPI PUSH1 0x0 DUP1 REVERT JUMPDEST POP CALLDATALOAD SWAP2 SWAP1 POP JUMP JUMPDEST PUSH1 0x0 DUP1 PUSH1 0x0 DUP1 PUSH1 0x0 PUSH1 0xA0 DUP7 DUP9 SUB SLT ISZERO PUSH2 0x12DA JUMPI PUSH1 0x0 DUP1 REVERT JUMPDEST DUP6 CALLDATALOAD PUSH2 0x12E5 DUP2 PUSH2 0xDA8 JUMP JUMPDEST SWAP5 POP PUSH1 0x20 DUP7 ADD CALLDATALOAD PUSH2 0x12F5 DUP2 PUSH2 0xDA8 JUMP JUMPDEST SWAP4 POP PUSH1 0x40 DUP7 ADD CALLDATALOAD SWAP3 POP PUSH1 0x60 DUP7 ADD CALLDATALOAD SWAP2 POP PUSH1 0x80 DUP7 ADD CALLDATALOAD PUSH8 0xFFFFFFFFFFFFFFFF DUP2 GT ISZERO PUSH2 0x131F JUMPI PUSH1 0x0 DUP1 REVERT JUMPDEST PUSH2 0x1219 DUP9 DUP3 DUP10 ADD PUSH2 0xE07 JUMP JUMPDEST PUSH4 0x4E487B71 PUSH1 0xE0 SHL PUSH1 0x0 MSTORE PUSH1 0x32 PUSH1 0x4 MSTORE PUSH1 0x24 PUSH1 0x0 REVERT JUMPDEST DUP1 ISZERO ISZERO DUP2 EQ PUSH2 0xDBD JUMPI PUSH1 0x0 DUP1 REVERT JUMPDEST PUSH1 0x0 PUSH1 0x20 DUP3 DUP5 SUB SLT ISZERO PUSH2 0x1361 JUMPI PUSH1 0x0 DUP1 REVERT JUMPDEST DUP2 CALLDATALOAD PUSH2 0x78C DUP2 PUSH2 0x1341 JUMP JUMPDEST PUSH1 0x0 PUSH1 0x20 DUP3 DUP5 SUB SLT ISZERO PUSH2 0x137E JUMPI PUSH1 0x0 DUP1 REVERT JUMPDEST DUP2 CALLDATALOAD PUSH2 0x78C DUP2 PUSH2 0xDA8 JUMP JUMPDEST PUSH4 0x4E487B71 PUSH1 0xE0 SHL PUSH1 0x0 MSTORE PUSH1 0x11 PUSH1 0x4 MSTORE PUSH1 0x24 PUSH1 0x0 REVERT JUMPDEST PUSH1 0x0 PUSH1 0x1 DUP3 ADD PUSH2 0x13B1 JUMPI PUSH2 0x13B1 PUSH2 0x1389 JUMP JUMPDEST POP PUSH1 0x1 ADD SWAP1 JUMP JUMPDEST PUSH1 0x0 PUSH1 0x20 DUP3 DUP5 SUB SLT ISZERO PUSH2 0x13CA JUMPI PUSH1 0x0 DUP1 REVERT JUMPDEST DUP2 MLOAD PUSH2 0x78C DUP2 PUSH2 0xDA8 JUMP JUMPDEST PUSH1 0x0 PUSH1 0x20 DUP3 DUP5 SUB SLT ISZERO PUSH2 0x13E7 JUMPI PUSH1 0x0 DUP1 REVERT JUMPDEST DUP2 MLOAD PUSH2 0x78C DUP2 PUSH2 0x1341 JUMP JUMPDEST PUSH1 0x0 DUP1 DUP6 DUP6 GT ISZERO PUSH2 0x1402 JUMPI PUSH1 0x0 DUP1 REVERT JUMPDEST DUP4 DUP7 GT ISZERO PUSH2 0x140F JUMPI PUSH1 0x0 DUP1 REVERT JUMPDEST POP POP DUP3 ADD SWAP4 SWAP2 SWAP1 SWAP3 SUB SWAP2 POP JUMP JUMPDEST PUSH1 0x1 PUSH1 0x1 PUSH1 0xE0 SHL SUB NOT DUP2 CALLDATALOAD DUP2 DUP2 AND SWAP2 PUSH1 0x4 DUP6 LT ISZERO PUSH2 0x1444 JUMPI DUP1 DUP2 DUP7 PUSH1 0x4 SUB PUSH1 0x3 SHL SHL DUP4 AND AND SWAP3 POP JUMPDEST POP POP SWAP3 SWAP2 POP POP JUMP JUMPDEST DUP1 DUP3 ADD DUP1 DUP3 GT ISZERO PUSH2 0xAD9 JUMPI PUSH2 0xAD9 PUSH2 0x1389 JUMP JUMPDEST PUSH1 0x0 DUP1 PUSH1 0x0 PUSH1 0x60 DUP5 DUP7 SUB SLT ISZERO PUSH2 0x1474 JUMPI PUSH1 0x0 DUP1 REVERT JUMPDEST DUP4 MLOAD SWAP3 POP PUSH1 0x20 DUP5 ADD MLOAD PUSH2 0x1486 DUP2 PUSH2 0xDA8 JUMP JUMPDEST DUP1 SWAP3 POP POP PUSH1 0x40 DUP5 ADD MLOAD SWAP1 POP SWAP3 POP SWAP3 POP SWAP3 JUMP JUMPDEST DUP2 DUP4 DUP3 CALLDATACOPY PUSH1 0x0 SWAP2 ADD SWAP1 DUP2 MSTORE SWAP2 SWAP1 POP JUMP INVALID LOG2 PUSH5 0x6970667358 0x22 SLT KECCAK256 0x2B 0xFB 0xF8 0xF INVALID ISZERO 0xD1 0xDF DUP9 CREATE2 0xD1 PUSH20 0xE03C2C577716222924FA8199D75029F601D910F9 PUSH5 0x736F6C6343 STOP ADDMOD GT STOP CALLER "},"gasEstimates":{"creation":{"codeDepositCost":"1068400","executionCost":"1107","totalCost":"1069507"},"external":{"breakCovalentBond(address,address,uint256,uint256)":"infinite","covalentBond(address,uint256,uint256)":"infinite","dischargeParticle(address,address,uint256)":"infinite","energizeParticle(address,uint256)":"infinite","executeCall(address,uint256,bytes)":"infinite","isLocked()":"2403","isValidSigner(address,bytes)":"infinite","lock(uint256)":"infinite","lockedUntil()":"2317","onERC1155BatchReceived(address,address,uint256[],uint256[],bytes)":"infinite","onERC1155Received(address,address,uint256,uint256,bytes)":"infinite","onERC721Received(address,address,uint256,bytes)":"infinite","owner()":"infinite","parseFirst4Bytes(bytes)":"809","permissions(address,address)":"infinite","setPermissions(address[],bool[])":"infinite","state()":"270","supportsInterface(bytes4)":"538","token()":"infinite"}},"methodIdentifiers":{"breakCovalentBond(address,address,uint256,uint256)":"6b764e1b","covalentBond(address,uint256,uint256)":"a737a299","dischargeParticle(address,address,uint256)":"ca1cc220","energizeParticle(address,uint256)":"a65e78f1","executeCall(address,uint256,bytes)":"9e5d4c49","isLocked()":"a4e2d634","isValidSigner(address,bytes)":"523e3260","lock(uint256)":"dd467064","lockedUntil()":"ce0617ec","onERC1155BatchReceived(address,address,uint256[],uint256[],bytes)":"bc197c81","onERC1155Received(address,address,uint256,uint256,bytes)":"f23a6e61","onERC721Received(address,address,uint256,bytes)":"150b7a02","owner()":"8da5cb5b","parseFirst4Bytes(bytes)":"d0ad2535","permissions(address,address)":"1f9838b5","setPermissions(address[],bool[])":"039721b1","state()":"c19d93fb","supportsInterface(bytes4)":"01ffc9a7","token()":"fc0c546a"}},"storageLayout":{"storage":[{"astId":311,"contract":"contracts/ChargedParticlesAccount.sol:ChargedParticlesAccount","label":"lockedUntil","offset":0,"slot":"0","type":"t_uint256"},{"astId":318,"contract":"contracts/ChargedParticlesAccount.sol:ChargedParticlesAccount","label":"permissions","offset":0,"slot":"1","type":"t_mapping(t_address,t_mapping(t_address,t_bool))"}],"types":{"t_address":{"encoding":"inplace","label":"address","numberOfBytes":"20"},"t_bool":{"encoding":"inplace","label":"bool","numberOfBytes":"1"},"t_mapping(t_address,t_bool)":{"encoding":"mapping","key":"t_address","label":"mapping(address => bool)","numberOfBytes":"32","value":"t_bool"},"t_mapping(t_address,t_mapping(t_address,t_bool))":{"encoding":"mapping","key":"t_address","label":"mapping(address => mapping(address => bool))","numberOfBytes":"32","value":"t_mapping(t_address,t_bool)"},"t_uint256":{"encoding":"inplace","label":"uint256","numberOfBytes":"32"}}},"userdoc":{"kind":"user","methods":{},"version":1}}}}