{"contracts/Account.sol":{"Account":{"abi":[{"inputs":[],"stateMutability":"nonpayable","type":"constructor"},{"inputs":[],"name":"AccountLocked","type":"error"},{"inputs":[],"name":"ExceedsMaxLockTime","type":"error"},{"inputs":[],"name":"InvalidInput","type":"error"},{"inputs":[],"name":"NotAuthorized","type":"error"},{"inputs":[],"name":"OwnershipCycle","type":"error"},{"anonymous":false,"inputs":[{"indexed":false,"internalType":"uint256","name":"lockedUntil","type":"uint256"}],"name":"LockUpdated","type":"event"},{"anonymous":false,"inputs":[{"indexed":false,"internalType":"address","name":"owner","type":"address"},{"indexed":false,"internalType":"bytes4","name":"selector","type":"bytes4"},{"indexed":false,"internalType":"address","name":"implementation","type":"address"}],"name":"OverrideUpdated","type":"event"},{"anonymous":false,"inputs":[{"indexed":false,"internalType":"address","name":"owner","type":"address"},{"indexed":false,"internalType":"address","name":"caller","type":"address"},{"indexed":false,"internalType":"bool","name":"hasPermission","type":"bool"}],"name":"PermissionUpdated","type":"event"},{"inputs":[{"internalType":"address","name":"to","type":"address"},{"internalType":"uint256","name":"value","type":"uint256"},{"internalType":"bytes","name":"data","type":"bytes"}],"name":"executeCall","outputs":[{"internalType":"bytes","name":"","type":"bytes"}],"stateMutability":"payable","type":"function"},{"inputs":[{"internalType":"address","name":"caller","type":"address"}],"name":"isAuthorized","outputs":[{"internalType":"bool","name":"","type":"bool"}],"stateMutability":"view","type":"function"},{"inputs":[],"name":"isLocked","outputs":[{"internalType":"bool","name":"","type":"bool"}],"stateMutability":"view","type":"function"},{"inputs":[{"internalType":"uint256","name":"_lockedUntil","type":"uint256"}],"name":"lock","outputs":[],"stateMutability":"nonpayable","type":"function"},{"inputs":[],"name":"lockedUntil","outputs":[{"internalType":"uint256","name":"","type":"uint256"}],"stateMutability":"view","type":"function"},{"inputs":[{"internalType":"address","name":"","type":"address"},{"internalType":"address","name":"","type":"address"},{"internalType":"uint256[]","name":"","type":"uint256[]"},{"internalType":"uint256[]","name":"","type":"uint256[]"},{"internalType":"bytes","name":"","type":"bytes"}],"name":"onERC1155BatchReceived","outputs":[{"internalType":"bytes4","name":"","type":"bytes4"}],"stateMutability":"pure","type":"function"},{"inputs":[{"internalType":"address","name":"","type":"address"},{"internalType":"address","name":"","type":"address"},{"internalType":"uint256","name":"","type":"uint256"},{"internalType":"uint256","name":"","type":"uint256"},{"internalType":"bytes","name":"","type":"bytes"}],"name":"onERC1155Received","outputs":[{"internalType":"bytes4","name":"","type":"bytes4"}],"stateMutability":"pure","type":"function"},{"inputs":[{"internalType":"address","name":"","type":"address"},{"internalType":"address","name":"","type":"address"},{"internalType":"uint256","name":"receivedTokenId","type":"uint256"},{"internalType":"bytes","name":"","type":"bytes"}],"name":"onERC721Received","outputs":[{"internalType":"bytes4","name":"","type":"bytes4"}],"stateMutability":"view","type":"function"},{"inputs":[],"name":"owner","outputs":[{"internalType":"address","name":"","type":"address"}],"stateMutability":"view","type":"function"},{"inputs":[{"internalType":"bytes","name":"_data","type":"bytes"}],"name":"parseFirst4Bytes","outputs":[{"internalType":"bytes4","name":"","type":"bytes4"}],"stateMutability":"pure","type":"function"},{"inputs":[{"internalType":"address","name":"","type":"address"},{"internalType":"address","name":"","type":"address"}],"name":"permissions","outputs":[{"internalType":"bool","name":"","type":"bool"}],"stateMutability":"view","type":"function"},{"inputs":[{"internalType":"address[]","name":"callers","type":"address[]"},{"internalType":"bool[]","name":"_permissions","type":"bool[]"}],"name":"setPermissions","outputs":[],"stateMutability":"nonpayable","type":"function"},{"inputs":[{"internalType":"bytes4","name":"interfaceId","type":"bytes4"}],"name":"supportsInterface","outputs":[{"internalType":"bool","name":"","type":"bool"}],"stateMutability":"pure","type":"function"},{"inputs":[],"name":"token","outputs":[{"internalType":"uint256","name":"chainId","type":"uint256"},{"internalType":"address","name":"tokenContract","type":"address"},{"internalType":"uint256","name":"tokenId","type":"uint256"}],"stateMutability":"view","type":"function"},{"stateMutability":"payable","type":"receive"}],"devdoc":{"kind":"dev","methods":{"executeCall(address,uint256,bytes)":{"details":"executes a low-level call against an account if the caller is authorized to make calls"},"isAuthorized(address)":{"details":"Returns the authorization status for a given caller"},"isLocked()":{"details":"returns the current lock status of the account as a boolean"},"lock(uint256)":{"details":"locks the account until a certain timestamp"},"onERC1155BatchReceived(address,address,uint256[],uint256[],bytes)":{"details":"Allows ERC-1155 token batches to be received. This function can be overriden."},"onERC1155Received(address,address,uint256,uint256,bytes)":{"details":"Allows ERC-1155 tokens to be received. This function can be overriden."},"onERC721Received(address,address,uint256,bytes)":{"details":"Allows ERC-721 tokens to be received so long as they do not cause an ownership cycle. This function can be overriden."},"owner()":{"details":"Returns the owner of the ERC-721 token which owns this account. By default, the owner of the token has full permissions on the account."},"setPermissions(address[],bool[])":{"details":"grants a given caller execution permissions"},"supportsInterface(bytes4)":{"details":"Returns true if a given interfaceId is supported by this account. This method can be extended by an override."},"token()":{"details":"Returns the EIP-155 chain ID, token contract address, and token ID for the token that owns this account."}},"stateVariables":{"lockedUntil":{"details":"timestamp at which this account will be unlocked"},"permissions":{"details":"mapping from owner => caller => has permissions"}},"title":"A smart contract account owned by a single ERC721 token","version":1},"evm":{"bytecode":{"linkReferences":{},"object":"608060405234801561001057600080fd5b506110b7806100206000396000f3fe6080604052600436106100e15760003560e01c8063bc197c811161007f578063dd46706411610059578063dd4670641461028c578063f23a6e61146102ac578063fc0c546a146102d8578063fe9fbb801461031057600080fd5b8063bc197c811461021c578063ce0617ec14610248578063d0ad25351461026c57600080fd5b80631f9838b5116100bb5780631f9838b51461017d5780638da5cb5b146101b85780639e5d4c49146101e5578063a4e2d6341461020557600080fd5b806301ffc9a7146100ed578063039721b114610122578063150b7a021461014457600080fd5b366100e857005b600080fd5b3480156100f957600080fd5b5061010d610108366004610a06565b610330565b60405190151581526020015b60405180910390f35b34801561012e57600080fd5b5061014261013d366004610a83565b610397565b005b34801561015057600080fd5b5061016461015f366004610bbe565b610560565b6040516001600160e01b03199091168152602001610119565b34801561018957600080fd5b5061010d610198366004610c2a565b600160209081526000928352604080842090915290825290205460ff1681565b3480156101c457600080fd5b506101cd6105c8565b6040516001600160a01b039091168152602001610119565b6101f86101f3366004610ca5565b61065e565b6040516101199190610cf5565b34801561021157600080fd5b50600054421061010d565b34801561022857600080fd5b50610164610237366004610db8565b63bc197c8160e01b95945050505050565b34801561025457600080fd5b5061025e60005481565b604051908152602001610119565b34801561027857600080fd5b50610164610287366004610e66565b610715565b34801561029857600080fd5b506101426102a7366004610ea8565b610736565b3480156102b857600080fd5b506101646102c7366004610ec1565b63f23a6e6160e01b95945050505050565b3480156102e457600080fd5b506102ed6107fb565b604080519384526001600160a01b03909216602084015290820152606001610119565b34801561031c57600080fd5b5061010d61032b366004610f2a565b610813565b6000806001600160e01b031983166301ffc9a760e01b148061036257506001600160e01b03198316630271189760e51b145b8061037d57506001600160e01b03198316636faff5f160e01b145b9050801561038e5750600192915050565b50600092915050565b6000544210156103ba57604051636315bfbb60e01b815260040160405180910390fd5b60006103c46105c8565b9050336001600160a01b038216146103ef5760405163ea8e4eb560e01b815260040160405180910390fd5b838281146104105760405163b4fa3fb360e01b815260040160405180910390fd5b60005b818110156105575784848281811061042d5761042d610f47565b90506020020160208101906104429190610f5d565b6001600160a01b03841660009081526001602052604081209089898581811061046d5761046d610f47565b90506020020160208101906104829190610f2a565b6001600160a01b031681526020810191909152604001600020805460ff19169115159190911790557f394777a58092892d136a90c4bb7e4350c72ac50fba6a0208128677f36527dcf5838888848181106104de576104de610f47565b90506020020160208101906104f39190610f2a565b87878581811061050557610505610f47565b905060200201602081019061051a9190610f5d565b604080516001600160a01b03948516815293909216602084015215159082015260600160405180910390a18061054f81610f95565b915050610413565b50505050505050565b60008060008061056e6108fc565b925092509250468314801561058b57506001600160a01b03821633145b801561059657508581145b156105b45760405163b79e3f3f60e01b815260040160405180910390fd5b50630a85bd0160e11b979650505050505050565b6000806000806105d66108fc565b9250925092504683146105ed576000935050505090565b6040516331a9108f60e11b8152600481018290526001600160a01b03831690636352211e90602401602060405180830381865afa158015610632573d6000803e3d6000fd5b505050506040513d601f19601f820116820180604052508101906106569190610fae565b935050505090565b606061066933610813565b6106865760405163ea8e4eb560e01b815260040160405180910390fd5b6000544210156106a957604051636315bfbb60e01b815260040160405180910390fd5b82826106b5828261094f565b6106fe5760405162461bcd60e51b815260206004820152601660248201527513595d1a1bd908185b1b081b9bdd08185b1b1bddd95960521b604482015260640160405180910390fd5b61070a8787878761098a565b979650505050505050565b60006107246004828486610fcb565b61072d91610ff5565b90505b92915050565b61073e6105c8565b6001600160a01b0316336001600160a01b03161461076f5760405163ea8e4eb560e01b815260040160405180910390fd5b60005442101561079257604051636315bfbb60e01b815260040160405180910390fd5b6107a0426301e13380611025565b8111156107c0576040516301814f7d60e31b815260040160405180910390fd5b60008190556040518181527fa7b24c66dd3269a292a60b3facdbb8f3e7557d1e19e64d99e0d6ee7250be63ad9060200160405180910390a150565b60008060006108086108fc565b925092509250909192565b60008060006108206108fc565b6040516331a9108f60e11b8152600481018290529194509250600091506001600160a01b03841690636352211e90602401602060405180830381865afa15801561086e573d6000803e3d6000fd5b505050506040513d601f19601f820116820180604052508101906108929190610fae565b9050806001600160a01b0316856001600160a01b0316036108b857506001949350505050565b6001600160a01b0380821660009081526001602090815260408083209389168352929052205460ff16156108f157506001949350505050565b506000949350505050565b604080516060808252608082019092526000918291829182919060208201818036833701905050905060ad604d60208301303c808060200190518101906109439190611038565b93509350935050909192565b60008061095c8484610715565b90506001600160e01b0319811663095ea7b360e01b03610980576000915050610730565b5060019392505050565b60606000856001600160a01b03168585856040516109a9929190611071565b60006040518083038185875af1925050503d80600081146109e6576040519150601f19603f3d011682016040523d82523d6000602084013e6109eb565b606091505b5092509050806109fd57815160208301fd5b50949350505050565b600060208284031215610a1857600080fd5b81356001600160e01b031981168114610a3057600080fd5b9392505050565b60008083601f840112610a4957600080fd5b50813567ffffffffffffffff811115610a6157600080fd5b6020830191508360208260051b8501011115610a7c57600080fd5b9250929050565b60008060008060408587031215610a9957600080fd5b843567ffffffffffffffff80821115610ab157600080fd5b610abd88838901610a37565b90965094506020870135915080821115610ad657600080fd5b50610ae387828801610a37565b95989497509550505050565b6001600160a01b0381168114610b0457600080fd5b50565b634e487b7160e01b600052604160045260246000fd5b604051601f8201601f1916810167ffffffffffffffff81118282101715610b4657610b46610b07565b604052919050565b600082601f830112610b5f57600080fd5b813567ffffffffffffffff811115610b7957610b79610b07565b610b8c601f8201601f1916602001610b1d565b818152846020838601011115610ba157600080fd5b816020850160208301376000918101602001919091529392505050565b60008060008060808587031215610bd457600080fd5b8435610bdf81610aef565b93506020850135610bef81610aef565b925060408501359150606085013567ffffffffffffffff811115610c1257600080fd5b610c1e87828801610b4e565b91505092959194509250565b60008060408385031215610c3d57600080fd5b8235610c4881610aef565b91506020830135610c5881610aef565b809150509250929050565b60008083601f840112610c7557600080fd5b50813567ffffffffffffffff811115610c8d57600080fd5b602083019150836020828501011115610a7c57600080fd5b60008060008060608587031215610cbb57600080fd5b8435610cc681610aef565b935060208501359250604085013567ffffffffffffffff811115610ce957600080fd5b610ae387828801610c63565b600060208083528351808285015260005b81811015610d2257858101830151858201604001528201610d06565b506000604082860101526040601f19601f8301168501019250505092915050565b600082601f830112610d5457600080fd5b8135602067ffffffffffffffff821115610d7057610d70610b07565b8160051b610d7f828201610b1d565b9283528481018201928281019087851115610d9957600080fd5b83870192505b8483101561070a57823582529183019190830190610d9f565b600080600080600060a08688031215610dd057600080fd5b8535610ddb81610aef565b94506020860135610deb81610aef565b9350604086013567ffffffffffffffff80821115610e0857600080fd5b610e1489838a01610d43565b94506060880135915080821115610e2a57600080fd5b610e3689838a01610d43565b93506080880135915080821115610e4c57600080fd5b50610e5988828901610b4e565b9150509295509295909350565b60008060208385031215610e7957600080fd5b823567ffffffffffffffff811115610e9057600080fd5b610e9c85828601610c63565b90969095509350505050565b600060208284031215610eba57600080fd5b5035919050565b600080600080600060a08688031215610ed957600080fd5b8535610ee481610aef565b94506020860135610ef481610aef565b93506040860135925060608601359150608086013567ffffffffffffffff811115610f1e57600080fd5b610e5988828901610b4e565b600060208284031215610f3c57600080fd5b8135610a3081610aef565b634e487b7160e01b600052603260045260246000fd5b600060208284031215610f6f57600080fd5b81358015158114610a3057600080fd5b634e487b7160e01b600052601160045260246000fd5b600060018201610fa757610fa7610f7f565b5060010190565b600060208284031215610fc057600080fd5b8151610a3081610aef565b60008085851115610fdb57600080fd5b83861115610fe857600080fd5b5050820193919092039150565b6001600160e01b0319813581811691600485101561101d5780818660040360031b1b83161692505b505092915050565b8082018082111561073057610730610f7f565b60008060006060848603121561104d57600080fd5b83519250602084015161105f81610aef565b80925050604084015190509250925092565b818382376000910190815291905056fea26469706673582212205a621346bda8d4c32f449364a89907390a0a682219a5f5f964ca2b49d092cd2364736f6c63430008110033","opcodes":"PUSH1 0x80 PUSH1 0x40 MSTORE CALLVALUE DUP1 ISZERO PUSH2 0x10 JUMPI PUSH1 0x0 DUP1 REVERT JUMPDEST POP PUSH2 0x10B7 DUP1 PUSH2 0x20 PUSH1 0x0 CODECOPY PUSH1 0x0 RETURN INVALID PUSH1 0x80 PUSH1 0x40 MSTORE PUSH1 0x4 CALLDATASIZE LT PUSH2 0xE1 JUMPI PUSH1 0x0 CALLDATALOAD PUSH1 0xE0 SHR DUP1 PUSH4 0xBC197C81 GT PUSH2 0x7F JUMPI DUP1 PUSH4 0xDD467064 GT PUSH2 0x59 JUMPI DUP1 PUSH4 0xDD467064 EQ PUSH2 0x28C JUMPI DUP1 PUSH4 0xF23A6E61 EQ PUSH2 0x2AC JUMPI DUP1 PUSH4 0xFC0C546A EQ PUSH2 0x2D8 JUMPI DUP1 PUSH4 0xFE9FBB80 EQ PUSH2 0x310 JUMPI PUSH1 0x0 DUP1 REVERT JUMPDEST DUP1 PUSH4 0xBC197C81 EQ PUSH2 0x21C JUMPI DUP1 PUSH4 0xCE0617EC EQ PUSH2 0x248 JUMPI DUP1 PUSH4 0xD0AD2535 EQ PUSH2 0x26C JUMPI PUSH1 0x0 DUP1 REVERT JUMPDEST DUP1 PUSH4 0x1F9838B5 GT PUSH2 0xBB JUMPI DUP1 PUSH4 0x1F9838B5 EQ PUSH2 0x17D JUMPI DUP1 PUSH4 0x8DA5CB5B EQ PUSH2 0x1B8 JUMPI DUP1 PUSH4 0x9E5D4C49 EQ PUSH2 0x1E5 JUMPI DUP1 PUSH4 0xA4E2D634 EQ PUSH2 0x205 JUMPI PUSH1 0x0 DUP1 REVERT JUMPDEST DUP1 PUSH4 0x1FFC9A7 EQ PUSH2 0xED JUMPI DUP1 PUSH4 0x39721B1 EQ PUSH2 0x122 JUMPI DUP1 PUSH4 0x150B7A02 EQ PUSH2 0x144 JUMPI PUSH1 0x0 DUP1 REVERT JUMPDEST CALLDATASIZE PUSH2 0xE8 JUMPI STOP JUMPDEST PUSH1 0x0 DUP1 REVERT JUMPDEST CALLVALUE DUP1 ISZERO PUSH2 0xF9 JUMPI PUSH1 0x0 DUP1 REVERT JUMPDEST POP PUSH2 0x10D PUSH2 0x108 CALLDATASIZE PUSH1 0x4 PUSH2 0xA06 JUMP JUMPDEST PUSH2 0x330 JUMP JUMPDEST PUSH1 0x40 MLOAD SWAP1 ISZERO ISZERO DUP2 MSTORE PUSH1 0x20 ADD JUMPDEST PUSH1 0x40 MLOAD DUP1 SWAP2 SUB SWAP1 RETURN JUMPDEST CALLVALUE DUP1 ISZERO PUSH2 0x12E JUMPI PUSH1 0x0 DUP1 REVERT JUMPDEST POP PUSH2 0x142 PUSH2 0x13D CALLDATASIZE PUSH1 0x4 PUSH2 0xA83 JUMP JUMPDEST PUSH2 0x397 JUMP JUMPDEST STOP JUMPDEST CALLVALUE DUP1 ISZERO PUSH2 0x150 JUMPI PUSH1 0x0 DUP1 REVERT JUMPDEST POP PUSH2 0x164 PUSH2 0x15F CALLDATASIZE PUSH1 0x4 PUSH2 0xBBE JUMP JUMPDEST PUSH2 0x560 JUMP JUMPDEST PUSH1 0x40 MLOAD PUSH1 0x1 PUSH1 0x1 PUSH1 0xE0 SHL SUB NOT SWAP1 SWAP2 AND DUP2 MSTORE PUSH1 0x20 ADD PUSH2 0x119 JUMP JUMPDEST CALLVALUE DUP1 ISZERO PUSH2 0x189 JUMPI PUSH1 0x0 DUP1 REVERT JUMPDEST POP PUSH2 0x10D PUSH2 0x198 CALLDATASIZE PUSH1 0x4 PUSH2 0xC2A JUMP JUMPDEST PUSH1 0x1 PUSH1 0x20 SWAP1 DUP2 MSTORE PUSH1 0x0 SWAP3 DUP4 MSTORE PUSH1 0x40 DUP1 DUP5 KECCAK256 SWAP1 SWAP2 MSTORE SWAP1 DUP3 MSTORE SWAP1 KECCAK256 SLOAD PUSH1 0xFF AND DUP2 JUMP JUMPDEST CALLVALUE DUP1 ISZERO PUSH2 0x1C4 JUMPI PUSH1 0x0 DUP1 REVERT JUMPDEST POP PUSH2 0x1CD PUSH2 0x5C8 JUMP JUMPDEST PUSH1 0x40 MLOAD PUSH1 0x1 PUSH1 0x1 PUSH1 0xA0 SHL SUB SWAP1 SWAP2 AND DUP2 MSTORE PUSH1 0x20 ADD PUSH2 0x119 JUMP JUMPDEST PUSH2 0x1F8 PUSH2 0x1F3 CALLDATASIZE PUSH1 0x4 PUSH2 0xCA5 JUMP JUMPDEST PUSH2 0x65E JUMP JUMPDEST PUSH1 0x40 MLOAD PUSH2 0x119 SWAP2 SWAP1 PUSH2 0xCF5 JUMP JUMPDEST CALLVALUE DUP1 ISZERO PUSH2 0x211 JUMPI PUSH1 0x0 DUP1 REVERT JUMPDEST POP PUSH1 0x0 SLOAD TIMESTAMP LT PUSH2 0x10D JUMP JUMPDEST CALLVALUE DUP1 ISZERO PUSH2 0x228 JUMPI PUSH1 0x0 DUP1 REVERT JUMPDEST POP PUSH2 0x164 PUSH2 0x237 CALLDATASIZE PUSH1 0x4 PUSH2 0xDB8 JUMP JUMPDEST PUSH4 0xBC197C81 PUSH1 0xE0 SHL SWAP6 SWAP5 POP POP POP POP POP JUMP JUMPDEST CALLVALUE DUP1 ISZERO PUSH2 0x254 JUMPI PUSH1 0x0 DUP1 REVERT JUMPDEST POP PUSH2 0x25E PUSH1 0x0 SLOAD DUP2 JUMP JUMPDEST PUSH1 0x40 MLOAD SWAP1 DUP2 MSTORE PUSH1 0x20 ADD PUSH2 0x119 JUMP JUMPDEST CALLVALUE DUP1 ISZERO PUSH2 0x278 JUMPI PUSH1 0x0 DUP1 REVERT JUMPDEST POP PUSH2 0x164 PUSH2 0x287 CALLDATASIZE PUSH1 0x4 PUSH2 0xE66 JUMP JUMPDEST PUSH2 0x715 JUMP JUMPDEST CALLVALUE DUP1 ISZERO PUSH2 0x298 JUMPI PUSH1 0x0 DUP1 REVERT JUMPDEST POP PUSH2 0x142 PUSH2 0x2A7 CALLDATASIZE PUSH1 0x4 PUSH2 0xEA8 JUMP JUMPDEST PUSH2 0x736 JUMP JUMPDEST CALLVALUE DUP1 ISZERO PUSH2 0x2B8 JUMPI PUSH1 0x0 DUP1 REVERT JUMPDEST POP PUSH2 0x164 PUSH2 0x2C7 CALLDATASIZE PUSH1 0x4 PUSH2 0xEC1 JUMP JUMPDEST PUSH4 0xF23A6E61 PUSH1 0xE0 SHL SWAP6 SWAP5 POP POP POP POP POP JUMP JUMPDEST CALLVALUE DUP1 ISZERO PUSH2 0x2E4 JUMPI PUSH1 0x0 DUP1 REVERT JUMPDEST POP PUSH2 0x2ED PUSH2 0x7FB JUMP JUMPDEST PUSH1 0x40 DUP1 MLOAD SWAP4 DUP5 MSTORE PUSH1 0x1 PUSH1 0x1 PUSH1 0xA0 SHL SUB SWAP1 SWAP3 AND PUSH1 0x20 DUP5 ADD MSTORE SWAP1 DUP3 ADD MSTORE PUSH1 0x60 ADD PUSH2 0x119 JUMP JUMPDEST CALLVALUE DUP1 ISZERO PUSH2 0x31C JUMPI PUSH1 0x0 DUP1 REVERT JUMPDEST POP PUSH2 0x10D PUSH2 0x32B CALLDATASIZE PUSH1 0x4 PUSH2 0xF2A JUMP JUMPDEST PUSH2 0x813 JUMP JUMPDEST PUSH1 0x0 DUP1 PUSH1 0x1 PUSH1 0x1 PUSH1 0xE0 SHL SUB NOT DUP4 AND PUSH4 0x1FFC9A7 PUSH1 0xE0 SHL EQ DUP1 PUSH2 0x362 JUMPI POP PUSH1 0x1 PUSH1 0x1 PUSH1 0xE0 SHL SUB NOT DUP4 AND PUSH4 0x2711897 PUSH1 0xE5 SHL EQ JUMPDEST DUP1 PUSH2 0x37D JUMPI POP PUSH1 0x1 PUSH1 0x1 PUSH1 0xE0 SHL SUB NOT DUP4 AND PUSH4 0x6FAFF5F1 PUSH1 0xE0 SHL EQ JUMPDEST SWAP1 POP DUP1 ISZERO PUSH2 0x38E JUMPI POP PUSH1 0x1 SWAP3 SWAP2 POP POP JUMP JUMPDEST POP PUSH1 0x0 SWAP3 SWAP2 POP POP JUMP JUMPDEST PUSH1 0x0 SLOAD TIMESTAMP LT ISZERO PUSH2 0x3BA JUMPI PUSH1 0x40 MLOAD PUSH4 0x6315BFBB PUSH1 0xE0 SHL DUP2 MSTORE PUSH1 0x4 ADD PUSH1 0x40 MLOAD DUP1 SWAP2 SUB SWAP1 REVERT JUMPDEST PUSH1 0x0 PUSH2 0x3C4 PUSH2 0x5C8 JUMP JUMPDEST SWAP1 POP CALLER PUSH1 0x1 PUSH1 0x1 PUSH1 0xA0 SHL SUB DUP3 AND EQ PUSH2 0x3EF JUMPI PUSH1 0x40 MLOAD PUSH4 0xEA8E4EB5 PUSH1 0xE0 SHL DUP2 MSTORE PUSH1 0x4 ADD PUSH1 0x40 MLOAD DUP1 SWAP2 SUB SWAP1 REVERT JUMPDEST DUP4 DUP3 DUP2 EQ PUSH2 0x410 JUMPI PUSH1 0x40 MLOAD PUSH4 0xB4FA3FB3 PUSH1 0xE0 SHL DUP2 MSTORE PUSH1 0x4 ADD PUSH1 0x40 MLOAD DUP1 SWAP2 SUB SWAP1 REVERT JUMPDEST PUSH1 0x0 JUMPDEST DUP2 DUP2 LT ISZERO PUSH2 0x557 JUMPI DUP5 DUP5 DUP3 DUP2 DUP2 LT PUSH2 0x42D JUMPI PUSH2 0x42D PUSH2 0xF47 JUMP JUMPDEST SWAP1 POP PUSH1 0x20 MUL ADD PUSH1 0x20 DUP2 ADD SWAP1 PUSH2 0x442 SWAP2 SWAP1 PUSH2 0xF5D JUMP JUMPDEST PUSH1 0x1 PUSH1 0x1 PUSH1 0xA0 SHL SUB DUP5 AND PUSH1 0x0 SWAP1 DUP2 MSTORE PUSH1 0x1 PUSH1 0x20 MSTORE PUSH1 0x40 DUP2 KECCAK256 SWAP1 DUP10 DUP10 DUP6 DUP2 DUP2 LT PUSH2 0x46D JUMPI PUSH2 0x46D PUSH2 0xF47 JUMP JUMPDEST SWAP1 POP PUSH1 0x20 MUL ADD PUSH1 0x20 DUP2 ADD SWAP1 PUSH2 0x482 SWAP2 SWAP1 PUSH2 0xF2A JUMP JUMPDEST PUSH1 0x1 PUSH1 0x1 PUSH1 0xA0 SHL SUB AND DUP2 MSTORE PUSH1 0x20 DUP2 ADD SWAP2 SWAP1 SWAP2 MSTORE PUSH1 0x40 ADD PUSH1 0x0 KECCAK256 DUP1 SLOAD PUSH1 0xFF NOT AND SWAP2 ISZERO ISZERO SWAP2 SWAP1 SWAP2 OR SWAP1 SSTORE PUSH32 0x394777A58092892D136A90C4BB7E4350C72AC50FBA6A0208128677F36527DCF5 DUP4 DUP9 DUP9 DUP5 DUP2 DUP2 LT PUSH2 0x4DE JUMPI PUSH2 0x4DE PUSH2 0xF47 JUMP JUMPDEST SWAP1 POP PUSH1 0x20 MUL ADD PUSH1 0x20 DUP2 ADD SWAP1 PUSH2 0x4F3 SWAP2 SWAP1 PUSH2 0xF2A JUMP JUMPDEST DUP8 DUP8 DUP6 DUP2 DUP2 LT PUSH2 0x505 JUMPI PUSH2 0x505 PUSH2 0xF47 JUMP JUMPDEST SWAP1 POP PUSH1 0x20 MUL ADD PUSH1 0x20 DUP2 ADD SWAP1 PUSH2 0x51A SWAP2 SWAP1 PUSH2 0xF5D JUMP JUMPDEST PUSH1 0x40 DUP1 MLOAD PUSH1 0x1 PUSH1 0x1 PUSH1 0xA0 SHL SUB SWAP5 DUP6 AND DUP2 MSTORE SWAP4 SWAP1 SWAP3 AND PUSH1 0x20 DUP5 ADD MSTORE ISZERO ISZERO SWAP1 DUP3 ADD MSTORE PUSH1 0x60 ADD PUSH1 0x40 MLOAD DUP1 SWAP2 SUB SWAP1 LOG1 DUP1 PUSH2 0x54F DUP2 PUSH2 0xF95 JUMP JUMPDEST SWAP2 POP POP PUSH2 0x413 JUMP JUMPDEST POP POP POP POP POP POP POP JUMP JUMPDEST PUSH1 0x0 DUP1 PUSH1 0x0 DUP1 PUSH2 0x56E PUSH2 0x8FC JUMP JUMPDEST SWAP3 POP SWAP3 POP SWAP3 POP CHAINID DUP4 EQ DUP1 ISZERO PUSH2 0x58B JUMPI POP PUSH1 0x1 PUSH1 0x1 PUSH1 0xA0 SHL SUB DUP3 AND CALLER EQ JUMPDEST DUP1 ISZERO PUSH2 0x596 JUMPI POP DUP6 DUP2 EQ JUMPDEST ISZERO PUSH2 0x5B4 JUMPI PUSH1 0x40 MLOAD PUSH4 0xB79E3F3F PUSH1 0xE0 SHL DUP2 MSTORE PUSH1 0x4 ADD PUSH1 0x40 MLOAD DUP1 SWAP2 SUB SWAP1 REVERT JUMPDEST POP PUSH4 0xA85BD01 PUSH1 0xE1 SHL SWAP8 SWAP7 POP POP POP POP POP POP POP JUMP JUMPDEST PUSH1 0x0 DUP1 PUSH1 0x0 DUP1 PUSH2 0x5D6 PUSH2 0x8FC JUMP JUMPDEST SWAP3 POP SWAP3 POP SWAP3 POP CHAINID DUP4 EQ PUSH2 0x5ED JUMPI PUSH1 0x0 SWAP4 POP POP POP POP SWAP1 JUMP JUMPDEST PUSH1 0x40 MLOAD PUSH4 0x31A9108F PUSH1 0xE1 SHL DUP2 MSTORE PUSH1 0x4 DUP2 ADD DUP3 SWAP1 MSTORE PUSH1 0x1 PUSH1 0x1 PUSH1 0xA0 SHL SUB DUP4 AND SWAP1 PUSH4 0x6352211E SWAP1 PUSH1 0x24 ADD PUSH1 0x20 PUSH1 0x40 MLOAD DUP1 DUP4 SUB DUP2 DUP7 GAS STATICCALL ISZERO DUP1 ISZERO PUSH2 0x632 JUMPI RETURNDATASIZE PUSH1 0x0 DUP1 RETURNDATACOPY RETURNDATASIZE PUSH1 0x0 REVERT JUMPDEST POP POP POP POP PUSH1 0x40 MLOAD RETURNDATASIZE PUSH1 0x1F NOT PUSH1 0x1F DUP3 ADD AND DUP3 ADD DUP1 PUSH1 0x40 MSTORE POP DUP2 ADD SWAP1 PUSH2 0x656 SWAP2 SWAP1 PUSH2 0xFAE JUMP JUMPDEST SWAP4 POP POP POP POP SWAP1 JUMP JUMPDEST PUSH1 0x60 PUSH2 0x669 CALLER PUSH2 0x813 JUMP JUMPDEST PUSH2 0x686 JUMPI PUSH1 0x40 MLOAD PUSH4 0xEA8E4EB5 PUSH1 0xE0 SHL DUP2 MSTORE PUSH1 0x4 ADD PUSH1 0x40 MLOAD DUP1 SWAP2 SUB SWAP1 REVERT JUMPDEST PUSH1 0x0 SLOAD TIMESTAMP LT ISZERO PUSH2 0x6A9 JUMPI PUSH1 0x40 MLOAD PUSH4 0x6315BFBB PUSH1 0xE0 SHL DUP2 MSTORE PUSH1 0x4 ADD PUSH1 0x40 MLOAD DUP1 SWAP2 SUB SWAP1 REVERT JUMPDEST DUP3 DUP3 PUSH2 0x6B5 DUP3 DUP3 PUSH2 0x94F JUMP JUMPDEST PUSH2 0x6FE JUMPI PUSH1 0x40 MLOAD PUSH3 0x461BCD PUSH1 0xE5 SHL DUP2 MSTORE PUSH1 0x20 PUSH1 0x4 DUP3 ADD MSTORE PUSH1 0x16 PUSH1 0x24 DUP3 ADD MSTORE PUSH22 0x13595D1A1BD908185B1B081B9BDD08185B1B1BDDD959 PUSH1 0x52 SHL PUSH1 0x44 DUP3 ADD MSTORE PUSH1 0x64 ADD PUSH1 0x40 MLOAD DUP1 SWAP2 SUB SWAP1 REVERT JUMPDEST PUSH2 0x70A DUP8 DUP8 DUP8 DUP8 PUSH2 0x98A JUMP JUMPDEST SWAP8 SWAP7 POP POP POP POP POP POP POP JUMP JUMPDEST PUSH1 0x0 PUSH2 0x724 PUSH1 0x4 DUP3 DUP5 DUP7 PUSH2 0xFCB JUMP JUMPDEST PUSH2 0x72D SWAP2 PUSH2 0xFF5 JUMP JUMPDEST SWAP1 POP JUMPDEST SWAP3 SWAP2 POP POP JUMP JUMPDEST PUSH2 0x73E PUSH2 0x5C8 JUMP JUMPDEST PUSH1 0x1 PUSH1 0x1 PUSH1 0xA0 SHL SUB AND CALLER PUSH1 0x1 PUSH1 0x1 PUSH1 0xA0 SHL SUB AND EQ PUSH2 0x76F JUMPI PUSH1 0x40 MLOAD PUSH4 0xEA8E4EB5 PUSH1 0xE0 SHL DUP2 MSTORE PUSH1 0x4 ADD PUSH1 0x40 MLOAD DUP1 SWAP2 SUB SWAP1 REVERT JUMPDEST PUSH1 0x0 SLOAD TIMESTAMP LT ISZERO PUSH2 0x792 JUMPI PUSH1 0x40 MLOAD PUSH4 0x6315BFBB PUSH1 0xE0 SHL DUP2 MSTORE PUSH1 0x4 ADD PUSH1 0x40 MLOAD DUP1 SWAP2 SUB SWAP1 REVERT JUMPDEST PUSH2 0x7A0 TIMESTAMP PUSH4 0x1E13380 PUSH2 0x1025 JUMP JUMPDEST DUP2 GT ISZERO PUSH2 0x7C0 JUMPI PUSH1 0x40 MLOAD PUSH4 0x1814F7D PUSH1 0xE3 SHL DUP2 MSTORE PUSH1 0x4 ADD PUSH1 0x40 MLOAD DUP1 SWAP2 SUB SWAP1 REVERT JUMPDEST PUSH1 0x0 DUP2 SWAP1 SSTORE PUSH1 0x40 MLOAD DUP2 DUP2 MSTORE PUSH32 0xA7B24C66DD3269A292A60B3FACDBB8F3E7557D1E19E64D99E0D6EE7250BE63AD SWAP1 PUSH1 0x20 ADD PUSH1 0x40 MLOAD DUP1 SWAP2 SUB SWAP1 LOG1 POP JUMP JUMPDEST PUSH1 0x0 DUP1 PUSH1 0x0 PUSH2 0x808 PUSH2 0x8FC JUMP JUMPDEST SWAP3 POP SWAP3 POP SWAP3 POP SWAP1 SWAP2 SWAP3 JUMP JUMPDEST PUSH1 0x0 DUP1 PUSH1 0x0 PUSH2 0x820 PUSH2 0x8FC JUMP JUMPDEST PUSH1 0x40 MLOAD PUSH4 0x31A9108F PUSH1 0xE1 SHL DUP2 MSTORE PUSH1 0x4 DUP2 ADD DUP3 SWAP1 MSTORE SWAP2 SWAP5 POP SWAP3 POP PUSH1 0x0 SWAP2 POP PUSH1 0x1 PUSH1 0x1 PUSH1 0xA0 SHL SUB DUP5 AND SWAP1 PUSH4 0x6352211E SWAP1 PUSH1 0x24 ADD PUSH1 0x20 PUSH1 0x40 MLOAD DUP1 DUP4 SUB DUP2 DUP7 GAS STATICCALL ISZERO DUP1 ISZERO PUSH2 0x86E JUMPI RETURNDATASIZE PUSH1 0x0 DUP1 RETURNDATACOPY RETURNDATASIZE PUSH1 0x0 REVERT JUMPDEST POP POP POP POP PUSH1 0x40 MLOAD RETURNDATASIZE PUSH1 0x1F NOT PUSH1 0x1F DUP3 ADD AND DUP3 ADD DUP1 PUSH1 0x40 MSTORE POP DUP2 ADD SWAP1 PUSH2 0x892 SWAP2 SWAP1 PUSH2 0xFAE JUMP JUMPDEST SWAP1 POP DUP1 PUSH1 0x1 PUSH1 0x1 PUSH1 0xA0 SHL SUB AND DUP6 PUSH1 0x1 PUSH1 0x1 PUSH1 0xA0 SHL SUB AND SUB PUSH2 0x8B8 JUMPI POP PUSH1 0x1 SWAP5 SWAP4 POP POP POP POP JUMP JUMPDEST PUSH1 0x1 PUSH1 0x1 PUSH1 0xA0 SHL SUB DUP1 DUP3 AND PUSH1 0x0 SWAP1 DUP2 MSTORE PUSH1 0x1 PUSH1 0x20 SWAP1 DUP2 MSTORE PUSH1 0x40 DUP1 DUP4 KECCAK256 SWAP4 DUP10 AND DUP4 MSTORE SWAP3 SWAP1 MSTORE KECCAK256 SLOAD PUSH1 0xFF AND ISZERO PUSH2 0x8F1 JUMPI POP PUSH1 0x1 SWAP5 SWAP4 POP POP POP POP JUMP JUMPDEST POP PUSH1 0x0 SWAP5 SWAP4 POP POP POP POP JUMP JUMPDEST PUSH1 0x40 DUP1 MLOAD PUSH1 0x60 DUP1 DUP3 MSTORE PUSH1 0x80 DUP3 ADD SWAP1 SWAP3 MSTORE PUSH1 0x0 SWAP2 DUP3 SWAP2 DUP3 SWAP2 DUP3 SWAP2 SWAP1 PUSH1 0x20 DUP3 ADD DUP2 DUP1 CALLDATASIZE DUP4 CALLDATACOPY ADD SWAP1 POP POP SWAP1 POP PUSH1 0xAD PUSH1 0x4D PUSH1 0x20 DUP4 ADD ADDRESS EXTCODECOPY DUP1 DUP1 PUSH1 0x20 ADD SWAP1 MLOAD DUP2 ADD SWAP1 PUSH2 0x943 SWAP2 SWAP1 PUSH2 0x1038 JUMP JUMPDEST SWAP4 POP SWAP4 POP SWAP4 POP POP SWAP1 SWAP2 SWAP3 JUMP JUMPDEST PUSH1 0x0 DUP1 PUSH2 0x95C DUP5 DUP5 PUSH2 0x715 JUMP JUMPDEST SWAP1 POP PUSH1 0x1 PUSH1 0x1 PUSH1 0xE0 SHL SUB NOT DUP2 AND PUSH4 0x95EA7B3 PUSH1 0xE0 SHL SUB PUSH2 0x980 JUMPI PUSH1 0x0 SWAP2 POP POP PUSH2 0x730 JUMP JUMPDEST POP PUSH1 0x1 SWAP4 SWAP3 POP POP POP JUMP JUMPDEST PUSH1 0x60 PUSH1 0x0 DUP6 PUSH1 0x1 PUSH1 0x1 PUSH1 0xA0 SHL SUB AND DUP6 DUP6 DUP6 PUSH1 0x40 MLOAD PUSH2 0x9A9 SWAP3 SWAP2 SWAP1 PUSH2 0x1071 JUMP JUMPDEST PUSH1 0x0 PUSH1 0x40 MLOAD DUP1 DUP4 SUB DUP2 DUP6 DUP8 GAS CALL SWAP3 POP POP POP RETURNDATASIZE DUP1 PUSH1 0x0 DUP2 EQ PUSH2 0x9E6 JUMPI PUSH1 0x40 MLOAD SWAP2 POP PUSH1 0x1F NOT PUSH1 0x3F RETURNDATASIZE ADD AND DUP3 ADD PUSH1 0x40 MSTORE RETURNDATASIZE DUP3 MSTORE RETURNDATASIZE PUSH1 0x0 PUSH1 0x20 DUP5 ADD RETURNDATACOPY PUSH2 0x9EB JUMP JUMPDEST PUSH1 0x60 SWAP2 POP JUMPDEST POP SWAP3 POP SWAP1 POP DUP1 PUSH2 0x9FD JUMPI DUP2 MLOAD PUSH1 0x20 DUP4 ADD REVERT JUMPDEST POP SWAP5 SWAP4 POP POP POP POP JUMP JUMPDEST PUSH1 0x0 PUSH1 0x20 DUP3 DUP5 SUB SLT ISZERO PUSH2 0xA18 JUMPI PUSH1 0x0 DUP1 REVERT JUMPDEST DUP2 CALLDATALOAD PUSH1 0x1 PUSH1 0x1 PUSH1 0xE0 SHL SUB NOT DUP2 AND DUP2 EQ PUSH2 0xA30 JUMPI PUSH1 0x0 DUP1 REVERT JUMPDEST SWAP4 SWAP3 POP POP POP JUMP JUMPDEST PUSH1 0x0 DUP1 DUP4 PUSH1 0x1F DUP5 ADD SLT PUSH2 0xA49 JUMPI PUSH1 0x0 DUP1 REVERT JUMPDEST POP DUP2 CALLDATALOAD PUSH8 0xFFFFFFFFFFFFFFFF DUP2 GT ISZERO PUSH2 0xA61 JUMPI PUSH1 0x0 DUP1 REVERT JUMPDEST PUSH1 0x20 DUP4 ADD SWAP2 POP DUP4 PUSH1 0x20 DUP3 PUSH1 0x5 SHL DUP6 ADD ADD GT ISZERO PUSH2 0xA7C JUMPI PUSH1 0x0 DUP1 REVERT JUMPDEST SWAP3 POP SWAP3 SWAP1 POP JUMP JUMPDEST PUSH1 0x0 DUP1 PUSH1 0x0 DUP1 PUSH1 0x40 DUP6 DUP8 SUB SLT ISZERO PUSH2 0xA99 JUMPI PUSH1 0x0 DUP1 REVERT JUMPDEST DUP5 CALLDATALOAD PUSH8 0xFFFFFFFFFFFFFFFF DUP1 DUP3 GT ISZERO PUSH2 0xAB1 JUMPI PUSH1 0x0 DUP1 REVERT JUMPDEST PUSH2 0xABD DUP9 DUP4 DUP10 ADD PUSH2 0xA37 JUMP JUMPDEST SWAP1 SWAP7 POP SWAP5 POP PUSH1 0x20 DUP8 ADD CALLDATALOAD SWAP2 POP DUP1 DUP3 GT ISZERO PUSH2 0xAD6 JUMPI PUSH1 0x0 DUP1 REVERT JUMPDEST POP PUSH2 0xAE3 DUP8 DUP3 DUP9 ADD PUSH2 0xA37 JUMP JUMPDEST SWAP6 SWAP9 SWAP5 SWAP8 POP SWAP6 POP POP POP POP JUMP JUMPDEST PUSH1 0x1 PUSH1 0x1 PUSH1 0xA0 SHL SUB DUP2 AND DUP2 EQ PUSH2 0xB04 JUMPI PUSH1 0x0 DUP1 REVERT JUMPDEST POP JUMP JUMPDEST PUSH4 0x4E487B71 PUSH1 0xE0 SHL PUSH1 0x0 MSTORE PUSH1 0x41 PUSH1 0x4 MSTORE PUSH1 0x24 PUSH1 0x0 REVERT JUMPDEST PUSH1 0x40 MLOAD PUSH1 0x1F DUP3 ADD PUSH1 0x1F NOT AND DUP2 ADD PUSH8 0xFFFFFFFFFFFFFFFF DUP2 GT DUP3 DUP3 LT OR ISZERO PUSH2 0xB46 JUMPI PUSH2 0xB46 PUSH2 0xB07 JUMP JUMPDEST PUSH1 0x40 MSTORE SWAP2 SWAP1 POP JUMP JUMPDEST PUSH1 0x0 DUP3 PUSH1 0x1F DUP4 ADD SLT PUSH2 0xB5F JUMPI PUSH1 0x0 DUP1 REVERT JUMPDEST DUP2 CALLDATALOAD PUSH8 0xFFFFFFFFFFFFFFFF DUP2 GT ISZERO PUSH2 0xB79 JUMPI PUSH2 0xB79 PUSH2 0xB07 JUMP JUMPDEST PUSH2 0xB8C PUSH1 0x1F DUP3 ADD PUSH1 0x1F NOT AND PUSH1 0x20 ADD PUSH2 0xB1D JUMP JUMPDEST DUP2 DUP2 MSTORE DUP5 PUSH1 0x20 DUP4 DUP7 ADD ADD GT ISZERO PUSH2 0xBA1 JUMPI PUSH1 0x0 DUP1 REVERT JUMPDEST DUP2 PUSH1 0x20 DUP6 ADD PUSH1 0x20 DUP4 ADD CALLDATACOPY PUSH1 0x0 SWAP2 DUP2 ADD PUSH1 0x20 ADD SWAP2 SWAP1 SWAP2 MSTORE SWAP4 SWAP3 POP POP POP JUMP JUMPDEST PUSH1 0x0 DUP1 PUSH1 0x0 DUP1 PUSH1 0x80 DUP6 DUP8 SUB SLT ISZERO PUSH2 0xBD4 JUMPI PUSH1 0x0 DUP1 REVERT JUMPDEST DUP5 CALLDATALOAD PUSH2 0xBDF DUP2 PUSH2 0xAEF JUMP JUMPDEST SWAP4 POP PUSH1 0x20 DUP6 ADD CALLDATALOAD PUSH2 0xBEF DUP2 PUSH2 0xAEF JUMP JUMPDEST SWAP3 POP PUSH1 0x40 DUP6 ADD CALLDATALOAD SWAP2 POP PUSH1 0x60 DUP6 ADD CALLDATALOAD PUSH8 0xFFFFFFFFFFFFFFFF DUP2 GT ISZERO PUSH2 0xC12 JUMPI PUSH1 0x0 DUP1 REVERT JUMPDEST PUSH2 0xC1E DUP8 DUP3 DUP9 ADD PUSH2 0xB4E JUMP JUMPDEST SWAP2 POP POP SWAP3 SWAP6 SWAP2 SWAP5 POP SWAP3 POP JUMP JUMPDEST PUSH1 0x0 DUP1 PUSH1 0x40 DUP4 DUP6 SUB SLT ISZERO PUSH2 0xC3D JUMPI PUSH1 0x0 DUP1 REVERT JUMPDEST DUP3 CALLDATALOAD PUSH2 0xC48 DUP2 PUSH2 0xAEF JUMP JUMPDEST SWAP2 POP PUSH1 0x20 DUP4 ADD CALLDATALOAD PUSH2 0xC58 DUP2 PUSH2 0xAEF JUMP JUMPDEST DUP1 SWAP2 POP POP SWAP3 POP SWAP3 SWAP1 POP JUMP JUMPDEST PUSH1 0x0 DUP1 DUP4 PUSH1 0x1F DUP5 ADD SLT PUSH2 0xC75 JUMPI PUSH1 0x0 DUP1 REVERT JUMPDEST POP DUP2 CALLDATALOAD PUSH8 0xFFFFFFFFFFFFFFFF DUP2 GT ISZERO PUSH2 0xC8D JUMPI PUSH1 0x0 DUP1 REVERT JUMPDEST PUSH1 0x20 DUP4 ADD SWAP2 POP DUP4 PUSH1 0x20 DUP3 DUP6 ADD ADD GT ISZERO PUSH2 0xA7C JUMPI PUSH1 0x0 DUP1 REVERT JUMPDEST PUSH1 0x0 DUP1 PUSH1 0x0 DUP1 PUSH1 0x60 DUP6 DUP8 SUB SLT ISZERO PUSH2 0xCBB JUMPI PUSH1 0x0 DUP1 REVERT JUMPDEST DUP5 CALLDATALOAD PUSH2 0xCC6 DUP2 PUSH2 0xAEF JUMP JUMPDEST SWAP4 POP PUSH1 0x20 DUP6 ADD CALLDATALOAD SWAP3 POP PUSH1 0x40 DUP6 ADD CALLDATALOAD PUSH8 0xFFFFFFFFFFFFFFFF DUP2 GT ISZERO PUSH2 0xCE9 JUMPI PUSH1 0x0 DUP1 REVERT JUMPDEST PUSH2 0xAE3 DUP8 DUP3 DUP9 ADD PUSH2 0xC63 JUMP JUMPDEST PUSH1 0x0 PUSH1 0x20 DUP1 DUP4 MSTORE DUP4 MLOAD DUP1 DUP3 DUP6 ADD MSTORE PUSH1 0x0 JUMPDEST DUP2 DUP2 LT ISZERO PUSH2 0xD22 JUMPI DUP6 DUP2 ADD DUP4 ADD MLOAD DUP6 DUP3 ADD PUSH1 0x40 ADD MSTORE DUP3 ADD PUSH2 0xD06 JUMP JUMPDEST POP PUSH1 0x0 PUSH1 0x40 DUP3 DUP7 ADD ADD MSTORE PUSH1 0x40 PUSH1 0x1F NOT PUSH1 0x1F DUP4 ADD AND DUP6 ADD ADD SWAP3 POP POP POP SWAP3 SWAP2 POP POP JUMP JUMPDEST PUSH1 0x0 DUP3 PUSH1 0x1F DUP4 ADD SLT PUSH2 0xD54 JUMPI PUSH1 0x0 DUP1 REVERT JUMPDEST DUP2 CALLDATALOAD PUSH1 0x20 PUSH8 0xFFFFFFFFFFFFFFFF DUP3 GT ISZERO PUSH2 0xD70 JUMPI PUSH2 0xD70 PUSH2 0xB07 JUMP JUMPDEST DUP2 PUSH1 0x5 SHL PUSH2 0xD7F DUP3 DUP3 ADD PUSH2 0xB1D JUMP JUMPDEST SWAP3 DUP4 MSTORE DUP5 DUP2 ADD DUP3 ADD SWAP3 DUP3 DUP2 ADD SWAP1 DUP8 DUP6 GT ISZERO PUSH2 0xD99 JUMPI PUSH1 0x0 DUP1 REVERT JUMPDEST DUP4 DUP8 ADD SWAP3 POP JUMPDEST DUP5 DUP4 LT ISZERO PUSH2 0x70A JUMPI DUP3 CALLDATALOAD DUP3 MSTORE SWAP2 DUP4 ADD SWAP2 SWAP1 DUP4 ADD SWAP1 PUSH2 0xD9F JUMP JUMPDEST PUSH1 0x0 DUP1 PUSH1 0x0 DUP1 PUSH1 0x0 PUSH1 0xA0 DUP7 DUP9 SUB SLT ISZERO PUSH2 0xDD0 JUMPI PUSH1 0x0 DUP1 REVERT JUMPDEST DUP6 CALLDATALOAD PUSH2 0xDDB DUP2 PUSH2 0xAEF JUMP JUMPDEST SWAP5 POP PUSH1 0x20 DUP7 ADD CALLDATALOAD PUSH2 0xDEB DUP2 PUSH2 0xAEF JUMP JUMPDEST SWAP4 POP PUSH1 0x40 DUP7 ADD CALLDATALOAD PUSH8 0xFFFFFFFFFFFFFFFF DUP1 DUP3 GT ISZERO PUSH2 0xE08 JUMPI PUSH1 0x0 DUP1 REVERT JUMPDEST PUSH2 0xE14 DUP10 DUP4 DUP11 ADD PUSH2 0xD43 JUMP JUMPDEST SWAP5 POP PUSH1 0x60 DUP9 ADD CALLDATALOAD SWAP2 POP DUP1 DUP3 GT ISZERO PUSH2 0xE2A JUMPI PUSH1 0x0 DUP1 REVERT JUMPDEST PUSH2 0xE36 DUP10 DUP4 DUP11 ADD PUSH2 0xD43 JUMP JUMPDEST SWAP4 POP PUSH1 0x80 DUP9 ADD CALLDATALOAD SWAP2 POP DUP1 DUP3 GT ISZERO PUSH2 0xE4C JUMPI PUSH1 0x0 DUP1 REVERT JUMPDEST POP PUSH2 0xE59 DUP9 DUP3 DUP10 ADD PUSH2 0xB4E JUMP JUMPDEST SWAP2 POP POP SWAP3 SWAP6 POP SWAP3 SWAP6 SWAP1 SWAP4 POP JUMP JUMPDEST PUSH1 0x0 DUP1 PUSH1 0x20 DUP4 DUP6 SUB SLT ISZERO PUSH2 0xE79 JUMPI PUSH1 0x0 DUP1 REVERT JUMPDEST DUP3 CALLDATALOAD PUSH8 0xFFFFFFFFFFFFFFFF DUP2 GT ISZERO PUSH2 0xE90 JUMPI PUSH1 0x0 DUP1 REVERT JUMPDEST PUSH2 0xE9C DUP6 DUP3 DUP7 ADD PUSH2 0xC63 JUMP JUMPDEST SWAP1 SWAP7 SWAP1 SWAP6 POP SWAP4 POP POP POP POP JUMP JUMPDEST PUSH1 0x0 PUSH1 0x20 DUP3 DUP5 SUB SLT ISZERO PUSH2 0xEBA JUMPI PUSH1 0x0 DUP1 REVERT JUMPDEST POP CALLDATALOAD SWAP2 SWAP1 POP JUMP JUMPDEST PUSH1 0x0 DUP1 PUSH1 0x0 DUP1 PUSH1 0x0 PUSH1 0xA0 DUP7 DUP9 SUB SLT ISZERO PUSH2 0xED9 JUMPI PUSH1 0x0 DUP1 REVERT JUMPDEST DUP6 CALLDATALOAD PUSH2 0xEE4 DUP2 PUSH2 0xAEF JUMP JUMPDEST SWAP5 POP PUSH1 0x20 DUP7 ADD CALLDATALOAD PUSH2 0xEF4 DUP2 PUSH2 0xAEF JUMP JUMPDEST SWAP4 POP PUSH1 0x40 DUP7 ADD CALLDATALOAD SWAP3 POP PUSH1 0x60 DUP7 ADD CALLDATALOAD SWAP2 POP PUSH1 0x80 DUP7 ADD CALLDATALOAD PUSH8 0xFFFFFFFFFFFFFFFF DUP2 GT ISZERO PUSH2 0xF1E JUMPI PUSH1 0x0 DUP1 REVERT JUMPDEST PUSH2 0xE59 DUP9 DUP3 DUP10 ADD PUSH2 0xB4E JUMP JUMPDEST PUSH1 0x0 PUSH1 0x20 DUP3 DUP5 SUB SLT ISZERO PUSH2 0xF3C JUMPI PUSH1 0x0 DUP1 REVERT JUMPDEST DUP2 CALLDATALOAD PUSH2 0xA30 DUP2 PUSH2 0xAEF JUMP JUMPDEST PUSH4 0x4E487B71 PUSH1 0xE0 SHL PUSH1 0x0 MSTORE PUSH1 0x32 PUSH1 0x4 MSTORE PUSH1 0x24 PUSH1 0x0 REVERT JUMPDEST PUSH1 0x0 PUSH1 0x20 DUP3 DUP5 SUB SLT ISZERO PUSH2 0xF6F JUMPI PUSH1 0x0 DUP1 REVERT JUMPDEST DUP2 CALLDATALOAD DUP1 ISZERO ISZERO DUP2 EQ PUSH2 0xA30 JUMPI PUSH1 0x0 DUP1 REVERT JUMPDEST PUSH4 0x4E487B71 PUSH1 0xE0 SHL PUSH1 0x0 MSTORE PUSH1 0x11 PUSH1 0x4 MSTORE PUSH1 0x24 PUSH1 0x0 REVERT JUMPDEST PUSH1 0x0 PUSH1 0x1 DUP3 ADD PUSH2 0xFA7 JUMPI PUSH2 0xFA7 PUSH2 0xF7F JUMP JUMPDEST POP PUSH1 0x1 ADD SWAP1 JUMP JUMPDEST PUSH1 0x0 PUSH1 0x20 DUP3 DUP5 SUB SLT ISZERO PUSH2 0xFC0 JUMPI PUSH1 0x0 DUP1 REVERT JUMPDEST DUP2 MLOAD PUSH2 0xA30 DUP2 PUSH2 0xAEF JUMP JUMPDEST PUSH1 0x0 DUP1 DUP6 DUP6 GT ISZERO PUSH2 0xFDB JUMPI PUSH1 0x0 DUP1 REVERT JUMPDEST DUP4 DUP7 GT ISZERO PUSH2 0xFE8 JUMPI PUSH1 0x0 DUP1 REVERT JUMPDEST POP POP DUP3 ADD SWAP4 SWAP2 SWAP1 SWAP3 SUB SWAP2 POP JUMP JUMPDEST PUSH1 0x1 PUSH1 0x1 PUSH1 0xE0 SHL SUB NOT DUP2 CALLDATALOAD DUP2 DUP2 AND SWAP2 PUSH1 0x4 DUP6 LT ISZERO PUSH2 0x101D JUMPI DUP1 DUP2 DUP7 PUSH1 0x4 SUB PUSH1 0x3 SHL SHL DUP4 AND AND SWAP3 POP JUMPDEST POP POP SWAP3 SWAP2 POP POP JUMP JUMPDEST DUP1 DUP3 ADD DUP1 DUP3 GT ISZERO PUSH2 0x730 JUMPI PUSH2 0x730 PUSH2 0xF7F JUMP JUMPDEST PUSH1 0x0 DUP1 PUSH1 0x0 PUSH1 0x60 DUP5 DUP7 SUB SLT ISZERO PUSH2 0x104D JUMPI PUSH1 0x0 DUP1 REVERT JUMPDEST DUP4 MLOAD SWAP3 POP PUSH1 0x20 DUP5 ADD MLOAD PUSH2 0x105F DUP2 PUSH2 0xAEF JUMP JUMPDEST DUP1 SWAP3 POP POP PUSH1 0x40 DUP5 ADD MLOAD SWAP1 POP SWAP3 POP SWAP3 POP SWAP3 JUMP JUMPDEST DUP2 DUP4 DUP3 CALLDATACOPY PUSH1 0x0 SWAP2 ADD SWAP1 DUP2 MSTORE SWAP2 SWAP1 POP JUMP INVALID LOG2 PUSH5 0x6970667358 0x22 SLT KECCAK256 GAS PUSH3 0x1346BD 0xA8 0xD4 0xC3 0x2F DIFFICULTY SWAP4 PUSH5 0xA89907390A EXP PUSH9 0x2219A5F5F964CA2B49 0xD0 SWAP3 0xCD 0x23 PUSH5 0x736F6C6343 STOP ADDMOD GT STOP CALLER "},"gasEstimates":{"creation":{"codeDepositCost":"855800","executionCost":"890","totalCost":"856690"},"external":{"executeCall(address,uint256,bytes)":"infinite","isAuthorized(address)":"infinite","isLocked()":"2381","lock(uint256)":"infinite","lockedUntil()":"2340","onERC1155BatchReceived(address,address,uint256[],uint256[],bytes)":"infinite","onERC1155Received(address,address,uint256,uint256,bytes)":"infinite","onERC721Received(address,address,uint256,bytes)":"infinite","owner()":"infinite","parseFirst4Bytes(bytes)":"832","permissions(address,address)":"infinite","setPermissions(address[],bool[])":"infinite","supportsInterface(bytes4)":"538","token()":"infinite"},"internal":{"_call(address,uint256,bytes calldata)":"infinite","_callStatic(address,bytes calldata)":"infinite","allowedMethod(bytes calldata)":"infinite"}},"methodIdentifiers":{"executeCall(address,uint256,bytes)":"9e5d4c49","isAuthorized(address)":"fe9fbb80","isLocked()":"a4e2d634","lock(uint256)":"dd467064","lockedUntil()":"ce0617ec","onERC1155BatchReceived(address,address,uint256[],uint256[],bytes)":"bc197c81","onERC1155Received(address,address,uint256,uint256,bytes)":"f23a6e61","onERC721Received(address,address,uint256,bytes)":"150b7a02","owner()":"8da5cb5b","parseFirst4Bytes(bytes)":"d0ad2535","permissions(address,address)":"1f9838b5","setPermissions(address[],bool[])":"039721b1","supportsInterface(bytes4)":"01ffc9a7","token()":"fc0c546a"}},"storageLayout":{"storage":[{"astId":309,"contract":"contracts/Account.sol:Account","label":"lockedUntil","offset":0,"slot":"0","type":"t_uint256"},{"astId":316,"contract":"contracts/Account.sol:Account","label":"permissions","offset":0,"slot":"1","type":"t_mapping(t_address,t_mapping(t_address,t_bool))"}],"types":{"t_address":{"encoding":"inplace","label":"address","numberOfBytes":"20"},"t_bool":{"encoding":"inplace","label":"bool","numberOfBytes":"1"},"t_mapping(t_address,t_bool)":{"encoding":"mapping","key":"t_address","label":"mapping(address => bool)","numberOfBytes":"32","value":"t_bool"},"t_mapping(t_address,t_mapping(t_address,t_bool))":{"encoding":"mapping","key":"t_address","label":"mapping(address => mapping(address => bool))","numberOfBytes":"32","value":"t_mapping(t_address,t_bool)"},"t_uint256":{"encoding":"inplace","label":"uint256","numberOfBytes":"32"}}},"userdoc":{"kind":"user","methods":{},"version":1}}}}