{"contracts/ChargedParticles.sol":{"ChargedParticles":{"abi":[{"inputs":[],"name":"IMPLMENTATION","outputs":[{"internalType":"address","name":"","type":"address"}],"stateMutability":"view","type":"function"},{"inputs":[],"name":"REGISTRY","outputs":[{"internalType":"address","name":"","type":"address"}],"stateMutability":"view","type":"function"},{"inputs":[{"internalType":"address","name":"contractAddress","type":"address"},{"internalType":"uint256","name":"tokenId","type":"uint256"}],"name":"account","outputs":[{"internalType":"address","name":"","type":"address"}],"stateMutability":"view","type":"function"},{"inputs":[{"internalType":"address","name":"receiver","type":"address"},{"internalType":"address","name":"contractAddress","type":"address"},{"internalType":"uint256","name":"tokenId","type":"uint256"},{"internalType":"string","name":"basketManagerId","type":"string"},{"internalType":"address","name":"nftTokenAddress","type":"address"},{"internalType":"uint256","name":"nftTokenId","type":"uint256"},{"internalType":"uint256","name":"nftTokenAmount","type":"uint256"}],"name":"breakCovalentBond","outputs":[{"internalType":"bool","name":"success","type":"bool"}],"stateMutability":"nonpayable","type":"function"},{"inputs":[{"internalType":"address","name":"contractAddress","type":"address"},{"internalType":"uint256","name":"tokenId","type":"uint256"},{"internalType":"string","name":"basketManagerId","type":"string"},{"internalType":"address","name":"nftTokenAddress","type":"address"},{"internalType":"uint256","name":"nftTokenId","type":"uint256"},{"internalType":"uint256","name":"nftTokenAmount","type":"uint256"}],"name":"covalentBond","outputs":[{"internalType":"bool","name":"success","type":"bool"}],"stateMutability":"nonpayable","type":"function"},{"inputs":[{"internalType":"address","name":"contractAddress","type":"address"},{"internalType":"uint256","name":"tokenId","type":"uint256"}],"name":"createAccount","outputs":[{"internalType":"address","name":"","type":"address"}],"stateMutability":"nonpayable","type":"function"},{"inputs":[{"internalType":"address","name":"receiver","type":"address"},{"internalType":"address","name":"contractAddress","type":"address"},{"internalType":"uint256","name":"tokenId","type":"uint256"},{"internalType":"string","name":"walletManagerId","type":"string"},{"internalType":"address","name":"assetToken","type":"address"}],"name":"dischargeParticle","outputs":[{"internalType":"uint256","name":"creatorAmount","type":"uint256"},{"internalType":"uint256","name":"receiverAmount","type":"uint256"}],"stateMutability":"nonpayable","type":"function"},{"inputs":[{"internalType":"address","name":"receiver","type":"address"},{"internalType":"address","name":"contractAddress","type":"address"},{"internalType":"uint256","name":"tokenId","type":"uint256"},{"internalType":"string","name":"walletManagerId","type":"string"},{"internalType":"address","name":"assetToken","type":"address"},{"internalType":"uint256","name":"assetAmount","type":"uint256"}],"name":"dischargeParticleAmount","outputs":[{"internalType":"uint256","name":"creatorAmount","type":"uint256"},{"internalType":"uint256","name":"receiverAmount","type":"uint256"}],"stateMutability":"nonpayable","type":"function"},{"inputs":[{"internalType":"address","name":"receiver","type":"address"},{"internalType":"address","name":"contractAddress","type":"address"},{"internalType":"uint256","name":"tokenId","type":"uint256"},{"internalType":"string","name":"walletManagerId","type":"string"},{"internalType":"address","name":"assetToken","type":"address"},{"internalType":"uint256","name":"assetAmount","type":"uint256"}],"name":"dischargeParticleForCreator","outputs":[{"internalType":"uint256","name":"receiverAmount","type":"uint256"}],"stateMutability":"nonpayable","type":"function"},{"inputs":[{"internalType":"address","name":"contractAddress","type":"address"},{"internalType":"uint256","name":"tokenId","type":"uint256"},{"internalType":"string","name":"walletManagerId","type":"string"},{"internalType":"address","name":"assetToken","type":"address"},{"internalType":"uint256","name":"assetAmount","type":"uint256"},{"internalType":"address","name":"referrer","type":"address"}],"name":"energizeParticle","outputs":[{"internalType":"uint256","name":"yieldTokensAmount","type":"uint256"}],"stateMutability":"nonpayable","type":"function"},{"inputs":[{"internalType":"address","name":"receiver","type":"address"},{"internalType":"address","name":"contractAddress","type":"address"},{"internalType":"uint256","name":"tokenId","type":"uint256"},{"internalType":"string","name":"walletManagerId","type":"string"},{"internalType":"address","name":"assetToken","type":"address"}],"name":"releaseParticle","outputs":[{"internalType":"uint256","name":"creatorAmount","type":"uint256"},{"internalType":"uint256","name":"receiverAmount","type":"uint256"}],"stateMutability":"nonpayable","type":"function"},{"inputs":[{"internalType":"address","name":"receiver","type":"address"},{"internalType":"address","name":"contractAddress","type":"address"},{"internalType":"uint256","name":"tokenId","type":"uint256"},{"internalType":"string","name":"walletManagerId","type":"string"},{"internalType":"address","name":"assetToken","type":"address"},{"internalType":"uint256","name":"assetAmount","type":"uint256"}],"name":"releaseParticleAmount","outputs":[{"internalType":"uint256","name":"creatorAmount","type":"uint256"},{"internalType":"uint256","name":"receiverAmount","type":"uint256"}],"stateMutability":"nonpayable","type":"function"}],"devdoc":{"kind":"dev","methods":{},"version":1},"evm":{"bytecode":{"linkReferences":{},"object":"608060405234801561001057600080fd5b506107d1806100206000396000f3fe608060405234801561001057600080fd5b50600436106100b45760003560e01c806365d20ce21161007157806365d20ce2146101945780636697b359146101a25780637fdfc7b2146101bf578063a8abef47146101a2578063acab923c14610163578063fe02fb00146101da57600080fd5b806306433b1b146100b95780630bdde2ca146100f1578063192df6551461011a5780633ff956cc1461012d5780635fbfb9cf14610150578063621a3b7014610163575b600080fd5b6100d4732d25602551487c3f3354dd80d76d54383a24335881565b6040516001600160a01b0390911681526020015b60405180910390f35b61010c6100ff366004610490565b6000979650505050505050565b6040519081526020016100e8565b6100d4610128366004610520565b6101f6565b61014061013b36600461054c565b6102aa565b60405190151581526020016100e8565b6100d461015e366004610520565b610396565b61017f6101713660046105d2565b600080965096945050505050565b604080519283526020830191909152016100e8565b61010c6100ff366004610657565b61017f6101b0366004610657565b60008097509795505050505050565b6100d473db46d1dc155634fbc732f92e853b10b288ad5a1d81565b6101406101e83660046106e7565b600098975050505050505050565b604051632f4de29b60e11b815273db46d1dc155634fbc732f92e853b10b288ad5a1d60048201524660248201526001600160a01b03831660448201526064810182905260006084820181905290732d25602551487c3f3354dd80d76d54383a24335890635e9bc5369060a401602060405180830381865afa15801561027f573d6000803e3d6000fd5b505050506040513d601f19601f820116820180604052508101906102a3919061077e565b9392505050565b60405163192df65560e01b81526001600160a01b0388166004820152602481018790526000908190309063192df65590604401602060405180830381865afa1580156102fa573d6000803e3d6000fd5b505050506040513d601f19601f8201168201806040525081019061031e919061077e565b604051632142170760e11b81523360048201526001600160a01b03808316602483015260448201879052919250908616906342842e0e90606401600060405180830381600087803b15801561037257600080fd5b505af1158015610386573d6000803e3d6000fd5b5050505050979650505050505050565b60405163da7323b360e01b815273db46d1dc155634fbc732f92e853b10b288ad5a1d60048201524660248201526001600160a01b03831660448201526064810182905260006084820181905260c060a483015260c4820181905290732d25602551487c3f3354dd80d76d54383a2433589063da7323b39060e4016020604051808303816000875af115801561027f573d6000803e3d6000fd5b6001600160a01b038116811461044457600080fd5b50565b60008083601f84011261045957600080fd5b50813567ffffffffffffffff81111561047157600080fd5b60208301915083602082850101111561048957600080fd5b9250929050565b600080600080600080600060c0888a0312156104ab57600080fd5b87356104b68161042f565b965060208801359550604088013567ffffffffffffffff8111156104d957600080fd5b6104e58a828b01610447565b90965094505060608801356104f98161042f565b92506080880135915060a08801356105108161042f565b8091505092959891949750929550565b6000806040838503121561053357600080fd5b823561053e8161042f565b946020939093013593505050565b600080600080600080600060c0888a03121561056757600080fd5b87356105728161042f565b965060208801359550604088013567ffffffffffffffff81111561059557600080fd5b6105a18a828b01610447565b90965094505060608801356105b58161042f565b969995985093969295946080840135945060a09093013592915050565b60008060008060008060a087890312156105eb57600080fd5b86356105f68161042f565b955060208701356106068161042f565b945060408701359350606087013567ffffffffffffffff81111561062957600080fd5b61063589828a01610447565b90945092505060808701356106498161042f565b809150509295509295509295565b600080600080600080600060c0888a03121561067257600080fd5b873561067d8161042f565b9650602088013561068d8161042f565b955060408801359450606088013567ffffffffffffffff8111156106b057600080fd5b6106bc8a828b01610447565b90955093505060808801356106d08161042f565b8092505060a0880135905092959891949750929550565b60008060008060008060008060e0898b03121561070357600080fd5b883561070e8161042f565b9750602089013561071e8161042f565b965060408901359550606089013567ffffffffffffffff81111561074157600080fd5b61074d8b828c01610447565b90965094505060808901356107618161042f565b979a969950949793969295929450505060a08201359160c0013590565b60006020828403121561079057600080fd5b81516102a38161042f56fea26469706673582212206c82800f64f8fa1f0c4d4cc19d30863e3bbf28d8b8e4cf787450a546e85de38264736f6c63430008110033","opcodes":"PUSH1 0x80 PUSH1 0x40 MSTORE CALLVALUE DUP1 ISZERO PUSH2 0x10 JUMPI PUSH1 0x0 DUP1 REVERT JUMPDEST POP PUSH2 0x7D1 DUP1 PUSH2 0x20 PUSH1 0x0 CODECOPY PUSH1 0x0 RETURN INVALID PUSH1 0x80 PUSH1 0x40 MSTORE CALLVALUE DUP1 ISZERO PUSH2 0x10 JUMPI PUSH1 0x0 DUP1 REVERT JUMPDEST POP PUSH1 0x4 CALLDATASIZE LT PUSH2 0xB4 JUMPI PUSH1 0x0 CALLDATALOAD PUSH1 0xE0 SHR DUP1 PUSH4 0x65D20CE2 GT PUSH2 0x71 JUMPI DUP1 PUSH4 0x65D20CE2 EQ PUSH2 0x194 JUMPI DUP1 PUSH4 0x6697B359 EQ PUSH2 0x1A2 JUMPI DUP1 PUSH4 0x7FDFC7B2 EQ PUSH2 0x1BF JUMPI DUP1 PUSH4 0xA8ABEF47 EQ PUSH2 0x1A2 JUMPI DUP1 PUSH4 0xACAB923C EQ PUSH2 0x163 JUMPI DUP1 PUSH4 0xFE02FB00 EQ PUSH2 0x1DA JUMPI PUSH1 0x0 DUP1 REVERT JUMPDEST DUP1 PUSH4 0x6433B1B EQ PUSH2 0xB9 JUMPI DUP1 PUSH4 0xBDDE2CA EQ PUSH2 0xF1 JUMPI DUP1 PUSH4 0x192DF655 EQ PUSH2 0x11A JUMPI DUP1 PUSH4 0x3FF956CC EQ PUSH2 0x12D JUMPI DUP1 PUSH4 0x5FBFB9CF EQ PUSH2 0x150 JUMPI DUP1 PUSH4 0x621A3B70 EQ PUSH2 0x163 JUMPI JUMPDEST PUSH1 0x0 DUP1 REVERT JUMPDEST PUSH2 0xD4 PUSH20 0x2D25602551487C3F3354DD80D76D54383A243358 DUP2 JUMP JUMPDEST PUSH1 0x40 MLOAD PUSH1 0x1 PUSH1 0x1 PUSH1 0xA0 SHL SUB SWAP1 SWAP2 AND DUP2 MSTORE PUSH1 0x20 ADD JUMPDEST PUSH1 0x40 MLOAD DUP1 SWAP2 SUB SWAP1 RETURN JUMPDEST PUSH2 0x10C PUSH2 0xFF CALLDATASIZE PUSH1 0x4 PUSH2 0x490 JUMP JUMPDEST PUSH1 0x0 SWAP8 SWAP7 POP POP POP POP POP POP POP JUMP JUMPDEST PUSH1 0x40 MLOAD SWAP1 DUP2 MSTORE PUSH1 0x20 ADD PUSH2 0xE8 JUMP JUMPDEST PUSH2 0xD4 PUSH2 0x128 CALLDATASIZE PUSH1 0x4 PUSH2 0x520 JUMP JUMPDEST PUSH2 0x1F6 JUMP JUMPDEST PUSH2 0x140 PUSH2 0x13B CALLDATASIZE PUSH1 0x4 PUSH2 0x54C JUMP JUMPDEST PUSH2 0x2AA JUMP JUMPDEST PUSH1 0x40 MLOAD SWAP1 ISZERO ISZERO DUP2 MSTORE PUSH1 0x20 ADD PUSH2 0xE8 JUMP JUMPDEST PUSH2 0xD4 PUSH2 0x15E CALLDATASIZE PUSH1 0x4 PUSH2 0x520 JUMP JUMPDEST PUSH2 0x396 JUMP JUMPDEST PUSH2 0x17F PUSH2 0x171 CALLDATASIZE PUSH1 0x4 PUSH2 0x5D2 JUMP JUMPDEST PUSH1 0x0 DUP1 SWAP7 POP SWAP7 SWAP5 POP POP POP POP POP JUMP JUMPDEST PUSH1 0x40 DUP1 MLOAD SWAP3 DUP4 MSTORE PUSH1 0x20 DUP4 ADD SWAP2 SWAP1 SWAP2 MSTORE ADD PUSH2 0xE8 JUMP JUMPDEST PUSH2 0x10C PUSH2 0xFF CALLDATASIZE PUSH1 0x4 PUSH2 0x657 JUMP JUMPDEST PUSH2 0x17F PUSH2 0x1B0 CALLDATASIZE PUSH1 0x4 PUSH2 0x657 JUMP JUMPDEST PUSH1 0x0 DUP1 SWAP8 POP SWAP8 SWAP6 POP POP POP POP POP POP JUMP JUMPDEST PUSH2 0xD4 PUSH20 0xDB46D1DC155634FBC732F92E853B10B288AD5A1D DUP2 JUMP JUMPDEST PUSH2 0x140 PUSH2 0x1E8 CALLDATASIZE PUSH1 0x4 PUSH2 0x6E7 JUMP JUMPDEST PUSH1 0x0 SWAP9 SWAP8 POP POP POP POP POP POP POP POP JUMP JUMPDEST PUSH1 0x40 MLOAD PUSH4 0x2F4DE29B PUSH1 0xE1 SHL DUP2 MSTORE PUSH20 0xDB46D1DC155634FBC732F92E853B10B288AD5A1D PUSH1 0x4 DUP3 ADD MSTORE CHAINID PUSH1 0x24 DUP3 ADD MSTORE PUSH1 0x1 PUSH1 0x1 PUSH1 0xA0 SHL SUB DUP4 AND PUSH1 0x44 DUP3 ADD MSTORE PUSH1 0x64 DUP2 ADD DUP3 SWAP1 MSTORE PUSH1 0x0 PUSH1 0x84 DUP3 ADD DUP2 SWAP1 MSTORE SWAP1 PUSH20 0x2D25602551487C3F3354DD80D76D54383A243358 SWAP1 PUSH4 0x5E9BC536 SWAP1 PUSH1 0xA4 ADD PUSH1 0x20 PUSH1 0x40 MLOAD DUP1 DUP4 SUB DUP2 DUP7 GAS STATICCALL ISZERO DUP1 ISZERO PUSH2 0x27F JUMPI RETURNDATASIZE PUSH1 0x0 DUP1 RETURNDATACOPY RETURNDATASIZE PUSH1 0x0 REVERT JUMPDEST POP POP POP POP PUSH1 0x40 MLOAD RETURNDATASIZE PUSH1 0x1F NOT PUSH1 0x1F DUP3 ADD AND DUP3 ADD DUP1 PUSH1 0x40 MSTORE POP DUP2 ADD SWAP1 PUSH2 0x2A3 SWAP2 SWAP1 PUSH2 0x77E JUMP JUMPDEST SWAP4 SWAP3 POP POP POP JUMP JUMPDEST PUSH1 0x40 MLOAD PUSH4 0x192DF655 PUSH1 0xE0 SHL DUP2 MSTORE PUSH1 0x1 PUSH1 0x1 PUSH1 0xA0 SHL SUB DUP9 AND PUSH1 0x4 DUP3 ADD MSTORE PUSH1 0x24 DUP2 ADD DUP8 SWAP1 MSTORE PUSH1 0x0 SWAP1 DUP2 SWAP1 ADDRESS SWAP1 PUSH4 0x192DF655 SWAP1 PUSH1 0x44 ADD PUSH1 0x20 PUSH1 0x40 MLOAD DUP1 DUP4 SUB DUP2 DUP7 GAS STATICCALL ISZERO DUP1 ISZERO PUSH2 0x2FA JUMPI RETURNDATASIZE PUSH1 0x0 DUP1 RETURNDATACOPY RETURNDATASIZE PUSH1 0x0 REVERT JUMPDEST POP POP POP POP PUSH1 0x40 MLOAD RETURNDATASIZE PUSH1 0x1F NOT PUSH1 0x1F DUP3 ADD AND DUP3 ADD DUP1 PUSH1 0x40 MSTORE POP DUP2 ADD SWAP1 PUSH2 0x31E SWAP2 SWAP1 PUSH2 0x77E JUMP JUMPDEST PUSH1 0x40 MLOAD PUSH4 0x21421707 PUSH1 0xE1 SHL DUP2 MSTORE CALLER PUSH1 0x4 DUP3 ADD MSTORE PUSH1 0x1 PUSH1 0x1 PUSH1 0xA0 SHL SUB DUP1 DUP4 AND PUSH1 0x24 DUP4 ADD MSTORE PUSH1 0x44 DUP3 ADD DUP8 SWAP1 MSTORE SWAP2 SWAP3 POP SWAP1 DUP7 AND SWAP1 PUSH4 0x42842E0E SWAP1 PUSH1 0x64 ADD PUSH1 0x0 PUSH1 0x40 MLOAD DUP1 DUP4 SUB DUP2 PUSH1 0x0 DUP8 DUP1 EXTCODESIZE ISZERO DUP1 ISZERO PUSH2 0x372 JUMPI PUSH1 0x0 DUP1 REVERT JUMPDEST POP GAS CALL ISZERO DUP1 ISZERO PUSH2 0x386 JUMPI RETURNDATASIZE PUSH1 0x0 DUP1 RETURNDATACOPY RETURNDATASIZE PUSH1 0x0 REVERT JUMPDEST POP POP POP POP POP SWAP8 SWAP7 POP POP POP POP POP POP POP JUMP JUMPDEST PUSH1 0x40 MLOAD PUSH4 0xDA7323B3 PUSH1 0xE0 SHL DUP2 MSTORE PUSH20 0xDB46D1DC155634FBC732F92E853B10B288AD5A1D PUSH1 0x4 DUP3 ADD MSTORE CHAINID PUSH1 0x24 DUP3 ADD MSTORE PUSH1 0x1 PUSH1 0x1 PUSH1 0xA0 SHL SUB DUP4 AND PUSH1 0x44 DUP3 ADD MSTORE PUSH1 0x64 DUP2 ADD DUP3 SWAP1 MSTORE PUSH1 0x0 PUSH1 0x84 DUP3 ADD DUP2 SWAP1 MSTORE PUSH1 0xC0 PUSH1 0xA4 DUP4 ADD MSTORE PUSH1 0xC4 DUP3 ADD DUP2 SWAP1 MSTORE SWAP1 PUSH20 0x2D25602551487C3F3354DD80D76D54383A243358 SWAP1 PUSH4 0xDA7323B3 SWAP1 PUSH1 0xE4 ADD PUSH1 0x20 PUSH1 0x40 MLOAD DUP1 DUP4 SUB DUP2 PUSH1 0x0 DUP8 GAS CALL ISZERO DUP1 ISZERO PUSH2 0x27F JUMPI RETURNDATASIZE PUSH1 0x0 DUP1 RETURNDATACOPY RETURNDATASIZE PUSH1 0x0 REVERT JUMPDEST PUSH1 0x1 PUSH1 0x1 PUSH1 0xA0 SHL SUB DUP2 AND DUP2 EQ PUSH2 0x444 JUMPI PUSH1 0x0 DUP1 REVERT JUMPDEST POP JUMP JUMPDEST PUSH1 0x0 DUP1 DUP4 PUSH1 0x1F DUP5 ADD SLT PUSH2 0x459 JUMPI PUSH1 0x0 DUP1 REVERT JUMPDEST POP DUP2 CALLDATALOAD PUSH8 0xFFFFFFFFFFFFFFFF DUP2 GT ISZERO PUSH2 0x471 JUMPI PUSH1 0x0 DUP1 REVERT JUMPDEST PUSH1 0x20 DUP4 ADD SWAP2 POP DUP4 PUSH1 0x20 DUP3 DUP6 ADD ADD GT ISZERO PUSH2 0x489 JUMPI PUSH1 0x0 DUP1 REVERT JUMPDEST SWAP3 POP SWAP3 SWAP1 POP JUMP JUMPDEST PUSH1 0x0 DUP1 PUSH1 0x0 DUP1 PUSH1 0x0 DUP1 PUSH1 0x0 PUSH1 0xC0 DUP9 DUP11 SUB SLT ISZERO PUSH2 0x4AB JUMPI PUSH1 0x0 DUP1 REVERT JUMPDEST DUP8 CALLDATALOAD PUSH2 0x4B6 DUP2 PUSH2 0x42F JUMP JUMPDEST SWAP7 POP PUSH1 0x20 DUP9 ADD CALLDATALOAD SWAP6 POP PUSH1 0x40 DUP9 ADD CALLDATALOAD PUSH8 0xFFFFFFFFFFFFFFFF DUP2 GT ISZERO PUSH2 0x4D9 JUMPI PUSH1 0x0 DUP1 REVERT JUMPDEST PUSH2 0x4E5 DUP11 DUP3 DUP12 ADD PUSH2 0x447 JUMP JUMPDEST SWAP1 SWAP7 POP SWAP5 POP POP PUSH1 0x60 DUP9 ADD CALLDATALOAD PUSH2 0x4F9 DUP2 PUSH2 0x42F JUMP JUMPDEST SWAP3 POP PUSH1 0x80 DUP9 ADD CALLDATALOAD SWAP2 POP PUSH1 0xA0 DUP9 ADD CALLDATALOAD PUSH2 0x510 DUP2 PUSH2 0x42F JUMP JUMPDEST DUP1 SWAP2 POP POP SWAP3 SWAP6 SWAP9 SWAP2 SWAP5 SWAP8 POP SWAP3 SWAP6 POP JUMP JUMPDEST PUSH1 0x0 DUP1 PUSH1 0x40 DUP4 DUP6 SUB SLT ISZERO PUSH2 0x533 JUMPI PUSH1 0x0 DUP1 REVERT JUMPDEST DUP3 CALLDATALOAD PUSH2 0x53E DUP2 PUSH2 0x42F JUMP JUMPDEST SWAP5 PUSH1 0x20 SWAP4 SWAP1 SWAP4 ADD CALLDATALOAD SWAP4 POP POP POP JUMP JUMPDEST PUSH1 0x0 DUP1 PUSH1 0x0 DUP1 PUSH1 0x0 DUP1 PUSH1 0x0 PUSH1 0xC0 DUP9 DUP11 SUB SLT ISZERO PUSH2 0x567 JUMPI PUSH1 0x0 DUP1 REVERT JUMPDEST DUP8 CALLDATALOAD PUSH2 0x572 DUP2 PUSH2 0x42F JUMP JUMPDEST SWAP7 POP PUSH1 0x20 DUP9 ADD CALLDATALOAD SWAP6 POP PUSH1 0x40 DUP9 ADD CALLDATALOAD PUSH8 0xFFFFFFFFFFFFFFFF DUP2 GT ISZERO PUSH2 0x595 JUMPI PUSH1 0x0 DUP1 REVERT JUMPDEST PUSH2 0x5A1 DUP11 DUP3 DUP12 ADD PUSH2 0x447 JUMP JUMPDEST SWAP1 SWAP7 POP SWAP5 POP POP PUSH1 0x60 DUP9 ADD CALLDATALOAD PUSH2 0x5B5 DUP2 PUSH2 0x42F JUMP JUMPDEST SWAP7 SWAP10 SWAP6 SWAP9 POP SWAP4 SWAP7 SWAP3 SWAP6 SWAP5 PUSH1 0x80 DUP5 ADD CALLDATALOAD SWAP5 POP PUSH1 0xA0 SWAP1 SWAP4 ADD CALLDATALOAD SWAP3 SWAP2 POP POP JUMP JUMPDEST PUSH1 0x0 DUP1 PUSH1 0x0 DUP1 PUSH1 0x0 DUP1 PUSH1 0xA0 DUP8 DUP10 SUB SLT ISZERO PUSH2 0x5EB JUMPI PUSH1 0x0 DUP1 REVERT JUMPDEST DUP7 CALLDATALOAD PUSH2 0x5F6 DUP2 PUSH2 0x42F JUMP JUMPDEST SWAP6 POP PUSH1 0x20 DUP8 ADD CALLDATALOAD PUSH2 0x606 DUP2 PUSH2 0x42F JUMP JUMPDEST SWAP5 POP PUSH1 0x40 DUP8 ADD CALLDATALOAD SWAP4 POP PUSH1 0x60 DUP8 ADD CALLDATALOAD PUSH8 0xFFFFFFFFFFFFFFFF DUP2 GT ISZERO PUSH2 0x629 JUMPI PUSH1 0x0 DUP1 REVERT JUMPDEST PUSH2 0x635 DUP10 DUP3 DUP11 ADD PUSH2 0x447 JUMP JUMPDEST SWAP1 SWAP5 POP SWAP3 POP POP PUSH1 0x80 DUP8 ADD CALLDATALOAD PUSH2 0x649 DUP2 PUSH2 0x42F JUMP JUMPDEST DUP1 SWAP2 POP POP SWAP3 SWAP6 POP SWAP3 SWAP6 POP SWAP3 SWAP6 JUMP JUMPDEST PUSH1 0x0 DUP1 PUSH1 0x0 DUP1 PUSH1 0x0 DUP1 PUSH1 0x0 PUSH1 0xC0 DUP9 DUP11 SUB SLT ISZERO PUSH2 0x672 JUMPI PUSH1 0x0 DUP1 REVERT JUMPDEST DUP8 CALLDATALOAD PUSH2 0x67D DUP2 PUSH2 0x42F JUMP JUMPDEST SWAP7 POP PUSH1 0x20 DUP9 ADD CALLDATALOAD PUSH2 0x68D DUP2 PUSH2 0x42F JUMP JUMPDEST SWAP6 POP PUSH1 0x40 DUP9 ADD CALLDATALOAD SWAP5 POP PUSH1 0x60 DUP9 ADD CALLDATALOAD PUSH8 0xFFFFFFFFFFFFFFFF DUP2 GT ISZERO PUSH2 0x6B0 JUMPI PUSH1 0x0 DUP1 REVERT JUMPDEST PUSH2 0x6BC DUP11 DUP3 DUP12 ADD PUSH2 0x447 JUMP JUMPDEST SWAP1 SWAP6 POP SWAP4 POP POP PUSH1 0x80 DUP9 ADD CALLDATALOAD PUSH2 0x6D0 DUP2 PUSH2 0x42F JUMP JUMPDEST DUP1 SWAP3 POP POP PUSH1 0xA0 DUP9 ADD CALLDATALOAD SWAP1 POP SWAP3 SWAP6 SWAP9 SWAP2 SWAP5 SWAP8 POP SWAP3 SWAP6 POP JUMP JUMPDEST PUSH1 0x0 DUP1 PUSH1 0x0 DUP1 PUSH1 0x0 DUP1 PUSH1 0x0 DUP1 PUSH1 0xE0 DUP10 DUP12 SUB SLT ISZERO PUSH2 0x703 JUMPI PUSH1 0x0 DUP1 REVERT JUMPDEST DUP9 CALLDATALOAD PUSH2 0x70E DUP2 PUSH2 0x42F JUMP JUMPDEST SWAP8 POP PUSH1 0x20 DUP10 ADD CALLDATALOAD PUSH2 0x71E DUP2 PUSH2 0x42F JUMP JUMPDEST SWAP7 POP PUSH1 0x40 DUP10 ADD CALLDATALOAD SWAP6 POP PUSH1 0x60 DUP10 ADD CALLDATALOAD PUSH8 0xFFFFFFFFFFFFFFFF DUP2 GT ISZERO PUSH2 0x741 JUMPI PUSH1 0x0 DUP1 REVERT JUMPDEST PUSH2 0x74D DUP12 DUP3 DUP13 ADD PUSH2 0x447 JUMP JUMPDEST SWAP1 SWAP7 POP SWAP5 POP POP PUSH1 0x80 DUP10 ADD CALLDATALOAD PUSH2 0x761 DUP2 PUSH2 0x42F JUMP JUMPDEST SWAP8 SWAP11 SWAP7 SWAP10 POP SWAP5 SWAP8 SWAP4 SWAP7 SWAP3 SWAP6 SWAP3 SWAP5 POP POP POP PUSH1 0xA0 DUP3 ADD CALLDATALOAD SWAP2 PUSH1 0xC0 ADD CALLDATALOAD SWAP1 JUMP JUMPDEST PUSH1 0x0 PUSH1 0x20 DUP3 DUP5 SUB SLT ISZERO PUSH2 0x790 JUMPI PUSH1 0x0 DUP1 REVERT JUMPDEST DUP2 MLOAD PUSH2 0x2A3 DUP2 PUSH2 0x42F JUMP INVALID LOG2 PUSH5 0x6970667358 0x22 SLT KECCAK256 PUSH13 0x82800F64F8FA1F0C4D4CC19D30 DUP7 RETURNDATACOPY EXTCODESIZE 0xBF 0x28 0xD8 0xB8 0xE4 0xCF PUSH25 0x7450A546E85DE38264736F6C63430008110033000000000000 "},"gasEstimates":{"creation":{"codeDepositCost":"400200","executionCost":"436","totalCost":"400636"},"external":{"IMPLMENTATION()":"249","REGISTRY()":"206","account(address,uint256)":"infinite","breakCovalentBond(address,address,uint256,string,address,uint256,uint256)":"infinite","covalentBond(address,uint256,string,address,uint256,uint256)":"infinite","createAccount(address,uint256)":"infinite","dischargeParticle(address,address,uint256,string,address)":"infinite","dischargeParticleAmount(address,address,uint256,string,address,uint256)":"infinite","dischargeParticleForCreator(address,address,uint256,string,address,uint256)":"infinite","energizeParticle(address,uint256,string,address,uint256,address)":"infinite","releaseParticle(address,address,uint256,string,address)":"infinite","releaseParticleAmount(address,address,uint256,string,address,uint256)":"infinite"}},"methodIdentifiers":{"IMPLMENTATION()":"7fdfc7b2","REGISTRY()":"06433b1b","account(address,uint256)":"192df655","breakCovalentBond(address,address,uint256,string,address,uint256,uint256)":"fe02fb00","covalentBond(address,uint256,string,address,uint256,uint256)":"3ff956cc","createAccount(address,uint256)":"5fbfb9cf","dischargeParticle(address,address,uint256,string,address)":"621a3b70","dischargeParticleAmount(address,address,uint256,string,address,uint256)":"6697b359","dischargeParticleForCreator(address,address,uint256,string,address,uint256)":"65d20ce2","energizeParticle(address,uint256,string,address,uint256,address)":"0bdde2ca","releaseParticle(address,address,uint256,string,address)":"acab923c","releaseParticleAmount(address,address,uint256,string,address,uint256)":"a8abef47"}},"storageLayout":{"storage":[],"types":null},"userdoc":{"kind":"user","methods":{},"version":1}}}}