{"contracts/ChargedParticles.sol":{"ChargedParticles":{"abi":[{"inputs":[],"name":"IMPLMENTATION","outputs":[{"internalType":"address","name":"","type":"address"}],"stateMutability":"view","type":"function"},{"inputs":[],"name":"REGISTRY","outputs":[{"internalType":"address","name":"","type":"address"}],"stateMutability":"view","type":"function"},{"inputs":[{"internalType":"uint256","name":"tokenId","type":"uint256"}],"name":"account","outputs":[{"internalType":"address","name":"","type":"address"}],"stateMutability":"view","type":"function"},{"inputs":[{"internalType":"address","name":"receiver","type":"address"},{"internalType":"address","name":"contractAddress","type":"address"},{"internalType":"uint256","name":"tokenId","type":"uint256"},{"internalType":"string","name":"basketManagerId","type":"string"},{"internalType":"address","name":"nftTokenAddress","type":"address"},{"internalType":"uint256","name":"nftTokenId","type":"uint256"},{"internalType":"uint256","name":"nftTokenAmount","type":"uint256"}],"name":"breakCovalentBond","outputs":[{"internalType":"bool","name":"success","type":"bool"}],"stateMutability":"nonpayable","type":"function"},{"inputs":[{"internalType":"address","name":"contractAddress","type":"address"},{"internalType":"uint256","name":"tokenId","type":"uint256"},{"internalType":"string","name":"basketManagerId","type":"string"},{"internalType":"address","name":"nftTokenAddress","type":"address"},{"internalType":"uint256","name":"nftTokenId","type":"uint256"},{"internalType":"uint256","name":"nftTokenAmount","type":"uint256"}],"name":"covalentBond","outputs":[{"internalType":"bool","name":"success","type":"bool"}],"stateMutability":"nonpayable","type":"function"},{"inputs":[{"internalType":"uint256","name":"tokenId","type":"uint256"}],"name":"createAccount","outputs":[{"internalType":"address","name":"","type":"address"}],"stateMutability":"nonpayable","type":"function"},{"inputs":[{"internalType":"address","name":"receiver","type":"address"},{"internalType":"address","name":"contractAddress","type":"address"},{"internalType":"uint256","name":"tokenId","type":"uint256"},{"internalType":"string","name":"walletManagerId","type":"string"},{"internalType":"address","name":"assetToken","type":"address"}],"name":"dischargeParticle","outputs":[{"internalType":"uint256","name":"creatorAmount","type":"uint256"},{"internalType":"uint256","name":"receiverAmount","type":"uint256"}],"stateMutability":"nonpayable","type":"function"},{"inputs":[{"internalType":"address","name":"receiver","type":"address"},{"internalType":"address","name":"contractAddress","type":"address"},{"internalType":"uint256","name":"tokenId","type":"uint256"},{"internalType":"string","name":"walletManagerId","type":"string"},{"internalType":"address","name":"assetToken","type":"address"},{"internalType":"uint256","name":"assetAmount","type":"uint256"}],"name":"dischargeParticleAmount","outputs":[{"internalType":"uint256","name":"creatorAmount","type":"uint256"},{"internalType":"uint256","name":"receiverAmount","type":"uint256"}],"stateMutability":"nonpayable","type":"function"},{"inputs":[{"internalType":"address","name":"receiver","type":"address"},{"internalType":"address","name":"contractAddress","type":"address"},{"internalType":"uint256","name":"tokenId","type":"uint256"},{"internalType":"string","name":"walletManagerId","type":"string"},{"internalType":"address","name":"assetToken","type":"address"},{"internalType":"uint256","name":"assetAmount","type":"uint256"}],"name":"dischargeParticleForCreator","outputs":[{"internalType":"uint256","name":"receiverAmount","type":"uint256"}],"stateMutability":"nonpayable","type":"function"},{"inputs":[{"internalType":"address","name":"contractAddress","type":"address"},{"internalType":"uint256","name":"tokenId","type":"uint256"},{"internalType":"string","name":"walletManagerId","type":"string"},{"internalType":"address","name":"assetToken","type":"address"},{"internalType":"uint256","name":"assetAmount","type":"uint256"},{"internalType":"address","name":"referrer","type":"address"}],"name":"energizeParticle","outputs":[{"internalType":"uint256","name":"yieldTokensAmount","type":"uint256"}],"stateMutability":"nonpayable","type":"function"},{"inputs":[{"internalType":"address","name":"receiver","type":"address"},{"internalType":"address","name":"contractAddress","type":"address"},{"internalType":"uint256","name":"tokenId","type":"uint256"},{"internalType":"string","name":"walletManagerId","type":"string"},{"internalType":"address","name":"assetToken","type":"address"}],"name":"releaseParticle","outputs":[{"internalType":"uint256","name":"creatorAmount","type":"uint256"},{"internalType":"uint256","name":"receiverAmount","type":"uint256"}],"stateMutability":"nonpayable","type":"function"},{"inputs":[{"internalType":"address","name":"receiver","type":"address"},{"internalType":"address","name":"contractAddress","type":"address"},{"internalType":"uint256","name":"tokenId","type":"uint256"},{"internalType":"string","name":"walletManagerId","type":"string"},{"internalType":"address","name":"assetToken","type":"address"},{"internalType":"uint256","name":"assetAmount","type":"uint256"}],"name":"releaseParticleAmount","outputs":[{"internalType":"uint256","name":"creatorAmount","type":"uint256"},{"internalType":"uint256","name":"receiverAmount","type":"uint256"}],"stateMutability":"nonpayable","type":"function"}],"devdoc":{"kind":"dev","methods":{},"version":1},"evm":{"bytecode":{"linkReferences":{},"object":"608060405234801561001057600080fd5b506106c1806100206000396000f3fe608060405234801561001057600080fd5b50600436106100b45760003560e01c80636697b359116100715780636697b3591461018a5780637fdfc7b2146101a7578063a8abef471461018a578063acab923c1461014b578063cab13915146101c2578063fe02fb00146101d557600080fd5b806306433b1b146100b95780630bdde2ca146100f15780632dd7c6581461011a5780633ff956cc1461012d578063621a3b701461014b57806365d20ce21461017c575b600080fd5b6100d47302101dfb77fde026414827fdc604ddaf224f092181565b6040516001600160a01b0390911681526020015b60405180910390f35b61010c6100ff36600461038c565b6000979650505050505050565b6040519081526020016100e8565b6100d461012836600461041c565b6101f1565b61013b6100ff366004610435565b60405190151581526020016100e8565b6101676101593660046104bb565b600080965096945050505050565b604080519283526020830191909152016100e8565b61010c6100ff366004610540565b610167610198366004610540565b60008097509795505050505050565b6100d473a786cf1e3245c792474c5cc7c23213fa2c111a9581565b6100d46101d036600461041c565b61029b565b61013b6101e33660046105d0565b600098975050505050505050565b604051632f4de29b60e11b815273a786cf1e3245c792474c5cc7c23213fa2c111a95600482015246602482015230604482015260648101829052600060848201819052907302101dfb77fde026414827fdc604ddaf224f092190635e9bc5369060a401602060405180830381865afa158015610271573d6000803e3d6000fd5b505050506040513d601f19601f820116820180604052508101906102959190610667565b92915050565b60405163da7323b360e01b815273a786cf1e3245c792474c5cc7c23213fa2c111a9560048201524660248201523060448201526064810182905260006084820181905260c060a483015260c48201819052907302101dfb77fde026414827fdc604ddaf224f09219063da7323b39060e4016020604051808303816000875af1158015610271573d6000803e3d6000fd5b6001600160a01b038116811461034057600080fd5b50565b60008083601f84011261035557600080fd5b50813567ffffffffffffffff81111561036d57600080fd5b60208301915083602082850101111561038557600080fd5b9250929050565b600080600080600080600060c0888a0312156103a757600080fd5b87356103b28161032b565b965060208801359550604088013567ffffffffffffffff8111156103d557600080fd5b6103e18a828b01610343565b90965094505060608801356103f58161032b565b92506080880135915060a088013561040c8161032b565b8091505092959891949750929550565b60006020828403121561042e57600080fd5b5035919050565b600080600080600080600060c0888a03121561045057600080fd5b873561045b8161032b565b965060208801359550604088013567ffffffffffffffff81111561047e57600080fd5b61048a8a828b01610343565b909650945050606088013561049e8161032b565b969995985093969295946080840135945060a09093013592915050565b60008060008060008060a087890312156104d457600080fd5b86356104df8161032b565b955060208701356104ef8161032b565b945060408701359350606087013567ffffffffffffffff81111561051257600080fd5b61051e89828a01610343565b90945092505060808701356105328161032b565b809150509295509295509295565b600080600080600080600060c0888a03121561055b57600080fd5b87356105668161032b565b965060208801356105768161032b565b955060408801359450606088013567ffffffffffffffff81111561059957600080fd5b6105a58a828b01610343565b90955093505060808801356105b98161032b565b8092505060a0880135905092959891949750929550565b60008060008060008060008060e0898b0312156105ec57600080fd5b88356105f78161032b565b975060208901356106078161032b565b965060408901359550606089013567ffffffffffffffff81111561062a57600080fd5b6106368b828c01610343565b909650945050608089013561064a8161032b565b979a969950949793969295929450505060a08201359160c0013590565b60006020828403121561067957600080fd5b81516106848161032b565b939250505056fea2646970667358221220fbc2854883e69ab618eaf7c818df816b0fac087bfab59bd0896cd056981e29f964736f6c63430008110033","opcodes":"PUSH1 0x80 PUSH1 0x40 MSTORE CALLVALUE DUP1 ISZERO PUSH2 0x10 JUMPI PUSH1 0x0 DUP1 REVERT JUMPDEST POP PUSH2 0x6C1 DUP1 PUSH2 0x20 PUSH1 0x0 CODECOPY PUSH1 0x0 RETURN INVALID PUSH1 0x80 PUSH1 0x40 MSTORE CALLVALUE DUP1 ISZERO PUSH2 0x10 JUMPI PUSH1 0x0 DUP1 REVERT JUMPDEST POP PUSH1 0x4 CALLDATASIZE LT PUSH2 0xB4 JUMPI PUSH1 0x0 CALLDATALOAD PUSH1 0xE0 SHR DUP1 PUSH4 0x6697B359 GT PUSH2 0x71 JUMPI DUP1 PUSH4 0x6697B359 EQ PUSH2 0x18A JUMPI DUP1 PUSH4 0x7FDFC7B2 EQ PUSH2 0x1A7 JUMPI DUP1 PUSH4 0xA8ABEF47 EQ PUSH2 0x18A JUMPI DUP1 PUSH4 0xACAB923C EQ PUSH2 0x14B JUMPI DUP1 PUSH4 0xCAB13915 EQ PUSH2 0x1C2 JUMPI DUP1 PUSH4 0xFE02FB00 EQ PUSH2 0x1D5 JUMPI PUSH1 0x0 DUP1 REVERT JUMPDEST DUP1 PUSH4 0x6433B1B EQ PUSH2 0xB9 JUMPI DUP1 PUSH4 0xBDDE2CA EQ PUSH2 0xF1 JUMPI DUP1 PUSH4 0x2DD7C658 EQ PUSH2 0x11A JUMPI DUP1 PUSH4 0x3FF956CC EQ PUSH2 0x12D JUMPI DUP1 PUSH4 0x621A3B70 EQ PUSH2 0x14B JUMPI DUP1 PUSH4 0x65D20CE2 EQ PUSH2 0x17C JUMPI JUMPDEST PUSH1 0x0 DUP1 REVERT JUMPDEST PUSH2 0xD4 PUSH20 0x2101DFB77FDE026414827FDC604DDAF224F0921 DUP2 JUMP JUMPDEST PUSH1 0x40 MLOAD PUSH1 0x1 PUSH1 0x1 PUSH1 0xA0 SHL SUB SWAP1 SWAP2 AND DUP2 MSTORE PUSH1 0x20 ADD JUMPDEST PUSH1 0x40 MLOAD DUP1 SWAP2 SUB SWAP1 RETURN JUMPDEST PUSH2 0x10C PUSH2 0xFF CALLDATASIZE PUSH1 0x4 PUSH2 0x38C JUMP JUMPDEST PUSH1 0x0 SWAP8 SWAP7 POP POP POP POP POP POP POP JUMP JUMPDEST PUSH1 0x40 MLOAD SWAP1 DUP2 MSTORE PUSH1 0x20 ADD PUSH2 0xE8 JUMP JUMPDEST PUSH2 0xD4 PUSH2 0x128 CALLDATASIZE PUSH1 0x4 PUSH2 0x41C JUMP JUMPDEST PUSH2 0x1F1 JUMP JUMPDEST PUSH2 0x13B PUSH2 0xFF CALLDATASIZE PUSH1 0x4 PUSH2 0x435 JUMP JUMPDEST PUSH1 0x40 MLOAD SWAP1 ISZERO ISZERO DUP2 MSTORE PUSH1 0x20 ADD PUSH2 0xE8 JUMP JUMPDEST PUSH2 0x167 PUSH2 0x159 CALLDATASIZE PUSH1 0x4 PUSH2 0x4BB JUMP JUMPDEST PUSH1 0x0 DUP1 SWAP7 POP SWAP7 SWAP5 POP POP POP POP POP JUMP JUMPDEST PUSH1 0x40 DUP1 MLOAD SWAP3 DUP4 MSTORE PUSH1 0x20 DUP4 ADD SWAP2 SWAP1 SWAP2 MSTORE ADD PUSH2 0xE8 JUMP JUMPDEST PUSH2 0x10C PUSH2 0xFF CALLDATASIZE PUSH1 0x4 PUSH2 0x540 JUMP JUMPDEST PUSH2 0x167 PUSH2 0x198 CALLDATASIZE PUSH1 0x4 PUSH2 0x540 JUMP JUMPDEST PUSH1 0x0 DUP1 SWAP8 POP SWAP8 SWAP6 POP POP POP POP POP POP JUMP JUMPDEST PUSH2 0xD4 PUSH20 0xA786CF1E3245C792474C5CC7C23213FA2C111A95 DUP2 JUMP JUMPDEST PUSH2 0xD4 PUSH2 0x1D0 CALLDATASIZE PUSH1 0x4 PUSH2 0x41C JUMP JUMPDEST PUSH2 0x29B JUMP JUMPDEST PUSH2 0x13B PUSH2 0x1E3 CALLDATASIZE PUSH1 0x4 PUSH2 0x5D0 JUMP JUMPDEST PUSH1 0x0 SWAP9 SWAP8 POP POP POP POP POP POP POP POP JUMP JUMPDEST PUSH1 0x40 MLOAD PUSH4 0x2F4DE29B PUSH1 0xE1 SHL DUP2 MSTORE PUSH20 0xA786CF1E3245C792474C5CC7C23213FA2C111A95 PUSH1 0x4 DUP3 ADD MSTORE CHAINID PUSH1 0x24 DUP3 ADD MSTORE ADDRESS PUSH1 0x44 DUP3 ADD MSTORE PUSH1 0x64 DUP2 ADD DUP3 SWAP1 MSTORE PUSH1 0x0 PUSH1 0x84 DUP3 ADD DUP2 SWAP1 MSTORE SWAP1 PUSH20 0x2101DFB77FDE026414827FDC604DDAF224F0921 SWAP1 PUSH4 0x5E9BC536 SWAP1 PUSH1 0xA4 ADD PUSH1 0x20 PUSH1 0x40 MLOAD DUP1 DUP4 SUB DUP2 DUP7 GAS STATICCALL ISZERO DUP1 ISZERO PUSH2 0x271 JUMPI RETURNDATASIZE PUSH1 0x0 DUP1 RETURNDATACOPY RETURNDATASIZE PUSH1 0x0 REVERT JUMPDEST POP POP POP POP PUSH1 0x40 MLOAD RETURNDATASIZE PUSH1 0x1F NOT PUSH1 0x1F DUP3 ADD AND DUP3 ADD DUP1 PUSH1 0x40 MSTORE POP DUP2 ADD SWAP1 PUSH2 0x295 SWAP2 SWAP1 PUSH2 0x667 JUMP JUMPDEST SWAP3 SWAP2 POP POP JUMP JUMPDEST PUSH1 0x40 MLOAD PUSH4 0xDA7323B3 PUSH1 0xE0 SHL DUP2 MSTORE PUSH20 0xA786CF1E3245C792474C5CC7C23213FA2C111A95 PUSH1 0x4 DUP3 ADD MSTORE CHAINID PUSH1 0x24 DUP3 ADD MSTORE ADDRESS PUSH1 0x44 DUP3 ADD MSTORE PUSH1 0x64 DUP2 ADD DUP3 SWAP1 MSTORE PUSH1 0x0 PUSH1 0x84 DUP3 ADD DUP2 SWAP1 MSTORE PUSH1 0xC0 PUSH1 0xA4 DUP4 ADD MSTORE PUSH1 0xC4 DUP3 ADD DUP2 SWAP1 MSTORE SWAP1 PUSH20 0x2101DFB77FDE026414827FDC604DDAF224F0921 SWAP1 PUSH4 0xDA7323B3 SWAP1 PUSH1 0xE4 ADD PUSH1 0x20 PUSH1 0x40 MLOAD DUP1 DUP4 SUB DUP2 PUSH1 0x0 DUP8 GAS CALL ISZERO DUP1 ISZERO PUSH2 0x271 JUMPI RETURNDATASIZE PUSH1 0x0 DUP1 RETURNDATACOPY RETURNDATASIZE PUSH1 0x0 REVERT JUMPDEST PUSH1 0x1 PUSH1 0x1 PUSH1 0xA0 SHL SUB DUP2 AND DUP2 EQ PUSH2 0x340 JUMPI PUSH1 0x0 DUP1 REVERT JUMPDEST POP JUMP JUMPDEST PUSH1 0x0 DUP1 DUP4 PUSH1 0x1F DUP5 ADD SLT PUSH2 0x355 JUMPI PUSH1 0x0 DUP1 REVERT JUMPDEST POP DUP2 CALLDATALOAD PUSH8 0xFFFFFFFFFFFFFFFF DUP2 GT ISZERO PUSH2 0x36D JUMPI PUSH1 0x0 DUP1 REVERT JUMPDEST PUSH1 0x20 DUP4 ADD SWAP2 POP DUP4 PUSH1 0x20 DUP3 DUP6 ADD ADD GT ISZERO PUSH2 0x385 JUMPI PUSH1 0x0 DUP1 REVERT JUMPDEST SWAP3 POP SWAP3 SWAP1 POP JUMP JUMPDEST PUSH1 0x0 DUP1 PUSH1 0x0 DUP1 PUSH1 0x0 DUP1 PUSH1 0x0 PUSH1 0xC0 DUP9 DUP11 SUB SLT ISZERO PUSH2 0x3A7 JUMPI PUSH1 0x0 DUP1 REVERT JUMPDEST DUP8 CALLDATALOAD PUSH2 0x3B2 DUP2 PUSH2 0x32B JUMP JUMPDEST SWAP7 POP PUSH1 0x20 DUP9 ADD CALLDATALOAD SWAP6 POP PUSH1 0x40 DUP9 ADD CALLDATALOAD PUSH8 0xFFFFFFFFFFFFFFFF DUP2 GT ISZERO PUSH2 0x3D5 JUMPI PUSH1 0x0 DUP1 REVERT JUMPDEST PUSH2 0x3E1 DUP11 DUP3 DUP12 ADD PUSH2 0x343 JUMP JUMPDEST SWAP1 SWAP7 POP SWAP5 POP POP PUSH1 0x60 DUP9 ADD CALLDATALOAD PUSH2 0x3F5 DUP2 PUSH2 0x32B JUMP JUMPDEST SWAP3 POP PUSH1 0x80 DUP9 ADD CALLDATALOAD SWAP2 POP PUSH1 0xA0 DUP9 ADD CALLDATALOAD PUSH2 0x40C DUP2 PUSH2 0x32B JUMP JUMPDEST DUP1 SWAP2 POP POP SWAP3 SWAP6 SWAP9 SWAP2 SWAP5 SWAP8 POP SWAP3 SWAP6 POP JUMP JUMPDEST PUSH1 0x0 PUSH1 0x20 DUP3 DUP5 SUB SLT ISZERO PUSH2 0x42E JUMPI PUSH1 0x0 DUP1 REVERT JUMPDEST POP CALLDATALOAD SWAP2 SWAP1 POP JUMP JUMPDEST PUSH1 0x0 DUP1 PUSH1 0x0 DUP1 PUSH1 0x0 DUP1 PUSH1 0x0 PUSH1 0xC0 DUP9 DUP11 SUB SLT ISZERO PUSH2 0x450 JUMPI PUSH1 0x0 DUP1 REVERT JUMPDEST DUP8 CALLDATALOAD PUSH2 0x45B DUP2 PUSH2 0x32B JUMP JUMPDEST SWAP7 POP PUSH1 0x20 DUP9 ADD CALLDATALOAD SWAP6 POP PUSH1 0x40 DUP9 ADD CALLDATALOAD PUSH8 0xFFFFFFFFFFFFFFFF DUP2 GT ISZERO PUSH2 0x47E JUMPI PUSH1 0x0 DUP1 REVERT JUMPDEST PUSH2 0x48A DUP11 DUP3 DUP12 ADD PUSH2 0x343 JUMP JUMPDEST SWAP1 SWAP7 POP SWAP5 POP POP PUSH1 0x60 DUP9 ADD CALLDATALOAD PUSH2 0x49E DUP2 PUSH2 0x32B JUMP JUMPDEST SWAP7 SWAP10 SWAP6 SWAP9 POP SWAP4 SWAP7 SWAP3 SWAP6 SWAP5 PUSH1 0x80 DUP5 ADD CALLDATALOAD SWAP5 POP PUSH1 0xA0 SWAP1 SWAP4 ADD CALLDATALOAD SWAP3 SWAP2 POP POP JUMP JUMPDEST PUSH1 0x0 DUP1 PUSH1 0x0 DUP1 PUSH1 0x0 DUP1 PUSH1 0xA0 DUP8 DUP10 SUB SLT ISZERO PUSH2 0x4D4 JUMPI PUSH1 0x0 DUP1 REVERT JUMPDEST DUP7 CALLDATALOAD PUSH2 0x4DF DUP2 PUSH2 0x32B JUMP JUMPDEST SWAP6 POP PUSH1 0x20 DUP8 ADD CALLDATALOAD PUSH2 0x4EF DUP2 PUSH2 0x32B JUMP JUMPDEST SWAP5 POP PUSH1 0x40 DUP8 ADD CALLDATALOAD SWAP4 POP PUSH1 0x60 DUP8 ADD CALLDATALOAD PUSH8 0xFFFFFFFFFFFFFFFF DUP2 GT ISZERO PUSH2 0x512 JUMPI PUSH1 0x0 DUP1 REVERT JUMPDEST PUSH2 0x51E DUP10 DUP3 DUP11 ADD PUSH2 0x343 JUMP JUMPDEST SWAP1 SWAP5 POP SWAP3 POP POP PUSH1 0x80 DUP8 ADD CALLDATALOAD PUSH2 0x532 DUP2 PUSH2 0x32B JUMP JUMPDEST DUP1 SWAP2 POP POP SWAP3 SWAP6 POP SWAP3 SWAP6 POP SWAP3 SWAP6 JUMP JUMPDEST PUSH1 0x0 DUP1 PUSH1 0x0 DUP1 PUSH1 0x0 DUP1 PUSH1 0x0 PUSH1 0xC0 DUP9 DUP11 SUB SLT ISZERO PUSH2 0x55B JUMPI PUSH1 0x0 DUP1 REVERT JUMPDEST DUP8 CALLDATALOAD PUSH2 0x566 DUP2 PUSH2 0x32B JUMP JUMPDEST SWAP7 POP PUSH1 0x20 DUP9 ADD CALLDATALOAD PUSH2 0x576 DUP2 PUSH2 0x32B JUMP JUMPDEST SWAP6 POP PUSH1 0x40 DUP9 ADD CALLDATALOAD SWAP5 POP PUSH1 0x60 DUP9 ADD CALLDATALOAD PUSH8 0xFFFFFFFFFFFFFFFF DUP2 GT ISZERO PUSH2 0x599 JUMPI PUSH1 0x0 DUP1 REVERT JUMPDEST PUSH2 0x5A5 DUP11 DUP3 DUP12 ADD PUSH2 0x343 JUMP JUMPDEST SWAP1 SWAP6 POP SWAP4 POP POP PUSH1 0x80 DUP9 ADD CALLDATALOAD PUSH2 0x5B9 DUP2 PUSH2 0x32B JUMP JUMPDEST DUP1 SWAP3 POP POP PUSH1 0xA0 DUP9 ADD CALLDATALOAD SWAP1 POP SWAP3 SWAP6 SWAP9 SWAP2 SWAP5 SWAP8 POP SWAP3 SWAP6 POP JUMP JUMPDEST PUSH1 0x0 DUP1 PUSH1 0x0 DUP1 PUSH1 0x0 DUP1 PUSH1 0x0 DUP1 PUSH1 0xE0 DUP10 DUP12 SUB SLT ISZERO PUSH2 0x5EC JUMPI PUSH1 0x0 DUP1 REVERT JUMPDEST DUP9 CALLDATALOAD PUSH2 0x5F7 DUP2 PUSH2 0x32B JUMP JUMPDEST SWAP8 POP PUSH1 0x20 DUP10 ADD CALLDATALOAD PUSH2 0x607 DUP2 PUSH2 0x32B JUMP JUMPDEST SWAP7 POP PUSH1 0x40 DUP10 ADD CALLDATALOAD SWAP6 POP PUSH1 0x60 DUP10 ADD CALLDATALOAD PUSH8 0xFFFFFFFFFFFFFFFF DUP2 GT ISZERO PUSH2 0x62A JUMPI PUSH1 0x0 DUP1 REVERT JUMPDEST PUSH2 0x636 DUP12 DUP3 DUP13 ADD PUSH2 0x343 JUMP JUMPDEST SWAP1 SWAP7 POP SWAP5 POP POP PUSH1 0x80 DUP10 ADD CALLDATALOAD PUSH2 0x64A DUP2 PUSH2 0x32B JUMP JUMPDEST SWAP8 SWAP11 SWAP7 SWAP10 POP SWAP5 SWAP8 SWAP4 SWAP7 SWAP3 SWAP6 SWAP3 SWAP5 POP POP POP PUSH1 0xA0 DUP3 ADD CALLDATALOAD SWAP2 PUSH1 0xC0 ADD CALLDATALOAD SWAP1 JUMP JUMPDEST PUSH1 0x0 PUSH1 0x20 DUP3 DUP5 SUB SLT ISZERO PUSH2 0x679 JUMPI PUSH1 0x0 DUP1 REVERT JUMPDEST DUP2 MLOAD PUSH2 0x684 DUP2 PUSH2 0x32B JUMP JUMPDEST SWAP4 SWAP3 POP POP POP JUMP INVALID LOG2 PUSH5 0x6970667358 0x22 SLT KECCAK256 0xFB 0xC2 DUP6 BASEFEE DUP4 0xE6 SWAP11 0xB6 XOR 0xEA 0xF7 0xC8 XOR 0xDF DUP2 PUSH12 0xFAC087BFAB59BD0896CD056 SWAP9 0x1E 0x29 0xF9 PUSH5 0x736F6C6343 STOP ADDMOD GT STOP CALLER "},"gasEstimates":{"creation":{"codeDepositCost":"345800","executionCost":"386","totalCost":"346186"},"external":{"IMPLMENTATION()":"227","REGISTRY()":"206","account(uint256)":"infinite","breakCovalentBond(address,address,uint256,string,address,uint256,uint256)":"infinite","covalentBond(address,uint256,string,address,uint256,uint256)":"infinite","createAccount(uint256)":"infinite","dischargeParticle(address,address,uint256,string,address)":"infinite","dischargeParticleAmount(address,address,uint256,string,address,uint256)":"infinite","dischargeParticleForCreator(address,address,uint256,string,address,uint256)":"infinite","energizeParticle(address,uint256,string,address,uint256,address)":"infinite","releaseParticle(address,address,uint256,string,address)":"infinite","releaseParticleAmount(address,address,uint256,string,address,uint256)":"infinite"}},"methodIdentifiers":{"IMPLMENTATION()":"7fdfc7b2","REGISTRY()":"06433b1b","account(uint256)":"2dd7c658","breakCovalentBond(address,address,uint256,string,address,uint256,uint256)":"fe02fb00","covalentBond(address,uint256,string,address,uint256,uint256)":"3ff956cc","createAccount(uint256)":"cab13915","dischargeParticle(address,address,uint256,string,address)":"621a3b70","dischargeParticleAmount(address,address,uint256,string,address,uint256)":"6697b359","dischargeParticleForCreator(address,address,uint256,string,address,uint256)":"65d20ce2","energizeParticle(address,uint256,string,address,uint256,address)":"0bdde2ca","releaseParticle(address,address,uint256,string,address)":"acab923c","releaseParticleAmount(address,address,uint256,string,address,uint256)":"a8abef47"}},"storageLayout":{"storage":[],"types":null},"userdoc":{"kind":"user","methods":{},"version":1}}}}