{"contracts/AccountRegistryBridge.sol":{"AccountRegistryBridge":{"abi":[{"inputs":[],"name":"IMPLMENTATION","outputs":[{"internalType":"address","name":"","type":"address"}],"stateMutability":"view","type":"function"},{"inputs":[],"name":"REGISTRY","outputs":[{"internalType":"address","name":"","type":"address"}],"stateMutability":"view","type":"function"},{"inputs":[{"internalType":"uint256","name":"tokenId","type":"uint256"}],"name":"account","outputs":[{"internalType":"address","name":"","type":"address"}],"stateMutability":"view","type":"function"},{"inputs":[{"internalType":"uint256","name":"tokenId","type":"uint256"}],"name":"createAccount","outputs":[{"internalType":"address","name":"","type":"address"}],"stateMutability":"nonpayable","type":"function"}],"devdoc":{"kind":"dev","methods":{},"version":1},"evm":{"bytecode":{"linkReferences":{},"object":"608060405234801561001057600080fd5b50610282806100206000396000f3fe608060405234801561001057600080fd5b506004361061004c5760003560e01c806306433b1b146100515780632dd7c658146100885780637fdfc7b21461009b578063cab13915146100b6575b600080fd5b61006c7302101dfb77fde026414827fdc604ddaf224f092181565b6040516001600160a01b03909116815260200160405180910390f35b61006c610096366004610203565b6100c9565b61006c73a786cf1e3245c792474c5cc7c23213fa2c111a9581565b61006c6100c4366004610203565b610173565b604051632f4de29b60e11b815273a786cf1e3245c792474c5cc7c23213fa2c111a95600482015246602482015230604482015260648101829052600060848201819052907302101dfb77fde026414827fdc604ddaf224f092190635e9bc5369060a401602060405180830381865afa158015610149573d6000803e3d6000fd5b505050506040513d601f19601f8201168201806040525081019061016d919061021c565b92915050565b60405163da7323b360e01b815273a786cf1e3245c792474c5cc7c23213fa2c111a9560048201524660248201523060448201526064810182905260006084820181905260c060a483015260c48201819052907302101dfb77fde026414827fdc604ddaf224f09219063da7323b39060e4016020604051808303816000875af1158015610149573d6000803e3d6000fd5b60006020828403121561021557600080fd5b5035919050565b60006020828403121561022e57600080fd5b81516001600160a01b038116811461024557600080fd5b939250505056fea2646970667358221220c2aee62b032dc558482090e3792fa4d9e082dfdb33a749ea62cfa47237e1894364736f6c63430008110033","opcodes":"PUSH1 0x80 PUSH1 0x40 MSTORE CALLVALUE DUP1 ISZERO PUSH2 0x10 JUMPI PUSH1 0x0 DUP1 REVERT JUMPDEST POP PUSH2 0x282 DUP1 PUSH2 0x20 PUSH1 0x0 CODECOPY PUSH1 0x0 RETURN INVALID PUSH1 0x80 PUSH1 0x40 MSTORE CALLVALUE DUP1 ISZERO PUSH2 0x10 JUMPI PUSH1 0x0 DUP1 REVERT JUMPDEST POP PUSH1 0x4 CALLDATASIZE LT PUSH2 0x4C JUMPI PUSH1 0x0 CALLDATALOAD PUSH1 0xE0 SHR DUP1 PUSH4 0x6433B1B EQ PUSH2 0x51 JUMPI DUP1 PUSH4 0x2DD7C658 EQ PUSH2 0x88 JUMPI DUP1 PUSH4 0x7FDFC7B2 EQ PUSH2 0x9B JUMPI DUP1 PUSH4 0xCAB13915 EQ PUSH2 0xB6 JUMPI JUMPDEST PUSH1 0x0 DUP1 REVERT JUMPDEST PUSH2 0x6C PUSH20 0x2101DFB77FDE026414827FDC604DDAF224F0921 DUP2 JUMP JUMPDEST PUSH1 0x40 MLOAD PUSH1 0x1 PUSH1 0x1 PUSH1 0xA0 SHL SUB SWAP1 SWAP2 AND DUP2 MSTORE PUSH1 0x20 ADD PUSH1 0x40 MLOAD DUP1 SWAP2 SUB SWAP1 RETURN JUMPDEST PUSH2 0x6C PUSH2 0x96 CALLDATASIZE PUSH1 0x4 PUSH2 0x203 JUMP JUMPDEST PUSH2 0xC9 JUMP JUMPDEST PUSH2 0x6C PUSH20 0xA786CF1E3245C792474C5CC7C23213FA2C111A95 DUP2 JUMP JUMPDEST PUSH2 0x6C PUSH2 0xC4 CALLDATASIZE PUSH1 0x4 PUSH2 0x203 JUMP JUMPDEST PUSH2 0x173 JUMP JUMPDEST PUSH1 0x40 MLOAD PUSH4 0x2F4DE29B PUSH1 0xE1 SHL DUP2 MSTORE PUSH20 0xA786CF1E3245C792474C5CC7C23213FA2C111A95 PUSH1 0x4 DUP3 ADD MSTORE CHAINID PUSH1 0x24 DUP3 ADD MSTORE ADDRESS PUSH1 0x44 DUP3 ADD MSTORE PUSH1 0x64 DUP2 ADD DUP3 SWAP1 MSTORE PUSH1 0x0 PUSH1 0x84 DUP3 ADD DUP2 SWAP1 MSTORE SWAP1 PUSH20 0x2101DFB77FDE026414827FDC604DDAF224F0921 SWAP1 PUSH4 0x5E9BC536 SWAP1 PUSH1 0xA4 ADD PUSH1 0x20 PUSH1 0x40 MLOAD DUP1 DUP4 SUB DUP2 DUP7 GAS STATICCALL ISZERO DUP1 ISZERO PUSH2 0x149 JUMPI RETURNDATASIZE PUSH1 0x0 DUP1 RETURNDATACOPY RETURNDATASIZE PUSH1 0x0 REVERT JUMPDEST POP POP POP POP PUSH1 0x40 MLOAD RETURNDATASIZE PUSH1 0x1F NOT PUSH1 0x1F DUP3 ADD AND DUP3 ADD DUP1 PUSH1 0x40 MSTORE POP DUP2 ADD SWAP1 PUSH2 0x16D SWAP2 SWAP1 PUSH2 0x21C JUMP JUMPDEST SWAP3 SWAP2 POP POP JUMP JUMPDEST PUSH1 0x40 MLOAD PUSH4 0xDA7323B3 PUSH1 0xE0 SHL DUP2 MSTORE PUSH20 0xA786CF1E3245C792474C5CC7C23213FA2C111A95 PUSH1 0x4 DUP3 ADD MSTORE CHAINID PUSH1 0x24 DUP3 ADD MSTORE ADDRESS PUSH1 0x44 DUP3 ADD MSTORE PUSH1 0x64 DUP2 ADD DUP3 SWAP1 MSTORE PUSH1 0x0 PUSH1 0x84 DUP3 ADD DUP2 SWAP1 MSTORE PUSH1 0xC0 PUSH1 0xA4 DUP4 ADD MSTORE PUSH1 0xC4 DUP3 ADD DUP2 SWAP1 MSTORE SWAP1 PUSH20 0x2101DFB77FDE026414827FDC604DDAF224F0921 SWAP1 PUSH4 0xDA7323B3 SWAP1 PUSH1 0xE4 ADD PUSH1 0x20 PUSH1 0x40 MLOAD DUP1 DUP4 SUB DUP2 PUSH1 0x0 DUP8 GAS CALL ISZERO DUP1 ISZERO PUSH2 0x149 JUMPI RETURNDATASIZE PUSH1 0x0 DUP1 RETURNDATACOPY RETURNDATASIZE PUSH1 0x0 REVERT JUMPDEST PUSH1 0x0 PUSH1 0x20 DUP3 DUP5 SUB SLT ISZERO PUSH2 0x215 JUMPI PUSH1 0x0 DUP1 REVERT JUMPDEST POP CALLDATALOAD SWAP2 SWAP1 POP JUMP JUMPDEST PUSH1 0x0 PUSH1 0x20 DUP3 DUP5 SUB SLT ISZERO PUSH2 0x22E JUMPI PUSH1 0x0 DUP1 REVERT JUMPDEST DUP2 MLOAD PUSH1 0x1 PUSH1 0x1 PUSH1 0xA0 SHL SUB DUP2 AND DUP2 EQ PUSH2 0x245 JUMPI PUSH1 0x0 DUP1 REVERT JUMPDEST SWAP4 SWAP3 POP POP POP JUMP INVALID LOG2 PUSH5 0x6970667358 0x22 SLT KECCAK256 0xC2 0xAE 0xE6 0x2B SUB 0x2D 0xC5 PC BASEFEE KECCAK256 SWAP1 0xE3 PUSH26 0x2FA4D9E082DFDB33A749EA62CFA47237E1894364736F6C634300 ADDMOD GT STOP CALLER "},"gasEstimates":{"creation":{"codeDepositCost":"128400","executionCost":"177","totalCost":"128577"},"external":{"IMPLMENTATION()":"226","REGISTRY()":"182","account(uint256)":"infinite","createAccount(uint256)":"infinite"}},"methodIdentifiers":{"IMPLMENTATION()":"7fdfc7b2","REGISTRY()":"06433b1b","account(uint256)":"2dd7c658","createAccount(uint256)":"cab13915"}},"storageLayout":{"storage":[],"types":null},"userdoc":{"kind":"user","methods":{},"version":1}}}}