{
  "_format": "hh-sol-artifact-1",
  "contractName": "GenericWalletManagerB",
  "sourceName": "contracts/v1/yield/generic/ERC20/GenericWalletManagerB.sol",
  "abi": [
    {
      "inputs": [],
      "stateMutability": "nonpayable",
      "type": "constructor"
    },
    {
      "anonymous": false,
      "inputs": [
        {
          "indexed": true,
          "internalType": "address",
          "name": "controller",
          "type": "address"
        }
      ],
      "name": "ControllerSet",
      "type": "event"
    },
    {
      "anonymous": false,
      "inputs": [
        {
          "indexed": true,
          "internalType": "address",
          "name": "executor",
          "type": "address"
        }
      ],
      "name": "ExecutorSet",
      "type": "event"
    },
    {
      "anonymous": false,
      "inputs": [
        {
          "indexed": true,
          "internalType": "address",
          "name": "contractAddress",
          "type": "address"
        },
        {
          "indexed": true,
          "internalType": "uint256",
          "name": "tokenId",
          "type": "uint256"
        },
        {
          "indexed": true,
          "internalType": "address",
          "name": "smartWallet",
          "type": "address"
        },
        {
          "indexed": false,
          "internalType": "address",
          "name": "creator",
          "type": "address"
        },
        {
          "indexed": false,
          "internalType": "uint256",
          "name": "annuityPct",
          "type": "uint256"
        }
      ],
      "name": "NewSmartWallet",
      "type": "event"
    },
    {
      "anonymous": false,
      "inputs": [
        {
          "indexed": true,
          "internalType": "address",
          "name": "previousOwner",
          "type": "address"
        },
        {
          "indexed": true,
          "internalType": "address",
          "name": "newOwner",
          "type": "address"
        }
      ],
      "name": "OwnershipTransferred",
      "type": "event"
    },
    {
      "anonymous": false,
      "inputs": [
        {
          "indexed": false,
          "internalType": "bool",
          "name": "isPaused",
          "type": "bool"
        }
      ],
      "name": "PausedStateSet",
      "type": "event"
    },
    {
      "anonymous": false,
      "inputs": [
        {
          "indexed": true,
          "internalType": "address",
          "name": "contractAddress",
          "type": "address"
        },
        {
          "indexed": true,
          "internalType": "uint256",
          "name": "tokenId",
          "type": "uint256"
        },
        {
          "indexed": true,
          "internalType": "address",
          "name": "assetToken",
          "type": "address"
        },
        {
          "indexed": false,
          "internalType": "uint256",
          "name": "creatorAmount",
          "type": "uint256"
        },
        {
          "indexed": false,
          "internalType": "uint256",
          "name": "receiverAmount",
          "type": "uint256"
        }
      ],
      "name": "WalletDischarged",
      "type": "event"
    },
    {
      "anonymous": false,
      "inputs": [
        {
          "indexed": true,
          "internalType": "address",
          "name": "contractAddress",
          "type": "address"
        },
        {
          "indexed": true,
          "internalType": "uint256",
          "name": "tokenId",
          "type": "uint256"
        },
        {
          "indexed": true,
          "internalType": "address",
          "name": "assetToken",
          "type": "address"
        },
        {
          "indexed": false,
          "internalType": "address",
          "name": "creator",
          "type": "address"
        },
        {
          "indexed": false,
          "internalType": "uint256",
          "name": "receiverAmount",
          "type": "uint256"
        }
      ],
      "name": "WalletDischargedForCreator",
      "type": "event"
    },
    {
      "anonymous": false,
      "inputs": [
        {
          "indexed": true,
          "internalType": "address",
          "name": "contractAddress",
          "type": "address"
        },
        {
          "indexed": true,
          "internalType": "uint256",
          "name": "tokenId",
          "type": "uint256"
        },
        {
          "indexed": true,
          "internalType": "address",
          "name": "assetToken",
          "type": "address"
        },
        {
          "indexed": false,
          "internalType": "uint256",
          "name": "assetAmount",
          "type": "uint256"
        },
        {
          "indexed": false,
          "internalType": "uint256",
          "name": "yieldTokensAmount",
          "type": "uint256"
        }
      ],
      "name": "WalletEnergized",
      "type": "event"
    },
    {
      "anonymous": false,
      "inputs": [
        {
          "indexed": true,
          "internalType": "address",
          "name": "contractAddress",
          "type": "address"
        },
        {
          "indexed": true,
          "internalType": "uint256",
          "name": "tokenId",
          "type": "uint256"
        },
        {
          "indexed": true,
          "internalType": "address",
          "name": "receiver",
          "type": "address"
        },
        {
          "indexed": false,
          "internalType": "address",
          "name": "assetToken",
          "type": "address"
        },
        {
          "indexed": false,
          "internalType": "uint256",
          "name": "principalAmount",
          "type": "uint256"
        },
        {
          "indexed": false,
          "internalType": "uint256",
          "name": "creatorAmount",
          "type": "uint256"
        },
        {
          "indexed": false,
          "internalType": "uint256",
          "name": "receiverAmount",
          "type": "uint256"
        }
      ],
      "name": "WalletReleased",
      "type": "event"
    },
    {
      "anonymous": false,
      "inputs": [
        {
          "indexed": true,
          "internalType": "address",
          "name": "contractAddress",
          "type": "address"
        },
        {
          "indexed": true,
          "internalType": "uint256",
          "name": "tokenId",
          "type": "uint256"
        },
        {
          "indexed": true,
          "internalType": "address",
          "name": "receiver",
          "type": "address"
        },
        {
          "indexed": false,
          "internalType": "address",
          "name": "rewardsToken",
          "type": "address"
        },
        {
          "indexed": false,
          "internalType": "uint256",
          "name": "rewardsAmount",
          "type": "uint256"
        }
      ],
      "name": "WalletRewarded",
      "type": "event"
    },
    {
      "anonymous": false,
      "inputs": [
        {
          "indexed": true,
          "internalType": "address",
          "name": "receiver",
          "type": "address"
        },
        {
          "indexed": true,
          "internalType": "address",
          "name": "tokenAddress",
          "type": "address"
        },
        {
          "indexed": true,
          "internalType": "uint256",
          "name": "tokenId",
          "type": "uint256"
        },
        {
          "indexed": false,
          "internalType": "uint256",
          "name": "amount",
          "type": "uint256"
        }
      ],
      "name": "WithdrawStuckERC1155",
      "type": "event"
    },
    {
      "anonymous": false,
      "inputs": [
        {
          "indexed": true,
          "internalType": "address",
          "name": "receiver",
          "type": "address"
        },
        {
          "indexed": true,
          "internalType": "address",
          "name": "tokenAddress",
          "type": "address"
        },
        {
          "indexed": false,
          "internalType": "uint256",
          "name": "amount",
          "type": "uint256"
        }
      ],
      "name": "WithdrawStuckERC20",
      "type": "event"
    },
    {
      "anonymous": false,
      "inputs": [
        {
          "indexed": true,
          "internalType": "address",
          "name": "receiver",
          "type": "address"
        },
        {
          "indexed": true,
          "internalType": "address",
          "name": "tokenAddress",
          "type": "address"
        },
        {
          "indexed": true,
          "internalType": "uint256",
          "name": "tokenId",
          "type": "uint256"
        }
      ],
      "name": "WithdrawStuckERC721",
      "type": "event"
    },
    {
      "anonymous": false,
      "inputs": [
        {
          "indexed": true,
          "internalType": "address",
          "name": "receiver",
          "type": "address"
        },
        {
          "indexed": false,
          "internalType": "uint256",
          "name": "amount",
          "type": "uint256"
        }
      ],
      "name": "WithdrawStuckEther",
      "type": "event"
    },
    {
      "inputs": [
        {
          "internalType": "address",
          "name": "",
          "type": "address"
        },
        {
          "internalType": "address",
          "name": "",
          "type": "address"
        },
        {
          "internalType": "uint256",
          "name": "",
          "type": "uint256"
        },
        {
          "internalType": "address",
          "name": "",
          "type": "address"
        },
        {
          "internalType": "address",
          "name": "",
          "type": "address"
        }
      ],
      "name": "discharge",
      "outputs": [
        {
          "internalType": "uint256",
          "name": "creatorAmount",
          "type": "uint256"
        },
        {
          "internalType": "uint256",
          "name": "receiverAmount",
          "type": "uint256"
        }
      ],
      "stateMutability": "nonpayable",
      "type": "function"
    },
    {
      "inputs": [
        {
          "internalType": "address",
          "name": "",
          "type": "address"
        },
        {
          "internalType": "address",
          "name": "",
          "type": "address"
        },
        {
          "internalType": "uint256",
          "name": "",
          "type": "uint256"
        },
        {
          "internalType": "address",
          "name": "",
          "type": "address"
        },
        {
          "internalType": "uint256",
          "name": "",
          "type": "uint256"
        },
        {
          "internalType": "address",
          "name": "",
          "type": "address"
        }
      ],
      "name": "dischargeAmount",
      "outputs": [
        {
          "internalType": "uint256",
          "name": "creatorAmount",
          "type": "uint256"
        },
        {
          "internalType": "uint256",
          "name": "receiverAmount",
          "type": "uint256"
        }
      ],
      "stateMutability": "nonpayable",
      "type": "function"
    },
    {
      "inputs": [
        {
          "internalType": "address",
          "name": "",
          "type": "address"
        },
        {
          "internalType": "address",
          "name": "",
          "type": "address"
        },
        {
          "internalType": "uint256",
          "name": "",
          "type": "uint256"
        },
        {
          "internalType": "address",
          "name": "",
          "type": "address"
        },
        {
          "internalType": "address",
          "name": "",
          "type": "address"
        },
        {
          "internalType": "uint256",
          "name": "",
          "type": "uint256"
        }
      ],
      "name": "dischargeAmountForCreator",
      "outputs": [
        {
          "internalType": "uint256",
          "name": "receiverAmount",
          "type": "uint256"
        }
      ],
      "stateMutability": "nonpayable",
      "type": "function"
    },
    {
      "inputs": [
        {
          "internalType": "address",
          "name": "contractAddress",
          "type": "address"
        },
        {
          "internalType": "uint256",
          "name": "tokenId",
          "type": "uint256"
        },
        {
          "internalType": "address",
          "name": "assetToken",
          "type": "address"
        },
        {
          "internalType": "uint256",
          "name": "assetAmount",
          "type": "uint256"
        }
      ],
      "name": "energize",
      "outputs": [
        {
          "internalType": "uint256",
          "name": "yieldTokensAmount",
          "type": "uint256"
        }
      ],
      "stateMutability": "nonpayable",
      "type": "function"
    },
    {
      "inputs": [
        {
          "internalType": "address",
          "name": "contractAddress",
          "type": "address"
        },
        {
          "internalType": "uint256",
          "name": "tokenId",
          "type": "uint256"
        },
        {
          "internalType": "address",
          "name": "externalAddress",
          "type": "address"
        },
        {
          "internalType": "uint256",
          "name": "ethValue",
          "type": "uint256"
        },
        {
          "internalType": "bytes",
          "name": "encodedParams",
          "type": "bytes"
        }
      ],
      "name": "executeForAccount",
      "outputs": [
        {
          "internalType": "bytes",
          "name": "",
          "type": "bytes"
        }
      ],
      "stateMutability": "nonpayable",
      "type": "function"
    },
    {
      "inputs": [
        {
          "internalType": "address",
          "name": "contractAddress",
          "type": "address"
        },
        {
          "internalType": "uint256",
          "name": "tokenId",
          "type": "uint256"
        },
        {
          "internalType": "address",
          "name": "assetToken",
          "type": "address"
        }
      ],
      "name": "getInterest",
      "outputs": [
        {
          "internalType": "uint256",
          "name": "creatorInterest",
          "type": "uint256"
        },
        {
          "internalType": "uint256",
          "name": "ownerInterest",
          "type": "uint256"
        }
      ],
      "stateMutability": "nonpayable",
      "type": "function"
    },
    {
      "inputs": [
        {
          "internalType": "address",
          "name": "contractAddress",
          "type": "address"
        },
        {
          "internalType": "uint256",
          "name": "tokenId",
          "type": "uint256"
        },
        {
          "internalType": "address",
          "name": "assetToken",
          "type": "address"
        }
      ],
      "name": "getPrincipal",
      "outputs": [
        {
          "internalType": "uint256",
          "name": "",
          "type": "uint256"
        }
      ],
      "stateMutability": "nonpayable",
      "type": "function"
    },
    {
      "inputs": [
        {
          "internalType": "address",
          "name": "contractAddress",
          "type": "address"
        },
        {
          "internalType": "uint256",
          "name": "tokenId",
          "type": "uint256"
        },
        {
          "internalType": "address",
          "name": "assetToken",
          "type": "address"
        }
      ],
      "name": "getReserveInterestToken",
      "outputs": [
        {
          "internalType": "address",
          "name": "",
          "type": "address"
        }
      ],
      "stateMutability": "view",
      "type": "function"
    },
    {
      "inputs": [
        {
          "internalType": "address",
          "name": "contractAddress",
          "type": "address"
        },
        {
          "internalType": "uint256",
          "name": "tokenId",
          "type": "uint256"
        },
        {
          "internalType": "address",
          "name": "rewardToken",
          "type": "address"
        }
      ],
      "name": "getRewards",
      "outputs": [
        {
          "internalType": "uint256",
          "name": "",
          "type": "uint256"
        }
      ],
      "stateMutability": "nonpayable",
      "type": "function"
    },
    {
      "inputs": [
        {
          "internalType": "address",
          "name": "contractAddress",
          "type": "address"
        },
        {
          "internalType": "uint256",
          "name": "tokenId",
          "type": "uint256"
        },
        {
          "internalType": "address",
          "name": "assetToken",
          "type": "address"
        }
      ],
      "name": "getTotal",
      "outputs": [
        {
          "internalType": "uint256",
          "name": "",
          "type": "uint256"
        }
      ],
      "stateMutability": "nonpayable",
      "type": "function"
    },
    {
      "inputs": [
        {
          "internalType": "address",
          "name": "contractAddress",
          "type": "address"
        },
        {
          "internalType": "uint256",
          "name": "tokenId",
          "type": "uint256"
        },
        {
          "internalType": "address",
          "name": "",
          "type": "address"
        },
        {
          "internalType": "uint256",
          "name": "",
          "type": "uint256"
        }
      ],
      "name": "getWalletAddressById",
      "outputs": [
        {
          "internalType": "address",
          "name": "",
          "type": "address"
        }
      ],
      "stateMutability": "nonpayable",
      "type": "function"
    },
    {
      "inputs": [],
      "name": "isPaused",
      "outputs": [
        {
          "internalType": "bool",
          "name": "",
          "type": "bool"
        }
      ],
      "stateMutability": "view",
      "type": "function"
    },
    {
      "inputs": [
        {
          "internalType": "address",
          "name": "contractAddress",
          "type": "address"
        },
        {
          "internalType": "uint256",
          "name": "tokenId",
          "type": "uint256"
        },
        {
          "internalType": "address",
          "name": "assetToken",
          "type": "address"
        }
      ],
      "name": "isReserveActive",
      "outputs": [
        {
          "internalType": "bool",
          "name": "",
          "type": "bool"
        }
      ],
      "stateMutability": "view",
      "type": "function"
    },
    {
      "inputs": [],
      "name": "owner",
      "outputs": [
        {
          "internalType": "address",
          "name": "",
          "type": "address"
        }
      ],
      "stateMutability": "view",
      "type": "function"
    },
    {
      "inputs": [
        {
          "internalType": "address",
          "name": "contractAddress",
          "type": "address"
        },
        {
          "internalType": "uint256",
          "name": "tokenId",
          "type": "uint256"
        },
        {
          "internalType": "address",
          "name": "assetToken",
          "type": "address"
        }
      ],
      "name": "refreshPrincipal",
      "outputs": [],
      "stateMutability": "nonpayable",
      "type": "function"
    },
    {
      "inputs": [
        {
          "internalType": "address",
          "name": "receiver",
          "type": "address"
        },
        {
          "internalType": "address",
          "name": "contractAddress",
          "type": "address"
        },
        {
          "internalType": "uint256",
          "name": "tokenId",
          "type": "uint256"
        },
        {
          "internalType": "address",
          "name": "assetToken",
          "type": "address"
        },
        {
          "internalType": "address",
          "name": "creatorRedirect",
          "type": "address"
        }
      ],
      "name": "release",
      "outputs": [
        {
          "internalType": "uint256",
          "name": "principalAmount",
          "type": "uint256"
        },
        {
          "internalType": "uint256",
          "name": "creatorAmount",
          "type": "uint256"
        },
        {
          "internalType": "uint256",
          "name": "receiverAmount",
          "type": "uint256"
        }
      ],
      "stateMutability": "nonpayable",
      "type": "function"
    },
    {
      "inputs": [
        {
          "internalType": "address",
          "name": "receiver",
          "type": "address"
        },
        {
          "internalType": "address",
          "name": "contractAddress",
          "type": "address"
        },
        {
          "internalType": "uint256",
          "name": "tokenId",
          "type": "uint256"
        },
        {
          "internalType": "address",
          "name": "assetToken",
          "type": "address"
        },
        {
          "internalType": "uint256",
          "name": "assetAmount",
          "type": "uint256"
        },
        {
          "internalType": "address",
          "name": "creatorRedirect",
          "type": "address"
        }
      ],
      "name": "releaseAmount",
      "outputs": [
        {
          "internalType": "uint256",
          "name": "principalAmount",
          "type": "uint256"
        },
        {
          "internalType": "uint256",
          "name": "creatorAmount",
          "type": "uint256"
        },
        {
          "internalType": "uint256",
          "name": "receiverAmount",
          "type": "uint256"
        }
      ],
      "stateMutability": "nonpayable",
      "type": "function"
    },
    {
      "inputs": [],
      "name": "renounceOwnership",
      "outputs": [],
      "stateMutability": "nonpayable",
      "type": "function"
    },
    {
      "inputs": [
        {
          "internalType": "address",
          "name": "controller",
          "type": "address"
        }
      ],
      "name": "setController",
      "outputs": [],
      "stateMutability": "nonpayable",
      "type": "function"
    },
    {
      "inputs": [
        {
          "internalType": "address",
          "name": "executor",
          "type": "address"
        }
      ],
      "name": "setExecutor",
      "outputs": [],
      "stateMutability": "nonpayable",
      "type": "function"
    },
    {
      "inputs": [
        {
          "internalType": "bool",
          "name": "paused",
          "type": "bool"
        }
      ],
      "name": "setPausedState",
      "outputs": [],
      "stateMutability": "nonpayable",
      "type": "function"
    },
    {
      "inputs": [
        {
          "internalType": "address",
          "name": "newOwner",
          "type": "address"
        }
      ],
      "name": "transferOwnership",
      "outputs": [],
      "stateMutability": "nonpayable",
      "type": "function"
    },
    {
      "inputs": [
        {
          "internalType": "address",
          "name": "contractAddress",
          "type": "address"
        },
        {
          "internalType": "uint256",
          "name": "tokenId",
          "type": "uint256"
        },
        {
          "internalType": "address payable",
          "name": "receiver",
          "type": "address"
        },
        {
          "internalType": "address",
          "name": "tokenAddress",
          "type": "address"
        },
        {
          "internalType": "uint256",
          "name": "amount",
          "type": "uint256"
        }
      ],
      "name": "withdrawERC20",
      "outputs": [],
      "stateMutability": "nonpayable",
      "type": "function"
    },
    {
      "inputs": [
        {
          "internalType": "address",
          "name": "contractAddress",
          "type": "address"
        },
        {
          "internalType": "uint256",
          "name": "tokenId",
          "type": "uint256"
        },
        {
          "internalType": "address payable",
          "name": "receiver",
          "type": "address"
        },
        {
          "internalType": "address",
          "name": "nftTokenAddress",
          "type": "address"
        },
        {
          "internalType": "uint256",
          "name": "nftTokenId",
          "type": "uint256"
        }
      ],
      "name": "withdrawERC721",
      "outputs": [],
      "stateMutability": "nonpayable",
      "type": "function"
    },
    {
      "inputs": [
        {
          "internalType": "address",
          "name": "contractAddress",
          "type": "address"
        },
        {
          "internalType": "uint256",
          "name": "tokenId",
          "type": "uint256"
        },
        {
          "internalType": "address payable",
          "name": "receiver",
          "type": "address"
        },
        {
          "internalType": "uint256",
          "name": "amount",
          "type": "uint256"
        }
      ],
      "name": "withdrawEther",
      "outputs": [],
      "stateMutability": "nonpayable",
      "type": "function"
    },
    {
      "inputs": [
        {
          "internalType": "address",
          "name": "receiver",
          "type": "address"
        },
        {
          "internalType": "address",
          "name": "contractAddress",
          "type": "address"
        },
        {
          "internalType": "uint256",
          "name": "tokenId",
          "type": "uint256"
        },
        {
          "internalType": "address",
          "name": "rewardsToken",
          "type": "address"
        },
        {
          "internalType": "uint256",
          "name": "rewardsAmount",
          "type": "uint256"
        }
      ],
      "name": "withdrawRewards",
      "outputs": [
        {
          "internalType": "uint256",
          "name": "amount",
          "type": "uint256"
        }
      ],
      "stateMutability": "nonpayable",
      "type": "function"
    }
  ],
  "bytecode": "0x60806040523480156200001157600080fd5b506000620000246200013460201b60201c565b9050806000806101000a81548173ffffffffffffffffffffffffffffffffffffffff021916908373ffffffffffffffffffffffffffffffffffffffff1602179055508073ffffffffffffffffffffffffffffffffffffffff16600073ffffffffffffffffffffffffffffffffffffffff167f8be0079c531659141344cd1fd0a4f28419497f9722a3daafe3b4186f6b6457e060405160405180910390a350604051620000d0906200013c565b604051809103906000f080158015620000ed573d6000803e3d6000fd5b50600360006101000a81548173ffffffffffffffffffffffffffffffffffffffff021916908373ffffffffffffffffffffffffffffffffffffffff1602179055506200014a565b600033905090565b612cb68062004c5f83390190565b614b05806200015a6000396000f3fe608060405234801561001057600080fd5b506004361061018e5760003560e01c8063897f4ecb116100de578063b187bd2611610097578063ed45277811610071578063ed45277814610d71578063f2fde38b14610e1d578063fb3642d614610e61578063fe34cc3f14610f2a5761018e565b8063b187bd2614610b99578063c968b02714610bb9578063db9f60ff14610d415761018e565b8063897f4ecb1461085a57806389a5799d146108f25780638b8d9a16146109c55780638da5cb5b14610a5157806392eefe9b14610a85578063a9d16f3b14610ac95761018e565b80632da9ef811161014b5780634ff83618116101255780634ff8361814610621578063512adb13146106ed578063711ad4ec14610776578063715018a6146108505761018e565b80632da9ef81146104655780633d76f93e146104e75780634737c0c31461057f5761018e565b8063157c5a42146101935780631a87a6771461022b5780631c3c0ea814610299578063235dd200146102dd578063238f1b981461035f5780632be89305146103e3575b600080fd5b610229600480360360a08110156101a957600080fd5b81019080803573ffffffffffffffffffffffffffffffffffffffff16906020019092919080359060200190929190803573ffffffffffffffffffffffffffffffffffffffff169060200190929190803573ffffffffffffffffffffffffffffffffffffffff16906020019092919080359060200190929190505050610fa2565b005b6102976004803603606081101561024157600080fd5b81019080803573ffffffffffffffffffffffffffffffffffffffff16906020019092919080359060200190929190803573ffffffffffffffffffffffffffffffffffffffff16906020019092919050505061118a565b005b6102db600480360360208110156102af57600080fd5b81019080803573ffffffffffffffffffffffffffffffffffffffff169060200190929190505050611392565b005b610349600480360360608110156102f357600080fd5b81019080803573ffffffffffffffffffffffffffffffffffffffff16906020019092919080359060200190929190803573ffffffffffffffffffffffffffffffffffffffff1690602001909291905050506114e1565b6040518082815260200191505060405180910390f35b6103cb6004803603606081101561037557600080fd5b81019080803573ffffffffffffffffffffffffffffffffffffffff16906020019092919080359060200190929190803573ffffffffffffffffffffffffffffffffffffffff169060200190929190505050611663565b60405180821515815260200191505060405180910390f35b61044f600480360360608110156103f957600080fd5b81019080803573ffffffffffffffffffffffffffffffffffffffff16906020019092919080359060200190929190803573ffffffffffffffffffffffffffffffffffffffff1690602001909291905050506117e3565b6040518082815260200191505060405180910390f35b6104d16004803603606081101561047b57600080fd5b81019080803573ffffffffffffffffffffffffffffffffffffffff16906020019092919080359060200190929190803573ffffffffffffffffffffffffffffffffffffffff169060200190929190505050611965565b6040518082815260200191505060405180910390f35b61057d600480360360a08110156104fd57600080fd5b81019080803573ffffffffffffffffffffffffffffffffffffffff16906020019092919080359060200190929190803573ffffffffffffffffffffffffffffffffffffffff169060200190929190803573ffffffffffffffffffffffffffffffffffffffff16906020019092919080359060200190929190505050611ae7565b005b6105f56004803603608081101561059557600080fd5b81019080803573ffffffffffffffffffffffffffffffffffffffff16906020019092919080359060200190929190803573ffffffffffffffffffffffffffffffffffffffff16906020019092919080359060200190929190505050611ccf565b604051808273ffffffffffffffffffffffffffffffffffffffff16815260200191505060405180910390f35b6106d7600480360360c081101561063757600080fd5b81019080803573ffffffffffffffffffffffffffffffffffffffff169060200190929190803573ffffffffffffffffffffffffffffffffffffffff16906020019092919080359060200190929190803573ffffffffffffffffffffffffffffffffffffffff169060200190929190803573ffffffffffffffffffffffffffffffffffffffff16906020019092919080359060200190929190505050611f75565b6040518082815260200191505060405180910390f35b6107596004803603606081101561070357600080fd5b81019080803573ffffffffffffffffffffffffffffffffffffffff16906020019092919080359060200190929190803573ffffffffffffffffffffffffffffffffffffffff169060200190929190505050612048565b604051808381526020018281526020019250505060405180910390f35b61082c600480360360c081101561078c57600080fd5b81019080803573ffffffffffffffffffffffffffffffffffffffff169060200190929190803573ffffffffffffffffffffffffffffffffffffffff16906020019092919080359060200190929190803573ffffffffffffffffffffffffffffffffffffffff16906020019092919080359060200190929190803573ffffffffffffffffffffffffffffffffffffffff1690602001909291905050506121dc565b60405180848152602001838152602001828152602001935050505060405180910390f35b6108586125f6565b005b6108c66004803603606081101561087057600080fd5b81019080803573ffffffffffffffffffffffffffffffffffffffff16906020019092919080359060200190929190803573ffffffffffffffffffffffffffffffffffffffff16906020019092919050505061277c565b604051808273ffffffffffffffffffffffffffffffffffffffff16815260200191505060405180910390f35b6109a8600480360360c081101561090857600080fd5b81019080803573ffffffffffffffffffffffffffffffffffffffff169060200190929190803573ffffffffffffffffffffffffffffffffffffffff16906020019092919080359060200190929190803573ffffffffffffffffffffffffffffffffffffffff16906020019092919080359060200190929190803573ffffffffffffffffffffffffffffffffffffffff1690602001909291905050506128fc565b604051808381526020018281526020019250505060405180910390f35b610a3b600480360360808110156109db57600080fd5b81019080803573ffffffffffffffffffffffffffffffffffffffff16906020019092919080359060200190929190803573ffffffffffffffffffffffffffffffffffffffff169060200190929190803590602001909291905050506129d4565b6040518082815260200191505060405180910390f35b610a59612c2d565b604051808273ffffffffffffffffffffffffffffffffffffffff16815260200191505060405180910390f35b610ac760048036036020811015610a9b57600080fd5b81019080803573ffffffffffffffffffffffffffffffffffffffff169060200190929190505050612c56565b005b610b75600480360360a0811015610adf57600080fd5b81019080803573ffffffffffffffffffffffffffffffffffffffff169060200190929190803573ffffffffffffffffffffffffffffffffffffffff16906020019092919080359060200190929190803573ffffffffffffffffffffffffffffffffffffffff169060200190929190803573ffffffffffffffffffffffffffffffffffffffff169060200190929190505050612da5565b60405180848152602001838152602001828152602001935050505060405180910390f35b610ba16131b6565b60405180821515815260200191505060405180910390f35b610cc6600480360360a0811015610bcf57600080fd5b81019080803573ffffffffffffffffffffffffffffffffffffffff16906020019092919080359060200190929190803573ffffffffffffffffffffffffffffffffffffffff1690602001909291908035906020019092919080359060200190640100000000811115610c4057600080fd5b820183602082011115610c5257600080fd5b80359060200191846001830284011164010000000083111715610c7457600080fd5b91908080601f016020809104026020016040519081016040528093929190818152602001838380828437600081840152601f19601f8201169050808301925050505050505091929192905050506131cd565b6040518080602001828103825283818151815260200191508051906020019080838360005b83811015610d06578082015181840152602081019050610ceb565b50505050905090810190601f168015610d335780820380516001836020036101000a031916815260200191505b509250505060405180910390f35b610d6f60048036036020811015610d5757600080fd5b81019080803515159060200190929190505050613533565b005b610e07600480360360a0811015610d8757600080fd5b81019080803573ffffffffffffffffffffffffffffffffffffffff169060200190929190803573ffffffffffffffffffffffffffffffffffffffff16906020019092919080359060200190929190803573ffffffffffffffffffffffffffffffffffffffff16906020019092919080359060200190929190505050613651565b6040518082815260200191505060405180910390f35b610e5f60048036036020811015610e3357600080fd5b81019080803573ffffffffffffffffffffffffffffffffffffffff1690602001909291905050506139d1565b005b610f0d600480360360a0811015610e7757600080fd5b81019080803573ffffffffffffffffffffffffffffffffffffffff169060200190929190803573ffffffffffffffffffffffffffffffffffffffff16906020019092919080359060200190929190803573ffffffffffffffffffffffffffffffffffffffff169060200190929190803573ffffffffffffffffffffffffffffffffffffffff169060200190929190505050613bdc565b604051808381526020018281526020019250505060405180910390f35b610fa060048036036080811015610f4057600080fd5b81019080803573ffffffffffffffffffffffffffffffffffffffff16906020019092919080359060200190929190803573ffffffffffffffffffffffffffffffffffffffff16906020019092919080359060200190929190505050613cb3565b005b610faa613e7b565b73ffffffffffffffffffffffffffffffffffffffff1660008054906101000a900473ffffffffffffffffffffffffffffffffffffffff1673ffffffffffffffffffffffffffffffffffffffff161461106a576040517f08c379a00000000000000000000000000000000000000000000000000000000081526004018080602001828103825260208152602001807f4f776e61626c653a2063616c6c6572206973206e6f7420746865206f776e657281525060200191505060405180910390fd5b6000611095858773ffffffffffffffffffffffffffffffffffffffff16613e8390919063ffffffff16565b905060006004600083815260200190815260200160002060009054906101000a900473ffffffffffffffffffffffffffffffffffffffff1690506110da858585613ed8565b8073ffffffffffffffffffffffffffffffffffffffff16634025feb28686866040518463ffffffff1660e01b8152600401808473ffffffffffffffffffffffffffffffffffffffff1681526020018373ffffffffffffffffffffffffffffffffffffffff1681526020018281526020019350505050600060405180830381600087803b15801561116957600080fd5b505af115801561117d573d6000803e3d6000fd5b5050505050505050505050565b3373ffffffffffffffffffffffffffffffffffffffff16600260009054906101000a900473ffffffffffffffffffffffffffffffffffffffff1673ffffffffffffffffffffffffffffffffffffffff16148061123357503373ffffffffffffffffffffffffffffffffffffffff16600160009054906101000a900473ffffffffffffffffffffffffffffffffffffffff1673ffffffffffffffffffffffffffffffffffffffff16145b6112a5576040517f08c379a00000000000000000000000000000000000000000000000000000000081526004018080602001828103825260098152602001807f574d423a452d313038000000000000000000000000000000000000000000000081525060200191505060405180910390fd5b60006112d0838573ffffffffffffffffffffffffffffffffffffffff16613e8390919063ffffffff16565b905060006004600083815260200190815260200160002060009054906101000a900473ffffffffffffffffffffffffffffffffffffffff1690508073ffffffffffffffffffffffffffffffffffffffff16634b6b8150846040518263ffffffff1660e01b8152600401808273ffffffffffffffffffffffffffffffffffffffff168152602001915050600060405180830381600087803b15801561137357600080fd5b505af1158015611387573d6000803e3d6000fd5b505050505050505050565b61139a613e7b565b73ffffffffffffffffffffffffffffffffffffffff1660008054906101000a900473ffffffffffffffffffffffffffffffffffffffff1673ffffffffffffffffffffffffffffffffffffffff161461145a576040517f08c379a00000000000000000000000000000000000000000000000000000000081526004018080602001828103825260208152602001807f4f776e61626c653a2063616c6c6572206973206e6f7420746865206f776e657281525060200191505060405180910390fd5b80600260006101000a81548173ffffffffffffffffffffffffffffffffffffffff021916908373ffffffffffffffffffffffffffffffffffffffff1602179055508073ffffffffffffffffffffffffffffffffffffffff167f3e3c5e6d5b512eaa5d5a80669846cfbaf8bde70fc6f7a3be9828cffc9ba5f1db60405160405180910390a250565b60008061150d848673ffffffffffffffffffffffffffffffffffffffff16613e8390919063ffffffff16565b9050600073ffffffffffffffffffffffffffffffffffffffff166004600083815260200190815260200160002060009054906101000a900473ffffffffffffffffffffffffffffffffffffffff1673ffffffffffffffffffffffffffffffffffffffff16141561158157600091505061165c565b6004600082815260200190815260200160002060009054906101000a900473ffffffffffffffffffffffffffffffffffffffff1673ffffffffffffffffffffffffffffffffffffffff166379ee54f7846040518263ffffffff1660e01b8152600401808273ffffffffffffffffffffffffffffffffffffffff168152602001915050602060405180830381600087803b15801561161d57600080fd5b505af1158015611631573d6000803e3d6000fd5b505050506040513d602081101561164757600080fd5b81019080805190602001909291905050509150505b9392505050565b60008061168f848673ffffffffffffffffffffffffffffffffffffffff16613e8390919063ffffffff16565b9050600073ffffffffffffffffffffffffffffffffffffffff166004600083815260200190815260200160002060009054906101000a900473ffffffffffffffffffffffffffffffffffffffff1673ffffffffffffffffffffffffffffffffffffffff1614156117035760009150506117dc565b6004600082815260200190815260200160002060009054906101000a900473ffffffffffffffffffffffffffffffffffffffff1673ffffffffffffffffffffffffffffffffffffffff1663883c042b846040518263ffffffff1660e01b8152600401808273ffffffffffffffffffffffffffffffffffffffff16815260200191505060206040518083038186803b15801561179d57600080fd5b505afa1580156117b1573d6000803e3d6000fd5b505050506040513d60208110156117c757600080fd5b81019080805190602001909291905050509150505b9392505050565b60008061180f848673ffffffffffffffffffffffffffffffffffffffff16613e8390919063ffffffff16565b9050600073ffffffffffffffffffffffffffffffffffffffff166004600083815260200190815260200160002060009054906101000a900473ffffffffffffffffffffffffffffffffffffffff1673ffffffffffffffffffffffffffffffffffffffff16141561188357600091505061195e565b6004600082815260200190815260200160002060009054906101000a900473ffffffffffffffffffffffffffffffffffffffff1673ffffffffffffffffffffffffffffffffffffffff1663ebb6dad8846040518263ffffffff1660e01b8152600401808273ffffffffffffffffffffffffffffffffffffffff168152602001915050602060405180830381600087803b15801561191f57600080fd5b505af1158015611933573d6000803e3d6000fd5b505050506040513d602081101561194957600080fd5b81019080805190602001909291905050509150505b9392505050565b600080611991848673ffffffffffffffffffffffffffffffffffffffff16613e8390919063ffffffff16565b9050600073ffffffffffffffffffffffffffffffffffffffff166004600083815260200190815260200160002060009054906101000a900473ffffffffffffffffffffffffffffffffffffffff1673ffffffffffffffffffffffffffffffffffffffff161415611a05576000915050611ae0565b6004600082815260200190815260200160002060009054906101000a900473ffffffffffffffffffffffffffffffffffffffff1673ffffffffffffffffffffffffffffffffffffffff16637abdd2d1846040518263ffffffff1660e01b8152600401808273ffffffffffffffffffffffffffffffffffffffff168152602001915050602060405180830381600087803b158015611aa157600080fd5b505af1158015611ab5573d6000803e3d6000fd5b505050506040513d6020811015611acb57600080fd5b81019080805190602001909291905050509150505b9392505050565b611aef613e7b565b73ffffffffffffffffffffffffffffffffffffffff1660008054906101000a900473ffffffffffffffffffffffffffffffffffffffff1673ffffffffffffffffffffffffffffffffffffffff1614611baf576040517f08c379a00000000000000000000000000000000000000000000000000000000081526004018080602001828103825260208152602001807f4f776e61626c653a2063616c6c6572206973206e6f7420746865206f776e657281525060200191505060405180910390fd5b6000611bda858773ffffffffffffffffffffffffffffffffffffffff16613e8390919063ffffffff16565b905060006004600083815260200190815260200160002060009054906101000a900473ffffffffffffffffffffffffffffffffffffffff169050611c1f858585614142565b8073ffffffffffffffffffffffffffffffffffffffff166344004cc18686866040518463ffffffff1660e01b8152600401808473ffffffffffffffffffffffffffffffffffffffff1681526020018373ffffffffffffffffffffffffffffffffffffffff1681526020018281526020019350505050600060405180830381600087803b158015611cae57600080fd5b505af1158015611cc2573d6000803e3d6000fd5b5050505050505050505050565b60003373ffffffffffffffffffffffffffffffffffffffff16600260009054906101000a900473ffffffffffffffffffffffffffffffffffffffff1673ffffffffffffffffffffffffffffffffffffffff161480611d7a57503373ffffffffffffffffffffffffffffffffffffffff16600160009054906101000a900473ffffffffffffffffffffffffffffffffffffffff1673ffffffffffffffffffffffffffffffffffffffff16145b611dec576040517f08c379a00000000000000000000000000000000000000000000000000000000081526004018080602001828103825260098152602001807f574d423a452d313038000000000000000000000000000000000000000000000081525060200191505060405180910390fd5b6000611e17858773ffffffffffffffffffffffffffffffffffffffff16613e8390919063ffffffff16565b905060006004600083815260200190815260200160002060009054906101000a900473ffffffffffffffffffffffffffffffffffffffff169050600073ffffffffffffffffffffffffffffffffffffffff168173ffffffffffffffffffffffffffffffffffffffff161415611f6857611e8e614323565b9050806004600084815260200190815260200160002060006101000a81548173ffffffffffffffffffffffffffffffffffffffff021916908373ffffffffffffffffffffffffffffffffffffffff1602179055508073ffffffffffffffffffffffffffffffffffffffff16868873ffffffffffffffffffffffffffffffffffffffff167f1cda30153ed04b1a2d5be381fcc3b30f512c22c6f3cbd755b87ad945660a2708600080604051808373ffffffffffffffffffffffffffffffffffffffff1681526020018281526020019250505060405180910390a45b8092505050949350505050565b60003373ffffffffffffffffffffffffffffffffffffffff16600160009054906101000a900473ffffffffffffffffffffffffffffffffffffffff1673ffffffffffffffffffffffffffffffffffffffff161461203a576040517f08c379a00000000000000000000000000000000000000000000000000000000081526004018080602001828103825260098152602001807f574d423a452d313038000000000000000000000000000000000000000000000081525060200191505060405180910390fd5b600090509695505050505050565b6000806000612076858773ffffffffffffffffffffffffffffffffffffffff16613e8390919063ffffffff16565b9050600073ffffffffffffffffffffffffffffffffffffffff166004600083815260200190815260200160002060009054906101000a900473ffffffffffffffffffffffffffffffffffffffff1673ffffffffffffffffffffffffffffffffffffffff16146121d2576004600082815260200190815260200160002060009054906101000a900473ffffffffffffffffffffffffffffffffffffffff1673ffffffffffffffffffffffffffffffffffffffff1663d6cf57e68560006040518363ffffffff1660e01b8152600401808373ffffffffffffffffffffffffffffffffffffffff168152602001828152602001925050506040805180830381600087803b15801561218357600080fd5b505af1158015612197573d6000803e3d6000fd5b505050506040513d60408110156121ad57600080fd5b81019080805190602001909291908051906020019092919050505092509250506121d4565b505b935093915050565b60008060003373ffffffffffffffffffffffffffffffffffffffff16600160009054906101000a900473ffffffffffffffffffffffffffffffffffffffff1673ffffffffffffffffffffffffffffffffffffffff16146122a4576040517f08c379a00000000000000000000000000000000000000000000000000000000081526004018080602001828103825260098152602001807f574d423a452d313038000000000000000000000000000000000000000000000081525060200191505060405180910390fd5b60006122cf888a73ffffffffffffffffffffffffffffffffffffffff16613e8390919063ffffffff16565b905060006004600083815260200190815260200160002060009054906101000a900473ffffffffffffffffffffffffffffffffffffffff169050600073ffffffffffffffffffffffffffffffffffffffff168173ffffffffffffffffffffffffffffffffffffffff1614156123ac576040517f08c379a00000000000000000000000000000000000000000000000000000000081526004018080602001828103825260098152602001807f47574d3a452d343033000000000000000000000000000000000000000000000081525060200191505060405180910390fd5b8073ffffffffffffffffffffffffffffffffffffffff16637abdd2d1896040518263ffffffff1660e01b8152600401808273ffffffffffffffffffffffffffffffffffffffff168152602001915050602060405180830381600087803b15801561241557600080fd5b505af1158015612429573d6000803e3d6000fd5b505050506040513d602081101561243f57600080fd5b810190808051906020019092919050505094508073ffffffffffffffffffffffffffffffffffffffff1663f4fadc828c8860008c8c6040518663ffffffff1660e01b8152600401808673ffffffffffffffffffffffffffffffffffffffff1681526020018573ffffffffffffffffffffffffffffffffffffffff1681526020018481526020018373ffffffffffffffffffffffffffffffffffffffff168152602001828152602001955050505050506040805180830381600087803b15801561250757600080fd5b505af115801561251b573d6000803e3d6000fd5b505050506040513d604081101561253157600080fd5b81019080805190602001909291908051906020019092919050505080945081955050508a73ffffffffffffffffffffffffffffffffffffffff16898b73ffffffffffffffffffffffffffffffffffffffff167f9cddee57762ce56bd97afc79f9c6bcd7946b3fe3b43b58b4f944e3190111f4238b898989604051808573ffffffffffffffffffffffffffffffffffffffff16815260200184815260200183815260200182815260200194505050505060405180910390a4505096509650969350505050565b6125fe613e7b565b73ffffffffffffffffffffffffffffffffffffffff1660008054906101000a900473ffffffffffffffffffffffffffffffffffffffff1673ffffffffffffffffffffffffffffffffffffffff16146126be576040517f08c379a00000000000000000000000000000000000000000000000000000000081526004018080602001828103825260208152602001807f4f776e61626c653a2063616c6c6572206973206e6f7420746865206f776e657281525060200191505060405180910390fd5b600073ffffffffffffffffffffffffffffffffffffffff1660008054906101000a900473ffffffffffffffffffffffffffffffffffffffff1673ffffffffffffffffffffffffffffffffffffffff167f8be0079c531659141344cd1fd0a4f28419497f9722a3daafe3b4186f6b6457e060405160405180910390a360008060006101000a81548173ffffffffffffffffffffffffffffffffffffffff021916908373ffffffffffffffffffffffffffffffffffffffff160217905550565b6000806127a8848673ffffffffffffffffffffffffffffffffffffffff16613e8390919063ffffffff16565b9050600073ffffffffffffffffffffffffffffffffffffffff166004600083815260200190815260200160002060009054906101000a900473ffffffffffffffffffffffffffffffffffffffff1673ffffffffffffffffffffffffffffffffffffffff16141561281c5760009150506128f5565b6004600082815260200190815260200160002060009054906101000a900473ffffffffffffffffffffffffffffffffffffffff1673ffffffffffffffffffffffffffffffffffffffff1663a0cc02e0846040518263ffffffff1660e01b8152600401808273ffffffffffffffffffffffffffffffffffffffff16815260200191505060206040518083038186803b1580156128b657600080fd5b505afa1580156128ca573d6000803e3d6000fd5b505050506040513d60208110156128e057600080fd5b81019080805190602001909291905050509150505b9392505050565b6000803373ffffffffffffffffffffffffffffffffffffffff16600160009054906101000a900473ffffffffffffffffffffffffffffffffffffffff1673ffffffffffffffffffffffffffffffffffffffff16146129c2576040517f08c379a00000000000000000000000000000000000000000000000000000000081526004018080602001828103825260098152602001807f574d423a452d313038000000000000000000000000000000000000000000000081525060200191505060405180910390fd5b60008091509150965096945050505050565b60003373ffffffffffffffffffffffffffffffffffffffff16600160009054906101000a900473ffffffffffffffffffffffffffffffffffffffff1673ffffffffffffffffffffffffffffffffffffffff1614612a99576040517f08c379a00000000000000000000000000000000000000000000000000000000081526004018080602001828103825260098152602001807f574d423a452d313038000000000000000000000000000000000000000000000081525060200191505060405180910390fd5b6000612ac4858773ffffffffffffffffffffffffffffffffffffffff16613e8390919063ffffffff16565b905060006004600083815260200190815260200160002060009054906101000a900473ffffffffffffffffffffffffffffffffffffffff1690508073ffffffffffffffffffffffffffffffffffffffff16630efe6a8b868660006040518463ffffffff1660e01b8152600401808473ffffffffffffffffffffffffffffffffffffffff1681526020018381526020018281526020019350505050602060405180830381600087803b158015612b7857600080fd5b505af1158015612b8c573d6000803e3d6000fd5b505050506040513d6020811015612ba257600080fd5b810190808051906020019092919050505092508473ffffffffffffffffffffffffffffffffffffffff16868873ffffffffffffffffffffffffffffffffffffffff167f888889d6224fdc21d2a6f20b0f8a25cc561b82d8f051c7b471e65903d4d1654d8787604051808381526020018281526020019250505060405180910390a45050949350505050565b60008060009054906101000a900473ffffffffffffffffffffffffffffffffffffffff16905090565b612c5e613e7b565b73ffffffffffffffffffffffffffffffffffffffff1660008054906101000a900473ffffffffffffffffffffffffffffffffffffffff1673ffffffffffffffffffffffffffffffffffffffff1614612d1e576040517f08c379a00000000000000000000000000000000000000000000000000000000081526004018080602001828103825260208152602001807f4f776e61626c653a2063616c6c6572206973206e6f7420746865206f776e657281525060200191505060405180910390fd5b80600160006101000a81548173ffffffffffffffffffffffffffffffffffffffff021916908373ffffffffffffffffffffffffffffffffffffffff1602179055508073ffffffffffffffffffffffffffffffffffffffff167f79f74fd5964b6943d8a1865abfb7f668c92fa3f32c0a2e3195da7d0946703ad760405160405180910390a250565b60008060003373ffffffffffffffffffffffffffffffffffffffff16600160009054906101000a900473ffffffffffffffffffffffffffffffffffffffff1673ffffffffffffffffffffffffffffffffffffffff1614612e6d576040517f08c379a00000000000000000000000000000000000000000000000000000000081526004018080602001828103825260098152602001807f574d423a452d313038000000000000000000000000000000000000000000000081525060200191505060405180910390fd5b6000612e98878973ffffffffffffffffffffffffffffffffffffffff16613e8390919063ffffffff16565b905060006004600083815260200190815260200160002060009054906101000a900473ffffffffffffffffffffffffffffffffffffffff169050600073ffffffffffffffffffffffffffffffffffffffff168173ffffffffffffffffffffffffffffffffffffffff161415612f75576040517f08c379a00000000000000000000000000000000000000000000000000000000081526004018080602001828103825260098152602001807f47574d3a452d343033000000000000000000000000000000000000000000000081525060200191505060405180910390fd5b8073ffffffffffffffffffffffffffffffffffffffff16637abdd2d1886040518263ffffffff1660e01b8152600401808273ffffffffffffffffffffffffffffffffffffffff168152602001915050602060405180830381600087803b158015612fde57600080fd5b505af1158015612ff2573d6000803e3d6000fd5b505050506040513d602081101561300857600080fd5b810190808051906020019092919050505094508073ffffffffffffffffffffffffffffffffffffffff16630e917f768b8860008b6040518563ffffffff1660e01b8152600401808573ffffffffffffffffffffffffffffffffffffffff1681526020018473ffffffffffffffffffffffffffffffffffffffff1681526020018381526020018273ffffffffffffffffffffffffffffffffffffffff1681526020019450505050506040805180830381600087803b1580156130c857600080fd5b505af11580156130dc573d6000803e3d6000fd5b505050506040513d60408110156130f257600080fd5b81019080805190602001909291908051906020019092919050505080945081955050508973ffffffffffffffffffffffffffffffffffffffff16888a73ffffffffffffffffffffffffffffffffffffffff167f9cddee57762ce56bd97afc79f9c6bcd7946b3fe3b43b58b4f944e3190111f4238a898989604051808573ffffffffffffffffffffffffffffffffffffffff16815260200184815260200183815260200182815260200194505050505060405180910390a45050955095509592505050565b6000600560009054906101000a900460ff16905090565b60603373ffffffffffffffffffffffffffffffffffffffff16600260009054906101000a900473ffffffffffffffffffffffffffffffffffffffff1673ffffffffffffffffffffffffffffffffffffffff16148061327857503373ffffffffffffffffffffffffffffffffffffffff16600160009054906101000a900473ffffffffffffffffffffffffffffffffffffffff1673ffffffffffffffffffffffffffffffffffffffff16145b6132ea576040517f08c379a00000000000000000000000000000000000000000000000000000000081526004018080602001828103825260098152602001807f574d423a452d313038000000000000000000000000000000000000000000000081525060200191505060405180910390fd5b6000613315868873ffffffffffffffffffffffffffffffffffffffff16613e8390919063ffffffff16565b905060006004600083815260200190815260200160002060009054906101000a900473ffffffffffffffffffffffffffffffffffffffff1690508073ffffffffffffffffffffffffffffffffffffffff1663a18ea08f8787876040518463ffffffff1660e01b8152600401808473ffffffffffffffffffffffffffffffffffffffff16815260200183815260200180602001828103825283818151815260200191508051906020019080838360005b838110156133df5780820151818401526020810190506133c4565b50505050905090810190601f16801561340c5780820380516001836020036101000a031916815260200191505b50945050505050600060405180830381600087803b15801561342d57600080fd5b505af1158015613441573d6000803e3d6000fd5b505050506040513d6000823e3d601f19601f82011682018060405250602081101561346b57600080fd5b810190808051604051939291908464010000000082111561348b57600080fd5b838201915060208201858111156134a157600080fd5b82518660018202830111640100000000821117156134be57600080fd5b8083526020830192505050908051906020019080838360005b838110156134f25780820151818401526020810190506134d7565b50505050905090810190601f16801561351f5780820380516001836020036101000a031916815260200191505b506040525050509250505095945050505050565b61353b613e7b565b73ffffffffffffffffffffffffffffffffffffffff1660008054906101000a900473ffffffffffffffffffffffffffffffffffffffff1673ffffffffffffffffffffffffffffffffffffffff16146135fb576040517f08c379a00000000000000000000000000000000000000000000000000000000081526004018080602001828103825260208152602001807f4f776e61626c653a2063616c6c6572206973206e6f7420746865206f776e657281525060200191505060405180910390fd5b80600560006101000a81548160ff0219169083151502179055507fa9bfed3d98385b3777389e321dbde773cf7d335fa604fefbae3dca93564f55868160405180821515815260200191505060405180910390a150565b60003373ffffffffffffffffffffffffffffffffffffffff16600260009054906101000a900473ffffffffffffffffffffffffffffffffffffffff1673ffffffffffffffffffffffffffffffffffffffff1614806136fc57503373ffffffffffffffffffffffffffffffffffffffff16600160009054906101000a900473ffffffffffffffffffffffffffffffffffffffff1673ffffffffffffffffffffffffffffffffffffffff16145b61376e576040517f08c379a00000000000000000000000000000000000000000000000000000000081526004018080602001828103825260098152602001807f574d423a452d313038000000000000000000000000000000000000000000000081525060200191505060405180910390fd5b6000613799858773ffffffffffffffffffffffffffffffffffffffff16613e8390919063ffffffff16565b905060006004600083815260200190815260200160002060009054906101000a900473ffffffffffffffffffffffffffffffffffffffff169050600073ffffffffffffffffffffffffffffffffffffffff168173ffffffffffffffffffffffffffffffffffffffff161415613876576040517f08c379a00000000000000000000000000000000000000000000000000000000081526004018080602001828103825260098152602001807f47574d3a452d343033000000000000000000000000000000000000000000000081525060200191505060405180910390fd5b8073ffffffffffffffffffffffffffffffffffffffff166374ee6b628987876040518463ffffffff1660e01b8152600401808473ffffffffffffffffffffffffffffffffffffffff1681526020018373ffffffffffffffffffffffffffffffffffffffff1681526020018281526020019350505050602060405180830381600087803b15801561390557600080fd5b505af1158015613919573d6000803e3d6000fd5b505050506040513d602081101561392f57600080fd5b810190808051906020019092919050505092508773ffffffffffffffffffffffffffffffffffffffff16868873ffffffffffffffffffffffffffffffffffffffff167f06f54f96ef088b89e726f3399f067502f7f3ab4864f09ba0fd5448eb9d450d3b8887604051808373ffffffffffffffffffffffffffffffffffffffff1681526020018281526020019250505060405180910390a4505095945050505050565b6139d9613e7b565b73ffffffffffffffffffffffffffffffffffffffff1660008054906101000a900473ffffffffffffffffffffffffffffffffffffffff1673ffffffffffffffffffffffffffffffffffffffff1614613a99576040517f08c379a00000000000000000000000000000000000000000000000000000000081526004018080602001828103825260208152602001807f4f776e61626c653a2063616c6c6572206973206e6f7420746865206f776e657281525060200191505060405180910390fd5b600073ffffffffffffffffffffffffffffffffffffffff168173ffffffffffffffffffffffffffffffffffffffff161415613b1f576040517f08c379a0000000000000000000000000000000000000000000000000000000008152600401808060200182810382526026815260200180614a466026913960400191505060405180910390fd5b8073ffffffffffffffffffffffffffffffffffffffff1660008054906101000a900473ffffffffffffffffffffffffffffffffffffffff1673ffffffffffffffffffffffffffffffffffffffff167f8be0079c531659141344cd1fd0a4f28419497f9722a3daafe3b4186f6b6457e060405160405180910390a3806000806101000a81548173ffffffffffffffffffffffffffffffffffffffff021916908373ffffffffffffffffffffffffffffffffffffffff16021790555050565b6000803373ffffffffffffffffffffffffffffffffffffffff16600160009054906101000a900473ffffffffffffffffffffffffffffffffffffffff1673ffffffffffffffffffffffffffffffffffffffff1614613ca2576040517f08c379a00000000000000000000000000000000000000000000000000000000081526004018080602001828103825260098152602001807f574d423a452d313038000000000000000000000000000000000000000000000081525060200191505060405180910390fd5b600080915091509550959350505050565b613cbb613e7b565b73ffffffffffffffffffffffffffffffffffffffff1660008054906101000a900473ffffffffffffffffffffffffffffffffffffffff1673ffffffffffffffffffffffffffffffffffffffff1614613d7b576040517f08c379a00000000000000000000000000000000000000000000000000000000081526004018080602001828103825260208152602001807f4f776e61626c653a2063616c6c6572206973206e6f7420746865206f776e657281525060200191505060405180910390fd5b6000613da6848673ffffffffffffffffffffffffffffffffffffffff16613e8390919063ffffffff16565b905060006004600083815260200190815260200160002060009054906101000a900473ffffffffffffffffffffffffffffffffffffffff169050613dea84846143ba565b8073ffffffffffffffffffffffffffffffffffffffff1663522f681585856040518363ffffffff1660e01b8152600401808373ffffffffffffffffffffffffffffffffffffffff16815260200182815260200192505050600060405180830381600087803b158015613e5b57600080fd5b505af1158015613e6f573d6000803e3d6000fd5b50505050505050505050565b600033905090565b60008282604051602001808373ffffffffffffffffffffffffffffffffffffffff1660601b8152601401828152602001925050506040516020818303038152906040528051906020012060001c905092915050565b600073ffffffffffffffffffffffffffffffffffffffff168373ffffffffffffffffffffffffffffffffffffffff161415613f7b576040517f08c379a00000000000000000000000000000000000000000000000000000000081526004018080602001828103825260098152602001807f4248503a452d343033000000000000000000000000000000000000000000000081525060200191505060405180910390fd5b3073ffffffffffffffffffffffffffffffffffffffff168273ffffffffffffffffffffffffffffffffffffffff16636352211e836040518263ffffffff1660e01b81526004018082815260200191505060206040518083038186803b158015613fe357600080fd5b505afa158015613ff7573d6000803e3d6000fd5b505050506040513d602081101561400d57600080fd5b810190808051906020019092919050505073ffffffffffffffffffffffffffffffffffffffff16141561413d578173ffffffffffffffffffffffffffffffffffffffff166323b872dd3085846040518463ffffffff1660e01b8152600401808473ffffffffffffffffffffffffffffffffffffffff1681526020018373ffffffffffffffffffffffffffffffffffffffff1681526020018281526020019350505050600060405180830381600087803b1580156140c957600080fd5b505af11580156140dd573d6000803e3d6000fd5b50505050808273ffffffffffffffffffffffffffffffffffffffff168473ffffffffffffffffffffffffffffffffffffffff167ffefe036cac4ee3a4aca074a81cbcc4376e1484693289078dbec149c890101d5b60405160405180910390a45b505050565b600073ffffffffffffffffffffffffffffffffffffffff168373ffffffffffffffffffffffffffffffffffffffff1614156141e5576040517f08c379a00000000000000000000000000000000000000000000000000000000081526004018080602001828103825260098152602001807f4248503a452d343033000000000000000000000000000000000000000000000081525060200191505060405180910390fd5b808273ffffffffffffffffffffffffffffffffffffffff166370a08231306040518263ffffffff1660e01b8152600401808273ffffffffffffffffffffffffffffffffffffffff16815260200191505060206040518083038186803b15801561424d57600080fd5b505afa158015614261573d6000803e3d6000fd5b505050506040513d602081101561427757600080fd5b81019080805190602001909291905050501061431e576142b883828473ffffffffffffffffffffffffffffffffffffffff166144df9092919063ffffffff16565b8173ffffffffffffffffffffffffffffffffffffffff168373ffffffffffffffffffffffffffffffffffffffff167f6c9d637297625e945b296ff73a71fcfbd0a9e062652b6491a921c4c60194176b836040518082815260200191505060405180910390a35b505050565b600080614351600360009054906101000a900473ffffffffffffffffffffffffffffffffffffffff16614581565b90508073ffffffffffffffffffffffffffffffffffffffff16638129fc1c6040518163ffffffff1660e01b8152600401600060405180830381600087803b15801561439b57600080fd5b505af11580156143af573d6000803e3d6000fd5b505050508091505090565b600073ffffffffffffffffffffffffffffffffffffffff168273ffffffffffffffffffffffffffffffffffffffff16141561445d576040517f08c379a00000000000000000000000000000000000000000000000000000000081526004018080602001828103825260098152602001807f4248503a452d343033000000000000000000000000000000000000000000000081525060200191505060405180910390fd5b8047106144db5761448d818373ffffffffffffffffffffffffffffffffffffffff166145eb90919063ffffffff16565b8173ffffffffffffffffffffffffffffffffffffffff167eddb683bb45cd5d0ad8a200c6fae7152b1c236ee90a4a37db692407f5cc38bd826040518082815260200191505060405180910390a25b5050565b61457c8363a9059cbb60e01b8484604051602401808373ffffffffffffffffffffffffffffffffffffffff16815260200182815260200192505050604051602081830303815290604052907bffffffffffffffffffffffffffffffffffffffffffffffffffffffff19166020820180517bffffffffffffffffffffffffffffffffffffffffffffffffffffffff8381831617835250505050614725565b505050565b6000808260601b90506040517f3d602d80600a3d3981f3363d3d373d3d3d363d7300000000000000000000000081528160148201527f5af43d82803e903d91602b57fd5bf3000000000000000000000000000000000060288201526037816000f092505050919050565b80471015614661576040517f08c379a000000000000000000000000000000000000000000000000000000000815260040180806020018281038252601d8152602001807f416464726573733a20696e73756666696369656e742062616c616e636500000081525060200191505060405180910390fd5b60008273ffffffffffffffffffffffffffffffffffffffff168260405180600001905060006040518083038185875af1925050503d80600081146146c1576040519150601f19603f3d011682016040523d82523d6000602084013e6146c6565b606091505b5050905080614720576040517f08c379a000000000000000000000000000000000000000000000000000000000815260040180806020018281038252603a815260200180614a6c603a913960400191505060405180910390fd5b505050565b6060614787826040518060400160405280602081526020017f5361666545524332303a206c6f772d6c6576656c2063616c6c206661696c65648152508573ffffffffffffffffffffffffffffffffffffffff166148149092919063ffffffff16565b905060008151111561480f578080602001905160208110156147a857600080fd5b810190808051906020019092919050505061480e576040517f08c379a000000000000000000000000000000000000000000000000000000000815260040180806020018281038252602a815260200180614aa6602a913960400191505060405180910390fd5b5b505050565b6060614823848460008561482c565b90509392505050565b606061483785614a32565b6148a9576040517f08c379a000000000000000000000000000000000000000000000000000000000815260040180806020018281038252601d8152602001807f416464726573733a2063616c6c20746f206e6f6e2d636f6e747261637400000081525060200191505060405180910390fd5b600060608673ffffffffffffffffffffffffffffffffffffffff1685876040518082805190602001908083835b602083106148f957805182526020820191506020810190506020830392506148d6565b6001836020036101000a03801982511681845116808217855250505050505090500191505060006040518083038185875af1925050503d806000811461495b576040519150601f19603f3d011682016040523d82523d6000602084013e614960565b606091505b50915091508115614975578092505050614a2a565b6000815111156149885780518082602001fd5b836040517f08c379a00000000000000000000000000000000000000000000000000000000081526004018080602001828103825283818151815260200191508051906020019080838360005b838110156149ef5780820151818401526020810190506149d4565b50505050905090810190601f168015614a1c5780820380516001836020036101000a031916815260200191505b509250505060405180910390fd5b949350505050565b600080823b90506000811191505091905056fe4f776e61626c653a206e6577206f776e657220697320746865207a65726f2061646472657373416464726573733a20756e61626c6520746f2073656e642076616c75652c20726563697069656e74206d617920686176652072657665727465645361666545524332303a204552433230206f7065726174696f6e20646964206e6f742073756363656564a26469706673582212207dc401807c580e8fc79a0c4030fd81a49a2e6d133891072ebf3daca129779bfc64736f6c634300060c0033608060405234801561001057600080fd5b50612c96806100206000396000f3fe608060405234801561001057600080fd5b50600436106101375760003560e01c80638129fc1c116100b8578063b62e48111161007c578063b62e4811146107b7578063b744a85014610843578063c87f3c031461089b578063d6cf57e6146108a5578063ebb6dad81461090e578063f4fadc821461096657610137565b80638129fc1c1461050f578063883c042b14610519578063a0cc02e014610573578063a0edb48b146105e1578063a18ea08f1461065957610137565b80634b6b8150116100ff5780634b6b81501461034b578063522f68151461038f57806374ee6b62146103dd57806379ee54f71461045f5780637abdd2d1146104b757610137565b80630e917f761461013c5780630efe6a8b146101e55780631071dd99146102515780634025feb21461026f57806344004cc1146102dd575b600080fd5b6101c86004803603608081101561015257600080fd5b81019080803573ffffffffffffffffffffffffffffffffffffffff169060200190929190803573ffffffffffffffffffffffffffffffffffffffff16906020019092919080359060200190929190803573ffffffffffffffffffffffffffffffffffffffff169060200190929190505050610a19565b604051808381526020018281526020019250505060405180910390f35b61023b600480360360608110156101fb57600080fd5b81019080803573ffffffffffffffffffffffffffffffffffffffff1690602001909291908035906020019092919080359060200190929190505050610bb5565b6040518082815260200191505060405180910390f35b610259610d1d565b6040518082815260200191505060405180910390f35b6102db6004803603606081101561028557600080fd5b81019080803573ffffffffffffffffffffffffffffffffffffffff169060200190929190803573ffffffffffffffffffffffffffffffffffffffff16906020019092919080359060200190929190505050610d2e565b005b610349600480360360608110156102f357600080fd5b81019080803573ffffffffffffffffffffffffffffffffffffffff169060200190929190803573ffffffffffffffffffffffffffffffffffffffff16906020019092919080359060200190929190505050610dff565b005b61038d6004803603602081101561036157600080fd5b81019080803573ffffffffffffffffffffffffffffffffffffffff169060200190929190505050610ed0565b005b6103db600480360360408110156103a557600080fd5b81019080803573ffffffffffffffffffffffffffffffffffffffff16906020019092919080359060200190929190505050611079565b005b610449600480360360608110156103f357600080fd5b81019080803573ffffffffffffffffffffffffffffffffffffffff169060200190929190803573ffffffffffffffffffffffffffffffffffffffff16906020019092919080359060200190929190505050611148565b6040518082815260200191505060405180910390f35b6104a16004803603602081101561047557600080fd5b81019080803573ffffffffffffffffffffffffffffffffffffffff169060200190929190505050611369565b6040518082815260200191505060405180910390f35b6104f9600480360360208110156104cd57600080fd5b81019080803573ffffffffffffffffffffffffffffffffffffffff169060200190929190505050611414565b6040518082815260200191505060405180910390f35b610517611426565b005b61055b6004803603602081101561052f57600080fd5b81019080803573ffffffffffffffffffffffffffffffffffffffff169060200190929190505050611430565b60405180821515815260200191505060405180910390f35b6105b56004803603602081101561058957600080fd5b81019080803573ffffffffffffffffffffffffffffffffffffffff169060200190929190505050611444565b604051808273ffffffffffffffffffffffffffffffffffffffff16815260200191505060405180910390f35b610657600480360360808110156105f757600080fd5b81019080803573ffffffffffffffffffffffffffffffffffffffff169060200190929190803573ffffffffffffffffffffffffffffffffffffffff169060200190929190803590602001909291908035906020019092919050505061144e565b005b61073c6004803603606081101561066f57600080fd5b81019080803573ffffffffffffffffffffffffffffffffffffffff16906020019092919080359060200190929190803590602001906401000000008111156106b657600080fd5b8201836020820111156106c857600080fd5b803590602001918460018302840111640100000000831117156106ea57600080fd5b91908080601f016020809104026020016040519081016040528093929190818152602001838380828437600081840152601f19601f820116905080830192505050505050509192919290505050611521565b6040518080602001828103825283818151815260200191508051906020019080838360005b8381101561077c578082015181840152602081019050610761565b50505050905090810190601f1680156107a95780820380516001836020036101000a031916815260200191505b509250505060405180910390f35b61082d600480360360808110156107cd57600080fd5b81019080803573ffffffffffffffffffffffffffffffffffffffff16906020019092919080359060200190929190803573ffffffffffffffffffffffffffffffffffffffff16906020019092919080359060200190929190505050611755565b6040518082815260200191505060405180910390f35b61086f6004803603602081101561085957600080fd5b8101908080359060200190929190505050611824565b604051808273ffffffffffffffffffffffffffffffffffffffff16815260200191505060405180910390f35b6108a361185b565b005b6108f1600480360360408110156108bb57600080fd5b81019080803573ffffffffffffffffffffffffffffffffffffffff1690602001909291908035906020019092919050505061195f565b604051808381526020018281526020019250505060405180910390f35b6109506004803603602081101561092457600080fd5b81019080803573ffffffffffffffffffffffffffffffffffffffff169060200190929190505050611970565b6040518082815260200191505060405180910390f35b6109fc600480360360a081101561097c57600080fd5b81019080803573ffffffffffffffffffffffffffffffffffffffff169060200190929190803573ffffffffffffffffffffffffffffffffffffffff16906020019092919080359060200190929190803573ffffffffffffffffffffffffffffffffffffffff16906020019092919080359060200190929190505050611982565b604051808381526020018281526020019250505060405180910390f35b6000803373ffffffffffffffffffffffffffffffffffffffff1660008054906101000a900473ffffffffffffffffffffffffffffffffffffffff1673ffffffffffffffffffffffffffffffffffffffff1614610add576040517f08c379a00000000000000000000000000000000000000000000000000000000081526004018080602001828103825260098152602001807f5357423a452d313039000000000000000000000000000000000000000000000081525060200191505060405180910390fd5b60009150610aea83611b2a565b9050610b3e81600360008673ffffffffffffffffffffffffffffffffffffffff1673ffffffffffffffffffffffffffffffffffffffff16815260200190815260200160002054611b7390919063ffffffff16565b600360008573ffffffffffffffffffffffffffffffffffffffff1673ffffffffffffffffffffffffffffffffffffffff16815260200190815260200160002081905550610bac86828573ffffffffffffffffffffffffffffffffffffffff16611bbd9092919063ffffffff16565b94509492505050565b60003373ffffffffffffffffffffffffffffffffffffffff1660008054906101000a900473ffffffffffffffffffffffffffffffffffffffff1673ffffffffffffffffffffffffffffffffffffffff1614610c78576040517f08c379a00000000000000000000000000000000000000000000000000000000081526004018080602001828103825260098152602001807f5357423a452d313039000000000000000000000000000000000000000000000081525060200191505060405180910390fd5b610c8184611c5f565b610cd383600360008773ffffffffffffffffffffffffffffffffffffffff1673ffffffffffffffffffffffffffffffffffffffff16815260200190815260200160002054611c9090919063ffffffff16565b600360008673ffffffffffffffffffffffffffffffffffffffff1673ffffffffffffffffffffffffffffffffffffffff168152602001908152602001600020819055509392505050565b6000610d296001611d18565b905090565b3373ffffffffffffffffffffffffffffffffffffffff1660008054906101000a900473ffffffffffffffffffffffffffffffffffffffff1673ffffffffffffffffffffffffffffffffffffffff1614610def576040517f08c379a00000000000000000000000000000000000000000000000000000000081526004018080602001828103825260098152602001807f5357423a452d313039000000000000000000000000000000000000000000000081525060200191505060405180910390fd5b610dfa838383611d2d565b505050565b3373ffffffffffffffffffffffffffffffffffffffff1660008054906101000a900473ffffffffffffffffffffffffffffffffffffffff1673ffffffffffffffffffffffffffffffffffffffff1614610ec0576040517f08c379a00000000000000000000000000000000000000000000000000000000081526004018080602001828103825260098152602001807f5357423a452d313039000000000000000000000000000000000000000000000081525060200191505060405180910390fd5b610ecb838383611f97565b505050565b3373ffffffffffffffffffffffffffffffffffffffff1660008054906101000a900473ffffffffffffffffffffffffffffffffffffffff1673ffffffffffffffffffffffffffffffffffffffff1614610f91576040517f08c379a00000000000000000000000000000000000000000000000000000000081526004018080602001828103825260098152602001807f5357423a452d313039000000000000000000000000000000000000000000000081525060200191505060405180910390fd5b8073ffffffffffffffffffffffffffffffffffffffff166370a08231306040518263ffffffff1660e01b8152600401808273ffffffffffffffffffffffffffffffffffffffff16815260200191505060206040518083038186803b158015610ff857600080fd5b505afa15801561100c573d6000803e3d6000fd5b505050506040513d602081101561102257600080fd5b8101908080519060200190929190505050600360008373ffffffffffffffffffffffffffffffffffffffff1673ffffffffffffffffffffffffffffffffffffffff1681526020019081526020016000208190555050565b3373ffffffffffffffffffffffffffffffffffffffff1660008054906101000a900473ffffffffffffffffffffffffffffffffffffffff1673ffffffffffffffffffffffffffffffffffffffff161461113a576040517f08c379a00000000000000000000000000000000000000000000000000000000081526004018080602001828103825260098152602001807f5357423a452d313039000000000000000000000000000000000000000000000081525060200191505060405180910390fd5b6111448282612178565b5050565b60003373ffffffffffffffffffffffffffffffffffffffff1660008054906101000a900473ffffffffffffffffffffffffffffffffffffffff1673ffffffffffffffffffffffffffffffffffffffff161461120b576040517f08c379a00000000000000000000000000000000000000000000000000000000081526004018080602001828103825260098152602001807f5357423a452d313039000000000000000000000000000000000000000000000081525060200191505060405180910390fd5b6000309050600084905060008173ffffffffffffffffffffffffffffffffffffffff166370a08231846040518263ffffffff1660e01b8152600401808273ffffffffffffffffffffffffffffffffffffffff16815260200191505060206040518083038186803b15801561127e57600080fd5b505afa158015611292573d6000803e3d6000fd5b505050506040513d60208110156112a857600080fd5b8101908080519060200190929190505050905084811015611331576040517f08c379a00000000000000000000000000000000000000000000000000000000081526004018080602001828103825260098152602001807f4753573a452d343131000000000000000000000000000000000000000000000081525060200191505060405180910390fd5b61135c87868473ffffffffffffffffffffffffffffffffffffffff16611bbd9092919063ffffffff16565b8493505050509392505050565b60008173ffffffffffffffffffffffffffffffffffffffff166370a08231306040518263ffffffff1660e01b8152600401808273ffffffffffffffffffffffffffffffffffffffff16815260200191505060206040518083038186803b1580156113d257600080fd5b505afa1580156113e6573d6000803e3d6000fd5b505050506040513d60208110156113fc57600080fd5b81019080805190602001909291905050509050919050565b600061141f82611b2a565b9050919050565b61142e61185b565b565b60008061143c83611b2a565b149050919050565b6000819050919050565b3373ffffffffffffffffffffffffffffffffffffffff1660008054906101000a900473ffffffffffffffffffffffffffffffffffffffff1673ffffffffffffffffffffffffffffffffffffffff161461150f576040517f08c379a00000000000000000000000000000000000000000000000000000000081526004018080602001828103825260098152602001807f5357423a452d313039000000000000000000000000000000000000000000000081525060200191505060405180910390fd5b61151b8484848461229d565b50505050565b60603373ffffffffffffffffffffffffffffffffffffffff1660008054906101000a900473ffffffffffffffffffffffffffffffffffffffff1673ffffffffffffffffffffffffffffffffffffffff16146115e4576040517f08c379a00000000000000000000000000000000000000000000000000000000081526004018080602001828103825260098152602001807f5357423a452d313039000000000000000000000000000000000000000000000081525060200191505060405180910390fd5b600060608573ffffffffffffffffffffffffffffffffffffffff1685856040518082805190602001908083835b602083106116345780518252602082019150602081019050602083039250611611565b6001836020036101000a03801982511681845116808217855250505050505090500191505060006040518083038185875af1925050503d8060008114611696576040519150601f19603f3d011682016040523d82523d6000602084013e61169b565b606091505b5091509150818190611748576040517f08c379a00000000000000000000000000000000000000000000000000000000081526004018080602001828103825283818151815260200191508051906020019080838360005b8381101561170d5780820151818401526020810190506116f2565b50505050905090810190601f16801561173a5780820380516001836020036101000a031916815260200191505b509250505060405180910390fd5b5080925050509392505050565b60003373ffffffffffffffffffffffffffffffffffffffff1660008054906101000a900473ffffffffffffffffffffffffffffffffffffffff1673ffffffffffffffffffffffffffffffffffffffff1614611818576040517f08c379a00000000000000000000000000000000000000000000000000000000081526004018080602001828103825260098152602001807f5357423a452d313039000000000000000000000000000000000000000000000081525060200191505060405180910390fd5b60009050949350505050565b60006118306001611d18565b821061183f5760009050611856565b61185382600161251f90919063ffffffff16565b90505b919050565b600073ffffffffffffffffffffffffffffffffffffffff1660008054906101000a900473ffffffffffffffffffffffffffffffffffffffff1673ffffffffffffffffffffffffffffffffffffffff161461191d576040517f08c379a00000000000000000000000000000000000000000000000000000000081526004018080602001828103825260098152602001807f5357423a452d303032000000000000000000000000000000000000000000000081525060200191505060405180910390fd5b336000806101000a81548173ffffffffffffffffffffffffffffffffffffffff021916908373ffffffffffffffffffffffffffffffffffffffff160217905550565b600080600080915091509250929050565b600061197b82611b2a565b9050919050565b6000803373ffffffffffffffffffffffffffffffffffffffff1660008054906101000a900473ffffffffffffffffffffffffffffffffffffffff1673ffffffffffffffffffffffffffffffffffffffff1614611a46576040517f08c379a00000000000000000000000000000000000000000000000000000000081526004018080602001828103825260098152602001807f5357423a452d313039000000000000000000000000000000000000000000000081525060200191505060405180910390fd5b60009150611a5384611b2a565b9050828110611a60578290505b611ab281600360008773ffffffffffffffffffffffffffffffffffffffff1673ffffffffffffffffffffffffffffffffffffffff16815260200190815260200160002054611b7390919063ffffffff16565b600360008673ffffffffffffffffffffffffffffffffffffffff1673ffffffffffffffffffffffffffffffffffffffff16815260200190815260200160002081905550611b2087828673ffffffffffffffffffffffffffffffffffffffff16611bbd9092919063ffffffff16565b9550959350505050565b6000600360008373ffffffffffffffffffffffffffffffffffffffff1673ffffffffffffffffffffffffffffffffffffffff168152602001908152602001600020549050919050565b6000611bb583836040518060400160405280601e81526020017f536166654d6174683a207375627472616374696f6e206f766572666c6f770000815250612539565b905092915050565b611c5a8363a9059cbb60e01b8484604051602401808373ffffffffffffffffffffffffffffffffffffffff16815260200182815260200192505050604051602081830303815290604052907bffffffffffffffffffffffffffffffffffffffffffffffffffffffff19166020820180517bffffffffffffffffffffffffffffffffffffffffffffffffffffffff83818316178352505050506125f9565b505050565b611c738160016126e890919063ffffffff16565b611c8d57611c8b81600161271890919063ffffffff16565b505b50565b600080828401905083811015611d0e576040517f08c379a000000000000000000000000000000000000000000000000000000000815260040180806020018281038252601b8152602001807f536166654d6174683a206164646974696f6e206f766572666c6f77000000000081525060200191505060405180910390fd5b8091505092915050565b6000611d2682600001612748565b9050919050565b600073ffffffffffffffffffffffffffffffffffffffff168373ffffffffffffffffffffffffffffffffffffffff161415611dd0576040517f08c379a00000000000000000000000000000000000000000000000000000000081526004018080602001828103825260098152602001807f4248503a452d343033000000000000000000000000000000000000000000000081525060200191505060405180910390fd5b3073ffffffffffffffffffffffffffffffffffffffff168273ffffffffffffffffffffffffffffffffffffffff16636352211e836040518263ffffffff1660e01b81526004018082815260200191505060206040518083038186803b158015611e3857600080fd5b505afa158015611e4c573d6000803e3d6000fd5b505050506040513d6020811015611e6257600080fd5b810190808051906020019092919050505073ffffffffffffffffffffffffffffffffffffffff161415611f92578173ffffffffffffffffffffffffffffffffffffffff166323b872dd3085846040518463ffffffff1660e01b8152600401808473ffffffffffffffffffffffffffffffffffffffff1681526020018373ffffffffffffffffffffffffffffffffffffffff1681526020018281526020019350505050600060405180830381600087803b158015611f1e57600080fd5b505af1158015611f32573d6000803e3d6000fd5b50505050808273ffffffffffffffffffffffffffffffffffffffff168473ffffffffffffffffffffffffffffffffffffffff167ffefe036cac4ee3a4aca074a81cbcc4376e1484693289078dbec149c890101d5b60405160405180910390a45b505050565b600073ffffffffffffffffffffffffffffffffffffffff168373ffffffffffffffffffffffffffffffffffffffff16141561203a576040517f08c379a00000000000000000000000000000000000000000000000000000000081526004018080602001828103825260098152602001807f4248503a452d343033000000000000000000000000000000000000000000000081525060200191505060405180910390fd5b808273ffffffffffffffffffffffffffffffffffffffff166370a08231306040518263ffffffff1660e01b8152600401808273ffffffffffffffffffffffffffffffffffffffff16815260200191505060206040518083038186803b1580156120a257600080fd5b505afa1580156120b6573d6000803e3d6000fd5b505050506040513d60208110156120cc57600080fd5b8101908080519060200190929190505050106121735761210d83828473ffffffffffffffffffffffffffffffffffffffff16611bbd9092919063ffffffff16565b8173ffffffffffffffffffffffffffffffffffffffff168373ffffffffffffffffffffffffffffffffffffffff167f6c9d637297625e945b296ff73a71fcfbd0a9e062652b6491a921c4c60194176b836040518082815260200191505060405180910390a35b505050565b600073ffffffffffffffffffffffffffffffffffffffff168273ffffffffffffffffffffffffffffffffffffffff16141561221b576040517f08c379a00000000000000000000000000000000000000000000000000000000081526004018080602001828103825260098152602001807f4248503a452d343033000000000000000000000000000000000000000000000081525060200191505060405180910390fd5b8047106122995761224b818373ffffffffffffffffffffffffffffffffffffffff1661275990919063ffffffff16565b8173ffffffffffffffffffffffffffffffffffffffff167eddb683bb45cd5d0ad8a200c6fae7152b1c236ee90a4a37db692407f5cc38bd826040518082815260200191505060405180910390a25b5050565b600073ffffffffffffffffffffffffffffffffffffffff168473ffffffffffffffffffffffffffffffffffffffff161415612340576040517f08c379a00000000000000000000000000000000000000000000000000000000081526004018080602001828103825260098152602001807f4248503a452d343033000000000000000000000000000000000000000000000081525060200191505060405180910390fd5b808373ffffffffffffffffffffffffffffffffffffffff1662fdd58e30856040518363ffffffff1660e01b8152600401808373ffffffffffffffffffffffffffffffffffffffff1681526020018281526020019250505060206040518083038186803b1580156123af57600080fd5b505afa1580156123c3573d6000803e3d6000fd5b505050506040513d60208110156123d957600080fd5b810190808051906020019092919050505010612519578273ffffffffffffffffffffffffffffffffffffffff1663f242432a308685856040518563ffffffff1660e01b8152600401808573ffffffffffffffffffffffffffffffffffffffff1681526020018473ffffffffffffffffffffffffffffffffffffffff1681526020018381526020018281526020018060200182810382526000815260200160200195505050505050600060405180830381600087803b15801561249a57600080fd5b505af11580156124ae573d6000803e3d6000fd5b50505050818373ffffffffffffffffffffffffffffffffffffffff168573ffffffffffffffffffffffffffffffffffffffff167f620337bf89eea2b9ae2657beead83b5fa620452817118348aff96e201d52598b846040518082815260200191505060405180910390a45b50505050565b600061252e8360000183612893565b60001c905092915050565b60008383111582906125e6576040517f08c379a00000000000000000000000000000000000000000000000000000000081526004018080602001828103825283818151815260200191508051906020019080838360005b838110156125ab578082015181840152602081019050612590565b50505050905090810190601f1680156125d85780820380516001836020036101000a031916815260200191505b509250505060405180910390fd5b5060008385039050809150509392505050565b606061265b826040518060400160405280602081526020017f5361666545524332303a206c6f772d6c6576656c2063616c6c206661696c65648152508573ffffffffffffffffffffffffffffffffffffffff166129169092919063ffffffff16565b90506000815111156126e35780806020019051602081101561267c57600080fd5b81019080805190602001909291905050506126e2576040517f08c379a000000000000000000000000000000000000000000000000000000000815260040180806020018281038252602a815260200180612c37602a913960400191505060405180910390fd5b5b505050565b6000612710836000018373ffffffffffffffffffffffffffffffffffffffff1660001b61292e565b905092915050565b6000612740836000018373ffffffffffffffffffffffffffffffffffffffff1660001b612951565b905092915050565b600081600001805490509050919050565b804710156127cf576040517f08c379a000000000000000000000000000000000000000000000000000000000815260040180806020018281038252601d8152602001807f416464726573733a20696e73756666696369656e742062616c616e636500000081525060200191505060405180910390fd5b60008273ffffffffffffffffffffffffffffffffffffffff168260405180600001905060006040518083038185875af1925050503d806000811461282f576040519150601f19603f3d011682016040523d82523d6000602084013e612834565b606091505b505090508061288e576040517f08c379a000000000000000000000000000000000000000000000000000000000815260040180806020018281038252603a815260200180612bfd603a913960400191505060405180910390fd5b505050565b6000818360000180549050116128f4576040517f08c379a0000000000000000000000000000000000000000000000000000000008152600401808060200182810382526022815260200180612bdb6022913960400191505060405180910390fd5b82600001828154811061290357fe5b9060005260206000200154905092915050565b606061292584846000856129c1565b90509392505050565b600080836001016000848152602001908152602001600020541415905092915050565b600061295d838361292e565b6129b65782600001829080600181540180825580915050600190039060005260206000200160009091909190915055826000018054905083600101600084815260200190815260200160002081905550600190506129bb565b600090505b92915050565b60606129cc85612bc7565b612a3e576040517f08c379a000000000000000000000000000000000000000000000000000000000815260040180806020018281038252601d8152602001807f416464726573733a2063616c6c20746f206e6f6e2d636f6e747261637400000081525060200191505060405180910390fd5b600060608673ffffffffffffffffffffffffffffffffffffffff1685876040518082805190602001908083835b60208310612a8e5780518252602082019150602081019050602083039250612a6b565b6001836020036101000a03801982511681845116808217855250505050505090500191505060006040518083038185875af1925050503d8060008114612af0576040519150601f19603f3d011682016040523d82523d6000602084013e612af5565b606091505b50915091508115612b0a578092505050612bbf565b600081511115612b1d5780518082602001fd5b836040517f08c379a00000000000000000000000000000000000000000000000000000000081526004018080602001828103825283818151815260200191508051906020019080838360005b83811015612b84578082015181840152602081019050612b69565b50505050905090810190601f168015612bb15780820380516001836020036101000a031916815260200191505b509250505060405180910390fd5b949350505050565b600080823b90506000811191505091905056fe456e756d657261626c655365743a20696e646578206f7574206f6620626f756e6473416464726573733a20756e61626c6520746f2073656e642076616c75652c20726563697069656e74206d617920686176652072657665727465645361666545524332303a204552433230206f7065726174696f6e20646964206e6f742073756363656564a2646970667358221220e55947412ff8c6c03a349a78f83f550463a77038458180f7ea0c2ab95ebc95e464736f6c634300060c0033",
  "linkReferences": {},
  "deployedLinkReferences": {}
}