{
  "_format": "hh-sol-artifact-1",
  "contractName": "ProtonC",
  "sourceName": "contracts/v1/tokens/ProtonC.sol",
  "abi": [
    {
      "inputs": [],
      "stateMutability": "nonpayable",
      "type": "constructor"
    },
    {
      "anonymous": false,
      "inputs": [
        {
          "indexed": true,
          "internalType": "address",
          "name": "owner",
          "type": "address"
        },
        {
          "indexed": true,
          "internalType": "address",
          "name": "approved",
          "type": "address"
        },
        {
          "indexed": true,
          "internalType": "uint256",
          "name": "tokenId",
          "type": "uint256"
        }
      ],
      "name": "Approval",
      "type": "event"
    },
    {
      "anonymous": false,
      "inputs": [
        {
          "indexed": true,
          "internalType": "address",
          "name": "owner",
          "type": "address"
        },
        {
          "indexed": true,
          "internalType": "address",
          "name": "operator",
          "type": "address"
        },
        {
          "indexed": false,
          "internalType": "bool",
          "name": "approved",
          "type": "bool"
        }
      ],
      "name": "ApprovalForAll",
      "type": "event"
    },
    {
      "anonymous": false,
      "inputs": [
        {
          "indexed": true,
          "internalType": "address",
          "name": "chargedParticles",
          "type": "address"
        }
      ],
      "name": "ChargedParticlesSet",
      "type": "event"
    },
    {
      "anonymous": false,
      "inputs": [
        {
          "indexed": true,
          "internalType": "address",
          "name": "chargedSettings",
          "type": "address"
        }
      ],
      "name": "ChargedSettingsSet",
      "type": "event"
    },
    {
      "anonymous": false,
      "inputs": [
        {
          "indexed": true,
          "internalType": "address",
          "name": "chargedState",
          "type": "address"
        }
      ],
      "name": "ChargedStateSet",
      "type": "event"
    },
    {
      "anonymous": false,
      "inputs": [
        {
          "indexed": true,
          "internalType": "uint256",
          "name": "tokenId",
          "type": "uint256"
        },
        {
          "indexed": false,
          "internalType": "uint256",
          "name": "royaltiesPct",
          "type": "uint256"
        }
      ],
      "name": "CreatorRoyaltiesSet",
      "type": "event"
    },
    {
      "anonymous": false,
      "inputs": [
        {
          "indexed": true,
          "internalType": "address",
          "name": "receiver",
          "type": "address"
        },
        {
          "indexed": false,
          "internalType": "uint256",
          "name": "amount",
          "type": "uint256"
        }
      ],
      "name": "FeesWithdrawn",
      "type": "event"
    },
    {
      "anonymous": false,
      "inputs": [
        {
          "indexed": false,
          "internalType": "uint256",
          "name": "tokenId",
          "type": "uint256"
        }
      ],
      "name": "Locked",
      "type": "event"
    },
    {
      "anonymous": false,
      "inputs": [
        {
          "indexed": true,
          "internalType": "address",
          "name": "previousOwner",
          "type": "address"
        },
        {
          "indexed": true,
          "internalType": "address",
          "name": "newOwner",
          "type": "address"
        }
      ],
      "name": "OwnershipTransferred",
      "type": "event"
    },
    {
      "anonymous": false,
      "inputs": [
        {
          "indexed": false,
          "internalType": "bool",
          "name": "isPaused",
          "type": "bool"
        }
      ],
      "name": "PausedStateSet",
      "type": "event"
    },
    {
      "anonymous": false,
      "inputs": [
        {
          "indexed": true,
          "internalType": "uint256",
          "name": "tokenId",
          "type": "uint256"
        },
        {
          "indexed": true,
          "internalType": "address",
          "name": "oldOwner",
          "type": "address"
        },
        {
          "indexed": true,
          "internalType": "address",
          "name": "newOwner",
          "type": "address"
        },
        {
          "indexed": false,
          "internalType": "uint256",
          "name": "salePrice",
          "type": "uint256"
        },
        {
          "indexed": false,
          "internalType": "address",
          "name": "creator",
          "type": "address"
        },
        {
          "indexed": false,
          "internalType": "uint256",
          "name": "creatorRoyalties",
          "type": "uint256"
        }
      ],
      "name": "ProtonSold",
      "type": "event"
    },
    {
      "anonymous": false,
      "inputs": [
        {
          "indexed": false,
          "internalType": "address",
          "name": "",
          "type": "address"
        },
        {
          "indexed": false,
          "internalType": "uint256",
          "name": "",
          "type": "uint256"
        }
      ],
      "name": "Received",
      "type": "event"
    },
    {
      "anonymous": false,
      "inputs": [
        {
          "indexed": true,
          "internalType": "address",
          "name": "receiver",
          "type": "address"
        },
        {
          "indexed": false,
          "internalType": "uint256",
          "name": "amountClaimed",
          "type": "uint256"
        }
      ],
      "name": "RoyaltiesClaimed",
      "type": "event"
    },
    {
      "anonymous": false,
      "inputs": [
        {
          "indexed": true,
          "internalType": "uint256",
          "name": "tokenId",
          "type": "uint256"
        },
        {
          "indexed": false,
          "internalType": "uint256",
          "name": "salePrice",
          "type": "uint256"
        }
      ],
      "name": "SalePriceSet",
      "type": "event"
    },
    {
      "anonymous": false,
      "inputs": [
        {
          "indexed": true,
          "internalType": "address",
          "name": "from",
          "type": "address"
        },
        {
          "indexed": true,
          "internalType": "address",
          "name": "to",
          "type": "address"
        },
        {
          "indexed": true,
          "internalType": "uint256",
          "name": "tokenId",
          "type": "uint256"
        }
      ],
      "name": "Transfer",
      "type": "event"
    },
    {
      "anonymous": false,
      "inputs": [
        {
          "indexed": true,
          "internalType": "address",
          "name": "from",
          "type": "address"
        },
        {
          "indexed": true,
          "internalType": "address",
          "name": "to",
          "type": "address"
        },
        {
          "indexed": false,
          "internalType": "uint256",
          "name": "startTokenId",
          "type": "uint256"
        },
        {
          "indexed": false,
          "internalType": "uint256",
          "name": "count",
          "type": "uint256"
        }
      ],
      "name": "TransferBatch",
      "type": "event"
    },
    {
      "anonymous": false,
      "inputs": [
        {
          "indexed": true,
          "internalType": "address",
          "name": "universe",
          "type": "address"
        }
      ],
      "name": "UniverseSet",
      "type": "event"
    },
    {
      "anonymous": false,
      "inputs": [
        {
          "indexed": false,
          "internalType": "uint256",
          "name": "tokenId",
          "type": "uint256"
        }
      ],
      "name": "Unlocked",
      "type": "event"
    },
    {
      "anonymous": false,
      "inputs": [
        {
          "indexed": true,
          "internalType": "address",
          "name": "receiver",
          "type": "address"
        },
        {
          "indexed": true,
          "internalType": "address",
          "name": "tokenAddress",
          "type": "address"
        },
        {
          "indexed": true,
          "internalType": "uint256",
          "name": "tokenId",
          "type": "uint256"
        },
        {
          "indexed": false,
          "internalType": "uint256",
          "name": "amount",
          "type": "uint256"
        }
      ],
      "name": "WithdrawStuckERC1155",
      "type": "event"
    },
    {
      "anonymous": false,
      "inputs": [
        {
          "indexed": true,
          "internalType": "address",
          "name": "receiver",
          "type": "address"
        },
        {
          "indexed": true,
          "internalType": "address",
          "name": "tokenAddress",
          "type": "address"
        },
        {
          "indexed": false,
          "internalType": "uint256",
          "name": "amount",
          "type": "uint256"
        }
      ],
      "name": "WithdrawStuckERC20",
      "type": "event"
    },
    {
      "anonymous": false,
      "inputs": [
        {
          "indexed": true,
          "internalType": "address",
          "name": "receiver",
          "type": "address"
        },
        {
          "indexed": true,
          "internalType": "address",
          "name": "tokenAddress",
          "type": "address"
        },
        {
          "indexed": true,
          "internalType": "uint256",
          "name": "tokenId",
          "type": "uint256"
        }
      ],
      "name": "WithdrawStuckERC721",
      "type": "event"
    },
    {
      "anonymous": false,
      "inputs": [
        {
          "indexed": true,
          "internalType": "address",
          "name": "receiver",
          "type": "address"
        },
        {
          "indexed": false,
          "internalType": "uint256",
          "name": "amount",
          "type": "uint256"
        }
      ],
      "name": "WithdrawStuckEther",
      "type": "event"
    },
    {
      "inputs": [
        {
          "internalType": "address",
          "name": "to",
          "type": "address"
        },
        {
          "internalType": "uint256",
          "name": "tokenId",
          "type": "uint256"
        }
      ],
      "name": "approve",
      "outputs": [],
      "stateMutability": "nonpayable",
      "type": "function"
    },
    {
      "inputs": [
        {
          "internalType": "address",
          "name": "owner",
          "type": "address"
        }
      ],
      "name": "balanceOf",
      "outputs": [
        {
          "internalType": "uint256",
          "name": "",
          "type": "uint256"
        }
      ],
      "stateMutability": "view",
      "type": "function"
    },
    {
      "inputs": [
        {
          "internalType": "uint256",
          "name": "tokenId",
          "type": "uint256"
        }
      ],
      "name": "burn",
      "outputs": [],
      "stateMutability": "nonpayable",
      "type": "function"
    },
    {
      "inputs": [
        {
          "internalType": "uint256",
          "name": "tokenId",
          "type": "uint256"
        },
        {
          "internalType": "uint256",
          "name": "gasLimit",
          "type": "uint256"
        }
      ],
      "name": "buyProton",
      "outputs": [
        {
          "internalType": "bool",
          "name": "",
          "type": "bool"
        }
      ],
      "stateMutability": "payable",
      "type": "function"
    },
    {
      "inputs": [],
      "name": "claimCreatorRoyalties",
      "outputs": [
        {
          "internalType": "uint256",
          "name": "",
          "type": "uint256"
        }
      ],
      "stateMutability": "nonpayable",
      "type": "function"
    },
    {
      "inputs": [
        {
          "internalType": "address",
          "name": "creator",
          "type": "address"
        },
        {
          "internalType": "address",
          "name": "receiver",
          "type": "address"
        },
        {
          "internalType": "string",
          "name": "tokenMetaUri",
          "type": "string"
        }
      ],
      "name": "createBasicProton",
      "outputs": [
        {
          "internalType": "uint256",
          "name": "newTokenId",
          "type": "uint256"
        }
      ],
      "stateMutability": "payable",
      "type": "function"
    },
    {
      "inputs": [
        {
          "internalType": "address",
          "name": "creator",
          "type": "address"
        },
        {
          "internalType": "address",
          "name": "receiver",
          "type": "address"
        },
        {
          "internalType": "string",
          "name": "tokenMetaUri",
          "type": "string"
        },
        {
          "internalType": "uint256",
          "name": "annuityPercent",
          "type": "uint256"
        },
        {
          "internalType": "uint256",
          "name": "royaltiesPercent",
          "type": "uint256"
        }
      ],
      "name": "createBondedToken",
      "outputs": [
        {
          "internalType": "uint256",
          "name": "newTokenId",
          "type": "uint256"
        }
      ],
      "stateMutability": "payable",
      "type": "function"
    },
    {
      "inputs": [
        {
          "internalType": "address",
          "name": "creator",
          "type": "address"
        },
        {
          "internalType": "address",
          "name": "receiver",
          "type": "address"
        },
        {
          "internalType": "address",
          "name": "referrer",
          "type": "address"
        },
        {
          "internalType": "string",
          "name": "tokenMetaUri",
          "type": "string"
        },
        {
          "internalType": "string",
          "name": "walletManagerId",
          "type": "string"
        },
        {
          "internalType": "address",
          "name": "assetToken",
          "type": "address"
        },
        {
          "internalType": "uint256",
          "name": "assetAmount",
          "type": "uint256"
        },
        {
          "internalType": "uint256",
          "name": "annuityPercent",
          "type": "uint256"
        }
      ],
      "name": "createChargedParticle",
      "outputs": [
        {
          "internalType": "uint256",
          "name": "newTokenId",
          "type": "uint256"
        }
      ],
      "stateMutability": "payable",
      "type": "function"
    },
    {
      "inputs": [
        {
          "internalType": "address",
          "name": "creator",
          "type": "address"
        },
        {
          "internalType": "address",
          "name": "receiver",
          "type": "address"
        },
        {
          "internalType": "string",
          "name": "tokenMetaUri",
          "type": "string"
        }
      ],
      "name": "createProton",
      "outputs": [
        {
          "internalType": "uint256",
          "name": "newTokenId",
          "type": "uint256"
        }
      ],
      "stateMutability": "nonpayable",
      "type": "function"
    },
    {
      "inputs": [
        {
          "internalType": "address",
          "name": "creator",
          "type": "address"
        },
        {
          "internalType": "address",
          "name": "receiver",
          "type": "address"
        },
        {
          "internalType": "string",
          "name": "tokenMetaUri",
          "type": "string"
        },
        {
          "internalType": "uint256",
          "name": "annuityPercent",
          "type": "uint256"
        },
        {
          "internalType": "uint256",
          "name": "royaltiesPercent",
          "type": "uint256"
        },
        {
          "internalType": "uint256",
          "name": "salePrice",
          "type": "uint256"
        }
      ],
      "name": "createProtonForSale",
      "outputs": [
        {
          "internalType": "uint256",
          "name": "newTokenId",
          "type": "uint256"
        }
      ],
      "stateMutability": "payable",
      "type": "function"
    },
    {
      "inputs": [
        {
          "internalType": "address",
          "name": "creator",
          "type": "address"
        },
        {
          "internalType": "address",
          "name": "receiver",
          "type": "address"
        },
        {
          "internalType": "string[]",
          "name": "tokenMetaUris",
          "type": "string[]"
        }
      ],
      "name": "createProtons",
      "outputs": [
        {
          "internalType": "bool",
          "name": "",
          "type": "bool"
        }
      ],
      "stateMutability": "nonpayable",
      "type": "function"
    },
    {
      "inputs": [
        {
          "internalType": "address",
          "name": "creator",
          "type": "address"
        },
        {
          "internalType": "address",
          "name": "receiver",
          "type": "address"
        },
        {
          "internalType": "uint256",
          "name": "royaltiesPercent",
          "type": "uint256"
        },
        {
          "internalType": "string[]",
          "name": "tokenMetaUris",
          "type": "string[]"
        },
        {
          "internalType": "uint256[]",
          "name": "salePrices",
          "type": "uint256[]"
        }
      ],
      "name": "createProtonsForSale",
      "outputs": [
        {
          "internalType": "bool",
          "name": "",
          "type": "bool"
        }
      ],
      "stateMutability": "nonpayable",
      "type": "function"
    },
    {
      "inputs": [
        {
          "internalType": "uint256",
          "name": "tokenId",
          "type": "uint256"
        }
      ],
      "name": "creatorOf",
      "outputs": [
        {
          "internalType": "address",
          "name": "",
          "type": "address"
        }
      ],
      "stateMutability": "view",
      "type": "function"
    },
    {
      "inputs": [
        {
          "internalType": "uint256",
          "name": "tokenId",
          "type": "uint256"
        }
      ],
      "name": "getApproved",
      "outputs": [
        {
          "internalType": "address",
          "name": "",
          "type": "address"
        }
      ],
      "stateMutability": "view",
      "type": "function"
    },
    {
      "inputs": [
        {
          "internalType": "address",
          "name": "account",
          "type": "address"
        }
      ],
      "name": "getCreatorRoyalties",
      "outputs": [
        {
          "internalType": "uint256",
          "name": "",
          "type": "uint256"
        }
      ],
      "stateMutability": "view",
      "type": "function"
    },
    {
      "inputs": [
        {
          "internalType": "uint256",
          "name": "tokenId",
          "type": "uint256"
        }
      ],
      "name": "getCreatorRoyaltiesPct",
      "outputs": [
        {
          "internalType": "uint256",
          "name": "",
          "type": "uint256"
        }
      ],
      "stateMutability": "view",
      "type": "function"
    },
    {
      "inputs": [
        {
          "internalType": "uint256",
          "name": "tokenId",
          "type": "uint256"
        }
      ],
      "name": "getCreatorRoyaltiesReceiver",
      "outputs": [
        {
          "internalType": "address",
          "name": "",
          "type": "address"
        }
      ],
      "stateMutability": "view",
      "type": "function"
    },
    {
      "inputs": [
        {
          "internalType": "uint256",
          "name": "tokenId",
          "type": "uint256"
        }
      ],
      "name": "getLastSellPrice",
      "outputs": [
        {
          "internalType": "uint256",
          "name": "",
          "type": "uint256"
        }
      ],
      "stateMutability": "view",
      "type": "function"
    },
    {
      "inputs": [
        {
          "internalType": "uint256",
          "name": "tokenId",
          "type": "uint256"
        }
      ],
      "name": "getSalePrice",
      "outputs": [
        {
          "internalType": "uint256",
          "name": "",
          "type": "uint256"
        }
      ],
      "stateMutability": "view",
      "type": "function"
    },
    {
      "inputs": [
        {
          "internalType": "address",
          "name": "owner",
          "type": "address"
        },
        {
          "internalType": "address",
          "name": "operator",
          "type": "address"
        }
      ],
      "name": "isApprovedForAll",
      "outputs": [
        {
          "internalType": "bool",
          "name": "",
          "type": "bool"
        }
      ],
      "stateMutability": "view",
      "type": "function"
    },
    {
      "inputs": [
        {
          "internalType": "address",
          "name": "forwarder",
          "type": "address"
        }
      ],
      "name": "isTrustedForwarder",
      "outputs": [
        {
          "internalType": "bool",
          "name": "",
          "type": "bool"
        }
      ],
      "stateMutability": "view",
      "type": "function"
    },
    {
      "inputs": [
        {
          "internalType": "uint256",
          "name": "tokenId",
          "type": "uint256"
        }
      ],
      "name": "lockToken",
      "outputs": [],
      "stateMutability": "nonpayable",
      "type": "function"
    },
    {
      "inputs": [
        {
          "internalType": "uint256",
          "name": "tokenId",
          "type": "uint256"
        }
      ],
      "name": "locked",
      "outputs": [
        {
          "internalType": "bool",
          "name": "",
          "type": "bool"
        }
      ],
      "stateMutability": "view",
      "type": "function"
    },
    {
      "inputs": [
        {
          "internalType": "uint256",
          "name": "",
          "type": "uint256"
        }
      ],
      "name": "lockedTokens",
      "outputs": [
        {
          "internalType": "bool",
          "name": "",
          "type": "bool"
        }
      ],
      "stateMutability": "view",
      "type": "function"
    },
    {
      "inputs": [],
      "name": "name",
      "outputs": [
        {
          "internalType": "string",
          "name": "",
          "type": "string"
        }
      ],
      "stateMutability": "view",
      "type": "function"
    },
    {
      "inputs": [],
      "name": "owner",
      "outputs": [
        {
          "internalType": "address",
          "name": "",
          "type": "address"
        }
      ],
      "stateMutability": "view",
      "type": "function"
    },
    {
      "inputs": [
        {
          "internalType": "uint256",
          "name": "tokenId",
          "type": "uint256"
        }
      ],
      "name": "ownerOf",
      "outputs": [
        {
          "internalType": "address",
          "name": "",
          "type": "address"
        }
      ],
      "stateMutability": "view",
      "type": "function"
    },
    {
      "inputs": [],
      "name": "renounceOwnership",
      "outputs": [],
      "stateMutability": "nonpayable",
      "type": "function"
    },
    {
      "inputs": [
        {
          "internalType": "uint256",
          "name": "tokenId",
          "type": "uint256"
        }
      ],
      "name": "requireTokenOwner",
      "outputs": [],
      "stateMutability": "view",
      "type": "function"
    },
    {
      "inputs": [
        {
          "internalType": "address",
          "name": "from",
          "type": "address"
        },
        {
          "internalType": "address",
          "name": "to",
          "type": "address"
        },
        {
          "internalType": "uint256",
          "name": "tokenId",
          "type": "uint256"
        }
      ],
      "name": "safeTransferFrom",
      "outputs": [],
      "stateMutability": "nonpayable",
      "type": "function"
    },
    {
      "inputs": [
        {
          "internalType": "address",
          "name": "from",
          "type": "address"
        },
        {
          "internalType": "address",
          "name": "to",
          "type": "address"
        },
        {
          "internalType": "uint256",
          "name": "tokenId",
          "type": "uint256"
        },
        {
          "internalType": "bytes",
          "name": "_data",
          "type": "bytes"
        }
      ],
      "name": "safeTransferFrom",
      "outputs": [],
      "stateMutability": "nonpayable",
      "type": "function"
    },
    {
      "inputs": [
        {
          "internalType": "address",
          "name": "operator",
          "type": "address"
        },
        {
          "internalType": "bool",
          "name": "approved",
          "type": "bool"
        }
      ],
      "name": "setApprovalForAll",
      "outputs": [],
      "stateMutability": "nonpayable",
      "type": "function"
    },
    {
      "inputs": [
        {
          "internalType": "address",
          "name": "chargedParticles",
          "type": "address"
        }
      ],
      "name": "setChargedParticles",
      "outputs": [],
      "stateMutability": "nonpayable",
      "type": "function"
    },
    {
      "inputs": [
        {
          "internalType": "address",
          "name": "settings",
          "type": "address"
        }
      ],
      "name": "setChargedSettings",
      "outputs": [],
      "stateMutability": "nonpayable",
      "type": "function"
    },
    {
      "inputs": [
        {
          "internalType": "address",
          "name": "stateController",
          "type": "address"
        }
      ],
      "name": "setChargedState",
      "outputs": [],
      "stateMutability": "nonpayable",
      "type": "function"
    },
    {
      "inputs": [
        {
          "internalType": "uint256",
          "name": "tokenId",
          "type": "uint256"
        },
        {
          "internalType": "address",
          "name": "receiver",
          "type": "address"
        }
      ],
      "name": "setCreatorRoyaltiesReceiver",
      "outputs": [],
      "stateMutability": "nonpayable",
      "type": "function"
    },
    {
      "inputs": [
        {
          "internalType": "bool",
          "name": "state",
          "type": "bool"
        }
      ],
      "name": "setPausedState",
      "outputs": [],
      "stateMutability": "nonpayable",
      "type": "function"
    },
    {
      "inputs": [
        {
          "internalType": "uint256",
          "name": "tokenId",
          "type": "uint256"
        },
        {
          "internalType": "uint256",
          "name": "royaltiesPct",
          "type": "uint256"
        }
      ],
      "name": "setRoyaltiesPct",
      "outputs": [],
      "stateMutability": "nonpayable",
      "type": "function"
    },
    {
      "inputs": [
        {
          "internalType": "uint256",
          "name": "tokenId",
          "type": "uint256"
        },
        {
          "internalType": "uint256",
          "name": "salePrice",
          "type": "uint256"
        }
      ],
      "name": "setSalePrice",
      "outputs": [],
      "stateMutability": "nonpayable",
      "type": "function"
    },
    {
      "inputs": [
        {
          "internalType": "address",
          "name": "_trustedForwarder",
          "type": "address"
        }
      ],
      "name": "setTrustedForwarder",
      "outputs": [],
      "stateMutability": "nonpayable",
      "type": "function"
    },
    {
      "inputs": [
        {
          "internalType": "address",
          "name": "universe",
          "type": "address"
        }
      ],
      "name": "setUniverse",
      "outputs": [],
      "stateMutability": "nonpayable",
      "type": "function"
    },
    {
      "inputs": [
        {
          "internalType": "bytes4",
          "name": "interfaceId",
          "type": "bytes4"
        }
      ],
      "name": "supportsInterface",
      "outputs": [
        {
          "internalType": "bool",
          "name": "",
          "type": "bool"
        }
      ],
      "stateMutability": "view",
      "type": "function"
    },
    {
      "inputs": [],
      "name": "symbol",
      "outputs": [
        {
          "internalType": "string",
          "name": "",
          "type": "string"
        }
      ],
      "stateMutability": "view",
      "type": "function"
    },
    {
      "inputs": [
        {
          "internalType": "uint256",
          "name": "index",
          "type": "uint256"
        }
      ],
      "name": "tokenByIndex",
      "outputs": [
        {
          "internalType": "uint256",
          "name": "",
          "type": "uint256"
        }
      ],
      "stateMutability": "view",
      "type": "function"
    },
    {
      "inputs": [
        {
          "internalType": "address",
          "name": "owner",
          "type": "address"
        },
        {
          "internalType": "uint256",
          "name": "index",
          "type": "uint256"
        }
      ],
      "name": "tokenOfOwnerByIndex",
      "outputs": [
        {
          "internalType": "uint256",
          "name": "",
          "type": "uint256"
        }
      ],
      "stateMutability": "view",
      "type": "function"
    },
    {
      "inputs": [
        {
          "internalType": "uint256",
          "name": "tokenId",
          "type": "uint256"
        }
      ],
      "name": "tokenURI",
      "outputs": [
        {
          "internalType": "string",
          "name": "",
          "type": "string"
        }
      ],
      "stateMutability": "view",
      "type": "function"
    },
    {
      "inputs": [],
      "name": "totalSupply",
      "outputs": [
        {
          "internalType": "uint256",
          "name": "",
          "type": "uint256"
        }
      ],
      "stateMutability": "view",
      "type": "function"
    },
    {
      "inputs": [
        {
          "internalType": "address",
          "name": "from",
          "type": "address"
        },
        {
          "internalType": "address",
          "name": "to",
          "type": "address"
        },
        {
          "internalType": "uint256",
          "name": "tokenId",
          "type": "uint256"
        }
      ],
      "name": "transferFrom",
      "outputs": [],
      "stateMutability": "nonpayable",
      "type": "function"
    },
    {
      "inputs": [
        {
          "internalType": "address",
          "name": "newOwner",
          "type": "address"
        }
      ],
      "name": "transferOwnership",
      "outputs": [],
      "stateMutability": "nonpayable",
      "type": "function"
    },
    {
      "inputs": [],
      "name": "trustedForwarder",
      "outputs": [
        {
          "internalType": "address",
          "name": "",
          "type": "address"
        }
      ],
      "stateMutability": "view",
      "type": "function"
    },
    {
      "inputs": [],
      "name": "versionRecipient",
      "outputs": [
        {
          "internalType": "string",
          "name": "",
          "type": "string"
        }
      ],
      "stateMutability": "view",
      "type": "function"
    },
    {
      "inputs": [
        {
          "internalType": "address payable",
          "name": "receiver",
          "type": "address"
        },
        {
          "internalType": "address",
          "name": "tokenAddress",
          "type": "address"
        },
        {
          "internalType": "uint256",
          "name": "tokenId",
          "type": "uint256"
        }
      ],
      "name": "withdrawERC721",
      "outputs": [],
      "stateMutability": "nonpayable",
      "type": "function"
    },
    {
      "inputs": [
        {
          "internalType": "address payable",
          "name": "receiver",
          "type": "address"
        },
        {
          "internalType": "address",
          "name": "tokenAddress",
          "type": "address"
        },
        {
          "internalType": "uint256",
          "name": "amount",
          "type": "uint256"
        }
      ],
      "name": "withdrawErc20",
      "outputs": [],
      "stateMutability": "nonpayable",
      "type": "function"
    },
    {
      "inputs": [
        {
          "internalType": "address payable",
          "name": "receiver",
          "type": "address"
        },
        {
          "internalType": "uint256",
          "name": "amount",
          "type": "uint256"
        }
      ],
      "name": "withdrawEther",
      "outputs": [],
      "stateMutability": "nonpayable",
      "type": "function"
    },
    {
      "stateMutability": "payable",
      "type": "receive"
    }
  ],
  "bytecode": "0x60806040523480156200001157600080fd5b506040518060400160405280601b81526020017f43686172676564205061727469636c6573202d2050726f746f6e4300000000008152506040518060400160405280600881526020017f50524f544f4e2e430000000000000000000000000000000000000000000000008152508181620000986301ffc9a760e01b620001d560201b60201c565b8160069080519060200190620000b09291906200036b565b508060079080519060200190620000c99291906200036b565b50620000e26380ac58cd60e01b620001d560201b60201c565b620000fa635b5e139f60e01b620001d560201b60201c565b6200011263780e9d6360e01b620001d560201b60201c565b5050600062000126620002ad60201b60201c565b905080600960006101000a81548173ffffffffffffffffffffffffffffffffffffffff021916908373ffffffffffffffffffffffffffffffffffffffff1602179055508073ffffffffffffffffffffffffffffffffffffffff16600073ffffffffffffffffffffffffffffffffffffffff167f8be0079c531659141344cd1fd0a4f28419497f9722a3daafe3b4186f6b6457e060405160405180910390a3506001600b81905550505062000486565b63ffffffff60e01b817bffffffffffffffffffffffffffffffffffffffffffffffffffffffff1916141562000241576040517f08c379a0000000000000000000000000000000000000000000000000000000008152600401620002389062000453565b60405180910390fd5b6001600080837bffffffffffffffffffffffffffffffffffffffffffffffffffffffff19167bffffffffffffffffffffffffffffffffffffffffffffffffffffffff1916815260200190815260200160002060006101000a81548160ff02191690831515021790555050565b6000620002c4620002c960201b62002cd71760201c565b905090565b60006018600036905010158015620002ee5750620002ed336200031160201b60201c565b5b156200030457601436033560601c90506200030d565b3390506200030e565b5b90565b6000600a60009054906101000a900473ffffffffffffffffffffffffffffffffffffffff1673ffffffffffffffffffffffffffffffffffffffff168273ffffffffffffffffffffffffffffffffffffffff16149050919050565b828054600181600116156101000203166002900490600052602060002090601f016020900481019282601f10620003ae57805160ff1916838001178555620003df565b82800160010185558215620003df579182015b82811115620003de578251825591602001919060010190620003c1565b5b509050620003ee9190620003f2565b5090565b5b808211156200040d576000816000905550600101620003f3565b5090565b600062000420601c8362000475565b91507f4552433136353a20696e76616c696420696e74657266616365206964000000006000830152602082019050919050565b600060208201905081810360008301526200046e8162000411565b9050919050565b600082825260208201905092915050565b61753080620004966000396000f3fe6080604052600436106103395760003560e01c8063715018a6116101ab578063b45a3c0e116100f7578063d8f2ce2b11610095578063dcec32941161006f578063dcec329414610cf3578063e985e9c514610d30578063f2fde38b14610d6d578063f8eb5fc514610d9657610379565b8063d8f2ce2b14610c78578063da74222814610ca1578063db9f60ff14610cca57610379565b8063c87b56dd116100d1578063c87b56dd14610bac578063c8c680d514610be9578063c95d099814610c12578063d40e707b14610c3b57610379565b8063b45a3c0e14610b1d578063b7683e9314610b5a578063b88d4fde14610b8357610379565b80638da5cb5b11610164578063a0092b551161013e578063a0092b5514610a51578063a22cb46514610a8e578063ad82c42c14610ab7578063ae9704cd14610af457610379565b80638da5cb5b146109cb5780639390afc7146109f657806395d89b4114610a2657610379565b8063715018a6146108b657806371e715f4146108cd5780637da0a8771461090a57806380f2036314610935578063846ec08c1461095e578063850f8fb11461099b57610379565b80632fc7779711610285578063572b6c05116102235780636348af34116101fd5780636348af34146107e85780636352211e146108135780636e5559fd1461085057806370a082311461087957610379565b8063572b6c051461073e578063589a17431461077b57806362c51749146107b857610379565b806342966c681161025f57806342966c6814610684578063486ff0cd146106ad5780634f6ccce7146106d8578063522f68151461071557610379565b80632fc77797146106095780634025feb21461063257806342842e0e1461065b57610379565b806318160ddd116102f2578063250b2c80116102cc578063250b2c80146105225780632b7e237c1461055f5780632c0cd5a31461059c5780632f745c59146105cc57610379565b806318160ddd1461049e5780631dcd79d4146104c957806323b872dd146104f957610379565b806301ffc9a71461037e578063053992c5146103bb57806306fdde03146103e4578063081812fc1461040f578063095ea7b31461044c5780631593dee11461047557610379565b36610379577f88a5966d370b9919b20f3e2c13ff65706f196a4e32cc2c12bf57088f88525874333460405161036f929190616ba0565b60405180910390a1005b600080fd5b34801561038a57600080fd5b506103a560048036038101906103a09190615f9f565b610dd3565b6040516103b29190616d7c565b60405180910390f35b3480156103c757600080fd5b506103e260048036038101906103dd919061607f565b610e3a565b005b3480156103f057600080fd5b506103f9610eea565b6040516104069190616d97565b60405180910390f35b34801561041b57600080fd5b5061043660048036038101906104319190615ff1565b610f8c565b6040516104439190616b39565b60405180910390f35b34801561045857600080fd5b50610473600480360381019061046e9190615f11565b611011565b005b34801561048157600080fd5b5061049c600480360381019061049791906159af565b611129565b005b3480156104aa57600080fd5b506104b36111d0565b6040516104c091906171d9565b60405180910390f35b6104e360048036038101906104de919061607f565b6111e1565b6040516104f09190616d7c565b60405180910390f35b34801561050557600080fd5b50610520600480360381019061051b9190615d5b565b6112a4565b005b34801561052e57600080fd5b5061054960048036038101906105449190615ff1565b611304565b60405161055691906171d9565b60405180910390f35b34801561056b57600080fd5b5061058660048036038101906105819190615bc4565b611321565b60405161059391906171d9565b60405180910390f35b6105b660048036038101906105b19190615bc4565b61138a565b6040516105c391906171d9565b60405180910390f35b3480156105d857600080fd5b506105f360048036038101906105ee9190615f11565b6113f3565b60405161060091906171d9565b60405180910390f35b34801561061557600080fd5b50610630600480360381019061062b9190616043565b61144e565b005b34801561063e57600080fd5b50610659600480360381019061065491906159af565b61159e565b005b34801561066757600080fd5b50610682600480360381019061067d9190615d5b565b611645565b005b34801561069057600080fd5b506106ab60048036038101906106a69190615ff1565b611665565b005b3480156106b957600080fd5b506106c261167a565b6040516106cf9190616d97565b60405180910390f35b3480156106e457600080fd5b506106ff60048036038101906106fa9190615ff1565b61169a565b60405161070c91906171d9565b60405180910390f35b34801561072157600080fd5b5061073c600480360381019061073791906159fe565b6116bd565b005b34801561074a57600080fd5b506107656004803603810190610760919061595d565b611762565b6040516107729190616d7c565b60405180910390f35b34801561078757600080fd5b506107a2600480360381019061079d9190615ff1565b6117bc565b6040516107af9190616b39565b60405180910390f35b6107d260048036038101906107cd9190615a76565b6117f9565b6040516107df91906171d9565b60405180910390f35b3480156107f457600080fd5b506107fd6118bf565b60405161080a91906171d9565b60405180910390f35b34801561081f57600080fd5b5061083a60048036038101906108359190615ff1565b61197c565b6040516108479190616b39565b60405180910390f35b34801561085c57600080fd5b506108776004803603810190610872919061595d565b6119d0565b005b34801561088557600080fd5b506108a0600480360381019061089b919061595d565b611aee565b6040516108ad91906171d9565b60405180910390f35b3480156108c257600080fd5b506108cb611bad565b005b3480156108d957600080fd5b506108f460048036038101906108ef9190615ff1565b611d05565b6040516109019190616b39565b60405180910390f35b34801561091657600080fd5b5061091f611d17565b60405161092c9190616b39565b60405180910390f35b34801561094157600080fd5b5061095c60048036038101906109579190615ff1565b611d3d565b005b34801561096a57600080fd5b506109856004803603810190610980919061595d565b611d52565b60405161099291906171d9565b60405180910390f35b6109b560048036038101906109b09190615c2b565b611d9b565b6040516109c291906171d9565b60405180910390f35b3480156109d757600080fd5b506109e0611dc5565b6040516109ed9190616b39565b60405180910390f35b610a106004803603810190610a0b9190615cba565b611def565b604051610a1d91906171d9565b60405180910390f35b348015610a3257600080fd5b50610a3b611ea7565b604051610a489190616d97565b60405180910390f35b348015610a5d57600080fd5b50610a786004803603810190610a739190615daa565b611f49565b604051610a859190616d7c565b60405180910390f35b348015610a9a57600080fd5b50610ab56004803603810190610ab09190615ed5565b611fb9565b005b348015610ac357600080fd5b50610ade6004803603810190610ad99190615ff1565b61213a565b604051610aeb91906171d9565b60405180910390f35b348015610b0057600080fd5b50610b1b6004803603810190610b16919061595d565b612157565b005b348015610b2957600080fd5b50610b446004803603810190610b3f9190615ff1565b612275565b604051610b519190616d7c565b60405180910390f35b348015610b6657600080fd5b50610b816004803603810190610b7c919061595d565b61229f565b005b348015610b8f57600080fd5b50610baa6004803603810190610ba59190615e5a565b6123bd565b005b348015610bb857600080fd5b50610bd36004803603810190610bce9190615ff1565b61241f565b604051610be09190616d97565b60405180910390f35b348015610bf557600080fd5b50610c106004803603810190610c0b919061607f565b61251c565b005b348015610c1e57600080fd5b50610c396004803603810190610c34919061595d565b612676565b005b348015610c4757600080fd5b50610c626004803603810190610c5d9190615b58565b612794565b604051610c6f9190616d7c565b60405180910390f35b348015610c8457600080fd5b50610c9f6004803603810190610c9a9190615ff1565b612800565b005b348015610cad57600080fd5b50610cc86004803603810190610cc3919061595d565b612879565b005b348015610cd657600080fd5b50610cf16004803603810190610cec9190615f4d565b612954565b005b348015610cff57600080fd5b50610d1a6004803603810190610d159190615ff1565b612a3f565b604051610d279190616d7c565b60405180910390f35b348015610d3c57600080fd5b50610d576004803603810190610d529190615a3a565b612a5f565b604051610d649190616d7c565b60405180910390f35b348015610d7957600080fd5b50610d946004803603810190610d8f919061595d565b612af3565b005b348015610da257600080fd5b50610dbd6004803603810190610db89190615ff1565b612cba565b604051610dca91906171d9565b60405180910390f35b6000806000837bffffffffffffffffffffffffffffffffffffffffffffffffffffffff19167bffffffffffffffffffffffffffffffffffffffffffffffffffffffff1916815260200190815260200160002060009054906101000a900460ff169050919050565b601360009054906101000a900460ff1615610e8a576040517f08c379a0000000000000000000000000000000000000000000000000000000008152600401610e81906170f9565b60405180910390fd5b81610e9c610e96612d13565b82612d22565b610edb576040517f08c379a0000000000000000000000000000000000000000000000000000000008152600401610ed290617199565b60405180910390fd5b610ee58383612e00565b505050565b606060068054600181600116156101000203166002900480601f016020809104026020016040519081016040528092919081815260200182805460018160011615610100020316600290048015610f825780601f10610f5757610100808354040283529160200191610f82565b820191906000526020600020905b815481529060010190602001808311610f6557829003601f168201915b5050505050905090565b6000610f9782612ea2565b610fd6576040517f08c379a0000000000000000000000000000000000000000000000000000000008152600401610fcd90617159565b60405180910390fd5b6004600083815260200190815260200160002060009054906101000a900473ffffffffffffffffffffffffffffffffffffffff169050919050565b600061101c8261197c565b90508073ffffffffffffffffffffffffffffffffffffffff168373ffffffffffffffffffffffffffffffffffffffff16141561108d576040517f08c379a0000000000000000000000000000000000000000000000000000000008152600401611084906171b9565b60405180910390fd5b8073ffffffffffffffffffffffffffffffffffffffff166110ac612d13565b73ffffffffffffffffffffffffffffffffffffffff1614806110db57506110da816110d5612d13565b612a5f565b5b61111a576040517f08c379a000000000000000000000000000000000000000000000000000000000815260040161111190617039565b60405180910390fd5b6111248383612ebf565b505050565b611131612d13565b73ffffffffffffffffffffffffffffffffffffffff16600960009054906101000a900473ffffffffffffffffffffffffffffffffffffffff1673ffffffffffffffffffffffffffffffffffffffff16146111c0576040517f08c379a00000000000000000000000000000000000000000000000000000000081526004016111b790616fb9565b60405180910390fd5b6111cb838383612f78565b505050565b60006111dc600261310d565b905090565b60006002600b541415611229576040517f08c379a000000000000000000000000000000000000000000000000000000000815260040161122090617179565b60405180910390fd5b6002600b81905550601360009054906101000a900460ff1615611281576040517f08c379a0000000000000000000000000000000000000000000000000000000008152600401611278906170f9565b60405180910390fd5b61128b8383613122565b50505050505050600190506001600b8190555092915050565b6112b56112af612d13565b82612d22565b6112f4576040517f08c379a00000000000000000000000000000000000000000000000000000000081526004016112eb90617039565b60405180910390fd5b6112ff83838361324f565b505050565b600060126000838152602001908152602001600020549050919050565b6000601360009054906101000a900460ff1615611373576040517f08c379a000000000000000000000000000000000000000000000000000000000815260040161136a906170f9565b60405180910390fd5b611381848484600080613358565b90509392505050565b6000601360009054906101000a900460ff16156113dc576040517f08c379a00000000000000000000000000000000000000000000000000000000081526004016113d3906170f9565b60405180910390fd5b6113ea848484600080613358565b90509392505050565b600061144682600160008673ffffffffffffffffffffffffffffffffffffffff1673ffffffffffffffffffffffffffffffffffffffff16815260200190815260200160002061341790919063ffffffff16565b905092915050565b601360009054906101000a900460ff161561149e576040517f08c379a0000000000000000000000000000000000000000000000000000000008152600401611495906170f9565b60405180910390fd5b816114a7612d13565b73ffffffffffffffffffffffffffffffffffffffff16600d600083815260200190815260200160002060009054906101000a900473ffffffffffffffffffffffffffffffffffffffff1673ffffffffffffffffffffffffffffffffffffffff1614611547576040517f08c379a000000000000000000000000000000000000000000000000000000000815260040161153e90617059565b60405180910390fd5b81600f600085815260200190815260200160002060006101000a81548173ffffffffffffffffffffffffffffffffffffffff021916908373ffffffffffffffffffffffffffffffffffffffff160217905550505050565b6115a6612d13565b73ffffffffffffffffffffffffffffffffffffffff16600960009054906101000a900473ffffffffffffffffffffffffffffffffffffffff1673ffffffffffffffffffffffffffffffffffffffff1614611635576040517f08c379a000000000000000000000000000000000000000000000000000000000815260040161162c90616fb9565b60405180910390fd5b611640838383613431565b505050565b611660838383604051806020016040528060008152506123bd565b505050565b61166e81612800565b6116778161362d565b50565b60606040518060600160405280602e81526020016174cd602e9139905090565b6000806116b183600261364e90919063ffffffff16565b50905080915050919050565b6116c5612d13565b73ffffffffffffffffffffffffffffffffffffffff16600960009054906101000a900473ffffffffffffffffffffffffffffffffffffffff1673ffffffffffffffffffffffffffffffffffffffff1614611754576040517f08c379a000000000000000000000000000000000000000000000000000000000815260040161174b90616fb9565b60405180910390fd5b61175e828261367a565b5050565b6000600a60009054906101000a900473ffffffffffffffffffffffffffffffffffffffff1673ffffffffffffffffffffffffffffffffffffffff168273ffffffffffffffffffffffffffffffffffffffff16149050919050565b6000600d600083815260200190815260200160002060009054906101000a900473ffffffffffffffffffffffffffffffffffffffff169050919050565b60006002600b541415611841576040517f08c379a000000000000000000000000000000000000000000000000000000000815260040161183890617179565b60405180910390fd5b6002600b81905550601360009054906101000a900460ff1615611899576040517f08c379a0000000000000000000000000000000000000000000000000000000008152600401611890906170f9565b60405180910390fd5b6118a9898989898989898961376c565b90506001600b8190555098975050505050505050565b60006002600b541415611907576040517f08c379a00000000000000000000000000000000000000000000000000000000081526004016118fe90617179565b60405180910390fd5b6002600b81905550601360009054906101000a900460ff161561195f576040517f08c379a0000000000000000000000000000000000000000000000000000000008152600401611956906170f9565b60405180910390fd5b61196f61196a612d13565b6138c5565b90506001600b8190555090565b60006119c9826040518060400160405280600c81526020017f4552433732313a452d34303500000000000000000000000000000000000000008152506002613a109092919063ffffffff16565b9050919050565b6119d8612d13565b73ffffffffffffffffffffffffffffffffffffffff16600960009054906101000a900473ffffffffffffffffffffffffffffffffffffffff1673ffffffffffffffffffffffffffffffffffffffff1614611a67576040517f08c379a0000000000000000000000000000000000000000000000000000000008152600401611a5e90616fb9565b60405180910390fd5b80601860006101000a81548173ffffffffffffffffffffffffffffffffffffffff021916908373ffffffffffffffffffffffffffffffffffffffff1602179055508073ffffffffffffffffffffffffffffffffffffffff167f5ce0e6b7fd36339ee97339831b6c72694ecee88c62aab49919d9cabe0a732e4160405160405180910390a250565b60008073ffffffffffffffffffffffffffffffffffffffff168273ffffffffffffffffffffffffffffffffffffffff161415611b5f576040517f08c379a0000000000000000000000000000000000000000000000000000000008152600401611b5690616e19565b60405180910390fd5b611ba6600160008473ffffffffffffffffffffffffffffffffffffffff1673ffffffffffffffffffffffffffffffffffffffff168152602001908152602001600020613a2f565b9050919050565b611bb5612d13565b73ffffffffffffffffffffffffffffffffffffffff16600960009054906101000a900473ffffffffffffffffffffffffffffffffffffffff1673ffffffffffffffffffffffffffffffffffffffff1614611c44576040517f08c379a0000000000000000000000000000000000000000000000000000000008152600401611c3b90616fb9565b60405180910390fd5b600073ffffffffffffffffffffffffffffffffffffffff16600960009054906101000a900473ffffffffffffffffffffffffffffffffffffffff1673ffffffffffffffffffffffffffffffffffffffff167f8be0079c531659141344cd1fd0a4f28419497f9722a3daafe3b4186f6b6457e060405160405180910390a36000600960006101000a81548173ffffffffffffffffffffffffffffffffffffffff021916908373ffffffffffffffffffffffffffffffffffffffff160217905550565b6000611d1082613a44565b9050919050565b600a60009054906101000a900473ffffffffffffffffffffffffffffffffffffffff1681565b611d4681612800565b611d4f81613af2565b50565b6000601060008373ffffffffffffffffffffffffffffffffffffffff1673ffffffffffffffffffffffffffffffffffffffff168152602001908152602001600020549050919050565b600080611dad87878787876000611def565b9050611db881611d3d565b8091505095945050505050565b6000600960009054906101000a900473ffffffffffffffffffffffffffffffffffffffff16905090565b6000611dfe8787878686613358565b90506000841115611e9d57601760009054906101000a900473ffffffffffffffffffffffffffffffffffffffff1673ffffffffffffffffffffffffffffffffffffffff166315aea5d730838a886040518563ffffffff1660e01b8152600401611e6a9493929190616bc9565b600060405180830381600087803b158015611e8457600080fd5b505af1158015611e98573d6000803e3d6000fd5b505050505b9695505050505050565b606060078054600181600116156101000203166002900480601f016020809104026020016040519081016040528092919081815260200182805460018160011615610100020316600290048015611f3f5780601f10611f1457610100808354040283529160200191611f3f565b820191906000526020600020905b815481529060010190602001808311611f2257829003601f168201915b5050505050905090565b6000601360009054906101000a900460ff1615611f9b576040517f08c379a0000000000000000000000000000000000000000000000000000000008152600401611f92906170f9565b60405180910390fd5b611faa88888888888888613b58565b60019050979650505050505050565b611fc1612d13565b73ffffffffffffffffffffffffffffffffffffffff168273ffffffffffffffffffffffffffffffffffffffff16141561202f576040517f08c379a0000000000000000000000000000000000000000000000000000000008152600401612026906171b9565b60405180910390fd5b806005600061203c612d13565b73ffffffffffffffffffffffffffffffffffffffff1673ffffffffffffffffffffffffffffffffffffffff16815260200190815260200160002060008473ffffffffffffffffffffffffffffffffffffffff1673ffffffffffffffffffffffffffffffffffffffff16815260200190815260200160002060006101000a81548160ff0219169083151502179055508173ffffffffffffffffffffffffffffffffffffffff166120e9612d13565b73ffffffffffffffffffffffffffffffffffffffff167f17307eab39ab6107e8899845ad3d59bd9653f200f220920489ca2b5937696c318360405161212e9190616d7c565b60405180910390a35050565b6000600e6000838152602001908152602001600020549050919050565b61215f612d13565b73ffffffffffffffffffffffffffffffffffffffff16600960009054906101000a900473ffffffffffffffffffffffffffffffffffffffff1673ffffffffffffffffffffffffffffffffffffffff16146121ee576040517f08c379a00000000000000000000000000000000000000000000000000000000081526004016121e590616fb9565b60405180910390fd5b80601560006101000a81548173ffffffffffffffffffffffffffffffffffffffff021916908373ffffffffffffffffffffffffffffffffffffffff1602179055508073ffffffffffffffffffffffffffffffffffffffff167ff28fa0fe2abe5dad2066ebce6edc9d403e4facb3603e47e6c0e7ea3e57dfe03260405160405180910390a250565b60006014600083815260200190815260200160002060009054906101000a900460ff169050919050565b6122a7612d13565b73ffffffffffffffffffffffffffffffffffffffff16600960009054906101000a900473ffffffffffffffffffffffffffffffffffffffff1673ffffffffffffffffffffffffffffffffffffffff1614612336576040517f08c379a000000000000000000000000000000000000000000000000000000000815260040161232d90616fb9565b60405180910390fd5b80601660006101000a81548173ffffffffffffffffffffffffffffffffffffffff021916908373ffffffffffffffffffffffffffffffffffffffff1602179055508073ffffffffffffffffffffffffffffffffffffffff167f62ff39aed768a426c7582b6e1062ab2631df1869b2d574e36f8274d2e2b0ab8160405160405180910390a250565b6123ce6123c8612d13565b83612d22565b61240d576040517f08c379a000000000000000000000000000000000000000000000000000000000815260040161240490617039565b60405180910390fd5b61241984848484613c4b565b50505050565b606061242a82612ea2565b612469576040517f08c379a000000000000000000000000000000000000000000000000000000000815260040161246090617159565b60405180910390fd5b600860008381526020019081526020016000208054600181600116156101000203166002900480601f0160208091040260200160405190810160405280929190818152602001828054600181600116156101000203166002900480156125105780601f106124e557610100808354040283529160200191612510565b820191906000526020600020905b8154815290600101906020018083116124f357829003601f168201915b50505050509050919050565b601360009054906101000a900460ff161561256c576040517f08c379a0000000000000000000000000000000000000000000000000000000008152600401612563906170f9565b60405180910390fd5b81612575612d13565b73ffffffffffffffffffffffffffffffffffffffff16600d600083815260200190815260200160002060009054906101000a900473ffffffffffffffffffffffffffffffffffffffff1673ffffffffffffffffffffffffffffffffffffffff1614612615576040517f08c379a000000000000000000000000000000000000000000000000000000000815260040161260c90617059565b60405180910390fd5b82612627612621612d13565b82612d22565b612666576040517f08c379a000000000000000000000000000000000000000000000000000000000815260040161265d90617199565b60405180910390fd5b6126708484613ca7565b50505050565b61267e612d13565b73ffffffffffffffffffffffffffffffffffffffff16600960009054906101000a900473ffffffffffffffffffffffffffffffffffffffff1673ffffffffffffffffffffffffffffffffffffffff161461270d576040517f08c379a000000000000000000000000000000000000000000000000000000000815260040161270490616fb9565b60405180910390fd5b80601760006101000a81548173ffffffffffffffffffffffffffffffffffffffff021916908373ffffffffffffffffffffffffffffffffffffffff1602179055508073ffffffffffffffffffffffffffffffffffffffff167f7ad4c1bc3e874ec0bf47846feb5648b384e8511dc9e5f9803578c9d2b4ec9e6e60405160405180910390a250565b6000601360009054906101000a900460ff16156127e6576040517f08c379a00000000000000000000000000000000000000000000000000000000081526004016127dd906170f9565b60405180910390fd5b6127f4858560008686613d40565b60019050949350505050565b3373ffffffffffffffffffffffffffffffffffffffff166128208261197c565b73ffffffffffffffffffffffffffffffffffffffff1614612876576040517f08c379a000000000000000000000000000000000000000000000000000000000815260040161286d90616e79565b60405180910390fd5b50565b612881612d13565b73ffffffffffffffffffffffffffffffffffffffff16600960009054906101000a900473ffffffffffffffffffffffffffffffffffffffff1673ffffffffffffffffffffffffffffffffffffffff1614612910576040517f08c379a000000000000000000000000000000000000000000000000000000000815260040161290790616fb9565b60405180910390fd5b80600a60006101000a81548173ffffffffffffffffffffffffffffffffffffffff021916908373ffffffffffffffffffffffffffffffffffffffff16021790555050565b61295c612d13565b73ffffffffffffffffffffffffffffffffffffffff16600960009054906101000a900473ffffffffffffffffffffffffffffffffffffffff1673ffffffffffffffffffffffffffffffffffffffff16146129eb576040517f08c379a00000000000000000000000000000000000000000000000000000000081526004016129e290616fb9565b60405180910390fd5b80601360006101000a81548160ff0219169083151502179055507fa9bfed3d98385b3777389e321dbde773cf7d335fa604fefbae3dca93564f558681604051612a349190616d7c565b60405180910390a150565b60146020528060005260406000206000915054906101000a900460ff1681565b6000600560008473ffffffffffffffffffffffffffffffffffffffff1673ffffffffffffffffffffffffffffffffffffffff16815260200190815260200160002060008373ffffffffffffffffffffffffffffffffffffffff1673ffffffffffffffffffffffffffffffffffffffff16815260200190815260200160002060009054906101000a900460ff16905092915050565b612afb612d13565b73ffffffffffffffffffffffffffffffffffffffff16600960009054906101000a900473ffffffffffffffffffffffffffffffffffffffff1673ffffffffffffffffffffffffffffffffffffffff1614612b8a576040517f08c379a0000000000000000000000000000000000000000000000000000000008152600401612b8190616fb9565b60405180910390fd5b600073ffffffffffffffffffffffffffffffffffffffff168173ffffffffffffffffffffffffffffffffffffffff161415612bfa576040517f08c379a0000000000000000000000000000000000000000000000000000000008152600401612bf190616dd9565b60405180910390fd5b8073ffffffffffffffffffffffffffffffffffffffff16600960009054906101000a900473ffffffffffffffffffffffffffffffffffffffff1673ffffffffffffffffffffffffffffffffffffffff167f8be0079c531659141344cd1fd0a4f28419497f9722a3daafe3b4186f6b6457e060405160405180910390a380600960006101000a81548173ffffffffffffffffffffffffffffffffffffffff021916908373ffffffffffffffffffffffffffffffffffffffff16021790555050565b600060116000838152602001908152602001600020549050919050565b60006018600036905010158015612cf35750612cf233611762565b5b15612d0757601436033560601c9050612d0f565b339050612d10565b5b90565b6000612d1d612cd7565b905090565b6000612d2d82612ea2565b612d6c576040517f08c379a0000000000000000000000000000000000000000000000000000000008152600401612d6390617159565b60405180910390fd5b6000612d778361197c565b90508073ffffffffffffffffffffffffffffffffffffffff168473ffffffffffffffffffffffffffffffffffffffff161480612de657508373ffffffffffffffffffffffffffffffffffffffff16612dce84610f8c565b73ffffffffffffffffffffffffffffffffffffffff16145b80612df75750612df68185612a5f565b5b91505092915050565b612e0a8282613dd8565b601660009054906101000a900473ffffffffffffffffffffffffffffffffffffffff1673ffffffffffffffffffffffffffffffffffffffff1663d4bf99163084600085116040518463ffffffff1660e01b8152600401612e6c93929190616c0e565b600060405180830381600087803b158015612e8657600080fd5b505af1158015612e9a573d6000803e3d6000fd5b505050505050565b6000612eb8826002613e2c90919063ffffffff16565b9050919050565b816004600083815260200190815260200160002060006101000a81548173ffffffffffffffffffffffffffffffffffffffff021916908373ffffffffffffffffffffffffffffffffffffffff160217905550808273ffffffffffffffffffffffffffffffffffffffff16612f328361197c565b73ffffffffffffffffffffffffffffffffffffffff167f8c5be1e5ebec7d5bd14f71427d1e84f3dd0314c0f7b2291e5b200ac8c7c3b92560405160405180910390a45050565b600073ffffffffffffffffffffffffffffffffffffffff168373ffffffffffffffffffffffffffffffffffffffff161415612fe8576040517f08c379a0000000000000000000000000000000000000000000000000000000008152600401612fdf90616df9565b60405180910390fd5b808273ffffffffffffffffffffffffffffffffffffffff166370a08231306040518263ffffffff1660e01b81526004016130229190616b39565b60206040518083038186803b15801561303a57600080fd5b505afa15801561304e573d6000803e3d6000fd5b505050506040513d601f19601f82011682018060405250810190613072919061601a565b10613108576130a283828473ffffffffffffffffffffffffffffffffffffffff16613e469092919063ffffffff16565b8173ffffffffffffffffffffffffffffffffffffffff168373ffffffffffffffffffffffffffffffffffffffff167f6c9d637297625e945b296ff73a71fcfbd0a9e062652b6491a921c4c60194176b836040516130ff91906171d9565b60405180910390a35b505050565b600061311b82600001613ecc565b9050919050565b60008060008060008060006131378989613edd565b809750819850829950839a50849b50859c50869d5050505050505050600073ffffffffffffffffffffffffffffffffffffffff16601560009054906101000a900473ffffffffffffffffffffffffffffffffffffffff1673ffffffffffffffffffffffffffffffffffffffff161461324357601560009054906101000a900473ffffffffffffffffffffffffffffffffffffffff1673ffffffffffffffffffffffffffffffffffffffff16638b9309b2888888888888886040518863ffffffff1660e01b81526004016132109796959493929190616d0d565b600060405180830381600087803b15801561322a57600080fd5b505af115801561323e573d6000803e3d6000fd5b505050505b92959891949750929550565b600015156014600083815260200190815260200160002060009054906101000a900460ff161515146132b6576040517f08c379a00000000000000000000000000000000000000000000000000000000081526004016132ad90616ff9565b60405180910390fd5b601660009054906101000a900473ffffffffffffffffffffffffffffffffffffffff1673ffffffffffffffffffffffffffffffffffffffff1663d4bf9916308360006040518463ffffffff1660e01b815260040161331693929190616c0e565b600060405180830381600087803b15801561333057600080fd5b505af1158015613344573d6000803e3d6000fd5b505050506133538383836141ba565b505050565b6000613364600c6141e3565b61336e600c6141f9565b905061338a858260405180602001604052806000815250614207565b85600d600083815260200190815260200160002060006101000a81548173ffffffffffffffffffffffffffffffffffffffff021916908373ffffffffffffffffffffffffffffffffffffffff1602179055506133e68185614262565b60008311156133fa576133f98184613ca7565b5b600082111561340e5761340d8183612e00565b5b95945050505050565b600061342683600001836142d6565b60001c905092915050565b600073ffffffffffffffffffffffffffffffffffffffff168373ffffffffffffffffffffffffffffffffffffffff1614156134a1576040517f08c379a000000000000000000000000000000000000000000000000000000000815260040161349890616df9565b60405180910390fd5b3073ffffffffffffffffffffffffffffffffffffffff168273ffffffffffffffffffffffffffffffffffffffff16636352211e836040518263ffffffff1660e01b81526004016134f191906171d9565b60206040518083038186803b15801561350957600080fd5b505afa15801561351d573d6000803e3d6000fd5b505050506040513d601f19601f820116820180604052508101906135419190615986565b73ffffffffffffffffffffffffffffffffffffffff161415613628578173ffffffffffffffffffffffffffffffffffffffff166323b872dd3085846040518463ffffffff1660e01b815260040161359a93929190616cad565b600060405180830381600087803b1580156135b457600080fd5b505af11580156135c8573d6000803e3d6000fd5b50505050808273ffffffffffffffffffffffffffffffffffffffff168473ffffffffffffffffffffffffffffffffffffffff167ffefe036cac4ee3a4aca074a81cbcc4376e1484693289078dbec149c890101d5b60405160405180910390a45b505050565b61363681614343565b61364b6136428261197c565b61dead8361324f565b50565b60008060008061366186600001866143a9565b915091508160001c8160001c9350935050509250929050565b600073ffffffffffffffffffffffffffffffffffffffff168273ffffffffffffffffffffffffffffffffffffffff1614156136ea576040517f08c379a00000000000000000000000000000000000000000000000000000000081526004016136e190616df9565b60405180910390fd5b8047106137685761371a818373ffffffffffffffffffffffffffffffffffffffff1661442c90919063ffffffff16565b8173ffffffffffffffffffffffffffffffffffffffff167eddb683bb45cd5d0ad8a200c6fae7152b1c236ee90a4a37db692407f5cc38bd8260405161375f91906171d9565b60405180910390a25b5050565b60008073ffffffffffffffffffffffffffffffffffffffff16601860009054906101000a900473ffffffffffffffffffffffffffffffffffffffff1673ffffffffffffffffffffffffffffffffffffffff1614156137ff576040517f08c379a00000000000000000000000000000000000000000000000000000000081526004016137f690617099565b60405180910390fd5b61380d898988600080613358565b905060008211156138ac57601760009054906101000a900473ffffffffffffffffffffffffffffffffffffffff1673ffffffffffffffffffffffffffffffffffffffff166315aea5d730838c866040518563ffffffff1660e01b81526004016138799493929190616bc9565b600060405180830381600087803b15801561389357600080fd5b505af11580156138a7573d6000803e3d6000fd5b505050505b6138b9818686868b614520565b98975050505050505050565b600080601060008473ffffffffffffffffffffffffffffffffffffffff1673ffffffffffffffffffffffffffffffffffffffff1681526020019081526020016000205490506000811161394d576040517f08c379a0000000000000000000000000000000000000000000000000000000008152600401613944906170d9565b60405180910390fd5b601060008473ffffffffffffffffffffffffffffffffffffffff1673ffffffffffffffffffffffffffffffffffffffff168152602001908152602001600020600090556139bc8160008573ffffffffffffffffffffffffffffffffffffffff166146a19092919063ffffffff16565b8273ffffffffffffffffffffffffffffffffffffffff167f8fbbda19f4a70036f6f585dc4160142a8fa2a20ffb9393d23274f78de4e3988882604051613a0291906171d9565b60405180910390a250919050565b6000613a23846000018460001b8461480d565b60001c90509392505050565b6000613a3d8260000161489e565b9050919050565b600080600f600084815260200190815260200160002060009054906101000a900473ffffffffffffffffffffffffffffffffffffffff169050600073ffffffffffffffffffffffffffffffffffffffff168173ffffffffffffffffffffffffffffffffffffffff161415613ae957600d600084815260200190815260200160002060009054906101000a900473ffffffffffffffffffffffffffffffffffffffff1690505b80915050919050565b60016014600083815260200190815260200160002060006101000a81548160ff0219169083151502179055507f032bc66be43dbccb7487781d168eb7bda224628a3b2c3388bdf69b532a3a161181604051613b4d91906171d9565b60405180910390a150565b818190508484905014613ba0576040517f08c379a0000000000000000000000000000000000000000000000000000000008152600401613b9790616e59565b60405180910390fd5b600084849050905060005b81811015613c4057613c328989888885818110613bc457fe5b9050602002810190613bd6919061722b565b8080601f016020809104026020016040519081016040528093929190818152602001838380828437600081840152601f19601f820116905080830192505050505050508a888887818110613c2657fe5b90506020020135613358565b508080600101915050613bab565b505050505050505050565b613c5684848461324f565b613c62848484846148af565b613ca1576040517f08c379a0000000000000000000000000000000000000000000000000000000008152600401613c9890616f39565b60405180910390fd5b50505050565b612710811115613cec576040517f08c379a0000000000000000000000000000000000000000000000000000000008152600401613ce390616f19565b60405180910390fd5b80600e600084815260200190815260200160002081905550817fd91bd92b973231f564eaa17c9bc62c86b96a8885f3cdcb990d5a3f0415580d9082604051613d3491906171d9565b60405180910390a25050565b600082829050905060005b81811015613dcf57613dc18787868685818110613d6457fe5b9050602002810190613d76919061722b565b8080601f016020809104026020016040519081016040528093929190818152602001838380828437600081840152601f19601f82011690508083019250505050505050886000613358565b508080600101915050613d4b565b50505050505050565b806011600084815260200190815260200160002081905550817fe23ea816dce6d7f5c0b85cbd597e7c3b97b2453791152c0b94e5e5c5f314d2f082604051613e2091906171d9565b60405180910390a25050565b6000613e3e836000018360001b614a30565b905092915050565b613ec78363a9059cbb60e01b8484604051602401613e65929190616ce4565b604051602081830303815290604052907bffffffffffffffffffffffffffffffffffffffffffffffffffffffff19166020820180517bffffffffffffffffffffffffffffffffffffffffffffffffffffffff8381831617835250505050614a53565b505050565b600081600001805490509050919050565b6000806000806000806000309650889550601160008a815260200190815260200160002054925060008311613f47576040517f08c379a0000000000000000000000000000000000000000000000000000000008152600401613f3e90616ef9565b60405180910390fd5b82341015613f8a576040517f08c379a0000000000000000000000000000000000000000000000000000000008152600401613f8190616ed9565b60405180910390fd5b6000839050613f988a61197c565b9550613fa2612d13565b9450613fad8a613a44565b92506000600e60008c81526020019081526020016000205490506000601260008d8152602001908152602001600020549050600082118015613fef5750600081115b8015613ffa57508086115b156140405761402861271061401a84848a03614b1a90919063ffffffff16565b614b8a90919063ffffffff16565b935061403d8484614bd490919063ffffffff16565b92505b85601260008e81526020019081526020016000208190555060008411156140f7576140b384601060008873ffffffffffffffffffffffffffffffffffffffff1673ffffffffffffffffffffffffffffffffffffffff16815260200190815260200160002054614c1e90919063ffffffff16565b601060008773ffffffffffffffffffffffffffffffffffffffff1673ffffffffffffffffffffffffffffffffffffffff168152602001908152602001600020819055505b61410288888e61324f565b600083111561413757614136838c8a73ffffffffffffffffffffffffffffffffffffffff166146a19092919063ffffffff16565b5b8673ffffffffffffffffffffffffffffffffffffffff168873ffffffffffffffffffffffffffffffffffffffff168d7f71a2ee63bc7695052e3a9837d5a45dd1cc0ce12717e39cef6eb6afb0d91697ed898989604051614199939291906171f4565b60405180910390a46141ab868c614c73565b50505092959891949750929550565b600060116000838152602001908152602001600020819055506141de838383614ccb565b505050565b6001816000016000828254019250508190555050565b600081600001549050919050565b6142118383614ed7565b61421e60008484846148af565b61425d576040517f08c379a000000000000000000000000000000000000000000000000000000000815260040161425490616f39565b60405180910390fd5b505050565b61426b82612ea2565b6142aa576040517f08c379a00000000000000000000000000000000000000000000000000000000081526004016142a190617159565b60405180910390fd5b806008600084815260200190815260200160002090805190602001906142d19291906156c7565b505050565b600081836000018054905011614321576040517f08c379a000000000000000000000000000000000000000000000000000000000815260040161431890616db9565b60405180910390fd5b82600001828154811061433057fe5b9060005260206000200154905092915050565b60006014600083815260200190815260200160002060006101000a81548160ff0219169083151502179055507ff27b6ce5b2f5e68ddb2fd95a8a909d4ecf1daaac270935fff052feacb24f18428160405161439e91906171d9565b60405180910390a150565b600080828460000180549050116143f5576040517f08c379a00000000000000000000000000000000000000000000000000000000081526004016143ec90616f59565b60405180910390fd5b600084600001848154811061440657fe5b906000526020600020906002020190508060000154816001015492509250509250929050565b8047101561446f576040517f08c379a000000000000000000000000000000000000000000000000000000000815260040161446690616eb9565b60405180910390fd5b60008273ffffffffffffffffffffffffffffffffffffffff168260405161449590616b24565b60006040518083038185875af1925050503d80600081146144d2576040519150601f19603f3d011682016040523d82523d6000602084013e6144d7565b606091505b505090508061451b576040517f08c379a000000000000000000000000000000000000000000000000000000000815260040161451290616e99565b60405180910390fd5b505050565b61453261452b612d13565b8484615059565b8273ffffffffffffffffffffffffffffffffffffffff1663095ea7b3601860009054906101000a900473ffffffffffffffffffffffffffffffffffffffff16846040518363ffffffff1660e01b815260040161458f929190616ce4565b602060405180830381600087803b1580156145a957600080fd5b505af11580156145bd573d6000803e3d6000fd5b505050506040513d601f19601f820116820180604052508101906145e19190615f76565b50601860009054906101000a900473ffffffffffffffffffffffffffffffffffffffff1673ffffffffffffffffffffffffffffffffffffffff16630bdde2ca3087878787876040518763ffffffff1660e01b815260040161464796959493929190616c45565b602060405180830381600087803b15801561466157600080fd5b505af1158015614675573d6000803e3d6000fd5b505050506040513d601f19601f82011682018060405250810190614699919061601a565b505050505050565b814710156146e4576040517f08c379a00000000000000000000000000000000000000000000000000000000081526004016146db90616f79565b60405180910390fd5b6000808211614759578373ffffffffffffffffffffffffffffffffffffffff168360405161471190616b24565b60006040518083038185875af1925050503d806000811461474e576040519150601f19603f3d011682016040523d82523d6000602084013e614753565b606091505b506147c4565b8373ffffffffffffffffffffffffffffffffffffffff1683839060405161477f90616b24565b600060405180830381858888f193505050503d80600081146147bd576040519150601f19603f3d011682016040523d82523d6000602084013e6147c2565b606091505b505b50905080614807576040517f08c379a00000000000000000000000000000000000000000000000000000000081526004016147fe90616fd9565b60405180910390fd5b50505050565b6000808460010160008581526020019081526020016000205490506000811415839061486f576040517f08c379a00000000000000000000000000000000000000000000000000000000081526004016148669190616d97565b60405180910390fd5b5084600001600182038154811061488257fe5b9060005260206000209060020201600101549150509392505050565b600081600001805490509050919050565b60006148d08473ffffffffffffffffffffffffffffffffffffffff166151fd565b6148dd5760019050614a28565b60606149c163150b7a0260e01b6148f2612d13565b8887876040516024016149089493929190616b54565b604051602081830303815290604052907bffffffffffffffffffffffffffffffffffffffffffffffffffffffff19166020820180517bffffffffffffffffffffffffffffffffffffffffffffffffffffffff83818316178352505050506040518060400160405280600c81526020017f4552433732313a452d34303200000000000000000000000000000000000000008152508773ffffffffffffffffffffffffffffffffffffffff166152109092919063ffffffff16565b90506000818060200190518101906149d99190615fc8565b905063150b7a0260e01b7bffffffffffffffffffffffffffffffffffffffffffffffffffffffff1916817bffffffffffffffffffffffffffffffffffffffffffffffffffffffff191614925050505b949350505050565b600080836001016000848152602001908152602001600020541415905092915050565b6060614ab5826040518060400160405280602081526020017f5361666545524332303a206c6f772d6c6576656c2063616c6c206661696c65648152508573ffffffffffffffffffffffffffffffffffffffff166152109092919063ffffffff16565b9050600081511115614b155780806020019051810190614ad59190615f76565b614b14576040517f08c379a0000000000000000000000000000000000000000000000000000000008152600401614b0b90617119565b60405180910390fd5b5b505050565b600080831415614b2d5760009050614b84565b6000828402905082848281614b3e57fe5b0414614b7f576040517f08c379a0000000000000000000000000000000000000000000000000000000008152600401614b7690616f99565b60405180910390fd5b809150505b92915050565b6000614bcc83836040518060400160405280601a81526020017f536166654d6174683a206469766973696f6e206279207a65726f000000000000815250615228565b905092915050565b6000614c1683836040518060400160405280601e81526020017f536166654d6174683a207375627472616374696f6e206f766572666c6f770000815250615289565b905092915050565b600080828401905083811015614c69576040517f08c379a0000000000000000000000000000000000000000000000000000000008152600401614c6090616e39565b60405180910390fd5b8091505092915050565b6000614c888334614bd490919063ffffffff16565b90506000811115614cc657614cc58183614ca0612d13565b73ffffffffffffffffffffffffffffffffffffffff166146a19092919063ffffffff16565b5b505050565b8273ffffffffffffffffffffffffffffffffffffffff16614ceb8261197c565b73ffffffffffffffffffffffffffffffffffffffff1614614d41576040517f08c379a0000000000000000000000000000000000000000000000000000000008152600401614d38906170b9565b60405180910390fd5b600073ffffffffffffffffffffffffffffffffffffffff168273ffffffffffffffffffffffffffffffffffffffff161415614db1576040517f08c379a0000000000000000000000000000000000000000000000000000000008152600401614da890616e19565b60405180910390fd5b614dbc600082612ebf565b614e0d81600160008673ffffffffffffffffffffffffffffffffffffffff1673ffffffffffffffffffffffffffffffffffffffff1681526020019081526020016000206152e490919063ffffffff16565b50614e5f81600160008573ffffffffffffffffffffffffffffffffffffffff1673ffffffffffffffffffffffffffffffffffffffff1681526020019081526020016000206152fe90919063ffffffff16565b50614e76818360026153189092919063ffffffff16565b50808273ffffffffffffffffffffffffffffffffffffffff168473ffffffffffffffffffffffffffffffffffffffff167fddf252ad1be2c89b69c2b068fc378daa952ba7f163c4a11628f55a4df523b3ef60405160405180910390a4505050565b600073ffffffffffffffffffffffffffffffffffffffff168273ffffffffffffffffffffffffffffffffffffffff161415614f47576040517f08c379a0000000000000000000000000000000000000000000000000000000008152600401614f3e90616e19565b60405180910390fd5b614f5081612ea2565b15614f90576040517f08c379a0000000000000000000000000000000000000000000000000000000008152600401614f8790617019565b60405180910390fd5b614fe181600160008573ffffffffffffffffffffffffffffffffffffffff1673ffffffffffffffffffffffffffffffffffffffff1681526020019081526020016000206152fe90919063ffffffff16565b50614ff8818360026153189092919063ffffffff16565b50808273ffffffffffffffffffffffffffffffffffffffff16600073ffffffffffffffffffffffffffffffffffffffff167fddf252ad1be2c89b69c2b068fc378daa952ba7f163c4a11628f55a4df523b3ef60405160405180910390a45050565b60008273ffffffffffffffffffffffffffffffffffffffff166370a08231856040518263ffffffff1660e01b81526004016150949190616b39565b60206040518083038186803b1580156150ac57600080fd5b505afa1580156150c0573d6000803e3d6000fd5b505050506040513d601f19601f820116820180604052508101906150e4919061601a565b905080821115615129576040517f08c379a0000000000000000000000000000000000000000000000000000000008152600401615120906170d9565b60405180910390fd5b8273ffffffffffffffffffffffffffffffffffffffff166323b872dd8530856040518463ffffffff1660e01b815260040161516693929190616cad565b602060405180830381600087803b15801561518057600080fd5b505af1158015615194573d6000803e3d6000fd5b505050506040513d601f19601f820116820180604052508101906151b89190615f76565b6151f7576040517f08c379a00000000000000000000000000000000000000000000000000000000081526004016151ee90617139565b60405180910390fd5b50505050565b600080823b905060008111915050919050565b606061521f848460008561534d565b90509392505050565b6000808311829061526f576040517f08c379a00000000000000000000000000000000000000000000000000000000081526004016152669190616d97565b60405180910390fd5b50600083858161527b57fe5b049050809150509392505050565b60008383111582906152d1576040517f08c379a00000000000000000000000000000000000000000000000000000000081526004016152c89190616d97565b60405180910390fd5b5060008385039050809150509392505050565b60006152f6836000018360001b615470565b905092915050565b6000615310836000018360001b615558565b905092915050565b6000615344846000018460001b8473ffffffffffffffffffffffffffffffffffffffff1660001b6155c8565b90509392505050565b6060615358856151fd565b615397576040517f08c379a000000000000000000000000000000000000000000000000000000000815260040161538e90617079565b60405180910390fd5b600060608673ffffffffffffffffffffffffffffffffffffffff1685876040516153c19190616b0d565b60006040518083038185875af1925050503d80600081146153fe576040519150601f19603f3d011682016040523d82523d6000602084013e615403565b606091505b50915091508115615418578092505050615468565b60008151111561542b5780518082602001fd5b836040517f08c379a000000000000000000000000000000000000000000000000000000000815260040161545f9190616d97565b60405180910390fd5b949350505050565b6000808360010160008481526020019081526020016000205490506000811461554c57600060018203905060006001866000018054905003905060008660000182815481106154bb57fe5b90600052602060002001549050808760000184815481106154d857fe5b906000526020600020018190555060018301876001016000838152602001908152602001600020819055508660000180548061551057fe5b60019003818190600052602060002001600090559055866001016000878152602001908152602001600020600090556001945050505050615552565b60009150505b92915050565b600061556483836156a4565b6155bd5782600001829080600181540180825580915050600190039060005260206000200160009091909190915055826000018054905083600101600084815260200190815260200160002081905550600190506155c2565b600090505b92915050565b600080846001016000858152602001908152602001600020549050600081141561566f5784600001604051806040016040528086815260200185815250908060018154018082558091505060019003906000526020600020906002020160009091909190915060008201518160000155602082015181600101555050846000018054905085600101600086815260200190815260200160002081905550600191505061569d565b8285600001600183038154811061568257fe5b90600052602060002090600202016001018190555060009150505b9392505050565b600080836001016000848152602001908152602001600020541415905092915050565b828054600181600116156101000203166002900490600052602060002090601f016020900481019282601f1061570857805160ff1916838001178555615736565b82800160010185558215615736579182015b8281111561573557825182559160200191906001019061571a565b5b5090506157439190615747565b5090565b5b80821115615760576000816000905550600101615748565b5090565b60008135905061577381617459565b92915050565b60008151905061578881617459565b92915050565b60008135905061579d81617470565b92915050565b60008083601f8401126157b557600080fd5b8235905067ffffffffffffffff8111156157ce57600080fd5b6020830191508360208202830111156157e657600080fd5b9250929050565b60008083601f8401126157ff57600080fd5b8235905067ffffffffffffffff81111561581857600080fd5b60208301915083602082028301111561583057600080fd5b9250929050565b60008135905061584681617487565b92915050565b60008151905061585b81617487565b92915050565b6000813590506158708161749e565b92915050565b6000815190506158858161749e565b92915050565b600082601f83011261589c57600080fd5b81356158af6158aa826172af565b617282565b915080825260208301602083018583830111156158cb57600080fd5b6158d6838284617406565b50505092915050565b600082601f8301126158f057600080fd5b81356159036158fe826172db565b617282565b9150808252602083016020830185838301111561591f57600080fd5b61592a838284617406565b50505092915050565b600081359050615942816174b5565b92915050565b600081519050615957816174b5565b92915050565b60006020828403121561596f57600080fd5b600061597d84828501615764565b91505092915050565b60006020828403121561599857600080fd5b60006159a684828501615779565b91505092915050565b6000806000606084860312156159c457600080fd5b60006159d28682870161578e565b93505060206159e386828701615764565b92505060406159f486828701615933565b9150509250925092565b60008060408385031215615a1157600080fd5b6000615a1f8582860161578e565b9250506020615a3085828601615933565b9150509250929050565b60008060408385031215615a4d57600080fd5b6000615a5b85828601615764565b9250506020615a6c85828601615764565b9150509250929050565b600080600080600080600080610100898b031215615a9357600080fd5b6000615aa18b828c01615764565b9850506020615ab28b828c01615764565b9750506040615ac38b828c01615764565b965050606089013567ffffffffffffffff811115615ae057600080fd5b615aec8b828c016158df565b955050608089013567ffffffffffffffff811115615b0957600080fd5b615b158b828c016158df565b94505060a0615b268b828c01615764565b93505060c0615b378b828c01615933565b92505060e0615b488b828c01615933565b9150509295985092959890939650565b60008060008060608587031215615b6e57600080fd5b6000615b7c87828801615764565b9450506020615b8d87828801615764565b935050604085013567ffffffffffffffff811115615baa57600080fd5b615bb6878288016157a3565b925092505092959194509250565b600080600060608486031215615bd957600080fd5b6000615be786828701615764565b9350506020615bf886828701615764565b925050604084013567ffffffffffffffff811115615c1557600080fd5b615c21868287016158df565b9150509250925092565b600080600080600060a08688031215615c4357600080fd5b6000615c5188828901615764565b9550506020615c6288828901615764565b945050604086013567ffffffffffffffff811115615c7f57600080fd5b615c8b888289016158df565b9350506060615c9c88828901615933565b9250506080615cad88828901615933565b9150509295509295909350565b60008060008060008060c08789031215615cd357600080fd5b6000615ce189828a01615764565b9650506020615cf289828a01615764565b955050604087013567ffffffffffffffff811115615d0f57600080fd5b615d1b89828a016158df565b9450506060615d2c89828a01615933565b9350506080615d3d89828a01615933565b92505060a0615d4e89828a01615933565b9150509295509295509295565b600080600060608486031215615d7057600080fd5b6000615d7e86828701615764565b9350506020615d8f86828701615764565b9250506040615da086828701615933565b9150509250925092565b600080600080600080600060a0888a031215615dc557600080fd5b6000615dd38a828b01615764565b9750506020615de48a828b01615764565b9650506040615df58a828b01615933565b955050606088013567ffffffffffffffff811115615e1257600080fd5b615e1e8a828b016157a3565b9450945050608088013567ffffffffffffffff811115615e3d57600080fd5b615e498a828b016157ed565b925092505092959891949750929550565b60008060008060808587031215615e7057600080fd5b6000615e7e87828801615764565b9450506020615e8f87828801615764565b9350506040615ea087828801615933565b925050606085013567ffffffffffffffff811115615ebd57600080fd5b615ec98782880161588b565b91505092959194509250565b60008060408385031215615ee857600080fd5b6000615ef685828601615764565b9250506020615f0785828601615837565b9150509250929050565b60008060408385031215615f2457600080fd5b6000615f3285828601615764565b9250506020615f4385828601615933565b9150509250929050565b600060208284031215615f5f57600080fd5b6000615f6d84828501615837565b91505092915050565b600060208284031215615f8857600080fd5b6000615f968482850161584c565b91505092915050565b600060208284031215615fb157600080fd5b6000615fbf84828501615861565b91505092915050565b600060208284031215615fda57600080fd5b6000615fe884828501615876565b91505092915050565b60006020828403121561600357600080fd5b600061601184828501615933565b91505092915050565b60006020828403121561602c57600080fd5b600061603a84828501615948565b91505092915050565b6000806040838503121561605657600080fd5b600061606485828601615933565b925050602061607585828601615764565b9150509250929050565b6000806040838503121561609257600080fd5b60006160a085828601615933565b92505060206160b185828601615933565b9150509250929050565b6160c4816173d0565b82525050565b6160d38161735c565b82525050565b6160e28161734a565b82525050565b6160f18161736e565b82525050565b600061610282617307565b61610c818561731d565b935061611c818560208601617415565b61612581617448565b840191505092915050565b600061613b82617307565b616145818561732e565b9350616155818560208601617415565b80840191505092915050565b600061616c82617312565b6161768185617339565b9350616186818560208601617415565b61618f81617448565b840191505092915050565b60006161a7602283617339565b91507f456e756d657261626c655365743a20696e646578206f7574206f6620626f756e60008301527f64730000000000000000000000000000000000000000000000000000000000006020830152604082019050919050565b600061620d602683617339565b91507f4f776e61626c653a206e6577206f776e657220697320746865207a65726f206160008301527f64647265737300000000000000000000000000000000000000000000000000006020830152604082019050919050565b6000616273600983617339565b91507f4248503a452d34303300000000000000000000000000000000000000000000006000830152602082019050919050565b60006162b3600c83617339565b91507f4552433732313a452d34303300000000000000000000000000000000000000006000830152602082019050919050565b60006162f3601b83617339565b91507f536166654d6174683a206164646974696f6e206f766572666c6f7700000000006000830152602082019050919050565b6000616333600983617339565b91507f5052543a452d32303200000000000000000000000000000000000000000000006000830152602082019050919050565b6000616373601083617339565b91507f4f6e6c7920746f6b656e206f776e6572000000000000000000000000000000006000830152602082019050919050565b60006163b3603a83617339565b91507f416464726573733a20756e61626c6520746f2073656e642076616c75652c207260008301527f6563697069656e74206d617920686176652072657665727465640000000000006020830152604082019050919050565b6000616419601d83617339565b91507f416464726573733a20696e73756666696369656e742062616c616e63650000006000830152602082019050919050565b6000616459600983617339565b91507f5052543a452d34313400000000000000000000000000000000000000000000006000830152602082019050919050565b6000616499600983617339565b91507f5052543a452d34313600000000000000000000000000000000000000000000006000830152602082019050919050565b60006164d9600983617339565b91507f5052543a452d34323100000000000000000000000000000000000000000000006000830152602082019050919050565b6000616519600c83617339565b91507f4552433732313a452d34303200000000000000000000000000000000000000006000830152602082019050919050565b6000616559602283617339565b91507f456e756d657261626c654d61703a20696e646578206f7574206f6620626f756e60008301527f64730000000000000000000000000000000000000000000000000000000000006020830152604082019050919050565b60006165bf601f83617339565b91507f546f6b656e496e666f3a20696e73756666696369656e742062616c616e6365006000830152602082019050919050565b60006165ff602183617339565b91507f536166654d6174683a206d756c7469706c69636174696f6e206f766572666c6f60008301527f77000000000000000000000000000000000000000000000000000000000000006020830152604082019050919050565b6000616665602083617339565b91507f4f776e61626c653a2063616c6c6572206973206e6f7420746865206f776e65726000830152602082019050919050565b60006166a5603c83617339565b91507f546f6b656e496e666f3a20756e61626c6520746f2073656e642076616c75652c60008301527f20726563697069656e74206d61792068617665207265766572746564000000006020830152604082019050919050565b600061670b601c83617339565b91507f426f6e646564546f6b656e3a20546f6b656e206973206c6f636b6564000000006000830152602082019050919050565b600061674b600c83617339565b91507f4552433732313a452d34303700000000000000000000000000000000000000006000830152602082019050919050565b600061678b600c83617339565b91507f4552433732313a452d31303500000000000000000000000000000000000000006000830152602082019050919050565b60006167cb600983617339565b91507f5052543a452d31303400000000000000000000000000000000000000000000006000830152602082019050919050565b600061680b60008361732e565b9150600082019050919050565b6000616825601d83617339565b91507f416464726573733a2063616c6c20746f206e6f6e2d636f6e74726163740000006000830152602082019050919050565b6000616865600983617339565b91507f5052543a452d31303700000000000000000000000000000000000000000000006000830152602082019050919050565b60006168a5600c83617339565b91507f4552433732313a452d31303200000000000000000000000000000000000000006000830152602082019050919050565b60006168e5600983617339565b91507f5052543a452d34313100000000000000000000000000000000000000000000006000830152602082019050919050565b6000616925600983617339565b91507f5052543a452d31303100000000000000000000000000000000000000000000006000830152602082019050919050565b6000616965602a83617339565b91507f5361666545524332303a204552433230206f7065726174696f6e20646964206e60008301527f6f742073756363656564000000000000000000000000000000000000000000006020830152604082019050919050565b60006169cb600983617339565b91507f5052543a452d34303100000000000000000000000000000000000000000000006000830152602082019050919050565b6000616a0b600c83617339565b91507f4552433732313a452d34303500000000000000000000000000000000000000006000830152602082019050919050565b6000616a4b601f83617339565b91507f5265656e7472616e637947756172643a207265656e7472616e742063616c6c006000830152602082019050919050565b6000616a8b600983617339565b91507f5052543a452d31303500000000000000000000000000000000000000000000006000830152602082019050919050565b6000616acb600c83617339565b91507f4552433732313a452d31313100000000000000000000000000000000000000006000830152602082019050919050565b616b07816173c6565b82525050565b6000616b198284616130565b915081905092915050565b6000616b2f826167fe565b9150819050919050565b6000602082019050616b4e60008301846160d9565b92915050565b6000608082019050616b6960008301876160ca565b616b7660208301866160d9565b616b836040830185616afe565b8181036060830152616b9581846160f7565b905095945050505050565b6000604082019050616bb560008301856160bb565b616bc26020830184616afe565b9392505050565b6000608082019050616bde60008301876160bb565b616beb6020830186616afe565b616bf860408301856160d9565b616c056060830184616afe565b95945050505050565b6000606082019050616c2360008301866160bb565b616c306020830185616afe565b616c3d60408301846160e8565b949350505050565b600060c082019050616c5a60008301896160bb565b616c676020830188616afe565b8181036040830152616c798187616161565b9050616c8860608301866160d9565b616c956080830185616afe565b616ca260a08301846160d9565b979650505050505050565b6000606082019050616cc260008301866160d9565b616ccf60208301856160bb565b616cdc6040830184616afe565b949350505050565b6000604082019050616cf960008301856160d9565b616d066020830184616afe565b9392505050565b600060e082019050616d22600083018a6160d9565b616d2f6020830189616afe565b616d3c60408301886160d9565b616d4960608301876160d9565b616d566080830186616afe565b616d6360a08301856160d9565b616d7060c0830184616afe565b98975050505050505050565b6000602082019050616d9160008301846160e8565b92915050565b60006020820190508181036000830152616db18184616161565b905092915050565b60006020820190508181036000830152616dd28161619a565b9050919050565b60006020820190508181036000830152616df281616200565b9050919050565b60006020820190508181036000830152616e1281616266565b9050919050565b60006020820190508181036000830152616e32816162a6565b9050919050565b60006020820190508181036000830152616e52816162e6565b9050919050565b60006020820190508181036000830152616e7281616326565b9050919050565b60006020820190508181036000830152616e9281616366565b9050919050565b60006020820190508181036000830152616eb2816163a6565b9050919050565b60006020820190508181036000830152616ed28161640c565b9050919050565b60006020820190508181036000830152616ef28161644c565b9050919050565b60006020820190508181036000830152616f128161648c565b9050919050565b60006020820190508181036000830152616f32816164cc565b9050919050565b60006020820190508181036000830152616f528161650c565b9050919050565b60006020820190508181036000830152616f728161654c565b9050919050565b60006020820190508181036000830152616f92816165b2565b9050919050565b60006020820190508181036000830152616fb2816165f2565b9050919050565b60006020820190508181036000830152616fd281616658565b9050919050565b60006020820190508181036000830152616ff281616698565b9050919050565b60006020820190508181036000830152617012816166fe565b9050919050565b600060208201905081810360008301526170328161673e565b9050919050565b600060208201905081810360008301526170528161677e565b9050919050565b60006020820190508181036000830152617072816167be565b9050919050565b6000602082019050818103600083015261709281616818565b9050919050565b600060208201905081810360008301526170b281616858565b9050919050565b600060208201905081810360008301526170d281616898565b9050919050565b600060208201905081810360008301526170f2816168d8565b9050919050565b6000602082019050818103600083015261711281616918565b9050919050565b6000602082019050818103600083015261713281616958565b9050919050565b60006020820190508181036000830152617152816169be565b9050919050565b60006020820190508181036000830152617172816169fe565b9050919050565b6000602082019050818103600083015261719281616a3e565b9050919050565b600060208201905081810360008301526171b281616a7e565b9050919050565b600060208201905081810360008301526171d281616abe565b9050919050565b60006020820190506171ee6000830184616afe565b92915050565b60006060820190506172096000830186616afe565b61721660208301856160d9565b6172236040830184616afe565b949350505050565b6000808335600160200384360303811261724457600080fd5b80840192508235915067ffffffffffffffff82111561726257600080fd5b60208301925060018202360383131561727a57600080fd5b509250929050565b6000604051905081810181811067ffffffffffffffff821117156172a557600080fd5b8060405250919050565b600067ffffffffffffffff8211156172c657600080fd5b601f19601f8301169050602081019050919050565b600067ffffffffffffffff8211156172f257600080fd5b601f19601f8301169050602081019050919050565b600081519050919050565b600081519050919050565b600082825260208201905092915050565b600081905092915050565b600082825260208201905092915050565b6000617355826173a6565b9050919050565b6000617367826173a6565b9050919050565b60008115159050919050565b60007fffffffff0000000000000000000000000000000000000000000000000000000082169050919050565b600073ffffffffffffffffffffffffffffffffffffffff82169050919050565b6000819050919050565b60006173db826173e2565b9050919050565b60006173ed826173f4565b9050919050565b60006173ff826173a6565b9050919050565b82818337600083830152505050565b60005b83811015617433578082015181840152602081019050617418565b83811115617442576000848401525b50505050565b6000601f19601f8301169050919050565b6174628161734a565b811461746d57600080fd5b50565b6174798161735c565b811461748457600080fd5b50565b6174908161736e565b811461749b57600080fd5b50565b6174a78161737a565b81146174b257600080fd5b50565b6174be816173c6565b81146174c957600080fd5b5056fe312e302e302d626574612e312f636861726765642d7061727469636c65732e72656c61792e726563697069656e74a2646970667358221220176ac3bc4e3e88dd4c407c3ae95413f0a0b494e29ecf8df2f2042935d789124964736f6c634300060c0033",
  "linkReferences": {},
  "deployedLinkReferences": {}
}