{
  "address": "0x3E2c421Af4e595548fAC0A6E5c06E933F7C2f037",
  "abi": [
    {
      "anonymous": false,
      "inputs": [
        {
          "indexed": true,
          "internalType": "address",
          "name": "bosonToken",
          "type": "address"
        }
      ],
      "name": "BosonTokenSet",
      "type": "event"
    },
    {
      "anonymous": false,
      "inputs": [
        {
          "indexed": true,
          "internalType": "address",
          "name": "chargedParticles",
          "type": "address"
        }
      ],
      "name": "ChargedParticlesSet",
      "type": "event"
    },
    {
      "anonymous": false,
      "inputs": [
        {
          "indexed": true,
          "internalType": "address",
          "name": "account",
          "type": "address"
        },
        {
          "indexed": false,
          "internalType": "address",
          "name": "photonSource",
          "type": "address"
        },
        {
          "indexed": false,
          "internalType": "uint256",
          "name": "energy",
          "type": "uint256"
        },
        {
          "indexed": false,
          "internalType": "uint256",
          "name": "multiplier",
          "type": "uint256"
        }
      ],
      "name": "ElectrostaticAttraction",
      "type": "event"
    },
    {
      "anonymous": false,
      "inputs": [
        {
          "indexed": true,
          "internalType": "address",
          "name": "account",
          "type": "address"
        },
        {
          "indexed": false,
          "internalType": "address",
          "name": "photonSource",
          "type": "address"
        },
        {
          "indexed": false,
          "internalType": "uint256",
          "name": "energy",
          "type": "uint256"
        }
      ],
      "name": "ElectrostaticDischarge",
      "type": "event"
    },
    {
      "anonymous": false,
      "inputs": [
        {
          "indexed": true,
          "internalType": "address",
          "name": "assetToken",
          "type": "address"
        },
        {
          "indexed": false,
          "internalType": "uint256",
          "name": "multiplier",
          "type": "uint256"
        }
      ],
      "name": "EsaMultiplierSet",
      "type": "event"
    },
    {
      "anonymous": false,
      "inputs": [
        {
          "indexed": true,
          "internalType": "address",
          "name": "leptonToken",
          "type": "address"
        }
      ],
      "name": "LeptonTokenSet",
      "type": "event"
    },
    {
      "anonymous": false,
      "inputs": [
        {
          "indexed": true,
          "internalType": "address",
          "name": "contractAddress",
          "type": "address"
        },
        {
          "indexed": false,
          "internalType": "uint256",
          "name": "tokenId",
          "type": "uint256"
        },
        {
          "indexed": true,
          "internalType": "address",
          "name": "nftTokenAddress",
          "type": "address"
        },
        {
          "indexed": false,
          "internalType": "uint256",
          "name": "nftTokenId",
          "type": "uint256"
        }
      ],
      "name": "NftDeposit",
      "type": "event"
    },
    {
      "anonymous": false,
      "inputs": [
        {
          "indexed": true,
          "internalType": "address",
          "name": "contractAddress",
          "type": "address"
        },
        {
          "indexed": false,
          "internalType": "uint256",
          "name": "tokenId",
          "type": "uint256"
        },
        {
          "indexed": true,
          "internalType": "address",
          "name": "nftTokenAddress",
          "type": "address"
        },
        {
          "indexed": false,
          "internalType": "uint256",
          "name": "nftTokenId",
          "type": "uint256"
        }
      ],
      "name": "NftRelease",
      "type": "event"
    },
    {
      "anonymous": false,
      "inputs": [
        {
          "indexed": true,
          "internalType": "address",
          "name": "previousOwner",
          "type": "address"
        },
        {
          "indexed": true,
          "internalType": "address",
          "name": "newOwner",
          "type": "address"
        }
      ],
      "name": "OwnershipTransferred",
      "type": "event"
    },
    {
      "anonymous": false,
      "inputs": [
        {
          "indexed": true,
          "internalType": "address",
          "name": "photonToken",
          "type": "address"
        },
        {
          "indexed": false,
          "internalType": "uint256",
          "name": "maxSupply",
          "type": "uint256"
        }
      ],
      "name": "PhotonSet",
      "type": "event"
    },
    {
      "anonymous": false,
      "inputs": [
        {
          "indexed": true,
          "internalType": "address",
          "name": "protonToken",
          "type": "address"
        }
      ],
      "name": "ProtonTokenSet",
      "type": "event"
    },
    {
      "anonymous": false,
      "inputs": [
        {
          "indexed": true,
          "internalType": "address",
          "name": "quarkToken",
          "type": "address"
        }
      ],
      "name": "QuarkTokenSet",
      "type": "event"
    },
    {
      "anonymous": false,
      "inputs": [
        {
          "indexed": true,
          "internalType": "address",
          "name": "assetToken",
          "type": "address"
        }
      ],
      "name": "RewardProgramRemoved",
      "type": "event"
    },
    {
      "anonymous": false,
      "inputs": [
        {
          "indexed": true,
          "internalType": "address",
          "name": "assetToken",
          "type": "address"
        },
        {
          "indexed": true,
          "internalType": "address",
          "name": "rewardProgram",
          "type": "address"
        }
      ],
      "name": "RewardProgramSet",
      "type": "event"
    },
    {
      "anonymous": false,
      "inputs": [
        {
          "indexed": true,
          "internalType": "address",
          "name": "receiver",
          "type": "address"
        },
        {
          "indexed": true,
          "internalType": "address",
          "name": "tokenAddress",
          "type": "address"
        },
        {
          "indexed": true,
          "internalType": "uint256",
          "name": "tokenId",
          "type": "uint256"
        },
        {
          "indexed": false,
          "internalType": "uint256",
          "name": "amount",
          "type": "uint256"
        }
      ],
      "name": "WithdrawStuckERC1155",
      "type": "event"
    },
    {
      "anonymous": false,
      "inputs": [
        {
          "indexed": true,
          "internalType": "address",
          "name": "receiver",
          "type": "address"
        },
        {
          "indexed": true,
          "internalType": "address",
          "name": "tokenAddress",
          "type": "address"
        },
        {
          "indexed": false,
          "internalType": "uint256",
          "name": "amount",
          "type": "uint256"
        }
      ],
      "name": "WithdrawStuckERC20",
      "type": "event"
    },
    {
      "anonymous": false,
      "inputs": [
        {
          "indexed": true,
          "internalType": "address",
          "name": "receiver",
          "type": "address"
        },
        {
          "indexed": true,
          "internalType": "address",
          "name": "tokenAddress",
          "type": "address"
        },
        {
          "indexed": true,
          "internalType": "uint256",
          "name": "tokenId",
          "type": "uint256"
        }
      ],
      "name": "WithdrawStuckERC721",
      "type": "event"
    },
    {
      "anonymous": false,
      "inputs": [
        {
          "indexed": true,
          "internalType": "address",
          "name": "receiver",
          "type": "address"
        },
        {
          "indexed": false,
          "internalType": "uint256",
          "name": "amount",
          "type": "uint256"
        }
      ],
      "name": "WithdrawStuckEther",
      "type": "event"
    },
    {
      "inputs": [],
      "name": "_chargedParticles",
      "outputs": [
        {
          "internalType": "address",
          "name": "",
          "type": "address"
        }
      ],
      "stateMutability": "view",
      "type": "function"
    },
    {
      "inputs": [],
      "name": "_multiplierNft",
      "outputs": [
        {
          "internalType": "address",
          "name": "",
          "type": "address"
        }
      ],
      "stateMutability": "view",
      "type": "function"
    },
    {
      "inputs": [
        {
          "internalType": "uint256",
          "name": "uuid",
          "type": "uint256"
        }
      ],
      "name": "getNftStake",
      "outputs": [
        {
          "components": [
            {
              "internalType": "uint256",
              "name": "multiplier",
              "type": "uint256"
            },
            {
              "internalType": "uint256",
              "name": "depositBlockNumber",
              "type": "uint256"
            },
            {
              "internalType": "uint256",
              "name": "releaseBlockNumber",
              "type": "uint256"
            }
          ],
          "internalType": "struct IUniverseRP.NftStake",
          "name": "",
          "type": "tuple"
        }
      ],
      "stateMutability": "view",
      "type": "function"
    },
    {
      "inputs": [
        {
          "internalType": "address",
          "name": "asset",
          "type": "address"
        }
      ],
      "name": "getRewardProgram",
      "outputs": [
        {
          "internalType": "address",
          "name": "",
          "type": "address"
        }
      ],
      "stateMutability": "view",
      "type": "function"
    },
    {
      "inputs": [],
      "name": "initialize",
      "outputs": [],
      "stateMutability": "nonpayable",
      "type": "function"
    },
    {
      "inputs": [
        {
          "internalType": "address",
          "name": "contractAddress",
          "type": "address"
        },
        {
          "internalType": "uint256",
          "name": "tokenId",
          "type": "uint256"
        },
        {
          "internalType": "string",
          "name": "",
          "type": "string"
        },
        {
          "internalType": "address",
          "name": "nftTokenAddress",
          "type": "address"
        },
        {
          "internalType": "uint256",
          "name": "nftTokenId",
          "type": "uint256"
        },
        {
          "internalType": "uint256",
          "name": "nftTokenAmount",
          "type": "uint256"
        }
      ],
      "name": "onCovalentBond",
      "outputs": [],
      "stateMutability": "nonpayable",
      "type": "function"
    },
    {
      "inputs": [
        {
          "internalType": "address",
          "name": "contractAddress",
          "type": "address"
        },
        {
          "internalType": "uint256",
          "name": "tokenId",
          "type": "uint256"
        },
        {
          "internalType": "string",
          "name": "",
          "type": "string"
        },
        {
          "internalType": "address",
          "name": "nftTokenAddress",
          "type": "address"
        },
        {
          "internalType": "uint256",
          "name": "nftTokenId",
          "type": "uint256"
        },
        {
          "internalType": "uint256",
          "name": "nftTokenAmount",
          "type": "uint256"
        }
      ],
      "name": "onCovalentBreak",
      "outputs": [],
      "stateMutability": "nonpayable",
      "type": "function"
    },
    {
      "inputs": [
        {
          "internalType": "address",
          "name": "contractAddress",
          "type": "address"
        },
        {
          "internalType": "uint256",
          "name": "tokenId",
          "type": "uint256"
        },
        {
          "internalType": "string",
          "name": "",
          "type": "string"
        },
        {
          "internalType": "address",
          "name": "assetToken",
          "type": "address"
        },
        {
          "internalType": "uint256",
          "name": "creatorEnergy",
          "type": "uint256"
        },
        {
          "internalType": "uint256",
          "name": "receiverEnergy",
          "type": "uint256"
        }
      ],
      "name": "onDischarge",
      "outputs": [],
      "stateMutability": "nonpayable",
      "type": "function"
    },
    {
      "inputs": [
        {
          "internalType": "address",
          "name": "contractAddress",
          "type": "address"
        },
        {
          "internalType": "uint256",
          "name": "tokenId",
          "type": "uint256"
        },
        {
          "internalType": "string",
          "name": "",
          "type": "string"
        },
        {
          "internalType": "address",
          "name": "",
          "type": "address"
        },
        {
          "internalType": "address",
          "name": "assetToken",
          "type": "address"
        },
        {
          "internalType": "uint256",
          "name": "receiverEnergy",
          "type": "uint256"
        }
      ],
      "name": "onDischargeForCreator",
      "outputs": [],
      "stateMutability": "nonpayable",
      "type": "function"
    },
    {
      "inputs": [
        {
          "internalType": "address",
          "name": "",
          "type": "address"
        },
        {
          "internalType": "address",
          "name": "",
          "type": "address"
        },
        {
          "internalType": "address",
          "name": "contractAddress",
          "type": "address"
        },
        {
          "internalType": "uint256",
          "name": "tokenId",
          "type": "uint256"
        },
        {
          "internalType": "string",
          "name": "walletManagerId",
          "type": "string"
        },
        {
          "internalType": "address",
          "name": "assetToken",
          "type": "address"
        },
        {
          "internalType": "uint256",
          "name": "assetAmount",
          "type": "uint256"
        }
      ],
      "name": "onEnergize",
      "outputs": [],
      "stateMutability": "nonpayable",
      "type": "function"
    },
    {
      "inputs": [
        {
          "internalType": "address",
          "name": "contractAddress",
          "type": "address"
        },
        {
          "internalType": "uint256",
          "name": "tokenId",
          "type": "uint256"
        },
        {
          "internalType": "address",
          "name": "oldOwner",
          "type": "address"
        },
        {
          "internalType": "address",
          "name": "newOwner",
          "type": "address"
        },
        {
          "internalType": "uint256",
          "name": "salePrice",
          "type": "uint256"
        },
        {
          "internalType": "address",
          "name": "creator",
          "type": "address"
        },
        {
          "internalType": "uint256",
          "name": "creatorRoyalties",
          "type": "uint256"
        }
      ],
      "name": "onProtonSale",
      "outputs": [],
      "stateMutability": "nonpayable",
      "type": "function"
    },
    {
      "inputs": [
        {
          "internalType": "address",
          "name": "contractAddress",
          "type": "address"
        },
        {
          "internalType": "uint256",
          "name": "tokenId",
          "type": "uint256"
        },
        {
          "internalType": "string",
          "name": "",
          "type": "string"
        },
        {
          "internalType": "address",
          "name": "assetToken",
          "type": "address"
        },
        {
          "internalType": "uint256",
          "name": "principalAmount",
          "type": "uint256"
        },
        {
          "internalType": "uint256",
          "name": "creatorEnergy",
          "type": "uint256"
        },
        {
          "internalType": "uint256",
          "name": "receiverEnergy",
          "type": "uint256"
        }
      ],
      "name": "onRelease",
      "outputs": [],
      "stateMutability": "nonpayable",
      "type": "function"
    },
    {
      "inputs": [],
      "name": "owner",
      "outputs": [
        {
          "internalType": "address",
          "name": "",
          "type": "address"
        }
      ],
      "stateMutability": "view",
      "type": "function"
    },
    {
      "inputs": [
        {
          "internalType": "address",
          "name": "assetToken",
          "type": "address"
        }
      ],
      "name": "removeRewardProgram",
      "outputs": [],
      "stateMutability": "nonpayable",
      "type": "function"
    },
    {
      "inputs": [],
      "name": "renounceOwnership",
      "outputs": [],
      "stateMutability": "nonpayable",
      "type": "function"
    },
    {
      "inputs": [
        {
          "internalType": "address",
          "name": "controller",
          "type": "address"
        }
      ],
      "name": "setChargedParticles",
      "outputs": [],
      "stateMutability": "nonpayable",
      "type": "function"
    },
    {
      "inputs": [
        {
          "internalType": "address",
          "name": "nftTokenAddress",
          "type": "address"
        }
      ],
      "name": "setMultiplierNft",
      "outputs": [],
      "stateMutability": "nonpayable",
      "type": "function"
    },
    {
      "inputs": [
        {
          "internalType": "address",
          "name": "rewardProgam",
          "type": "address"
        },
        {
          "internalType": "address",
          "name": "assetToken",
          "type": "address"
        }
      ],
      "name": "setRewardProgram",
      "outputs": [],
      "stateMutability": "nonpayable",
      "type": "function"
    },
    {
      "inputs": [
        {
          "internalType": "address",
          "name": "newOwner",
          "type": "address"
        }
      ],
      "name": "transferOwnership",
      "outputs": [],
      "stateMutability": "nonpayable",
      "type": "function"
    },
    {
      "inputs": [
        {
          "internalType": "address payable",
          "name": "receiver",
          "type": "address"
        },
        {
          "internalType": "address",
          "name": "tokenAddress",
          "type": "address"
        },
        {
          "internalType": "uint256",
          "name": "tokenId",
          "type": "uint256"
        },
        {
          "internalType": "uint256",
          "name": "amount",
          "type": "uint256"
        }
      ],
      "name": "withdrawERC1155",
      "outputs": [],
      "stateMutability": "nonpayable",
      "type": "function"
    },
    {
      "inputs": [
        {
          "internalType": "address payable",
          "name": "receiver",
          "type": "address"
        },
        {
          "internalType": "address",
          "name": "tokenAddress",
          "type": "address"
        },
        {
          "internalType": "uint256",
          "name": "tokenId",
          "type": "uint256"
        }
      ],
      "name": "withdrawERC721",
      "outputs": [],
      "stateMutability": "nonpayable",
      "type": "function"
    },
    {
      "inputs": [
        {
          "internalType": "address payable",
          "name": "receiver",
          "type": "address"
        },
        {
          "internalType": "address",
          "name": "tokenAddress",
          "type": "address"
        },
        {
          "internalType": "uint256",
          "name": "amount",
          "type": "uint256"
        }
      ],
      "name": "withdrawErc20",
      "outputs": [],
      "stateMutability": "nonpayable",
      "type": "function"
    },
    {
      "inputs": [
        {
          "internalType": "address payable",
          "name": "receiver",
          "type": "address"
        },
        {
          "internalType": "uint256",
          "name": "amount",
          "type": "uint256"
        }
      ],
      "name": "withdrawEther",
      "outputs": [],
      "stateMutability": "nonpayable",
      "type": "function"
    }
  ],
  "transactionHash": "0xf168b4e84600613460ea6cc36e8811cfe29c48a6e3f5e45cd3bc84836b6f10fc",
  "args": [],
  "numDeployments": 1,
  "solcInputHash": "3690d415d9dd47a6d97f03bb58afbf9e",
  "bytecode": "0x608060405234801561001057600080fd5b506126f4806100206000396000f3fe608060405234801561001057600080fd5b506004361061014d5760003560e01c80638da5cb5b116100c3578063b9e09b4b1161007c578063b9e09b4b1461028e578063bbf1da84146102a1578063bea38be0146102a9578063c5d1d706146102bc578063f2fde38b146102cf578063fbf5ca14146102e25761014d565b80638da5cb5b14610227578063945233e21461022f57806395469dfc146102425780639a87c0de14610255578063a0edb48b14610268578063aa29542d1461027b5761014d565b8063522f681511610115578063522f6815146101be5780636e5559fd146101d1578063715018a6146101e45780638129fc1c146101ec578063836c478d146101f45780638b9309b2146102145761014d565b80631593dee1146101525780632bdbb77f1461016757806330219ef41461017a5780634025feb21461019857806341db85d6146101ab575b600080fd5b610165610160366004611d56565b6102f5565b005b610165610175366004611fe6565b61034d565b61018261038d565b60405161018f9190612185565b60405180910390f35b6101656101a6366004611d56565b61039c565b6101656101b9366004611fe6565b6103e6565b6101656101cc366004611ddb565b6104ca565b6101656101df366004611d1e565b610517565b6101656105e3565b61016561066c565b610207610202366004612114565b6106f7565b60405161018f9190612645565b610165610222366004611ede565b610384565b61018261073b565b61016561023d366004611d1e565b61074a565b610165610250366004611e06565b6107d8565b610165610263366004611d1e565b6108d7565b610165610276366004611d96565b61097b565b610165610289366004611f58565b6109cc565b61016561029c366004611e3e565b610a9f565b610182610b56565b6101656102b7366004611fe6565b610b65565b6101826102ca366004611d1e565b610b9c565b6101656102dd366004611d1e565b610bad565b6101656102f036600461206a565b610c6e565b6102fd610d5c565b6001600160a01b031661030e61073b565b6001600160a01b03161461033d5760405162461bcd60e51b81526004016103349061256c565b60405180910390fd5b610348838383610d60565b505050565b6065546001600160a01b031633146103775760405162461bcd60e51b8152600401610334906125a1565b6103848787858585610e6d565b50505050505050565b6065546001600160a01b031681565b6103a4610d5c565b6001600160a01b03166103b561073b565b6001600160a01b0316146103db5760405162461bcd60e51b81526004016103349061256c565b610348838383610fff565b6065546001600160a01b031633146104105760405162461bcd60e51b8152600401610334906125a1565b600061041b8461115a565b90506001600160a01b038116156104c05760006104388385611178565b604051631434318f60e21b81529091506001600160a01b038316906350d0c63c9061046b908c908c90869060040161225f565b602060405180830381600087803b15801561048557600080fd5b505af1158015610499573d6000803e3d6000fd5b505050506040513d601f19601f820116820180604052508101906104bd919061212c565b50505b5050505050505050565b6104d2610d5c565b6001600160a01b03166104e361073b565b6001600160a01b0316146105095760405162461bcd60e51b81526004016103349061256c565b61051382826111a4565b5050565b61051f610d5c565b6001600160a01b031661053061073b565b6001600160a01b0316146105565760405162461bcd60e51b81526004016103349061256c565b806001600160a01b0381161580159061057c575061057c816001600160a01b0316611228565b6105985760405162461bcd60e51b815260040161033490612381565b606580546001600160a01b0319166001600160a01b0384169081179091556040517f5ce0e6b7fd36339ee97339831b6c72694ecee88c62aab49919d9cabe0a732e4190600090a25050565b6105eb610d5c565b6001600160a01b03166105fc61073b565b6001600160a01b0316146106225760405162461bcd60e51b81526004016103349061256c565b6033546040516000916001600160a01b0316907f8be0079c531659141344cd1fd0a4f28419497f9722a3daafe3b4186f6b6457e0908390a3603380546001600160a01b0319169055565b600054610100900460ff16806106855750610685611264565b80610693575060005460ff16155b6106af5760405162461bcd60e51b8152600401610334906124dd565b600054610100900460ff161580156106da576000805460ff1961ff0019909116610100171660011790555b6106e2611275565b80156106f4576000805461ff00191690555b50565b6106ff611cb6565b5060008181526069602090815260409182902082516060810184528154815260018201549281019290925260020154918101919091525b919050565b6033546001600160a01b031690565b610752610d5c565b6001600160a01b031661076361073b565b6001600160a01b0316146107895760405162461bcd60e51b81526004016103349061256c565b6001600160a01b03811660008181526067602052604080822080546001600160a01b0319169055517f87e1027e3dc61d1977f39f0dfe911b66a943946b4ceb39210dee01495621de529190a250565b6107e0610d5c565b6001600160a01b03166107f161073b565b6001600160a01b0316146108175760405162461bcd60e51b81526004016103349061256c565b816001600160a01b0381161580159061083d575061083d816001600160a01b0316611228565b6108595760405162461bcd60e51b815260040161033490612381565b6001600160a01b03821661087f5760405162461bcd60e51b8152600401610334906122f5565b6001600160a01b0382811660008181526067602052604080822080546001600160a01b0319169488169485179055517f3b76c6366ef8a1f8d2dbb75e4be27be1e0749716fff3e6bc327da9c6158deada9190a3505050565b6108df610d5c565b6001600160a01b03166108f061073b565b6001600160a01b0316146109165760405162461bcd60e51b81526004016103349061256c565b806001600160a01b0381161580159061093c575061093c816001600160a01b0316611228565b6109585760405162461bcd60e51b815260040161033490612381565b50606680546001600160a01b0319166001600160a01b0392909216919091179055565b610983610d5c565b6001600160a01b031661099461073b565b6001600160a01b0316146109ba5760405162461bcd60e51b81526004016103349061256c565b6109c6848484846112f3565b50505050565b6065546001600160a01b031633146109f65760405162461bcd60e51b8152600401610334906125a1565b6000610a018361115a565b90506001600160a01b038116156104c057604051631434318f60e21b81526001600160a01b038216906350d0c63c90610a42908b908b90879060040161225f565b602060405180830381600087803b158015610a5c57600080fd5b505af1158015610a70573d6000803e3d6000fd5b505050506040513d601f19601f82011682018060405250810190610a94919061212c565b505050505050505050565b6065546001600160a01b03163314610ac95760405162461bcd60e51b8152600401610334906125a1565b6000610ad48361115a565b90506001600160a01b03811615610a94576040516323632fb160e11b81526001600160a01b038216906346c65f6290610b19908a908a908a908a90899060040161220e565b600060405180830381600087803b158015610b3357600080fd5b505af1158015610b47573d6000803e3d6000fd5b50505050505050505050505050565b6066546001600160a01b031681565b6065546001600160a01b03163314610b8f5760405162461bcd60e51b8152600401610334906125a1565b6103848787858585611452565b6000610ba78261115a565b92915050565b610bb5610d5c565b6001600160a01b0316610bc661073b565b6001600160a01b031614610bec5760405162461bcd60e51b81526004016103349061256c565b6001600160a01b038116610c125760405162461bcd60e51b815260040161033490612318565b6033546040516001600160a01b038084169216907f8be0079c531659141344cd1fd0a4f28419497f9722a3daafe3b4186f6b6457e090600090a3603380546001600160a01b0319166001600160a01b0392909216919091179055565b6065546001600160a01b03163314610c985760405162461bcd60e51b8152600401610334906125a1565b6000610ca38561115a565b90506001600160a01b03811615610a94576000610cca84610cc48588611542565b90611178565b604051631434318f60e21b81529091506001600160a01b038316906350d0c63c90610cfd908d908d90869060040161225f565b602060405180830381600087803b158015610d1757600080fd5b505af1158015610d2b573d6000803e3d6000fd5b505050506040513d601f19601f82011682018060405250810190610d4f919061212c565b5050505050505050505050565b3390565b6001600160a01b038316610d865760405162461bcd60e51b81526004016103349061235e565b6040516370a0823160e01b815281906001600160a01b038416906370a0823190610db4903090600401612185565b60206040518083038186803b158015610dcc57600080fd5b505afa158015610de0573d6000803e3d6000fd5b505050506040513d601f19601f82011682018060405250810190610e04919061212c565b1061034857610e1d6001600160a01b038316848361156a565b816001600160a01b0316836001600160a01b03167f6c9d637297625e945b296ff73a71fcfbd0a9e062652b6491a921c4c60194176b83604051610e609190612666565b60405180910390a3505050565b6066546001600160a01b03848116911614610e8757610ff8565b6000610e9c6001600160a01b038716866115c0565b90506000610ea9846115f4565b9050600081118015610ed057506000828152606860205260409020610ece90826116bf565b155b15610fa8576000828152606860205260409020610eed90826116cb565b506000610ef9836116d7565b600084815260696020526040902060010154909150610f5357604080516060810182528281524360208083019182526000838501818152888252606990925293909320915182555160018201559051600290910155610fa6565b60008381526069602052604090206001810154908290554303610f92610f7a826002611757565b60008681526069602052604090206001015490611178565b600085815260696020526040902060010155505b505b846001600160a01b0316876001600160a01b03167f186ebbe503be539e070ca73b33a78f4266d96003e62b888dc31f88a39ddc9c878887604051610fed92919061266f565b60405180910390a350505b5050505050565b6001600160a01b0383166110255760405162461bcd60e51b81526004016103349061235e565b6040516331a9108f60e11b815230906001600160a01b03841690636352211e90611053908590600401612666565b60206040518083038186803b15801561106b57600080fd5b505afa15801561107f573d6000803e3d6000fd5b505050506040513d601f19601f820116820180604052508101906110a39190611d3a565b6001600160a01b03161415610348576040516323b872dd60e01b81526001600160a01b038316906323b872dd906110e290309087908690600401612199565b600060405180830381600087803b1580156110fc57600080fd5b505af1158015611110573d6000803e3d6000fd5b5050505080826001600160a01b0316846001600160a01b03167ffefe036cac4ee3a4aca074a81cbcc4376e1484693289078dbec149c890101d5b60405160405180910390a4505050565b6001600160a01b039081166000908152606760205260409020541690565b60008282018381101561119d5760405162461bcd60e51b8152600401610334906123a4565b9392505050565b6001600160a01b0382166111ca5760405162461bcd60e51b81526004016103349061235e565b804710610513576111e46001600160a01b03831682611789565b816001600160a01b03167eddb683bb45cd5d0ad8a200c6fae7152b1c236ee90a4a37db692407f5cc38bd8260405161121c9190612666565b60405180910390a25050565b6000813f7fc5d2460186f7233c927e7db2dcc703c0e500b653ca82273b7bfad8045d85a47081811480159061125c57508115155b949350505050565b600061126f30611825565b15905090565b600054610100900460ff168061128e575061128e611264565b8061129c575060005460ff16155b6112b85760405162461bcd60e51b8152600401610334906124dd565b600054610100900460ff161580156112e3576000805460ff1961ff0019909116610100171660011790555b6112eb61182b565b6106e26118ac565b6001600160a01b0384166113195760405162461bcd60e51b81526004016103349061235e565b604051627eeac760e11b815281906001600160a01b0385169062fdd58e9061134790309087906004016121f5565b60206040518083038186803b15801561135f57600080fd5b505afa158015611373573d6000803e3d6000fd5b505050506040513d601f19601f82011682018060405250810190611397919061212c565b106109c657604051637921219560e11b81526001600160a01b0384169063f242432a906113ce9030908890879087906004016121bd565b600060405180830381600087803b1580156113e857600080fd5b505af11580156113fc573d6000803e3d6000fd5b5050505081836001600160a01b0316856001600160a01b03167f620337bf89eea2b9ae2657beead83b5fa620452817118348aff96e201d52598b846040516114449190612666565b60405180910390a450505050565b6066546001600160a01b0384811691161461146c57610ff8565b60006114816001600160a01b038716866115c0565b600081815260696020526040812091925061149b856115f4565b60008481526068602052604090209091506114b69082611986565b5060008381526068602052604081206114ce90611992565b11156114e4576114dd836116d7565b82556114eb565b4360028301555b856001600160a01b0316886001600160a01b03167ff3cfcfc091fdd683cf6c013de9806af93f3af27b256a57cb776331291cef4085898860405161153092919061266f565b60405180910390a35050505050505050565b6000828211156115645760405162461bcd60e51b8152600401610334906123db565b50900390565b6103488363a9059cbb60e01b84846040516024016115899291906121f5565b60408051601f198184030181529190526020810180516001600160e01b03166001600160e01b03199093169290921790915261199d565b600082826040516020016115d5929190612144565b60408051601f1981840301815291905280516020909101209392505050565b60006001821015801561160957506102d18211155b156116165750606e610736565b6102d18211801561162957506104628211155b1561163657506082610736565b61046282118015611649575061058f8211155b1561165657506096610736565b61058f8211801561166957506106588211155b15611676575060b4610736565b6106588211801561168957506106b08211155b15611696575060e6610736565b6106b0821180156116a957506106c58211155b156116b757506101fe610736565b506001610736565b600061119d8383611a2c565b600061119d8383611a44565b600081815260686020526040812081906116f090611992565b905060006032815b8381101561172d5760008681526068602052604090206117239061171c9083611a8e565b8490611178565b92506001016116f8565b600184111561174d5761174a6117438386611a9a565b8490611542565b92505b5090949350505050565b60008082116117785760405162461bcd60e51b8152600401610334906124a6565b81838161178157fe5b049392505050565b804710156117a95760405162461bcd60e51b81526004016103349061246f565b6000826001600160a01b0316826040516117c290612182565b60006040518083038185875af1925050503d80600081146117ff576040519150601f19603f3d011682016040523d82523d6000602084013e611804565b606091505b50509050806103485760405162461bcd60e51b815260040161033490612412565b3b151590565b600054610100900460ff16806118445750611844611264565b80611852575060005460ff16155b61186e5760405162461bcd60e51b8152600401610334906124dd565b600054610100900460ff161580156106e2576000805460ff1961ff00199091166101001716600117905580156106f4576000805461ff001916905550565b600054610100900460ff16806118c557506118c5611264565b806118d3575060005460ff16155b6118ef5760405162461bcd60e51b8152600401610334906124dd565b600054610100900460ff1615801561191a576000805460ff1961ff0019909116610100171660011790555b6000611924610d5c565b603380546001600160a01b0319166001600160a01b038316908117909155604051919250906000907f8be0079c531659141344cd1fd0a4f28419497f9722a3daafe3b4186f6b6457e0908290a35080156106f4576000805461ff001916905550565b600061119d8383611ad4565b6000610ba782611b9a565b60606119f2826040518060400160405280602081526020017f5361666545524332303a206c6f772d6c6576656c2063616c6c206661696c6564815250856001600160a01b0316611b9e9092919063ffffffff16565b8051909150156103485780806020019051810190611a1091906120f4565b6103485760405162461bcd60e51b8152600401610334906125fb565b60009081526001919091016020526040902054151590565b6000611a508383611a2c565b611a8657508154600181810184556000848152602080822090930184905584548482528286019093526040902091909155610ba7565b506000610ba7565b600061119d8383611bad565b600082611aa957506000610ba7565b82820282848281611ab657fe5b041461119d5760405162461bcd60e51b81526004016103349061252b565b60008181526001830160205260408120548015611b905783546000198083019190810190600090879083908110611b0757fe5b9060005260206000200154905080876000018481548110611b2457fe5b600091825260208083209091019290925582815260018981019092526040902090840190558654879080611b5457fe5b60019003818190600052602060002001600090559055866001016000878152602001908152602001600020600090556001945050505050610ba7565b6000915050610ba7565b5490565b606061125c8484600085611bf2565b81546000908210611bd05760405162461bcd60e51b8152600401610334906122b3565b826000018281548110611bdf57fe5b9060005260206000200154905092915050565b6060611bfd85611825565b611c195760405162461bcd60e51b8152600401610334906125c4565b60006060866001600160a01b03168587604051611c369190612166565b60006040518083038185875af1925050503d8060008114611c73576040519150601f19603f3d011682016040523d82523d6000602084013e611c78565b606091505b50915091508115611c8c57915061125c9050565b805115611c9c5780518082602001fd5b8360405162461bcd60e51b81526004016103349190612280565b60405180606001604052806000815260200160008152602001600081525090565b60008083601f840112611ce8578182fd5b50813567ffffffffffffffff811115611cff578182fd5b602083019150836020828501011115611d1757600080fd5b9250929050565b600060208284031215611d2f578081fd5b813561119d816126a9565b600060208284031215611d4b578081fd5b815161119d816126a9565b600080600060608486031215611d6a578182fd5b8335611d75816126a9565b92506020840135611d85816126a9565b929592945050506040919091013590565b60008060008060808587031215611dab578081fd5b8435611db6816126a9565b93506020850135611dc6816126a9565b93969395505050506040820135916060013590565b60008060408385031215611ded578182fd5b8235611df8816126a9565b946020939093013593505050565b60008060408385031215611e18578182fd5b8235611e23816126a9565b91506020830135611e33816126a9565b809150509250929050565b60008060008060008060008060e0898b031215611e59578384fd5b8835611e64816126a9565b97506020890135611e74816126a9565b96506040890135611e84816126a9565b955060608901359450608089013567ffffffffffffffff811115611ea6578485fd5b611eb28b828c01611cd7565b90955093505060a0890135611ec6816126a9565b8092505060c089013590509295985092959890939650565b600080600080600080600060e0888a031215611ef8578283fd5b8735611f03816126a9565b9650602088013595506040880135611f1a816126a9565b94506060880135611f2a816126a9565b93506080880135925060a0880135611f41816126a9565b8092505060c0880135905092959891949750929550565b600080600080600080600060c0888a031215611f72578283fd5b8735611f7d816126a9565b965060208801359550604088013567ffffffffffffffff811115611f9f578384fd5b611fab8a828b01611cd7565b9096509450506060880135611fbf816126a9565b92506080880135611fcf816126a9565b8092505060a0880135905092959891949750929550565b600080600080600080600060c0888a031215612000578081fd5b873561200b816126a9565b965060208801359550604088013567ffffffffffffffff81111561202d578182fd5b6120398a828b01611cd7565b909650945050606088013561204d816126a9565b969995985093969295946080840135945060a09093013592915050565b60008060008060008060008060e0898b031215612085578182fd5b8835612090816126a9565b975060208901359650604089013567ffffffffffffffff8111156120b2578283fd5b6120be8b828c01611cd7565b90975095505060608901356120d2816126a9565b979a96995094979396956080850135955060a08501359460c001359350915050565b600060208284031215612105578081fd5b8151801515811461119d578182fd5b600060208284031215612125578081fd5b5035919050565b60006020828403121561213d578081fd5b5051919050565b60609290921b6bffffffffffffffffffffffff19168252601482015260340190565b6000825161217881846020870161267d565b9190910192915050565b90565b6001600160a01b0391909116815260200190565b6001600160a01b039384168152919092166020820152604081019190915260600190565b6001600160a01b0394851681529290931660208301526040820152606081019190915260a06080820181905260009082015260c00190565b6001600160a01b03929092168252602082015260400190565b6001600160a01b03861681526020810185905260806040820181905281018390526000838560a08401378060a0858401015260a0601f19601f86011683010190508260608301529695505050505050565b6001600160a01b039390931683526020830191909152604082015260600190565b600060208252825180602084015261229f81604085016020870161267d565b601f01601f19169190910160400192915050565b60208082526022908201527f456e756d657261626c655365743a20696e646578206f7574206f6620626f756e604082015261647360f01b606082015260800190565b602080825260099082015268554e493a452d34303360b81b604082015260600190565b60208082526026908201527f4f776e61626c653a206e6577206f776e657220697320746865207a65726f206160408201526564647265737360d01b606082015260800190565b6020808252600990820152684248503a452d34303360b81b604082015260600190565b602080825260099082015268554e493a452d34313760b81b604082015260600190565b6020808252601b908201527f536166654d6174683a206164646974696f6e206f766572666c6f770000000000604082015260600190565b6020808252601e908201527f536166654d6174683a207375627472616374696f6e206f766572666c6f770000604082015260600190565b6020808252603a908201527f416464726573733a20756e61626c6520746f2073656e642076616c75652c207260408201527f6563697069656e74206d61792068617665207265766572746564000000000000606082015260800190565b6020808252601d908201527f416464726573733a20696e73756666696369656e742062616c616e6365000000604082015260600190565b6020808252601a908201527f536166654d6174683a206469766973696f6e206279207a65726f000000000000604082015260600190565b6020808252602e908201527f496e697469616c697a61626c653a20636f6e747261637420697320616c72656160408201526d191e481a5b9a5d1a585b1a5e995960921b606082015260800190565b60208082526021908201527f536166654d6174683a206d756c7469706c69636174696f6e206f766572666c6f6040820152607760f81b606082015260800190565b6020808252818101527f4f776e61626c653a2063616c6c6572206973206e6f7420746865206f776e6572604082015260600190565b6020808252600990820152680aa9c92748a5a6260760bb1b604082015260600190565b6020808252601d908201527f416464726573733a2063616c6c20746f206e6f6e2d636f6e7472616374000000604082015260600190565b6020808252602a908201527f5361666545524332303a204552433230206f7065726174696f6e20646964206e6040820152691bdd081cdd58d8d9595960b21b606082015260800190565b81518152602080830151908201526040918201519181019190915260600190565b90815260200190565b918252602082015260400190565b60005b83811015612698578181015183820152602001612680565b838111156109c65750506000910152565b6001600160a01b03811681146106f457600080fdfea2646970667358221220908905795c480c2c185fe7feaf7d583443e16cf0d7e33c254f739c3df482266664736f6c634300060c0033",
  "devdoc": {
    "details": "Upgradeable Contract",
    "kind": "dev",
    "methods": {
      "owner()": {
        "details": "Returns the address of the current owner."
      },
      "renounceOwnership()": {
        "details": "Leaves the contract without owner. It will not be possible to call `onlyOwner` functions anymore. Can only be called by the current owner. NOTE: Renouncing ownership will leave the contract without an owner, thereby removing any functionality that is only available to the owner."
      },
      "transferOwnership(address)": {
        "details": "Transfers ownership of the contract to a new account (`newOwner`). Can only be called by the current owner."
      }
    },
    "version": 1
  },
  "userdoc": {
    "kind": "user",
    "methods": {},
    "notice": "Charged Particles Universe Contract with Rewards Program",
    "version": 1
  },
  "storageLayout": {
    "storage": [
      {
        "astId": 680,
        "contract": "contracts/v1/UniveserRPPolygon.sol:UniverseRPPolygon",
        "label": "_initialized",
        "offset": 0,
        "slot": "0",
        "type": "t_bool"
      },
      {
        "astId": 683,
        "contract": "contracts/v1/UniveserRPPolygon.sol:UniverseRPPolygon",
        "label": "_initializing",
        "offset": 1,
        "slot": "0",
        "type": "t_bool"
      },
      {
        "astId": 3177,
        "contract": "contracts/v1/UniveserRPPolygon.sol:UniverseRPPolygon",
        "label": "__gap",
        "offset": 0,
        "slot": "1",
        "type": "t_array(t_uint256)50_storage"
      },
      {
        "astId": 111,
        "contract": "contracts/v1/UniveserRPPolygon.sol:UniverseRPPolygon",
        "label": "_owner",
        "offset": 0,
        "slot": "51",
        "type": "t_address"
      },
      {
        "astId": 230,
        "contract": "contracts/v1/UniveserRPPolygon.sol:UniverseRPPolygon",
        "label": "__gap",
        "offset": 0,
        "slot": "52",
        "type": "t_array(t_uint256)49_storage"
      },
      {
        "astId": 17621,
        "contract": "contracts/v1/UniveserRPPolygon.sol:UniverseRPPolygon",
        "label": "_chargedParticles",
        "offset": 0,
        "slot": "101",
        "type": "t_address"
      },
      {
        "astId": 17623,
        "contract": "contracts/v1/UniveserRPPolygon.sol:UniverseRPPolygon",
        "label": "_multiplierNft",
        "offset": 0,
        "slot": "102",
        "type": "t_address"
      },
      {
        "astId": 17627,
        "contract": "contracts/v1/UniveserRPPolygon.sol:UniverseRPPolygon",
        "label": "_assetRewardPrograms",
        "offset": 0,
        "slot": "103",
        "type": "t_mapping(t_address,t_address)"
      },
      {
        "astId": 17631,
        "contract": "contracts/v1/UniveserRPPolygon.sol:UniverseRPPolygon",
        "label": "_multiplierNftsSet",
        "offset": 0,
        "slot": "104",
        "type": "t_mapping(t_uint256,t_struct(UintSet)8991_storage)"
      },
      {
        "astId": 17635,
        "contract": "contracts/v1/UniveserRPPolygon.sol:UniverseRPPolygon",
        "label": "_nftStake",
        "offset": 0,
        "slot": "105",
        "type": "t_mapping(t_uint256,t_struct(NftStake)30343_storage)"
      }
    ],
    "types": {
      "t_address": {
        "encoding": "inplace",
        "label": "address",
        "numberOfBytes": "20"
      },
      "t_array(t_bytes32)dyn_storage": {
        "base": "t_bytes32",
        "encoding": "dynamic_array",
        "label": "bytes32[]",
        "numberOfBytes": "32"
      },
      "t_array(t_uint256)49_storage": {
        "base": "t_uint256",
        "encoding": "inplace",
        "label": "uint256[49]",
        "numberOfBytes": "1568"
      },
      "t_array(t_uint256)50_storage": {
        "base": "t_uint256",
        "encoding": "inplace",
        "label": "uint256[50]",
        "numberOfBytes": "1600"
      },
      "t_bool": {
        "encoding": "inplace",
        "label": "bool",
        "numberOfBytes": "1"
      },
      "t_bytes32": {
        "encoding": "inplace",
        "label": "bytes32",
        "numberOfBytes": "32"
      },
      "t_mapping(t_address,t_address)": {
        "encoding": "mapping",
        "key": "t_address",
        "label": "mapping(address => address)",
        "numberOfBytes": "32",
        "value": "t_address"
      },
      "t_mapping(t_bytes32,t_uint256)": {
        "encoding": "mapping",
        "key": "t_bytes32",
        "label": "mapping(bytes32 => uint256)",
        "numberOfBytes": "32",
        "value": "t_uint256"
      },
      "t_mapping(t_uint256,t_struct(NftStake)30343_storage)": {
        "encoding": "mapping",
        "key": "t_uint256",
        "label": "mapping(uint256 => struct IUniverseRP.NftStake)",
        "numberOfBytes": "32",
        "value": "t_struct(NftStake)30343_storage"
      },
      "t_mapping(t_uint256,t_struct(UintSet)8991_storage)": {
        "encoding": "mapping",
        "key": "t_uint256",
        "label": "mapping(uint256 => struct EnumerableSet.UintSet)",
        "numberOfBytes": "32",
        "value": "t_struct(UintSet)8991_storage"
      },
      "t_struct(NftStake)30343_storage": {
        "encoding": "inplace",
        "label": "struct IUniverseRP.NftStake",
        "members": [
          {
            "astId": 30338,
            "contract": "contracts/v1/UniveserRPPolygon.sol:UniverseRPPolygon",
            "label": "multiplier",
            "offset": 0,
            "slot": "0",
            "type": "t_uint256"
          },
          {
            "astId": 30340,
            "contract": "contracts/v1/UniveserRPPolygon.sol:UniverseRPPolygon",
            "label": "depositBlockNumber",
            "offset": 0,
            "slot": "1",
            "type": "t_uint256"
          },
          {
            "astId": 30342,
            "contract": "contracts/v1/UniveserRPPolygon.sol:UniverseRPPolygon",
            "label": "releaseBlockNumber",
            "offset": 0,
            "slot": "2",
            "type": "t_uint256"
          }
        ],
        "numberOfBytes": "96"
      },
      "t_struct(Set)8702_storage": {
        "encoding": "inplace",
        "label": "struct EnumerableSet.Set",
        "members": [
          {
            "astId": 8697,
            "contract": "contracts/v1/UniveserRPPolygon.sol:UniverseRPPolygon",
            "label": "_values",
            "offset": 0,
            "slot": "0",
            "type": "t_array(t_bytes32)dyn_storage"
          },
          {
            "astId": 8701,
            "contract": "contracts/v1/UniveserRPPolygon.sol:UniverseRPPolygon",
            "label": "_indexes",
            "offset": 0,
            "slot": "1",
            "type": "t_mapping(t_bytes32,t_uint256)"
          }
        ],
        "numberOfBytes": "64"
      },
      "t_struct(UintSet)8991_storage": {
        "encoding": "inplace",
        "label": "struct EnumerableSet.UintSet",
        "members": [
          {
            "astId": 8990,
            "contract": "contracts/v1/UniveserRPPolygon.sol:UniverseRPPolygon",
            "label": "_inner",
            "offset": 0,
            "slot": "0",
            "type": "t_struct(Set)8702_storage"
          }
        ],
        "numberOfBytes": "64"
      },
      "t_uint256": {
        "encoding": "inplace",
        "label": "uint256",
        "numberOfBytes": "32"
      }
    }
  }
}