{
  "_format": "hh-sol-artifact-1",
  "contractName": "ChargedSettings",
  "sourceName": "contracts/v1/ChargedSettings.sol",
  "abi": [
    {
      "anonymous": false,
      "inputs": [
        {
          "indexed": true,
          "internalType": "address",
          "name": "contractAddress",
          "type": "address"
        },
        {
          "indexed": false,
          "internalType": "address",
          "name": "assetToken",
          "type": "address"
        },
        {
          "indexed": false,
          "internalType": "bool",
          "name": "isAllowed",
          "type": "bool"
        }
      ],
      "name": "AllowedAssetTokenSet",
      "type": "event"
    },
    {
      "anonymous": false,
      "inputs": [
        {
          "indexed": true,
          "internalType": "address",
          "name": "assetToken",
          "type": "address"
        },
        {
          "indexed": false,
          "internalType": "bool",
          "name": "invalidity",
          "type": "bool"
        }
      ],
      "name": "AssetInvaliditySet",
      "type": "event"
    },
    {
      "anonymous": false,
      "inputs": [
        {
          "indexed": true,
          "internalType": "address",
          "name": "contractAddress",
          "type": "address"
        },
        {
          "indexed": false,
          "internalType": "address",
          "name": "assetToken",
          "type": "address"
        },
        {
          "indexed": false,
          "internalType": "uint256",
          "name": "assetDepositMin",
          "type": "uint256"
        },
        {
          "indexed": false,
          "internalType": "uint256",
          "name": "assetDepositMax",
          "type": "uint256"
        }
      ],
      "name": "AssetTokenLimitsSet",
      "type": "event"
    },
    {
      "anonymous": false,
      "inputs": [
        {
          "indexed": true,
          "internalType": "address",
          "name": "contractAddress",
          "type": "address"
        },
        {
          "indexed": false,
          "internalType": "bool",
          "name": "restrictionsEnabled",
          "type": "bool"
        }
      ],
      "name": "AssetTokenRestrictionsSet",
      "type": "event"
    },
    {
      "anonymous": false,
      "inputs": [
        {
          "indexed": true,
          "internalType": "address",
          "name": "controllerAddress",
          "type": "address"
        },
        {
          "indexed": false,
          "internalType": "string",
          "name": "controllerId",
          "type": "string"
        }
      ],
      "name": "ControllerSet",
      "type": "event"
    },
    {
      "anonymous": false,
      "inputs": [
        {
          "indexed": false,
          "internalType": "address",
          "name": "assetToken",
          "type": "address"
        },
        {
          "indexed": false,
          "internalType": "uint256",
          "name": "depositCap",
          "type": "uint256"
        }
      ],
      "name": "DepositCapSet",
      "type": "event"
    },
    {
      "anonymous": false,
      "inputs": [
        {
          "indexed": true,
          "internalType": "address",
          "name": "initiator",
          "type": "address"
        }
      ],
      "name": "Initialized",
      "type": "event"
    },
    {
      "anonymous": false,
      "inputs": [
        {
          "indexed": true,
          "internalType": "address",
          "name": "contractAddress",
          "type": "address"
        },
        {
          "indexed": true,
          "internalType": "address",
          "name": "nftTokenAddress",
          "type": "address"
        },
        {
          "indexed": false,
          "internalType": "uint256",
          "name": "maxNfts",
          "type": "uint256"
        }
      ],
      "name": "MaxNftsSet",
      "type": "event"
    },
    {
      "anonymous": false,
      "inputs": [
        {
          "indexed": true,
          "internalType": "address",
          "name": "previousOwner",
          "type": "address"
        },
        {
          "indexed": true,
          "internalType": "address",
          "name": "newOwner",
          "type": "address"
        }
      ],
      "name": "OwnershipTransferred",
      "type": "event"
    },
    {
      "anonymous": false,
      "inputs": [
        {
          "indexed": true,
          "internalType": "address",
          "name": "contractAddress",
          "type": "address"
        },
        {
          "indexed": false,
          "internalType": "bool",
          "name": "state",
          "type": "bool"
        }
      ],
      "name": "PermsSetForBasket",
      "type": "event"
    },
    {
      "anonymous": false,
      "inputs": [
        {
          "indexed": true,
          "internalType": "address",
          "name": "contractAddress",
          "type": "address"
        },
        {
          "indexed": false,
          "internalType": "bool",
          "name": "state",
          "type": "bool"
        }
      ],
      "name": "PermsSetForCharge",
      "type": "event"
    },
    {
      "anonymous": false,
      "inputs": [
        {
          "indexed": true,
          "internalType": "address",
          "name": "contractAddress",
          "type": "address"
        },
        {
          "indexed": false,
          "internalType": "bool",
          "name": "state",
          "type": "bool"
        }
      ],
      "name": "PermsSetForTimelockAny",
      "type": "event"
    },
    {
      "anonymous": false,
      "inputs": [
        {
          "indexed": true,
          "internalType": "address",
          "name": "contractAddress",
          "type": "address"
        },
        {
          "indexed": false,
          "internalType": "bool",
          "name": "state",
          "type": "bool"
        }
      ],
      "name": "PermsSetForTimelockSelf",
      "type": "event"
    },
    {
      "anonymous": false,
      "inputs": [
        {
          "indexed": true,
          "internalType": "address",
          "name": "contractAddress",
          "type": "address"
        },
        {
          "indexed": false,
          "internalType": "string",
          "name": "basketManager",
          "type": "string"
        }
      ],
      "name": "RequiredBasketManagerSet",
      "type": "event"
    },
    {
      "anonymous": false,
      "inputs": [
        {
          "indexed": true,
          "internalType": "address",
          "name": "contractAddress",
          "type": "address"
        },
        {
          "indexed": false,
          "internalType": "string",
          "name": "walletManager",
          "type": "string"
        }
      ],
      "name": "RequiredWalletManagerSet",
      "type": "event"
    },
    {
      "anonymous": false,
      "inputs": [
        {
          "indexed": false,
          "internalType": "uint256",
          "name": "expiryBlocks",
          "type": "uint256"
        }
      ],
      "name": "TempLockExpirySet",
      "type": "event"
    },
    {
      "anonymous": false,
      "inputs": [
        {
          "indexed": true,
          "internalType": "address",
          "name": "contractAddress",
          "type": "address"
        },
        {
          "indexed": true,
          "internalType": "uint256",
          "name": "tokenId",
          "type": "uint256"
        },
        {
          "indexed": true,
          "internalType": "address",
          "name": "redirectAddress",
          "type": "address"
        }
      ],
      "name": "TokenCreatorAnnuitiesRedirected",
      "type": "event"
    },
    {
      "anonymous": false,
      "inputs": [
        {
          "indexed": true,
          "internalType": "address",
          "name": "contractAddress",
          "type": "address"
        },
        {
          "indexed": true,
          "internalType": "uint256",
          "name": "tokenId",
          "type": "uint256"
        },
        {
          "indexed": true,
          "internalType": "address",
          "name": "creatorAddress",
          "type": "address"
        },
        {
          "indexed": false,
          "internalType": "uint256",
          "name": "annuityPercent",
          "type": "uint256"
        }
      ],
      "name": "TokenCreatorConfigsSet",
      "type": "event"
    },
    {
      "anonymous": false,
      "inputs": [
        {
          "indexed": true,
          "internalType": "address",
          "name": "receiver",
          "type": "address"
        },
        {
          "indexed": true,
          "internalType": "address",
          "name": "tokenAddress",
          "type": "address"
        },
        {
          "indexed": true,
          "internalType": "uint256",
          "name": "tokenId",
          "type": "uint256"
        },
        {
          "indexed": false,
          "internalType": "uint256",
          "name": "amount",
          "type": "uint256"
        }
      ],
      "name": "WithdrawStuckERC1155",
      "type": "event"
    },
    {
      "anonymous": false,
      "inputs": [
        {
          "indexed": true,
          "internalType": "address",
          "name": "receiver",
          "type": "address"
        },
        {
          "indexed": true,
          "internalType": "address",
          "name": "tokenAddress",
          "type": "address"
        },
        {
          "indexed": false,
          "internalType": "uint256",
          "name": "amount",
          "type": "uint256"
        }
      ],
      "name": "WithdrawStuckERC20",
      "type": "event"
    },
    {
      "anonymous": false,
      "inputs": [
        {
          "indexed": true,
          "internalType": "address",
          "name": "receiver",
          "type": "address"
        },
        {
          "indexed": true,
          "internalType": "address",
          "name": "tokenAddress",
          "type": "address"
        },
        {
          "indexed": true,
          "internalType": "uint256",
          "name": "tokenId",
          "type": "uint256"
        }
      ],
      "name": "WithdrawStuckERC721",
      "type": "event"
    },
    {
      "anonymous": false,
      "inputs": [
        {
          "indexed": true,
          "internalType": "address",
          "name": "receiver",
          "type": "address"
        },
        {
          "indexed": false,
          "internalType": "uint256",
          "name": "amount",
          "type": "uint256"
        }
      ],
      "name": "WithdrawStuckEther",
      "type": "event"
    },
    {
      "inputs": [
        {
          "internalType": "address[]",
          "name": "contracts",
          "type": "address[]"
        }
      ],
      "name": "enableNftContracts",
      "outputs": [],
      "stateMutability": "nonpayable",
      "type": "function"
    },
    {
      "inputs": [
        {
          "internalType": "address",
          "name": "contractAddress",
          "type": "address"
        },
        {
          "internalType": "address",
          "name": "assetToken",
          "type": "address"
        }
      ],
      "name": "getAssetRequirements",
      "outputs": [
        {
          "internalType": "string",
          "name": "requiredWalletManager",
          "type": "string"
        },
        {
          "internalType": "bool",
          "name": "energizeEnabled",
          "type": "bool"
        },
        {
          "internalType": "bool",
          "name": "restrictedAssets",
          "type": "bool"
        },
        {
          "internalType": "bool",
          "name": "validAsset",
          "type": "bool"
        },
        {
          "internalType": "uint256",
          "name": "depositCap",
          "type": "uint256"
        },
        {
          "internalType": "uint256",
          "name": "depositMin",
          "type": "uint256"
        },
        {
          "internalType": "uint256",
          "name": "depositMax",
          "type": "uint256"
        },
        {
          "internalType": "bool",
          "name": "invalidAsset",
          "type": "bool"
        }
      ],
      "stateMutability": "view",
      "type": "function"
    },
    {
      "inputs": [
        {
          "internalType": "address",
          "name": "contractAddress",
          "type": "address"
        },
        {
          "internalType": "uint256",
          "name": "tokenId",
          "type": "uint256"
        }
      ],
      "name": "getCreatorAnnuities",
      "outputs": [
        {
          "internalType": "address",
          "name": "creator",
          "type": "address"
        },
        {
          "internalType": "uint256",
          "name": "annuityPct",
          "type": "uint256"
        }
      ],
      "stateMutability": "nonpayable",
      "type": "function"
    },
    {
      "inputs": [
        {
          "internalType": "address",
          "name": "contractAddress",
          "type": "address"
        },
        {
          "internalType": "uint256",
          "name": "tokenId",
          "type": "uint256"
        }
      ],
      "name": "getCreatorAnnuitiesRedirect",
      "outputs": [
        {
          "internalType": "address",
          "name": "",
          "type": "address"
        }
      ],
      "stateMutability": "view",
      "type": "function"
    },
    {
      "inputs": [
        {
          "internalType": "address",
          "name": "contractAddress",
          "type": "address"
        },
        {
          "internalType": "address",
          "name": "nftTokenAddress",
          "type": "address"
        }
      ],
      "name": "getNftAssetRequirements",
      "outputs": [
        {
          "internalType": "string",
          "name": "requiredBasketManager",
          "type": "string"
        },
        {
          "internalType": "bool",
          "name": "basketEnabled",
          "type": "bool"
        },
        {
          "internalType": "uint256",
          "name": "maxNfts",
          "type": "uint256"
        }
      ],
      "stateMutability": "view",
      "type": "function"
    },
    {
      "inputs": [],
      "name": "getTempLockExpiryBlocks",
      "outputs": [
        {
          "internalType": "uint256",
          "name": "",
          "type": "uint256"
        }
      ],
      "stateMutability": "view",
      "type": "function"
    },
    {
      "inputs": [
        {
          "internalType": "address",
          "name": "operator",
          "type": "address"
        }
      ],
      "name": "getTimelockApprovals",
      "outputs": [
        {
          "internalType": "bool",
          "name": "timelockAny",
          "type": "bool"
        },
        {
          "internalType": "bool",
          "name": "timelockOwn",
          "type": "bool"
        }
      ],
      "stateMutability": "view",
      "type": "function"
    },
    {
      "inputs": [
        {
          "internalType": "address",
          "name": "initiator",
          "type": "address"
        }
      ],
      "name": "initialize",
      "outputs": [],
      "stateMutability": "nonpayable",
      "type": "function"
    },
    {
      "inputs": [
        {
          "internalType": "address",
          "name": "forwarder",
          "type": "address"
        }
      ],
      "name": "isTrustedForwarder",
      "outputs": [
        {
          "internalType": "bool",
          "name": "",
          "type": "bool"
        }
      ],
      "stateMutability": "view",
      "type": "function"
    },
    {
      "inputs": [
        {
          "internalType": "address",
          "name": "contractAddress",
          "type": "address"
        },
        {
          "internalType": "uint256",
          "name": "tokenId",
          "type": "uint256"
        },
        {
          "internalType": "address",
          "name": "creator",
          "type": "address"
        },
        {
          "internalType": "uint256",
          "name": "annuityPercent",
          "type": "uint256"
        },
        {
          "internalType": "address",
          "name": "annuityReceiver",
          "type": "address"
        }
      ],
      "name": "migrateToken",
      "outputs": [],
      "stateMutability": "nonpayable",
      "type": "function"
    },
    {
      "inputs": [],
      "name": "owner",
      "outputs": [
        {
          "internalType": "address",
          "name": "",
          "type": "address"
        }
      ],
      "stateMutability": "view",
      "type": "function"
    },
    {
      "inputs": [],
      "name": "renounceOwnership",
      "outputs": [],
      "stateMutability": "nonpayable",
      "type": "function"
    },
    {
      "inputs": [
        {
          "internalType": "address",
          "name": "contractAddress",
          "type": "address"
        },
        {
          "internalType": "address",
          "name": "assetToken",
          "type": "address"
        },
        {
          "internalType": "bool",
          "name": "isAllowed",
          "type": "bool"
        }
      ],
      "name": "setAllowedAssetToken",
      "outputs": [],
      "stateMutability": "nonpayable",
      "type": "function"
    },
    {
      "inputs": [
        {
          "internalType": "address",
          "name": "assetToken",
          "type": "address"
        },
        {
          "internalType": "bool",
          "name": "invalidity",
          "type": "bool"
        }
      ],
      "name": "setAssetInvalidity",
      "outputs": [],
      "stateMutability": "nonpayable",
      "type": "function"
    },
    {
      "inputs": [
        {
          "internalType": "address",
          "name": "contractAddress",
          "type": "address"
        },
        {
          "internalType": "address",
          "name": "assetToken",
          "type": "address"
        },
        {
          "internalType": "uint256",
          "name": "depositMin",
          "type": "uint256"
        },
        {
          "internalType": "uint256",
          "name": "depositMax",
          "type": "uint256"
        }
      ],
      "name": "setAssetTokenLimits",
      "outputs": [],
      "stateMutability": "nonpayable",
      "type": "function"
    },
    {
      "inputs": [
        {
          "internalType": "address",
          "name": "contractAddress",
          "type": "address"
        },
        {
          "internalType": "bool",
          "name": "restrictionsEnabled",
          "type": "bool"
        }
      ],
      "name": "setAssetTokenRestrictions",
      "outputs": [],
      "stateMutability": "nonpayable",
      "type": "function"
    },
    {
      "inputs": [
        {
          "internalType": "address",
          "name": "controller",
          "type": "address"
        },
        {
          "internalType": "string",
          "name": "controllerId",
          "type": "string"
        }
      ],
      "name": "setController",
      "outputs": [],
      "stateMutability": "nonpayable",
      "type": "function"
    },
    {
      "inputs": [
        {
          "internalType": "address",
          "name": "contractAddress",
          "type": "address"
        },
        {
          "internalType": "uint256",
          "name": "tokenId",
          "type": "uint256"
        },
        {
          "internalType": "address",
          "name": "creator",
          "type": "address"
        },
        {
          "internalType": "uint256",
          "name": "annuityPercent",
          "type": "uint256"
        }
      ],
      "name": "setCreatorAnnuities",
      "outputs": [],
      "stateMutability": "nonpayable",
      "type": "function"
    },
    {
      "inputs": [
        {
          "internalType": "address",
          "name": "contractAddress",
          "type": "address"
        },
        {
          "internalType": "uint256",
          "name": "tokenId",
          "type": "uint256"
        },
        {
          "internalType": "address",
          "name": "receiver",
          "type": "address"
        }
      ],
      "name": "setCreatorAnnuitiesRedirect",
      "outputs": [],
      "stateMutability": "nonpayable",
      "type": "function"
    },
    {
      "inputs": [
        {
          "internalType": "address",
          "name": "assetToken",
          "type": "address"
        },
        {
          "internalType": "uint256",
          "name": "cap",
          "type": "uint256"
        }
      ],
      "name": "setDepositCap",
      "outputs": [],
      "stateMutability": "nonpayable",
      "type": "function"
    },
    {
      "inputs": [
        {
          "internalType": "address",
          "name": "contractAddress",
          "type": "address"
        },
        {
          "internalType": "address",
          "name": "nftTokenAddress",
          "type": "address"
        },
        {
          "internalType": "uint256",
          "name": "maxNfts",
          "type": "uint256"
        }
      ],
      "name": "setMaxNfts",
      "outputs": [],
      "stateMutability": "nonpayable",
      "type": "function"
    },
    {
      "inputs": [
        {
          "internalType": "address",
          "name": "contractAddress",
          "type": "address"
        },
        {
          "internalType": "bool",
          "name": "state",
          "type": "bool"
        }
      ],
      "name": "setPermsForBasket",
      "outputs": [],
      "stateMutability": "nonpayable",
      "type": "function"
    },
    {
      "inputs": [
        {
          "internalType": "address",
          "name": "contractAddress",
          "type": "address"
        },
        {
          "internalType": "bool",
          "name": "state",
          "type": "bool"
        }
      ],
      "name": "setPermsForCharge",
      "outputs": [],
      "stateMutability": "nonpayable",
      "type": "function"
    },
    {
      "inputs": [
        {
          "internalType": "address",
          "name": "contractAddress",
          "type": "address"
        },
        {
          "internalType": "bool",
          "name": "state",
          "type": "bool"
        }
      ],
      "name": "setPermsForTimelockAny",
      "outputs": [],
      "stateMutability": "nonpayable",
      "type": "function"
    },
    {
      "inputs": [
        {
          "internalType": "address",
          "name": "contractAddress",
          "type": "address"
        },
        {
          "internalType": "bool",
          "name": "state",
          "type": "bool"
        }
      ],
      "name": "setPermsForTimelockSelf",
      "outputs": [],
      "stateMutability": "nonpayable",
      "type": "function"
    },
    {
      "inputs": [
        {
          "internalType": "address",
          "name": "contractAddress",
          "type": "address"
        },
        {
          "internalType": "string",
          "name": "basketManager",
          "type": "string"
        }
      ],
      "name": "setRequiredBasketManager",
      "outputs": [],
      "stateMutability": "nonpayable",
      "type": "function"
    },
    {
      "inputs": [
        {
          "internalType": "address",
          "name": "contractAddress",
          "type": "address"
        },
        {
          "internalType": "string",
          "name": "walletManager",
          "type": "string"
        }
      ],
      "name": "setRequiredWalletManager",
      "outputs": [],
      "stateMutability": "nonpayable",
      "type": "function"
    },
    {
      "inputs": [
        {
          "internalType": "uint256",
          "name": "numBlocks",
          "type": "uint256"
        }
      ],
      "name": "setTempLockExpiryBlocks",
      "outputs": [],
      "stateMutability": "nonpayable",
      "type": "function"
    },
    {
      "inputs": [
        {
          "internalType": "address",
          "name": "_trustedForwarder",
          "type": "address"
        }
      ],
      "name": "setTrustedForwarder",
      "outputs": [],
      "stateMutability": "nonpayable",
      "type": "function"
    },
    {
      "inputs": [
        {
          "internalType": "address",
          "name": "newOwner",
          "type": "address"
        }
      ],
      "name": "transferOwnership",
      "outputs": [],
      "stateMutability": "nonpayable",
      "type": "function"
    },
    {
      "inputs": [],
      "name": "trustedForwarder",
      "outputs": [
        {
          "internalType": "address",
          "name": "",
          "type": "address"
        }
      ],
      "stateMutability": "view",
      "type": "function"
    },
    {
      "inputs": [],
      "name": "versionRecipient",
      "outputs": [
        {
          "internalType": "string",
          "name": "",
          "type": "string"
        }
      ],
      "stateMutability": "view",
      "type": "function"
    },
    {
      "inputs": [
        {
          "internalType": "address payable",
          "name": "receiver",
          "type": "address"
        },
        {
          "internalType": "address",
          "name": "tokenAddress",
          "type": "address"
        },
        {
          "internalType": "uint256",
          "name": "tokenId",
          "type": "uint256"
        },
        {
          "internalType": "uint256",
          "name": "amount",
          "type": "uint256"
        }
      ],
      "name": "withdrawERC1155",
      "outputs": [],
      "stateMutability": "nonpayable",
      "type": "function"
    },
    {
      "inputs": [
        {
          "internalType": "address payable",
          "name": "receiver",
          "type": "address"
        },
        {
          "internalType": "address",
          "name": "tokenAddress",
          "type": "address"
        },
        {
          "internalType": "uint256",
          "name": "tokenId",
          "type": "uint256"
        }
      ],
      "name": "withdrawERC721",
      "outputs": [],
      "stateMutability": "nonpayable",
      "type": "function"
    },
    {
      "inputs": [
        {
          "internalType": "address payable",
          "name": "receiver",
          "type": "address"
        },
        {
          "internalType": "address",
          "name": "tokenAddress",
          "type": "address"
        },
        {
          "internalType": "uint256",
          "name": "amount",
          "type": "uint256"
        }
      ],
      "name": "withdrawErc20",
      "outputs": [],
      "stateMutability": "nonpayable",
      "type": "function"
    },
    {
      "inputs": [
        {
          "internalType": "address payable",
          "name": "receiver",
          "type": "address"
        },
        {
          "internalType": "uint256",
          "name": "amount",
          "type": "uint256"
        }
      ],
      "name": "withdrawEther",
      "outputs": [],
      "stateMutability": "nonpayable",
      "type": "function"
    }
  ],
  "bytecode": "0x608060405234801561001057600080fd5b5061605c80620000216000396000f3fe608060405234801561001057600080fd5b506004361061021c5760003560e01c806372b792db11610125578063c4d66de8116100ad578063e57433581161007c578063e574335814610f6d578063e8176ced14610fbd578063f0e824ec1461100d578063f2fde38b1461103b578063f878369e1461107f5761021c565b8063c4d66de814610e4f578063cf74fe6114610e93578063da74222814610eb1578063e3c945b814610ef55761021c565b80638da5cb5b116100f45780638da5cb5b14610be7578063a0b78e9814610c1b578063a0edb48b14610d08578063b1332f1014610d80578063bb10a6ec14610dd05761021c565b806372b792db14610a355780637da0a87714610aa357806382508e0f14610ad75780638d7da03514610b4f5761021c565b8063486ff0cd116101a8578063572b6c0511610177578063572b6c05146107bf5780635a797f01146108195780635ae5bde9146108b257806370d9e4f0146109c8578063715018a614610a2b5761021c565b8063486ff0cd146106305780634a46b3ee146106b3578063522f6815146107035780635369ff96146107515761021c565b80632805baca116101ef5780632805baca146103a75780632e0bdde8146104175780632e4b2d52146104b057806333aedf0b146105495780634025feb2146105c25761021c565b806304f275a1146102215780631593dee11461027157806315aea5d7146102df5780631aad0fb414610357575b600080fd5b61026f6004803603604081101561023757600080fd5b81019080803573ffffffffffffffffffffffffffffffffffffffff1690602001909291908035151590602001909291905050506110cd565b005b6102dd6004803603606081101561028757600080fd5b81019080803573ffffffffffffffffffffffffffffffffffffffff169060200190929190803573ffffffffffffffffffffffffffffffffffffffff1690602001909291908035906020019092919050505061118a565b005b610355600480360360808110156102f557600080fd5b81019080803573ffffffffffffffffffffffffffffffffffffffff16906020019092919080359060200190929190803573ffffffffffffffffffffffffffffffffffffffff16906020019092919080359060200190929190505050611249565b005b6103a56004803603604081101561036d57600080fd5b81019080803573ffffffffffffffffffffffffffffffffffffffff1690602001909291908035151590602001909291905050506113c0565b005b610415600480360360608110156103bd57600080fd5b81019080803573ffffffffffffffffffffffffffffffffffffffff169060200190929190803573ffffffffffffffffffffffffffffffffffffffff16906020019092919080351515906020019092919050505061147d565b005b6104ae6004803603604081101561042d57600080fd5b81019080803573ffffffffffffffffffffffffffffffffffffffff1690602001909291908035906020019064010000000081111561046a57600080fd5b82018360208201111561047c57600080fd5b8035906020019184600183028401116401000000008311171561049e57600080fd5b90919293919293905050506116f3565b005b610547600480360360408110156104c657600080fd5b81019080803573ffffffffffffffffffffffffffffffffffffffff1690602001909291908035906020019064010000000081111561050357600080fd5b82018360208201111561051557600080fd5b8035906020019184600183028401116401000000008311171561053757600080fd5b90919293919293905050506119fb565b005b6105c06004803603602081101561055f57600080fd5b810190808035906020019064010000000081111561057c57600080fd5b82018360208201111561058e57600080fd5b803590602001918460208302840111640100000000831117156105b057600080fd5b9091929391929390505050611d03565b005b61062e600480360360608110156105d857600080fd5b81019080803573ffffffffffffffffffffffffffffffffffffffff169060200190929190803573ffffffffffffffffffffffffffffffffffffffff16906020019092919080359060200190929190505050611e27565b005b610638611ee6565b6040518080602001828103825283818151815260200191508051906020019080838360005b8381101561067857808201518184015260208101905061065d565b50505050905090810190601f1680156106a55780820380516001836020036101000a031916815260200191505b509250505060405180910390f35b610701600480360360408110156106c957600080fd5b81019080803573ffffffffffffffffffffffffffffffffffffffff169060200190929190803515159060200190929190505050611f06565b005b61074f6004803603604081101561071957600080fd5b81019080803573ffffffffffffffffffffffffffffffffffffffff16906020019092919080359060200190929190505050611fc3565b005b6107bd6004803603606081101561076757600080fd5b81019080803573ffffffffffffffffffffffffffffffffffffffff169060200190929190803573ffffffffffffffffffffffffffffffffffffffff16906020019092919080359060200190929190505050612080565b005b610801600480360360208110156107d557600080fd5b81019080803573ffffffffffffffffffffffffffffffffffffffff1690602001909291905050506122da565b60405180821515815260200191505060405180910390f35b6108b06004803603604081101561082f57600080fd5b81019080803573ffffffffffffffffffffffffffffffffffffffff1690602001909291908035906020019064010000000081111561086c57600080fd5b82018360208201111561087e57600080fd5b803590602001918460018302840111640100000000831117156108a057600080fd5b9091929391929390505050612334565b005b610914600480360360408110156108c857600080fd5b81019080803573ffffffffffffffffffffffffffffffffffffffff169060200190929190803573ffffffffffffffffffffffffffffffffffffffff169060200190929190505050612527565b6040518080602001891515815260200188151581526020018715158152602001868152602001858152602001848152602001831515815260200182810382528a818151815260200191508051906020019080838360005b8381101561098657808201518184015260208101905061096b565b50505050905090810190601f1680156109b35780820380516001836020036101000a031916815260200191505b50995050505050505050505060405180910390f35b610a0a600480360360208110156109de57600080fd5b81019080803573ffffffffffffffffffffffffffffffffffffffff16906020019092919050505061290c565b60405180831515815260200182151581526020019250505060405180910390f35b610a336129ea565b005b610aa160048036036060811015610a4b57600080fd5b81019080803573ffffffffffffffffffffffffffffffffffffffff16906020019092919080359060200190929190803573ffffffffffffffffffffffffffffffffffffffff169060200190929190505050612b5a565b005b610aab612ccf565b604051808273ffffffffffffffffffffffffffffffffffffffff16815260200191505060405180910390f35b610b2360048036036040811015610aed57600080fd5b81019080803573ffffffffffffffffffffffffffffffffffffffff16906020019092919080359060200190929190505050612cf5565b604051808273ffffffffffffffffffffffffffffffffffffffff16815260200191505060405180910390f35b610be5600480360360a0811015610b6557600080fd5b81019080803573ffffffffffffffffffffffffffffffffffffffff16906020019092919080359060200190929190803573ffffffffffffffffffffffffffffffffffffffff16906020019092919080359060200190929190803573ffffffffffffffffffffffffffffffffffffffff169060200190929190505050612d60565b005b610bef612e62565b604051808273ffffffffffffffffffffffffffffffffffffffff16815260200191505060405180910390f35b610c7d60048036036040811015610c3157600080fd5b81019080803573ffffffffffffffffffffffffffffffffffffffff169060200190929190803573ffffffffffffffffffffffffffffffffffffffff169060200190929190505050612e8c565b60405180806020018415158152602001838152602001828103825285818151815260200191508051906020019080838360005b83811015610ccb578082015181840152602081019050610cb0565b50505050905090810190601f168015610cf85780820380516001836020036101000a031916815260200191505b5094505050505060405180910390f35b610d7e60048036036080811015610d1e57600080fd5b81019080803573ffffffffffffffffffffffffffffffffffffffff169060200190929190803573ffffffffffffffffffffffffffffffffffffffff169060200190929190803590602001909291908035906020019092919050505061305c565b005b610dce60048036036040811015610d9657600080fd5b81019080803573ffffffffffffffffffffffffffffffffffffffff16906020019092919080351515906020019092919050505061311d565b005b610e1c60048036036040811015610de657600080fd5b81019080803573ffffffffffffffffffffffffffffffffffffffff16906020019092919080359060200190929190505050613478565b604051808373ffffffffffffffffffffffffffffffffffffffff1681526020018281526020019250505060405180910390f35b610e9160048036036020811015610e6557600080fd5b81019080803573ffffffffffffffffffffffffffffffffffffffff169060200190929190505050613596565b005b610e9b6136e0565b6040518082815260200191505060405180910390f35b610ef360048036036020811015610ec757600080fd5b81019080803573ffffffffffffffffffffffffffffffffffffffff1690602001909291905050506136ea565b005b610f6b60048036036080811015610f0b57600080fd5b81019080803573ffffffffffffffffffffffffffffffffffffffff169060200190929190803573ffffffffffffffffffffffffffffffffffffffff16906020019092919080359060200190929190803590602001909291905050506137dd565b005b610fbb60048036036040811015610f8357600080fd5b81019080803573ffffffffffffffffffffffffffffffffffffffff169060200190929190803515159060200190929190505050613ac8565b005b61100b60048036036040811015610fd357600080fd5b81019080803573ffffffffffffffffffffffffffffffffffffffff169060200190929190803515159060200190929190505050613c22565b005b6110396004803603602081101561102357600080fd5b8101908080359060200190929190505050613cdf565b005b61107d6004803603602081101561105157600080fd5b81019080803573ffffffffffffffffffffffffffffffffffffffff169060200190929190505050613dcf565b005b6110cb6004803603604081101561109557600080fd5b81019080803573ffffffffffffffffffffffffffffffffffffffff16906020019092919080359060200190929190505050613fc4565b005b6110d5614110565b73ffffffffffffffffffffffffffffffffffffffff166110f3612e62565b73ffffffffffffffffffffffffffffffffffffffff161461117c576040517f08c379a00000000000000000000000000000000000000000000000000000000081526004018080602001828103825260208152602001807f4f776e61626c653a2063616c6c6572206973206e6f7420746865206f776e657281525060200191505060405180910390fd5b611186828261411f565b5050565b611192614110565b73ffffffffffffffffffffffffffffffffffffffff166111b0612e62565b73ffffffffffffffffffffffffffffffffffffffff1614611239576040517f08c379a00000000000000000000000000000000000000000000000000000000081526004018080602001828103825260208152602001807f4f776e61626c653a2063616c6c6572206973206e6f7420746865206f776e657281525060200191505060405180910390fd5b61124483838361430b565b505050565b606660009054906101000a900473ffffffffffffffffffffffffffffffffffffffff1673ffffffffffffffffffffffffffffffffffffffff1663933bd2468585611291614110565b6040518463ffffffff1660e01b8152600401808473ffffffffffffffffffffffffffffffffffffffff1681526020018381526020018273ffffffffffffffffffffffffffffffffffffffff1681526020019350505050602060405180830381600087803b15801561130157600080fd5b505af1158015611315573d6000803e3d6000fd5b505050506040513d602081101561132b57600080fd5b81019080805190602001909291905050506113ae576040517f08c379a00000000000000000000000000000000000000000000000000000000081526004018080602001828103825260088152602001807f43503a452d31303400000000000000000000000000000000000000000000000081525060200191505060405180910390fd5b6113ba848484846144ec565b50505050565b6113c8614110565b73ffffffffffffffffffffffffffffffffffffffff166113e6612e62565b73ffffffffffffffffffffffffffffffffffffffff161461146f576040517f08c379a00000000000000000000000000000000000000000000000000000000081526004018080602001828103825260208152602001807f4f776e61626c653a2063616c6c6572206973206e6f7420746865206f776e657281525060200191505060405180910390fd5b6114798282614616565b5050565b8261149d8173ffffffffffffffffffffffffffffffffffffffff16614802565b61150f576040517f08c379a00000000000000000000000000000000000000000000000000000000081526004018080602001828103825260088152602001807f43503a452d34323000000000000000000000000000000000000000000000000081525060200191505060405180910390fd5b8333611519612e62565b73ffffffffffffffffffffffffffffffffffffffff168173ffffffffffffffffffffffffffffffffffffffff1614806115775750611576818373ffffffffffffffffffffffffffffffffffffffff1661484d90919063ffffffff16565b5b6115e9576040517f08c379a00000000000000000000000000000000000000000000000000000000081526004018080602001828103825260088152602001807f43503a452d31303300000000000000000000000000000000000000000000000081525060200191505060405180910390fd5b83606a60008873ffffffffffffffffffffffffffffffffffffffff1673ffffffffffffffffffffffffffffffffffffffff16815260200190815260200160002060008773ffffffffffffffffffffffffffffffffffffffff1673ffffffffffffffffffffffffffffffffffffffff16815260200190815260200160002060006101000a81548160ff0219169083151502179055508573ffffffffffffffffffffffffffffffffffffffff167fd527a72e6766537312f1eb975e1f40f434f158008057c75aaaa34a22b970ed708686604051808373ffffffffffffffffffffffffffffffffffffffff16815260200182151581526020019250505060405180910390a2505050505050565b826117138173ffffffffffffffffffffffffffffffffffffffff16614802565b611785576040517f08c379a00000000000000000000000000000000000000000000000000000000081526004018080602001828103825260088152602001807f43503a452d34323000000000000000000000000000000000000000000000000081525060200191505060405180910390fd5b833361178f612e62565b73ffffffffffffffffffffffffffffffffffffffff168173ffffffffffffffffffffffffffffffffffffffff1614806117ed57506117ec818373ffffffffffffffffffffffffffffffffffffffff1661484d90919063ffffffff16565b5b61185f576040517f08c379a00000000000000000000000000000000000000000000000000000000081526004018080602001828103825260088152602001807f43503a452d31303300000000000000000000000000000000000000000000000081525060200191505060405180910390fd5b6040518060400160405280600481526020017f6e6f6e6500000000000000000000000000000000000000000000000000000000815250805190602001208585604051808383808284378083019250505092505050604051809103902014156119295760405180602001604052806000815250606860008873ffffffffffffffffffffffffffffffffffffffff1673ffffffffffffffffffffffffffffffffffffffff1681526020019081526020016000209080519060200190611923929190615e23565b50611979565b8484606860008973ffffffffffffffffffffffffffffffffffffffff1673ffffffffffffffffffffffffffffffffffffffff1681526020019081526020016000209190611977929190615ea3565b505b8573ffffffffffffffffffffffffffffffffffffffff167f61eb8c714b3b28bfd7808ae5ca8de4291f99ffa752eed03959744b3ea6170edd868660405180806020018281038252848482818152602001925080828437600081840152601f19601f820116905080830192505050935050505060405180910390a2505050505050565b82611a1b8173ffffffffffffffffffffffffffffffffffffffff16614802565b611a8d576040517f08c379a00000000000000000000000000000000000000000000000000000000081526004018080602001828103825260088152602001807f43503a452d34323000000000000000000000000000000000000000000000000081525060200191505060405180910390fd5b8333611a97612e62565b73ffffffffffffffffffffffffffffffffffffffff168173ffffffffffffffffffffffffffffffffffffffff161480611af55750611af4818373ffffffffffffffffffffffffffffffffffffffff1661484d90919063ffffffff16565b5b611b67576040517f08c379a00000000000000000000000000000000000000000000000000000000081526004018080602001828103825260088152602001807f43503a452d31303300000000000000000000000000000000000000000000000081525060200191505060405180910390fd5b6040518060400160405280600481526020017f6e6f6e650000000000000000000000000000000000000000000000000000000081525080519060200120858560405180838380828437808301925050509250505060405180910390201415611c315760405180602001604052806000815250606960008873ffffffffffffffffffffffffffffffffffffffff1673ffffffffffffffffffffffffffffffffffffffff1681526020019081526020016000209080519060200190611c2b929190615e23565b50611c81565b8484606960008973ffffffffffffffffffffffffffffffffffffffff1673ffffffffffffffffffffffffffffffffffffffff1681526020019081526020016000209190611c7f929190615ea3565b505b8573ffffffffffffffffffffffffffffffffffffffff167ffc810bbaf45475e561a4319e56b456f12cd50940a48193f06eaf039f2c02fffe868660405180806020018281038252848482818152602001925080828437600081840152601f19601f820116905080830192505050935050505060405180910390a2505050505050565b611d0b614110565b73ffffffffffffffffffffffffffffffffffffffff16611d29612e62565b73ffffffffffffffffffffffffffffffffffffffff1614611db2576040517f08c379a00000000000000000000000000000000000000000000000000000000081526004018080602001828103825260208152602001807f4f776e61626c653a2063616c6c6572206973206e6f7420746865206f776e657281525060200191505060405180910390fd5b600082829050905060005b81811015611e21576000848483818110611dd357fe5b9050602002013573ffffffffffffffffffffffffffffffffffffffff169050611dfd81600161411f565b611e08816001614944565b611e13816001614616565b508080600101915050611dbd565b50505050565b611e2f614110565b73ffffffffffffffffffffffffffffffffffffffff16611e4d612e62565b73ffffffffffffffffffffffffffffffffffffffff1614611ed6576040517f08c379a00000000000000000000000000000000000000000000000000000000081526004018080602001828103825260208152602001807f4f776e61626c653a2063616c6c6572206973206e6f7420746865206f776e657281525060200191505060405180910390fd5b611ee1838383614b30565b505050565b60606040518060600160405280602e8152602001615fcf602e9139905090565b611f0e614110565b73ffffffffffffffffffffffffffffffffffffffff16611f2c612e62565b73ffffffffffffffffffffffffffffffffffffffff1614611fb5576040517f08c379a00000000000000000000000000000000000000000000000000000000081526004018080602001828103825260208152602001807f4f776e61626c653a2063616c6c6572206973206e6f7420746865206f776e657281525060200191505060405180910390fd5b611fbf8282614944565b5050565b611fcb614110565b73ffffffffffffffffffffffffffffffffffffffff16611fe9612e62565b73ffffffffffffffffffffffffffffffffffffffff1614612072576040517f08c379a00000000000000000000000000000000000000000000000000000000081526004018080602001828103825260208152602001807f4f776e61626c653a2063616c6c6572206973206e6f7420746865206f776e657281525060200191505060405180910390fd5b61207c8282614d9a565b5050565b826120a08173ffffffffffffffffffffffffffffffffffffffff16614802565b612112576040517f08c379a00000000000000000000000000000000000000000000000000000000081526004018080602001828103825260088152602001807f43503a452d34323000000000000000000000000000000000000000000000000081525060200191505060405180910390fd5b833361211c612e62565b73ffffffffffffffffffffffffffffffffffffffff168173ffffffffffffffffffffffffffffffffffffffff16148061217a5750612179818373ffffffffffffffffffffffffffffffffffffffff1661484d90919063ffffffff16565b5b6121ec576040517f08c379a00000000000000000000000000000000000000000000000000000000081526004018080602001828103825260088152602001807f43503a452d31303300000000000000000000000000000000000000000000000081525060200191505060405180910390fd5b83606d60008873ffffffffffffffffffffffffffffffffffffffff1673ffffffffffffffffffffffffffffffffffffffff16815260200190815260200160002060008773ffffffffffffffffffffffffffffffffffffffff1673ffffffffffffffffffffffffffffffffffffffff168152602001908152602001600020819055508473ffffffffffffffffffffffffffffffffffffffff168673ffffffffffffffffffffffffffffffffffffffff167f4b78edbe1cbf239c91e7f1ad3f75626752bfcc6d30abc9077dc08d328577029c866040518082815260200191505060405180910390a3505050505050565b6000606560009054906101000a900473ffffffffffffffffffffffffffffffffffffffff1673ffffffffffffffffffffffffffffffffffffffff168273ffffffffffffffffffffffffffffffffffffffff16149050919050565b61233c614110565b73ffffffffffffffffffffffffffffffffffffffff1661235a612e62565b73ffffffffffffffffffffffffffffffffffffffff16146123e3576040517f08c379a00000000000000000000000000000000000000000000000000000000081526004018080602001828103825260208152602001807f4f776e61626c653a2063616c6c6572206973206e6f7420746865206f776e657281525060200191505060405180910390fd5b6000828260405160200180838380828437808301925050509250505060405160208183030381529060405280519060200120905060405160200180807f746f6b656e696e666f00000000000000000000000000000000000000000000008152506009019050604051602081830303815290604052805190602001208114156124a75783606660006101000a81548173ffffffffffffffffffffffffffffffffffffffff021916908373ffffffffffffffffffffffffffffffffffffffff1602179055505b8373ffffffffffffffffffffffffffffffffffffffff167fd28287e4c8d4f4d61f75c41e3e0732ca8d95f32ccddc45658621a7ae71f8ce95848460405180806020018281038252848482818152602001925080828437600081840152601f19601f820116905080830192505050935050505060405180910390a250505050565b60606000806000806000806000606860008b73ffffffffffffffffffffffffffffffffffffffff1673ffffffffffffffffffffffffffffffffffffffff1681526020019081526020016000208054600181600116156101000203166002900480601f0160208091040260200160405190810160405280929190818152602001828054600181600116156101000203166002900480156126075780601f106125dc57610100808354040283529160200191612607565b820191906000526020600020905b8154815290600101906020018083116125ea57829003601f168201915b505050505097506126776001606760008d73ffffffffffffffffffffffffffffffffffffffff1673ffffffffffffffffffffffffffffffffffffffff16815260200190815260200160002060009054906101000a900463ffffffff1663ffffffff16614ebf90919063ffffffff16565b96506126e26010606760008d73ffffffffffffffffffffffffffffffffffffffff1673ffffffffffffffffffffffffffffffffffffffff16815260200190815260200160002060009054906101000a900463ffffffff1663ffffffff16614ebf90919063ffffffff16565b9550606a60008b73ffffffffffffffffffffffffffffffffffffffff1673ffffffffffffffffffffffffffffffffffffffff16815260200190815260200160002060008a73ffffffffffffffffffffffffffffffffffffffff1673ffffffffffffffffffffffffffffffffffffffff16815260200190815260200160002060009054906101000a900460ff169450607060008a73ffffffffffffffffffffffffffffffffffffffff1673ffffffffffffffffffffffffffffffffffffffff168152602001908152602001600020549350606b60008b73ffffffffffffffffffffffffffffffffffffffff1673ffffffffffffffffffffffffffffffffffffffff16815260200190815260200160002060008a73ffffffffffffffffffffffffffffffffffffffff1673ffffffffffffffffffffffffffffffffffffffff168152602001908152602001600020549250606c60008b73ffffffffffffffffffffffffffffffffffffffff1673ffffffffffffffffffffffffffffffffffffffff16815260200190815260200160002060008a73ffffffffffffffffffffffffffffffffffffffff1673ffffffffffffffffffffffffffffffffffffffff168152602001908152602001600020549150607260008a73ffffffffffffffffffffffffffffffffffffffff1673ffffffffffffffffffffffffffffffffffffffff16815260200190815260200160002060009054906101000a900460ff1690509295985092959890939650565b6000806129786004606760008673ffffffffffffffffffffffffffffffffffffffff1673ffffffffffffffffffffffffffffffffffffffff16815260200190815260200160002060009054906101000a900463ffffffff1663ffffffff16614ebf90919063ffffffff16565b91506129e36008606760008673ffffffffffffffffffffffffffffffffffffffff1673ffffffffffffffffffffffffffffffffffffffff16815260200190815260200160002060009054906101000a900463ffffffff1663ffffffff16614ebf90919063ffffffff16565b9050915091565b6129f2614110565b73ffffffffffffffffffffffffffffffffffffffff16612a10612e62565b73ffffffffffffffffffffffffffffffffffffffff1614612a99576040517f08c379a00000000000000000000000000000000000000000000000000000000081526004018080602001828103825260208152602001807f4f776e61626c653a2063616c6c6572206973206e6f7420746865206f776e657281525060200191505060405180910390fd5b600073ffffffffffffffffffffffffffffffffffffffff16603360009054906101000a900473ffffffffffffffffffffffffffffffffffffffff1673ffffffffffffffffffffffffffffffffffffffff167f8be0079c531659141344cd1fd0a4f28419497f9722a3daafe3b4186f6b6457e060405160405180910390a36000603360006101000a81548173ffffffffffffffffffffffffffffffffffffffff021916908373ffffffffffffffffffffffffffffffffffffffff160217905550565b606660009054906101000a900473ffffffffffffffffffffffffffffffffffffffff1673ffffffffffffffffffffffffffffffffffffffff1663933bd2468484612ba2614110565b6040518463ffffffff1660e01b8152600401808473ffffffffffffffffffffffffffffffffffffffff1681526020018381526020018273ffffffffffffffffffffffffffffffffffffffff1681526020019350505050602060405180830381600087803b158015612c1257600080fd5b505af1158015612c26573d6000803e3d6000fd5b505050506040513d6020811015612c3c57600080fd5b8101908080519060200190929190505050612cbf576040517f08c379a00000000000000000000000000000000000000000000000000000000081526004018080602001828103825260088152602001807f43503a452d31303400000000000000000000000000000000000000000000000081525060200191505060405180910390fd5b612cca838383614edf565b505050565b606560009054906101000a900473ffffffffffffffffffffffffffffffffffffffff1681565b600080612d21838573ffffffffffffffffffffffffffffffffffffffff16614fbf90919063ffffffff16565b9050606f600082815260200190815260200160002060009054906101000a900473ffffffffffffffffffffffffffffffffffffffff1691505092915050565b612d68614110565b73ffffffffffffffffffffffffffffffffffffffff16612d86612e62565b73ffffffffffffffffffffffffffffffffffffffff1614612e0f576040517f08c379a00000000000000000000000000000000000000000000000000000000081526004018080602001828103825260208152602001807f4f776e61626c653a2063616c6c6572206973206e6f7420746865206f776e657281525060200191505060405180910390fd5b612e1b858585856144ec565b600073ffffffffffffffffffffffffffffffffffffffff168173ffffffffffffffffffffffffffffffffffffffff1614612e5b57612e5a858583614edf565b5b5050505050565b6000603360009054906101000a900473ffffffffffffffffffffffffffffffffffffffff16905090565b6060600080606960008673ffffffffffffffffffffffffffffffffffffffff1673ffffffffffffffffffffffffffffffffffffffff1681526020019081526020016000208054600181600116156101000203166002900480601f016020809104026020016040519081016040528092919081815260200182805460018160011615610100020316600290048015612f645780601f10612f3957610100808354040283529160200191612f64565b820191906000526020600020905b815481529060010190602001808311612f4757829003601f168201915b50505050509250612fd46002606760008873ffffffffffffffffffffffffffffffffffffffff1673ffffffffffffffffffffffffffffffffffffffff16815260200190815260200160002060009054906101000a900463ffffffff1663ffffffff16614ebf90919063ffffffff16565b9150606d60008673ffffffffffffffffffffffffffffffffffffffff1673ffffffffffffffffffffffffffffffffffffffff16815260200190815260200160002060008573ffffffffffffffffffffffffffffffffffffffff1673ffffffffffffffffffffffffffffffffffffffff1681526020019081526020016000205490509250925092565b613064614110565b73ffffffffffffffffffffffffffffffffffffffff16613082612e62565b73ffffffffffffffffffffffffffffffffffffffff161461310b576040517f08c379a00000000000000000000000000000000000000000000000000000000081526004018080602001828103825260208152602001807f4f776e61626c653a2063616c6c6572206973206e6f7420746865206f776e657281525060200191505060405180910390fd5b61311784848484615014565b50505050565b8161313d8173ffffffffffffffffffffffffffffffffffffffff16614802565b6131af576040517f08c379a00000000000000000000000000000000000000000000000000000000081526004018080602001828103825260088152602001807f43503a452d34323000000000000000000000000000000000000000000000000081525060200191505060405180910390fd5b82336131b9612e62565b73ffffffffffffffffffffffffffffffffffffffff168173ffffffffffffffffffffffffffffffffffffffff1614806132175750613216818373ffffffffffffffffffffffffffffffffffffffff1661484d90919063ffffffff16565b5b613289576040517f08c379a00000000000000000000000000000000000000000000000000000000081526004018080602001828103825260088152602001807f43503a452d31303300000000000000000000000000000000000000000000000081525060200191505060405180910390fd5b831561335a576132f86010606760008873ffffffffffffffffffffffffffffffffffffffff1673ffffffffffffffffffffffffffffffffffffffff16815260200190815260200160002060009054906101000a900463ffffffff1663ffffffff1661529690919063ffffffff16565b606760008773ffffffffffffffffffffffffffffffffffffffff1673ffffffffffffffffffffffffffffffffffffffff16815260200190815260200160002060006101000a81548163ffffffff021916908363ffffffff160217905550613421565b6133c36010606760008873ffffffffffffffffffffffffffffffffffffffff1673ffffffffffffffffffffffffffffffffffffffff16815260200190815260200160002060009054906101000a900463ffffffff1663ffffffff166152ad90919063ffffffff16565b606760008773ffffffffffffffffffffffffffffffffffffffff1673ffffffffffffffffffffffffffffffffffffffff16815260200190815260200160002060006101000a81548163ffffffff021916908363ffffffff1602179055505b8473ffffffffffffffffffffffffffffffffffffffff167f44f75c092e5ae1935f7968601737fcaaf6773731d301be89f180d742afc343c68560405180821515815260200191505060405180910390a25050505050565b60008060006134a6848673ffffffffffffffffffffffffffffffffffffffff16614fbf90919063ffffffff16565b9050606660009054906101000a900473ffffffffffffffffffffffffffffffffffffffff1673ffffffffffffffffffffffffffffffffffffffff1663d220d30a86866040518363ffffffff1660e01b8152600401808373ffffffffffffffffffffffffffffffffffffffff16815260200182815260200192505050602060405180830381600087803b15801561353b57600080fd5b505af115801561354f573d6000803e3d6000fd5b505050506040513d602081101561356557600080fd5b81019080805190602001909291905050509250606e6000828152602001908152602001600020549150509250929050565b600060019054906101000a900460ff16806135b557506135b46152d1565b5b806135cb575060008054906101000a900460ff16155b613620576040517f08c379a000000000000000000000000000000000000000000000000000000000815260040180806020018281038252602e815260200180615fa1602e913960400191505060405180910390fd5b60008060019054906101000a900460ff161590508015613670576001600060016101000a81548160ff02191690831515021790555060016000806101000a81548160ff0219169083151502179055505b6136786152e2565b8173ffffffffffffffffffffffffffffffffffffffff167f908408e307fc569b417f6cbec5d5a06f44a0a505ac0479b47d421a4b2fd6a1e660405160405180910390a280156136dc5760008060016101000a81548160ff0219169083151502179055505b5050565b6000607154905090565b6136f2614110565b73ffffffffffffffffffffffffffffffffffffffff16613710612e62565b73ffffffffffffffffffffffffffffffffffffffff1614613799576040517f08c379a00000000000000000000000000000000000000000000000000000000081526004018080602001828103825260208152602001807f4f776e61626c653a2063616c6c6572206973206e6f7420746865206f776e657281525060200191505060405180910390fd5b80606560006101000a81548173ffffffffffffffffffffffffffffffffffffffff021916908373ffffffffffffffffffffffffffffffffffffffff16021790555050565b836137fd8173ffffffffffffffffffffffffffffffffffffffff16614802565b61386f576040517f08c379a00000000000000000000000000000000000000000000000000000000081526004018080602001828103825260088152602001807f43503a452d34323000000000000000000000000000000000000000000000000081525060200191505060405180910390fd5b8433613879612e62565b73ffffffffffffffffffffffffffffffffffffffff168173ffffffffffffffffffffffffffffffffffffffff1614806138d757506138d6818373ffffffffffffffffffffffffffffffffffffffff1661484d90919063ffffffff16565b5b613949576040517f08c379a00000000000000000000000000000000000000000000000000000000081526004018080602001828103825260088152602001807f43503a452d31303300000000000000000000000000000000000000000000000081525060200191505060405180910390fd5b84606b60008973ffffffffffffffffffffffffffffffffffffffff1673ffffffffffffffffffffffffffffffffffffffff16815260200190815260200160002060008873ffffffffffffffffffffffffffffffffffffffff1673ffffffffffffffffffffffffffffffffffffffff1681526020019081526020016000208190555083606c60008973ffffffffffffffffffffffffffffffffffffffff1673ffffffffffffffffffffffffffffffffffffffff16815260200190815260200160002060008873ffffffffffffffffffffffffffffffffffffffff1673ffffffffffffffffffffffffffffffffffffffff168152602001908152602001600020819055508673ffffffffffffffffffffffffffffffffffffffff167f475309750c044c79112c130d7fa0ad604801463eafa8c2145460063e84f6d1b0878787604051808473ffffffffffffffffffffffffffffffffffffffff168152602001838152602001828152602001935050505060405180910390a250505050505050565b613ad0614110565b73ffffffffffffffffffffffffffffffffffffffff16613aee612e62565b73ffffffffffffffffffffffffffffffffffffffff1614613b77576040517f08c379a00000000000000000000000000000000000000000000000000000000081526004018080602001828103825260208152602001807f4f776e61626c653a2063616c6c6572206973206e6f7420746865206f776e657281525060200191505060405180910390fd5b80607260008473ffffffffffffffffffffffffffffffffffffffff1673ffffffffffffffffffffffffffffffffffffffff16815260200190815260200160002060006101000a81548160ff0219169083151502179055508173ffffffffffffffffffffffffffffffffffffffff167ffe1c76605f62e6298595e804d9329751e452f768280dc3894328e5afd5862a868260405180821515815260200191505060405180910390a25050565b613c2a614110565b73ffffffffffffffffffffffffffffffffffffffff16613c48612e62565b73ffffffffffffffffffffffffffffffffffffffff1614613cd1576040517f08c379a00000000000000000000000000000000000000000000000000000000081526004018080602001828103825260208152602001807f4f776e61626c653a2063616c6c6572206973206e6f7420746865206f776e657281525060200191505060405180910390fd5b613cdb82826153f0565b5050565b613ce7614110565b73ffffffffffffffffffffffffffffffffffffffff16613d05612e62565b73ffffffffffffffffffffffffffffffffffffffff1614613d8e576040517f08c379a00000000000000000000000000000000000000000000000000000000081526004018080602001828103825260208152602001807f4f776e61626c653a2063616c6c6572206973206e6f7420746865206f776e657281525060200191505060405180910390fd5b806071819055507fcc0abfe1dcb92824407c45c8bca5a491f18eab5d435afb057360d39887f7d566816040518082815260200191505060405180910390a150565b613dd7614110565b73ffffffffffffffffffffffffffffffffffffffff16613df5612e62565b73ffffffffffffffffffffffffffffffffffffffff1614613e7e576040517f08c379a00000000000000000000000000000000000000000000000000000000081526004018080602001828103825260208152602001807f4f776e61626c653a2063616c6c6572206973206e6f7420746865206f776e657281525060200191505060405180910390fd5b600073ffffffffffffffffffffffffffffffffffffffff168173ffffffffffffffffffffffffffffffffffffffff161415613f04576040517f08c379a0000000000000000000000000000000000000000000000000000000008152600401808060200182810382526026815260200180615f416026913960400191505060405180910390fd5b8073ffffffffffffffffffffffffffffffffffffffff16603360009054906101000a900473ffffffffffffffffffffffffffffffffffffffff1673ffffffffffffffffffffffffffffffffffffffff167f8be0079c531659141344cd1fd0a4f28419497f9722a3daafe3b4186f6b6457e060405160405180910390a380603360006101000a81548173ffffffffffffffffffffffffffffffffffffffff021916908373ffffffffffffffffffffffffffffffffffffffff16021790555050565b613fcc614110565b73ffffffffffffffffffffffffffffffffffffffff16613fea612e62565b73ffffffffffffffffffffffffffffffffffffffff1614614073576040517f08c379a00000000000000000000000000000000000000000000000000000000081526004018080602001828103825260208152602001807f4f776e61626c653a2063616c6c6572206973206e6f7420746865206f776e657281525060200191505060405180910390fd5b80607060008473ffffffffffffffffffffffffffffffffffffffff1673ffffffffffffffffffffffffffffffffffffffff168152602001908152602001600020819055507f5346dfddf35b6b3adb49f21161904a305a764ba435dfad799dfef4be256071408282604051808373ffffffffffffffffffffffffffffffffffffffff1681526020018281526020019250505060405180910390a15050565b600061411a6155dc565b905090565b80156141f05761418e6001606760008573ffffffffffffffffffffffffffffffffffffffff1673ffffffffffffffffffffffffffffffffffffffff16815260200190815260200160002060009054906101000a900463ffffffff1663ffffffff1661529690919063ffffffff16565b606760008473ffffffffffffffffffffffffffffffffffffffff1673ffffffffffffffffffffffffffffffffffffffff16815260200190815260200160002060006101000a81548163ffffffff021916908363ffffffff1602179055506142b7565b6142596001606760008573ffffffffffffffffffffffffffffffffffffffff1673ffffffffffffffffffffffffffffffffffffffff16815260200190815260200160002060009054906101000a900463ffffffff1663ffffffff166152ad90919063ffffffff16565b606760008473ffffffffffffffffffffffffffffffffffffffff1673ffffffffffffffffffffffffffffffffffffffff16815260200190815260200160002060006101000a81548163ffffffff021916908363ffffffff1602179055505b8173ffffffffffffffffffffffffffffffffffffffff167f9edbf34f19f27ae2f4f891336dcf0fc393961b70d0699b7698a75eadfa7171198260405180821515815260200191505060405180910390a25050565b600073ffffffffffffffffffffffffffffffffffffffff168373ffffffffffffffffffffffffffffffffffffffff1614156143ae576040517f08c379a00000000000000000000000000000000000000000000000000000000081526004018080602001828103825260098152602001807f4248503a452d343033000000000000000000000000000000000000000000000081525060200191505060405180910390fd5b808273ffffffffffffffffffffffffffffffffffffffff166370a08231306040518263ffffffff1660e01b8152600401808273ffffffffffffffffffffffffffffffffffffffff16815260200191505060206040518083038186803b15801561441657600080fd5b505afa15801561442a573d6000803e3d6000fd5b505050506040513d602081101561444057600080fd5b8101908080519060200190929190505050106144e75761448183828473ffffffffffffffffffffffffffffffffffffffff166156189092919063ffffffff16565b8173ffffffffffffffffffffffffffffffffffffffff168373ffffffffffffffffffffffffffffffffffffffff167f6c9d637297625e945b296ff73a71fcfbd0a9e062652b6491a921c4c60194176b836040518082815260200191505060405180910390a35b505050565b612710811115614564576040517f08c379a00000000000000000000000000000000000000000000000000000000081526004018080602001828103825260088152602001807f43503a452d34323100000000000000000000000000000000000000000000000081525060200191505060405180910390fd5b600061458f848673ffffffffffffffffffffffffffffffffffffffff16614fbf90919063ffffffff16565b905081606e6000838152602001908152602001600020819055508273ffffffffffffffffffffffffffffffffffffffff16848673ffffffffffffffffffffffffffffffffffffffff167f1e4d934208ef860fdc8a276237551c8e9e99fb6a2b2767aa0d67cc2aef675a8f856040518082815260200191505060405180910390a45050505050565b80156146e7576146856008606760008573ffffffffffffffffffffffffffffffffffffffff1673ffffffffffffffffffffffffffffffffffffffff16815260200190815260200160002060009054906101000a900463ffffffff1663ffffffff1661529690919063ffffffff16565b606760008473ffffffffffffffffffffffffffffffffffffffff1673ffffffffffffffffffffffffffffffffffffffff16815260200190815260200160002060006101000a81548163ffffffff021916908363ffffffff1602179055506147ae565b6147506008606760008573ffffffffffffffffffffffffffffffffffffffff1673ffffffffffffffffffffffffffffffffffffffff16815260200190815260200160002060009054906101000a900463ffffffff1663ffffffff166152ad90919063ffffffff16565b606760008473ffffffffffffffffffffffffffffffffffffffff1673ffffffffffffffffffffffffffffffffffffffff16815260200190815260200160002060006101000a81548163ffffffff021916908363ffffffff1602179055505b8173ffffffffffffffffffffffffffffffffffffffff167fc821f11e884f33cce41b9695890d84b5592421ab7e473144e8e896d20a6f25188260405180821515815260200191505060405180910390a25050565b60008060007fc5d2460186f7233c927e7db2dcc703c0e500b653ca82273b7bfad8045d85a47060001b9050833f915080821415801561484457506000801b8214155b92505050919050565b6000808373ffffffffffffffffffffffffffffffffffffffff16638da5cb5b6040518163ffffffff1660e01b815260040160206040518083038186803b15801561489657600080fd5b505afa1580156148aa573d6000803e3d6000fd5b505050506040513d60208110156148c057600080fd5b81019080805190602001909291905050509050600073ffffffffffffffffffffffffffffffffffffffff168173ffffffffffffffffffffffffffffffffffffffff161415801561493b57508273ffffffffffffffffffffffffffffffffffffffff168173ffffffffffffffffffffffffffffffffffffffff16145b91505092915050565b8015614a15576149b36002606760008573ffffffffffffffffffffffffffffffffffffffff1673ffffffffffffffffffffffffffffffffffffffff16815260200190815260200160002060009054906101000a900463ffffffff1663ffffffff1661529690919063ffffffff16565b606760008473ffffffffffffffffffffffffffffffffffffffff1673ffffffffffffffffffffffffffffffffffffffff16815260200190815260200160002060006101000a81548163ffffffff021916908363ffffffff160217905550614adc565b614a7e6002606760008573ffffffffffffffffffffffffffffffffffffffff1673ffffffffffffffffffffffffffffffffffffffff16815260200190815260200160002060009054906101000a900463ffffffff1663ffffffff166152ad90919063ffffffff16565b606760008473ffffffffffffffffffffffffffffffffffffffff1673ffffffffffffffffffffffffffffffffffffffff16815260200190815260200160002060006101000a81548163ffffffff021916908363ffffffff1602179055505b8173ffffffffffffffffffffffffffffffffffffffff167fb5a88ab1e0f82944f12e8890d045bd1edf9f74f51798a10d7bc2fad6022fd07b8260405180821515815260200191505060405180910390a25050565b600073ffffffffffffffffffffffffffffffffffffffff168373ffffffffffffffffffffffffffffffffffffffff161415614bd3576040517f08c379a00000000000000000000000000000000000000000000000000000000081526004018080602001828103825260098152602001807f4248503a452d343033000000000000000000000000000000000000000000000081525060200191505060405180910390fd5b3073ffffffffffffffffffffffffffffffffffffffff168273ffffffffffffffffffffffffffffffffffffffff16636352211e836040518263ffffffff1660e01b81526004018082815260200191505060206040518083038186803b158015614c3b57600080fd5b505afa158015614c4f573d6000803e3d6000fd5b505050506040513d6020811015614c6557600080fd5b810190808051906020019092919050505073ffffffffffffffffffffffffffffffffffffffff161415614d95578173ffffffffffffffffffffffffffffffffffffffff166323b872dd3085846040518463ffffffff1660e01b8152600401808473ffffffffffffffffffffffffffffffffffffffff1681526020018373ffffffffffffffffffffffffffffffffffffffff1681526020018281526020019350505050600060405180830381600087803b158015614d2157600080fd5b505af1158015614d35573d6000803e3d6000fd5b50505050808273ffffffffffffffffffffffffffffffffffffffff168473ffffffffffffffffffffffffffffffffffffffff167ffefe036cac4ee3a4aca074a81cbcc4376e1484693289078dbec149c890101d5b60405160405180910390a45b505050565b600073ffffffffffffffffffffffffffffffffffffffff168273ffffffffffffffffffffffffffffffffffffffff161415614e3d576040517f08c379a00000000000000000000000000000000000000000000000000000000081526004018080602001828103825260098152602001807f4248503a452d343033000000000000000000000000000000000000000000000081525060200191505060405180910390fd5b804710614ebb57614e6d818373ffffffffffffffffffffffffffffffffffffffff166156ba90919063ffffffff16565b8173ffffffffffffffffffffffffffffffffffffffff167eddb683bb45cd5d0ad8a200c6fae7152b1c236ee90a4a37db692407f5cc38bd826040518082815260200191505060405180910390a25b5050565b600080614ecd6001846157f4565b841663ffffffff161415905092915050565b6000614f0a838573ffffffffffffffffffffffffffffffffffffffff16614fbf90919063ffffffff16565b905081606f600083815260200190815260200160002060006101000a81548173ffffffffffffffffffffffffffffffffffffffff021916908373ffffffffffffffffffffffffffffffffffffffff1602179055508173ffffffffffffffffffffffffffffffffffffffff16838573ffffffffffffffffffffffffffffffffffffffff167f2299d7747b35c4e5433422bf0fb1dab252ea00efaa8a52c72fe97d47ad59fcc260405160405180910390a450505050565b60008282604051602001808373ffffffffffffffffffffffffffffffffffffffff1660601b8152601401828152602001925050506040516020818303038152906040528051906020012060001c905092915050565b600073ffffffffffffffffffffffffffffffffffffffff168473ffffffffffffffffffffffffffffffffffffffff1614156150b7576040517f08c379a00000000000000000000000000000000000000000000000000000000081526004018080602001828103825260098152602001807f4248503a452d343033000000000000000000000000000000000000000000000081525060200191505060405180910390fd5b808373ffffffffffffffffffffffffffffffffffffffff1662fdd58e30856040518363ffffffff1660e01b8152600401808373ffffffffffffffffffffffffffffffffffffffff1681526020018281526020019250505060206040518083038186803b15801561512657600080fd5b505afa15801561513a573d6000803e3d6000fd5b505050506040513d602081101561515057600080fd5b810190808051906020019092919050505010615290578273ffffffffffffffffffffffffffffffffffffffff1663f242432a308685856040518563ffffffff1660e01b8152600401808573ffffffffffffffffffffffffffffffffffffffff1681526020018473ffffffffffffffffffffffffffffffffffffffff1681526020018381526020018281526020018060200182810382526000815260200160200195505050505050600060405180830381600087803b15801561521157600080fd5b505af1158015615225573d6000803e3d6000fd5b50505050818373ffffffffffffffffffffffffffffffffffffffff168573ffffffffffffffffffffffffffffffffffffffff167f620337bf89eea2b9ae2657beead83b5fa620452817118348aff96e201d52598b846040518082815260200191505060405180910390a45b50505050565b60006152a36001836157f4565b8317905092915050565b6000806152c36152be6001856157f4565b615810565b905080841691505092915050565b60006152dc30615823565b15905090565b600060019054906101000a900460ff168061530157506153006152d1565b5b80615317575060008054906101000a900460ff16155b61536c576040517f08c379a000000000000000000000000000000000000000000000000000000000815260040180806020018281038252602e815260200180615fa1602e913960400191505060405180910390fd5b60008060019054906101000a900460ff1615905080156153bc576001600060016101000a81548160ff02191690831515021790555060016000806101000a81548160ff0219169083151502179055505b6153c4615836565b6153cc615934565b80156153ed5760008060016101000a81548160ff0219169083151502179055505b50565b80156154c15761545f6004606760008573ffffffffffffffffffffffffffffffffffffffff1673ffffffffffffffffffffffffffffffffffffffff16815260200190815260200160002060009054906101000a900463ffffffff1663ffffffff1661529690919063ffffffff16565b606760008473ffffffffffffffffffffffffffffffffffffffff1673ffffffffffffffffffffffffffffffffffffffff16815260200190815260200160002060006101000a81548163ffffffff021916908363ffffffff160217905550615588565b61552a6004606760008573ffffffffffffffffffffffffffffffffffffffff1673ffffffffffffffffffffffffffffffffffffffff16815260200190815260200160002060009054906101000a900463ffffffff1663ffffffff166152ad90919063ffffffff16565b606760008473ffffffffffffffffffffffffffffffffffffffff1673ffffffffffffffffffffffffffffffffffffffff16815260200190815260200160002060006101000a81548163ffffffff021916908363ffffffff1602179055505b8173ffffffffffffffffffffffffffffffffffffffff167f837a06693ddf982670652b42b0f6ab865e320e35e218201c1171807865c5e5c68260405180821515815260200191505060405180910390a25050565b600060186000369050101580156155f857506155f7336122da565b5b1561560c57601436033560601c9050615614565b339050615615565b5b90565b6156b58363a9059cbb60e01b8484604051602401808373ffffffffffffffffffffffffffffffffffffffff16815260200182815260200192505050604051602081830303815290604052907bffffffffffffffffffffffffffffffffffffffffffffffffffffffff19166020820180517bffffffffffffffffffffffffffffffffffffffffffffffffffffffff8381831617835250505050615adb565b505050565b80471015615730576040517f08c379a000000000000000000000000000000000000000000000000000000000815260040180806020018281038252601d8152602001807f416464726573733a20696e73756666696369656e742062616c616e636500000081525060200191505060405180910390fd5b60008273ffffffffffffffffffffffffffffffffffffffff168260405180600001905060006040518083038185875af1925050503d8060008114615790576040519150601f19603f3d011682016040523d82523d6000602084013e615795565b606091505b50509050806157ef576040517f08c379a000000000000000000000000000000000000000000000000000000000815260040180806020018281038252603a815260200180615f67603a913960400191505060405180910390fd5b505050565b60008163ffffffff16600263ffffffff160a8302905092915050565b600061581a615bca565b82189050919050565b600080823b905060008111915050919050565b600060019054906101000a900460ff168061585557506158546152d1565b5b8061586b575060008054906101000a900460ff16155b6158c0576040517f08c379a000000000000000000000000000000000000000000000000000000000815260040180806020018281038252602e815260200180615fa1602e913960400191505060405180910390fd5b60008060019054906101000a900460ff161590508015615910576001600060016101000a81548160ff02191690831515021790555060016000806101000a81548160ff0219169083151502179055505b80156159315760008060016101000a81548160ff0219169083151502179055505b50565b600060019054906101000a900460ff168061595357506159526152d1565b5b80615969575060008054906101000a900460ff16155b6159be576040517f08c379a000000000000000000000000000000000000000000000000000000000815260040180806020018281038252602e815260200180615fa1602e913960400191505060405180910390fd5b60008060019054906101000a900460ff161590508015615a0e576001600060016101000a81548160ff02191690831515021790555060016000806101000a81548160ff0219169083151502179055505b6000615a18614110565b905080603360006101000a81548173ffffffffffffffffffffffffffffffffffffffff021916908373ffffffffffffffffffffffffffffffffffffffff1602179055508073ffffffffffffffffffffffffffffffffffffffff16600073ffffffffffffffffffffffffffffffffffffffff167f8be0079c531659141344cd1fd0a4f28419497f9722a3daafe3b4186f6b6457e060405160405180910390a3508015615ad85760008060016101000a81548160ff0219169083151502179055505b50565b6060615b3d826040518060400160405280602081526020017f5361666545524332303a206c6f772d6c6576656c2063616c6c206661696c65648152508573ffffffffffffffffffffffffffffffffffffffff16615bf29092919063ffffffff16565b9050600081511115615bc557808060200190516020811015615b5e57600080fd5b8101908080519060200190929190505050615bc4576040517f08c379a000000000000000000000000000000000000000000000000000000000815260040180806020018281038252602a815260200180615ffd602a913960400191505060405180910390fd5b5b505050565b60007fffffffffffffffffffffffffffffffffffffffffffffffffffffffffffffffff905090565b6060615c018484600085615c0a565b90509392505050565b6060615c1585615e10565b615c87576040517f08c379a000000000000000000000000000000000000000000000000000000000815260040180806020018281038252601d8152602001807f416464726573733a2063616c6c20746f206e6f6e2d636f6e747261637400000081525060200191505060405180910390fd5b600060608673ffffffffffffffffffffffffffffffffffffffff1685876040518082805190602001908083835b60208310615cd75780518252602082019150602081019050602083039250615cb4565b6001836020036101000a03801982511681845116808217855250505050505090500191505060006040518083038185875af1925050503d8060008114615d39576040519150601f19603f3d011682016040523d82523d6000602084013e615d3e565b606091505b50915091508115615d53578092505050615e08565b600081511115615d665780518082602001fd5b836040517f08c379a00000000000000000000000000000000000000000000000000000000081526004018080602001828103825283818151815260200191508051906020019080838360005b83811015615dcd578082015181840152602081019050615db2565b50505050905090810190601f168015615dfa5780820380516001836020036101000a031916815260200191505b509250505060405180910390fd5b949350505050565b600080823b905060008111915050919050565b828054600181600116156101000203166002900490600052602060002090601f016020900481019282601f10615e6457805160ff1916838001178555615e92565b82800160010185558215615e92579182015b82811115615e91578251825591602001919060010190615e76565b5b509050615e9f9190615f23565b5090565b828054600181600116156101000203166002900490600052602060002090601f016020900481019282601f10615ee457803560ff1916838001178555615f12565b82800160010185558215615f12579182015b82811115615f11578235825591602001919060010190615ef6565b5b509050615f1f9190615f23565b5090565b5b80821115615f3c576000816000905550600101615f24565b509056fe4f776e61626c653a206e6577206f776e657220697320746865207a65726f2061646472657373416464726573733a20756e61626c6520746f2073656e642076616c75652c20726563697069656e74206d61792068617665207265766572746564496e697469616c697a61626c653a20636f6e747261637420697320616c726561647920696e697469616c697a6564312e302e302d626574612e312f636861726765642d7061727469636c65732e72656c61792e726563697069656e745361666545524332303a204552433230206f7065726174696f6e20646964206e6f742073756363656564a2646970667358221220bf24ab510700536aa966ef81e3de5e0334a5bcfe1d5fad2435d7e69d606a972e64736f6c634300060c0033",
  "linkReferences": {},
  "deployedLinkReferences": {}
}