{
  "_format": "hh-sol-artifact-1",
  "contractName": "ChargedParticles",
  "sourceName": "contracts/v1/ChargedParticles.sol",
  "abi": [
    {
      "anonymous": false,
      "inputs": [
        {
          "indexed": true,
          "internalType": "address",
          "name": "controllerAddress",
          "type": "address"
        },
        {
          "indexed": false,
          "internalType": "string",
          "name": "controllerId",
          "type": "string"
        }
      ],
      "name": "ControllerSet",
      "type": "event"
    },
    {
      "anonymous": false,
      "inputs": [
        {
          "indexed": false,
          "internalType": "uint256",
          "name": "depositFee",
          "type": "uint256"
        }
      ],
      "name": "DepositFeeSet",
      "type": "event"
    },
    {
      "anonymous": false,
      "inputs": [
        {
          "indexed": true,
          "internalType": "address",
          "name": "initiator",
          "type": "address"
        }
      ],
      "name": "Initialized",
      "type": "event"
    },
    {
      "anonymous": false,
      "inputs": [
        {
          "indexed": true,
          "internalType": "address",
          "name": "previousOwner",
          "type": "address"
        },
        {
          "indexed": true,
          "internalType": "address",
          "name": "newOwner",
          "type": "address"
        }
      ],
      "name": "OwnershipTransferred",
      "type": "event"
    },
    {
      "anonymous": false,
      "inputs": [
        {
          "indexed": true,
          "internalType": "address",
          "name": "assetToken",
          "type": "address"
        },
        {
          "indexed": false,
          "internalType": "uint256",
          "name": "depositAmount",
          "type": "uint256"
        },
        {
          "indexed": false,
          "internalType": "uint256",
          "name": "feesCollected",
          "type": "uint256"
        }
      ],
      "name": "ProtocolFeesCollected",
      "type": "event"
    },
    {
      "anonymous": false,
      "inputs": [
        {
          "indexed": true,
          "internalType": "address",
          "name": "receiver",
          "type": "address"
        },
        {
          "indexed": true,
          "internalType": "address",
          "name": "tokenAddress",
          "type": "address"
        },
        {
          "indexed": true,
          "internalType": "uint256",
          "name": "tokenId",
          "type": "uint256"
        },
        {
          "indexed": false,
          "internalType": "uint256",
          "name": "amount",
          "type": "uint256"
        }
      ],
      "name": "WithdrawStuckERC1155",
      "type": "event"
    },
    {
      "anonymous": false,
      "inputs": [
        {
          "indexed": true,
          "internalType": "address",
          "name": "receiver",
          "type": "address"
        },
        {
          "indexed": true,
          "internalType": "address",
          "name": "tokenAddress",
          "type": "address"
        },
        {
          "indexed": false,
          "internalType": "uint256",
          "name": "amount",
          "type": "uint256"
        }
      ],
      "name": "WithdrawStuckERC20",
      "type": "event"
    },
    {
      "anonymous": false,
      "inputs": [
        {
          "indexed": true,
          "internalType": "address",
          "name": "receiver",
          "type": "address"
        },
        {
          "indexed": true,
          "internalType": "address",
          "name": "tokenAddress",
          "type": "address"
        },
        {
          "indexed": true,
          "internalType": "uint256",
          "name": "tokenId",
          "type": "uint256"
        }
      ],
      "name": "WithdrawStuckERC721",
      "type": "event"
    },
    {
      "anonymous": false,
      "inputs": [
        {
          "indexed": true,
          "internalType": "address",
          "name": "receiver",
          "type": "address"
        },
        {
          "indexed": false,
          "internalType": "uint256",
          "name": "amount",
          "type": "uint256"
        }
      ],
      "name": "WithdrawStuckEther",
      "type": "event"
    },
    {
      "inputs": [
        {
          "internalType": "address",
          "name": "contractAddress",
          "type": "address"
        },
        {
          "internalType": "uint256",
          "name": "tokenId",
          "type": "uint256"
        },
        {
          "internalType": "string",
          "name": "walletManagerId",
          "type": "string"
        },
        {
          "internalType": "address",
          "name": "assetToken",
          "type": "address"
        }
      ],
      "name": "baseParticleMass",
      "outputs": [
        {
          "internalType": "uint256",
          "name": "",
          "type": "uint256"
        }
      ],
      "stateMutability": "nonpayable",
      "type": "function"
    },
    {
      "inputs": [
        {
          "internalType": "address",
          "name": "receiver",
          "type": "address"
        },
        {
          "internalType": "address",
          "name": "contractAddress",
          "type": "address"
        },
        {
          "internalType": "uint256",
          "name": "tokenId",
          "type": "uint256"
        },
        {
          "internalType": "string",
          "name": "basketManagerId",
          "type": "string"
        },
        {
          "internalType": "address",
          "name": "nftTokenAddress",
          "type": "address"
        },
        {
          "internalType": "uint256",
          "name": "nftTokenId",
          "type": "uint256"
        },
        {
          "internalType": "uint256",
          "name": "nftTokenAmount",
          "type": "uint256"
        }
      ],
      "name": "breakCovalentBond",
      "outputs": [
        {
          "internalType": "bool",
          "name": "success",
          "type": "bool"
        }
      ],
      "stateMutability": "nonpayable",
      "type": "function"
    },
    {
      "inputs": [
        {
          "internalType": "address",
          "name": "contractAddress",
          "type": "address"
        },
        {
          "internalType": "uint256",
          "name": "tokenId",
          "type": "uint256"
        },
        {
          "internalType": "string",
          "name": "basketManagerId",
          "type": "string"
        },
        {
          "internalType": "address",
          "name": "nftTokenAddress",
          "type": "address"
        },
        {
          "internalType": "uint256",
          "name": "nftTokenId",
          "type": "uint256"
        },
        {
          "internalType": "uint256",
          "name": "nftTokenAmount",
          "type": "uint256"
        }
      ],
      "name": "covalentBond",
      "outputs": [
        {
          "internalType": "bool",
          "name": "success",
          "type": "bool"
        }
      ],
      "stateMutability": "nonpayable",
      "type": "function"
    },
    {
      "inputs": [
        {
          "internalType": "address",
          "name": "contractAddress",
          "type": "address"
        },
        {
          "internalType": "uint256",
          "name": "tokenId",
          "type": "uint256"
        },
        {
          "internalType": "string",
          "name": "walletManagerId",
          "type": "string"
        },
        {
          "internalType": "address",
          "name": "assetToken",
          "type": "address"
        }
      ],
      "name": "currentParticleCharge",
      "outputs": [
        {
          "internalType": "uint256",
          "name": "",
          "type": "uint256"
        }
      ],
      "stateMutability": "nonpayable",
      "type": "function"
    },
    {
      "inputs": [
        {
          "internalType": "address",
          "name": "contractAddress",
          "type": "address"
        },
        {
          "internalType": "uint256",
          "name": "tokenId",
          "type": "uint256"
        },
        {
          "internalType": "string",
          "name": "basketManagerId",
          "type": "string"
        }
      ],
      "name": "currentParticleCovalentBonds",
      "outputs": [
        {
          "internalType": "uint256",
          "name": "",
          "type": "uint256"
        }
      ],
      "stateMutability": "view",
      "type": "function"
    },
    {
      "inputs": [
        {
          "internalType": "address",
          "name": "contractAddress",
          "type": "address"
        },
        {
          "internalType": "uint256",
          "name": "tokenId",
          "type": "uint256"
        },
        {
          "internalType": "string",
          "name": "walletManagerId",
          "type": "string"
        },
        {
          "internalType": "address",
          "name": "assetToken",
          "type": "address"
        }
      ],
      "name": "currentParticleKinetics",
      "outputs": [
        {
          "internalType": "uint256",
          "name": "",
          "type": "uint256"
        }
      ],
      "stateMutability": "nonpayable",
      "type": "function"
    },
    {
      "inputs": [
        {
          "internalType": "address",
          "name": "receiver",
          "type": "address"
        },
        {
          "internalType": "address",
          "name": "contractAddress",
          "type": "address"
        },
        {
          "internalType": "uint256",
          "name": "tokenId",
          "type": "uint256"
        },
        {
          "internalType": "string",
          "name": "walletManagerId",
          "type": "string"
        },
        {
          "internalType": "address",
          "name": "assetToken",
          "type": "address"
        }
      ],
      "name": "dischargeParticle",
      "outputs": [
        {
          "internalType": "uint256",
          "name": "creatorAmount",
          "type": "uint256"
        },
        {
          "internalType": "uint256",
          "name": "receiverAmount",
          "type": "uint256"
        }
      ],
      "stateMutability": "nonpayable",
      "type": "function"
    },
    {
      "inputs": [
        {
          "internalType": "address",
          "name": "receiver",
          "type": "address"
        },
        {
          "internalType": "address",
          "name": "contractAddress",
          "type": "address"
        },
        {
          "internalType": "uint256",
          "name": "tokenId",
          "type": "uint256"
        },
        {
          "internalType": "string",
          "name": "walletManagerId",
          "type": "string"
        },
        {
          "internalType": "address",
          "name": "assetToken",
          "type": "address"
        },
        {
          "internalType": "uint256",
          "name": "assetAmount",
          "type": "uint256"
        }
      ],
      "name": "dischargeParticleAmount",
      "outputs": [
        {
          "internalType": "uint256",
          "name": "creatorAmount",
          "type": "uint256"
        },
        {
          "internalType": "uint256",
          "name": "receiverAmount",
          "type": "uint256"
        }
      ],
      "stateMutability": "nonpayable",
      "type": "function"
    },
    {
      "inputs": [
        {
          "internalType": "address",
          "name": "receiver",
          "type": "address"
        },
        {
          "internalType": "address",
          "name": "contractAddress",
          "type": "address"
        },
        {
          "internalType": "uint256",
          "name": "tokenId",
          "type": "uint256"
        },
        {
          "internalType": "string",
          "name": "walletManagerId",
          "type": "string"
        },
        {
          "internalType": "address",
          "name": "assetToken",
          "type": "address"
        },
        {
          "internalType": "uint256",
          "name": "assetAmount",
          "type": "uint256"
        }
      ],
      "name": "dischargeParticleForCreator",
      "outputs": [
        {
          "internalType": "uint256",
          "name": "receiverAmount",
          "type": "uint256"
        }
      ],
      "stateMutability": "nonpayable",
      "type": "function"
    },
    {
      "inputs": [
        {
          "internalType": "address",
          "name": "contractAddress",
          "type": "address"
        },
        {
          "internalType": "uint256",
          "name": "tokenId",
          "type": "uint256"
        },
        {
          "internalType": "string",
          "name": "walletManagerId",
          "type": "string"
        },
        {
          "internalType": "address",
          "name": "assetToken",
          "type": "address"
        },
        {
          "internalType": "uint256",
          "name": "assetAmount",
          "type": "uint256"
        },
        {
          "internalType": "address",
          "name": "referrer",
          "type": "address"
        }
      ],
      "name": "energizeParticle",
      "outputs": [
        {
          "internalType": "uint256",
          "name": "yieldTokensAmount",
          "type": "uint256"
        }
      ],
      "stateMutability": "nonpayable",
      "type": "function"
    },
    {
      "inputs": [
        {
          "internalType": "uint256",
          "name": "assetAmount",
          "type": "uint256"
        }
      ],
      "name": "getFeesForDeposit",
      "outputs": [
        {
          "internalType": "uint256",
          "name": "protocolFee",
          "type": "uint256"
        }
      ],
      "stateMutability": "view",
      "type": "function"
    },
    {
      "inputs": [],
      "name": "getManagersAddress",
      "outputs": [
        {
          "internalType": "address",
          "name": "managersAddress",
          "type": "address"
        }
      ],
      "stateMutability": "view",
      "type": "function"
    },
    {
      "inputs": [],
      "name": "getSettingsAddress",
      "outputs": [
        {
          "internalType": "address",
          "name": "settingsAddress",
          "type": "address"
        }
      ],
      "stateMutability": "view",
      "type": "function"
    },
    {
      "inputs": [],
      "name": "getStateAddress",
      "outputs": [
        {
          "internalType": "address",
          "name": "stateAddress",
          "type": "address"
        }
      ],
      "stateMutability": "view",
      "type": "function"
    },
    {
      "inputs": [
        {
          "internalType": "address",
          "name": "initiator",
          "type": "address"
        }
      ],
      "name": "initialize",
      "outputs": [],
      "stateMutability": "nonpayable",
      "type": "function"
    },
    {
      "inputs": [
        {
          "internalType": "address",
          "name": "forwarder",
          "type": "address"
        }
      ],
      "name": "isTrustedForwarder",
      "outputs": [
        {
          "internalType": "bool",
          "name": "",
          "type": "bool"
        }
      ],
      "stateMutability": "view",
      "type": "function"
    },
    {
      "inputs": [
        {
          "internalType": "address",
          "name": "",
          "type": "address"
        },
        {
          "internalType": "address",
          "name": "",
          "type": "address"
        },
        {
          "internalType": "uint256[]",
          "name": "",
          "type": "uint256[]"
        },
        {
          "internalType": "uint256[]",
          "name": "",
          "type": "uint256[]"
        },
        {
          "internalType": "bytes",
          "name": "",
          "type": "bytes"
        }
      ],
      "name": "onERC1155BatchReceived",
      "outputs": [
        {
          "internalType": "bytes4",
          "name": "",
          "type": "bytes4"
        }
      ],
      "stateMutability": "nonpayable",
      "type": "function"
    },
    {
      "inputs": [
        {
          "internalType": "address",
          "name": "",
          "type": "address"
        },
        {
          "internalType": "address",
          "name": "",
          "type": "address"
        },
        {
          "internalType": "uint256",
          "name": "",
          "type": "uint256"
        },
        {
          "internalType": "uint256",
          "name": "",
          "type": "uint256"
        },
        {
          "internalType": "bytes",
          "name": "",
          "type": "bytes"
        }
      ],
      "name": "onERC1155Received",
      "outputs": [
        {
          "internalType": "bytes4",
          "name": "",
          "type": "bytes4"
        }
      ],
      "stateMutability": "nonpayable",
      "type": "function"
    },
    {
      "inputs": [
        {
          "internalType": "address",
          "name": "",
          "type": "address"
        },
        {
          "internalType": "address",
          "name": "",
          "type": "address"
        },
        {
          "internalType": "uint256",
          "name": "",
          "type": "uint256"
        },
        {
          "internalType": "bytes",
          "name": "",
          "type": "bytes"
        }
      ],
      "name": "onERC721Received",
      "outputs": [
        {
          "internalType": "bytes4",
          "name": "",
          "type": "bytes4"
        }
      ],
      "stateMutability": "nonpayable",
      "type": "function"
    },
    {
      "inputs": [],
      "name": "owner",
      "outputs": [
        {
          "internalType": "address",
          "name": "",
          "type": "address"
        }
      ],
      "stateMutability": "view",
      "type": "function"
    },
    {
      "inputs": [
        {
          "internalType": "address",
          "name": "receiver",
          "type": "address"
        },
        {
          "internalType": "address",
          "name": "contractAddress",
          "type": "address"
        },
        {
          "internalType": "uint256",
          "name": "tokenId",
          "type": "uint256"
        },
        {
          "internalType": "string",
          "name": "walletManagerId",
          "type": "string"
        },
        {
          "internalType": "address",
          "name": "assetToken",
          "type": "address"
        }
      ],
      "name": "releaseParticle",
      "outputs": [
        {
          "internalType": "uint256",
          "name": "creatorAmount",
          "type": "uint256"
        },
        {
          "internalType": "uint256",
          "name": "receiverAmount",
          "type": "uint256"
        }
      ],
      "stateMutability": "nonpayable",
      "type": "function"
    },
    {
      "inputs": [
        {
          "internalType": "address",
          "name": "receiver",
          "type": "address"
        },
        {
          "internalType": "address",
          "name": "contractAddress",
          "type": "address"
        },
        {
          "internalType": "uint256",
          "name": "tokenId",
          "type": "uint256"
        },
        {
          "internalType": "string",
          "name": "walletManagerId",
          "type": "string"
        },
        {
          "internalType": "address",
          "name": "assetToken",
          "type": "address"
        },
        {
          "internalType": "uint256",
          "name": "assetAmount",
          "type": "uint256"
        }
      ],
      "name": "releaseParticleAmount",
      "outputs": [
        {
          "internalType": "uint256",
          "name": "creatorAmount",
          "type": "uint256"
        },
        {
          "internalType": "uint256",
          "name": "receiverAmount",
          "type": "uint256"
        }
      ],
      "stateMutability": "nonpayable",
      "type": "function"
    },
    {
      "inputs": [],
      "name": "renounceOwnership",
      "outputs": [],
      "stateMutability": "nonpayable",
      "type": "function"
    },
    {
      "inputs": [
        {
          "internalType": "address",
          "name": "controller",
          "type": "address"
        },
        {
          "internalType": "string",
          "name": "controllerId",
          "type": "string"
        }
      ],
      "name": "setController",
      "outputs": [],
      "stateMutability": "nonpayable",
      "type": "function"
    },
    {
      "inputs": [
        {
          "internalType": "uint256",
          "name": "fee",
          "type": "uint256"
        }
      ],
      "name": "setDepositFee",
      "outputs": [],
      "stateMutability": "nonpayable",
      "type": "function"
    },
    {
      "inputs": [
        {
          "internalType": "bytes4",
          "name": "",
          "type": "bytes4"
        }
      ],
      "name": "supportsInterface",
      "outputs": [
        {
          "internalType": "bool",
          "name": "",
          "type": "bool"
        }
      ],
      "stateMutability": "view",
      "type": "function"
    },
    {
      "inputs": [
        {
          "internalType": "address",
          "name": "newOwner",
          "type": "address"
        }
      ],
      "name": "transferOwnership",
      "outputs": [],
      "stateMutability": "nonpayable",
      "type": "function"
    },
    {
      "inputs": [],
      "name": "trustedForwarder",
      "outputs": [
        {
          "internalType": "address",
          "name": "",
          "type": "address"
        }
      ],
      "stateMutability": "view",
      "type": "function"
    },
    {
      "inputs": [],
      "name": "versionRecipient",
      "outputs": [
        {
          "internalType": "string",
          "name": "",
          "type": "string"
        }
      ],
      "stateMutability": "view",
      "type": "function"
    },
    {
      "inputs": [
        {
          "internalType": "address payable",
          "name": "receiver",
          "type": "address"
        },
        {
          "internalType": "address",
          "name": "tokenAddress",
          "type": "address"
        },
        {
          "internalType": "uint256",
          "name": "tokenId",
          "type": "uint256"
        },
        {
          "internalType": "uint256",
          "name": "amount",
          "type": "uint256"
        }
      ],
      "name": "withdrawERC1155",
      "outputs": [],
      "stateMutability": "nonpayable",
      "type": "function"
    },
    {
      "inputs": [
        {
          "internalType": "address payable",
          "name": "receiver",
          "type": "address"
        },
        {
          "internalType": "address",
          "name": "tokenAddress",
          "type": "address"
        },
        {
          "internalType": "uint256",
          "name": "tokenId",
          "type": "uint256"
        }
      ],
      "name": "withdrawERC721",
      "outputs": [],
      "stateMutability": "nonpayable",
      "type": "function"
    },
    {
      "inputs": [
        {
          "internalType": "address payable",
          "name": "receiver",
          "type": "address"
        },
        {
          "internalType": "address",
          "name": "tokenAddress",
          "type": "address"
        },
        {
          "internalType": "uint256",
          "name": "amount",
          "type": "uint256"
        }
      ],
      "name": "withdrawErc20",
      "outputs": [],
      "stateMutability": "nonpayable",
      "type": "function"
    },
    {
      "inputs": [
        {
          "internalType": "address payable",
          "name": "receiver",
          "type": "address"
        },
        {
          "internalType": "uint256",
          "name": "amount",
          "type": "uint256"
        }
      ],
      "name": "withdrawEther",
      "outputs": [],
      "stateMutability": "nonpayable",
      "type": "function"
    }
  ],
  "bytecode": "0x60806040523480156200001157600080fd5b50618ae380620000226000396000f3fe608060405234801561001057600080fd5b50600436106101fb5760003560e01c80637da0a8771161011a578063bc197c81116100ad578063e6ea6ce71161007c578063e6ea6ce7146112e7578063ee895623146113be578063f23a6e6114611400578063f2fde38b14611500578063fe02fb0014611544576101fb565b8063bc197c8114611002578063c4d66de814611198578063ca92acd0146111dc578063d00999fe146112b3576101fb565b8063a0edb48b116100e9578063a0edb48b14610ccd578063a13eafd514610d45578063a8abef4714610dfc578063acab923c14610f04576101fb565b80637da0a87714610b5a5780638742f16814610b8e5780638da5cb5b14610bc257806399fa4c7314610bf6576101fb565b8063490ae21011610192578063621a3b7011610161578063621a3b701461084957806365d20ce2146109475780636697b35914610a48578063715018a614610b50576101fb565b8063490ae210146106da578063522f681514610708578063572b6c05146107565780635a797f01146107b0576101fb565b806331969e57116101ce57806331969e57146104c85780633ff956cc146104fc5780634025feb2146105e9578063486ff0cd14610657576101fb565b806301ffc9a7146102005780630bdde2ca14610263578063150b7a02146103645780631593dee11461045a575b600080fd5b61024b6004803603602081101561021657600080fd5b8101908080357bffffffffffffffffffffffffffffffffffffffffffffffffffffffff19169060200190929190505050611651565b60405180821515815260200191505060405180910390f35b61034e600480360360c081101561027957600080fd5b81019080803573ffffffffffffffffffffffffffffffffffffffff16906020019092919080359060200190929190803590602001906401000000008111156102c057600080fd5b8201836020820111156102d257600080fd5b803590602001918460018302840111640100000000831117156102f457600080fd5b9091929391929390803573ffffffffffffffffffffffffffffffffffffffff16906020019092919080359060200190929190803573ffffffffffffffffffffffffffffffffffffffff169060200190929190505050611658565b6040518082815260200191505060405180910390f35b6104256004803603608081101561037a57600080fd5b81019080803573ffffffffffffffffffffffffffffffffffffffff169060200190929190803573ffffffffffffffffffffffffffffffffffffffff16906020019092919080359060200190929190803590602001906401000000008111156103e157600080fd5b8201836020820111156103f357600080fd5b8035906020019184600183028401116401000000008311171561041557600080fd5b9091929391929390505050611a13565b60405180827bffffffffffffffffffffffffffffffffffffffffffffffffffffffff1916815260200191505060405180910390f35b6104c66004803603606081101561047057600080fd5b81019080803573ffffffffffffffffffffffffffffffffffffffff169060200190929190803573ffffffffffffffffffffffffffffffffffffffff16906020019092919080359060200190929190505050611a28565b005b6104d0611ae7565b604051808273ffffffffffffffffffffffffffffffffffffffff16815260200191505060405180910390f35b6105d1600480360360c081101561051257600080fd5b81019080803573ffffffffffffffffffffffffffffffffffffffff169060200190929190803590602001909291908035906020019064010000000081111561055957600080fd5b82018360208201111561056b57600080fd5b8035906020019184600183028401116401000000008311171561058d57600080fd5b9091929391929390803573ffffffffffffffffffffffffffffffffffffffff1690602001909291908035906020019092919080359060200190929190505050611b11565b60405180821515815260200191505060405180910390f35b610655600480360360608110156105ff57600080fd5b81019080803573ffffffffffffffffffffffffffffffffffffffff169060200190929190803573ffffffffffffffffffffffffffffffffffffffff16906020019092919080359060200190929190505050611e8e565b005b61065f611f4d565b6040518080602001828103825283818151815260200191508051906020019080838360005b8381101561069f578082015181840152602081019050610684565b50505050905090810190601f1680156106cc5780820380516001836020036101000a031916815260200191505b509250505060405180910390f35b610706600480360360208110156106f057600080fd5b8101908080359060200190929190505050611f6d565b005b6107546004803603604081101561071e57600080fd5b81019080803573ffffffffffffffffffffffffffffffffffffffff169060200190929190803590602001909291905050506120d4565b005b6107986004803603602081101561076c57600080fd5b81019080803573ffffffffffffffffffffffffffffffffffffffff169060200190929190505050612191565b60405180821515815260200191505060405180910390f35b610847600480360360408110156107c657600080fd5b81019080803573ffffffffffffffffffffffffffffffffffffffff1690602001909291908035906020019064010000000081111561080357600080fd5b82018360208201111561081557600080fd5b8035906020019184600183028401116401000000008311171561083757600080fd5b90919293919293905050506121eb565b005b61092a600480360360a081101561085f57600080fd5b81019080803573ffffffffffffffffffffffffffffffffffffffff169060200190929190803573ffffffffffffffffffffffffffffffffffffffff16906020019092919080359060200190929190803590602001906401000000008111156108c657600080fd5b8201836020820111156108d857600080fd5b803590602001918460018302840111640100000000831117156108fa57600080fd5b9091929391929390803573ffffffffffffffffffffffffffffffffffffffff16906020019092919050505061275c565b604051808381526020018281526020019250505060405180910390f35b610a32600480360360c081101561095d57600080fd5b81019080803573ffffffffffffffffffffffffffffffffffffffff169060200190929190803573ffffffffffffffffffffffffffffffffffffffff16906020019092919080359060200190929190803590602001906401000000008111156109c457600080fd5b8201836020820111156109d657600080fd5b803590602001918460018302840111640100000000831117156109f857600080fd5b9091929391929390803573ffffffffffffffffffffffffffffffffffffffff16906020019092919080359060200190929190505050612d72565b6040518082815260200191505060405180910390f35b610b33600480360360c0811015610a5e57600080fd5b81019080803573ffffffffffffffffffffffffffffffffffffffff169060200190929190803573ffffffffffffffffffffffffffffffffffffffff1690602001909291908035906020019092919080359060200190640100000000811115610ac557600080fd5b820183602082011115610ad757600080fd5b80359060200191846001830284011164010000000083111715610af957600080fd5b9091929391929390803573ffffffffffffffffffffffffffffffffffffffff1690602001909291908035906020019092919050505061343c565b604051808381526020018281526020019250505060405180910390f35b610b58613a5b565b005b610b62613bcb565b604051808273ffffffffffffffffffffffffffffffffffffffff16815260200191505060405180910390f35b610b96613bf1565b604051808273ffffffffffffffffffffffffffffffffffffffff16815260200191505060405180910390f35b610bca613c1b565b604051808273ffffffffffffffffffffffffffffffffffffffff16815260200191505060405180910390f35b610cb760048036036080811015610c0c57600080fd5b81019080803573ffffffffffffffffffffffffffffffffffffffff1690602001909291908035906020019092919080359060200190640100000000811115610c5357600080fd5b820183602082011115610c6557600080fd5b80359060200191846001830284011164010000000083111715610c8757600080fd5b9091929391929390803573ffffffffffffffffffffffffffffffffffffffff169060200190929190505050613c45565b6040518082815260200191505060405180910390f35b610d4360048036036080811015610ce357600080fd5b81019080803573ffffffffffffffffffffffffffffffffffffffff169060200190929190803573ffffffffffffffffffffffffffffffffffffffff1690602001909291908035906020019092919080359060200190929190505050613daf565b005b610de660048036036060811015610d5b57600080fd5b81019080803573ffffffffffffffffffffffffffffffffffffffff1690602001909291908035906020019092919080359060200190640100000000811115610da257600080fd5b820183602082011115610db457600080fd5b80359060200191846001830284011164010000000083111715610dd657600080fd5b9091929391929390505050613e70565b6040518082815260200191505060405180910390f35b610ee7600480360360c0811015610e1257600080fd5b81019080803573ffffffffffffffffffffffffffffffffffffffff169060200190929190803573ffffffffffffffffffffffffffffffffffffffff1690602001909291908035906020019092919080359060200190640100000000811115610e7957600080fd5b820183602082011115610e8b57600080fd5b80359060200191846001830284011164010000000083111715610ead57600080fd5b9091929391929390803573ffffffffffffffffffffffffffffffffffffffff16906020019092919080359060200190929190505050613fd8565b604051808381526020018281526020019250505060405180910390f35b610fe5600480360360a0811015610f1a57600080fd5b81019080803573ffffffffffffffffffffffffffffffffffffffff169060200190929190803573ffffffffffffffffffffffffffffffffffffffff1690602001909291908035906020019092919080359060200190640100000000811115610f8157600080fd5b820183602082011115610f9357600080fd5b80359060200191846001830284011164010000000083111715610fb557600080fd5b9091929391929390803573ffffffffffffffffffffffffffffffffffffffff169060200190929190505050614610565b604051808381526020018281526020019250505060405180910390f35b611163600480360360a081101561101857600080fd5b81019080803573ffffffffffffffffffffffffffffffffffffffff169060200190929190803573ffffffffffffffffffffffffffffffffffffffff1690602001909291908035906020019064010000000081111561107557600080fd5b82018360208201111561108757600080fd5b803590602001918460208302840111640100000000831117156110a957600080fd5b9091929391929390803590602001906401000000008111156110ca57600080fd5b8201836020820111156110dc57600080fd5b803590602001918460208302840111640100000000831117156110fe57600080fd5b90919293919293908035906020019064010000000081111561111f57600080fd5b82018360208201111561113157600080fd5b8035906020019184600183028401116401000000008311171561115357600080fd5b9091929391929390505050614c3f565b60405180827bffffffffffffffffffffffffffffffffffffffffffffffffffffffff1916815260200191505060405180910390f35b6111da600480360360208110156111ae57600080fd5b81019080803573ffffffffffffffffffffffffffffffffffffffff169060200190929190505050614c4d565b005b61129d600480360360808110156111f257600080fd5b81019080803573ffffffffffffffffffffffffffffffffffffffff169060200190929190803590602001909291908035906020019064010000000081111561123957600080fd5b82018360208201111561124b57600080fd5b8035906020019184600183028401116401000000008311171561126d57600080fd5b9091929391929390803573ffffffffffffffffffffffffffffffffffffffff169060200190929190505050614d9f565b6040518082815260200191505060405180910390f35b6112bb614f09565b604051808273ffffffffffffffffffffffffffffffffffffffff16815260200191505060405180910390f35b6113a8600480360360808110156112fd57600080fd5b81019080803573ffffffffffffffffffffffffffffffffffffffff169060200190929190803590602001909291908035906020019064010000000081111561134457600080fd5b82018360208201111561135657600080fd5b8035906020019184600183028401116401000000008311171561137857600080fd5b9091929391929390803573ffffffffffffffffffffffffffffffffffffffff169060200190929190505050614f33565b6040518082815260200191505060405180910390f35b6113ea600480360360208110156113d457600080fd5b810190808035906020019092919050505061509d565b6040518082815260200191505060405180910390f35b6114cb600480360360a081101561141657600080fd5b81019080803573ffffffffffffffffffffffffffffffffffffffff169060200190929190803573ffffffffffffffffffffffffffffffffffffffff16906020019092919080359060200190929190803590602001909291908035906020019064010000000081111561148757600080fd5b82018360208201111561149957600080fd5b803590602001918460018302840111640100000000831117156114bb57600080fd5b90919293919293905050506150af565b60405180827bffffffffffffffffffffffffffffffffffffffffffffffffffffffff1916815260200191505060405180910390f35b6115426004803603602081101561151657600080fd5b81019080803573ffffffffffffffffffffffffffffffffffffffff1690602001909291905050506150c5565b005b611639600480360360e081101561155a57600080fd5b81019080803573ffffffffffffffffffffffffffffffffffffffff169060200190929190803573ffffffffffffffffffffffffffffffffffffffff16906020019092919080359060200190929190803590602001906401000000008111156115c157600080fd5b8201836020820111156115d357600080fd5b803590602001918460018302840111640100000000831117156115f557600080fd5b9091929391929390803573ffffffffffffffffffffffffffffffffffffffff16906020019092919080359060200190929190803590602001909291905050506152ba565b60405180821515815260200191505060405180910390f35b6000919050565b60008585609e60009054906101000a900473ffffffffffffffffffffffffffffffffffffffff1673ffffffffffffffffffffffffffffffffffffffff1663ddc844dd83836040518363ffffffff1660e01b815260040180806020018281038252848482818152602001925080828437600081840152601f19601f820116905080830192505050935050505060206040518083038186803b1580156116fb57600080fd5b505afa15801561170f573d6000803e3d6000fd5b505050506040513d602081101561172557600080fd5b81019080805190602001909291905050506117a8576040517f08c379a00000000000000000000000000000000000000000000000000000000081526004018080602001828103825260088152602001807f43503a452d34313900000000000000000000000000000000000000000000000081525060200191505060405180910390fd5b60026065541415611821576040517f08c379a000000000000000000000000000000000000000000000000000000000815260040180806020018281038252601f8152602001807f5265656e7472616e637947756172643a207265656e7472616e742063616c6c0081525060200191505060405180910390fd5b60026065819055506118378a8a8a8a8a8a6158c8565b600061184b6118446159fa565b8888615a09565b905061185c8b8b8b8b8b8b87615a5c565b9350600073ffffffffffffffffffffffffffffffffffffffff16609860009054906101000a900473ffffffffffffffffffffffffffffffffffffffff1673ffffffffffffffffffffffffffffffffffffffff16146119fd57609860009054906101000a900473ffffffffffffffffffffffffffffffffffffffff1673ffffffffffffffffffffffffffffffffffffffff1663b9e09b4b6118fa6159fa565b878e8e8e8e8e8e6040518963ffffffff1660e01b8152600401808973ffffffffffffffffffffffffffffffffffffffff1681526020018873ffffffffffffffffffffffffffffffffffffffff1681526020018773ffffffffffffffffffffffffffffffffffffffff168152602001868152602001806020018473ffffffffffffffffffffffffffffffffffffffff1681526020018381526020018281038252868682818152602001925080828437600081840152601f19601f8201169050808301925050509950505050505050505050600060405180830381600087803b1580156119e457600080fd5b505af11580156119f8573d6000803e3d6000fd5b505050505b5060016065819055505050979650505050505050565b600063150b7a0260e01b905095945050505050565b611a306159fa565b73ffffffffffffffffffffffffffffffffffffffff16611a4e613c1b565b73ffffffffffffffffffffffffffffffffffffffff1614611ad7576040517f08c379a00000000000000000000000000000000000000000000000000000000081526004018080602001828103825260208152602001807f4f776e61626c653a2063616c6c6572206973206e6f7420746865206f776e657281525060200191505060405180910390fd5b611ae2838383615ed5565b505050565b6000609960009054906101000a900473ffffffffffffffffffffffffffffffffffffffff16905090565b60008585609e60009054906101000a900473ffffffffffffffffffffffffffffffffffffffff1673ffffffffffffffffffffffffffffffffffffffff1663e12439b883836040518363ffffffff1660e01b815260040180806020018281038252848482818152602001925080828437600081840152601f19601f820116905080830192505050935050505060206040518083038186803b158015611bb457600080fd5b505afa158015611bc8573d6000803e3d6000fd5b505050506040513d6020811015611bde57600080fd5b8101908080519060200190929190505050611c61576040517f08c379a00000000000000000000000000000000000000000000000000000000081526004018080602001828103825260088152602001807f43503a452d34313900000000000000000000000000000000000000000000000081525060200191505060405180910390fd5b60026065541415611cda576040517f08c379a000000000000000000000000000000000000000000000000000000000815260040180806020018281038252601f8152602001807f5265656e7472616e637947756172643a207265656e7472616e742063616c6c0081525060200191505060405180910390fd5b6002606581905550611cf18a8a8a8a8a8a8a6160b6565b611d04611cfc6159fa565b8787876161f1565b611d138a8a8a8a8a8a8a616375565b9250600073ffffffffffffffffffffffffffffffffffffffff16609860009054906101000a900473ffffffffffffffffffffffffffffffffffffffff1673ffffffffffffffffffffffffffffffffffffffff1614611e7957609860009054906101000a900473ffffffffffffffffffffffffffffffffffffffff1673ffffffffffffffffffffffffffffffffffffffff16632bdbb77f8b8b8b8b8b8b8b6040518863ffffffff1660e01b8152600401808873ffffffffffffffffffffffffffffffffffffffff168152602001878152602001806020018573ffffffffffffffffffffffffffffffffffffffff1681526020018481526020018381526020018281038252878782818152602001925080828437600081840152601f19601f82011690508083019250505098505050505050505050600060405180830381600087803b158015611e6057600080fd5b505af1158015611e74573d6000803e3d6000fd5b505050505b60016065819055505050979650505050505050565b611e966159fa565b73ffffffffffffffffffffffffffffffffffffffff16611eb4613c1b565b73ffffffffffffffffffffffffffffffffffffffff1614611f3d576040517f08c379a00000000000000000000000000000000000000000000000000000000081526004018080602001828103825260208152602001807f4f776e61626c653a2063616c6c6572206973206e6f7420746865206f776e657281525060200191505060405180910390fd5b611f48838383616859565b505050565b60606040518060600160405280602e8152602001618a56602e9139905090565b611f756159fa565b73ffffffffffffffffffffffffffffffffffffffff16611f93613c1b565b73ffffffffffffffffffffffffffffffffffffffff161461201c576040517f08c379a00000000000000000000000000000000000000000000000000000000081526004018080602001828103825260208152602001807f4f776e61626c653a2063616c6c6572206973206e6f7420746865206f776e657281525060200191505060405180910390fd5b6127108110612093576040517f08c379a00000000000000000000000000000000000000000000000000000000081526004018080602001828103825260088152602001807f43503a452d34323100000000000000000000000000000000000000000000000081525060200191505060405180910390fd5b80609c819055507f12865465a7036a0232cbf9fb63ce880a3ee54f702775fe7abbc3c416e7968cd5816040518082815260200191505060405180910390a150565b6120dc6159fa565b73ffffffffffffffffffffffffffffffffffffffff166120fa613c1b565b73ffffffffffffffffffffffffffffffffffffffff1614612183576040517f08c379a00000000000000000000000000000000000000000000000000000000081526004018080602001828103825260208152602001807f4f776e61626c653a2063616c6c6572206973206e6f7420746865206f776e657281525060200191505060405180910390fd5b61218d8282616ac3565b5050565b6000609760009054906101000a900473ffffffffffffffffffffffffffffffffffffffff1673ffffffffffffffffffffffffffffffffffffffff168273ffffffffffffffffffffffffffffffffffffffff16149050919050565b6121f36159fa565b73ffffffffffffffffffffffffffffffffffffffff16612211613c1b565b73ffffffffffffffffffffffffffffffffffffffff161461229a576040517f08c379a00000000000000000000000000000000000000000000000000000000081526004018080602001828103825260208152602001807f4f776e61626c653a2063616c6c6572206973206e6f7420746865206f776e657281525060200191505060405180910390fd5b6000828260405160200180838380828437808301925050509250505060405160208183030381529060405280519060200120905060405160200180807f756e6976657273650000000000000000000000000000000000000000000000008152506008019050604051602081830303815290604052805190602001208114156123625783609860006101000a81548173ffffffffffffffffffffffffffffffffffffffff021916908373ffffffffffffffffffffffffffffffffffffffff1602179055506126dc565b60405160200180807f73657474696e67730000000000000000000000000000000000000000000000008152506008019050604051602081830303815290604052805190602001208114156123f65783609a60006101000a81548173ffffffffffffffffffffffffffffffffffffffff021916908373ffffffffffffffffffffffffffffffffffffffff1602179055506126db565b60405160200180807f737461746500000000000000000000000000000000000000000000000000000081525060050190506040516020818303038152906040528051906020012081141561248a5783609960006101000a81548173ffffffffffffffffffffffffffffffffffffffff021916908373ffffffffffffffffffffffffffffffffffffffff1602179055506126da565b60405160200180807f6d616e616765727300000000000000000000000000000000000000000000000081525060080190506040516020818303038152906040528051906020012081141561251e5783609e60006101000a81548173ffffffffffffffffffffffffffffffffffffffff021916908373ffffffffffffffffffffffffffffffffffffffff1602179055506126d9565b60405160200180807f6c6570746f6e73000000000000000000000000000000000000000000000000008152506007019050604051602081830303815290604052805190602001208114156125b25783609b60006101000a81548173ffffffffffffffffffffffffffffffffffffffff021916908373ffffffffffffffffffffffffffffffffffffffff1602179055506126d8565b60405160200180807f666f7277617264657200000000000000000000000000000000000000000000008152506009019050604051602081830303815290604052805190602001208114156126465783609760006101000a81548173ffffffffffffffffffffffffffffffffffffffff021916908373ffffffffffffffffffffffffffffffffffffffff1602179055506126d7565b60405160200180807f746f6b656e696e666f00000000000000000000000000000000000000000000008152506009019050604051602081830303815290604052805190602001208114156126d65783609d60006101000a81548173ffffffffffffffffffffffffffffffffffffffff021916908373ffffffffffffffffffffffffffffffffffffffff1602179055505b5b5b5b5b5b5b8373ffffffffffffffffffffffffffffffffffffffff167fd28287e4c8d4f4d61f75c41e3e0732ca8d95f32ccddc45658621a7ae71f8ce95848460405180806020018281038252848482818152602001925080828437600081840152601f19601f820116905080830192505050935050505060405180910390a250505050565b6000808484609e60009054906101000a900473ffffffffffffffffffffffffffffffffffffffff1673ffffffffffffffffffffffffffffffffffffffff1663ddc844dd83836040518363ffffffff1660e01b815260040180806020018281038252848482818152602001925080828437600081840152601f19601f820116905080830192505050935050505060206040518083038186803b15801561280057600080fd5b505afa158015612814573d6000803e3d6000fd5b505050506040513d602081101561282a57600080fd5b81019080805190602001909291905050506128ad576040517f08c379a00000000000000000000000000000000000000000000000000000000081526004018080602001828103825260088152602001807f43503a452d34313900000000000000000000000000000000000000000000000081525060200191505060405180910390fd5b60026065541415612926576040517f08c379a000000000000000000000000000000000000000000000000000000000815260040180806020018281038252601f8152602001807f5265656e7472616e637947756172643a207265656e7472616e742063616c6c0081525060200191505060405180910390fd5b60026065819055506129388989616be8565b6000609a60009054906101000a900473ffffffffffffffffffffffffffffffffffffffff1673ffffffffffffffffffffffffffffffffffffffff166382508e0f8b8b6040518363ffffffff1660e01b8152600401808373ffffffffffffffffffffffffffffffffffffffff1681526020018281526020019250505060206040518083038186803b1580156129cb57600080fd5b505afa1580156129df573d6000803e3d6000fd5b505050506040513d60208110156129f557600080fd5b81019080805190602001909291905050509050609e60009054906101000a900473ffffffffffffffffffffffffffffffffffffffff1673ffffffffffffffffffffffffffffffffffffffff166334b7328d89896040518363ffffffff1660e01b815260040180806020018281038252848482818152602001925080828437600081840152601f19601f820116905080830192505050935050505060206040518083038186803b158015612aa757600080fd5b505afa158015612abb573d6000803e3d6000fd5b505050506040513d6020811015612ad157600080fd5b810190808051906020019092919050505073ffffffffffffffffffffffffffffffffffffffff1663fb3642d68c8c8c8a866040518663ffffffff1660e01b8152600401808673ffffffffffffffffffffffffffffffffffffffff1681526020018573ffffffffffffffffffffffffffffffffffffffff1681526020018481526020018373ffffffffffffffffffffffffffffffffffffffff1681526020018273ffffffffffffffffffffffffffffffffffffffff168152602001955050505050506040805180830381600087803b158015612bab57600080fd5b505af1158015612bbf573d6000803e3d6000fd5b505050506040513d6040811015612bd557600080fd5b8101908080519060200190929190805190602001909291905050508095508196505050600073ffffffffffffffffffffffffffffffffffffffff16609860009054906101000a900473ffffffffffffffffffffffffffffffffffffffff1673ffffffffffffffffffffffffffffffffffffffff1614612d5c57609860009054906101000a900473ffffffffffffffffffffffffffffffffffffffff1673ffffffffffffffffffffffffffffffffffffffff166341db85d68b8b8b8b8b8b8b6040518863ffffffff1660e01b8152600401808873ffffffffffffffffffffffffffffffffffffffff168152602001878152602001806020018573ffffffffffffffffffffffffffffffffffffffff1681526020018481526020018381526020018281038252878782818152602001925080828437600081840152601f19601f82011690508083019250505098505050505050505050600060405180830381600087803b158015612d4357600080fd5b505af1158015612d57573d6000803e3d6000fd5b505050505b5060016065819055505050965096945050505050565b60008484609e60009054906101000a900473ffffffffffffffffffffffffffffffffffffffff1673ffffffffffffffffffffffffffffffffffffffff1663ddc844dd83836040518363ffffffff1660e01b815260040180806020018281038252848482818152602001925080828437600081840152601f19601f820116905080830192505050935050505060206040518083038186803b158015612e1557600080fd5b505afa158015612e29573d6000803e3d6000fd5b505050506040513d6020811015612e3f57600080fd5b8101908080519060200190929190505050612ec2576040517f08c379a00000000000000000000000000000000000000000000000000000000081526004018080602001828103825260088152602001807f43503a452d34313900000000000000000000000000000000000000000000000081525060200191505060405180910390fd5b60026065541415612f3b576040517f08c379a000000000000000000000000000000000000000000000000000000000815260040180806020018281038252601f8152602001807f5265656e7472616e637947756172643a207265656e7472616e742063616c6c0081525060200191505060405180910390fd5b60026065819055506000612f4d6159fa565b90506000609d60009054906101000a900473ffffffffffffffffffffffffffffffffffffffff1673ffffffffffffffffffffffffffffffffffffffff1663d220d30a8c8c6040518363ffffffff1660e01b8152600401808373ffffffffffffffffffffffffffffffffffffffff16815260200182815260200192505050602060405180830381600087803b158015612fe457600080fd5b505af1158015612ff8573d6000803e3d6000fd5b505050506040513d602081101561300e57600080fd5b810190808051906020019092919050505090508073ffffffffffffffffffffffffffffffffffffffff168273ffffffffffffffffffffffffffffffffffffffff16146130c2576040517f08c379a00000000000000000000000000000000000000000000000000000000081526004018080602001828103825260088152602001807f43503a452d31303400000000000000000000000000000000000000000000000081525060200191505060405180910390fd5b609e60009054906101000a900473ffffffffffffffffffffffffffffffffffffffff1673ffffffffffffffffffffffffffffffffffffffff166334b7328d8a8a6040518363ffffffff1660e01b815260040180806020018281038252848482818152602001925080828437600081840152601f19601f820116905080830192505050935050505060206040518083038186803b15801561316157600080fd5b505afa158015613175573d6000803e3d6000fd5b505050506040513d602081101561318b57600080fd5b810190808051906020019092919050505073ffffffffffffffffffffffffffffffffffffffff16634ff836188d8d8d868c8c6040518763ffffffff1660e01b8152600401808773ffffffffffffffffffffffffffffffffffffffff1681526020018673ffffffffffffffffffffffffffffffffffffffff1681526020018581526020018473ffffffffffffffffffffffffffffffffffffffff1681526020018373ffffffffffffffffffffffffffffffffffffffff1681526020018281526020019650505050505050602060405180830381600087803b15801561326e57600080fd5b505af1158015613282573d6000803e3d6000fd5b505050506040513d602081101561329857600080fd5b81019080805190602001909291905050509450600073ffffffffffffffffffffffffffffffffffffffff16609860009054906101000a900473ffffffffffffffffffffffffffffffffffffffff1673ffffffffffffffffffffffffffffffffffffffff161461342557609860009054906101000a900473ffffffffffffffffffffffffffffffffffffffff1673ffffffffffffffffffffffffffffffffffffffff1663aa29542d8c8c8c8c878d8c6040518863ffffffff1660e01b8152600401808873ffffffffffffffffffffffffffffffffffffffff168152602001878152602001806020018573ffffffffffffffffffffffffffffffffffffffff1681526020018473ffffffffffffffffffffffffffffffffffffffff1681526020018381526020018281038252878782818152602001925080828437600081840152601f19601f82011690508083019250505098505050505050505050600060405180830381600087803b15801561340c57600080fd5b505af1158015613420573d6000803e3d6000fd5b505050505b505060016065819055505050979650505050505050565b6000808585609e60009054906101000a900473ffffffffffffffffffffffffffffffffffffffff1673ffffffffffffffffffffffffffffffffffffffff1663ddc844dd83836040518363ffffffff1660e01b815260040180806020018281038252848482818152602001925080828437600081840152601f19601f820116905080830192505050935050505060206040518083038186803b1580156134e057600080fd5b505afa1580156134f4573d6000803e3d6000fd5b505050506040513d602081101561350a57600080fd5b810190808051906020019092919050505061358d576040517f08c379a00000000000000000000000000000000000000000000000000000000081526004018080602001828103825260088152602001807f43503a452d34313900000000000000000000000000000000000000000000000081525060200191505060405180910390fd5b60026065541415613606576040517f08c379a000000000000000000000000000000000000000000000000000000000815260040180806020018281038252601f8152602001807f5265656e7472616e637947756172643a207265656e7472616e742063616c6c0081525060200191505060405180910390fd5b60026065819055506136188a8a616be8565b6000609a60009054906101000a900473ffffffffffffffffffffffffffffffffffffffff1673ffffffffffffffffffffffffffffffffffffffff166382508e0f8c8c6040518363ffffffff1660e01b8152600401808373ffffffffffffffffffffffffffffffffffffffff1681526020018281526020019250505060206040518083038186803b1580156136ab57600080fd5b505afa1580156136bf573d6000803e3d6000fd5b505050506040513d60208110156136d557600080fd5b81019080805190602001909291905050509050609e60009054906101000a900473ffffffffffffffffffffffffffffffffffffffff1673ffffffffffffffffffffffffffffffffffffffff166334b7328d8a8a6040518363ffffffff1660e01b815260040180806020018281038252848482818152602001925080828437600081840152601f19601f820116905080830192505050935050505060206040518083038186803b15801561378757600080fd5b505afa15801561379b573d6000803e3d6000fd5b505050506040513d60208110156137b157600080fd5b810190808051906020019092919050505073ffffffffffffffffffffffffffffffffffffffff166389a5799d8d8d8d8b8b876040518763ffffffff1660e01b8152600401808773ffffffffffffffffffffffffffffffffffffffff1681526020018673ffffffffffffffffffffffffffffffffffffffff1681526020018581526020018473ffffffffffffffffffffffffffffffffffffffff1681526020018381526020018273ffffffffffffffffffffffffffffffffffffffff16815260200196505050505050506040805180830381600087803b15801561389357600080fd5b505af11580156138a7573d6000803e3d6000fd5b505050506040513d60408110156138bd57600080fd5b8101908080519060200190929190805190602001909291905050508095508196505050600073ffffffffffffffffffffffffffffffffffffffff16609860009054906101000a900473ffffffffffffffffffffffffffffffffffffffff1673ffffffffffffffffffffffffffffffffffffffff1614613a4457609860009054906101000a900473ffffffffffffffffffffffffffffffffffffffff1673ffffffffffffffffffffffffffffffffffffffff166341db85d68c8c8c8c8c8b8b6040518863ffffffff1660e01b8152600401808873ffffffffffffffffffffffffffffffffffffffff168152602001878152602001806020018573ffffffffffffffffffffffffffffffffffffffff1681526020018481526020018381526020018281038252878782818152602001925080828437600081840152601f19601f82011690508083019250505098505050505050505050600060405180830381600087803b158015613a2b57600080fd5b505af1158015613a3f573d6000803e3d6000fd5b505050505b506001606581905550505097509795505050505050565b613a636159fa565b73ffffffffffffffffffffffffffffffffffffffff16613a81613c1b565b73ffffffffffffffffffffffffffffffffffffffff1614613b0a576040517f08c379a00000000000000000000000000000000000000000000000000000000081526004018080602001828103825260208152602001807f4f776e61626c653a2063616c6c6572206973206e6f7420746865206f776e657281525060200191505060405180910390fd5b600073ffffffffffffffffffffffffffffffffffffffff16603360009054906101000a900473ffffffffffffffffffffffffffffffffffffffff1673ffffffffffffffffffffffffffffffffffffffff167f8be0079c531659141344cd1fd0a4f28419497f9722a3daafe3b4186f6b6457e060405160405180910390a36000603360006101000a81548173ffffffffffffffffffffffffffffffffffffffff021916908373ffffffffffffffffffffffffffffffffffffffff160217905550565b609760009054906101000a900473ffffffffffffffffffffffffffffffffffffffff1681565b6000609e60009054906101000a900473ffffffffffffffffffffffffffffffffffffffff16905090565b6000603360009054906101000a900473ffffffffffffffffffffffffffffffffffffffff16905090565b60008383609e60009054906101000a900473ffffffffffffffffffffffffffffffffffffffff1673ffffffffffffffffffffffffffffffffffffffff1663ddc844dd83836040518363ffffffff1660e01b815260040180806020018281038252848482818152602001925080828437600081840152601f19601f820116905080830192505050935050505060206040518083038186803b158015613ce857600080fd5b505afa158015613cfc573d6000803e3d6000fd5b505050506040513d6020811015613d1257600080fd5b8101908080519060200190929190505050613d95576040517f08c379a00000000000000000000000000000000000000000000000000000000081526004018080602001828103825260088152602001807f43503a452d34313900000000000000000000000000000000000000000000000081525060200191505060405180910390fd5b613da28888888888616cbc565b9250505095945050505050565b613db76159fa565b73ffffffffffffffffffffffffffffffffffffffff16613dd5613c1b565b73ffffffffffffffffffffffffffffffffffffffff1614613e5e576040517f08c379a00000000000000000000000000000000000000000000000000000000081526004018080602001828103825260208152602001807f4f776e61626c653a2063616c6c6572206973206e6f7420746865206f776e657281525060200191505060405180910390fd5b613e6a84848484616e7b565b50505050565b60008282609e60009054906101000a900473ffffffffffffffffffffffffffffffffffffffff1673ffffffffffffffffffffffffffffffffffffffff1663e12439b883836040518363ffffffff1660e01b815260040180806020018281038252848482818152602001925080828437600081840152601f19601f820116905080830192505050935050505060206040518083038186803b158015613f1357600080fd5b505afa158015613f27573d6000803e3d6000fd5b505050506040513d6020811015613f3d57600080fd5b8101908080519060200190929190505050613fc0576040517f08c379a00000000000000000000000000000000000000000000000000000000081526004018080602001828103825260088152602001807f43503a452d34313900000000000000000000000000000000000000000000000081525060200191505060405180910390fd5b613fcc878787876170fd565b92505050949350505050565b6000808585609e60009054906101000a900473ffffffffffffffffffffffffffffffffffffffff1673ffffffffffffffffffffffffffffffffffffffff1663ddc844dd83836040518363ffffffff1660e01b815260040180806020018281038252848482818152602001925080828437600081840152601f19601f820116905080830192505050935050505060206040518083038186803b15801561407c57600080fd5b505afa158015614090573d6000803e3d6000fd5b505050506040513d60208110156140a657600080fd5b8101908080519060200190929190505050614129576040517f08c379a00000000000000000000000000000000000000000000000000000000081526004018080602001828103825260088152602001807f43503a452d34313900000000000000000000000000000000000000000000000081525060200191505060405180910390fd5b600260655414156141a2576040517f08c379a000000000000000000000000000000000000000000000000000000000815260040180806020018281038252601f8152602001807f5265656e7472616e637947756172643a207265656e7472616e742063616c6c0081525060200191505060405180910390fd5b60026065819055506141b48a8a61728c565b600080609a60009054906101000a900473ffffffffffffffffffffffffffffffffffffffff1673ffffffffffffffffffffffffffffffffffffffff166382508e0f8d8d6040518363ffffffff1660e01b8152600401808373ffffffffffffffffffffffffffffffffffffffff1681526020018281526020019250505060206040518083038186803b15801561424857600080fd5b505afa15801561425c573d6000803e3d6000fd5b505050506040513d602081101561427257600080fd5b81019080805190602001909291905050509050609e60009054906101000a900473ffffffffffffffffffffffffffffffffffffffff1673ffffffffffffffffffffffffffffffffffffffff166334b7328d8b8b6040518363ffffffff1660e01b815260040180806020018281038252848482818152602001925080828437600081840152601f19601f820116905080830192505050935050505060206040518083038186803b15801561432457600080fd5b505afa158015614338573d6000803e3d6000fd5b505050506040513d602081101561434e57600080fd5b810190808051906020019092919050505073ffffffffffffffffffffffffffffffffffffffff1663711ad4ec8e8e8e8c8c876040518763ffffffff1660e01b8152600401808773ffffffffffffffffffffffffffffffffffffffff1681526020018673ffffffffffffffffffffffffffffffffffffffff1681526020018581526020018473ffffffffffffffffffffffffffffffffffffffff1681526020018381526020018273ffffffffffffffffffffffffffffffffffffffff1681526020019650505050505050606060405180830381600087803b15801561443157600080fd5b505af1158015614445573d6000803e3d6000fd5b505050506040513d606081101561445b57600080fd5b81019080805190602001909291908051906020019092919080519060200190929190505050809750819850829450505050600073ffffffffffffffffffffffffffffffffffffffff16609860009054906101000a900473ffffffffffffffffffffffffffffffffffffffff1673ffffffffffffffffffffffffffffffffffffffff16146145f857609860009054906101000a900473ffffffffffffffffffffffffffffffffffffffff1673ffffffffffffffffffffffffffffffffffffffff1663fbf5ca148d8d8d8d8d888d8d6040518963ffffffff1660e01b8152600401808973ffffffffffffffffffffffffffffffffffffffff168152602001888152602001806020018673ffffffffffffffffffffffffffffffffffffffff1681526020018581526020018481526020018381526020018281038252888882818152602001925080828437600081840152601f19601f8201169050808301925050509950505050505050505050600060405180830381600087803b1580156145df57600080fd5b505af11580156145f3573d6000803e3d6000fd5b505050505b50506001606581905550505097509795505050505050565b6000808484609e60009054906101000a900473ffffffffffffffffffffffffffffffffffffffff1673ffffffffffffffffffffffffffffffffffffffff1663ddc844dd83836040518363ffffffff1660e01b815260040180806020018281038252848482818152602001925080828437600081840152601f19601f820116905080830192505050935050505060206040518083038186803b1580156146b457600080fd5b505afa1580156146c8573d6000803e3d6000fd5b505050506040513d60208110156146de57600080fd5b8101908080519060200190929190505050614761576040517f08c379a00000000000000000000000000000000000000000000000000000000081526004018080602001828103825260088152602001807f43503a452d34313900000000000000000000000000000000000000000000000081525060200191505060405180910390fd5b600260655414156147da576040517f08c379a000000000000000000000000000000000000000000000000000000000815260040180806020018281038252601f8152602001807f5265656e7472616e637947756172643a207265656e7472616e742063616c6c0081525060200191505060405180910390fd5b60026065819055506147ec898961728c565b600080609a60009054906101000a900473ffffffffffffffffffffffffffffffffffffffff1673ffffffffffffffffffffffffffffffffffffffff166382508e0f8c8c6040518363ffffffff1660e01b8152600401808373ffffffffffffffffffffffffffffffffffffffff1681526020018281526020019250505060206040518083038186803b15801561488057600080fd5b505afa158015614894573d6000803e3d6000fd5b505050506040513d60208110156148aa57600080fd5b81019080805190602001909291905050509050609e60009054906101000a900473ffffffffffffffffffffffffffffffffffffffff1673ffffffffffffffffffffffffffffffffffffffff166334b7328d8a8a6040518363ffffffff1660e01b815260040180806020018281038252848482818152602001925080828437600081840152601f19601f820116905080830192505050935050505060206040518083038186803b15801561495c57600080fd5b505afa158015614970573d6000803e3d6000fd5b505050506040513d602081101561498657600080fd5b810190808051906020019092919050505073ffffffffffffffffffffffffffffffffffffffff1663a9d16f3b8d8d8d8b866040518663ffffffff1660e01b8152600401808673ffffffffffffffffffffffffffffffffffffffff1681526020018573ffffffffffffffffffffffffffffffffffffffff1681526020018481526020018373ffffffffffffffffffffffffffffffffffffffff1681526020018273ffffffffffffffffffffffffffffffffffffffff16815260200195505050505050606060405180830381600087803b158015614a6157600080fd5b505af1158015614a75573d6000803e3d6000fd5b505050506040513d6060811015614a8b57600080fd5b81019080805190602001909291908051906020019092919080519060200190929190505050809750819850829450505050600073ffffffffffffffffffffffffffffffffffffffff16609860009054906101000a900473ffffffffffffffffffffffffffffffffffffffff1673ffffffffffffffffffffffffffffffffffffffff1614614c2857609860009054906101000a900473ffffffffffffffffffffffffffffffffffffffff1673ffffffffffffffffffffffffffffffffffffffff1663fbf5ca148c8c8c8c8c888d8d6040518963ffffffff1660e01b8152600401808973ffffffffffffffffffffffffffffffffffffffff168152602001888152602001806020018673ffffffffffffffffffffffffffffffffffffffff1681526020018581526020018481526020018381526020018281038252888882818152602001925080828437600081840152601f19601f8201169050808301925050509950505050505050505050600060405180830381600087803b158015614c0f57600080fd5b505af1158015614c23573d6000803e3d6000fd5b505050505b505060016065819055505050965096945050505050565b600098975050505050505050565b600060019054906101000a900460ff1680614c6c5750614c6b617360565b5b80614c82575060008054906101000a900460ff16155b614cd7576040517f08c379a000000000000000000000000000000000000000000000000000000000815260040180806020018281038252602e815260200180618a07602e913960400191505060405180910390fd5b60008060019054906101000a900460ff161590508015614d27576001600060016101000a81548160ff02191690831515021790555060016000806101000a81548160ff0219169083151502179055505b614d2f617371565b614d3761747f565b8173ffffffffffffffffffffffffffffffffffffffff167f908408e307fc569b417f6cbec5d5a06f44a0a505ac0479b47d421a4b2fd6a1e660405160405180910390a28015614d9b5760008060016101000a81548160ff0219169083151502179055505b5050565b60008383609e60009054906101000a900473ffffffffffffffffffffffffffffffffffffffff1673ffffffffffffffffffffffffffffffffffffffff1663ddc844dd83836040518363ffffffff1660e01b815260040180806020018281038252848482818152602001925080828437600081840152601f19601f820116905080830192505050935050505060206040518083038186803b158015614e4257600080fd5b505afa158015614e56573d6000803e3d6000fd5b505050506040513d6020811015614e6c57600080fd5b8101908080519060200190929190505050614eef576040517f08c379a00000000000000000000000000000000000000000000000000000000081526004018080602001828103825260088152602001807f43503a452d34313900000000000000000000000000000000000000000000000081525060200191505060405180910390fd5b614efc8888888888617585565b9250505095945050505050565b6000609a60009054906101000a900473ffffffffffffffffffffffffffffffffffffffff16905090565b60008383609e60009054906101000a900473ffffffffffffffffffffffffffffffffffffffff1673ffffffffffffffffffffffffffffffffffffffff1663ddc844dd83836040518363ffffffff1660e01b815260040180806020018281038252848482818152602001925080828437600081840152601f19601f820116905080830192505050935050505060206040518083038186803b158015614fd657600080fd5b505afa158015614fea573d6000803e3d6000fd5b505050506040513d602081101561500057600080fd5b8101908080519060200190929190505050615083576040517f08c379a00000000000000000000000000000000000000000000000000000000081526004018080602001828103825260088152602001807f43503a452d34313900000000000000000000000000000000000000000000000081525060200191505060405180910390fd5b6150908888888888617735565b9250505095945050505050565b60006150a8826178e5565b9050919050565b600063f23a6e6160e01b90509695505050505050565b6150cd6159fa565b73ffffffffffffffffffffffffffffffffffffffff166150eb613c1b565b73ffffffffffffffffffffffffffffffffffffffff1614615174576040517f08c379a00000000000000000000000000000000000000000000000000000000081526004018080602001828103825260208152602001807f4f776e61626c653a2063616c6c6572206973206e6f7420746865206f776e657281525060200191505060405180910390fd5b600073ffffffffffffffffffffffffffffffffffffffff168173ffffffffffffffffffffffffffffffffffffffff1614156151fa576040517f08c379a00000000000000000000000000000000000000000000000000000000081526004018080602001828103825260268152602001806189816026913960400191505060405180910390fd5b8073ffffffffffffffffffffffffffffffffffffffff16603360009054906101000a900473ffffffffffffffffffffffffffffffffffffffff1673ffffffffffffffffffffffffffffffffffffffff167f8be0079c531659141344cd1fd0a4f28419497f9722a3daafe3b4186f6b6457e060405160405180910390a380603360006101000a81548173ffffffffffffffffffffffffffffffffffffffff021916908373ffffffffffffffffffffffffffffffffffffffff16021790555050565b60008585609e60009054906101000a900473ffffffffffffffffffffffffffffffffffffffff1673ffffffffffffffffffffffffffffffffffffffff1663e12439b883836040518363ffffffff1660e01b815260040180806020018281038252848482818152602001925080828437600081840152601f19601f820116905080830192505050935050505060206040518083038186803b15801561535d57600080fd5b505afa158015615371573d6000803e3d6000fd5b505050506040513d602081101561538757600080fd5b810190808051906020019092919050505061540a576040517f08c379a00000000000000000000000000000000000000000000000000000000081526004018080602001828103825260088152602001807f43503a452d34313900000000000000000000000000000000000000000000000081525060200191505060405180910390fd5b60026065541415615483576040517f08c379a000000000000000000000000000000000000000000000000000000000815260040180806020018281038252601f8152602001807f5265656e7472616e637947756172643a207265656e7472616e742063616c6c0081525060200191505060405180910390fd5b60026065819055506154958a8a617922565b6000609e60009054906101000a900473ffffffffffffffffffffffffffffffffffffffff1673ffffffffffffffffffffffffffffffffffffffff1663b078808a8a8a6040518363ffffffff1660e01b815260040180806020018281038252848482818152602001925080828437600081840152601f19601f820116905080830192505050935050505060206040518083038186803b15801561553657600080fd5b505afa15801561554a573d6000803e3d6000fd5b505050506040513d602081101561556057600080fd5b8101908080519060200190929190505050905060405160200180807f67656e65726963000000000000000000000000000000000000000000000000008152506007019050604051602081830303815290604052805190602001208989604051602001808383808284378083019250505092505050604051602081830303815290604052805190602001201461565b578073ffffffffffffffffffffffffffffffffffffffff1663e4ea1a6e866040518263ffffffff1660e01b815260040180828152602001915050600060405180830381600087803b15801561564257600080fd5b505af1158015615656573d6000803e3d6000fd5b505050505b8073ffffffffffffffffffffffffffffffffffffffff16632c49ee2c8d8d8d8b8b6040518663ffffffff1660e01b8152600401808673ffffffffffffffffffffffffffffffffffffffff1681526020018573ffffffffffffffffffffffffffffffffffffffff1681526020018481526020018373ffffffffffffffffffffffffffffffffffffffff16815260200182815260200195505050505050602060405180830381600087803b15801561571057600080fd5b505af1158015615724573d6000803e3d6000fd5b505050506040513d602081101561573a57600080fd5b81019080805190602001909291905050509350600073ffffffffffffffffffffffffffffffffffffffff16609860009054906101000a900473ffffffffffffffffffffffffffffffffffffffff1673ffffffffffffffffffffffffffffffffffffffff16146158b157609860009054906101000a900473ffffffffffffffffffffffffffffffffffffffff1673ffffffffffffffffffffffffffffffffffffffff1663bea38be08c8c8c8c8c8c8c6040518863ffffffff1660e01b8152600401808873ffffffffffffffffffffffffffffffffffffffff168152602001878152602001806020018573ffffffffffffffffffffffffffffffffffffffff1681526020018481526020018381526020018281038252878782818152602001925080828437600081840152601f19601f82011690508083019250505098505050505050505050600060405180830381600087803b15801561589857600080fd5b505af11580156158ac573d6000803e3d6000fd5b505050505b506001606581905550505098975050505050505050565b609e60009054906101000a900473ffffffffffffffffffffffffffffffffffffffff1673ffffffffffffffffffffffffffffffffffffffff166322ecf9b161590e6159fa565b8888888888886040518863ffffffff1660e01b8152600401808873ffffffffffffffffffffffffffffffffffffffff1681526020018773ffffffffffffffffffffffffffffffffffffffff168152602001868152602001806020018473ffffffffffffffffffffffffffffffffffffffff1681526020018381526020018281038252868682818152602001925080828437600081840152601f19601f82011690508083019250505098505050505050505050600060405180830381600087803b1580156159da57600080fd5b505af11580156159ee573d6000803e3d6000fd5b50505050505050505050565b6000615a046179f6565b905090565b6000615a14826178e5565b9050615a558430615a2e8486617a3290919063ffffffff16565b8673ffffffffffffffffffffffffffffffffffffffff16617aba909392919063ffffffff16565b9392505050565b600080609e60009054906101000a900473ffffffffffffffffffffffffffffffffffffffff1673ffffffffffffffffffffffffffffffffffffffff166334b7328d88886040518363ffffffff1660e01b815260040180806020018281038252848482818152602001925080828437600081840152601f19601f820116905080830192505050935050505060206040518083038186803b158015615afe57600080fd5b505afa158015615b12573d6000803e3d6000fd5b505050506040513d6020811015615b2857600080fd5b81019080805190602001909291905050509050600080609a60009054906101000a900473ffffffffffffffffffffffffffffffffffffffff1673ffffffffffffffffffffffffffffffffffffffff1663bb10a6ec8c8c6040518363ffffffff1660e01b8152600401808373ffffffffffffffffffffffffffffffffffffffff168152602001828152602001925050506040805180830381600087803b158015615bd057600080fd5b505af1158015615be4573d6000803e3d6000fd5b505050506040513d6040811015615bfa57600080fd5b8101908080519060200190929190805190602001909291905050509150915060008373ffffffffffffffffffffffffffffffffffffffff16634737c0c38d8d86866040518563ffffffff1660e01b8152600401808573ffffffffffffffffffffffffffffffffffffffff1681526020018481526020018373ffffffffffffffffffffffffffffffffffffffff168152602001828152602001945050505050602060405180830381600087803b158015615cb257600080fd5b505af1158015615cc6573d6000803e3d6000fd5b505050506040513d6020811015615cdc57600080fd5b810190808051906020019092919050505090508773ffffffffffffffffffffffffffffffffffffffff1663a9059cbb82896040518363ffffffff1660e01b8152600401808373ffffffffffffffffffffffffffffffffffffffff16815260200182815260200192505050602060405180830381600087803b158015615d6057600080fd5b505af1158015615d74573d6000803e3d6000fd5b505050506040513d6020811015615d8a57600080fd5b8101908080519060200190929190505050508773ffffffffffffffffffffffffffffffffffffffff167fd24ccccf373129a9579bb9f5edc41c09218d54ae950e90b4d5ca2927b7c29b118888604051808381526020018281526020019250505060405180910390a28373ffffffffffffffffffffffffffffffffffffffff16638b8d9a168d8d8b8b6040518563ffffffff1660e01b8152600401808573ffffffffffffffffffffffffffffffffffffffff1681526020018481526020018373ffffffffffffffffffffffffffffffffffffffff168152602001828152602001945050505050602060405180830381600087803b158015615e8957600080fd5b505af1158015615e9d573d6000803e3d6000fd5b505050506040513d6020811015615eb357600080fd5b8101908080519060200190929190505050945050505050979650505050505050565b600073ffffffffffffffffffffffffffffffffffffffff168373ffffffffffffffffffffffffffffffffffffffff161415615f78576040517f08c379a00000000000000000000000000000000000000000000000000000000081526004018080602001828103825260098152602001807f4248503a452d343033000000000000000000000000000000000000000000000081525060200191505060405180910390fd5b808273ffffffffffffffffffffffffffffffffffffffff166370a08231306040518263ffffffff1660e01b8152600401808273ffffffffffffffffffffffffffffffffffffffff16815260200191505060206040518083038186803b158015615fe057600080fd5b505afa158015615ff4573d6000803e3d6000fd5b505050506040513d602081101561600a57600080fd5b8101908080519060200190929190505050106160b15761604b83828473ffffffffffffffffffffffffffffffffffffffff16617b7b9092919063ffffffff16565b8173ffffffffffffffffffffffffffffffffffffffff168373ffffffffffffffffffffffffffffffffffffffff167f6c9d637297625e945b296ff73a71fcfbd0a9e062652b6491a921c4c60194176b836040518082815260200191505060405180910390a35b505050565b609e60009054906101000a900473ffffffffffffffffffffffffffffffffffffffff1673ffffffffffffffffffffffffffffffffffffffff1663aa91b1676160fc6159fa565b898989898989896040518963ffffffff1660e01b8152600401808973ffffffffffffffffffffffffffffffffffffffff1681526020018873ffffffffffffffffffffffffffffffffffffffff168152602001878152602001806020018573ffffffffffffffffffffffffffffffffffffffff1681526020018481526020018381526020018281038252878782818152602001925080828437600081840152601f19601f8201169050808301925050509950505050505050505050600060405180830381600087803b1580156161d057600080fd5b505af11580156161e4573d6000803e3d6000fd5b5050505050505050505050565b6161fa83617c1d565b156162c7578273ffffffffffffffffffffffffffffffffffffffff1663f242432a853085856040518563ffffffff1660e01b8152600401808573ffffffffffffffffffffffffffffffffffffffff1681526020018473ffffffffffffffffffffffffffffffffffffffff1681526020018381526020018281526020018060200182810382526000815260200160200195505050505050600060405180830381600087803b1580156162aa57600080fd5b505af11580156162be573d6000803e3d6000fd5b5050505061636f565b8273ffffffffffffffffffffffffffffffffffffffff166342842e0e8530856040518463ffffffff1660e01b8152600401808473ffffffffffffffffffffffffffffffffffffffff1681526020018373ffffffffffffffffffffffffffffffffffffffff1681526020018281526020019350505050600060405180830381600087803b15801561635657600080fd5b505af115801561636a573d6000803e3d6000fd5b505050505b50505050565b600080609e60009054906101000a900473ffffffffffffffffffffffffffffffffffffffff1673ffffffffffffffffffffffffffffffffffffffff1663b078808a88886040518363ffffffff1660e01b815260040180806020018281038252848482818152602001925080828437600081840152601f19601f820116905080830192505050935050505060206040518083038186803b15801561641757600080fd5b505afa15801561642b573d6000803e3d6000fd5b505050506040513d602081101561644157600080fd5b8101908080519060200190929190505050905060008173ffffffffffffffffffffffffffffffffffffffff1663c9b24c5e8b8b6040518363ffffffff1660e01b8152600401808373ffffffffffffffffffffffffffffffffffffffff16815260200182815260200192505050602060405180830381600087803b1580156164c757600080fd5b505af11580156164db573d6000803e3d6000fd5b505050506040513d60208110156164f157600080fd5b8101908080519060200190929190505050905060405160200180807f67656e6572696300000000000000000000000000000000000000000000000000815250600701905060405160208183030381529060405280519060200120888860405160200180838380828437808301925050509250505060405160208183030381529060405280519060200120146165ec578173ffffffffffffffffffffffffffffffffffffffff1663e4ea1a6e856040518263ffffffff1660e01b815260040180828152602001915050600060405180830381600087803b1580156165d357600080fd5b505af11580156165e7573d6000803e3d6000fd5b505050505b6165f586617c1d565b156166d057600084141561660857600193505b8573ffffffffffffffffffffffffffffffffffffffff1663f242432a308388886040518563ffffffff1660e01b8152600401808573ffffffffffffffffffffffffffffffffffffffff1681526020018473ffffffffffffffffffffffffffffffffffffffff1681526020018381526020018281526020018060200182810382526000815260200160200195505050505050600060405180830381600087803b1580156166b357600080fd5b505af11580156166c7573d6000803e3d6000fd5b50505050616778565b8573ffffffffffffffffffffffffffffffffffffffff166323b872dd3083886040518463ffffffff1660e01b8152600401808473ffffffffffffffffffffffffffffffffffffffff1681526020018373ffffffffffffffffffffffffffffffffffffffff1681526020018281526020019350505050600060405180830381600087803b15801561675f57600080fd5b505af1158015616773573d6000803e3d6000fd5b505050505b8173ffffffffffffffffffffffffffffffffffffffff166392a04c878b8b89896040518563ffffffff1660e01b8152600401808573ffffffffffffffffffffffffffffffffffffffff1681526020018481526020018373ffffffffffffffffffffffffffffffffffffffff168152602001828152602001945050505050602060405180830381600087803b15801561680f57600080fd5b505af1158015616823573d6000803e3d6000fd5b505050506040513d602081101561683957600080fd5b810190808051906020019092919050505092505050979650505050505050565b600073ffffffffffffffffffffffffffffffffffffffff168373ffffffffffffffffffffffffffffffffffffffff1614156168fc576040517f08c379a00000000000000000000000000000000000000000000000000000000081526004018080602001828103825260098152602001807f4248503a452d343033000000000000000000000000000000000000000000000081525060200191505060405180910390fd5b3073ffffffffffffffffffffffffffffffffffffffff168273ffffffffffffffffffffffffffffffffffffffff16636352211e836040518263ffffffff1660e01b81526004018082815260200191505060206040518083038186803b15801561696457600080fd5b505afa158015616978573d6000803e3d6000fd5b505050506040513d602081101561698e57600080fd5b810190808051906020019092919050505073ffffffffffffffffffffffffffffffffffffffff161415616abe578173ffffffffffffffffffffffffffffffffffffffff166323b872dd3085846040518463ffffffff1660e01b8152600401808473ffffffffffffffffffffffffffffffffffffffff1681526020018373ffffffffffffffffffffffffffffffffffffffff1681526020018281526020019350505050600060405180830381600087803b158015616a4a57600080fd5b505af1158015616a5e573d6000803e3d6000fd5b50505050808273ffffffffffffffffffffffffffffffffffffffff168473ffffffffffffffffffffffffffffffffffffffff167ffefe036cac4ee3a4aca074a81cbcc4376e1484693289078dbec149c890101d5b60405160405180910390a45b505050565b600073ffffffffffffffffffffffffffffffffffffffff168273ffffffffffffffffffffffffffffffffffffffff161415616b66576040517f08c379a00000000000000000000000000000000000000000000000000000000081526004018080602001828103825260098152602001807f4248503a452d343033000000000000000000000000000000000000000000000081525060200191505060405180910390fd5b804710616be457616b96818373ffffffffffffffffffffffffffffffffffffffff16617cdd90919063ffffffff16565b8173ffffffffffffffffffffffffffffffffffffffff167eddb683bb45cd5d0ad8a200c6fae7152b1c236ee90a4a37db692407f5cc38bd826040518082815260200191505060405180910390a25b5050565b609e60009054906101000a900473ffffffffffffffffffffffffffffffffffffffff1673ffffffffffffffffffffffffffffffffffffffff16632209c12e616c2e6159fa565b84846040518463ffffffff1660e01b8152600401808473ffffffffffffffffffffffffffffffffffffffff1681526020018373ffffffffffffffffffffffffffffffffffffffff1681526020018281526020019350505050600060405180830381600087803b158015616ca057600080fd5b505af1158015616cb4573d6000803e3d6000fd5b505050505050565b600080609e60009054906101000a900473ffffffffffffffffffffffffffffffffffffffff1673ffffffffffffffffffffffffffffffffffffffff166334b7328d86866040518363ffffffff1660e01b815260040180806020018281038252848482818152602001925080828437600081840152601f19601f820116905080830192505050935050505060206040518083038186803b158015616d5e57600080fd5b505afa158015616d72573d6000803e3d6000fd5b505050506040513d6020811015616d8857600080fd5b810190808051906020019092919050505073ffffffffffffffffffffffffffffffffffffffff1663512adb138888866040518463ffffffff1660e01b8152600401808473ffffffffffffffffffffffffffffffffffffffff1681526020018381526020018273ffffffffffffffffffffffffffffffffffffffff16815260200193505050506040805180830381600087803b158015616e2657600080fd5b505af1158015616e3a573d6000803e3d6000fd5b505050506040513d6040811015616e5057600080fd5b8101908080519060200190929190805190602001909291905050509150508091505095945050505050565b600073ffffffffffffffffffffffffffffffffffffffff168473ffffffffffffffffffffffffffffffffffffffff161415616f1e576040517f08c379a00000000000000000000000000000000000000000000000000000000081526004018080602001828103825260098152602001807f4248503a452d343033000000000000000000000000000000000000000000000081525060200191505060405180910390fd5b808373ffffffffffffffffffffffffffffffffffffffff1662fdd58e30856040518363ffffffff1660e01b8152600401808373ffffffffffffffffffffffffffffffffffffffff1681526020018281526020019250505060206040518083038186803b158015616f8d57600080fd5b505afa158015616fa1573d6000803e3d6000fd5b505050506040513d6020811015616fb757600080fd5b8101908080519060200190929190505050106170f7578273ffffffffffffffffffffffffffffffffffffffff1663f242432a308685856040518563ffffffff1660e01b8152600401808573ffffffffffffffffffffffffffffffffffffffff1681526020018473ffffffffffffffffffffffffffffffffffffffff1681526020018381526020018281526020018060200182810382526000815260200160200195505050505050600060405180830381600087803b15801561707857600080fd5b505af115801561708c573d6000803e3d6000fd5b50505050818373ffffffffffffffffffffffffffffffffffffffff168573ffffffffffffffffffffffffffffffffffffffff167f620337bf89eea2b9ae2657beead83b5fa620452817118348aff96e201d52598b846040518082815260200191505060405180910390a45b50505050565b6000609e60009054906101000a900473ffffffffffffffffffffffffffffffffffffffff1673ffffffffffffffffffffffffffffffffffffffff1663b078808a84846040518363ffffffff1660e01b815260040180806020018281038252848482818152602001925080828437600081840152601f19601f820116905080830192505050935050505060206040518083038186803b15801561719e57600080fd5b505afa1580156171b2573d6000803e3d6000fd5b505050506040513d60208110156171c857600080fd5b810190808051906020019092919050505073ffffffffffffffffffffffffffffffffffffffff1663cf4c8c0486866040518363ffffffff1660e01b8152600401808373ffffffffffffffffffffffffffffffffffffffff1681526020018281526020019250505060206040518083038186803b15801561724757600080fd5b505afa15801561725b573d6000803e3d6000fd5b505050506040513d602081101561727157600080fd5b81019080805190602001909291905050509050949350505050565b609e60009054906101000a900473ffffffffffffffffffffffffffffffffffffffff1673ffffffffffffffffffffffffffffffffffffffff16636f0aec6d6172d26159fa565b84846040518463ffffffff1660e01b8152600401808473ffffffffffffffffffffffffffffffffffffffff1681526020018373ffffffffffffffffffffffffffffffffffffffff1681526020018281526020019350505050600060405180830381600087803b15801561734457600080fd5b505af1158015617358573d6000803e3d6000fd5b505050505050565b600061736b30617e17565b15905090565b600060019054906101000a900460ff1680617390575061738f617360565b5b806173a6575060008054906101000a900460ff16155b6173fb576040517f08c379a000000000000000000000000000000000000000000000000000000000815260040180806020018281038252602e815260200180618a07602e913960400191505060405180910390fd5b60008060019054906101000a900460ff16159050801561744b576001600060016101000a81548160ff02191690831515021790555060016000806101000a81548160ff0219169083151502179055505b617453617e2a565b61745b617f28565b801561747c5760008060016101000a81548160ff0219169083151502179055505b50565b600060019054906101000a900460ff168061749e575061749d617360565b5b806174b4575060008054906101000a900460ff16155b617509576040517f08c379a000000000000000000000000000000000000000000000000000000000815260040180806020018281038252602e815260200180618a07602e913960400191505060405180910390fd5b60008060019054906101000a900460ff161590508015617559576001600060016101000a81548160ff02191690831515021790555060016000806101000a81548160ff0219169083151502179055505b6175616180cf565b80156175825760008060016101000a81548160ff0219169083151502179055505b50565b6000609e60009054906101000a900473ffffffffffffffffffffffffffffffffffffffff1673ffffffffffffffffffffffffffffffffffffffff166334b7328d85856040518363ffffffff1660e01b815260040180806020018281038252848482818152602001925080828437600081840152601f19601f820116905080830192505050935050505060206040518083038186803b15801561762657600080fd5b505afa15801561763a573d6000803e3d6000fd5b505050506040513d602081101561765057600080fd5b810190808051906020019092919050505073ffffffffffffffffffffffffffffffffffffffff1663235dd2008787856040518463ffffffff1660e01b8152600401808473ffffffffffffffffffffffffffffffffffffffff1681526020018381526020018273ffffffffffffffffffffffffffffffffffffffff1681526020019350505050602060405180830381600087803b1580156176ef57600080fd5b505af1158015617703573d6000803e3d6000fd5b505050506040513d602081101561771957600080fd5b8101908080519060200190929190505050905095945050505050565b6000609e60009054906101000a900473ffffffffffffffffffffffffffffffffffffffff1673ffffffffffffffffffffffffffffffffffffffff166334b7328d85856040518363ffffffff1660e01b815260040180806020018281038252848482818152602001925080828437600081840152601f19601f820116905080830192505050935050505060206040518083038186803b1580156177d657600080fd5b505afa1580156177ea573d6000803e3d6000fd5b505050506040513d602081101561780057600080fd5b810190808051906020019092919050505073ffffffffffffffffffffffffffffffffffffffff16632da9ef818787856040518463ffffffff1660e01b8152600401808473ffffffffffffffffffffffffffffffffffffffff1681526020018381526020018273ffffffffffffffffffffffffffffffffffffffff1681526020019350505050602060405180830381600087803b15801561789f57600080fd5b505af11580156178b3573d6000803e3d6000fd5b505050506040513d60208110156178c957600080fd5b8101908080519060200190929190505050905095945050505050565b600080609c54111561791d5761791a61271061790c609c54856181d590919063ffffffff16565b61825b90919063ffffffff16565b90505b919050565b609e60009054906101000a900473ffffffffffffffffffffffffffffffffffffffff1673ffffffffffffffffffffffffffffffffffffffff16634976e4856179686159fa565b84846040518463ffffffff1660e01b8152600401808473ffffffffffffffffffffffffffffffffffffffff1681526020018373ffffffffffffffffffffffffffffffffffffffff1681526020018281526020019350505050600060405180830381600087803b1580156179da57600080fd5b505af11580156179ee573d6000803e3d6000fd5b505050505050565b60006018600036905010158015617a125750617a1133612191565b5b15617a2657601436033560601c9050617a2e565b339050617a2f565b5b90565b600080828401905083811015617ab0576040517f08c379a000000000000000000000000000000000000000000000000000000000815260040180806020018281038252601b8152602001807f536166654d6174683a206164646974696f6e206f766572666c6f77000000000081525060200191505060405180910390fd5b8091505092915050565b617b75846323b872dd60e01b858585604051602401808473ffffffffffffffffffffffffffffffffffffffff1681526020018373ffffffffffffffffffffffffffffffffffffffff1681526020018281526020019350505050604051602081830303815290604052907bffffffffffffffffffffffffffffffffffffffffffffffffffffffff19166020820180517bffffffffffffffffffffffffffffffffffffffffffffffffffffffff83818316178352505050506182e4565b50505050565b617c188363a9059cbb60e01b8484604051602401808373ffffffffffffffffffffffffffffffffffffffff16815260200182815260200192505050604051602081830303815290604052907bffffffffffffffffffffffffffffffffffffffffffffffffffffffff19166020820180517bffffffffffffffffffffffffffffffffffffffffffffffffffffffff83818316178352505050506183d3565b505050565b60008063d9b67a2660e01b90508273ffffffffffffffffffffffffffffffffffffffff166301ffc9a7826040518263ffffffff1660e01b815260040180827bffffffffffffffffffffffffffffffffffffffffffffffffffffffff1916815260200191505060206040518083038186803b158015617c9a57600080fd5b505afa158015617cae573d6000803e3d6000fd5b505050506040513d6020811015617cc457600080fd5b8101908080519060200190929190505050915050919050565b80471015617d53576040517f08c379a000000000000000000000000000000000000000000000000000000000815260040180806020018281038252601d8152602001807f416464726573733a20696e73756666696369656e742062616c616e636500000081525060200191505060405180910390fd5b60008273ffffffffffffffffffffffffffffffffffffffff168260405180600001905060006040518083038185875af1925050503d8060008114617db3576040519150601f19603f3d011682016040523d82523d6000602084013e617db8565b606091505b5050905080617e12576040517f08c379a000000000000000000000000000000000000000000000000000000000815260040180806020018281038252603a8152602001806189a7603a913960400191505060405180910390fd5b505050565b600080823b905060008111915050919050565b600060019054906101000a900460ff1680617e495750617e48617360565b5b80617e5f575060008054906101000a900460ff16155b617eb4576040517f08c379a000000000000000000000000000000000000000000000000000000000815260040180806020018281038252602e815260200180618a07602e913960400191505060405180910390fd5b60008060019054906101000a900460ff161590508015617f04576001600060016101000a81548160ff02191690831515021790555060016000806101000a81548160ff0219169083151502179055505b8015617f255760008060016101000a81548160ff0219169083151502179055505b50565b600060019054906101000a900460ff1680617f475750617f46617360565b5b80617f5d575060008054906101000a900460ff16155b617fb2576040517f08c379a000000000000000000000000000000000000000000000000000000000815260040180806020018281038252602e815260200180618a07602e913960400191505060405180910390fd5b60008060019054906101000a900460ff161590508015618002576001600060016101000a81548160ff02191690831515021790555060016000806101000a81548160ff0219169083151502179055505b600061800c6159fa565b905080603360006101000a81548173ffffffffffffffffffffffffffffffffffffffff021916908373ffffffffffffffffffffffffffffffffffffffff1602179055508073ffffffffffffffffffffffffffffffffffffffff16600073ffffffffffffffffffffffffffffffffffffffff167f8be0079c531659141344cd1fd0a4f28419497f9722a3daafe3b4186f6b6457e060405160405180910390a35080156180cc5760008060016101000a81548160ff0219169083151502179055505b50565b600060019054906101000a900460ff16806180ee57506180ed617360565b5b80618104575060008054906101000a900460ff16155b618159576040517f08c379a000000000000000000000000000000000000000000000000000000000815260040180806020018281038252602e815260200180618a07602e913960400191505060405180910390fd5b60008060019054906101000a900460ff1615905080156181a9576001600060016101000a81548160ff02191690831515021790555060016000806101000a81548160ff0219169083151502179055505b600160658190555080156181d25760008060016101000a81548160ff0219169083151502179055505b50565b6000808314156181e85760009050618255565b60008284029050828482816181f957fe5b0414618250576040517f08c379a0000000000000000000000000000000000000000000000000000000008152600401808060200182810382526021815260200180618a356021913960400191505060405180910390fd5b809150505b92915050565b60008082116182d2576040517f08c379a000000000000000000000000000000000000000000000000000000000815260040180806020018281038252601a8152602001807f536166654d6174683a206469766973696f6e206279207a65726f00000000000081525060200191505060405180910390fd5b8183816182db57fe5b04905092915050565b6060618346826040518060400160405280602081526020017f5361666545524332303a206c6f772d6c6576656c2063616c6c206661696c65648152508573ffffffffffffffffffffffffffffffffffffffff166184c29092919063ffffffff16565b90506000815111156183ce5780806020019051602081101561836757600080fd5b81019080805190602001909291905050506183cd576040517f08c379a000000000000000000000000000000000000000000000000000000000815260040180806020018281038252602a815260200180618a84602a913960400191505060405180910390fd5b5b505050565b6060618435826040518060400160405280602081526020017f5361666545524332303a206c6f772d6c6576656c2063616c6c206661696c65648152508573ffffffffffffffffffffffffffffffffffffffff166184da9092919063ffffffff16565b90506000815111156184bd5780806020019051602081101561845657600080fd5b81019080805190602001909291905050506184bc576040517f08c379a000000000000000000000000000000000000000000000000000000000815260040180806020018281038252602a815260200180618a84602a913960400191505060405180910390fd5b5b505050565b60606184d184846000856184f2565b90509392505050565b60606184e9848460008561869b565b90509392505050565b60608247101561854d576040517f08c379a00000000000000000000000000000000000000000000000000000000081526004018080602001828103825260268152602001806189e16026913960400191505060405180910390fd5b61855685617e17565b6185c8576040517f08c379a000000000000000000000000000000000000000000000000000000000815260040180806020018281038252601d8152602001807f416464726573733a2063616c6c20746f206e6f6e2d636f6e747261637400000081525060200191505060405180910390fd5b600060608673ffffffffffffffffffffffffffffffffffffffff1685876040518082805190602001908083835b6020831061861857805182526020820191506020810190506020830392506185f5565b6001836020036101000a03801982511681845116808217855250505050505090500191505060006040518083038185875af1925050503d806000811461867a576040519150601f19603f3d011682016040523d82523d6000602084013e61867f565b606091505b509150915061868f8282866188a1565b92505050949350505050565b60606186a68561896d565b618718576040517f08c379a000000000000000000000000000000000000000000000000000000000815260040180806020018281038252601d8152602001807f416464726573733a2063616c6c20746f206e6f6e2d636f6e747261637400000081525060200191505060405180910390fd5b600060608673ffffffffffffffffffffffffffffffffffffffff1685876040518082805190602001908083835b602083106187685780518252602082019150602081019050602083039250618745565b6001836020036101000a03801982511681845116808217855250505050505090500191505060006040518083038185875af1925050503d80600081146187ca576040519150601f19603f3d011682016040523d82523d6000602084013e6187cf565b606091505b509150915081156187e4578092505050618899565b6000815111156187f75780518082602001fd5b836040517f08c379a00000000000000000000000000000000000000000000000000000000081526004018080602001828103825283818151815260200191508051906020019080838360005b8381101561885e578082015181840152602081019050618843565b50505050905090810190601f16801561888b5780820380516001836020036101000a031916815260200191505b509250505060405180910390fd5b949350505050565b606083156188b157829050618966565b6000835111156188c45782518084602001fd5b816040517f08c379a00000000000000000000000000000000000000000000000000000000081526004018080602001828103825283818151815260200191508051906020019080838360005b8381101561892b578082015181840152602081019050618910565b50505050905090810190601f1680156189585780820380516001836020036101000a031916815260200191505b509250505060405180910390fd5b9392505050565b600080823b90506000811191505091905056fe4f776e61626c653a206e6577206f776e657220697320746865207a65726f2061646472657373416464726573733a20756e61626c6520746f2073656e642076616c75652c20726563697069656e74206d61792068617665207265766572746564416464726573733a20696e73756666696369656e742062616c616e636520666f722063616c6c496e697469616c697a61626c653a20636f6e747261637420697320616c726561647920696e697469616c697a6564536166654d6174683a206d756c7469706c69636174696f6e206f766572666c6f77312e302e302d626574612e312f636861726765642d7061727469636c65732e72656c61792e726563697069656e745361666545524332303a204552433230206f7065726174696f6e20646964206e6f742073756363656564a2646970667358221220298e2137993479bfd113024c8e2f13fadd20f44fbd2ce13f5229fce2cba2e49a64736f6c634300060c0033",
  "linkReferences": {},
  "deployedLinkReferences": {}
}