{
  "_format": "hh-sol-artifact-1",
  "contractName": "MerkleDistributor",
  "sourceName": "contracts/v1/incentives/MerkleDistributor.sol",
  "abi": [
    {
      "inputs": [
        {
          "internalType": "address",
          "name": "token_",
          "type": "address"
        },
        {
          "internalType": "bytes32",
          "name": "merkleRoot_",
          "type": "bytes32"
        }
      ],
      "stateMutability": "nonpayable",
      "type": "constructor"
    },
    {
      "anonymous": false,
      "inputs": [
        {
          "indexed": false,
          "internalType": "uint256",
          "name": "index",
          "type": "uint256"
        },
        {
          "indexed": false,
          "internalType": "address",
          "name": "account",
          "type": "address"
        },
        {
          "indexed": false,
          "internalType": "uint256",
          "name": "amount",
          "type": "uint256"
        }
      ],
      "name": "Claimed",
      "type": "event"
    },
    {
      "inputs": [
        {
          "internalType": "uint256",
          "name": "index",
          "type": "uint256"
        },
        {
          "internalType": "address",
          "name": "account",
          "type": "address"
        },
        {
          "internalType": "uint256",
          "name": "amount",
          "type": "uint256"
        },
        {
          "internalType": "bytes32[]",
          "name": "merkleProof",
          "type": "bytes32[]"
        }
      ],
      "name": "claim",
      "outputs": [],
      "stateMutability": "nonpayable",
      "type": "function"
    },
    {
      "inputs": [
        {
          "internalType": "uint256",
          "name": "index",
          "type": "uint256"
        }
      ],
      "name": "isClaimed",
      "outputs": [
        {
          "internalType": "bool",
          "name": "",
          "type": "bool"
        }
      ],
      "stateMutability": "view",
      "type": "function"
    },
    {
      "inputs": [],
      "name": "merkleRoot",
      "outputs": [
        {
          "internalType": "bytes32",
          "name": "",
          "type": "bytes32"
        }
      ],
      "stateMutability": "view",
      "type": "function"
    },
    {
      "inputs": [],
      "name": "token",
      "outputs": [
        {
          "internalType": "address",
          "name": "",
          "type": "address"
        }
      ],
      "stateMutability": "view",
      "type": "function"
    }
  ],
  "bytecode": "0x60c060405234801561001057600080fd5b5060405161079a38038061079a8339818101604052604081101561003357600080fd5b8101908080519060200190929190805190602001909291905050508173ffffffffffffffffffffffffffffffffffffffff1660808173ffffffffffffffffffffffffffffffffffffffff1660601b815250508060a08181525050505060805160601c60a0516106db6100bf6000398061028e5280610499525080610313528061050e52506106db6000f3fe608060405234801561001057600080fd5b506004361061004c5760003560e01c80632e7ba6ef146100515780632eb4a7ab146100fe5780639e34070f1461011c578063fc0c546a14610160575b600080fd5b6100fc6004803603608081101561006757600080fd5b8101908080359060200190929190803573ffffffffffffffffffffffffffffffffffffffff16906020019092919080359060200190929190803590602001906401000000008111156100b857600080fd5b8201836020820111156100ca57600080fd5b803590602001918460208302840111640100000000831117156100ec57600080fd5b9091929391929390505050610194565b005b610106610497565b6040518082815260200191505060405180910390f35b6101486004803603602081101561013257600080fd5b81019080803590602001909291905050506104bb565b60405180821515815260200191505060405180910390f35b61016861050c565b604051808273ffffffffffffffffffffffffffffffffffffffff16815260200191505060405180910390f35b61019d856104bb565b156101f3576040517f08c379a000000000000000000000000000000000000000000000000000000000815260040180806020018281038252602881526020018061063a6028913960400191505060405180910390fd5b6000858585604051602001808481526020018373ffffffffffffffffffffffffffffffffffffffff1660601b815260140182815260200193505050506040516020818303038152906040528051906020012090506102b3838380806020026020016040519081016040528093929190818152602001838360200280828437600081840152601f19601f820116905080830192505050505050507f000000000000000000000000000000000000000000000000000000000000000083610530565b610308576040517f08c379a00000000000000000000000000000000000000000000000000000000081526004018080602001828103825260218152602001806106626021913960400191505060405180910390fd5b610311866105e5565b7f000000000000000000000000000000000000000000000000000000000000000073ffffffffffffffffffffffffffffffffffffffff1663a9059cbb86866040518363ffffffff1660e01b8152600401808373ffffffffffffffffffffffffffffffffffffffff16815260200182815260200192505050602060405180830381600087803b1580156103a257600080fd5b505af11580156103b6573d6000803e3d6000fd5b505050506040513d60208110156103cc57600080fd5b8101908080519060200190929190505050610432576040517f08c379a00000000000000000000000000000000000000000000000000000000081526004018080602001828103825260238152602001806106836023913960400191505060405180910390fd5b7f4ec90e965519d92681267467f775ada5bd214aa92c0dc93d90a5e880ce9ed026868686604051808481526020018373ffffffffffffffffffffffffffffffffffffffff168152602001828152602001935050505060405180910390a1505050505050565b7f000000000000000000000000000000000000000000000000000000000000000081565b60008061010083816104c957fe5b049050600061010084816104d957fe5b06905060008060008481526020019081526020016000205490506000826001901b90508081831614945050505050919050565b7f000000000000000000000000000000000000000000000000000000000000000081565b60008082905060005b85518110156105d757600086828151811061055057fe5b6020026020010151905080831161059757828160405160200180838152602001828152602001925050506040516020818303038152906040528051906020012092506105c9565b808360405160200180838152602001828152602001925050506040516020818303038152906040528051906020012092505b508080600101915050610539565b508381149150509392505050565b600061010082816105f257fe5b0490506000610100838161060257fe5b069050806001901b60008084815260200190815260200160002054176000808481526020019081526020016000208190555050505056fe4d65726b6c654469737472696275746f723a2044726f7020616c726561647920636c61696d65642e4d65726b6c654469737472696275746f723a20496e76616c69642070726f6f662e4d65726b6c654469737472696275746f723a205472616e73666572206661696c65642ea264697066735822122016651ab9b373199e9511e29172bf0163b933a4158c5b6ee8dbca4fbed17ac1b064736f6c634300060c0033",
  "linkReferences": {},
  "deployedLinkReferences": {}
}