{
  "_format": "hh-sol-artifact-1",
  "contractName": "RelayRecipient",
  "sourceName": "contracts/v1/lib/RelayRecipient.sol",
  "abi": [
    {
      "inputs": [
        {
          "internalType": "address",
          "name": "forwarder",
          "type": "address"
        }
      ],
      "name": "isTrustedForwarder",
      "outputs": [
        {
          "internalType": "bool",
          "name": "",
          "type": "bool"
        }
      ],
      "stateMutability": "view",
      "type": "function"
    },
    {
      "inputs": [],
      "name": "trustedForwarder",
      "outputs": [
        {
          "internalType": "address",
          "name": "",
          "type": "address"
        }
      ],
      "stateMutability": "view",
      "type": "function"
    },
    {
      "inputs": [],
      "name": "versionRecipient",
      "outputs": [
        {
          "internalType": "string",
          "name": "",
          "type": "string"
        }
      ],
      "stateMutability": "view",
      "type": "function"
    }
  ],
  "bytecode": "0x608060405234801561001057600080fd5b50610258806100206000396000f3fe608060405234801561001057600080fd5b50600436106100415760003560e01c8063486ff0cd14610046578063572b6c05146100c95780637da0a87714610123575b600080fd5b61004e610157565b6040518080602001828103825283818151815260200191508051906020019080838360005b8381101561008e578082015181840152602081019050610073565b50505050905090810190601f1680156100bb5780820380516001836020036101000a031916815260200191505b509250505060405180910390f35b61010b600480360360208110156100df57600080fd5b81019080803573ffffffffffffffffffffffffffffffffffffffff169060200190929190505050610177565b60405180821515815260200191505060405180910390f35b61012b6101d0565b604051808273ffffffffffffffffffffffffffffffffffffffff16815260200191505060405180910390f35b60606040518060600160405280602e81526020016101f5602e9139905090565b60008060009054906101000a900473ffffffffffffffffffffffffffffffffffffffff1673ffffffffffffffffffffffffffffffffffffffff168273ffffffffffffffffffffffffffffffffffffffff16149050919050565b60008054906101000a900473ffffffffffffffffffffffffffffffffffffffff168156fe312e302e302d626574612e312f636861726765642d7061727469636c65732e72656c61792e726563697069656e74a2646970667358221220ec63317b7a2b98ee08f59aed856148fdfe1e81700920934fe3bc234caafac54964736f6c634300060c0033",
  "linkReferences": {},
  "deployedLinkReferences": {}
}