{
  "_format": "hh-sol-artifact-1",
  "contractName": "ChargedParticlesAccount",
  "sourceName": "contracts/ChargedParticlesAccount.sol",
  "abi": [
    {
      "inputs": [],
      "name": "AccountLocked",
      "type": "error"
    },
    {
      "inputs": [],
      "name": "ExceedsMaxLockTime",
      "type": "error"
    },
    {
      "inputs": [],
      "name": "InvalidInput",
      "type": "error"
    },
    {
      "inputs": [],
      "name": "NotAuthorized",
      "type": "error"
    },
    {
      "inputs": [],
      "name": "OwnershipCycle",
      "type": "error"
    },
    {
      "anonymous": false,
      "inputs": [
        {
          "indexed": false,
          "internalType": "uint256",
          "name": "lockedUntil",
          "type": "uint256"
        }
      ],
      "name": "LockUpdated",
      "type": "event"
    },
    {
      "anonymous": false,
      "inputs": [
        {
          "indexed": false,
          "internalType": "address",
          "name": "owner",
          "type": "address"
        },
        {
          "indexed": false,
          "internalType": "bytes4",
          "name": "selector",
          "type": "bytes4"
        },
        {
          "indexed": false,
          "internalType": "address",
          "name": "implementation",
          "type": "address"
        }
      ],
      "name": "OverrideUpdated",
      "type": "event"
    },
    {
      "anonymous": false,
      "inputs": [
        {
          "indexed": false,
          "internalType": "address",
          "name": "owner",
          "type": "address"
        },
        {
          "indexed": false,
          "internalType": "address",
          "name": "caller",
          "type": "address"
        },
        {
          "indexed": false,
          "internalType": "bool",
          "name": "hasPermission",
          "type": "bool"
        }
      ],
      "name": "PermissionUpdated",
      "type": "event"
    },
    {
      "anonymous": false,
      "inputs": [
        {
          "indexed": true,
          "internalType": "address",
          "name": "target",
          "type": "address"
        },
        {
          "indexed": true,
          "internalType": "uint256",
          "name": "value",
          "type": "uint256"
        },
        {
          "indexed": false,
          "internalType": "bytes",
          "name": "data",
          "type": "bytes"
        }
      ],
      "name": "TransactionExecuted",
      "type": "event"
    },
    {
      "inputs": [
        {
          "internalType": "address",
          "name": "receiver",
          "type": "address"
        },
        {
          "internalType": "address",
          "name": "nftTokenAddress",
          "type": "address"
        },
        {
          "internalType": "uint256",
          "name": "nftTokenId",
          "type": "uint256"
        },
        {
          "internalType": "uint256",
          "name": "nftTokenAmount",
          "type": "uint256"
        }
      ],
      "name": "breakCovalentBond",
      "outputs": [],
      "stateMutability": "nonpayable",
      "type": "function"
    },
    {
      "inputs": [
        {
          "internalType": "address",
          "name": "nftTokenAddress",
          "type": "address"
        },
        {
          "internalType": "uint256",
          "name": "nftTokenId",
          "type": "uint256"
        },
        {
          "internalType": "uint256",
          "name": "nftTokenAmount",
          "type": "uint256"
        }
      ],
      "name": "covalentBond",
      "outputs": [],
      "stateMutability": "nonpayable",
      "type": "function"
    },
    {
      "inputs": [
        {
          "internalType": "address",
          "name": "to",
          "type": "address"
        },
        {
          "internalType": "uint256",
          "name": "value",
          "type": "uint256"
        },
        {
          "internalType": "bytes",
          "name": "data",
          "type": "bytes"
        }
      ],
      "name": "executeCall",
      "outputs": [
        {
          "internalType": "bytes",
          "name": "",
          "type": "bytes"
        }
      ],
      "stateMutability": "payable",
      "type": "function"
    },
    {
      "inputs": [
        {
          "internalType": "address",
          "name": "caller",
          "type": "address"
        }
      ],
      "name": "isAuthorized",
      "outputs": [
        {
          "internalType": "bool",
          "name": "",
          "type": "bool"
        }
      ],
      "stateMutability": "view",
      "type": "function"
    },
    {
      "inputs": [],
      "name": "isLocked",
      "outputs": [
        {
          "internalType": "bool",
          "name": "",
          "type": "bool"
        }
      ],
      "stateMutability": "view",
      "type": "function"
    },
    {
      "inputs": [
        {
          "internalType": "uint256",
          "name": "_lockedUntil",
          "type": "uint256"
        }
      ],
      "name": "lock",
      "outputs": [],
      "stateMutability": "nonpayable",
      "type": "function"
    },
    {
      "inputs": [],
      "name": "lockedUntil",
      "outputs": [
        {
          "internalType": "uint256",
          "name": "",
          "type": "uint256"
        }
      ],
      "stateMutability": "view",
      "type": "function"
    },
    {
      "inputs": [
        {
          "internalType": "address",
          "name": "",
          "type": "address"
        },
        {
          "internalType": "address",
          "name": "",
          "type": "address"
        },
        {
          "internalType": "uint256[]",
          "name": "",
          "type": "uint256[]"
        },
        {
          "internalType": "uint256[]",
          "name": "",
          "type": "uint256[]"
        },
        {
          "internalType": "bytes",
          "name": "",
          "type": "bytes"
        }
      ],
      "name": "onERC1155BatchReceived",
      "outputs": [
        {
          "internalType": "bytes4",
          "name": "",
          "type": "bytes4"
        }
      ],
      "stateMutability": "pure",
      "type": "function"
    },
    {
      "inputs": [
        {
          "internalType": "address",
          "name": "",
          "type": "address"
        },
        {
          "internalType": "address",
          "name": "",
          "type": "address"
        },
        {
          "internalType": "uint256",
          "name": "",
          "type": "uint256"
        },
        {
          "internalType": "uint256",
          "name": "",
          "type": "uint256"
        },
        {
          "internalType": "bytes",
          "name": "",
          "type": "bytes"
        }
      ],
      "name": "onERC1155Received",
      "outputs": [
        {
          "internalType": "bytes4",
          "name": "",
          "type": "bytes4"
        }
      ],
      "stateMutability": "pure",
      "type": "function"
    },
    {
      "inputs": [
        {
          "internalType": "address",
          "name": "",
          "type": "address"
        },
        {
          "internalType": "address",
          "name": "",
          "type": "address"
        },
        {
          "internalType": "uint256",
          "name": "receivedTokenId",
          "type": "uint256"
        },
        {
          "internalType": "bytes",
          "name": "",
          "type": "bytes"
        }
      ],
      "name": "onERC721Received",
      "outputs": [
        {
          "internalType": "bytes4",
          "name": "",
          "type": "bytes4"
        }
      ],
      "stateMutability": "view",
      "type": "function"
    },
    {
      "inputs": [],
      "name": "owner",
      "outputs": [
        {
          "internalType": "address",
          "name": "",
          "type": "address"
        }
      ],
      "stateMutability": "view",
      "type": "function"
    },
    {
      "inputs": [
        {
          "internalType": "bytes",
          "name": "_data",
          "type": "bytes"
        }
      ],
      "name": "parseFirst4Bytes",
      "outputs": [
        {
          "internalType": "bytes4",
          "name": "",
          "type": "bytes4"
        }
      ],
      "stateMutability": "pure",
      "type": "function"
    },
    {
      "inputs": [
        {
          "internalType": "address",
          "name": "",
          "type": "address"
        },
        {
          "internalType": "address",
          "name": "",
          "type": "address"
        }
      ],
      "name": "permissions",
      "outputs": [
        {
          "internalType": "bool",
          "name": "",
          "type": "bool"
        }
      ],
      "stateMutability": "view",
      "type": "function"
    },
    {
      "inputs": [
        {
          "internalType": "address[]",
          "name": "callers",
          "type": "address[]"
        },
        {
          "internalType": "bool[]",
          "name": "_permissions",
          "type": "bool[]"
        }
      ],
      "name": "setPermissions",
      "outputs": [],
      "stateMutability": "nonpayable",
      "type": "function"
    },
    {
      "inputs": [
        {
          "internalType": "bytes4",
          "name": "interfaceId",
          "type": "bytes4"
        }
      ],
      "name": "supportsInterface",
      "outputs": [
        {
          "internalType": "bool",
          "name": "",
          "type": "bool"
        }
      ],
      "stateMutability": "pure",
      "type": "function"
    },
    {
      "inputs": [],
      "name": "token",
      "outputs": [
        {
          "internalType": "uint256",
          "name": "chainId",
          "type": "uint256"
        },
        {
          "internalType": "address",
          "name": "tokenContract",
          "type": "address"
        },
        {
          "internalType": "uint256",
          "name": "tokenId",
          "type": "uint256"
        }
      ],
      "stateMutability": "view",
      "type": "function"
    },
    {
      "stateMutability": "payable",
      "type": "receive"
    }
  ],
  "bytecode": "0x608060405234801561001057600080fd5b50611246806100206000396000f3fe6080604052600436106100f75760003560e01c8063a737a2991161008a578063dd46706411610059578063dd467064146102e2578063f23a6e6114610302578063fc0c546a1461032e578063fe9fbb801461036657600080fd5b8063a737a29914610252578063bc197c8114610272578063ce0617ec1461029e578063d0ad2535146102c257600080fd5b80636b764e1b116100c65780636b764e1b146101ce5780638da5cb5b146101ee5780639e5d4c491461021b578063a4e2d6341461023b57600080fd5b806301ffc9a714610103578063039721b114610138578063150b7a021461015a5780631f9838b51461019357600080fd5b366100fe57005b600080fd5b34801561010f57600080fd5b5061012361011e366004610ae0565b610386565b60405190151581526020015b60405180910390f35b34801561014457600080fd5b50610158610153366004610b5d565b6103ed565b005b34801561016657600080fd5b5061017a610175366004610c98565b6105b6565b6040516001600160e01b0319909116815260200161012f565b34801561019f57600080fd5b506101236101ae366004610d04565b600160209081526000928352604080842090915290825290205460ff1681565b3480156101da57600080fd5b506101586101e9366004610d3d565b61061e565b3480156101fa57600080fd5b5061020361068c565b6040516001600160a01b03909116815260200161012f565b61022e610229366004610dc5565b610722565b60405161012f9190610e15565b34801561024757600080fd5b506000544210610123565b34801561025e57600080fd5b5061015861026d366004610e63565b6107c6565b34801561027e57600080fd5b5061017a61028d366004610f18565b63bc197c8160e01b95945050505050565b3480156102aa57600080fd5b506102b460005481565b60405190815260200161012f565b3480156102ce57600080fd5b5061017a6102dd366004610fc6565b610828565b3480156102ee57600080fd5b506101586102fd366004611008565b61084b565b34801561030e57600080fd5b5061017a61031d366004611021565b63f23a6e6160e01b95945050505050565b34801561033a57600080fd5b50610343610910565b604080519384526001600160a01b0390921660208401529082015260600161012f565b34801561037257600080fd5b5061012361038136600461108a565b610928565b6000806001600160e01b031983166301ffc9a760e01b14806103b857506001600160e01b03198316630271189760e51b145b806103d357506001600160e01b03198316631dfe9a6f60e31b145b905080156103e45750600192915050565b50600092915050565b60005442101561041057604051636315bfbb60e01b815260040160405180910390fd5b600061041a61068c565b9050336001600160a01b038216146104455760405163ea8e4eb560e01b815260040160405180910390fd5b838281146104665760405163b4fa3fb360e01b815260040160405180910390fd5b60005b818110156105ad57848482818110610483576104836110a7565b905060200201602081019061049891906110bd565b6001600160a01b0384166000908152600160205260408120908989858181106104c3576104c36110a7565b90506020020160208101906104d8919061108a565b6001600160a01b031681526020810191909152604001600020805460ff19169115159190911790557f394777a58092892d136a90c4bb7e4350c72ac50fba6a0208128677f36527dcf583888884818110610534576105346110a7565b9050602002016020810190610549919061108a565b87878581811061055b5761055b6110a7565b905060200201602081019061057091906110bd565b604080516001600160a01b03948516815293909216602084015215159082015260600160405180910390a1806105a5816110f5565b915050610469565b50505050505050565b6000806000806105c4610a11565b92509250925046831480156105e157506001600160a01b03821633145b80156105ec57508581145b1561060a5760405163b79e3f3f60e01b815260040160405180910390fd5b50630a85bd0160e11b979650505050505050565b604051632142170760e11b81523060048201526001600160a01b038581166024830152604482018490528416906342842e0e90606401600060405180830381600087803b15801561066e57600080fd5b505af1158015610682573d6000803e3d6000fd5b5050505050505050565b60008060008061069a610a11565b9250925092504683146106b1576000935050505090565b6040516331a9108f60e11b8152600481018290526001600160a01b03831690636352211e90602401602060405180830381865afa1580156106f6573d6000803e3d6000fd5b505050506040513d601f19601f8201168201806040525081019061071a919061110e565b935050505090565b606061072d33610928565b61074a5760405163ea8e4eb560e01b815260040160405180910390fd5b60005442101561076d57604051636315bfbb60e01b815260040160405180910390fd5b83856001600160a01b03167f47d99ad340f52da66535aff7e10da1ceb85a32bcbd9fa1c42314d194545e14d285856040516107a992919061112b565b60405180910390a36107bd85858585610a64565b95945050505050565b604051632142170760e11b8152336004820152306024820152604481018390526001600160a01b038416906342842e0e90606401600060405180830381600087803b15801561081457600080fd5b505af11580156105ad573d6000803e3d6000fd5b600080610838600482858761115a565b61084191611184565b9150505b92915050565b61085361068c565b6001600160a01b0316336001600160a01b0316146108845760405163ea8e4eb560e01b815260040160405180910390fd5b6000544210156108a757604051636315bfbb60e01b815260040160405180910390fd5b6108b5426301e133806111b4565b8111156108d5576040516301814f7d60e31b815260040160405180910390fd5b60008190556040518181527fa7b24c66dd3269a292a60b3facdbb8f3e7557d1e19e64d99e0d6ee7250be63ad9060200160405180910390a150565b600080600061091d610a11565b925092509250909192565b6000806000610935610a11565b6040516331a9108f60e11b8152600481018290529194509250600091506001600160a01b03841690636352211e90602401602060405180830381865afa158015610983573d6000803e3d6000fd5b505050506040513d601f19601f820116820180604052508101906109a7919061110e565b9050806001600160a01b0316856001600160a01b0316036109cd57506001949350505050565b6001600160a01b0380821660009081526001602090815260408083209389168352929052205460ff1615610a0657506001949350505050565b506000949350505050565b604080516060808252608082019092526000918291829182919060208201818036833701905050905060ad604d60208301303c80806020019051810190610a5891906111c7565b93509350935050909192565b60606000856001600160a01b0316858585604051610a83929190611200565b60006040518083038185875af1925050503d8060008114610ac0576040519150601f19603f3d011682016040523d82523d6000602084013e610ac5565b606091505b509250905080610ad757815160208301fd5b50949350505050565b600060208284031215610af257600080fd5b81356001600160e01b031981168114610b0a57600080fd5b9392505050565b60008083601f840112610b2357600080fd5b50813567ffffffffffffffff811115610b3b57600080fd5b6020830191508360208260051b8501011115610b5657600080fd5b9250929050565b60008060008060408587031215610b7357600080fd5b843567ffffffffffffffff80821115610b8b57600080fd5b610b9788838901610b11565b90965094506020870135915080821115610bb057600080fd5b50610bbd87828801610b11565b95989497509550505050565b6001600160a01b0381168114610bde57600080fd5b50565b634e487b7160e01b600052604160045260246000fd5b604051601f8201601f1916810167ffffffffffffffff81118282101715610c2057610c20610be1565b604052919050565b600082601f830112610c3957600080fd5b813567ffffffffffffffff811115610c5357610c53610be1565b610c66601f8201601f1916602001610bf7565b818152846020838601011115610c7b57600080fd5b816020850160208301376000918101602001919091529392505050565b60008060008060808587031215610cae57600080fd5b8435610cb981610bc9565b93506020850135610cc981610bc9565b925060408501359150606085013567ffffffffffffffff811115610cec57600080fd5b610cf887828801610c28565b91505092959194509250565b60008060408385031215610d1757600080fd5b8235610d2281610bc9565b91506020830135610d3281610bc9565b809150509250929050565b60008060008060808587031215610d5357600080fd5b8435610d5e81610bc9565b93506020850135610d6e81610bc9565b93969395505050506040820135916060013590565b60008083601f840112610d9557600080fd5b50813567ffffffffffffffff811115610dad57600080fd5b602083019150836020828501011115610b5657600080fd5b60008060008060608587031215610ddb57600080fd5b8435610de681610bc9565b935060208501359250604085013567ffffffffffffffff811115610e0957600080fd5b610bbd87828801610d83565b600060208083528351808285015260005b81811015610e4257858101830151858201604001528201610e26565b506000604082860101526040601f19601f8301168501019250505092915050565b600080600060608486031215610e7857600080fd5b8335610e8381610bc9565b95602085013595506040909401359392505050565b600082601f830112610ea957600080fd5b8135602067ffffffffffffffff821115610ec557610ec5610be1565b8160051b610ed4828201610bf7565b9283528481018201928281019087851115610eee57600080fd5b83870192505b84831015610f0d57823582529183019190830190610ef4565b979650505050505050565b600080600080600060a08688031215610f3057600080fd5b8535610f3b81610bc9565b94506020860135610f4b81610bc9565b9350604086013567ffffffffffffffff80821115610f6857600080fd5b610f7489838a01610e98565b94506060880135915080821115610f8a57600080fd5b610f9689838a01610e98565b93506080880135915080821115610fac57600080fd5b50610fb988828901610c28565b9150509295509295909350565b60008060208385031215610fd957600080fd5b823567ffffffffffffffff811115610ff057600080fd5b610ffc85828601610d83565b90969095509350505050565b60006020828403121561101a57600080fd5b5035919050565b600080600080600060a0868803121561103957600080fd5b853561104481610bc9565b9450602086013561105481610bc9565b93506040860135925060608601359150608086013567ffffffffffffffff81111561107e57600080fd5b610fb988828901610c28565b60006020828403121561109c57600080fd5b8135610b0a81610bc9565b634e487b7160e01b600052603260045260246000fd5b6000602082840312156110cf57600080fd5b81358015158114610b0a57600080fd5b634e487b7160e01b600052601160045260246000fd5b600060018201611107576111076110df565b5060010190565b60006020828403121561112057600080fd5b8151610b0a81610bc9565b60208152816020820152818360408301376000818301604090810191909152601f909201601f19160101919050565b6000808585111561116a57600080fd5b8386111561117757600080fd5b5050820193919092039150565b6001600160e01b031981358181169160048510156111ac5780818660040360031b1b83161692505b505092915050565b80820180821115610845576108456110df565b6000806000606084860312156111dc57600080fd5b8351925060208401516111ee81610bc9565b80925050604084015190509250925092565b818382376000910190815291905056fea2646970667358221220e105ff58c6f290e5344d9da1c6821632d331cfe316a40589eb3f0f1148d3a29564736f6c63430008110033",
  "linkReferences": {},
  "deployedLinkReferences": {}
}