{
  "_format": "hh-sol-artifact-1",
  "contractName": "ChargedParticlesAccount",
  "sourceName": "contracts/ChargedParticlesAccount.sol",
  "abi": [
    {
      "inputs": [],
      "name": "AccountLocked",
      "type": "error"
    },
    {
      "inputs": [],
      "name": "ExceedsMaxLockTime",
      "type": "error"
    },
    {
      "inputs": [],
      "name": "InvalidInput",
      "type": "error"
    },
    {
      "inputs": [],
      "name": "NotAuthorized",
      "type": "error"
    },
    {
      "inputs": [],
      "name": "OwnershipCycle",
      "type": "error"
    },
    {
      "anonymous": false,
      "inputs": [
        {
          "indexed": false,
          "internalType": "uint256",
          "name": "lockedUntil",
          "type": "uint256"
        }
      ],
      "name": "LockUpdated",
      "type": "event"
    },
    {
      "anonymous": false,
      "inputs": [
        {
          "indexed": false,
          "internalType": "address",
          "name": "owner",
          "type": "address"
        },
        {
          "indexed": false,
          "internalType": "bytes4",
          "name": "selector",
          "type": "bytes4"
        },
        {
          "indexed": false,
          "internalType": "address",
          "name": "implementation",
          "type": "address"
        }
      ],
      "name": "OverrideUpdated",
      "type": "event"
    },
    {
      "anonymous": false,
      "inputs": [
        {
          "indexed": false,
          "internalType": "address",
          "name": "owner",
          "type": "address"
        },
        {
          "indexed": false,
          "internalType": "address",
          "name": "caller",
          "type": "address"
        },
        {
          "indexed": false,
          "internalType": "bool",
          "name": "hasPermission",
          "type": "bool"
        }
      ],
      "name": "PermissionUpdated",
      "type": "event"
    },
    {
      "anonymous": false,
      "inputs": [
        {
          "indexed": true,
          "internalType": "address",
          "name": "target",
          "type": "address"
        },
        {
          "indexed": true,
          "internalType": "uint256",
          "name": "value",
          "type": "uint256"
        },
        {
          "indexed": false,
          "internalType": "bytes",
          "name": "data",
          "type": "bytes"
        }
      ],
      "name": "TransactionExecuted",
      "type": "event"
    },
    {
      "inputs": [
        {
          "internalType": "address",
          "name": "contractAddress",
          "type": "address"
        },
        {
          "internalType": "uint256",
          "name": "tokenId",
          "type": "uint256"
        },
        {
          "internalType": "string",
          "name": "basketManagerId",
          "type": "string"
        },
        {
          "internalType": "address",
          "name": "nftTokenAddress",
          "type": "address"
        },
        {
          "internalType": "uint256",
          "name": "nftTokenId",
          "type": "uint256"
        },
        {
          "internalType": "uint256",
          "name": "nftTokenAmount",
          "type": "uint256"
        }
      ],
      "name": "covalentBond",
      "outputs": [
        {
          "internalType": "bool",
          "name": "success",
          "type": "bool"
        }
      ],
      "stateMutability": "nonpayable",
      "type": "function"
    },
    {
      "inputs": [
        {
          "internalType": "address",
          "name": "to",
          "type": "address"
        },
        {
          "internalType": "uint256",
          "name": "value",
          "type": "uint256"
        },
        {
          "internalType": "bytes",
          "name": "data",
          "type": "bytes"
        }
      ],
      "name": "executeCall",
      "outputs": [
        {
          "internalType": "bytes",
          "name": "",
          "type": "bytes"
        }
      ],
      "stateMutability": "payable",
      "type": "function"
    },
    {
      "inputs": [
        {
          "internalType": "address",
          "name": "caller",
          "type": "address"
        }
      ],
      "name": "isAuthorized",
      "outputs": [
        {
          "internalType": "bool",
          "name": "",
          "type": "bool"
        }
      ],
      "stateMutability": "view",
      "type": "function"
    },
    {
      "inputs": [],
      "name": "isLocked",
      "outputs": [
        {
          "internalType": "bool",
          "name": "",
          "type": "bool"
        }
      ],
      "stateMutability": "view",
      "type": "function"
    },
    {
      "inputs": [
        {
          "internalType": "uint256",
          "name": "_lockedUntil",
          "type": "uint256"
        }
      ],
      "name": "lock",
      "outputs": [],
      "stateMutability": "nonpayable",
      "type": "function"
    },
    {
      "inputs": [],
      "name": "lockedUntil",
      "outputs": [
        {
          "internalType": "uint256",
          "name": "",
          "type": "uint256"
        }
      ],
      "stateMutability": "view",
      "type": "function"
    },
    {
      "inputs": [
        {
          "internalType": "address",
          "name": "",
          "type": "address"
        },
        {
          "internalType": "address",
          "name": "",
          "type": "address"
        },
        {
          "internalType": "uint256[]",
          "name": "",
          "type": "uint256[]"
        },
        {
          "internalType": "uint256[]",
          "name": "",
          "type": "uint256[]"
        },
        {
          "internalType": "bytes",
          "name": "",
          "type": "bytes"
        }
      ],
      "name": "onERC1155BatchReceived",
      "outputs": [
        {
          "internalType": "bytes4",
          "name": "",
          "type": "bytes4"
        }
      ],
      "stateMutability": "pure",
      "type": "function"
    },
    {
      "inputs": [
        {
          "internalType": "address",
          "name": "",
          "type": "address"
        },
        {
          "internalType": "address",
          "name": "",
          "type": "address"
        },
        {
          "internalType": "uint256",
          "name": "",
          "type": "uint256"
        },
        {
          "internalType": "uint256",
          "name": "",
          "type": "uint256"
        },
        {
          "internalType": "bytes",
          "name": "",
          "type": "bytes"
        }
      ],
      "name": "onERC1155Received",
      "outputs": [
        {
          "internalType": "bytes4",
          "name": "",
          "type": "bytes4"
        }
      ],
      "stateMutability": "pure",
      "type": "function"
    },
    {
      "inputs": [
        {
          "internalType": "address",
          "name": "",
          "type": "address"
        },
        {
          "internalType": "address",
          "name": "",
          "type": "address"
        },
        {
          "internalType": "uint256",
          "name": "receivedTokenId",
          "type": "uint256"
        },
        {
          "internalType": "bytes",
          "name": "",
          "type": "bytes"
        }
      ],
      "name": "onERC721Received",
      "outputs": [
        {
          "internalType": "bytes4",
          "name": "",
          "type": "bytes4"
        }
      ],
      "stateMutability": "view",
      "type": "function"
    },
    {
      "inputs": [],
      "name": "owner",
      "outputs": [
        {
          "internalType": "address",
          "name": "",
          "type": "address"
        }
      ],
      "stateMutability": "view",
      "type": "function"
    },
    {
      "inputs": [
        {
          "internalType": "address",
          "name": "",
          "type": "address"
        },
        {
          "internalType": "address",
          "name": "",
          "type": "address"
        }
      ],
      "name": "permissions",
      "outputs": [
        {
          "internalType": "bool",
          "name": "",
          "type": "bool"
        }
      ],
      "stateMutability": "view",
      "type": "function"
    },
    {
      "inputs": [
        {
          "internalType": "address[]",
          "name": "callers",
          "type": "address[]"
        },
        {
          "internalType": "bool[]",
          "name": "_permissions",
          "type": "bool[]"
        }
      ],
      "name": "setPermissions",
      "outputs": [],
      "stateMutability": "nonpayable",
      "type": "function"
    },
    {
      "inputs": [
        {
          "internalType": "bytes4",
          "name": "interfaceId",
          "type": "bytes4"
        }
      ],
      "name": "supportsInterface",
      "outputs": [
        {
          "internalType": "bool",
          "name": "",
          "type": "bool"
        }
      ],
      "stateMutability": "pure",
      "type": "function"
    },
    {
      "inputs": [],
      "name": "token",
      "outputs": [
        {
          "internalType": "uint256",
          "name": "chainId",
          "type": "uint256"
        },
        {
          "internalType": "address",
          "name": "tokenContract",
          "type": "address"
        },
        {
          "internalType": "uint256",
          "name": "tokenId",
          "type": "uint256"
        }
      ],
      "stateMutability": "view",
      "type": "function"
    },
    {
      "stateMutability": "payable",
      "type": "receive"
    }
  ],
  "bytecode": "0x608060405234801561001057600080fd5b5061107a806100206000396000f3fe6080604052600436106100e15760003560e01c8063a4e2d6341161007f578063dd46706411610059578063dd46706414610294578063f23a6e61146102b4578063fc0c546a146102e0578063fe9fbb801461031857600080fd5b8063a4e2d6341461022d578063bc197c8114610244578063ce0617ec1461027057600080fd5b80631f9838b5116100bb5780631f9838b51461017d5780633ff956cc146101b85780638da5cb5b146101e05780639e5d4c491461020d57600080fd5b806301ffc9a7146100ed578063039721b114610122578063150b7a021461014457600080fd5b366100e857005b600080fd5b3480156100f957600080fd5b5061010d61010836600461099f565b610338565b60405190151581526020015b60405180910390f35b34801561012e57600080fd5b5061014261013d366004610a1c565b61039f565b005b34801561015057600080fd5b5061016461015f366004610b57565b610568565b6040516001600160e01b03199091168152602001610119565b34801561018957600080fd5b5061010d610198366004610bc3565b600160209081526000928352604080842090915290825290205460ff1681565b3480156101c457600080fd5b5061010d6101d3366004610c3e565b6000979650505050505050565b3480156101ec57600080fd5b506101f56105d0565b6040516001600160a01b039091168152602001610119565b61022061021b366004610cc4565b610666565b6040516101199190610d14565b34801561023957600080fd5b50600054421061010d565b34801561025057600080fd5b5061016461025f366004610de2565b63bc197c8160e01b95945050505050565b34801561027c57600080fd5b5061028660005481565b604051908152602001610119565b3480156102a057600080fd5b506101426102af366004610e90565b61070a565b3480156102c057600080fd5b506101646102cf366004610ea9565b63f23a6e6160e01b95945050505050565b3480156102ec57600080fd5b506102f56107cf565b604080519384526001600160a01b03909216602084015290820152606001610119565b34801561032457600080fd5b5061010d610333366004610f12565b6107e7565b6000806001600160e01b031983166301ffc9a760e01b148061036a57506001600160e01b03198316630271189760e51b145b8061038557506001600160e01b03198316631dfe9a6f60e31b145b905080156103965750600192915050565b50600092915050565b6000544210156103c257604051636315bfbb60e01b815260040160405180910390fd5b60006103cc6105d0565b9050336001600160a01b038216146103f75760405163ea8e4eb560e01b815260040160405180910390fd5b838281146104185760405163b4fa3fb360e01b815260040160405180910390fd5b60005b8181101561055f5784848281811061043557610435610f2f565b905060200201602081019061044a9190610f45565b6001600160a01b03841660009081526001602052604081209089898581811061047557610475610f2f565b905060200201602081019061048a9190610f12565b6001600160a01b031681526020810191909152604001600020805460ff19169115159190911790557f394777a58092892d136a90c4bb7e4350c72ac50fba6a0208128677f36527dcf5838888848181106104e6576104e6610f2f565b90506020020160208101906104fb9190610f12565b87878581811061050d5761050d610f2f565b90506020020160208101906105229190610f45565b604080516001600160a01b03948516815293909216602084015215159082015260600160405180910390a18061055781610f7d565b91505061041b565b50505050505050565b6000806000806105766108d0565b925092509250468314801561059357506001600160a01b03821633145b801561059e57508581145b156105bc5760405163b79e3f3f60e01b815260040160405180910390fd5b50630a85bd0160e11b979650505050505050565b6000806000806105de6108d0565b9250925092504683146105f5576000935050505090565b6040516331a9108f60e11b8152600481018290526001600160a01b03831690636352211e90602401602060405180830381865afa15801561063a573d6000803e3d6000fd5b505050506040513d601f19601f8201168201806040525081019061065e9190610f96565b935050505090565b6060610671336107e7565b61068e5760405163ea8e4eb560e01b815260040160405180910390fd5b6000544210156106b157604051636315bfbb60e01b815260040160405180910390fd5b83856001600160a01b03167f47d99ad340f52da66535aff7e10da1ceb85a32bcbd9fa1c42314d194545e14d285856040516106ed929190610fb3565b60405180910390a361070185858585610923565b95945050505050565b6107126105d0565b6001600160a01b0316336001600160a01b0316146107435760405163ea8e4eb560e01b815260040160405180910390fd5b60005442101561076657604051636315bfbb60e01b815260040160405180910390fd5b610774426301e13380610fe2565b811115610794576040516301814f7d60e31b815260040160405180910390fd5b60008190556040518181527fa7b24c66dd3269a292a60b3facdbb8f3e7557d1e19e64d99e0d6ee7250be63ad9060200160405180910390a150565b60008060006107dc6108d0565b925092509250909192565b60008060006107f46108d0565b6040516331a9108f60e11b8152600481018290529194509250600091506001600160a01b03841690636352211e90602401602060405180830381865afa158015610842573d6000803e3d6000fd5b505050506040513d601f19601f820116820180604052508101906108669190610f96565b9050806001600160a01b0316856001600160a01b03160361088c57506001949350505050565b6001600160a01b0380821660009081526001602090815260408083209389168352929052205460ff16156108c557506001949350505050565b506000949350505050565b604080516060808252608082019092526000918291829182919060208201818036833701905050905060ad604d60208301303c808060200190518101906109179190610ffb565b93509350935050909192565b60606000856001600160a01b0316858585604051610942929190611034565b60006040518083038185875af1925050503d806000811461097f576040519150601f19603f3d011682016040523d82523d6000602084013e610984565b606091505b50925090508061099657815160208301fd5b50949350505050565b6000602082840312156109b157600080fd5b81356001600160e01b0319811681146109c957600080fd5b9392505050565b60008083601f8401126109e257600080fd5b50813567ffffffffffffffff8111156109fa57600080fd5b6020830191508360208260051b8501011115610a1557600080fd5b9250929050565b60008060008060408587031215610a3257600080fd5b843567ffffffffffffffff80821115610a4a57600080fd5b610a56888389016109d0565b90965094506020870135915080821115610a6f57600080fd5b50610a7c878288016109d0565b95989497509550505050565b6001600160a01b0381168114610a9d57600080fd5b50565b634e487b7160e01b600052604160045260246000fd5b604051601f8201601f1916810167ffffffffffffffff81118282101715610adf57610adf610aa0565b604052919050565b600082601f830112610af857600080fd5b813567ffffffffffffffff811115610b1257610b12610aa0565b610b25601f8201601f1916602001610ab6565b818152846020838601011115610b3a57600080fd5b816020850160208301376000918101602001919091529392505050565b60008060008060808587031215610b6d57600080fd5b8435610b7881610a88565b93506020850135610b8881610a88565b925060408501359150606085013567ffffffffffffffff811115610bab57600080fd5b610bb787828801610ae7565b91505092959194509250565b60008060408385031215610bd657600080fd5b8235610be181610a88565b91506020830135610bf181610a88565b809150509250929050565b60008083601f840112610c0e57600080fd5b50813567ffffffffffffffff811115610c2657600080fd5b602083019150836020828501011115610a1557600080fd5b600080600080600080600060c0888a031215610c5957600080fd5b8735610c6481610a88565b965060208801359550604088013567ffffffffffffffff811115610c8757600080fd5b610c938a828b01610bfc565b9096509450506060880135610ca781610a88565b969995985093969295946080840135945060a09093013592915050565b60008060008060608587031215610cda57600080fd5b8435610ce581610a88565b935060208501359250604085013567ffffffffffffffff811115610d0857600080fd5b610a7c87828801610bfc565b600060208083528351808285015260005b81811015610d4157858101830151858201604001528201610d25565b506000604082860101526040601f19601f8301168501019250505092915050565b600082601f830112610d7357600080fd5b8135602067ffffffffffffffff821115610d8f57610d8f610aa0565b8160051b610d9e828201610ab6565b9283528481018201928281019087851115610db857600080fd5b83870192505b84831015610dd757823582529183019190830190610dbe565b979650505050505050565b600080600080600060a08688031215610dfa57600080fd5b8535610e0581610a88565b94506020860135610e1581610a88565b9350604086013567ffffffffffffffff80821115610e3257600080fd5b610e3e89838a01610d62565b94506060880135915080821115610e5457600080fd5b610e6089838a01610d62565b93506080880135915080821115610e7657600080fd5b50610e8388828901610ae7565b9150509295509295909350565b600060208284031215610ea257600080fd5b5035919050565b600080600080600060a08688031215610ec157600080fd5b8535610ecc81610a88565b94506020860135610edc81610a88565b93506040860135925060608601359150608086013567ffffffffffffffff811115610f0657600080fd5b610e8388828901610ae7565b600060208284031215610f2457600080fd5b81356109c981610a88565b634e487b7160e01b600052603260045260246000fd5b600060208284031215610f5757600080fd5b813580151581146109c957600080fd5b634e487b7160e01b600052601160045260246000fd5b600060018201610f8f57610f8f610f67565b5060010190565b600060208284031215610fa857600080fd5b81516109c981610a88565b60208152816020820152818360408301376000818301604090810191909152601f909201601f19160101919050565b80820180821115610ff557610ff5610f67565b92915050565b60008060006060848603121561101057600080fd5b83519250602084015161102281610a88565b80925050604084015190509250925092565b818382376000910190815291905056fea264697066735822122072de4bddfaa6ccde56ae43975a9a19ad2f99076f5bc8ab728314c1075b86c27564736f6c63430008110033",
  "linkReferences": {},
  "deployedLinkReferences": {}
}