{
  "_format": "hh-sol-artifact-1",
  "contractName": "ChargedParticlesAccount",
  "sourceName": "contracts/ChargedParticlesAccount.sol",
  "abi": [
    {
      "inputs": [],
      "name": "AccountLocked",
      "type": "error"
    },
    {
      "inputs": [],
      "name": "ExceedsMaxLockTime",
      "type": "error"
    },
    {
      "inputs": [],
      "name": "InvalidInput",
      "type": "error"
    },
    {
      "inputs": [],
      "name": "NotAuthorized",
      "type": "error"
    },
    {
      "inputs": [],
      "name": "OwnershipCycle",
      "type": "error"
    },
    {
      "anonymous": false,
      "inputs": [
        {
          "indexed": false,
          "internalType": "uint256",
          "name": "lockedUntil",
          "type": "uint256"
        }
      ],
      "name": "LockUpdated",
      "type": "event"
    },
    {
      "anonymous": false,
      "inputs": [
        {
          "indexed": false,
          "internalType": "address",
          "name": "owner",
          "type": "address"
        },
        {
          "indexed": false,
          "internalType": "bytes4",
          "name": "selector",
          "type": "bytes4"
        },
        {
          "indexed": false,
          "internalType": "address",
          "name": "implementation",
          "type": "address"
        }
      ],
      "name": "OverrideUpdated",
      "type": "event"
    },
    {
      "anonymous": false,
      "inputs": [
        {
          "indexed": false,
          "internalType": "address",
          "name": "owner",
          "type": "address"
        },
        {
          "indexed": false,
          "internalType": "address",
          "name": "caller",
          "type": "address"
        },
        {
          "indexed": false,
          "internalType": "bool",
          "name": "hasPermission",
          "type": "bool"
        }
      ],
      "name": "PermissionUpdated",
      "type": "event"
    },
    {
      "inputs": [
        {
          "internalType": "address",
          "name": "receiver",
          "type": "address"
        },
        {
          "internalType": "address",
          "name": "nftTokenAddress",
          "type": "address"
        },
        {
          "internalType": "uint256",
          "name": "nftTokenId",
          "type": "uint256"
        },
        {
          "internalType": "uint256",
          "name": "nftTokenAmount",
          "type": "uint256"
        }
      ],
      "name": "breakCovalentBond",
      "outputs": [],
      "stateMutability": "nonpayable",
      "type": "function"
    },
    {
      "inputs": [
        {
          "internalType": "address",
          "name": "nftTokenAddress",
          "type": "address"
        },
        {
          "internalType": "uint256",
          "name": "nftTokenId",
          "type": "uint256"
        },
        {
          "internalType": "uint256",
          "name": "nftTokenAmount",
          "type": "uint256"
        }
      ],
      "name": "covalentBond",
      "outputs": [],
      "stateMutability": "nonpayable",
      "type": "function"
    },
    {
      "inputs": [
        {
          "internalType": "address",
          "name": "receiver",
          "type": "address"
        },
        {
          "internalType": "address",
          "name": "assetToken",
          "type": "address"
        },
        {
          "internalType": "uint256",
          "name": "assetAmount",
          "type": "uint256"
        }
      ],
      "name": "dischargeParticle",
      "outputs": [],
      "stateMutability": "nonpayable",
      "type": "function"
    },
    {
      "inputs": [
        {
          "internalType": "address",
          "name": "assetToken",
          "type": "address"
        },
        {
          "internalType": "uint256",
          "name": "assetAmount",
          "type": "uint256"
        }
      ],
      "name": "energizeParticle",
      "outputs": [],
      "stateMutability": "nonpayable",
      "type": "function"
    },
    {
      "inputs": [
        {
          "internalType": "address",
          "name": "to",
          "type": "address"
        },
        {
          "internalType": "uint256",
          "name": "value",
          "type": "uint256"
        },
        {
          "internalType": "bytes",
          "name": "data",
          "type": "bytes"
        },
        {
          "internalType": "uint8",
          "name": "operation",
          "type": "uint8"
        }
      ],
      "name": "execute",
      "outputs": [
        {
          "internalType": "bytes",
          "name": "",
          "type": "bytes"
        }
      ],
      "stateMutability": "payable",
      "type": "function"
    },
    {
      "inputs": [],
      "name": "isLocked",
      "outputs": [
        {
          "internalType": "bool",
          "name": "",
          "type": "bool"
        }
      ],
      "stateMutability": "view",
      "type": "function"
    },
    {
      "inputs": [
        {
          "internalType": "address",
          "name": "signer",
          "type": "address"
        },
        {
          "internalType": "bytes",
          "name": "context",
          "type": "bytes"
        }
      ],
      "name": "isValidSigner",
      "outputs": [
        {
          "internalType": "bytes4",
          "name": "magicValue",
          "type": "bytes4"
        }
      ],
      "stateMutability": "view",
      "type": "function"
    },
    {
      "inputs": [
        {
          "internalType": "uint256",
          "name": "_lockedUntil",
          "type": "uint256"
        }
      ],
      "name": "lock",
      "outputs": [],
      "stateMutability": "nonpayable",
      "type": "function"
    },
    {
      "inputs": [],
      "name": "lockedUntil",
      "outputs": [
        {
          "internalType": "uint256",
          "name": "",
          "type": "uint256"
        }
      ],
      "stateMutability": "view",
      "type": "function"
    },
    {
      "inputs": [
        {
          "internalType": "address",
          "name": "",
          "type": "address"
        },
        {
          "internalType": "address",
          "name": "",
          "type": "address"
        },
        {
          "internalType": "uint256[]",
          "name": "",
          "type": "uint256[]"
        },
        {
          "internalType": "uint256[]",
          "name": "",
          "type": "uint256[]"
        },
        {
          "internalType": "bytes",
          "name": "",
          "type": "bytes"
        }
      ],
      "name": "onERC1155BatchReceived",
      "outputs": [
        {
          "internalType": "bytes4",
          "name": "",
          "type": "bytes4"
        }
      ],
      "stateMutability": "pure",
      "type": "function"
    },
    {
      "inputs": [
        {
          "internalType": "address",
          "name": "",
          "type": "address"
        },
        {
          "internalType": "address",
          "name": "",
          "type": "address"
        },
        {
          "internalType": "uint256",
          "name": "",
          "type": "uint256"
        },
        {
          "internalType": "uint256",
          "name": "",
          "type": "uint256"
        },
        {
          "internalType": "bytes",
          "name": "",
          "type": "bytes"
        }
      ],
      "name": "onERC1155Received",
      "outputs": [
        {
          "internalType": "bytes4",
          "name": "",
          "type": "bytes4"
        }
      ],
      "stateMutability": "pure",
      "type": "function"
    },
    {
      "inputs": [
        {
          "internalType": "address",
          "name": "",
          "type": "address"
        },
        {
          "internalType": "address",
          "name": "",
          "type": "address"
        },
        {
          "internalType": "uint256",
          "name": "receivedTokenId",
          "type": "uint256"
        },
        {
          "internalType": "bytes",
          "name": "",
          "type": "bytes"
        }
      ],
      "name": "onERC721Received",
      "outputs": [
        {
          "internalType": "bytes4",
          "name": "",
          "type": "bytes4"
        }
      ],
      "stateMutability": "view",
      "type": "function"
    },
    {
      "inputs": [],
      "name": "owner",
      "outputs": [
        {
          "internalType": "address",
          "name": "",
          "type": "address"
        }
      ],
      "stateMutability": "view",
      "type": "function"
    },
    {
      "inputs": [
        {
          "internalType": "bytes",
          "name": "_data",
          "type": "bytes"
        }
      ],
      "name": "parseFirst4Bytes",
      "outputs": [
        {
          "internalType": "bytes4",
          "name": "",
          "type": "bytes4"
        }
      ],
      "stateMutability": "pure",
      "type": "function"
    },
    {
      "inputs": [
        {
          "internalType": "address",
          "name": "",
          "type": "address"
        },
        {
          "internalType": "address",
          "name": "",
          "type": "address"
        }
      ],
      "name": "permissions",
      "outputs": [
        {
          "internalType": "bool",
          "name": "",
          "type": "bool"
        }
      ],
      "stateMutability": "view",
      "type": "function"
    },
    {
      "inputs": [
        {
          "internalType": "address[]",
          "name": "callers",
          "type": "address[]"
        },
        {
          "internalType": "bool[]",
          "name": "_permissions",
          "type": "bool[]"
        }
      ],
      "name": "setPermissions",
      "outputs": [],
      "stateMutability": "nonpayable",
      "type": "function"
    },
    {
      "inputs": [],
      "name": "state",
      "outputs": [
        {
          "internalType": "uint256",
          "name": "",
          "type": "uint256"
        }
      ],
      "stateMutability": "view",
      "type": "function"
    },
    {
      "inputs": [
        {
          "internalType": "bytes4",
          "name": "interfaceId",
          "type": "bytes4"
        }
      ],
      "name": "supportsInterface",
      "outputs": [
        {
          "internalType": "bool",
          "name": "",
          "type": "bool"
        }
      ],
      "stateMutability": "pure",
      "type": "function"
    },
    {
      "inputs": [],
      "name": "token",
      "outputs": [
        {
          "internalType": "uint256",
          "name": "chainId",
          "type": "uint256"
        },
        {
          "internalType": "address",
          "name": "tokenContract",
          "type": "address"
        },
        {
          "internalType": "uint256",
          "name": "tokenId",
          "type": "uint256"
        }
      ],
      "stateMutability": "view",
      "type": "function"
    },
    {
      "stateMutability": "payable",
      "type": "receive"
    }
  ],
  "bytecode": "0x608060405234801561001057600080fd5b50611509806100206000396000f3fe6080604052600436106101185760003560e01c8063a65e78f1116100a0578063ce0617ec11610064578063ce0617ec1461033d578063d0ad253514610353578063dd46706414610373578063f23a6e6114610393578063fc0c546a146103bf57600080fd5b8063a65e78f114610293578063a737a299146102b3578063bc197c81146102d3578063c19d93fb146102ff578063ca1cc2201461031d57600080fd5b806351945447116100e757806351945447146101ef578063523e32601461020f5780636b764e1b1461022f5780638da5cb5b1461024f578063a4e2d6341461027c57600080fd5b806301ffc9a714610124578063039721b114610159578063150b7a021461017b5780631f9838b5146101b457600080fd5b3661011f57005b600080fd5b34801561013057600080fd5b5061014461013f366004610cc7565b6103f7565b60405190151581526020015b60405180910390f35b34801561016557600080fd5b50610179610174366004610d3d565b61045e565b005b34801561018757600080fd5b5061019b610196366004610e78565b610627565b6040516001600160e01b03199091168152602001610150565b3480156101c057600080fd5b506101446101cf366004610ee4565b600160209081526000928352604080842090915290825290205460ff1681565b6102026101fd366004610f5f565b61068f565b6040516101509190610fd9565b34801561021b57600080fd5b5061019b61022a366004611027565b610760565b34801561023b57600080fd5b5061017961024a36600461107c565b610864565b34801561025b57600080fd5b506102646108d2565b6040516001600160a01b039091168152602001610150565b34801561028857600080fd5b506000544210610144565b34801561029f57600080fd5b506101796102ae3660046110c2565b610968565b3480156102bf57600080fd5b506101796102ce3660046110ee565b6109e4565b3480156102df57600080fd5b5061019b6102ee3660046111a3565b63bc197c8160e01b95945050505050565b34801561030b57600080fd5b5060015b604051908152602001610150565b34801561032957600080fd5b50610179610338366004611251565b610a46565b34801561034957600080fd5b5061030f60005481565b34801561035f57600080fd5b5061019b61036e366004611292565b610abf565b34801561037f57600080fd5b5061017961038e3660046112d4565b610ae0565b34801561039f57600080fd5b5061019b6103ae3660046112ed565b63f23a6e6160e01b95945050505050565b3480156103cb57600080fd5b506103d4610ba5565b604080519384526001600160a01b03909216602084015290820152606001610150565b6000806001600160e01b031983166301ffc9a760e01b148061042957506001600160e01b03198316630271189760e51b145b8061044457506001600160e01b03198316636faff5f160e01b145b905080156104555750600192915050565b50600092915050565b60005442101561048157604051636315bfbb60e01b815260040160405180910390fd5b600061048b6108d2565b9050336001600160a01b038216146104b65760405163ea8e4eb560e01b815260040160405180910390fd5b838281146104d75760405163b4fa3fb360e01b815260040160405180910390fd5b60005b8181101561061e578484828181106104f4576104f4611356565b9050602002016020810190610509919061137a565b6001600160a01b03841660009081526001602052604081209089898581811061053457610534611356565b90506020020160208101906105499190611397565b6001600160a01b031681526020810191909152604001600020805460ff19169115159190911790557f394777a58092892d136a90c4bb7e4350c72ac50fba6a0208128677f36527dcf5838888848181106105a5576105a5611356565b90506020020160208101906105ba9190611397565b8787858181106105cc576105cc611356565b90506020020160208101906105e1919061137a565b604080516001600160a01b03948516815293909216602084015215159082015260600160405180910390a180610616816113ca565b9150506104da565b50505050505050565b600080600080610635610bbd565b925092509250468314801561065257506001600160a01b03821633145b801561065d57508581145b1561067b5760405163b79e3f3f60e01b815260040160405180910390fd5b50630a85bd0160e11b979650505050505050565b6060838361069e338383610760565b6001600160e01b03191663523e326060e01b146106ce5760405163ea8e4eb560e01b815260040160405180910390fd5b6000544210156106f157604051636315bfbb60e01b815260040160405180910390fd5b85856106fd8282610c10565b6107465760405162461bcd60e51b815260206004820152601660248201527513595d1a1bd908185b1b081b9bdd08185b1b1bddd95960521b604482015260640160405180910390fd5b6107528a8a8a8a610c4b565b9a9950505050505050505050565b600080600061076d610bbd565b6040516331a9108f60e11b8152600481018290529194509250600091506001600160a01b03841690636352211e90602401602060405180830381865afa1580156107bb573d6000803e3d6000fd5b505050506040513d601f19601f820116820180604052508101906107df91906113e3565b9050806001600160a01b0316876001600160a01b03160361080d5750630291f19360e51b925061085d915050565b6001600160a01b038082166000908152600160209081526040808320938b168352929052205460ff161561084e5750630291f19360e51b925061085d915050565b506001600160e01b0319925050505b9392505050565b604051632142170760e11b81523060048201526001600160a01b038581166024830152604482018490528416906342842e0e90606401600060405180830381600087803b1580156108b457600080fd5b505af11580156108c8573d6000803e3d6000fd5b5050505050505050565b6000806000806108e0610bbd565b9250925092504683146108f7576000935050505090565b6040516331a9108f60e11b8152600481018290526001600160a01b03831690636352211e90602401602060405180830381865afa15801561093c573d6000803e3d6000fd5b505050506040513d601f19601f8201168201806040525081019061096091906113e3565b935050505090565b6040516323b872dd60e01b8152336004820152306024820152604481018290526001600160a01b038316906323b872dd906064016020604051808303816000875af11580156109bb573d6000803e3d6000fd5b505050506040513d601f19601f820116820180604052508101906109df9190611400565b505050565b604051632142170760e11b8152336004820152306024820152604481018390526001600160a01b038416906342842e0e90606401600060405180830381600087803b158015610a3257600080fd5b505af115801561061e573d6000803e3d6000fd5b60405163a9059cbb60e01b81526001600160a01b0384811660048301526024820183905283169063a9059cbb906044016020604051808303816000875af1158015610a95573d6000803e3d6000fd5b505050506040513d601f19601f82011682018060405250810190610ab99190611400565b50505050565b6000610ace600482848661141d565b610ad791611447565b90505b92915050565b610ae86108d2565b6001600160a01b0316336001600160a01b031614610b195760405163ea8e4eb560e01b815260040160405180910390fd5b600054421015610b3c57604051636315bfbb60e01b815260040160405180910390fd5b610b4a426301e13380611477565b811115610b6a576040516301814f7d60e31b815260040160405180910390fd5b60008190556040518181527fa7b24c66dd3269a292a60b3facdbb8f3e7557d1e19e64d99e0d6ee7250be63ad9060200160405180910390a150565b6000806000610bb2610bbd565b925092509250909192565b604080516060808252608082019092526000918291829182919060208201818036833701905050905060ad604d60208301303c80806020019051810190610c04919061148a565b93509350935050909192565b600080610c1d8484610abf565b90506001600160e01b0319811663095ea7b360e01b03610c41576000915050610ada565b5060019392505050565b60606000856001600160a01b0316858585604051610c6a9291906114c3565b60006040518083038185875af1925050503d8060008114610ca7576040519150601f19603f3d011682016040523d82523d6000602084013e610cac565b606091505b509250905080610cbe57815160208301fd5b50949350505050565b600060208284031215610cd957600080fd5b81356001600160e01b03198116811461085d57600080fd5b60008083601f840112610d0357600080fd5b50813567ffffffffffffffff811115610d1b57600080fd5b6020830191508360208260051b8501011115610d3657600080fd5b9250929050565b60008060008060408587031215610d5357600080fd5b843567ffffffffffffffff80821115610d6b57600080fd5b610d7788838901610cf1565b90965094506020870135915080821115610d9057600080fd5b50610d9d87828801610cf1565b95989497509550505050565b6001600160a01b0381168114610dbe57600080fd5b50565b634e487b7160e01b600052604160045260246000fd5b604051601f8201601f1916810167ffffffffffffffff81118282101715610e0057610e00610dc1565b604052919050565b600082601f830112610e1957600080fd5b813567ffffffffffffffff811115610e3357610e33610dc1565b610e46601f8201601f1916602001610dd7565b818152846020838601011115610e5b57600080fd5b816020850160208301376000918101602001919091529392505050565b60008060008060808587031215610e8e57600080fd5b8435610e9981610da9565b93506020850135610ea981610da9565b925060408501359150606085013567ffffffffffffffff811115610ecc57600080fd5b610ed887828801610e08565b91505092959194509250565b60008060408385031215610ef757600080fd5b8235610f0281610da9565b91506020830135610f1281610da9565b809150509250929050565b60008083601f840112610f2f57600080fd5b50813567ffffffffffffffff811115610f4757600080fd5b602083019150836020828501011115610d3657600080fd5b600080600080600060808688031215610f7757600080fd5b8535610f8281610da9565b945060208601359350604086013567ffffffffffffffff811115610fa557600080fd5b610fb188828901610f1d565b909450925050606086013560ff81168114610fcb57600080fd5b809150509295509295909350565b600060208083528351808285015260005b8181101561100657858101830151858201604001528201610fea565b506000604082860101526040601f19601f8301168501019250505092915050565b60008060006040848603121561103c57600080fd5b833561104781610da9565b9250602084013567ffffffffffffffff81111561106357600080fd5b61106f86828701610f1d565b9497909650939450505050565b6000806000806080858703121561109257600080fd5b843561109d81610da9565b935060208501356110ad81610da9565b93969395505050506040820135916060013590565b600080604083850312156110d557600080fd5b82356110e081610da9565b946020939093013593505050565b60008060006060848603121561110357600080fd5b833561110e81610da9565b95602085013595506040909401359392505050565b600082601f83011261113457600080fd5b8135602067ffffffffffffffff82111561115057611150610dc1565b8160051b61115f828201610dd7565b928352848101820192828101908785111561117957600080fd5b83870192505b848310156111985782358252918301919083019061117f565b979650505050505050565b600080600080600060a086880312156111bb57600080fd5b85356111c681610da9565b945060208601356111d681610da9565b9350604086013567ffffffffffffffff808211156111f357600080fd5b6111ff89838a01611123565b9450606088013591508082111561121557600080fd5b61122189838a01611123565b9350608088013591508082111561123757600080fd5b5061124488828901610e08565b9150509295509295909350565b60008060006060848603121561126657600080fd5b833561127181610da9565b9250602084013561128181610da9565b929592945050506040919091013590565b600080602083850312156112a557600080fd5b823567ffffffffffffffff8111156112bc57600080fd5b6112c885828601610f1d565b90969095509350505050565b6000602082840312156112e657600080fd5b5035919050565b600080600080600060a0868803121561130557600080fd5b853561131081610da9565b9450602086013561132081610da9565b93506040860135925060608601359150608086013567ffffffffffffffff81111561134a57600080fd5b61124488828901610e08565b634e487b7160e01b600052603260045260246000fd5b8015158114610dbe57600080fd5b60006020828403121561138c57600080fd5b813561085d8161136c565b6000602082840312156113a957600080fd5b813561085d81610da9565b634e487b7160e01b600052601160045260246000fd5b6000600182016113dc576113dc6113b4565b5060010190565b6000602082840312156113f557600080fd5b815161085d81610da9565b60006020828403121561141257600080fd5b815161085d8161136c565b6000808585111561142d57600080fd5b8386111561143a57600080fd5b5050820193919092039150565b6001600160e01b0319813581811691600485101561146f5780818660040360031b1b83161692505b505092915050565b80820180821115610ada57610ada6113b4565b60008060006060848603121561149f57600080fd5b8351925060208401516114b181610da9565b80925050604084015190509250925092565b818382376000910190815291905056fea2646970667358221220e030a8aebc0c7189e7cb5b473a0cf379bfbc7e164cde1f79e1fbd2c296e8e56a64736f6c63430008110033",
  "linkReferences": {},
  "deployedLinkReferences": {}
}