{
  "_format": "hh-sol-artifact-1",
  "contractName": "ChargedParticlesAccount",
  "sourceName": "contracts/ChargedParticlesAccount.sol",
  "abi": [
    {
      "inputs": [],
      "name": "AccountLocked",
      "type": "error"
    },
    {
      "inputs": [],
      "name": "ExceedsMaxLockTime",
      "type": "error"
    },
    {
      "inputs": [],
      "name": "InvalidInput",
      "type": "error"
    },
    {
      "inputs": [],
      "name": "NotAuthorized",
      "type": "error"
    },
    {
      "inputs": [],
      "name": "OwnershipCycle",
      "type": "error"
    },
    {
      "anonymous": false,
      "inputs": [
        {
          "indexed": false,
          "internalType": "uint256",
          "name": "lockedUntil",
          "type": "uint256"
        }
      ],
      "name": "LockUpdated",
      "type": "event"
    },
    {
      "anonymous": false,
      "inputs": [
        {
          "indexed": false,
          "internalType": "address",
          "name": "owner",
          "type": "address"
        },
        {
          "indexed": false,
          "internalType": "bytes4",
          "name": "selector",
          "type": "bytes4"
        },
        {
          "indexed": false,
          "internalType": "address",
          "name": "implementation",
          "type": "address"
        }
      ],
      "name": "OverrideUpdated",
      "type": "event"
    },
    {
      "anonymous": false,
      "inputs": [
        {
          "indexed": false,
          "internalType": "address",
          "name": "owner",
          "type": "address"
        },
        {
          "indexed": false,
          "internalType": "address",
          "name": "caller",
          "type": "address"
        },
        {
          "indexed": false,
          "internalType": "bool",
          "name": "hasPermission",
          "type": "bool"
        }
      ],
      "name": "PermissionUpdated",
      "type": "event"
    },
    {
      "inputs": [
        {
          "internalType": "address",
          "name": "receiver",
          "type": "address"
        },
        {
          "internalType": "address",
          "name": "nftTokenAddress",
          "type": "address"
        },
        {
          "internalType": "uint256",
          "name": "nftTokenId",
          "type": "uint256"
        },
        {
          "internalType": "uint256",
          "name": "nftTokenAmount",
          "type": "uint256"
        }
      ],
      "name": "breakCovalentBond",
      "outputs": [],
      "stateMutability": "nonpayable",
      "type": "function"
    },
    {
      "inputs": [
        {
          "internalType": "address",
          "name": "nftTokenAddress",
          "type": "address"
        },
        {
          "internalType": "uint256",
          "name": "nftTokenId",
          "type": "uint256"
        },
        {
          "internalType": "uint256",
          "name": "nftTokenAmount",
          "type": "uint256"
        }
      ],
      "name": "covalentBond",
      "outputs": [],
      "stateMutability": "nonpayable",
      "type": "function"
    },
    {
      "inputs": [
        {
          "internalType": "address",
          "name": "receiver",
          "type": "address"
        },
        {
          "internalType": "address",
          "name": "assetToken",
          "type": "address"
        },
        {
          "internalType": "uint256",
          "name": "assetAmount",
          "type": "uint256"
        }
      ],
      "name": "dischargeParticle",
      "outputs": [],
      "stateMutability": "nonpayable",
      "type": "function"
    },
    {
      "inputs": [
        {
          "internalType": "address",
          "name": "assetToken",
          "type": "address"
        },
        {
          "internalType": "uint256",
          "name": "assetAmount",
          "type": "uint256"
        }
      ],
      "name": "energizeParticle",
      "outputs": [],
      "stateMutability": "nonpayable",
      "type": "function"
    },
    {
      "inputs": [
        {
          "internalType": "address",
          "name": "to",
          "type": "address"
        },
        {
          "internalType": "uint256",
          "name": "value",
          "type": "uint256"
        },
        {
          "internalType": "bytes",
          "name": "data",
          "type": "bytes"
        }
      ],
      "name": "executeCall",
      "outputs": [
        {
          "internalType": "bytes",
          "name": "",
          "type": "bytes"
        }
      ],
      "stateMutability": "payable",
      "type": "function"
    },
    {
      "inputs": [],
      "name": "isLocked",
      "outputs": [
        {
          "internalType": "bool",
          "name": "",
          "type": "bool"
        }
      ],
      "stateMutability": "view",
      "type": "function"
    },
    {
      "inputs": [
        {
          "internalType": "address",
          "name": "signer",
          "type": "address"
        },
        {
          "internalType": "bytes",
          "name": "context",
          "type": "bytes"
        }
      ],
      "name": "isValidSigner",
      "outputs": [
        {
          "internalType": "bytes4",
          "name": "magicValue",
          "type": "bytes4"
        }
      ],
      "stateMutability": "view",
      "type": "function"
    },
    {
      "inputs": [
        {
          "internalType": "uint256",
          "name": "_lockedUntil",
          "type": "uint256"
        }
      ],
      "name": "lock",
      "outputs": [],
      "stateMutability": "nonpayable",
      "type": "function"
    },
    {
      "inputs": [],
      "name": "lockedUntil",
      "outputs": [
        {
          "internalType": "uint256",
          "name": "",
          "type": "uint256"
        }
      ],
      "stateMutability": "view",
      "type": "function"
    },
    {
      "inputs": [
        {
          "internalType": "address",
          "name": "",
          "type": "address"
        },
        {
          "internalType": "address",
          "name": "",
          "type": "address"
        },
        {
          "internalType": "uint256[]",
          "name": "",
          "type": "uint256[]"
        },
        {
          "internalType": "uint256[]",
          "name": "",
          "type": "uint256[]"
        },
        {
          "internalType": "bytes",
          "name": "",
          "type": "bytes"
        }
      ],
      "name": "onERC1155BatchReceived",
      "outputs": [
        {
          "internalType": "bytes4",
          "name": "",
          "type": "bytes4"
        }
      ],
      "stateMutability": "pure",
      "type": "function"
    },
    {
      "inputs": [
        {
          "internalType": "address",
          "name": "",
          "type": "address"
        },
        {
          "internalType": "address",
          "name": "",
          "type": "address"
        },
        {
          "internalType": "uint256",
          "name": "",
          "type": "uint256"
        },
        {
          "internalType": "uint256",
          "name": "",
          "type": "uint256"
        },
        {
          "internalType": "bytes",
          "name": "",
          "type": "bytes"
        }
      ],
      "name": "onERC1155Received",
      "outputs": [
        {
          "internalType": "bytes4",
          "name": "",
          "type": "bytes4"
        }
      ],
      "stateMutability": "pure",
      "type": "function"
    },
    {
      "inputs": [
        {
          "internalType": "address",
          "name": "",
          "type": "address"
        },
        {
          "internalType": "address",
          "name": "",
          "type": "address"
        },
        {
          "internalType": "uint256",
          "name": "receivedTokenId",
          "type": "uint256"
        },
        {
          "internalType": "bytes",
          "name": "",
          "type": "bytes"
        }
      ],
      "name": "onERC721Received",
      "outputs": [
        {
          "internalType": "bytes4",
          "name": "",
          "type": "bytes4"
        }
      ],
      "stateMutability": "view",
      "type": "function"
    },
    {
      "inputs": [],
      "name": "owner",
      "outputs": [
        {
          "internalType": "address",
          "name": "",
          "type": "address"
        }
      ],
      "stateMutability": "view",
      "type": "function"
    },
    {
      "inputs": [
        {
          "internalType": "bytes",
          "name": "_data",
          "type": "bytes"
        }
      ],
      "name": "parseFirst4Bytes",
      "outputs": [
        {
          "internalType": "bytes4",
          "name": "",
          "type": "bytes4"
        }
      ],
      "stateMutability": "pure",
      "type": "function"
    },
    {
      "inputs": [
        {
          "internalType": "address",
          "name": "",
          "type": "address"
        },
        {
          "internalType": "address",
          "name": "",
          "type": "address"
        }
      ],
      "name": "permissions",
      "outputs": [
        {
          "internalType": "bool",
          "name": "",
          "type": "bool"
        }
      ],
      "stateMutability": "view",
      "type": "function"
    },
    {
      "inputs": [
        {
          "internalType": "address[]",
          "name": "callers",
          "type": "address[]"
        },
        {
          "internalType": "bool[]",
          "name": "_permissions",
          "type": "bool[]"
        }
      ],
      "name": "setPermissions",
      "outputs": [],
      "stateMutability": "nonpayable",
      "type": "function"
    },
    {
      "inputs": [],
      "name": "state",
      "outputs": [
        {
          "internalType": "uint256",
          "name": "",
          "type": "uint256"
        }
      ],
      "stateMutability": "view",
      "type": "function"
    },
    {
      "inputs": [
        {
          "internalType": "bytes4",
          "name": "interfaceId",
          "type": "bytes4"
        }
      ],
      "name": "supportsInterface",
      "outputs": [
        {
          "internalType": "bool",
          "name": "",
          "type": "bool"
        }
      ],
      "stateMutability": "pure",
      "type": "function"
    },
    {
      "inputs": [],
      "name": "token",
      "outputs": [
        {
          "internalType": "uint256",
          "name": "chainId",
          "type": "uint256"
        },
        {
          "internalType": "address",
          "name": "tokenContract",
          "type": "address"
        },
        {
          "internalType": "uint256",
          "name": "tokenId",
          "type": "uint256"
        }
      ],
      "stateMutability": "view",
      "type": "function"
    },
    {
      "stateMutability": "payable",
      "type": "receive"
    }
  ],
  "bytecode": "0x608060405234801561001057600080fd5b506114de806100206000396000f3fe6080604052600436106101185760003560e01c8063a65e78f1116100a0578063ce0617ec11610064578063ce0617ec1461033d578063d0ad253514610353578063dd46706414610373578063f23a6e6114610393578063fc0c546a146103bf57600080fd5b8063a65e78f114610293578063a737a299146102b3578063bc197c81146102d3578063c19d93fb146102ff578063ca1cc2201461031d57600080fd5b8063523e3260116100e7578063523e3260146101ef5780636b764e1b1461020f5780638da5cb5b1461022f5780639e5d4c491461025c578063a4e2d6341461027c57600080fd5b806301ffc9a714610124578063039721b114610159578063150b7a021461017b5780631f9838b5146101b457600080fd5b3661011f57005b600080fd5b34801561013057600080fd5b5061014461013f366004610cc6565b6103f7565b60405190151581526020015b60405180910390f35b34801561016557600080fd5b50610179610174366004610d3c565b61045e565b005b34801561018757600080fd5b5061019b610196366004610e77565b610627565b6040516001600160e01b03199091168152602001610150565b3480156101c057600080fd5b506101446101cf366004610ee3565b600160209081526000928352604080842090915290825290205460ff1681565b3480156101fb57600080fd5b5061019b61020a366004610f5e565b61068f565b34801561021b57600080fd5b5061017961022a366004610fb3565b610793565b34801561023b57600080fd5b50610244610801565b6040516001600160a01b039091168152602001610150565b61026f61026a366004610ff9565b610897565b6040516101509190611049565b34801561028857600080fd5b506000544210610144565b34801561029f57600080fd5b506101796102ae366004611097565b610967565b3480156102bf57600080fd5b506101796102ce3660046110c3565b6109e3565b3480156102df57600080fd5b5061019b6102ee366004611178565b63bc197c8160e01b95945050505050565b34801561030b57600080fd5b5060015b604051908152602001610150565b34801561032957600080fd5b50610179610338366004611226565b610a45565b34801561034957600080fd5b5061030f60005481565b34801561035f57600080fd5b5061019b61036e366004611267565b610abe565b34801561037f57600080fd5b5061017961038e3660046112a9565b610adf565b34801561039f57600080fd5b5061019b6103ae3660046112c2565b63f23a6e6160e01b95945050505050565b3480156103cb57600080fd5b506103d4610ba4565b604080519384526001600160a01b03909216602084015290820152606001610150565b6000806001600160e01b031983166301ffc9a760e01b148061042957506001600160e01b03198316630271189760e51b145b8061044457506001600160e01b03198316636faff5f160e01b145b905080156104555750600192915050565b50600092915050565b60005442101561048157604051636315bfbb60e01b815260040160405180910390fd5b600061048b610801565b9050336001600160a01b038216146104b65760405163ea8e4eb560e01b815260040160405180910390fd5b838281146104d75760405163b4fa3fb360e01b815260040160405180910390fd5b60005b8181101561061e578484828181106104f4576104f461132b565b9050602002016020810190610509919061134f565b6001600160a01b0384166000908152600160205260408120908989858181106105345761053461132b565b9050602002016020810190610549919061136c565b6001600160a01b031681526020810191909152604001600020805460ff19169115159190911790557f394777a58092892d136a90c4bb7e4350c72ac50fba6a0208128677f36527dcf5838888848181106105a5576105a561132b565b90506020020160208101906105ba919061136c565b8787858181106105cc576105cc61132b565b90506020020160208101906105e1919061134f565b604080516001600160a01b03948516815293909216602084015215159082015260600160405180910390a1806106168161139f565b9150506104da565b50505050505050565b600080600080610635610bbc565b925092509250468314801561065257506001600160a01b03821633145b801561065d57508581145b1561067b5760405163b79e3f3f60e01b815260040160405180910390fd5b50630a85bd0160e11b979650505050505050565b600080600061069c610bbc565b6040516331a9108f60e11b8152600481018290529194509250600091506001600160a01b03841690636352211e90602401602060405180830381865afa1580156106ea573d6000803e3d6000fd5b505050506040513d601f19601f8201168201806040525081019061070e91906113b8565b9050806001600160a01b0316876001600160a01b03160361073c5750630291f19360e51b925061078c915050565b6001600160a01b038082166000908152600160209081526040808320938b168352929052205460ff161561077d5750630291f19360e51b925061078c915050565b506001600160e01b0319925050505b9392505050565b604051632142170760e11b81523060048201526001600160a01b038581166024830152604482018490528416906342842e0e90606401600060405180830381600087803b1580156107e357600080fd5b505af11580156107f7573d6000803e3d6000fd5b5050505050505050565b60008060008061080f610bbc565b925092509250468314610826576000935050505090565b6040516331a9108f60e11b8152600481018290526001600160a01b03831690636352211e90602401602060405180830381865afa15801561086b573d6000803e3d6000fd5b505050506040513d601f19601f8201168201806040525081019061088f91906113b8565b935050505090565b606082826108a633838361068f565b6001600160e01b03191663523e326060e01b146108d65760405163ea8e4eb560e01b815260040160405180910390fd5b6000544210156108f957604051636315bfbb60e01b815260040160405180910390fd5b84846109058282610c0f565b61094e5760405162461bcd60e51b815260206004820152601660248201527513595d1a1bd908185b1b081b9bdd08185b1b1bddd95960521b604482015260640160405180910390fd5b61095a89898989610c4a565b9998505050505050505050565b6040516323b872dd60e01b8152336004820152306024820152604481018290526001600160a01b038316906323b872dd906064016020604051808303816000875af11580156109ba573d6000803e3d6000fd5b505050506040513d601f19601f820116820180604052508101906109de91906113d5565b505050565b604051632142170760e11b8152336004820152306024820152604481018390526001600160a01b038416906342842e0e90606401600060405180830381600087803b158015610a3157600080fd5b505af115801561061e573d6000803e3d6000fd5b60405163a9059cbb60e01b81526001600160a01b0384811660048301526024820183905283169063a9059cbb906044016020604051808303816000875af1158015610a94573d6000803e3d6000fd5b505050506040513d601f19601f82011682018060405250810190610ab891906113d5565b50505050565b6000610acd60048284866113f2565b610ad69161141c565b90505b92915050565b610ae7610801565b6001600160a01b0316336001600160a01b031614610b185760405163ea8e4eb560e01b815260040160405180910390fd5b600054421015610b3b57604051636315bfbb60e01b815260040160405180910390fd5b610b49426301e1338061144c565b811115610b69576040516301814f7d60e31b815260040160405180910390fd5b60008190556040518181527fa7b24c66dd3269a292a60b3facdbb8f3e7557d1e19e64d99e0d6ee7250be63ad9060200160405180910390a150565b6000806000610bb1610bbc565b925092509250909192565b604080516060808252608082019092526000918291829182919060208201818036833701905050905060ad604d60208301303c80806020019051810190610c03919061145f565b93509350935050909192565b600080610c1c8484610abe565b90506001600160e01b0319811663095ea7b360e01b03610c40576000915050610ad9565b5060019392505050565b60606000856001600160a01b0316858585604051610c69929190611498565b60006040518083038185875af1925050503d8060008114610ca6576040519150601f19603f3d011682016040523d82523d6000602084013e610cab565b606091505b509250905080610cbd57815160208301fd5b50949350505050565b600060208284031215610cd857600080fd5b81356001600160e01b03198116811461078c57600080fd5b60008083601f840112610d0257600080fd5b50813567ffffffffffffffff811115610d1a57600080fd5b6020830191508360208260051b8501011115610d3557600080fd5b9250929050565b60008060008060408587031215610d5257600080fd5b843567ffffffffffffffff80821115610d6a57600080fd5b610d7688838901610cf0565b90965094506020870135915080821115610d8f57600080fd5b50610d9c87828801610cf0565b95989497509550505050565b6001600160a01b0381168114610dbd57600080fd5b50565b634e487b7160e01b600052604160045260246000fd5b604051601f8201601f1916810167ffffffffffffffff81118282101715610dff57610dff610dc0565b604052919050565b600082601f830112610e1857600080fd5b813567ffffffffffffffff811115610e3257610e32610dc0565b610e45601f8201601f1916602001610dd6565b818152846020838601011115610e5a57600080fd5b816020850160208301376000918101602001919091529392505050565b60008060008060808587031215610e8d57600080fd5b8435610e9881610da8565b93506020850135610ea881610da8565b925060408501359150606085013567ffffffffffffffff811115610ecb57600080fd5b610ed787828801610e07565b91505092959194509250565b60008060408385031215610ef657600080fd5b8235610f0181610da8565b91506020830135610f1181610da8565b809150509250929050565b60008083601f840112610f2e57600080fd5b50813567ffffffffffffffff811115610f4657600080fd5b602083019150836020828501011115610d3557600080fd5b600080600060408486031215610f7357600080fd5b8335610f7e81610da8565b9250602084013567ffffffffffffffff811115610f9a57600080fd5b610fa686828701610f1c565b9497909650939450505050565b60008060008060808587031215610fc957600080fd5b8435610fd481610da8565b93506020850135610fe481610da8565b93969395505050506040820135916060013590565b6000806000806060858703121561100f57600080fd5b843561101a81610da8565b935060208501359250604085013567ffffffffffffffff81111561103d57600080fd5b610d9c87828801610f1c565b600060208083528351808285015260005b818110156110765785810183015185820160400152820161105a565b506000604082860101526040601f19601f8301168501019250505092915050565b600080604083850312156110aa57600080fd5b82356110b581610da8565b946020939093013593505050565b6000806000606084860312156110d857600080fd5b83356110e381610da8565b95602085013595506040909401359392505050565b600082601f83011261110957600080fd5b8135602067ffffffffffffffff82111561112557611125610dc0565b8160051b611134828201610dd6565b928352848101820192828101908785111561114e57600080fd5b83870192505b8483101561116d57823582529183019190830190611154565b979650505050505050565b600080600080600060a0868803121561119057600080fd5b853561119b81610da8565b945060208601356111ab81610da8565b9350604086013567ffffffffffffffff808211156111c857600080fd5b6111d489838a016110f8565b945060608801359150808211156111ea57600080fd5b6111f689838a016110f8565b9350608088013591508082111561120c57600080fd5b5061121988828901610e07565b9150509295509295909350565b60008060006060848603121561123b57600080fd5b833561124681610da8565b9250602084013561125681610da8565b929592945050506040919091013590565b6000806020838503121561127a57600080fd5b823567ffffffffffffffff81111561129157600080fd5b61129d85828601610f1c565b90969095509350505050565b6000602082840312156112bb57600080fd5b5035919050565b600080600080600060a086880312156112da57600080fd5b85356112e581610da8565b945060208601356112f581610da8565b93506040860135925060608601359150608086013567ffffffffffffffff81111561131f57600080fd5b61121988828901610e07565b634e487b7160e01b600052603260045260246000fd5b8015158114610dbd57600080fd5b60006020828403121561136157600080fd5b813561078c81611341565b60006020828403121561137e57600080fd5b813561078c81610da8565b634e487b7160e01b600052601160045260246000fd5b6000600182016113b1576113b1611389565b5060010190565b6000602082840312156113ca57600080fd5b815161078c81610da8565b6000602082840312156113e757600080fd5b815161078c81611341565b6000808585111561140257600080fd5b8386111561140f57600080fd5b5050820193919092039150565b6001600160e01b031981358181169160048510156114445780818660040360031b1b83161692505b505092915050565b80820180821115610ad957610ad9611389565b60008060006060848603121561147457600080fd5b83519250602084015161148681610da8565b80925050604084015190509250925092565b818382376000910190815291905056fea26469706673582212202bfbf80ffe15d1df88f5d173e03c2c577716222924fa8199d75029f601d910f964736f6c63430008110033",
  "linkReferences": {},
  "deployedLinkReferences": {}
}