{
  "_format": "hh-sol-artifact-1",
  "contractName": "ChargedParticlesAccount",
  "sourceName": "contracts/ChargedParticlesAccount.sol",
  "abi": [
    {
      "inputs": [],
      "name": "AccountLocked",
      "type": "error"
    },
    {
      "inputs": [],
      "name": "ExceedsMaxLockTime",
      "type": "error"
    },
    {
      "inputs": [],
      "name": "InvalidInput",
      "type": "error"
    },
    {
      "inputs": [],
      "name": "NotAuthorized",
      "type": "error"
    },
    {
      "inputs": [],
      "name": "OwnershipCycle",
      "type": "error"
    },
    {
      "anonymous": false,
      "inputs": [
        {
          "indexed": false,
          "internalType": "uint256",
          "name": "lockedUntil",
          "type": "uint256"
        }
      ],
      "name": "LockUpdated",
      "type": "event"
    },
    {
      "anonymous": false,
      "inputs": [
        {
          "indexed": false,
          "internalType": "address",
          "name": "owner",
          "type": "address"
        },
        {
          "indexed": false,
          "internalType": "bytes4",
          "name": "selector",
          "type": "bytes4"
        },
        {
          "indexed": false,
          "internalType": "address",
          "name": "implementation",
          "type": "address"
        }
      ],
      "name": "OverrideUpdated",
      "type": "event"
    },
    {
      "anonymous": false,
      "inputs": [
        {
          "indexed": false,
          "internalType": "address",
          "name": "owner",
          "type": "address"
        },
        {
          "indexed": false,
          "internalType": "address",
          "name": "caller",
          "type": "address"
        },
        {
          "indexed": false,
          "internalType": "bool",
          "name": "hasPermission",
          "type": "bool"
        }
      ],
      "name": "PermissionUpdated",
      "type": "event"
    },
    {
      "anonymous": false,
      "inputs": [
        {
          "indexed": true,
          "internalType": "address",
          "name": "target",
          "type": "address"
        },
        {
          "indexed": true,
          "internalType": "uint256",
          "name": "value",
          "type": "uint256"
        },
        {
          "indexed": false,
          "internalType": "bytes",
          "name": "data",
          "type": "bytes"
        }
      ],
      "name": "TransactionExecuted",
      "type": "event"
    },
    {
      "inputs": [
        {
          "internalType": "address",
          "name": "nftTokenAddress",
          "type": "address"
        },
        {
          "internalType": "uint256",
          "name": "nftTokenId",
          "type": "uint256"
        },
        {
          "internalType": "uint256",
          "name": "nftTokenAmount",
          "type": "uint256"
        }
      ],
      "name": "covalentBond",
      "outputs": [],
      "stateMutability": "nonpayable",
      "type": "function"
    },
    {
      "inputs": [
        {
          "internalType": "address",
          "name": "to",
          "type": "address"
        },
        {
          "internalType": "uint256",
          "name": "value",
          "type": "uint256"
        },
        {
          "internalType": "bytes",
          "name": "data",
          "type": "bytes"
        }
      ],
      "name": "executeCall",
      "outputs": [
        {
          "internalType": "bytes",
          "name": "",
          "type": "bytes"
        }
      ],
      "stateMutability": "payable",
      "type": "function"
    },
    {
      "inputs": [
        {
          "internalType": "address",
          "name": "caller",
          "type": "address"
        }
      ],
      "name": "isAuthorized",
      "outputs": [
        {
          "internalType": "bool",
          "name": "",
          "type": "bool"
        }
      ],
      "stateMutability": "view",
      "type": "function"
    },
    {
      "inputs": [],
      "name": "isLocked",
      "outputs": [
        {
          "internalType": "bool",
          "name": "",
          "type": "bool"
        }
      ],
      "stateMutability": "view",
      "type": "function"
    },
    {
      "inputs": [
        {
          "internalType": "uint256",
          "name": "_lockedUntil",
          "type": "uint256"
        }
      ],
      "name": "lock",
      "outputs": [],
      "stateMutability": "nonpayable",
      "type": "function"
    },
    {
      "inputs": [],
      "name": "lockedUntil",
      "outputs": [
        {
          "internalType": "uint256",
          "name": "",
          "type": "uint256"
        }
      ],
      "stateMutability": "view",
      "type": "function"
    },
    {
      "inputs": [
        {
          "internalType": "address",
          "name": "",
          "type": "address"
        },
        {
          "internalType": "address",
          "name": "",
          "type": "address"
        },
        {
          "internalType": "uint256[]",
          "name": "",
          "type": "uint256[]"
        },
        {
          "internalType": "uint256[]",
          "name": "",
          "type": "uint256[]"
        },
        {
          "internalType": "bytes",
          "name": "",
          "type": "bytes"
        }
      ],
      "name": "onERC1155BatchReceived",
      "outputs": [
        {
          "internalType": "bytes4",
          "name": "",
          "type": "bytes4"
        }
      ],
      "stateMutability": "pure",
      "type": "function"
    },
    {
      "inputs": [
        {
          "internalType": "address",
          "name": "",
          "type": "address"
        },
        {
          "internalType": "address",
          "name": "",
          "type": "address"
        },
        {
          "internalType": "uint256",
          "name": "",
          "type": "uint256"
        },
        {
          "internalType": "uint256",
          "name": "",
          "type": "uint256"
        },
        {
          "internalType": "bytes",
          "name": "",
          "type": "bytes"
        }
      ],
      "name": "onERC1155Received",
      "outputs": [
        {
          "internalType": "bytes4",
          "name": "",
          "type": "bytes4"
        }
      ],
      "stateMutability": "pure",
      "type": "function"
    },
    {
      "inputs": [
        {
          "internalType": "address",
          "name": "",
          "type": "address"
        },
        {
          "internalType": "address",
          "name": "",
          "type": "address"
        },
        {
          "internalType": "uint256",
          "name": "receivedTokenId",
          "type": "uint256"
        },
        {
          "internalType": "bytes",
          "name": "",
          "type": "bytes"
        }
      ],
      "name": "onERC721Received",
      "outputs": [
        {
          "internalType": "bytes4",
          "name": "",
          "type": "bytes4"
        }
      ],
      "stateMutability": "view",
      "type": "function"
    },
    {
      "inputs": [],
      "name": "owner",
      "outputs": [
        {
          "internalType": "address",
          "name": "",
          "type": "address"
        }
      ],
      "stateMutability": "view",
      "type": "function"
    },
    {
      "inputs": [
        {
          "internalType": "address",
          "name": "",
          "type": "address"
        },
        {
          "internalType": "address",
          "name": "",
          "type": "address"
        }
      ],
      "name": "permissions",
      "outputs": [
        {
          "internalType": "bool",
          "name": "",
          "type": "bool"
        }
      ],
      "stateMutability": "view",
      "type": "function"
    },
    {
      "inputs": [
        {
          "internalType": "address[]",
          "name": "callers",
          "type": "address[]"
        },
        {
          "internalType": "bool[]",
          "name": "_permissions",
          "type": "bool[]"
        }
      ],
      "name": "setPermissions",
      "outputs": [],
      "stateMutability": "nonpayable",
      "type": "function"
    },
    {
      "inputs": [
        {
          "internalType": "bytes4",
          "name": "interfaceId",
          "type": "bytes4"
        }
      ],
      "name": "supportsInterface",
      "outputs": [
        {
          "internalType": "bool",
          "name": "",
          "type": "bool"
        }
      ],
      "stateMutability": "pure",
      "type": "function"
    },
    {
      "inputs": [],
      "name": "token",
      "outputs": [
        {
          "internalType": "uint256",
          "name": "chainId",
          "type": "uint256"
        },
        {
          "internalType": "address",
          "name": "tokenContract",
          "type": "address"
        },
        {
          "internalType": "uint256",
          "name": "tokenId",
          "type": "uint256"
        }
      ],
      "stateMutability": "view",
      "type": "function"
    },
    {
      "stateMutability": "payable",
      "type": "receive"
    }
  ],
  "bytecode": "0x608060405234801561001057600080fd5b5061107a806100206000396000f3fe6080604052600436106100e15760003560e01c8063a737a2991161007f578063dd46706411610059578063dd4670641461028c578063f23a6e61146102ac578063fc0c546a146102d8578063fe9fbb801461031057600080fd5b8063a737a2991461021c578063bc197c811461023c578063ce0617ec1461026857600080fd5b80631f9838b5116100bb5780631f9838b51461017d5780638da5cb5b146101b85780639e5d4c49146101e5578063a4e2d6341461020557600080fd5b806301ffc9a7146100ed578063039721b114610122578063150b7a021461014457600080fd5b366100e857005b600080fd5b3480156100f957600080fd5b5061010d6101083660046109f9565b610330565b60405190151581526020015b60405180910390f35b34801561012e57600080fd5b5061014261013d366004610a76565b610397565b005b34801561015057600080fd5b5061016461015f366004610bb1565b610560565b6040516001600160e01b03199091168152602001610119565b34801561018957600080fd5b5061010d610198366004610c1d565b600160209081526000928352604080842090915290825290205460ff1681565b3480156101c457600080fd5b506101cd6105c8565b6040516001600160a01b039091168152602001610119565b6101f86101f3366004610c56565b61065e565b6040516101199190610cdf565b34801561021157600080fd5b50600054421061010d565b34801561022857600080fd5b50610142610237366004610d2d565b610702565b34801561024857600080fd5b50610164610257366004610de2565b63bc197c8160e01b95945050505050565b34801561027457600080fd5b5061027e60005481565b604051908152602001610119565b34801561029857600080fd5b506101426102a7366004610e90565b610764565b3480156102b857600080fd5b506101646102c7366004610ea9565b63f23a6e6160e01b95945050505050565b3480156102e457600080fd5b506102ed610829565b604080519384526001600160a01b03909216602084015290820152606001610119565b34801561031c57600080fd5b5061010d61032b366004610f12565b610841565b6000806001600160e01b031983166301ffc9a760e01b148061036257506001600160e01b03198316630271189760e51b145b8061037d57506001600160e01b03198316631dfe9a6f60e31b145b9050801561038e5750600192915050565b50600092915050565b6000544210156103ba57604051636315bfbb60e01b815260040160405180910390fd5b60006103c46105c8565b9050336001600160a01b038216146103ef5760405163ea8e4eb560e01b815260040160405180910390fd5b838281146104105760405163b4fa3fb360e01b815260040160405180910390fd5b60005b818110156105575784848281811061042d5761042d610f2f565b90506020020160208101906104429190610f45565b6001600160a01b03841660009081526001602052604081209089898581811061046d5761046d610f2f565b90506020020160208101906104829190610f12565b6001600160a01b031681526020810191909152604001600020805460ff19169115159190911790557f394777a58092892d136a90c4bb7e4350c72ac50fba6a0208128677f36527dcf5838888848181106104de576104de610f2f565b90506020020160208101906104f39190610f12565b87878581811061050557610505610f2f565b905060200201602081019061051a9190610f45565b604080516001600160a01b03948516815293909216602084015215159082015260600160405180910390a18061054f81610f7d565b915050610413565b50505050505050565b60008060008061056e61092a565b925092509250468314801561058b57506001600160a01b03821633145b801561059657508581145b156105b45760405163b79e3f3f60e01b815260040160405180910390fd5b50630a85bd0160e11b979650505050505050565b6000806000806105d661092a565b9250925092504683146105ed576000935050505090565b6040516331a9108f60e11b8152600481018290526001600160a01b03831690636352211e90602401602060405180830381865afa158015610632573d6000803e3d6000fd5b505050506040513d601f19601f820116820180604052508101906106569190610f96565b935050505090565b606061066933610841565b6106865760405163ea8e4eb560e01b815260040160405180910390fd5b6000544210156106a957604051636315bfbb60e01b815260040160405180910390fd5b83856001600160a01b03167f47d99ad340f52da66535aff7e10da1ceb85a32bcbd9fa1c42314d194545e14d285856040516106e5929190610fb3565b60405180910390a36106f98585858561097d565b95945050505050565b604051632142170760e11b8152336004820152306024820152604481018390526001600160a01b038416906342842e0e90606401600060405180830381600087803b15801561075057600080fd5b505af1158015610557573d6000803e3d6000fd5b61076c6105c8565b6001600160a01b0316336001600160a01b03161461079d5760405163ea8e4eb560e01b815260040160405180910390fd5b6000544210156107c057604051636315bfbb60e01b815260040160405180910390fd5b6107ce426301e13380610fe2565b8111156107ee576040516301814f7d60e31b815260040160405180910390fd5b60008190556040518181527fa7b24c66dd3269a292a60b3facdbb8f3e7557d1e19e64d99e0d6ee7250be63ad9060200160405180910390a150565b600080600061083661092a565b925092509250909192565b600080600061084e61092a565b6040516331a9108f60e11b8152600481018290529194509250600091506001600160a01b03841690636352211e90602401602060405180830381865afa15801561089c573d6000803e3d6000fd5b505050506040513d601f19601f820116820180604052508101906108c09190610f96565b9050806001600160a01b0316856001600160a01b0316036108e657506001949350505050565b6001600160a01b0380821660009081526001602090815260408083209389168352929052205460ff161561091f57506001949350505050565b506000949350505050565b604080516060808252608082019092526000918291829182919060208201818036833701905050905060ad604d60208301303c808060200190518101906109719190610ffb565b93509350935050909192565b60606000856001600160a01b031685858560405161099c929190611034565b60006040518083038185875af1925050503d80600081146109d9576040519150601f19603f3d011682016040523d82523d6000602084013e6109de565b606091505b5092509050806109f057815160208301fd5b50949350505050565b600060208284031215610a0b57600080fd5b81356001600160e01b031981168114610a2357600080fd5b9392505050565b60008083601f840112610a3c57600080fd5b50813567ffffffffffffffff811115610a5457600080fd5b6020830191508360208260051b8501011115610a6f57600080fd5b9250929050565b60008060008060408587031215610a8c57600080fd5b843567ffffffffffffffff80821115610aa457600080fd5b610ab088838901610a2a565b90965094506020870135915080821115610ac957600080fd5b50610ad687828801610a2a565b95989497509550505050565b6001600160a01b0381168114610af757600080fd5b50565b634e487b7160e01b600052604160045260246000fd5b604051601f8201601f1916810167ffffffffffffffff81118282101715610b3957610b39610afa565b604052919050565b600082601f830112610b5257600080fd5b813567ffffffffffffffff811115610b6c57610b6c610afa565b610b7f601f8201601f1916602001610b10565b818152846020838601011115610b9457600080fd5b816020850160208301376000918101602001919091529392505050565b60008060008060808587031215610bc757600080fd5b8435610bd281610ae2565b93506020850135610be281610ae2565b925060408501359150606085013567ffffffffffffffff811115610c0557600080fd5b610c1187828801610b41565b91505092959194509250565b60008060408385031215610c3057600080fd5b8235610c3b81610ae2565b91506020830135610c4b81610ae2565b809150509250929050565b60008060008060608587031215610c6c57600080fd5b8435610c7781610ae2565b935060208501359250604085013567ffffffffffffffff80821115610c9b57600080fd5b818701915087601f830112610caf57600080fd5b813581811115610cbe57600080fd5b886020828501011115610cd057600080fd5b95989497505060200194505050565b600060208083528351808285015260005b81811015610d0c57858101830151858201604001528201610cf0565b506000604082860101526040601f19601f8301168501019250505092915050565b600080600060608486031215610d4257600080fd5b8335610d4d81610ae2565b95602085013595506040909401359392505050565b600082601f830112610d7357600080fd5b8135602067ffffffffffffffff821115610d8f57610d8f610afa565b8160051b610d9e828201610b10565b9283528481018201928281019087851115610db857600080fd5b83870192505b84831015610dd757823582529183019190830190610dbe565b979650505050505050565b600080600080600060a08688031215610dfa57600080fd5b8535610e0581610ae2565b94506020860135610e1581610ae2565b9350604086013567ffffffffffffffff80821115610e3257600080fd5b610e3e89838a01610d62565b94506060880135915080821115610e5457600080fd5b610e6089838a01610d62565b93506080880135915080821115610e7657600080fd5b50610e8388828901610b41565b9150509295509295909350565b600060208284031215610ea257600080fd5b5035919050565b600080600080600060a08688031215610ec157600080fd5b8535610ecc81610ae2565b94506020860135610edc81610ae2565b93506040860135925060608601359150608086013567ffffffffffffffff811115610f0657600080fd5b610e8388828901610b41565b600060208284031215610f2457600080fd5b8135610a2381610ae2565b634e487b7160e01b600052603260045260246000fd5b600060208284031215610f5757600080fd5b81358015158114610a2357600080fd5b634e487b7160e01b600052601160045260246000fd5b600060018201610f8f57610f8f610f67565b5060010190565b600060208284031215610fa857600080fd5b8151610a2381610ae2565b60208152816020820152818360408301376000818301604090810191909152601f909201601f19160101919050565b80820180821115610ff557610ff5610f67565b92915050565b60008060006060848603121561101057600080fd5b83519250602084015161102281610ae2565b80925050604084015190509250925092565b818382376000910190815291905056fea26469706673582212200663d510f78e550c2c5192bb5513cc9796da41b5ef14b345dff5d2cb8fe7be9b64736f6c63430008110033",
  "linkReferences": {},
  "deployedLinkReferences": {}
}