{
  "_format": "hh-sol-artifact-1",
  "contractName": "ChargedParticlesAccount",
  "sourceName": "contracts/ChargedParticlesAccount.sol",
  "abi": [
    {
      "inputs": [],
      "name": "AccountLocked",
      "type": "error"
    },
    {
      "inputs": [],
      "name": "ExceedsMaxLockTime",
      "type": "error"
    },
    {
      "inputs": [],
      "name": "InvalidInput",
      "type": "error"
    },
    {
      "inputs": [],
      "name": "NotAuthorized",
      "type": "error"
    },
    {
      "inputs": [],
      "name": "OwnershipCycle",
      "type": "error"
    },
    {
      "anonymous": false,
      "inputs": [
        {
          "indexed": false,
          "internalType": "uint256",
          "name": "lockedUntil",
          "type": "uint256"
        }
      ],
      "name": "LockUpdated",
      "type": "event"
    },
    {
      "anonymous": false,
      "inputs": [
        {
          "indexed": false,
          "internalType": "address",
          "name": "owner",
          "type": "address"
        },
        {
          "indexed": false,
          "internalType": "bytes4",
          "name": "selector",
          "type": "bytes4"
        },
        {
          "indexed": false,
          "internalType": "address",
          "name": "implementation",
          "type": "address"
        }
      ],
      "name": "OverrideUpdated",
      "type": "event"
    },
    {
      "anonymous": false,
      "inputs": [
        {
          "indexed": false,
          "internalType": "address",
          "name": "owner",
          "type": "address"
        },
        {
          "indexed": false,
          "internalType": "address",
          "name": "caller",
          "type": "address"
        },
        {
          "indexed": false,
          "internalType": "bool",
          "name": "hasPermission",
          "type": "bool"
        }
      ],
      "name": "PermissionUpdated",
      "type": "event"
    },
    {
      "anonymous": false,
      "inputs": [
        {
          "indexed": true,
          "internalType": "address",
          "name": "target",
          "type": "address"
        },
        {
          "indexed": true,
          "internalType": "uint256",
          "name": "value",
          "type": "uint256"
        },
        {
          "indexed": false,
          "internalType": "bytes",
          "name": "data",
          "type": "bytes"
        }
      ],
      "name": "TransactionExecuted",
      "type": "event"
    },
    {
      "inputs": [
        {
          "internalType": "address",
          "name": "receiver",
          "type": "address"
        },
        {
          "internalType": "address",
          "name": "nftTokenAddress",
          "type": "address"
        },
        {
          "internalType": "uint256",
          "name": "nftTokenId",
          "type": "uint256"
        },
        {
          "internalType": "uint256",
          "name": "nftTokenAmount",
          "type": "uint256"
        }
      ],
      "name": "breakCovalentBond",
      "outputs": [],
      "stateMutability": "nonpayable",
      "type": "function"
    },
    {
      "inputs": [
        {
          "internalType": "address",
          "name": "nftTokenAddress",
          "type": "address"
        },
        {
          "internalType": "uint256",
          "name": "nftTokenId",
          "type": "uint256"
        },
        {
          "internalType": "uint256",
          "name": "nftTokenAmount",
          "type": "uint256"
        }
      ],
      "name": "covalentBond",
      "outputs": [],
      "stateMutability": "nonpayable",
      "type": "function"
    },
    {
      "inputs": [
        {
          "internalType": "address",
          "name": "to",
          "type": "address"
        },
        {
          "internalType": "uint256",
          "name": "value",
          "type": "uint256"
        },
        {
          "internalType": "bytes",
          "name": "data",
          "type": "bytes"
        }
      ],
      "name": "executeCall",
      "outputs": [
        {
          "internalType": "bytes",
          "name": "",
          "type": "bytes"
        }
      ],
      "stateMutability": "payable",
      "type": "function"
    },
    {
      "inputs": [
        {
          "internalType": "address",
          "name": "caller",
          "type": "address"
        }
      ],
      "name": "isAuthorized",
      "outputs": [
        {
          "internalType": "bool",
          "name": "",
          "type": "bool"
        }
      ],
      "stateMutability": "view",
      "type": "function"
    },
    {
      "inputs": [],
      "name": "isLocked",
      "outputs": [
        {
          "internalType": "bool",
          "name": "",
          "type": "bool"
        }
      ],
      "stateMutability": "view",
      "type": "function"
    },
    {
      "inputs": [
        {
          "internalType": "uint256",
          "name": "_lockedUntil",
          "type": "uint256"
        }
      ],
      "name": "lock",
      "outputs": [],
      "stateMutability": "nonpayable",
      "type": "function"
    },
    {
      "inputs": [],
      "name": "lockedUntil",
      "outputs": [
        {
          "internalType": "uint256",
          "name": "",
          "type": "uint256"
        }
      ],
      "stateMutability": "view",
      "type": "function"
    },
    {
      "inputs": [
        {
          "internalType": "address",
          "name": "",
          "type": "address"
        },
        {
          "internalType": "address",
          "name": "",
          "type": "address"
        },
        {
          "internalType": "uint256[]",
          "name": "",
          "type": "uint256[]"
        },
        {
          "internalType": "uint256[]",
          "name": "",
          "type": "uint256[]"
        },
        {
          "internalType": "bytes",
          "name": "",
          "type": "bytes"
        }
      ],
      "name": "onERC1155BatchReceived",
      "outputs": [
        {
          "internalType": "bytes4",
          "name": "",
          "type": "bytes4"
        }
      ],
      "stateMutability": "pure",
      "type": "function"
    },
    {
      "inputs": [
        {
          "internalType": "address",
          "name": "",
          "type": "address"
        },
        {
          "internalType": "address",
          "name": "",
          "type": "address"
        },
        {
          "internalType": "uint256",
          "name": "",
          "type": "uint256"
        },
        {
          "internalType": "uint256",
          "name": "",
          "type": "uint256"
        },
        {
          "internalType": "bytes",
          "name": "",
          "type": "bytes"
        }
      ],
      "name": "onERC1155Received",
      "outputs": [
        {
          "internalType": "bytes4",
          "name": "",
          "type": "bytes4"
        }
      ],
      "stateMutability": "pure",
      "type": "function"
    },
    {
      "inputs": [
        {
          "internalType": "address",
          "name": "",
          "type": "address"
        },
        {
          "internalType": "address",
          "name": "",
          "type": "address"
        },
        {
          "internalType": "uint256",
          "name": "receivedTokenId",
          "type": "uint256"
        },
        {
          "internalType": "bytes",
          "name": "",
          "type": "bytes"
        }
      ],
      "name": "onERC721Received",
      "outputs": [
        {
          "internalType": "bytes4",
          "name": "",
          "type": "bytes4"
        }
      ],
      "stateMutability": "view",
      "type": "function"
    },
    {
      "inputs": [],
      "name": "owner",
      "outputs": [
        {
          "internalType": "address",
          "name": "",
          "type": "address"
        }
      ],
      "stateMutability": "view",
      "type": "function"
    },
    {
      "inputs": [
        {
          "internalType": "address",
          "name": "",
          "type": "address"
        },
        {
          "internalType": "address",
          "name": "",
          "type": "address"
        }
      ],
      "name": "permissions",
      "outputs": [
        {
          "internalType": "bool",
          "name": "",
          "type": "bool"
        }
      ],
      "stateMutability": "view",
      "type": "function"
    },
    {
      "inputs": [
        {
          "internalType": "address[]",
          "name": "callers",
          "type": "address[]"
        },
        {
          "internalType": "bool[]",
          "name": "_permissions",
          "type": "bool[]"
        }
      ],
      "name": "setPermissions",
      "outputs": [],
      "stateMutability": "nonpayable",
      "type": "function"
    },
    {
      "inputs": [
        {
          "internalType": "bytes4",
          "name": "interfaceId",
          "type": "bytes4"
        }
      ],
      "name": "supportsInterface",
      "outputs": [
        {
          "internalType": "bool",
          "name": "",
          "type": "bool"
        }
      ],
      "stateMutability": "pure",
      "type": "function"
    },
    {
      "inputs": [],
      "name": "token",
      "outputs": [
        {
          "internalType": "uint256",
          "name": "chainId",
          "type": "uint256"
        },
        {
          "internalType": "address",
          "name": "tokenContract",
          "type": "address"
        },
        {
          "internalType": "uint256",
          "name": "tokenId",
          "type": "uint256"
        }
      ],
      "stateMutability": "view",
      "type": "function"
    },
    {
      "stateMutability": "payable",
      "type": "receive"
    }
  ],
  "bytecode": "0x608060405234801561001057600080fd5b50611159806100206000396000f3fe6080604052600436106100ec5760003560e01c8063a4e2d6341161008a578063dd46706411610059578063dd467064146102b7578063f23a6e61146102d7578063fc0c546a14610303578063fe9fbb801461033b57600080fd5b8063a4e2d63414610230578063a737a29914610247578063bc197c8114610267578063ce0617ec1461029357600080fd5b80631f9838b5116100c65780631f9838b5146101885780636b764e1b146101c35780638da5cb5b146101e35780639e5d4c491461021057600080fd5b806301ffc9a7146100f8578063039721b11461012d578063150b7a021461014f57600080fd5b366100f357005b600080fd5b34801561010457600080fd5b50610118610113366004610a92565b61035b565b60405190151581526020015b60405180910390f35b34801561013957600080fd5b5061014d610148366004610b0f565b6103c2565b005b34801561015b57600080fd5b5061016f61016a366004610c4a565b61058b565b6040516001600160e01b03199091168152602001610124565b34801561019457600080fd5b506101186101a3366004610cb6565b600160209081526000928352604080842090915290825290205460ff1681565b3480156101cf57600080fd5b5061014d6101de366004610cef565b6105f3565b3480156101ef57600080fd5b506101f8610661565b6040516001600160a01b039091168152602001610124565b61022361021e366004610d35565b6106f7565b6040516101249190610dbe565b34801561023c57600080fd5b506000544210610118565b34801561025357600080fd5b5061014d610262366004610e0c565b61079b565b34801561027357600080fd5b5061016f610282366004610ec1565b63bc197c8160e01b95945050505050565b34801561029f57600080fd5b506102a960005481565b604051908152602001610124565b3480156102c357600080fd5b5061014d6102d2366004610f6f565b6107fd565b3480156102e357600080fd5b5061016f6102f2366004610f88565b63f23a6e6160e01b95945050505050565b34801561030f57600080fd5b506103186108c2565b604080519384526001600160a01b03909216602084015290820152606001610124565b34801561034757600080fd5b50610118610356366004610ff1565b6108da565b6000806001600160e01b031983166301ffc9a760e01b148061038d57506001600160e01b03198316630271189760e51b145b806103a857506001600160e01b03198316631dfe9a6f60e31b145b905080156103b95750600192915050565b50600092915050565b6000544210156103e557604051636315bfbb60e01b815260040160405180910390fd5b60006103ef610661565b9050336001600160a01b0382161461041a5760405163ea8e4eb560e01b815260040160405180910390fd5b8382811461043b5760405163b4fa3fb360e01b815260040160405180910390fd5b60005b81811015610582578484828181106104585761045861100e565b905060200201602081019061046d9190611024565b6001600160a01b0384166000908152600160205260408120908989858181106104985761049861100e565b90506020020160208101906104ad9190610ff1565b6001600160a01b031681526020810191909152604001600020805460ff19169115159190911790557f394777a58092892d136a90c4bb7e4350c72ac50fba6a0208128677f36527dcf5838888848181106105095761050961100e565b905060200201602081019061051e9190610ff1565b8787858181106105305761053061100e565b90506020020160208101906105459190611024565b604080516001600160a01b03948516815293909216602084015215159082015260600160405180910390a18061057a8161105c565b91505061043e565b50505050505050565b6000806000806105996109c3565b92509250925046831480156105b657506001600160a01b03821633145b80156105c157508581145b156105df5760405163b79e3f3f60e01b815260040160405180910390fd5b50630a85bd0160e11b979650505050505050565b604051632142170760e11b81523060048201526001600160a01b038581166024830152604482018490528416906342842e0e90606401600060405180830381600087803b15801561064357600080fd5b505af1158015610657573d6000803e3d6000fd5b5050505050505050565b60008060008061066f6109c3565b925092509250468314610686576000935050505090565b6040516331a9108f60e11b8152600481018290526001600160a01b03831690636352211e90602401602060405180830381865afa1580156106cb573d6000803e3d6000fd5b505050506040513d601f19601f820116820180604052508101906106ef9190611075565b935050505090565b6060610702336108da565b61071f5760405163ea8e4eb560e01b815260040160405180910390fd5b60005442101561074257604051636315bfbb60e01b815260040160405180910390fd5b83856001600160a01b03167f47d99ad340f52da66535aff7e10da1ceb85a32bcbd9fa1c42314d194545e14d2858560405161077e929190611092565b60405180910390a361079285858585610a16565b95945050505050565b604051632142170760e11b8152336004820152306024820152604481018390526001600160a01b038416906342842e0e90606401600060405180830381600087803b1580156107e957600080fd5b505af1158015610582573d6000803e3d6000fd5b610805610661565b6001600160a01b0316336001600160a01b0316146108365760405163ea8e4eb560e01b815260040160405180910390fd5b60005442101561085957604051636315bfbb60e01b815260040160405180910390fd5b610867426301e133806110c1565b811115610887576040516301814f7d60e31b815260040160405180910390fd5b60008190556040518181527fa7b24c66dd3269a292a60b3facdbb8f3e7557d1e19e64d99e0d6ee7250be63ad9060200160405180910390a150565b60008060006108cf6109c3565b925092509250909192565b60008060006108e76109c3565b6040516331a9108f60e11b8152600481018290529194509250600091506001600160a01b03841690636352211e90602401602060405180830381865afa158015610935573d6000803e3d6000fd5b505050506040513d601f19601f820116820180604052508101906109599190611075565b9050806001600160a01b0316856001600160a01b03160361097f57506001949350505050565b6001600160a01b0380821660009081526001602090815260408083209389168352929052205460ff16156109b857506001949350505050565b506000949350505050565b604080516060808252608082019092526000918291829182919060208201818036833701905050905060ad604d60208301303c80806020019051810190610a0a91906110da565b93509350935050909192565b60606000856001600160a01b0316858585604051610a35929190611113565b60006040518083038185875af1925050503d8060008114610a72576040519150601f19603f3d011682016040523d82523d6000602084013e610a77565b606091505b509250905080610a8957815160208301fd5b50949350505050565b600060208284031215610aa457600080fd5b81356001600160e01b031981168114610abc57600080fd5b9392505050565b60008083601f840112610ad557600080fd5b50813567ffffffffffffffff811115610aed57600080fd5b6020830191508360208260051b8501011115610b0857600080fd5b9250929050565b60008060008060408587031215610b2557600080fd5b843567ffffffffffffffff80821115610b3d57600080fd5b610b4988838901610ac3565b90965094506020870135915080821115610b6257600080fd5b50610b6f87828801610ac3565b95989497509550505050565b6001600160a01b0381168114610b9057600080fd5b50565b634e487b7160e01b600052604160045260246000fd5b604051601f8201601f1916810167ffffffffffffffff81118282101715610bd257610bd2610b93565b604052919050565b600082601f830112610beb57600080fd5b813567ffffffffffffffff811115610c0557610c05610b93565b610c18601f8201601f1916602001610ba9565b818152846020838601011115610c2d57600080fd5b816020850160208301376000918101602001919091529392505050565b60008060008060808587031215610c6057600080fd5b8435610c6b81610b7b565b93506020850135610c7b81610b7b565b925060408501359150606085013567ffffffffffffffff811115610c9e57600080fd5b610caa87828801610bda565b91505092959194509250565b60008060408385031215610cc957600080fd5b8235610cd481610b7b565b91506020830135610ce481610b7b565b809150509250929050565b60008060008060808587031215610d0557600080fd5b8435610d1081610b7b565b93506020850135610d2081610b7b565b93969395505050506040820135916060013590565b60008060008060608587031215610d4b57600080fd5b8435610d5681610b7b565b935060208501359250604085013567ffffffffffffffff80821115610d7a57600080fd5b818701915087601f830112610d8e57600080fd5b813581811115610d9d57600080fd5b886020828501011115610daf57600080fd5b95989497505060200194505050565b600060208083528351808285015260005b81811015610deb57858101830151858201604001528201610dcf565b506000604082860101526040601f19601f8301168501019250505092915050565b600080600060608486031215610e2157600080fd5b8335610e2c81610b7b565b95602085013595506040909401359392505050565b600082601f830112610e5257600080fd5b8135602067ffffffffffffffff821115610e6e57610e6e610b93565b8160051b610e7d828201610ba9565b9283528481018201928281019087851115610e9757600080fd5b83870192505b84831015610eb657823582529183019190830190610e9d565b979650505050505050565b600080600080600060a08688031215610ed957600080fd5b8535610ee481610b7b565b94506020860135610ef481610b7b565b9350604086013567ffffffffffffffff80821115610f1157600080fd5b610f1d89838a01610e41565b94506060880135915080821115610f3357600080fd5b610f3f89838a01610e41565b93506080880135915080821115610f5557600080fd5b50610f6288828901610bda565b9150509295509295909350565b600060208284031215610f8157600080fd5b5035919050565b600080600080600060a08688031215610fa057600080fd5b8535610fab81610b7b565b94506020860135610fbb81610b7b565b93506040860135925060608601359150608086013567ffffffffffffffff811115610fe557600080fd5b610f6288828901610bda565b60006020828403121561100357600080fd5b8135610abc81610b7b565b634e487b7160e01b600052603260045260246000fd5b60006020828403121561103657600080fd5b81358015158114610abc57600080fd5b634e487b7160e01b600052601160045260246000fd5b60006001820161106e5761106e611046565b5060010190565b60006020828403121561108757600080fd5b8151610abc81610b7b565b60208152816020820152818360408301376000818301604090810191909152601f909201601f19160101919050565b808201808211156110d4576110d4611046565b92915050565b6000806000606084860312156110ef57600080fd5b83519250602084015161110181610b7b565b80925050604084015190509250925092565b818382376000910190815291905056fea264697066735822122063e6912474b85020b5a9835811ba76231c769e7f9cde34faffb5d227a7ea56e564736f6c63430008110033",
  "linkReferences": {},
  "deployedLinkReferences": {}
}