{
  "_format": "hh-sol-artifact-1",
  "contractName": "ChargedParticlesAccount",
  "sourceName": "contracts/ChargedParticlesAccount.sol",
  "abi": [
    {
      "inputs": [],
      "name": "AccountLocked",
      "type": "error"
    },
    {
      "inputs": [],
      "name": "ExceedsMaxLockTime",
      "type": "error"
    },
    {
      "inputs": [],
      "name": "InvalidInput",
      "type": "error"
    },
    {
      "inputs": [],
      "name": "NotAuthorized",
      "type": "error"
    },
    {
      "inputs": [],
      "name": "OwnershipCycle",
      "type": "error"
    },
    {
      "anonymous": false,
      "inputs": [
        {
          "indexed": false,
          "internalType": "uint256",
          "name": "lockedUntil",
          "type": "uint256"
        }
      ],
      "name": "LockUpdated",
      "type": "event"
    },
    {
      "anonymous": false,
      "inputs": [
        {
          "indexed": false,
          "internalType": "address",
          "name": "owner",
          "type": "address"
        },
        {
          "indexed": false,
          "internalType": "bytes4",
          "name": "selector",
          "type": "bytes4"
        },
        {
          "indexed": false,
          "internalType": "address",
          "name": "implementation",
          "type": "address"
        }
      ],
      "name": "OverrideUpdated",
      "type": "event"
    },
    {
      "anonymous": false,
      "inputs": [
        {
          "indexed": false,
          "internalType": "address",
          "name": "owner",
          "type": "address"
        },
        {
          "indexed": false,
          "internalType": "address",
          "name": "caller",
          "type": "address"
        },
        {
          "indexed": false,
          "internalType": "bool",
          "name": "hasPermission",
          "type": "bool"
        }
      ],
      "name": "PermissionUpdated",
      "type": "event"
    },
    {
      "inputs": [
        {
          "internalType": "address",
          "name": "receiver",
          "type": "address"
        },
        {
          "internalType": "address",
          "name": "nftTokenAddress",
          "type": "address"
        },
        {
          "internalType": "uint256",
          "name": "nftTokenId",
          "type": "uint256"
        },
        {
          "internalType": "uint256",
          "name": "nftTokenAmount",
          "type": "uint256"
        }
      ],
      "name": "breakCovalentBond",
      "outputs": [],
      "stateMutability": "nonpayable",
      "type": "function"
    },
    {
      "inputs": [
        {
          "internalType": "address",
          "name": "nftTokenAddress",
          "type": "address"
        },
        {
          "internalType": "uint256",
          "name": "nftTokenId",
          "type": "uint256"
        },
        {
          "internalType": "uint256",
          "name": "nftTokenAmount",
          "type": "uint256"
        }
      ],
      "name": "covalentBond",
      "outputs": [],
      "stateMutability": "nonpayable",
      "type": "function"
    },
    {
      "inputs": [
        {
          "internalType": "address",
          "name": "receiver",
          "type": "address"
        },
        {
          "internalType": "address",
          "name": "assetToken",
          "type": "address"
        },
        {
          "internalType": "uint256",
          "name": "assetAmount",
          "type": "uint256"
        }
      ],
      "name": "dischargeParticle",
      "outputs": [],
      "stateMutability": "nonpayable",
      "type": "function"
    },
    {
      "inputs": [
        {
          "internalType": "address",
          "name": "assetToken",
          "type": "address"
        },
        {
          "internalType": "uint256",
          "name": "assetAmount",
          "type": "uint256"
        }
      ],
      "name": "energizeParticle",
      "outputs": [],
      "stateMutability": "nonpayable",
      "type": "function"
    },
    {
      "inputs": [
        {
          "internalType": "address",
          "name": "to",
          "type": "address"
        },
        {
          "internalType": "uint256",
          "name": "value",
          "type": "uint256"
        },
        {
          "internalType": "bytes",
          "name": "data",
          "type": "bytes"
        }
      ],
      "name": "executeCall",
      "outputs": [
        {
          "internalType": "bytes",
          "name": "",
          "type": "bytes"
        }
      ],
      "stateMutability": "payable",
      "type": "function"
    },
    {
      "inputs": [
        {
          "internalType": "address",
          "name": "caller",
          "type": "address"
        }
      ],
      "name": "isAuthorized",
      "outputs": [
        {
          "internalType": "bool",
          "name": "",
          "type": "bool"
        }
      ],
      "stateMutability": "view",
      "type": "function"
    },
    {
      "inputs": [],
      "name": "isLocked",
      "outputs": [
        {
          "internalType": "bool",
          "name": "",
          "type": "bool"
        }
      ],
      "stateMutability": "view",
      "type": "function"
    },
    {
      "inputs": [
        {
          "internalType": "uint256",
          "name": "_lockedUntil",
          "type": "uint256"
        }
      ],
      "name": "lock",
      "outputs": [],
      "stateMutability": "nonpayable",
      "type": "function"
    },
    {
      "inputs": [],
      "name": "lockedUntil",
      "outputs": [
        {
          "internalType": "uint256",
          "name": "",
          "type": "uint256"
        }
      ],
      "stateMutability": "view",
      "type": "function"
    },
    {
      "inputs": [
        {
          "internalType": "address",
          "name": "",
          "type": "address"
        },
        {
          "internalType": "address",
          "name": "",
          "type": "address"
        },
        {
          "internalType": "uint256[]",
          "name": "",
          "type": "uint256[]"
        },
        {
          "internalType": "uint256[]",
          "name": "",
          "type": "uint256[]"
        },
        {
          "internalType": "bytes",
          "name": "",
          "type": "bytes"
        }
      ],
      "name": "onERC1155BatchReceived",
      "outputs": [
        {
          "internalType": "bytes4",
          "name": "",
          "type": "bytes4"
        }
      ],
      "stateMutability": "pure",
      "type": "function"
    },
    {
      "inputs": [
        {
          "internalType": "address",
          "name": "",
          "type": "address"
        },
        {
          "internalType": "address",
          "name": "",
          "type": "address"
        },
        {
          "internalType": "uint256",
          "name": "",
          "type": "uint256"
        },
        {
          "internalType": "uint256",
          "name": "",
          "type": "uint256"
        },
        {
          "internalType": "bytes",
          "name": "",
          "type": "bytes"
        }
      ],
      "name": "onERC1155Received",
      "outputs": [
        {
          "internalType": "bytes4",
          "name": "",
          "type": "bytes4"
        }
      ],
      "stateMutability": "pure",
      "type": "function"
    },
    {
      "inputs": [
        {
          "internalType": "address",
          "name": "",
          "type": "address"
        },
        {
          "internalType": "address",
          "name": "",
          "type": "address"
        },
        {
          "internalType": "uint256",
          "name": "receivedTokenId",
          "type": "uint256"
        },
        {
          "internalType": "bytes",
          "name": "",
          "type": "bytes"
        }
      ],
      "name": "onERC721Received",
      "outputs": [
        {
          "internalType": "bytes4",
          "name": "",
          "type": "bytes4"
        }
      ],
      "stateMutability": "view",
      "type": "function"
    },
    {
      "inputs": [],
      "name": "owner",
      "outputs": [
        {
          "internalType": "address",
          "name": "",
          "type": "address"
        }
      ],
      "stateMutability": "view",
      "type": "function"
    },
    {
      "inputs": [
        {
          "internalType": "bytes",
          "name": "_data",
          "type": "bytes"
        }
      ],
      "name": "parseFirst4Bytes",
      "outputs": [
        {
          "internalType": "bytes4",
          "name": "",
          "type": "bytes4"
        }
      ],
      "stateMutability": "pure",
      "type": "function"
    },
    {
      "inputs": [
        {
          "internalType": "address",
          "name": "",
          "type": "address"
        },
        {
          "internalType": "address",
          "name": "",
          "type": "address"
        }
      ],
      "name": "permissions",
      "outputs": [
        {
          "internalType": "bool",
          "name": "",
          "type": "bool"
        }
      ],
      "stateMutability": "view",
      "type": "function"
    },
    {
      "inputs": [
        {
          "internalType": "address[]",
          "name": "callers",
          "type": "address[]"
        },
        {
          "internalType": "bool[]",
          "name": "_permissions",
          "type": "bool[]"
        }
      ],
      "name": "setPermissions",
      "outputs": [],
      "stateMutability": "nonpayable",
      "type": "function"
    },
    {
      "inputs": [
        {
          "internalType": "bytes4",
          "name": "interfaceId",
          "type": "bytes4"
        }
      ],
      "name": "supportsInterface",
      "outputs": [
        {
          "internalType": "bool",
          "name": "",
          "type": "bool"
        }
      ],
      "stateMutability": "pure",
      "type": "function"
    },
    {
      "inputs": [],
      "name": "token",
      "outputs": [
        {
          "internalType": "uint256",
          "name": "chainId",
          "type": "uint256"
        },
        {
          "internalType": "address",
          "name": "tokenContract",
          "type": "address"
        },
        {
          "internalType": "uint256",
          "name": "tokenId",
          "type": "uint256"
        }
      ],
      "stateMutability": "view",
      "type": "function"
    },
    {
      "stateMutability": "payable",
      "type": "receive"
    }
  ],
  "bytecode": "0x608060405234801561001057600080fd5b50611436806100206000396000f3fe60806040526004361061010d5760003560e01c8063a737a29911610095578063d0ad253511610064578063d0ad253514610318578063dd46706414610338578063f23a6e6114610358578063fc0c546a14610384578063fe9fbb80146103bc57600080fd5b8063a737a29914610288578063bc197c81146102a8578063ca1cc220146102d4578063ce0617ec146102f457600080fd5b80636b764e1b116100dc5780636b764e1b146101e45780638da5cb5b146102045780639e5d4c4914610231578063a4e2d63414610251578063a65e78f11461026857600080fd5b806301ffc9a714610119578063039721b11461014e578063150b7a02146101705780631f9838b5146101a957600080fd5b3661011457005b600080fd5b34801561012557600080fd5b50610139610134366004610c77565b6103dc565b60405190151581526020015b60405180910390f35b34801561015a57600080fd5b5061016e610169366004610cf4565b610443565b005b34801561017c57600080fd5b5061019061018b366004610e2f565b61060c565b6040516001600160e01b03199091168152602001610145565b3480156101b557600080fd5b506101396101c4366004610e9b565b600160209081526000928352604080842090915290825290205460ff1681565b3480156101f057600080fd5b5061016e6101ff366004610ed4565b610674565b34801561021057600080fd5b506102196106e2565b6040516001600160a01b039091168152602001610145565b61024461023f366004610f5c565b610778565b6040516101459190610fac565b34801561025d57600080fd5b506000544210610139565b34801561027457600080fd5b5061016e610283366004610ffa565b61082f565b34801561029457600080fd5b5061016e6102a3366004611026565b6108ab565b3480156102b457600080fd5b506101906102c33660046110d0565b63bc197c8160e01b95945050505050565b3480156102e057600080fd5b5061016e6102ef36600461117e565b61090d565b34801561030057600080fd5b5061030a60005481565b604051908152602001610145565b34801561032457600080fd5b506101906103333660046111bf565b610986565b34801561034457600080fd5b5061016e610353366004611201565b6109a7565b34801561036457600080fd5b5061019061037336600461121a565b63f23a6e6160e01b95945050505050565b34801561039057600080fd5b50610399610a6c565b604080519384526001600160a01b03909216602084015290820152606001610145565b3480156103c857600080fd5b506101396103d7366004611283565b610a84565b6000806001600160e01b031983166301ffc9a760e01b148061040e57506001600160e01b03198316630271189760e51b145b8061042957506001600160e01b03198316636faff5f160e01b145b9050801561043a5750600192915050565b50600092915050565b60005442101561046657604051636315bfbb60e01b815260040160405180910390fd5b60006104706106e2565b9050336001600160a01b0382161461049b5760405163ea8e4eb560e01b815260040160405180910390fd5b838281146104bc5760405163b4fa3fb360e01b815260040160405180910390fd5b60005b81811015610603578484828181106104d9576104d96112a0565b90506020020160208101906104ee91906112c4565b6001600160a01b038416600090815260016020526040812090898985818110610519576105196112a0565b905060200201602081019061052e9190611283565b6001600160a01b031681526020810191909152604001600020805460ff19169115159190911790557f394777a58092892d136a90c4bb7e4350c72ac50fba6a0208128677f36527dcf58388888481811061058a5761058a6112a0565b905060200201602081019061059f9190611283565b8787858181106105b1576105b16112a0565b90506020020160208101906105c691906112c4565b604080516001600160a01b03948516815293909216602084015215159082015260600160405180910390a1806105fb816112f7565b9150506104bf565b50505050505050565b60008060008061061a610b6d565b925092509250468314801561063757506001600160a01b03821633145b801561064257508581145b156106605760405163b79e3f3f60e01b815260040160405180910390fd5b50630a85bd0160e11b979650505050505050565b604051632142170760e11b81523060048201526001600160a01b038581166024830152604482018490528416906342842e0e90606401600060405180830381600087803b1580156106c457600080fd5b505af11580156106d8573d6000803e3d6000fd5b5050505050505050565b6000806000806106f0610b6d565b925092509250468314610707576000935050505090565b6040516331a9108f60e11b8152600481018290526001600160a01b03831690636352211e90602401602060405180830381865afa15801561074c573d6000803e3d6000fd5b505050506040513d601f19601f820116820180604052508101906107709190611310565b935050505090565b606061078333610a84565b6107a05760405163ea8e4eb560e01b815260040160405180910390fd5b6000544210156107c357604051636315bfbb60e01b815260040160405180910390fd5b82826107cf8282610bc0565b6108185760405162461bcd60e51b815260206004820152601660248201527513595d1a1bd908185b1b081b9bdd08185b1b1bddd95960521b604482015260640160405180910390fd5b61082487878787610bfb565b979650505050505050565b6040516323b872dd60e01b8152336004820152306024820152604481018290526001600160a01b038316906323b872dd906064016020604051808303816000875af1158015610882573d6000803e3d6000fd5b505050506040513d601f19601f820116820180604052508101906108a6919061132d565b505050565b604051632142170760e11b8152336004820152306024820152604481018390526001600160a01b038416906342842e0e90606401600060405180830381600087803b1580156108f957600080fd5b505af1158015610603573d6000803e3d6000fd5b60405163a9059cbb60e01b81526001600160a01b0384811660048301526024820183905283169063a9059cbb906044016020604051808303816000875af115801561095c573d6000803e3d6000fd5b505050506040513d601f19601f82011682018060405250810190610980919061132d565b50505050565b6000610995600482848661134a565b61099e91611374565b90505b92915050565b6109af6106e2565b6001600160a01b0316336001600160a01b0316146109e05760405163ea8e4eb560e01b815260040160405180910390fd5b600054421015610a0357604051636315bfbb60e01b815260040160405180910390fd5b610a11426301e133806113a4565b811115610a31576040516301814f7d60e31b815260040160405180910390fd5b60008190556040518181527fa7b24c66dd3269a292a60b3facdbb8f3e7557d1e19e64d99e0d6ee7250be63ad9060200160405180910390a150565b6000806000610a79610b6d565b925092509250909192565b6000806000610a91610b6d565b6040516331a9108f60e11b8152600481018290529194509250600091506001600160a01b03841690636352211e90602401602060405180830381865afa158015610adf573d6000803e3d6000fd5b505050506040513d601f19601f82011682018060405250810190610b039190611310565b9050806001600160a01b0316856001600160a01b031603610b2957506001949350505050565b6001600160a01b0380821660009081526001602090815260408083209389168352929052205460ff1615610b6257506001949350505050565b506000949350505050565b604080516060808252608082019092526000918291829182919060208201818036833701905050905060ad604d60208301303c80806020019051810190610bb491906113b7565b93509350935050909192565b600080610bcd8484610986565b90506001600160e01b0319811663095ea7b360e01b03610bf15760009150506109a1565b5060019392505050565b60606000856001600160a01b0316858585604051610c1a9291906113f0565b60006040518083038185875af1925050503d8060008114610c57576040519150601f19603f3d011682016040523d82523d6000602084013e610c5c565b606091505b509250905080610c6e57815160208301fd5b50949350505050565b600060208284031215610c8957600080fd5b81356001600160e01b031981168114610ca157600080fd5b9392505050565b60008083601f840112610cba57600080fd5b50813567ffffffffffffffff811115610cd257600080fd5b6020830191508360208260051b8501011115610ced57600080fd5b9250929050565b60008060008060408587031215610d0a57600080fd5b843567ffffffffffffffff80821115610d2257600080fd5b610d2e88838901610ca8565b90965094506020870135915080821115610d4757600080fd5b50610d5487828801610ca8565b95989497509550505050565b6001600160a01b0381168114610d7557600080fd5b50565b634e487b7160e01b600052604160045260246000fd5b604051601f8201601f1916810167ffffffffffffffff81118282101715610db757610db7610d78565b604052919050565b600082601f830112610dd057600080fd5b813567ffffffffffffffff811115610dea57610dea610d78565b610dfd601f8201601f1916602001610d8e565b818152846020838601011115610e1257600080fd5b816020850160208301376000918101602001919091529392505050565b60008060008060808587031215610e4557600080fd5b8435610e5081610d60565b93506020850135610e6081610d60565b925060408501359150606085013567ffffffffffffffff811115610e8357600080fd5b610e8f87828801610dbf565b91505092959194509250565b60008060408385031215610eae57600080fd5b8235610eb981610d60565b91506020830135610ec981610d60565b809150509250929050565b60008060008060808587031215610eea57600080fd5b8435610ef581610d60565b93506020850135610f0581610d60565b93969395505050506040820135916060013590565b60008083601f840112610f2c57600080fd5b50813567ffffffffffffffff811115610f4457600080fd5b602083019150836020828501011115610ced57600080fd5b60008060008060608587031215610f7257600080fd5b8435610f7d81610d60565b935060208501359250604085013567ffffffffffffffff811115610fa057600080fd5b610d5487828801610f1a565b600060208083528351808285015260005b81811015610fd957858101830151858201604001528201610fbd565b506000604082860101526040601f19601f8301168501019250505092915050565b6000806040838503121561100d57600080fd5b823561101881610d60565b946020939093013593505050565b60008060006060848603121561103b57600080fd5b833561104681610d60565b95602085013595506040909401359392505050565b600082601f83011261106c57600080fd5b8135602067ffffffffffffffff82111561108857611088610d78565b8160051b611097828201610d8e565b92835284810182019282810190878511156110b157600080fd5b83870192505b84831015610824578235825291830191908301906110b7565b600080600080600060a086880312156110e857600080fd5b85356110f381610d60565b9450602086013561110381610d60565b9350604086013567ffffffffffffffff8082111561112057600080fd5b61112c89838a0161105b565b9450606088013591508082111561114257600080fd5b61114e89838a0161105b565b9350608088013591508082111561116457600080fd5b5061117188828901610dbf565b9150509295509295909350565b60008060006060848603121561119357600080fd5b833561119e81610d60565b925060208401356111ae81610d60565b929592945050506040919091013590565b600080602083850312156111d257600080fd5b823567ffffffffffffffff8111156111e957600080fd5b6111f585828601610f1a565b90969095509350505050565b60006020828403121561121357600080fd5b5035919050565b600080600080600060a0868803121561123257600080fd5b853561123d81610d60565b9450602086013561124d81610d60565b93506040860135925060608601359150608086013567ffffffffffffffff81111561127757600080fd5b61117188828901610dbf565b60006020828403121561129557600080fd5b8135610ca181610d60565b634e487b7160e01b600052603260045260246000fd5b8015158114610d7557600080fd5b6000602082840312156112d657600080fd5b8135610ca1816112b6565b634e487b7160e01b600052601160045260246000fd5b600060018201611309576113096112e1565b5060010190565b60006020828403121561132257600080fd5b8151610ca181610d60565b60006020828403121561133f57600080fd5b8151610ca1816112b6565b6000808585111561135a57600080fd5b8386111561136757600080fd5b5050820193919092039150565b6001600160e01b0319813581811691600485101561139c5780818660040360031b1b83161692505b505092915050565b808201808211156109a1576109a16112e1565b6000806000606084860312156113cc57600080fd5b8351925060208401516113de81610d60565b80925050604084015190509250925092565b818382376000910190815291905056fea2646970667358221220011e904caf78eab74254b9cf2bf46561f51453c91e6d3084b8f1c6fa7933af6c64736f6c63430008110033",
  "linkReferences": {},
  "deployedLinkReferences": {}
}