{
  "_format": "hh-sol-artifact-1",
  "contractName": "ChargedParticlesAccount",
  "sourceName": "contracts/ChargedParticlesAccount.sol",
  "abi": [
    {
      "inputs": [],
      "name": "AccountLocked",
      "type": "error"
    },
    {
      "inputs": [],
      "name": "ExceedsMaxLockTime",
      "type": "error"
    },
    {
      "inputs": [],
      "name": "InvalidInput",
      "type": "error"
    },
    {
      "inputs": [],
      "name": "NotAuthorized",
      "type": "error"
    },
    {
      "inputs": [],
      "name": "OwnershipCycle",
      "type": "error"
    },
    {
      "anonymous": false,
      "inputs": [
        {
          "indexed": false,
          "internalType": "uint256",
          "name": "lockedUntil",
          "type": "uint256"
        }
      ],
      "name": "LockUpdated",
      "type": "event"
    },
    {
      "anonymous": false,
      "inputs": [
        {
          "indexed": false,
          "internalType": "address",
          "name": "owner",
          "type": "address"
        },
        {
          "indexed": false,
          "internalType": "bytes4",
          "name": "selector",
          "type": "bytes4"
        },
        {
          "indexed": false,
          "internalType": "address",
          "name": "implementation",
          "type": "address"
        }
      ],
      "name": "OverrideUpdated",
      "type": "event"
    },
    {
      "anonymous": false,
      "inputs": [
        {
          "indexed": false,
          "internalType": "address",
          "name": "owner",
          "type": "address"
        },
        {
          "indexed": false,
          "internalType": "address",
          "name": "caller",
          "type": "address"
        },
        {
          "indexed": false,
          "internalType": "bool",
          "name": "hasPermission",
          "type": "bool"
        }
      ],
      "name": "PermissionUpdated",
      "type": "event"
    },
    {
      "anonymous": false,
      "inputs": [
        {
          "indexed": true,
          "internalType": "address",
          "name": "target",
          "type": "address"
        },
        {
          "indexed": true,
          "internalType": "uint256",
          "name": "value",
          "type": "uint256"
        },
        {
          "indexed": false,
          "internalType": "bytes",
          "name": "data",
          "type": "bytes"
        }
      ],
      "name": "TransactionExecuted",
      "type": "event"
    },
    {
      "inputs": [
        {
          "internalType": "address",
          "name": "receiver",
          "type": "address"
        },
        {
          "internalType": "address",
          "name": "nftTokenAddress",
          "type": "address"
        },
        {
          "internalType": "uint256",
          "name": "nftTokenId",
          "type": "uint256"
        },
        {
          "internalType": "uint256",
          "name": "nftTokenAmount",
          "type": "uint256"
        }
      ],
      "name": "breakCovalentBond",
      "outputs": [],
      "stateMutability": "nonpayable",
      "type": "function"
    },
    {
      "inputs": [
        {
          "internalType": "address",
          "name": "nftTokenAddress",
          "type": "address"
        },
        {
          "internalType": "uint256",
          "name": "nftTokenId",
          "type": "uint256"
        },
        {
          "internalType": "uint256",
          "name": "nftTokenAmount",
          "type": "uint256"
        }
      ],
      "name": "covalentBond",
      "outputs": [],
      "stateMutability": "nonpayable",
      "type": "function"
    },
    {
      "inputs": [
        {
          "internalType": "address",
          "name": "receiver",
          "type": "address"
        },
        {
          "internalType": "address",
          "name": "assetToken",
          "type": "address"
        },
        {
          "internalType": "uint256",
          "name": "assetAmount",
          "type": "uint256"
        }
      ],
      "name": "dischargeParticle",
      "outputs": [],
      "stateMutability": "nonpayable",
      "type": "function"
    },
    {
      "inputs": [
        {
          "internalType": "address",
          "name": "assetToken",
          "type": "address"
        },
        {
          "internalType": "uint256",
          "name": "assetAmount",
          "type": "uint256"
        }
      ],
      "name": "energizeParticle",
      "outputs": [],
      "stateMutability": "nonpayable",
      "type": "function"
    },
    {
      "inputs": [
        {
          "internalType": "address",
          "name": "to",
          "type": "address"
        },
        {
          "internalType": "uint256",
          "name": "value",
          "type": "uint256"
        },
        {
          "internalType": "bytes",
          "name": "data",
          "type": "bytes"
        }
      ],
      "name": "executeCall",
      "outputs": [
        {
          "internalType": "bytes",
          "name": "",
          "type": "bytes"
        }
      ],
      "stateMutability": "payable",
      "type": "function"
    },
    {
      "inputs": [
        {
          "internalType": "address",
          "name": "caller",
          "type": "address"
        }
      ],
      "name": "isAuthorized",
      "outputs": [
        {
          "internalType": "bool",
          "name": "",
          "type": "bool"
        }
      ],
      "stateMutability": "view",
      "type": "function"
    },
    {
      "inputs": [],
      "name": "isLocked",
      "outputs": [
        {
          "internalType": "bool",
          "name": "",
          "type": "bool"
        }
      ],
      "stateMutability": "view",
      "type": "function"
    },
    {
      "inputs": [
        {
          "internalType": "uint256",
          "name": "_lockedUntil",
          "type": "uint256"
        }
      ],
      "name": "lock",
      "outputs": [],
      "stateMutability": "nonpayable",
      "type": "function"
    },
    {
      "inputs": [],
      "name": "lockedUntil",
      "outputs": [
        {
          "internalType": "uint256",
          "name": "",
          "type": "uint256"
        }
      ],
      "stateMutability": "view",
      "type": "function"
    },
    {
      "inputs": [
        {
          "internalType": "address",
          "name": "",
          "type": "address"
        },
        {
          "internalType": "address",
          "name": "",
          "type": "address"
        },
        {
          "internalType": "uint256[]",
          "name": "",
          "type": "uint256[]"
        },
        {
          "internalType": "uint256[]",
          "name": "",
          "type": "uint256[]"
        },
        {
          "internalType": "bytes",
          "name": "",
          "type": "bytes"
        }
      ],
      "name": "onERC1155BatchReceived",
      "outputs": [
        {
          "internalType": "bytes4",
          "name": "",
          "type": "bytes4"
        }
      ],
      "stateMutability": "pure",
      "type": "function"
    },
    {
      "inputs": [
        {
          "internalType": "address",
          "name": "",
          "type": "address"
        },
        {
          "internalType": "address",
          "name": "",
          "type": "address"
        },
        {
          "internalType": "uint256",
          "name": "",
          "type": "uint256"
        },
        {
          "internalType": "uint256",
          "name": "",
          "type": "uint256"
        },
        {
          "internalType": "bytes",
          "name": "",
          "type": "bytes"
        }
      ],
      "name": "onERC1155Received",
      "outputs": [
        {
          "internalType": "bytes4",
          "name": "",
          "type": "bytes4"
        }
      ],
      "stateMutability": "pure",
      "type": "function"
    },
    {
      "inputs": [
        {
          "internalType": "address",
          "name": "",
          "type": "address"
        },
        {
          "internalType": "address",
          "name": "",
          "type": "address"
        },
        {
          "internalType": "uint256",
          "name": "receivedTokenId",
          "type": "uint256"
        },
        {
          "internalType": "bytes",
          "name": "",
          "type": "bytes"
        }
      ],
      "name": "onERC721Received",
      "outputs": [
        {
          "internalType": "bytes4",
          "name": "",
          "type": "bytes4"
        }
      ],
      "stateMutability": "view",
      "type": "function"
    },
    {
      "inputs": [],
      "name": "owner",
      "outputs": [
        {
          "internalType": "address",
          "name": "",
          "type": "address"
        }
      ],
      "stateMutability": "view",
      "type": "function"
    },
    {
      "inputs": [
        {
          "internalType": "bytes",
          "name": "_data",
          "type": "bytes"
        }
      ],
      "name": "parseFirst4Bytes",
      "outputs": [
        {
          "internalType": "bytes4",
          "name": "",
          "type": "bytes4"
        }
      ],
      "stateMutability": "pure",
      "type": "function"
    },
    {
      "inputs": [
        {
          "internalType": "address",
          "name": "",
          "type": "address"
        },
        {
          "internalType": "address",
          "name": "",
          "type": "address"
        }
      ],
      "name": "permissions",
      "outputs": [
        {
          "internalType": "bool",
          "name": "",
          "type": "bool"
        }
      ],
      "stateMutability": "view",
      "type": "function"
    },
    {
      "inputs": [
        {
          "internalType": "address[]",
          "name": "callers",
          "type": "address[]"
        },
        {
          "internalType": "bool[]",
          "name": "_permissions",
          "type": "bool[]"
        }
      ],
      "name": "setPermissions",
      "outputs": [],
      "stateMutability": "nonpayable",
      "type": "function"
    },
    {
      "inputs": [
        {
          "internalType": "bytes4",
          "name": "interfaceId",
          "type": "bytes4"
        }
      ],
      "name": "supportsInterface",
      "outputs": [
        {
          "internalType": "bool",
          "name": "",
          "type": "bool"
        }
      ],
      "stateMutability": "pure",
      "type": "function"
    },
    {
      "inputs": [],
      "name": "token",
      "outputs": [
        {
          "internalType": "uint256",
          "name": "chainId",
          "type": "uint256"
        },
        {
          "internalType": "address",
          "name": "tokenContract",
          "type": "address"
        },
        {
          "internalType": "uint256",
          "name": "tokenId",
          "type": "uint256"
        }
      ],
      "stateMutability": "view",
      "type": "function"
    },
    {
      "stateMutability": "payable",
      "type": "receive"
    }
  ],
  "bytecode": "0x608060405234801561001057600080fd5b50611469806100206000396000f3fe60806040526004361061010d5760003560e01c8063a737a29911610095578063d0ad253511610064578063d0ad253514610318578063dd46706414610338578063f23a6e6114610358578063fc0c546a14610384578063fe9fbb80146103bc57600080fd5b8063a737a29914610288578063bc197c81146102a8578063ca1cc220146102d4578063ce0617ec146102f457600080fd5b80636b764e1b116100dc5780636b764e1b146101e45780638da5cb5b146102045780639e5d4c4914610231578063a4e2d63414610251578063a65e78f11461026857600080fd5b806301ffc9a714610119578063039721b11461014e578063150b7a02146101705780631f9838b5146101a957600080fd5b3661011457005b600080fd5b34801561012557600080fd5b50610139610134366004610c7b565b6103dc565b60405190151581526020015b60405180910390f35b34801561015a57600080fd5b5061016e610169366004610cf8565b610443565b005b34801561017c57600080fd5b5061019061018b366004610e33565b61060c565b6040516001600160e01b03199091168152602001610145565b3480156101b557600080fd5b506101396101c4366004610e9f565b600160209081526000928352604080842090915290825290205460ff1681565b3480156101f057600080fd5b5061016e6101ff366004610ed8565b610674565b34801561021057600080fd5b506102196106e2565b6040516001600160a01b039091168152602001610145565b61024461023f366004610f60565b610778565b6040516101459190610fb0565b34801561025d57600080fd5b506000544210610139565b34801561027457600080fd5b5061016e610283366004610ffe565b610833565b34801561029457600080fd5b5061016e6102a336600461102a565b6108af565b3480156102b457600080fd5b506101906102c33660046110d4565b63bc197c8160e01b95945050505050565b3480156102e057600080fd5b5061016e6102ef366004611182565b610911565b34801561030057600080fd5b5061030a60005481565b604051908152602001610145565b34801561032457600080fd5b506101906103333660046111c3565b61098a565b34801561034457600080fd5b5061016e610353366004611205565b6109ab565b34801561036457600080fd5b5061019061037336600461121e565b63f23a6e6160e01b95945050505050565b34801561039057600080fd5b50610399610a70565b604080519384526001600160a01b03909216602084015290820152606001610145565b3480156103c857600080fd5b506101396103d7366004611287565b610a88565b6000806001600160e01b031983166301ffc9a760e01b148061040e57506001600160e01b03198316630271189760e51b145b8061042957506001600160e01b03198316631dfe9a6f60e31b145b9050801561043a5750600192915050565b50600092915050565b60005442101561046657604051636315bfbb60e01b815260040160405180910390fd5b60006104706106e2565b9050336001600160a01b0382161461049b5760405163ea8e4eb560e01b815260040160405180910390fd5b838281146104bc5760405163b4fa3fb360e01b815260040160405180910390fd5b60005b81811015610603578484828181106104d9576104d96112a4565b90506020020160208101906104ee91906112c8565b6001600160a01b038416600090815260016020526040812090898985818110610519576105196112a4565b905060200201602081019061052e9190611287565b6001600160a01b031681526020810191909152604001600020805460ff19169115159190911790557f394777a58092892d136a90c4bb7e4350c72ac50fba6a0208128677f36527dcf58388888481811061058a5761058a6112a4565b905060200201602081019061059f9190611287565b8787858181106105b1576105b16112a4565b90506020020160208101906105c691906112c8565b604080516001600160a01b03948516815293909216602084015215159082015260600160405180910390a1806105fb816112fb565b9150506104bf565b50505050505050565b60008060008061061a610b71565b925092509250468314801561063757506001600160a01b03821633145b801561064257508581145b156106605760405163b79e3f3f60e01b815260040160405180910390fd5b50630a85bd0160e11b979650505050505050565b604051632142170760e11b81523060048201526001600160a01b038581166024830152604482018490528416906342842e0e90606401600060405180830381600087803b1580156106c457600080fd5b505af11580156106d8573d6000803e3d6000fd5b5050505050505050565b6000806000806106f0610b71565b925092509250468314610707576000935050505090565b6040516331a9108f60e11b8152600481018290526001600160a01b03831690636352211e90602401602060405180830381865afa15801561074c573d6000803e3d6000fd5b505050506040513d601f19601f820116820180604052508101906107709190611314565b935050505090565b606061078333610a88565b6107a05760405163ea8e4eb560e01b815260040160405180910390fd5b6000544210156107c357604051636315bfbb60e01b815260040160405180910390fd5b82826107cf8282610bc4565b6107d857600080fd5b85876001600160a01b03167f47d99ad340f52da66535aff7e10da1ceb85a32bcbd9fa1c42314d194545e14d28787604051610814929190611331565b60405180910390a361082887878787610bff565b979650505050505050565b6040516323b872dd60e01b8152336004820152306024820152604481018290526001600160a01b038316906323b872dd906064016020604051808303816000875af1158015610886573d6000803e3d6000fd5b505050506040513d601f19601f820116820180604052508101906108aa9190611360565b505050565b604051632142170760e11b8152336004820152306024820152604481018390526001600160a01b038416906342842e0e90606401600060405180830381600087803b1580156108fd57600080fd5b505af1158015610603573d6000803e3d6000fd5b60405163a9059cbb60e01b81526001600160a01b0384811660048301526024820183905283169063a9059cbb906044016020604051808303816000875af1158015610960573d6000803e3d6000fd5b505050506040513d601f19601f820116820180604052508101906109849190611360565b50505050565b6000610999600482848661137d565b6109a2916113a7565b90505b92915050565b6109b36106e2565b6001600160a01b0316336001600160a01b0316146109e45760405163ea8e4eb560e01b815260040160405180910390fd5b600054421015610a0757604051636315bfbb60e01b815260040160405180910390fd5b610a15426301e133806113d7565b811115610a35576040516301814f7d60e31b815260040160405180910390fd5b60008190556040518181527fa7b24c66dd3269a292a60b3facdbb8f3e7557d1e19e64d99e0d6ee7250be63ad9060200160405180910390a150565b6000806000610a7d610b71565b925092509250909192565b6000806000610a95610b71565b6040516331a9108f60e11b8152600481018290529194509250600091506001600160a01b03841690636352211e90602401602060405180830381865afa158015610ae3573d6000803e3d6000fd5b505050506040513d601f19601f82011682018060405250810190610b079190611314565b9050806001600160a01b0316856001600160a01b031603610b2d57506001949350505050565b6001600160a01b0380821660009081526001602090815260408083209389168352929052205460ff1615610b6657506001949350505050565b506000949350505050565b604080516060808252608082019092526000918291829182919060208201818036833701905050905060ad604d60208301303c80806020019051810190610bb891906113ea565b93509350935050909192565b600080610bd1848461098a565b90506001600160e01b0319811663095ea7b360e01b03610bf55760009150506109a5565b5060019392505050565b60606000856001600160a01b0316858585604051610c1e929190611423565b60006040518083038185875af1925050503d8060008114610c5b576040519150601f19603f3d011682016040523d82523d6000602084013e610c60565b606091505b509250905080610c7257815160208301fd5b50949350505050565b600060208284031215610c8d57600080fd5b81356001600160e01b031981168114610ca557600080fd5b9392505050565b60008083601f840112610cbe57600080fd5b50813567ffffffffffffffff811115610cd657600080fd5b6020830191508360208260051b8501011115610cf157600080fd5b9250929050565b60008060008060408587031215610d0e57600080fd5b843567ffffffffffffffff80821115610d2657600080fd5b610d3288838901610cac565b90965094506020870135915080821115610d4b57600080fd5b50610d5887828801610cac565b95989497509550505050565b6001600160a01b0381168114610d7957600080fd5b50565b634e487b7160e01b600052604160045260246000fd5b604051601f8201601f1916810167ffffffffffffffff81118282101715610dbb57610dbb610d7c565b604052919050565b600082601f830112610dd457600080fd5b813567ffffffffffffffff811115610dee57610dee610d7c565b610e01601f8201601f1916602001610d92565b818152846020838601011115610e1657600080fd5b816020850160208301376000918101602001919091529392505050565b60008060008060808587031215610e4957600080fd5b8435610e5481610d64565b93506020850135610e6481610d64565b925060408501359150606085013567ffffffffffffffff811115610e8757600080fd5b610e9387828801610dc3565b91505092959194509250565b60008060408385031215610eb257600080fd5b8235610ebd81610d64565b91506020830135610ecd81610d64565b809150509250929050565b60008060008060808587031215610eee57600080fd5b8435610ef981610d64565b93506020850135610f0981610d64565b93969395505050506040820135916060013590565b60008083601f840112610f3057600080fd5b50813567ffffffffffffffff811115610f4857600080fd5b602083019150836020828501011115610cf157600080fd5b60008060008060608587031215610f7657600080fd5b8435610f8181610d64565b935060208501359250604085013567ffffffffffffffff811115610fa457600080fd5b610d5887828801610f1e565b600060208083528351808285015260005b81811015610fdd57858101830151858201604001528201610fc1565b506000604082860101526040601f19601f8301168501019250505092915050565b6000806040838503121561101157600080fd5b823561101c81610d64565b946020939093013593505050565b60008060006060848603121561103f57600080fd5b833561104a81610d64565b95602085013595506040909401359392505050565b600082601f83011261107057600080fd5b8135602067ffffffffffffffff82111561108c5761108c610d7c565b8160051b61109b828201610d92565b92835284810182019282810190878511156110b557600080fd5b83870192505b84831015610828578235825291830191908301906110bb565b600080600080600060a086880312156110ec57600080fd5b85356110f781610d64565b9450602086013561110781610d64565b9350604086013567ffffffffffffffff8082111561112457600080fd5b61113089838a0161105f565b9450606088013591508082111561114657600080fd5b61115289838a0161105f565b9350608088013591508082111561116857600080fd5b5061117588828901610dc3565b9150509295509295909350565b60008060006060848603121561119757600080fd5b83356111a281610d64565b925060208401356111b281610d64565b929592945050506040919091013590565b600080602083850312156111d657600080fd5b823567ffffffffffffffff8111156111ed57600080fd5b6111f985828601610f1e565b90969095509350505050565b60006020828403121561121757600080fd5b5035919050565b600080600080600060a0868803121561123657600080fd5b853561124181610d64565b9450602086013561125181610d64565b93506040860135925060608601359150608086013567ffffffffffffffff81111561127b57600080fd5b61117588828901610dc3565b60006020828403121561129957600080fd5b8135610ca581610d64565b634e487b7160e01b600052603260045260246000fd5b8015158114610d7957600080fd5b6000602082840312156112da57600080fd5b8135610ca5816112ba565b634e487b7160e01b600052601160045260246000fd5b60006001820161130d5761130d6112e5565b5060010190565b60006020828403121561132657600080fd5b8151610ca581610d64565b60208152816020820152818360408301376000818301604090810191909152601f909201601f19160101919050565b60006020828403121561137257600080fd5b8151610ca5816112ba565b6000808585111561138d57600080fd5b8386111561139a57600080fd5b5050820193919092039150565b6001600160e01b031981358181169160048510156113cf5780818660040360031b1b83161692505b505092915050565b808201808211156109a5576109a56112e5565b6000806000606084860312156113ff57600080fd5b83519250602084015161141181610d64565b80925050604084015190509250925092565b818382376000910190815291905056fea26469706673582212201e7d8a4b8fa0cace1c5b0cd90bb52d1da97b22a6a0935407aa9cf547c3809b2464736f6c63430008110033",
  "linkReferences": {},
  "deployedLinkReferences": {}
}