{
  "_format": "hh-sol-artifact-1",
  "contractName": "AaveBridgeV2",
  "sourceName": "contracts/v1/yield/aave/v2/AaveBridgeV2.sol",
  "abi": [
    {
      "inputs": [
        {
          "internalType": "address",
          "name": "lendingPoolProvider",
          "type": "address"
        }
      ],
      "stateMutability": "nonpayable",
      "type": "constructor"
    },
    {
      "anonymous": false,
      "inputs": [
        {
          "indexed": true,
          "internalType": "address",
          "name": "previousOwner",
          "type": "address"
        },
        {
          "indexed": true,
          "internalType": "address",
          "name": "newOwner",
          "type": "address"
        }
      ],
      "name": "OwnershipTransferred",
      "type": "event"
    },
    {
      "anonymous": false,
      "inputs": [
        {
          "indexed": true,
          "internalType": "address",
          "name": "receiver",
          "type": "address"
        },
        {
          "indexed": true,
          "internalType": "address",
          "name": "tokenAddress",
          "type": "address"
        },
        {
          "indexed": true,
          "internalType": "uint256",
          "name": "tokenId",
          "type": "uint256"
        },
        {
          "indexed": false,
          "internalType": "uint256",
          "name": "amount",
          "type": "uint256"
        }
      ],
      "name": "WithdrawStuckERC1155",
      "type": "event"
    },
    {
      "anonymous": false,
      "inputs": [
        {
          "indexed": true,
          "internalType": "address",
          "name": "receiver",
          "type": "address"
        },
        {
          "indexed": true,
          "internalType": "address",
          "name": "tokenAddress",
          "type": "address"
        },
        {
          "indexed": false,
          "internalType": "uint256",
          "name": "amount",
          "type": "uint256"
        }
      ],
      "name": "WithdrawStuckERC20",
      "type": "event"
    },
    {
      "anonymous": false,
      "inputs": [
        {
          "indexed": true,
          "internalType": "address",
          "name": "receiver",
          "type": "address"
        },
        {
          "indexed": true,
          "internalType": "address",
          "name": "tokenAddress",
          "type": "address"
        },
        {
          "indexed": true,
          "internalType": "uint256",
          "name": "tokenId",
          "type": "uint256"
        }
      ],
      "name": "WithdrawStuckERC721",
      "type": "event"
    },
    {
      "anonymous": false,
      "inputs": [
        {
          "indexed": true,
          "internalType": "address",
          "name": "receiver",
          "type": "address"
        },
        {
          "indexed": false,
          "internalType": "uint256",
          "name": "amount",
          "type": "uint256"
        }
      ],
      "name": "WithdrawStuckEther",
      "type": "event"
    },
    {
      "inputs": [
        {
          "internalType": "address",
          "name": "assetToken",
          "type": "address"
        },
        {
          "internalType": "uint256",
          "name": "assetAmount",
          "type": "uint256"
        },
        {
          "internalType": "uint256",
          "name": "referralCode",
          "type": "uint256"
        }
      ],
      "name": "deposit",
      "outputs": [
        {
          "internalType": "uint256",
          "name": "",
          "type": "uint256"
        }
      ],
      "stateMutability": "nonpayable",
      "type": "function"
    },
    {
      "inputs": [
        {
          "internalType": "address",
          "name": "assetToken",
          "type": "address"
        }
      ],
      "name": "getReserveInterestToken",
      "outputs": [
        {
          "internalType": "address",
          "name": "aTokenAddress",
          "type": "address"
        }
      ],
      "stateMutability": "view",
      "type": "function"
    },
    {
      "inputs": [
        {
          "internalType": "address",
          "name": "account",
          "type": "address"
        },
        {
          "internalType": "address",
          "name": "assetToken",
          "type": "address"
        }
      ],
      "name": "getTotalBalance",
      "outputs": [
        {
          "internalType": "uint256",
          "name": "",
          "type": "uint256"
        }
      ],
      "stateMutability": "view",
      "type": "function"
    },
    {
      "inputs": [
        {
          "internalType": "address",
          "name": "assetToken",
          "type": "address"
        }
      ],
      "name": "isReserveActive",
      "outputs": [
        {
          "internalType": "bool",
          "name": "",
          "type": "bool"
        }
      ],
      "stateMutability": "view",
      "type": "function"
    },
    {
      "inputs": [],
      "name": "lendingPool",
      "outputs": [
        {
          "internalType": "contract ILendingPoolV2",
          "name": "",
          "type": "address"
        }
      ],
      "stateMutability": "view",
      "type": "function"
    },
    {
      "inputs": [],
      "name": "owner",
      "outputs": [
        {
          "internalType": "address",
          "name": "",
          "type": "address"
        }
      ],
      "stateMutability": "view",
      "type": "function"
    },
    {
      "inputs": [],
      "name": "provider",
      "outputs": [
        {
          "internalType": "contract ILendingPoolAddressesProviderV2",
          "name": "",
          "type": "address"
        }
      ],
      "stateMutability": "view",
      "type": "function"
    },
    {
      "inputs": [],
      "name": "renounceOwnership",
      "outputs": [],
      "stateMutability": "nonpayable",
      "type": "function"
    },
    {
      "inputs": [
        {
          "internalType": "address",
          "name": "newOwner",
          "type": "address"
        }
      ],
      "name": "transferOwnership",
      "outputs": [],
      "stateMutability": "nonpayable",
      "type": "function"
    },
    {
      "inputs": [
        {
          "internalType": "address",
          "name": "receiver",
          "type": "address"
        },
        {
          "internalType": "address",
          "name": "assetToken",
          "type": "address"
        },
        {
          "internalType": "uint256",
          "name": "assetAmount",
          "type": "uint256"
        }
      ],
      "name": "withdraw",
      "outputs": [],
      "stateMutability": "nonpayable",
      "type": "function"
    },
    {
      "inputs": [
        {
          "internalType": "address payable",
          "name": "receiver",
          "type": "address"
        },
        {
          "internalType": "address",
          "name": "tokenAddress",
          "type": "address"
        },
        {
          "internalType": "uint256",
          "name": "tokenId",
          "type": "uint256"
        }
      ],
      "name": "withdrawERC721",
      "outputs": [],
      "stateMutability": "nonpayable",
      "type": "function"
    },
    {
      "inputs": [
        {
          "internalType": "address payable",
          "name": "receiver",
          "type": "address"
        },
        {
          "internalType": "address",
          "name": "tokenAddress",
          "type": "address"
        },
        {
          "internalType": "uint256",
          "name": "amount",
          "type": "uint256"
        }
      ],
      "name": "withdrawErc20",
      "outputs": [],
      "stateMutability": "nonpayable",
      "type": "function"
    },
    {
      "inputs": [
        {
          "internalType": "address payable",
          "name": "receiver",
          "type": "address"
        },
        {
          "internalType": "uint256",
          "name": "amount",
          "type": "uint256"
        }
      ],
      "name": "withdrawEther",
      "outputs": [],
      "stateMutability": "nonpayable",
      "type": "function"
    }
  ],
  "bytecode": "0x60806040523480156200001157600080fd5b5060405162002a2f38038062002a2f833981810160405281019062000037919062000232565b6000620000496200021360201b60201c565b9050806000806101000a81548173ffffffffffffffffffffffffffffffffffffffff021916908373ffffffffffffffffffffffffffffffffffffffff1602179055508073ffffffffffffffffffffffffffffffffffffffff16600073ffffffffffffffffffffffffffffffffffffffff167f8be0079c531659141344cd1fd0a4f28419497f9722a3daafe3b4186f6b6457e060405160405180910390a35080600160006101000a81548173ffffffffffffffffffffffffffffffffffffffff021916908373ffffffffffffffffffffffffffffffffffffffff160217905550600160009054906101000a900473ffffffffffffffffffffffffffffffffffffffff1673ffffffffffffffffffffffffffffffffffffffff16630261bf8b6040518163ffffffff1660e01b815260040160206040518083038186803b1580156200019157600080fd5b505afa158015620001a6573d6000803e3d6000fd5b505050506040513d601f19601f82011682018060405250810190620001cc919062000232565b600260006101000a81548173ffffffffffffffffffffffffffffffffffffffff021916908373ffffffffffffffffffffffffffffffffffffffff16021790555050620002ac565b600033905090565b6000815190506200022c8162000292565b92915050565b6000602082840312156200024557600080fd5b600062000255848285016200021b565b91505092915050565b60006200026b8262000272565b9050919050565b600073ffffffffffffffffffffffffffffffffffffffff82169050919050565b6200029d816200025e565b8114620002a957600080fd5b50565b61277380620002bc6000396000f3fe608060405234801561001057600080fd5b50600436106100cf5760003560e01c8063715018a61161008c578063a0cc02e011610066578063a0cc02e0146101fe578063a59a99731461022e578063d9caed121461024c578063f2fde38b14610268576100cf565b8063715018a6146101a6578063883c042b146101b05780638da5cb5b146101e0576100cf565b8063085d4883146100d45780630efe6a8b146100f25780631593dee1146101225780634025feb21461013e57806351bd551f1461015a578063522f68151461018a575b600080fd5b6100dc610284565b6040516100e99190612346565b60405180910390f35b61010c60048036038101906101079190611d4f565b6102aa565b60405161011991906124be565b60405180910390f35b61013c60048036038101906101379190611c39565b61067c565b005b61015860048036038101906101539190611c39565b610721565b005b610174600480360381019061016f9190611cc4565b6107c6565b60405161018191906124be565b60405180910390f35b6101a4600480360381019061019f9190611c88565b6108a6565b005b6101ae610949565b005b6101ca60048036038101906101c59190611be7565b610a9c565b6040516101d7919061232b565b60405180910390f35b6101e8610aae565b6040516101f5919061220b565b60405180910390f35b61021860048036038101906102139190611be7565b610ad7565b604051610225919061220b565b60405180910390f35b610236610ae9565b6040516102439190612361565b60405180910390f35b61026660048036038101906102619190611d00565b610b0f565b005b610282600480360381019061027d9190611be7565b610bfe565b005b600160009054906101000a900473ffffffffffffffffffffffffffffffffffffffff1681565b60008030905060006102bb86610dc0565b90506102c686610e85565b610305576040517f08c379a00000000000000000000000000000000000000000000000000000000081526004016102fc9061245e565b60405180910390fd5b60008690506000829050868273ffffffffffffffffffffffffffffffffffffffff1663dd62ed3e30600260009054906101000a900473ffffffffffffffffffffffffffffffffffffffff166040518363ffffffff1660e01b815260040161036d929190612226565b60206040518083038186803b15801561038557600080fd5b505afa158015610399573d6000803e3d6000fd5b505050506040513d601f19601f820116820180604052508101906103bd9190611df1565b1015610494578173ffffffffffffffffffffffffffffffffffffffff1663095ea7b3600260009054906101000a900473ffffffffffffffffffffffffffffffffffffffff167fffffffffffffffffffffffffffffffffffffffffffffffffffffffffffffffff6040518363ffffffff1660e01b8152600401610440929190612286565b602060405180830381600087803b15801561045a57600080fd5b505af115801561046e573d6000803e3d6000fd5b505050506040513d601f19601f820116820180604052508101906104929190611d9e565b505b60008173ffffffffffffffffffffffffffffffffffffffff166370a08231866040518263ffffffff1660e01b81526004016104cf919061220b565b60206040518083038186803b1580156104e757600080fd5b505afa1580156104fb573d6000803e3d6000fd5b505050506040513d601f19601f8201168201806040525081019061051f9190611df1565b9050600260009054906101000a900473ffffffffffffffffffffffffffffffffffffffff1673ffffffffffffffffffffffffffffffffffffffff1663e8eda9df8a8a8861056b8c610f60565b6040518563ffffffff1660e01b815260040161058a94939291906122e6565b600060405180830381600087803b1580156105a457600080fd5b505af11580156105b8573d6000803e3d6000fd5b5050505060008273ffffffffffffffffffffffffffffffffffffffff166370a08231876040518263ffffffff1660e01b81526004016105f7919061220b565b60206040518083038186803b15801561060f57600080fd5b505afa158015610623573d6000803e3d6000fd5b505050506040513d601f19601f820116820180604052508101906106479190611df1565b9050600061065e8383610faf90919063ffffffff16565b905061066b338783610ff9565b809750505050505050509392505050565b610684611029565b73ffffffffffffffffffffffffffffffffffffffff1660008054906101000a900473ffffffffffffffffffffffffffffffffffffffff1673ffffffffffffffffffffffffffffffffffffffff1614610711576040517f08c379a00000000000000000000000000000000000000000000000000000000081526004016107089061243e565b60405180910390fd5b61071c838383611031565b505050565b610729611029565b73ffffffffffffffffffffffffffffffffffffffff1660008054906101000a900473ffffffffffffffffffffffffffffffffffffffff1673ffffffffffffffffffffffffffffffffffffffff16146107b6576040517f08c379a00000000000000000000000000000000000000000000000000000000081526004016107ad9061243e565b60405180910390fd5b6107c18383836111c6565b505050565b6000806107d283610dc0565b9050600073ffffffffffffffffffffffffffffffffffffffff168173ffffffffffffffffffffffffffffffffffffffff1614156108135760009150506108a0565b8073ffffffffffffffffffffffffffffffffffffffff166370a08231856040518263ffffffff1660e01b815260040161084c919061220b565b60206040518083038186803b15801561086457600080fd5b505afa158015610878573d6000803e3d6000fd5b505050506040513d601f19601f8201168201806040525081019061089c9190611df1565b9150505b92915050565b6108ae611029565b73ffffffffffffffffffffffffffffffffffffffff1660008054906101000a900473ffffffffffffffffffffffffffffffffffffffff1673ffffffffffffffffffffffffffffffffffffffff161461093b576040517f08c379a00000000000000000000000000000000000000000000000000000000081526004016109329061243e565b60405180910390fd5b61094582826113c2565b5050565b610951611029565b73ffffffffffffffffffffffffffffffffffffffff1660008054906101000a900473ffffffffffffffffffffffffffffffffffffffff1673ffffffffffffffffffffffffffffffffffffffff16146109de576040517f08c379a00000000000000000000000000000000000000000000000000000000081526004016109d59061243e565b60405180910390fd5b600073ffffffffffffffffffffffffffffffffffffffff1660008054906101000a900473ffffffffffffffffffffffffffffffffffffffff1673ffffffffffffffffffffffffffffffffffffffff167f8be0079c531659141344cd1fd0a4f28419497f9722a3daafe3b4186f6b6457e060405160405180910390a360008060006101000a81548173ffffffffffffffffffffffffffffffffffffffff021916908373ffffffffffffffffffffffffffffffffffffffff160217905550565b6000610aa782610e85565b9050919050565b60008060009054906101000a900473ffffffffffffffffffffffffffffffffffffffff16905090565b6000610ae282610dc0565b9050919050565b600260009054906101000a900473ffffffffffffffffffffffffffffffffffffffff1681565b6000309050610b1d83610e85565b610b5c576040517f08c379a0000000000000000000000000000000000000000000000000000000008152600401610b539061245e565b60405180910390fd5b600260009054906101000a900473ffffffffffffffffffffffffffffffffffffffff1673ffffffffffffffffffffffffffffffffffffffff166369328dec8484846040518463ffffffff1660e01b8152600401610bbb939291906122af565b600060405180830381600087803b158015610bd557600080fd5b505af1158015610be9573d6000803e3d6000fd5b50505050610bf8848484610ff9565b50505050565b610c06611029565b73ffffffffffffffffffffffffffffffffffffffff1660008054906101000a900473ffffffffffffffffffffffffffffffffffffffff1673ffffffffffffffffffffffffffffffffffffffff1614610c93576040517f08c379a0000000000000000000000000000000000000000000000000000000008152600401610c8a9061243e565b60405180910390fd5b600073ffffffffffffffffffffffffffffffffffffffff168173ffffffffffffffffffffffffffffffffffffffff161415610d03576040517f08c379a0000000000000000000000000000000000000000000000000000000008152600401610cfa906123be565b60405180910390fd5b8073ffffffffffffffffffffffffffffffffffffffff1660008054906101000a900473ffffffffffffffffffffffffffffffffffffffff1673ffffffffffffffffffffffffffffffffffffffff167f8be0079c531659141344cd1fd0a4f28419497f9722a3daafe3b4186f6b6457e060405160405180910390a3806000806101000a81548173ffffffffffffffffffffffffffffffffffffffff021916908373ffffffffffffffffffffffffffffffffffffffff16021790555050565b6000610dca61189e565b600260009054906101000a900473ffffffffffffffffffffffffffffffffffffffff1673ffffffffffffffffffffffffffffffffffffffff166335ea6a75846040518263ffffffff1660e01b8152600401610e25919061220b565b6101806040518083038186803b158015610e3e57600080fd5b505afa158015610e52573d6000803e3d6000fd5b505050506040513d601f19601f82011682018060405250810190610e769190611dc7565b90508060e00151915050919050565b6000610e8f61189e565b600260009054906101000a900473ffffffffffffffffffffffffffffffffffffffff1673ffffffffffffffffffffffffffffffffffffffff166335ea6a75846040518263ffffffff1660e01b8152600401610eea919061220b565b6101806040518083038186803b158015610f0357600080fd5b505afa158015610f17573d6000803e3d6000fd5b505050506040513d601f19601f82011682018060405250810190610f3b9190611dc7565b9050600067010000000000000090508081836000015160000151161492505050919050565b6000620100008210610fa7576040517f08c379a0000000000000000000000000000000000000000000000000000000008152600401610f9e9061239e565b60405180910390fd5b819050919050565b6000610ff183836040518060400160405280601e81526020017f536166654d6174683a207375627472616374696f6e206f766572666c6f7700008152506114b4565b905092915050565b61102483828473ffffffffffffffffffffffffffffffffffffffff1661150f9092919063ffffffff16565b505050565b600033905090565b600073ffffffffffffffffffffffffffffffffffffffff168373ffffffffffffffffffffffffffffffffffffffff1614156110a1576040517f08c379a0000000000000000000000000000000000000000000000000000000008152600401611098906123de565b60405180910390fd5b808273ffffffffffffffffffffffffffffffffffffffff166370a08231306040518263ffffffff1660e01b81526004016110db919061220b565b60206040518083038186803b1580156110f357600080fd5b505afa158015611107573d6000803e3d6000fd5b505050506040513d601f19601f8201168201806040525081019061112b9190611df1565b106111c15761115b83828473ffffffffffffffffffffffffffffffffffffffff1661150f9092919063ffffffff16565b8173ffffffffffffffffffffffffffffffffffffffff168373ffffffffffffffffffffffffffffffffffffffff167f6c9d637297625e945b296ff73a71fcfbd0a9e062652b6491a921c4c60194176b836040516111b891906124be565b60405180910390a35b505050565b600073ffffffffffffffffffffffffffffffffffffffff168373ffffffffffffffffffffffffffffffffffffffff161415611236576040517f08c379a000000000000000000000000000000000000000000000000000000000815260040161122d906123de565b60405180910390fd5b3073ffffffffffffffffffffffffffffffffffffffff168273ffffffffffffffffffffffffffffffffffffffff16636352211e836040518263ffffffff1660e01b815260040161128691906124be565b60206040518083038186803b15801561129e57600080fd5b505afa1580156112b2573d6000803e3d6000fd5b505050506040513d601f19601f820116820180604052508101906112d69190611c10565b73ffffffffffffffffffffffffffffffffffffffff1614156113bd578173ffffffffffffffffffffffffffffffffffffffff166323b872dd3085846040518463ffffffff1660e01b815260040161132f9392919061224f565b600060405180830381600087803b15801561134957600080fd5b505af115801561135d573d6000803e3d6000fd5b50505050808273ffffffffffffffffffffffffffffffffffffffff168473ffffffffffffffffffffffffffffffffffffffff167ffefe036cac4ee3a4aca074a81cbcc4376e1484693289078dbec149c890101d5b60405160405180910390a45b505050565b600073ffffffffffffffffffffffffffffffffffffffff168273ffffffffffffffffffffffffffffffffffffffff161415611432576040517f08c379a0000000000000000000000000000000000000000000000000000000008152600401611429906123de565b60405180910390fd5b8047106114b057611462818373ffffffffffffffffffffffffffffffffffffffff1661159590919063ffffffff16565b8173ffffffffffffffffffffffffffffffffffffffff167eddb683bb45cd5d0ad8a200c6fae7152b1c236ee90a4a37db692407f5cc38bd826040516114a791906124be565b60405180910390a25b5050565b60008383111582906114fc576040517f08c379a00000000000000000000000000000000000000000000000000000000081526004016114f3919061237c565b60405180910390fd5b5060008385039050809150509392505050565b6115908363a9059cbb60e01b848460405160240161152e929190612286565b604051602081830303815290604052907bffffffffffffffffffffffffffffffffffffffffffffffffffffffff19166020820180517bffffffffffffffffffffffffffffffffffffffffffffffffffffffff8381831617835250505050611689565b505050565b804710156115d8576040517f08c379a00000000000000000000000000000000000000000000000000000000081526004016115cf9061241e565b60405180910390fd5b60008273ffffffffffffffffffffffffffffffffffffffff16826040516115fe906121f6565b60006040518083038185875af1925050503d806000811461163b576040519150601f19603f3d011682016040523d82523d6000602084013e611640565b606091505b5050905080611684576040517f08c379a000000000000000000000000000000000000000000000000000000000815260040161167b906123fe565b60405180910390fd5b505050565b60606116eb826040518060400160405280602081526020017f5361666545524332303a206c6f772d6c6576656c2063616c6c206661696c65648152508573ffffffffffffffffffffffffffffffffffffffff166117509092919063ffffffff16565b905060008151111561174b578080602001905181019061170b9190611d9e565b61174a576040517f08c379a00000000000000000000000000000000000000000000000000000000081526004016117419061249e565b60405180910390fd5b5b505050565b606061175f8484600085611768565b90509392505050565b60606117738561188b565b6117b2576040517f08c379a00000000000000000000000000000000000000000000000000000000081526004016117a99061247e565b60405180910390fd5b600060608673ffffffffffffffffffffffffffffffffffffffff1685876040516117dc91906121df565b60006040518083038185875af1925050503d8060008114611819576040519150601f19603f3d011682016040523d82523d6000602084013e61181e565b606091505b50915091508115611833578092505050611883565b6000815111156118465780518082602001fd5b836040517f08c379a000000000000000000000000000000000000000000000000000000000815260040161187a919061237c565b60405180910390fd5b949350505050565b600080823b905060008111915050919050565b6040518061018001604052806118b26119c1565b815260200160006fffffffffffffffffffffffffffffffff16815260200160006fffffffffffffffffffffffffffffffff16815260200160006fffffffffffffffffffffffffffffffff16815260200160006fffffffffffffffffffffffffffffffff16815260200160006fffffffffffffffffffffffffffffffff168152602001600064ffffffffff168152602001600073ffffffffffffffffffffffffffffffffffffffff168152602001600073ffffffffffffffffffffffffffffffffffffffff168152602001600073ffffffffffffffffffffffffffffffffffffffff168152602001600073ffffffffffffffffffffffffffffffffffffffff168152602001600060ff1681525090565b6040518060200160405280600081525090565b6000813590506119e38161269c565b92915050565b6000815190506119f88161269c565b92915050565b600081359050611a0d816126b3565b92915050565b600081519050611a22816126ca565b92915050565b600060208284031215611a3a57600080fd5b611a4460206124d9565b90506000611a5484828501611ba8565b60008301525092915050565b60006101808284031215611a7357600080fd5b611a7e6101806124d9565b90506000611a8e84828501611a28565b6000830152506020611aa284828501611b7e565b6020830152506040611ab684828501611b7e565b6040830152506060611aca84828501611b7e565b6060830152506080611ade84828501611b7e565b60808301525060a0611af284828501611b7e565b60a08301525060c0611b0684828501611bbd565b60c08301525060e0611b1a848285016119e9565b60e083015250610100611b2f848285016119e9565b61010083015250610120611b45848285016119e9565b61012083015250610140611b5b848285016119e9565b61014083015250610160611b7184828501611bd2565b6101608301525092915050565b600081519050611b8d816126e1565b92915050565b600081359050611ba2816126f8565b92915050565b600081519050611bb7816126f8565b92915050565b600081519050611bcc8161270f565b92915050565b600081519050611be181612726565b92915050565b600060208284031215611bf957600080fd5b6000611c07848285016119d4565b91505092915050565b600060208284031215611c2257600080fd5b6000611c30848285016119e9565b91505092915050565b600080600060608486031215611c4e57600080fd5b6000611c5c868287016119fe565b9350506020611c6d868287016119d4565b9250506040611c7e86828701611b93565b9150509250925092565b60008060408385031215611c9b57600080fd5b6000611ca9858286016119fe565b9250506020611cba85828601611b93565b9150509250929050565b60008060408385031215611cd757600080fd5b6000611ce5858286016119d4565b9250506020611cf6858286016119d4565b9150509250929050565b600080600060608486031215611d1557600080fd5b6000611d23868287016119d4565b9350506020611d34868287016119d4565b9250506040611d4586828701611b93565b9150509250925092565b600080600060608486031215611d6457600080fd5b6000611d72868287016119d4565b9350506020611d8386828701611b93565b9250506040611d9486828701611b93565b9150509250925092565b600060208284031215611db057600080fd5b6000611dbe84828501611a13565b91505092915050565b60006101808284031215611dda57600080fd5b6000611de884828501611a60565b91505092915050565b600060208284031215611e0357600080fd5b6000611e1184828501611ba8565b91505092915050565b611e23816125da565b82525050565b611e3281612538565b82525050565b611e418161255c565b82525050565b6000611e5282612506565b611e5c818561251c565b9350611e6c818560208601612658565b80840191505092915050565b611e81816125ec565b82525050565b611e9081612610565b82525050565b6000611ea182612511565b611eab8185612527565b9350611ebb818560208601612658565b611ec48161268b565b840191505092915050565b6000611edc602683612527565b91507f53616665436173743a2076616c756520646f65736e27742066697420696e203160008301527f36206269747300000000000000000000000000000000000000000000000000006020830152604082019050919050565b6000611f42602683612527565b91507f4f776e61626c653a206e6577206f776e657220697320746865207a65726f206160008301527f64647265737300000000000000000000000000000000000000000000000000006020830152604082019050919050565b6000611fa8600983612527565b91507f4248503a452d34303300000000000000000000000000000000000000000000006000830152602082019050919050565b6000611fe8603a83612527565b91507f416464726573733a20756e61626c6520746f2073656e642076616c75652c207260008301527f6563697069656e74206d617920686176652072657665727465640000000000006020830152604082019050919050565b600061204e601d83612527565b91507f416464726573733a20696e73756666696369656e742062616c616e63650000006000830152602082019050919050565b600061208e602083612527565b91507f4f776e61626c653a2063616c6c6572206973206e6f7420746865206f776e65726000830152602082019050919050565b60006120ce600a83612527565b91507f414256323a452d343234000000000000000000000000000000000000000000006000830152602082019050919050565b600061210e60008361251c565b9150600082019050919050565b6000612128601d83612527565b91507f416464726573733a2063616c6c20746f206e6f6e2d636f6e74726163740000006000830152602082019050919050565b6000612168602a83612527565b91507f5361666545524332303a204552433230206f7065726174696f6e20646964206e60008301527f6f742073756363656564000000000000000000000000000000000000000000006020830152604082019050919050565b6121ca81612584565b82525050565b6121d9816125b2565b82525050565b60006121eb8284611e47565b915081905092915050565b600061220182612101565b9150819050919050565b60006020820190506122206000830184611e29565b92915050565b600060408201905061223b6000830185611e29565b6122486020830184611e29565b9392505050565b60006060820190506122646000830186611e29565b6122716020830185611e1a565b61227e60408301846121d0565b949350505050565b600060408201905061229b6000830185611e29565b6122a860208301846121d0565b9392505050565b60006060820190506122c46000830186611e29565b6122d160208301856121d0565b6122de6040830184611e29565b949350505050565b60006080820190506122fb6000830187611e29565b61230860208301866121d0565b6123156040830185611e29565b61232260608301846121c1565b95945050505050565b60006020820190506123406000830184611e38565b92915050565b600060208201905061235b6000830184611e78565b92915050565b60006020820190506123766000830184611e87565b92915050565b600060208201905081810360008301526123968184611e96565b905092915050565b600060208201905081810360008301526123b781611ecf565b9050919050565b600060208201905081810360008301526123d781611f35565b9050919050565b600060208201905081810360008301526123f781611f9b565b9050919050565b6000602082019050818103600083015261241781611fdb565b9050919050565b6000602082019050818103600083015261243781612041565b9050919050565b6000602082019050818103600083015261245781612081565b9050919050565b60006020820190508181036000830152612477816120c1565b9050919050565b600060208201905081810360008301526124978161211b565b9050919050565b600060208201905081810360008301526124b78161215b565b9050919050565b60006020820190506124d360008301846121d0565b92915050565b6000604051905081810181811067ffffffffffffffff821117156124fc57600080fd5b8060405250919050565b600081519050919050565b600081519050919050565b600081905092915050565b600082825260208201905092915050565b600061254382612592565b9050919050565b600061255582612592565b9050919050565b60008115159050919050565b60006fffffffffffffffffffffffffffffffff82169050919050565b600061ffff82169050919050565b600073ffffffffffffffffffffffffffffffffffffffff82169050919050565b6000819050919050565b600064ffffffffff82169050919050565b600060ff82169050919050565b60006125e582612634565b9050919050565b60006125f7826125fe565b9050919050565b600061260982612592565b9050919050565b600061261b82612622565b9050919050565b600061262d82612592565b9050919050565b600061263f82612646565b9050919050565b600061265182612592565b9050919050565b60005b8381101561267657808201518184015260208101905061265b565b83811115612685576000848401525b50505050565b6000601f19601f8301169050919050565b6126a581612538565b81146126b057600080fd5b50565b6126bc8161254a565b81146126c757600080fd5b50565b6126d38161255c565b81146126de57600080fd5b50565b6126ea81612568565b81146126f557600080fd5b50565b612701816125b2565b811461270c57600080fd5b50565b612718816125bc565b811461272357600080fd5b50565b61272f816125cd565b811461273a57600080fd5b5056fea2646970667358221220732ee94bd5504b7c82397c9148a0a8cc04a9175643bad22c582e5cd2c072dcf664736f6c634300060c0033",
  "linkReferences": {},
  "deployedLinkReferences": {}
}