{
  "_format": "hh-sol-artifact-1",
  "contractName": "Account",
  "sourceName": "contracts/Account.sol",
  "abi": [
    {
      "inputs": [],
      "stateMutability": "nonpayable",
      "type": "constructor"
    },
    {
      "inputs": [],
      "name": "AccountLocked",
      "type": "error"
    },
    {
      "inputs": [],
      "name": "ExceedsMaxLockTime",
      "type": "error"
    },
    {
      "inputs": [],
      "name": "InvalidInput",
      "type": "error"
    },
    {
      "inputs": [],
      "name": "NotAuthorized",
      "type": "error"
    },
    {
      "inputs": [],
      "name": "OwnershipCycle",
      "type": "error"
    },
    {
      "anonymous": false,
      "inputs": [
        {
          "indexed": false,
          "internalType": "uint256",
          "name": "lockedUntil",
          "type": "uint256"
        }
      ],
      "name": "LockUpdated",
      "type": "event"
    },
    {
      "anonymous": false,
      "inputs": [
        {
          "indexed": false,
          "internalType": "address",
          "name": "owner",
          "type": "address"
        },
        {
          "indexed": false,
          "internalType": "bytes4",
          "name": "selector",
          "type": "bytes4"
        },
        {
          "indexed": false,
          "internalType": "address",
          "name": "implementation",
          "type": "address"
        }
      ],
      "name": "OverrideUpdated",
      "type": "event"
    },
    {
      "anonymous": false,
      "inputs": [
        {
          "indexed": false,
          "internalType": "address",
          "name": "owner",
          "type": "address"
        },
        {
          "indexed": false,
          "internalType": "address",
          "name": "caller",
          "type": "address"
        },
        {
          "indexed": false,
          "internalType": "bool",
          "name": "hasPermission",
          "type": "bool"
        }
      ],
      "name": "PermissionUpdated",
      "type": "event"
    },
    {
      "anonymous": false,
      "inputs": [
        {
          "indexed": true,
          "internalType": "address",
          "name": "target",
          "type": "address"
        },
        {
          "indexed": true,
          "internalType": "uint256",
          "name": "value",
          "type": "uint256"
        },
        {
          "indexed": false,
          "internalType": "bytes",
          "name": "data",
          "type": "bytes"
        }
      ],
      "name": "TransactionExecuted",
      "type": "event"
    },
    {
      "inputs": [
        {
          "internalType": "address",
          "name": "to",
          "type": "address"
        },
        {
          "internalType": "uint256",
          "name": "value",
          "type": "uint256"
        },
        {
          "internalType": "bytes",
          "name": "data",
          "type": "bytes"
        }
      ],
      "name": "executeCall",
      "outputs": [
        {
          "internalType": "bytes",
          "name": "",
          "type": "bytes"
        }
      ],
      "stateMutability": "payable",
      "type": "function"
    },
    {
      "inputs": [
        {
          "internalType": "address",
          "name": "caller",
          "type": "address"
        }
      ],
      "name": "isAuthorized",
      "outputs": [
        {
          "internalType": "bool",
          "name": "",
          "type": "bool"
        }
      ],
      "stateMutability": "view",
      "type": "function"
    },
    {
      "inputs": [],
      "name": "isLocked",
      "outputs": [
        {
          "internalType": "bool",
          "name": "",
          "type": "bool"
        }
      ],
      "stateMutability": "view",
      "type": "function"
    },
    {
      "inputs": [
        {
          "internalType": "uint256",
          "name": "_lockedUntil",
          "type": "uint256"
        }
      ],
      "name": "lock",
      "outputs": [],
      "stateMutability": "nonpayable",
      "type": "function"
    },
    {
      "inputs": [],
      "name": "lockedUntil",
      "outputs": [
        {
          "internalType": "uint256",
          "name": "",
          "type": "uint256"
        }
      ],
      "stateMutability": "view",
      "type": "function"
    },
    {
      "inputs": [
        {
          "internalType": "address",
          "name": "",
          "type": "address"
        },
        {
          "internalType": "address",
          "name": "",
          "type": "address"
        },
        {
          "internalType": "uint256[]",
          "name": "",
          "type": "uint256[]"
        },
        {
          "internalType": "uint256[]",
          "name": "",
          "type": "uint256[]"
        },
        {
          "internalType": "bytes",
          "name": "",
          "type": "bytes"
        }
      ],
      "name": "onERC1155BatchReceived",
      "outputs": [
        {
          "internalType": "bytes4",
          "name": "",
          "type": "bytes4"
        }
      ],
      "stateMutability": "pure",
      "type": "function"
    },
    {
      "inputs": [
        {
          "internalType": "address",
          "name": "",
          "type": "address"
        },
        {
          "internalType": "address",
          "name": "",
          "type": "address"
        },
        {
          "internalType": "uint256",
          "name": "",
          "type": "uint256"
        },
        {
          "internalType": "uint256",
          "name": "",
          "type": "uint256"
        },
        {
          "internalType": "bytes",
          "name": "",
          "type": "bytes"
        }
      ],
      "name": "onERC1155Received",
      "outputs": [
        {
          "internalType": "bytes4",
          "name": "",
          "type": "bytes4"
        }
      ],
      "stateMutability": "pure",
      "type": "function"
    },
    {
      "inputs": [
        {
          "internalType": "address",
          "name": "",
          "type": "address"
        },
        {
          "internalType": "address",
          "name": "",
          "type": "address"
        },
        {
          "internalType": "uint256",
          "name": "receivedTokenId",
          "type": "uint256"
        },
        {
          "internalType": "bytes",
          "name": "",
          "type": "bytes"
        }
      ],
      "name": "onERC721Received",
      "outputs": [
        {
          "internalType": "bytes4",
          "name": "",
          "type": "bytes4"
        }
      ],
      "stateMutability": "view",
      "type": "function"
    },
    {
      "inputs": [],
      "name": "owner",
      "outputs": [
        {
          "internalType": "address",
          "name": "",
          "type": "address"
        }
      ],
      "stateMutability": "view",
      "type": "function"
    },
    {
      "inputs": [
        {
          "internalType": "address",
          "name": "",
          "type": "address"
        },
        {
          "internalType": "address",
          "name": "",
          "type": "address"
        }
      ],
      "name": "permissions",
      "outputs": [
        {
          "internalType": "bool",
          "name": "",
          "type": "bool"
        }
      ],
      "stateMutability": "view",
      "type": "function"
    },
    {
      "inputs": [
        {
          "internalType": "address[]",
          "name": "callers",
          "type": "address[]"
        },
        {
          "internalType": "bool[]",
          "name": "_permissions",
          "type": "bool[]"
        }
      ],
      "name": "setPermissions",
      "outputs": [],
      "stateMutability": "nonpayable",
      "type": "function"
    },
    {
      "inputs": [
        {
          "internalType": "bytes4",
          "name": "interfaceId",
          "type": "bytes4"
        }
      ],
      "name": "supportsInterface",
      "outputs": [
        {
          "internalType": "bool",
          "name": "",
          "type": "bool"
        }
      ],
      "stateMutability": "pure",
      "type": "function"
    },
    {
      "inputs": [],
      "name": "token",
      "outputs": [
        {
          "internalType": "uint256",
          "name": "chainId",
          "type": "uint256"
        },
        {
          "internalType": "address",
          "name": "tokenContract",
          "type": "address"
        },
        {
          "internalType": "uint256",
          "name": "tokenId",
          "type": "uint256"
        }
      ],
      "stateMutability": "view",
      "type": "function"
    },
    {
      "stateMutability": "payable",
      "type": "receive"
    }
  ],
  "bytecode": "0x608060405234801561001057600080fd5b50610fa8806100206000396000f3fe6080604052600436106100c65760003560e01c8063a4e2d6341161007f578063dd46706411610059578063dd46706414610251578063f23a6e6114610271578063fc0c546a1461029d578063fe9fbb80146102d557600080fd5b8063a4e2d634146101ea578063bc197c8114610201578063ce0617ec1461022d57600080fd5b806301ffc9a7146100d2578063039721b114610107578063150b7a02146101295780631f9838b5146101625780638da5cb5b1461019d5780639e5d4c49146101ca57600080fd5b366100cd57005b600080fd5b3480156100de57600080fd5b506100f26100ed36600461095c565b6102f5565b60405190151581526020015b60405180910390f35b34801561011357600080fd5b506101276101223660046109d9565b61035c565b005b34801561013557600080fd5b50610149610144366004610b14565b610525565b6040516001600160e01b031990911681526020016100fe565b34801561016e57600080fd5b506100f261017d366004610b80565b600160209081526000928352604080842090915290825290205460ff1681565b3480156101a957600080fd5b506101b261058d565b6040516001600160a01b0390911681526020016100fe565b6101dd6101d8366004610bb9565b610623565b6040516100fe9190610c42565b3480156101f657600080fd5b5060005442106100f2565b34801561020d57600080fd5b5061014961021c366004610d10565b63bc197c8160e01b95945050505050565b34801561023957600080fd5b5061024360005481565b6040519081526020016100fe565b34801561025d57600080fd5b5061012761026c366004610dbe565b6106c7565b34801561027d57600080fd5b5061014961028c366004610dd7565b63f23a6e6160e01b95945050505050565b3480156102a957600080fd5b506102b261078c565b604080519384526001600160a01b039092166020840152908201526060016100fe565b3480156102e157600080fd5b506100f26102f0366004610e40565b6107a4565b6000806001600160e01b031983166301ffc9a760e01b148061032757506001600160e01b03198316630271189760e51b145b8061034257506001600160e01b03198316631dfe9a6f60e31b145b905080156103535750600192915050565b50600092915050565b60005442101561037f57604051636315bfbb60e01b815260040160405180910390fd5b600061038961058d565b9050336001600160a01b038216146103b45760405163ea8e4eb560e01b815260040160405180910390fd5b838281146103d55760405163b4fa3fb360e01b815260040160405180910390fd5b60005b8181101561051c578484828181106103f2576103f2610e5d565b90506020020160208101906104079190610e73565b6001600160a01b03841660009081526001602052604081209089898581811061043257610432610e5d565b90506020020160208101906104479190610e40565b6001600160a01b031681526020810191909152604001600020805460ff19169115159190911790557f394777a58092892d136a90c4bb7e4350c72ac50fba6a0208128677f36527dcf5838888848181106104a3576104a3610e5d565b90506020020160208101906104b89190610e40565b8787858181106104ca576104ca610e5d565b90506020020160208101906104df9190610e73565b604080516001600160a01b03948516815293909216602084015215159082015260600160405180910390a18061051481610eab565b9150506103d8565b50505050505050565b60008060008061053361088d565b925092509250468314801561055057506001600160a01b03821633145b801561055b57508581145b156105795760405163b79e3f3f60e01b815260040160405180910390fd5b50630a85bd0160e11b979650505050505050565b60008060008061059b61088d565b9250925092504683146105b2576000935050505090565b6040516331a9108f60e11b8152600481018290526001600160a01b03831690636352211e90602401602060405180830381865afa1580156105f7573d6000803e3d6000fd5b505050506040513d601f19601f8201168201806040525081019061061b9190610ec4565b935050505090565b606061062e336107a4565b61064b5760405163ea8e4eb560e01b815260040160405180910390fd5b60005442101561066e57604051636315bfbb60e01b815260040160405180910390fd5b83856001600160a01b03167f47d99ad340f52da66535aff7e10da1ceb85a32bcbd9fa1c42314d194545e14d285856040516106aa929190610ee1565b60405180910390a36106be858585856108e0565b95945050505050565b6106cf61058d565b6001600160a01b0316336001600160a01b0316146107005760405163ea8e4eb560e01b815260040160405180910390fd5b60005442101561072357604051636315bfbb60e01b815260040160405180910390fd5b610731426301e13380610f10565b811115610751576040516301814f7d60e31b815260040160405180910390fd5b60008190556040518181527fa7b24c66dd3269a292a60b3facdbb8f3e7557d1e19e64d99e0d6ee7250be63ad9060200160405180910390a150565b600080600061079961088d565b925092509250909192565b60008060006107b161088d565b6040516331a9108f60e11b8152600481018290529194509250600091506001600160a01b03841690636352211e90602401602060405180830381865afa1580156107ff573d6000803e3d6000fd5b505050506040513d601f19601f820116820180604052508101906108239190610ec4565b9050806001600160a01b0316856001600160a01b03160361084957506001949350505050565b6001600160a01b0380821660009081526001602090815260408083209389168352929052205460ff161561088257506001949350505050565b506000949350505050565b604080516060808252608082019092526000918291829182919060208201818036833701905050905060ad604d60208301303c808060200190518101906108d49190610f29565b93509350935050909192565b60606000856001600160a01b03168585856040516108ff929190610f62565b60006040518083038185875af1925050503d806000811461093c576040519150601f19603f3d011682016040523d82523d6000602084013e610941565b606091505b50925090508061095357815160208301fd5b50949350505050565b60006020828403121561096e57600080fd5b81356001600160e01b03198116811461098657600080fd5b9392505050565b60008083601f84011261099f57600080fd5b50813567ffffffffffffffff8111156109b757600080fd5b6020830191508360208260051b85010111156109d257600080fd5b9250929050565b600080600080604085870312156109ef57600080fd5b843567ffffffffffffffff80821115610a0757600080fd5b610a138883890161098d565b90965094506020870135915080821115610a2c57600080fd5b50610a398782880161098d565b95989497509550505050565b6001600160a01b0381168114610a5a57600080fd5b50565b634e487b7160e01b600052604160045260246000fd5b604051601f8201601f1916810167ffffffffffffffff81118282101715610a9c57610a9c610a5d565b604052919050565b600082601f830112610ab557600080fd5b813567ffffffffffffffff811115610acf57610acf610a5d565b610ae2601f8201601f1916602001610a73565b818152846020838601011115610af757600080fd5b816020850160208301376000918101602001919091529392505050565b60008060008060808587031215610b2a57600080fd5b8435610b3581610a45565b93506020850135610b4581610a45565b925060408501359150606085013567ffffffffffffffff811115610b6857600080fd5b610b7487828801610aa4565b91505092959194509250565b60008060408385031215610b9357600080fd5b8235610b9e81610a45565b91506020830135610bae81610a45565b809150509250929050565b60008060008060608587031215610bcf57600080fd5b8435610bda81610a45565b935060208501359250604085013567ffffffffffffffff80821115610bfe57600080fd5b818701915087601f830112610c1257600080fd5b813581811115610c2157600080fd5b886020828501011115610c3357600080fd5b95989497505060200194505050565b600060208083528351808285015260005b81811015610c6f57858101830151858201604001528201610c53565b506000604082860101526040601f19601f8301168501019250505092915050565b600082601f830112610ca157600080fd5b8135602067ffffffffffffffff821115610cbd57610cbd610a5d565b8160051b610ccc828201610a73565b9283528481018201928281019087851115610ce657600080fd5b83870192505b84831015610d0557823582529183019190830190610cec565b979650505050505050565b600080600080600060a08688031215610d2857600080fd5b8535610d3381610a45565b94506020860135610d4381610a45565b9350604086013567ffffffffffffffff80821115610d6057600080fd5b610d6c89838a01610c90565b94506060880135915080821115610d8257600080fd5b610d8e89838a01610c90565b93506080880135915080821115610da457600080fd5b50610db188828901610aa4565b9150509295509295909350565b600060208284031215610dd057600080fd5b5035919050565b600080600080600060a08688031215610def57600080fd5b8535610dfa81610a45565b94506020860135610e0a81610a45565b93506040860135925060608601359150608086013567ffffffffffffffff811115610e3457600080fd5b610db188828901610aa4565b600060208284031215610e5257600080fd5b813561098681610a45565b634e487b7160e01b600052603260045260246000fd5b600060208284031215610e8557600080fd5b8135801515811461098657600080fd5b634e487b7160e01b600052601160045260246000fd5b600060018201610ebd57610ebd610e95565b5060010190565b600060208284031215610ed657600080fd5b815161098681610a45565b60208152816020820152818360408301376000818301604090810191909152601f909201601f19160101919050565b80820180821115610f2357610f23610e95565b92915050565b600080600060608486031215610f3e57600080fd5b835192506020840151610f5081610a45565b80925050604084015190509250925092565b818382376000910190815291905056fea2646970667358221220544a86b8a11603b240fea3eedfc734fbab048e6ad433f44161446097f0416baf64736f6c63430008110033",
  "linkReferences": {},
  "deployedLinkReferences": {}
}