{
  "_format": "hh-sol-artifact-1",
  "contractName": "Account",
  "sourceName": "contracts/Account.sol",
  "abi": [
    {
      "inputs": [],
      "stateMutability": "nonpayable",
      "type": "constructor"
    },
    {
      "inputs": [],
      "name": "AccountLocked",
      "type": "error"
    },
    {
      "inputs": [],
      "name": "ExceedsMaxLockTime",
      "type": "error"
    },
    {
      "inputs": [],
      "name": "InvalidInput",
      "type": "error"
    },
    {
      "inputs": [],
      "name": "NotAuthorized",
      "type": "error"
    },
    {
      "inputs": [],
      "name": "OwnershipCycle",
      "type": "error"
    },
    {
      "anonymous": false,
      "inputs": [
        {
          "indexed": false,
          "internalType": "uint256",
          "name": "lockedUntil",
          "type": "uint256"
        }
      ],
      "name": "LockUpdated",
      "type": "event"
    },
    {
      "anonymous": false,
      "inputs": [
        {
          "indexed": false,
          "internalType": "address",
          "name": "owner",
          "type": "address"
        },
        {
          "indexed": false,
          "internalType": "bytes4",
          "name": "selector",
          "type": "bytes4"
        },
        {
          "indexed": false,
          "internalType": "address",
          "name": "implementation",
          "type": "address"
        }
      ],
      "name": "OverrideUpdated",
      "type": "event"
    },
    {
      "anonymous": false,
      "inputs": [
        {
          "indexed": false,
          "internalType": "address",
          "name": "owner",
          "type": "address"
        },
        {
          "indexed": false,
          "internalType": "address",
          "name": "caller",
          "type": "address"
        },
        {
          "indexed": false,
          "internalType": "bool",
          "name": "hasPermission",
          "type": "bool"
        }
      ],
      "name": "PermissionUpdated",
      "type": "event"
    },
    {
      "inputs": [
        {
          "internalType": "address",
          "name": "to",
          "type": "address"
        },
        {
          "internalType": "uint256",
          "name": "value",
          "type": "uint256"
        },
        {
          "internalType": "bytes",
          "name": "data",
          "type": "bytes"
        }
      ],
      "name": "executeCall",
      "outputs": [
        {
          "internalType": "bytes",
          "name": "",
          "type": "bytes"
        }
      ],
      "stateMutability": "payable",
      "type": "function"
    },
    {
      "inputs": [
        {
          "internalType": "address",
          "name": "caller",
          "type": "address"
        }
      ],
      "name": "isAuthorized",
      "outputs": [
        {
          "internalType": "bool",
          "name": "",
          "type": "bool"
        }
      ],
      "stateMutability": "view",
      "type": "function"
    },
    {
      "inputs": [],
      "name": "isLocked",
      "outputs": [
        {
          "internalType": "bool",
          "name": "",
          "type": "bool"
        }
      ],
      "stateMutability": "view",
      "type": "function"
    },
    {
      "inputs": [
        {
          "internalType": "uint256",
          "name": "_lockedUntil",
          "type": "uint256"
        }
      ],
      "name": "lock",
      "outputs": [],
      "stateMutability": "nonpayable",
      "type": "function"
    },
    {
      "inputs": [],
      "name": "lockedUntil",
      "outputs": [
        {
          "internalType": "uint256",
          "name": "",
          "type": "uint256"
        }
      ],
      "stateMutability": "view",
      "type": "function"
    },
    {
      "inputs": [
        {
          "internalType": "address",
          "name": "",
          "type": "address"
        },
        {
          "internalType": "address",
          "name": "",
          "type": "address"
        },
        {
          "internalType": "uint256[]",
          "name": "",
          "type": "uint256[]"
        },
        {
          "internalType": "uint256[]",
          "name": "",
          "type": "uint256[]"
        },
        {
          "internalType": "bytes",
          "name": "",
          "type": "bytes"
        }
      ],
      "name": "onERC1155BatchReceived",
      "outputs": [
        {
          "internalType": "bytes4",
          "name": "",
          "type": "bytes4"
        }
      ],
      "stateMutability": "pure",
      "type": "function"
    },
    {
      "inputs": [
        {
          "internalType": "address",
          "name": "",
          "type": "address"
        },
        {
          "internalType": "address",
          "name": "",
          "type": "address"
        },
        {
          "internalType": "uint256",
          "name": "",
          "type": "uint256"
        },
        {
          "internalType": "uint256",
          "name": "",
          "type": "uint256"
        },
        {
          "internalType": "bytes",
          "name": "",
          "type": "bytes"
        }
      ],
      "name": "onERC1155Received",
      "outputs": [
        {
          "internalType": "bytes4",
          "name": "",
          "type": "bytes4"
        }
      ],
      "stateMutability": "pure",
      "type": "function"
    },
    {
      "inputs": [
        {
          "internalType": "address",
          "name": "",
          "type": "address"
        },
        {
          "internalType": "address",
          "name": "",
          "type": "address"
        },
        {
          "internalType": "uint256",
          "name": "receivedTokenId",
          "type": "uint256"
        },
        {
          "internalType": "bytes",
          "name": "",
          "type": "bytes"
        }
      ],
      "name": "onERC721Received",
      "outputs": [
        {
          "internalType": "bytes4",
          "name": "",
          "type": "bytes4"
        }
      ],
      "stateMutability": "view",
      "type": "function"
    },
    {
      "inputs": [],
      "name": "owner",
      "outputs": [
        {
          "internalType": "address",
          "name": "",
          "type": "address"
        }
      ],
      "stateMutability": "view",
      "type": "function"
    },
    {
      "inputs": [
        {
          "internalType": "bytes",
          "name": "_data",
          "type": "bytes"
        }
      ],
      "name": "parseFirst4Bytes",
      "outputs": [
        {
          "internalType": "bytes4",
          "name": "",
          "type": "bytes4"
        }
      ],
      "stateMutability": "pure",
      "type": "function"
    },
    {
      "inputs": [
        {
          "internalType": "address",
          "name": "",
          "type": "address"
        },
        {
          "internalType": "address",
          "name": "",
          "type": "address"
        }
      ],
      "name": "permissions",
      "outputs": [
        {
          "internalType": "bool",
          "name": "",
          "type": "bool"
        }
      ],
      "stateMutability": "view",
      "type": "function"
    },
    {
      "inputs": [
        {
          "internalType": "address[]",
          "name": "callers",
          "type": "address[]"
        },
        {
          "internalType": "bool[]",
          "name": "_permissions",
          "type": "bool[]"
        }
      ],
      "name": "setPermissions",
      "outputs": [],
      "stateMutability": "nonpayable",
      "type": "function"
    },
    {
      "inputs": [
        {
          "internalType": "bytes4",
          "name": "interfaceId",
          "type": "bytes4"
        }
      ],
      "name": "supportsInterface",
      "outputs": [
        {
          "internalType": "bool",
          "name": "",
          "type": "bool"
        }
      ],
      "stateMutability": "pure",
      "type": "function"
    },
    {
      "inputs": [],
      "name": "token",
      "outputs": [
        {
          "internalType": "uint256",
          "name": "chainId",
          "type": "uint256"
        },
        {
          "internalType": "address",
          "name": "tokenContract",
          "type": "address"
        },
        {
          "internalType": "uint256",
          "name": "tokenId",
          "type": "uint256"
        }
      ],
      "stateMutability": "view",
      "type": "function"
    },
    {
      "stateMutability": "payable",
      "type": "receive"
    }
  ],
  "bytecode": "0x608060405234801561001057600080fd5b506110b7806100206000396000f3fe6080604052600436106100e15760003560e01c8063bc197c811161007f578063dd46706411610059578063dd4670641461028c578063f23a6e61146102ac578063fc0c546a146102d8578063fe9fbb801461031057600080fd5b8063bc197c811461021c578063ce0617ec14610248578063d0ad25351461026c57600080fd5b80631f9838b5116100bb5780631f9838b51461017d5780638da5cb5b146101b85780639e5d4c49146101e5578063a4e2d6341461020557600080fd5b806301ffc9a7146100ed578063039721b114610122578063150b7a021461014457600080fd5b366100e857005b600080fd5b3480156100f957600080fd5b5061010d610108366004610a06565b610330565b60405190151581526020015b60405180910390f35b34801561012e57600080fd5b5061014261013d366004610a83565b610397565b005b34801561015057600080fd5b5061016461015f366004610bbe565b610560565b6040516001600160e01b03199091168152602001610119565b34801561018957600080fd5b5061010d610198366004610c2a565b600160209081526000928352604080842090915290825290205460ff1681565b3480156101c457600080fd5b506101cd6105c8565b6040516001600160a01b039091168152602001610119565b6101f86101f3366004610ca5565b61065e565b6040516101199190610cf5565b34801561021157600080fd5b50600054421061010d565b34801561022857600080fd5b50610164610237366004610db8565b63bc197c8160e01b95945050505050565b34801561025457600080fd5b5061025e60005481565b604051908152602001610119565b34801561027857600080fd5b50610164610287366004610e66565b610715565b34801561029857600080fd5b506101426102a7366004610ea8565b610736565b3480156102b857600080fd5b506101646102c7366004610ec1565b63f23a6e6160e01b95945050505050565b3480156102e457600080fd5b506102ed6107fb565b604080519384526001600160a01b03909216602084015290820152606001610119565b34801561031c57600080fd5b5061010d61032b366004610f2a565b610813565b6000806001600160e01b031983166301ffc9a760e01b148061036257506001600160e01b03198316630271189760e51b145b8061037d57506001600160e01b03198316636faff5f160e01b145b9050801561038e5750600192915050565b50600092915050565b6000544210156103ba57604051636315bfbb60e01b815260040160405180910390fd5b60006103c46105c8565b9050336001600160a01b038216146103ef5760405163ea8e4eb560e01b815260040160405180910390fd5b838281146104105760405163b4fa3fb360e01b815260040160405180910390fd5b60005b818110156105575784848281811061042d5761042d610f47565b90506020020160208101906104429190610f5d565b6001600160a01b03841660009081526001602052604081209089898581811061046d5761046d610f47565b90506020020160208101906104829190610f2a565b6001600160a01b031681526020810191909152604001600020805460ff19169115159190911790557f394777a58092892d136a90c4bb7e4350c72ac50fba6a0208128677f36527dcf5838888848181106104de576104de610f47565b90506020020160208101906104f39190610f2a565b87878581811061050557610505610f47565b905060200201602081019061051a9190610f5d565b604080516001600160a01b03948516815293909216602084015215159082015260600160405180910390a18061054f81610f95565b915050610413565b50505050505050565b60008060008061056e6108fc565b925092509250468314801561058b57506001600160a01b03821633145b801561059657508581145b156105b45760405163b79e3f3f60e01b815260040160405180910390fd5b50630a85bd0160e11b979650505050505050565b6000806000806105d66108fc565b9250925092504683146105ed576000935050505090565b6040516331a9108f60e11b8152600481018290526001600160a01b03831690636352211e90602401602060405180830381865afa158015610632573d6000803e3d6000fd5b505050506040513d601f19601f820116820180604052508101906106569190610fae565b935050505090565b606061066933610813565b6106865760405163ea8e4eb560e01b815260040160405180910390fd5b6000544210156106a957604051636315bfbb60e01b815260040160405180910390fd5b82826106b5828261094f565b6106fe5760405162461bcd60e51b815260206004820152601660248201527513595d1a1bd908185b1b081b9bdd08185b1b1bddd95960521b604482015260640160405180910390fd5b61070a8787878761098a565b979650505050505050565b60006107246004828486610fcb565b61072d91610ff5565b90505b92915050565b61073e6105c8565b6001600160a01b0316336001600160a01b03161461076f5760405163ea8e4eb560e01b815260040160405180910390fd5b60005442101561079257604051636315bfbb60e01b815260040160405180910390fd5b6107a0426301e13380611025565b8111156107c0576040516301814f7d60e31b815260040160405180910390fd5b60008190556040518181527fa7b24c66dd3269a292a60b3facdbb8f3e7557d1e19e64d99e0d6ee7250be63ad9060200160405180910390a150565b60008060006108086108fc565b925092509250909192565b60008060006108206108fc565b6040516331a9108f60e11b8152600481018290529194509250600091506001600160a01b03841690636352211e90602401602060405180830381865afa15801561086e573d6000803e3d6000fd5b505050506040513d601f19601f820116820180604052508101906108929190610fae565b9050806001600160a01b0316856001600160a01b0316036108b857506001949350505050565b6001600160a01b0380821660009081526001602090815260408083209389168352929052205460ff16156108f157506001949350505050565b506000949350505050565b604080516060808252608082019092526000918291829182919060208201818036833701905050905060ad604d60208301303c808060200190518101906109439190611038565b93509350935050909192565b60008061095c8484610715565b90506001600160e01b0319811663095ea7b360e01b03610980576000915050610730565b5060019392505050565b60606000856001600160a01b03168585856040516109a9929190611071565b60006040518083038185875af1925050503d80600081146109e6576040519150601f19603f3d011682016040523d82523d6000602084013e6109eb565b606091505b5092509050806109fd57815160208301fd5b50949350505050565b600060208284031215610a1857600080fd5b81356001600160e01b031981168114610a3057600080fd5b9392505050565b60008083601f840112610a4957600080fd5b50813567ffffffffffffffff811115610a6157600080fd5b6020830191508360208260051b8501011115610a7c57600080fd5b9250929050565b60008060008060408587031215610a9957600080fd5b843567ffffffffffffffff80821115610ab157600080fd5b610abd88838901610a37565b90965094506020870135915080821115610ad657600080fd5b50610ae387828801610a37565b95989497509550505050565b6001600160a01b0381168114610b0457600080fd5b50565b634e487b7160e01b600052604160045260246000fd5b604051601f8201601f1916810167ffffffffffffffff81118282101715610b4657610b46610b07565b604052919050565b600082601f830112610b5f57600080fd5b813567ffffffffffffffff811115610b7957610b79610b07565b610b8c601f8201601f1916602001610b1d565b818152846020838601011115610ba157600080fd5b816020850160208301376000918101602001919091529392505050565b60008060008060808587031215610bd457600080fd5b8435610bdf81610aef565b93506020850135610bef81610aef565b925060408501359150606085013567ffffffffffffffff811115610c1257600080fd5b610c1e87828801610b4e565b91505092959194509250565b60008060408385031215610c3d57600080fd5b8235610c4881610aef565b91506020830135610c5881610aef565b809150509250929050565b60008083601f840112610c7557600080fd5b50813567ffffffffffffffff811115610c8d57600080fd5b602083019150836020828501011115610a7c57600080fd5b60008060008060608587031215610cbb57600080fd5b8435610cc681610aef565b935060208501359250604085013567ffffffffffffffff811115610ce957600080fd5b610ae387828801610c63565b600060208083528351808285015260005b81811015610d2257858101830151858201604001528201610d06565b506000604082860101526040601f19601f8301168501019250505092915050565b600082601f830112610d5457600080fd5b8135602067ffffffffffffffff821115610d7057610d70610b07565b8160051b610d7f828201610b1d565b9283528481018201928281019087851115610d9957600080fd5b83870192505b8483101561070a57823582529183019190830190610d9f565b600080600080600060a08688031215610dd057600080fd5b8535610ddb81610aef565b94506020860135610deb81610aef565b9350604086013567ffffffffffffffff80821115610e0857600080fd5b610e1489838a01610d43565b94506060880135915080821115610e2a57600080fd5b610e3689838a01610d43565b93506080880135915080821115610e4c57600080fd5b50610e5988828901610b4e565b9150509295509295909350565b60008060208385031215610e7957600080fd5b823567ffffffffffffffff811115610e9057600080fd5b610e9c85828601610c63565b90969095509350505050565b600060208284031215610eba57600080fd5b5035919050565b600080600080600060a08688031215610ed957600080fd5b8535610ee481610aef565b94506020860135610ef481610aef565b93506040860135925060608601359150608086013567ffffffffffffffff811115610f1e57600080fd5b610e5988828901610b4e565b600060208284031215610f3c57600080fd5b8135610a3081610aef565b634e487b7160e01b600052603260045260246000fd5b600060208284031215610f6f57600080fd5b81358015158114610a3057600080fd5b634e487b7160e01b600052601160045260246000fd5b600060018201610fa757610fa7610f7f565b5060010190565b600060208284031215610fc057600080fd5b8151610a3081610aef565b60008085851115610fdb57600080fd5b83861115610fe857600080fd5b5050820193919092039150565b6001600160e01b0319813581811691600485101561101d5780818660040360031b1b83161692505b505092915050565b8082018082111561073057610730610f7f565b60008060006060848603121561104d57600080fd5b83519250602084015161105f81610aef565b80925050604084015190509250925092565b818382376000910190815291905056fea26469706673582212205a621346bda8d4c32f449364a89907390a0a682219a5f5f964ca2b49d092cd2364736f6c63430008110033",
  "linkReferences": {},
  "deployedLinkReferences": {}
}