{
  "_format": "hh-sol-artifact-1",
  "contractName": "Account",
  "sourceName": "contracts/Account.sol",
  "abi": [
    {
      "inputs": [],
      "stateMutability": "nonpayable",
      "type": "constructor"
    },
    {
      "inputs": [],
      "name": "AccountLocked",
      "type": "error"
    },
    {
      "inputs": [],
      "name": "ExceedsMaxLockTime",
      "type": "error"
    },
    {
      "inputs": [],
      "name": "InvalidInput",
      "type": "error"
    },
    {
      "inputs": [],
      "name": "NotAuthorized",
      "type": "error"
    },
    {
      "inputs": [],
      "name": "OwnershipCycle",
      "type": "error"
    },
    {
      "anonymous": false,
      "inputs": [
        {
          "indexed": false,
          "internalType": "uint256",
          "name": "lockedUntil",
          "type": "uint256"
        }
      ],
      "name": "LockUpdated",
      "type": "event"
    },
    {
      "anonymous": false,
      "inputs": [
        {
          "indexed": false,
          "internalType": "address",
          "name": "owner",
          "type": "address"
        },
        {
          "indexed": false,
          "internalType": "bytes4",
          "name": "selector",
          "type": "bytes4"
        },
        {
          "indexed": false,
          "internalType": "address",
          "name": "implementation",
          "type": "address"
        }
      ],
      "name": "OverrideUpdated",
      "type": "event"
    },
    {
      "anonymous": false,
      "inputs": [
        {
          "indexed": false,
          "internalType": "address",
          "name": "owner",
          "type": "address"
        },
        {
          "indexed": false,
          "internalType": "address",
          "name": "caller",
          "type": "address"
        },
        {
          "indexed": false,
          "internalType": "bool",
          "name": "hasPermission",
          "type": "bool"
        }
      ],
      "name": "PermissionUpdated",
      "type": "event"
    },
    {
      "inputs": [
        {
          "internalType": "address",
          "name": "to",
          "type": "address"
        },
        {
          "internalType": "uint256",
          "name": "value",
          "type": "uint256"
        },
        {
          "internalType": "bytes",
          "name": "data",
          "type": "bytes"
        }
      ],
      "name": "executeCall",
      "outputs": [
        {
          "internalType": "bytes",
          "name": "",
          "type": "bytes"
        }
      ],
      "stateMutability": "payable",
      "type": "function"
    },
    {
      "inputs": [],
      "name": "isLocked",
      "outputs": [
        {
          "internalType": "bool",
          "name": "",
          "type": "bool"
        }
      ],
      "stateMutability": "view",
      "type": "function"
    },
    {
      "inputs": [
        {
          "internalType": "address",
          "name": "signer",
          "type": "address"
        },
        {
          "internalType": "bytes",
          "name": "context",
          "type": "bytes"
        }
      ],
      "name": "isValidSigner",
      "outputs": [
        {
          "internalType": "bytes4",
          "name": "magicValue",
          "type": "bytes4"
        }
      ],
      "stateMutability": "view",
      "type": "function"
    },
    {
      "inputs": [
        {
          "internalType": "uint256",
          "name": "_lockedUntil",
          "type": "uint256"
        }
      ],
      "name": "lock",
      "outputs": [],
      "stateMutability": "nonpayable",
      "type": "function"
    },
    {
      "inputs": [],
      "name": "lockedUntil",
      "outputs": [
        {
          "internalType": "uint256",
          "name": "",
          "type": "uint256"
        }
      ],
      "stateMutability": "view",
      "type": "function"
    },
    {
      "inputs": [
        {
          "internalType": "address",
          "name": "",
          "type": "address"
        },
        {
          "internalType": "address",
          "name": "",
          "type": "address"
        },
        {
          "internalType": "uint256[]",
          "name": "",
          "type": "uint256[]"
        },
        {
          "internalType": "uint256[]",
          "name": "",
          "type": "uint256[]"
        },
        {
          "internalType": "bytes",
          "name": "",
          "type": "bytes"
        }
      ],
      "name": "onERC1155BatchReceived",
      "outputs": [
        {
          "internalType": "bytes4",
          "name": "",
          "type": "bytes4"
        }
      ],
      "stateMutability": "pure",
      "type": "function"
    },
    {
      "inputs": [
        {
          "internalType": "address",
          "name": "",
          "type": "address"
        },
        {
          "internalType": "address",
          "name": "",
          "type": "address"
        },
        {
          "internalType": "uint256",
          "name": "",
          "type": "uint256"
        },
        {
          "internalType": "uint256",
          "name": "",
          "type": "uint256"
        },
        {
          "internalType": "bytes",
          "name": "",
          "type": "bytes"
        }
      ],
      "name": "onERC1155Received",
      "outputs": [
        {
          "internalType": "bytes4",
          "name": "",
          "type": "bytes4"
        }
      ],
      "stateMutability": "pure",
      "type": "function"
    },
    {
      "inputs": [
        {
          "internalType": "address",
          "name": "",
          "type": "address"
        },
        {
          "internalType": "address",
          "name": "",
          "type": "address"
        },
        {
          "internalType": "uint256",
          "name": "receivedTokenId",
          "type": "uint256"
        },
        {
          "internalType": "bytes",
          "name": "",
          "type": "bytes"
        }
      ],
      "name": "onERC721Received",
      "outputs": [
        {
          "internalType": "bytes4",
          "name": "",
          "type": "bytes4"
        }
      ],
      "stateMutability": "view",
      "type": "function"
    },
    {
      "inputs": [],
      "name": "owner",
      "outputs": [
        {
          "internalType": "address",
          "name": "",
          "type": "address"
        }
      ],
      "stateMutability": "view",
      "type": "function"
    },
    {
      "inputs": [
        {
          "internalType": "bytes",
          "name": "_data",
          "type": "bytes"
        }
      ],
      "name": "parseFirst4Bytes",
      "outputs": [
        {
          "internalType": "bytes4",
          "name": "",
          "type": "bytes4"
        }
      ],
      "stateMutability": "pure",
      "type": "function"
    },
    {
      "inputs": [
        {
          "internalType": "address",
          "name": "",
          "type": "address"
        },
        {
          "internalType": "address",
          "name": "",
          "type": "address"
        }
      ],
      "name": "permissions",
      "outputs": [
        {
          "internalType": "bool",
          "name": "",
          "type": "bool"
        }
      ],
      "stateMutability": "view",
      "type": "function"
    },
    {
      "inputs": [
        {
          "internalType": "address[]",
          "name": "callers",
          "type": "address[]"
        },
        {
          "internalType": "bool[]",
          "name": "_permissions",
          "type": "bool[]"
        }
      ],
      "name": "setPermissions",
      "outputs": [],
      "stateMutability": "nonpayable",
      "type": "function"
    },
    {
      "inputs": [],
      "name": "state",
      "outputs": [
        {
          "internalType": "uint256",
          "name": "",
          "type": "uint256"
        }
      ],
      "stateMutability": "view",
      "type": "function"
    },
    {
      "inputs": [
        {
          "internalType": "bytes4",
          "name": "interfaceId",
          "type": "bytes4"
        }
      ],
      "name": "supportsInterface",
      "outputs": [
        {
          "internalType": "bool",
          "name": "",
          "type": "bool"
        }
      ],
      "stateMutability": "pure",
      "type": "function"
    },
    {
      "inputs": [],
      "name": "token",
      "outputs": [
        {
          "internalType": "uint256",
          "name": "chainId",
          "type": "uint256"
        },
        {
          "internalType": "address",
          "name": "tokenContract",
          "type": "address"
        },
        {
          "internalType": "uint256",
          "name": "tokenId",
          "type": "uint256"
        }
      ],
      "stateMutability": "view",
      "type": "function"
    },
    {
      "stateMutability": "payable",
      "type": "receive"
    }
  ],
  "bytecode": "0x608060405234801561001057600080fd5b5061115f806100206000396000f3fe6080604052600436106100ec5760003560e01c8063a4e2d6341161008a578063d0ad253511610059578063d0ad2535146102a7578063dd467064146102c7578063f23a6e61146102e7578063fc0c546a1461031357600080fd5b8063a4e2d63414610230578063bc197c8114610247578063c19d93fb14610273578063ce0617ec1461029157600080fd5b80631f9838b5116100c65780631f9838b514610188578063523e3260146101c35780638da5cb5b146101e35780639e5d4c491461021057600080fd5b806301ffc9a7146100f8578063039721b11461012d578063150b7a021461014f57600080fd5b366100f357005b600080fd5b34801561010457600080fd5b50610118610113366004610a55565b61034b565b60405190151581526020015b60405180910390f35b34801561013957600080fd5b5061014d610148366004610acb565b6103b2565b005b34801561015b57600080fd5b5061016f61016a366004610c06565b61057b565b6040516001600160e01b03199091168152602001610124565b34801561019457600080fd5b506101186101a3366004610c72565b600160209081526000928352604080842090915290825290205460ff1681565b3480156101cf57600080fd5b5061016f6101de366004610ced565b6105e3565b3480156101ef57600080fd5b506101f86106e7565b6040516001600160a01b039091168152602001610124565b61022361021e366004610d42565b61077d565b6040516101249190610d92565b34801561023c57600080fd5b506000544210610118565b34801561025357600080fd5b5061016f610262366004610e60565b63bc197c8160e01b95945050505050565b34801561027f57600080fd5b5060015b604051908152602001610124565b34801561029d57600080fd5b5061028360005481565b3480156102b357600080fd5b5061016f6102c2366004610f0e565b61084d565b3480156102d357600080fd5b5061014d6102e2366004610f50565b61086e565b3480156102f357600080fd5b5061016f610302366004610f69565b63f23a6e6160e01b95945050505050565b34801561031f57600080fd5b50610328610933565b604080519384526001600160a01b03909216602084015290820152606001610124565b6000806001600160e01b031983166301ffc9a760e01b148061037d57506001600160e01b03198316630271189760e51b145b8061039857506001600160e01b03198316636faff5f160e01b145b905080156103a95750600192915050565b50600092915050565b6000544210156103d557604051636315bfbb60e01b815260040160405180910390fd5b60006103df6106e7565b9050336001600160a01b0382161461040a5760405163ea8e4eb560e01b815260040160405180910390fd5b8382811461042b5760405163b4fa3fb360e01b815260040160405180910390fd5b60005b818110156105725784848281811061044857610448610fd2565b905060200201602081019061045d9190610fe8565b6001600160a01b03841660009081526001602052604081209089898581811061048857610488610fd2565b905060200201602081019061049d919061100a565b6001600160a01b031681526020810191909152604001600020805460ff19169115159190911790557f394777a58092892d136a90c4bb7e4350c72ac50fba6a0208128677f36527dcf5838888848181106104f9576104f9610fd2565b905060200201602081019061050e919061100a565b87878581811061052057610520610fd2565b90506020020160208101906105359190610fe8565b604080516001600160a01b03948516815293909216602084015215159082015260600160405180910390a18061056a8161103d565b91505061042e565b50505050505050565b60008060008061058961094b565b92509250925046831480156105a657506001600160a01b03821633145b80156105b157508581145b156105cf5760405163b79e3f3f60e01b815260040160405180910390fd5b50630a85bd0160e11b979650505050505050565b60008060006105f061094b565b6040516331a9108f60e11b8152600481018290529194509250600091506001600160a01b03841690636352211e90602401602060405180830381865afa15801561063e573d6000803e3d6000fd5b505050506040513d601f19601f820116820180604052508101906106629190611056565b9050806001600160a01b0316876001600160a01b0316036106905750630291f19360e51b92506106e0915050565b6001600160a01b038082166000908152600160209081526040808320938b168352929052205460ff16156106d15750630291f19360e51b92506106e0915050565b506001600160e01b0319925050505b9392505050565b6000806000806106f561094b565b92509250925046831461070c576000935050505090565b6040516331a9108f60e11b8152600481018290526001600160a01b03831690636352211e90602401602060405180830381865afa158015610751573d6000803e3d6000fd5b505050506040513d601f19601f820116820180604052508101906107759190611056565b935050505090565b6060828261078c3383836105e3565b6001600160e01b03191663523e326060e01b146107bc5760405163ea8e4eb560e01b815260040160405180910390fd5b6000544210156107df57604051636315bfbb60e01b815260040160405180910390fd5b84846107eb828261099e565b6108345760405162461bcd60e51b815260206004820152601660248201527513595d1a1bd908185b1b081b9bdd08185b1b1bddd95960521b604482015260640160405180910390fd5b610840898989896109d9565b9998505050505050505050565b600061085c6004828486611073565b6108659161109d565b90505b92915050565b6108766106e7565b6001600160a01b0316336001600160a01b0316146108a75760405163ea8e4eb560e01b815260040160405180910390fd5b6000544210156108ca57604051636315bfbb60e01b815260040160405180910390fd5b6108d8426301e133806110cd565b8111156108f8576040516301814f7d60e31b815260040160405180910390fd5b60008190556040518181527fa7b24c66dd3269a292a60b3facdbb8f3e7557d1e19e64d99e0d6ee7250be63ad9060200160405180910390a150565b600080600061094061094b565b925092509250909192565b604080516060808252608082019092526000918291829182919060208201818036833701905050905060ad604d60208301303c8080602001905181019061099291906110e0565b93509350935050909192565b6000806109ab848461084d565b90506001600160e01b0319811663095ea7b360e01b036109cf576000915050610868565b5060019392505050565b60606000856001600160a01b03168585856040516109f8929190611119565b60006040518083038185875af1925050503d8060008114610a35576040519150601f19603f3d011682016040523d82523d6000602084013e610a3a565b606091505b509250905080610a4c57815160208301fd5b50949350505050565b600060208284031215610a6757600080fd5b81356001600160e01b0319811681146106e057600080fd5b60008083601f840112610a9157600080fd5b50813567ffffffffffffffff811115610aa957600080fd5b6020830191508360208260051b8501011115610ac457600080fd5b9250929050565b60008060008060408587031215610ae157600080fd5b843567ffffffffffffffff80821115610af957600080fd5b610b0588838901610a7f565b90965094506020870135915080821115610b1e57600080fd5b50610b2b87828801610a7f565b95989497509550505050565b6001600160a01b0381168114610b4c57600080fd5b50565b634e487b7160e01b600052604160045260246000fd5b604051601f8201601f1916810167ffffffffffffffff81118282101715610b8e57610b8e610b4f565b604052919050565b600082601f830112610ba757600080fd5b813567ffffffffffffffff811115610bc157610bc1610b4f565b610bd4601f8201601f1916602001610b65565b818152846020838601011115610be957600080fd5b816020850160208301376000918101602001919091529392505050565b60008060008060808587031215610c1c57600080fd5b8435610c2781610b37565b93506020850135610c3781610b37565b925060408501359150606085013567ffffffffffffffff811115610c5a57600080fd5b610c6687828801610b96565b91505092959194509250565b60008060408385031215610c8557600080fd5b8235610c9081610b37565b91506020830135610ca081610b37565b809150509250929050565b60008083601f840112610cbd57600080fd5b50813567ffffffffffffffff811115610cd557600080fd5b602083019150836020828501011115610ac457600080fd5b600080600060408486031215610d0257600080fd5b8335610d0d81610b37565b9250602084013567ffffffffffffffff811115610d2957600080fd5b610d3586828701610cab565b9497909650939450505050565b60008060008060608587031215610d5857600080fd5b8435610d6381610b37565b935060208501359250604085013567ffffffffffffffff811115610d8657600080fd5b610b2b87828801610cab565b600060208083528351808285015260005b81811015610dbf57858101830151858201604001528201610da3565b506000604082860101526040601f19601f8301168501019250505092915050565b600082601f830112610df157600080fd5b8135602067ffffffffffffffff821115610e0d57610e0d610b4f565b8160051b610e1c828201610b65565b9283528481018201928281019087851115610e3657600080fd5b83870192505b84831015610e5557823582529183019190830190610e3c565b979650505050505050565b600080600080600060a08688031215610e7857600080fd5b8535610e8381610b37565b94506020860135610e9381610b37565b9350604086013567ffffffffffffffff80821115610eb057600080fd5b610ebc89838a01610de0565b94506060880135915080821115610ed257600080fd5b610ede89838a01610de0565b93506080880135915080821115610ef457600080fd5b50610f0188828901610b96565b9150509295509295909350565b60008060208385031215610f2157600080fd5b823567ffffffffffffffff811115610f3857600080fd5b610f4485828601610cab565b90969095509350505050565b600060208284031215610f6257600080fd5b5035919050565b600080600080600060a08688031215610f8157600080fd5b8535610f8c81610b37565b94506020860135610f9c81610b37565b93506040860135925060608601359150608086013567ffffffffffffffff811115610fc657600080fd5b610f0188828901610b96565b634e487b7160e01b600052603260045260246000fd5b600060208284031215610ffa57600080fd5b813580151581146106e057600080fd5b60006020828403121561101c57600080fd5b81356106e081610b37565b634e487b7160e01b600052601160045260246000fd5b60006001820161104f5761104f611027565b5060010190565b60006020828403121561106857600080fd5b81516106e081610b37565b6000808585111561108357600080fd5b8386111561109057600080fd5b5050820193919092039150565b6001600160e01b031981358181169160048510156110c55780818660040360031b1b83161692505b505092915050565b8082018082111561086857610868611027565b6000806000606084860312156110f557600080fd5b83519250602084015161110781610b37565b80925050604084015190509250925092565b818382376000910190815291905056fea264697066735822122021e6b3215bdca9c2bd36a0497578eef94b4ee3b723b1de9508e6e55f6e6adfdd64736f6c63430008110033",
  "linkReferences": {},
  "deployedLinkReferences": {}
}