{
  "address": "0x0C8f698732c0f857a4D0290EB77dC4b1EA89eBd0",
  "abi": [
    {
      "inputs": [
        {
          "internalType": "address",
          "name": "registry",
          "type": "address"
        }
      ],
      "stateMutability": "nonpayable",
      "type": "constructor"
    },
    {
      "anonymous": false,
      "inputs": [
        {
          "indexed": true,
          "internalType": "address",
          "name": "previousOwner",
          "type": "address"
        },
        {
          "indexed": true,
          "internalType": "address",
          "name": "newOwner",
          "type": "address"
        }
      ],
      "name": "OwnershipTransferred",
      "type": "event"
    },
    {
      "inputs": [
        {
          "internalType": "address",
          "name": "receiver",
          "type": "address"
        },
        {
          "internalType": "address",
          "name": "contractAddress",
          "type": "address"
        },
        {
          "internalType": "uint256",
          "name": "tokenId",
          "type": "uint256"
        },
        {
          "internalType": "address",
          "name": "nftTokenAddress",
          "type": "address"
        },
        {
          "internalType": "uint256",
          "name": "nftTokenId",
          "type": "uint256"
        },
        {
          "internalType": "uint256",
          "name": "nftTokenAmount",
          "type": "uint256"
        }
      ],
      "name": "breakCovalentBond",
      "outputs": [
        {
          "internalType": "bool",
          "name": "success",
          "type": "bool"
        }
      ],
      "stateMutability": "nonpayable",
      "type": "function"
    },
    {
      "inputs": [
        {
          "internalType": "address",
          "name": "contractAddress",
          "type": "address"
        },
        {
          "internalType": "uint256",
          "name": "tokenId",
          "type": "uint256"
        },
        {
          "internalType": "address",
          "name": "nftTokenAddress",
          "type": "address"
        },
        {
          "internalType": "uint256",
          "name": "nftTokenId",
          "type": "uint256"
        },
        {
          "internalType": "uint256",
          "name": "nftTokenAmount",
          "type": "uint256"
        }
      ],
      "name": "covalentBond",
      "outputs": [
        {
          "internalType": "bool",
          "name": "success",
          "type": "bool"
        }
      ],
      "stateMutability": "nonpayable",
      "type": "function"
    },
    {
      "inputs": [
        {
          "internalType": "address",
          "name": "contractAddress",
          "type": "address"
        },
        {
          "internalType": "uint256",
          "name": "tokenId",
          "type": "uint256"
        },
        {
          "internalType": "address",
          "name": "assetToken",
          "type": "address"
        },
        {
          "internalType": "uint256",
          "name": "assetAmount",
          "type": "uint256"
        }
      ],
      "name": "energizeParticle",
      "outputs": [
        {
          "internalType": "address",
          "name": "account",
          "type": "address"
        }
      ],
      "stateMutability": "nonpayable",
      "type": "function"
    },
    {
      "inputs": [
        {
          "internalType": "address",
          "name": "nftContract",
          "type": "address"
        }
      ],
      "name": "getAccountImplementation",
      "outputs": [
        {
          "internalType": "address",
          "name": "accountImplementation",
          "type": "address"
        }
      ],
      "stateMutability": "view",
      "type": "function"
    },
    {
      "inputs": [],
      "name": "getCurrentRegistry",
      "outputs": [
        {
          "internalType": "address",
          "name": "",
          "type": "address"
        }
      ],
      "stateMutability": "view",
      "type": "function"
    },
    {
      "inputs": [
        {
          "internalType": "address",
          "name": "nftContract",
          "type": "address"
        }
      ],
      "name": "getExecutionController",
      "outputs": [
        {
          "internalType": "address",
          "name": "executionController",
          "type": "address"
        }
      ],
      "stateMutability": "view",
      "type": "function"
    },
    {
      "inputs": [
        {
          "internalType": "uint256",
          "name": "registry",
          "type": "uint256"
        }
      ],
      "name": "getRegistry",
      "outputs": [
        {
          "internalType": "address",
          "name": "",
          "type": "address"
        }
      ],
      "stateMutability": "view",
      "type": "function"
    },
    {
      "inputs": [],
      "name": "owner",
      "outputs": [
        {
          "internalType": "address",
          "name": "",
          "type": "address"
        }
      ],
      "stateMutability": "view",
      "type": "function"
    },
    {
      "inputs": [
        {
          "internalType": "address",
          "name": "receiver",
          "type": "address"
        },
        {
          "internalType": "address",
          "name": "contractAddress",
          "type": "address"
        },
        {
          "internalType": "uint256",
          "name": "tokenId",
          "type": "uint256"
        },
        {
          "internalType": "address",
          "name": "assetToken",
          "type": "address"
        }
      ],
      "name": "releaseParticle",
      "outputs": [
        {
          "internalType": "uint256",
          "name": "amount",
          "type": "uint256"
        }
      ],
      "stateMutability": "nonpayable",
      "type": "function"
    },
    {
      "inputs": [
        {
          "internalType": "address",
          "name": "receiver",
          "type": "address"
        },
        {
          "internalType": "address",
          "name": "contractAddress",
          "type": "address"
        },
        {
          "internalType": "uint256",
          "name": "tokenId",
          "type": "uint256"
        },
        {
          "internalType": "address",
          "name": "assetToken",
          "type": "address"
        },
        {
          "internalType": "uint256",
          "name": "assetAmount",
          "type": "uint256"
        }
      ],
      "name": "releaseParticleAmount",
      "outputs": [
        {
          "internalType": "uint256",
          "name": "",
          "type": "uint256"
        }
      ],
      "stateMutability": "nonpayable",
      "type": "function"
    },
    {
      "inputs": [],
      "name": "renounceOwnership",
      "outputs": [],
      "stateMutability": "nonpayable",
      "type": "function"
    },
    {
      "inputs": [
        {
          "internalType": "address",
          "name": "nftContract",
          "type": "address"
        },
        {
          "internalType": "address",
          "name": "accountImplementation",
          "type": "address"
        }
      ],
      "name": "setCustomAccountImplementation",
      "outputs": [],
      "stateMutability": "nonpayable",
      "type": "function"
    },
    {
      "inputs": [
        {
          "internalType": "address",
          "name": "nftContract",
          "type": "address"
        },
        {
          "internalType": "address",
          "name": "executionController",
          "type": "address"
        }
      ],
      "name": "setCustomExecutionController",
      "outputs": [],
      "stateMutability": "nonpayable",
      "type": "function"
    },
    {
      "inputs": [
        {
          "internalType": "address",
          "name": "accountImplementation",
          "type": "address"
        }
      ],
      "name": "setDefaultAccountImplementation",
      "outputs": [],
      "stateMutability": "nonpayable",
      "type": "function"
    },
    {
      "inputs": [
        {
          "internalType": "address",
          "name": "executionController",
          "type": "address"
        }
      ],
      "name": "setDefaultExecutionController",
      "outputs": [],
      "stateMutability": "nonpayable",
      "type": "function"
    },
    {
      "inputs": [
        {
          "internalType": "uint256",
          "name": "version",
          "type": "uint256"
        }
      ],
      "name": "setDefaultRegistryVersion",
      "outputs": [],
      "stateMutability": "nonpayable",
      "type": "function"
    },
    {
      "inputs": [
        {
          "internalType": "uint256",
          "name": "version",
          "type": "uint256"
        },
        {
          "internalType": "address",
          "name": "registry",
          "type": "address"
        }
      ],
      "name": "setRegistry",
      "outputs": [],
      "stateMutability": "nonpayable",
      "type": "function"
    },
    {
      "inputs": [
        {
          "internalType": "address",
          "name": "newOwner",
          "type": "address"
        }
      ],
      "name": "transferOwnership",
      "outputs": [],
      "stateMutability": "nonpayable",
      "type": "function"
    }
  ],
  "transactionHash": "0xa76fa342701a9f7d351f9b5a2ac3a5309bc7798ff15bc22a13eb13707d1fcdb9",
  "args": [
    "0x000000006551c19487814612e58FE06813775758"
  ],
  "numDeployments": 1,
  "solcInputHash": "39d5a6c9cdeadda9b99b6b4ba5249a9f",
  "bytecode": "0x60806040523480156200001157600080fd5b5060405162003e2938038062003e2983398101604081905262000034916200011e565b6200003f33620000c0565b600180556007546000908152600660205260409081902080546001600160a01b0319166001600160a01b038416179055516200007b9062000110565b604051809103906000f08015801562000098573d6000803e3d6000fd5b50600380546001600160a01b0319166001600160a01b03929092169190911790555062000150565b600080546001600160a01b038381166001600160a01b0319831681178455604051919092169283917f8be0079c531659141344cd1fd0a4f28419497f9722a3daafe3b4186f6b6457e09190a35050565b611f7e8062001eab83390190565b6000602082840312156200013157600080fd5b81516001600160a01b03811681146200014957600080fd5b9392505050565b611d4b80620001606000396000f3fe608060405234801561001057600080fd5b50600436106101165760003560e01c80637c41e76b116100a2578063addf28f011610071578063addf28f014610258578063ce786f571461026b578063d56fb4e01461027e578063e9f592ec1461029e578063f2fde38b146102b157600080fd5b80637c41e76b1461020e578063882bd8cc146102215780638da5cb5b1461023457806397d917441461024557600080fd5b80634e6421aa116100e95780634e6421aa146101a8578063577f435c146101cb5780635fd6592b146101e0578063607abc71146101f3578063715018a61461020657600080fd5b8063193c045e1461011b5780631e59562f146101615780633b94ce2f146101825780633df070b114610195575b600080fd5b61014461012936600461182e565b6000908152600660205260409020546001600160a01b031690565b6040516001600160a01b0390911681526020015b60405180910390f35b61017461016f36600461185c565b6102c4565b604051908152602001610158565b6101446101903660046118af565b610587565b6101746101a33660046118f7565b610937565b6101bb6101b6366004611952565b610b88565b6040519015158152602001610158565b6101de6101d93660046119b7565b610e50565b005b6101446101ee3660046119b7565b610e7a565b6101de6102013660046119db565b610ead565b6101de610ee3565b6101de61021c36600461182e565b610ef7565b6101de61022f3660046119db565b610f04565b6000546001600160a01b0316610144565b6101446102533660046119b7565b610f3a565b6101bb610266366004611a14565b610f6b565b6101de610279366004611a66565b611451565b6007546000908152600660205260409020546001600160a01b0316610144565b6101de6102ac3660046119b7565b611487565b6101de6102bf3660046119b7565b6114b1565b600083836102dc6001600160a01b038316823361152a565b6103015760405162461bcd60e51b81526004016102f890611a8b565b60405180910390fd5b6103096115d1565b6007546000908152600660205260408120546001600160a01b03169061032e88610f3a565b60405163246a002160e01b81529091506000906001600160a01b0384169063246a002190610368908590859046908f908f90600401611ac2565b602060405180830381865afa158015610385573d6000803e3d6000fd5b505050506040513d601f19601f820116820180604052508101906103a99190611af5565b6040516370a0823160e01b81526001600160a01b038083166004830152919250908816906370a0823190602401602060405180830381865afa1580156103f3573d6000803e3d6000fd5b505050506040513d601f19601f820116820180604052508101906104179190611b12565b6040516323b872dd60e01b81529096506001600160a01b038816906323b872dd9061044a9084908e908b90600401611b2b565b6020604051808303816000875af1158015610469573d6000803e3d6000fd5b505050506040513d601f19601f8201168201806040525081019061048d9190611b4f565b506040516301ffc9a760e01b81526001600160a01b038216906301ffc9a7906104c190632f62b22760e01b90600401611b71565b602060405180830381865afa1580156104de573d6000803e3d6000fd5b505050506040513d601f19601f820116820180604052508101906105029190611b4f565b1561057157604051631f459d9960e21b8152600060048201526001600160a01b03888116602483015260448201889052821690637d16766490606401600060405180830381600087803b15801561055857600080fd5b505af115801561056c573d6000803e3d6000fd5b505050505b50505061057d60018055565b5050949350505050565b60006105916115d1565b6007546000908152600660205260408120546001600160a01b0316906105b687610f3a565b604051638a54c52f60e01b81529091506001600160a01b03831690638a54c52f906105ee90849060009046908d908d90600401611ac2565b6020604051808303816000875af115801561060d573d6000803e3d6000fd5b505050506040513d601f19601f820116820180604052508101906106319190611af5565b92506000839050806001600160a01b031663392e53cd6040518163ffffffff1660e01b81526004016020604051808303816000875af1158015610678573d6000803e3d6000fd5b505050506040513d601f19601f8201168201806040525081019061069c9190611b4f565b6107125760006106ab89610e7a565b60405163485cc95560e01b81523060048201526001600160a01b0380831660248301529192509083169063485cc95590604401600060405180830381600087803b1580156106f857600080fd5b505af115801561070c573d6000803e3d6000fd5b50505050505b6040516323b872dd60e01b81526001600160a01b038716906323b872dd9061074290339088908a90600401611b2b565b6020604051808303816000875af1158015610761573d6000803e3d6000fd5b505050506040513d601f19601f820116820180604052508101906107859190611b4f565b506040805130602482015260001960448083019190915282518083039091018152606490910182526020810180516001600160e01b031663095ea7b360e01b1790529051635194544760e01b81526001600160a01b038316916351945447916107f8918a91600091908290600401611baa565b6000604051808303816000875af1158015610817573d6000803e3d6000fd5b505050506040513d6000823e601f3d908101601f1916820160405261083f9190810190611c14565b506040516301ffc9a760e01b81526001600160a01b038516906301ffc9a79061087390632f62b22760e01b90600401611b71565b602060405180830381865afa158015610890573d6000803e3d6000fd5b505050506040513d601f19601f820116820180604052508101906108b49190611b4f565b1561092357604051631f459d9960e21b8152600160048201526001600160a01b03878116602483015260448201879052821690637d16766490606401600060405180830381600087803b15801561090a57600080fd5b505af115801561091e573d6000803e3d6000fd5b505050505b50505061092f60018055565b949350505050565b6000848461094f6001600160a01b038316823361152a565b61096b5760405162461bcd60e51b81526004016102f890611a8b565b6109736115d1565b6007546000908152600660205260408120546001600160a01b03169061099889610f3a565b90506000826001600160a01b031663246a0021836000801b468e8e6040518663ffffffff1660e01b81526004016109d3959493929190611ac2565b602060405180830381865afa1580156109f0573d6000803e3d6000fd5b505050506040513d601f19601f82011682018060405250810190610a149190611af5565b6040516323b872dd60e01b81529091506001600160a01b038916906323b872dd90610a479084908f908c90600401611b2b565b6020604051808303816000875af1158015610a66573d6000803e3d6000fd5b505050506040513d601f19601f82011682018060405250810190610a8a9190611b4f565b506040516301ffc9a760e01b81526001600160a01b038216906301ffc9a790610abe90632f62b22760e01b90600401611b71565b602060405180830381865afa158015610adb573d6000803e3d6000fd5b505050506040513d601f19601f82011682018060405250810190610aff9190611b4f565b15610b6e57604051631f459d9960e21b8152600060048201526001600160a01b03898116602483015260448201899052821690637d16766490606401600060405180830381600087803b158015610b5557600080fd5b505af1158015610b69573d6000803e3d6000fd5b505050505b869550505050610b7d60018055565b505095945050505050565b60008585610ba06001600160a01b038316823361152a565b610bbc5760405162461bcd60e51b81526004016102f890611a8b565b610bc46115d1565b6007546000908152600660205260408120546001600160a01b031690610be98a610f3a565b90506000826001600160a01b031663246a0021836000801b468f8f6040518663ffffffff1660e01b8152600401610c24959493929190611ac2565b602060405180830381865afa158015610c41573d6000803e3d6000fd5b505050506040513d601f19601f82011682018060405250810190610c659190611af5565b9050610c79896001600160a01b031661162a565b15610ce757886001600160a01b031663f242432a828e8d8b6040518563ffffffff1660e01b8152600401610cb09493929190611cc1565b600060405180830381600087803b158015610cca57600080fd5b505af1158015610cde573d6000803e3d6000fd5b50505050610d4a565b886001600160a01b03166342842e0e828e8b6040518463ffffffff1660e01b8152600401610d1793929190611b2b565b600060405180830381600087803b158015610d3157600080fd5b505af1158015610d45573d6000803e3d6000fd5b505050505b6040516301ffc9a760e01b81526001600160a01b038216906301ffc9a790610d7d90632f62b22760e01b90600401611b71565b602060405180830381865afa158015610d9a573d6000803e3d6000fd5b505050506040513d601f19601f82011682018060405250810190610dbe9190611b4f565b15610e3457604051634787125b60e11b8152600060048201526001600160a01b038a81166024830152604482018a905260648201899052821690638f0e24b690608401600060405180830381600087803b158015610e1b57600080fd5b505af1158015610e2f573d6000803e3d6000fd5b505050505b60019550505050610e4460018055565b50509695505050505050565b610e586116a7565b600380546001600160a01b0319166001600160a01b0392909216919091179055565b6001600160a01b038082166000908152600460205260409020541680610ea857506005546001600160a01b03165b919050565b610eb56116a7565b6001600160a01b03918216600090815260026020526040902080546001600160a01b03191691909216179055565b610eeb6116a7565b610ef56000611701565b565b610eff6116a7565b600755565b610f0c6116a7565b6001600160a01b03918216600090815260046020526040902080546001600160a01b03191691909216179055565b6001600160a01b038082166000908152600260205260409020541680610ea85750506003546001600160a01b031690565b6000610f756115d1565b6007546000908152600660205260408120546001600160a01b031690610f9a88610f3a565b604051638a54c52f60e01b81529091506000906001600160a01b03841690638a54c52f90610fd4908590859046908f908f90600401611ac2565b6020604051808303816000875af1158015610ff3573d6000803e3d6000fd5b505050506040513d601f19601f820116820180604052508101906110179190611af5565b90506000819050806001600160a01b031663392e53cd6040518163ffffffff1660e01b81526004016020604051808303816000875af115801561105e573d6000803e3d6000fd5b505050506040513d601f19601f820116820180604052508101906110829190611b4f565b6110f85760006110918b610e7a565b60405163485cc95560e01b81523060048201526001600160a01b0380831660248301529192509083169063485cc95590604401600060405180830381600087803b1580156110de57600080fd5b505af11580156110f2573d6000803e3d6000fd5b50505050505b61110a886001600160a01b031661162a565b1561123157604051637921219560e11b81526001600160a01b0389169063f242432a9061114190339086908e908c90600401611cc1565b600060405180830381600087803b15801561115b57600080fd5b505af115801561116f573d6000803e3d6000fd5b505060408051306024820152600160448083019190915282518083039091018152606490910182526020810180516001600160e01b031663a22cb46560e01b1790529051635194544760e01b81526001600160a01b0385169350635194544792506111e4918c91600091908290600401611baa565b6000604051808303816000875af1158015611203573d6000803e3d6000fd5b505050506040513d6000823e601f3d908101601f1916820160405261122b9190810190611c14565b5061134d565b604051632142170760e11b81526001600160a01b038916906342842e0e9061126190339086908c90600401611b2b565b600060405180830381600087803b15801561127b57600080fd5b505af115801561128f573d6000803e3d6000fd5b505060408051306024820152600160448083019190915282518083039091018152606490910182526020810180516001600160e01b031663a22cb46560e01b1790529051635194544760e01b81526001600160a01b038516935063519454479250611304918c91600091908290600401611baa565b6000604051808303816000875af1158015611323573d6000803e3d6000fd5b505050506040513d6000823e601f3d908101601f1916820160405261134b9190810190611c14565b505b6040516301ffc9a760e01b81526001600160a01b038316906301ffc9a79061138090632f62b22760e01b90600401611b71565b602060405180830381865afa15801561139d573d6000803e3d6000fd5b505050506040513d601f19601f820116820180604052508101906113c19190611b4f565b1561143757604051634787125b60e11b8152600160048201526001600160a01b0389811660248301526044820189905260648201889052821690638f0e24b690608401600060405180830381600087803b15801561141e57600080fd5b505af1158015611432573d6000803e3d6000fd5b505050505b600194505050505061144860018055565b95945050505050565b6114596116a7565b60009182526006602052604090912080546001600160a01b0319166001600160a01b03909216919091179055565b61148f6116a7565b600580546001600160a01b0319166001600160a01b0392909216919091179055565b6114b96116a7565b6001600160a01b03811661151e5760405162461bcd60e51b815260206004820152602660248201527f4f776e61626c653a206e6577206f776e657220697320746865207a65726f206160448201526564647265737360d01b60648201526084016102f8565b61152781611701565b50565b600083816115388286611751565b9050806001600160a01b0316846001600160a01b031614806115c7575060405163e985e9c560e01b81526001600160a01b038281166004830152858116602483015283169063e985e9c590604401602060405180830381865afa1580156115a3573d6000803e3d6000fd5b505050506040513d601f19601f820116820180604052508101906115c79190611b4f565b9695505050505050565b6002600154036116235760405162461bcd60e51b815260206004820152601f60248201527f5265656e7472616e637947756172643a207265656e7472616e742063616c6c0060448201526064016102f8565b6002600155565b6040516301ffc9a760e01b81526000906001600160a01b038316906301ffc9a79061166090636cdb3d1360e11b90600401611b71565b602060405180830381865afa15801561167d573d6000803e3d6000fd5b505050506040513d601f19601f820116820180604052508101906116a19190611b4f565b92915050565b6000546001600160a01b03163314610ef55760405162461bcd60e51b815260206004820181905260248201527f4f776e61626c653a2063616c6c6572206973206e6f7420746865206f776e657260448201526064016102f8565b600080546001600160a01b038381166001600160a01b0319831681178455604051919092169283917f8be0079c531659141344cd1fd0a4f28419497f9722a3daafe3b4186f6b6457e09190a35050565b6000806000846001600160a01b0316636352211e60e01b8560405160240161177b91815260200190565b60408051601f198184030181529181526020820180516001600160e01b03166001600160e01b03199094169390931790925290516117b99190611cf9565b6000604051808303816000865af19150503d80600081146117f6576040519150601f19603f3d011682016040523d82523d6000602084013e6117fb565b606091505b50915091508115611823578080602001905181019061181a9190611af5565b925050506116a1565b506000949350505050565b60006020828403121561184057600080fd5b5035919050565b6001600160a01b038116811461152757600080fd5b6000806000806080858703121561187257600080fd5b843561187d81611847565b9350602085013561188d81611847565b92506040850135915060608501356118a481611847565b939692955090935050565b600080600080608085870312156118c557600080fd5b84356118d081611847565b93506020850135925060408501356118e781611847565b9396929550929360600135925050565b600080600080600060a0868803121561190f57600080fd5b853561191a81611847565b9450602086013561192a81611847565b935060408601359250606086013561194181611847565b949793965091946080013592915050565b60008060008060008060c0878903121561196b57600080fd5b863561197681611847565b9550602087013561198681611847565b945060408701359350606087013561199d81611847565b9598949750929560808101359460a0909101359350915050565b6000602082840312156119c957600080fd5b81356119d481611847565b9392505050565b600080604083850312156119ee57600080fd5b82356119f981611847565b91506020830135611a0981611847565b809150509250929050565b600080600080600060a08688031215611a2c57600080fd5b8535611a3781611847565b9450602086013593506040860135611a4e81611847565b94979396509394606081013594506080013592915050565b60008060408385031215611a7957600080fd5b823591506020830135611a0981611847565b60208082526019908201527f496e76616c6964206f776e6572206f72206f70657261746f7200000000000000604082015260600190565b6001600160a01b039586168152602081019490945260408401929092529092166060820152608081019190915260a00190565b600060208284031215611b0757600080fd5b81516119d481611847565b600060208284031215611b2457600080fd5b5051919050565b6001600160a01b039384168152919092166020820152604081019190915260600190565b600060208284031215611b6157600080fd5b815180151581146119d457600080fd5b6001600160e01b031991909116815260200190565b60005b83811015611ba1578181015183820152602001611b89565b50506000910152565b60018060a01b03851681528360208201526080604082015260008351806080840152611bdd8160a0850160208801611b86565b60ff93909316606083015250601f91909101601f19160160a0019392505050565b634e487b7160e01b600052604160045260246000fd5b600060208284031215611c2657600080fd5b815167ffffffffffffffff80821115611c3e57600080fd5b818401915084601f830112611c5257600080fd5b815181811115611c6457611c64611bfe565b604051601f8201601f19908116603f01168101908382118183101715611c8c57611c8c611bfe565b81604052828152876020848701011115611ca557600080fd5b611cb6836020830160208801611b86565b979650505050505050565b6001600160a01b0394851681529290931660208301526040820152606081019190915260a06080820181905260009082015260c00190565b60008251611d0b818460208701611b86565b919091019291505056fea264697066735822122068ee32b967ea96a2ba2f532af35cdc245a151927cb9948058cc6fe0d61ac9eb464736f6c63430008110033608060405234801561001057600080fd5b50611f5e806100206000396000f3fe60806040526004361061014f5760003560e01c80638da5cb5b116100b6578063ae4d17531161006f578063ae4d1753146103f5578063bc197c8114610415578063c19d93fb14610441578063dd46706414610457578063f23a6e6114610477578063fc0c546a146104a357600080fd5b80638da5cb5b146103325780638f0e24b6146103475780639bc289f1146103675780639bf32a35146103a2578063a4e2d634146103c0578063ac087a6d146103d557600080fd5b8063392e53cd11610108578063392e53cd1461027a578063485cc9551461029257806351945447146102b2578063523e3260146102d25780636e5559fd146102f25780637d1676641461031257600080fd5b806301ffc9a71461015b578063039721b114610190578063150b7a02146101b25780631626ba7e146101df57806317dd2c92146101ff5780631f9838b51461023157600080fd5b3661015657005b600080fd5b34801561016757600080fd5b5061017b610176366004611552565b6104db565b60405190151581526020015b60405180910390f35b34801561019c57600080fd5b506101b06101ab3660046115c0565b610548565b005b3480156101be57600080fd5b506101d26101cd366004611706565b610580565b6040516101879190611771565b3480156101eb57600080fd5b506101d26101fa366004611786565b6105e8565b34801561020b57600080fd5b506000546001600160a01b03165b6040516001600160a01b039091168152602001610187565b34801561023d57600080fd5b5061017b61024c3660046117cc565b6001600160a01b03918216600090815260026020908152604080832093909416825291909152205460ff1690565b34801561028657600080fd5b5060035460ff1661017b565b34801561029e57600080fd5b506101b06102ad3660046117cc565b61061f565b6102c56102c0366004611846565b61067e565b604051610187919061190f565b3480156102de57600080fd5b506101d26102ed366004611922565b6106bd565b3480156102fe57600080fd5b506101b061030d366004611976565b6106de565b34801561031e57600080fd5b506101b061032d3660046119a1565b610760565b34801561033e57600080fd5b50610219610796565b34801561035357600080fd5b506101b06103623660046119e2565b610832565b34801561037357600080fd5b50610394610382366004611976565b60056020526000908152604090205481565b604051908152602001610187565b3480156103ae57600080fd5b506001546001600160a01b0316610219565b3480156103cc57600080fd5b5061017b610864565b3480156103e157600080fd5b506101b06103f0366004611a28565b61089a565b34801561040157600080fd5b506101b0610410366004611976565b6108d6565b34801561042157600080fd5b506101d2610430366004611b3b565b63bc197c8160e01b95945050505050565b34801561044d57600080fd5b5061039460045481565b34801561046357600080fd5b506101b0610472366004611be8565b61096b565b34801561048357600080fd5b506101d2610492366004611c01565b63f23a6e6160e01b95945050505050565b3480156104af57600080fd5b506104b8610a21565b604080519384526001600160a01b03909216602084015290820152606001610187565b60006001600160e01b03198216636faff5f160e01b148061050c57506001600160e01b03198216635194544760e01b145b8061052757506001600160e01b03198216632f62b22760e01b145b8061054257506301ffc9a760e01b6001600160e01b03198316145b92915050565b610550610864565b1561056e57604051636315bfbb60e01b815260040160405180910390fd5b61057a84848484610a39565b50505050565b60008060008061058e610bdf565b92509250925046831480156105ab57506001600160a01b03821633145b80156105b657508581145b156105d45760405163b79e3f3f60e01b815260040160405180910390fd5b50630a85bd0160e11b979650505050505050565b6000806105fd6105f6610796565b8585610bed565b905080156106155750630b135d3f60e11b9050610542565b5060009392505050565b60035460ff16156106425760405162dc149f60e41b815260040160405180910390fd5b60038054600160ff199091168117909155600080546001600160a01b03199081166001600160a01b039586161790915581541691909216179055565b6060610688610864565b156106a657604051636315bfbb60e01b815260040160405180910390fd5b6106b38686868686610c44565b9695505050505050565b60006106c884610cf9565b156106155750630291f19360e51b5b9392505050565b6106e6610796565b6001600160a01b0316336001600160a01b0316146107175760405163ea8e4eb560e01b815260040160405180910390fd5b6001600160a01b03811661073e5760405163b4fa3fb360e01b815260040160405180910390fd5b600080546001600160a01b0319166001600160a01b0392909216919091179055565b610768610864565b1561078657604051636315bfbb60e01b815260040160405180910390fd5b610791838383610d7a565b505050565b6000806000806107a4610bdf565b9250925092504683146107bb576000935050505090565b6040516331a9108f60e11b8152600481018290526001600160a01b03831690636352211e90602401602060405180830381865afa92505050801561081c575060408051601f3d908101601f1916820190925261081991810190611c69565b60015b61082a576000935050505090565b949350505050565b61083a610864565b1561085857604051636315bfbb60e01b815260040160405180910390fd5b61057a84848484610dab565b60004260056000610873610796565b6001600160a01b03166001600160a01b031681526020019081526020016000205411905090565b6108a2610864565b156108c057604051636315bfbb60e01b815260040160405180910390fd5b6108ce868686868686610ddd565b505050505050565b6108de610796565b6001600160a01b0316336001600160a01b03161461090f5760405163ea8e4eb560e01b815260040160405180910390fd5b600180546001600160a01b0319166001600160a01b0383169081179091556040805133815260208101929092527f8e49c81dbf3f64ca1e8afe0b105d6e6a159505016a63bf20d3e3f4324e7597c791015b60405180910390a150565b61097433610cf9565b6109915760405163ea8e4eb560e01b815260040160405180910390fd5b61099f426301e13380611c9c565b8111156109bf576040516301814f7d60e31b815260040160405180910390fd5b80600560006109cc610796565b6001600160a01b03166001600160a01b03168152602001908152602001600020819055507fa7b24c66dd3269a292a60b3facdbb8f3e7557d1e19e64d99e0d6ee7250be63ad8160405161096091815260200190565b6000806000610a2e610bdf565b925092509250909192565b6000610a43610796565b9050336001600160a01b03821614610a6e5760405163ea8e4eb560e01b815260040160405180910390fd5b83828114610a8f5760405163b4fa3fb360e01b815260040160405180910390fd5b60005b81811015610bd657848482818110610aac57610aac611caf565b9050602002016020810190610ac19190611cc5565b6001600160a01b038416600090815260026020526040812090898985818110610aec57610aec611caf565b9050602002016020810190610b019190611976565b6001600160a01b031681526020810191909152604001600020805460ff19169115159190911790557f394777a58092892d136a90c4bb7e4350c72ac50fba6a0208128677f36527dcf583888884818110610b5d57610b5d611caf565b9050602002016020810190610b729190611976565b878785818110610b8457610b84611caf565b9050602002016020810190610b999190611cc5565b604080516001600160a01b03948516815293909216602084015215159082015260600160405180910390a180610bce81611ce2565b915050610a92565b50505050505050565b6000806000610a2e30610e11565b6000806000610bfc8585610e66565b90925090506000816004811115610c1557610c15611cfb565b148015610c335750856001600160a01b0316826001600160a01b0316145b806106b357506106b3868686610eab565b6060610c4f33610cf9565b610c6c5760405163ea8e4eb560e01b815260040160405180910390fd5b60ff821615610ccd5760405162461bcd60e51b815260206004820152602260248201527f4f6e6c792063616c6c206f7065726174696f6e732061726520737570706f7274604482015261195960f21b60648201526084015b60405180910390fd5b600460008154610cdc90611ce2565b90915550610ced8686868686610f97565b6106b3868686866110bf565b600080610d04610796565b6000549091506001600160a01b0390811690841603610d265750600192915050565b6001600160a01b0380821660009081526002602090815260408083209387168352929052205460ff1615610d5d5750600192915050565b806001600160a01b0316836001600160a01b031614915050919050565b610d8333610cf9565b610da05760405163ea8e4eb560e01b815260040160405180910390fd5b61079183838361113b565b610db433610cf9565b610dd15760405163ea8e4eb560e01b815260040160405180910390fd5b61057a8484848461125b565b610de633610cf9565b610e035760405163ea8e4eb560e01b815260040160405180910390fd5b6108ce868686868686611381565b60408051606080825260808201909252600091829182918291906020820181803683370190505090506060604d60208301873c80806020019051810190610e589190611d11565b935093509350509193909250565b6000808251604103610e9c5760208301516040840151606085015160001a610e908782858561148e565b94509450505050610ea4565b506000905060025b9250929050565b6000806000856001600160a01b0316631626ba7e60e01b8686604051602401610ed5929190611d4a565b60408051601f198184030181529181526020820180516001600160e01b03166001600160e01b0319909416939093179092529051610f139190611d63565b600060405180830381855afa9150503d8060008114610f4e576040519150601f19603f3d011682016040523d82523d6000602084013e610f53565b606091505b5091509150818015610f6757506020815110155b80156106b357508051630b135d3f60e11b90610f8c9083016020908101908401611d7f565b149695505050505050565b6001546040516301ffc9a760e01b81526001600160a01b03909116906301ffc9a790610fce90630736863160e31b90600401611771565b602060405180830381865afa158015610feb573d6000803e3d6000fd5b505050506040513d601f19601f8201168201806040525081019061100f9190611d98565b156110b857600154604051631269c0cd60e21b81526000916001600160a01b0316906349a703349061104d9089908990899089908990600401611db5565b6000604051808303816000875af115801561106c573d6000803e3d6000fd5b505050506040513d6000823e601f3d908101601f191682016040526110949190810190611e0a565b8051909150156108ce578060405162461bcd60e51b8152600401610cc4919061190f565b5050505050565b60606000856001600160a01b03168585856040516110de929190611e80565b60006040518083038185875af1925050503d806000811461111b576040519150601f19603f3d011682016040523d82523d6000602084013e611120565b606091505b50925090508061113257815160208301fd5b50949350505050565b6001546040516301ffc9a760e01b81526001600160a01b03909116906301ffc9a79061117290630736863160e31b90600401611771565b602060405180830381865afa15801561118f573d6000803e3d6000fd5b505050506040513d601f19601f820116820180604052508101906111b39190611d98565b156107915760008060006111c5610bdf565b6001546040516380ced4bf60e01b81528a15156004820152602481018590526001600160a01b038085166044830152606482018490528a8116608483015260a482018a905294975092955090935091909116906380ced4bf9060c401600060405180830381600087803b15801561123b57600080fd5b505af115801561124f573d6000803e3d6000fd5b50505050505050505050565b6001546040516301ffc9a760e01b81526001600160a01b03909116906301ffc9a79061129290630736863160e31b90600401611771565b602060405180830381865afa1580156112af573d6000803e3d6000fd5b505050506040513d601f19601f820116820180604052508101906112d39190611d98565b1561057a5760008060006112e5610bdf565b60015460405162da771360e01b81528b15156004820152602481018590526001600160a01b038085166044830152606482018490528b8116608483015260a482018b905260c482018a9052949750929550909350919091169062da77139060e401600060405180830381600087803b15801561136057600080fd5b505af1158015611374573d6000803e3d6000fd5b5050505050505050505050565b6001546040516301ffc9a760e01b81526001600160a01b03909116906301ffc9a7906113b890630736863160e31b90600401611771565b602060405180830381865afa1580156113d5573d6000803e3d6000fd5b505050506040513d601f19601f820116820180604052508101906113f99190611d98565b156108ce57600080600061140b610bdf565b600154604051630f00791160e41b815293965091945092506001600160a01b03169063f007911090611451908c908790879087908f908f908f908f908f90600401611ec2565b600060405180830381600087803b15801561146b57600080fd5b505af115801561147f573d6000803e3d6000fd5b50505050505050505050505050565b6000807f7fffffffffffffffffffffffffffffff5d576e7357a4501ddfe92f46681b20a08311156114c55750600090506003611549565b6040805160008082526020820180845289905260ff881692820192909252606081018690526080810185905260019060a0016020604051602081039080840390855afa158015611519573d6000803e3d6000fd5b5050604051601f1901519150506001600160a01b03811661154257600060019250925050611549565b9150600090505b94509492505050565b60006020828403121561156457600080fd5b81356001600160e01b0319811681146106d757600080fd5b60008083601f84011261158e57600080fd5b5081356001600160401b038111156115a557600080fd5b6020830191508360208260051b8501011115610ea457600080fd5b600080600080604085870312156115d657600080fd5b84356001600160401b03808211156115ed57600080fd5b6115f98883890161157c565b9096509450602087013591508082111561161257600080fd5b5061161f8782880161157c565b95989497509550505050565b6001600160a01b038116811461164057600080fd5b50565b634e487b7160e01b600052604160045260246000fd5b604051601f8201601f191681016001600160401b038111828210171561168157611681611643565b604052919050565b60006001600160401b038211156116a2576116a2611643565b50601f01601f191660200190565b600082601f8301126116c157600080fd5b81356116d46116cf82611689565b611659565b8181528460208386010111156116e957600080fd5b816020850160208301376000918101602001919091529392505050565b6000806000806080858703121561171c57600080fd5b84356117278161162b565b935060208501356117378161162b565b92506040850135915060608501356001600160401b0381111561175957600080fd5b611765878288016116b0565b91505092959194509250565b6001600160e01b031991909116815260200190565b6000806040838503121561179957600080fd5b8235915060208301356001600160401b038111156117b657600080fd5b6117c2858286016116b0565b9150509250929050565b600080604083850312156117df57600080fd5b82356117ea8161162b565b915060208301356117fa8161162b565b809150509250929050565b60008083601f84011261181757600080fd5b5081356001600160401b0381111561182e57600080fd5b602083019150836020828501011115610ea457600080fd5b60008060008060006080868803121561185e57600080fd5b85356118698161162b565b94506020860135935060408601356001600160401b0381111561188b57600080fd5b61189788828901611805565b909450925050606086013560ff811681146118b157600080fd5b809150509295509295909350565b60005b838110156118da5781810151838201526020016118c2565b50506000910152565b600081518084526118fb8160208601602086016118bf565b601f01601f19169290920160200192915050565b6020815260006106d760208301846118e3565b60008060006040848603121561193757600080fd5b83356119428161162b565b925060208401356001600160401b0381111561195d57600080fd5b61196986828701611805565b9497909650939450505050565b60006020828403121561198857600080fd5b81356106d78161162b565b801515811461164057600080fd5b6000806000606084860312156119b657600080fd5b83356119c181611993565b925060208401356119d18161162b565b929592945050506040919091013590565b600080600080608085870312156119f857600080fd5b8435611a0381611993565b93506020850135611a138161162b565b93969395505050506040820135916060013590565b60008060008060008060808789031215611a4157600080fd5b8635611a4c81611993565b95506020870135611a5c8161162b565b945060408701356001600160401b0380821115611a7857600080fd5b611a848a838b0161157c565b90965094506060890135915080821115611a9d57600080fd5b50611aaa89828a0161157c565b979a9699509497509295939492505050565b600082601f830112611acd57600080fd5b813560206001600160401b03821115611ae857611ae8611643565b8160051b611af7828201611659565b9283528481018201928281019087851115611b1157600080fd5b83870192505b84831015611b3057823582529183019190830190611b17565b979650505050505050565b600080600080600060a08688031215611b5357600080fd5b8535611b5e8161162b565b94506020860135611b6e8161162b565b935060408601356001600160401b0380821115611b8a57600080fd5b611b9689838a01611abc565b94506060880135915080821115611bac57600080fd5b611bb889838a01611abc565b93506080880135915080821115611bce57600080fd5b50611bdb888289016116b0565b9150509295509295909350565b600060208284031215611bfa57600080fd5b5035919050565b600080600080600060a08688031215611c1957600080fd5b8535611c248161162b565b94506020860135611c348161162b565b9350604086013592506060860135915060808601356001600160401b03811115611c5d57600080fd5b611bdb888289016116b0565b600060208284031215611c7b57600080fd5b81516106d78161162b565b634e487b7160e01b600052601160045260246000fd5b8082018082111561054257610542611c86565b634e487b7160e01b600052603260045260246000fd5b600060208284031215611cd757600080fd5b81356106d781611993565b600060018201611cf457611cf4611c86565b5060010190565b634e487b7160e01b600052602160045260246000fd5b600080600060608486031215611d2657600080fd5b835192506020840151611d388161162b565b80925050604084015190509250925092565b82815260406020820152600061082a60408301846118e3565b60008251611d758184602087016118bf565b9190910192915050565b600060208284031215611d9157600080fd5b5051919050565b600060208284031215611daa57600080fd5b81516106d781611993565b6001600160a01b0386168152602081018590526080604082018190528101839052828460a0830137600060a08483010152600060a0601f19601f860116830101905060ff831660608301529695505050505050565b600060208284031215611e1c57600080fd5b81516001600160401b03811115611e3257600080fd5b8201601f81018413611e4357600080fd5b8051611e516116cf82611689565b818152856020838501011115611e6657600080fd5b611e778260208301602086016118bf565b95945050505050565b8183823760009101908152919050565b81835260006001600160fb1b03831115611ea957600080fd5b8260051b80836020870137939093016020019392505050565b8915158152602081018990526001600160a01b038881166040830152606082018890528616608082015260e060a08201819052600090611f059083018688611e90565b82810360c0840152611f18818587611e90565b9c9b50505050505050505050505056fea2646970667358221220eebe1d94ebbe68245deaea5e319e39cd42e94b9677f733cb661c7ffc33784d9e64736f6c63430008110033",
  "devdoc": {
    "kind": "dev",
    "methods": {
      "breakCovalentBond(address,address,uint256,address,uint256,uint256)": {
        "params": {
          "contractAddress": "The Address to the Contract of the Token to Energize",
          "nftTokenAddress": "The Address of the NFT Token being deposited",
          "nftTokenAmount": "The amount of Tokens to Withdraw (ERC1155-specific)",
          "nftTokenId": "The ID of the NFT Token being deposited",
          "receiver": "The Address to Receive the Released Asset Tokens",
          "tokenId": "The ID of the Token to Energize"
        }
      },
      "covalentBond(address,uint256,address,uint256,uint256)": {
        "params": {
          "contractAddress": "The Address to the Contract of the Token to Energize",
          "nftTokenAddress": "The Address of the NFT Token being deposited",
          "nftTokenAmount": "The amount of Tokens to Deposit (ERC1155-specific)",
          "nftTokenId": "The ID of the NFT Token being deposited",
          "tokenId": "The ID of the Token to Energize"
        }
      },
      "energizeParticle(address,uint256,address,uint256)": {
        "params": {
          "assetAmount": "The Amount of Asset Token to Energize the Token with",
          "assetToken": "The Address of the Asset Token being used",
          "contractAddress": "The Address to the Contract of the Token to Energize",
          "tokenId": "The ID of the Token to Energize"
        }
      },
      "getAccountImplementation(address)": {
        "details": "..."
      },
      "getCurrentRegistry()": {
        "details": "..."
      },
      "getExecutionController(address)": {
        "details": "..."
      },
      "getRegistry(uint256)": {
        "details": "..."
      },
      "owner()": {
        "details": "Returns the address of the current owner."
      },
      "renounceOwnership()": {
        "details": "Leaves the contract without owner. It will not be possible to call `onlyOwner` functions. Can only be called by the current owner. NOTE: Renouncing ownership will leave the contract without an owner, thereby disabling any functionality that is only available to the owner."
      },
      "setCustomAccountImplementation(address,address)": {
        "details": "..."
      },
      "setCustomExecutionController(address,address)": {
        "details": "..."
      },
      "setDefaultAccountImplementation(address)": {
        "details": "..."
      },
      "setDefaultExecutionController(address)": {
        "details": "..."
      },
      "setDefaultRegistryVersion(uint256)": {
        "details": "..."
      },
      "setRegistry(uint256,address)": {
        "details": "..."
      },
      "transferOwnership(address)": {
        "details": "Transfers ownership of the contract to a new account (`newOwner`). Can only be called by the current owner."
      }
    },
    "version": 1
  },
  "userdoc": {
    "kind": "user",
    "methods": {
      "breakCovalentBond(address,address,uint256,address,uint256,uint256)": {
        "notice": "Release NFT Assets from the Particle"
      },
      "covalentBond(address,uint256,address,uint256,uint256)": {
        "notice": "Deposit other NFT Assets into the Particle    Must be called by the account providing the Asset    Account must Approve THIS contract as Operator of Asset"
      },
      "energizeParticle(address,uint256,address,uint256)": {
        "notice": "Fund Particle with Asset Token    Must be called by the account providing the Asset    Account must Approve THIS contract as Operator of Asset"
      }
    },
    "version": 1
  },
  "storageLayout": {
    "storage": [
      {
        "astId": 7,
        "contract": "contracts/ChargedParticles.sol:ChargedParticles",
        "label": "_owner",
        "offset": 0,
        "slot": "0",
        "type": "t_address"
      },
      {
        "astId": 137,
        "contract": "contracts/ChargedParticles.sol:ChargedParticles",
        "label": "_status",
        "offset": 0,
        "slot": "1",
        "type": "t_uint256"
      },
      {
        "astId": 4080,
        "contract": "contracts/ChargedParticles.sol:ChargedParticles",
        "label": "accountImplementations",
        "offset": 0,
        "slot": "2",
        "type": "t_mapping(t_address,t_address)"
      },
      {
        "astId": 4082,
        "contract": "contracts/ChargedParticles.sol:ChargedParticles",
        "label": "defaultAccountImplementation",
        "offset": 0,
        "slot": "3",
        "type": "t_address"
      },
      {
        "astId": 4086,
        "contract": "contracts/ChargedParticles.sol:ChargedParticles",
        "label": "executionControllers",
        "offset": 0,
        "slot": "4",
        "type": "t_mapping(t_address,t_address)"
      },
      {
        "astId": 4088,
        "contract": "contracts/ChargedParticles.sol:ChargedParticles",
        "label": "defaultExecutionController",
        "offset": 0,
        "slot": "5",
        "type": "t_address"
      },
      {
        "astId": 4092,
        "contract": "contracts/ChargedParticles.sol:ChargedParticles",
        "label": "erc6551registry",
        "offset": 0,
        "slot": "6",
        "type": "t_mapping(t_uint256,t_address)"
      },
      {
        "astId": 4094,
        "contract": "contracts/ChargedParticles.sol:ChargedParticles",
        "label": "defaultRegistry",
        "offset": 0,
        "slot": "7",
        "type": "t_uint256"
      }
    ],
    "types": {
      "t_address": {
        "encoding": "inplace",
        "label": "address",
        "numberOfBytes": "20"
      },
      "t_mapping(t_address,t_address)": {
        "encoding": "mapping",
        "key": "t_address",
        "label": "mapping(address => address)",
        "numberOfBytes": "32",
        "value": "t_address"
      },
      "t_mapping(t_uint256,t_address)": {
        "encoding": "mapping",
        "key": "t_uint256",
        "label": "mapping(uint256 => address)",
        "numberOfBytes": "32",
        "value": "t_address"
      },
      "t_uint256": {
        "encoding": "inplace",
        "label": "uint256",
        "numberOfBytes": "32"
      }
    }
  }
}