{
  "_format": "hh-sol-artifact-1",
  "contractName": "ERC721i",
  "sourceName": "contracts/ERC721i.sol",
  "abi": [
    {
      "inputs": [
        {
          "internalType": "string",
          "name": "name",
          "type": "string"
        },
        {
          "internalType": "string",
          "name": "symbol",
          "type": "string"
        },
        {
          "internalType": "string",
          "name": "baseUri",
          "type": "string"
        },
        {
          "internalType": "address",
          "name": "minter",
          "type": "address"
        },
        {
          "internalType": "uint256",
          "name": "maxSupply",
          "type": "uint256"
        }
      ],
      "stateMutability": "nonpayable",
      "type": "constructor"
    },
    {
      "anonymous": false,
      "inputs": [
        {
          "indexed": true,
          "internalType": "address",
          "name": "owner",
          "type": "address"
        },
        {
          "indexed": true,
          "internalType": "address",
          "name": "approved",
          "type": "address"
        },
        {
          "indexed": true,
          "internalType": "uint256",
          "name": "tokenId",
          "type": "uint256"
        }
      ],
      "name": "Approval",
      "type": "event"
    },
    {
      "anonymous": false,
      "inputs": [
        {
          "indexed": true,
          "internalType": "address",
          "name": "owner",
          "type": "address"
        },
        {
          "indexed": true,
          "internalType": "address",
          "name": "operator",
          "type": "address"
        },
        {
          "indexed": false,
          "internalType": "bool",
          "name": "approved",
          "type": "bool"
        }
      ],
      "name": "ApprovalForAll",
      "type": "event"
    },
    {
      "anonymous": false,
      "inputs": [
        {
          "indexed": true,
          "internalType": "uint256",
          "name": "fromTokenId",
          "type": "uint256"
        },
        {
          "indexed": false,
          "internalType": "uint256",
          "name": "toTokenId",
          "type": "uint256"
        },
        {
          "indexed": true,
          "internalType": "address",
          "name": "fromAddress",
          "type": "address"
        },
        {
          "indexed": true,
          "internalType": "address",
          "name": "toAddress",
          "type": "address"
        }
      ],
      "name": "ConsecutiveTransfer",
      "type": "event"
    },
    {
      "anonymous": false,
      "inputs": [
        {
          "indexed": true,
          "internalType": "address",
          "name": "previousOwner",
          "type": "address"
        },
        {
          "indexed": true,
          "internalType": "address",
          "name": "newOwner",
          "type": "address"
        }
      ],
      "name": "OwnershipTransferred",
      "type": "event"
    },
    {
      "anonymous": false,
      "inputs": [
        {
          "indexed": true,
          "internalType": "address",
          "name": "from",
          "type": "address"
        },
        {
          "indexed": true,
          "internalType": "address",
          "name": "to",
          "type": "address"
        },
        {
          "indexed": true,
          "internalType": "uint256",
          "name": "tokenId",
          "type": "uint256"
        }
      ],
      "name": "Transfer",
      "type": "event"
    },
    {
      "inputs": [
        {
          "internalType": "address",
          "name": "to",
          "type": "address"
        },
        {
          "internalType": "uint256",
          "name": "tokenId",
          "type": "uint256"
        }
      ],
      "name": "approve",
      "outputs": [],
      "stateMutability": "nonpayable",
      "type": "function"
    },
    {
      "inputs": [
        {
          "internalType": "address",
          "name": "owner",
          "type": "address"
        }
      ],
      "name": "balanceOf",
      "outputs": [
        {
          "internalType": "uint256",
          "name": "",
          "type": "uint256"
        }
      ],
      "stateMutability": "view",
      "type": "function"
    },
    {
      "inputs": [
        {
          "internalType": "uint256",
          "name": "tokenId",
          "type": "uint256"
        }
      ],
      "name": "getApproved",
      "outputs": [
        {
          "internalType": "address",
          "name": "",
          "type": "address"
        }
      ],
      "stateMutability": "view",
      "type": "function"
    },
    {
      "inputs": [
        {
          "internalType": "address",
          "name": "owner",
          "type": "address"
        },
        {
          "internalType": "address",
          "name": "operator",
          "type": "address"
        }
      ],
      "name": "isApprovedForAll",
      "outputs": [
        {
          "internalType": "bool",
          "name": "",
          "type": "bool"
        }
      ],
      "stateMutability": "view",
      "type": "function"
    },
    {
      "inputs": [],
      "name": "name",
      "outputs": [
        {
          "internalType": "string",
          "name": "",
          "type": "string"
        }
      ],
      "stateMutability": "view",
      "type": "function"
    },
    {
      "inputs": [],
      "name": "owner",
      "outputs": [
        {
          "internalType": "address",
          "name": "",
          "type": "address"
        }
      ],
      "stateMutability": "view",
      "type": "function"
    },
    {
      "inputs": [
        {
          "internalType": "uint256",
          "name": "tokenId",
          "type": "uint256"
        }
      ],
      "name": "ownerOf",
      "outputs": [
        {
          "internalType": "address",
          "name": "",
          "type": "address"
        }
      ],
      "stateMutability": "view",
      "type": "function"
    },
    {
      "inputs": [],
      "name": "preMint",
      "outputs": [],
      "stateMutability": "nonpayable",
      "type": "function"
    },
    {
      "inputs": [],
      "name": "renounceOwnership",
      "outputs": [],
      "stateMutability": "nonpayable",
      "type": "function"
    },
    {
      "inputs": [
        {
          "internalType": "address",
          "name": "from",
          "type": "address"
        },
        {
          "internalType": "address",
          "name": "to",
          "type": "address"
        },
        {
          "internalType": "uint256",
          "name": "tokenId",
          "type": "uint256"
        }
      ],
      "name": "safeTransferFrom",
      "outputs": [],
      "stateMutability": "nonpayable",
      "type": "function"
    },
    {
      "inputs": [
        {
          "internalType": "address",
          "name": "from",
          "type": "address"
        },
        {
          "internalType": "address",
          "name": "to",
          "type": "address"
        },
        {
          "internalType": "uint256",
          "name": "tokenId",
          "type": "uint256"
        },
        {
          "internalType": "bytes",
          "name": "data",
          "type": "bytes"
        }
      ],
      "name": "safeTransferFrom",
      "outputs": [],
      "stateMutability": "nonpayable",
      "type": "function"
    },
    {
      "inputs": [
        {
          "internalType": "address",
          "name": "operator",
          "type": "address"
        },
        {
          "internalType": "bool",
          "name": "approved",
          "type": "bool"
        }
      ],
      "name": "setApprovalForAll",
      "outputs": [],
      "stateMutability": "nonpayable",
      "type": "function"
    },
    {
      "inputs": [
        {
          "internalType": "bytes4",
          "name": "interfaceId",
          "type": "bytes4"
        }
      ],
      "name": "supportsInterface",
      "outputs": [
        {
          "internalType": "bool",
          "name": "",
          "type": "bool"
        }
      ],
      "stateMutability": "view",
      "type": "function"
    },
    {
      "inputs": [],
      "name": "symbol",
      "outputs": [
        {
          "internalType": "string",
          "name": "",
          "type": "string"
        }
      ],
      "stateMutability": "view",
      "type": "function"
    },
    {
      "inputs": [
        {
          "internalType": "uint256",
          "name": "index",
          "type": "uint256"
        }
      ],
      "name": "tokenByIndex",
      "outputs": [
        {
          "internalType": "uint256",
          "name": "",
          "type": "uint256"
        }
      ],
      "stateMutability": "view",
      "type": "function"
    },
    {
      "inputs": [
        {
          "internalType": "address",
          "name": "owner",
          "type": "address"
        },
        {
          "internalType": "uint256",
          "name": "index",
          "type": "uint256"
        }
      ],
      "name": "tokenOfOwnerByIndex",
      "outputs": [
        {
          "internalType": "uint256",
          "name": "",
          "type": "uint256"
        }
      ],
      "stateMutability": "view",
      "type": "function"
    },
    {
      "inputs": [
        {
          "internalType": "uint256",
          "name": "tokenId",
          "type": "uint256"
        }
      ],
      "name": "tokenURI",
      "outputs": [
        {
          "internalType": "string",
          "name": "",
          "type": "string"
        }
      ],
      "stateMutability": "view",
      "type": "function"
    },
    {
      "inputs": [],
      "name": "totalSupply",
      "outputs": [
        {
          "internalType": "uint256",
          "name": "",
          "type": "uint256"
        }
      ],
      "stateMutability": "view",
      "type": "function"
    },
    {
      "inputs": [
        {
          "internalType": "address",
          "name": "from",
          "type": "address"
        },
        {
          "internalType": "address",
          "name": "to",
          "type": "address"
        },
        {
          "internalType": "uint256",
          "name": "tokenId",
          "type": "uint256"
        }
      ],
      "name": "transferFrom",
      "outputs": [],
      "stateMutability": "nonpayable",
      "type": "function"
    },
    {
      "inputs": [
        {
          "internalType": "address",
          "name": "newOwner",
          "type": "address"
        }
      ],
      "name": "transferOwnership",
      "outputs": [],
      "stateMutability": "nonpayable",
      "type": "function"
    }
  ],
  "bytecode": "0x60806040523480156200001157600080fd5b506040516200342a3803806200342a8339818101604052810190620000379190620004b2565b8484620000596200004d620000f960201b60201c565b6200010160201b60201c565b816001908051906020019062000071929190620001c5565b5080600290805190602001906200008a929190620001c5565b50505082600b9080519060200190620000a5929190620001c5565b5080600a8190555081600960006101000a81548173ffffffffffffffffffffffffffffffffffffffff021916908373ffffffffffffffffffffffffffffffffffffffff1602179055505050505050620005fb565b600033905090565b60008060009054906101000a900473ffffffffffffffffffffffffffffffffffffffff169050816000806101000a81548173ffffffffffffffffffffffffffffffffffffffff021916908373ffffffffffffffffffffffffffffffffffffffff1602179055508173ffffffffffffffffffffffffffffffffffffffff168173ffffffffffffffffffffffffffffffffffffffff167f8be0079c531659141344cd1fd0a4f28419497f9722a3daafe3b4186f6b6457e060405160405180910390a35050565b828054620001d390620005c6565b90600052602060002090601f016020900481019282620001f7576000855562000243565b82601f106200021257805160ff191683800117855562000243565b8280016001018555821562000243579182015b828111156200024257825182559160200191906001019062000225565b5b50905062000252919062000256565b5090565b5b808211156200027157600081600090555060010162000257565b5090565b6000604051905090565b600080fd5b600080fd5b600080fd5b600080fd5b6000601f19601f8301169050919050565b7f4e487b7100000000000000000000000000000000000000000000000000000000600052604160045260246000fd5b620002de8262000293565b810181811067ffffffffffffffff821117156200030057620002ff620002a4565b5b80604052505050565b60006200031562000275565b9050620003238282620002d3565b919050565b600067ffffffffffffffff821115620003465762000345620002a4565b5b620003518262000293565b9050602081019050919050565b60005b838110156200037e57808201518184015260208101905062000361565b838111156200038e576000848401525b50505050565b6000620003ab620003a58462000328565b62000309565b905082815260208101848484011115620003ca57620003c96200028e565b5b620003d78482856200035e565b509392505050565b600082601f830112620003f757620003f662000289565b5b81516200040984826020860162000394565b91505092915050565b600073ffffffffffffffffffffffffffffffffffffffff82169050919050565b60006200043f8262000412565b9050919050565b620004518162000432565b81146200045d57600080fd5b50565b600081519050620004718162000446565b92915050565b6000819050919050565b6200048c8162000477565b81146200049857600080fd5b50565b600081519050620004ac8162000481565b92915050565b600080600080600060a08688031215620004d157620004d06200027f565b5b600086015167ffffffffffffffff811115620004f257620004f162000284565b5b6200050088828901620003df565b955050602086015167ffffffffffffffff81111562000524576200052362000284565b5b6200053288828901620003df565b945050604086015167ffffffffffffffff81111562000556576200055562000284565b5b6200056488828901620003df565b9350506060620005778882890162000460565b92505060806200058a888289016200049b565b9150509295509295909350565b7f4e487b7100000000000000000000000000000000000000000000000000000000600052602260045260246000fd5b60006002820490506001821680620005df57607f821691505b602082108103620005f557620005f462000597565b5b50919050565b612e1f806200060b6000396000f3fe608060405234801561001057600080fd5b506004361061012c5760003560e01c80636352211e116100ad578063a22cb46511610071578063a22cb46514610331578063b88d4fde1461034d578063c87b56dd14610369578063e985e9c514610399578063f2fde38b146103c95761012c565b80636352211e1461028b57806370a08231146102bb578063715018a6146102eb5780638da5cb5b146102f557806395d89b41146103135761012c565b806323b872dd116100f457806323b872dd146101e95780632f745c59146102055780633cd29ac81461023557806342842e0e1461023f5780634f6ccce71461025b5761012c565b806301ffc9a71461013157806306fdde0314610161578063081812fc1461017f578063095ea7b3146101af57806318160ddd146101cb575b600080fd5b61014b60048036038101906101469190611ec7565b6103e5565b6040516101589190611f0f565b60405180910390f35b61016961045f565b6040516101769190611fc3565b60405180910390f35b6101996004803603810190610194919061201b565b6104f1565b6040516101a69190612089565b60405180910390f35b6101c960048036038101906101c491906120d0565b610537565b005b6101d361064e565b6040516101e0919061211f565b60405180910390f35b61020360048036038101906101fe919061213a565b610658565b005b61021f600480360381019061021a91906120d0565b6106b8565b60405161022c919061211f565b60405180910390f35b61023d610871565b005b6102596004803603810190610254919061213a565b610883565b005b6102756004803603810190610270919061201b565b6108a3565b604051610282919061211f565b60405180910390f35b6102a560048036038101906102a0919061201b565b6108fd565b6040516102b29190612089565b60405180910390f35b6102d560048036038101906102d0919061218d565b6109b5565b6040516102e2919061211f565b60405180910390f35b6102f3610a6c565b005b6102fd610a80565b60405161030a9190612089565b60405180910390f35b61031b610aa9565b6040516103289190611fc3565b60405180910390f35b61034b600480360381019061034691906121e6565b610b3b565b005b6103676004803603810190610362919061235b565b610b51565b005b610383600480360381019061037e919061201b565b610bb3565b6040516103909190611fc3565b60405180910390f35b6103b360048036038101906103ae91906123de565b610c1b565b6040516103c09190611f0f565b60405180910390f35b6103e360048036038101906103de919061218d565b610caf565b005b60007f780e9d63000000000000000000000000000000000000000000000000000000007bffffffffffffffffffffffffffffffffffffffffffffffffffffffff1916827bffffffffffffffffffffffffffffffffffffffffffffffffffffffff19161480610458575061045782610d32565b5b9050919050565b60606001805461046e9061244d565b80601f016020809104026020016040519081016040528092919081815260200182805461049a9061244d565b80156104e75780601f106104bc576101008083540402835291602001916104e7565b820191906000526020600020905b8154815290600101906020018083116104ca57829003601f168201915b5050505050905090565b60006104fc82610e14565b6005600083815260200190815260200160002060009054906101000a900473ffffffffffffffffffffffffffffffffffffffff169050919050565b6000610542826108fd565b90508073ffffffffffffffffffffffffffffffffffffffff168373ffffffffffffffffffffffffffffffffffffffff16036105b2576040517f08c379a00000000000000000000000000000000000000000000000000000000081526004016105a9906124f0565b60405180910390fd5b8073ffffffffffffffffffffffffffffffffffffffff166105d1610e5f565b73ffffffffffffffffffffffffffffffffffffffff16148061060057506105ff816105fa610e5f565b610c1b565b5b61063f576040517f08c379a000000000000000000000000000000000000000000000000000000000815260040161063690612582565b60405180910390fd5b6106498383610e67565b505050565b6000600a54905090565b610669610663610e5f565b82610f20565b6106a8576040517f08c379a000000000000000000000000000000000000000000000000000000000815260040161069f90612614565b60405180910390fd5b6106b3838383610fb5565b505050565b60006106c3836109b5565b8210610704576040517f08c379a00000000000000000000000000000000000000000000000000000000081526004016106fb906126a6565b60405180910390fd5b600960009054906101000a900473ffffffffffffffffffffffffffffffffffffffff1673ffffffffffffffffffffffffffffffffffffffff168373ffffffffffffffffffffffffffffffffffffffff160361081757600061076361064e565b9050600080600190505b8281101561081357600960009054906101000a900473ffffffffffffffffffffffffffffffffffffffff1673ffffffffffffffffffffffffffffffffffffffff166107b7826108fd565b73ffffffffffffffffffffffffffffffffffffffff1603610800576001826107df91906126f5565b9150846001836107ef919061274b565b036107ff5780935050505061086b565b5b808061080b9061277f565b91505061076d565b5050505b600760008473ffffffffffffffffffffffffffffffffffffffff1673ffffffffffffffffffffffffffffffffffffffff16815260200190815260200160002060008381526020019081526020016000205490505b92915050565b61087961121b565b610881611299565b565b61089e83838360405180602001604052806000815250610b51565b505050565b6000600a5482106108e9576040517f08c379a00000000000000000000000000000000000000000000000000000000081526004016108e090612839565b60405180910390fd5b6001826108f691906126f5565b9050919050565b6000600a54821115610919576109128261138f565b90506109b0565b60006003600084815260200190815260200160002060009054906101000a900473ffffffffffffffffffffffffffffffffffffffff169050600073ffffffffffffffffffffffffffffffffffffffff168173ffffffffffffffffffffffffffffffffffffffff16036109ab57600960009054906101000a900473ffffffffffffffffffffffffffffffffffffffff1690505b809150505b919050565b60008073ffffffffffffffffffffffffffffffffffffffff168273ffffffffffffffffffffffffffffffffffffffff1603610a25576040517f08c379a0000000000000000000000000000000000000000000000000000000008152600401610a1c906128cb565b60405180910390fd5b600460008373ffffffffffffffffffffffffffffffffffffffff1673ffffffffffffffffffffffffffffffffffffffff168152602001908152602001600020549050919050565b610a7461121b565b610a7e6000611440565b565b60008060009054906101000a900473ffffffffffffffffffffffffffffffffffffffff16905090565b606060028054610ab89061244d565b80601f0160208091040260200160405190810160405280929190818152602001828054610ae49061244d565b8015610b315780601f10610b0657610100808354040283529160200191610b31565b820191906000526020600020905b815481529060010190602001808311610b1457829003601f168201915b5050505050905090565b610b4d610b46610e5f565b8383611504565b5050565b610b62610b5c610e5f565b83610f20565b610ba1576040517f08c379a0000000000000000000000000000000000000000000000000000000008152600401610b9890612614565b60405180910390fd5b610bad84848484611670565b50505050565b6060610bbe82610e14565b6000610bc86116cc565b90506000815111610be85760405180602001604052806000815250610c13565b80610bf28461175e565b604051602001610c03929190612927565b6040516020818303038152906040525b915050919050565b6000600660008473ffffffffffffffffffffffffffffffffffffffff1673ffffffffffffffffffffffffffffffffffffffff16815260200190815260200160002060008373ffffffffffffffffffffffffffffffffffffffff1673ffffffffffffffffffffffffffffffffffffffff16815260200190815260200160002060009054906101000a900460ff16905092915050565b610cb761121b565b600073ffffffffffffffffffffffffffffffffffffffff168173ffffffffffffffffffffffffffffffffffffffff1603610d26576040517f08c379a0000000000000000000000000000000000000000000000000000000008152600401610d1d906129bd565b60405180910390fd5b610d2f81611440565b50565b60007f80ac58cd000000000000000000000000000000000000000000000000000000007bffffffffffffffffffffffffffffffffffffffffffffffffffffffff1916827bffffffffffffffffffffffffffffffffffffffffffffffffffffffff19161480610dfd57507f5b5e139f000000000000000000000000000000000000000000000000000000007bffffffffffffffffffffffffffffffffffffffffffffffffffffffff1916827bffffffffffffffffffffffffffffffffffffffffffffffffffffffff1916145b80610e0d5750610e0c8261182c565b5b9050919050565b610e1d81611896565b610e5c576040517f08c379a0000000000000000000000000000000000000000000000000000000008152600401610e5390612a29565b60405180910390fd5b50565b600033905090565b816005600083815260200190815260200160002060006101000a81548173ffffffffffffffffffffffffffffffffffffffff021916908373ffffffffffffffffffffffffffffffffffffffff160217905550808273ffffffffffffffffffffffffffffffffffffffff16610eda836108fd565b73ffffffffffffffffffffffffffffffffffffffff167f8c5be1e5ebec7d5bd14f71427d1e84f3dd0314c0f7b2291e5b200ac8c7c3b92560405160405180910390a45050565b600080610f2c836108fd565b90508073ffffffffffffffffffffffffffffffffffffffff168473ffffffffffffffffffffffffffffffffffffffff161480610f6e5750610f6d8185610c1b565b5b80610fac57508373ffffffffffffffffffffffffffffffffffffffff16610f94846104f1565b73ffffffffffffffffffffffffffffffffffffffff16145b91505092915050565b8273ffffffffffffffffffffffffffffffffffffffff16610fd5826108fd565b73ffffffffffffffffffffffffffffffffffffffff161461102b576040517f08c379a000000000000000000000000000000000000000000000000000000000815260040161102290612abb565b60405180910390fd5b600073ffffffffffffffffffffffffffffffffffffffff168273ffffffffffffffffffffffffffffffffffffffff160361109a576040517f08c379a000000000000000000000000000000000000000000000000000000000815260040161109190612b4d565b60405180910390fd5b6110a58383836118cc565b6110b0600082610e67565b6001600460008573ffffffffffffffffffffffffffffffffffffffff1673ffffffffffffffffffffffffffffffffffffffff1681526020019081526020016000206000828254611100919061274b565b925050819055506001600460008473ffffffffffffffffffffffffffffffffffffffff1673ffffffffffffffffffffffffffffffffffffffff168152602001908152602001600020600082825461115791906126f5565b92505081905550816003600083815260200190815260200160002060006101000a81548173ffffffffffffffffffffffffffffffffffffffff021916908373ffffffffffffffffffffffffffffffffffffffff160217905550808273ffffffffffffffffffffffffffffffffffffffff168473ffffffffffffffffffffffffffffffffffffffff167fddf252ad1be2c89b69c2b068fc378daa952ba7f163c4a11628f55a4df523b3ef60405160405180910390a4611216838383611924565b505050565b611223610e5f565b73ffffffffffffffffffffffffffffffffffffffff16611241610a80565b73ffffffffffffffffffffffffffffffffffffffff1614611297576040517f08c379a000000000000000000000000000000000000000000000000000000000815260040161128e90612bb9565b60405180910390fd5b565b600a5460046000600960009054906101000a900473ffffffffffffffffffffffffffffffffffffffff1673ffffffffffffffffffffffffffffffffffffffff1673ffffffffffffffffffffffffffffffffffffffff16815260200190815260200160002081905550600960009054906101000a900473ffffffffffffffffffffffffffffffffffffffff1673ffffffffffffffffffffffffffffffffffffffff16600073ffffffffffffffffffffffffffffffffffffffff1660017fdeaa91b6123d068f5821d0fb0678463d1a8a6079fe8af5de3ce5e896dcf9133d600a54604051611385919061211f565b60405180910390a4565b6000806003600084815260200190815260200160002060009054906101000a900473ffffffffffffffffffffffffffffffffffffffff169050600073ffffffffffffffffffffffffffffffffffffffff168173ffffffffffffffffffffffffffffffffffffffff1603611437576040517f08c379a000000000000000000000000000000000000000000000000000000000815260040161142e90612a29565b60405180910390fd5b80915050919050565b60008060009054906101000a900473ffffffffffffffffffffffffffffffffffffffff169050816000806101000a81548173ffffffffffffffffffffffffffffffffffffffff021916908373ffffffffffffffffffffffffffffffffffffffff1602179055508173ffffffffffffffffffffffffffffffffffffffff168173ffffffffffffffffffffffffffffffffffffffff167f8be0079c531659141344cd1fd0a4f28419497f9722a3daafe3b4186f6b6457e060405160405180910390a35050565b8173ffffffffffffffffffffffffffffffffffffffff168373ffffffffffffffffffffffffffffffffffffffff1603611572576040517f08c379a000000000000000000000000000000000000000000000000000000000815260040161156990612c25565b60405180910390fd5b80600660008573ffffffffffffffffffffffffffffffffffffffff1673ffffffffffffffffffffffffffffffffffffffff16815260200190815260200160002060008473ffffffffffffffffffffffffffffffffffffffff1673ffffffffffffffffffffffffffffffffffffffff16815260200190815260200160002060006101000a81548160ff0219169083151502179055508173ffffffffffffffffffffffffffffffffffffffff168373ffffffffffffffffffffffffffffffffffffffff167f17307eab39ab6107e8899845ad3d59bd9653f200f220920489ca2b5937696c31836040516116639190611f0f565b60405180910390a3505050565b61167b848484610fb5565b61168784848484611929565b6116c6576040517f08c379a00000000000000000000000000000000000000000000000000000000081526004016116bd90612cb7565b60405180910390fd5b50505050565b6060600b80546116db9061244d565b80601f01602080910402602001604051908101604052809291908181526020018280546117079061244d565b80156117545780601f1061172957610100808354040283529160200191611754565b820191906000526020600020905b81548152906001019060200180831161173757829003601f168201915b5050505050905090565b60606000600161176d84611aab565b01905060008167ffffffffffffffff81111561178c5761178b612230565b5b6040519080825280601f01601f1916602001820160405280156117be5781602001600182028036833780820191505090505b509050600082602001820190505b600115611821578080600190039150507f3031323334353637383961626364656600000000000000000000000000000000600a86061a8153600a858161181557611814612cd7565b5b049450600085036117cc575b819350505050919050565b60007f01ffc9a7000000000000000000000000000000000000000000000000000000007bffffffffffffffffffffffffffffffffffffffffffffffffffffffff1916827bffffffffffffffffffffffffffffffffffffffffffffffffffffffff1916149050919050565b6000600a548211156118b2576118ab82611bfe565b90506118c7565b6000821180156118c45750600a548211155b90505b919050565b6118d7838383611c6a565b8173ffffffffffffffffffffffffffffffffffffffff168373ffffffffffffffffffffffffffffffffffffffff161461191f576119148382611c6f565b61191e8282611ddc565b5b505050565b505050565b6000808473ffffffffffffffffffffffffffffffffffffffff163b1115611a9e578373ffffffffffffffffffffffffffffffffffffffff1663150b7a0261196e610e5f565b8786866040518563ffffffff1660e01b81526004016119909493929190612d5b565b6020604051808303816000875af19250505080156119cc57506040513d601f19601f820116820180604052508101906119c99190612dbc565b60015b611a4e573d80600081146119fc576040519150601f19603f3d011682016040523d82523d6000602084013e611a01565b606091505b506000815103611a46576040517f08c379a0000000000000000000000000000000000000000000000000000000008152600401611a3d90612cb7565b60405180910390fd5b805181602001fd5b63150b7a0260e01b7bffffffffffffffffffffffffffffffffffffffffffffffffffffffff1916817bffffffffffffffffffffffffffffffffffffffffffffffffffffffff191614915050611aa3565b600190505b949350505050565b600080600090507a184f03e93ff9f4daa797ed6e38ed64bf6a1f0100000000000000008310611b09577a184f03e93ff9f4daa797ed6e38ed64bf6a1f0100000000000000008381611aff57611afe612cd7565b5b0492506040810190505b6d04ee2d6d415b85acef81000000008310611b46576d04ee2d6d415b85acef81000000008381611b3c57611b3b612cd7565b5b0492506020810190505b662386f26fc100008310611b7557662386f26fc100008381611b6b57611b6a612cd7565b5b0492506010810190505b6305f5e1008310611b9e576305f5e1008381611b9457611b93612cd7565b5b0492506008810190505b6127108310611bc3576127108381611bb957611bb8612cd7565b5b0492506004810190505b60648310611be65760648381611bdc57611bdb612cd7565b5b0492506002810190505b600a8310611bf5576001810190505b80915050919050565b60008073ffffffffffffffffffffffffffffffffffffffff166003600084815260200190815260200160002060009054906101000a900473ffffffffffffffffffffffffffffffffffffffff1673ffffffffffffffffffffffffffffffffffffffff1614159050919050565b505050565b60006001611c7c846109b5565b611c86919061274b565b9050600060086000848152602001908152602001600020549050818114611d6b576000600760008673ffffffffffffffffffffffffffffffffffffffff1673ffffffffffffffffffffffffffffffffffffffff168152602001908152602001600020600084815260200190815260200160002054905080600760008773ffffffffffffffffffffffffffffffffffffffff1673ffffffffffffffffffffffffffffffffffffffff168152602001908152602001600020600084815260200190815260200160002081905550816008600083815260200190815260200160002081905550505b6008600084815260200190815260200160002060009055600760008573ffffffffffffffffffffffffffffffffffffffff1673ffffffffffffffffffffffffffffffffffffffff16815260200190815260200160002060008381526020019081526020016000206000905550505050565b6000611de7836109b5565b905081600760008573ffffffffffffffffffffffffffffffffffffffff1673ffffffffffffffffffffffffffffffffffffffff168152602001908152602001600020600083815260200190815260200160002081905550806008600084815260200190815260200160002081905550505050565b6000604051905090565b600080fd5b600080fd5b60007fffffffff0000000000000000000000000000000000000000000000000000000082169050919050565b611ea481611e6f565b8114611eaf57600080fd5b50565b600081359050611ec181611e9b565b92915050565b600060208284031215611edd57611edc611e65565b5b6000611eeb84828501611eb2565b91505092915050565b60008115159050919050565b611f0981611ef4565b82525050565b6000602082019050611f246000830184611f00565b92915050565b600081519050919050565b600082825260208201905092915050565b60005b83811015611f64578082015181840152602081019050611f49565b83811115611f73576000848401525b50505050565b6000601f19601f8301169050919050565b6000611f9582611f2a565b611f9f8185611f35565b9350611faf818560208601611f46565b611fb881611f79565b840191505092915050565b60006020820190508181036000830152611fdd8184611f8a565b905092915050565b6000819050919050565b611ff881611fe5565b811461200357600080fd5b50565b60008135905061201581611fef565b92915050565b60006020828403121561203157612030611e65565b5b600061203f84828501612006565b91505092915050565b600073ffffffffffffffffffffffffffffffffffffffff82169050919050565b600061207382612048565b9050919050565b61208381612068565b82525050565b600060208201905061209e600083018461207a565b92915050565b6120ad81612068565b81146120b857600080fd5b50565b6000813590506120ca816120a4565b92915050565b600080604083850312156120e7576120e6611e65565b5b60006120f5858286016120bb565b925050602061210685828601612006565b9150509250929050565b61211981611fe5565b82525050565b60006020820190506121346000830184612110565b92915050565b60008060006060848603121561215357612152611e65565b5b6000612161868287016120bb565b9350506020612172868287016120bb565b925050604061218386828701612006565b9150509250925092565b6000602082840312156121a3576121a2611e65565b5b60006121b1848285016120bb565b91505092915050565b6121c381611ef4565b81146121ce57600080fd5b50565b6000813590506121e0816121ba565b92915050565b600080604083850312156121fd576121fc611e65565b5b600061220b858286016120bb565b925050602061221c858286016121d1565b9150509250929050565b600080fd5b600080fd5b7f4e487b7100000000000000000000000000000000000000000000000000000000600052604160045260246000fd5b61226882611f79565b810181811067ffffffffffffffff8211171561228757612286612230565b5b80604052505050565b600061229a611e5b565b90506122a6828261225f565b919050565b600067ffffffffffffffff8211156122c6576122c5612230565b5b6122cf82611f79565b9050602081019050919050565b82818337600083830152505050565b60006122fe6122f9846122ab565b612290565b90508281526020810184848401111561231a5761231961222b565b5b6123258482856122dc565b509392505050565b600082601f83011261234257612341612226565b5b81356123528482602086016122eb565b91505092915050565b6000806000806080858703121561237557612374611e65565b5b6000612383878288016120bb565b9450506020612394878288016120bb565b93505060406123a587828801612006565b925050606085013567ffffffffffffffff8111156123c6576123c5611e6a565b5b6123d28782880161232d565b91505092959194509250565b600080604083850312156123f5576123f4611e65565b5b6000612403858286016120bb565b9250506020612414858286016120bb565b9150509250929050565b7f4e487b7100000000000000000000000000000000000000000000000000000000600052602260045260246000fd5b6000600282049050600182168061246557607f821691505b6020821081036124785761247761241e565b5b50919050565b7f4552433732313a20617070726f76616c20746f2063757272656e74206f776e6560008201527f7200000000000000000000000000000000000000000000000000000000000000602082015250565b60006124da602183611f35565b91506124e58261247e565b604082019050919050565b60006020820190508181036000830152612509816124cd565b9050919050565b7f4552433732313a20617070726f76652063616c6c6572206973206e6f7420746f60008201527f6b656e206f776e6572206e6f7220617070726f76656420666f7220616c6c0000602082015250565b600061256c603e83611f35565b915061257782612510565b604082019050919050565b6000602082019050818103600083015261259b8161255f565b9050919050565b7f4552433732313a2063616c6c6572206973206e6f7420746f6b656e206f776e6560008201527f72206e6f7220617070726f766564000000000000000000000000000000000000602082015250565b60006125fe602e83611f35565b9150612609826125a2565b604082019050919050565b6000602082019050818103600083015261262d816125f1565b9050919050565b7f455243373231456e756d657261626c653a206f776e657220696e646578206f7560008201527f74206f6620626f756e6473000000000000000000000000000000000000000000602082015250565b6000612690602b83611f35565b915061269b82612634565b604082019050919050565b600060208201905081810360008301526126bf81612683565b9050919050565b7f4e487b7100000000000000000000000000000000000000000000000000000000600052601160045260246000fd5b600061270082611fe5565b915061270b83611fe5565b9250827fffffffffffffffffffffffffffffffffffffffffffffffffffffffffffffffff038211156127405761273f6126c6565b5b828201905092915050565b600061275682611fe5565b915061276183611fe5565b925082821015612774576127736126c6565b5b828203905092915050565b600061278a82611fe5565b91507fffffffffffffffffffffffffffffffffffffffffffffffffffffffffffffffff82036127bc576127bb6126c6565b5b600182019050919050565b7f455243373231456e756d657261626c653a20676c6f62616c20696e646578206f60008201527f7574206f6620626f756e64730000000000000000000000000000000000000000602082015250565b6000612823602c83611f35565b915061282e826127c7565b604082019050919050565b6000602082019050818103600083015261285281612816565b9050919050565b7f4552433732313a2061646472657373207a65726f206973206e6f74206120766160008201527f6c6964206f776e65720000000000000000000000000000000000000000000000602082015250565b60006128b5602983611f35565b91506128c082612859565b604082019050919050565b600060208201905081810360008301526128e4816128a8565b9050919050565b600081905092915050565b600061290182611f2a565b61290b81856128eb565b935061291b818560208601611f46565b80840191505092915050565b600061293382856128f6565b915061293f82846128f6565b91508190509392505050565b7f4f776e61626c653a206e6577206f776e657220697320746865207a65726f206160008201527f6464726573730000000000000000000000000000000000000000000000000000602082015250565b60006129a7602683611f35565b91506129b28261294b565b604082019050919050565b600060208201905081810360008301526129d68161299a565b9050919050565b7f4552433732313a20696e76616c696420746f6b656e2049440000000000000000600082015250565b6000612a13601883611f35565b9150612a1e826129dd565b602082019050919050565b60006020820190508181036000830152612a4281612a06565b9050919050565b7f4552433732313a207472616e736665722066726f6d20696e636f72726563742060008201527f6f776e6572000000000000000000000000000000000000000000000000000000602082015250565b6000612aa5602583611f35565b9150612ab082612a49565b604082019050919050565b60006020820190508181036000830152612ad481612a98565b9050919050565b7f4552433732313a207472616e7366657220746f20746865207a65726f2061646460008201527f7265737300000000000000000000000000000000000000000000000000000000602082015250565b6000612b37602483611f35565b9150612b4282612adb565b604082019050919050565b60006020820190508181036000830152612b6681612b2a565b9050919050565b7f4f776e61626c653a2063616c6c6572206973206e6f7420746865206f776e6572600082015250565b6000612ba3602083611f35565b9150612bae82612b6d565b602082019050919050565b60006020820190508181036000830152612bd281612b96565b9050919050565b7f4552433732313a20617070726f766520746f2063616c6c657200000000000000600082015250565b6000612c0f601983611f35565b9150612c1a82612bd9565b602082019050919050565b60006020820190508181036000830152612c3e81612c02565b9050919050565b7f4552433732313a207472616e7366657220746f206e6f6e20455243373231526560008201527f63656976657220696d706c656d656e7465720000000000000000000000000000602082015250565b6000612ca1603283611f35565b9150612cac82612c45565b604082019050919050565b60006020820190508181036000830152612cd081612c94565b9050919050565b7f4e487b7100000000000000000000000000000000000000000000000000000000600052601260045260246000fd5b600081519050919050565b600082825260208201905092915050565b6000612d2d82612d06565b612d378185612d11565b9350612d47818560208601611f46565b612d5081611f79565b840191505092915050565b6000608082019050612d70600083018761207a565b612d7d602083018661207a565b612d8a6040830185612110565b8181036060830152612d9c8184612d22565b905095945050505050565b600081519050612db681611e9b565b92915050565b600060208284031215612dd257612dd1611e65565b5b6000612de084828501612da7565b9150509291505056fea2646970667358221220fcb81485c4692ebd4c34ce354160c2d7a4d81f043b0119d7598ef92d8ffc50d564736f6c634300080d0033",
  "linkReferences": {},
  "deployedLinkReferences": {}
}