{
  "_format": "hh-sol-artifact-1",
  "contractName": "ERC721i",
  "sourceName": "contracts/ERC721i.sol",
  "abi": [
    {
      "inputs": [
        {
          "internalType": "string",
          "name": "name",
          "type": "string"
        },
        {
          "internalType": "string",
          "name": "symbol",
          "type": "string"
        },
        {
          "internalType": "string",
          "name": "baseUri",
          "type": "string"
        },
        {
          "internalType": "address",
          "name": "minter",
          "type": "address"
        },
        {
          "internalType": "uint256",
          "name": "maxSupply",
          "type": "uint256"
        }
      ],
      "stateMutability": "nonpayable",
      "type": "constructor"
    },
    {
      "anonymous": false,
      "inputs": [
        {
          "indexed": true,
          "internalType": "address",
          "name": "owner",
          "type": "address"
        },
        {
          "indexed": true,
          "internalType": "address",
          "name": "approved",
          "type": "address"
        },
        {
          "indexed": true,
          "internalType": "uint256",
          "name": "tokenId",
          "type": "uint256"
        }
      ],
      "name": "Approval",
      "type": "event"
    },
    {
      "anonymous": false,
      "inputs": [
        {
          "indexed": true,
          "internalType": "address",
          "name": "owner",
          "type": "address"
        },
        {
          "indexed": true,
          "internalType": "address",
          "name": "operator",
          "type": "address"
        },
        {
          "indexed": false,
          "internalType": "bool",
          "name": "approved",
          "type": "bool"
        }
      ],
      "name": "ApprovalForAll",
      "type": "event"
    },
    {
      "anonymous": false,
      "inputs": [
        {
          "indexed": true,
          "internalType": "uint256",
          "name": "fromTokenId",
          "type": "uint256"
        },
        {
          "indexed": false,
          "internalType": "uint256",
          "name": "toTokenId",
          "type": "uint256"
        },
        {
          "indexed": true,
          "internalType": "address",
          "name": "fromAddress",
          "type": "address"
        },
        {
          "indexed": true,
          "internalType": "address",
          "name": "toAddress",
          "type": "address"
        }
      ],
      "name": "ConsecutiveTransfer",
      "type": "event"
    },
    {
      "anonymous": false,
      "inputs": [
        {
          "indexed": true,
          "internalType": "address",
          "name": "previousOwner",
          "type": "address"
        },
        {
          "indexed": true,
          "internalType": "address",
          "name": "newOwner",
          "type": "address"
        }
      ],
      "name": "OwnershipTransferred",
      "type": "event"
    },
    {
      "anonymous": false,
      "inputs": [
        {
          "indexed": true,
          "internalType": "address",
          "name": "from",
          "type": "address"
        },
        {
          "indexed": true,
          "internalType": "address",
          "name": "to",
          "type": "address"
        },
        {
          "indexed": true,
          "internalType": "uint256",
          "name": "tokenId",
          "type": "uint256"
        }
      ],
      "name": "Transfer",
      "type": "event"
    },
    {
      "inputs": [
        {
          "internalType": "address",
          "name": "to",
          "type": "address"
        },
        {
          "internalType": "uint256",
          "name": "tokenId",
          "type": "uint256"
        }
      ],
      "name": "approve",
      "outputs": [],
      "stateMutability": "nonpayable",
      "type": "function"
    },
    {
      "inputs": [
        {
          "internalType": "address",
          "name": "owner",
          "type": "address"
        }
      ],
      "name": "balanceOf",
      "outputs": [
        {
          "internalType": "uint256",
          "name": "",
          "type": "uint256"
        }
      ],
      "stateMutability": "view",
      "type": "function"
    },
    {
      "inputs": [
        {
          "internalType": "uint256",
          "name": "tokenId",
          "type": "uint256"
        }
      ],
      "name": "getApproved",
      "outputs": [
        {
          "internalType": "address",
          "name": "",
          "type": "address"
        }
      ],
      "stateMutability": "view",
      "type": "function"
    },
    {
      "inputs": [
        {
          "internalType": "address",
          "name": "owner",
          "type": "address"
        },
        {
          "internalType": "address",
          "name": "operator",
          "type": "address"
        }
      ],
      "name": "isApprovedForAll",
      "outputs": [
        {
          "internalType": "bool",
          "name": "",
          "type": "bool"
        }
      ],
      "stateMutability": "view",
      "type": "function"
    },
    {
      "inputs": [],
      "name": "name",
      "outputs": [
        {
          "internalType": "string",
          "name": "",
          "type": "string"
        }
      ],
      "stateMutability": "view",
      "type": "function"
    },
    {
      "inputs": [],
      "name": "owner",
      "outputs": [
        {
          "internalType": "address",
          "name": "",
          "type": "address"
        }
      ],
      "stateMutability": "view",
      "type": "function"
    },
    {
      "inputs": [
        {
          "internalType": "uint256",
          "name": "tokenId",
          "type": "uint256"
        }
      ],
      "name": "ownerOf",
      "outputs": [
        {
          "internalType": "address",
          "name": "",
          "type": "address"
        }
      ],
      "stateMutability": "view",
      "type": "function"
    },
    {
      "inputs": [],
      "name": "preMint",
      "outputs": [],
      "stateMutability": "nonpayable",
      "type": "function"
    },
    {
      "inputs": [],
      "name": "renounceOwnership",
      "outputs": [],
      "stateMutability": "nonpayable",
      "type": "function"
    },
    {
      "inputs": [
        {
          "internalType": "address",
          "name": "from",
          "type": "address"
        },
        {
          "internalType": "address",
          "name": "to",
          "type": "address"
        },
        {
          "internalType": "uint256",
          "name": "tokenId",
          "type": "uint256"
        }
      ],
      "name": "safeTransferFrom",
      "outputs": [],
      "stateMutability": "nonpayable",
      "type": "function"
    },
    {
      "inputs": [
        {
          "internalType": "address",
          "name": "from",
          "type": "address"
        },
        {
          "internalType": "address",
          "name": "to",
          "type": "address"
        },
        {
          "internalType": "uint256",
          "name": "tokenId",
          "type": "uint256"
        },
        {
          "internalType": "bytes",
          "name": "data",
          "type": "bytes"
        }
      ],
      "name": "safeTransferFrom",
      "outputs": [],
      "stateMutability": "nonpayable",
      "type": "function"
    },
    {
      "inputs": [
        {
          "internalType": "address",
          "name": "operator",
          "type": "address"
        },
        {
          "internalType": "bool",
          "name": "approved",
          "type": "bool"
        }
      ],
      "name": "setApprovalForAll",
      "outputs": [],
      "stateMutability": "nonpayable",
      "type": "function"
    },
    {
      "inputs": [
        {
          "internalType": "bytes4",
          "name": "interfaceId",
          "type": "bytes4"
        }
      ],
      "name": "supportsInterface",
      "outputs": [
        {
          "internalType": "bool",
          "name": "",
          "type": "bool"
        }
      ],
      "stateMutability": "view",
      "type": "function"
    },
    {
      "inputs": [],
      "name": "symbol",
      "outputs": [
        {
          "internalType": "string",
          "name": "",
          "type": "string"
        }
      ],
      "stateMutability": "view",
      "type": "function"
    },
    {
      "inputs": [
        {
          "internalType": "uint256",
          "name": "index",
          "type": "uint256"
        }
      ],
      "name": "tokenByIndex",
      "outputs": [
        {
          "internalType": "uint256",
          "name": "",
          "type": "uint256"
        }
      ],
      "stateMutability": "view",
      "type": "function"
    },
    {
      "inputs": [
        {
          "internalType": "address",
          "name": "owner",
          "type": "address"
        },
        {
          "internalType": "uint256",
          "name": "index",
          "type": "uint256"
        }
      ],
      "name": "tokenOfOwnerByIndex",
      "outputs": [
        {
          "internalType": "uint256",
          "name": "",
          "type": "uint256"
        }
      ],
      "stateMutability": "view",
      "type": "function"
    },
    {
      "inputs": [
        {
          "internalType": "uint256",
          "name": "tokenId",
          "type": "uint256"
        }
      ],
      "name": "tokenURI",
      "outputs": [
        {
          "internalType": "string",
          "name": "",
          "type": "string"
        }
      ],
      "stateMutability": "view",
      "type": "function"
    },
    {
      "inputs": [],
      "name": "totalSupply",
      "outputs": [
        {
          "internalType": "uint256",
          "name": "",
          "type": "uint256"
        }
      ],
      "stateMutability": "view",
      "type": "function"
    },
    {
      "inputs": [
        {
          "internalType": "address",
          "name": "from",
          "type": "address"
        },
        {
          "internalType": "address",
          "name": "to",
          "type": "address"
        },
        {
          "internalType": "uint256",
          "name": "tokenId",
          "type": "uint256"
        }
      ],
      "name": "transferFrom",
      "outputs": [],
      "stateMutability": "nonpayable",
      "type": "function"
    },
    {
      "inputs": [
        {
          "internalType": "address",
          "name": "newOwner",
          "type": "address"
        }
      ],
      "name": "transferOwnership",
      "outputs": [],
      "stateMutability": "nonpayable",
      "type": "function"
    }
  ],
  "bytecode": "0x60806040523480156200001157600080fd5b506040516200189738038062001897833981016040819052620000349162000275565b84846200004133620000b2565b81516200005690600190602085019062000102565b5080516200006c90600290602084019062000102565b50508351620000849150600b90602086019062000102565b50600a55600980546001600160a01b0319166001600160a01b03929092169190911790555062000370915050565b600080546001600160a01b038381166001600160a01b0319831681178455604051919092169283917f8be0079c531659141344cd1fd0a4f28419497f9722a3daafe3b4186f6b6457e09190a35050565b828054620001109062000334565b90600052602060002090601f0160209004810192826200013457600085556200017f565b82601f106200014f57805160ff19168380011785556200017f565b828001600101855582156200017f579182015b828111156200017f57825182559160200191906001019062000162565b506200018d92915062000191565b5090565b5b808211156200018d576000815560010162000192565b634e487b7160e01b600052604160045260246000fd5b600082601f830112620001d057600080fd5b81516001600160401b0380821115620001ed57620001ed620001a8565b604051601f8301601f19908116603f01168101908282118183101715620002185762000218620001a8565b816040528381526020925086838588010111156200023557600080fd5b600091505b838210156200025957858201830151818301840152908201906200023a565b838211156200026b5760008385830101525b9695505050505050565b600080600080600060a086880312156200028e57600080fd5b85516001600160401b0380821115620002a657600080fd5b620002b489838a01620001be565b96506020880151915080821115620002cb57600080fd5b620002d989838a01620001be565b95506040880151915080821115620002f057600080fd5b50620002ff88828901620001be565b606088015190945090506001600160a01b03811681146200031f57600080fd5b80925050608086015190509295509295909350565b600181811c908216806200034957607f821691505b6020821081036200036a57634e487b7160e01b600052602260045260246000fd5b50919050565b61151780620003806000396000f3fe608060405234801561001057600080fd5b506004361061012c5760003560e01c80636352211e116100ad578063a22cb46511610071578063a22cb4651461025b578063b88d4fde1461026e578063c87b56dd14610281578063e985e9c514610294578063f2fde38b146102d057600080fd5b80636352211e1461021457806370a0823114610227578063715018a61461023a5780638da5cb5b1461024257806395d89b411461025357600080fd5b806323b872dd116100f457806323b872dd146101c05780632f745c59146101d35780633cd29ac8146101e657806342842e0e146101ee5780634f6ccce71461020157600080fd5b806301ffc9a71461013157806306fdde0314610159578063081812fc1461016e578063095ea7b31461019957806318160ddd146101ae575b600080fd5b61014461013f3660046110b4565b6102e3565b60405190151581526020015b60405180910390f35b61016161030e565b6040516101509190611125565b61018161017c366004611138565b6103a0565b6040516001600160a01b039091168152602001610150565b6101ac6101a736600461116d565b6103c7565b005b600a545b604051908152602001610150565b6101ac6101ce366004611197565b6104e1565b6101b26101e136600461116d565b610512565b6101ac610639565b6101ac6101fc366004611197565b61064b565b6101b261020f366004611138565b610666565b610181610222366004611138565b6106d9565b6101b26102353660046111d3565b61071e565b6101ac6107a4565b6000546001600160a01b0316610181565b6101616107b6565b6101ac6102693660046111ee565b6107c5565b6101ac61027c366004611240565b6107d4565b61016161028f366004611138565b61080c565b6101446102a236600461131c565b6001600160a01b03918216600090815260066020908152604080832093909416825291909152205460ff1690565b6101ac6102de3660046111d3565b61081f565b60006001600160e01b0319821663780e9d6360e01b1480610308575061030882610898565b92915050565b60606001805461031d9061134f565b80601f01602080910402602001604051908101604052809291908181526020018280546103499061134f565b80156103965780601f1061036b57610100808354040283529160200191610396565b820191906000526020600020905b81548152906001019060200180831161037957829003601f168201915b5050505050905090565b60006103ab826108e8565b506000908152600560205260409020546001600160a01b031690565b60006103d2826106d9565b9050806001600160a01b0316836001600160a01b0316036104445760405162461bcd60e51b815260206004820152602160248201527f4552433732313a20617070726f76616c20746f2063757272656e74206f776e656044820152603960f91b60648201526084015b60405180910390fd5b336001600160a01b0382161480610460575061046081336102a2565b6104d25760405162461bcd60e51b815260206004820152603e60248201527f4552433732313a20617070726f76652063616c6c6572206973206e6f7420746f60448201527f6b656e206f776e6572206e6f7220617070726f76656420666f7220616c6c0000606482015260840161043b565b6104dc8383610938565b505050565b6104eb33826109a6565b6105075760405162461bcd60e51b815260040161043b90611389565b6104dc838383610a25565b600061051d8361071e565b821061057f5760405162461bcd60e51b815260206004820152602b60248201527f455243373231456e756d657261626c653a206f776e657220696e646578206f7560448201526a74206f6620626f756e647360a81b606482015260840161043b565b6009546001600160a01b03908116908416036106105760006105a0600a5490565b9050600060015b8281101561060c576009546001600160a01b03166105c4826106d9565b6001600160a01b0316036105fa576105dd6001836113ed565b9150846105eb600184611405565b036105fa579250610308915050565b806106048161141c565b9150506105a7565b5050505b506001600160a01b03919091166000908152600760209081526040808320938352929052205490565b610641610bcc565b610649610c26565b565b6104dc838383604051806020016040528060008152506107d4565b6000600a5482106106ce5760405162461bcd60e51b815260206004820152602c60248201527f455243373231456e756d657261626c653a20676c6f62616c20696e646578206f60448201526b7574206f6620626f756e647360a01b606482015260840161043b565b6103088260016113ed565b6000600a548211156106ee5761030882610c90565b6000828152600360205260409020546001600160a01b03168061030857506009546001600160a01b031692915050565b60006001600160a01b0382166107885760405162461bcd60e51b815260206004820152602960248201527f4552433732313a2061646472657373207a65726f206973206e6f7420612076616044820152683634b21037bbb732b960b91b606482015260840161043b565b506001600160a01b031660009081526004602052604090205490565b6107ac610bcc565b6106496000610cf0565b60606002805461031d9061134f565b6107d0338383610d40565b5050565b6107de33836109a6565b6107fa5760405162461bcd60e51b815260040161043b90611389565b61080684848484610e0e565b50505050565b6060610817826108e8565b610308610e41565b610827610bcc565b6001600160a01b03811661088c5760405162461bcd60e51b815260206004820152602660248201527f4f776e61626c653a206e6577206f776e657220697320746865207a65726f206160448201526564647265737360d01b606482015260840161043b565b61089581610cf0565b50565b60006001600160e01b031982166380ac58cd60e01b14806108c957506001600160e01b03198216635b5e139f60e01b145b8061030857506301ffc9a760e01b6001600160e01b0319831614610308565b6108f181610e50565b6108955760405162461bcd60e51b8152602060048201526018602482015277115490cdcc8c4e881a5b9d985b1a59081d1bdad95b88125160421b604482015260640161043b565b600081815260056020526040902080546001600160a01b0319166001600160a01b038416908117909155819061096d826106d9565b6001600160a01b03167f8c5be1e5ebec7d5bd14f71427d1e84f3dd0314c0f7b2291e5b200ac8c7c3b92560405160405180910390a45050565b6000806109b2836106d9565b9050806001600160a01b0316846001600160a01b031614806109f957506001600160a01b0380821660009081526006602090815260408083209388168352929052205460ff165b80610a1d5750836001600160a01b0316610a12846103a0565b6001600160a01b0316145b949350505050565b826001600160a01b0316610a38826106d9565b6001600160a01b031614610a9c5760405162461bcd60e51b815260206004820152602560248201527f4552433732313a207472616e736665722066726f6d20696e636f72726563742060448201526437bbb732b960d91b606482015260840161043b565b6001600160a01b038216610afe5760405162461bcd60e51b8152602060048201526024808201527f4552433732313a207472616e7366657220746f20746865207a65726f206164646044820152637265737360e01b606482015260840161043b565b610b09838383610e8f565b610b14600082610938565b6001600160a01b0383166000908152600460205260408120805460019290610b3d908490611405565b90915550506001600160a01b0382166000908152600460205260408120805460019290610b6b9084906113ed565b909155505060008181526003602052604080822080546001600160a01b0319166001600160a01b0386811691821790925591518493918716917fddf252ad1be2c89b69c2b068fc378daa952ba7f163c4a11628f55a4df523b3ef91a4505050565b6000546001600160a01b031633146106495760405162461bcd60e51b815260206004820181905260248201527f4f776e61626c653a2063616c6c6572206973206e6f7420746865206f776e6572604482015260640161043b565b600a54600980546001600160a01b0390811660009081526004602052604080822085905592549251929091169290916001917fdeaa91b6123d068f5821d0fb0678463d1a8a6079fe8af5de3ce5e896dcf9133d91610c8691815260200190565b60405180910390a4565b6000818152600360205260408120546001600160a01b0316806103085760405162461bcd60e51b8152602060048201526018602482015277115490cdcc8c4e881a5b9d985b1a59081d1bdad95b88125160421b604482015260640161043b565b600080546001600160a01b038381166001600160a01b0319831681178455604051919092169283917f8be0079c531659141344cd1fd0a4f28419497f9722a3daafe3b4186f6b6457e09190a35050565b816001600160a01b0316836001600160a01b031603610da15760405162461bcd60e51b815260206004820152601960248201527f4552433732313a20617070726f766520746f2063616c6c657200000000000000604482015260640161043b565b6001600160a01b03838116600081815260066020908152604080832094871680845294825291829020805460ff191686151590811790915591519182527f17307eab39ab6107e8899845ad3d59bd9653f200f220920489ca2b5937696c31910160405180910390a3505050565b610e19848484610a25565b610e2584848484610ebc565b6108065760405162461bcd60e51b815260040161043b90611435565b6060600b805461031d9061134f565b6000600a54821115610e7b576000828152600360205260409020546001600160a01b03161515610308565b600082118015610308575050600a54101590565b816001600160a01b0316836001600160a01b0316146104dc57610eb28382610fbd565b6104dc828261105a565b60006001600160a01b0384163b15610fb257604051630a85bd0160e11b81526001600160a01b0385169063150b7a0290610f00903390899088908890600401611487565b6020604051808303816000875af1925050508015610f3b575060408051601f3d908101601f19168201909252610f38918101906114c4565b60015b610f98573d808015610f69576040519150601f19603f3d011682016040523d82523d6000602084013e610f6e565b606091505b508051600003610f905760405162461bcd60e51b815260040161043b90611435565b805181602001fd5b6001600160e01b031916630a85bd0160e11b149050610a1d565b506001949350505050565b60006001610fca8461071e565b610fd49190611405565b600083815260086020526040902054909150808214611027576001600160a01b03841660009081526007602090815260408083208584528252808320548484528184208190558352600890915290208190555b5060009182526008602090815260408084208490556001600160a01b039094168352600781528383209183525290812055565b60006110658361071e565b6001600160a01b039093166000908152600760209081526040808320868452825280832085905593825260089052919091209190915550565b6001600160e01b03198116811461089557600080fd5b6000602082840312156110c657600080fd5b81356110d18161109e565b9392505050565b6000815180845260005b818110156110fe576020818501810151868301820152016110e2565b81811115611110576000602083870101525b50601f01601f19169290920160200192915050565b6020815260006110d160208301846110d8565b60006020828403121561114a57600080fd5b5035919050565b80356001600160a01b038116811461116857600080fd5b919050565b6000806040838503121561118057600080fd5b61118983611151565b946020939093013593505050565b6000806000606084860312156111ac57600080fd5b6111b584611151565b92506111c360208501611151565b9150604084013590509250925092565b6000602082840312156111e557600080fd5b6110d182611151565b6000806040838503121561120157600080fd5b61120a83611151565b91506020830135801515811461121f57600080fd5b809150509250929050565b634e487b7160e01b600052604160045260246000fd5b6000806000806080858703121561125657600080fd5b61125f85611151565b935061126d60208601611151565b925060408501359150606085013567ffffffffffffffff8082111561129157600080fd5b818701915087601f8301126112a557600080fd5b8135818111156112b7576112b761122a565b604051601f8201601f19908116603f011681019083821181831017156112df576112df61122a565b816040528281528a60208487010111156112f857600080fd5b82602086016020830137600060208483010152809550505050505092959194509250565b6000806040838503121561132f57600080fd5b61133883611151565b915061134660208401611151565b90509250929050565b600181811c9082168061136357607f821691505b60208210810361138357634e487b7160e01b600052602260045260246000fd5b50919050565b6020808252602e908201527f4552433732313a2063616c6c6572206973206e6f7420746f6b656e206f776e6560408201526d1c881b9bdc88185c1c1c9bdd995960921b606082015260800190565b634e487b7160e01b600052601160045260246000fd5b60008219821115611400576114006113d7565b500190565b600082821015611417576114176113d7565b500390565b60006001820161142e5761142e6113d7565b5060010190565b60208082526032908201527f4552433732313a207472616e7366657220746f206e6f6e20455243373231526560408201527131b2b4bb32b91034b6b83632b6b2b73a32b960711b606082015260800190565b6001600160a01b03858116825284166020820152604081018390526080606082018190526000906114ba908301846110d8565b9695505050505050565b6000602082840312156114d657600080fd5b81516110d18161109e56fea264697066735822122017f827a8c1d025bcc57d8e9f650c2eb969a77a0bd3192d2a907918594d41d78e64736f6c634300080d0033",
  "linkReferences": {},
  "deployedLinkReferences": {}
}