{
  "_format": "hh-sol-artifact-1",
  "contractName": "ERC721i",
  "sourceName": "contracts/ERC721i.sol",
  "abi": [
    {
      "inputs": [
        {
          "internalType": "string",
          "name": "name",
          "type": "string"
        },
        {
          "internalType": "string",
          "name": "symbol",
          "type": "string"
        },
        {
          "internalType": "address",
          "name": "minter",
          "type": "address"
        },
        {
          "internalType": "uint256",
          "name": "maxSupply",
          "type": "uint256"
        }
      ],
      "stateMutability": "nonpayable",
      "type": "constructor"
    },
    {
      "anonymous": false,
      "inputs": [
        {
          "indexed": true,
          "internalType": "address",
          "name": "owner",
          "type": "address"
        },
        {
          "indexed": true,
          "internalType": "address",
          "name": "approved",
          "type": "address"
        },
        {
          "indexed": true,
          "internalType": "uint256",
          "name": "tokenId",
          "type": "uint256"
        }
      ],
      "name": "Approval",
      "type": "event"
    },
    {
      "anonymous": false,
      "inputs": [
        {
          "indexed": true,
          "internalType": "address",
          "name": "owner",
          "type": "address"
        },
        {
          "indexed": true,
          "internalType": "address",
          "name": "operator",
          "type": "address"
        },
        {
          "indexed": false,
          "internalType": "bool",
          "name": "approved",
          "type": "bool"
        }
      ],
      "name": "ApprovalForAll",
      "type": "event"
    },
    {
      "anonymous": false,
      "inputs": [
        {
          "indexed": true,
          "internalType": "uint256",
          "name": "fromTokenId",
          "type": "uint256"
        },
        {
          "indexed": false,
          "internalType": "uint256",
          "name": "toTokenId",
          "type": "uint256"
        },
        {
          "indexed": true,
          "internalType": "address",
          "name": "fromAddress",
          "type": "address"
        },
        {
          "indexed": true,
          "internalType": "address",
          "name": "toAddress",
          "type": "address"
        }
      ],
      "name": "ConsecutiveTransfer",
      "type": "event"
    },
    {
      "anonymous": false,
      "inputs": [
        {
          "indexed": true,
          "internalType": "address",
          "name": "previousOwner",
          "type": "address"
        },
        {
          "indexed": true,
          "internalType": "address",
          "name": "newOwner",
          "type": "address"
        }
      ],
      "name": "OwnershipTransferred",
      "type": "event"
    },
    {
      "anonymous": false,
      "inputs": [
        {
          "indexed": true,
          "internalType": "address",
          "name": "from",
          "type": "address"
        },
        {
          "indexed": true,
          "internalType": "address",
          "name": "to",
          "type": "address"
        },
        {
          "indexed": true,
          "internalType": "uint256",
          "name": "tokenId",
          "type": "uint256"
        }
      ],
      "name": "Transfer",
      "type": "event"
    },
    {
      "inputs": [
        {
          "internalType": "address",
          "name": "to",
          "type": "address"
        },
        {
          "internalType": "uint256",
          "name": "tokenId",
          "type": "uint256"
        }
      ],
      "name": "approve",
      "outputs": [],
      "stateMutability": "nonpayable",
      "type": "function"
    },
    {
      "inputs": [
        {
          "internalType": "address",
          "name": "owner",
          "type": "address"
        }
      ],
      "name": "balanceOf",
      "outputs": [
        {
          "internalType": "uint256",
          "name": "",
          "type": "uint256"
        }
      ],
      "stateMutability": "view",
      "type": "function"
    },
    {
      "inputs": [
        {
          "internalType": "uint256",
          "name": "tokenId",
          "type": "uint256"
        }
      ],
      "name": "getApproved",
      "outputs": [
        {
          "internalType": "address",
          "name": "",
          "type": "address"
        }
      ],
      "stateMutability": "view",
      "type": "function"
    },
    {
      "inputs": [
        {
          "internalType": "address",
          "name": "owner",
          "type": "address"
        },
        {
          "internalType": "address",
          "name": "operator",
          "type": "address"
        }
      ],
      "name": "isApprovedForAll",
      "outputs": [
        {
          "internalType": "bool",
          "name": "",
          "type": "bool"
        }
      ],
      "stateMutability": "view",
      "type": "function"
    },
    {
      "inputs": [],
      "name": "name",
      "outputs": [
        {
          "internalType": "string",
          "name": "",
          "type": "string"
        }
      ],
      "stateMutability": "view",
      "type": "function"
    },
    {
      "inputs": [],
      "name": "owner",
      "outputs": [
        {
          "internalType": "address",
          "name": "",
          "type": "address"
        }
      ],
      "stateMutability": "view",
      "type": "function"
    },
    {
      "inputs": [
        {
          "internalType": "uint256",
          "name": "tokenId",
          "type": "uint256"
        }
      ],
      "name": "ownerOf",
      "outputs": [
        {
          "internalType": "address",
          "name": "",
          "type": "address"
        }
      ],
      "stateMutability": "view",
      "type": "function"
    },
    {
      "inputs": [],
      "name": "renounceOwnership",
      "outputs": [],
      "stateMutability": "nonpayable",
      "type": "function"
    },
    {
      "inputs": [
        {
          "internalType": "address",
          "name": "from",
          "type": "address"
        },
        {
          "internalType": "address",
          "name": "to",
          "type": "address"
        },
        {
          "internalType": "uint256",
          "name": "tokenId",
          "type": "uint256"
        }
      ],
      "name": "safeTransferFrom",
      "outputs": [],
      "stateMutability": "nonpayable",
      "type": "function"
    },
    {
      "inputs": [
        {
          "internalType": "address",
          "name": "from",
          "type": "address"
        },
        {
          "internalType": "address",
          "name": "to",
          "type": "address"
        },
        {
          "internalType": "uint256",
          "name": "tokenId",
          "type": "uint256"
        },
        {
          "internalType": "bytes",
          "name": "data",
          "type": "bytes"
        }
      ],
      "name": "safeTransferFrom",
      "outputs": [],
      "stateMutability": "nonpayable",
      "type": "function"
    },
    {
      "inputs": [
        {
          "internalType": "address",
          "name": "operator",
          "type": "address"
        },
        {
          "internalType": "bool",
          "name": "approved",
          "type": "bool"
        }
      ],
      "name": "setApprovalForAll",
      "outputs": [],
      "stateMutability": "nonpayable",
      "type": "function"
    },
    {
      "inputs": [
        {
          "internalType": "bytes4",
          "name": "interfaceId",
          "type": "bytes4"
        }
      ],
      "name": "supportsInterface",
      "outputs": [
        {
          "internalType": "bool",
          "name": "",
          "type": "bool"
        }
      ],
      "stateMutability": "view",
      "type": "function"
    },
    {
      "inputs": [],
      "name": "symbol",
      "outputs": [
        {
          "internalType": "string",
          "name": "",
          "type": "string"
        }
      ],
      "stateMutability": "view",
      "type": "function"
    },
    {
      "inputs": [
        {
          "internalType": "uint256",
          "name": "index",
          "type": "uint256"
        }
      ],
      "name": "tokenByIndex",
      "outputs": [
        {
          "internalType": "uint256",
          "name": "",
          "type": "uint256"
        }
      ],
      "stateMutability": "view",
      "type": "function"
    },
    {
      "inputs": [
        {
          "internalType": "address",
          "name": "owner",
          "type": "address"
        },
        {
          "internalType": "uint256",
          "name": "index",
          "type": "uint256"
        }
      ],
      "name": "tokenOfOwnerByIndex",
      "outputs": [
        {
          "internalType": "uint256",
          "name": "",
          "type": "uint256"
        }
      ],
      "stateMutability": "view",
      "type": "function"
    },
    {
      "inputs": [
        {
          "internalType": "uint256",
          "name": "tokenId",
          "type": "uint256"
        }
      ],
      "name": "tokenURI",
      "outputs": [
        {
          "internalType": "string",
          "name": "",
          "type": "string"
        }
      ],
      "stateMutability": "view",
      "type": "function"
    },
    {
      "inputs": [],
      "name": "totalSupply",
      "outputs": [
        {
          "internalType": "uint256",
          "name": "",
          "type": "uint256"
        }
      ],
      "stateMutability": "view",
      "type": "function"
    },
    {
      "inputs": [
        {
          "internalType": "address",
          "name": "from",
          "type": "address"
        },
        {
          "internalType": "address",
          "name": "to",
          "type": "address"
        },
        {
          "internalType": "uint256",
          "name": "tokenId",
          "type": "uint256"
        }
      ],
      "name": "transferFrom",
      "outputs": [],
      "stateMutability": "nonpayable",
      "type": "function"
    },
    {
      "inputs": [
        {
          "internalType": "address",
          "name": "newOwner",
          "type": "address"
        }
      ],
      "name": "transferOwnership",
      "outputs": [],
      "stateMutability": "nonpayable",
      "type": "function"
    }
  ],
  "bytecode": "0x60806040523480156200001157600080fd5b506040516200324338038062003243833981810160405281019062000037919062000498565b8383620000596200004d620000df60201b60201c565b620000e760201b60201c565b816001908051906020019062000071929190620001ab565b5080600290805190602001906200008a929190620001ab565b50505080600a8190555081600960006101000a81548173ffffffffffffffffffffffffffffffffffffffff021916908373ffffffffffffffffffffffffffffffffffffffff16021790555050505050620005ac565b600033905090565b60008060009054906101000a900473ffffffffffffffffffffffffffffffffffffffff169050816000806101000a81548173ffffffffffffffffffffffffffffffffffffffff021916908373ffffffffffffffffffffffffffffffffffffffff1602179055508173ffffffffffffffffffffffffffffffffffffffff168173ffffffffffffffffffffffffffffffffffffffff167f8be0079c531659141344cd1fd0a4f28419497f9722a3daafe3b4186f6b6457e060405160405180910390a35050565b828054620001b99062000577565b90600052602060002090601f016020900481019282620001dd576000855562000229565b82601f10620001f857805160ff191683800117855562000229565b8280016001018555821562000229579182015b82811115620002285782518255916020019190600101906200020b565b5b5090506200023891906200023c565b5090565b5b80821115620002575760008160009055506001016200023d565b5090565b6000604051905090565b600080fd5b600080fd5b600080fd5b600080fd5b6000601f19601f8301169050919050565b7f4e487b7100000000000000000000000000000000000000000000000000000000600052604160045260246000fd5b620002c48262000279565b810181811067ffffffffffffffff82111715620002e657620002e56200028a565b5b80604052505050565b6000620002fb6200025b565b9050620003098282620002b9565b919050565b600067ffffffffffffffff8211156200032c576200032b6200028a565b5b620003378262000279565b9050602081019050919050565b60005b838110156200036457808201518184015260208101905062000347565b8381111562000374576000848401525b50505050565b6000620003916200038b846200030e565b620002ef565b905082815260208101848484011115620003b057620003af62000274565b5b620003bd84828562000344565b509392505050565b600082601f830112620003dd57620003dc6200026f565b5b8151620003ef8482602086016200037a565b91505092915050565b600073ffffffffffffffffffffffffffffffffffffffff82169050919050565b60006200042582620003f8565b9050919050565b620004378162000418565b81146200044357600080fd5b50565b60008151905062000457816200042c565b92915050565b6000819050919050565b62000472816200045d565b81146200047e57600080fd5b50565b600081519050620004928162000467565b92915050565b60008060008060808587031215620004b557620004b462000265565b5b600085015167ffffffffffffffff811115620004d657620004d56200026a565b5b620004e487828801620003c5565b945050602085015167ffffffffffffffff8111156200050857620005076200026a565b5b6200051687828801620003c5565b9350506040620005298782880162000446565b92505060606200053c8782880162000481565b91505092959194509250565b7f4e487b7100000000000000000000000000000000000000000000000000000000600052602260045260246000fd5b600060028204905060018216806200059057607f821691505b602082108103620005a657620005a562000548565b5b50919050565b612c8780620005bc6000396000f3fe608060405234801561001057600080fd5b50600436106101215760003560e01c80636352211e116100ad578063a22cb46511610071578063a22cb4651461031c578063b88d4fde14610338578063c87b56dd14610354578063e985e9c514610384578063f2fde38b146103b457610121565b80636352211e1461027657806370a08231146102a6578063715018a6146102d65780638da5cb5b146102e057806395d89b41146102fe57610121565b806318160ddd116100f457806318160ddd146101c057806323b872dd146101de5780632f745c59146101fa57806342842e0e1461022a5780634f6ccce71461024657610121565b806301ffc9a71461012657806306fdde0314610156578063081812fc14610174578063095ea7b3146101a4575b600080fd5b610140600480360381019061013b9190611d2f565b6103d0565b60405161014d9190611d77565b60405180910390f35b61015e61044a565b60405161016b9190611e2b565b60405180910390f35b61018e60048036038101906101899190611e83565b6104dc565b60405161019b9190611ef1565b60405180910390f35b6101be60048036038101906101b99190611f38565b610522565b005b6101c8610639565b6040516101d59190611f87565b60405180910390f35b6101f860048036038101906101f39190611fa2565b610643565b005b610214600480360381019061020f9190611f38565b6106a3565b6040516102219190611f87565b60405180910390f35b610244600480360381019061023f9190611fa2565b61085c565b005b610260600480360381019061025b9190611e83565b61087c565b60405161026d9190611f87565b60405180910390f35b610290600480360381019061028b9190611e83565b6108d6565b60405161029d9190611ef1565b60405180910390f35b6102c060048036038101906102bb9190611ff5565b61098e565b6040516102cd9190611f87565b60405180910390f35b6102de610a45565b005b6102e8610a59565b6040516102f59190611ef1565b60405180910390f35b610306610a82565b6040516103139190611e2b565b60405180910390f35b6103366004803603810190610331919061204e565b610b14565b005b610352600480360381019061034d91906121c3565b610b2a565b005b61036e60048036038101906103699190611e83565b610b8c565b60405161037b9190611e2b565b60405180910390f35b61039e60048036038101906103999190612246565b610bf4565b6040516103ab9190611d77565b60405180910390f35b6103ce60048036038101906103c99190611ff5565b610c88565b005b60007f780e9d63000000000000000000000000000000000000000000000000000000007bffffffffffffffffffffffffffffffffffffffffffffffffffffffff1916827bffffffffffffffffffffffffffffffffffffffffffffffffffffffff19161480610443575061044282610d0b565b5b9050919050565b606060018054610459906122b5565b80601f0160208091040260200160405190810160405280929190818152602001828054610485906122b5565b80156104d25780601f106104a7576101008083540402835291602001916104d2565b820191906000526020600020905b8154815290600101906020018083116104b557829003601f168201915b5050505050905090565b60006104e782610ded565b6005600083815260200190815260200160002060009054906101000a900473ffffffffffffffffffffffffffffffffffffffff169050919050565b600061052d826108d6565b90508073ffffffffffffffffffffffffffffffffffffffff168373ffffffffffffffffffffffffffffffffffffffff160361059d576040517f08c379a000000000000000000000000000000000000000000000000000000000815260040161059490612358565b60405180910390fd5b8073ffffffffffffffffffffffffffffffffffffffff166105bc610e38565b73ffffffffffffffffffffffffffffffffffffffff1614806105eb57506105ea816105e5610e38565b610bf4565b5b61062a576040517f08c379a0000000000000000000000000000000000000000000000000000000008152600401610621906123ea565b60405180910390fd5b6106348383610e40565b505050565b6000600a54905090565b61065461064e610e38565b82610ef9565b610693576040517f08c379a000000000000000000000000000000000000000000000000000000000815260040161068a9061247c565b60405180910390fd5b61069e838383610f8e565b505050565b60006106ae8361098e565b82106106ef576040517f08c379a00000000000000000000000000000000000000000000000000000000081526004016106e69061250e565b60405180910390fd5b600960009054906101000a900473ffffffffffffffffffffffffffffffffffffffff1673ffffffffffffffffffffffffffffffffffffffff168373ffffffffffffffffffffffffffffffffffffffff160361080257600061074e610639565b9050600080600190505b828110156107fe57600960009054906101000a900473ffffffffffffffffffffffffffffffffffffffff1673ffffffffffffffffffffffffffffffffffffffff166107a2826108d6565b73ffffffffffffffffffffffffffffffffffffffff16036107eb576001826107ca919061255d565b9150846001836107da91906125b3565b036107ea57809350505050610856565b5b80806107f6906125e7565b915050610758565b5050505b600760008473ffffffffffffffffffffffffffffffffffffffff1673ffffffffffffffffffffffffffffffffffffffff16815260200190815260200160002060008381526020019081526020016000205490505b92915050565b61087783838360405180602001604052806000815250610b2a565b505050565b6000600a5482106108c2576040517f08c379a00000000000000000000000000000000000000000000000000000000081526004016108b9906126a1565b60405180910390fd5b6001826108cf919061255d565b9050919050565b6000600a548211156108f2576108eb826111f4565b9050610989565b60006003600084815260200190815260200160002060009054906101000a900473ffffffffffffffffffffffffffffffffffffffff169050600073ffffffffffffffffffffffffffffffffffffffff168173ffffffffffffffffffffffffffffffffffffffff160361098457600960009054906101000a900473ffffffffffffffffffffffffffffffffffffffff1690505b809150505b919050565b60008073ffffffffffffffffffffffffffffffffffffffff168273ffffffffffffffffffffffffffffffffffffffff16036109fe576040517f08c379a00000000000000000000000000000000000000000000000000000000081526004016109f590612733565b60405180910390fd5b600460008373ffffffffffffffffffffffffffffffffffffffff1673ffffffffffffffffffffffffffffffffffffffff168152602001908152602001600020549050919050565b610a4d6112a5565b610a576000611323565b565b60008060009054906101000a900473ffffffffffffffffffffffffffffffffffffffff16905090565b606060028054610a91906122b5565b80601f0160208091040260200160405190810160405280929190818152602001828054610abd906122b5565b8015610b0a5780601f10610adf57610100808354040283529160200191610b0a565b820191906000526020600020905b815481529060010190602001808311610aed57829003601f168201915b5050505050905090565b610b26610b1f610e38565b83836113e7565b5050565b610b3b610b35610e38565b83610ef9565b610b7a576040517f08c379a0000000000000000000000000000000000000000000000000000000008152600401610b719061247c565b60405180910390fd5b610b8684848484611553565b50505050565b6060610b9782610ded565b6000610ba16115af565b90506000815111610bc15760405180602001604052806000815250610bec565b80610bcb846115c6565b604051602001610bdc92919061278f565b6040516020818303038152906040525b915050919050565b6000600660008473ffffffffffffffffffffffffffffffffffffffff1673ffffffffffffffffffffffffffffffffffffffff16815260200190815260200160002060008373ffffffffffffffffffffffffffffffffffffffff1673ffffffffffffffffffffffffffffffffffffffff16815260200190815260200160002060009054906101000a900460ff16905092915050565b610c906112a5565b600073ffffffffffffffffffffffffffffffffffffffff168173ffffffffffffffffffffffffffffffffffffffff1603610cff576040517f08c379a0000000000000000000000000000000000000000000000000000000008152600401610cf690612825565b60405180910390fd5b610d0881611323565b50565b60007f80ac58cd000000000000000000000000000000000000000000000000000000007bffffffffffffffffffffffffffffffffffffffffffffffffffffffff1916827bffffffffffffffffffffffffffffffffffffffffffffffffffffffff19161480610dd657507f5b5e139f000000000000000000000000000000000000000000000000000000007bffffffffffffffffffffffffffffffffffffffffffffffffffffffff1916827bffffffffffffffffffffffffffffffffffffffffffffffffffffffff1916145b80610de65750610de582611694565b5b9050919050565b610df6816116fe565b610e35576040517f08c379a0000000000000000000000000000000000000000000000000000000008152600401610e2c90612891565b60405180910390fd5b50565b600033905090565b816005600083815260200190815260200160002060006101000a81548173ffffffffffffffffffffffffffffffffffffffff021916908373ffffffffffffffffffffffffffffffffffffffff160217905550808273ffffffffffffffffffffffffffffffffffffffff16610eb3836108d6565b73ffffffffffffffffffffffffffffffffffffffff167f8c5be1e5ebec7d5bd14f71427d1e84f3dd0314c0f7b2291e5b200ac8c7c3b92560405160405180910390a45050565b600080610f05836108d6565b90508073ffffffffffffffffffffffffffffffffffffffff168473ffffffffffffffffffffffffffffffffffffffff161480610f475750610f468185610bf4565b5b80610f8557508373ffffffffffffffffffffffffffffffffffffffff16610f6d846104dc565b73ffffffffffffffffffffffffffffffffffffffff16145b91505092915050565b8273ffffffffffffffffffffffffffffffffffffffff16610fae826108d6565b73ffffffffffffffffffffffffffffffffffffffff1614611004576040517f08c379a0000000000000000000000000000000000000000000000000000000008152600401610ffb90612923565b60405180910390fd5b600073ffffffffffffffffffffffffffffffffffffffff168273ffffffffffffffffffffffffffffffffffffffff1603611073576040517f08c379a000000000000000000000000000000000000000000000000000000000815260040161106a906129b5565b60405180910390fd5b61107e838383611734565b611089600082610e40565b6001600460008573ffffffffffffffffffffffffffffffffffffffff1673ffffffffffffffffffffffffffffffffffffffff16815260200190815260200160002060008282546110d991906125b3565b925050819055506001600460008473ffffffffffffffffffffffffffffffffffffffff1673ffffffffffffffffffffffffffffffffffffffff1681526020019081526020016000206000828254611130919061255d565b92505081905550816003600083815260200190815260200160002060006101000a81548173ffffffffffffffffffffffffffffffffffffffff021916908373ffffffffffffffffffffffffffffffffffffffff160217905550808273ffffffffffffffffffffffffffffffffffffffff168473ffffffffffffffffffffffffffffffffffffffff167fddf252ad1be2c89b69c2b068fc378daa952ba7f163c4a11628f55a4df523b3ef60405160405180910390a46111ef83838361178c565b505050565b6000806003600084815260200190815260200160002060009054906101000a900473ffffffffffffffffffffffffffffffffffffffff169050600073ffffffffffffffffffffffffffffffffffffffff168173ffffffffffffffffffffffffffffffffffffffff160361129c576040517f08c379a000000000000000000000000000000000000000000000000000000000815260040161129390612891565b60405180910390fd5b80915050919050565b6112ad610e38565b73ffffffffffffffffffffffffffffffffffffffff166112cb610a59565b73ffffffffffffffffffffffffffffffffffffffff1614611321576040517f08c379a000000000000000000000000000000000000000000000000000000000815260040161131890612a21565b60405180910390fd5b565b60008060009054906101000a900473ffffffffffffffffffffffffffffffffffffffff169050816000806101000a81548173ffffffffffffffffffffffffffffffffffffffff021916908373ffffffffffffffffffffffffffffffffffffffff1602179055508173ffffffffffffffffffffffffffffffffffffffff168173ffffffffffffffffffffffffffffffffffffffff167f8be0079c531659141344cd1fd0a4f28419497f9722a3daafe3b4186f6b6457e060405160405180910390a35050565b8173ffffffffffffffffffffffffffffffffffffffff168373ffffffffffffffffffffffffffffffffffffffff1603611455576040517f08c379a000000000000000000000000000000000000000000000000000000000815260040161144c90612a8d565b60405180910390fd5b80600660008573ffffffffffffffffffffffffffffffffffffffff1673ffffffffffffffffffffffffffffffffffffffff16815260200190815260200160002060008473ffffffffffffffffffffffffffffffffffffffff1673ffffffffffffffffffffffffffffffffffffffff16815260200190815260200160002060006101000a81548160ff0219169083151502179055508173ffffffffffffffffffffffffffffffffffffffff168373ffffffffffffffffffffffffffffffffffffffff167f17307eab39ab6107e8899845ad3d59bd9653f200f220920489ca2b5937696c31836040516115469190611d77565b60405180910390a3505050565b61155e848484610f8e565b61156a84848484611791565b6115a9576040517f08c379a00000000000000000000000000000000000000000000000000000000081526004016115a090612b1f565b60405180910390fd5b50505050565b606060405180602001604052806000815250905090565b6060600060016115d584611913565b01905060008167ffffffffffffffff8111156115f4576115f3612098565b5b6040519080825280601f01601f1916602001820160405280156116265781602001600182028036833780820191505090505b509050600082602001820190505b600115611689578080600190039150507f3031323334353637383961626364656600000000000000000000000000000000600a86061a8153600a858161167d5761167c612b3f565b5b04945060008503611634575b819350505050919050565b60007f01ffc9a7000000000000000000000000000000000000000000000000000000007bffffffffffffffffffffffffffffffffffffffffffffffffffffffff1916827bffffffffffffffffffffffffffffffffffffffffffffffffffffffff1916149050919050565b6000600a5482111561171a5761171382611a66565b905061172f565b60008211801561172c5750600a548211155b90505b919050565b61173f838383611ad2565b8173ffffffffffffffffffffffffffffffffffffffff168373ffffffffffffffffffffffffffffffffffffffff16146117875761177c8382611ad7565b6117868282611c44565b5b505050565b505050565b6000808473ffffffffffffffffffffffffffffffffffffffff163b1115611906578373ffffffffffffffffffffffffffffffffffffffff1663150b7a026117d6610e38565b8786866040518563ffffffff1660e01b81526004016117f89493929190612bc3565b6020604051808303816000875af192505050801561183457506040513d601f19601f820116820180604052508101906118319190612c24565b60015b6118b6573d8060008114611864576040519150601f19603f3d011682016040523d82523d6000602084013e611869565b606091505b5060008151036118ae576040517f08c379a00000000000000000000000000000000000000000000000000000000081526004016118a590612b1f565b60405180910390fd5b805181602001fd5b63150b7a0260e01b7bffffffffffffffffffffffffffffffffffffffffffffffffffffffff1916817bffffffffffffffffffffffffffffffffffffffffffffffffffffffff19161491505061190b565b600190505b949350505050565b600080600090507a184f03e93ff9f4daa797ed6e38ed64bf6a1f0100000000000000008310611971577a184f03e93ff9f4daa797ed6e38ed64bf6a1f010000000000000000838161196757611966612b3f565b5b0492506040810190505b6d04ee2d6d415b85acef810000000083106119ae576d04ee2d6d415b85acef810000000083816119a4576119a3612b3f565b5b0492506020810190505b662386f26fc1000083106119dd57662386f26fc1000083816119d3576119d2612b3f565b5b0492506010810190505b6305f5e1008310611a06576305f5e10083816119fc576119fb612b3f565b5b0492506008810190505b6127108310611a2b576127108381611a2157611a20612b3f565b5b0492506004810190505b60648310611a4e5760648381611a4457611a43612b3f565b5b0492506002810190505b600a8310611a5d576001810190505b80915050919050565b60008073ffffffffffffffffffffffffffffffffffffffff166003600084815260200190815260200160002060009054906101000a900473ffffffffffffffffffffffffffffffffffffffff1673ffffffffffffffffffffffffffffffffffffffff1614159050919050565b505050565b60006001611ae48461098e565b611aee91906125b3565b9050600060086000848152602001908152602001600020549050818114611bd3576000600760008673ffffffffffffffffffffffffffffffffffffffff1673ffffffffffffffffffffffffffffffffffffffff168152602001908152602001600020600084815260200190815260200160002054905080600760008773ffffffffffffffffffffffffffffffffffffffff1673ffffffffffffffffffffffffffffffffffffffff168152602001908152602001600020600084815260200190815260200160002081905550816008600083815260200190815260200160002081905550505b6008600084815260200190815260200160002060009055600760008573ffffffffffffffffffffffffffffffffffffffff1673ffffffffffffffffffffffffffffffffffffffff16815260200190815260200160002060008381526020019081526020016000206000905550505050565b6000611c4f8361098e565b905081600760008573ffffffffffffffffffffffffffffffffffffffff1673ffffffffffffffffffffffffffffffffffffffff168152602001908152602001600020600083815260200190815260200160002081905550806008600084815260200190815260200160002081905550505050565b6000604051905090565b600080fd5b600080fd5b60007fffffffff0000000000000000000000000000000000000000000000000000000082169050919050565b611d0c81611cd7565b8114611d1757600080fd5b50565b600081359050611d2981611d03565b92915050565b600060208284031215611d4557611d44611ccd565b5b6000611d5384828501611d1a565b91505092915050565b60008115159050919050565b611d7181611d5c565b82525050565b6000602082019050611d8c6000830184611d68565b92915050565b600081519050919050565b600082825260208201905092915050565b60005b83811015611dcc578082015181840152602081019050611db1565b83811115611ddb576000848401525b50505050565b6000601f19601f8301169050919050565b6000611dfd82611d92565b611e078185611d9d565b9350611e17818560208601611dae565b611e2081611de1565b840191505092915050565b60006020820190508181036000830152611e458184611df2565b905092915050565b6000819050919050565b611e6081611e4d565b8114611e6b57600080fd5b50565b600081359050611e7d81611e57565b92915050565b600060208284031215611e9957611e98611ccd565b5b6000611ea784828501611e6e565b91505092915050565b600073ffffffffffffffffffffffffffffffffffffffff82169050919050565b6000611edb82611eb0565b9050919050565b611eeb81611ed0565b82525050565b6000602082019050611f066000830184611ee2565b92915050565b611f1581611ed0565b8114611f2057600080fd5b50565b600081359050611f3281611f0c565b92915050565b60008060408385031215611f4f57611f4e611ccd565b5b6000611f5d85828601611f23565b9250506020611f6e85828601611e6e565b9150509250929050565b611f8181611e4d565b82525050565b6000602082019050611f9c6000830184611f78565b92915050565b600080600060608486031215611fbb57611fba611ccd565b5b6000611fc986828701611f23565b9350506020611fda86828701611f23565b9250506040611feb86828701611e6e565b9150509250925092565b60006020828403121561200b5761200a611ccd565b5b600061201984828501611f23565b91505092915050565b61202b81611d5c565b811461203657600080fd5b50565b60008135905061204881612022565b92915050565b6000806040838503121561206557612064611ccd565b5b600061207385828601611f23565b925050602061208485828601612039565b9150509250929050565b600080fd5b600080fd5b7f4e487b7100000000000000000000000000000000000000000000000000000000600052604160045260246000fd5b6120d082611de1565b810181811067ffffffffffffffff821117156120ef576120ee612098565b5b80604052505050565b6000612102611cc3565b905061210e82826120c7565b919050565b600067ffffffffffffffff82111561212e5761212d612098565b5b61213782611de1565b9050602081019050919050565b82818337600083830152505050565b600061216661216184612113565b6120f8565b90508281526020810184848401111561218257612181612093565b5b61218d848285612144565b509392505050565b600082601f8301126121aa576121a961208e565b5b81356121ba848260208601612153565b91505092915050565b600080600080608085870312156121dd576121dc611ccd565b5b60006121eb87828801611f23565b94505060206121fc87828801611f23565b935050604061220d87828801611e6e565b925050606085013567ffffffffffffffff81111561222e5761222d611cd2565b5b61223a87828801612195565b91505092959194509250565b6000806040838503121561225d5761225c611ccd565b5b600061226b85828601611f23565b925050602061227c85828601611f23565b9150509250929050565b7f4e487b7100000000000000000000000000000000000000000000000000000000600052602260045260246000fd5b600060028204905060018216806122cd57607f821691505b6020821081036122e0576122df612286565b5b50919050565b7f4552433732313a20617070726f76616c20746f2063757272656e74206f776e6560008201527f7200000000000000000000000000000000000000000000000000000000000000602082015250565b6000612342602183611d9d565b915061234d826122e6565b604082019050919050565b6000602082019050818103600083015261237181612335565b9050919050565b7f4552433732313a20617070726f76652063616c6c6572206973206e6f7420746f60008201527f6b656e206f776e6572206e6f7220617070726f76656420666f7220616c6c0000602082015250565b60006123d4603e83611d9d565b91506123df82612378565b604082019050919050565b60006020820190508181036000830152612403816123c7565b9050919050565b7f4552433732313a2063616c6c6572206973206e6f7420746f6b656e206f776e6560008201527f72206e6f7220617070726f766564000000000000000000000000000000000000602082015250565b6000612466602e83611d9d565b91506124718261240a565b604082019050919050565b6000602082019050818103600083015261249581612459565b9050919050565b7f455243373231456e756d657261626c653a206f776e657220696e646578206f7560008201527f74206f6620626f756e6473000000000000000000000000000000000000000000602082015250565b60006124f8602b83611d9d565b91506125038261249c565b604082019050919050565b60006020820190508181036000830152612527816124eb565b9050919050565b7f4e487b7100000000000000000000000000000000000000000000000000000000600052601160045260246000fd5b600061256882611e4d565b915061257383611e4d565b9250827fffffffffffffffffffffffffffffffffffffffffffffffffffffffffffffffff038211156125a8576125a761252e565b5b828201905092915050565b60006125be82611e4d565b91506125c983611e4d565b9250828210156125dc576125db61252e565b5b828203905092915050565b60006125f282611e4d565b91507fffffffffffffffffffffffffffffffffffffffffffffffffffffffffffffffff82036126245761262361252e565b5b600182019050919050565b7f455243373231456e756d657261626c653a20676c6f62616c20696e646578206f60008201527f7574206f6620626f756e64730000000000000000000000000000000000000000602082015250565b600061268b602c83611d9d565b91506126968261262f565b604082019050919050565b600060208201905081810360008301526126ba8161267e565b9050919050565b7f4552433732313a2061646472657373207a65726f206973206e6f74206120766160008201527f6c6964206f776e65720000000000000000000000000000000000000000000000602082015250565b600061271d602983611d9d565b9150612728826126c1565b604082019050919050565b6000602082019050818103600083015261274c81612710565b9050919050565b600081905092915050565b600061276982611d92565b6127738185612753565b9350612783818560208601611dae565b80840191505092915050565b600061279b828561275e565b91506127a7828461275e565b91508190509392505050565b7f4f776e61626c653a206e6577206f776e657220697320746865207a65726f206160008201527f6464726573730000000000000000000000000000000000000000000000000000602082015250565b600061280f602683611d9d565b915061281a826127b3565b604082019050919050565b6000602082019050818103600083015261283e81612802565b9050919050565b7f4552433732313a20696e76616c696420746f6b656e2049440000000000000000600082015250565b600061287b601883611d9d565b915061288682612845565b602082019050919050565b600060208201905081810360008301526128aa8161286e565b9050919050565b7f4552433732313a207472616e736665722066726f6d20696e636f72726563742060008201527f6f776e6572000000000000000000000000000000000000000000000000000000602082015250565b600061290d602583611d9d565b9150612918826128b1565b604082019050919050565b6000602082019050818103600083015261293c81612900565b9050919050565b7f4552433732313a207472616e7366657220746f20746865207a65726f2061646460008201527f7265737300000000000000000000000000000000000000000000000000000000602082015250565b600061299f602483611d9d565b91506129aa82612943565b604082019050919050565b600060208201905081810360008301526129ce81612992565b9050919050565b7f4f776e61626c653a2063616c6c6572206973206e6f7420746865206f776e6572600082015250565b6000612a0b602083611d9d565b9150612a16826129d5565b602082019050919050565b60006020820190508181036000830152612a3a816129fe565b9050919050565b7f4552433732313a20617070726f766520746f2063616c6c657200000000000000600082015250565b6000612a77601983611d9d565b9150612a8282612a41565b602082019050919050565b60006020820190508181036000830152612aa681612a6a565b9050919050565b7f4552433732313a207472616e7366657220746f206e6f6e20455243373231526560008201527f63656976657220696d706c656d656e7465720000000000000000000000000000602082015250565b6000612b09603283611d9d565b9150612b1482612aad565b604082019050919050565b60006020820190508181036000830152612b3881612afc565b9050919050565b7f4e487b7100000000000000000000000000000000000000000000000000000000600052601260045260246000fd5b600081519050919050565b600082825260208201905092915050565b6000612b9582612b6e565b612b9f8185612b79565b9350612baf818560208601611dae565b612bb881611de1565b840191505092915050565b6000608082019050612bd86000830187611ee2565b612be56020830186611ee2565b612bf26040830185611f78565b8181036060830152612c048184612b8a565b905095945050505050565b600081519050612c1e81611d03565b92915050565b600060208284031215612c3a57612c39611ccd565b5b6000612c4884828501612c0f565b9150509291505056fea2646970667358221220347d19cf959881ce09aeaf7ceb9c43c777cbf136334e282d5956df0520dc064b64736f6c634300080d0033",
  "linkReferences": {},
  "deployedLinkReferences": {}
}