{
  "_format": "hh-sol-artifact-1",
  "contractName": "ProtonB",
  "sourceName": "contracts/v1/tokens/ProtonB.sol",
  "abi": [
    {
      "inputs": [],
      "stateMutability": "nonpayable",
      "type": "constructor"
    },
    {
      "anonymous": false,
      "inputs": [
        {
          "indexed": true,
          "internalType": "address",
          "name": "owner",
          "type": "address"
        },
        {
          "indexed": true,
          "internalType": "address",
          "name": "approved",
          "type": "address"
        },
        {
          "indexed": true,
          "internalType": "uint256",
          "name": "tokenId",
          "type": "uint256"
        }
      ],
      "name": "Approval",
      "type": "event"
    },
    {
      "anonymous": false,
      "inputs": [
        {
          "indexed": true,
          "internalType": "address",
          "name": "owner",
          "type": "address"
        },
        {
          "indexed": true,
          "internalType": "address",
          "name": "operator",
          "type": "address"
        },
        {
          "indexed": false,
          "internalType": "bool",
          "name": "approved",
          "type": "bool"
        }
      ],
      "name": "ApprovalForAll",
      "type": "event"
    },
    {
      "anonymous": false,
      "inputs": [
        {
          "indexed": true,
          "internalType": "address",
          "name": "chargedParticles",
          "type": "address"
        }
      ],
      "name": "ChargedParticlesSet",
      "type": "event"
    },
    {
      "anonymous": false,
      "inputs": [
        {
          "indexed": true,
          "internalType": "address",
          "name": "chargedSettings",
          "type": "address"
        }
      ],
      "name": "ChargedSettingsSet",
      "type": "event"
    },
    {
      "anonymous": false,
      "inputs": [
        {
          "indexed": true,
          "internalType": "address",
          "name": "chargedState",
          "type": "address"
        }
      ],
      "name": "ChargedStateSet",
      "type": "event"
    },
    {
      "anonymous": false,
      "inputs": [
        {
          "indexed": true,
          "internalType": "uint256",
          "name": "tokenId",
          "type": "uint256"
        },
        {
          "indexed": false,
          "internalType": "uint256",
          "name": "royaltiesPct",
          "type": "uint256"
        }
      ],
      "name": "CreatorRoyaltiesSet",
      "type": "event"
    },
    {
      "anonymous": false,
      "inputs": [
        {
          "indexed": true,
          "internalType": "address",
          "name": "receiver",
          "type": "address"
        },
        {
          "indexed": false,
          "internalType": "uint256",
          "name": "amount",
          "type": "uint256"
        }
      ],
      "name": "FeesWithdrawn",
      "type": "event"
    },
    {
      "anonymous": false,
      "inputs": [
        {
          "indexed": true,
          "internalType": "address",
          "name": "previousOwner",
          "type": "address"
        },
        {
          "indexed": true,
          "internalType": "address",
          "name": "newOwner",
          "type": "address"
        }
      ],
      "name": "OwnershipTransferred",
      "type": "event"
    },
    {
      "anonymous": false,
      "inputs": [
        {
          "indexed": false,
          "internalType": "bool",
          "name": "isPaused",
          "type": "bool"
        }
      ],
      "name": "PausedStateSet",
      "type": "event"
    },
    {
      "anonymous": false,
      "inputs": [
        {
          "indexed": true,
          "internalType": "uint256",
          "name": "tokenId",
          "type": "uint256"
        },
        {
          "indexed": true,
          "internalType": "address",
          "name": "oldOwner",
          "type": "address"
        },
        {
          "indexed": true,
          "internalType": "address",
          "name": "newOwner",
          "type": "address"
        },
        {
          "indexed": false,
          "internalType": "uint256",
          "name": "salePrice",
          "type": "uint256"
        },
        {
          "indexed": false,
          "internalType": "address",
          "name": "creator",
          "type": "address"
        },
        {
          "indexed": false,
          "internalType": "uint256",
          "name": "creatorRoyalties",
          "type": "uint256"
        }
      ],
      "name": "ProtonSold",
      "type": "event"
    },
    {
      "anonymous": false,
      "inputs": [
        {
          "indexed": false,
          "internalType": "address",
          "name": "",
          "type": "address"
        },
        {
          "indexed": false,
          "internalType": "uint256",
          "name": "",
          "type": "uint256"
        }
      ],
      "name": "Received",
      "type": "event"
    },
    {
      "anonymous": false,
      "inputs": [
        {
          "indexed": true,
          "internalType": "address",
          "name": "receiver",
          "type": "address"
        },
        {
          "indexed": false,
          "internalType": "uint256",
          "name": "amountClaimed",
          "type": "uint256"
        }
      ],
      "name": "RoyaltiesClaimed",
      "type": "event"
    },
    {
      "anonymous": false,
      "inputs": [
        {
          "indexed": true,
          "internalType": "uint256",
          "name": "tokenId",
          "type": "uint256"
        },
        {
          "indexed": false,
          "internalType": "uint256",
          "name": "salePrice",
          "type": "uint256"
        }
      ],
      "name": "SalePriceSet",
      "type": "event"
    },
    {
      "anonymous": false,
      "inputs": [
        {
          "indexed": true,
          "internalType": "address",
          "name": "from",
          "type": "address"
        },
        {
          "indexed": true,
          "internalType": "address",
          "name": "to",
          "type": "address"
        },
        {
          "indexed": true,
          "internalType": "uint256",
          "name": "tokenId",
          "type": "uint256"
        }
      ],
      "name": "Transfer",
      "type": "event"
    },
    {
      "anonymous": false,
      "inputs": [
        {
          "indexed": true,
          "internalType": "address",
          "name": "from",
          "type": "address"
        },
        {
          "indexed": true,
          "internalType": "address",
          "name": "to",
          "type": "address"
        },
        {
          "indexed": false,
          "internalType": "uint256",
          "name": "startTokenId",
          "type": "uint256"
        },
        {
          "indexed": false,
          "internalType": "uint256",
          "name": "count",
          "type": "uint256"
        }
      ],
      "name": "TransferBatch",
      "type": "event"
    },
    {
      "anonymous": false,
      "inputs": [
        {
          "indexed": true,
          "internalType": "address",
          "name": "universe",
          "type": "address"
        }
      ],
      "name": "UniverseSet",
      "type": "event"
    },
    {
      "anonymous": false,
      "inputs": [
        {
          "indexed": true,
          "internalType": "address",
          "name": "receiver",
          "type": "address"
        },
        {
          "indexed": true,
          "internalType": "address",
          "name": "tokenAddress",
          "type": "address"
        },
        {
          "indexed": true,
          "internalType": "uint256",
          "name": "tokenId",
          "type": "uint256"
        },
        {
          "indexed": false,
          "internalType": "uint256",
          "name": "amount",
          "type": "uint256"
        }
      ],
      "name": "WithdrawStuckERC1155",
      "type": "event"
    },
    {
      "anonymous": false,
      "inputs": [
        {
          "indexed": true,
          "internalType": "address",
          "name": "receiver",
          "type": "address"
        },
        {
          "indexed": true,
          "internalType": "address",
          "name": "tokenAddress",
          "type": "address"
        },
        {
          "indexed": false,
          "internalType": "uint256",
          "name": "amount",
          "type": "uint256"
        }
      ],
      "name": "WithdrawStuckERC20",
      "type": "event"
    },
    {
      "anonymous": false,
      "inputs": [
        {
          "indexed": true,
          "internalType": "address",
          "name": "receiver",
          "type": "address"
        },
        {
          "indexed": true,
          "internalType": "address",
          "name": "tokenAddress",
          "type": "address"
        },
        {
          "indexed": true,
          "internalType": "uint256",
          "name": "tokenId",
          "type": "uint256"
        }
      ],
      "name": "WithdrawStuckERC721",
      "type": "event"
    },
    {
      "anonymous": false,
      "inputs": [
        {
          "indexed": true,
          "internalType": "address",
          "name": "receiver",
          "type": "address"
        },
        {
          "indexed": false,
          "internalType": "uint256",
          "name": "amount",
          "type": "uint256"
        }
      ],
      "name": "WithdrawStuckEther",
      "type": "event"
    },
    {
      "inputs": [
        {
          "internalType": "address",
          "name": "to",
          "type": "address"
        },
        {
          "internalType": "uint256",
          "name": "tokenId",
          "type": "uint256"
        }
      ],
      "name": "approve",
      "outputs": [],
      "stateMutability": "nonpayable",
      "type": "function"
    },
    {
      "inputs": [
        {
          "internalType": "address",
          "name": "owner",
          "type": "address"
        }
      ],
      "name": "balanceOf",
      "outputs": [
        {
          "internalType": "uint256",
          "name": "",
          "type": "uint256"
        }
      ],
      "stateMutability": "view",
      "type": "function"
    },
    {
      "inputs": [
        {
          "internalType": "uint256",
          "name": "tokenId",
          "type": "uint256"
        },
        {
          "internalType": "uint256",
          "name": "gasLimit",
          "type": "uint256"
        }
      ],
      "name": "buyProton",
      "outputs": [
        {
          "internalType": "bool",
          "name": "",
          "type": "bool"
        }
      ],
      "stateMutability": "payable",
      "type": "function"
    },
    {
      "inputs": [],
      "name": "claimCreatorRoyalties",
      "outputs": [
        {
          "internalType": "uint256",
          "name": "",
          "type": "uint256"
        }
      ],
      "stateMutability": "nonpayable",
      "type": "function"
    },
    {
      "inputs": [
        {
          "internalType": "address",
          "name": "creator",
          "type": "address"
        },
        {
          "internalType": "address",
          "name": "receiver",
          "type": "address"
        },
        {
          "internalType": "string",
          "name": "tokenMetaUri",
          "type": "string"
        }
      ],
      "name": "createBasicProton",
      "outputs": [
        {
          "internalType": "uint256",
          "name": "newTokenId",
          "type": "uint256"
        }
      ],
      "stateMutability": "nonpayable",
      "type": "function"
    },
    {
      "inputs": [
        {
          "internalType": "address",
          "name": "creator",
          "type": "address"
        },
        {
          "internalType": "address",
          "name": "receiver",
          "type": "address"
        },
        {
          "internalType": "address",
          "name": "referrer",
          "type": "address"
        },
        {
          "internalType": "string",
          "name": "tokenMetaUri",
          "type": "string"
        },
        {
          "internalType": "string",
          "name": "walletManagerId",
          "type": "string"
        },
        {
          "internalType": "address",
          "name": "assetToken",
          "type": "address"
        },
        {
          "internalType": "uint256",
          "name": "assetAmount",
          "type": "uint256"
        },
        {
          "internalType": "uint256",
          "name": "annuityPercent",
          "type": "uint256"
        }
      ],
      "name": "createChargedParticle",
      "outputs": [
        {
          "internalType": "uint256",
          "name": "newTokenId",
          "type": "uint256"
        }
      ],
      "stateMutability": "nonpayable",
      "type": "function"
    },
    {
      "inputs": [
        {
          "internalType": "address",
          "name": "creator",
          "type": "address"
        },
        {
          "internalType": "address",
          "name": "receiver",
          "type": "address"
        },
        {
          "internalType": "string",
          "name": "tokenMetaUri",
          "type": "string"
        }
      ],
      "name": "createProton",
      "outputs": [
        {
          "internalType": "uint256",
          "name": "newTokenId",
          "type": "uint256"
        }
      ],
      "stateMutability": "nonpayable",
      "type": "function"
    },
    {
      "inputs": [
        {
          "internalType": "address",
          "name": "creator",
          "type": "address"
        },
        {
          "internalType": "address",
          "name": "receiver",
          "type": "address"
        },
        {
          "internalType": "string",
          "name": "tokenMetaUri",
          "type": "string"
        },
        {
          "internalType": "uint256",
          "name": "annuityPercent",
          "type": "uint256"
        },
        {
          "internalType": "uint256",
          "name": "royaltiesPercent",
          "type": "uint256"
        },
        {
          "internalType": "uint256",
          "name": "salePrice",
          "type": "uint256"
        }
      ],
      "name": "createProtonForSale",
      "outputs": [
        {
          "internalType": "uint256",
          "name": "newTokenId",
          "type": "uint256"
        }
      ],
      "stateMutability": "nonpayable",
      "type": "function"
    },
    {
      "inputs": [
        {
          "internalType": "address",
          "name": "creator",
          "type": "address"
        },
        {
          "internalType": "address",
          "name": "receiver",
          "type": "address"
        },
        {
          "internalType": "string[]",
          "name": "tokenMetaUris",
          "type": "string[]"
        }
      ],
      "name": "createProtons",
      "outputs": [
        {
          "internalType": "bool",
          "name": "",
          "type": "bool"
        }
      ],
      "stateMutability": "nonpayable",
      "type": "function"
    },
    {
      "inputs": [
        {
          "internalType": "address",
          "name": "creator",
          "type": "address"
        },
        {
          "internalType": "address",
          "name": "receiver",
          "type": "address"
        },
        {
          "internalType": "uint256",
          "name": "royaltiesPercent",
          "type": "uint256"
        },
        {
          "internalType": "string[]",
          "name": "tokenMetaUris",
          "type": "string[]"
        },
        {
          "internalType": "uint256[]",
          "name": "salePrices",
          "type": "uint256[]"
        }
      ],
      "name": "createProtonsForSale",
      "outputs": [
        {
          "internalType": "bool",
          "name": "",
          "type": "bool"
        }
      ],
      "stateMutability": "nonpayable",
      "type": "function"
    },
    {
      "inputs": [
        {
          "internalType": "uint256",
          "name": "tokenId",
          "type": "uint256"
        }
      ],
      "name": "creatorOf",
      "outputs": [
        {
          "internalType": "address",
          "name": "",
          "type": "address"
        }
      ],
      "stateMutability": "view",
      "type": "function"
    },
    {
      "inputs": [
        {
          "internalType": "uint256",
          "name": "tokenId",
          "type": "uint256"
        }
      ],
      "name": "getApproved",
      "outputs": [
        {
          "internalType": "address",
          "name": "",
          "type": "address"
        }
      ],
      "stateMutability": "view",
      "type": "function"
    },
    {
      "inputs": [
        {
          "internalType": "address",
          "name": "account",
          "type": "address"
        }
      ],
      "name": "getCreatorRoyalties",
      "outputs": [
        {
          "internalType": "uint256",
          "name": "",
          "type": "uint256"
        }
      ],
      "stateMutability": "view",
      "type": "function"
    },
    {
      "inputs": [
        {
          "internalType": "uint256",
          "name": "tokenId",
          "type": "uint256"
        }
      ],
      "name": "getCreatorRoyaltiesPct",
      "outputs": [
        {
          "internalType": "uint256",
          "name": "",
          "type": "uint256"
        }
      ],
      "stateMutability": "view",
      "type": "function"
    },
    {
      "inputs": [
        {
          "internalType": "uint256",
          "name": "tokenId",
          "type": "uint256"
        }
      ],
      "name": "getCreatorRoyaltiesReceiver",
      "outputs": [
        {
          "internalType": "address",
          "name": "",
          "type": "address"
        }
      ],
      "stateMutability": "view",
      "type": "function"
    },
    {
      "inputs": [
        {
          "internalType": "uint256",
          "name": "tokenId",
          "type": "uint256"
        }
      ],
      "name": "getLastSellPrice",
      "outputs": [
        {
          "internalType": "uint256",
          "name": "",
          "type": "uint256"
        }
      ],
      "stateMutability": "view",
      "type": "function"
    },
    {
      "inputs": [
        {
          "internalType": "uint256",
          "name": "tokenId",
          "type": "uint256"
        }
      ],
      "name": "getSalePrice",
      "outputs": [
        {
          "internalType": "uint256",
          "name": "",
          "type": "uint256"
        }
      ],
      "stateMutability": "view",
      "type": "function"
    },
    {
      "inputs": [
        {
          "internalType": "address",
          "name": "owner",
          "type": "address"
        },
        {
          "internalType": "address",
          "name": "operator",
          "type": "address"
        }
      ],
      "name": "isApprovedForAll",
      "outputs": [
        {
          "internalType": "bool",
          "name": "",
          "type": "bool"
        }
      ],
      "stateMutability": "view",
      "type": "function"
    },
    {
      "inputs": [
        {
          "internalType": "address",
          "name": "forwarder",
          "type": "address"
        }
      ],
      "name": "isTrustedForwarder",
      "outputs": [
        {
          "internalType": "bool",
          "name": "",
          "type": "bool"
        }
      ],
      "stateMutability": "view",
      "type": "function"
    },
    {
      "inputs": [],
      "name": "name",
      "outputs": [
        {
          "internalType": "string",
          "name": "",
          "type": "string"
        }
      ],
      "stateMutability": "view",
      "type": "function"
    },
    {
      "inputs": [],
      "name": "owner",
      "outputs": [
        {
          "internalType": "address",
          "name": "",
          "type": "address"
        }
      ],
      "stateMutability": "view",
      "type": "function"
    },
    {
      "inputs": [
        {
          "internalType": "uint256",
          "name": "tokenId",
          "type": "uint256"
        }
      ],
      "name": "ownerOf",
      "outputs": [
        {
          "internalType": "address",
          "name": "",
          "type": "address"
        }
      ],
      "stateMutability": "view",
      "type": "function"
    },
    {
      "inputs": [],
      "name": "renounceOwnership",
      "outputs": [],
      "stateMutability": "nonpayable",
      "type": "function"
    },
    {
      "inputs": [
        {
          "internalType": "address",
          "name": "from",
          "type": "address"
        },
        {
          "internalType": "address",
          "name": "to",
          "type": "address"
        },
        {
          "internalType": "uint256",
          "name": "tokenId",
          "type": "uint256"
        }
      ],
      "name": "safeTransferFrom",
      "outputs": [],
      "stateMutability": "nonpayable",
      "type": "function"
    },
    {
      "inputs": [
        {
          "internalType": "address",
          "name": "from",
          "type": "address"
        },
        {
          "internalType": "address",
          "name": "to",
          "type": "address"
        },
        {
          "internalType": "uint256",
          "name": "tokenId",
          "type": "uint256"
        },
        {
          "internalType": "bytes",
          "name": "_data",
          "type": "bytes"
        }
      ],
      "name": "safeTransferFrom",
      "outputs": [],
      "stateMutability": "nonpayable",
      "type": "function"
    },
    {
      "inputs": [
        {
          "internalType": "address",
          "name": "operator",
          "type": "address"
        },
        {
          "internalType": "bool",
          "name": "approved",
          "type": "bool"
        }
      ],
      "name": "setApprovalForAll",
      "outputs": [],
      "stateMutability": "nonpayable",
      "type": "function"
    },
    {
      "inputs": [
        {
          "internalType": "address",
          "name": "chargedParticles",
          "type": "address"
        }
      ],
      "name": "setChargedParticles",
      "outputs": [],
      "stateMutability": "nonpayable",
      "type": "function"
    },
    {
      "inputs": [
        {
          "internalType": "address",
          "name": "settings",
          "type": "address"
        }
      ],
      "name": "setChargedSettings",
      "outputs": [],
      "stateMutability": "nonpayable",
      "type": "function"
    },
    {
      "inputs": [
        {
          "internalType": "address",
          "name": "stateController",
          "type": "address"
        }
      ],
      "name": "setChargedState",
      "outputs": [],
      "stateMutability": "nonpayable",
      "type": "function"
    },
    {
      "inputs": [
        {
          "internalType": "uint256",
          "name": "tokenId",
          "type": "uint256"
        },
        {
          "internalType": "address",
          "name": "receiver",
          "type": "address"
        }
      ],
      "name": "setCreatorRoyaltiesReceiver",
      "outputs": [],
      "stateMutability": "nonpayable",
      "type": "function"
    },
    {
      "inputs": [
        {
          "internalType": "bool",
          "name": "state",
          "type": "bool"
        }
      ],
      "name": "setPausedState",
      "outputs": [],
      "stateMutability": "nonpayable",
      "type": "function"
    },
    {
      "inputs": [
        {
          "internalType": "uint256",
          "name": "tokenId",
          "type": "uint256"
        },
        {
          "internalType": "uint256",
          "name": "royaltiesPct",
          "type": "uint256"
        }
      ],
      "name": "setRoyaltiesPct",
      "outputs": [],
      "stateMutability": "nonpayable",
      "type": "function"
    },
    {
      "inputs": [
        {
          "internalType": "uint256",
          "name": "tokenId",
          "type": "uint256"
        },
        {
          "internalType": "uint256",
          "name": "salePrice",
          "type": "uint256"
        }
      ],
      "name": "setSalePrice",
      "outputs": [],
      "stateMutability": "nonpayable",
      "type": "function"
    },
    {
      "inputs": [
        {
          "internalType": "address",
          "name": "_trustedForwarder",
          "type": "address"
        }
      ],
      "name": "setTrustedForwarder",
      "outputs": [],
      "stateMutability": "nonpayable",
      "type": "function"
    },
    {
      "inputs": [
        {
          "internalType": "address",
          "name": "universe",
          "type": "address"
        }
      ],
      "name": "setUniverse",
      "outputs": [],
      "stateMutability": "nonpayable",
      "type": "function"
    },
    {
      "inputs": [
        {
          "internalType": "bytes4",
          "name": "interfaceId",
          "type": "bytes4"
        }
      ],
      "name": "supportsInterface",
      "outputs": [
        {
          "internalType": "bool",
          "name": "",
          "type": "bool"
        }
      ],
      "stateMutability": "view",
      "type": "function"
    },
    {
      "inputs": [],
      "name": "symbol",
      "outputs": [
        {
          "internalType": "string",
          "name": "",
          "type": "string"
        }
      ],
      "stateMutability": "view",
      "type": "function"
    },
    {
      "inputs": [
        {
          "internalType": "uint256",
          "name": "index",
          "type": "uint256"
        }
      ],
      "name": "tokenByIndex",
      "outputs": [
        {
          "internalType": "uint256",
          "name": "",
          "type": "uint256"
        }
      ],
      "stateMutability": "view",
      "type": "function"
    },
    {
      "inputs": [
        {
          "internalType": "address",
          "name": "owner",
          "type": "address"
        },
        {
          "internalType": "uint256",
          "name": "index",
          "type": "uint256"
        }
      ],
      "name": "tokenOfOwnerByIndex",
      "outputs": [
        {
          "internalType": "uint256",
          "name": "",
          "type": "uint256"
        }
      ],
      "stateMutability": "view",
      "type": "function"
    },
    {
      "inputs": [
        {
          "internalType": "uint256",
          "name": "tokenId",
          "type": "uint256"
        }
      ],
      "name": "tokenURI",
      "outputs": [
        {
          "internalType": "string",
          "name": "",
          "type": "string"
        }
      ],
      "stateMutability": "view",
      "type": "function"
    },
    {
      "inputs": [],
      "name": "totalSupply",
      "outputs": [
        {
          "internalType": "uint256",
          "name": "",
          "type": "uint256"
        }
      ],
      "stateMutability": "view",
      "type": "function"
    },
    {
      "inputs": [
        {
          "internalType": "address",
          "name": "from",
          "type": "address"
        },
        {
          "internalType": "address",
          "name": "to",
          "type": "address"
        },
        {
          "internalType": "uint256",
          "name": "tokenId",
          "type": "uint256"
        }
      ],
      "name": "transferFrom",
      "outputs": [],
      "stateMutability": "nonpayable",
      "type": "function"
    },
    {
      "inputs": [
        {
          "internalType": "address",
          "name": "newOwner",
          "type": "address"
        }
      ],
      "name": "transferOwnership",
      "outputs": [],
      "stateMutability": "nonpayable",
      "type": "function"
    },
    {
      "inputs": [],
      "name": "trustedForwarder",
      "outputs": [
        {
          "internalType": "address",
          "name": "",
          "type": "address"
        }
      ],
      "stateMutability": "view",
      "type": "function"
    },
    {
      "inputs": [],
      "name": "versionRecipient",
      "outputs": [
        {
          "internalType": "string",
          "name": "",
          "type": "string"
        }
      ],
      "stateMutability": "view",
      "type": "function"
    },
    {
      "inputs": [
        {
          "internalType": "address payable",
          "name": "receiver",
          "type": "address"
        },
        {
          "internalType": "address",
          "name": "tokenAddress",
          "type": "address"
        },
        {
          "internalType": "uint256",
          "name": "tokenId",
          "type": "uint256"
        }
      ],
      "name": "withdrawERC721",
      "outputs": [],
      "stateMutability": "nonpayable",
      "type": "function"
    },
    {
      "inputs": [
        {
          "internalType": "address payable",
          "name": "receiver",
          "type": "address"
        },
        {
          "internalType": "address",
          "name": "tokenAddress",
          "type": "address"
        },
        {
          "internalType": "uint256",
          "name": "amount",
          "type": "uint256"
        }
      ],
      "name": "withdrawErc20",
      "outputs": [],
      "stateMutability": "nonpayable",
      "type": "function"
    },
    {
      "inputs": [
        {
          "internalType": "address payable",
          "name": "receiver",
          "type": "address"
        },
        {
          "internalType": "uint256",
          "name": "amount",
          "type": "uint256"
        }
      ],
      "name": "withdrawEther",
      "outputs": [],
      "stateMutability": "nonpayable",
      "type": "function"
    },
    {
      "stateMutability": "payable",
      "type": "receive"
    }
  ],
  "bytecode": "0x60806040523480156200001157600080fd5b506040518060400160405280601b81526020017f43686172676564205061727469636c6573202d2050726f746f6e4200000000008152506040518060400160405280600881526020017f50524f544f4e2e420000000000000000000000000000000000000000000000008152508181620000986301ffc9a760e01b620001d560201b60201c565b8160069080519060200190620000b09291906200036b565b508060079080519060200190620000c99291906200036b565b50620000e26380ac58cd60e01b620001d560201b60201c565b620000fa635b5e139f60e01b620001d560201b60201c565b6200011263780e9d6360e01b620001d560201b60201c565b5050600062000126620002ad60201b60201c565b905080600960006101000a81548173ffffffffffffffffffffffffffffffffffffffff021916908373ffffffffffffffffffffffffffffffffffffffff1602179055508073ffffffffffffffffffffffffffffffffffffffff16600073ffffffffffffffffffffffffffffffffffffffff167f8be0079c531659141344cd1fd0a4f28419497f9722a3daafe3b4186f6b6457e060405160405180910390a3506001600b81905550505062000486565b63ffffffff60e01b817bffffffffffffffffffffffffffffffffffffffffffffffffffffffff1916141562000241576040517f08c379a0000000000000000000000000000000000000000000000000000000008152600401620002389062000453565b60405180910390fd5b6001600080837bffffffffffffffffffffffffffffffffffffffffffffffffffffffff19167bffffffffffffffffffffffffffffffffffffffffffffffffffffffff1916815260200190815260200160002060006101000a81548160ff02191690831515021790555050565b6000620002c4620002c960201b62002a201760201c565b905090565b60006018600036905010158015620002ee5750620002ed336200031160201b60201c565b5b156200030457601436033560601c90506200030d565b3390506200030e565b5b90565b6000600a60009054906101000a900473ffffffffffffffffffffffffffffffffffffffff1673ffffffffffffffffffffffffffffffffffffffff168273ffffffffffffffffffffffffffffffffffffffff16149050919050565b828054600181600116156101000203166002900490600052602060002090601f016020900481019282601f10620003ae57805160ff1916838001178555620003df565b82800160010185558215620003df579182015b82811115620003de578251825591602001919060010190620003c1565b5b509050620003ee9190620003f2565b5090565b5b808211156200040d576000816000905550600101620003f3565b5090565b600062000420601c8362000475565b91507f4552433136353a20696e76616c696420696e74657266616365206964000000006000830152602082019050919050565b600060208201905081810360008301526200046e8162000411565b9050919050565b600082825260208201905092915050565b616fd680620004966000396000f3fe6080604052600436106102975760003560e01c80636e5559fd1161015a578063ae9704cd116100c1578063d40e707b1161007a578063d40e707b14610b01578063da74222814610b3e578063db9f60ff14610b67578063e985e9c514610b90578063f2fde38b14610bcd578063f8eb5fc514610bf6576102d7565b8063ae9704cd146109f7578063b7683e9314610a20578063b88d4fde14610a49578063c87b56dd14610a72578063c8c680d514610aaf578063c95d099814610ad8576102d7565b80638da5cb5b116101135780638da5cb5b146108c15780639390afc7146108ec57806395d89b4114610929578063a0092b5514610954578063a22cb46514610991578063ad82c42c146109ba576102d7565b80636e5559fd1461079f57806370a08231146107c8578063715018a61461080557806371e715f41461081c5780637da0a87714610859578063846ec08c14610884576102d7565b80632f745c59116101fe578063522f6815116101b7578063522f681514610657578063572b6c0514610680578063589a1743146106bd57806362c51749146106fa5780636348af34146107375780636352211e14610762576102d7565b80632f745c59146105375780632fc77797146105745780634025feb21461059d57806342842e0e146105c6578063486ff0cd146105ef5780634f6ccce71461061a576102d7565b806318160ddd1161025057806318160ddd146103fc5780631dcd79d41461042757806323b872dd14610457578063250b2c80146104805780632b7e237c146104bd5780632c0cd5a3146104fa576102d7565b806301ffc9a7146102dc578063053992c51461031957806306fdde0314610342578063081812fc1461036d578063095ea7b3146103aa5780631593dee1146103d3576102d7565b366102d7577f88a5966d370b9919b20f3e2c13ff65706f196a4e32cc2c12bf57088f8852587433346040516102cd929190616686565b60405180910390a1005b600080fd5b3480156102e857600080fd5b5061030360048036038101906102fe9190615b05565b610c33565b6040516103109190616862565b60405180910390f35b34801561032557600080fd5b50610340600480360381019061033b9190615be5565b610c9a565b005b34801561034e57600080fd5b50610357610d4a565b604051610364919061687d565b60405180910390f35b34801561037957600080fd5b50610394600480360381019061038f9190615b57565b610dec565b6040516103a1919061661f565b60405180910390f35b3480156103b657600080fd5b506103d160048036038101906103cc9190615a77565b610e71565b005b3480156103df57600080fd5b506103fa60048036038101906103f591906155a4565b610f89565b005b34801561040857600080fd5b50610411611030565b60405161041e9190616c7f565b60405180910390f35b610441600480360381019061043c9190615be5565b611041565b60405161044e9190616862565b60405180910390f35b34801561046357600080fd5b5061047e600480360381019061047991906158c1565b611104565b005b34801561048c57600080fd5b506104a760048036038101906104a29190615b57565b611164565b6040516104b49190616c7f565b60405180910390f35b3480156104c957600080fd5b506104e460048036038101906104df91906157b9565b611181565b6040516104f19190616c7f565b60405180910390f35b34801561050657600080fd5b50610521600480360381019061051c91906157b9565b6111ea565b60405161052e9190616c7f565b60405180910390f35b34801561054357600080fd5b5061055e60048036038101906105599190615a77565b611253565b60405161056b9190616c7f565b60405180910390f35b34801561058057600080fd5b5061059b60048036038101906105969190615ba9565b6112ae565b005b3480156105a957600080fd5b506105c460048036038101906105bf91906155a4565b6113fe565b005b3480156105d257600080fd5b506105ed60048036038101906105e891906158c1565b6114a5565b005b3480156105fb57600080fd5b506106046114c5565b604051610611919061687d565b60405180910390f35b34801561062657600080fd5b50610641600480360381019061063c9190615b57565b6114e5565b60405161064e9190616c7f565b60405180910390f35b34801561066357600080fd5b5061067e600480360381019061067991906155f3565b611508565b005b34801561068c57600080fd5b506106a760048036038101906106a29190615552565b6115ad565b6040516106b49190616862565b60405180910390f35b3480156106c957600080fd5b506106e460048036038101906106df9190615b57565b611607565b6040516106f1919061661f565b60405180910390f35b34801561070657600080fd5b50610721600480360381019061071c919061566b565b611644565b60405161072e9190616c7f565b60405180910390f35b34801561074357600080fd5b5061074c61170a565b6040516107599190616c7f565b60405180910390f35b34801561076e57600080fd5b5061078960048036038101906107849190615b57565b6117c7565b604051610796919061661f565b60405180910390f35b3480156107ab57600080fd5b506107c660048036038101906107c19190615552565b61181b565b005b3480156107d457600080fd5b506107ef60048036038101906107ea9190615552565b611939565b6040516107fc9190616c7f565b60405180910390f35b34801561081157600080fd5b5061081a6119f8565b005b34801561082857600080fd5b50610843600480360381019061083e9190615b57565b611b50565b604051610850919061661f565b60405180910390f35b34801561086557600080fd5b5061086e611b62565b60405161087b919061661f565b60405180910390f35b34801561089057600080fd5b506108ab60048036038101906108a69190615552565b611b88565b6040516108b89190616c7f565b60405180910390f35b3480156108cd57600080fd5b506108d6611bd1565b6040516108e3919061661f565b60405180910390f35b3480156108f857600080fd5b50610913600480360381019061090e9190615820565b611bfb565b6040516109209190616c7f565b60405180910390f35b34801561093557600080fd5b5061093e611cb3565b60405161094b919061687d565b60405180910390f35b34801561096057600080fd5b5061097b60048036038101906109769190615910565b611d55565b6040516109889190616862565b60405180910390f35b34801561099d57600080fd5b506109b860048036038101906109b39190615a3b565b611dc5565b005b3480156109c657600080fd5b506109e160048036038101906109dc9190615b57565b611f46565b6040516109ee9190616c7f565b60405180910390f35b348015610a0357600080fd5b50610a1e6004803603810190610a199190615552565b611f63565b005b348015610a2c57600080fd5b50610a476004803603810190610a429190615552565b612081565b005b348015610a5557600080fd5b50610a706004803603810190610a6b91906159c0565b61219f565b005b348015610a7e57600080fd5b50610a996004803603810190610a949190615b57565b612201565b604051610aa6919061687d565b60405180910390f35b348015610abb57600080fd5b50610ad66004803603810190610ad19190615be5565b6122fe565b005b348015610ae457600080fd5b50610aff6004803603810190610afa9190615552565b612458565b005b348015610b0d57600080fd5b50610b286004803603810190610b23919061574d565b612576565b604051610b359190616862565b60405180910390f35b348015610b4a57600080fd5b50610b656004803603810190610b609190615552565b6125e2565b005b348015610b7357600080fd5b50610b8e6004803603810190610b899190615ab3565b6126bd565b005b348015610b9c57600080fd5b50610bb76004803603810190610bb2919061562f565b6127a8565b604051610bc49190616862565b60405180910390f35b348015610bd957600080fd5b50610bf46004803603810190610bef9190615552565b61283c565b005b348015610c0257600080fd5b50610c1d6004803603810190610c189190615b57565b612a03565b604051610c2a9190616c7f565b60405180910390f35b6000806000837bffffffffffffffffffffffffffffffffffffffffffffffffffffffff19167bffffffffffffffffffffffffffffffffffffffffffffffffffffffff1916815260200190815260200160002060009054906101000a900460ff169050919050565b601360009054906101000a900460ff1615610cea576040517f08c379a0000000000000000000000000000000000000000000000000000000008152600401610ce190616b9f565b60405180910390fd5b81610cfc610cf6612a5c565b82612a6b565b610d3b576040517f08c379a0000000000000000000000000000000000000000000000000000000008152600401610d3290616c3f565b60405180910390fd5b610d458383612b49565b505050565b606060068054600181600116156101000203166002900480601f016020809104026020016040519081016040528092919081815260200182805460018160011615610100020316600290048015610de25780601f10610db757610100808354040283529160200191610de2565b820191906000526020600020905b815481529060010190602001808311610dc557829003601f168201915b5050505050905090565b6000610df782612beb565b610e36576040517f08c379a0000000000000000000000000000000000000000000000000000000008152600401610e2d90616bff565b60405180910390fd5b6004600083815260200190815260200160002060009054906101000a900473ffffffffffffffffffffffffffffffffffffffff169050919050565b6000610e7c826117c7565b90508073ffffffffffffffffffffffffffffffffffffffff168373ffffffffffffffffffffffffffffffffffffffff161415610eed576040517f08c379a0000000000000000000000000000000000000000000000000000000008152600401610ee490616c5f565b60405180910390fd5b8073ffffffffffffffffffffffffffffffffffffffff16610f0c612a5c565b73ffffffffffffffffffffffffffffffffffffffff161480610f3b5750610f3a81610f35612a5c565b6127a8565b5b610f7a576040517f08c379a0000000000000000000000000000000000000000000000000000000008152600401610f7190616adf565b60405180910390fd5b610f848383612c08565b505050565b610f91612a5c565b73ffffffffffffffffffffffffffffffffffffffff16600960009054906101000a900473ffffffffffffffffffffffffffffffffffffffff1673ffffffffffffffffffffffffffffffffffffffff1614611020576040517f08c379a000000000000000000000000000000000000000000000000000000000815260040161101790616a7f565b60405180910390fd5b61102b838383612cc1565b505050565b600061103c6002612e56565b905090565b60006002600b541415611089576040517f08c379a000000000000000000000000000000000000000000000000000000000815260040161108090616c1f565b60405180910390fd5b6002600b81905550601360009054906101000a900460ff16156110e1576040517f08c379a00000000000000000000000000000000000000000000000000000000081526004016110d890616b9f565b60405180910390fd5b6110eb8383612e6b565b50505050505050600190506001600b8190555092915050565b61111561110f612a5c565b82612a6b565b611154576040517f08c379a000000000000000000000000000000000000000000000000000000000815260040161114b90616adf565b60405180910390fd5b61115f838383612f98565b505050565b600060126000838152602001908152602001600020549050919050565b6000601360009054906101000a900460ff16156111d3576040517f08c379a00000000000000000000000000000000000000000000000000000000081526004016111ca90616b9f565b60405180910390fd5b6111e184848460008061303a565b90509392505050565b6000601360009054906101000a900460ff161561123c576040517f08c379a000000000000000000000000000000000000000000000000000000000815260040161123390616b9f565b60405180910390fd5b61124a84848460008061303a565b90509392505050565b60006112a682600160008673ffffffffffffffffffffffffffffffffffffffff1673ffffffffffffffffffffffffffffffffffffffff1681526020019081526020016000206130f990919063ffffffff16565b905092915050565b601360009054906101000a900460ff16156112fe576040517f08c379a00000000000000000000000000000000000000000000000000000000081526004016112f590616b9f565b60405180910390fd5b81611307612a5c565b73ffffffffffffffffffffffffffffffffffffffff16600d600083815260200190815260200160002060009054906101000a900473ffffffffffffffffffffffffffffffffffffffff1673ffffffffffffffffffffffffffffffffffffffff16146113a7576040517f08c379a000000000000000000000000000000000000000000000000000000000815260040161139e90616aff565b60405180910390fd5b81600f600085815260200190815260200160002060006101000a81548173ffffffffffffffffffffffffffffffffffffffff021916908373ffffffffffffffffffffffffffffffffffffffff160217905550505050565b611406612a5c565b73ffffffffffffffffffffffffffffffffffffffff16600960009054906101000a900473ffffffffffffffffffffffffffffffffffffffff1673ffffffffffffffffffffffffffffffffffffffff1614611495576040517f08c379a000000000000000000000000000000000000000000000000000000000815260040161148c90616a7f565b60405180910390fd5b6114a0838383613113565b505050565b6114c08383836040518060200160405280600081525061219f565b505050565b60606040518060600160405280602e8152602001616f73602e9139905090565b6000806114fc83600261330f90919063ffffffff16565b50905080915050919050565b611510612a5c565b73ffffffffffffffffffffffffffffffffffffffff16600960009054906101000a900473ffffffffffffffffffffffffffffffffffffffff1673ffffffffffffffffffffffffffffffffffffffff161461159f576040517f08c379a000000000000000000000000000000000000000000000000000000000815260040161159690616a7f565b60405180910390fd5b6115a9828261333b565b5050565b6000600a60009054906101000a900473ffffffffffffffffffffffffffffffffffffffff1673ffffffffffffffffffffffffffffffffffffffff168273ffffffffffffffffffffffffffffffffffffffff16149050919050565b6000600d600083815260200190815260200160002060009054906101000a900473ffffffffffffffffffffffffffffffffffffffff169050919050565b60006002600b54141561168c576040517f08c379a000000000000000000000000000000000000000000000000000000000815260040161168390616c1f565b60405180910390fd5b6002600b81905550601360009054906101000a900460ff16156116e4576040517f08c379a00000000000000000000000000000000000000000000000000000000081526004016116db90616b9f565b60405180910390fd5b6116f4898989898989898961342d565b90506001600b8190555098975050505050505050565b60006002600b541415611752576040517f08c379a000000000000000000000000000000000000000000000000000000000815260040161174990616c1f565b60405180910390fd5b6002600b81905550601360009054906101000a900460ff16156117aa576040517f08c379a00000000000000000000000000000000000000000000000000000000081526004016117a190616b9f565b60405180910390fd5b6117ba6117b5612a5c565b613586565b90506001600b8190555090565b6000611814826040518060400160405280600c81526020017f4552433732313a452d343035000000000000000000000000000000000000000081525060026136d19092919063ffffffff16565b9050919050565b611823612a5c565b73ffffffffffffffffffffffffffffffffffffffff16600960009054906101000a900473ffffffffffffffffffffffffffffffffffffffff1673ffffffffffffffffffffffffffffffffffffffff16146118b2576040517f08c379a00000000000000000000000000000000000000000000000000000000081526004016118a990616a7f565b60405180910390fd5b80601660006101000a81548173ffffffffffffffffffffffffffffffffffffffff021916908373ffffffffffffffffffffffffffffffffffffffff1602179055508073ffffffffffffffffffffffffffffffffffffffff167f5ce0e6b7fd36339ee97339831b6c72694ecee88c62aab49919d9cabe0a732e4160405160405180910390a250565b60008073ffffffffffffffffffffffffffffffffffffffff168273ffffffffffffffffffffffffffffffffffffffff1614156119aa576040517f08c379a00000000000000000000000000000000000000000000000000000000081526004016119a1906168ff565b60405180910390fd5b6119f1600160008473ffffffffffffffffffffffffffffffffffffffff1673ffffffffffffffffffffffffffffffffffffffff1681526020019081526020016000206136f0565b9050919050565b611a00612a5c565b73ffffffffffffffffffffffffffffffffffffffff16600960009054906101000a900473ffffffffffffffffffffffffffffffffffffffff1673ffffffffffffffffffffffffffffffffffffffff1614611a8f576040517f08c379a0000000000000000000000000000000000000000000000000000000008152600401611a8690616a7f565b60405180910390fd5b600073ffffffffffffffffffffffffffffffffffffffff16600960009054906101000a900473ffffffffffffffffffffffffffffffffffffffff1673ffffffffffffffffffffffffffffffffffffffff167f8be0079c531659141344cd1fd0a4f28419497f9722a3daafe3b4186f6b6457e060405160405180910390a36000600960006101000a81548173ffffffffffffffffffffffffffffffffffffffff021916908373ffffffffffffffffffffffffffffffffffffffff160217905550565b6000611b5b82613705565b9050919050565b600a60009054906101000a900473ffffffffffffffffffffffffffffffffffffffff1681565b6000601060008373ffffffffffffffffffffffffffffffffffffffff1673ffffffffffffffffffffffffffffffffffffffff168152602001908152602001600020549050919050565b6000600960009054906101000a900473ffffffffffffffffffffffffffffffffffffffff16905090565b6000611c0a878787868661303a565b90506000841115611ca957601560009054906101000a900473ffffffffffffffffffffffffffffffffffffffff1673ffffffffffffffffffffffffffffffffffffffff166315aea5d730838a886040518563ffffffff1660e01b8152600401611c7694939291906166af565b600060405180830381600087803b158015611c9057600080fd5b505af1158015611ca4573d6000803e3d6000fd5b505050505b9695505050505050565b606060078054600181600116156101000203166002900480601f016020809104026020016040519081016040528092919081815260200182805460018160011615610100020316600290048015611d4b5780601f10611d2057610100808354040283529160200191611d4b565b820191906000526020600020905b815481529060010190602001808311611d2e57829003601f168201915b5050505050905090565b6000601360009054906101000a900460ff1615611da7576040517f08c379a0000000000000000000000000000000000000000000000000000000008152600401611d9e90616b9f565b60405180910390fd5b611db6888888888888886137b3565b60019050979650505050505050565b611dcd612a5c565b73ffffffffffffffffffffffffffffffffffffffff168273ffffffffffffffffffffffffffffffffffffffff161415611e3b576040517f08c379a0000000000000000000000000000000000000000000000000000000008152600401611e3290616c5f565b60405180910390fd5b8060056000611e48612a5c565b73ffffffffffffffffffffffffffffffffffffffff1673ffffffffffffffffffffffffffffffffffffffff16815260200190815260200160002060008473ffffffffffffffffffffffffffffffffffffffff1673ffffffffffffffffffffffffffffffffffffffff16815260200190815260200160002060006101000a81548160ff0219169083151502179055508173ffffffffffffffffffffffffffffffffffffffff16611ef5612a5c565b73ffffffffffffffffffffffffffffffffffffffff167f17307eab39ab6107e8899845ad3d59bd9653f200f220920489ca2b5937696c3183604051611f3a9190616862565b60405180910390a35050565b6000600e6000838152602001908152602001600020549050919050565b611f6b612a5c565b73ffffffffffffffffffffffffffffffffffffffff16600960009054906101000a900473ffffffffffffffffffffffffffffffffffffffff1673ffffffffffffffffffffffffffffffffffffffff1614611ffa576040517f08c379a0000000000000000000000000000000000000000000000000000000008152600401611ff190616a7f565b60405180910390fd5b80601360016101000a81548173ffffffffffffffffffffffffffffffffffffffff021916908373ffffffffffffffffffffffffffffffffffffffff1602179055508073ffffffffffffffffffffffffffffffffffffffff167ff28fa0fe2abe5dad2066ebce6edc9d403e4facb3603e47e6c0e7ea3e57dfe03260405160405180910390a250565b612089612a5c565b73ffffffffffffffffffffffffffffffffffffffff16600960009054906101000a900473ffffffffffffffffffffffffffffffffffffffff1673ffffffffffffffffffffffffffffffffffffffff1614612118576040517f08c379a000000000000000000000000000000000000000000000000000000000815260040161210f90616a7f565b60405180910390fd5b80601460006101000a81548173ffffffffffffffffffffffffffffffffffffffff021916908373ffffffffffffffffffffffffffffffffffffffff1602179055508073ffffffffffffffffffffffffffffffffffffffff167f62ff39aed768a426c7582b6e1062ab2631df1869b2d574e36f8274d2e2b0ab8160405160405180910390a250565b6121b06121aa612a5c565b83612a6b565b6121ef576040517f08c379a00000000000000000000000000000000000000000000000000000000081526004016121e690616adf565b60405180910390fd5b6121fb848484846138a6565b50505050565b606061220c82612beb565b61224b576040517f08c379a000000000000000000000000000000000000000000000000000000000815260040161224290616bff565b60405180910390fd5b600860008381526020019081526020016000208054600181600116156101000203166002900480601f0160208091040260200160405190810160405280929190818152602001828054600181600116156101000203166002900480156122f25780601f106122c7576101008083540402835291602001916122f2565b820191906000526020600020905b8154815290600101906020018083116122d557829003601f168201915b50505050509050919050565b601360009054906101000a900460ff161561234e576040517f08c379a000000000000000000000000000000000000000000000000000000000815260040161234590616b9f565b60405180910390fd5b81612357612a5c565b73ffffffffffffffffffffffffffffffffffffffff16600d600083815260200190815260200160002060009054906101000a900473ffffffffffffffffffffffffffffffffffffffff1673ffffffffffffffffffffffffffffffffffffffff16146123f7576040517f08c379a00000000000000000000000000000000000000000000000000000000081526004016123ee90616aff565b60405180910390fd5b82612409612403612a5c565b82612a6b565b612448576040517f08c379a000000000000000000000000000000000000000000000000000000000815260040161243f90616c3f565b60405180910390fd5b6124528484613902565b50505050565b612460612a5c565b73ffffffffffffffffffffffffffffffffffffffff16600960009054906101000a900473ffffffffffffffffffffffffffffffffffffffff1673ffffffffffffffffffffffffffffffffffffffff16146124ef576040517f08c379a00000000000000000000000000000000000000000000000000000000081526004016124e690616a7f565b60405180910390fd5b80601560006101000a81548173ffffffffffffffffffffffffffffffffffffffff021916908373ffffffffffffffffffffffffffffffffffffffff1602179055508073ffffffffffffffffffffffffffffffffffffffff167f7ad4c1bc3e874ec0bf47846feb5648b384e8511dc9e5f9803578c9d2b4ec9e6e60405160405180910390a250565b6000601360009054906101000a900460ff16156125c8576040517f08c379a00000000000000000000000000000000000000000000000000000000081526004016125bf90616b9f565b60405180910390fd5b6125d685856000868661399b565b60019050949350505050565b6125ea612a5c565b73ffffffffffffffffffffffffffffffffffffffff16600960009054906101000a900473ffffffffffffffffffffffffffffffffffffffff1673ffffffffffffffffffffffffffffffffffffffff1614612679576040517f08c379a000000000000000000000000000000000000000000000000000000000815260040161267090616a7f565b60405180910390fd5b80600a60006101000a81548173ffffffffffffffffffffffffffffffffffffffff021916908373ffffffffffffffffffffffffffffffffffffffff16021790555050565b6126c5612a5c565b73ffffffffffffffffffffffffffffffffffffffff16600960009054906101000a900473ffffffffffffffffffffffffffffffffffffffff1673ffffffffffffffffffffffffffffffffffffffff1614612754576040517f08c379a000000000000000000000000000000000000000000000000000000000815260040161274b90616a7f565b60405180910390fd5b80601360006101000a81548160ff0219169083151502179055507fa9bfed3d98385b3777389e321dbde773cf7d335fa604fefbae3dca93564f55868160405161279d9190616862565b60405180910390a150565b6000600560008473ffffffffffffffffffffffffffffffffffffffff1673ffffffffffffffffffffffffffffffffffffffff16815260200190815260200160002060008373ffffffffffffffffffffffffffffffffffffffff1673ffffffffffffffffffffffffffffffffffffffff16815260200190815260200160002060009054906101000a900460ff16905092915050565b612844612a5c565b73ffffffffffffffffffffffffffffffffffffffff16600960009054906101000a900473ffffffffffffffffffffffffffffffffffffffff1673ffffffffffffffffffffffffffffffffffffffff16146128d3576040517f08c379a00000000000000000000000000000000000000000000000000000000081526004016128ca90616a7f565b60405180910390fd5b600073ffffffffffffffffffffffffffffffffffffffff168173ffffffffffffffffffffffffffffffffffffffff161415612943576040517f08c379a000000000000000000000000000000000000000000000000000000000815260040161293a906168bf565b60405180910390fd5b8073ffffffffffffffffffffffffffffffffffffffff16600960009054906101000a900473ffffffffffffffffffffffffffffffffffffffff1673ffffffffffffffffffffffffffffffffffffffff167f8be0079c531659141344cd1fd0a4f28419497f9722a3daafe3b4186f6b6457e060405160405180910390a380600960006101000a81548173ffffffffffffffffffffffffffffffffffffffff021916908373ffffffffffffffffffffffffffffffffffffffff16021790555050565b600060116000838152602001908152602001600020549050919050565b60006018600036905010158015612a3c5750612a3b336115ad565b5b15612a5057601436033560601c9050612a58565b339050612a59565b5b90565b6000612a66612a20565b905090565b6000612a7682612beb565b612ab5576040517f08c379a0000000000000000000000000000000000000000000000000000000008152600401612aac90616bff565b60405180910390fd5b6000612ac0836117c7565b90508073ffffffffffffffffffffffffffffffffffffffff168473ffffffffffffffffffffffffffffffffffffffff161480612b2f57508373ffffffffffffffffffffffffffffffffffffffff16612b1784610dec565b73ffffffffffffffffffffffffffffffffffffffff16145b80612b405750612b3f81856127a8565b5b91505092915050565b612b538282613a33565b601460009054906101000a900473ffffffffffffffffffffffffffffffffffffffff1673ffffffffffffffffffffffffffffffffffffffff1663d4bf99163084600085116040518463ffffffff1660e01b8152600401612bb5939291906166f4565b600060405180830381600087803b158015612bcf57600080fd5b505af1158015612be3573d6000803e3d6000fd5b505050505050565b6000612c01826002613a8790919063ffffffff16565b9050919050565b816004600083815260200190815260200160002060006101000a81548173ffffffffffffffffffffffffffffffffffffffff021916908373ffffffffffffffffffffffffffffffffffffffff160217905550808273ffffffffffffffffffffffffffffffffffffffff16612c7b836117c7565b73ffffffffffffffffffffffffffffffffffffffff167f8c5be1e5ebec7d5bd14f71427d1e84f3dd0314c0f7b2291e5b200ac8c7c3b92560405160405180910390a45050565b600073ffffffffffffffffffffffffffffffffffffffff168373ffffffffffffffffffffffffffffffffffffffff161415612d31576040517f08c379a0000000000000000000000000000000000000000000000000000000008152600401612d28906168df565b60405180910390fd5b808273ffffffffffffffffffffffffffffffffffffffff166370a08231306040518263ffffffff1660e01b8152600401612d6b919061661f565b60206040518083038186803b158015612d8357600080fd5b505afa158015612d97573d6000803e3d6000fd5b505050506040513d601f19601f82011682018060405250810190612dbb9190615b80565b10612e5157612deb83828473ffffffffffffffffffffffffffffffffffffffff16613aa19092919063ffffffff16565b8173ffffffffffffffffffffffffffffffffffffffff168373ffffffffffffffffffffffffffffffffffffffff167f6c9d637297625e945b296ff73a71fcfbd0a9e062652b6491a921c4c60194176b83604051612e489190616c7f565b60405180910390a35b505050565b6000612e6482600001613b27565b9050919050565b6000806000806000806000612e808989613b38565b809750819850829950839a50849b50859c50869d5050505050505050600073ffffffffffffffffffffffffffffffffffffffff16601360019054906101000a900473ffffffffffffffffffffffffffffffffffffffff1673ffffffffffffffffffffffffffffffffffffffff1614612f8c57601360019054906101000a900473ffffffffffffffffffffffffffffffffffffffff1673ffffffffffffffffffffffffffffffffffffffff16638b9309b2888888888888886040518863ffffffff1660e01b8152600401612f5997969594939291906167f3565b600060405180830381600087803b158015612f7357600080fd5b505af1158015612f87573d6000803e3d6000fd5b505050505b92959891949750929550565b601460009054906101000a900473ffffffffffffffffffffffffffffffffffffffff1673ffffffffffffffffffffffffffffffffffffffff1663d4bf9916308360006040518463ffffffff1660e01b8152600401612ff8939291906166f4565b600060405180830381600087803b15801561301257600080fd5b505af1158015613026573d6000803e3d6000fd5b50505050613035838383613e15565b505050565b6000613046600c613e3e565b613050600c613e54565b905061306c858260405180602001604052806000815250613e62565b85600d600083815260200190815260200160002060006101000a81548173ffffffffffffffffffffffffffffffffffffffff021916908373ffffffffffffffffffffffffffffffffffffffff1602179055506130c88185613ebd565b60008311156130dc576130db8184613902565b5b60008211156130f0576130ef8183612b49565b5b95945050505050565b60006131088360000183613f31565b60001c905092915050565b600073ffffffffffffffffffffffffffffffffffffffff168373ffffffffffffffffffffffffffffffffffffffff161415613183576040517f08c379a000000000000000000000000000000000000000000000000000000000815260040161317a906168df565b60405180910390fd5b3073ffffffffffffffffffffffffffffffffffffffff168273ffffffffffffffffffffffffffffffffffffffff16636352211e836040518263ffffffff1660e01b81526004016131d39190616c7f565b60206040518083038186803b1580156131eb57600080fd5b505afa1580156131ff573d6000803e3d6000fd5b505050506040513d601f19601f82011682018060405250810190613223919061557b565b73ffffffffffffffffffffffffffffffffffffffff16141561330a578173ffffffffffffffffffffffffffffffffffffffff166323b872dd3085846040518463ffffffff1660e01b815260040161327c93929190616793565b600060405180830381600087803b15801561329657600080fd5b505af11580156132aa573d6000803e3d6000fd5b50505050808273ffffffffffffffffffffffffffffffffffffffff168473ffffffffffffffffffffffffffffffffffffffff167ffefe036cac4ee3a4aca074a81cbcc4376e1484693289078dbec149c890101d5b60405160405180910390a45b505050565b6000806000806133228660000186613f9e565b915091508160001c8160001c9350935050509250929050565b600073ffffffffffffffffffffffffffffffffffffffff168273ffffffffffffffffffffffffffffffffffffffff1614156133ab576040517f08c379a00000000000000000000000000000000000000000000000000000000081526004016133a2906168df565b60405180910390fd5b804710613429576133db818373ffffffffffffffffffffffffffffffffffffffff1661402190919063ffffffff16565b8173ffffffffffffffffffffffffffffffffffffffff167eddb683bb45cd5d0ad8a200c6fae7152b1c236ee90a4a37db692407f5cc38bd826040516134209190616c7f565b60405180910390a25b5050565b60008073ffffffffffffffffffffffffffffffffffffffff16601660009054906101000a900473ffffffffffffffffffffffffffffffffffffffff1673ffffffffffffffffffffffffffffffffffffffff1614156134c0576040517f08c379a00000000000000000000000000000000000000000000000000000000081526004016134b790616b3f565b60405180910390fd5b6134ce89898860008061303a565b9050600082111561356d57601560009054906101000a900473ffffffffffffffffffffffffffffffffffffffff1673ffffffffffffffffffffffffffffffffffffffff166315aea5d730838c866040518563ffffffff1660e01b815260040161353a94939291906166af565b600060405180830381600087803b15801561355457600080fd5b505af1158015613568573d6000803e3d6000fd5b505050505b61357a818686868b614115565b98975050505050505050565b600080601060008473ffffffffffffffffffffffffffffffffffffffff1673ffffffffffffffffffffffffffffffffffffffff1681526020019081526020016000205490506000811161360e576040517f08c379a000000000000000000000000000000000000000000000000000000000815260040161360590616b7f565b60405180910390fd5b601060008473ffffffffffffffffffffffffffffffffffffffff1673ffffffffffffffffffffffffffffffffffffffff1681526020019081526020016000206000905561367d8160008573ffffffffffffffffffffffffffffffffffffffff166142969092919063ffffffff16565b8273ffffffffffffffffffffffffffffffffffffffff167f8fbbda19f4a70036f6f585dc4160142a8fa2a20ffb9393d23274f78de4e39888826040516136c39190616c7f565b60405180910390a250919050565b60006136e4846000018460001b84614402565b60001c90509392505050565b60006136fe82600001614493565b9050919050565b600080600f600084815260200190815260200160002060009054906101000a900473ffffffffffffffffffffffffffffffffffffffff169050600073ffffffffffffffffffffffffffffffffffffffff168173ffffffffffffffffffffffffffffffffffffffff1614156137aa57600d600084815260200190815260200160002060009054906101000a900473ffffffffffffffffffffffffffffffffffffffff1690505b80915050919050565b8181905084849050146137fb576040517f08c379a00000000000000000000000000000000000000000000000000000000081526004016137f29061693f565b60405180910390fd5b600084849050905060005b8181101561389b5761388d898988888581811061381f57fe5b90506020028101906138319190616cd1565b8080601f016020809104026020016040519081016040528093929190818152602001838380828437600081840152601f19601f820116905080830192505050505050508a88888781811061388157fe5b9050602002013561303a565b508080600101915050613806565b505050505050505050565b6138b1848484612f98565b6138bd848484846144a4565b6138fc576040517f08c379a00000000000000000000000000000000000000000000000000000000081526004016138f3906169ff565b60405180910390fd5b50505050565b612710811115613947576040517f08c379a000000000000000000000000000000000000000000000000000000000815260040161393e906169df565b60405180910390fd5b80600e600084815260200190815260200160002081905550817fd91bd92b973231f564eaa17c9bc62c86b96a8885f3cdcb990d5a3f0415580d908260405161398f9190616c7f565b60405180910390a25050565b600082829050905060005b81811015613a2a57613a1c87878686858181106139bf57fe5b90506020028101906139d19190616cd1565b8080601f016020809104026020016040519081016040528093929190818152602001838380828437600081840152601f19601f8201169050808301925050505050505088600061303a565b5080806001019150506139a6565b50505050505050565b806011600084815260200190815260200160002081905550817fe23ea816dce6d7f5c0b85cbd597e7c3b97b2453791152c0b94e5e5c5f314d2f082604051613a7b9190616c7f565b60405180910390a25050565b6000613a99836000018360001b614625565b905092915050565b613b228363a9059cbb60e01b8484604051602401613ac09291906167ca565b604051602081830303815290604052907bffffffffffffffffffffffffffffffffffffffffffffffffffffffff19166020820180517bffffffffffffffffffffffffffffffffffffffffffffffffffffffff8381831617835250505050614648565b505050565b600081600001805490509050919050565b6000806000806000806000309650889550601160008a815260200190815260200160002054925060008311613ba2576040517f08c379a0000000000000000000000000000000000000000000000000000000008152600401613b99906169bf565b60405180910390fd5b82341015613be5576040517f08c379a0000000000000000000000000000000000000000000000000000000008152600401613bdc9061699f565b60405180910390fd5b6000839050613bf38a6117c7565b9550613bfd612a5c565b9450613c088a613705565b92506000600e60008c81526020019081526020016000205490506000601260008d8152602001908152602001600020549050600082118015613c4a5750600081115b8015613c5557508086115b15613c9b57613c83612710613c7584848a0361470f90919063ffffffff16565b61477f90919063ffffffff16565b9350613c9884846147c990919063ffffffff16565b92505b85601260008e8152602001908152602001600020819055506000841115613d5257613d0e84601060008873ffffffffffffffffffffffffffffffffffffffff1673ffffffffffffffffffffffffffffffffffffffff1681526020019081526020016000205461481390919063ffffffff16565b601060008773ffffffffffffffffffffffffffffffffffffffff1673ffffffffffffffffffffffffffffffffffffffff168152602001908152602001600020819055505b613d5d88888e612f98565b6000831115613d9257613d91838c8a73ffffffffffffffffffffffffffffffffffffffff166142969092919063ffffffff16565b5b8673ffffffffffffffffffffffffffffffffffffffff168873ffffffffffffffffffffffffffffffffffffffff168d7f71a2ee63bc7695052e3a9837d5a45dd1cc0ce12717e39cef6eb6afb0d91697ed898989604051613df493929190616c9a565b60405180910390a4613e06868c614868565b50505092959891949750929550565b60006011600083815260200190815260200160002081905550613e398383836148c0565b505050565b6001816000016000828254019250508190555050565b600081600001549050919050565b613e6c8383614acc565b613e7960008484846144a4565b613eb8576040517f08c379a0000000000000000000000000000000000000000000000000000000008152600401613eaf906169ff565b60405180910390fd5b505050565b613ec682612beb565b613f05576040517f08c379a0000000000000000000000000000000000000000000000000000000008152600401613efc90616bff565b60405180910390fd5b80600860008481526020019081526020016000209080519060200190613f2c9291906152bc565b505050565b600081836000018054905011613f7c576040517f08c379a0000000000000000000000000000000000000000000000000000000008152600401613f739061689f565b60405180910390fd5b826000018281548110613f8b57fe5b9060005260206000200154905092915050565b60008082846000018054905011613fea576040517f08c379a0000000000000000000000000000000000000000000000000000000008152600401613fe190616a1f565b60405180910390fd5b6000846000018481548110613ffb57fe5b906000526020600020906002020190508060000154816001015492509250509250929050565b80471015614064576040517f08c379a000000000000000000000000000000000000000000000000000000000815260040161405b9061697f565b60405180910390fd5b60008273ffffffffffffffffffffffffffffffffffffffff168260405161408a9061660a565b60006040518083038185875af1925050503d80600081146140c7576040519150601f19603f3d011682016040523d82523d6000602084013e6140cc565b606091505b5050905080614110576040517f08c379a00000000000000000000000000000000000000000000000000000000081526004016141079061695f565b60405180910390fd5b505050565b614127614120612a5c565b8484614c4e565b8273ffffffffffffffffffffffffffffffffffffffff1663095ea7b3601660009054906101000a900473ffffffffffffffffffffffffffffffffffffffff16846040518363ffffffff1660e01b81526004016141849291906167ca565b602060405180830381600087803b15801561419e57600080fd5b505af11580156141b2573d6000803e3d6000fd5b505050506040513d601f19601f820116820180604052508101906141d69190615adc565b50601660009054906101000a900473ffffffffffffffffffffffffffffffffffffffff1673ffffffffffffffffffffffffffffffffffffffff16630bdde2ca3087878787876040518763ffffffff1660e01b815260040161423c9695949392919061672b565b602060405180830381600087803b15801561425657600080fd5b505af115801561426a573d6000803e3d6000fd5b505050506040513d601f19601f8201168201806040525081019061428e9190615b80565b505050505050565b814710156142d9576040517f08c379a00000000000000000000000000000000000000000000000000000000081526004016142d090616a3f565b60405180910390fd5b600080821161434e578373ffffffffffffffffffffffffffffffffffffffff16836040516143069061660a565b60006040518083038185875af1925050503d8060008114614343576040519150601f19603f3d011682016040523d82523d6000602084013e614348565b606091505b506143b9565b8373ffffffffffffffffffffffffffffffffffffffff168383906040516143749061660a565b600060405180830381858888f193505050503d80600081146143b2576040519150601f19603f3d011682016040523d82523d6000602084013e6143b7565b606091505b505b509050806143fc576040517f08c379a00000000000000000000000000000000000000000000000000000000081526004016143f390616a9f565b60405180910390fd5b50505050565b60008084600101600085815260200190815260200160002054905060008114158390614464576040517f08c379a000000000000000000000000000000000000000000000000000000000815260040161445b919061687d565b60405180910390fd5b5084600001600182038154811061447757fe5b9060005260206000209060020201600101549150509392505050565b600081600001805490509050919050565b60006144c58473ffffffffffffffffffffffffffffffffffffffff16614df2565b6144d2576001905061461d565b60606145b663150b7a0260e01b6144e7612a5c565b8887876040516024016144fd949392919061663a565b604051602081830303815290604052907bffffffffffffffffffffffffffffffffffffffffffffffffffffffff19166020820180517bffffffffffffffffffffffffffffffffffffffffffffffffffffffff83818316178352505050506040518060400160405280600c81526020017f4552433732313a452d34303200000000000000000000000000000000000000008152508773ffffffffffffffffffffffffffffffffffffffff16614e059092919063ffffffff16565b90506000818060200190518101906145ce9190615b2e565b905063150b7a0260e01b7bffffffffffffffffffffffffffffffffffffffffffffffffffffffff1916817bffffffffffffffffffffffffffffffffffffffffffffffffffffffff191614925050505b949350505050565b600080836001016000848152602001908152602001600020541415905092915050565b60606146aa826040518060400160405280602081526020017f5361666545524332303a206c6f772d6c6576656c2063616c6c206661696c65648152508573ffffffffffffffffffffffffffffffffffffffff16614e059092919063ffffffff16565b905060008151111561470a57808060200190518101906146ca9190615adc565b614709576040517f08c379a000000000000000000000000000000000000000000000000000000000815260040161470090616bbf565b60405180910390fd5b5b505050565b6000808314156147225760009050614779565b600082840290508284828161473357fe5b0414614774576040517f08c379a000000000000000000000000000000000000000000000000000000000815260040161476b90616a5f565b60405180910390fd5b809150505b92915050565b60006147c183836040518060400160405280601a81526020017f536166654d6174683a206469766973696f6e206279207a65726f000000000000815250614e1d565b905092915050565b600061480b83836040518060400160405280601e81526020017f536166654d6174683a207375627472616374696f6e206f766572666c6f770000815250614e7e565b905092915050565b60008082840190508381101561485e576040517f08c379a00000000000000000000000000000000000000000000000000000000081526004016148559061691f565b60405180910390fd5b8091505092915050565b600061487d83346147c990919063ffffffff16565b905060008111156148bb576148ba8183614895612a5c565b73ffffffffffffffffffffffffffffffffffffffff166142969092919063ffffffff16565b5b505050565b8273ffffffffffffffffffffffffffffffffffffffff166148e0826117c7565b73ffffffffffffffffffffffffffffffffffffffff1614614936576040517f08c379a000000000000000000000000000000000000000000000000000000000815260040161492d90616b5f565b60405180910390fd5b600073ffffffffffffffffffffffffffffffffffffffff168273ffffffffffffffffffffffffffffffffffffffff1614156149a6576040517f08c379a000000000000000000000000000000000000000000000000000000000815260040161499d906168ff565b60405180910390fd5b6149b1600082612c08565b614a0281600160008673ffffffffffffffffffffffffffffffffffffffff1673ffffffffffffffffffffffffffffffffffffffff168152602001908152602001600020614ed990919063ffffffff16565b50614a5481600160008573ffffffffffffffffffffffffffffffffffffffff1673ffffffffffffffffffffffffffffffffffffffff168152602001908152602001600020614ef390919063ffffffff16565b50614a6b81836002614f0d9092919063ffffffff16565b50808273ffffffffffffffffffffffffffffffffffffffff168473ffffffffffffffffffffffffffffffffffffffff167fddf252ad1be2c89b69c2b068fc378daa952ba7f163c4a11628f55a4df523b3ef60405160405180910390a4505050565b600073ffffffffffffffffffffffffffffffffffffffff168273ffffffffffffffffffffffffffffffffffffffff161415614b3c576040517f08c379a0000000000000000000000000000000000000000000000000000000008152600401614b33906168ff565b60405180910390fd5b614b4581612beb565b15614b85576040517f08c379a0000000000000000000000000000000000000000000000000000000008152600401614b7c90616abf565b60405180910390fd5b614bd681600160008573ffffffffffffffffffffffffffffffffffffffff1673ffffffffffffffffffffffffffffffffffffffff168152602001908152602001600020614ef390919063ffffffff16565b50614bed81836002614f0d9092919063ffffffff16565b50808273ffffffffffffffffffffffffffffffffffffffff16600073ffffffffffffffffffffffffffffffffffffffff167fddf252ad1be2c89b69c2b068fc378daa952ba7f163c4a11628f55a4df523b3ef60405160405180910390a45050565b60008273ffffffffffffffffffffffffffffffffffffffff166370a08231856040518263ffffffff1660e01b8152600401614c89919061661f565b60206040518083038186803b158015614ca157600080fd5b505afa158015614cb5573d6000803e3d6000fd5b505050506040513d601f19601f82011682018060405250810190614cd99190615b80565b905080821115614d1e576040517f08c379a0000000000000000000000000000000000000000000000000000000008152600401614d1590616b7f565b60405180910390fd5b8273ffffffffffffffffffffffffffffffffffffffff166323b872dd8530856040518463ffffffff1660e01b8152600401614d5b93929190616793565b602060405180830381600087803b158015614d7557600080fd5b505af1158015614d89573d6000803e3d6000fd5b505050506040513d601f19601f82011682018060405250810190614dad9190615adc565b614dec576040517f08c379a0000000000000000000000000000000000000000000000000000000008152600401614de390616bdf565b60405180910390fd5b50505050565b600080823b905060008111915050919050565b6060614e148484600085614f42565b90509392505050565b60008083118290614e64576040517f08c379a0000000000000000000000000000000000000000000000000000000008152600401614e5b919061687d565b60405180910390fd5b506000838581614e7057fe5b049050809150509392505050565b6000838311158290614ec6576040517f08c379a0000000000000000000000000000000000000000000000000000000008152600401614ebd919061687d565b60405180910390fd5b5060008385039050809150509392505050565b6000614eeb836000018360001b615065565b905092915050565b6000614f05836000018360001b61514d565b905092915050565b6000614f39846000018460001b8473ffffffffffffffffffffffffffffffffffffffff1660001b6151bd565b90509392505050565b6060614f4d85614df2565b614f8c576040517f08c379a0000000000000000000000000000000000000000000000000000000008152600401614f8390616b1f565b60405180910390fd5b600060608673ffffffffffffffffffffffffffffffffffffffff168587604051614fb691906165f3565b60006040518083038185875af1925050503d8060008114614ff3576040519150601f19603f3d011682016040523d82523d6000602084013e614ff8565b606091505b5091509150811561500d57809250505061505d565b6000815111156150205780518082602001fd5b836040517f08c379a0000000000000000000000000000000000000000000000000000000008152600401615054919061687d565b60405180910390fd5b949350505050565b6000808360010160008481526020019081526020016000205490506000811461514157600060018203905060006001866000018054905003905060008660000182815481106150b057fe5b90600052602060002001549050808760000184815481106150cd57fe5b906000526020600020018190555060018301876001016000838152602001908152602001600020819055508660000180548061510557fe5b60019003818190600052602060002001600090559055866001016000878152602001908152602001600020600090556001945050505050615147565b60009150505b92915050565b60006151598383615299565b6151b25782600001829080600181540180825580915050600190039060005260206000200160009091909190915055826000018054905083600101600084815260200190815260200160002081905550600190506151b7565b600090505b92915050565b600080846001016000858152602001908152602001600020549050600081141561526457846000016040518060400160405280868152602001858152509080600181540180825580915050600190039060005260206000209060020201600090919091909150600082015181600001556020820151816001015550508460000180549050856001016000868152602001908152602001600020819055506001915050615292565b8285600001600183038154811061527757fe5b90600052602060002090600202016001018190555060009150505b9392505050565b600080836001016000848152602001908152602001600020541415905092915050565b828054600181600116156101000203166002900490600052602060002090601f016020900481019282601f106152fd57805160ff191683800117855561532b565b8280016001018555821561532b579182015b8281111561532a57825182559160200191906001019061530f565b5b509050615338919061533c565b5090565b5b8082111561535557600081600090555060010161533d565b5090565b60008135905061536881616eff565b92915050565b60008151905061537d81616eff565b92915050565b60008135905061539281616f16565b92915050565b60008083601f8401126153aa57600080fd5b8235905067ffffffffffffffff8111156153c357600080fd5b6020830191508360208202830111156153db57600080fd5b9250929050565b60008083601f8401126153f457600080fd5b8235905067ffffffffffffffff81111561540d57600080fd5b60208301915083602082028301111561542557600080fd5b9250929050565b60008135905061543b81616f2d565b92915050565b60008151905061545081616f2d565b92915050565b60008135905061546581616f44565b92915050565b60008151905061547a81616f44565b92915050565b600082601f83011261549157600080fd5b81356154a461549f82616d55565b616d28565b915080825260208301602083018583830111156154c057600080fd5b6154cb838284616eac565b50505092915050565b600082601f8301126154e557600080fd5b81356154f86154f382616d81565b616d28565b9150808252602083016020830185838301111561551457600080fd5b61551f838284616eac565b50505092915050565b60008135905061553781616f5b565b92915050565b60008151905061554c81616f5b565b92915050565b60006020828403121561556457600080fd5b600061557284828501615359565b91505092915050565b60006020828403121561558d57600080fd5b600061559b8482850161536e565b91505092915050565b6000806000606084860312156155b957600080fd5b60006155c786828701615383565b93505060206155d886828701615359565b92505060406155e986828701615528565b9150509250925092565b6000806040838503121561560657600080fd5b600061561485828601615383565b925050602061562585828601615528565b9150509250929050565b6000806040838503121561564257600080fd5b600061565085828601615359565b925050602061566185828601615359565b9150509250929050565b600080600080600080600080610100898b03121561568857600080fd5b60006156968b828c01615359565b98505060206156a78b828c01615359565b97505060406156b88b828c01615359565b965050606089013567ffffffffffffffff8111156156d557600080fd5b6156e18b828c016154d4565b955050608089013567ffffffffffffffff8111156156fe57600080fd5b61570a8b828c016154d4565b94505060a061571b8b828c01615359565b93505060c061572c8b828c01615528565b92505060e061573d8b828c01615528565b9150509295985092959890939650565b6000806000806060858703121561576357600080fd5b600061577187828801615359565b945050602061578287828801615359565b935050604085013567ffffffffffffffff81111561579f57600080fd5b6157ab87828801615398565b925092505092959194509250565b6000806000606084860312156157ce57600080fd5b60006157dc86828701615359565b93505060206157ed86828701615359565b925050604084013567ffffffffffffffff81111561580a57600080fd5b615816868287016154d4565b9150509250925092565b60008060008060008060c0878903121561583957600080fd5b600061584789828a01615359565b965050602061585889828a01615359565b955050604087013567ffffffffffffffff81111561587557600080fd5b61588189828a016154d4565b945050606061589289828a01615528565b93505060806158a389828a01615528565b92505060a06158b489828a01615528565b9150509295509295509295565b6000806000606084860312156158d657600080fd5b60006158e486828701615359565b93505060206158f586828701615359565b925050604061590686828701615528565b9150509250925092565b600080600080600080600060a0888a03121561592b57600080fd5b60006159398a828b01615359565b975050602061594a8a828b01615359565b965050604061595b8a828b01615528565b955050606088013567ffffffffffffffff81111561597857600080fd5b6159848a828b01615398565b9450945050608088013567ffffffffffffffff8111156159a357600080fd5b6159af8a828b016153e2565b925092505092959891949750929550565b600080600080608085870312156159d657600080fd5b60006159e487828801615359565b94505060206159f587828801615359565b9350506040615a0687828801615528565b925050606085013567ffffffffffffffff811115615a2357600080fd5b615a2f87828801615480565b91505092959194509250565b60008060408385031215615a4e57600080fd5b6000615a5c85828601615359565b9250506020615a6d8582860161542c565b9150509250929050565b60008060408385031215615a8a57600080fd5b6000615a9885828601615359565b9250506020615aa985828601615528565b9150509250929050565b600060208284031215615ac557600080fd5b6000615ad38482850161542c565b91505092915050565b600060208284031215615aee57600080fd5b6000615afc84828501615441565b91505092915050565b600060208284031215615b1757600080fd5b6000615b2584828501615456565b91505092915050565b600060208284031215615b4057600080fd5b6000615b4e8482850161546b565b91505092915050565b600060208284031215615b6957600080fd5b6000615b7784828501615528565b91505092915050565b600060208284031215615b9257600080fd5b6000615ba08482850161553d565b91505092915050565b60008060408385031215615bbc57600080fd5b6000615bca85828601615528565b9250506020615bdb85828601615359565b9150509250929050565b60008060408385031215615bf857600080fd5b6000615c0685828601615528565b9250506020615c1785828601615528565b9150509250929050565b615c2a81616e76565b82525050565b615c3981616e02565b82525050565b615c4881616df0565b82525050565b615c5781616e14565b82525050565b6000615c6882616dad565b615c728185616dc3565b9350615c82818560208601616ebb565b615c8b81616eee565b840191505092915050565b6000615ca182616dad565b615cab8185616dd4565b9350615cbb818560208601616ebb565b80840191505092915050565b6000615cd282616db8565b615cdc8185616ddf565b9350615cec818560208601616ebb565b615cf581616eee565b840191505092915050565b6000615d0d602283616ddf565b91507f456e756d657261626c655365743a20696e646578206f7574206f6620626f756e60008301527f64730000000000000000000000000000000000000000000000000000000000006020830152604082019050919050565b6000615d73602683616ddf565b91507f4f776e61626c653a206e6577206f776e657220697320746865207a65726f206160008301527f64647265737300000000000000000000000000000000000000000000000000006020830152604082019050919050565b6000615dd9600983616ddf565b91507f4248503a452d34303300000000000000000000000000000000000000000000006000830152602082019050919050565b6000615e19600c83616ddf565b91507f4552433732313a452d34303300000000000000000000000000000000000000006000830152602082019050919050565b6000615e59601b83616ddf565b91507f536166654d6174683a206164646974696f6e206f766572666c6f7700000000006000830152602082019050919050565b6000615e99600983616ddf565b91507f5052543a452d32303200000000000000000000000000000000000000000000006000830152602082019050919050565b6000615ed9603a83616ddf565b91507f416464726573733a20756e61626c6520746f2073656e642076616c75652c207260008301527f6563697069656e74206d617920686176652072657665727465640000000000006020830152604082019050919050565b6000615f3f601d83616ddf565b91507f416464726573733a20696e73756666696369656e742062616c616e63650000006000830152602082019050919050565b6000615f7f600983616ddf565b91507f5052543a452d34313400000000000000000000000000000000000000000000006000830152602082019050919050565b6000615fbf600983616ddf565b91507f5052543a452d34313600000000000000000000000000000000000000000000006000830152602082019050919050565b6000615fff600983616ddf565b91507f5052543a452d34323100000000000000000000000000000000000000000000006000830152602082019050919050565b600061603f600c83616ddf565b91507f4552433732313a452d34303200000000000000000000000000000000000000006000830152602082019050919050565b600061607f602283616ddf565b91507f456e756d657261626c654d61703a20696e646578206f7574206f6620626f756e60008301527f64730000000000000000000000000000000000000000000000000000000000006020830152604082019050919050565b60006160e5601f83616ddf565b91507f546f6b656e496e666f3a20696e73756666696369656e742062616c616e6365006000830152602082019050919050565b6000616125602183616ddf565b91507f536166654d6174683a206d756c7469706c69636174696f6e206f766572666c6f60008301527f77000000000000000000000000000000000000000000000000000000000000006020830152604082019050919050565b600061618b602083616ddf565b91507f4f776e61626c653a2063616c6c6572206973206e6f7420746865206f776e65726000830152602082019050919050565b60006161cb603c83616ddf565b91507f546f6b656e496e666f3a20756e61626c6520746f2073656e642076616c75652c60008301527f20726563697069656e74206d61792068617665207265766572746564000000006020830152604082019050919050565b6000616231600c83616ddf565b91507f4552433732313a452d34303700000000000000000000000000000000000000006000830152602082019050919050565b6000616271600c83616ddf565b91507f4552433732313a452d31303500000000000000000000000000000000000000006000830152602082019050919050565b60006162b1600983616ddf565b91507f5052543a452d31303400000000000000000000000000000000000000000000006000830152602082019050919050565b60006162f1600083616dd4565b9150600082019050919050565b600061630b601d83616ddf565b91507f416464726573733a2063616c6c20746f206e6f6e2d636f6e74726163740000006000830152602082019050919050565b600061634b600983616ddf565b91507f5052543a452d31303700000000000000000000000000000000000000000000006000830152602082019050919050565b600061638b600c83616ddf565b91507f4552433732313a452d31303200000000000000000000000000000000000000006000830152602082019050919050565b60006163cb600983616ddf565b91507f5052543a452d34313100000000000000000000000000000000000000000000006000830152602082019050919050565b600061640b600983616ddf565b91507f5052543a452d31303100000000000000000000000000000000000000000000006000830152602082019050919050565b600061644b602a83616ddf565b91507f5361666545524332303a204552433230206f7065726174696f6e20646964206e60008301527f6f742073756363656564000000000000000000000000000000000000000000006020830152604082019050919050565b60006164b1600983616ddf565b91507f5052543a452d34303100000000000000000000000000000000000000000000006000830152602082019050919050565b60006164f1600c83616ddf565b91507f4552433732313a452d34303500000000000000000000000000000000000000006000830152602082019050919050565b6000616531601f83616ddf565b91507f5265656e7472616e637947756172643a207265656e7472616e742063616c6c006000830152602082019050919050565b6000616571600983616ddf565b91507f5052543a452d31303500000000000000000000000000000000000000000000006000830152602082019050919050565b60006165b1600c83616ddf565b91507f4552433732313a452d31313100000000000000000000000000000000000000006000830152602082019050919050565b6165ed81616e6c565b82525050565b60006165ff8284615c96565b915081905092915050565b6000616615826162e4565b9150819050919050565b60006020820190506166346000830184615c3f565b92915050565b600060808201905061664f6000830187615c30565b61665c6020830186615c3f565b61666960408301856165e4565b818103606083015261667b8184615c5d565b905095945050505050565b600060408201905061669b6000830185615c21565b6166a860208301846165e4565b9392505050565b60006080820190506166c46000830187615c21565b6166d160208301866165e4565b6166de6040830185615c3f565b6166eb60608301846165e4565b95945050505050565b60006060820190506167096000830186615c21565b61671660208301856165e4565b6167236040830184615c4e565b949350505050565b600060c0820190506167406000830189615c21565b61674d60208301886165e4565b818103604083015261675f8187615cc7565b905061676e6060830186615c3f565b61677b60808301856165e4565b61678860a0830184615c3f565b979650505050505050565b60006060820190506167a86000830186615c3f565b6167b56020830185615c21565b6167c260408301846165e4565b949350505050565b60006040820190506167df6000830185615c3f565b6167ec60208301846165e4565b9392505050565b600060e082019050616808600083018a615c3f565b61681560208301896165e4565b6168226040830188615c3f565b61682f6060830187615c3f565b61683c60808301866165e4565b61684960a0830185615c3f565b61685660c08301846165e4565b98975050505050505050565b60006020820190506168776000830184615c4e565b92915050565b600060208201905081810360008301526168978184615cc7565b905092915050565b600060208201905081810360008301526168b881615d00565b9050919050565b600060208201905081810360008301526168d881615d66565b9050919050565b600060208201905081810360008301526168f881615dcc565b9050919050565b6000602082019050818103600083015261691881615e0c565b9050919050565b6000602082019050818103600083015261693881615e4c565b9050919050565b6000602082019050818103600083015261695881615e8c565b9050919050565b6000602082019050818103600083015261697881615ecc565b9050919050565b6000602082019050818103600083015261699881615f32565b9050919050565b600060208201905081810360008301526169b881615f72565b9050919050565b600060208201905081810360008301526169d881615fb2565b9050919050565b600060208201905081810360008301526169f881615ff2565b9050919050565b60006020820190508181036000830152616a1881616032565b9050919050565b60006020820190508181036000830152616a3881616072565b9050919050565b60006020820190508181036000830152616a58816160d8565b9050919050565b60006020820190508181036000830152616a7881616118565b9050919050565b60006020820190508181036000830152616a988161617e565b9050919050565b60006020820190508181036000830152616ab8816161be565b9050919050565b60006020820190508181036000830152616ad881616224565b9050919050565b60006020820190508181036000830152616af881616264565b9050919050565b60006020820190508181036000830152616b18816162a4565b9050919050565b60006020820190508181036000830152616b38816162fe565b9050919050565b60006020820190508181036000830152616b588161633e565b9050919050565b60006020820190508181036000830152616b788161637e565b9050919050565b60006020820190508181036000830152616b98816163be565b9050919050565b60006020820190508181036000830152616bb8816163fe565b9050919050565b60006020820190508181036000830152616bd88161643e565b9050919050565b60006020820190508181036000830152616bf8816164a4565b9050919050565b60006020820190508181036000830152616c18816164e4565b9050919050565b60006020820190508181036000830152616c3881616524565b9050919050565b60006020820190508181036000830152616c5881616564565b9050919050565b60006020820190508181036000830152616c78816165a4565b9050919050565b6000602082019050616c9460008301846165e4565b92915050565b6000606082019050616caf60008301866165e4565b616cbc6020830185615c3f565b616cc960408301846165e4565b949350505050565b60008083356001602003843603038112616cea57600080fd5b80840192508235915067ffffffffffffffff821115616d0857600080fd5b602083019250600182023603831315616d2057600080fd5b509250929050565b6000604051905081810181811067ffffffffffffffff82111715616d4b57600080fd5b8060405250919050565b600067ffffffffffffffff821115616d6c57600080fd5b601f19601f8301169050602081019050919050565b600067ffffffffffffffff821115616d9857600080fd5b601f19601f8301169050602081019050919050565b600081519050919050565b600081519050919050565b600082825260208201905092915050565b600081905092915050565b600082825260208201905092915050565b6000616dfb82616e4c565b9050919050565b6000616e0d82616e4c565b9050919050565b60008115159050919050565b60007fffffffff0000000000000000000000000000000000000000000000000000000082169050919050565b600073ffffffffffffffffffffffffffffffffffffffff82169050919050565b6000819050919050565b6000616e8182616e88565b9050919050565b6000616e9382616e9a565b9050919050565b6000616ea582616e4c565b9050919050565b82818337600083830152505050565b60005b83811015616ed9578082015181840152602081019050616ebe565b83811115616ee8576000848401525b50505050565b6000601f19601f8301169050919050565b616f0881616df0565b8114616f1357600080fd5b50565b616f1f81616e02565b8114616f2a57600080fd5b50565b616f3681616e14565b8114616f4157600080fd5b50565b616f4d81616e20565b8114616f5857600080fd5b50565b616f6481616e6c565b8114616f6f57600080fd5b5056fe312e302e302d626574612e312f636861726765642d7061727469636c65732e72656c61792e726563697069656e74a2646970667358221220e4b86a23bc8095927c9b4b3a791b90b78eda1784c65c3c6a47c3956be540f1d864736f6c634300060c0033",
  "linkReferences": {},
  "deployedLinkReferences": {}
}