{
  "_format": "hh-sol-artifact-1",
  "contractName": "BaseProton",
  "sourceName": "contracts/v1/lib/BaseProton.sol",
  "abi": [
    {
      "inputs": [
        {
          "internalType": "string",
          "name": "_name",
          "type": "string"
        },
        {
          "internalType": "string",
          "name": "_symbol",
          "type": "string"
        }
      ],
      "stateMutability": "nonpayable",
      "type": "constructor"
    },
    {
      "anonymous": false,
      "inputs": [
        {
          "indexed": true,
          "internalType": "address",
          "name": "owner",
          "type": "address"
        },
        {
          "indexed": true,
          "internalType": "address",
          "name": "approved",
          "type": "address"
        },
        {
          "indexed": true,
          "internalType": "uint256",
          "name": "tokenId",
          "type": "uint256"
        }
      ],
      "name": "Approval",
      "type": "event"
    },
    {
      "anonymous": false,
      "inputs": [
        {
          "indexed": true,
          "internalType": "address",
          "name": "owner",
          "type": "address"
        },
        {
          "indexed": true,
          "internalType": "address",
          "name": "operator",
          "type": "address"
        },
        {
          "indexed": false,
          "internalType": "bool",
          "name": "approved",
          "type": "bool"
        }
      ],
      "name": "ApprovalForAll",
      "type": "event"
    },
    {
      "anonymous": false,
      "inputs": [
        {
          "indexed": true,
          "internalType": "uint256",
          "name": "tokenId",
          "type": "uint256"
        },
        {
          "indexed": false,
          "internalType": "uint256",
          "name": "royaltiesPct",
          "type": "uint256"
        }
      ],
      "name": "CreatorRoyaltiesSet",
      "type": "event"
    },
    {
      "anonymous": false,
      "inputs": [
        {
          "indexed": true,
          "internalType": "address",
          "name": "receiver",
          "type": "address"
        },
        {
          "indexed": false,
          "internalType": "uint256",
          "name": "amount",
          "type": "uint256"
        }
      ],
      "name": "FeesWithdrawn",
      "type": "event"
    },
    {
      "anonymous": false,
      "inputs": [
        {
          "indexed": true,
          "internalType": "address",
          "name": "previousOwner",
          "type": "address"
        },
        {
          "indexed": true,
          "internalType": "address",
          "name": "newOwner",
          "type": "address"
        }
      ],
      "name": "OwnershipTransferred",
      "type": "event"
    },
    {
      "anonymous": false,
      "inputs": [
        {
          "indexed": false,
          "internalType": "bool",
          "name": "isPaused",
          "type": "bool"
        }
      ],
      "name": "PausedStateSet",
      "type": "event"
    },
    {
      "anonymous": false,
      "inputs": [
        {
          "indexed": true,
          "internalType": "uint256",
          "name": "tokenId",
          "type": "uint256"
        },
        {
          "indexed": true,
          "internalType": "address",
          "name": "oldOwner",
          "type": "address"
        },
        {
          "indexed": true,
          "internalType": "address",
          "name": "newOwner",
          "type": "address"
        },
        {
          "indexed": false,
          "internalType": "uint256",
          "name": "salePrice",
          "type": "uint256"
        },
        {
          "indexed": false,
          "internalType": "address",
          "name": "creator",
          "type": "address"
        },
        {
          "indexed": false,
          "internalType": "uint256",
          "name": "creatorRoyalties",
          "type": "uint256"
        }
      ],
      "name": "ProtonSold",
      "type": "event"
    },
    {
      "anonymous": false,
      "inputs": [
        {
          "indexed": false,
          "internalType": "address",
          "name": "",
          "type": "address"
        },
        {
          "indexed": false,
          "internalType": "uint256",
          "name": "",
          "type": "uint256"
        }
      ],
      "name": "Received",
      "type": "event"
    },
    {
      "anonymous": false,
      "inputs": [
        {
          "indexed": true,
          "internalType": "address",
          "name": "receiver",
          "type": "address"
        },
        {
          "indexed": false,
          "internalType": "uint256",
          "name": "amountClaimed",
          "type": "uint256"
        }
      ],
      "name": "RoyaltiesClaimed",
      "type": "event"
    },
    {
      "anonymous": false,
      "inputs": [
        {
          "indexed": true,
          "internalType": "uint256",
          "name": "tokenId",
          "type": "uint256"
        },
        {
          "indexed": false,
          "internalType": "uint256",
          "name": "salePrice",
          "type": "uint256"
        }
      ],
      "name": "SalePriceSet",
      "type": "event"
    },
    {
      "anonymous": false,
      "inputs": [
        {
          "indexed": true,
          "internalType": "address",
          "name": "from",
          "type": "address"
        },
        {
          "indexed": true,
          "internalType": "address",
          "name": "to",
          "type": "address"
        },
        {
          "indexed": true,
          "internalType": "uint256",
          "name": "tokenId",
          "type": "uint256"
        }
      ],
      "name": "Transfer",
      "type": "event"
    },
    {
      "anonymous": false,
      "inputs": [
        {
          "indexed": true,
          "internalType": "address",
          "name": "from",
          "type": "address"
        },
        {
          "indexed": true,
          "internalType": "address",
          "name": "to",
          "type": "address"
        },
        {
          "indexed": false,
          "internalType": "uint256",
          "name": "startTokenId",
          "type": "uint256"
        },
        {
          "indexed": false,
          "internalType": "uint256",
          "name": "count",
          "type": "uint256"
        }
      ],
      "name": "TransferBatch",
      "type": "event"
    },
    {
      "anonymous": false,
      "inputs": [
        {
          "indexed": true,
          "internalType": "address",
          "name": "receiver",
          "type": "address"
        },
        {
          "indexed": true,
          "internalType": "address",
          "name": "tokenAddress",
          "type": "address"
        },
        {
          "indexed": true,
          "internalType": "uint256",
          "name": "tokenId",
          "type": "uint256"
        },
        {
          "indexed": false,
          "internalType": "uint256",
          "name": "amount",
          "type": "uint256"
        }
      ],
      "name": "WithdrawStuckERC1155",
      "type": "event"
    },
    {
      "anonymous": false,
      "inputs": [
        {
          "indexed": true,
          "internalType": "address",
          "name": "receiver",
          "type": "address"
        },
        {
          "indexed": true,
          "internalType": "address",
          "name": "tokenAddress",
          "type": "address"
        },
        {
          "indexed": false,
          "internalType": "uint256",
          "name": "amount",
          "type": "uint256"
        }
      ],
      "name": "WithdrawStuckERC20",
      "type": "event"
    },
    {
      "anonymous": false,
      "inputs": [
        {
          "indexed": true,
          "internalType": "address",
          "name": "receiver",
          "type": "address"
        },
        {
          "indexed": true,
          "internalType": "address",
          "name": "tokenAddress",
          "type": "address"
        },
        {
          "indexed": true,
          "internalType": "uint256",
          "name": "tokenId",
          "type": "uint256"
        }
      ],
      "name": "WithdrawStuckERC721",
      "type": "event"
    },
    {
      "anonymous": false,
      "inputs": [
        {
          "indexed": true,
          "internalType": "address",
          "name": "receiver",
          "type": "address"
        },
        {
          "indexed": false,
          "internalType": "uint256",
          "name": "amount",
          "type": "uint256"
        }
      ],
      "name": "WithdrawStuckEther",
      "type": "event"
    },
    {
      "inputs": [
        {
          "internalType": "address",
          "name": "to",
          "type": "address"
        },
        {
          "internalType": "uint256",
          "name": "tokenId",
          "type": "uint256"
        }
      ],
      "name": "approve",
      "outputs": [],
      "stateMutability": "nonpayable",
      "type": "function"
    },
    {
      "inputs": [
        {
          "internalType": "address",
          "name": "owner",
          "type": "address"
        }
      ],
      "name": "balanceOf",
      "outputs": [
        {
          "internalType": "uint256",
          "name": "",
          "type": "uint256"
        }
      ],
      "stateMutability": "view",
      "type": "function"
    },
    {
      "inputs": [
        {
          "internalType": "uint256",
          "name": "tokenId",
          "type": "uint256"
        },
        {
          "internalType": "uint256",
          "name": "gasLimit",
          "type": "uint256"
        }
      ],
      "name": "buyProton",
      "outputs": [
        {
          "internalType": "bool",
          "name": "",
          "type": "bool"
        }
      ],
      "stateMutability": "payable",
      "type": "function"
    },
    {
      "inputs": [],
      "name": "claimCreatorRoyalties",
      "outputs": [
        {
          "internalType": "uint256",
          "name": "",
          "type": "uint256"
        }
      ],
      "stateMutability": "nonpayable",
      "type": "function"
    },
    {
      "inputs": [
        {
          "internalType": "address",
          "name": "creator",
          "type": "address"
        },
        {
          "internalType": "address",
          "name": "receiver",
          "type": "address"
        },
        {
          "internalType": "string",
          "name": "tokenMetaUri",
          "type": "string"
        }
      ],
      "name": "createProton",
      "outputs": [
        {
          "internalType": "uint256",
          "name": "newTokenId",
          "type": "uint256"
        }
      ],
      "stateMutability": "nonpayable",
      "type": "function"
    },
    {
      "inputs": [
        {
          "internalType": "address",
          "name": "creator",
          "type": "address"
        },
        {
          "internalType": "address",
          "name": "receiver",
          "type": "address"
        },
        {
          "internalType": "string[]",
          "name": "tokenMetaUris",
          "type": "string[]"
        }
      ],
      "name": "createProtons",
      "outputs": [
        {
          "internalType": "bool",
          "name": "",
          "type": "bool"
        }
      ],
      "stateMutability": "nonpayable",
      "type": "function"
    },
    {
      "inputs": [
        {
          "internalType": "address",
          "name": "creator",
          "type": "address"
        },
        {
          "internalType": "address",
          "name": "receiver",
          "type": "address"
        },
        {
          "internalType": "uint256",
          "name": "royaltiesPercent",
          "type": "uint256"
        },
        {
          "internalType": "string[]",
          "name": "tokenMetaUris",
          "type": "string[]"
        },
        {
          "internalType": "uint256[]",
          "name": "salePrices",
          "type": "uint256[]"
        }
      ],
      "name": "createProtonsForSale",
      "outputs": [
        {
          "internalType": "bool",
          "name": "",
          "type": "bool"
        }
      ],
      "stateMutability": "nonpayable",
      "type": "function"
    },
    {
      "inputs": [
        {
          "internalType": "uint256",
          "name": "tokenId",
          "type": "uint256"
        }
      ],
      "name": "creatorOf",
      "outputs": [
        {
          "internalType": "address",
          "name": "",
          "type": "address"
        }
      ],
      "stateMutability": "view",
      "type": "function"
    },
    {
      "inputs": [
        {
          "internalType": "uint256",
          "name": "tokenId",
          "type": "uint256"
        }
      ],
      "name": "getApproved",
      "outputs": [
        {
          "internalType": "address",
          "name": "",
          "type": "address"
        }
      ],
      "stateMutability": "view",
      "type": "function"
    },
    {
      "inputs": [
        {
          "internalType": "address",
          "name": "account",
          "type": "address"
        }
      ],
      "name": "getCreatorRoyalties",
      "outputs": [
        {
          "internalType": "uint256",
          "name": "",
          "type": "uint256"
        }
      ],
      "stateMutability": "view",
      "type": "function"
    },
    {
      "inputs": [
        {
          "internalType": "uint256",
          "name": "tokenId",
          "type": "uint256"
        }
      ],
      "name": "getCreatorRoyaltiesPct",
      "outputs": [
        {
          "internalType": "uint256",
          "name": "",
          "type": "uint256"
        }
      ],
      "stateMutability": "view",
      "type": "function"
    },
    {
      "inputs": [
        {
          "internalType": "uint256",
          "name": "tokenId",
          "type": "uint256"
        }
      ],
      "name": "getCreatorRoyaltiesReceiver",
      "outputs": [
        {
          "internalType": "address",
          "name": "",
          "type": "address"
        }
      ],
      "stateMutability": "view",
      "type": "function"
    },
    {
      "inputs": [
        {
          "internalType": "uint256",
          "name": "tokenId",
          "type": "uint256"
        }
      ],
      "name": "getLastSellPrice",
      "outputs": [
        {
          "internalType": "uint256",
          "name": "",
          "type": "uint256"
        }
      ],
      "stateMutability": "view",
      "type": "function"
    },
    {
      "inputs": [
        {
          "internalType": "uint256",
          "name": "tokenId",
          "type": "uint256"
        }
      ],
      "name": "getSalePrice",
      "outputs": [
        {
          "internalType": "uint256",
          "name": "",
          "type": "uint256"
        }
      ],
      "stateMutability": "view",
      "type": "function"
    },
    {
      "inputs": [
        {
          "internalType": "address",
          "name": "owner",
          "type": "address"
        },
        {
          "internalType": "address",
          "name": "operator",
          "type": "address"
        }
      ],
      "name": "isApprovedForAll",
      "outputs": [
        {
          "internalType": "bool",
          "name": "",
          "type": "bool"
        }
      ],
      "stateMutability": "view",
      "type": "function"
    },
    {
      "inputs": [
        {
          "internalType": "address",
          "name": "forwarder",
          "type": "address"
        }
      ],
      "name": "isTrustedForwarder",
      "outputs": [
        {
          "internalType": "bool",
          "name": "",
          "type": "bool"
        }
      ],
      "stateMutability": "view",
      "type": "function"
    },
    {
      "inputs": [],
      "name": "name",
      "outputs": [
        {
          "internalType": "string",
          "name": "",
          "type": "string"
        }
      ],
      "stateMutability": "view",
      "type": "function"
    },
    {
      "inputs": [],
      "name": "owner",
      "outputs": [
        {
          "internalType": "address",
          "name": "",
          "type": "address"
        }
      ],
      "stateMutability": "view",
      "type": "function"
    },
    {
      "inputs": [
        {
          "internalType": "uint256",
          "name": "tokenId",
          "type": "uint256"
        }
      ],
      "name": "ownerOf",
      "outputs": [
        {
          "internalType": "address",
          "name": "",
          "type": "address"
        }
      ],
      "stateMutability": "view",
      "type": "function"
    },
    {
      "inputs": [],
      "name": "renounceOwnership",
      "outputs": [],
      "stateMutability": "nonpayable",
      "type": "function"
    },
    {
      "inputs": [
        {
          "internalType": "address",
          "name": "from",
          "type": "address"
        },
        {
          "internalType": "address",
          "name": "to",
          "type": "address"
        },
        {
          "internalType": "uint256",
          "name": "tokenId",
          "type": "uint256"
        }
      ],
      "name": "safeTransferFrom",
      "outputs": [],
      "stateMutability": "nonpayable",
      "type": "function"
    },
    {
      "inputs": [
        {
          "internalType": "address",
          "name": "from",
          "type": "address"
        },
        {
          "internalType": "address",
          "name": "to",
          "type": "address"
        },
        {
          "internalType": "uint256",
          "name": "tokenId",
          "type": "uint256"
        },
        {
          "internalType": "bytes",
          "name": "_data",
          "type": "bytes"
        }
      ],
      "name": "safeTransferFrom",
      "outputs": [],
      "stateMutability": "nonpayable",
      "type": "function"
    },
    {
      "inputs": [
        {
          "internalType": "address",
          "name": "operator",
          "type": "address"
        },
        {
          "internalType": "bool",
          "name": "approved",
          "type": "bool"
        }
      ],
      "name": "setApprovalForAll",
      "outputs": [],
      "stateMutability": "nonpayable",
      "type": "function"
    },
    {
      "inputs": [
        {
          "internalType": "uint256",
          "name": "tokenId",
          "type": "uint256"
        },
        {
          "internalType": "address",
          "name": "receiver",
          "type": "address"
        }
      ],
      "name": "setCreatorRoyaltiesReceiver",
      "outputs": [],
      "stateMutability": "nonpayable",
      "type": "function"
    },
    {
      "inputs": [
        {
          "internalType": "bool",
          "name": "state",
          "type": "bool"
        }
      ],
      "name": "setPausedState",
      "outputs": [],
      "stateMutability": "nonpayable",
      "type": "function"
    },
    {
      "inputs": [
        {
          "internalType": "uint256",
          "name": "tokenId",
          "type": "uint256"
        },
        {
          "internalType": "uint256",
          "name": "royaltiesPct",
          "type": "uint256"
        }
      ],
      "name": "setRoyaltiesPct",
      "outputs": [],
      "stateMutability": "nonpayable",
      "type": "function"
    },
    {
      "inputs": [
        {
          "internalType": "uint256",
          "name": "tokenId",
          "type": "uint256"
        },
        {
          "internalType": "uint256",
          "name": "salePrice",
          "type": "uint256"
        }
      ],
      "name": "setSalePrice",
      "outputs": [],
      "stateMutability": "nonpayable",
      "type": "function"
    },
    {
      "inputs": [
        {
          "internalType": "address",
          "name": "_trustedForwarder",
          "type": "address"
        }
      ],
      "name": "setTrustedForwarder",
      "outputs": [],
      "stateMutability": "nonpayable",
      "type": "function"
    },
    {
      "inputs": [
        {
          "internalType": "bytes4",
          "name": "interfaceId",
          "type": "bytes4"
        }
      ],
      "name": "supportsInterface",
      "outputs": [
        {
          "internalType": "bool",
          "name": "",
          "type": "bool"
        }
      ],
      "stateMutability": "view",
      "type": "function"
    },
    {
      "inputs": [],
      "name": "symbol",
      "outputs": [
        {
          "internalType": "string",
          "name": "",
          "type": "string"
        }
      ],
      "stateMutability": "view",
      "type": "function"
    },
    {
      "inputs": [
        {
          "internalType": "uint256",
          "name": "index",
          "type": "uint256"
        }
      ],
      "name": "tokenByIndex",
      "outputs": [
        {
          "internalType": "uint256",
          "name": "",
          "type": "uint256"
        }
      ],
      "stateMutability": "view",
      "type": "function"
    },
    {
      "inputs": [
        {
          "internalType": "address",
          "name": "owner",
          "type": "address"
        },
        {
          "internalType": "uint256",
          "name": "index",
          "type": "uint256"
        }
      ],
      "name": "tokenOfOwnerByIndex",
      "outputs": [
        {
          "internalType": "uint256",
          "name": "",
          "type": "uint256"
        }
      ],
      "stateMutability": "view",
      "type": "function"
    },
    {
      "inputs": [
        {
          "internalType": "uint256",
          "name": "tokenId",
          "type": "uint256"
        }
      ],
      "name": "tokenURI",
      "outputs": [
        {
          "internalType": "string",
          "name": "",
          "type": "string"
        }
      ],
      "stateMutability": "view",
      "type": "function"
    },
    {
      "inputs": [],
      "name": "totalSupply",
      "outputs": [
        {
          "internalType": "uint256",
          "name": "",
          "type": "uint256"
        }
      ],
      "stateMutability": "view",
      "type": "function"
    },
    {
      "inputs": [
        {
          "internalType": "address",
          "name": "from",
          "type": "address"
        },
        {
          "internalType": "address",
          "name": "to",
          "type": "address"
        },
        {
          "internalType": "uint256",
          "name": "tokenId",
          "type": "uint256"
        }
      ],
      "name": "transferFrom",
      "outputs": [],
      "stateMutability": "nonpayable",
      "type": "function"
    },
    {
      "inputs": [
        {
          "internalType": "address",
          "name": "newOwner",
          "type": "address"
        }
      ],
      "name": "transferOwnership",
      "outputs": [],
      "stateMutability": "nonpayable",
      "type": "function"
    },
    {
      "inputs": [],
      "name": "trustedForwarder",
      "outputs": [
        {
          "internalType": "address",
          "name": "",
          "type": "address"
        }
      ],
      "stateMutability": "view",
      "type": "function"
    },
    {
      "inputs": [],
      "name": "versionRecipient",
      "outputs": [
        {
          "internalType": "string",
          "name": "",
          "type": "string"
        }
      ],
      "stateMutability": "view",
      "type": "function"
    },
    {
      "inputs": [
        {
          "internalType": "address payable",
          "name": "receiver",
          "type": "address"
        },
        {
          "internalType": "address",
          "name": "tokenAddress",
          "type": "address"
        },
        {
          "internalType": "uint256",
          "name": "tokenId",
          "type": "uint256"
        }
      ],
      "name": "withdrawERC721",
      "outputs": [],
      "stateMutability": "nonpayable",
      "type": "function"
    },
    {
      "inputs": [
        {
          "internalType": "address payable",
          "name": "receiver",
          "type": "address"
        },
        {
          "internalType": "address",
          "name": "tokenAddress",
          "type": "address"
        },
        {
          "internalType": "uint256",
          "name": "amount",
          "type": "uint256"
        }
      ],
      "name": "withdrawErc20",
      "outputs": [],
      "stateMutability": "nonpayable",
      "type": "function"
    },
    {
      "inputs": [
        {
          "internalType": "address payable",
          "name": "receiver",
          "type": "address"
        },
        {
          "internalType": "uint256",
          "name": "amount",
          "type": "uint256"
        }
      ],
      "name": "withdrawEther",
      "outputs": [],
      "stateMutability": "nonpayable",
      "type": "function"
    },
    {
      "stateMutability": "payable",
      "type": "receive"
    }
  ],
  "bytecode": "0x60806040523480156200001157600080fd5b50604051620062f9380380620062f9833981810160405281019062000037919062000426565b8181620000516301ffc9a760e01b6200018e60201b60201c565b81600690805190602001906200006992919062000324565b5080600790805190602001906200008292919062000324565b506200009b6380ac58cd60e01b6200018e60201b60201c565b620000b3635b5e139f60e01b6200018e60201b60201c565b620000cb63780e9d6360e01b6200018e60201b60201c565b50506000620000df6200026660201b60201c565b905080600960006101000a81548173ffffffffffffffffffffffffffffffffffffffff021916908373ffffffffffffffffffffffffffffffffffffffff1602179055508073ffffffffffffffffffffffffffffffffffffffff16600073ffffffffffffffffffffffffffffffffffffffff167f8be0079c531659141344cd1fd0a4f28419497f9722a3daafe3b4186f6b6457e060405160405180910390a3506001600b8190555050506200059f565b63ffffffff60e01b817bffffffffffffffffffffffffffffffffffffffffffffffffffffffff19161415620001fa576040517f08c379a0000000000000000000000000000000000000000000000000000000008152600401620001f190620004db565b60405180910390fd5b6001600080837bffffffffffffffffffffffffffffffffffffffffffffffffffffffff19167bffffffffffffffffffffffffffffffffffffffffffffffffffffffff1916815260200190815260200160002060006101000a81548160ff02191690831515021790555050565b60006200027d6200028260201b620022191760201c565b905090565b60006018600036905010158015620002a75750620002a633620002ca60201b60201c565b5b15620002bd57601436033560601c9050620002c6565b339050620002c7565b5b90565b6000600a60009054906101000a900473ffffffffffffffffffffffffffffffffffffffff1673ffffffffffffffffffffffffffffffffffffffff168273ffffffffffffffffffffffffffffffffffffffff16149050919050565b828054600181600116156101000203166002900490600052602060002090601f016020900481019282601f106200036757805160ff191683800117855562000398565b8280016001018555821562000398579182015b82811115620003975782518255916020019190600101906200037a565b5b509050620003a79190620003ab565b5090565b5b80821115620003c6576000816000905550600101620003ac565b5090565b600082601f830112620003dc57600080fd5b8151620003f3620003ed826200052b565b620004fd565b915080825260208301602083018583830111156200041057600080fd5b6200041d83828462000569565b50505092915050565b600080604083850312156200043a57600080fd5b600083015167ffffffffffffffff8111156200045557600080fd5b6200046385828601620003ca565b925050602083015167ffffffffffffffff8111156200048157600080fd5b6200048f85828601620003ca565b9150509250929050565b6000620004a8601c8362000558565b91507f4552433136353a20696e76616c696420696e74657266616365206964000000006000830152602082019050919050565b60006020820190508181036000830152620004f68162000499565b9050919050565b6000604051905081810181811067ffffffffffffffff821117156200052157600080fd5b8060405250919050565b600067ffffffffffffffff8211156200054357600080fd5b601f19601f8301169050602081019050919050565b600082825260208201905092915050565b60005b83811015620005895780820151818401526020810190506200056c565b8381111562000599576000848401525b50505050565b615d4a80620005af6000396000f3fe60806040526004361061024a5760003560e01c80636348af3411610139578063a22cb465116100b6578063d40e707b1161007a578063d40e707b14610959578063da74222814610996578063db9f60ff146109bf578063e985e9c5146109e8578063f2fde38b14610a25578063f8eb5fc514610a4e5761028a565b8063a22cb46514610864578063ad82c42c1461088d578063b88d4fde146108ca578063c87b56dd146108f3578063c8c680d5146109305761028a565b80637da0a877116100fd5780637da0a87714610769578063846ec08c146107945780638da5cb5b146107d157806395d89b41146107fc578063a0092b55146108275761028a565b80636348af34146106705780636352211e1461069b57806370a08231146106d8578063715018a61461071557806371e715f41461072c5761028a565b80632b7e237c116101c7578063486ff0cd1161018b578063486ff0cd146105655780634f6ccce714610590578063522f6815146105cd578063572b6c05146105f6578063589a1743146106335761028a565b80632b7e237c146104705780632f745c59146104ad5780632fc77797146104ea5780634025feb21461051357806342842e0e1461053c5761028a565b80631593dee11161020e5780631593dee11461038657806318160ddd146103af5780631dcd79d4146103da57806323b872dd1461040a578063250b2c80146104335761028a565b806301ffc9a71461028f578063053992c5146102cc57806306fdde03146102f5578063081812fc14610320578063095ea7b31461035d5761028a565b3661028a577f88a5966d370b9919b20f3e2c13ff65706f196a4e32cc2c12bf57088f88525874333460405161028092919061558d565b60405180910390a1005b600080fd5b34801561029b57600080fd5b506102b660048036038101906102b19190614a8c565b610a8b565b6040516102c39190615616565b60405180910390f35b3480156102d857600080fd5b506102f360048036038101906102ee9190614b6c565b610af2565b005b34801561030157600080fd5b5061030a610ba2565b6040516103179190615631565b60405180910390f35b34801561032c57600080fd5b5061034760048036038101906103429190614ade565b610c44565b6040516103549190615526565b60405180910390f35b34801561036957600080fd5b50610384600480360381019061037f91906149fe565b610cc9565b005b34801561039257600080fd5b506103ad60048036038101906103a891906146ae565b610de1565b005b3480156103bb57600080fd5b506103c4610e88565b6040516103d191906159f3565b60405180910390f35b6103f460048036038101906103ef9190614b6c565b610e99565b6040516104019190615616565b60405180910390f35b34801561041657600080fd5b50610431600480360381019061042c9190614848565b610f5c565b005b34801561043f57600080fd5b5061045a60048036038101906104559190614ade565b610fbc565b60405161046791906159f3565b60405180910390f35b34801561047c57600080fd5b50610497600480360381019061049291906147e1565b610fd9565b6040516104a491906159f3565b60405180910390f35b3480156104b957600080fd5b506104d460048036038101906104cf91906149fe565b611042565b6040516104e191906159f3565b60405180910390f35b3480156104f657600080fd5b50610511600480360381019061050c9190614b30565b61109d565b005b34801561051f57600080fd5b5061053a600480360381019061053591906146ae565b6111ed565b005b34801561054857600080fd5b50610563600480360381019061055e9190614848565b611294565b005b34801561057157600080fd5b5061057a6112b4565b6040516105879190615631565b60405180910390f35b34801561059c57600080fd5b506105b760048036038101906105b29190614ade565b6112d4565b6040516105c491906159f3565b60405180910390f35b3480156105d957600080fd5b506105f460048036038101906105ef91906146fd565b6112f7565b005b34801561060257600080fd5b5061061d6004803603810190610618919061465c565b61139c565b60405161062a9190615616565b60405180910390f35b34801561063f57600080fd5b5061065a60048036038101906106559190614ade565b6113f6565b6040516106679190615526565b60405180910390f35b34801561067c57600080fd5b50610685611433565b60405161069291906159f3565b60405180910390f35b3480156106a757600080fd5b506106c260048036038101906106bd9190614ade565b6114f0565b6040516106cf9190615526565b60405180910390f35b3480156106e457600080fd5b506106ff60048036038101906106fa919061465c565b611544565b60405161070c91906159f3565b60405180910390f35b34801561072157600080fd5b5061072a611603565b005b34801561073857600080fd5b50610753600480360381019061074e9190614ade565b61175b565b6040516107609190615526565b60405180910390f35b34801561077557600080fd5b5061077e61176d565b60405161078b9190615526565b60405180910390f35b3480156107a057600080fd5b506107bb60048036038101906107b6919061465c565b611793565b6040516107c891906159f3565b60405180910390f35b3480156107dd57600080fd5b506107e66117dc565b6040516107f39190615526565b60405180910390f35b34801561080857600080fd5b50610811611806565b60405161081e9190615631565b60405180910390f35b34801561083357600080fd5b5061084e60048036038101906108499190614897565b6118a8565b60405161085b9190615616565b60405180910390f35b34801561087057600080fd5b5061088b600480360381019061088691906149c2565b611918565b005b34801561089957600080fd5b506108b460048036038101906108af9190614ade565b611a99565b6040516108c191906159f3565b60405180910390f35b3480156108d657600080fd5b506108f160048036038101906108ec9190614947565b611ab6565b005b3480156108ff57600080fd5b5061091a60048036038101906109159190614ade565b611b18565b6040516109279190615631565b60405180910390f35b34801561093c57600080fd5b5061095760048036038101906109529190614b6c565b611c15565b005b34801561096557600080fd5b50610980600480360381019061097b9190614775565b611d6f565b60405161098d9190615616565b60405180910390f35b3480156109a257600080fd5b506109bd60048036038101906109b8919061465c565b611ddb565b005b3480156109cb57600080fd5b506109e660048036038101906109e19190614a3a565b611eb6565b005b3480156109f457600080fd5b50610a0f6004803603810190610a0a9190614739565b611fa1565b604051610a1c9190615616565b60405180910390f35b348015610a3157600080fd5b50610a4c6004803603810190610a47919061465c565b612035565b005b348015610a5a57600080fd5b50610a756004803603810190610a709190614ade565b6121fc565b604051610a8291906159f3565b60405180910390f35b6000806000837bffffffffffffffffffffffffffffffffffffffffffffffffffffffff19167bffffffffffffffffffffffffffffffffffffffffffffffffffffffff1916815260200190815260200160002060009054906101000a900460ff169050919050565b601360009054906101000a900460ff1615610b42576040517f08c379a0000000000000000000000000000000000000000000000000000000008152600401610b3990615933565b60405180910390fd5b81610b54610b4e612255565b82612264565b610b93576040517f08c379a0000000000000000000000000000000000000000000000000000000008152600401610b8a906159b3565b60405180910390fd5b610b9d8383612342565b505050565b606060068054600181600116156101000203166002900480601f016020809104026020016040519081016040528092919081815260200182805460018160011615610100020316600290048015610c3a5780601f10610c0f57610100808354040283529160200191610c3a565b820191906000526020600020905b815481529060010190602001808311610c1d57829003601f168201915b5050505050905090565b6000610c4f82612396565b610c8e576040517f08c379a0000000000000000000000000000000000000000000000000000000008152600401610c8590615973565b60405180910390fd5b6004600083815260200190815260200160002060009054906101000a900473ffffffffffffffffffffffffffffffffffffffff169050919050565b6000610cd4826114f0565b90508073ffffffffffffffffffffffffffffffffffffffff168373ffffffffffffffffffffffffffffffffffffffff161415610d45576040517f08c379a0000000000000000000000000000000000000000000000000000000008152600401610d3c906159d3565b60405180910390fd5b8073ffffffffffffffffffffffffffffffffffffffff16610d64612255565b73ffffffffffffffffffffffffffffffffffffffff161480610d935750610d9281610d8d612255565b611fa1565b5b610dd2576040517f08c379a0000000000000000000000000000000000000000000000000000000008152600401610dc990615893565b60405180910390fd5b610ddc83836123b3565b505050565b610de9612255565b73ffffffffffffffffffffffffffffffffffffffff16600960009054906101000a900473ffffffffffffffffffffffffffffffffffffffff1673ffffffffffffffffffffffffffffffffffffffff1614610e78576040517f08c379a0000000000000000000000000000000000000000000000000000000008152600401610e6f90615833565b60405180910390fd5b610e8383838361246c565b505050565b6000610e946002612601565b905090565b60006002600b541415610ee1576040517f08c379a0000000000000000000000000000000000000000000000000000000008152600401610ed890615993565b60405180910390fd5b6002600b81905550601360009054906101000a900460ff1615610f39576040517f08c379a0000000000000000000000000000000000000000000000000000000008152600401610f3090615933565b60405180910390fd5b610f438383612616565b50505050505050600190506001600b8190555092915050565b610f6d610f67612255565b82612264565b610fac576040517f08c379a0000000000000000000000000000000000000000000000000000000008152600401610fa390615893565b60405180910390fd5b610fb78383836128f3565b505050565b600060126000838152602001908152602001600020549050919050565b6000601360009054906101000a900460ff161561102b576040517f08c379a000000000000000000000000000000000000000000000000000000000815260040161102290615933565b60405180910390fd5b61103984848460008061291c565b90509392505050565b600061109582600160008673ffffffffffffffffffffffffffffffffffffffff1673ffffffffffffffffffffffffffffffffffffffff1681526020019081526020016000206129db90919063ffffffff16565b905092915050565b601360009054906101000a900460ff16156110ed576040517f08c379a00000000000000000000000000000000000000000000000000000000081526004016110e490615933565b60405180910390fd5b816110f6612255565b73ffffffffffffffffffffffffffffffffffffffff16600d600083815260200190815260200160002060009054906101000a900473ffffffffffffffffffffffffffffffffffffffff1673ffffffffffffffffffffffffffffffffffffffff1614611196576040517f08c379a000000000000000000000000000000000000000000000000000000000815260040161118d906158b3565b60405180910390fd5b81600f600085815260200190815260200160002060006101000a81548173ffffffffffffffffffffffffffffffffffffffff021916908373ffffffffffffffffffffffffffffffffffffffff160217905550505050565b6111f5612255565b73ffffffffffffffffffffffffffffffffffffffff16600960009054906101000a900473ffffffffffffffffffffffffffffffffffffffff1673ffffffffffffffffffffffffffffffffffffffff1614611284576040517f08c379a000000000000000000000000000000000000000000000000000000000815260040161127b90615833565b60405180910390fd5b61128f8383836129f5565b505050565b6112af83838360405180602001604052806000815250611ab6565b505050565b60606040518060600160405280602e8152602001615ce7602e9139905090565b6000806112eb836002612bf190919063ffffffff16565b50905080915050919050565b6112ff612255565b73ffffffffffffffffffffffffffffffffffffffff16600960009054906101000a900473ffffffffffffffffffffffffffffffffffffffff1673ffffffffffffffffffffffffffffffffffffffff161461138e576040517f08c379a000000000000000000000000000000000000000000000000000000000815260040161138590615833565b60405180910390fd5b6113988282612c1d565b5050565b6000600a60009054906101000a900473ffffffffffffffffffffffffffffffffffffffff1673ffffffffffffffffffffffffffffffffffffffff168273ffffffffffffffffffffffffffffffffffffffff16149050919050565b6000600d600083815260200190815260200160002060009054906101000a900473ffffffffffffffffffffffffffffffffffffffff169050919050565b60006002600b54141561147b576040517f08c379a000000000000000000000000000000000000000000000000000000000815260040161147290615993565b60405180910390fd5b6002600b81905550601360009054906101000a900460ff16156114d3576040517f08c379a00000000000000000000000000000000000000000000000000000000081526004016114ca90615933565b60405180910390fd5b6114e36114de612255565b612d0f565b90506001600b8190555090565b600061153d826040518060400160405280600c81526020017f4552433732313a452d34303500000000000000000000000000000000000000008152506002612e5a9092919063ffffffff16565b9050919050565b60008073ffffffffffffffffffffffffffffffffffffffff168273ffffffffffffffffffffffffffffffffffffffff1614156115b5576040517f08c379a00000000000000000000000000000000000000000000000000000000081526004016115ac906156b3565b60405180910390fd5b6115fc600160008473ffffffffffffffffffffffffffffffffffffffff1673ffffffffffffffffffffffffffffffffffffffff168152602001908152602001600020612e79565b9050919050565b61160b612255565b73ffffffffffffffffffffffffffffffffffffffff16600960009054906101000a900473ffffffffffffffffffffffffffffffffffffffff1673ffffffffffffffffffffffffffffffffffffffff161461169a576040517f08c379a000000000000000000000000000000000000000000000000000000000815260040161169190615833565b60405180910390fd5b600073ffffffffffffffffffffffffffffffffffffffff16600960009054906101000a900473ffffffffffffffffffffffffffffffffffffffff1673ffffffffffffffffffffffffffffffffffffffff167f8be0079c531659141344cd1fd0a4f28419497f9722a3daafe3b4186f6b6457e060405160405180910390a36000600960006101000a81548173ffffffffffffffffffffffffffffffffffffffff021916908373ffffffffffffffffffffffffffffffffffffffff160217905550565b600061176682612e8e565b9050919050565b600a60009054906101000a900473ffffffffffffffffffffffffffffffffffffffff1681565b6000601060008373ffffffffffffffffffffffffffffffffffffffff1673ffffffffffffffffffffffffffffffffffffffff168152602001908152602001600020549050919050565b6000600960009054906101000a900473ffffffffffffffffffffffffffffffffffffffff16905090565b606060078054600181600116156101000203166002900480601f01602080910402602001604051908101604052809291908181526020018280546001816001161561010002031660029004801561189e5780601f106118735761010080835404028352916020019161189e565b820191906000526020600020905b81548152906001019060200180831161188157829003601f168201915b5050505050905090565b6000601360009054906101000a900460ff16156118fa576040517f08c379a00000000000000000000000000000000000000000000000000000000081526004016118f190615933565b60405180910390fd5b61190988888888888888612f3c565b60019050979650505050505050565b611920612255565b73ffffffffffffffffffffffffffffffffffffffff168273ffffffffffffffffffffffffffffffffffffffff16141561198e576040517f08c379a0000000000000000000000000000000000000000000000000000000008152600401611985906159d3565b60405180910390fd5b806005600061199b612255565b73ffffffffffffffffffffffffffffffffffffffff1673ffffffffffffffffffffffffffffffffffffffff16815260200190815260200160002060008473ffffffffffffffffffffffffffffffffffffffff1673ffffffffffffffffffffffffffffffffffffffff16815260200190815260200160002060006101000a81548160ff0219169083151502179055508173ffffffffffffffffffffffffffffffffffffffff16611a48612255565b73ffffffffffffffffffffffffffffffffffffffff167f17307eab39ab6107e8899845ad3d59bd9653f200f220920489ca2b5937696c3183604051611a8d9190615616565b60405180910390a35050565b6000600e6000838152602001908152602001600020549050919050565b611ac7611ac1612255565b83612264565b611b06576040517f08c379a0000000000000000000000000000000000000000000000000000000008152600401611afd90615893565b60405180910390fd5b611b128484848461302f565b50505050565b6060611b2382612396565b611b62576040517f08c379a0000000000000000000000000000000000000000000000000000000008152600401611b5990615973565b60405180910390fd5b600860008381526020019081526020016000208054600181600116156101000203166002900480601f016020809104026020016040519081016040528092919081815260200182805460018160011615610100020316600290048015611c095780601f10611bde57610100808354040283529160200191611c09565b820191906000526020600020905b815481529060010190602001808311611bec57829003601f168201915b50505050509050919050565b601360009054906101000a900460ff1615611c65576040517f08c379a0000000000000000000000000000000000000000000000000000000008152600401611c5c90615933565b60405180910390fd5b81611c6e612255565b73ffffffffffffffffffffffffffffffffffffffff16600d600083815260200190815260200160002060009054906101000a900473ffffffffffffffffffffffffffffffffffffffff1673ffffffffffffffffffffffffffffffffffffffff1614611d0e576040517f08c379a0000000000000000000000000000000000000000000000000000000008152600401611d05906158b3565b60405180910390fd5b82611d20611d1a612255565b82612264565b611d5f576040517f08c379a0000000000000000000000000000000000000000000000000000000008152600401611d56906159b3565b60405180910390fd5b611d69848461308b565b50505050565b6000601360009054906101000a900460ff1615611dc1576040517f08c379a0000000000000000000000000000000000000000000000000000000008152600401611db890615933565b60405180910390fd5b611dcf858560008686613124565b60019050949350505050565b611de3612255565b73ffffffffffffffffffffffffffffffffffffffff16600960009054906101000a900473ffffffffffffffffffffffffffffffffffffffff1673ffffffffffffffffffffffffffffffffffffffff1614611e72576040517f08c379a0000000000000000000000000000000000000000000000000000000008152600401611e6990615833565b60405180910390fd5b80600a60006101000a81548173ffffffffffffffffffffffffffffffffffffffff021916908373ffffffffffffffffffffffffffffffffffffffff16021790555050565b611ebe612255565b73ffffffffffffffffffffffffffffffffffffffff16600960009054906101000a900473ffffffffffffffffffffffffffffffffffffffff1673ffffffffffffffffffffffffffffffffffffffff1614611f4d576040517f08c379a0000000000000000000000000000000000000000000000000000000008152600401611f4490615833565b60405180910390fd5b80601360006101000a81548160ff0219169083151502179055507fa9bfed3d98385b3777389e321dbde773cf7d335fa604fefbae3dca93564f558681604051611f969190615616565b60405180910390a150565b6000600560008473ffffffffffffffffffffffffffffffffffffffff1673ffffffffffffffffffffffffffffffffffffffff16815260200190815260200160002060008373ffffffffffffffffffffffffffffffffffffffff1673ffffffffffffffffffffffffffffffffffffffff16815260200190815260200160002060009054906101000a900460ff16905092915050565b61203d612255565b73ffffffffffffffffffffffffffffffffffffffff16600960009054906101000a900473ffffffffffffffffffffffffffffffffffffffff1673ffffffffffffffffffffffffffffffffffffffff16146120cc576040517f08c379a00000000000000000000000000000000000000000000000000000000081526004016120c390615833565b60405180910390fd5b600073ffffffffffffffffffffffffffffffffffffffff168173ffffffffffffffffffffffffffffffffffffffff16141561213c576040517f08c379a000000000000000000000000000000000000000000000000000000000815260040161213390615673565b60405180910390fd5b8073ffffffffffffffffffffffffffffffffffffffff16600960009054906101000a900473ffffffffffffffffffffffffffffffffffffffff1673ffffffffffffffffffffffffffffffffffffffff167f8be0079c531659141344cd1fd0a4f28419497f9722a3daafe3b4186f6b6457e060405160405180910390a380600960006101000a81548173ffffffffffffffffffffffffffffffffffffffff021916908373ffffffffffffffffffffffffffffffffffffffff16021790555050565b600060116000838152602001908152602001600020549050919050565b6000601860003690501015801561223557506122343361139c565b5b1561224957601436033560601c9050612251565b339050612252565b5b90565b600061225f612219565b905090565b600061226f82612396565b6122ae576040517f08c379a00000000000000000000000000000000000000000000000000000000081526004016122a590615973565b60405180910390fd5b60006122b9836114f0565b90508073ffffffffffffffffffffffffffffffffffffffff168473ffffffffffffffffffffffffffffffffffffffff16148061232857508373ffffffffffffffffffffffffffffffffffffffff1661231084610c44565b73ffffffffffffffffffffffffffffffffffffffff16145b8061233957506123388185611fa1565b5b91505092915050565b806011600084815260200190815260200160002081905550817fe23ea816dce6d7f5c0b85cbd597e7c3b97b2453791152c0b94e5e5c5f314d2f08260405161238a91906159f3565b60405180910390a25050565b60006123ac8260026131bc90919063ffffffff16565b9050919050565b816004600083815260200190815260200160002060006101000a81548173ffffffffffffffffffffffffffffffffffffffff021916908373ffffffffffffffffffffffffffffffffffffffff160217905550808273ffffffffffffffffffffffffffffffffffffffff16612426836114f0565b73ffffffffffffffffffffffffffffffffffffffff167f8c5be1e5ebec7d5bd14f71427d1e84f3dd0314c0f7b2291e5b200ac8c7c3b92560405160405180910390a45050565b600073ffffffffffffffffffffffffffffffffffffffff168373ffffffffffffffffffffffffffffffffffffffff1614156124dc576040517f08c379a00000000000000000000000000000000000000000000000000000000081526004016124d390615693565b60405180910390fd5b808273ffffffffffffffffffffffffffffffffffffffff166370a08231306040518263ffffffff1660e01b81526004016125169190615526565b60206040518083038186803b15801561252e57600080fd5b505afa158015612542573d6000803e3d6000fd5b505050506040513d601f19601f820116820180604052508101906125669190614b07565b106125fc5761259683828473ffffffffffffffffffffffffffffffffffffffff166131d69092919063ffffffff16565b8173ffffffffffffffffffffffffffffffffffffffff168373ffffffffffffffffffffffffffffffffffffffff167f6c9d637297625e945b296ff73a71fcfbd0a9e062652b6491a921c4c60194176b836040516125f391906159f3565b60405180910390a35b505050565b600061260f8260000161325c565b9050919050565b6000806000806000806000309650889550601160008a815260200190815260200160002054925060008311612680576040517f08c379a000000000000000000000000000000000000000000000000000000000815260040161267790615773565b60405180910390fd5b823410156126c3576040517f08c379a00000000000000000000000000000000000000000000000000000000081526004016126ba90615753565b60405180910390fd5b60008390506126d18a6114f0565b95506126db612255565b94506126e68a612e8e565b92506000600e60008c81526020019081526020016000205490506000601260008d81526020019081526020016000205490506000821180156127285750600081115b801561273357508086115b156127795761276161271061275384848a0361326d90919063ffffffff16565b6132dd90919063ffffffff16565b9350612776848461332790919063ffffffff16565b92505b85601260008e8152602001908152602001600020819055506000841115612830576127ec84601060008873ffffffffffffffffffffffffffffffffffffffff1673ffffffffffffffffffffffffffffffffffffffff1681526020019081526020016000205461337190919063ffffffff16565b601060008773ffffffffffffffffffffffffffffffffffffffff1673ffffffffffffffffffffffffffffffffffffffff168152602001908152602001600020819055505b61283b88888e6128f3565b60008311156128705761286f838c8a73ffffffffffffffffffffffffffffffffffffffff166133c69092919063ffffffff16565b5b8673ffffffffffffffffffffffffffffffffffffffff168873ffffffffffffffffffffffffffffffffffffffff168d7f71a2ee63bc7695052e3a9837d5a45dd1cc0ce12717e39cef6eb6afb0d91697ed8989896040516128d293929190615a0e565b60405180910390a46128e4868c613532565b50505092959891949750929550565b6000601160008381526020019081526020016000208190555061291783838361358a565b505050565b6000612928600c613796565b612932600c6137ac565b905061294e8582604051806020016040528060008152506137ba565b85600d600083815260200190815260200160002060006101000a81548173ffffffffffffffffffffffffffffffffffffffff021916908373ffffffffffffffffffffffffffffffffffffffff1602179055506129aa8185613815565b60008311156129be576129bd818461308b565b5b60008211156129d2576129d18183612342565b5b95945050505050565b60006129ea8360000183613889565b60001c905092915050565b600073ffffffffffffffffffffffffffffffffffffffff168373ffffffffffffffffffffffffffffffffffffffff161415612a65576040517f08c379a0000000000000000000000000000000000000000000000000000000008152600401612a5c90615693565b60405180910390fd5b3073ffffffffffffffffffffffffffffffffffffffff168273ffffffffffffffffffffffffffffffffffffffff16636352211e836040518263ffffffff1660e01b8152600401612ab591906159f3565b60206040518083038186803b158015612acd57600080fd5b505afa158015612ae1573d6000803e3d6000fd5b505050506040513d601f19601f82011682018060405250810190612b059190614685565b73ffffffffffffffffffffffffffffffffffffffff161415612bec578173ffffffffffffffffffffffffffffffffffffffff166323b872dd3085846040518463ffffffff1660e01b8152600401612b5e939291906155b6565b600060405180830381600087803b158015612b7857600080fd5b505af1158015612b8c573d6000803e3d6000fd5b50505050808273ffffffffffffffffffffffffffffffffffffffff168473ffffffffffffffffffffffffffffffffffffffff167ffefe036cac4ee3a4aca074a81cbcc4376e1484693289078dbec149c890101d5b60405160405180910390a45b505050565b600080600080612c0486600001866138f6565b915091508160001c8160001c9350935050509250929050565b600073ffffffffffffffffffffffffffffffffffffffff168273ffffffffffffffffffffffffffffffffffffffff161415612c8d576040517f08c379a0000000000000000000000000000000000000000000000000000000008152600401612c8490615693565b60405180910390fd5b804710612d0b57612cbd818373ffffffffffffffffffffffffffffffffffffffff1661397990919063ffffffff16565b8173ffffffffffffffffffffffffffffffffffffffff167eddb683bb45cd5d0ad8a200c6fae7152b1c236ee90a4a37db692407f5cc38bd82604051612d0291906159f3565b60405180910390a25b5050565b600080601060008473ffffffffffffffffffffffffffffffffffffffff1673ffffffffffffffffffffffffffffffffffffffff16815260200190815260200160002054905060008111612d97576040517f08c379a0000000000000000000000000000000000000000000000000000000008152600401612d8e90615913565b60405180910390fd5b601060008473ffffffffffffffffffffffffffffffffffffffff1673ffffffffffffffffffffffffffffffffffffffff16815260200190815260200160002060009055612e068160008573ffffffffffffffffffffffffffffffffffffffff166133c69092919063ffffffff16565b8273ffffffffffffffffffffffffffffffffffffffff167f8fbbda19f4a70036f6f585dc4160142a8fa2a20ffb9393d23274f78de4e3988882604051612e4c91906159f3565b60405180910390a250919050565b6000612e6d846000018460001b84613a6d565b60001c90509392505050565b6000612e8782600001613afe565b9050919050565b600080600f600084815260200190815260200160002060009054906101000a900473ffffffffffffffffffffffffffffffffffffffff169050600073ffffffffffffffffffffffffffffffffffffffff168173ffffffffffffffffffffffffffffffffffffffff161415612f3357600d600084815260200190815260200160002060009054906101000a900473ffffffffffffffffffffffffffffffffffffffff1690505b80915050919050565b818190508484905014612f84576040517f08c379a0000000000000000000000000000000000000000000000000000000008152600401612f7b906156f3565b60405180910390fd5b600084849050905060005b81811015613024576130168989888885818110612fa857fe5b9050602002810190612fba9190615a45565b8080601f016020809104026020016040519081016040528093929190818152602001838380828437600081840152601f19601f820116905080830192505050505050508a88888781811061300a57fe5b9050602002013561291c565b508080600101915050612f8f565b505050505050505050565b61303a8484846128f3565b61304684848484613b0f565b613085576040517f08c379a000000000000000000000000000000000000000000000000000000000815260040161307c906157b3565b60405180910390fd5b50505050565b6127108111156130d0576040517f08c379a00000000000000000000000000000000000000000000000000000000081526004016130c790615793565b60405180910390fd5b80600e600084815260200190815260200160002081905550817fd91bd92b973231f564eaa17c9bc62c86b96a8885f3cdcb990d5a3f0415580d908260405161311891906159f3565b60405180910390a25050565b600082829050905060005b818110156131b3576131a5878786868581811061314857fe5b905060200281019061315a9190615a45565b8080601f016020809104026020016040519081016040528093929190818152602001838380828437600081840152601f19601f8201169050808301925050505050505088600061291c565b50808060010191505061312f565b50505050505050565b60006131ce836000018360001b613c90565b905092915050565b6132578363a9059cbb60e01b84846040516024016131f59291906155ed565b604051602081830303815290604052907bffffffffffffffffffffffffffffffffffffffffffffffffffffffff19166020820180517bffffffffffffffffffffffffffffffffffffffffffffffffffffffff8381831617835250505050613cb3565b505050565b600081600001805490509050919050565b60008083141561328057600090506132d7565b600082840290508284828161329157fe5b04146132d2576040517f08c379a00000000000000000000000000000000000000000000000000000000081526004016132c990615813565b60405180910390fd5b809150505b92915050565b600061331f83836040518060400160405280601a81526020017f536166654d6174683a206469766973696f6e206279207a65726f000000000000815250613d7a565b905092915050565b600061336983836040518060400160405280601e81526020017f536166654d6174683a207375627472616374696f6e206f766572666c6f770000815250613ddb565b905092915050565b6000808284019050838110156133bc576040517f08c379a00000000000000000000000000000000000000000000000000000000081526004016133b3906156d3565b60405180910390fd5b8091505092915050565b81471015613409576040517f08c379a0000000000000000000000000000000000000000000000000000000008152600401613400906157f3565b60405180910390fd5b600080821161347e578373ffffffffffffffffffffffffffffffffffffffff168360405161343690615511565b60006040518083038185875af1925050503d8060008114613473576040519150601f19603f3d011682016040523d82523d6000602084013e613478565b606091505b506134e9565b8373ffffffffffffffffffffffffffffffffffffffff168383906040516134a490615511565b600060405180830381858888f193505050503d80600081146134e2576040519150601f19603f3d011682016040523d82523d6000602084013e6134e7565b606091505b505b5090508061352c576040517f08c379a000000000000000000000000000000000000000000000000000000000815260040161352390615853565b60405180910390fd5b50505050565b6000613547833461332790919063ffffffff16565b9050600081111561358557613584818361355f612255565b73ffffffffffffffffffffffffffffffffffffffff166133c69092919063ffffffff16565b5b505050565b8273ffffffffffffffffffffffffffffffffffffffff166135aa826114f0565b73ffffffffffffffffffffffffffffffffffffffff1614613600576040517f08c379a00000000000000000000000000000000000000000000000000000000081526004016135f7906158f3565b60405180910390fd5b600073ffffffffffffffffffffffffffffffffffffffff168273ffffffffffffffffffffffffffffffffffffffff161415613670576040517f08c379a0000000000000000000000000000000000000000000000000000000008152600401613667906156b3565b60405180910390fd5b61367b6000826123b3565b6136cc81600160008673ffffffffffffffffffffffffffffffffffffffff1673ffffffffffffffffffffffffffffffffffffffff168152602001908152602001600020613e3690919063ffffffff16565b5061371e81600160008573ffffffffffffffffffffffffffffffffffffffff1673ffffffffffffffffffffffffffffffffffffffff168152602001908152602001600020613e5090919063ffffffff16565b5061373581836002613e6a9092919063ffffffff16565b50808273ffffffffffffffffffffffffffffffffffffffff168473ffffffffffffffffffffffffffffffffffffffff167fddf252ad1be2c89b69c2b068fc378daa952ba7f163c4a11628f55a4df523b3ef60405160405180910390a4505050565b6001816000016000828254019250508190555050565b600081600001549050919050565b6137c48383613e9f565b6137d16000848484613b0f565b613810576040517f08c379a0000000000000000000000000000000000000000000000000000000008152600401613807906157b3565b60405180910390fd5b505050565b61381e82612396565b61385d576040517f08c379a000000000000000000000000000000000000000000000000000000000815260040161385490615973565b60405180910390fd5b806008600084815260200190815260200160002090805190602001906138849291906143c6565b505050565b6000818360000180549050116138d4576040517f08c379a00000000000000000000000000000000000000000000000000000000081526004016138cb90615653565b60405180910390fd5b8260000182815481106138e357fe5b9060005260206000200154905092915050565b60008082846000018054905011613942576040517f08c379a0000000000000000000000000000000000000000000000000000000008152600401613939906157d3565b60405180910390fd5b600084600001848154811061395357fe5b906000526020600020906002020190508060000154816001015492509250509250929050565b804710156139bc576040517f08c379a00000000000000000000000000000000000000000000000000000000081526004016139b390615733565b60405180910390fd5b60008273ffffffffffffffffffffffffffffffffffffffff16826040516139e290615511565b60006040518083038185875af1925050503d8060008114613a1f576040519150601f19603f3d011682016040523d82523d6000602084013e613a24565b606091505b5050905080613a68576040517f08c379a0000000000000000000000000000000000000000000000000000000008152600401613a5f90615713565b60405180910390fd5b505050565b60008084600101600085815260200190815260200160002054905060008114158390613acf576040517f08c379a0000000000000000000000000000000000000000000000000000000008152600401613ac69190615631565b60405180910390fd5b50846000016001820381548110613ae257fe5b9060005260206000209060020201600101549150509392505050565b600081600001805490509050919050565b6000613b308473ffffffffffffffffffffffffffffffffffffffff16614021565b613b3d5760019050613c88565b6060613c2163150b7a0260e01b613b52612255565b888787604051602401613b689493929190615541565b604051602081830303815290604052907bffffffffffffffffffffffffffffffffffffffffffffffffffffffff19166020820180517bffffffffffffffffffffffffffffffffffffffffffffffffffffffff83818316178352505050506040518060400160405280600c81526020017f4552433732313a452d34303200000000000000000000000000000000000000008152508773ffffffffffffffffffffffffffffffffffffffff166140349092919063ffffffff16565b9050600081806020019051810190613c399190614ab5565b905063150b7a0260e01b7bffffffffffffffffffffffffffffffffffffffffffffffffffffffff1916817bffffffffffffffffffffffffffffffffffffffffffffffffffffffff191614925050505b949350505050565b600080836001016000848152602001908152602001600020541415905092915050565b6060613d15826040518060400160405280602081526020017f5361666545524332303a206c6f772d6c6576656c2063616c6c206661696c65648152508573ffffffffffffffffffffffffffffffffffffffff166140349092919063ffffffff16565b9050600081511115613d755780806020019051810190613d359190614a63565b613d74576040517f08c379a0000000000000000000000000000000000000000000000000000000008152600401613d6b90615953565b60405180910390fd5b5b505050565b60008083118290613dc1576040517f08c379a0000000000000000000000000000000000000000000000000000000008152600401613db89190615631565b60405180910390fd5b506000838581613dcd57fe5b049050809150509392505050565b6000838311158290613e23576040517f08c379a0000000000000000000000000000000000000000000000000000000008152600401613e1a9190615631565b60405180910390fd5b5060008385039050809150509392505050565b6000613e48836000018360001b61404c565b905092915050565b6000613e62836000018360001b614134565b905092915050565b6000613e96846000018460001b8473ffffffffffffffffffffffffffffffffffffffff1660001b6141a4565b90509392505050565b600073ffffffffffffffffffffffffffffffffffffffff168273ffffffffffffffffffffffffffffffffffffffff161415613f0f576040517f08c379a0000000000000000000000000000000000000000000000000000000008152600401613f06906156b3565b60405180910390fd5b613f1881612396565b15613f58576040517f08c379a0000000000000000000000000000000000000000000000000000000008152600401613f4f90615873565b60405180910390fd5b613fa981600160008573ffffffffffffffffffffffffffffffffffffffff1673ffffffffffffffffffffffffffffffffffffffff168152602001908152602001600020613e5090919063ffffffff16565b50613fc081836002613e6a9092919063ffffffff16565b50808273ffffffffffffffffffffffffffffffffffffffff16600073ffffffffffffffffffffffffffffffffffffffff167fddf252ad1be2c89b69c2b068fc378daa952ba7f163c4a11628f55a4df523b3ef60405160405180910390a45050565b600080823b905060008111915050919050565b60606140438484600085614280565b90509392505050565b60008083600101600084815260200190815260200160002054905060008114614128576000600182039050600060018660000180549050039050600086600001828154811061409757fe5b90600052602060002001549050808760000184815481106140b457fe5b90600052602060002001819055506001830187600101600083815260200190815260200160002081905550866000018054806140ec57fe5b6001900381819060005260206000200160009055905586600101600087815260200190815260200160002060009055600194505050505061412e565b60009150505b92915050565b600061414083836143a3565b61419957826000018290806001815401808255809150506001900390600052602060002001600090919091909150558260000180549050836001016000848152602001908152602001600020819055506001905061419e565b600090505b92915050565b600080846001016000858152602001908152602001600020549050600081141561424b57846000016040518060400160405280868152602001858152509080600181540180825580915050600190039060005260206000209060020201600090919091909150600082015181600001556020820151816001015550508460000180549050856001016000868152602001908152602001600020819055506001915050614279565b8285600001600183038154811061425e57fe5b90600052602060002090600202016001018190555060009150505b9392505050565b606061428b85614021565b6142ca576040517f08c379a00000000000000000000000000000000000000000000000000000000081526004016142c1906158d3565b60405180910390fd5b600060608673ffffffffffffffffffffffffffffffffffffffff1685876040516142f491906154fa565b60006040518083038185875af1925050503d8060008114614331576040519150601f19603f3d011682016040523d82523d6000602084013e614336565b606091505b5091509150811561434b57809250505061439b565b60008151111561435e5780518082602001fd5b836040517f08c379a00000000000000000000000000000000000000000000000000000000081526004016143929190615631565b60405180910390fd5b949350505050565b600080836001016000848152602001908152602001600020541415905092915050565b828054600181600116156101000203166002900490600052602060002090601f016020900481019282601f1061440757805160ff1916838001178555614435565b82800160010185558215614435579182015b82811115614434578251825591602001919060010190614419565b5b5090506144429190614446565b5090565b5b8082111561445f576000816000905550600101614447565b5090565b60008135905061447281615c73565b92915050565b60008151905061448781615c73565b92915050565b60008135905061449c81615c8a565b92915050565b60008083601f8401126144b457600080fd5b8235905067ffffffffffffffff8111156144cd57600080fd5b6020830191508360208202830111156144e557600080fd5b9250929050565b60008083601f8401126144fe57600080fd5b8235905067ffffffffffffffff81111561451757600080fd5b60208301915083602082028301111561452f57600080fd5b9250929050565b60008135905061454581615ca1565b92915050565b60008151905061455a81615ca1565b92915050565b60008135905061456f81615cb8565b92915050565b60008151905061458481615cb8565b92915050565b600082601f83011261459b57600080fd5b81356145ae6145a982615ac9565b615a9c565b915080825260208301602083018583830111156145ca57600080fd5b6145d5838284615c20565b50505092915050565b600082601f8301126145ef57600080fd5b81356146026145fd82615af5565b615a9c565b9150808252602083016020830185838301111561461e57600080fd5b614629838284615c20565b50505092915050565b60008135905061464181615ccf565b92915050565b60008151905061465681615ccf565b92915050565b60006020828403121561466e57600080fd5b600061467c84828501614463565b91505092915050565b60006020828403121561469757600080fd5b60006146a584828501614478565b91505092915050565b6000806000606084860312156146c357600080fd5b60006146d18682870161448d565b93505060206146e286828701614463565b92505060406146f386828701614632565b9150509250925092565b6000806040838503121561471057600080fd5b600061471e8582860161448d565b925050602061472f85828601614632565b9150509250929050565b6000806040838503121561474c57600080fd5b600061475a85828601614463565b925050602061476b85828601614463565b9150509250929050565b6000806000806060858703121561478b57600080fd5b600061479987828801614463565b94505060206147aa87828801614463565b935050604085013567ffffffffffffffff8111156147c757600080fd5b6147d3878288016144a2565b925092505092959194509250565b6000806000606084860312156147f657600080fd5b600061480486828701614463565b935050602061481586828701614463565b925050604084013567ffffffffffffffff81111561483257600080fd5b61483e868287016145de565b9150509250925092565b60008060006060848603121561485d57600080fd5b600061486b86828701614463565b935050602061487c86828701614463565b925050604061488d86828701614632565b9150509250925092565b600080600080600080600060a0888a0312156148b257600080fd5b60006148c08a828b01614463565b97505060206148d18a828b01614463565b96505060406148e28a828b01614632565b955050606088013567ffffffffffffffff8111156148ff57600080fd5b61490b8a828b016144a2565b9450945050608088013567ffffffffffffffff81111561492a57600080fd5b6149368a828b016144ec565b925092505092959891949750929550565b6000806000806080858703121561495d57600080fd5b600061496b87828801614463565b945050602061497c87828801614463565b935050604061498d87828801614632565b925050606085013567ffffffffffffffff8111156149aa57600080fd5b6149b68782880161458a565b91505092959194509250565b600080604083850312156149d557600080fd5b60006149e385828601614463565b92505060206149f485828601614536565b9150509250929050565b60008060408385031215614a1157600080fd5b6000614a1f85828601614463565b9250506020614a3085828601614632565b9150509250929050565b600060208284031215614a4c57600080fd5b6000614a5a84828501614536565b91505092915050565b600060208284031215614a7557600080fd5b6000614a838482850161454b565b91505092915050565b600060208284031215614a9e57600080fd5b6000614aac84828501614560565b91505092915050565b600060208284031215614ac757600080fd5b6000614ad584828501614575565b91505092915050565b600060208284031215614af057600080fd5b6000614afe84828501614632565b91505092915050565b600060208284031215614b1957600080fd5b6000614b2784828501614647565b91505092915050565b60008060408385031215614b4357600080fd5b6000614b5185828601614632565b9250506020614b6285828601614463565b9150509250929050565b60008060408385031215614b7f57600080fd5b6000614b8d85828601614632565b9250506020614b9e85828601614632565b9150509250929050565b614bb181615bea565b82525050565b614bc081615b76565b82525050565b614bcf81615b64565b82525050565b614bde81615b88565b82525050565b6000614bef82615b21565b614bf98185615b37565b9350614c09818560208601615c2f565b614c1281615c62565b840191505092915050565b6000614c2882615b21565b614c328185615b48565b9350614c42818560208601615c2f565b80840191505092915050565b6000614c5982615b2c565b614c638185615b53565b9350614c73818560208601615c2f565b614c7c81615c62565b840191505092915050565b6000614c94602283615b53565b91507f456e756d657261626c655365743a20696e646578206f7574206f6620626f756e60008301527f64730000000000000000000000000000000000000000000000000000000000006020830152604082019050919050565b6000614cfa602683615b53565b91507f4f776e61626c653a206e6577206f776e657220697320746865207a65726f206160008301527f64647265737300000000000000000000000000000000000000000000000000006020830152604082019050919050565b6000614d60600983615b53565b91507f4248503a452d34303300000000000000000000000000000000000000000000006000830152602082019050919050565b6000614da0600c83615b53565b91507f4552433732313a452d34303300000000000000000000000000000000000000006000830152602082019050919050565b6000614de0601b83615b53565b91507f536166654d6174683a206164646974696f6e206f766572666c6f7700000000006000830152602082019050919050565b6000614e20600983615b53565b91507f5052543a452d32303200000000000000000000000000000000000000000000006000830152602082019050919050565b6000614e60603a83615b53565b91507f416464726573733a20756e61626c6520746f2073656e642076616c75652c207260008301527f6563697069656e74206d617920686176652072657665727465640000000000006020830152604082019050919050565b6000614ec6601d83615b53565b91507f416464726573733a20696e73756666696369656e742062616c616e63650000006000830152602082019050919050565b6000614f06600983615b53565b91507f5052543a452d34313400000000000000000000000000000000000000000000006000830152602082019050919050565b6000614f46600983615b53565b91507f5052543a452d34313600000000000000000000000000000000000000000000006000830152602082019050919050565b6000614f86600983615b53565b91507f5052543a452d34323100000000000000000000000000000000000000000000006000830152602082019050919050565b6000614fc6600c83615b53565b91507f4552433732313a452d34303200000000000000000000000000000000000000006000830152602082019050919050565b6000615006602283615b53565b91507f456e756d657261626c654d61703a20696e646578206f7574206f6620626f756e60008301527f64730000000000000000000000000000000000000000000000000000000000006020830152604082019050919050565b600061506c601f83615b53565b91507f546f6b656e496e666f3a20696e73756666696369656e742062616c616e6365006000830152602082019050919050565b60006150ac602183615b53565b91507f536166654d6174683a206d756c7469706c69636174696f6e206f766572666c6f60008301527f77000000000000000000000000000000000000000000000000000000000000006020830152604082019050919050565b6000615112602083615b53565b91507f4f776e61626c653a2063616c6c6572206973206e6f7420746865206f776e65726000830152602082019050919050565b6000615152603c83615b53565b91507f546f6b656e496e666f3a20756e61626c6520746f2073656e642076616c75652c60008301527f20726563697069656e74206d61792068617665207265766572746564000000006020830152604082019050919050565b60006151b8600c83615b53565b91507f4552433732313a452d34303700000000000000000000000000000000000000006000830152602082019050919050565b60006151f8600c83615b53565b91507f4552433732313a452d31303500000000000000000000000000000000000000006000830152602082019050919050565b6000615238600983615b53565b91507f5052543a452d31303400000000000000000000000000000000000000000000006000830152602082019050919050565b6000615278600083615b48565b9150600082019050919050565b6000615292601d83615b53565b91507f416464726573733a2063616c6c20746f206e6f6e2d636f6e74726163740000006000830152602082019050919050565b60006152d2600c83615b53565b91507f4552433732313a452d31303200000000000000000000000000000000000000006000830152602082019050919050565b6000615312600983615b53565b91507f5052543a452d34313100000000000000000000000000000000000000000000006000830152602082019050919050565b6000615352600983615b53565b91507f5052543a452d31303100000000000000000000000000000000000000000000006000830152602082019050919050565b6000615392602a83615b53565b91507f5361666545524332303a204552433230206f7065726174696f6e20646964206e60008301527f6f742073756363656564000000000000000000000000000000000000000000006020830152604082019050919050565b60006153f8600c83615b53565b91507f4552433732313a452d34303500000000000000000000000000000000000000006000830152602082019050919050565b6000615438601f83615b53565b91507f5265656e7472616e637947756172643a207265656e7472616e742063616c6c006000830152602082019050919050565b6000615478600983615b53565b91507f5052543a452d31303500000000000000000000000000000000000000000000006000830152602082019050919050565b60006154b8600c83615b53565b91507f4552433732313a452d31313100000000000000000000000000000000000000006000830152602082019050919050565b6154f481615be0565b82525050565b60006155068284614c1d565b915081905092915050565b600061551c8261526b565b9150819050919050565b600060208201905061553b6000830184614bc6565b92915050565b60006080820190506155566000830187614bb7565b6155636020830186614bc6565b61557060408301856154eb565b81810360608301526155828184614be4565b905095945050505050565b60006040820190506155a26000830185614ba8565b6155af60208301846154eb565b9392505050565b60006060820190506155cb6000830186614bc6565b6155d86020830185614ba8565b6155e560408301846154eb565b949350505050565b60006040820190506156026000830185614bc6565b61560f60208301846154eb565b9392505050565b600060208201905061562b6000830184614bd5565b92915050565b6000602082019050818103600083015261564b8184614c4e565b905092915050565b6000602082019050818103600083015261566c81614c87565b9050919050565b6000602082019050818103600083015261568c81614ced565b9050919050565b600060208201905081810360008301526156ac81614d53565b9050919050565b600060208201905081810360008301526156cc81614d93565b9050919050565b600060208201905081810360008301526156ec81614dd3565b9050919050565b6000602082019050818103600083015261570c81614e13565b9050919050565b6000602082019050818103600083015261572c81614e53565b9050919050565b6000602082019050818103600083015261574c81614eb9565b9050919050565b6000602082019050818103600083015261576c81614ef9565b9050919050565b6000602082019050818103600083015261578c81614f39565b9050919050565b600060208201905081810360008301526157ac81614f79565b9050919050565b600060208201905081810360008301526157cc81614fb9565b9050919050565b600060208201905081810360008301526157ec81614ff9565b9050919050565b6000602082019050818103600083015261580c8161505f565b9050919050565b6000602082019050818103600083015261582c8161509f565b9050919050565b6000602082019050818103600083015261584c81615105565b9050919050565b6000602082019050818103600083015261586c81615145565b9050919050565b6000602082019050818103600083015261588c816151ab565b9050919050565b600060208201905081810360008301526158ac816151eb565b9050919050565b600060208201905081810360008301526158cc8161522b565b9050919050565b600060208201905081810360008301526158ec81615285565b9050919050565b6000602082019050818103600083015261590c816152c5565b9050919050565b6000602082019050818103600083015261592c81615305565b9050919050565b6000602082019050818103600083015261594c81615345565b9050919050565b6000602082019050818103600083015261596c81615385565b9050919050565b6000602082019050818103600083015261598c816153eb565b9050919050565b600060208201905081810360008301526159ac8161542b565b9050919050565b600060208201905081810360008301526159cc8161546b565b9050919050565b600060208201905081810360008301526159ec816154ab565b9050919050565b6000602082019050615a0860008301846154eb565b92915050565b6000606082019050615a2360008301866154eb565b615a306020830185614bc6565b615a3d60408301846154eb565b949350505050565b60008083356001602003843603038112615a5e57600080fd5b80840192508235915067ffffffffffffffff821115615a7c57600080fd5b602083019250600182023603831315615a9457600080fd5b509250929050565b6000604051905081810181811067ffffffffffffffff82111715615abf57600080fd5b8060405250919050565b600067ffffffffffffffff821115615ae057600080fd5b601f19601f8301169050602081019050919050565b600067ffffffffffffffff821115615b0c57600080fd5b601f19601f8301169050602081019050919050565b600081519050919050565b600081519050919050565b600082825260208201905092915050565b600081905092915050565b600082825260208201905092915050565b6000615b6f82615bc0565b9050919050565b6000615b8182615bc0565b9050919050565b60008115159050919050565b60007fffffffff0000000000000000000000000000000000000000000000000000000082169050919050565b600073ffffffffffffffffffffffffffffffffffffffff82169050919050565b6000819050919050565b6000615bf582615bfc565b9050919050565b6000615c0782615c0e565b9050919050565b6000615c1982615bc0565b9050919050565b82818337600083830152505050565b60005b83811015615c4d578082015181840152602081019050615c32565b83811115615c5c576000848401525b50505050565b6000601f19601f8301169050919050565b615c7c81615b64565b8114615c8757600080fd5b50565b615c9381615b76565b8114615c9e57600080fd5b50565b615caa81615b88565b8114615cb557600080fd5b50565b615cc181615b94565b8114615ccc57600080fd5b50565b615cd881615be0565b8114615ce357600080fd5b5056fe312e302e302d626574612e312f636861726765642d7061727469636c65732e72656c61792e726563697069656e74a2646970667358221220392ee5a57e16b2c515e62ad182b325b6b512a8203083d49d0984d88c05b577e164736f6c634300060c0033",
  "linkReferences": {},
  "deployedLinkReferences": {}
}