{
  "_format": "hh-sol-artifact-1",
  "contractName": "Azuki",
  "sourceName": "contracts/ERC712A.sol",
  "abi": [
    {
      "inputs": [],
      "stateMutability": "nonpayable",
      "type": "constructor"
    },
    {
      "inputs": [],
      "name": "ApprovalCallerNotOwnerNorApproved",
      "type": "error"
    },
    {
      "inputs": [],
      "name": "ApprovalQueryForNonexistentToken",
      "type": "error"
    },
    {
      "inputs": [],
      "name": "BalanceQueryForZeroAddress",
      "type": "error"
    },
    {
      "inputs": [],
      "name": "MintERC2309QuantityExceedsLimit",
      "type": "error"
    },
    {
      "inputs": [],
      "name": "MintToZeroAddress",
      "type": "error"
    },
    {
      "inputs": [],
      "name": "MintZeroQuantity",
      "type": "error"
    },
    {
      "inputs": [],
      "name": "OwnerQueryForNonexistentToken",
      "type": "error"
    },
    {
      "inputs": [],
      "name": "OwnershipNotInitializedForExtraData",
      "type": "error"
    },
    {
      "inputs": [],
      "name": "TransferCallerNotOwnerNorApproved",
      "type": "error"
    },
    {
      "inputs": [],
      "name": "TransferFromIncorrectOwner",
      "type": "error"
    },
    {
      "inputs": [],
      "name": "TransferToNonERC721ReceiverImplementer",
      "type": "error"
    },
    {
      "inputs": [],
      "name": "TransferToZeroAddress",
      "type": "error"
    },
    {
      "inputs": [],
      "name": "URIQueryForNonexistentToken",
      "type": "error"
    },
    {
      "anonymous": false,
      "inputs": [
        {
          "indexed": true,
          "internalType": "address",
          "name": "owner",
          "type": "address"
        },
        {
          "indexed": true,
          "internalType": "address",
          "name": "approved",
          "type": "address"
        },
        {
          "indexed": true,
          "internalType": "uint256",
          "name": "tokenId",
          "type": "uint256"
        }
      ],
      "name": "Approval",
      "type": "event"
    },
    {
      "anonymous": false,
      "inputs": [
        {
          "indexed": true,
          "internalType": "address",
          "name": "owner",
          "type": "address"
        },
        {
          "indexed": true,
          "internalType": "address",
          "name": "operator",
          "type": "address"
        },
        {
          "indexed": false,
          "internalType": "bool",
          "name": "approved",
          "type": "bool"
        }
      ],
      "name": "ApprovalForAll",
      "type": "event"
    },
    {
      "anonymous": false,
      "inputs": [
        {
          "indexed": true,
          "internalType": "uint256",
          "name": "fromTokenId",
          "type": "uint256"
        },
        {
          "indexed": false,
          "internalType": "uint256",
          "name": "toTokenId",
          "type": "uint256"
        },
        {
          "indexed": true,
          "internalType": "address",
          "name": "from",
          "type": "address"
        },
        {
          "indexed": true,
          "internalType": "address",
          "name": "to",
          "type": "address"
        }
      ],
      "name": "ConsecutiveTransfer",
      "type": "event"
    },
    {
      "anonymous": false,
      "inputs": [
        {
          "indexed": true,
          "internalType": "address",
          "name": "from",
          "type": "address"
        },
        {
          "indexed": true,
          "internalType": "address",
          "name": "to",
          "type": "address"
        },
        {
          "indexed": true,
          "internalType": "uint256",
          "name": "tokenId",
          "type": "uint256"
        }
      ],
      "name": "Transfer",
      "type": "event"
    },
    {
      "inputs": [
        {
          "internalType": "address",
          "name": "to",
          "type": "address"
        },
        {
          "internalType": "uint256",
          "name": "tokenId",
          "type": "uint256"
        }
      ],
      "name": "approve",
      "outputs": [],
      "stateMutability": "payable",
      "type": "function"
    },
    {
      "inputs": [
        {
          "internalType": "address",
          "name": "owner",
          "type": "address"
        }
      ],
      "name": "balanceOf",
      "outputs": [
        {
          "internalType": "uint256",
          "name": "",
          "type": "uint256"
        }
      ],
      "stateMutability": "view",
      "type": "function"
    },
    {
      "inputs": [
        {
          "internalType": "uint256",
          "name": "tokenId",
          "type": "uint256"
        }
      ],
      "name": "getApproved",
      "outputs": [
        {
          "internalType": "address",
          "name": "",
          "type": "address"
        }
      ],
      "stateMutability": "view",
      "type": "function"
    },
    {
      "inputs": [
        {
          "internalType": "address",
          "name": "owner",
          "type": "address"
        },
        {
          "internalType": "address",
          "name": "operator",
          "type": "address"
        }
      ],
      "name": "isApprovedForAll",
      "outputs": [
        {
          "internalType": "bool",
          "name": "",
          "type": "bool"
        }
      ],
      "stateMutability": "view",
      "type": "function"
    },
    {
      "inputs": [
        {
          "internalType": "uint256",
          "name": "quantity",
          "type": "uint256"
        }
      ],
      "name": "mint",
      "outputs": [],
      "stateMutability": "payable",
      "type": "function"
    },
    {
      "inputs": [],
      "name": "name",
      "outputs": [
        {
          "internalType": "string",
          "name": "",
          "type": "string"
        }
      ],
      "stateMutability": "view",
      "type": "function"
    },
    {
      "inputs": [
        {
          "internalType": "uint256",
          "name": "tokenId",
          "type": "uint256"
        }
      ],
      "name": "ownerOf",
      "outputs": [
        {
          "internalType": "address",
          "name": "",
          "type": "address"
        }
      ],
      "stateMutability": "view",
      "type": "function"
    },
    {
      "inputs": [
        {
          "internalType": "address",
          "name": "from",
          "type": "address"
        },
        {
          "internalType": "address",
          "name": "to",
          "type": "address"
        },
        {
          "internalType": "uint256",
          "name": "tokenId",
          "type": "uint256"
        }
      ],
      "name": "safeTransferFrom",
      "outputs": [],
      "stateMutability": "payable",
      "type": "function"
    },
    {
      "inputs": [
        {
          "internalType": "address",
          "name": "from",
          "type": "address"
        },
        {
          "internalType": "address",
          "name": "to",
          "type": "address"
        },
        {
          "internalType": "uint256",
          "name": "tokenId",
          "type": "uint256"
        },
        {
          "internalType": "bytes",
          "name": "_data",
          "type": "bytes"
        }
      ],
      "name": "safeTransferFrom",
      "outputs": [],
      "stateMutability": "payable",
      "type": "function"
    },
    {
      "inputs": [
        {
          "internalType": "address",
          "name": "operator",
          "type": "address"
        },
        {
          "internalType": "bool",
          "name": "approved",
          "type": "bool"
        }
      ],
      "name": "setApprovalForAll",
      "outputs": [],
      "stateMutability": "nonpayable",
      "type": "function"
    },
    {
      "inputs": [
        {
          "internalType": "bytes4",
          "name": "interfaceId",
          "type": "bytes4"
        }
      ],
      "name": "supportsInterface",
      "outputs": [
        {
          "internalType": "bool",
          "name": "",
          "type": "bool"
        }
      ],
      "stateMutability": "view",
      "type": "function"
    },
    {
      "inputs": [],
      "name": "symbol",
      "outputs": [
        {
          "internalType": "string",
          "name": "",
          "type": "string"
        }
      ],
      "stateMutability": "view",
      "type": "function"
    },
    {
      "inputs": [
        {
          "internalType": "uint256",
          "name": "tokenId",
          "type": "uint256"
        }
      ],
      "name": "tokenURI",
      "outputs": [
        {
          "internalType": "string",
          "name": "",
          "type": "string"
        }
      ],
      "stateMutability": "view",
      "type": "function"
    },
    {
      "inputs": [],
      "name": "totalSupply",
      "outputs": [
        {
          "internalType": "uint256",
          "name": "",
          "type": "uint256"
        }
      ],
      "stateMutability": "view",
      "type": "function"
    },
    {
      "inputs": [
        {
          "internalType": "address",
          "name": "from",
          "type": "address"
        },
        {
          "internalType": "address",
          "name": "to",
          "type": "address"
        },
        {
          "internalType": "uint256",
          "name": "tokenId",
          "type": "uint256"
        }
      ],
      "name": "transferFrom",
      "outputs": [],
      "stateMutability": "payable",
      "type": "function"
    }
  ],
  "bytecode": "0x60806040523480156200001157600080fd5b5060405180604001604052806005815260200164417a756b6960d81b81525060405180604001604052806005815260200164415a554b4960d81b81525081600290805190602001906200006692919062000089565b5080516200007c90600390602084019062000089565b505060008055506200016b565b82805462000097906200012f565b90600052602060002090601f016020900481019282620000bb576000855562000106565b82601f10620000d657805160ff191683800117855562000106565b8280016001018555821562000106579182015b8281111562000106578251825591602001919060010190620000e9565b506200011492915062000118565b5090565b5b8082111562000114576000815560010162000119565b600181811c908216806200014457607f821691505b6020821081036200016557634e487b7160e01b600052602260045260246000fd5b50919050565b610e84806200017b6000396000f3fe6080604052600436106100e85760003560e01c80636352211e1161008a578063a22cb46511610059578063a22cb46514610242578063b88d4fde14610262578063c87b56dd14610275578063e985e9c51461029557600080fd5b80636352211e146101da57806370a08231146101fa57806395d89b411461021a578063a0712d681461022f57600080fd5b8063095ea7b3116100c6578063095ea7b31461017c57806318160ddd1461019157806323b872dd146101b457806342842e0e146101c757600080fd5b806301ffc9a7146100ed57806306fdde0314610122578063081812fc14610144575b600080fd5b3480156100f957600080fd5b5061010d610108366004610aec565b6102de565b60405190151581526020015b60405180910390f35b34801561012e57600080fd5b50610137610330565b6040516101199190610b61565b34801561015057600080fd5b5061016461015f366004610b74565b6103c2565b6040516001600160a01b039091168152602001610119565b61018f61018a366004610ba9565b610406565b005b34801561019d57600080fd5b50600154600054035b604051908152602001610119565b61018f6101c2366004610bd3565b6104a6565b61018f6101d5366004610bd3565b61063e565b3480156101e657600080fd5b506101646101f5366004610b74565b61065e565b34801561020657600080fd5b506101a6610215366004610c0f565b610669565b34801561022657600080fd5b506101376106b8565b61018f61023d366004610b74565b6106c7565b34801561024e57600080fd5b5061018f61025d366004610c2a565b6106d4565b61018f610270366004610c7c565b610740565b34801561028157600080fd5b50610137610290366004610b74565b61078a565b3480156102a157600080fd5b5061010d6102b0366004610d58565b6001600160a01b03918216600090815260076020908152604080832093909416825291909152205460ff1690565b60006301ffc9a760e01b6001600160e01b03198316148061030f57506380ac58cd60e01b6001600160e01b03198316145b8061032a5750635b5e139f60e01b6001600160e01b03198316145b92915050565b60606002805461033f90610d8b565b80601f016020809104026020016040519081016040528092919081815260200182805461036b90610d8b565b80156103b85780601f1061038d576101008083540402835291602001916103b8565b820191906000526020600020905b81548152906001019060200180831161039b57829003601f168201915b5050505050905090565b60006103cd8261081b565b6103ea576040516333d1c03960e21b815260040160405180910390fd5b506000908152600660205260409020546001600160a01b031690565b60006104118261065e565b9050336001600160a01b0382161461044a5761042d81336102b0565b61044a576040516367d9dca160e11b815260040160405180910390fd5b60008281526006602052604080822080546001600160a01b0319166001600160a01b0387811691821790925591518593918516917f8c5be1e5ebec7d5bd14f71427d1e84f3dd0314c0f7b2291e5b200ac8c7c3b92591a4505050565b60006104b182610842565b9050836001600160a01b0316816001600160a01b0316146104e45760405162a1148160e81b815260040160405180910390fd5b60008281526006602052604090208054338082146001600160a01b038816909114176105315761051486336102b0565b61053157604051632ce44b5f60e11b815260040160405180910390fd5b6001600160a01b03851661055857604051633a954ecd60e21b815260040160405180910390fd5b801561056357600082555b6001600160a01b038681166000908152600560205260408082208054600019019055918716808252919020805460010190554260a01b17600160e11b17600085815260046020526040812091909155600160e11b841690036105f5576001840160008181526004602052604081205490036105f35760005481146105f35760008181526004602052604090208490555b505b83856001600160a01b0316876001600160a01b03167fddf252ad1be2c89b69c2b068fc378daa952ba7f163c4a11628f55a4df523b3ef60405160405180910390a4505050505050565b61065983838360405180602001604052806000815250610740565b505050565b600061032a82610842565b60006001600160a01b038216610692576040516323d3ad8160e21b815260040160405180910390fd5b506001600160a01b031660009081526005602052604090205467ffffffffffffffff1690565b60606003805461033f90610d8b565b6106d133826108a9565b50565b3360008181526007602090815260408083206001600160a01b03871680855290835292819020805460ff191686151590811790915590519081529192917f17307eab39ab6107e8899845ad3d59bd9653f200f220920489ca2b5937696c31910160405180910390a35050565b61074b8484846104a6565b6001600160a01b0383163b1561078457610767848484846109a7565b610784576040516368d2bf6b60e11b815260040160405180910390fd5b50505050565b60606107958261081b565b6107b257604051630a14c4b560e41b815260040160405180910390fd5b60006107c960408051602081019091526000815290565b905080516000036107e95760405180602001604052806000815250610814565b806107f384610a92565b604051602001610804929190610dc5565b6040516020818303038152906040525b9392505050565b600080548210801561032a575050600090815260046020526040902054600160e01b161590565b6000816000548110156108905760008181526004602052604081205490600160e01b8216900361088e575b8060000361081457506000190160008181526004602052604090205461086d565b505b604051636f96cda160e11b815260040160405180910390fd5b60008054908290036108ce5760405163b562e8dd60e01b815260040160405180910390fd5b6001600160a01b03831660008181526005602090815260408083208054680100000000000000018802019055848352600490915281206001851460e11b4260a01b178317905582840190839083907fddf252ad1be2c89b69c2b068fc378daa952ba7f163c4a11628f55a4df523b3ef8180a4600183015b81811461097d57808360007fddf252ad1be2c89b69c2b068fc378daa952ba7f163c4a11628f55a4df523b3ef600080a4600101610945565b508160000361099e57604051622e076360e81b815260040160405180910390fd5b60005550505050565b604051630a85bd0160e11b81526000906001600160a01b0385169063150b7a02906109dc903390899088908890600401610df4565b6020604051808303816000875af1925050508015610a17575060408051601f3d908101601f19168201909252610a1491810190610e31565b60015b610a75573d808015610a45576040519150601f19603f3d011682016040523d82523d6000602084013e610a4a565b606091505b508051600003610a6d576040516368d2bf6b60e11b815260040160405180910390fd5b805181602001fd5b6001600160e01b031916630a85bd0160e11b149050949350505050565b606060a06040510180604052602081039150506000815280825b600183039250600a81066030018353600a900480610aac5750819003601f19909101908152919050565b6001600160e01b0319811681146106d157600080fd5b600060208284031215610afe57600080fd5b813561081481610ad6565b60005b83811015610b24578181015183820152602001610b0c565b838111156107845750506000910152565b60008151808452610b4d816020860160208601610b09565b601f01601f19169290920160200192915050565b6020815260006108146020830184610b35565b600060208284031215610b8657600080fd5b5035919050565b80356001600160a01b0381168114610ba457600080fd5b919050565b60008060408385031215610bbc57600080fd5b610bc583610b8d565b946020939093013593505050565b600080600060608486031215610be857600080fd5b610bf184610b8d565b9250610bff60208501610b8d565b9150604084013590509250925092565b600060208284031215610c2157600080fd5b61081482610b8d565b60008060408385031215610c3d57600080fd5b610c4683610b8d565b915060208301358015158114610c5b57600080fd5b809150509250929050565b634e487b7160e01b600052604160045260246000fd5b60008060008060808587031215610c9257600080fd5b610c9b85610b8d565b9350610ca960208601610b8d565b925060408501359150606085013567ffffffffffffffff80821115610ccd57600080fd5b818701915087601f830112610ce157600080fd5b813581811115610cf357610cf3610c66565b604051601f8201601f19908116603f01168101908382118183101715610d1b57610d1b610c66565b816040528281528a6020848701011115610d3457600080fd5b82602086016020830137600060208483010152809550505050505092959194509250565b60008060408385031215610d6b57600080fd5b610d7483610b8d565b9150610d8260208401610b8d565b90509250929050565b600181811c90821680610d9f57607f821691505b602082108103610dbf57634e487b7160e01b600052602260045260246000fd5b50919050565b60008351610dd7818460208801610b09565b835190830190610deb818360208801610b09565b01949350505050565b6001600160a01b0385811682528416602082015260408101839052608060608201819052600090610e2790830184610b35565b9695505050505050565b600060208284031215610e4357600080fd5b815161081481610ad656fea2646970667358221220d3f540c35dccd5ad80f02523ddce20d14179fdc69f3ea2bdcdbd3ca83aaa7f2964736f6c634300080d0033",
  "linkReferences": {},
  "deployedLinkReferences": {}
}