{
  "_format": "hh-sol-artifact-1",
  "contractName": "ERC721All",
  "sourceName": "contracts/ERC721All.sol",
  "abi": [
    {
      "inputs": [
        {
          "internalType": "string",
          "name": "name",
          "type": "string"
        },
        {
          "internalType": "string",
          "name": "symbol",
          "type": "string"
        },
        {
          "internalType": "string",
          "name": "baseUri",
          "type": "string"
        }
      ],
      "stateMutability": "nonpayable",
      "type": "constructor"
    },
    {
      "inputs": [],
      "name": "AccountBalanceOverflow",
      "type": "error"
    },
    {
      "inputs": [],
      "name": "AlreadyInitialized",
      "type": "error"
    },
    {
      "inputs": [],
      "name": "BalanceQueryForZeroAddress",
      "type": "error"
    },
    {
      "inputs": [],
      "name": "NewOwnerIsZeroAddress",
      "type": "error"
    },
    {
      "inputs": [],
      "name": "NoHandoverRequest",
      "type": "error"
    },
    {
      "inputs": [],
      "name": "NotOwnerNorApproved",
      "type": "error"
    },
    {
      "inputs": [],
      "name": "TokenAlreadyExists",
      "type": "error"
    },
    {
      "inputs": [],
      "name": "TokenDoesNotExist",
      "type": "error"
    },
    {
      "inputs": [],
      "name": "TransferFromIncorrectOwner",
      "type": "error"
    },
    {
      "inputs": [],
      "name": "TransferToNonERC721ReceiverImplementer",
      "type": "error"
    },
    {
      "inputs": [],
      "name": "TransferToZeroAddress",
      "type": "error"
    },
    {
      "inputs": [],
      "name": "Unauthorized",
      "type": "error"
    },
    {
      "anonymous": false,
      "inputs": [
        {
          "indexed": true,
          "internalType": "address",
          "name": "owner",
          "type": "address"
        },
        {
          "indexed": true,
          "internalType": "address",
          "name": "account",
          "type": "address"
        },
        {
          "indexed": true,
          "internalType": "uint256",
          "name": "id",
          "type": "uint256"
        }
      ],
      "name": "Approval",
      "type": "event"
    },
    {
      "anonymous": false,
      "inputs": [
        {
          "indexed": true,
          "internalType": "address",
          "name": "owner",
          "type": "address"
        },
        {
          "indexed": true,
          "internalType": "address",
          "name": "operator",
          "type": "address"
        },
        {
          "indexed": false,
          "internalType": "bool",
          "name": "isApproved",
          "type": "bool"
        }
      ],
      "name": "ApprovalForAll",
      "type": "event"
    },
    {
      "anonymous": false,
      "inputs": [
        {
          "indexed": true,
          "internalType": "address",
          "name": "pendingOwner",
          "type": "address"
        }
      ],
      "name": "OwnershipHandoverCanceled",
      "type": "event"
    },
    {
      "anonymous": false,
      "inputs": [
        {
          "indexed": true,
          "internalType": "address",
          "name": "pendingOwner",
          "type": "address"
        }
      ],
      "name": "OwnershipHandoverRequested",
      "type": "event"
    },
    {
      "anonymous": false,
      "inputs": [
        {
          "indexed": true,
          "internalType": "address",
          "name": "oldOwner",
          "type": "address"
        },
        {
          "indexed": true,
          "internalType": "address",
          "name": "newOwner",
          "type": "address"
        }
      ],
      "name": "OwnershipTransferred",
      "type": "event"
    },
    {
      "anonymous": false,
      "inputs": [
        {
          "indexed": true,
          "internalType": "address",
          "name": "from",
          "type": "address"
        },
        {
          "indexed": true,
          "internalType": "address",
          "name": "to",
          "type": "address"
        },
        {
          "indexed": true,
          "internalType": "uint256",
          "name": "id",
          "type": "uint256"
        }
      ],
      "name": "Transfer",
      "type": "event"
    },
    {
      "inputs": [
        {
          "internalType": "address",
          "name": "account",
          "type": "address"
        },
        {
          "internalType": "uint256",
          "name": "id",
          "type": "uint256"
        }
      ],
      "name": "approve",
      "outputs": [],
      "stateMutability": "payable",
      "type": "function"
    },
    {
      "inputs": [
        {
          "internalType": "address",
          "name": "owner",
          "type": "address"
        }
      ],
      "name": "balanceOf",
      "outputs": [
        {
          "internalType": "uint256",
          "name": "result",
          "type": "uint256"
        }
      ],
      "stateMutability": "view",
      "type": "function"
    },
    {
      "inputs": [],
      "name": "cancelOwnershipHandover",
      "outputs": [],
      "stateMutability": "payable",
      "type": "function"
    },
    {
      "inputs": [
        {
          "internalType": "address",
          "name": "pendingOwner",
          "type": "address"
        }
      ],
      "name": "completeOwnershipHandover",
      "outputs": [],
      "stateMutability": "payable",
      "type": "function"
    },
    {
      "inputs": [
        {
          "internalType": "uint256",
          "name": "id",
          "type": "uint256"
        }
      ],
      "name": "getApproved",
      "outputs": [
        {
          "internalType": "address",
          "name": "result",
          "type": "address"
        }
      ],
      "stateMutability": "view",
      "type": "function"
    },
    {
      "inputs": [
        {
          "internalType": "address",
          "name": "owner",
          "type": "address"
        },
        {
          "internalType": "address",
          "name": "operator",
          "type": "address"
        }
      ],
      "name": "isApprovedForAll",
      "outputs": [
        {
          "internalType": "bool",
          "name": "result",
          "type": "bool"
        }
      ],
      "stateMutability": "view",
      "type": "function"
    },
    {
      "inputs": [],
      "name": "mint",
      "outputs": [],
      "stateMutability": "nonpayable",
      "type": "function"
    },
    {
      "inputs": [],
      "name": "name",
      "outputs": [
        {
          "internalType": "string",
          "name": "",
          "type": "string"
        }
      ],
      "stateMutability": "view",
      "type": "function"
    },
    {
      "inputs": [],
      "name": "owner",
      "outputs": [
        {
          "internalType": "address",
          "name": "result",
          "type": "address"
        }
      ],
      "stateMutability": "view",
      "type": "function"
    },
    {
      "inputs": [
        {
          "internalType": "uint256",
          "name": "id",
          "type": "uint256"
        }
      ],
      "name": "ownerOf",
      "outputs": [
        {
          "internalType": "address",
          "name": "result",
          "type": "address"
        }
      ],
      "stateMutability": "view",
      "type": "function"
    },
    {
      "inputs": [
        {
          "internalType": "address",
          "name": "pendingOwner",
          "type": "address"
        }
      ],
      "name": "ownershipHandoverExpiresAt",
      "outputs": [
        {
          "internalType": "uint256",
          "name": "result",
          "type": "uint256"
        }
      ],
      "stateMutability": "view",
      "type": "function"
    },
    {
      "inputs": [],
      "name": "renounceOwnership",
      "outputs": [],
      "stateMutability": "payable",
      "type": "function"
    },
    {
      "inputs": [],
      "name": "requestOwnershipHandover",
      "outputs": [],
      "stateMutability": "payable",
      "type": "function"
    },
    {
      "inputs": [
        {
          "internalType": "address",
          "name": "from",
          "type": "address"
        },
        {
          "internalType": "address",
          "name": "to",
          "type": "address"
        },
        {
          "internalType": "uint256",
          "name": "id",
          "type": "uint256"
        }
      ],
      "name": "safeTransferFrom",
      "outputs": [],
      "stateMutability": "payable",
      "type": "function"
    },
    {
      "inputs": [
        {
          "internalType": "address",
          "name": "from",
          "type": "address"
        },
        {
          "internalType": "address",
          "name": "to",
          "type": "address"
        },
        {
          "internalType": "uint256",
          "name": "id",
          "type": "uint256"
        },
        {
          "internalType": "bytes",
          "name": "data",
          "type": "bytes"
        }
      ],
      "name": "safeTransferFrom",
      "outputs": [],
      "stateMutability": "payable",
      "type": "function"
    },
    {
      "inputs": [
        {
          "internalType": "address",
          "name": "operator",
          "type": "address"
        },
        {
          "internalType": "bool",
          "name": "isApproved",
          "type": "bool"
        }
      ],
      "name": "setApprovalForAll",
      "outputs": [],
      "stateMutability": "nonpayable",
      "type": "function"
    },
    {
      "inputs": [
        {
          "internalType": "bytes4",
          "name": "interfaceId",
          "type": "bytes4"
        }
      ],
      "name": "supportsInterface",
      "outputs": [
        {
          "internalType": "bool",
          "name": "result",
          "type": "bool"
        }
      ],
      "stateMutability": "view",
      "type": "function"
    },
    {
      "inputs": [],
      "name": "symbol",
      "outputs": [
        {
          "internalType": "string",
          "name": "",
          "type": "string"
        }
      ],
      "stateMutability": "view",
      "type": "function"
    },
    {
      "inputs": [
        {
          "internalType": "uint256",
          "name": "id",
          "type": "uint256"
        }
      ],
      "name": "tokenURI",
      "outputs": [
        {
          "internalType": "string",
          "name": "",
          "type": "string"
        }
      ],
      "stateMutability": "view",
      "type": "function"
    },
    {
      "inputs": [
        {
          "internalType": "address",
          "name": "from",
          "type": "address"
        },
        {
          "internalType": "address",
          "name": "to",
          "type": "address"
        },
        {
          "internalType": "uint256",
          "name": "id",
          "type": "uint256"
        }
      ],
      "name": "transferFrom",
      "outputs": [],
      "stateMutability": "payable",
      "type": "function"
    },
    {
      "inputs": [
        {
          "internalType": "address",
          "name": "newOwner",
          "type": "address"
        }
      ],
      "name": "transferOwnership",
      "outputs": [],
      "stateMutability": "payable",
      "type": "function"
    }
  ],
  "bytecode": "0x60806040523480156200001157600080fd5b5060405162001057380380620010578339810160408190526200003491620001f2565b8051620000499060019060208401906200007f565b5081516200005f9060039060208501906200007f565b508251620000759060029060208601906200007f565b50505050620002bf565b8280546200008d9062000283565b90600052602060002090601f016020900481019282620000b15760008555620000fc565b82601f10620000cc57805160ff1916838001178555620000fc565b82800160010185558215620000fc579182015b82811115620000fc578251825591602001919060010190620000df565b506200010a9291506200010e565b5090565b5b808211156200010a57600081556001016200010f565b634e487b7160e01b600052604160045260246000fd5b600082601f8301126200014d57600080fd5b81516001600160401b03808211156200016a576200016a62000125565b604051601f8301601f19908116603f0116810190828211818310171562000195576200019562000125565b81604052838152602092508683858801011115620001b257600080fd5b600091505b83821015620001d65785820183015181830184015290820190620001b7565b83821115620001e85760008385830101525b9695505050505050565b6000806000606084860312156200020857600080fd5b83516001600160401b03808211156200022057600080fd5b6200022e878388016200013b565b945060208601519150808211156200024557600080fd5b62000253878388016200013b565b935060408601519150808211156200026a57600080fd5b5062000279868287016200013b565b9150509250925092565b600181811c908216806200029857607f821691505b602082108103620002b957634e487b7160e01b600052602260045260246000fd5b50919050565b610d8880620002cf6000396000f3fe60806040526004361061012a5760003560e01c806370a08231116100ab578063b88d4fde1161006f578063b88d4fde146102df578063c87b56dd146102f2578063e985e9c514610312578063f04e283e14610348578063f2fde38b1461035b578063fee81cf41461036e57600080fd5b806370a082311461025b578063715018a6146102895780638da5cb5b1461029157806395d89b41146102aa578063a22cb465146102bf57600080fd5b806323b872dd116100f257806323b872dd14610205578063256929621461021857806342842e0e1461022057806354d1f13d146102335780636352211e1461023b57600080fd5b806301ffc9a71461012f57806306fdde0314610181578063081812fc146101a3578063095ea7b3146101db5780631249c58b146101f0575b600080fd5b34801561013b57600080fd5b5061016c61014a366004610ad7565b6301ffc9a760e09190911c9081146380ac58cd821417635b5e139f9091141790565b60405190151581526020015b60405180910390f35b34801561018d57600080fd5b506101966103a1565b6040516101789190610b08565b3480156101af57600080fd5b506101c36101be366004610b5d565b610433565b6040516001600160a01b039091168152602001610178565b6101ee6101e9366004610b8d565b610472565b005b3480156101fc57600080fd5b506101ee610481565b6101ee610213366004610bb7565b61048d565b6101ee6105a4565b6101ee61022e366004610bb7565b6105f4565b6101ee610621565b34801561024757600080fd5b506101c3610256366004610b5d565b61065d565b34801561026757600080fd5b5061027b610276366004610bf3565b61069b565b604051908152602001610178565b6101ee6106d6565b34801561029d57600080fd5b50638b78c6d819546101c3565b3480156102b657600080fd5b506101966106e8565b3480156102cb57600080fd5b506101ee6102da366004610c0e565b6106f7565b6101ee6102ed366004610c4a565b61074d565b3480156102fe57600080fd5b5061019661030d366004610b5d565b6107a8565b34801561031e57600080fd5b5061016c61032d366004610ce5565b601c52670a5a2e7a000000006008526000526030600c205490565b6101ee610356366004610bf3565b61083c565b6101ee610369366004610bf3565b61087c565b34801561037a57600080fd5b5061027b610389366004610bf3565b63389a75e1600c908152600091909152602090205490565b6060600280546103b090610d18565b80601f01602080910402602001604051908101604052809291908181526020018280546103dc90610d18565b80156104295780601f106103fe57610100808354040283529160200191610429565b820191906000526020600020905b81548152906001019060200180831161040c57829003601f168201915b5050505050905090565b600081600052673ec412a9852d173d60c11b601c52602060002082018201805460601b6104685763ceea21b66000526004601cfd5b6001015492915050565b61047d3383836108a3565b5050565b61048b3380610944565b565b6000818152673ec412a9852d173d60c11b3317601c52602090208101810180546001600160a01b0394851694938416938116919082861483026104eb57826104dd5763ceea21b66000526004601cfd5b63a11481006000526004601cfd5b846104fe5763ea553b346000526004601cfd5b85600052816001015492508233148633141761052c576030600c205461052c57634b6e7f186000526004601cfd5b821561053a57600082600101555b85851818905550601c600c8181208054600019019055600084905220805460010163ffffffff8116610574576301336cea6000526004601cfd5b90558082847fddf252ad1be2c89b69c2b068fc378daa952ba7f163c4a11628f55a4df523b3ef600038a45b505050565b60006202a30067ffffffffffffffff164201905063389a75e1600c5233600052806020600c2055337fdbf36a107da19e49527a7176a1babf963b4b0ff8cde35ee35d6cd8f1f9ac7e1d600080a250565b6105ff83838361048d565b813b1561059f5761059f838383604051806020016040528060008152506109f2565b63389a75e1600c523360005260006020600c2055337ffa7b8eab7da67f412cc9575ed43464468f9bfbae89d1675917346ca6d8fe3c92600080a2565b6000818152673ec412a9852d173d60c11b601c526020902081018101546001600160a01b0316806106965763ceea21b66000526004601cfd5b919050565b6000816106b057638f4eb6046000526004601cfd5b673ec412a9852d173d60c11b601c528160005263ffffffff601c600c2054169050919050565b6106de610a7e565b61048b6000610a99565b6060600380546103b090610d18565b801515905081601c52670a5a2e7a0000000060085233600052806030600c2055806000528160601b60601c337f17307eab39ab6107e8899845ad3d59bd9653f200f220920489ca2b5937696c3160206000a35050565b61075885858561048d565b833b156107a1576107a185858585858080601f0160208091040260200160405190810160405280939291908181526020018383808284376000920191909152506109f292505050565b5050505050565b6060600180546107b790610d18565b80601f01602080910402602001604051908101604052809291908181526020018280546107e390610d18565b80156108305780601f1061080557610100808354040283529160200191610830565b820191906000526020600020905b81548152906001019060200180831161081357829003601f168201915b50505050509050919050565b610844610a7e565b63389a75e1600c52806000526020600c20805442111561086c57636f5e88186000526004601cfd5b6000905561087981610a99565b50565b610884610a7e565b8060601b61089a57637448fbae6000526004601cfd5b61087981610a99565b60001960601c828116925083811693508160005283673ec412a9852d173d60c11b17601c52602060002082018201805482169150816108ea5763ceea21b66000526004601cfd5b81851485151761091057816000526030600c205461091057634b6e7f186000526004601cfd5b6001018390558183827f8c5be1e5ebec7d5bd14f71427d1e84f3dd0314c0f7b2291e5b200ac8c7c3b925600038a450505050565b6001600160a01b0390911690816109635763ea553b346000526004601cfd5b80600052673ec412a9852d173d60c11b601c5260206000208101810180548060601b156109985763c991cbb16000526004601cfd5b831790556000829052601c600c20805460010163ffffffff81166109c4576301336cea6000526004601cfd5b9055808260007fddf252ad1be2c89b69c2b068fc378daa952ba7f163c4a11628f55a4df523b3ef8138a45050565b60405163150b7a028082523360208301528560601b60601c604083015283606083015260808083015282518060a08401528015610a39578060c08401826020870160045afa505b60208360a48301601c860160008a5af1610a5c573d15610a5c573d6000843e3d83fd5b508060e01b825114610a765763d1a57ed66000526004601cfd5b505050505050565b638b78c6d81954331461048b576382b429006000526004601cfd5b638b78c6d81980546001600160a01b039092169182907f8be0079c531659141344cd1fd0a4f28419497f9722a3daafe3b4186f6b6457e0600080a355565b600060208284031215610ae957600080fd5b81356001600160e01b031981168114610b0157600080fd5b9392505050565b600060208083528351808285015260005b81811015610b3557858101830151858201604001528201610b19565b81811115610b47576000604083870101525b50601f01601f1916929092016040019392505050565b600060208284031215610b6f57600080fd5b5035919050565b80356001600160a01b038116811461069657600080fd5b60008060408385031215610ba057600080fd5b610ba983610b76565b946020939093013593505050565b600080600060608486031215610bcc57600080fd5b610bd584610b76565b9250610be360208501610b76565b9150604084013590509250925092565b600060208284031215610c0557600080fd5b610b0182610b76565b60008060408385031215610c2157600080fd5b610c2a83610b76565b915060208301358015158114610c3f57600080fd5b809150509250929050565b600080600080600060808688031215610c6257600080fd5b610c6b86610b76565b9450610c7960208701610b76565b935060408601359250606086013567ffffffffffffffff80821115610c9d57600080fd5b818801915088601f830112610cb157600080fd5b813581811115610cc057600080fd5b896020828501011115610cd257600080fd5b9699959850939650602001949392505050565b60008060408385031215610cf857600080fd5b610d0183610b76565b9150610d0f60208401610b76565b90509250929050565b600181811c90821680610d2c57607f821691505b602082108103610d4c57634e487b7160e01b600052602260045260246000fd5b5091905056fea264697066735822122078bb6e11b2cd9e512fc02fd3642e7afa335c537ec19941bf4b8a2ca76562ccd264736f6c634300080d0033",
  "linkReferences": {},
  "deployedLinkReferences": {}
}