{
  "_format": "hh-sol-artifact-1",
  "contractName": "ERC721All",
  "sourceName": "contracts/ERC721All.sol",
  "abi": [
    {
      "inputs": [
        {
          "internalType": "string",
          "name": "name",
          "type": "string"
        },
        {
          "internalType": "string",
          "name": "symbol",
          "type": "string"
        }
      ],
      "stateMutability": "nonpayable",
      "type": "constructor"
    },
    {
      "anonymous": false,
      "inputs": [
        {
          "indexed": true,
          "internalType": "address",
          "name": "owner",
          "type": "address"
        },
        {
          "indexed": true,
          "internalType": "address",
          "name": "approved",
          "type": "address"
        },
        {
          "indexed": true,
          "internalType": "uint256",
          "name": "tokenId",
          "type": "uint256"
        }
      ],
      "name": "Approval",
      "type": "event"
    },
    {
      "anonymous": false,
      "inputs": [
        {
          "indexed": true,
          "internalType": "address",
          "name": "owner",
          "type": "address"
        },
        {
          "indexed": true,
          "internalType": "address",
          "name": "operator",
          "type": "address"
        },
        {
          "indexed": false,
          "internalType": "bool",
          "name": "approved",
          "type": "bool"
        }
      ],
      "name": "ApprovalForAll",
      "type": "event"
    },
    {
      "anonymous": false,
      "inputs": [
        {
          "indexed": true,
          "internalType": "address",
          "name": "previousOwner",
          "type": "address"
        },
        {
          "indexed": true,
          "internalType": "address",
          "name": "newOwner",
          "type": "address"
        }
      ],
      "name": "OwnershipTransferred",
      "type": "event"
    },
    {
      "anonymous": false,
      "inputs": [
        {
          "indexed": true,
          "internalType": "address",
          "name": "from",
          "type": "address"
        },
        {
          "indexed": true,
          "internalType": "address",
          "name": "to",
          "type": "address"
        },
        {
          "indexed": true,
          "internalType": "uint256",
          "name": "tokenId",
          "type": "uint256"
        }
      ],
      "name": "Transfer",
      "type": "event"
    },
    {
      "inputs": [
        {
          "internalType": "address",
          "name": "to",
          "type": "address"
        },
        {
          "internalType": "uint256",
          "name": "tokenId",
          "type": "uint256"
        }
      ],
      "name": "approve",
      "outputs": [],
      "stateMutability": "nonpayable",
      "type": "function"
    },
    {
      "inputs": [
        {
          "internalType": "address",
          "name": "owner",
          "type": "address"
        }
      ],
      "name": "balanceOf",
      "outputs": [
        {
          "internalType": "uint256",
          "name": "",
          "type": "uint256"
        }
      ],
      "stateMutability": "view",
      "type": "function"
    },
    {
      "inputs": [
        {
          "internalType": "uint256",
          "name": "tokenId",
          "type": "uint256"
        }
      ],
      "name": "getApproved",
      "outputs": [
        {
          "internalType": "address",
          "name": "",
          "type": "address"
        }
      ],
      "stateMutability": "view",
      "type": "function"
    },
    {
      "inputs": [
        {
          "internalType": "address",
          "name": "owner",
          "type": "address"
        },
        {
          "internalType": "address",
          "name": "operator",
          "type": "address"
        }
      ],
      "name": "isApprovedForAll",
      "outputs": [
        {
          "internalType": "bool",
          "name": "",
          "type": "bool"
        }
      ],
      "stateMutability": "view",
      "type": "function"
    },
    {
      "inputs": [],
      "name": "mint",
      "outputs": [],
      "stateMutability": "nonpayable",
      "type": "function"
    },
    {
      "inputs": [],
      "name": "name",
      "outputs": [
        {
          "internalType": "string",
          "name": "",
          "type": "string"
        }
      ],
      "stateMutability": "view",
      "type": "function"
    },
    {
      "inputs": [],
      "name": "owner",
      "outputs": [
        {
          "internalType": "address",
          "name": "",
          "type": "address"
        }
      ],
      "stateMutability": "view",
      "type": "function"
    },
    {
      "inputs": [
        {
          "internalType": "uint256",
          "name": "tokenId",
          "type": "uint256"
        }
      ],
      "name": "ownerOf",
      "outputs": [
        {
          "internalType": "address",
          "name": "",
          "type": "address"
        }
      ],
      "stateMutability": "view",
      "type": "function"
    },
    {
      "inputs": [],
      "name": "renounceOwnership",
      "outputs": [],
      "stateMutability": "nonpayable",
      "type": "function"
    },
    {
      "inputs": [
        {
          "internalType": "address",
          "name": "from",
          "type": "address"
        },
        {
          "internalType": "address",
          "name": "to",
          "type": "address"
        },
        {
          "internalType": "uint256",
          "name": "tokenId",
          "type": "uint256"
        }
      ],
      "name": "safeTransferFrom",
      "outputs": [],
      "stateMutability": "nonpayable",
      "type": "function"
    },
    {
      "inputs": [
        {
          "internalType": "address",
          "name": "from",
          "type": "address"
        },
        {
          "internalType": "address",
          "name": "to",
          "type": "address"
        },
        {
          "internalType": "uint256",
          "name": "tokenId",
          "type": "uint256"
        },
        {
          "internalType": "bytes",
          "name": "data",
          "type": "bytes"
        }
      ],
      "name": "safeTransferFrom",
      "outputs": [],
      "stateMutability": "nonpayable",
      "type": "function"
    },
    {
      "inputs": [
        {
          "internalType": "address",
          "name": "operator",
          "type": "address"
        },
        {
          "internalType": "bool",
          "name": "approved",
          "type": "bool"
        }
      ],
      "name": "setApprovalForAll",
      "outputs": [],
      "stateMutability": "nonpayable",
      "type": "function"
    },
    {
      "inputs": [
        {
          "internalType": "bytes4",
          "name": "interfaceId",
          "type": "bytes4"
        }
      ],
      "name": "supportsInterface",
      "outputs": [
        {
          "internalType": "bool",
          "name": "",
          "type": "bool"
        }
      ],
      "stateMutability": "view",
      "type": "function"
    },
    {
      "inputs": [],
      "name": "symbol",
      "outputs": [
        {
          "internalType": "string",
          "name": "",
          "type": "string"
        }
      ],
      "stateMutability": "view",
      "type": "function"
    },
    {
      "inputs": [
        {
          "internalType": "uint256",
          "name": "tokenId",
          "type": "uint256"
        }
      ],
      "name": "tokenURI",
      "outputs": [
        {
          "internalType": "string",
          "name": "",
          "type": "string"
        }
      ],
      "stateMutability": "view",
      "type": "function"
    },
    {
      "inputs": [
        {
          "internalType": "address",
          "name": "from",
          "type": "address"
        },
        {
          "internalType": "address",
          "name": "to",
          "type": "address"
        },
        {
          "internalType": "uint256",
          "name": "tokenId",
          "type": "uint256"
        }
      ],
      "name": "transferFrom",
      "outputs": [],
      "stateMutability": "nonpayable",
      "type": "function"
    },
    {
      "inputs": [
        {
          "internalType": "address",
          "name": "newOwner",
          "type": "address"
        }
      ],
      "name": "transferOwnership",
      "outputs": [],
      "stateMutability": "nonpayable",
      "type": "function"
    }
  ],
  "bytecode": "0x60806040523480156200001157600080fd5b50604051620017cf380380620017cf83398101604081905262000034916200023a565b8181620000413362000077565b815162000056906001906020850190620000c7565b5080516200006c906002906020840190620000c7565b5050505050620002e0565b600080546001600160a01b038381166001600160a01b0319831681178455604051919092169283917f8be0079c531659141344cd1fd0a4f28419497f9722a3daafe3b4186f6b6457e09190a35050565b828054620000d590620002a4565b90600052602060002090601f016020900481019282620000f9576000855562000144565b82601f106200011457805160ff191683800117855562000144565b8280016001018555821562000144579182015b828111156200014457825182559160200191906001019062000127565b506200015292915062000156565b5090565b5b8082111562000152576000815560010162000157565b634e487b7160e01b600052604160045260246000fd5b600082601f8301126200019557600080fd5b81516001600160401b0380821115620001b257620001b26200016d565b604051601f8301601f19908116603f01168101908282118183101715620001dd57620001dd6200016d565b81604052838152602092508683858801011115620001fa57600080fd5b600091505b838210156200021e5785820183015181830184015290820190620001ff565b83821115620002305760008385830101525b9695505050505050565b600080604083850312156200024e57600080fd5b82516001600160401b03808211156200026657600080fd5b620002748683870162000183565b935060208501519150808211156200028b57600080fd5b506200029a8582860162000183565b9150509250929050565b600181811c90821680620002b957607f821691505b602082108103620002da57634e487b7160e01b600052602260045260246000fd5b50919050565b6114df80620002f06000396000f3fe608060405234801561001057600080fd5b506004361061010b5760003560e01c806370a08231116100a2578063a22cb46511610071578063a22cb46514610210578063b88d4fde14610223578063c87b56dd14610236578063e985e9c514610249578063f2fde38b1461028557600080fd5b806370a08231146101ce578063715018a6146101ef5780638da5cb5b146101f757806395d89b411461020857600080fd5b80631249c58b116100de5780631249c58b1461018d57806323b872dd1461019557806342842e0e146101a85780636352211e146101bb57600080fd5b806301ffc9a71461011057806306fdde0314610138578063081812fc1461014d578063095ea7b314610178575b600080fd5b61012361011e366004611062565b610298565b60405190151581526020015b60405180910390f35b6101406102ea565b60405161012f91906110d7565b61016061015b3660046110ea565b61037c565b6040516001600160a01b03909116815260200161012f565b61018b61018636600461111f565b6103a3565b005b61018b6104bd565b61018b6101a3366004611149565b6104c8565b61018b6101b6366004611149565b6104f9565b6101606101c93660046110ea565b610514565b6101e16101dc366004611185565b61058a565b60405190815260200161012f565b61018b610647565b6000546001600160a01b0316610160565b610140610659565b61018b61021e3660046111a0565b610668565b61018b6102313660046111f2565b610677565b6101406102443660046110ea565b6106af565b6101236102573660046112ce565b6001600160a01b03918216600090815260066020908152604080832093909416825291909152205460ff1690565b61018b610293366004611185565b610723565b60006001600160e01b031982166380ac58cd60e01b14806102c957506001600160e01b03198216635b5e139f60e01b145b806102e457506301ffc9a760e01b6001600160e01b03198316145b92915050565b6060600180546102f990611301565b80601f016020809104026020016040519081016040528092919081815260200182805461032590611301565b80156103725780601f1061034757610100808354040283529160200191610372565b820191906000526020600020905b81548152906001019060200180831161035557829003601f168201915b5050505050905090565b60006103878261079c565b506000908152600560205260409020546001600160a01b031690565b60006103ae82610514565b9050806001600160a01b0316836001600160a01b0316036104205760405162461bcd60e51b815260206004820152602160248201527f4552433732313a20617070726f76616c20746f2063757272656e74206f776e656044820152603960f91b60648201526084015b60405180910390fd5b336001600160a01b038216148061043c575061043c8133610257565b6104ae5760405162461bcd60e51b815260206004820152603e60248201527f4552433732313a20617070726f76652063616c6c6572206973206e6f7420746f60448201527f6b656e206f776e6572206e6f7220617070726f76656420666f7220616c6c00006064820152608401610417565b6104b883836107fb565b505050565b6104c633610869565b565b6104d23382610967565b6104ee5760405162461bcd60e51b81526004016104179061133b565b6104b88383836109e6565b6104b883838360405180602001604052806000815250610677565b600061051f82610ba0565b6105665760405162461bcd60e51b8152602060048201526018602482015277115490cdcc8c4e881a5b9d985b1a59081d1bdad95b88125160421b6044820152606401610417565b6000828152600360205260409020546001600160a01b0316806102e4575090919050565b60006001600160a01b0382166105f45760405162461bcd60e51b815260206004820152602960248201527f4552433732313a2061646472657373207a65726f206973206e6f7420612076616044820152683634b21037bbb732b960b91b6064820152608401610417565b6001600160a01b03821660009081526004602052604090205415801561061e575061061e82610bdc565b1561062b57506001919050565b506001600160a01b031660009081526004602052604090205490565b61064f610c35565b6104c66000610c8f565b6060600280546102f990611301565b610673338383610cdf565b5050565b6106813383610967565b61069d5760405162461bcd60e51b81526004016104179061133b565b6106a984848484610dad565b50505050565b60606106ba8261079c565b60006106d160408051602081019091526000815290565b905060008151116106f1576040518060200160405280600081525061071c565b806106fb84610de0565b60405160200161070c929190611389565b6040516020818303038152906040525b9392505050565b61072b610c35565b6001600160a01b0381166107905760405162461bcd60e51b815260206004820152602660248201527f4f776e61626c653a206e6577206f776e657220697320746865207a65726f206160448201526564647265737360d01b6064820152608401610417565b61079981610c8f565b50565b6000818152600360205260409020546001600160a01b03166107995760405162461bcd60e51b8152602060048201526018602482015277115490cdcc8c4e881a5b9d985b1a59081d1bdad95b88125160421b6044820152606401610417565b600081815260056020526040902080546001600160a01b0319166001600160a01b038416908117909155819061083082610514565b6001600160a01b03167f8c5be1e5ebec7d5bd14f71427d1e84f3dd0314c0f7b2291e5b200ac8c7c3b92560405160405180910390a45050565b6001600160a01b038116806108c05760405162461bcd60e51b815260206004820181905260248201527f4552433732313a206d696e7420746f20746865207a65726f20616464726573736044820152606401610417565b6108c981610ba0565b156109165760405162461bcd60e51b815260206004820152601c60248201527f4552433732313a20746f6b656e20616c7265616479206d696e746564000000006044820152606401610417565b600081815260076020526040808220805460ff191660011790555182916001600160a01b038516917fddf252ad1be2c89b69c2b068fc378daa952ba7f163c4a11628f55a4df523b3ef908290a45050565b60008061097383610514565b9050806001600160a01b0316846001600160a01b031614806109ba57506001600160a01b0380821660009081526006602090815260408083209388168352929052205460ff165b806109de5750836001600160a01b03166109d38461037c565b6001600160a01b0316145b949350505050565b826001600160a01b03166109f982610514565b6001600160a01b031614610a5d5760405162461bcd60e51b815260206004820152602560248201527f4552433732313a207472616e736665722066726f6d20696e636f72726563742060448201526437bbb732b960d91b6064820152608401610417565b6001600160a01b038216610abf5760405162461bcd60e51b8152602060048201526024808201527f4552433732313a207472616e7366657220746f20746865207a65726f206164646044820152637265737360e01b6064820152608401610417565b610aca6000826107fb565b6000818152600360205260409020546001600160a01b031615610b16576001600160a01b0383166000908152600460205260408120805460019290610b109084906113ce565b90915550505b6001600160a01b0382166000908152600460205260408120805460019290610b3f9084906113e5565b909155505060008181526003602052604080822080546001600160a01b0319166001600160a01b0386811691821790925591518493918716917fddf252ad1be2c89b69c2b068fc378daa952ba7f163c4a11628f55a4df523b3ef91a4505050565b60008181526007602052604081205460ff1680156102e457506000828152600360205260409020546001600160a01b031661dead141592915050565b6001600160a01b03808216600081815260036020526040812054909216610c0282610ba0565b80156109de5750836001600160a01b0316816001600160a01b031614806109de57506001600160a01b0316159392505050565b6000546001600160a01b031633146104c65760405162461bcd60e51b815260206004820181905260248201527f4f776e61626c653a2063616c6c6572206973206e6f7420746865206f776e65726044820152606401610417565b600080546001600160a01b038381166001600160a01b0319831681178455604051919092169283917f8be0079c531659141344cd1fd0a4f28419497f9722a3daafe3b4186f6b6457e09190a35050565b816001600160a01b0316836001600160a01b031603610d405760405162461bcd60e51b815260206004820152601960248201527f4552433732313a20617070726f766520746f2063616c6c6572000000000000006044820152606401610417565b6001600160a01b03838116600081815260066020908152604080832094871680845294825291829020805460ff191686151590811790915591519182527f17307eab39ab6107e8899845ad3d59bd9653f200f220920489ca2b5937696c31910160405180910390a3505050565b610db88484846109e6565b610dc484848484610e73565b6106a95760405162461bcd60e51b8152600401610417906113fd565b60606000610ded83610f74565b600101905060008167ffffffffffffffff811115610e0d57610e0d6111dc565b6040519080825280601f01601f191660200182016040528015610e37576020820181803683370190505b5090508181016020015b600019016f181899199a1a9b1b9c1cb0b131b232b360811b600a86061a8153600a8504945084610e4157509392505050565b60006001600160a01b0384163b15610f6957604051630a85bd0160e11b81526001600160a01b0385169063150b7a0290610eb790339089908890889060040161144f565b6020604051808303816000875af1925050508015610ef2575060408051601f3d908101601f19168201909252610eef9181019061148c565b60015b610f4f573d808015610f20576040519150601f19603f3d011682016040523d82523d6000602084013e610f25565b606091505b508051600003610f475760405162461bcd60e51b8152600401610417906113fd565b805181602001fd5b6001600160e01b031916630a85bd0160e11b1490506109de565b506001949350505050565b60008072184f03e93ff9f4daa797ed6e38ed64bf6a1f0160401b8310610fb35772184f03e93ff9f4daa797ed6e38ed64bf6a1f0160401b830492506040015b6d04ee2d6d415b85acef81000000008310610fdf576d04ee2d6d415b85acef8100000000830492506020015b662386f26fc100008310610ffd57662386f26fc10000830492506010015b6305f5e1008310611015576305f5e100830492506008015b612710831061102957612710830492506004015b6064831061103b576064830492506002015b600a83106102e45760010192915050565b6001600160e01b03198116811461079957600080fd5b60006020828403121561107457600080fd5b813561071c8161104c565b60005b8381101561109a578181015183820152602001611082565b838111156106a95750506000910152565b600081518084526110c381602086016020860161107f565b601f01601f19169290920160200192915050565b60208152600061071c60208301846110ab565b6000602082840312156110fc57600080fd5b5035919050565b80356001600160a01b038116811461111a57600080fd5b919050565b6000806040838503121561113257600080fd5b61113b83611103565b946020939093013593505050565b60008060006060848603121561115e57600080fd5b61116784611103565b925061117560208501611103565b9150604084013590509250925092565b60006020828403121561119757600080fd5b61071c82611103565b600080604083850312156111b357600080fd5b6111bc83611103565b9150602083013580151581146111d157600080fd5b809150509250929050565b634e487b7160e01b600052604160045260246000fd5b6000806000806080858703121561120857600080fd5b61121185611103565b935061121f60208601611103565b925060408501359150606085013567ffffffffffffffff8082111561124357600080fd5b818701915087601f83011261125757600080fd5b813581811115611269576112696111dc565b604051601f8201601f19908116603f01168101908382118183101715611291576112916111dc565b816040528281528a60208487010111156112aa57600080fd5b82602086016020830137600060208483010152809550505050505092959194509250565b600080604083850312156112e157600080fd5b6112ea83611103565b91506112f860208401611103565b90509250929050565b600181811c9082168061131557607f821691505b60208210810361133557634e487b7160e01b600052602260045260246000fd5b50919050565b6020808252602e908201527f4552433732313a2063616c6c6572206973206e6f7420746f6b656e206f776e6560408201526d1c881b9bdc88185c1c1c9bdd995960921b606082015260800190565b6000835161139b81846020880161107f565b8351908301906113af81836020880161107f565b01949350505050565b634e487b7160e01b600052601160045260246000fd5b6000828210156113e0576113e06113b8565b500390565b600082198211156113f8576113f86113b8565b500190565b60208082526032908201527f4552433732313a207472616e7366657220746f206e6f6e20455243373231526560408201527131b2b4bb32b91034b6b83632b6b2b73a32b960711b606082015260800190565b6001600160a01b0385811682528416602082015260408101839052608060608201819052600090611482908301846110ab565b9695505050505050565b60006020828403121561149e57600080fd5b815161071c8161104c56fea264697066735822122090e49c79f6c47fb92132f81d7d79c2a4b22484fae6d74e4c3dbe4a6ed3e5b30c64736f6c634300080d0033",
  "linkReferences": {},
  "deployedLinkReferences": {}
}