{
  "address": "0x2fe0A013b7DBAD803BdC3ad19231259e9675dD24",
  "abi": [
    {
      "inputs": [],
      "stateMutability": "nonpayable",
      "type": "constructor"
    },
    {
      "anonymous": false,
      "inputs": [
        {
          "indexed": true,
          "internalType": "address",
          "name": "owner",
          "type": "address"
        },
        {
          "indexed": true,
          "internalType": "address",
          "name": "spender",
          "type": "address"
        },
        {
          "indexed": false,
          "internalType": "uint256",
          "name": "value",
          "type": "uint256"
        }
      ],
      "name": "Approval",
      "type": "event"
    },
    {
      "anonymous": false,
      "inputs": [
        {
          "indexed": false,
          "internalType": "address",
          "name": "minter",
          "type": "address"
        },
        {
          "indexed": false,
          "internalType": "address",
          "name": "newMinter",
          "type": "address"
        }
      ],
      "name": "MinterChanged",
      "type": "event"
    },
    {
      "anonymous": false,
      "inputs": [
        {
          "indexed": true,
          "internalType": "address",
          "name": "previousOwner",
          "type": "address"
        },
        {
          "indexed": true,
          "internalType": "address",
          "name": "newOwner",
          "type": "address"
        }
      ],
      "name": "OwnershipTransferred",
      "type": "event"
    },
    {
      "anonymous": false,
      "inputs": [
        {
          "indexed": true,
          "internalType": "address",
          "name": "from",
          "type": "address"
        },
        {
          "indexed": true,
          "internalType": "address",
          "name": "to",
          "type": "address"
        },
        {
          "indexed": false,
          "internalType": "uint256",
          "name": "value",
          "type": "uint256"
        }
      ],
      "name": "Transfer",
      "type": "event"
    },
    {
      "anonymous": false,
      "inputs": [
        {
          "indexed": true,
          "internalType": "address",
          "name": "receiver",
          "type": "address"
        },
        {
          "indexed": true,
          "internalType": "address",
          "name": "tokenAddress",
          "type": "address"
        },
        {
          "indexed": true,
          "internalType": "uint256",
          "name": "tokenId",
          "type": "uint256"
        },
        {
          "indexed": false,
          "internalType": "uint256",
          "name": "amount",
          "type": "uint256"
        }
      ],
      "name": "WithdrawStuckERC1155",
      "type": "event"
    },
    {
      "anonymous": false,
      "inputs": [
        {
          "indexed": true,
          "internalType": "address",
          "name": "receiver",
          "type": "address"
        },
        {
          "indexed": true,
          "internalType": "address",
          "name": "tokenAddress",
          "type": "address"
        },
        {
          "indexed": false,
          "internalType": "uint256",
          "name": "amount",
          "type": "uint256"
        }
      ],
      "name": "WithdrawStuckERC20",
      "type": "event"
    },
    {
      "anonymous": false,
      "inputs": [
        {
          "indexed": true,
          "internalType": "address",
          "name": "receiver",
          "type": "address"
        },
        {
          "indexed": true,
          "internalType": "address",
          "name": "tokenAddress",
          "type": "address"
        },
        {
          "indexed": true,
          "internalType": "uint256",
          "name": "tokenId",
          "type": "uint256"
        }
      ],
      "name": "WithdrawStuckERC721",
      "type": "event"
    },
    {
      "anonymous": false,
      "inputs": [
        {
          "indexed": true,
          "internalType": "address",
          "name": "receiver",
          "type": "address"
        },
        {
          "indexed": false,
          "internalType": "uint256",
          "name": "amount",
          "type": "uint256"
        }
      ],
      "name": "WithdrawStuckEther",
      "type": "event"
    },
    {
      "inputs": [],
      "name": "DOMAIN_SEPARATOR",
      "outputs": [
        {
          "internalType": "bytes32",
          "name": "",
          "type": "bytes32"
        }
      ],
      "stateMutability": "view",
      "type": "function"
    },
    {
      "inputs": [],
      "name": "INFLATION_CAP",
      "outputs": [
        {
          "internalType": "uint8",
          "name": "",
          "type": "uint8"
        }
      ],
      "stateMutability": "view",
      "type": "function"
    },
    {
      "inputs": [],
      "name": "INFLATION_EPOCH",
      "outputs": [
        {
          "internalType": "uint32",
          "name": "",
          "type": "uint32"
        }
      ],
      "stateMutability": "view",
      "type": "function"
    },
    {
      "inputs": [],
      "name": "INITIAL_SUPPLY",
      "outputs": [
        {
          "internalType": "uint256",
          "name": "",
          "type": "uint256"
        }
      ],
      "stateMutability": "view",
      "type": "function"
    },
    {
      "inputs": [],
      "name": "PERMIT_TYPEHASH",
      "outputs": [
        {
          "internalType": "bytes32",
          "name": "",
          "type": "bytes32"
        }
      ],
      "stateMutability": "view",
      "type": "function"
    },
    {
      "inputs": [
        {
          "internalType": "address",
          "name": "owner",
          "type": "address"
        },
        {
          "internalType": "address",
          "name": "spender",
          "type": "address"
        }
      ],
      "name": "allowance",
      "outputs": [
        {
          "internalType": "uint256",
          "name": "",
          "type": "uint256"
        }
      ],
      "stateMutability": "view",
      "type": "function"
    },
    {
      "inputs": [
        {
          "internalType": "address",
          "name": "spender",
          "type": "address"
        },
        {
          "internalType": "uint256",
          "name": "amount",
          "type": "uint256"
        }
      ],
      "name": "approve",
      "outputs": [
        {
          "internalType": "bool",
          "name": "",
          "type": "bool"
        }
      ],
      "stateMutability": "nonpayable",
      "type": "function"
    },
    {
      "inputs": [
        {
          "internalType": "address",
          "name": "account",
          "type": "address"
        }
      ],
      "name": "balanceOf",
      "outputs": [
        {
          "internalType": "uint256",
          "name": "",
          "type": "uint256"
        }
      ],
      "stateMutability": "view",
      "type": "function"
    },
    {
      "inputs": [],
      "name": "decimals",
      "outputs": [
        {
          "internalType": "uint8",
          "name": "",
          "type": "uint8"
        }
      ],
      "stateMutability": "view",
      "type": "function"
    },
    {
      "inputs": [
        {
          "internalType": "address",
          "name": "spender",
          "type": "address"
        },
        {
          "internalType": "uint256",
          "name": "subtractedValue",
          "type": "uint256"
        }
      ],
      "name": "decreaseAllowance",
      "outputs": [
        {
          "internalType": "bool",
          "name": "",
          "type": "bool"
        }
      ],
      "stateMutability": "nonpayable",
      "type": "function"
    },
    {
      "inputs": [
        {
          "internalType": "address",
          "name": "spender",
          "type": "address"
        },
        {
          "internalType": "uint256",
          "name": "addedValue",
          "type": "uint256"
        }
      ],
      "name": "increaseAllowance",
      "outputs": [
        {
          "internalType": "bool",
          "name": "",
          "type": "bool"
        }
      ],
      "stateMutability": "nonpayable",
      "type": "function"
    },
    {
      "inputs": [
        {
          "internalType": "address",
          "name": "receiver",
          "type": "address"
        },
        {
          "internalType": "uint256",
          "name": "amount",
          "type": "uint256"
        }
      ],
      "name": "mint",
      "outputs": [],
      "stateMutability": "nonpayable",
      "type": "function"
    },
    {
      "inputs": [],
      "name": "minter",
      "outputs": [
        {
          "internalType": "address",
          "name": "",
          "type": "address"
        }
      ],
      "stateMutability": "view",
      "type": "function"
    },
    {
      "inputs": [],
      "name": "mintingAllowedAfter",
      "outputs": [
        {
          "internalType": "uint256",
          "name": "",
          "type": "uint256"
        }
      ],
      "stateMutability": "view",
      "type": "function"
    },
    {
      "inputs": [],
      "name": "name",
      "outputs": [
        {
          "internalType": "string",
          "name": "",
          "type": "string"
        }
      ],
      "stateMutability": "view",
      "type": "function"
    },
    {
      "inputs": [
        {
          "internalType": "address",
          "name": "",
          "type": "address"
        }
      ],
      "name": "nonces",
      "outputs": [
        {
          "internalType": "uint256",
          "name": "",
          "type": "uint256"
        }
      ],
      "stateMutability": "view",
      "type": "function"
    },
    {
      "inputs": [],
      "name": "owner",
      "outputs": [
        {
          "internalType": "address",
          "name": "",
          "type": "address"
        }
      ],
      "stateMutability": "view",
      "type": "function"
    },
    {
      "inputs": [
        {
          "internalType": "address",
          "name": "owner",
          "type": "address"
        },
        {
          "internalType": "address",
          "name": "spender",
          "type": "address"
        },
        {
          "internalType": "uint256",
          "name": "amount",
          "type": "uint256"
        },
        {
          "internalType": "uint256",
          "name": "deadline",
          "type": "uint256"
        },
        {
          "internalType": "uint8",
          "name": "v",
          "type": "uint8"
        },
        {
          "internalType": "bytes32",
          "name": "r",
          "type": "bytes32"
        },
        {
          "internalType": "bytes32",
          "name": "s",
          "type": "bytes32"
        }
      ],
      "name": "permit",
      "outputs": [],
      "stateMutability": "nonpayable",
      "type": "function"
    },
    {
      "inputs": [],
      "name": "renounceOwnership",
      "outputs": [],
      "stateMutability": "nonpayable",
      "type": "function"
    },
    {
      "inputs": [
        {
          "internalType": "address",
          "name": "newMinter",
          "type": "address"
        }
      ],
      "name": "setMinter",
      "outputs": [],
      "stateMutability": "nonpayable",
      "type": "function"
    },
    {
      "inputs": [],
      "name": "symbol",
      "outputs": [
        {
          "internalType": "string",
          "name": "",
          "type": "string"
        }
      ],
      "stateMutability": "view",
      "type": "function"
    },
    {
      "inputs": [],
      "name": "totalSupply",
      "outputs": [
        {
          "internalType": "uint256",
          "name": "",
          "type": "uint256"
        }
      ],
      "stateMutability": "view",
      "type": "function"
    },
    {
      "inputs": [
        {
          "internalType": "address",
          "name": "recipient",
          "type": "address"
        },
        {
          "internalType": "uint256",
          "name": "amount",
          "type": "uint256"
        }
      ],
      "name": "transfer",
      "outputs": [
        {
          "internalType": "bool",
          "name": "",
          "type": "bool"
        }
      ],
      "stateMutability": "nonpayable",
      "type": "function"
    },
    {
      "inputs": [
        {
          "internalType": "address",
          "name": "sender",
          "type": "address"
        },
        {
          "internalType": "address",
          "name": "recipient",
          "type": "address"
        },
        {
          "internalType": "uint256",
          "name": "amount",
          "type": "uint256"
        }
      ],
      "name": "transferFrom",
      "outputs": [
        {
          "internalType": "bool",
          "name": "",
          "type": "bool"
        }
      ],
      "stateMutability": "nonpayable",
      "type": "function"
    },
    {
      "inputs": [
        {
          "internalType": "address",
          "name": "newOwner",
          "type": "address"
        }
      ],
      "name": "transferOwnership",
      "outputs": [],
      "stateMutability": "nonpayable",
      "type": "function"
    },
    {
      "inputs": [
        {
          "internalType": "address payable",
          "name": "receiver",
          "type": "address"
        },
        {
          "internalType": "address",
          "name": "tokenAddress",
          "type": "address"
        },
        {
          "internalType": "uint256",
          "name": "tokenId",
          "type": "uint256"
        }
      ],
      "name": "withdrawERC721",
      "outputs": [],
      "stateMutability": "nonpayable",
      "type": "function"
    },
    {
      "inputs": [
        {
          "internalType": "address payable",
          "name": "receiver",
          "type": "address"
        },
        {
          "internalType": "address",
          "name": "tokenAddress",
          "type": "address"
        },
        {
          "internalType": "uint256",
          "name": "amount",
          "type": "uint256"
        }
      ],
      "name": "withdrawErc20",
      "outputs": [],
      "stateMutability": "nonpayable",
      "type": "function"
    },
    {
      "inputs": [
        {
          "internalType": "address payable",
          "name": "receiver",
          "type": "address"
        },
        {
          "internalType": "uint256",
          "name": "amount",
          "type": "uint256"
        }
      ],
      "name": "withdrawEther",
      "outputs": [],
      "stateMutability": "nonpayable",
      "type": "function"
    }
  ],
  "transactionHash": "0xa75f715aa210a34a5a40ff455226cadc7e74be40bfdefa7a97d26910ff3a822c",
  "args": [],
  "numDeployments": 1,
  "solcInputHash": "3c4a4867d03c114eb5175ff04b48a99d",
  "bytecode": "0x60c06040527f6e71edae12b1b97f4d1f60370fef10105fa2faae0126114a169c64845d6126c96080523480156200003557600080fd5b50604080518082018252601881527f43686172676564205061727469636c6573202d20494f4e5800000000000000006020808301918252835180850190945260048452630929e9cb60e31b908401528151919291839183916200009b91600391620001c2565b508051620000b1906004906020840190620001c2565b50506005805460ff191660121790555050805160209182012060408051808201825260018152603160f81b9084015280517f8b73c3c69bb8fe3d512ecc4cf759cc79239f7b179b0ffacaa9a75d522b39400f81850152808201929092527fc89efdaa54c0f20c7adf612882df0950f5a951637e0307cdcb4c672f298b8bc660608301524660808301523060a08084019190915281518084038201815260c090930190915281519190920120905260006200016a620001be565b600780546001600160a01b0319166001600160a01b038316908117909155604051919250906000907f8be0079c531659141344cd1fd0a4f28419497f9722a3daafe3b4186f6b6457e0908290a3506200025e565b3390565b828054600181600116156101000203166002900490600052602060002090601f016020900481019282601f106200020557805160ff191683800117855562000235565b8280016001018555821562000235579182015b828111156200023557825182559160200191906001019062000218565b506200024392915062000247565b5090565b5b8082111562000243576000815560010162000248565b60805160a051611ec16200028c600039806107e35280610d5d5250806107b05280610cf05250611ec16000f3fe608060405234801561001057600080fd5b50600436106101c45760003560e01c80634025feb2116100f957806395d89b4111610097578063d505accf11610071578063d505accf1461050f578063dd62ed3e14610560578063f2fde38b1461058e578063fca3b5aa146105b4576101c4565b806395d89b41146104af578063a457c2d7146104b7578063a9059cbb146104e3576101c4565b806370a08231116100d357806370a0823114610453578063715018a6146104795780637ecebe00146104815780638da5cb5b146104a7576101c4565b80634025feb2146103c557806340c10f19146103fb578063522f681514610427576101c4565b806323b872dd1161016657806330b36cef1161014057806330b36cef14610381578063313ce567146103895780633644e515146103915780633950935114610399576101c4565b806323b872dd1461033b5780632ff2e9dc1461037157806330adf81f14610379576101c4565b80630d1715be116101a25780630d1715be146102aa5780631593dee1146102cb57806318160ddd146103035780631dcb3a3c1461031d576101c4565b806306fdde03146101c95780630754617214610246578063095ea7b31461026a575b600080fd5b6101d16105da565b6040805160208082528351818301528351919283929083019185019080838360005b8381101561020b5781810151838201526020016101f3565b50505050905090810190601f1680156102385780820380516001836020036101000a031916815260200191505b509250505060405180910390f35b61024e610670565b604080516001600160a01b039092168252519081900360200190f35b6102966004803603604081101561028057600080fd5b506001600160a01b03813516906020013561067f565b604080519115158252519081900360200190f35b6102b261069d565b6040805163ffffffff9092168252519081900360200190f35b610301600480360360608110156102e157600080fd5b506001600160a01b038135811691602081013590911690604001356106a5565b005b61030b61070d565b60408051918252519081900360200190f35b610325610713565b6040805160ff9092168252519081900360200190f35b6102966004803603606081101561035157600080fd5b506001600160a01b03813581169160208101359091169060400135610718565b61030b61079f565b61030b6107ae565b61030b6107d2565b6103256107d8565b61030b6107e1565b610296600480360360408110156103af57600080fd5b506001600160a01b038135169060200135610805565b610301600480360360608110156103db57600080fd5b506001600160a01b03813581169160208101359091169060400135610853565b6103016004803603604081101561041157600080fd5b506001600160a01b0381351690602001356108b6565b6103016004803603604081101561043d57600080fd5b506001600160a01b038135169060200135610a50565b61030b6004803603602081101561046957600080fd5b50356001600160a01b0316610ab6565b610301610ad1565b61030b6004803603602081101561049757600080fd5b50356001600160a01b0316610b73565b61024e610b85565b6101d1610b94565b610296600480360360408110156104cd57600080fd5b506001600160a01b038135169060200135610bf5565b610296600480360360408110156104f957600080fd5b506001600160a01b038135169060200135610c5d565b610301600480360360e081101561052557600080fd5b506001600160a01b03813581169160208101359091169060408101359060608101359060ff6080820135169060a08101359060c00135610c71565b61030b6004803603604081101561057657600080fd5b506001600160a01b0381358116916020013516610e9f565b610301600480360360208110156105a457600080fd5b50356001600160a01b0316610eca565b610301600480360360208110156105ca57600080fd5b50356001600160a01b0316610fc3565b60038054604080516020601f60026000196101006001881615020190951694909404938401819004810282018101909252828152606093909290918301828280156106665780601f1061063b57610100808354040283529160200191610666565b820191906000526020600020905b81548152906001019060200180831161064957829003601f168201915b5050505050905090565b6008546001600160a01b031681565b600061069361068c611085565b8484611089565b5060015b92915050565b6301e1338081565b6106ad611085565b6007546001600160a01b039081169116146106fd576040805162461bcd60e51b81526020600482018190526024820152600080516020611dd4833981519152604482015290519081900360640190fd5b610708838383611175565b505050565b60025490565b600281565b600061072584848461129f565b61079584610731611085565b61079085604051806060016040528060288152602001611dac602891396001600160a01b038a1660009081526001602052604081209061076f611085565b6001600160a01b0316815260208101919091526040016000205491906113fa565b611089565b5060019392505050565b6a52b7d2dcc80cd2e400000081565b7f000000000000000000000000000000000000000000000000000000000000000081565b60095481565b60055460ff1690565b7f000000000000000000000000000000000000000000000000000000000000000081565b6000610693610812611085565b846107908560016000610823611085565b6001600160a01b03908116825260208083019390935260409182016000908120918c168152925290205490611491565b61085b611085565b6007546001600160a01b039081169116146108ab576040805162461bcd60e51b81526020600482018190526024820152600080516020611dd4833981519152604482015290519081900360640190fd5b6107088383836114f2565b6008546001600160a01b03163314610902576040805162461bcd60e51b815260206004820152600a602482015269496f6e783a452d31313360b01b604482015290519081900360640190fd5b600954421015610946576040805162461bcd60e51b815260206004820152600a602482015269125bdb9e0e914b4c4c4d60b21b604482015290519081900360640190fd5b6001600160a01b03821661098e576040805162461bcd60e51b815260206004820152600a602482015269496f6e783a452d34303360b01b604482015290519081900360640190fd5b80600061099961070d565b90506a52b7d2dcc80cd2e400000081106109de576009546109be906301e13380611491565b6009556109d760646109d1836002611678565b906116d1565b9150610a40565b6a52b7d2dcc80cd2e40000006109f48284611491565b1115610a1257610a0f6a52b7d2dcc80cd2e400000082611713565b91505b6a52b7d2dcc80cd2e4000000610a288284611491565b1415610a4057610a3c426301e13380611491565b6009555b610a4a8483611755565b50505050565b610a58611085565b6007546001600160a01b03908116911614610aa8576040805162461bcd60e51b81526020600482018190526024820152600080516020611dd4833981519152604482015290519081900360640190fd5b610ab28282611845565b5050565b6001600160a01b031660009081526020819052604090205490565b610ad9611085565b6007546001600160a01b03908116911614610b29576040805162461bcd60e51b81526020600482018190526024820152600080516020611dd4833981519152604482015290519081900360640190fd5b6007546040516000916001600160a01b0316907f8be0079c531659141344cd1fd0a4f28419497f9722a3daafe3b4186f6b6457e0908390a3600780546001600160a01b0319169055565b60066020526000908152604090205481565b6007546001600160a01b031690565b60048054604080516020601f60026000196101006001881615020190951694909404938401819004810282018101909252828152606093909290918301828280156106665780601f1061063b57610100808354040283529160200191610666565b6000610693610c02611085565b8461079085604051806060016040528060258152602001611e676025913960016000610c2c611085565b6001600160a01b03908116825260208083019390935260409182016000908120918d168152925290205491906113fa565b6000610693610c6a611085565b848461129f565b42841015610cc6576040805162461bcd60e51b815260206004820152601d60248201527f45524332305065726d69743a206578706972656420646561646c696e65000000604482015290519081900360640190fd5b6001600160a01b0380881660008181526006602090815260408083208054600180820190925582517f00000000000000000000000000000000000000000000000000000000000000008186015280840196909652958c166060860152608085018b905260a085019590955260c08085018a90528151808603909101815260e08501825280519083012061190160f01b6101008601527f000000000000000000000000000000000000000000000000000000000000000061010286015261012280860182905282518087039091018152610142860180845281519185019190912090859052610162860180845281905260ff8a166101828701526101a286018990526101c2860188905291519095919491926101e2808401939192601f1981019281900390910190855afa158015610e01573d6000803e3d6000fd5b5050604051601f1901519150506001600160a01b03811615801590610e375750896001600160a01b0316816001600160a01b0316145b610e88576040805162461bcd60e51b815260206004820152601e60248201527f45524332305065726d69743a20696e76616c6964207369676e61747572650000604482015290519081900360640190fd5b610e938a8a8a611089565b50505050505050505050565b6001600160a01b03918216600090815260016020908152604080832093909416825291909152205490565b610ed2611085565b6007546001600160a01b03908116911614610f22576040805162461bcd60e51b81526020600482018190526024820152600080516020611dd4833981519152604482015290519081900360640190fd5b6001600160a01b038116610f675760405162461bcd60e51b8152600401808060200182810382526026815260200180611ce36026913960400191505060405180910390fd5b6007546040516001600160a01b038084169216907f8be0079c531659141344cd1fd0a4f28419497f9722a3daafe3b4186f6b6457e090600090a3600780546001600160a01b0319166001600160a01b0392909216919091179055565b610fcb611085565b6007546001600160a01b0390811691161461101b576040805162461bcd60e51b81526020600482018190526024820152600080516020611dd4833981519152604482015290519081900360640190fd5b600854604080516001600160a01b039283168152918316602083015280517f3b0007eb941cf645526cbb3a4fdaecda9d28ce4843167d9263b536a1f1edc0f69281900390910190a1600880546001600160a01b0319166001600160a01b0392909216919091179055565b3390565b6001600160a01b0383166110ce5760405162461bcd60e51b8152600401808060200182810382526024815260200180611e196024913960400191505060405180910390fd5b6001600160a01b0382166111135760405162461bcd60e51b8152600401808060200182810382526022815260200180611d096022913960400191505060405180910390fd5b6001600160a01b03808416600081815260016020908152604080832094871680845294825291829020859055815185815291517f8c5be1e5ebec7d5bd14f71427d1e84f3dd0314c0f7b2291e5b200ac8c7c3b9259281900390910190a3505050565b6001600160a01b0383166111bc576040805162461bcd60e51b81526020600482015260096024820152684248503a452d34303360b81b604482015290519081900360640190fd5b80826001600160a01b03166370a08231306040518263ffffffff1660e01b815260040180826001600160a01b0316815260200191505060206040518083038186803b15801561120a57600080fd5b505afa15801561121e573d6000803e3d6000fd5b505050506040513d602081101561123457600080fd5b5051106107085761124f6001600160a01b03831684836118e8565b816001600160a01b0316836001600160a01b03167f6c9d637297625e945b296ff73a71fcfbd0a9e062652b6491a921c4c60194176b836040518082815260200191505060405180910390a3505050565b6001600160a01b0383166112e45760405162461bcd60e51b8152600401808060200182810382526025815260200180611df46025913960400191505060405180910390fd5b6001600160a01b0382166113295760405162461bcd60e51b8152600401808060200182810382526023815260200180611cc06023913960400191505060405180910390fd5b611334838383610708565b61137181604051806060016040528060268152602001611d2b602691396001600160a01b03861660009081526020819052604090205491906113fa565b6001600160a01b0380851660009081526020819052604080822093909355908416815220546113a09082611491565b6001600160a01b038084166000818152602081815260409182902094909455805185815290519193928716927fddf252ad1be2c89b69c2b068fc378daa952ba7f163c4a11628f55a4df523b3ef92918290030190a3505050565b600081848411156114895760405162461bcd60e51b81526004018080602001828103825283818151815260200191508051906020019080838360005b8381101561144e578181015183820152602001611436565b50505050905090810190601f16801561147b5780820380516001836020036101000a031916815260200191505b509250505060405180910390fd5b505050900390565b6000828201838110156114eb576040805162461bcd60e51b815260206004820152601b60248201527f536166654d6174683a206164646974696f6e206f766572666c6f770000000000604482015290519081900360640190fd5b9392505050565b6001600160a01b038316611539576040805162461bcd60e51b81526020600482015260096024820152684248503a452d34303360b81b604482015290519081900360640190fd5b306001600160a01b0316826001600160a01b0316636352211e836040518263ffffffff1660e01b81526004018082815260200191505060206040518083038186803b15801561158757600080fd5b505afa15801561159b573d6000803e3d6000fd5b505050506040513d60208110156115b157600080fd5b50516001600160a01b0316141561070857604080516323b872dd60e01b81523060048201526001600160a01b038581166024830152604482018490529151918416916323b872dd9160648082019260009290919082900301818387803b15801561161a57600080fd5b505af115801561162e573d6000803e3d6000fd5b5050505080826001600160a01b0316846001600160a01b03167ffefe036cac4ee3a4aca074a81cbcc4376e1484693289078dbec149c890101d5b60405160405180910390a4505050565b60008261168757506000610697565b8282028284828161169457fe5b04146114eb5760405162461bcd60e51b8152600401808060200182810382526021815260200180611d8b6021913960400191505060405180910390fd5b60006114eb83836040518060400160405280601a81526020017f536166654d6174683a206469766973696f6e206279207a65726f00000000000081525061193a565b60006114eb83836040518060400160405280601e81526020017f536166654d6174683a207375627472616374696f6e206f766572666c6f7700008152506113fa565b6001600160a01b0382166117b0576040805162461bcd60e51b815260206004820152601f60248201527f45524332303a206d696e7420746f20746865207a65726f206164647265737300604482015290519081900360640190fd5b6117bc60008383610708565b6002546117c99082611491565b6002556001600160a01b0382166000908152602081905260409020546117ef9082611491565b6001600160a01b0383166000818152602081815260408083209490945583518581529351929391927fddf252ad1be2c89b69c2b068fc378daa952ba7f163c4a11628f55a4df523b3ef9281900390910190a35050565b6001600160a01b03821661188c576040805162461bcd60e51b81526020600482015260096024820152684248503a452d34303360b81b604482015290519081900360640190fd5b804710610ab2576118a66001600160a01b0383168261199f565b6040805182815290516001600160a01b038416917eddb683bb45cd5d0ad8a200c6fae7152b1c236ee90a4a37db692407f5cc38bd919081900360200190a25050565b604080516001600160a01b038416602482015260448082018490528251808303909101815260649091019091526020810180516001600160e01b031663a9059cbb60e01b179052610708908490611a84565b600081836119895760405162461bcd60e51b815260206004820181815283516024840152835190928392604490910191908501908083836000831561144e578181015183820152602001611436565b50600083858161199557fe5b0495945050505050565b804710156119f4576040805162461bcd60e51b815260206004820152601d60248201527f416464726573733a20696e73756666696369656e742062616c616e6365000000604482015290519081900360640190fd5b6040516000906001600160a01b0384169083908381818185875af1925050503d8060008114611a3f576040519150601f19603f3d011682016040523d82523d6000602084013e611a44565b606091505b50509050806107085760405162461bcd60e51b815260040180806020018281038252603a815260200180611d51603a913960400191505060405180910390fd5b6060611ad9826040518060400160405280602081526020017f5361666545524332303a206c6f772d6c6576656c2063616c6c206661696c6564815250856001600160a01b0316611b359092919063ffffffff16565b80519091501561070857808060200190516020811015611af857600080fd5b50516107085760405162461bcd60e51b815260040180806020018281038252602a815260200180611e3d602a913960400191505060405180910390fd5b6060611b448484600085611b4c565b949350505050565b6060611b5785611cb9565b611ba8576040805162461bcd60e51b815260206004820152601d60248201527f416464726573733a2063616c6c20746f206e6f6e2d636f6e7472616374000000604482015290519081900360640190fd5b60006060866001600160a01b031685876040518082805190602001908083835b60208310611be75780518252601f199092019160209182019101611bc8565b6001836020036101000a03801982511681845116808217855250505050505090500191505060006040518083038185875af1925050503d8060008114611c49576040519150601f19603f3d011682016040523d82523d6000602084013e611c4e565b606091505b50915091508115611c62579150611b449050565b805115611c725780518082602001fd5b60405162461bcd60e51b815260206004820181815286516024840152865187939192839260440191908501908083836000831561144e578181015183820152602001611436565b3b15159056fe45524332303a207472616e7366657220746f20746865207a65726f20616464726573734f776e61626c653a206e6577206f776e657220697320746865207a65726f206164647265737345524332303a20617070726f766520746f20746865207a65726f206164647265737345524332303a207472616e7366657220616d6f756e7420657863656564732062616c616e6365416464726573733a20756e61626c6520746f2073656e642076616c75652c20726563697069656e74206d61792068617665207265766572746564536166654d6174683a206d756c7469706c69636174696f6e206f766572666c6f7745524332303a207472616e7366657220616d6f756e74206578636565647320616c6c6f77616e63654f776e61626c653a2063616c6c6572206973206e6f7420746865206f776e657245524332303a207472616e736665722066726f6d20746865207a65726f206164647265737345524332303a20617070726f76652066726f6d20746865207a65726f20616464726573735361666545524332303a204552433230206f7065726174696f6e20646964206e6f74207375636365656445524332303a2064656372656173656420616c6c6f77616e63652062656c6f77207a65726fa2646970667358221220bd76b10c65c03359bbab1305b5a901ae77e87d8d92a0ee8769ed8d6354c54b8364736f6c634300060c0033",
  "devdoc": {
    "kind": "dev",
    "methods": {
      "allowance(address,address)": {
        "details": "See {IERC20-allowance}."
      },
      "approve(address,uint256)": {
        "details": "See {IERC20-approve}. Requirements: - `spender` cannot be the zero address."
      },
      "balanceOf(address)": {
        "details": "See {IERC20-balanceOf}."
      },
      "decimals()": {
        "details": "Returns the number of decimals used to get its user representation. For example, if `decimals` equals `2`, a balance of `505` tokens should be displayed to a user as `5,05` (`505 / 10 ** 2`). Tokens usually opt for a value of 18, imitating the relationship between Ether and Wei. This is the value {ERC20} uses, unless {_setupDecimals} is called. NOTE: This information is only used for _display_ purposes: it in no way affects any of the arithmetic of the contract, including {IERC20-balanceOf} and {IERC20-transfer}."
      },
      "decreaseAllowance(address,uint256)": {
        "details": "Atomically decreases the allowance granted to `spender` by the caller. This is an alternative to {approve} that can be used as a mitigation for problems described in {IERC20-approve}. Emits an {Approval} event indicating the updated allowance. Requirements: - `spender` cannot be the zero address. - `spender` must have allowance for the caller of at least `subtractedValue`."
      },
      "increaseAllowance(address,uint256)": {
        "details": "Atomically increases the allowance granted to `spender` by the caller. This is an alternative to {approve} that can be used as a mitigation for problems described in {IERC20-approve}. Emits an {Approval} event indicating the updated allowance. Requirements: - `spender` cannot be the zero address."
      },
      "mint(address,uint256)": {
        "params": {
          "amount": "The number of tokens to be minted",
          "receiver": "The address of the destination account"
        }
      },
      "name()": {
        "details": "Returns the name of the token."
      },
      "owner()": {
        "details": "Returns the address of the current owner."
      },
      "permit(address,address,uint256,uint256,uint8,bytes32,bytes32)": {
        "details": "See {IERC2612-permit}. In cases where the free option is not a concern, deadline can simply be set to uint(-1), so it should be seen as an optional parameter"
      },
      "renounceOwnership()": {
        "details": "Leaves the contract without owner. It will not be possible to call `onlyOwner` functions anymore. Can only be called by the current owner. NOTE: Renouncing ownership will leave the contract without an owner, thereby removing any functionality that is only available to the owner."
      },
      "setMinter(address)": {
        "params": {
          "newMinter": "The address of the new minter"
        }
      },
      "symbol()": {
        "details": "Returns the symbol of the token, usually a shorter version of the name."
      },
      "totalSupply()": {
        "details": "See {IERC20-totalSupply}."
      },
      "transfer(address,uint256)": {
        "details": "See {IERC20-transfer}. Requirements: - `recipient` cannot be the zero address. - the caller must have a balance of at least `amount`."
      },
      "transferFrom(address,address,uint256)": {
        "details": "See {IERC20-transferFrom}. Emits an {Approval} event indicating the updated allowance. This is not required by the EIP. See the note at the beginning of {ERC20}; Requirements: - `sender` and `recipient` cannot be the zero address. - `sender` must have a balance of at least `amount`. - the caller must have allowance for ``sender``'s tokens of at least `amount`."
      },
      "transferOwnership(address)": {
        "details": "Transfers ownership of the contract to a new account (`newOwner`). Can only be called by the current owner."
      }
    },
    "version": 1
  },
  "userdoc": {
    "events": {
      "MinterChanged(address,address)": {
        "notice": "An event thats emitted when the minter address is changed"
      }
    },
    "kind": "user",
    "methods": {
      "INFLATION_CAP()": {
        "notice": "Cap on the percentage of totalSupply that can be minted at each mint"
      },
      "INFLATION_EPOCH()": {
        "notice": "Minimum time between mints"
      },
      "INITIAL_SUPPLY()": {
        "notice": "Total number of tokens in circulation"
      },
      "mint(address,uint256)": {
        "notice": "Mint new tokens"
      },
      "minter()": {
        "notice": "Address which may mint new tokens"
      },
      "mintingAllowedAfter()": {
        "notice": "The timestamp after which minting may occur"
      },
      "setMinter(address)": {
        "notice": "Change the minter address"
      }
    },
    "version": 1
  },
  "storageLayout": {
    "storage": [
      {
        "astId": 6091,
        "contract": "contracts/v1/tokens/Ionx.sol:Ionx",
        "label": "_balances",
        "offset": 0,
        "slot": "0",
        "type": "t_mapping(t_address,t_uint256)"
      },
      {
        "astId": 6097,
        "contract": "contracts/v1/tokens/Ionx.sol:Ionx",
        "label": "_allowances",
        "offset": 0,
        "slot": "1",
        "type": "t_mapping(t_address,t_mapping(t_address,t_uint256))"
      },
      {
        "astId": 6099,
        "contract": "contracts/v1/tokens/Ionx.sol:Ionx",
        "label": "_totalSupply",
        "offset": 0,
        "slot": "2",
        "type": "t_uint256"
      },
      {
        "astId": 6101,
        "contract": "contracts/v1/tokens/Ionx.sol:Ionx",
        "label": "_name",
        "offset": 0,
        "slot": "3",
        "type": "t_string_storage"
      },
      {
        "astId": 6103,
        "contract": "contracts/v1/tokens/Ionx.sol:Ionx",
        "label": "_symbol",
        "offset": 0,
        "slot": "4",
        "type": "t_string_storage"
      },
      {
        "astId": 6105,
        "contract": "contracts/v1/tokens/Ionx.sol:Ionx",
        "label": "_decimals",
        "offset": 0,
        "slot": "5",
        "type": "t_uint8"
      },
      {
        "astId": 48635,
        "contract": "contracts/v1/tokens/Ionx.sol:Ionx",
        "label": "nonces",
        "offset": 0,
        "slot": "6",
        "type": "t_mapping(t_address,t_uint256)"
      },
      {
        "astId": 4406,
        "contract": "contracts/v1/tokens/Ionx.sol:Ionx",
        "label": "_owner",
        "offset": 0,
        "slot": "7",
        "type": "t_address"
      },
      {
        "astId": 35504,
        "contract": "contracts/v1/tokens/Ionx.sol:Ionx",
        "label": "minter",
        "offset": 0,
        "slot": "8",
        "type": "t_address"
      },
      {
        "astId": 35507,
        "contract": "contracts/v1/tokens/Ionx.sol:Ionx",
        "label": "mintingAllowedAfter",
        "offset": 0,
        "slot": "9",
        "type": "t_uint256"
      }
    ],
    "types": {
      "t_address": {
        "encoding": "inplace",
        "label": "address",
        "numberOfBytes": "20"
      },
      "t_mapping(t_address,t_mapping(t_address,t_uint256))": {
        "encoding": "mapping",
        "key": "t_address",
        "label": "mapping(address => mapping(address => uint256))",
        "numberOfBytes": "32",
        "value": "t_mapping(t_address,t_uint256)"
      },
      "t_mapping(t_address,t_uint256)": {
        "encoding": "mapping",
        "key": "t_address",
        "label": "mapping(address => uint256)",
        "numberOfBytes": "32",
        "value": "t_uint256"
      },
      "t_string_storage": {
        "encoding": "bytes",
        "label": "string",
        "numberOfBytes": "32"
      },
      "t_uint256": {
        "encoding": "inplace",
        "label": "uint256",
        "numberOfBytes": "32"
      },
      "t_uint8": {
        "encoding": "inplace",
        "label": "uint8",
        "numberOfBytes": "1"
      }
    }
  }
}