{
  "address": "0xeDabAdf27222C70Cd99A0a9064Ad7643924E6115",
  "abi": [
    {
      "inputs": [],
      "stateMutability": "nonpayable",
      "type": "constructor"
    },
    {
      "anonymous": false,
      "inputs": [
        {
          "indexed": true,
          "internalType": "address",
          "name": "owner",
          "type": "address"
        },
        {
          "indexed": true,
          "internalType": "address",
          "name": "approved",
          "type": "address"
        },
        {
          "indexed": true,
          "internalType": "uint256",
          "name": "tokenId",
          "type": "uint256"
        }
      ],
      "name": "Approval",
      "type": "event"
    },
    {
      "anonymous": false,
      "inputs": [
        {
          "indexed": true,
          "internalType": "address",
          "name": "owner",
          "type": "address"
        },
        {
          "indexed": true,
          "internalType": "address",
          "name": "operator",
          "type": "address"
        },
        {
          "indexed": false,
          "internalType": "bool",
          "name": "approved",
          "type": "bool"
        }
      ],
      "name": "ApprovalForAll",
      "type": "event"
    },
    {
      "anonymous": false,
      "inputs": [
        {
          "indexed": true,
          "internalType": "address",
          "name": "receiver",
          "type": "address"
        },
        {
          "indexed": true,
          "internalType": "uint256",
          "name": "tokenId",
          "type": "uint256"
        },
        {
          "indexed": false,
          "internalType": "uint256",
          "name": "count",
          "type": "uint256"
        },
        {
          "indexed": false,
          "internalType": "uint256",
          "name": "price",
          "type": "uint256"
        },
        {
          "indexed": false,
          "internalType": "uint32",
          "name": "multiplier",
          "type": "uint32"
        }
      ],
      "name": "LeptonBatchMinted",
      "type": "event"
    },
    {
      "anonymous": false,
      "inputs": [
        {
          "indexed": true,
          "internalType": "address",
          "name": "receiver",
          "type": "address"
        },
        {
          "indexed": true,
          "internalType": "uint256",
          "name": "tokenId",
          "type": "uint256"
        },
        {
          "indexed": false,
          "internalType": "uint256",
          "name": "price",
          "type": "uint256"
        },
        {
          "indexed": false,
          "internalType": "uint32",
          "name": "multiplier",
          "type": "uint32"
        }
      ],
      "name": "LeptonMinted",
      "type": "event"
    },
    {
      "anonymous": false,
      "inputs": [
        {
          "indexed": false,
          "internalType": "string",
          "name": "tokenUri",
          "type": "string"
        },
        {
          "indexed": false,
          "internalType": "uint256",
          "name": "price",
          "type": "uint256"
        },
        {
          "indexed": false,
          "internalType": "uint32",
          "name": "supply",
          "type": "uint32"
        },
        {
          "indexed": false,
          "internalType": "uint32",
          "name": "multiplier",
          "type": "uint32"
        },
        {
          "indexed": false,
          "internalType": "uint32",
          "name": "bonus",
          "type": "uint32"
        },
        {
          "indexed": false,
          "internalType": "uint256",
          "name": "upperBounds",
          "type": "uint256"
        }
      ],
      "name": "LeptonTypeAdded",
      "type": "event"
    },
    {
      "anonymous": false,
      "inputs": [
        {
          "indexed": false,
          "internalType": "uint256",
          "name": "leptonIndex",
          "type": "uint256"
        },
        {
          "indexed": false,
          "internalType": "string",
          "name": "tokenUri",
          "type": "string"
        },
        {
          "indexed": false,
          "internalType": "uint256",
          "name": "price",
          "type": "uint256"
        },
        {
          "indexed": false,
          "internalType": "uint32",
          "name": "supply",
          "type": "uint32"
        },
        {
          "indexed": false,
          "internalType": "uint32",
          "name": "multiplier",
          "type": "uint32"
        },
        {
          "indexed": false,
          "internalType": "uint32",
          "name": "bonus",
          "type": "uint32"
        },
        {
          "indexed": false,
          "internalType": "uint256",
          "name": "upperBounds",
          "type": "uint256"
        }
      ],
      "name": "LeptonTypeUpdated",
      "type": "event"
    },
    {
      "anonymous": false,
      "inputs": [
        {
          "indexed": false,
          "internalType": "uint256",
          "name": "maxAmount",
          "type": "uint256"
        }
      ],
      "name": "MaxMintPerTxSet",
      "type": "event"
    },
    {
      "anonymous": false,
      "inputs": [
        {
          "indexed": true,
          "internalType": "address",
          "name": "previousOwner",
          "type": "address"
        },
        {
          "indexed": true,
          "internalType": "address",
          "name": "newOwner",
          "type": "address"
        }
      ],
      "name": "OwnershipTransferred",
      "type": "event"
    },
    {
      "anonymous": false,
      "inputs": [
        {
          "indexed": false,
          "internalType": "bool",
          "name": "isPaused",
          "type": "bool"
        }
      ],
      "name": "PausedStateSet",
      "type": "event"
    },
    {
      "anonymous": false,
      "inputs": [
        {
          "indexed": true,
          "internalType": "address",
          "name": "from",
          "type": "address"
        },
        {
          "indexed": true,
          "internalType": "address",
          "name": "to",
          "type": "address"
        },
        {
          "indexed": true,
          "internalType": "uint256",
          "name": "tokenId",
          "type": "uint256"
        }
      ],
      "name": "Transfer",
      "type": "event"
    },
    {
      "anonymous": false,
      "inputs": [
        {
          "indexed": true,
          "internalType": "address",
          "name": "receiver",
          "type": "address"
        },
        {
          "indexed": true,
          "internalType": "address",
          "name": "tokenAddress",
          "type": "address"
        },
        {
          "indexed": true,
          "internalType": "uint256",
          "name": "tokenId",
          "type": "uint256"
        },
        {
          "indexed": false,
          "internalType": "uint256",
          "name": "amount",
          "type": "uint256"
        }
      ],
      "name": "WithdrawStuckERC1155",
      "type": "event"
    },
    {
      "anonymous": false,
      "inputs": [
        {
          "indexed": true,
          "internalType": "address",
          "name": "receiver",
          "type": "address"
        },
        {
          "indexed": true,
          "internalType": "address",
          "name": "tokenAddress",
          "type": "address"
        },
        {
          "indexed": false,
          "internalType": "uint256",
          "name": "amount",
          "type": "uint256"
        }
      ],
      "name": "WithdrawStuckERC20",
      "type": "event"
    },
    {
      "anonymous": false,
      "inputs": [
        {
          "indexed": true,
          "internalType": "address",
          "name": "receiver",
          "type": "address"
        },
        {
          "indexed": true,
          "internalType": "address",
          "name": "tokenAddress",
          "type": "address"
        },
        {
          "indexed": true,
          "internalType": "uint256",
          "name": "tokenId",
          "type": "uint256"
        }
      ],
      "name": "WithdrawStuckERC721",
      "type": "event"
    },
    {
      "anonymous": false,
      "inputs": [
        {
          "indexed": true,
          "internalType": "address",
          "name": "receiver",
          "type": "address"
        },
        {
          "indexed": false,
          "internalType": "uint256",
          "name": "amount",
          "type": "uint256"
        }
      ],
      "name": "WithdrawStuckEther",
      "type": "event"
    },
    {
      "inputs": [
        {
          "internalType": "string",
          "name": "tokenUri",
          "type": "string"
        },
        {
          "internalType": "uint256",
          "name": "price",
          "type": "uint256"
        },
        {
          "internalType": "uint32",
          "name": "supply",
          "type": "uint32"
        },
        {
          "internalType": "uint32",
          "name": "multiplier",
          "type": "uint32"
        },
        {
          "internalType": "uint32",
          "name": "bonus",
          "type": "uint32"
        }
      ],
      "name": "addLeptonType",
      "outputs": [],
      "stateMutability": "nonpayable",
      "type": "function"
    },
    {
      "inputs": [
        {
          "internalType": "address",
          "name": "to",
          "type": "address"
        },
        {
          "internalType": "uint256",
          "name": "tokenId",
          "type": "uint256"
        }
      ],
      "name": "approve",
      "outputs": [],
      "stateMutability": "nonpayable",
      "type": "function"
    },
    {
      "inputs": [
        {
          "internalType": "address",
          "name": "owner",
          "type": "address"
        }
      ],
      "name": "balanceOf",
      "outputs": [
        {
          "internalType": "uint256",
          "name": "",
          "type": "uint256"
        }
      ],
      "stateMutability": "view",
      "type": "function"
    },
    {
      "inputs": [
        {
          "internalType": "uint256",
          "name": "count",
          "type": "uint256"
        }
      ],
      "name": "batchMintLepton",
      "outputs": [],
      "stateMutability": "payable",
      "type": "function"
    },
    {
      "inputs": [
        {
          "internalType": "uint256",
          "name": "tokenId",
          "type": "uint256"
        }
      ],
      "name": "getApproved",
      "outputs": [
        {
          "internalType": "address",
          "name": "",
          "type": "address"
        }
      ],
      "stateMutability": "view",
      "type": "function"
    },
    {
      "inputs": [
        {
          "internalType": "uint256",
          "name": "tokenId",
          "type": "uint256"
        }
      ],
      "name": "getBonus",
      "outputs": [
        {
          "internalType": "uint256",
          "name": "",
          "type": "uint256"
        }
      ],
      "stateMutability": "view",
      "type": "function"
    },
    {
      "inputs": [
        {
          "internalType": "uint256",
          "name": "tokenId",
          "type": "uint256"
        }
      ],
      "name": "getMultiplier",
      "outputs": [
        {
          "internalType": "uint256",
          "name": "",
          "type": "uint256"
        }
      ],
      "stateMutability": "view",
      "type": "function"
    },
    {
      "inputs": [],
      "name": "getNextPrice",
      "outputs": [
        {
          "internalType": "uint256",
          "name": "",
          "type": "uint256"
        }
      ],
      "stateMutability": "view",
      "type": "function"
    },
    {
      "inputs": [],
      "name": "getNextType",
      "outputs": [
        {
          "internalType": "uint256",
          "name": "",
          "type": "uint256"
        }
      ],
      "stateMutability": "view",
      "type": "function"
    },
    {
      "inputs": [
        {
          "internalType": "address",
          "name": "owner",
          "type": "address"
        },
        {
          "internalType": "address",
          "name": "operator",
          "type": "address"
        }
      ],
      "name": "isApprovedForAll",
      "outputs": [
        {
          "internalType": "bool",
          "name": "",
          "type": "bool"
        }
      ],
      "stateMutability": "view",
      "type": "function"
    },
    {
      "inputs": [],
      "name": "maxSupply",
      "outputs": [
        {
          "internalType": "uint256",
          "name": "",
          "type": "uint256"
        }
      ],
      "stateMutability": "view",
      "type": "function"
    },
    {
      "inputs": [
        {
          "internalType": "address",
          "name": "oldLeptonContract",
          "type": "address"
        },
        {
          "internalType": "uint256",
          "name": "count",
          "type": "uint256"
        }
      ],
      "name": "migrateAccounts",
      "outputs": [],
      "stateMutability": "nonpayable",
      "type": "function"
    },
    {
      "inputs": [],
      "name": "mintLepton",
      "outputs": [
        {
          "internalType": "uint256",
          "name": "newTokenId",
          "type": "uint256"
        }
      ],
      "stateMutability": "payable",
      "type": "function"
    },
    {
      "inputs": [],
      "name": "name",
      "outputs": [
        {
          "internalType": "string",
          "name": "",
          "type": "string"
        }
      ],
      "stateMutability": "view",
      "type": "function"
    },
    {
      "inputs": [],
      "name": "owner",
      "outputs": [
        {
          "internalType": "address",
          "name": "",
          "type": "address"
        }
      ],
      "stateMutability": "view",
      "type": "function"
    },
    {
      "inputs": [
        {
          "internalType": "uint256",
          "name": "tokenId",
          "type": "uint256"
        }
      ],
      "name": "ownerOf",
      "outputs": [
        {
          "internalType": "address",
          "name": "",
          "type": "address"
        }
      ],
      "stateMutability": "view",
      "type": "function"
    },
    {
      "inputs": [],
      "name": "renounceOwnership",
      "outputs": [],
      "stateMutability": "nonpayable",
      "type": "function"
    },
    {
      "inputs": [
        {
          "internalType": "address",
          "name": "from",
          "type": "address"
        },
        {
          "internalType": "address",
          "name": "to",
          "type": "address"
        },
        {
          "internalType": "uint256",
          "name": "tokenId",
          "type": "uint256"
        }
      ],
      "name": "safeTransferFrom",
      "outputs": [],
      "stateMutability": "nonpayable",
      "type": "function"
    },
    {
      "inputs": [
        {
          "internalType": "address",
          "name": "from",
          "type": "address"
        },
        {
          "internalType": "address",
          "name": "to",
          "type": "address"
        },
        {
          "internalType": "uint256",
          "name": "tokenId",
          "type": "uint256"
        },
        {
          "internalType": "bytes",
          "name": "_data",
          "type": "bytes"
        }
      ],
      "name": "safeTransferFrom",
      "outputs": [],
      "stateMutability": "nonpayable",
      "type": "function"
    },
    {
      "inputs": [
        {
          "internalType": "address",
          "name": "operator",
          "type": "address"
        },
        {
          "internalType": "bool",
          "name": "approved",
          "type": "bool"
        }
      ],
      "name": "setApprovalForAll",
      "outputs": [],
      "stateMutability": "nonpayable",
      "type": "function"
    },
    {
      "inputs": [
        {
          "internalType": "uint256",
          "name": "maxAmount",
          "type": "uint256"
        }
      ],
      "name": "setMaxMintPerTx",
      "outputs": [],
      "stateMutability": "nonpayable",
      "type": "function"
    },
    {
      "inputs": [
        {
          "internalType": "bool",
          "name": "state",
          "type": "bool"
        }
      ],
      "name": "setPausedState",
      "outputs": [],
      "stateMutability": "nonpayable",
      "type": "function"
    },
    {
      "inputs": [
        {
          "internalType": "bytes4",
          "name": "interfaceId",
          "type": "bytes4"
        }
      ],
      "name": "supportsInterface",
      "outputs": [
        {
          "internalType": "bool",
          "name": "",
          "type": "bool"
        }
      ],
      "stateMutability": "view",
      "type": "function"
    },
    {
      "inputs": [],
      "name": "symbol",
      "outputs": [
        {
          "internalType": "string",
          "name": "",
          "type": "string"
        }
      ],
      "stateMutability": "view",
      "type": "function"
    },
    {
      "inputs": [
        {
          "internalType": "uint256",
          "name": "tokenId",
          "type": "uint256"
        }
      ],
      "name": "tokenURI",
      "outputs": [
        {
          "internalType": "string",
          "name": "",
          "type": "string"
        }
      ],
      "stateMutability": "view",
      "type": "function"
    },
    {
      "inputs": [],
      "name": "totalSupply",
      "outputs": [
        {
          "internalType": "uint256",
          "name": "",
          "type": "uint256"
        }
      ],
      "stateMutability": "view",
      "type": "function"
    },
    {
      "inputs": [
        {
          "internalType": "address",
          "name": "from",
          "type": "address"
        },
        {
          "internalType": "address",
          "name": "to",
          "type": "address"
        },
        {
          "internalType": "uint256",
          "name": "tokenId",
          "type": "uint256"
        }
      ],
      "name": "transferFrom",
      "outputs": [],
      "stateMutability": "nonpayable",
      "type": "function"
    },
    {
      "inputs": [
        {
          "internalType": "address",
          "name": "newOwner",
          "type": "address"
        }
      ],
      "name": "transferOwnership",
      "outputs": [],
      "stateMutability": "nonpayable",
      "type": "function"
    },
    {
      "inputs": [
        {
          "internalType": "uint256",
          "name": "leptonIndex",
          "type": "uint256"
        },
        {
          "internalType": "string",
          "name": "tokenUri",
          "type": "string"
        },
        {
          "internalType": "uint256",
          "name": "price",
          "type": "uint256"
        },
        {
          "internalType": "uint32",
          "name": "supply",
          "type": "uint32"
        },
        {
          "internalType": "uint32",
          "name": "multiplier",
          "type": "uint32"
        },
        {
          "internalType": "uint32",
          "name": "bonus",
          "type": "uint32"
        }
      ],
      "name": "updateLeptonType",
      "outputs": [],
      "stateMutability": "nonpayable",
      "type": "function"
    },
    {
      "inputs": [
        {
          "internalType": "address payable",
          "name": "receiver",
          "type": "address"
        },
        {
          "internalType": "address",
          "name": "tokenAddress",
          "type": "address"
        },
        {
          "internalType": "uint256",
          "name": "tokenId",
          "type": "uint256"
        }
      ],
      "name": "withdrawERC721",
      "outputs": [],
      "stateMutability": "nonpayable",
      "type": "function"
    },
    {
      "inputs": [
        {
          "internalType": "address payable",
          "name": "receiver",
          "type": "address"
        },
        {
          "internalType": "address",
          "name": "tokenAddress",
          "type": "address"
        },
        {
          "internalType": "uint256",
          "name": "amount",
          "type": "uint256"
        }
      ],
      "name": "withdrawErc20",
      "outputs": [],
      "stateMutability": "nonpayable",
      "type": "function"
    },
    {
      "inputs": [
        {
          "internalType": "address payable",
          "name": "receiver",
          "type": "address"
        },
        {
          "internalType": "uint256",
          "name": "amount",
          "type": "uint256"
        }
      ],
      "name": "withdrawEther",
      "outputs": [],
      "stateMutability": "nonpayable",
      "type": "function"
    }
  ],
  "transactionHash": "0xe3115ae28df7710fd9c48ae456ee0882619492f0f10f3fd73ab26ff9c4dc9675",
  "args": [],
  "numDeployments": 1,
  "solcInputHash": "32b0731c3960278295b6d910e85ee6a7",
  "bytecode": "0x60806040523480156200001157600080fd5b506040518060400160405280601b81526020017f43686172676564205061727469636c6573202d204c6570746f6e3200000000008152506040518060400160405280600781526020017f4c4550544f4e3200000000000000000000000000000000000000000000000000815250620000966301ffc9a760e01b620001f760201b60201c565b8160059080519060200190620000ae92919062000308565b508060069080519060200190620000c792919062000308565b50620000e06380ac58cd60e01b620001f760201b60201c565b620000f8635b5e139f60e01b620001f760201b60201c565b505060006200010c6200030060201b60201c565b905080600860006101000a81548173ffffffffffffffffffffffffffffffffffffffff021916908373ffffffffffffffffffffffffffffffffffffffff1602179055508073ffffffffffffffffffffffffffffffffffffffff16600073ffffffffffffffffffffffffffffffffffffffff167f8be0079c531659141344cd1fd0a4f28419497f9722a3daafe3b4186f6b6457e060405160405180910390a35060016009819055506001600f60006101000a81548160ff0219169083151502179055506000600f60016101000a81548160ff0219169083151502179055506000600e81905550620003ae565b63ffffffff60e01b817bffffffffffffffffffffffffffffffffffffffffffffffffffffffff1916141562000294576040517f08c379a000000000000000000000000000000000000000000000000000000000815260040180806020018281038252601c8152602001807f4552433136353a20696e76616c696420696e746572666163652069640000000081525060200191505060405180910390fd5b6001600080837bffffffffffffffffffffffffffffffffffffffffffffffffffffffff19167bffffffffffffffffffffffffffffffffffffffffffffffffffffffff1916815260200190815260200160002060006101000a81548160ff02191690831515021790555050565b600033905090565b828054600181600116156101000203166002900490600052602060002090601f016020900481019282601f106200034b57805160ff19168380011785556200037c565b828001600101855582156200037c579182015b828111156200037b5782518255916020019190600101906200035e565b5b5090506200038b91906200038f565b5090565b5b80821115620003aa57600081600090555060010162000390565b5090565b6155f380620003be6000396000f3fe6080604052600436106101e35760003560e01c8063681ce98a11610102578063b88d4fde11610095578063db9f60ff11610064578063db9f60ff14610d4f578063e608902314610d8c578063e985e9c514610db7578063f2fde38b14610e3e576101e3565b8063b88d4fde14610a9e578063c87b56dd14610bb0578063d5abeb0114610c64578063da47bb2614610c8f576101e3565b806395d89b41116100d157806395d89b4114610898578063a22cb46514610928578063adf8252d14610985578063b0fde8cf146109d4576101e3565b8063681ce98a146107b057806370a08231146107db578063715018a6146108405780638da5cb5b14610857576101e3565b806323b872dd1161017a578063522f681511610149578063522f6815146106975780635fc194ed146106f2578063616cdb1e146107105780636352211e1461074b576101e3565b806323b872dd146104d75780634025feb21461055257806342842e0e146105cd5780634aa66b2814610648576101e3565b8063095ea7b3116101b6578063095ea7b3146103a85780630afd902b146104035780631593dee11461043157806318160ddd146104ac576101e3565b806301ffc9a7146101e85780630512487a1461025857806306fdde03146102b3578063081812fc14610343575b600080fd5b3480156101f457600080fd5b506102406004803603602081101561020b57600080fd5b8101908080357bffffffffffffffffffffffffffffffffffffffffffffffffffffffff19169060200190929190505050610e8f565b60405180821515815260200191505060405180910390f35b34801561026457600080fd5b506102b16004803603604081101561027b57600080fd5b81019080803573ffffffffffffffffffffffffffffffffffffffff16906020019092919080359060200190929190505050610ef6565b005b3480156102bf57600080fd5b506102c86112a2565b6040518080602001828103825283818151815260200191508051906020019080838360005b838110156103085780820151818401526020810190506102ed565b50505050905090810190601f1680156103355780820380516001836020036101000a031916815260200191505b509250505060405180910390f35b34801561034f57600080fd5b5061037c6004803603602081101561036657600080fd5b8101908080359060200190929190505050611344565b604051808273ffffffffffffffffffffffffffffffffffffffff16815260200191505060405180910390f35b3480156103b457600080fd5b50610401600480360360408110156103cb57600080fd5b81019080803573ffffffffffffffffffffffffffffffffffffffff169060200190929190803590602001909291905050506113fc565b005b61042f6004803603602081101561041957600080fd5b810190808035906020019092919050505061157a565b005b34801561043d57600080fd5b506104aa6004803603606081101561045457600080fd5b81019080803573ffffffffffffffffffffffffffffffffffffffff169060200190929190803573ffffffffffffffffffffffffffffffffffffffff16906020019092919080359060200190929190505050611693565b005b3480156104b857600080fd5b506104c161176d565b6040518082815260200191505060405180910390f35b3480156104e357600080fd5b50610550600480360360608110156104fa57600080fd5b81019080803573ffffffffffffffffffffffffffffffffffffffff169060200190929190803573ffffffffffffffffffffffffffffffffffffffff16906020019092919080359060200190929190505050611777565b005b34801561055e57600080fd5b506105cb6004803603606081101561057557600080fd5b81019080803573ffffffffffffffffffffffffffffffffffffffff169060200190929190803573ffffffffffffffffffffffffffffffffffffffff1690602001909291908035906020019092919050505061180a565b005b3480156105d957600080fd5b50610646600480360360608110156105f057600080fd5b81019080803573ffffffffffffffffffffffffffffffffffffffff169060200190929190803573ffffffffffffffffffffffffffffffffffffffff169060200190929190803590602001909291905050506118e4565b005b34801561065457600080fd5b506106816004803603602081101561066b57600080fd5b8101908080359060200190929190505050611904565b6040518082815260200191505060405180910390f35b3480156106a357600080fd5b506106f0600480360360408110156106ba57600080fd5b81019080803573ffffffffffffffffffffffffffffffffffffffff1690602001909291908035906020019092919050505061199b565b005b6106fa611a73565b6040518082815260200191505060405180910390f35b34801561071c57600080fd5b506107496004803603602081101561073357600080fd5b8101908080359060200190929190505050611b8f565b005b34801561075757600080fd5b506107846004803603602081101561076e57600080fd5b8101908080359060200190929190505050611c9a565b604051808273ffffffffffffffffffffffffffffffffffffffff16815260200191505060405180910390f35b3480156107bc57600080fd5b506107c5611cd7565b6040518082815260200191505060405180910390f35b3480156107e757600080fd5b5061082a600480360360208110156107fe57600080fd5b81019080803573ffffffffffffffffffffffffffffffffffffffff169060200190929190505050611d17565b6040518082815260200191505060405180910390f35b34801561084c57600080fd5b50610855611e02565b005b34801561086357600080fd5b5061086c611f8d565b604051808273ffffffffffffffffffffffffffffffffffffffff16815260200191505060405180910390f35b3480156108a457600080fd5b506108ad611fb7565b6040518080602001828103825283818151815260200191508051906020019080838360005b838110156108ed5780820151818401526020810190506108d2565b50505050905090810190601f16801561091a5780820380516001836020036101000a031916815260200191505b509250505060405180910390f35b34801561093457600080fd5b506109836004803603604081101561094b57600080fd5b81019080803573ffffffffffffffffffffffffffffffffffffffff169060200190929190803515159060200190929190505050612059565b005b34801561099157600080fd5b506109be600480360360208110156109a857600080fd5b810190808035906020019092919050505061220f565b6040518082815260200191505060405180910390f35b3480156109e057600080fd5b50610a9c600480360360c08110156109f757600080fd5b810190808035906020019092919080359060200190640100000000811115610a1e57600080fd5b820183602082011115610a3057600080fd5b80359060200191846001830284011164010000000083111715610a5257600080fd5b909192939192939080359060200190929190803563ffffffff169060200190929190803563ffffffff169060200190929190803563ffffffff1690602001909291905050506122a6565b005b348015610aaa57600080fd5b50610bae60048036036080811015610ac157600080fd5b81019080803573ffffffffffffffffffffffffffffffffffffffff169060200190929190803573ffffffffffffffffffffffffffffffffffffffff1690602001909291908035906020019092919080359060200190640100000000811115610b2857600080fd5b820183602082011115610b3a57600080fd5b80359060200191846001830284011164010000000083111715610b5c57600080fd5b91908080601f016020809104026020016040519081016040528093929190818152602001838380828437600081840152601f19601f820116905080830192505050505050509192919290505050612528565b005b348015610bbc57600080fd5b50610be960048036036020811015610bd357600080fd5b81019080803590602001909291905050506125bd565b6040518080602001828103825283818151815260200191508051906020019080838360005b83811015610c29578082015181840152602081019050610c0e565b50505050905090810190601f168015610c565780820380516001836020036101000a031916815260200191505b509250505060405180910390f35b348015610c7057600080fd5b50610c7961264e565b6040518082815260200191505060405180910390f35b348015610c9b57600080fd5b50610d4d600480360360a0811015610cb257600080fd5b8101908080359060200190640100000000811115610ccf57600080fd5b820183602082011115610ce157600080fd5b80359060200191846001830284011164010000000083111715610d0357600080fd5b909192939192939080359060200190929190803563ffffffff169060200190929190803563ffffffff169060200190929190803563ffffffff169060200190929190505050612658565b005b348015610d5b57600080fd5b50610d8a60048036036020811015610d7257600080fd5b81019080803515159060200190929190505050612995565b005b348015610d9857600080fd5b50610da1612ab5565b6040518082815260200191505060405180910390f35b348015610dc357600080fd5b50610e2660048036036040811015610dda57600080fd5b81019080803573ffffffffffffffffffffffffffffffffffffffff169060200190929190803573ffffffffffffffffffffffffffffffffffffffff169060200190929190505050612ad7565b60405180821515815260200191505060405180910390f35b348015610e4a57600080fd5b50610e8d60048036036020811015610e6157600080fd5b81019080803573ffffffffffffffffffffffffffffffffffffffff169060200190929190505050612b6b565b005b6000806000837bffffffffffffffffffffffffffffffffffffffffffffffffffffffff19167bffffffffffffffffffffffffffffffffffffffffffffffffffffffff1916815260200190815260200160002060009054906101000a900460ff169050919050565b610efe612d7b565b73ffffffffffffffffffffffffffffffffffffffff16600860009054906101000a900473ffffffffffffffffffffffffffffffffffffffff1673ffffffffffffffffffffffffffffffffffffffff1614610fc0576040517f08c379a00000000000000000000000000000000000000000000000000000000081526004018080602001828103825260208152602001807f4f776e61626c653a2063616c6c6572206973206e6f7420746865206f776e657281525060200191505060405180910390fd5b600f60019054906101000a900460ff1615611043576040517f08c379a00000000000000000000000000000000000000000000000000000000081526004018080602001828103825260098152602001807f4c50543a452d303034000000000000000000000000000000000000000000000081525060200191505060405180910390fd5b60008273ffffffffffffffffffffffffffffffffffffffff166318160ddd6040518163ffffffff1660e01b815260040160206040518083038186803b15801561108b57600080fd5b505afa15801561109f573d6000803e3d6000fd5b505050506040513d60208110156110b557600080fd5b8101908080519060200190929190505050905060008114806110d85750600e5481115b61114a576040517f08c379a00000000000000000000000000000000000000000000000000000000081526004018080602001828103825260098152602001807f4c50543a452d303034000000000000000000000000000000000000000000000081525060200191505060405180910390fd5b600081111561128a57600061116a83600e54612d8390919063ffffffff16565b90508181111561119c5761119961118a8383612e0b90919063ffffffff16565b84612e0b90919063ffffffff16565b92505b6000600190505b83811161126c5760006111c182600e54612d8390919063ffffffff16565b905060008673ffffffffffffffffffffffffffffffffffffffff16636352211e836040518263ffffffff1660e01b81526004018082815260200191505060206040518083038186803b15801561121657600080fd5b505afa15801561122a573d6000803e3d6000fd5b505050506040513d602081101561124057600080fd5b8101908080519060200190929190505050905061125c81612e55565b50505080806001019150506111a3565b5061128283600e54612d8390919063ffffffff16565b600e81905550505b600e5481141561129d5761129c6130e5565b5b505050565b606060058054600181600116156101000203166002900480601f01602080910402602001604051908101604052809291908181526020018280546001816001161561010002031660029004801561133a5780601f1061130f5761010080835404028352916020019161133a565b820191906000526020600020905b81548152906001019060200180831161131d57829003601f168201915b5050505050905090565b600061134f826132eb565b6113c1576040517f08c379a000000000000000000000000000000000000000000000000000000000815260040180806020018281038252600c8152602001807f4552433732313a452d343035000000000000000000000000000000000000000081525060200191505060405180910390fd5b6003600083815260200190815260200160002060009054906101000a900473ffffffffffffffffffffffffffffffffffffffff169050919050565b600061140782611c9a565b90508073ffffffffffffffffffffffffffffffffffffffff168373ffffffffffffffffffffffffffffffffffffffff1614156114ab576040517f08c379a000000000000000000000000000000000000000000000000000000000815260040180806020018281038252600c8152602001807f4552433732313a452d313131000000000000000000000000000000000000000081525060200191505060405180910390fd5b8073ffffffffffffffffffffffffffffffffffffffff166114ca612d7b565b73ffffffffffffffffffffffffffffffffffffffff1614806114f957506114f8816114f3612d7b565b612ad7565b5b61156b576040517f08c379a000000000000000000000000000000000000000000000000000000000815260040180806020018281038252600c8152602001807f4552433732313a452d313035000000000000000000000000000000000000000081525060200191505060405180910390fd5b6115758383613357565b505050565b600260095414156115f3576040517f08c379a000000000000000000000000000000000000000000000000000000000815260040180806020018281038252601f8152602001807f5265656e7472616e637947756172643a207265656e7472616e742063616c6c0081525060200191505060405180910390fd5b6002600981905550600f60009054906101000a900460ff161561167e576040517f08c379a00000000000000000000000000000000000000000000000000000000081526004018080602001828103825260098152602001807f4c50543a452d313031000000000000000000000000000000000000000000000081525060200191505060405180910390fd5b6116883382613410565b600160098190555050565b61169b612d7b565b73ffffffffffffffffffffffffffffffffffffffff16600860009054906101000a900473ffffffffffffffffffffffffffffffffffffffff1673ffffffffffffffffffffffffffffffffffffffff161461175d576040517f08c379a00000000000000000000000000000000000000000000000000000000081526004018080602001828103825260208152602001807f4f776e61626c653a2063616c6c6572206973206e6f7420746865206f776e657281525060200191505060405180910390fd5b611768838383613815565b505050565b6000600754905090565b611788611782612d7b565b826139f6565b6117fa576040517f08c379a000000000000000000000000000000000000000000000000000000000815260040180806020018281038252600c8152602001807f4552433732313a452d313035000000000000000000000000000000000000000081525060200191505060405180910390fd5b611805838383613b07565b505050565b611812612d7b565b73ffffffffffffffffffffffffffffffffffffffff16600860009054906101000a900473ffffffffffffffffffffffffffffffffffffffff1673ffffffffffffffffffffffffffffffffffffffff16146118d4576040517f08c379a00000000000000000000000000000000000000000000000000000000081526004018080602001828103825260208152602001807f4f776e61626c653a2063616c6c6572206973206e6f7420746865206f776e657281525060200191505060405180910390fd5b6118df838383613e3c565b505050565b6118ff83838360405180602001604052806000815250612528565b505050565b600061190f826132eb565b611981576040517f08c379a00000000000000000000000000000000000000000000000000000000081526004018080602001828103825260098152602001807f4c50543a452d343035000000000000000000000000000000000000000000000081525060200191505060405180910390fd5b61198a826140a6565b60a0015163ffffffff169050919050565b6119a3612d7b565b73ffffffffffffffffffffffffffffffffffffffff16600860009054906101000a900473ffffffffffffffffffffffffffffffffffffffff1673ffffffffffffffffffffffffffffffffffffffff1614611a65576040517f08c379a00000000000000000000000000000000000000000000000000000000081526004018080602001828103825260208152602001807f4f776e61626c653a2063616c6c6572206973206e6f7420746865206f776e657281525060200191505060405180910390fd5b611a6f8282614299565b5050565b600060026009541415611aee576040517f08c379a000000000000000000000000000000000000000000000000000000000815260040180806020018281038252601f8152602001807f5265656e7472616e637947756172643a207265656e7472616e742063616c6c0081525060200191505060405180910390fd5b6002600981905550600f60009054906101000a900460ff1615611b79576040517f08c379a00000000000000000000000000000000000000000000000000000000081526004018080602001828103825260098152602001807f4c50543a452d313031000000000000000000000000000000000000000000000081525060200191505060405180910390fd5b611b82336143be565b9050600160098190555090565b611b97612d7b565b73ffffffffffffffffffffffffffffffffffffffff16600860009054906101000a900473ffffffffffffffffffffffffffffffffffffffff1673ffffffffffffffffffffffffffffffffffffffff1614611c59576040517f08c379a00000000000000000000000000000000000000000000000000000000081526004018080602001828103825260208152602001807f4f776e61626c653a2063616c6c6572206973206e6f7420746865206f776e657281525060200191505060405180910390fd5b80600d819055507f409ba051a4c57ed282ca3d937444126381926068149b2ceb9dcff792655a9b03816040518082815260200191505060405180910390a150565b60006001600083815260200190815260200160002060009054906101000a900473ffffffffffffffffffffffffffffffffffffffff169050919050565b6000600a80549050600b5410611cf05760009050611d14565b600a600b5481548110611cff57fe5b90600052602060002090600302016001015490505b90565b60008073ffffffffffffffffffffffffffffffffffffffff168273ffffffffffffffffffffffffffffffffffffffff161415611dbb576040517f08c379a000000000000000000000000000000000000000000000000000000000815260040180806020018281038252600c8152602001807f4552433732313a452d343033000000000000000000000000000000000000000081525060200191505060405180910390fd5b600260008373ffffffffffffffffffffffffffffffffffffffff1673ffffffffffffffffffffffffffffffffffffffff168152602001908152602001600020549050919050565b611e0a612d7b565b73ffffffffffffffffffffffffffffffffffffffff16600860009054906101000a900473ffffffffffffffffffffffffffffffffffffffff1673ffffffffffffffffffffffffffffffffffffffff1614611ecc576040517f08c379a00000000000000000000000000000000000000000000000000000000081526004018080602001828103825260208152602001807f4f776e61626c653a2063616c6c6572206973206e6f7420746865206f776e657281525060200191505060405180910390fd5b600073ffffffffffffffffffffffffffffffffffffffff16600860009054906101000a900473ffffffffffffffffffffffffffffffffffffffff1673ffffffffffffffffffffffffffffffffffffffff167f8be0079c531659141344cd1fd0a4f28419497f9722a3daafe3b4186f6b6457e060405160405180910390a36000600860006101000a81548173ffffffffffffffffffffffffffffffffffffffff021916908373ffffffffffffffffffffffffffffffffffffffff160217905550565b6000600860009054906101000a900473ffffffffffffffffffffffffffffffffffffffff16905090565b606060068054600181600116156101000203166002900480601f01602080910402602001604051908101604052809291908181526020018280546001816001161561010002031660029004801561204f5780601f106120245761010080835404028352916020019161204f565b820191906000526020600020905b81548152906001019060200180831161203257829003601f168201915b5050505050905090565b612061612d7b565b73ffffffffffffffffffffffffffffffffffffffff168273ffffffffffffffffffffffffffffffffffffffff161415612102576040517f08c379a000000000000000000000000000000000000000000000000000000000815260040180806020018281038252600c8152602001807f4552433732313a452d313131000000000000000000000000000000000000000081525060200191505060405180910390fd5b806004600061210f612d7b565b73ffffffffffffffffffffffffffffffffffffffff1673ffffffffffffffffffffffffffffffffffffffff16815260200190815260200160002060008473ffffffffffffffffffffffffffffffffffffffff1673ffffffffffffffffffffffffffffffffffffffff16815260200190815260200160002060006101000a81548160ff0219169083151502179055508173ffffffffffffffffffffffffffffffffffffffff166121bc612d7b565b73ffffffffffffffffffffffffffffffffffffffff167f17307eab39ab6107e8899845ad3d59bd9653f200f220920489ca2b5937696c318360405180821515815260200191505060405180910390a35050565b600061221a826132eb565b61228c576040517f08c379a00000000000000000000000000000000000000000000000000000000081526004018080602001828103825260098152602001807f4c50543a452d343035000000000000000000000000000000000000000000000081525060200191505060405180910390fd5b612295826140a6565b6080015163ffffffff169050919050565b6122ae612d7b565b73ffffffffffffffffffffffffffffffffffffffff16600860009054906101000a900473ffffffffffffffffffffffffffffffffffffffff1673ffffffffffffffffffffffffffffffffffffffff1614612370576040517f08c379a00000000000000000000000000000000000000000000000000000000081526004018080602001828103825260208152602001807f4f776e61626c653a2063616c6c6572206973206e6f7420746865206f776e657281525060200191505060405180910390fd5b8585600a898154811061237f57fe5b9060005260206000209060030201600001919061239d92919061539b565b5083600a88815481106123ac57fe5b90600052602060002090600302016001018190555082600a88815481106123cf57fe5b906000526020600020906003020160020160106101000a81548163ffffffff021916908363ffffffff16021790555081600a888154811061240c57fe5b906000526020600020906003020160020160146101000a81548163ffffffff021916908363ffffffff16021790555080600a888154811061244957fe5b906000526020600020906003020160020160186101000a81548163ffffffff021916908363ffffffff1602179055507fc29eb52b178d59612a9ec3dbfed2e3054ea12f735bff5d06a799a4b06cd47c5287878787878787600c5460405180898152602001806020018781526020018663ffffffff1681526020018563ffffffff1681526020018463ffffffff1681526020018381526020018281038252898982818152602001925080828437600081840152601f19601f820116905080830192505050995050505050505050505060405180910390a150505050505050565b612539612533612d7b565b836139f6565b6125ab576040517f08c379a000000000000000000000000000000000000000000000000000000000815260040180806020018281038252600c8152602001807f4552433732313a452d313035000000000000000000000000000000000000000081525060200191505060405180910390fd5b6125b7848484846146b9565b50505050565b60606125c8826132eb565b61263a576040517f08c379a00000000000000000000000000000000000000000000000000000000081526004018080602001828103825260098152602001807f4c50543a452d343035000000000000000000000000000000000000000000000081525060200191505060405180910390fd5b612643826140a6565b600001519050919050565b6000600c54905090565b612660612d7b565b73ffffffffffffffffffffffffffffffffffffffff16600860009054906101000a900473ffffffffffffffffffffffffffffffffffffffff1673ffffffffffffffffffffffffffffffffffffffff1614612722576040517f08c379a00000000000000000000000000000000000000000000000000000000081526004018080602001828103825260208152602001807f4f776e61626c653a2063616c6c6572206973206e6f7420746865206f776e657281525060200191505060405180910390fd5b61273d8363ffffffff16600c54612d8390919063ffffffff16565b600c8190555061274b61541b565b6040518060c0016040528088888080601f016020809104026020016040519081016040528093929190818152602001838380828437600081840152601f19601f820116905080830192505050505050508152602001868152602001600c546fffffffffffffffffffffffffffffffff1681526020018563ffffffff1681526020018463ffffffff1681526020018363ffffffff168152509050600a819080600181540180825580915050600190039060005260206000209060030201600090919091909150600082015181600001908051906020019061282c929190615475565b506020820151816001015560408201518160020160006101000a8154816fffffffffffffffffffffffffffffffff02191690836fffffffffffffffffffffffffffffffff16021790555060608201518160020160106101000a81548163ffffffff021916908363ffffffff16021790555060808201518160020160146101000a81548163ffffffff021916908363ffffffff16021790555060a08201518160020160186101000a81548163ffffffff021916908363ffffffff16021790555050507f03a96a3a809ae0740a794cb4d254030e999b01bb9985f4b0b5f5e524dc8e0667878787878787600c5460405180806020018781526020018663ffffffff1681526020018563ffffffff1681526020018463ffffffff1681526020018381526020018281038252898982818152602001925080828437600081840152601f19601f8201169050808301925050509850505050505050505060405180910390a150505050505050565b61299d612d7b565b73ffffffffffffffffffffffffffffffffffffffff16600860009054906101000a900473ffffffffffffffffffffffffffffffffffffffff1673ffffffffffffffffffffffffffffffffffffffff1614612a5f576040517f08c379a00000000000000000000000000000000000000000000000000000000081526004018080602001828103825260208152602001807f4f776e61626c653a2063616c6c6572206973206e6f7420746865206f776e657281525060200191505060405180910390fd5b80600f60006101000a81548160ff0219169083151502179055507fa9bfed3d98385b3777389e321dbde773cf7d335fa604fefbae3dca93564f55868160405180821515815260200191505060405180910390a150565b6000600a80549050600b5410612ace5760009050612ad4565b600b5490505b90565b6000600460008473ffffffffffffffffffffffffffffffffffffffff1673ffffffffffffffffffffffffffffffffffffffff16815260200190815260200160002060008373ffffffffffffffffffffffffffffffffffffffff1673ffffffffffffffffffffffffffffffffffffffff16815260200190815260200160002060009054906101000a900460ff16905092915050565b612b73612d7b565b73ffffffffffffffffffffffffffffffffffffffff16600860009054906101000a900473ffffffffffffffffffffffffffffffffffffffff1673ffffffffffffffffffffffffffffffffffffffff1614612c35576040517f08c379a00000000000000000000000000000000000000000000000000000000081526004018080602001828103825260208152602001807f4f776e61626c653a2063616c6c6572206973206e6f7420746865206f776e657281525060200191505060405180910390fd5b600073ffffffffffffffffffffffffffffffffffffffff168173ffffffffffffffffffffffffffffffffffffffff161415612cbb576040517f08c379a00000000000000000000000000000000000000000000000000000000081526004018080602001828103825260268152602001806155136026913960400191505060405180910390fd5b8073ffffffffffffffffffffffffffffffffffffffff16600860009054906101000a900473ffffffffffffffffffffffffffffffffffffffff1673ffffffffffffffffffffffffffffffffffffffff167f8be0079c531659141344cd1fd0a4f28419497f9722a3daafe3b4186f6b6457e060405160405180910390a380600860006101000a81548173ffffffffffffffffffffffffffffffffffffffff021916908373ffffffffffffffffffffffffffffffffffffffff16021790555050565b600033905090565b600080828401905083811015612e01576040517f08c379a000000000000000000000000000000000000000000000000000000000815260040180806020018281038252601b8152602001807f536166654d6174683a206164646974696f6e206f766572666c6f77000000000081525060200191505060405180910390fd5b8091505092915050565b6000612e4d83836040518060400160405280601e81526020017f536166654d6174683a207375627472616374696f6e206f766572666c6f770000815250614748565b905092915050565b60008073ffffffffffffffffffffffffffffffffffffffff168273ffffffffffffffffffffffffffffffffffffffff161415612ef9576040517f08c379a000000000000000000000000000000000000000000000000000000000815260040180806020018281038252600c8152602001807f4552433732313a452d343033000000000000000000000000000000000000000081525060200191505060405180910390fd5b612f0f6001600754612d8390919063ffffffff16565b60078190555060006007549050612f25816132eb565b15612f98576040517f08c379a000000000000000000000000000000000000000000000000000000000815260040180806020018281038252600c8152602001807f4552433732313a452d343037000000000000000000000000000000000000000081525060200191505060405180910390fd5b826001600083815260200190815260200160002060006101000a81548173ffffffffffffffffffffffffffffffffffffffff021916908373ffffffffffffffffffffffffffffffffffffffff16021790555061303d6001600260008673ffffffffffffffffffffffffffffffffffffffff1673ffffffffffffffffffffffffffffffffffffffff16815260200190815260200160002054612d8390919063ffffffff16565b600260008573ffffffffffffffffffffffffffffffffffffffff1673ffffffffffffffffffffffffffffffffffffffff16815260200190815260200160002081905550808373ffffffffffffffffffffffffffffffffffffffff16600073ffffffffffffffffffffffffffffffffffffffff167fddf252ad1be2c89b69c2b068fc378daa952ba7f163c4a11628f55a4df523b3ef60405160405180910390a480915050919050565b6000600b8190555060005b600a805490508110156132cd5761310561541b565b600a828154811061311257fe5b90600052602060002090600302016040518060c0016040529081600082018054600181600116156101000203166002900480601f0160208091040260200160405190810160405280929190818152602001828054600181600116156101000203166002900480156131c45780601f10613199576101008083540402835291602001916131c4565b820191906000526020600020905b8154815290600101906020018083116131a757829003601f168201915b50505050508152602001600182015481526020016002820160009054906101000a90046fffffffffffffffffffffffffffffffff166fffffffffffffffffffffffffffffffff166fffffffffffffffffffffffffffffffff1681526020016002820160109054906101000a900463ffffffff1663ffffffff1663ffffffff1681526020016002820160149054906101000a900463ffffffff1663ffffffff1663ffffffff1681526020016002820160189054906101000a900463ffffffff1663ffffffff1663ffffffff1681525050905080604001516fffffffffffffffffffffffffffffffff16600e54106132bf5760018201600b819055505b5080806001019150506130f0565b506001600f60016101000a81548160ff021916908315150217905550565b60008073ffffffffffffffffffffffffffffffffffffffff166001600084815260200190815260200160002060009054906101000a900473ffffffffffffffffffffffffffffffffffffffff1673ffffffffffffffffffffffffffffffffffffffff1614159050919050565b816003600083815260200190815260200160002060006101000a81548173ffffffffffffffffffffffffffffffffffffffff021916908373ffffffffffffffffffffffffffffffffffffffff160217905550808273ffffffffffffffffffffffffffffffffffffffff166133ca83611c9a565b73ffffffffffffffffffffffffffffffffffffffff167f8c5be1e5ebec7d5bd14f71427d1e84f3dd0314c0f7b2291e5b200ac8c7c3b92560405160405180910390a45050565b600a80549050600b541061348c576040517f08c379a00000000000000000000000000000000000000000000000000000000081526004018080602001828103825260098152602001807f4c50543a452d343038000000000000000000000000000000000000000000000081525060200191505060405180910390fd5b6000600d54148061349f5750600d548111155b613511576040517f08c379a00000000000000000000000000000000000000000000000000000000081526004018080602001828103825260098152602001807f4c50543a452d343239000000000000000000000000000000000000000000000081525060200191505060405180910390fd5b61351961541b565b600a600b548154811061352857fe5b90600052602060002090600302016040518060c0016040529081600082018054600181600116156101000203166002900480601f0160208091040260200160405190810160405280929190818152602001828054600181600116156101000203166002900480156135da5780601f106135af576101008083540402835291602001916135da565b820191906000526020600020905b8154815290600101906020018083116135bd57829003601f168201915b50505050508152602001600182015481526020016002820160009054906101000a90046fffffffffffffffffffffffffffffffff166fffffffffffffffffffffffffffffffff166fffffffffffffffffffffffffffffffff1681526020016002820160109054906101000a900463ffffffff1663ffffffff1663ffffffff1681526020016002820160149054906101000a900463ffffffff1663ffffffff1663ffffffff1681526020016002820160189054906101000a900463ffffffff1663ffffffff1663ffffffff1681525050905060006136c283600754612d8390919063ffffffff16565b905081604001516fffffffffffffffffffffffffffffffff168111156137205761371d61370e83604001516fffffffffffffffffffffffffffffffff1683612e0b90919063ffffffff16565b84612e0b90919063ffffffff16565b92505b600061373984846020015161480890919063ffffffff16565b9050803410156137b1576040517f08c379a00000000000000000000000000000000000000000000000000000000081526004018080602001828103825260098152602001807f4c50543a452d343134000000000000000000000000000000000000000000000081525060200191505060405180910390fd5b6137cb85856040518060200160405280600081525061488e565b82604001516fffffffffffffffffffffffffffffffff168210613805576137fe6001600b54612d8390919063ffffffff16565b600b819055505b61380e81614921565b5050505050565b600073ffffffffffffffffffffffffffffffffffffffff168373ffffffffffffffffffffffffffffffffffffffff1614156138b8576040517f08c379a00000000000000000000000000000000000000000000000000000000081526004018080602001828103825260098152602001807f4248503a452d343033000000000000000000000000000000000000000000000081525060200191505060405180910390fd5b808273ffffffffffffffffffffffffffffffffffffffff166370a08231306040518263ffffffff1660e01b8152600401808273ffffffffffffffffffffffffffffffffffffffff16815260200191505060206040518083038186803b15801561392057600080fd5b505afa158015613934573d6000803e3d6000fd5b505050506040513d602081101561394a57600080fd5b8101908080519060200190929190505050106139f15761398b83828473ffffffffffffffffffffffffffffffffffffffff166149769092919063ffffffff16565b8173ffffffffffffffffffffffffffffffffffffffff168373ffffffffffffffffffffffffffffffffffffffff167f6c9d637297625e945b296ff73a71fcfbd0a9e062652b6491a921c4c60194176b836040518082815260200191505060405180910390a35b505050565b6000613a01826132eb565b613a73576040517f08c379a000000000000000000000000000000000000000000000000000000000815260040180806020018281038252600c8152602001807f4552433732313a452d343035000000000000000000000000000000000000000081525060200191505060405180910390fd5b6000613a7e83611c9a565b90508073ffffffffffffffffffffffffffffffffffffffff168473ffffffffffffffffffffffffffffffffffffffff161480613aed57508373ffffffffffffffffffffffffffffffffffffffff16613ad584611344565b73ffffffffffffffffffffffffffffffffffffffff16145b80613afe5750613afd8185612ad7565b5b91505092915050565b8273ffffffffffffffffffffffffffffffffffffffff16613b2782611c9a565b73ffffffffffffffffffffffffffffffffffffffff1614613bb0576040517f08c379a000000000000000000000000000000000000000000000000000000000815260040180806020018281038252600c8152602001807f4552433732313a452d313032000000000000000000000000000000000000000081525060200191505060405180910390fd5b600073ffffffffffffffffffffffffffffffffffffffff168273ffffffffffffffffffffffffffffffffffffffff161415613c53576040517f08c379a000000000000000000000000000000000000000000000000000000000815260040180806020018281038252600c8152602001807f4552433732313a452d343033000000000000000000000000000000000000000081525060200191505060405180910390fd5b613c5e600082613357565b816001600083815260200190815260200160002060006101000a81548173ffffffffffffffffffffffffffffffffffffffff021916908373ffffffffffffffffffffffffffffffffffffffff160217905550613d036001600260008673ffffffffffffffffffffffffffffffffffffffff1673ffffffffffffffffffffffffffffffffffffffff16815260200190815260200160002054612e0b90919063ffffffff16565b600260008573ffffffffffffffffffffffffffffffffffffffff1673ffffffffffffffffffffffffffffffffffffffff16815260200190815260200160002081905550613d996001600260008573ffffffffffffffffffffffffffffffffffffffff1673ffffffffffffffffffffffffffffffffffffffff16815260200190815260200160002054612d8390919063ffffffff16565b600260008473ffffffffffffffffffffffffffffffffffffffff1673ffffffffffffffffffffffffffffffffffffffff16815260200190815260200160002081905550808273ffffffffffffffffffffffffffffffffffffffff168473ffffffffffffffffffffffffffffffffffffffff167fddf252ad1be2c89b69c2b068fc378daa952ba7f163c4a11628f55a4df523b3ef60405160405180910390a4505050565b600073ffffffffffffffffffffffffffffffffffffffff168373ffffffffffffffffffffffffffffffffffffffff161415613edf576040517f08c379a00000000000000000000000000000000000000000000000000000000081526004018080602001828103825260098152602001807f4248503a452d343033000000000000000000000000000000000000000000000081525060200191505060405180910390fd5b3073ffffffffffffffffffffffffffffffffffffffff168273ffffffffffffffffffffffffffffffffffffffff16636352211e836040518263ffffffff1660e01b81526004018082815260200191505060206040518083038186803b158015613f4757600080fd5b505afa158015613f5b573d6000803e3d6000fd5b505050506040513d6020811015613f7157600080fd5b810190808051906020019092919050505073ffffffffffffffffffffffffffffffffffffffff1614156140a1578173ffffffffffffffffffffffffffffffffffffffff166323b872dd3085846040518463ffffffff1660e01b8152600401808473ffffffffffffffffffffffffffffffffffffffff1681526020018373ffffffffffffffffffffffffffffffffffffffff1681526020018281526020019350505050600060405180830381600087803b15801561402d57600080fd5b505af1158015614041573d6000803e3d6000fd5b50505050808273ffffffffffffffffffffffffffffffffffffffff168473ffffffffffffffffffffffffffffffffffffffff167ffefe036cac4ee3a4aca074a81cbcc4376e1484693289078dbec149c890101d5b60405160405180910390a45b505050565b6140ae61541b565b6000600a80549050905060005b81811015614291576140cb61541b565b600a82815481106140d857fe5b90600052602060002090600302016040518060c0016040529081600082018054600181600116156101000203166002900480601f01602080910402602001604051908101604052809291908181526020018280546001816001161561010002031660029004801561418a5780601f1061415f5761010080835404028352916020019161418a565b820191906000526020600020905b81548152906001019060200180831161416d57829003601f168201915b50505050508152602001600182015481526020016002820160009054906101000a90046fffffffffffffffffffffffffffffffff166fffffffffffffffffffffffffffffffff166fffffffffffffffffffffffffffffffff1681526020016002820160109054906101000a900463ffffffff1663ffffffff1663ffffffff1681526020016002820160149054906101000a900463ffffffff1663ffffffff1663ffffffff1681526020016002820160189054906101000a900463ffffffff1663ffffffff1663ffffffff1681525050905080604001516fffffffffffffffffffffffffffffffff16851161428357809350505050614294565b5080806001019150506140bb565b50505b919050565b600073ffffffffffffffffffffffffffffffffffffffff168273ffffffffffffffffffffffffffffffffffffffff16141561433c576040517f08c379a00000000000000000000000000000000000000000000000000000000081526004018080602001828103825260098152602001807f4248503a452d343033000000000000000000000000000000000000000000000081525060200191505060405180910390fd5b8047106143ba5761436c818373ffffffffffffffffffffffffffffffffffffffff16614a1890919063ffffffff16565b8173ffffffffffffffffffffffffffffffffffffffff167eddb683bb45cd5d0ad8a200c6fae7152b1c236ee90a4a37db692407f5cc38bd826040518082815260200191505060405180910390a25b5050565b6000600a80549050600b541061443c576040517f08c379a00000000000000000000000000000000000000000000000000000000081526004018080602001828103825260098152602001807f4c50543a452d343038000000000000000000000000000000000000000000000081525060200191505060405180910390fd5b61444461541b565b600a600b548154811061445357fe5b90600052602060002090600302016040518060c0016040529081600082018054600181600116156101000203166002900480601f0160208091040260200160405190810160405280929190818152602001828054600181600116156101000203166002900480156145055780601f106144da57610100808354040283529160200191614505565b820191906000526020600020905b8154815290600101906020018083116144e857829003601f168201915b50505050508152602001600182015481526020016002820160009054906101000a90046fffffffffffffffffffffffffffffffff166fffffffffffffffffffffffffffffffff166fffffffffffffffffffffffffffffffff1681526020016002820160109054906101000a900463ffffffff1663ffffffff1663ffffffff1681526020016002820160149054906101000a900463ffffffff1663ffffffff1663ffffffff1681526020016002820160189054906101000a900463ffffffff1663ffffffff1663ffffffff168152505090508060200151341015614650576040517f08c379a00000000000000000000000000000000000000000000000000000000081526004018080602001828103825260098152602001807f4c50543a452d343134000000000000000000000000000000000000000000000081525060200191505060405180910390fd5b6146698360405180602001604052806000815250614b52565b915080604001516fffffffffffffffffffffffffffffffff168214156146a65761469f6001600b54612d8390919063ffffffff16565b600b819055505b6146b38160200151614921565b50919050565b6146c4848484613b07565b6146d084848484614be9565b614742576040517f08c379a000000000000000000000000000000000000000000000000000000000815260040180806020018281038252600c8152602001807f4552433732313a452d343032000000000000000000000000000000000000000081525060200191505060405180910390fd5b50505050565b60008383111582906147f5576040517f08c379a00000000000000000000000000000000000000000000000000000000081526004018080602001828103825283818151815260200191508051906020019080838360005b838110156147ba57808201518184015260208101905061479f565b50505050905090810190601f1680156147e75780820380516001836020036101000a031916815260200191505b509250505060405180910390fd5b5060008385039050809150509392505050565b60008083141561481b5760009050614888565b600082840290508284828161482c57fe5b0414614883576040517f08c379a00000000000000000000000000000000000000000000000000000000081526004018080602001828103825260218152602001806155736021913960400191505060405180910390fd5b809150505b92915050565b600061489a8484614e1f565b90506148a96000858385614be9565b61491b576040517f08c379a000000000000000000000000000000000000000000000000000000000815260040180806020018281038252600c8152602001807f4552433732313a452d343032000000000000000000000000000000000000000081525060200191505060405180910390fd5b50505050565b60006149368234612e0b90919063ffffffff16565b90506000811115614972576149718161494d612d7b565b73ffffffffffffffffffffffffffffffffffffffff16614a1890919063ffffffff16565b5b5050565b614a138363a9059cbb60e01b8484604051602401808373ffffffffffffffffffffffffffffffffffffffff16815260200182815260200192505050604051602081830303815290604052907bffffffffffffffffffffffffffffffffffffffffffffffffffffffff19166020820180517bffffffffffffffffffffffffffffffffffffffffffffffffffffffff838183161783525050505061507b565b505050565b80471015614a8e576040517f08c379a000000000000000000000000000000000000000000000000000000000815260040180806020018281038252601d8152602001807f416464726573733a20696e73756666696369656e742062616c616e636500000081525060200191505060405180910390fd5b60008273ffffffffffffffffffffffffffffffffffffffff168260405180600001905060006040518083038185875af1925050503d8060008114614aee576040519150601f19603f3d011682016040523d82523d6000602084013e614af3565b606091505b5050905080614b4d576040517f08c379a000000000000000000000000000000000000000000000000000000000815260040180806020018281038252603a815260200180615539603a913960400191505060405180910390fd5b505050565b600080614b5e84612e55565b9050614b6d6000858386614be9565b614bdf576040517f08c379a000000000000000000000000000000000000000000000000000000000815260040180806020018281038252600c8152602001807f4552433732313a452d343032000000000000000000000000000000000000000081525060200191505060405180910390fd5b8091505092915050565b6000614c0a8473ffffffffffffffffffffffffffffffffffffffff1661516a565b614c175760019050614e17565b6060614d9e63150b7a0260e01b614c2c612d7b565b888787604051602401808573ffffffffffffffffffffffffffffffffffffffff1681526020018473ffffffffffffffffffffffffffffffffffffffff16815260200183815260200180602001828103825283818151815260200191508051906020019080838360005b83811015614cb0578082015181840152602081019050614c95565b50505050905090810190601f168015614cdd5780820380516001836020036101000a031916815260200191505b5095505050505050604051602081830303815290604052907bffffffffffffffffffffffffffffffffffffffffffffffffffffffff19166020820180517bffffffffffffffffffffffffffffffffffffffffffffffffffffffff83818316178352505050506040518060400160405280600c81526020017f4552433732313a452d34303200000000000000000000000000000000000000008152508773ffffffffffffffffffffffffffffffffffffffff1661517d9092919063ffffffff16565b90506000818060200190516020811015614db757600080fd5b8101908080519060200190929190505050905063150b7a0260e01b7bffffffffffffffffffffffffffffffffffffffffffffffffffffffff1916817bffffffffffffffffffffffffffffffffffffffffffffffffffffffff191614925050505b949350505050565b60008073ffffffffffffffffffffffffffffffffffffffff168373ffffffffffffffffffffffffffffffffffffffff161415614ec3576040517f08c379a000000000000000000000000000000000000000000000000000000000815260040180806020018281038252600c8152602001807f4552433732313a452d343033000000000000000000000000000000000000000081525060200191505060405180910390fd5b6000614edb6001600754612d8390919063ffffffff16565b90506000600190505b838111614fc0576000614f0282600754612d8390919063ffffffff16565b9050856001600083815260200190815260200160002060006101000a81548173ffffffffffffffffffffffffffffffffffffffff021916908373ffffffffffffffffffffffffffffffffffffffff160217905550808673ffffffffffffffffffffffffffffffffffffffff16600073ffffffffffffffffffffffffffffffffffffffff167fddf252ad1be2c89b69c2b068fc378daa952ba7f163c4a11628f55a4df523b3ef60405160405180910390a4508080600101915050614ee4565b50614fd683600754612d8390919063ffffffff16565b60078190555061502e83600260008773ffffffffffffffffffffffffffffffffffffffff1673ffffffffffffffffffffffffffffffffffffffff16815260200190815260200160002054612d8390919063ffffffff16565b600260008673ffffffffffffffffffffffffffffffffffffffff1673ffffffffffffffffffffffffffffffffffffffff168152602001908152602001600020819055508091505092915050565b60606150dd826040518060400160405280602081526020017f5361666545524332303a206c6f772d6c6576656c2063616c6c206661696c65648152508573ffffffffffffffffffffffffffffffffffffffff1661517d9092919063ffffffff16565b9050600081511115615165578080602001905160208110156150fe57600080fd5b8101908080519060200190929190505050615164576040517f08c379a000000000000000000000000000000000000000000000000000000000815260040180806020018281038252602a815260200180615594602a913960400191505060405180910390fd5b5b505050565b600080823b905060008111915050919050565b606061518c8484600085615195565b90509392505050565b60606151a08561516a565b615212576040517f08c379a000000000000000000000000000000000000000000000000000000000815260040180806020018281038252601d8152602001807f416464726573733a2063616c6c20746f206e6f6e2d636f6e747261637400000081525060200191505060405180910390fd5b600060608673ffffffffffffffffffffffffffffffffffffffff1685876040518082805190602001908083835b60208310615262578051825260208201915060208101905060208303925061523f565b6001836020036101000a03801982511681845116808217855250505050505090500191505060006040518083038185875af1925050503d80600081146152c4576040519150601f19603f3d011682016040523d82523d6000602084013e6152c9565b606091505b509150915081156152de578092505050615393565b6000815111156152f15780518082602001fd5b836040517f08c379a00000000000000000000000000000000000000000000000000000000081526004018080602001828103825283818151815260200191508051906020019080838360005b8381101561535857808201518184015260208101905061533d565b50505050905090810190601f1680156153855780820380516001836020036101000a031916815260200191505b509250505060405180910390fd5b949350505050565b828054600181600116156101000203166002900490600052602060002090601f016020900481019282601f106153dc57803560ff191683800117855561540a565b8280016001018555821561540a579182015b828111156154095782358255916020019190600101906153ee565b5b50905061541791906154f5565b5090565b6040518060c00160405280606081526020016000815260200160006fffffffffffffffffffffffffffffffff168152602001600063ffffffff168152602001600063ffffffff168152602001600063ffffffff1681525090565b828054600181600116156101000203166002900490600052602060002090601f016020900481019282601f106154b657805160ff19168380011785556154e4565b828001600101855582156154e4579182015b828111156154e35782518255916020019190600101906154c8565b5b5090506154f191906154f5565b5090565b5b8082111561550e5760008160009055506001016154f6565b509056fe4f776e61626c653a206e6577206f776e657220697320746865207a65726f2061646472657373416464726573733a20756e61626c6520746f2073656e642076616c75652c20726563697069656e74206d61792068617665207265766572746564536166654d6174683a206d756c7469706c69636174696f6e206f766572666c6f775361666545524332303a204552433230206f7065726174696f6e20646964206e6f742073756363656564a2646970667358221220939893292b2edd5f176df70addf24f52bf187fabc8ed5dad18f4cd762e734c3364736f6c634300060c0033",
  "devdoc": {
    "kind": "dev",
    "methods": {
      "approve(address,uint256)": {
        "details": "See {IERC721-approve}."
      },
      "balanceOf(address)": {
        "details": "See {IERC721-balanceOf}."
      },
      "getApproved(uint256)": {
        "details": "See {IERC721-getApproved}."
      },
      "isApprovedForAll(address,address)": {
        "details": "See {IERC721-isApprovedForAll}."
      },
      "name()": {
        "details": "See {IERC721Metadata-name}."
      },
      "owner()": {
        "details": "Returns the address of the current owner."
      },
      "ownerOf(uint256)": {
        "details": "See {IERC721-ownerOf}."
      },
      "renounceOwnership()": {
        "details": "Leaves the contract without owner. It will not be possible to call `onlyOwner` functions anymore. Can only be called by the current owner. NOTE: Renouncing ownership will leave the contract without an owner, thereby removing any functionality that is only available to the owner."
      },
      "safeTransferFrom(address,address,uint256)": {
        "details": "See {IERC721-safeTransferFrom}."
      },
      "safeTransferFrom(address,address,uint256,bytes)": {
        "details": "See {IERC721-safeTransferFrom}."
      },
      "setApprovalForAll(address,bool)": {
        "details": "See {IERC721-setApprovalForAll}."
      },
      "supportsInterface(bytes4)": {
        "details": "See {IERC165-supportsInterface}. Time complexity O(1), guaranteed to always use less than 30 000 gas."
      },
      "symbol()": {
        "details": "See {IERC721Metadata-symbol}."
      },
      "transferFrom(address,address,uint256)": {
        "details": "See {IERC721-transferFrom}."
      },
      "transferOwnership(address)": {
        "details": "Transfers ownership of the contract to a new account (`newOwner`). Can only be called by the current owner."
      }
    },
    "version": 1
  },
  "userdoc": {
    "kind": "user",
    "methods": {},
    "version": 1
  },
  "storageLayout": {
    "storage": [
      {
        "astId": 4592,
        "contract": "contracts/v1/tokens/Lepton2.sol:Lepton2",
        "label": "_supportedInterfaces",
        "offset": 0,
        "slot": "0",
        "type": "t_mapping(t_bytes4,t_bool)"
      },
      {
        "astId": 32703,
        "contract": "contracts/v1/tokens/Lepton2.sol:Lepton2",
        "label": "_tokenOwners",
        "offset": 0,
        "slot": "1",
        "type": "t_mapping(t_uint256,t_address)"
      },
      {
        "astId": 32707,
        "contract": "contracts/v1/tokens/Lepton2.sol:Lepton2",
        "label": "_ownerBalance",
        "offset": 0,
        "slot": "2",
        "type": "t_mapping(t_address,t_uint256)"
      },
      {
        "astId": 32711,
        "contract": "contracts/v1/tokens/Lepton2.sol:Lepton2",
        "label": "_tokenApprovals",
        "offset": 0,
        "slot": "3",
        "type": "t_mapping(t_uint256,t_address)"
      },
      {
        "astId": 32717,
        "contract": "contracts/v1/tokens/Lepton2.sol:Lepton2",
        "label": "_operatorApprovals",
        "offset": 0,
        "slot": "4",
        "type": "t_mapping(t_address,t_mapping(t_address,t_bool))"
      },
      {
        "astId": 32719,
        "contract": "contracts/v1/tokens/Lepton2.sol:Lepton2",
        "label": "_name",
        "offset": 0,
        "slot": "5",
        "type": "t_string_storage"
      },
      {
        "astId": 32721,
        "contract": "contracts/v1/tokens/Lepton2.sol:Lepton2",
        "label": "_symbol",
        "offset": 0,
        "slot": "6",
        "type": "t_string_storage"
      },
      {
        "astId": 32723,
        "contract": "contracts/v1/tokens/Lepton2.sol:Lepton2",
        "label": "_tokenCount",
        "offset": 0,
        "slot": "7",
        "type": "t_uint256"
      },
      {
        "astId": 4406,
        "contract": "contracts/v1/tokens/Lepton2.sol:Lepton2",
        "label": "_owner",
        "offset": 0,
        "slot": "8",
        "type": "t_address"
      },
      {
        "astId": 9097,
        "contract": "contracts/v1/tokens/Lepton2.sol:Lepton2",
        "label": "_status",
        "offset": 0,
        "slot": "9",
        "type": "t_uint256"
      },
      {
        "astId": 37127,
        "contract": "contracts/v1/tokens/Lepton2.sol:Lepton2",
        "label": "_leptonTypes",
        "offset": 0,
        "slot": "10",
        "type": "t_array(t_struct(Classification)28017_storage)dyn_storage"
      },
      {
        "astId": 37129,
        "contract": "contracts/v1/tokens/Lepton2.sol:Lepton2",
        "label": "_typeIndex",
        "offset": 0,
        "slot": "11",
        "type": "t_uint256"
      },
      {
        "astId": 37131,
        "contract": "contracts/v1/tokens/Lepton2.sol:Lepton2",
        "label": "_maxSupply",
        "offset": 0,
        "slot": "12",
        "type": "t_uint256"
      },
      {
        "astId": 37133,
        "contract": "contracts/v1/tokens/Lepton2.sol:Lepton2",
        "label": "_maxMintPerTx",
        "offset": 0,
        "slot": "13",
        "type": "t_uint256"
      },
      {
        "astId": 37135,
        "contract": "contracts/v1/tokens/Lepton2.sol:Lepton2",
        "label": "_migratedCount",
        "offset": 0,
        "slot": "14",
        "type": "t_uint256"
      },
      {
        "astId": 37137,
        "contract": "contracts/v1/tokens/Lepton2.sol:Lepton2",
        "label": "_paused",
        "offset": 0,
        "slot": "15",
        "type": "t_bool"
      },
      {
        "astId": 37139,
        "contract": "contracts/v1/tokens/Lepton2.sol:Lepton2",
        "label": "_migrationComplete",
        "offset": 1,
        "slot": "15",
        "type": "t_bool"
      }
    ],
    "types": {
      "t_address": {
        "encoding": "inplace",
        "label": "address",
        "numberOfBytes": "20"
      },
      "t_array(t_struct(Classification)28017_storage)dyn_storage": {
        "base": "t_struct(Classification)28017_storage",
        "encoding": "dynamic_array",
        "label": "struct ILepton.Classification[]",
        "numberOfBytes": "32"
      },
      "t_bool": {
        "encoding": "inplace",
        "label": "bool",
        "numberOfBytes": "1"
      },
      "t_bytes4": {
        "encoding": "inplace",
        "label": "bytes4",
        "numberOfBytes": "4"
      },
      "t_mapping(t_address,t_bool)": {
        "encoding": "mapping",
        "key": "t_address",
        "label": "mapping(address => bool)",
        "numberOfBytes": "32",
        "value": "t_bool"
      },
      "t_mapping(t_address,t_mapping(t_address,t_bool))": {
        "encoding": "mapping",
        "key": "t_address",
        "label": "mapping(address => mapping(address => bool))",
        "numberOfBytes": "32",
        "value": "t_mapping(t_address,t_bool)"
      },
      "t_mapping(t_address,t_uint256)": {
        "encoding": "mapping",
        "key": "t_address",
        "label": "mapping(address => uint256)",
        "numberOfBytes": "32",
        "value": "t_uint256"
      },
      "t_mapping(t_bytes4,t_bool)": {
        "encoding": "mapping",
        "key": "t_bytes4",
        "label": "mapping(bytes4 => bool)",
        "numberOfBytes": "32",
        "value": "t_bool"
      },
      "t_mapping(t_uint256,t_address)": {
        "encoding": "mapping",
        "key": "t_uint256",
        "label": "mapping(uint256 => address)",
        "numberOfBytes": "32",
        "value": "t_address"
      },
      "t_string_storage": {
        "encoding": "bytes",
        "label": "string",
        "numberOfBytes": "32"
      },
      "t_struct(Classification)28017_storage": {
        "encoding": "inplace",
        "label": "struct ILepton.Classification",
        "members": [
          {
            "astId": 28006,
            "contract": "contracts/v1/tokens/Lepton2.sol:Lepton2",
            "label": "tokenUri",
            "offset": 0,
            "slot": "0",
            "type": "t_string_storage"
          },
          {
            "astId": 28008,
            "contract": "contracts/v1/tokens/Lepton2.sol:Lepton2",
            "label": "price",
            "offset": 0,
            "slot": "1",
            "type": "t_uint256"
          },
          {
            "astId": 28010,
            "contract": "contracts/v1/tokens/Lepton2.sol:Lepton2",
            "label": "_upperBounds",
            "offset": 0,
            "slot": "2",
            "type": "t_uint128"
          },
          {
            "astId": 28012,
            "contract": "contracts/v1/tokens/Lepton2.sol:Lepton2",
            "label": "supply",
            "offset": 16,
            "slot": "2",
            "type": "t_uint32"
          },
          {
            "astId": 28014,
            "contract": "contracts/v1/tokens/Lepton2.sol:Lepton2",
            "label": "multiplier",
            "offset": 20,
            "slot": "2",
            "type": "t_uint32"
          },
          {
            "astId": 28016,
            "contract": "contracts/v1/tokens/Lepton2.sol:Lepton2",
            "label": "bonus",
            "offset": 24,
            "slot": "2",
            "type": "t_uint32"
          }
        ],
        "numberOfBytes": "96"
      },
      "t_uint128": {
        "encoding": "inplace",
        "label": "uint128",
        "numberOfBytes": "16"
      },
      "t_uint256": {
        "encoding": "inplace",
        "label": "uint256",
        "numberOfBytes": "32"
      },
      "t_uint32": {
        "encoding": "inplace",
        "label": "uint32",
        "numberOfBytes": "4"
      }
    }
  }
}