{
  "address": "0xF771BC29B5CD8d1Fdc82997101f904C3808B4a42",
  "abi": [
    {
      "inputs": [],
      "stateMutability": "nonpayable",
      "type": "constructor"
    },
    {
      "anonymous": false,
      "inputs": [
        {
          "indexed": true,
          "internalType": "address",
          "name": "owner",
          "type": "address"
        },
        {
          "indexed": true,
          "internalType": "address",
          "name": "approved",
          "type": "address"
        },
        {
          "indexed": true,
          "internalType": "uint256",
          "name": "tokenId",
          "type": "uint256"
        }
      ],
      "name": "Approval",
      "type": "event"
    },
    {
      "anonymous": false,
      "inputs": [
        {
          "indexed": true,
          "internalType": "address",
          "name": "owner",
          "type": "address"
        },
        {
          "indexed": true,
          "internalType": "address",
          "name": "operator",
          "type": "address"
        },
        {
          "indexed": false,
          "internalType": "bool",
          "name": "approved",
          "type": "bool"
        }
      ],
      "name": "ApprovalForAll",
      "type": "event"
    },
    {
      "anonymous": false,
      "inputs": [
        {
          "indexed": true,
          "internalType": "address",
          "name": "receiver",
          "type": "address"
        },
        {
          "indexed": true,
          "internalType": "uint256",
          "name": "tokenId",
          "type": "uint256"
        },
        {
          "indexed": false,
          "internalType": "uint256",
          "name": "count",
          "type": "uint256"
        },
        {
          "indexed": false,
          "internalType": "uint256",
          "name": "price",
          "type": "uint256"
        },
        {
          "indexed": false,
          "internalType": "uint32",
          "name": "multiplier",
          "type": "uint32"
        }
      ],
      "name": "LeptonBatchMinted",
      "type": "event"
    },
    {
      "anonymous": false,
      "inputs": [
        {
          "indexed": true,
          "internalType": "address",
          "name": "receiver",
          "type": "address"
        },
        {
          "indexed": true,
          "internalType": "uint256",
          "name": "tokenId",
          "type": "uint256"
        },
        {
          "indexed": false,
          "internalType": "uint256",
          "name": "price",
          "type": "uint256"
        },
        {
          "indexed": false,
          "internalType": "uint32",
          "name": "multiplier",
          "type": "uint32"
        }
      ],
      "name": "LeptonMinted",
      "type": "event"
    },
    {
      "anonymous": false,
      "inputs": [
        {
          "indexed": false,
          "internalType": "string",
          "name": "tokenUri",
          "type": "string"
        },
        {
          "indexed": false,
          "internalType": "uint256",
          "name": "price",
          "type": "uint256"
        },
        {
          "indexed": false,
          "internalType": "uint32",
          "name": "supply",
          "type": "uint32"
        },
        {
          "indexed": false,
          "internalType": "uint32",
          "name": "multiplier",
          "type": "uint32"
        },
        {
          "indexed": false,
          "internalType": "uint32",
          "name": "bonus",
          "type": "uint32"
        },
        {
          "indexed": false,
          "internalType": "uint256",
          "name": "upperBounds",
          "type": "uint256"
        }
      ],
      "name": "LeptonTypeAdded",
      "type": "event"
    },
    {
      "anonymous": false,
      "inputs": [
        {
          "indexed": false,
          "internalType": "uint256",
          "name": "leptonIndex",
          "type": "uint256"
        },
        {
          "indexed": false,
          "internalType": "string",
          "name": "tokenUri",
          "type": "string"
        },
        {
          "indexed": false,
          "internalType": "uint256",
          "name": "price",
          "type": "uint256"
        },
        {
          "indexed": false,
          "internalType": "uint32",
          "name": "supply",
          "type": "uint32"
        },
        {
          "indexed": false,
          "internalType": "uint32",
          "name": "multiplier",
          "type": "uint32"
        },
        {
          "indexed": false,
          "internalType": "uint32",
          "name": "bonus",
          "type": "uint32"
        },
        {
          "indexed": false,
          "internalType": "uint256",
          "name": "upperBounds",
          "type": "uint256"
        }
      ],
      "name": "LeptonTypeUpdated",
      "type": "event"
    },
    {
      "anonymous": false,
      "inputs": [
        {
          "indexed": false,
          "internalType": "uint256",
          "name": "maxAmount",
          "type": "uint256"
        }
      ],
      "name": "MaxMintPerTxSet",
      "type": "event"
    },
    {
      "anonymous": false,
      "inputs": [
        {
          "indexed": true,
          "internalType": "address",
          "name": "previousOwner",
          "type": "address"
        },
        {
          "indexed": true,
          "internalType": "address",
          "name": "newOwner",
          "type": "address"
        }
      ],
      "name": "OwnershipTransferred",
      "type": "event"
    },
    {
      "anonymous": false,
      "inputs": [
        {
          "indexed": false,
          "internalType": "bool",
          "name": "isPaused",
          "type": "bool"
        }
      ],
      "name": "PausedStateSet",
      "type": "event"
    },
    {
      "anonymous": false,
      "inputs": [
        {
          "indexed": true,
          "internalType": "address",
          "name": "from",
          "type": "address"
        },
        {
          "indexed": true,
          "internalType": "address",
          "name": "to",
          "type": "address"
        },
        {
          "indexed": true,
          "internalType": "uint256",
          "name": "tokenId",
          "type": "uint256"
        }
      ],
      "name": "Transfer",
      "type": "event"
    },
    {
      "anonymous": false,
      "inputs": [
        {
          "indexed": true,
          "internalType": "address",
          "name": "receiver",
          "type": "address"
        },
        {
          "indexed": true,
          "internalType": "address",
          "name": "tokenAddress",
          "type": "address"
        },
        {
          "indexed": true,
          "internalType": "uint256",
          "name": "tokenId",
          "type": "uint256"
        },
        {
          "indexed": false,
          "internalType": "uint256",
          "name": "amount",
          "type": "uint256"
        }
      ],
      "name": "WithdrawStuckERC1155",
      "type": "event"
    },
    {
      "anonymous": false,
      "inputs": [
        {
          "indexed": true,
          "internalType": "address",
          "name": "receiver",
          "type": "address"
        },
        {
          "indexed": true,
          "internalType": "address",
          "name": "tokenAddress",
          "type": "address"
        },
        {
          "indexed": false,
          "internalType": "uint256",
          "name": "amount",
          "type": "uint256"
        }
      ],
      "name": "WithdrawStuckERC20",
      "type": "event"
    },
    {
      "anonymous": false,
      "inputs": [
        {
          "indexed": true,
          "internalType": "address",
          "name": "receiver",
          "type": "address"
        },
        {
          "indexed": true,
          "internalType": "address",
          "name": "tokenAddress",
          "type": "address"
        },
        {
          "indexed": true,
          "internalType": "uint256",
          "name": "tokenId",
          "type": "uint256"
        }
      ],
      "name": "WithdrawStuckERC721",
      "type": "event"
    },
    {
      "anonymous": false,
      "inputs": [
        {
          "indexed": true,
          "internalType": "address",
          "name": "receiver",
          "type": "address"
        },
        {
          "indexed": false,
          "internalType": "uint256",
          "name": "amount",
          "type": "uint256"
        }
      ],
      "name": "WithdrawStuckEther",
      "type": "event"
    },
    {
      "inputs": [
        {
          "internalType": "string",
          "name": "tokenUri",
          "type": "string"
        },
        {
          "internalType": "uint256",
          "name": "price",
          "type": "uint256"
        },
        {
          "internalType": "uint32",
          "name": "supply",
          "type": "uint32"
        },
        {
          "internalType": "uint32",
          "name": "multiplier",
          "type": "uint32"
        },
        {
          "internalType": "uint32",
          "name": "bonus",
          "type": "uint32"
        }
      ],
      "name": "addLeptonType",
      "outputs": [],
      "stateMutability": "nonpayable",
      "type": "function"
    },
    {
      "inputs": [
        {
          "internalType": "address",
          "name": "to",
          "type": "address"
        },
        {
          "internalType": "uint256",
          "name": "tokenId",
          "type": "uint256"
        }
      ],
      "name": "approve",
      "outputs": [],
      "stateMutability": "nonpayable",
      "type": "function"
    },
    {
      "inputs": [
        {
          "internalType": "address",
          "name": "owner",
          "type": "address"
        }
      ],
      "name": "balanceOf",
      "outputs": [
        {
          "internalType": "uint256",
          "name": "",
          "type": "uint256"
        }
      ],
      "stateMutability": "view",
      "type": "function"
    },
    {
      "inputs": [
        {
          "internalType": "uint256",
          "name": "count",
          "type": "uint256"
        }
      ],
      "name": "batchMintLepton",
      "outputs": [],
      "stateMutability": "payable",
      "type": "function"
    },
    {
      "inputs": [
        {
          "internalType": "uint256",
          "name": "tokenId",
          "type": "uint256"
        }
      ],
      "name": "getApproved",
      "outputs": [
        {
          "internalType": "address",
          "name": "",
          "type": "address"
        }
      ],
      "stateMutability": "view",
      "type": "function"
    },
    {
      "inputs": [
        {
          "internalType": "uint256",
          "name": "tokenId",
          "type": "uint256"
        }
      ],
      "name": "getBonus",
      "outputs": [
        {
          "internalType": "uint256",
          "name": "",
          "type": "uint256"
        }
      ],
      "stateMutability": "view",
      "type": "function"
    },
    {
      "inputs": [
        {
          "internalType": "uint256",
          "name": "tokenId",
          "type": "uint256"
        }
      ],
      "name": "getMultiplier",
      "outputs": [
        {
          "internalType": "uint256",
          "name": "",
          "type": "uint256"
        }
      ],
      "stateMutability": "view",
      "type": "function"
    },
    {
      "inputs": [],
      "name": "getNextPrice",
      "outputs": [
        {
          "internalType": "uint256",
          "name": "",
          "type": "uint256"
        }
      ],
      "stateMutability": "view",
      "type": "function"
    },
    {
      "inputs": [],
      "name": "getNextType",
      "outputs": [
        {
          "internalType": "uint256",
          "name": "",
          "type": "uint256"
        }
      ],
      "stateMutability": "view",
      "type": "function"
    },
    {
      "inputs": [
        {
          "internalType": "address",
          "name": "owner",
          "type": "address"
        },
        {
          "internalType": "address",
          "name": "operator",
          "type": "address"
        }
      ],
      "name": "isApprovedForAll",
      "outputs": [
        {
          "internalType": "bool",
          "name": "",
          "type": "bool"
        }
      ],
      "stateMutability": "view",
      "type": "function"
    },
    {
      "inputs": [],
      "name": "maxSupply",
      "outputs": [
        {
          "internalType": "uint256",
          "name": "",
          "type": "uint256"
        }
      ],
      "stateMutability": "view",
      "type": "function"
    },
    {
      "inputs": [
        {
          "internalType": "address",
          "name": "oldLeptonContract",
          "type": "address"
        },
        {
          "internalType": "uint256",
          "name": "count",
          "type": "uint256"
        }
      ],
      "name": "migrateAccounts",
      "outputs": [],
      "stateMutability": "nonpayable",
      "type": "function"
    },
    {
      "inputs": [],
      "name": "mintLepton",
      "outputs": [
        {
          "internalType": "uint256",
          "name": "newTokenId",
          "type": "uint256"
        }
      ],
      "stateMutability": "payable",
      "type": "function"
    },
    {
      "inputs": [],
      "name": "name",
      "outputs": [
        {
          "internalType": "string",
          "name": "",
          "type": "string"
        }
      ],
      "stateMutability": "view",
      "type": "function"
    },
    {
      "inputs": [],
      "name": "owner",
      "outputs": [
        {
          "internalType": "address",
          "name": "",
          "type": "address"
        }
      ],
      "stateMutability": "view",
      "type": "function"
    },
    {
      "inputs": [
        {
          "internalType": "uint256",
          "name": "tokenId",
          "type": "uint256"
        }
      ],
      "name": "ownerOf",
      "outputs": [
        {
          "internalType": "address",
          "name": "",
          "type": "address"
        }
      ],
      "stateMutability": "view",
      "type": "function"
    },
    {
      "inputs": [],
      "name": "renounceOwnership",
      "outputs": [],
      "stateMutability": "nonpayable",
      "type": "function"
    },
    {
      "inputs": [
        {
          "internalType": "address",
          "name": "from",
          "type": "address"
        },
        {
          "internalType": "address",
          "name": "to",
          "type": "address"
        },
        {
          "internalType": "uint256",
          "name": "tokenId",
          "type": "uint256"
        }
      ],
      "name": "safeTransferFrom",
      "outputs": [],
      "stateMutability": "nonpayable",
      "type": "function"
    },
    {
      "inputs": [
        {
          "internalType": "address",
          "name": "from",
          "type": "address"
        },
        {
          "internalType": "address",
          "name": "to",
          "type": "address"
        },
        {
          "internalType": "uint256",
          "name": "tokenId",
          "type": "uint256"
        },
        {
          "internalType": "bytes",
          "name": "_data",
          "type": "bytes"
        }
      ],
      "name": "safeTransferFrom",
      "outputs": [],
      "stateMutability": "nonpayable",
      "type": "function"
    },
    {
      "inputs": [
        {
          "internalType": "address",
          "name": "operator",
          "type": "address"
        },
        {
          "internalType": "bool",
          "name": "approved",
          "type": "bool"
        }
      ],
      "name": "setApprovalForAll",
      "outputs": [],
      "stateMutability": "nonpayable",
      "type": "function"
    },
    {
      "inputs": [
        {
          "internalType": "uint256",
          "name": "maxAmount",
          "type": "uint256"
        }
      ],
      "name": "setMaxMintPerTx",
      "outputs": [],
      "stateMutability": "nonpayable",
      "type": "function"
    },
    {
      "inputs": [
        {
          "internalType": "bool",
          "name": "state",
          "type": "bool"
        }
      ],
      "name": "setPausedState",
      "outputs": [],
      "stateMutability": "nonpayable",
      "type": "function"
    },
    {
      "inputs": [
        {
          "internalType": "bytes4",
          "name": "interfaceId",
          "type": "bytes4"
        }
      ],
      "name": "supportsInterface",
      "outputs": [
        {
          "internalType": "bool",
          "name": "",
          "type": "bool"
        }
      ],
      "stateMutability": "view",
      "type": "function"
    },
    {
      "inputs": [],
      "name": "symbol",
      "outputs": [
        {
          "internalType": "string",
          "name": "",
          "type": "string"
        }
      ],
      "stateMutability": "view",
      "type": "function"
    },
    {
      "inputs": [
        {
          "internalType": "uint256",
          "name": "tokenId",
          "type": "uint256"
        }
      ],
      "name": "tokenURI",
      "outputs": [
        {
          "internalType": "string",
          "name": "",
          "type": "string"
        }
      ],
      "stateMutability": "view",
      "type": "function"
    },
    {
      "inputs": [],
      "name": "totalSupply",
      "outputs": [
        {
          "internalType": "uint256",
          "name": "",
          "type": "uint256"
        }
      ],
      "stateMutability": "view",
      "type": "function"
    },
    {
      "inputs": [
        {
          "internalType": "address",
          "name": "from",
          "type": "address"
        },
        {
          "internalType": "address",
          "name": "to",
          "type": "address"
        },
        {
          "internalType": "uint256",
          "name": "tokenId",
          "type": "uint256"
        }
      ],
      "name": "transferFrom",
      "outputs": [],
      "stateMutability": "nonpayable",
      "type": "function"
    },
    {
      "inputs": [
        {
          "internalType": "address",
          "name": "newOwner",
          "type": "address"
        }
      ],
      "name": "transferOwnership",
      "outputs": [],
      "stateMutability": "nonpayable",
      "type": "function"
    },
    {
      "inputs": [
        {
          "internalType": "uint256",
          "name": "leptonIndex",
          "type": "uint256"
        },
        {
          "internalType": "string",
          "name": "tokenUri",
          "type": "string"
        },
        {
          "internalType": "uint256",
          "name": "price",
          "type": "uint256"
        },
        {
          "internalType": "uint32",
          "name": "supply",
          "type": "uint32"
        },
        {
          "internalType": "uint32",
          "name": "multiplier",
          "type": "uint32"
        },
        {
          "internalType": "uint32",
          "name": "bonus",
          "type": "uint32"
        }
      ],
      "name": "updateLeptonType",
      "outputs": [],
      "stateMutability": "nonpayable",
      "type": "function"
    },
    {
      "inputs": [
        {
          "internalType": "address payable",
          "name": "receiver",
          "type": "address"
        },
        {
          "internalType": "address",
          "name": "tokenAddress",
          "type": "address"
        },
        {
          "internalType": "uint256",
          "name": "tokenId",
          "type": "uint256"
        }
      ],
      "name": "withdrawERC721",
      "outputs": [],
      "stateMutability": "nonpayable",
      "type": "function"
    },
    {
      "inputs": [
        {
          "internalType": "address payable",
          "name": "receiver",
          "type": "address"
        },
        {
          "internalType": "address",
          "name": "tokenAddress",
          "type": "address"
        },
        {
          "internalType": "uint256",
          "name": "amount",
          "type": "uint256"
        }
      ],
      "name": "withdrawErc20",
      "outputs": [],
      "stateMutability": "nonpayable",
      "type": "function"
    },
    {
      "inputs": [
        {
          "internalType": "address payable",
          "name": "receiver",
          "type": "address"
        },
        {
          "internalType": "uint256",
          "name": "amount",
          "type": "uint256"
        }
      ],
      "name": "withdrawEther",
      "outputs": [],
      "stateMutability": "nonpayable",
      "type": "function"
    }
  ],
  "transactionHash": "0x507987d5307809851a722d09229271b8c9f0ae73e10267ab3bcfd48606a26f34",
  "args": [],
  "numDeployments": 1,
  "solcInputHash": "3c4a4867d03c114eb5175ff04b48a99d",
  "bytecode": "0x60806040523480156200001157600080fd5b50604080518082018252601b81527f43686172676564205061727469636c6573202d204c6570746f6e320000000000602080830191909152825180840190935260078352662622a82a27a71960c91b9083015290620000776301ffc9a760e01b62000148565b81516200008c906005906020850190620001d1565b508051620000a2906006906020840190620001d1565b50620000b56380ac58cd60e01b62000148565b620000c7635b5e139f60e01b62000148565b5060009050620000d6620001cd565b600880546001600160a01b0319166001600160a01b038316908117909155604051919250906000907f8be0079c531659141344cd1fd0a4f28419497f9722a3daafe3b4186f6b6457e0908290a35060016009819055600f805460ff191690911761ff00191690556000600e556200026d565b6001600160e01b03198082161415620001a8576040805162461bcd60e51b815260206004820152601c60248201527f4552433136353a20696e76616c696420696e7465726661636520696400000000604482015290519081900360640190fd5b6001600160e01b0319166000908152602081905260409020805460ff19166001179055565b3390565b828054600181600116156101000203166002900490600052602060002090601f016020900481019282601f106200021457805160ff191683800117855562000244565b8280016001018555821562000244579182015b828111156200024457825182559160200191906001019062000227565b506200025292915062000256565b5090565b5b8082111562000252576000815560010162000257565b61357b806200027d6000396000f3fe6080604052600436106101e35760003560e01c8063681ce98a11610102578063b88d4fde11610095578063db9f60ff11610064578063db9f60ff146108be578063e6089023146108ea578063e985e9c5146108ff578063f2fde38b1461093a576101e3565b8063b88d4fde14610711578063c87b56dd146107e4578063d5abeb011461080e578063da47bb2614610823576101e3565b806395d89b41116100d157806395d89b41146105f5578063a22cb4651461060a578063adf8252d14610645578063b0fde8cf1461066f576101e3565b8063681ce98a1461058357806370a0823114610598578063715018a6146105cb5780638da5cb5b146105e0576101e3565b806323b872dd1161017a578063522f681511610149578063522f6815146104ee5780635fc194ed14610527578063616cdb1e1461052f5780636352211e14610559576101e3565b806323b872dd146103fb5780634025feb21461043e57806342842e0e146104815780634aa66b28146104c4576101e3565b8063095ea7b3116101b6578063095ea7b31461033b5780630afd902b146103745780631593dee11461039157806318160ddd146103d4576101e3565b806301ffc9a7146101e85780630512487a1461023057806306fdde031461026b578063081812fc146102f5575b600080fd5b3480156101f457600080fd5b5061021c6004803603602081101561020b57600080fd5b50356001600160e01b03191661096d565b604080519115158252519081900360200190f35b34801561023c57600080fd5b506102696004803603604081101561025357600080fd5b506001600160a01b038135169060200135610990565b005b34801561027757600080fd5b50610280610bea565b6040805160208082528351818301528351919283929083019185019080838360005b838110156102ba5781810151838201526020016102a2565b50505050905090810190601f1680156102e75780820380516001836020036101000a031916815260200191505b509250505060405180910390f35b34801561030157600080fd5b5061031f6004803603602081101561031857600080fd5b5035610c81565b604080516001600160a01b039092168252519081900360200190f35b34801561034757600080fd5b506102696004803603604081101561035e57600080fd5b506001600160a01b038135169060200135610ce8565b6102696004803603602081101561038a57600080fd5b5035610dc8565b34801561039d57600080fd5b50610269600480360360608110156103b457600080fd5b506001600160a01b03813581169160208101359091169060400135610e7b565b3480156103e057600080fd5b506103e9610ede565b60408051918252519081900360200190f35b34801561040757600080fd5b506102696004803603606081101561041e57600080fd5b506001600160a01b03813581169160208101359091169060400135610ee4565b34801561044a57600080fd5b506102696004803603606081101561046157600080fd5b506001600160a01b03813581169160208101359091169060400135610f40565b34801561048d57600080fd5b50610269600480360360608110156104a457600080fd5b506001600160a01b03813581169160208101359091169060400135610fa3565b3480156104d057600080fd5b506103e9600480360360208110156104e757600080fd5b5035610fbe565b3480156104fa57600080fd5b506102696004803603604081101561051157600080fd5b506001600160a01b03813516906020013561101f565b6103e9611085565b34801561053b57600080fd5b506102696004803603602081101561055257600080fd5b503561113b565b34801561056557600080fd5b5061031f6004803603602081101561057c57600080fd5b50356111ce565b34801561058f57600080fd5b506103e96111e9565b3480156105a457600080fd5b506103e9600480360360208110156105bb57600080fd5b50356001600160a01b0316611225565b3480156105d757600080fd5b5061026961128d565b3480156105ec57600080fd5b5061031f61132f565b34801561060157600080fd5b5061028061133e565b34801561061657600080fd5b506102696004803603604081101561062d57600080fd5b506001600160a01b038135169060200135151561139f565b34801561065157600080fd5b506103e96004803603602081101561066857600080fd5b5035611493565b34801561067b57600080fd5b50610269600480360360c081101561069257600080fd5b813591908101906040810160208201356401000000008111156106b457600080fd5b8201836020820111156106c657600080fd5b803590602001918460018302840111640100000000831117156106e857600080fd5b919350915080359063ffffffff60208201358116916040810135821691606090910135166114f4565b34801561071d57600080fd5b506102696004803603608081101561073457600080fd5b6001600160a01b0382358116926020810135909116916040820135919081019060808101606082013564010000000081111561076f57600080fd5b82018360208201111561078157600080fd5b803590602001918460018302840111640100000000831117156107a357600080fd5b91908080601f0160208091040260200160405190810160405280939291908181526020018383808284376000920191909152509295506116fd945050505050565b3480156107f057600080fd5b506102806004803603602081101561080757600080fd5b5035611760565b34801561081a57600080fd5b506103e96117b8565b34801561082f57600080fd5b50610269600480360360a081101561084657600080fd5b81019060208101813564010000000081111561086157600080fd5b82018360208201111561087357600080fd5b8035906020019184600183028401116401000000008311171561089557600080fd5b919350915080359063ffffffff60208201358116916040810135821691606090910135166117be565b3480156108ca57600080fd5b50610269600480360360208110156108e157600080fd5b50351515611a3e565b3480156108f657600080fd5b506103e9611add565b34801561090b57600080fd5b5061021c6004803603604081101561092257600080fd5b506001600160a01b0381358116916020013516611afa565b34801561094657600080fd5b506102696004803603602081101561095d57600080fd5b50356001600160a01b0316611b2a565b6001600160e01b0319811660009081526020819052604090205460ff165b919050565b610998611c23565b6008546001600160a01b039081169116146109e8576040805162461bcd60e51b815260206004820181905260248201526000805160206134fc833981519152604482015290519081900360640190fd5b600f54610100900460ff1615610a31576040805162461bcd60e51b81526020600482015260096024820152681314150e914b4c0c0d60ba1b604482015290519081900360640190fd5b6000826001600160a01b03166318160ddd6040518163ffffffff1660e01b815260040160206040518083038186803b158015610a6c57600080fd5b505afa158015610a80573d6000803e3d6000fd5b505050506040513d6020811015610a9657600080fd5b50519050801580610aa85750600e5481115b610ae5576040805162461bcd60e51b81526020600482015260096024820152681314150e914b4c0c0d60ba1b604482015290519081900360640190fd5b8015610bd357600e54600090610afb9084611c27565b905081811115610b1c57610b19610b128284611c88565b8490611c88565b92505b60015b838111610bc057600e54600090610b369083611c27565b90506000866001600160a01b0316636352211e836040518263ffffffff1660e01b81526004018082815260200191505060206040518083038186803b158015610b7e57600080fd5b505afa158015610b92573d6000803e3d6000fd5b505050506040513d6020811015610ba857600080fd5b50519050610bb581611cca565b505050600101610b1f565b50600e54610bce9084611c27565b600e55505b600e54811415610be557610be5611e01565b505050565b60058054604080516020601f6002600019610100600188161502019095169490940493840181900481028201810190925282815260609390929091830182828015610c765780601f10610c4b57610100808354040283529160200191610c76565b820191906000526020600020905b815481529060010190602001808311610c5957829003601f168201915b505050505090505b90565b6000610c8c82611f5e565b610ccc576040805162461bcd60e51b815260206004820152600c60248201526b4552433732313a452d34303560a01b604482015290519081900360640190fd5b506000908152600360205260409020546001600160a01b031690565b6000610cf3826111ce565b9050806001600160a01b0316836001600160a01b03161415610d4b576040805162461bcd60e51b815260206004820152600c60248201526b4552433732313a452d31313160a01b604482015290519081900360640190fd5b806001600160a01b0316610d5d611c23565b6001600160a01b03161480610d7e5750610d7e81610d79611c23565b611afa565b610dbe576040805162461bcd60e51b815260206004820152600c60248201526b4552433732313a452d31303560a01b604482015290519081900360640190fd5b610be58383611f7b565b60026009541415610e20576040805162461bcd60e51b815260206004820152601f60248201527f5265656e7472616e637947756172643a207265656e7472616e742063616c6c00604482015290519081900360640190fd5b6002600955600f5460ff1615610e69576040805162461bcd60e51b81526020600482015260096024820152684c50543a452d31303160b81b604482015290519081900360640190fd5b610e733382611fe9565b506001600955565b610e83611c23565b6008546001600160a01b03908116911614610ed3576040805162461bcd60e51b815260206004820181905260248201526000805160206134fc833981519152604482015290519081900360640190fd5b610be5838383612287565b60075490565b610ef5610eef611c23565b826123b1565b610f35576040805162461bcd60e51b815260206004820152600c60248201526b4552433732313a452d31303560a01b604482015290519081900360640190fd5b610be583838361245a565b610f48611c23565b6008546001600160a01b03908116911614610f98576040805162461bcd60e51b815260206004820181905260248201526000805160206134fc833981519152604482015290519081900360640190fd5b610be58383836125d0565b610be5838383604051806020016040528060008152506116fd565b6000610fc982611f5e565b611006576040805162461bcd60e51b81526020600482015260096024820152684c50543a452d34303560b81b604482015290519081900360640190fd5b61100f82612756565b60a0015163ffffffff1692915050565b611027611c23565b6008546001600160a01b03908116911614611077576040805162461bcd60e51b815260206004820181905260248201526000805160206134fc833981519152604482015290519081900360640190fd5b61108182826128ac565b5050565b6000600260095414156110df576040805162461bcd60e51b815260206004820152601f60248201527f5265656e7472616e637947756172643a207265656e7472616e742063616c6c00604482015290519081900360640190fd5b6002600955600f5460ff1615611128576040805162461bcd60e51b81526020600482015260096024820152684c50543a452d31303160b81b604482015290519081900360640190fd5b6111313361294f565b6001600955919050565b611143611c23565b6008546001600160a01b03908116911614611193576040805162461bcd60e51b815260206004820181905260248201526000805160206134fc833981519152604482015290519081900360640190fd5b600d8190556040805182815290517f409ba051a4c57ed282ca3d937444126381926068149b2ceb9dcff792655a9b039181900360200190a150565b6000908152600160205260409020546001600160a01b031690565b600a54600b54600091116111ff57506000610c7e565b600a600b548154811061120e57fe5b906000526020600020906003020160010154905090565b60006001600160a01b038216611271576040805162461bcd60e51b815260206004820152600c60248201526b4552433732313a452d34303360a01b604482015290519081900360640190fd5b506001600160a01b031660009081526002602052604090205490565b611295611c23565b6008546001600160a01b039081169116146112e5576040805162461bcd60e51b815260206004820181905260248201526000805160206134fc833981519152604482015290519081900360640190fd5b6008546040516000916001600160a01b0316907f8be0079c531659141344cd1fd0a4f28419497f9722a3daafe3b4186f6b6457e0908390a3600880546001600160a01b0319169055565b6008546001600160a01b031690565b60068054604080516020601f6002600019610100600188161502019095169490940493840181900481028201810190925282815260609390929091830182828015610c765780601f10610c4b57610100808354040283529160200191610c76565b6113a7611c23565b6001600160a01b0316826001600160a01b031614156113fc576040805162461bcd60e51b815260206004820152600c60248201526b4552433732313a452d31313160a01b604482015290519081900360640190fd5b8060046000611409611c23565b6001600160a01b03908116825260208083019390935260409182016000908120918716808252919093529120805460ff19169215159290921790915561144d611c23565b6001600160a01b03167f17307eab39ab6107e8899845ad3d59bd9653f200f220920489ca2b5937696c318360405180821515815260200191505060405180910390a35050565b600061149e82611f5e565b6114db576040805162461bcd60e51b81526020600482015260096024820152684c50543a452d34303560b81b604482015290519081900360640190fd5b6114e482612756565b6080015163ffffffff1692915050565b6114fc611c23565b6008546001600160a01b0390811691161461154c576040805162461bcd60e51b815260206004820181905260248201526000805160206134fc833981519152604482015290519081900360640190fd5b8585600a898154811061155b57fe5b600091825260209091206115759360039092020191613344565b5083600a888154811061158457fe5b90600052602060002090600302016001018190555082600a88815481106115a757fe5b906000526020600020906003020160020160106101000a81548163ffffffff021916908363ffffffff16021790555081600a88815481106115e457fe5b906000526020600020906003020160020160146101000a81548163ffffffff021916908363ffffffff16021790555080600a888154811061162157fe5b906000526020600020906003020160020160186101000a81548163ffffffff021916908363ffffffff1602179055507fc29eb52b178d59612a9ec3dbfed2e3054ea12f735bff5d06a799a4b06cd47c5287878787878787600c5460405180898152602001806020018781526020018663ffffffff1681526020018563ffffffff1681526020018463ffffffff1681526020018381526020018281038252898982818152602001925080828437600083820152604051601f909101601f19169092018290039b50909950505050505050505050a150505050505050565b61170e611708611c23565b836123b1565b61174e576040805162461bcd60e51b815260206004820152600c60248201526b4552433732313a452d31303560a01b604482015290519081900360640190fd5b61175a84848484612b46565b50505050565b606061176b82611f5e565b6117a8576040805162461bcd60e51b81526020600482015260096024820152684c50543a452d34303560b81b604482015290519081900360640190fd5b6117b182612756565b5192915050565b600c5490565b6117c6611c23565b6008546001600160a01b03908116911614611816576040805162461bcd60e51b815260206004820181905260248201526000805160206134fc833981519152604482015290519081900360640190fd5b600c5461182c9063ffffffff80861690611c2716565b600c556118376133c2565b6040518060c0016040528088888080601f01602080910402602001604051908101604052809392919081815260200183838082843760009201829052509385525050506020808301899052600c546001600160801b0316604084015263ffffffff80891660608501528781166080850152861660a090930192909252600a8054600181018255915282518051939450849360039092027fc65a7bb8d6351c1cf70c95a316cc6a92839c986682d98bc35f958f4883f9d2a801926118ff928492909101906133f7565b5060208281015160018301556040808401516002909301805460608087015160808089015160a0998a01516fffffffffffffffffffffffffffffffff199095166001600160801b039099169890981763ffffffff60801b1916600160801b63ffffffff938416021763ffffffff60a01b1916600160a01b988316989098029790971763ffffffff60c01b1916600160c01b9382169390930292909217909255600c5483519485018c90528a8216938501939093528881169184019190915286169282019290925291820181905260c080835282018890527f03a96a3a809ae0740a794cb4d254030e999b01bb9985f4b0b5f5e524dc8e0667918991899189918991899189918060e08101898980828437600083820152604051601f909101601f19169092018290039a509098505050505050505050a150505050505050565b611a46611c23565b6008546001600160a01b03908116911614611a96576040805162461bcd60e51b815260206004820181905260248201526000805160206134fc833981519152604482015290519081900360640190fd5b600f805482151560ff19909116811790915560408051918252517fa9bfed3d98385b3777389e321dbde773cf7d335fa604fefbae3dca93564f55869181900360200190a150565b600a54600b5460009111611af357506000610c7e565b50600b5490565b6001600160a01b0380831660009081526004602090815260408083209385168352929052205460ff165b92915050565b611b32611c23565b6008546001600160a01b03908116911614611b82576040805162461bcd60e51b815260206004820181905260248201526000805160206134fc833981519152604482015290519081900360640190fd5b6001600160a01b038116611bc75760405162461bcd60e51b815260040180806020018281038252602681526020018061347b6026913960400191505060405180910390fd5b6008546040516001600160a01b038084169216907f8be0079c531659141344cd1fd0a4f28419497f9722a3daafe3b4186f6b6457e090600090a3600880546001600160a01b0319166001600160a01b0392909216919091179055565b3390565b600082820183811015611c81576040805162461bcd60e51b815260206004820152601b60248201527f536166654d6174683a206164646974696f6e206f766572666c6f770000000000604482015290519081900360640190fd5b9392505050565b6000611c8183836040518060400160405280601e81526020017f536166654d6174683a207375627472616374696f6e206f766572666c6f770000815250612b9d565b60006001600160a01b038216611d16576040805162461bcd60e51b815260206004820152600c60248201526b4552433732313a452d34303360a01b604482015290519081900360640190fd5b600754611d24906001611c27565b6007819055611d3281611f5e565b15611d73576040805162461bcd60e51b815260206004820152600c60248201526b4552433732313a452d34303760a01b604482015290519081900360640190fd5b600081815260016020818152604080842080546001600160a01b0319166001600160a01b0389169081179091558452600290915290912054611db491611c27565b6001600160a01b0384166000818152600260205260408082209390935591518392907fddf252ad1be2c89b69c2b068fc378daa952ba7f163c4a11628f55a4df523b3ef908290a492915050565b6000600b8190555b600a54811015611f4c57611e1b6133c2565b600a8281548110611e2857fe5b600091825260209182902060408051600393909302909101805460026001821615610100026000190190911604601f8101859004909402830160e090810190925260c0830184815292939092849290918491840182828015611ecb5780601f10611ea057610100808354040283529160200191611ecb565b820191906000526020600020905b815481529060010190602001808311611eae57829003601f168201915b5050509183525050600182015460208201526002909101546001600160801b0380821660408085019190915263ffffffff600160801b840481166060860152600160a01b840481166080860152600160c01b90930490921660a090930192909252820151600e549293501611611f435760018201600b555b50600101611e09565b50600f805461ff001916610100179055565b6000908152600160205260409020546001600160a01b0316151590565b600081815260036020526040902080546001600160a01b0319166001600160a01b0384169081179091558190611fb0826111ce565b6001600160a01b03167f8c5be1e5ebec7d5bd14f71427d1e84f3dd0314c0f7b2291e5b200ac8c7c3b92560405160405180910390a45050565b600a54600b541061202d576040805162461bcd60e51b8152602060048201526009602482015268098a0a8748a5a6860760bb1b604482015290519081900360640190fd5b600d54158061203e5750600d548111155b61207b576040805162461bcd60e51b81526020600482015260096024820152684c50543a452d34323960b81b604482015290519081900360640190fd5b6120836133c2565b600a600b548154811061209257fe5b600091825260209182902060408051600393909302909101805460026001821615610100026000190190911604601f8101859004909402830160e090810190925260c08301848152929390928492909184918401828280156121355780601f1061210a57610100808354040283529160200191612135565b820191906000526020600020905b81548152906001019060200180831161211857829003601f168201915b5050509183525050600182015460208201526002909101546001600160801b038116604083015263ffffffff600160801b820481166060840152600160a01b820481166080840152600160c01b909104811660a0909201919091526007549192506000916121a5918590611c2716565b905081604001516001600160801b03168111156121e2576121df610b1283604001516001600160801b031683611c8890919063ffffffff16565b92505b60208201516000906121f49085612c34565b905080341015612237576040805162461bcd60e51b81526020600482015260096024820152681314150e914b4d0c4d60ba1b604482015290519081900360640190fd5b612251858560405180602001604052806000815250612c8d565b82604001516001600160801b0316821061227757600b54612273906001611c27565b600b555b61228081612ca8565b5050505050565b6001600160a01b0383166122ce576040805162461bcd60e51b81526020600482015260096024820152684248503a452d34303360b81b604482015290519081900360640190fd5b80826001600160a01b03166370a08231306040518263ffffffff1660e01b815260040180826001600160a01b0316815260200191505060206040518083038186803b15801561231c57600080fd5b505afa158015612330573d6000803e3d6000fd5b505050506040513d602081101561234657600080fd5b505110610be5576123616001600160a01b0383168483612cd7565b816001600160a01b0316836001600160a01b03167f6c9d637297625e945b296ff73a71fcfbd0a9e062652b6491a921c4c60194176b836040518082815260200191505060405180910390a3505050565b60006123bc82611f5e565b6123fc576040805162461bcd60e51b815260206004820152600c60248201526b4552433732313a452d34303560a01b604482015290519081900360640190fd5b6000612407836111ce565b9050806001600160a01b0316846001600160a01b031614806124425750836001600160a01b031661243784610c81565b6001600160a01b0316145b8061245257506124528185611afa565b949350505050565b826001600160a01b031661246d826111ce565b6001600160a01b0316146124b7576040805162461bcd60e51b815260206004820152600c60248201526b22a9219b99189d229698981960a11b604482015290519081900360640190fd5b6001600160a01b038216612501576040805162461bcd60e51b815260206004820152600c60248201526b4552433732313a452d34303360a01b604482015290519081900360640190fd5b61250c600082611f7b565b600081815260016020818152604080842080546001600160a01b0319166001600160a01b03888116919091179091558716845260029091529091205461255191611c88565b6001600160a01b038085166000908152600260205260408082209390935590841681522054612581906001611c27565b6001600160a01b03808416600081815260026020526040808220949094559251849391928716917fddf252ad1be2c89b69c2b068fc378daa952ba7f163c4a11628f55a4df523b3ef91a4505050565b6001600160a01b038316612617576040805162461bcd60e51b81526020600482015260096024820152684248503a452d34303360b81b604482015290519081900360640190fd5b306001600160a01b0316826001600160a01b0316636352211e836040518263ffffffff1660e01b81526004018082815260200191505060206040518083038186803b15801561266557600080fd5b505afa158015612679573d6000803e3d6000fd5b505050506040513d602081101561268f57600080fd5b50516001600160a01b03161415610be557604080516323b872dd60e01b81523060048201526001600160a01b038581166024830152604482018490529151918416916323b872dd9160648082019260009290919082900301818387803b1580156126f857600080fd5b505af115801561270c573d6000803e3d6000fd5b5050505080826001600160a01b0316846001600160a01b03167ffefe036cac4ee3a4aca074a81cbcc4376e1484693289078dbec149c890101d5b60405160405180910390a4505050565b61275e6133c2565b600a5460005b818110156128a5576127746133c2565b600a828154811061278157fe5b600091825260209182902060408051600393909302909101805460026001821615610100026000190190911604601f8101859004909402830160e090810190925260c08301848152929390928492909184918401828280156128245780601f106127f957610100808354040283529160200191612824565b820191906000526020600020905b81548152906001019060200180831161280757829003601f168201915b5050509183525050600182015460208201526002909101546001600160801b0380821660408085019190915263ffffffff600160801b840481166060860152600160a01b840481166080860152600160c01b90930490921660a09093019290925282015191925016851161289c57925061098b915050565b50600101612764565b5050919050565b6001600160a01b0382166128f3576040805162461bcd60e51b81526020600482015260096024820152684248503a452d34303360b81b604482015290519081900360640190fd5b8047106110815761290d6001600160a01b03831682612d29565b6040805182815290516001600160a01b038416917eddb683bb45cd5d0ad8a200c6fae7152b1c236ee90a4a37db692407f5cc38bd919081900360200190a25050565b600a54600b5460009111612996576040805162461bcd60e51b8152602060048201526009602482015268098a0a8748a5a6860760bb1b604482015290519081900360640190fd5b61299e6133c2565b600a600b54815481106129ad57fe5b600091825260209182902060408051600393909302909101805460026001821615610100026000190190911604601f8101859004909402830160e090810190925260c0830184815292939092849290918491840182828015612a505780601f10612a2557610100808354040283529160200191612a50565b820191906000526020600020905b815481529060010190602001808311612a3357829003601f168201915b505050918352505060018201546020808301919091526002909201546001600160801b038116604083015263ffffffff600160801b820481166060840152600160a01b820481166080840152600160c01b9091041660a090910152810151909150341015612af1576040805162461bcd60e51b81526020600482015260096024820152681314150e914b4d0c4d60ba1b604482015290519081900360640190fd5b612b0a8360405180602001604052806000815250612e0e565b915080604001516001600160801b0316821415612b3357600b54612b2f906001611c27565b600b555b612b408160200151612ca8565b50919050565b612b5184848461245a565b612b5d84848484612e69565b61175a576040805162461bcd60e51b815260206004820152600c60248201526b22a9219b99189d22969a181960a11b604482015290519081900360640190fd5b60008184841115612c2c5760405162461bcd60e51b81526004018080602001828103825283818151815260200191508051906020019080838360005b83811015612bf1578181015183820152602001612bd9565b50505050905090810190601f168015612c1e5780820380516001836020036101000a031916815260200191505b509250505060405180910390fd5b505050900390565b600082612c4357506000611b24565b82820282848281612c5057fe5b0414611c815760405162461bcd60e51b81526004018080602001828103825260218152602001806134db6021913960400191505060405180910390fd5b6000612c998484612fe5565b9050612b5d6000858385612e69565b6000612cb43483611c88565b905080156110815761108181612cc8611c23565b6001600160a01b031690612d29565b604080516001600160a01b038416602482015260448082018490528251808303909101815260649091019091526020810180516001600160e01b031663a9059cbb60e01b179052610be5908490613116565b80471015612d7e576040805162461bcd60e51b815260206004820152601d60248201527f416464726573733a20696e73756666696369656e742062616c616e6365000000604482015290519081900360640190fd5b6040516000906001600160a01b0384169083908381818185875af1925050503d8060008114612dc9576040519150601f19603f3d011682016040523d82523d6000602084013e612dce565b606091505b5050905080610be55760405162461bcd60e51b815260040180806020018281038252603a8152602001806134a1603a913960400191505060405180910390fd5b600080612e1a84611cca565b9050612e296000858386612e69565b611c81576040805162461bcd60e51b815260206004820152600c60248201526b22a9219b99189d22969a181960a11b604482015290519081900360640190fd5b6000612e7d846001600160a01b03166131c7565b612e8957506001612452565b6060612fab630a85bd0160e11b612e9e611c23565b88878760405160240180856001600160a01b03168152602001846001600160a01b0316815260200183815260200180602001828103825283818151815260200191508051906020019080838360005b83811015612f05578181015183820152602001612eed565b50505050905090810190601f168015612f325780820380516001836020036101000a031916815260200191505b5095505050505050604051602081830303815290604052906001600160e01b0319166020820180516001600160e01b0383818316178352505050506040518060400160405280600c81526020016b22a9219b99189d22969a181960a11b815250876001600160a01b03166131cd9092919063ffffffff16565b90506000818060200190516020811015612fc457600080fd5b50516001600160e01b031916630a85bd0160e11b1492505050949350505050565b60006001600160a01b038316613031576040805162461bcd60e51b815260206004820152600c60248201526b4552433732313a452d34303360a01b604482015290519081900360640190fd5b600754600090613042906001611c27565b905060015b8381116130c15760075460009061305e9083611c27565b60008181526001602052604080822080546001600160a01b0319166001600160a01b038b16908117909155905192935083929091907fddf252ad1be2c89b69c2b068fc378daa952ba7f163c4a11628f55a4df523b3ef908290a450600101613047565b506007546130cf9084611c27565b6007556001600160a01b0384166000908152600260205260409020546130f59084611c27565b6001600160a01b038516600090815260026020526040902055905092915050565b606061316b826040518060400160405280602081526020017f5361666545524332303a206c6f772d6c6576656c2063616c6c206661696c6564815250856001600160a01b03166131cd9092919063ffffffff16565b805190915015610be55780806020019051602081101561318a57600080fd5b5051610be55760405162461bcd60e51b815260040180806020018281038252602a81526020018061351c602a913960400191505060405180910390fd5b3b151590565b6060612452848460008560606131e2856131c7565b613233576040805162461bcd60e51b815260206004820152601d60248201527f416464726573733a2063616c6c20746f206e6f6e2d636f6e7472616374000000604482015290519081900360640190fd5b60006060866001600160a01b031685876040518082805190602001908083835b602083106132725780518252601f199092019160209182019101613253565b6001836020036101000a03801982511681845116808217855250505050505090500191505060006040518083038185875af1925050503d80600081146132d4576040519150601f19603f3d011682016040523d82523d6000602084013e6132d9565b606091505b509150915081156132ed5791506124529050565b8051156132fd5780518082602001fd5b60405162461bcd60e51b8152602060048201818152865160248401528651879391928392604401919085019080838360008315612bf1578181015183820152602001612bd9565b828054600181600116156101000203166002900490600052602060002090601f016020900481019282601f106133855782800160ff198235161785556133b2565b828001600101855582156133b2579182015b828111156133b2578235825591602001919060010190613397565b506133be929150613465565b5090565b6040805160c081018252606080825260006020830181905292820183905281018290526080810182905260a081019190915290565b828054600181600116156101000203166002900490600052602060002090601f016020900481019282601f1061343857805160ff19168380011785556133b2565b828001600101855582156133b2579182015b828111156133b257825182559160200191906001019061344a565b5b808211156133be576000815560010161346656fe4f776e61626c653a206e6577206f776e657220697320746865207a65726f2061646472657373416464726573733a20756e61626c6520746f2073656e642076616c75652c20726563697069656e74206d61792068617665207265766572746564536166654d6174683a206d756c7469706c69636174696f6e206f766572666c6f774f776e61626c653a2063616c6c6572206973206e6f7420746865206f776e65725361666545524332303a204552433230206f7065726174696f6e20646964206e6f742073756363656564a2646970667358221220d7e45e90b00ada93bf14e609b381114d3130c10d66c4fda21c728f1176b4ffd264736f6c634300060c0033",
  "devdoc": {
    "kind": "dev",
    "methods": {
      "approve(address,uint256)": {
        "details": "See {IERC721-approve}."
      },
      "balanceOf(address)": {
        "details": "See {IERC721-balanceOf}."
      },
      "getApproved(uint256)": {
        "details": "See {IERC721-getApproved}."
      },
      "isApprovedForAll(address,address)": {
        "details": "See {IERC721-isApprovedForAll}."
      },
      "name()": {
        "details": "See {IERC721Metadata-name}."
      },
      "owner()": {
        "details": "Returns the address of the current owner."
      },
      "ownerOf(uint256)": {
        "details": "See {IERC721-ownerOf}."
      },
      "renounceOwnership()": {
        "details": "Leaves the contract without owner. It will not be possible to call `onlyOwner` functions anymore. Can only be called by the current owner. NOTE: Renouncing ownership will leave the contract without an owner, thereby removing any functionality that is only available to the owner."
      },
      "safeTransferFrom(address,address,uint256)": {
        "details": "See {IERC721-safeTransferFrom}."
      },
      "safeTransferFrom(address,address,uint256,bytes)": {
        "details": "See {IERC721-safeTransferFrom}."
      },
      "setApprovalForAll(address,bool)": {
        "details": "See {IERC721-setApprovalForAll}."
      },
      "supportsInterface(bytes4)": {
        "details": "See {IERC165-supportsInterface}. Time complexity O(1), guaranteed to always use less than 30 000 gas."
      },
      "symbol()": {
        "details": "See {IERC721Metadata-symbol}."
      },
      "transferFrom(address,address,uint256)": {
        "details": "See {IERC721-transferFrom}."
      },
      "transferOwnership(address)": {
        "details": "Transfers ownership of the contract to a new account (`newOwner`). Can only be called by the current owner."
      }
    },
    "version": 1
  },
  "userdoc": {
    "kind": "user",
    "methods": {},
    "version": 1
  },
  "storageLayout": {
    "storage": [
      {
        "astId": 4592,
        "contract": "contracts/v1/tokens/Lepton2.sol:Lepton2",
        "label": "_supportedInterfaces",
        "offset": 0,
        "slot": "0",
        "type": "t_mapping(t_bytes4,t_bool)"
      },
      {
        "astId": 32156,
        "contract": "contracts/v1/tokens/Lepton2.sol:Lepton2",
        "label": "_tokenOwners",
        "offset": 0,
        "slot": "1",
        "type": "t_mapping(t_uint256,t_address)"
      },
      {
        "astId": 32160,
        "contract": "contracts/v1/tokens/Lepton2.sol:Lepton2",
        "label": "_ownerBalance",
        "offset": 0,
        "slot": "2",
        "type": "t_mapping(t_address,t_uint256)"
      },
      {
        "astId": 32164,
        "contract": "contracts/v1/tokens/Lepton2.sol:Lepton2",
        "label": "_tokenApprovals",
        "offset": 0,
        "slot": "3",
        "type": "t_mapping(t_uint256,t_address)"
      },
      {
        "astId": 32170,
        "contract": "contracts/v1/tokens/Lepton2.sol:Lepton2",
        "label": "_operatorApprovals",
        "offset": 0,
        "slot": "4",
        "type": "t_mapping(t_address,t_mapping(t_address,t_bool))"
      },
      {
        "astId": 32172,
        "contract": "contracts/v1/tokens/Lepton2.sol:Lepton2",
        "label": "_name",
        "offset": 0,
        "slot": "5",
        "type": "t_string_storage"
      },
      {
        "astId": 32174,
        "contract": "contracts/v1/tokens/Lepton2.sol:Lepton2",
        "label": "_symbol",
        "offset": 0,
        "slot": "6",
        "type": "t_string_storage"
      },
      {
        "astId": 32176,
        "contract": "contracts/v1/tokens/Lepton2.sol:Lepton2",
        "label": "_tokenCount",
        "offset": 0,
        "slot": "7",
        "type": "t_uint256"
      },
      {
        "astId": 4406,
        "contract": "contracts/v1/tokens/Lepton2.sol:Lepton2",
        "label": "_owner",
        "offset": 0,
        "slot": "8",
        "type": "t_address"
      },
      {
        "astId": 9097,
        "contract": "contracts/v1/tokens/Lepton2.sol:Lepton2",
        "label": "_status",
        "offset": 0,
        "slot": "9",
        "type": "t_uint256"
      },
      {
        "astId": 36360,
        "contract": "contracts/v1/tokens/Lepton2.sol:Lepton2",
        "label": "_leptonTypes",
        "offset": 0,
        "slot": "10",
        "type": "t_array(t_struct(Classification)27847_storage)dyn_storage"
      },
      {
        "astId": 36362,
        "contract": "contracts/v1/tokens/Lepton2.sol:Lepton2",
        "label": "_typeIndex",
        "offset": 0,
        "slot": "11",
        "type": "t_uint256"
      },
      {
        "astId": 36364,
        "contract": "contracts/v1/tokens/Lepton2.sol:Lepton2",
        "label": "_maxSupply",
        "offset": 0,
        "slot": "12",
        "type": "t_uint256"
      },
      {
        "astId": 36366,
        "contract": "contracts/v1/tokens/Lepton2.sol:Lepton2",
        "label": "_maxMintPerTx",
        "offset": 0,
        "slot": "13",
        "type": "t_uint256"
      },
      {
        "astId": 36368,
        "contract": "contracts/v1/tokens/Lepton2.sol:Lepton2",
        "label": "_migratedCount",
        "offset": 0,
        "slot": "14",
        "type": "t_uint256"
      },
      {
        "astId": 36370,
        "contract": "contracts/v1/tokens/Lepton2.sol:Lepton2",
        "label": "_paused",
        "offset": 0,
        "slot": "15",
        "type": "t_bool"
      },
      {
        "astId": 36372,
        "contract": "contracts/v1/tokens/Lepton2.sol:Lepton2",
        "label": "_migrationComplete",
        "offset": 1,
        "slot": "15",
        "type": "t_bool"
      }
    ],
    "types": {
      "t_address": {
        "encoding": "inplace",
        "label": "address",
        "numberOfBytes": "20"
      },
      "t_array(t_struct(Classification)27847_storage)dyn_storage": {
        "base": "t_struct(Classification)27847_storage",
        "encoding": "dynamic_array",
        "label": "struct ILepton.Classification[]",
        "numberOfBytes": "32"
      },
      "t_bool": {
        "encoding": "inplace",
        "label": "bool",
        "numberOfBytes": "1"
      },
      "t_bytes4": {
        "encoding": "inplace",
        "label": "bytes4",
        "numberOfBytes": "4"
      },
      "t_mapping(t_address,t_bool)": {
        "encoding": "mapping",
        "key": "t_address",
        "label": "mapping(address => bool)",
        "numberOfBytes": "32",
        "value": "t_bool"
      },
      "t_mapping(t_address,t_mapping(t_address,t_bool))": {
        "encoding": "mapping",
        "key": "t_address",
        "label": "mapping(address => mapping(address => bool))",
        "numberOfBytes": "32",
        "value": "t_mapping(t_address,t_bool)"
      },
      "t_mapping(t_address,t_uint256)": {
        "encoding": "mapping",
        "key": "t_address",
        "label": "mapping(address => uint256)",
        "numberOfBytes": "32",
        "value": "t_uint256"
      },
      "t_mapping(t_bytes4,t_bool)": {
        "encoding": "mapping",
        "key": "t_bytes4",
        "label": "mapping(bytes4 => bool)",
        "numberOfBytes": "32",
        "value": "t_bool"
      },
      "t_mapping(t_uint256,t_address)": {
        "encoding": "mapping",
        "key": "t_uint256",
        "label": "mapping(uint256 => address)",
        "numberOfBytes": "32",
        "value": "t_address"
      },
      "t_string_storage": {
        "encoding": "bytes",
        "label": "string",
        "numberOfBytes": "32"
      },
      "t_struct(Classification)27847_storage": {
        "encoding": "inplace",
        "label": "struct ILepton.Classification",
        "members": [
          {
            "astId": 27836,
            "contract": "contracts/v1/tokens/Lepton2.sol:Lepton2",
            "label": "tokenUri",
            "offset": 0,
            "slot": "0",
            "type": "t_string_storage"
          },
          {
            "astId": 27838,
            "contract": "contracts/v1/tokens/Lepton2.sol:Lepton2",
            "label": "price",
            "offset": 0,
            "slot": "1",
            "type": "t_uint256"
          },
          {
            "astId": 27840,
            "contract": "contracts/v1/tokens/Lepton2.sol:Lepton2",
            "label": "_upperBounds",
            "offset": 0,
            "slot": "2",
            "type": "t_uint128"
          },
          {
            "astId": 27842,
            "contract": "contracts/v1/tokens/Lepton2.sol:Lepton2",
            "label": "supply",
            "offset": 16,
            "slot": "2",
            "type": "t_uint32"
          },
          {
            "astId": 27844,
            "contract": "contracts/v1/tokens/Lepton2.sol:Lepton2",
            "label": "multiplier",
            "offset": 20,
            "slot": "2",
            "type": "t_uint32"
          },
          {
            "astId": 27846,
            "contract": "contracts/v1/tokens/Lepton2.sol:Lepton2",
            "label": "bonus",
            "offset": 24,
            "slot": "2",
            "type": "t_uint32"
          }
        ],
        "numberOfBytes": "96"
      },
      "t_uint128": {
        "encoding": "inplace",
        "label": "uint128",
        "numberOfBytes": "16"
      },
      "t_uint256": {
        "encoding": "inplace",
        "label": "uint256",
        "numberOfBytes": "32"
      },
      "t_uint32": {
        "encoding": "inplace",
        "label": "uint32",
        "numberOfBytes": "4"
      }
    }
  }
}