{
  "address": "0x8d7F054a5018921D2D427eE3Be0ae7B33C87f9E4",
  "abi": [
    {
      "inputs": [],
      "stateMutability": "nonpayable",
      "type": "constructor"
    },
    {
      "anonymous": false,
      "inputs": [
        {
          "indexed": true,
          "internalType": "address",
          "name": "previousOwner",
          "type": "address"
        },
        {
          "indexed": true,
          "internalType": "address",
          "name": "newOwner",
          "type": "address"
        }
      ],
      "name": "OwnershipTransferred",
      "type": "event"
    },
    {
      "anonymous": false,
      "inputs": [
        {
          "indexed": true,
          "internalType": "address",
          "name": "rewardProgram",
          "type": "address"
        }
      ],
      "name": "RewardProgramCreated",
      "type": "event"
    },
    {
      "anonymous": false,
      "inputs": [
        {
          "indexed": true,
          "internalType": "address",
          "name": "receiver",
          "type": "address"
        },
        {
          "indexed": true,
          "internalType": "address",
          "name": "tokenAddress",
          "type": "address"
        },
        {
          "indexed": true,
          "internalType": "uint256",
          "name": "tokenId",
          "type": "uint256"
        },
        {
          "indexed": false,
          "internalType": "uint256",
          "name": "amount",
          "type": "uint256"
        }
      ],
      "name": "WithdrawStuckERC1155",
      "type": "event"
    },
    {
      "anonymous": false,
      "inputs": [
        {
          "indexed": true,
          "internalType": "address",
          "name": "receiver",
          "type": "address"
        },
        {
          "indexed": true,
          "internalType": "address",
          "name": "tokenAddress",
          "type": "address"
        },
        {
          "indexed": false,
          "internalType": "uint256",
          "name": "amount",
          "type": "uint256"
        }
      ],
      "name": "WithdrawStuckERC20",
      "type": "event"
    },
    {
      "anonymous": false,
      "inputs": [
        {
          "indexed": true,
          "internalType": "address",
          "name": "receiver",
          "type": "address"
        },
        {
          "indexed": true,
          "internalType": "address",
          "name": "tokenAddress",
          "type": "address"
        },
        {
          "indexed": true,
          "internalType": "uint256",
          "name": "tokenId",
          "type": "uint256"
        }
      ],
      "name": "WithdrawStuckERC721",
      "type": "event"
    },
    {
      "anonymous": false,
      "inputs": [
        {
          "indexed": true,
          "internalType": "address",
          "name": "receiver",
          "type": "address"
        },
        {
          "indexed": false,
          "internalType": "uint256",
          "name": "amount",
          "type": "uint256"
        }
      ],
      "name": "WithdrawStuckEther",
      "type": "event"
    },
    {
      "inputs": [
        {
          "internalType": "address",
          "name": "stakingToken",
          "type": "address"
        },
        {
          "internalType": "address",
          "name": "rewardToken",
          "type": "address"
        },
        {
          "internalType": "uint256",
          "name": "baseMultiplier",
          "type": "uint256"
        },
        {
          "internalType": "address",
          "name": "chargedManagers",
          "type": "address"
        },
        {
          "internalType": "address",
          "name": "universe",
          "type": "address"
        }
      ],
      "name": "createRewardProgram",
      "outputs": [
        {
          "internalType": "address",
          "name": "",
          "type": "address"
        }
      ],
      "stateMutability": "nonpayable",
      "type": "function"
    },
    {
      "inputs": [],
      "name": "owner",
      "outputs": [
        {
          "internalType": "address",
          "name": "",
          "type": "address"
        }
      ],
      "stateMutability": "view",
      "type": "function"
    },
    {
      "inputs": [],
      "name": "renounceOwnership",
      "outputs": [],
      "stateMutability": "nonpayable",
      "type": "function"
    },
    {
      "inputs": [
        {
          "internalType": "address",
          "name": "newOwner",
          "type": "address"
        }
      ],
      "name": "transferOwnership",
      "outputs": [],
      "stateMutability": "nonpayable",
      "type": "function"
    },
    {
      "inputs": [
        {
          "internalType": "address payable",
          "name": "receiver",
          "type": "address"
        },
        {
          "internalType": "address",
          "name": "tokenAddress",
          "type": "address"
        },
        {
          "internalType": "uint256",
          "name": "tokenId",
          "type": "uint256"
        },
        {
          "internalType": "uint256",
          "name": "amount",
          "type": "uint256"
        }
      ],
      "name": "withdrawERC1155",
      "outputs": [],
      "stateMutability": "nonpayable",
      "type": "function"
    },
    {
      "inputs": [
        {
          "internalType": "address payable",
          "name": "receiver",
          "type": "address"
        },
        {
          "internalType": "address",
          "name": "tokenAddress",
          "type": "address"
        },
        {
          "internalType": "uint256",
          "name": "tokenId",
          "type": "uint256"
        }
      ],
      "name": "withdrawERC721",
      "outputs": [],
      "stateMutability": "nonpayable",
      "type": "function"
    },
    {
      "inputs": [
        {
          "internalType": "address payable",
          "name": "receiver",
          "type": "address"
        },
        {
          "internalType": "address",
          "name": "tokenAddress",
          "type": "address"
        },
        {
          "internalType": "uint256",
          "name": "amount",
          "type": "uint256"
        }
      ],
      "name": "withdrawErc20",
      "outputs": [],
      "stateMutability": "nonpayable",
      "type": "function"
    },
    {
      "inputs": [
        {
          "internalType": "address payable",
          "name": "receiver",
          "type": "address"
        },
        {
          "internalType": "uint256",
          "name": "amount",
          "type": "uint256"
        }
      ],
      "name": "withdrawEther",
      "outputs": [],
      "stateMutability": "nonpayable",
      "type": "function"
    }
  ],
  "transactionHash": "0xbf9b8cd3a82d7853e5ddabf004db48d2cfeeae189f57ba7f626013925a1e736b",
  "args": [],
  "numDeployments": 1,
  "solcInputHash": "dbd91ed1997e211460bedc81ba3fa34f",
  "bytecode": "0x60806040523480156200001157600080fd5b506000620000246200013460201b60201c565b9050806000806101000a81548173ffffffffffffffffffffffffffffffffffffffff021916908373ffffffffffffffffffffffffffffffffffffffff1602179055508073ffffffffffffffffffffffffffffffffffffffff16600073ffffffffffffffffffffffffffffffffffffffff167f8be0079c531659141344cd1fd0a4f28419497f9722a3daafe3b4186f6b6457e060405160405180910390a350604051620000d0906200013c565b604051809103906000f080158015620000ed573d6000803e3d6000fd5b50600160006101000a81548173ffffffffffffffffffffffffffffffffffffffff021916908373ffffffffffffffffffffffffffffffffffffffff1602179055506200014a565b600033905090565b6145058062001e4183390190565b611ce7806200015a6000396000f3fe608060405234801561001057600080fd5b50600436106100885760003560e01c8063715018a61161005b578063715018a6146101115780638da5cb5b1461011b578063a0edb48b14610139578063f2fde38b1461015557610088565b80631593dee11461008d5780634025feb2146100a9578063522f6815146100c55780636f9d5f78146100e1575b600080fd5b6100a760048036038101906100a2919061140d565b610171565b005b6100c360048036038101906100be919061140d565b610216565b005b6100df60048036038101906100da91906114bf565b6102bb565b005b6100fb60048036038101906100f691906114fb565b61035e565b60405161010891906118ed565b60405180910390f35b6101196104f6565b005b610123610649565b60405161013091906118ed565b60405180910390f35b610153600480360381019061014e919061145c565b610672565b005b61016f600480360381019061016a91906113bb565b610719565b005b6101796108db565b73ffffffffffffffffffffffffffffffffffffffff1660008054906101000a900473ffffffffffffffffffffffffffffffffffffffff1673ffffffffffffffffffffffffffffffffffffffff1614610206576040517f08c379a00000000000000000000000000000000000000000000000000000000081526004016101fd90611ac3565b60405180910390fd5b6102118383836108e3565b505050565b61021e6108db565b73ffffffffffffffffffffffffffffffffffffffff1660008054906101000a900473ffffffffffffffffffffffffffffffffffffffff1673ffffffffffffffffffffffffffffffffffffffff16146102ab576040517f08c379a00000000000000000000000000000000000000000000000000000000081526004016102a290611ac3565b60405180910390fd5b6102b6838383610a78565b505050565b6102c36108db565b73ffffffffffffffffffffffffffffffffffffffff1660008054906101000a900473ffffffffffffffffffffffffffffffffffffffff1673ffffffffffffffffffffffffffffffffffffffff1614610350576040517f08c379a000000000000000000000000000000000000000000000000000000000815260040161034790611ac3565b60405180910390fd5b61035a8282610c74565b5050565b60006103686108db565b73ffffffffffffffffffffffffffffffffffffffff1660008054906101000a900473ffffffffffffffffffffffffffffffffffffffff1673ffffffffffffffffffffffffffffffffffffffff16146103f5576040517f08c379a00000000000000000000000000000000000000000000000000000000081526004016103ec90611ac3565b60405180910390fd5b6000610422600160009054906101000a900473ffffffffffffffffffffffffffffffffffffffff16610d66565b905060008190508073ffffffffffffffffffffffffffffffffffffffff1663ff9935cb89898989896104526108db565b6040518763ffffffff1660e01b815260040161047396959493929190611997565b600060405180830381600087803b15801561048d57600080fd5b505af11580156104a1573d6000803e3d6000fd5b505050508173ffffffffffffffffffffffffffffffffffffffff167f6ecb2838bef4560681475e8bb5e7feccefe33df915df2d6757024bc6fe4c616a60405160405180910390a2819250505095945050505050565b6104fe6108db565b73ffffffffffffffffffffffffffffffffffffffff1660008054906101000a900473ffffffffffffffffffffffffffffffffffffffff1673ffffffffffffffffffffffffffffffffffffffff161461058b576040517f08c379a000000000000000000000000000000000000000000000000000000000815260040161058290611ac3565b60405180910390fd5b600073ffffffffffffffffffffffffffffffffffffffff1660008054906101000a900473ffffffffffffffffffffffffffffffffffffffff1673ffffffffffffffffffffffffffffffffffffffff167f8be0079c531659141344cd1fd0a4f28419497f9722a3daafe3b4186f6b6457e060405160405180910390a360008060006101000a81548173ffffffffffffffffffffffffffffffffffffffff021916908373ffffffffffffffffffffffffffffffffffffffff160217905550565b60008060009054906101000a900473ffffffffffffffffffffffffffffffffffffffff16905090565b61067a6108db565b73ffffffffffffffffffffffffffffffffffffffff1660008054906101000a900473ffffffffffffffffffffffffffffffffffffffff1673ffffffffffffffffffffffffffffffffffffffff1614610707576040517f08c379a00000000000000000000000000000000000000000000000000000000081526004016106fe90611ac3565b60405180910390fd5b61071384848484610dd0565b50505050565b6107216108db565b73ffffffffffffffffffffffffffffffffffffffff1660008054906101000a900473ffffffffffffffffffffffffffffffffffffffff1673ffffffffffffffffffffffffffffffffffffffff16146107ae576040517f08c379a00000000000000000000000000000000000000000000000000000000081526004016107a590611ac3565b60405180910390fd5b600073ffffffffffffffffffffffffffffffffffffffff168173ffffffffffffffffffffffffffffffffffffffff16141561081e576040517f08c379a000000000000000000000000000000000000000000000000000000000815260040161081590611a43565b60405180910390fd5b8073ffffffffffffffffffffffffffffffffffffffff1660008054906101000a900473ffffffffffffffffffffffffffffffffffffffff1673ffffffffffffffffffffffffffffffffffffffff167f8be0079c531659141344cd1fd0a4f28419497f9722a3daafe3b4186f6b6457e060405160405180910390a3806000806101000a81548173ffffffffffffffffffffffffffffffffffffffff021916908373ffffffffffffffffffffffffffffffffffffffff16021790555050565b600033905090565b600073ffffffffffffffffffffffffffffffffffffffff168373ffffffffffffffffffffffffffffffffffffffff161415610953576040517f08c379a000000000000000000000000000000000000000000000000000000000815260040161094a90611a63565b60405180910390fd5b808273ffffffffffffffffffffffffffffffffffffffff166370a08231306040518263ffffffff1660e01b815260040161098d91906118ed565b60206040518083038186803b1580156109a557600080fd5b505afa1580156109b9573d6000803e3d6000fd5b505050506040513d601f19601f820116820180604052508101906109dd919061159b565b10610a7357610a0d83828473ffffffffffffffffffffffffffffffffffffffff16610fae9092919063ffffffff16565b8173ffffffffffffffffffffffffffffffffffffffff168373ffffffffffffffffffffffffffffffffffffffff167f6c9d637297625e945b296ff73a71fcfbd0a9e062652b6491a921c4c60194176b83604051610a6a9190611b23565b60405180910390a35b505050565b600073ffffffffffffffffffffffffffffffffffffffff168373ffffffffffffffffffffffffffffffffffffffff161415610ae8576040517f08c379a0000000000000000000000000000000000000000000000000000000008152600401610adf90611a63565b60405180910390fd5b3073ffffffffffffffffffffffffffffffffffffffff168273ffffffffffffffffffffffffffffffffffffffff16636352211e836040518263ffffffff1660e01b8152600401610b389190611b23565b60206040518083038186803b158015610b5057600080fd5b505afa158015610b64573d6000803e3d6000fd5b505050506040513d601f19601f82011682018060405250810190610b8891906113e4565b73ffffffffffffffffffffffffffffffffffffffff161415610c6f578173ffffffffffffffffffffffffffffffffffffffff166323b872dd3085846040518463ffffffff1660e01b8152600401610be193929190611908565b600060405180830381600087803b158015610bfb57600080fd5b505af1158015610c0f573d6000803e3d6000fd5b50505050808273ffffffffffffffffffffffffffffffffffffffff168473ffffffffffffffffffffffffffffffffffffffff167ffefe036cac4ee3a4aca074a81cbcc4376e1484693289078dbec149c890101d5b60405160405180910390a45b505050565b600073ffffffffffffffffffffffffffffffffffffffff168273ffffffffffffffffffffffffffffffffffffffff161415610ce4576040517f08c379a0000000000000000000000000000000000000000000000000000000008152600401610cdb90611a63565b60405180910390fd5b804710610d6257610d14818373ffffffffffffffffffffffffffffffffffffffff1661103490919063ffffffff16565b8173ffffffffffffffffffffffffffffffffffffffff167eddb683bb45cd5d0ad8a200c6fae7152b1c236ee90a4a37db692407f5cc38bd82604051610d599190611b23565b60405180910390a25b5050565b6000808260601b90506040517f3d602d80600a3d3981f3363d3d373d3d3d363d7300000000000000000000000081528160148201527f5af43d82803e903d91602b57fd5bf3000000000000000000000000000000000060288201526037816000f092505050919050565b600073ffffffffffffffffffffffffffffffffffffffff168473ffffffffffffffffffffffffffffffffffffffff161415610e40576040517f08c379a0000000000000000000000000000000000000000000000000000000008152600401610e3790611a63565b60405180910390fd5b808373ffffffffffffffffffffffffffffffffffffffff1662fdd58e30856040518363ffffffff1660e01b8152600401610e7b9291906119f8565b60206040518083038186803b158015610e9357600080fd5b505afa158015610ea7573d6000803e3d6000fd5b505050506040513d601f19601f82011682018060405250810190610ecb919061159b565b10610fa8578273ffffffffffffffffffffffffffffffffffffffff1663f242432a308685856040518563ffffffff1660e01b8152600401610f0f949392919061193f565b600060405180830381600087803b158015610f2957600080fd5b505af1158015610f3d573d6000803e3d6000fd5b50505050818373ffffffffffffffffffffffffffffffffffffffff168573ffffffffffffffffffffffffffffffffffffffff167f620337bf89eea2b9ae2657beead83b5fa620452817118348aff96e201d52598b84604051610f9f9190611b23565b60405180910390a45b50505050565b61102f8363a9059cbb60e01b8484604051602401610fcd9291906119f8565b604051602081830303815290604052907bffffffffffffffffffffffffffffffffffffffffffffffffffffffff19166020820180517bffffffffffffffffffffffffffffffffffffffffffffffffffffffff8381831617835250505050611128565b505050565b80471015611077576040517f08c379a000000000000000000000000000000000000000000000000000000000815260040161106e90611aa3565b60405180910390fd5b60008273ffffffffffffffffffffffffffffffffffffffff168260405161109d906118d8565b60006040518083038185875af1925050503d80600081146110da576040519150601f19603f3d011682016040523d82523d6000602084013e6110df565b606091505b5050905080611123576040517f08c379a000000000000000000000000000000000000000000000000000000000815260040161111a90611a83565b60405180910390fd5b505050565b606061118a826040518060400160405280602081526020017f5361666545524332303a206c6f772d6c6576656c2063616c6c206661696c65648152508573ffffffffffffffffffffffffffffffffffffffff166111ef9092919063ffffffff16565b90506000815111156111ea57808060200190518101906111aa9190611572565b6111e9576040517f08c379a00000000000000000000000000000000000000000000000000000000081526004016111e090611b03565b60405180910390fd5b5b505050565b60606111fe8484600085611207565b90509392505050565b60606112128561132a565b611251576040517f08c379a000000000000000000000000000000000000000000000000000000000815260040161124890611ae3565b60405180910390fd5b600060608673ffffffffffffffffffffffffffffffffffffffff16858760405161127b91906118c1565b60006040518083038185875af1925050503d80600081146112b8576040519150601f19603f3d011682016040523d82523d6000602084013e6112bd565b606091505b509150915081156112d2578092505050611322565b6000815111156112e55780518082602001fd5b836040517f08c379a00000000000000000000000000000000000000000000000000000000081526004016113199190611a21565b60405180910390fd5b949350505050565b600080823b905060008111915050919050565b60008135905061134c81611c55565b92915050565b60008151905061136181611c55565b92915050565b60008135905061137681611c6c565b92915050565b60008151905061138b81611c83565b92915050565b6000813590506113a081611c9a565b92915050565b6000815190506113b581611c9a565b92915050565b6000602082840312156113cd57600080fd5b60006113db8482850161133d565b91505092915050565b6000602082840312156113f657600080fd5b600061140484828501611352565b91505092915050565b60008060006060848603121561142257600080fd5b600061143086828701611367565b93505060206114418682870161133d565b925050604061145286828701611391565b9150509250925092565b6000806000806080858703121561147257600080fd5b600061148087828801611367565b94505060206114918782880161133d565b93505060406114a287828801611391565b92505060606114b387828801611391565b91505092959194509250565b600080604083850312156114d257600080fd5b60006114e085828601611367565b92505060206114f185828601611391565b9150509250929050565b600080600080600060a0868803121561151357600080fd5b60006115218882890161133d565b95505060206115328882890161133d565b945050604061154388828901611391565b93505060606115548882890161133d565b92505060806115658882890161133d565b9150509295509295909350565b60006020828403121561158457600080fd5b60006115928482850161137c565b91505092915050565b6000602082840312156115ad57600080fd5b60006115bb848285016113a6565b91505092915050565b6115cd81611bdb565b82525050565b6115dc81611b81565b82525050565b60006115ed82611b3e565b6115f78185611b65565b9350611607818560208601611c11565b80840191505092915050565b600061161e82611b49565b6116288185611b70565b9350611638818560208601611c11565b61164181611c44565b840191505092915050565b6000611659602683611b70565b91507f4f776e61626c653a206e6577206f776e657220697320746865207a65726f206160008301527f64647265737300000000000000000000000000000000000000000000000000006020830152604082019050919050565b60006116bf600983611b70565b91507f4248503a452d34303300000000000000000000000000000000000000000000006000830152602082019050919050565b60006116ff603a83611b70565b91507f416464726573733a20756e61626c6520746f2073656e642076616c75652c207260008301527f6563697069656e74206d617920686176652072657665727465640000000000006020830152604082019050919050565b6000611765601d83611b70565b91507f416464726573733a20696e73756666696369656e742062616c616e63650000006000830152602082019050919050565b60006117a5602083611b70565b91507f4f776e61626c653a2063616c6c6572206973206e6f7420746865206f776e65726000830152602082019050919050565b60006117e5600083611b54565b9150600082019050919050565b60006117ff600083611b65565b9150600082019050919050565b6000611819601d83611b70565b91507f416464726573733a2063616c6c20746f206e6f6e2d636f6e74726163740000006000830152602082019050919050565b6000611859602a83611b70565b91507f5361666545524332303a204552433230206f7065726174696f6e20646964206e60008301527f6f742073756363656564000000000000000000000000000000000000000000006020830152604082019050919050565b6118bb81611bd1565b82525050565b60006118cd82846115e2565b915081905092915050565b60006118e3826117f2565b9150819050919050565b600060208201905061190260008301846115d3565b92915050565b600060608201905061191d60008301866115d3565b61192a60208301856115c4565b61193760408301846118b2565b949350505050565b600060a08201905061195460008301876115d3565b61196160208301866115c4565b61196e60408301856118b2565b61197b60608301846118b2565b818103608083015261198c816117d8565b905095945050505050565b600060c0820190506119ac60008301896115d3565b6119b960208301886115d3565b6119c660408301876118b2565b6119d360608301866115d3565b6119e060808301856115d3565b6119ed60a08301846115c4565b979650505050505050565b6000604082019050611a0d60008301856115d3565b611a1a60208301846118b2565b9392505050565b60006020820190508181036000830152611a3b8184611613565b905092915050565b60006020820190508181036000830152611a5c8161164c565b9050919050565b60006020820190508181036000830152611a7c816116b2565b9050919050565b60006020820190508181036000830152611a9c816116f2565b9050919050565b60006020820190508181036000830152611abc81611758565b9050919050565b60006020820190508181036000830152611adc81611798565b9050919050565b60006020820190508181036000830152611afc8161180c565b9050919050565b60006020820190508181036000830152611b1c8161184c565b9050919050565b6000602082019050611b3860008301846118b2565b92915050565b600081519050919050565b600081519050919050565b600082825260208201905092915050565b600081905092915050565b600082825260208201905092915050565b6000611b8c82611bb1565b9050919050565b6000611b9e82611bb1565b9050919050565b60008115159050919050565b600073ffffffffffffffffffffffffffffffffffffffff82169050919050565b6000819050919050565b6000611be682611bed565b9050919050565b6000611bf882611bff565b9050919050565b6000611c0a82611bb1565b9050919050565b60005b83811015611c2f578082015181840152602081019050611c14565b83811115611c3e576000848401525b50505050565b6000601f19601f8301169050919050565b611c5e81611b81565b8114611c6957600080fd5b50565b611c7581611b93565b8114611c8057600080fd5b50565b611c8c81611ba5565b8114611c9757600080fd5b50565b611ca381611bd1565b8114611cae57600080fd5b5056fea26469706673582212201894486b4d7ada598e5ba3d6866ea717ca868c7fc943e84b9802753ac3b7eb2564736f6c634300060c0033608060405234801561001057600080fd5b5060016000819055506144dd806100286000396000f3fe608060405234801561001057600080fd5b506004361061014d5760003560e01c8063522f6815116100c3578063a0edb48b1161007c578063a0edb48b14610396578063ae9704cd146103b2578063bc197c81146103ce578063dae9e379146103fe578063f23a6e611461041c578063ff9935cb1461044c5761014d565b8063522f6815146102c4578063533f852e146102e057806370d2e5cd14610310578063784483491461032c5780638aee81271461035c5780638da5cb5b146103785761014d565b80631f5b149f116101155780631f5b149f14610208578063352685bc146102245780634025feb21461024057806346c65f621461025c578063494b01001461027857806350d0c63c146102945761014d565b806301ffc9a71461015257806314e5f66814610182578063150b7a02146101a05780631593dee1146101d05780631e9b12ef146101ec575b600080fd5b61016c60048036038101906101679190613634565b610468565b6040516101799190613ef1565b60405180910390f35b61018a6105af565b6040516101979190614131565b60405180910390f35b6101ba60048036038101906101b59190613382565b61067f565b6040516101c79190613f0c565b60405180910390f35b6101ea60048036038101906101e5919061313f565b610694565b005b610206600480360381019061020191906130ed565b610734565b005b610222600480360381019061021d91906130ed565b61080b565b005b61023e600480360381019061023991906136af565b6108df565b005b61025a6004803603810190610255919061313f565b610a90565b005b6102766004803603810190610271919061353c565b610b30565b005b610292600480360381019061028d91906134d0565b610c8c565b005b6102ae60048036038101906102a991906135bc565b610fc0565b6040516102bb919061414c565b60405180910390f35b6102de60048036038101906102d991906131f1565b6112b9565b005b6102fa60048036038101906102f59190613494565b611357565b604051610307919061414c565b60405180910390f35b61032a600480360381019061032591906136af565b6113a5565b005b610346600480360381019061034191906136af565b611442565b604051610353919061410f565b60405180910390f35b610376600480360381019061037191906130ed565b611525565b005b6103806115fc565b60405161038d9190613db0565b60405180910390f35b6103b060048036038101906103ab919061318e565b611626565b005b6103cc60048036038101906103c791906130ed565b6116c8565b005b6103e860048036038101906103e3919061322d565b61179c565b6040516103f59190613f0c565b60405180910390f35b6104066117aa565b604051610413919061414c565b60405180910390f35b61043660048036038101906104319190613402565b6117b9565b6040516104439190613f0c565b60405180910390f35b610466600480360381019061046191906132f9565b6117cf565b005b60007f150b7a02000000000000000000000000000000000000000000000000000000007bffffffffffffffffffffffffffffffffffffffffffffffffffffffff1916827bffffffffffffffffffffffffffffffffffffffffffffffffffffffff1916148061053357507f4e2312e0000000000000000000000000000000000000000000000000000000007bffffffffffffffffffffffffffffffffffffffffffffffffffffffff1916827bffffffffffffffffffffffffffffffffffffffffffffffffffffffff1916145b8061059b57507f01ffc9a7000000000000000000000000000000000000000000000000000000007bffffffffffffffffffffffffffffffffffffffffffffffffffffffff1916827bffffffffffffffffffffffffffffffffffffffffffffffffffffffff1916145b156105a957600190506105aa565b5b919050565b6105b7612d46565b60046040518060600160405290816000820160009054906101000a900473ffffffffffffffffffffffffffffffffffffffff1673ffffffffffffffffffffffffffffffffffffffff1673ffffffffffffffffffffffffffffffffffffffff1681526020016001820160009054906101000a900473ffffffffffffffffffffffffffffffffffffffff1673ffffffffffffffffffffffffffffffffffffffff1673ffffffffffffffffffffffffffffffffffffffff168152602001600282015481525050905090565b600063150b7a0260e01b905095945050505050565b3373ffffffffffffffffffffffffffffffffffffffff16600160009054906101000a900473ffffffffffffffffffffffffffffffffffffffff1673ffffffffffffffffffffffffffffffffffffffff1614610724576040517f08c379a000000000000000000000000000000000000000000000000000000000815260040161071b90613f8f565b60405180910390fd5b61072f8383836119bd565b505050565b3373ffffffffffffffffffffffffffffffffffffffff16600160009054906101000a900473ffffffffffffffffffffffffffffffffffffffff1673ffffffffffffffffffffffffffffffffffffffff16146107c4576040517f08c379a00000000000000000000000000000000000000000000000000000000081526004016107bb90613f8f565b60405180910390fd5b80600460000160006101000a81548173ffffffffffffffffffffffffffffffffffffffff021916908373ffffffffffffffffffffffffffffffffffffffff16021790555050565b3373ffffffffffffffffffffffffffffffffffffffff16600160009054906101000a900473ffffffffffffffffffffffffffffffffffffffff1673ffffffffffffffffffffffffffffffffffffffff161461089b576040517f08c379a000000000000000000000000000000000000000000000000000000000815260040161089290613f8f565b60405180910390fd5b80600360006101000a81548173ffffffffffffffffffffffffffffffffffffffff021916908373ffffffffffffffffffffffffffffffffffffffff16021790555050565b3373ffffffffffffffffffffffffffffffffffffffff16600160009054906101000a900473ffffffffffffffffffffffffffffffffffffffff1673ffffffffffffffffffffffffffffffffffffffff161461096f576040517f08c379a000000000000000000000000000000000000000000000000000000000815260040161096690613f8f565b60405180910390fd5b600073ffffffffffffffffffffffffffffffffffffffff16600460010160009054906101000a900473ffffffffffffffffffffffffffffffffffffffff1673ffffffffffffffffffffffffffffffffffffffff161415610a04576040517f08c379a00000000000000000000000000000000000000000000000000000000081526004016109fb9061404f565b60405180910390fd5b610a56333083600460010160009054906101000a900473ffffffffffffffffffffffffffffffffffffffff1673ffffffffffffffffffffffffffffffffffffffff16611b52909392919063ffffffff16565b7fcbd64454da4b3587b11b8f8170d7656cbe58e29ee18fd715b0e79ad85edb6e5d81604051610a85919061414c565b60405180910390a150565b3373ffffffffffffffffffffffffffffffffffffffff16600160009054906101000a900473ffffffffffffffffffffffffffffffffffffffff1673ffffffffffffffffffffffffffffffffffffffff1614610b20576040517f08c379a0000000000000000000000000000000000000000000000000000000008152600401610b1790613f8f565b60405180910390fd5b610b2b838383611bdb565b505050565b600260009054906101000a900473ffffffffffffffffffffffffffffffffffffffff1673ffffffffffffffffffffffffffffffffffffffff163373ffffffffffffffffffffffffffffffffffffffff1614610bc0576040517f08c379a0000000000000000000000000000000000000000000000000000000008152600401610bb79061402f565b60405180910390fd5b6000610beb858773ffffffffffffffffffffffffffffffffffffffff16611dd790919063ffffffff16565b90506000600760008381526020019081526020016000209050600081600001541415610c2f574381600001819055508484826002019190610c2d929190612d93565b505b8673ffffffffffffffffffffffffffffffffffffffff167f30d53e48465c48642e346a636a4eef45c72095b65bef5825308376e2f59f09e287878787604051610c7b9493929190614167565b60405180910390a250505050505050565b3373ffffffffffffffffffffffffffffffffffffffff16600160009054906101000a900473ffffffffffffffffffffffffffffffffffffffff1673ffffffffffffffffffffffffffffffffffffffff1614610d1c576040517f08c379a0000000000000000000000000000000000000000000000000000000008152600401610d1390613f8f565b60405180910390fd5b6000610d47848673ffffffffffffffffffffffffffffffffffffffff16611dd790919063ffffffff16565b90506000600360009054906101000a900473ffffffffffffffffffffffffffffffffffffffff1673ffffffffffffffffffffffffffffffffffffffff166334b7328d85856040518363ffffffff1660e01b8152600401610da8929190613f27565b60206040518083038186803b158015610dc057600080fd5b505afa158015610dd4573d6000803e3d6000fd5b505050506040513d601f19601f82011682018060405250810190610df8919061365d565b905060008173ffffffffffffffffffffffffffffffffffffffff16632da9ef818888600460000160009054906101000a900473ffffffffffffffffffffffffffffffffffffffff166040518463ffffffff1660e01b8152600401610e5e93929190613eba565b602060405180830381600087803b158015610e7857600080fd5b505af1158015610e8c573d6000803e3d6000fd5b505050506040513d601f19601f82011682018060405250810190610eb091906136d8565b90506000811115610fb75760405180606001604052804381526020016000815260200186868080601f016020809104026020016040519081016040528093929190818152602001838380828437600081840152601f19601f820116905080830192505050505050508152506007600085815260200190815260200160002060008201518160000155602082015181600101556040820151816002019080519060200190610f5e929190612e13565b509050508673ffffffffffffffffffffffffffffffffffffffff167fdd1b8616b3983aa94529955a2f7d0dd75e5a93e53875372ea41a9eab5e3ef32687878785604051610fae9493929190614167565b60405180910390a25b50505050505050565b6000600260009054906101000a900473ffffffffffffffffffffffffffffffffffffffff1673ffffffffffffffffffffffffffffffffffffffff163373ffffffffffffffffffffffffffffffffffffffff1614611052576040517f08c379a00000000000000000000000000000000000000000000000000000000081526004016110499061402f565b60405180910390fd5b61105a611e0d565b6000611085848673ffffffffffffffffffffffffffffffffffffffff16611dd790919063ffffffff16565b9050600060076000838152602001908152602001600020905060006110aa8386611e5d565b90506110c3818360010154611e8c90919063ffffffff16565b82600101819055506000600360009054906101000a900473ffffffffffffffffffffffffffffffffffffffff1673ffffffffffffffffffffffffffffffffffffffff166334b7328d846002016040518263ffffffff1660e01b815260040161112b9190613f6d565b60206040518083038186803b15801561114357600080fd5b505afa158015611157573d6000803e3d6000fd5b505050506040513d601f19601f8201168201806040525081019061117b919061365d565b905060008173ffffffffffffffffffffffffffffffffffffffff16632da9ef818a8a600460000160009054906101000a900473ffffffffffffffffffffffffffffffffffffffff166040518463ffffffff1660e01b81526004016111e193929190613eba565b602060405180830381600087803b1580156111fb57600080fd5b505af115801561120f573d6000803e3d6000fd5b505050506040513d601f19601f8201168201806040525081019061123391906136d8565b9050600081141561124957600084600001819055505b6112538989611ee1565b95508873ffffffffffffffffffffffffffffffffffffffff167f8abeaea5da22bf1966530d4f970ac7c71ae0999eb1d2181afaeff8b56c394f3f898960405161129d9291906141a7565b60405180910390a250505050506112b261210e565b9392505050565b3373ffffffffffffffffffffffffffffffffffffffff16600160009054906101000a900473ffffffffffffffffffffffffffffffffffffffff1673ffffffffffffffffffffffffffffffffffffffff1614611349576040517f08c379a000000000000000000000000000000000000000000000000000000000815260040161134090613f8f565b60405180910390fd5b6113538282612118565b5050565b600080611383838573ffffffffffffffffffffffffffffffffffffffff16611dd790919063ffffffff16565b9050600760008281526020019081526020016000206001015491505092915050565b3373ffffffffffffffffffffffffffffffffffffffff16600160009054906101000a900473ffffffffffffffffffffffffffffffffffffffff1673ffffffffffffffffffffffffffffffffffffffff1614611435576040517f08c379a000000000000000000000000000000000000000000000000000000000815260040161142c90613f8f565b60405180910390fd5b8060046002018190555050565b61144a612e93565b600760008381526020019081526020016000206040518060600160405290816000820154815260200160018201548152602001600282018054600181600116156101000203166002900480601f0160208091040260200160405190810160405280929190818152602001828054600181600116156101000203166002900480156115155780601f106114ea57610100808354040283529160200191611515565b820191906000526020600020905b8154815290600101906020018083116114f857829003601f168201915b5050505050815250509050919050565b3373ffffffffffffffffffffffffffffffffffffffff16600160009054906101000a900473ffffffffffffffffffffffffffffffffffffffff1673ffffffffffffffffffffffffffffffffffffffff16146115b5576040517f08c379a00000000000000000000000000000000000000000000000000000000081526004016115ac90613f8f565b60405180910390fd5b80600460010160006101000a81548173ffffffffffffffffffffffffffffffffffffffff021916908373ffffffffffffffffffffffffffffffffffffffff16021790555050565b6000600160009054906101000a900473ffffffffffffffffffffffffffffffffffffffff16905090565b3373ffffffffffffffffffffffffffffffffffffffff16600160009054906101000a900473ffffffffffffffffffffffffffffffffffffffff1673ffffffffffffffffffffffffffffffffffffffff16146116b6576040517f08c379a00000000000000000000000000000000000000000000000000000000081526004016116ad90613f8f565b60405180910390fd5b6116c28484848461220a565b50505050565b3373ffffffffffffffffffffffffffffffffffffffff16600160009054906101000a900473ffffffffffffffffffffffffffffffffffffffff1673ffffffffffffffffffffffffffffffffffffffff1614611758576040517f08c379a000000000000000000000000000000000000000000000000000000000815260040161174f90613f8f565b60405180910390fd5b80600260006101000a81548173ffffffffffffffffffffffffffffffffffffffff021916908373ffffffffffffffffffffffffffffffffffffffff16021790555050565b600098975050505050505050565b60006117b46123e8565b905090565b600063bc197c8160e01b90509695505050505050565b600073ffffffffffffffffffffffffffffffffffffffff16600160009054906101000a900473ffffffffffffffffffffffffffffffffffffffff1673ffffffffffffffffffffffffffffffffffffffff1614611860576040517f08c379a0000000000000000000000000000000000000000000000000000000008152600401611857906140af565b60405180910390fd5b80600160006101000a81548173ffffffffffffffffffffffffffffffffffffffff021916908373ffffffffffffffffffffffffffffffffffffffff16021790555085600460000160006101000a81548173ffffffffffffffffffffffffffffffffffffffff021916908373ffffffffffffffffffffffffffffffffffffffff16021790555084600460010160006101000a81548173ffffffffffffffffffffffffffffffffffffffff021916908373ffffffffffffffffffffffffffffffffffffffff1602179055508360046002018190555082600360006101000a81548173ffffffffffffffffffffffffffffffffffffffff021916908373ffffffffffffffffffffffffffffffffffffffff16021790555081600260006101000a81548173ffffffffffffffffffffffffffffffffffffffff021916908373ffffffffffffffffffffffffffffffffffffffff160217905550505050505050565b600073ffffffffffffffffffffffffffffffffffffffff168373ffffffffffffffffffffffffffffffffffffffff161415611a2d576040517f08c379a0000000000000000000000000000000000000000000000000000000008152600401611a2490613faf565b60405180910390fd5b808273ffffffffffffffffffffffffffffffffffffffff166370a08231306040518263ffffffff1660e01b8152600401611a679190613db0565b60206040518083038186803b158015611a7f57600080fd5b505afa158015611a93573d6000803e3d6000fd5b505050506040513d601f19601f82011682018060405250810190611ab791906136d8565b10611b4d57611ae783828473ffffffffffffffffffffffffffffffffffffffff1661249d9092919063ffffffff16565b8173ffffffffffffffffffffffffffffffffffffffff168373ffffffffffffffffffffffffffffffffffffffff167f6c9d637297625e945b296ff73a71fcfbd0a9e062652b6491a921c4c60194176b83604051611b44919061414c565b60405180910390a35b505050565b611bd5846323b872dd60e01b858585604051602401611b7393929190613e5a565b604051602081830303815290604052907bffffffffffffffffffffffffffffffffffffffffffffffffffffffff19166020820180517bffffffffffffffffffffffffffffffffffffffffffffffffffffffff8381831617835250505050612523565b50505050565b600073ffffffffffffffffffffffffffffffffffffffff168373ffffffffffffffffffffffffffffffffffffffff161415611c4b576040517f08c379a0000000000000000000000000000000000000000000000000000000008152600401611c4290613faf565b60405180910390fd5b3073ffffffffffffffffffffffffffffffffffffffff168273ffffffffffffffffffffffffffffffffffffffff16636352211e836040518263ffffffff1660e01b8152600401611c9b919061414c565b60206040518083038186803b158015611cb357600080fd5b505afa158015611cc7573d6000803e3d6000fd5b505050506040513d601f19601f82011682018060405250810190611ceb9190613116565b73ffffffffffffffffffffffffffffffffffffffff161415611dd2578173ffffffffffffffffffffffffffffffffffffffff166323b872dd3085846040518463ffffffff1660e01b8152600401611d4493929190613dcb565b600060405180830381600087803b158015611d5e57600080fd5b505af1158015611d72573d6000803e3d6000fd5b50505050808273ffffffffffffffffffffffffffffffffffffffff168473ffffffffffffffffffffffffffffffffffffffff167ffefe036cac4ee3a4aca074a81cbcc4376e1484693289078dbec149c890101d5b60405160405180910390a45b505050565b60008282604051602001611dec929190613d58565b6040516020818303038152906040528051906020012060001c905092915050565b60026000541415611e53576040517f08c379a0000000000000000000000000000000000000000000000000000000008152600401611e4a906140ef565b60405180910390fd5b6002600081905550565b600080611e69836125ea565b90506000611e77858361261f565b9050611e8281612878565b9250505092915050565b600080828401905083811015611ed7576040517f08c379a0000000000000000000000000000000000000000000000000000000008152600401611ece90613fcf565b60405180910390fd5b8091505092915050565b600080611f0d838573ffffffffffffffffffffffffffffffffffffffff16611dd790919063ffffffff16565b9050600060076000838152602001908152602001600020905060008573ffffffffffffffffffffffffffffffffffffffff16636352211e866040518263ffffffff1660e01b8152600401611f61919061414c565b60206040518083038186803b158015611f7957600080fd5b505afa158015611f8d573d6000803e3d6000fd5b505050506040513d601f19601f82011682018060405250810190611fb19190613116565b9050816001015493506000611fc46123e8565b90506000818611611fd6576000611fea565b611fe9828761294490919063ffffffff16565b5b9050600081111561203757612008818761294490919063ffffffff16565b95507f9fc735fd421d3eb45362ea6d0d94945975bce33842b1bc94840719e66d937e4760405160405180910390a15b808460010181905550600086111561209a576120998387600460010160009054906101000a900473ffffffffffffffffffffffffffffffffffffffff1673ffffffffffffffffffffffffffffffffffffffff1661249d9092919063ffffffff16565b5b8273ffffffffffffffffffffffffffffffffffffffff168873ffffffffffffffffffffffffffffffffffffffff167fb918e5bcd5ce5aadd59ae96fe4c568669afc7af190dbf16061540816cb407c738989856040516120fb939291906141d0565b60405180910390a3505050505092915050565b6001600081905550565b600073ffffffffffffffffffffffffffffffffffffffff168273ffffffffffffffffffffffffffffffffffffffff161415612188576040517f08c379a000000000000000000000000000000000000000000000000000000000815260040161217f90613faf565b60405180910390fd5b804710612206576121b8818373ffffffffffffffffffffffffffffffffffffffff1661298e90919063ffffffff16565b8173ffffffffffffffffffffffffffffffffffffffff167eddb683bb45cd5d0ad8a200c6fae7152b1c236ee90a4a37db692407f5cc38bd826040516121fd919061414c565b60405180910390a25b5050565b600073ffffffffffffffffffffffffffffffffffffffff168473ffffffffffffffffffffffffffffffffffffffff16141561227a576040517f08c379a000000000000000000000000000000000000000000000000000000000815260040161227190613faf565b60405180910390fd5b808373ffffffffffffffffffffffffffffffffffffffff1662fdd58e30856040518363ffffffff1660e01b81526004016122b5929190613e91565b60206040518083038186803b1580156122cd57600080fd5b505afa1580156122e1573d6000803e3d6000fd5b505050506040513d601f19601f8201168201806040525081019061230591906136d8565b106123e2578273ffffffffffffffffffffffffffffffffffffffff1663f242432a308685856040518563ffffffff1660e01b81526004016123499493929190613e02565b600060405180830381600087803b15801561236357600080fd5b505af1158015612377573d6000803e3d6000fd5b50505050818373ffffffffffffffffffffffffffffffffffffffff168573ffffffffffffffffffffffffffffffffffffffff167f620337bf89eea2b9ae2657beead83b5fa620452817118348aff96e201d52598b846040516123d9919061414c565b60405180910390a45b50505050565b6000600460010160009054906101000a900473ffffffffffffffffffffffffffffffffffffffff1673ffffffffffffffffffffffffffffffffffffffff166370a08231306040518263ffffffff1660e01b81526004016124489190613db0565b60206040518083038186803b15801561246057600080fd5b505afa158015612474573d6000803e3d6000fd5b505050506040513d601f19601f8201168201806040525081019061249891906136d8565b905090565b61251e8363a9059cbb60e01b84846040516024016124bc929190613e91565b604051602081830303815290604052907bffffffffffffffffffffffffffffffffffffffffffffffffffffffff19166020820180517bffffffffffffffffffffffffffffffffffffffffffffffffffffffff8381831617835250505050612523565b505050565b6060612585826040518060400160405280602081526020017f5361666545524332303a206c6f772d6c6576656c2063616c6c206661696c65648152508573ffffffffffffffffffffffffffffffffffffffff16612a829092919063ffffffff16565b90506000815111156125e557808060200190518101906125a5919061360b565b6125e4576040517f08c379a00000000000000000000000000000000000000000000000000000000081526004016125db906140cf565b60405180910390fd5b5b505050565b600061261861271061260a60046002015485612a9a90919063ffffffff16565b612b0a90919063ffffffff16565b9050919050565b60008060076000858152602001908152602001600020905060008160000154141561264d5782915050612872565b612655612eb4565b600260009054906101000a900473ffffffffffffffffffffffffffffffffffffffff1673ffffffffffffffffffffffffffffffffffffffff1663836c478d866040518263ffffffff1660e01b81526004016126b0919061414c565b60606040518083038186803b1580156126c857600080fd5b505afa1580156126dc573d6000803e3d6000fd5b505050506040513d601f19601f820116820180604052508101906127009190613686565b9050600081600001519050600061272484600001544361294490919063ffffffff16565b9050600080846040015111156127565761274f8460200151856040015161294490919063ffffffff16565b9050612770565b61276d84602001514361294490919063ffffffff16565b90505b600083148061277f5750600081145b8061278a5750600082145b1561279c578695505050505050612872565b818111156127a8578190505b60006127d1836127c361271085612a9a90919063ffffffff16565b612b0a90919063ffffffff16565b905060006127fc6127106127ee848c612a9a90919063ffffffff16565b612b0a90919063ffffffff16565b9050600061283a61271061282c61281d60648a612a9a90919063ffffffff16565b85612a9a90919063ffffffff16565b612b0a90919063ffffffff16565b90506000612851838c61294490919063ffffffff16565b90506128668282611e8c90919063ffffffff16565b99505050505050505050505b92915050565b600080600460000160009054906101000a900473ffffffffffffffffffffffffffffffffffffffff1673ffffffffffffffffffffffffffffffffffffffff1663313ce5676040518163ffffffff1660e01b815260040160206040518083038186803b1580156128e657600080fd5b505afa1580156128fa573d6000803e3d6000fd5b505050506040513d601f19601f8201168201806040525081019061291e9190613701565b905061293c8160ff16601203600a0a84612a9a90919063ffffffff16565b915050919050565b600061298683836040518060400160405280601e81526020017f536166654d6174683a207375627472616374696f6e206f766572666c6f770000815250612b54565b905092915050565b804710156129d1576040517f08c379a00000000000000000000000000000000000000000000000000000000081526004016129c89061400f565b60405180910390fd5b60008273ffffffffffffffffffffffffffffffffffffffff16826040516129f790613d9b565b60006040518083038185875af1925050503d8060008114612a34576040519150601f19603f3d011682016040523d82523d6000602084013e612a39565b606091505b5050905080612a7d576040517f08c379a0000000000000000000000000000000000000000000000000000000008152600401612a7490613fef565b60405180910390fd5b505050565b6060612a918484600085612baf565b90509392505050565b600080831415612aad5760009050612b04565b6000828402905082848281612abe57fe5b0414612aff576040517f08c379a0000000000000000000000000000000000000000000000000000000008152600401612af69061406f565b60405180910390fd5b809150505b92915050565b6000612b4c83836040518060400160405280601a81526020017f536166654d6174683a206469766973696f6e206279207a65726f000000000000815250612cd2565b905092915050565b6000838311158290612b9c576040517f08c379a0000000000000000000000000000000000000000000000000000000008152600401612b939190613f4b565b60405180910390fd5b5060008385039050809150509392505050565b6060612bba85612d33565b612bf9576040517f08c379a0000000000000000000000000000000000000000000000000000000008152600401612bf09061408f565b60405180910390fd5b600060608673ffffffffffffffffffffffffffffffffffffffff168587604051612c239190613d84565b60006040518083038185875af1925050503d8060008114612c60576040519150601f19603f3d011682016040523d82523d6000602084013e612c65565b606091505b50915091508115612c7a578092505050612cca565b600081511115612c8d5780518082602001fd5b836040517f08c379a0000000000000000000000000000000000000000000000000000000008152600401612cc19190613f4b565b60405180910390fd5b949350505050565b60008083118290612d19576040517f08c379a0000000000000000000000000000000000000000000000000000000008152600401612d109190613f4b565b60405180910390fd5b506000838581612d2557fe5b049050809150509392505050565b600080823b905060008111915050919050565b6040518060600160405280600073ffffffffffffffffffffffffffffffffffffffff168152602001600073ffffffffffffffffffffffffffffffffffffffff168152602001600081525090565b828054600181600116156101000203166002900490600052602060002090601f016020900481019282601f10612dd457803560ff1916838001178555612e02565b82800160010185558215612e02579182015b82811115612e01578235825591602001919060010190612de6565b5b509050612e0f9190612ed5565b5090565b828054600181600116156101000203166002900490600052602060002090601f016020900481019282601f10612e5457805160ff1916838001178555612e82565b82800160010185558215612e82579182015b82811115612e81578251825591602001919060010190612e66565b5b509050612e8f9190612ed5565b5090565b60405180606001604052806000815260200160008152602001606081525090565b60405180606001604052806000815260200160008152602001600081525090565b5b80821115612eee576000816000905550600101612ed6565b5090565b600081359050612f0181614406565b92915050565b600081519050612f1681614406565b92915050565b600081359050612f2b8161441d565b92915050565b60008083601f840112612f4357600080fd5b8235905067ffffffffffffffff811115612f5c57600080fd5b602083019150836020820283011115612f7457600080fd5b9250929050565b600081519050612f8a81614434565b92915050565b600081359050612f9f8161444b565b92915050565b60008083601f840112612fb757600080fd5b8235905067ffffffffffffffff811115612fd057600080fd5b602083019150836001820283011115612fe857600080fd5b9250929050565b600081519050612ffe81614462565b92915050565b60008083601f84011261301657600080fd5b8235905067ffffffffffffffff81111561302f57600080fd5b60208301915083600182028301111561304757600080fd5b9250929050565b60006060828403121561306057600080fd5b61306a6060614207565b9050600061307a848285016130c3565b600083015250602061308e848285016130c3565b60208301525060406130a2848285016130c3565b60408301525092915050565b6000813590506130bd81614479565b92915050565b6000815190506130d281614479565b92915050565b6000815190506130e781614490565b92915050565b6000602082840312156130ff57600080fd5b600061310d84828501612ef2565b91505092915050565b60006020828403121561312857600080fd5b600061313684828501612f07565b91505092915050565b60008060006060848603121561315457600080fd5b600061316286828701612f1c565b935050602061317386828701612ef2565b9250506040613184868287016130ae565b9150509250925092565b600080600080608085870312156131a457600080fd5b60006131b287828801612f1c565b94505060206131c387828801612ef2565b93505060406131d4878288016130ae565b92505060606131e5878288016130ae565b91505092959194509250565b6000806040838503121561320457600080fd5b600061321285828601612f1c565b9250506020613223858286016130ae565b9150509250929050565b60008060008060008060008060a0898b03121561324957600080fd5b60006132578b828c01612ef2565b98505060206132688b828c01612ef2565b975050604089013567ffffffffffffffff81111561328557600080fd5b6132918b828c01612f31565b9650965050606089013567ffffffffffffffff8111156132b057600080fd5b6132bc8b828c01612f31565b9450945050608089013567ffffffffffffffff8111156132db57600080fd5b6132e78b828c01612fa5565b92509250509295985092959890939650565b60008060008060008060c0878903121561331257600080fd5b600061332089828a01612ef2565b965050602061333189828a01612ef2565b955050604061334289828a016130ae565b945050606061335389828a01612ef2565b935050608061336489828a01612ef2565b92505060a061337589828a01612ef2565b9150509295509295509295565b60008060008060006080868803121561339a57600080fd5b60006133a888828901612ef2565b95505060206133b988828901612ef2565b94505060406133ca888289016130ae565b935050606086013567ffffffffffffffff8111156133e757600080fd5b6133f388828901612fa5565b92509250509295509295909350565b60008060008060008060a0878903121561341b57600080fd5b600061342989828a01612ef2565b965050602061343a89828a01612ef2565b955050604061344b89828a016130ae565b945050606061345c89828a016130ae565b935050608087013567ffffffffffffffff81111561347957600080fd5b61348589828a01612fa5565b92509250509295509295509295565b600080604083850312156134a757600080fd5b60006134b585828601612ef2565b92505060206134c6858286016130ae565b9150509250929050565b600080600080606085870312156134e657600080fd5b60006134f487828801612ef2565b9450506020613505878288016130ae565b935050604085013567ffffffffffffffff81111561352257600080fd5b61352e87828801613004565b925092505092959194509250565b60008060008060006080868803121561355457600080fd5b600061356288828901612ef2565b9550506020613573888289016130ae565b945050604086013567ffffffffffffffff81111561359057600080fd5b61359c88828901613004565b935093505060606135af888289016130ae565b9150509295509295909350565b6000806000606084860312156135d157600080fd5b60006135df86828701612ef2565b93505060206135f0868287016130ae565b9250506040613601868287016130ae565b9150509250925092565b60006020828403121561361d57600080fd5b600061362b84828501612f7b565b91505092915050565b60006020828403121561364657600080fd5b600061365484828501612f90565b91505092915050565b60006020828403121561366f57600080fd5b600061367d84828501612fef565b91505092915050565b60006060828403121561369857600080fd5b60006136a68482850161304e565b91505092915050565b6000602082840312156136c157600080fd5b60006136cf848285016130ae565b91505092915050565b6000602082840312156136ea57600080fd5b60006136f8848285016130c3565b91505092915050565b60006020828403121561371357600080fd5b6000613721848285016130d8565b91505092915050565b61373381614342565b82525050565b6137428161429d565b82525050565b6137518161429d565b82525050565b6137686137638261429d565b6143ba565b82525050565b613777816142c1565b82525050565b613786816142cd565b82525050565b600061379782614249565b6137a18185614270565b93506137b1818560208601614387565b80840191505092915050565b60006137c9838561428c565b93506137d6838584614378565b6137df836143e8565b840190509392505050565b60006137f582614254565b6137ff818561427b565b935061380f818560208601614387565b613818816143e8565b840191505092915050565b600061382e82614254565b613838818561428c565b9350613848818560208601614387565b613851816143e8565b840191505092915050565b600081546001811660008114613879576001811461389f576138e3565b607f600283041661388a818761428c565b955060ff1983168652602086019350506138e3565b600282046138ad818761428c565b95506138b885614234565b60005b828110156138da578154818901526001820191506020810190506138bb565b80880195505050505b505092915050565b60006138f860178361428c565b91507f43616c6c6572206973206e6f7420746865206f776e65720000000000000000006000830152602082019050919050565b600061393860098361428c565b91507f4248503a452d34303300000000000000000000000000000000000000000000006000830152602082019050919050565b6000613978601b8361428c565b91507f536166654d6174683a206164646974696f6e206f766572666c6f7700000000006000830152602082019050919050565b60006139b8603a8361428c565b91507f416464726573733a20756e61626c6520746f2073656e642076616c75652c207260008301527f6563697069656e74206d617920686176652072657665727465640000000000006020830152604082019050919050565b6000613a1e601d8361428c565b91507f416464726573733a20696e73756666696369656e742062616c616e63650000006000830152602082019050919050565b6000613a5e60088361428c565b91507f52503a452d3130380000000000000000000000000000000000000000000000006000830152602082019050919050565b6000613a9e60088361428c565b91507f52503a452d3430350000000000000000000000000000000000000000000000006000830152602082019050919050565b6000613ade60218361428c565b91507f536166654d6174683a206d756c7469706c69636174696f6e206f766572666c6f60008301527f77000000000000000000000000000000000000000000000000000000000000006020830152604082019050919050565b6000613b4460008361425f565b9150600082019050919050565b6000613b5e600083614270565b9150600082019050919050565b6000613b78601d8361428c565b91507f416464726573733a2063616c6c20746f206e6f6e2d636f6e74726163740000006000830152602082019050919050565b6000613bb860138361428c565b91507f416c726561647920696e697469616c697a6564000000000000000000000000006000830152602082019050919050565b6000613bf8602a8361428c565b91507f5361666545524332303a204552433230206f7065726174696f6e20646964206e60008301527f6f742073756363656564000000000000000000000000000000000000000000006020830152604082019050919050565b6000613c5e601f8361428c565b91507f5265656e7472616e637947756172643a207265656e7472616e742063616c6c006000830152602082019050919050565b6000606083016000830151613ca96000860182613d23565b506020830151613cbc6020860182613d23565b5060408301518482036040860152613cd482826137ea565b9150508091505092915050565b606082016000820151613cf76000850182613739565b506020820151613d0a6020850182613739565b506040820151613d1d6040850182613d23565b50505050565b613d2c8161432b565b82525050565b613d3b8161432b565b82525050565b613d52613d4d8261432b565b6143de565b82525050565b6000613d648285613757565b601482019150613d748284613d41565b6020820191508190509392505050565b6000613d90828461378c565b915081905092915050565b6000613da682613b51565b9150819050919050565b6000602082019050613dc56000830184613748565b92915050565b6000606082019050613de06000830186613748565b613ded602083018561372a565b613dfa6040830184613d32565b949350505050565b600060a082019050613e176000830187613748565b613e24602083018661372a565b613e316040830185613d32565b613e3e6060830184613d32565b8181036080830152613e4f81613b37565b905095945050505050565b6000606082019050613e6f6000830186613748565b613e7c6020830185613748565b613e896040830184613d32565b949350505050565b6000604082019050613ea66000830185613748565b613eb36020830184613d32565b9392505050565b6000606082019050613ecf6000830186613748565b613edc6020830185613d32565b613ee96040830184613748565b949350505050565b6000602082019050613f06600083018461376e565b92915050565b6000602082019050613f21600083018461377d565b92915050565b60006020820190508181036000830152613f428184866137bd565b90509392505050565b60006020820190508181036000830152613f658184613823565b905092915050565b60006020820190508181036000830152613f87818461385c565b905092915050565b60006020820190508181036000830152613fa8816138eb565b9050919050565b60006020820190508181036000830152613fc88161392b565b9050919050565b60006020820190508181036000830152613fe88161396b565b9050919050565b60006020820190508181036000830152614008816139ab565b9050919050565b6000602082019050818103600083015261402881613a11565b9050919050565b6000602082019050818103600083015261404881613a51565b9050919050565b6000602082019050818103600083015261406881613a91565b9050919050565b6000602082019050818103600083015261408881613ad1565b9050919050565b600060208201905081810360008301526140a881613b6b565b9050919050565b600060208201905081810360008301526140c881613bab565b9050919050565b600060208201905081810360008301526140e881613beb565b9050919050565b6000602082019050818103600083015261410881613c51565b9050919050565b600060208201905081810360008301526141298184613c91565b905092915050565b60006060820190506141466000830184613ce1565b92915050565b60006020820190506141616000830184613d32565b92915050565b600060608201905061417c6000830187613d32565b818103602083015261418f8185876137bd565b905061419e6040830184613d32565b95945050505050565b60006040820190506141bc6000830185613d32565b6141c96020830184613d32565b9392505050565b60006060820190506141e56000830186613d32565b6141f26020830185613d32565b6141ff6040830184613d32565b949350505050565b6000604051905081810181811067ffffffffffffffff8211171561422a57600080fd5b8060405250919050565b60008190508160005260206000209050919050565b600081519050919050565b600081519050919050565b600082825260208201905092915050565b600081905092915050565b600082825260208201905092915050565b600082825260208201905092915050565b60006142a88261430b565b9050919050565b60006142ba8261430b565b9050919050565b60008115159050919050565b60007fffffffff0000000000000000000000000000000000000000000000000000000082169050919050565b60006143048261429d565b9050919050565b600073ffffffffffffffffffffffffffffffffffffffff82169050919050565b6000819050919050565b600060ff82169050919050565b600061434d82614354565b9050919050565b600061435f82614366565b9050919050565b60006143718261430b565b9050919050565b82818337600083830152505050565b60005b838110156143a557808201518184015260208101905061438a565b838111156143b4576000848401525b50505050565b60006143c5826143cc565b9050919050565b60006143d7826143f9565b9050919050565b6000819050919050565b6000601f19601f8301169050919050565b60008160601b9050919050565b61440f8161429d565b811461441a57600080fd5b50565b614426816142af565b811461443157600080fd5b50565b61443d816142c1565b811461444857600080fd5b50565b614454816142cd565b811461445f57600080fd5b50565b61446b816142f9565b811461447657600080fd5b50565b6144828161432b565b811461448d57600080fd5b50565b61449981614335565b81146144a457600080fd5b5056fea26469706673582212204356d6320c37bd77e25ce80386710e19ae4d532775fcaa84884d23f1f1de982364736f6c634300060c0033",
  "devdoc": {
    "kind": "dev",
    "methods": {
      "owner()": {
        "details": "Returns the address of the current owner."
      },
      "renounceOwnership()": {
        "details": "Leaves the contract without owner. It will not be possible to call `onlyOwner` functions anymore. Can only be called by the current owner. NOTE: Renouncing ownership will leave the contract without an owner, thereby removing any functionality that is only available to the owner."
      },
      "transferOwnership(address)": {
        "details": "Transfers ownership of the contract to a new account (`newOwner`). Can only be called by the current owner."
      }
    },
    "version": 1
  },
  "userdoc": {
    "kind": "user",
    "methods": {},
    "version": 1
  },
  "storageLayout": {
    "storage": [
      {
        "astId": 1630,
        "contract": "contracts/v1/incentives/RewardProgramFactory.sol:RewardProgramFactory",
        "label": "_owner",
        "offset": 0,
        "slot": "0",
        "type": "t_address"
      },
      {
        "astId": 15893,
        "contract": "contracts/v1/incentives/RewardProgramFactory.sol:RewardProgramFactory",
        "label": "_template",
        "offset": 0,
        "slot": "1",
        "type": "t_address"
      }
    ],
    "types": {
      "t_address": {
        "encoding": "inplace",
        "label": "address",
        "numberOfBytes": "20"
      }
    }
  }
}