{
  "address": "0x66FA8602244eAE3887AD2B0eac0fe2CA1aeF60bE",
  "abi": [
    {
      "inputs": [],
      "stateMutability": "nonpayable",
      "type": "constructor"
    },
    {
      "anonymous": false,
      "inputs": [
        {
          "indexed": true,
          "internalType": "address",
          "name": "previousOwner",
          "type": "address"
        },
        {
          "indexed": true,
          "internalType": "address",
          "name": "newOwner",
          "type": "address"
        }
      ],
      "name": "OwnershipTransferred",
      "type": "event"
    },
    {
      "anonymous": false,
      "inputs": [
        {
          "indexed": true,
          "internalType": "address",
          "name": "rewardProgram",
          "type": "address"
        }
      ],
      "name": "RewardProgramCreated",
      "type": "event"
    },
    {
      "anonymous": false,
      "inputs": [
        {
          "indexed": true,
          "internalType": "address",
          "name": "receiver",
          "type": "address"
        },
        {
          "indexed": true,
          "internalType": "address",
          "name": "tokenAddress",
          "type": "address"
        },
        {
          "indexed": true,
          "internalType": "uint256",
          "name": "tokenId",
          "type": "uint256"
        },
        {
          "indexed": false,
          "internalType": "uint256",
          "name": "amount",
          "type": "uint256"
        }
      ],
      "name": "WithdrawStuckERC1155",
      "type": "event"
    },
    {
      "anonymous": false,
      "inputs": [
        {
          "indexed": true,
          "internalType": "address",
          "name": "receiver",
          "type": "address"
        },
        {
          "indexed": true,
          "internalType": "address",
          "name": "tokenAddress",
          "type": "address"
        },
        {
          "indexed": false,
          "internalType": "uint256",
          "name": "amount",
          "type": "uint256"
        }
      ],
      "name": "WithdrawStuckERC20",
      "type": "event"
    },
    {
      "anonymous": false,
      "inputs": [
        {
          "indexed": true,
          "internalType": "address",
          "name": "receiver",
          "type": "address"
        },
        {
          "indexed": true,
          "internalType": "address",
          "name": "tokenAddress",
          "type": "address"
        },
        {
          "indexed": true,
          "internalType": "uint256",
          "name": "tokenId",
          "type": "uint256"
        }
      ],
      "name": "WithdrawStuckERC721",
      "type": "event"
    },
    {
      "anonymous": false,
      "inputs": [
        {
          "indexed": true,
          "internalType": "address",
          "name": "receiver",
          "type": "address"
        },
        {
          "indexed": false,
          "internalType": "uint256",
          "name": "amount",
          "type": "uint256"
        }
      ],
      "name": "WithdrawStuckEther",
      "type": "event"
    },
    {
      "inputs": [],
      "name": "_template",
      "outputs": [
        {
          "internalType": "address",
          "name": "",
          "type": "address"
        }
      ],
      "stateMutability": "view",
      "type": "function"
    },
    {
      "inputs": [
        {
          "internalType": "address",
          "name": "stakingToken",
          "type": "address"
        },
        {
          "internalType": "address",
          "name": "rewardToken",
          "type": "address"
        },
        {
          "internalType": "uint256",
          "name": "baseMultiplier",
          "type": "uint256"
        },
        {
          "internalType": "address",
          "name": "chargedManagers",
          "type": "address"
        },
        {
          "internalType": "address",
          "name": "universe",
          "type": "address"
        }
      ],
      "name": "createRewardProgram",
      "outputs": [
        {
          "internalType": "address",
          "name": "",
          "type": "address"
        }
      ],
      "stateMutability": "nonpayable",
      "type": "function"
    },
    {
      "inputs": [],
      "name": "owner",
      "outputs": [
        {
          "internalType": "address",
          "name": "",
          "type": "address"
        }
      ],
      "stateMutability": "view",
      "type": "function"
    },
    {
      "inputs": [],
      "name": "renounceOwnership",
      "outputs": [],
      "stateMutability": "nonpayable",
      "type": "function"
    },
    {
      "inputs": [
        {
          "internalType": "address",
          "name": "newOwner",
          "type": "address"
        }
      ],
      "name": "transferOwnership",
      "outputs": [],
      "stateMutability": "nonpayable",
      "type": "function"
    },
    {
      "inputs": [
        {
          "internalType": "address payable",
          "name": "receiver",
          "type": "address"
        },
        {
          "internalType": "address",
          "name": "tokenAddress",
          "type": "address"
        },
        {
          "internalType": "uint256",
          "name": "tokenId",
          "type": "uint256"
        },
        {
          "internalType": "uint256",
          "name": "amount",
          "type": "uint256"
        }
      ],
      "name": "withdrawERC1155",
      "outputs": [],
      "stateMutability": "nonpayable",
      "type": "function"
    },
    {
      "inputs": [
        {
          "internalType": "address payable",
          "name": "receiver",
          "type": "address"
        },
        {
          "internalType": "address",
          "name": "tokenAddress",
          "type": "address"
        },
        {
          "internalType": "uint256",
          "name": "tokenId",
          "type": "uint256"
        }
      ],
      "name": "withdrawERC721",
      "outputs": [],
      "stateMutability": "nonpayable",
      "type": "function"
    },
    {
      "inputs": [
        {
          "internalType": "address payable",
          "name": "receiver",
          "type": "address"
        },
        {
          "internalType": "address",
          "name": "tokenAddress",
          "type": "address"
        },
        {
          "internalType": "uint256",
          "name": "amount",
          "type": "uint256"
        }
      ],
      "name": "withdrawErc20",
      "outputs": [],
      "stateMutability": "nonpayable",
      "type": "function"
    },
    {
      "inputs": [
        {
          "internalType": "address payable",
          "name": "receiver",
          "type": "address"
        },
        {
          "internalType": "uint256",
          "name": "amount",
          "type": "uint256"
        }
      ],
      "name": "withdrawEther",
      "outputs": [],
      "stateMutability": "nonpayable",
      "type": "function"
    }
  ],
  "transactionHash": "0x7d77452d5a646de63dfbbab78e99b4767e99a0b1437b82300c54a0d1e702711d",
  "args": [],
  "numDeployments": 1,
  "solcInputHash": "3d2139ca54f3d1440e3ae5922cd84b25",
  "bytecode": "0x60806040523480156200001157600080fd5b506000620000246200013460201b60201c565b9050806000806101000a81548173ffffffffffffffffffffffffffffffffffffffff021916908373ffffffffffffffffffffffffffffffffffffffff1602179055508073ffffffffffffffffffffffffffffffffffffffff16600073ffffffffffffffffffffffffffffffffffffffff167f8be0079c531659141344cd1fd0a4f28419497f9722a3daafe3b4186f6b6457e060405160405180910390a350604051620000d0906200013c565b604051809103906000f080158015620000ed573d6000803e3d6000fd5b50600160006101000a81548173ffffffffffffffffffffffffffffffffffffffff021916908373ffffffffffffffffffffffffffffffffffffffff1602179055506200014a565b600033905090565b6145908062001e9083390190565b611d36806200015a6000396000f3fe608060405234801561001057600080fd5b50600436106100935760003560e01c80636fe6fabb116100665780636fe6fabb1461011c578063715018a61461013a5780638da5cb5b14610144578063a0edb48b14610162578063f2fde38b1461017e57610093565b80631593dee1146100985780634025feb2146100b4578063522f6815146100d05780636f9d5f78146100ec575b600080fd5b6100b260048036038101906100ad919061145c565b61019a565b005b6100ce60048036038101906100c9919061145c565b61023f565b005b6100ea60048036038101906100e5919061150e565b6102e4565b005b6101066004803603810190610101919061154a565b610387565b604051610113919061193c565b60405180910390f35b61012461051f565b604051610131919061193c565b60405180910390f35b610142610545565b005b61014c610698565b604051610159919061193c565b60405180910390f35b61017c600480360381019061017791906114ab565b6106c1565b005b6101986004803603810190610193919061140a565b610768565b005b6101a261092a565b73ffffffffffffffffffffffffffffffffffffffff1660008054906101000a900473ffffffffffffffffffffffffffffffffffffffff1673ffffffffffffffffffffffffffffffffffffffff161461022f576040517f08c379a000000000000000000000000000000000000000000000000000000000815260040161022690611b12565b60405180910390fd5b61023a838383610932565b505050565b61024761092a565b73ffffffffffffffffffffffffffffffffffffffff1660008054906101000a900473ffffffffffffffffffffffffffffffffffffffff1673ffffffffffffffffffffffffffffffffffffffff16146102d4576040517f08c379a00000000000000000000000000000000000000000000000000000000081526004016102cb90611b12565b60405180910390fd5b6102df838383610ac7565b505050565b6102ec61092a565b73ffffffffffffffffffffffffffffffffffffffff1660008054906101000a900473ffffffffffffffffffffffffffffffffffffffff1673ffffffffffffffffffffffffffffffffffffffff1614610379576040517f08c379a000000000000000000000000000000000000000000000000000000000815260040161037090611b12565b60405180910390fd5b6103838282610cc3565b5050565b600061039161092a565b73ffffffffffffffffffffffffffffffffffffffff1660008054906101000a900473ffffffffffffffffffffffffffffffffffffffff1673ffffffffffffffffffffffffffffffffffffffff161461041e576040517f08c379a000000000000000000000000000000000000000000000000000000000815260040161041590611b12565b60405180910390fd5b600061044b600160009054906101000a900473ffffffffffffffffffffffffffffffffffffffff16610db5565b905060008190508073ffffffffffffffffffffffffffffffffffffffff1663ff9935cb898989898961047b61092a565b6040518763ffffffff1660e01b815260040161049c969594939291906119e6565b600060405180830381600087803b1580156104b657600080fd5b505af11580156104ca573d6000803e3d6000fd5b505050508173ffffffffffffffffffffffffffffffffffffffff167f6ecb2838bef4560681475e8bb5e7feccefe33df915df2d6757024bc6fe4c616a60405160405180910390a2819250505095945050505050565b600160009054906101000a900473ffffffffffffffffffffffffffffffffffffffff1681565b61054d61092a565b73ffffffffffffffffffffffffffffffffffffffff1660008054906101000a900473ffffffffffffffffffffffffffffffffffffffff1673ffffffffffffffffffffffffffffffffffffffff16146105da576040517f08c379a00000000000000000000000000000000000000000000000000000000081526004016105d190611b12565b60405180910390fd5b600073ffffffffffffffffffffffffffffffffffffffff1660008054906101000a900473ffffffffffffffffffffffffffffffffffffffff1673ffffffffffffffffffffffffffffffffffffffff167f8be0079c531659141344cd1fd0a4f28419497f9722a3daafe3b4186f6b6457e060405160405180910390a360008060006101000a81548173ffffffffffffffffffffffffffffffffffffffff021916908373ffffffffffffffffffffffffffffffffffffffff160217905550565b60008060009054906101000a900473ffffffffffffffffffffffffffffffffffffffff16905090565b6106c961092a565b73ffffffffffffffffffffffffffffffffffffffff1660008054906101000a900473ffffffffffffffffffffffffffffffffffffffff1673ffffffffffffffffffffffffffffffffffffffff1614610756576040517f08c379a000000000000000000000000000000000000000000000000000000000815260040161074d90611b12565b60405180910390fd5b61076284848484610e1f565b50505050565b61077061092a565b73ffffffffffffffffffffffffffffffffffffffff1660008054906101000a900473ffffffffffffffffffffffffffffffffffffffff1673ffffffffffffffffffffffffffffffffffffffff16146107fd576040517f08c379a00000000000000000000000000000000000000000000000000000000081526004016107f490611b12565b60405180910390fd5b600073ffffffffffffffffffffffffffffffffffffffff168173ffffffffffffffffffffffffffffffffffffffff16141561086d576040517f08c379a000000000000000000000000000000000000000000000000000000000815260040161086490611a92565b60405180910390fd5b8073ffffffffffffffffffffffffffffffffffffffff1660008054906101000a900473ffffffffffffffffffffffffffffffffffffffff1673ffffffffffffffffffffffffffffffffffffffff167f8be0079c531659141344cd1fd0a4f28419497f9722a3daafe3b4186f6b6457e060405160405180910390a3806000806101000a81548173ffffffffffffffffffffffffffffffffffffffff021916908373ffffffffffffffffffffffffffffffffffffffff16021790555050565b600033905090565b600073ffffffffffffffffffffffffffffffffffffffff168373ffffffffffffffffffffffffffffffffffffffff1614156109a2576040517f08c379a000000000000000000000000000000000000000000000000000000000815260040161099990611ab2565b60405180910390fd5b808273ffffffffffffffffffffffffffffffffffffffff166370a08231306040518263ffffffff1660e01b81526004016109dc919061193c565b60206040518083038186803b1580156109f457600080fd5b505afa158015610a08573d6000803e3d6000fd5b505050506040513d601f19601f82011682018060405250810190610a2c91906115ea565b10610ac257610a5c83828473ffffffffffffffffffffffffffffffffffffffff16610ffd9092919063ffffffff16565b8173ffffffffffffffffffffffffffffffffffffffff168373ffffffffffffffffffffffffffffffffffffffff167f6c9d637297625e945b296ff73a71fcfbd0a9e062652b6491a921c4c60194176b83604051610ab99190611b72565b60405180910390a35b505050565b600073ffffffffffffffffffffffffffffffffffffffff168373ffffffffffffffffffffffffffffffffffffffff161415610b37576040517f08c379a0000000000000000000000000000000000000000000000000000000008152600401610b2e90611ab2565b60405180910390fd5b3073ffffffffffffffffffffffffffffffffffffffff168273ffffffffffffffffffffffffffffffffffffffff16636352211e836040518263ffffffff1660e01b8152600401610b879190611b72565b60206040518083038186803b158015610b9f57600080fd5b505afa158015610bb3573d6000803e3d6000fd5b505050506040513d601f19601f82011682018060405250810190610bd79190611433565b73ffffffffffffffffffffffffffffffffffffffff161415610cbe578173ffffffffffffffffffffffffffffffffffffffff166323b872dd3085846040518463ffffffff1660e01b8152600401610c3093929190611957565b600060405180830381600087803b158015610c4a57600080fd5b505af1158015610c5e573d6000803e3d6000fd5b50505050808273ffffffffffffffffffffffffffffffffffffffff168473ffffffffffffffffffffffffffffffffffffffff167ffefe036cac4ee3a4aca074a81cbcc4376e1484693289078dbec149c890101d5b60405160405180910390a45b505050565b600073ffffffffffffffffffffffffffffffffffffffff168273ffffffffffffffffffffffffffffffffffffffff161415610d33576040517f08c379a0000000000000000000000000000000000000000000000000000000008152600401610d2a90611ab2565b60405180910390fd5b804710610db157610d63818373ffffffffffffffffffffffffffffffffffffffff1661108390919063ffffffff16565b8173ffffffffffffffffffffffffffffffffffffffff167eddb683bb45cd5d0ad8a200c6fae7152b1c236ee90a4a37db692407f5cc38bd82604051610da89190611b72565b60405180910390a25b5050565b6000808260601b90506040517f3d602d80600a3d3981f3363d3d373d3d3d363d7300000000000000000000000081528160148201527f5af43d82803e903d91602b57fd5bf3000000000000000000000000000000000060288201526037816000f092505050919050565b600073ffffffffffffffffffffffffffffffffffffffff168473ffffffffffffffffffffffffffffffffffffffff161415610e8f576040517f08c379a0000000000000000000000000000000000000000000000000000000008152600401610e8690611ab2565b60405180910390fd5b808373ffffffffffffffffffffffffffffffffffffffff1662fdd58e30856040518363ffffffff1660e01b8152600401610eca929190611a47565b60206040518083038186803b158015610ee257600080fd5b505afa158015610ef6573d6000803e3d6000fd5b505050506040513d601f19601f82011682018060405250810190610f1a91906115ea565b10610ff7578273ffffffffffffffffffffffffffffffffffffffff1663f242432a308685856040518563ffffffff1660e01b8152600401610f5e949392919061198e565b600060405180830381600087803b158015610f7857600080fd5b505af1158015610f8c573d6000803e3d6000fd5b50505050818373ffffffffffffffffffffffffffffffffffffffff168573ffffffffffffffffffffffffffffffffffffffff167f620337bf89eea2b9ae2657beead83b5fa620452817118348aff96e201d52598b84604051610fee9190611b72565b60405180910390a45b50505050565b61107e8363a9059cbb60e01b848460405160240161101c929190611a47565b604051602081830303815290604052907bffffffffffffffffffffffffffffffffffffffffffffffffffffffff19166020820180517bffffffffffffffffffffffffffffffffffffffffffffffffffffffff8381831617835250505050611177565b505050565b804710156110c6576040517f08c379a00000000000000000000000000000000000000000000000000000000081526004016110bd90611af2565b60405180910390fd5b60008273ffffffffffffffffffffffffffffffffffffffff16826040516110ec90611927565b60006040518083038185875af1925050503d8060008114611129576040519150601f19603f3d011682016040523d82523d6000602084013e61112e565b606091505b5050905080611172576040517f08c379a000000000000000000000000000000000000000000000000000000000815260040161116990611ad2565b60405180910390fd5b505050565b60606111d9826040518060400160405280602081526020017f5361666545524332303a206c6f772d6c6576656c2063616c6c206661696c65648152508573ffffffffffffffffffffffffffffffffffffffff1661123e9092919063ffffffff16565b905060008151111561123957808060200190518101906111f991906115c1565b611238576040517f08c379a000000000000000000000000000000000000000000000000000000000815260040161122f90611b52565b60405180910390fd5b5b505050565b606061124d8484600085611256565b90509392505050565b606061126185611379565b6112a0576040517f08c379a000000000000000000000000000000000000000000000000000000000815260040161129790611b32565b60405180910390fd5b600060608673ffffffffffffffffffffffffffffffffffffffff1685876040516112ca9190611910565b60006040518083038185875af1925050503d8060008114611307576040519150601f19603f3d011682016040523d82523d6000602084013e61130c565b606091505b50915091508115611321578092505050611371565b6000815111156113345780518082602001fd5b836040517f08c379a00000000000000000000000000000000000000000000000000000000081526004016113689190611a70565b60405180910390fd5b949350505050565b600080823b905060008111915050919050565b60008135905061139b81611ca4565b92915050565b6000815190506113b081611ca4565b92915050565b6000813590506113c581611cbb565b92915050565b6000815190506113da81611cd2565b92915050565b6000813590506113ef81611ce9565b92915050565b60008151905061140481611ce9565b92915050565b60006020828403121561141c57600080fd5b600061142a8482850161138c565b91505092915050565b60006020828403121561144557600080fd5b6000611453848285016113a1565b91505092915050565b60008060006060848603121561147157600080fd5b600061147f868287016113b6565b93505060206114908682870161138c565b92505060406114a1868287016113e0565b9150509250925092565b600080600080608085870312156114c157600080fd5b60006114cf878288016113b6565b94505060206114e08782880161138c565b93505060406114f1878288016113e0565b9250506060611502878288016113e0565b91505092959194509250565b6000806040838503121561152157600080fd5b600061152f858286016113b6565b9250506020611540858286016113e0565b9150509250929050565b600080600080600060a0868803121561156257600080fd5b60006115708882890161138c565b95505060206115818882890161138c565b9450506040611592888289016113e0565b93505060606115a38882890161138c565b92505060806115b48882890161138c565b9150509295509295909350565b6000602082840312156115d357600080fd5b60006115e1848285016113cb565b91505092915050565b6000602082840312156115fc57600080fd5b600061160a848285016113f5565b91505092915050565b61161c81611c2a565b82525050565b61162b81611bd0565b82525050565b600061163c82611b8d565b6116468185611bb4565b9350611656818560208601611c60565b80840191505092915050565b600061166d82611b98565b6116778185611bbf565b9350611687818560208601611c60565b61169081611c93565b840191505092915050565b60006116a8602683611bbf565b91507f4f776e61626c653a206e6577206f776e657220697320746865207a65726f206160008301527f64647265737300000000000000000000000000000000000000000000000000006020830152604082019050919050565b600061170e600983611bbf565b91507f4248503a452d34303300000000000000000000000000000000000000000000006000830152602082019050919050565b600061174e603a83611bbf565b91507f416464726573733a20756e61626c6520746f2073656e642076616c75652c207260008301527f6563697069656e74206d617920686176652072657665727465640000000000006020830152604082019050919050565b60006117b4601d83611bbf565b91507f416464726573733a20696e73756666696369656e742062616c616e63650000006000830152602082019050919050565b60006117f4602083611bbf565b91507f4f776e61626c653a2063616c6c6572206973206e6f7420746865206f776e65726000830152602082019050919050565b6000611834600083611ba3565b9150600082019050919050565b600061184e600083611bb4565b9150600082019050919050565b6000611868601d83611bbf565b91507f416464726573733a2063616c6c20746f206e6f6e2d636f6e74726163740000006000830152602082019050919050565b60006118a8602a83611bbf565b91507f5361666545524332303a204552433230206f7065726174696f6e20646964206e60008301527f6f742073756363656564000000000000000000000000000000000000000000006020830152604082019050919050565b61190a81611c20565b82525050565b600061191c8284611631565b915081905092915050565b600061193282611841565b9150819050919050565b60006020820190506119516000830184611622565b92915050565b600060608201905061196c6000830186611622565b6119796020830185611613565b6119866040830184611901565b949350505050565b600060a0820190506119a36000830187611622565b6119b06020830186611613565b6119bd6040830185611901565b6119ca6060830184611901565b81810360808301526119db81611827565b905095945050505050565b600060c0820190506119fb6000830189611622565b611a086020830188611622565b611a156040830187611901565b611a226060830186611622565b611a2f6080830185611622565b611a3c60a0830184611613565b979650505050505050565b6000604082019050611a5c6000830185611622565b611a696020830184611901565b9392505050565b60006020820190508181036000830152611a8a8184611662565b905092915050565b60006020820190508181036000830152611aab8161169b565b9050919050565b60006020820190508181036000830152611acb81611701565b9050919050565b60006020820190508181036000830152611aeb81611741565b9050919050565b60006020820190508181036000830152611b0b816117a7565b9050919050565b60006020820190508181036000830152611b2b816117e7565b9050919050565b60006020820190508181036000830152611b4b8161185b565b9050919050565b60006020820190508181036000830152611b6b8161189b565b9050919050565b6000602082019050611b876000830184611901565b92915050565b600081519050919050565b600081519050919050565b600082825260208201905092915050565b600081905092915050565b600082825260208201905092915050565b6000611bdb82611c00565b9050919050565b6000611bed82611c00565b9050919050565b60008115159050919050565b600073ffffffffffffffffffffffffffffffffffffffff82169050919050565b6000819050919050565b6000611c3582611c3c565b9050919050565b6000611c4782611c4e565b9050919050565b6000611c5982611c00565b9050919050565b60005b83811015611c7e578082015181840152602081019050611c63565b83811115611c8d576000848401525b50505050565b6000601f19601f8301169050919050565b611cad81611bd0565b8114611cb857600080fd5b50565b611cc481611be2565b8114611ccf57600080fd5b50565b611cdb81611bf4565b8114611ce657600080fd5b50565b611cf281611c20565b8114611cfd57600080fd5b5056fea2646970667358221220824475152c8b12acf93d370d2470563fef191e87210adea2fa7a607eaf53fe3764736f6c634300060c0033608060405234801561001057600080fd5b506001600081905550614568806100286000396000f3fe608060405234801561001057600080fd5b50600436106101585760003560e01c8063533f852e116100c3578063ae9704cd1161007c578063ae9704cd146103bd578063bc197c81146103d9578063dae9e37914610409578063e3043ee814610427578063f23a6e6114610457578063ff9935cb1461048757610158565b8063533f852e146102eb57806370d2e5cd1461031b57806378448349146103375780638aee8127146103675780638da5cb5b14610383578063a0edb48b146103a157610158565b8063352685bc11610115578063352685bc1461022f5780634025feb21461024b57806346c65f6214610267578063494b01001461028357806350d0c63c1461029f578063522f6815146102cf57610158565b806301ffc9a71461015d57806314e5f6681461018d578063150b7a02146101ab5780631593dee1146101db5780631e9b12ef146101f75780631f5b149f14610213575b600080fd5b61017760048036038101906101729190613683565b6104a3565b6040516101849190613f7c565b60405180910390f35b6101956105ea565b6040516101a291906141bc565b60405180910390f35b6101c560048036038101906101c091906133d1565b6106ba565b6040516101d29190613f97565b60405180910390f35b6101f560048036038101906101f0919061318e565b6106cf565b005b610211600480360381019061020c919061313c565b61076f565b005b61022d6004803603810190610228919061313c565b610846565b005b610249600480360381019061024491906136fe565b61091a565b005b6102656004803603810190610260919061318e565b610acb565b005b610281600480360381019061027c919061358b565b610b6b565b005b61029d6004803603810190610298919061351f565b610cc7565b005b6102b960048036038101906102b4919061360b565b610ffb565b6040516102c691906141d7565b60405180910390f35b6102e960048036038101906102e49190613240565b6112f4565b005b610305600480360381019061030091906134e3565b611392565b60405161031291906141d7565b60405180910390f35b610335600480360381019061033091906136fe565b6113e0565b005b610351600480360381019061034c91906136fe565b61147d565b60405161035e919061419a565b60405180910390f35b610381600480360381019061037c919061313c565b611560565b005b61038b611637565b6040516103989190613e3b565b60405180910390f35b6103bb60048036038101906103b691906131dd565b611661565b005b6103d760048036038101906103d2919061313c565b611703565b005b6103f360048036038101906103ee919061327c565b6117d7565b6040516104009190613f97565b60405180910390f35b6104116117e5565b60405161041e91906141d7565b60405180910390f35b610441600480360381019061043c9190613750565b6117f4565b60405161044e91906141d7565b60405180910390f35b610471600480360381019061046c9190613451565b611808565b60405161047e9190613f97565b60405180910390f35b6104a1600480360381019061049c9190613348565b61181e565b005b60007f150b7a02000000000000000000000000000000000000000000000000000000007bffffffffffffffffffffffffffffffffffffffffffffffffffffffff1916827bffffffffffffffffffffffffffffffffffffffffffffffffffffffff1916148061056e57507f4e2312e0000000000000000000000000000000000000000000000000000000007bffffffffffffffffffffffffffffffffffffffffffffffffffffffff1916827bffffffffffffffffffffffffffffffffffffffffffffffffffffffff1916145b806105d657507f01ffc9a7000000000000000000000000000000000000000000000000000000007bffffffffffffffffffffffffffffffffffffffffffffffffffffffff1916827bffffffffffffffffffffffffffffffffffffffffffffffffffffffff1916145b156105e457600190506105e5565b5b919050565b6105f2612d95565b60046040518060600160405290816000820160009054906101000a900473ffffffffffffffffffffffffffffffffffffffff1673ffffffffffffffffffffffffffffffffffffffff1673ffffffffffffffffffffffffffffffffffffffff1681526020016001820160009054906101000a900473ffffffffffffffffffffffffffffffffffffffff1673ffffffffffffffffffffffffffffffffffffffff1673ffffffffffffffffffffffffffffffffffffffff168152602001600282015481525050905090565b600063150b7a0260e01b905095945050505050565b3373ffffffffffffffffffffffffffffffffffffffff16600160009054906101000a900473ffffffffffffffffffffffffffffffffffffffff1673ffffffffffffffffffffffffffffffffffffffff161461075f576040517f08c379a00000000000000000000000000000000000000000000000000000000081526004016107569061401a565b60405180910390fd5b61076a838383611a0c565b505050565b3373ffffffffffffffffffffffffffffffffffffffff16600160009054906101000a900473ffffffffffffffffffffffffffffffffffffffff1673ffffffffffffffffffffffffffffffffffffffff16146107ff576040517f08c379a00000000000000000000000000000000000000000000000000000000081526004016107f69061401a565b60405180910390fd5b80600460000160006101000a81548173ffffffffffffffffffffffffffffffffffffffff021916908373ffffffffffffffffffffffffffffffffffffffff16021790555050565b3373ffffffffffffffffffffffffffffffffffffffff16600160009054906101000a900473ffffffffffffffffffffffffffffffffffffffff1673ffffffffffffffffffffffffffffffffffffffff16146108d6576040517f08c379a00000000000000000000000000000000000000000000000000000000081526004016108cd9061401a565b60405180910390fd5b80600360006101000a81548173ffffffffffffffffffffffffffffffffffffffff021916908373ffffffffffffffffffffffffffffffffffffffff16021790555050565b3373ffffffffffffffffffffffffffffffffffffffff16600160009054906101000a900473ffffffffffffffffffffffffffffffffffffffff1673ffffffffffffffffffffffffffffffffffffffff16146109aa576040517f08c379a00000000000000000000000000000000000000000000000000000000081526004016109a19061401a565b60405180910390fd5b600073ffffffffffffffffffffffffffffffffffffffff16600460010160009054906101000a900473ffffffffffffffffffffffffffffffffffffffff1673ffffffffffffffffffffffffffffffffffffffff161415610a3f576040517f08c379a0000000000000000000000000000000000000000000000000000000008152600401610a36906140da565b60405180910390fd5b610a91333083600460010160009054906101000a900473ffffffffffffffffffffffffffffffffffffffff1673ffffffffffffffffffffffffffffffffffffffff16611ba1909392919063ffffffff16565b7fcbd64454da4b3587b11b8f8170d7656cbe58e29ee18fd715b0e79ad85edb6e5d81604051610ac091906141d7565b60405180910390a150565b3373ffffffffffffffffffffffffffffffffffffffff16600160009054906101000a900473ffffffffffffffffffffffffffffffffffffffff1673ffffffffffffffffffffffffffffffffffffffff1614610b5b576040517f08c379a0000000000000000000000000000000000000000000000000000000008152600401610b529061401a565b60405180910390fd5b610b66838383611c2a565b505050565b600260009054906101000a900473ffffffffffffffffffffffffffffffffffffffff1673ffffffffffffffffffffffffffffffffffffffff163373ffffffffffffffffffffffffffffffffffffffff1614610bfb576040517f08c379a0000000000000000000000000000000000000000000000000000000008152600401610bf2906140ba565b60405180910390fd5b6000610c26858773ffffffffffffffffffffffffffffffffffffffff16611e2690919063ffffffff16565b90506000600760008381526020019081526020016000209050600081600001541415610c6a574381600001819055508484826002019190610c68929190612de2565b505b8673ffffffffffffffffffffffffffffffffffffffff167f30d53e48465c48642e346a636a4eef45c72095b65bef5825308376e2f59f09e287878787604051610cb694939291906141f2565b60405180910390a250505050505050565b3373ffffffffffffffffffffffffffffffffffffffff16600160009054906101000a900473ffffffffffffffffffffffffffffffffffffffff1673ffffffffffffffffffffffffffffffffffffffff1614610d57576040517f08c379a0000000000000000000000000000000000000000000000000000000008152600401610d4e9061401a565b60405180910390fd5b6000610d82848673ffffffffffffffffffffffffffffffffffffffff16611e2690919063ffffffff16565b90506000600360009054906101000a900473ffffffffffffffffffffffffffffffffffffffff1673ffffffffffffffffffffffffffffffffffffffff166334b7328d85856040518363ffffffff1660e01b8152600401610de3929190613fb2565b60206040518083038186803b158015610dfb57600080fd5b505afa158015610e0f573d6000803e3d6000fd5b505050506040513d601f19601f82011682018060405250810190610e3391906136ac565b905060008173ffffffffffffffffffffffffffffffffffffffff16632da9ef818888600460000160009054906101000a900473ffffffffffffffffffffffffffffffffffffffff166040518463ffffffff1660e01b8152600401610e9993929190613f45565b602060405180830381600087803b158015610eb357600080fd5b505af1158015610ec7573d6000803e3d6000fd5b505050506040513d601f19601f82011682018060405250810190610eeb9190613727565b90506000811115610ff25760405180606001604052804381526020016000815260200186868080601f016020809104026020016040519081016040528093929190818152602001838380828437600081840152601f19601f820116905080830192505050505050508152506007600085815260200190815260200160002060008201518160000155602082015181600101556040820151816002019080519060200190610f99929190612e62565b509050508673ffffffffffffffffffffffffffffffffffffffff167fdd1b8616b3983aa94529955a2f7d0dd75e5a93e53875372ea41a9eab5e3ef32687878785604051610fe994939291906141f2565b60405180910390a25b50505050505050565b6000600260009054906101000a900473ffffffffffffffffffffffffffffffffffffffff1673ffffffffffffffffffffffffffffffffffffffff163373ffffffffffffffffffffffffffffffffffffffff161461108d576040517f08c379a0000000000000000000000000000000000000000000000000000000008152600401611084906140ba565b60405180910390fd5b611095611e5c565b60006110c0848673ffffffffffffffffffffffffffffffffffffffff16611e2690919063ffffffff16565b9050600060076000838152602001908152602001600020905060006110e58386611eac565b90506110fe818360010154611edb90919063ffffffff16565b82600101819055506000600360009054906101000a900473ffffffffffffffffffffffffffffffffffffffff1673ffffffffffffffffffffffffffffffffffffffff166334b7328d846002016040518263ffffffff1660e01b81526004016111669190613ff8565b60206040518083038186803b15801561117e57600080fd5b505afa158015611192573d6000803e3d6000fd5b505050506040513d601f19601f820116820180604052508101906111b691906136ac565b905060008173ffffffffffffffffffffffffffffffffffffffff16632da9ef818a8a600460000160009054906101000a900473ffffffffffffffffffffffffffffffffffffffff166040518463ffffffff1660e01b815260040161121c93929190613f45565b602060405180830381600087803b15801561123657600080fd5b505af115801561124a573d6000803e3d6000fd5b505050506040513d601f19601f8201168201806040525081019061126e9190613727565b9050600081141561128457600084600001819055505b61128e8989611f30565b95508873ffffffffffffffffffffffffffffffffffffffff167f8abeaea5da22bf1966530d4f970ac7c71ae0999eb1d2181afaeff8b56c394f3f89896040516112d8929190614232565b60405180910390a250505050506112ed61215d565b9392505050565b3373ffffffffffffffffffffffffffffffffffffffff16600160009054906101000a900473ffffffffffffffffffffffffffffffffffffffff1673ffffffffffffffffffffffffffffffffffffffff1614611384576040517f08c379a000000000000000000000000000000000000000000000000000000000815260040161137b9061401a565b60405180910390fd5b61138e8282612167565b5050565b6000806113be838573ffffffffffffffffffffffffffffffffffffffff16611e2690919063ffffffff16565b9050600760008281526020019081526020016000206001015491505092915050565b3373ffffffffffffffffffffffffffffffffffffffff16600160009054906101000a900473ffffffffffffffffffffffffffffffffffffffff1673ffffffffffffffffffffffffffffffffffffffff1614611470576040517f08c379a00000000000000000000000000000000000000000000000000000000081526004016114679061401a565b60405180910390fd5b8060046002018190555050565b611485612ee2565b600760008381526020019081526020016000206040518060600160405290816000820154815260200160018201548152602001600282018054600181600116156101000203166002900480601f0160208091040260200160405190810160405280929190818152602001828054600181600116156101000203166002900480156115505780601f1061152557610100808354040283529160200191611550565b820191906000526020600020905b81548152906001019060200180831161153357829003601f168201915b5050505050815250509050919050565b3373ffffffffffffffffffffffffffffffffffffffff16600160009054906101000a900473ffffffffffffffffffffffffffffffffffffffff1673ffffffffffffffffffffffffffffffffffffffff16146115f0576040517f08c379a00000000000000000000000000000000000000000000000000000000081526004016115e79061401a565b60405180910390fd5b80600460010160006101000a81548173ffffffffffffffffffffffffffffffffffffffff021916908373ffffffffffffffffffffffffffffffffffffffff16021790555050565b6000600160009054906101000a900473ffffffffffffffffffffffffffffffffffffffff16905090565b3373ffffffffffffffffffffffffffffffffffffffff16600160009054906101000a900473ffffffffffffffffffffffffffffffffffffffff1673ffffffffffffffffffffffffffffffffffffffff16146116f1576040517f08c379a00000000000000000000000000000000000000000000000000000000081526004016116e89061401a565b60405180910390fd5b6116fd84848484612259565b50505050565b3373ffffffffffffffffffffffffffffffffffffffff16600160009054906101000a900473ffffffffffffffffffffffffffffffffffffffff1673ffffffffffffffffffffffffffffffffffffffff1614611793576040517f08c379a000000000000000000000000000000000000000000000000000000000815260040161178a9061401a565b60405180910390fd5b80600260006101000a81548173ffffffffffffffffffffffffffffffffffffffff021916908373ffffffffffffffffffffffffffffffffffffffff16021790555050565b600098975050505050505050565b60006117ef612437565b905090565b60006118008383611eac565b905092915050565b600063bc197c8160e01b90509695505050505050565b600073ffffffffffffffffffffffffffffffffffffffff16600160009054906101000a900473ffffffffffffffffffffffffffffffffffffffff1673ffffffffffffffffffffffffffffffffffffffff16146118af576040517f08c379a00000000000000000000000000000000000000000000000000000000081526004016118a69061413a565b60405180910390fd5b80600160006101000a81548173ffffffffffffffffffffffffffffffffffffffff021916908373ffffffffffffffffffffffffffffffffffffffff16021790555085600460000160006101000a81548173ffffffffffffffffffffffffffffffffffffffff021916908373ffffffffffffffffffffffffffffffffffffffff16021790555084600460010160006101000a81548173ffffffffffffffffffffffffffffffffffffffff021916908373ffffffffffffffffffffffffffffffffffffffff1602179055508360046002018190555082600360006101000a81548173ffffffffffffffffffffffffffffffffffffffff021916908373ffffffffffffffffffffffffffffffffffffffff16021790555081600260006101000a81548173ffffffffffffffffffffffffffffffffffffffff021916908373ffffffffffffffffffffffffffffffffffffffff160217905550505050505050565b600073ffffffffffffffffffffffffffffffffffffffff168373ffffffffffffffffffffffffffffffffffffffff161415611a7c576040517f08c379a0000000000000000000000000000000000000000000000000000000008152600401611a739061403a565b60405180910390fd5b808273ffffffffffffffffffffffffffffffffffffffff166370a08231306040518263ffffffff1660e01b8152600401611ab69190613e3b565b60206040518083038186803b158015611ace57600080fd5b505afa158015611ae2573d6000803e3d6000fd5b505050506040513d601f19601f82011682018060405250810190611b069190613727565b10611b9c57611b3683828473ffffffffffffffffffffffffffffffffffffffff166124ec9092919063ffffffff16565b8173ffffffffffffffffffffffffffffffffffffffff168373ffffffffffffffffffffffffffffffffffffffff167f6c9d637297625e945b296ff73a71fcfbd0a9e062652b6491a921c4c60194176b83604051611b9391906141d7565b60405180910390a35b505050565b611c24846323b872dd60e01b858585604051602401611bc293929190613ee5565b604051602081830303815290604052907bffffffffffffffffffffffffffffffffffffffffffffffffffffffff19166020820180517bffffffffffffffffffffffffffffffffffffffffffffffffffffffff8381831617835250505050612572565b50505050565b600073ffffffffffffffffffffffffffffffffffffffff168373ffffffffffffffffffffffffffffffffffffffff161415611c9a576040517f08c379a0000000000000000000000000000000000000000000000000000000008152600401611c919061403a565b60405180910390fd5b3073ffffffffffffffffffffffffffffffffffffffff168273ffffffffffffffffffffffffffffffffffffffff16636352211e836040518263ffffffff1660e01b8152600401611cea91906141d7565b60206040518083038186803b158015611d0257600080fd5b505afa158015611d16573d6000803e3d6000fd5b505050506040513d601f19601f82011682018060405250810190611d3a9190613165565b73ffffffffffffffffffffffffffffffffffffffff161415611e21578173ffffffffffffffffffffffffffffffffffffffff166323b872dd3085846040518463ffffffff1660e01b8152600401611d9393929190613e56565b600060405180830381600087803b158015611dad57600080fd5b505af1158015611dc1573d6000803e3d6000fd5b50505050808273ffffffffffffffffffffffffffffffffffffffff168473ffffffffffffffffffffffffffffffffffffffff167ffefe036cac4ee3a4aca074a81cbcc4376e1484693289078dbec149c890101d5b60405160405180910390a45b505050565b60008282604051602001611e3b929190613de3565b6040516020818303038152906040528051906020012060001c905092915050565b60026000541415611ea2576040517f08c379a0000000000000000000000000000000000000000000000000000000008152600401611e999061417a565b60405180910390fd5b6002600081905550565b600080611eb883612639565b90506000611ec6858361266e565b9050611ed1816128c7565b9250505092915050565b600080828401905083811015611f26576040517f08c379a0000000000000000000000000000000000000000000000000000000008152600401611f1d9061405a565b60405180910390fd5b8091505092915050565b600080611f5c838573ffffffffffffffffffffffffffffffffffffffff16611e2690919063ffffffff16565b9050600060076000838152602001908152602001600020905060008573ffffffffffffffffffffffffffffffffffffffff16636352211e866040518263ffffffff1660e01b8152600401611fb091906141d7565b60206040518083038186803b158015611fc857600080fd5b505afa158015611fdc573d6000803e3d6000fd5b505050506040513d601f19601f820116820180604052508101906120009190613165565b9050816001015493506000612013612437565b90506000818611612025576000612039565b612038828761299390919063ffffffff16565b5b9050600081111561208657612057818761299390919063ffffffff16565b95507f9fc735fd421d3eb45362ea6d0d94945975bce33842b1bc94840719e66d937e4760405160405180910390a15b80846001018190555060008611156120e9576120e88387600460010160009054906101000a900473ffffffffffffffffffffffffffffffffffffffff1673ffffffffffffffffffffffffffffffffffffffff166124ec9092919063ffffffff16565b5b8273ffffffffffffffffffffffffffffffffffffffff168873ffffffffffffffffffffffffffffffffffffffff167fb918e5bcd5ce5aadd59ae96fe4c568669afc7af190dbf16061540816cb407c7389898560405161214a9392919061425b565b60405180910390a3505050505092915050565b6001600081905550565b600073ffffffffffffffffffffffffffffffffffffffff168273ffffffffffffffffffffffffffffffffffffffff1614156121d7576040517f08c379a00000000000000000000000000000000000000000000000000000000081526004016121ce9061403a565b60405180910390fd5b80471061225557612207818373ffffffffffffffffffffffffffffffffffffffff166129dd90919063ffffffff16565b8173ffffffffffffffffffffffffffffffffffffffff167eddb683bb45cd5d0ad8a200c6fae7152b1c236ee90a4a37db692407f5cc38bd8260405161224c91906141d7565b60405180910390a25b5050565b600073ffffffffffffffffffffffffffffffffffffffff168473ffffffffffffffffffffffffffffffffffffffff1614156122c9576040517f08c379a00000000000000000000000000000000000000000000000000000000081526004016122c09061403a565b60405180910390fd5b808373ffffffffffffffffffffffffffffffffffffffff1662fdd58e30856040518363ffffffff1660e01b8152600401612304929190613f1c565b60206040518083038186803b15801561231c57600080fd5b505afa158015612330573d6000803e3d6000fd5b505050506040513d601f19601f820116820180604052508101906123549190613727565b10612431578273ffffffffffffffffffffffffffffffffffffffff1663f242432a308685856040518563ffffffff1660e01b81526004016123989493929190613e8d565b600060405180830381600087803b1580156123b257600080fd5b505af11580156123c6573d6000803e3d6000fd5b50505050818373ffffffffffffffffffffffffffffffffffffffff168573ffffffffffffffffffffffffffffffffffffffff167f620337bf89eea2b9ae2657beead83b5fa620452817118348aff96e201d52598b8460405161242891906141d7565b60405180910390a45b50505050565b6000600460010160009054906101000a900473ffffffffffffffffffffffffffffffffffffffff1673ffffffffffffffffffffffffffffffffffffffff166370a08231306040518263ffffffff1660e01b81526004016124979190613e3b565b60206040518083038186803b1580156124af57600080fd5b505afa1580156124c3573d6000803e3d6000fd5b505050506040513d601f19601f820116820180604052508101906124e79190613727565b905090565b61256d8363a9059cbb60e01b848460405160240161250b929190613f1c565b604051602081830303815290604052907bffffffffffffffffffffffffffffffffffffffffffffffffffffffff19166020820180517bffffffffffffffffffffffffffffffffffffffffffffffffffffffff8381831617835250505050612572565b505050565b60606125d4826040518060400160405280602081526020017f5361666545524332303a206c6f772d6c6576656c2063616c6c206661696c65648152508573ffffffffffffffffffffffffffffffffffffffff16612ad19092919063ffffffff16565b905060008151111561263457808060200190518101906125f4919061365a565b612633576040517f08c379a000000000000000000000000000000000000000000000000000000000815260040161262a9061415a565b60405180910390fd5b5b505050565b600061266761271061265960046002015485612ae990919063ffffffff16565b612b5990919063ffffffff16565b9050919050565b60008060076000858152602001908152602001600020905060008160000154141561269c57829150506128c1565b6126a4612f03565b600260009054906101000a900473ffffffffffffffffffffffffffffffffffffffff1673ffffffffffffffffffffffffffffffffffffffff1663836c478d866040518263ffffffff1660e01b81526004016126ff91906141d7565b60606040518083038186803b15801561271757600080fd5b505afa15801561272b573d6000803e3d6000fd5b505050506040513d601f19601f8201168201806040525081019061274f91906136d5565b9050600081600001519050600061277384600001544361299390919063ffffffff16565b9050600080846040015111156127a55761279e8460200151856040015161299390919063ffffffff16565b90506127bf565b6127bc84602001514361299390919063ffffffff16565b90505b60008314806127ce5750600081145b806127d95750600082145b156127eb5786955050505050506128c1565b818111156127f7578190505b60006128208361281261271085612ae990919063ffffffff16565b612b5990919063ffffffff16565b9050600061284b61271061283d848c612ae990919063ffffffff16565b612b5990919063ffffffff16565b9050600061288961271061287b61286c60648a612ae990919063ffffffff16565b85612ae990919063ffffffff16565b612b5990919063ffffffff16565b905060006128a0838c61299390919063ffffffff16565b90506128b58282611edb90919063ffffffff16565b99505050505050505050505b92915050565b600080600460000160009054906101000a900473ffffffffffffffffffffffffffffffffffffffff1673ffffffffffffffffffffffffffffffffffffffff1663313ce5676040518163ffffffff1660e01b815260040160206040518083038186803b15801561293557600080fd5b505afa158015612949573d6000803e3d6000fd5b505050506040513d601f19601f8201168201806040525081019061296d919061378c565b905061298b8160ff16601203600a0a84612ae990919063ffffffff16565b915050919050565b60006129d583836040518060400160405280601e81526020017f536166654d6174683a207375627472616374696f6e206f766572666c6f770000815250612ba3565b905092915050565b80471015612a20576040517f08c379a0000000000000000000000000000000000000000000000000000000008152600401612a179061409a565b60405180910390fd5b60008273ffffffffffffffffffffffffffffffffffffffff1682604051612a4690613e26565b60006040518083038185875af1925050503d8060008114612a83576040519150601f19603f3d011682016040523d82523d6000602084013e612a88565b606091505b5050905080612acc576040517f08c379a0000000000000000000000000000000000000000000000000000000008152600401612ac39061407a565b60405180910390fd5b505050565b6060612ae08484600085612bfe565b90509392505050565b600080831415612afc5760009050612b53565b6000828402905082848281612b0d57fe5b0414612b4e576040517f08c379a0000000000000000000000000000000000000000000000000000000008152600401612b45906140fa565b60405180910390fd5b809150505b92915050565b6000612b9b83836040518060400160405280601a81526020017f536166654d6174683a206469766973696f6e206279207a65726f000000000000815250612d21565b905092915050565b6000838311158290612beb576040517f08c379a0000000000000000000000000000000000000000000000000000000008152600401612be29190613fd6565b60405180910390fd5b5060008385039050809150509392505050565b6060612c0985612d82565b612c48576040517f08c379a0000000000000000000000000000000000000000000000000000000008152600401612c3f9061411a565b60405180910390fd5b600060608673ffffffffffffffffffffffffffffffffffffffff168587604051612c729190613e0f565b60006040518083038185875af1925050503d8060008114612caf576040519150601f19603f3d011682016040523d82523d6000602084013e612cb4565b606091505b50915091508115612cc9578092505050612d19565b600081511115612cdc5780518082602001fd5b836040517f08c379a0000000000000000000000000000000000000000000000000000000008152600401612d109190613fd6565b60405180910390fd5b949350505050565b60008083118290612d68576040517f08c379a0000000000000000000000000000000000000000000000000000000008152600401612d5f9190613fd6565b60405180910390fd5b506000838581612d7457fe5b049050809150509392505050565b600080823b905060008111915050919050565b6040518060600160405280600073ffffffffffffffffffffffffffffffffffffffff168152602001600073ffffffffffffffffffffffffffffffffffffffff168152602001600081525090565b828054600181600116156101000203166002900490600052602060002090601f016020900481019282601f10612e2357803560ff1916838001178555612e51565b82800160010185558215612e51579182015b82811115612e50578235825591602001919060010190612e35565b5b509050612e5e9190612f24565b5090565b828054600181600116156101000203166002900490600052602060002090601f016020900481019282601f10612ea357805160ff1916838001178555612ed1565b82800160010185558215612ed1579182015b82811115612ed0578251825591602001919060010190612eb5565b5b509050612ede9190612f24565b5090565b60405180606001604052806000815260200160008152602001606081525090565b60405180606001604052806000815260200160008152602001600081525090565b5b80821115612f3d576000816000905550600101612f25565b5090565b600081359050612f5081614491565b92915050565b600081519050612f6581614491565b92915050565b600081359050612f7a816144a8565b92915050565b60008083601f840112612f9257600080fd5b8235905067ffffffffffffffff811115612fab57600080fd5b602083019150836020820283011115612fc357600080fd5b9250929050565b600081519050612fd9816144bf565b92915050565b600081359050612fee816144d6565b92915050565b60008083601f84011261300657600080fd5b8235905067ffffffffffffffff81111561301f57600080fd5b60208301915083600182028301111561303757600080fd5b9250929050565b60008151905061304d816144ed565b92915050565b60008083601f84011261306557600080fd5b8235905067ffffffffffffffff81111561307e57600080fd5b60208301915083600182028301111561309657600080fd5b9250929050565b6000606082840312156130af57600080fd5b6130b96060614292565b905060006130c984828501613112565b60008301525060206130dd84828501613112565b60208301525060406130f184828501613112565b60408301525092915050565b60008135905061310c81614504565b92915050565b60008151905061312181614504565b92915050565b6000815190506131368161451b565b92915050565b60006020828403121561314e57600080fd5b600061315c84828501612f41565b91505092915050565b60006020828403121561317757600080fd5b600061318584828501612f56565b91505092915050565b6000806000606084860312156131a357600080fd5b60006131b186828701612f6b565b93505060206131c286828701612f41565b92505060406131d3868287016130fd565b9150509250925092565b600080600080608085870312156131f357600080fd5b600061320187828801612f6b565b945050602061321287828801612f41565b9350506040613223878288016130fd565b9250506060613234878288016130fd565b91505092959194509250565b6000806040838503121561325357600080fd5b600061326185828601612f6b565b9250506020613272858286016130fd565b9150509250929050565b60008060008060008060008060a0898b03121561329857600080fd5b60006132a68b828c01612f41565b98505060206132b78b828c01612f41565b975050604089013567ffffffffffffffff8111156132d457600080fd5b6132e08b828c01612f80565b9650965050606089013567ffffffffffffffff8111156132ff57600080fd5b61330b8b828c01612f80565b9450945050608089013567ffffffffffffffff81111561332a57600080fd5b6133368b828c01612ff4565b92509250509295985092959890939650565b60008060008060008060c0878903121561336157600080fd5b600061336f89828a01612f41565b965050602061338089828a01612f41565b955050604061339189828a016130fd565b94505060606133a289828a01612f41565b93505060806133b389828a01612f41565b92505060a06133c489828a01612f41565b9150509295509295509295565b6000806000806000608086880312156133e957600080fd5b60006133f788828901612f41565b955050602061340888828901612f41565b9450506040613419888289016130fd565b935050606086013567ffffffffffffffff81111561343657600080fd5b61344288828901612ff4565b92509250509295509295909350565b60008060008060008060a0878903121561346a57600080fd5b600061347889828a01612f41565b965050602061348989828a01612f41565b955050604061349a89828a016130fd565b94505060606134ab89828a016130fd565b935050608087013567ffffffffffffffff8111156134c857600080fd5b6134d489828a01612ff4565b92509250509295509295509295565b600080604083850312156134f657600080fd5b600061350485828601612f41565b9250506020613515858286016130fd565b9150509250929050565b6000806000806060858703121561353557600080fd5b600061354387828801612f41565b9450506020613554878288016130fd565b935050604085013567ffffffffffffffff81111561357157600080fd5b61357d87828801613053565b925092505092959194509250565b6000806000806000608086880312156135a357600080fd5b60006135b188828901612f41565b95505060206135c2888289016130fd565b945050604086013567ffffffffffffffff8111156135df57600080fd5b6135eb88828901613053565b935093505060606135fe888289016130fd565b9150509295509295909350565b60008060006060848603121561362057600080fd5b600061362e86828701612f41565b935050602061363f868287016130fd565b9250506040613650868287016130fd565b9150509250925092565b60006020828403121561366c57600080fd5b600061367a84828501612fca565b91505092915050565b60006020828403121561369557600080fd5b60006136a384828501612fdf565b91505092915050565b6000602082840312156136be57600080fd5b60006136cc8482850161303e565b91505092915050565b6000606082840312156136e757600080fd5b60006136f58482850161309d565b91505092915050565b60006020828403121561371057600080fd5b600061371e848285016130fd565b91505092915050565b60006020828403121561373957600080fd5b600061374784828501613112565b91505092915050565b6000806040838503121561376357600080fd5b6000613771858286016130fd565b9250506020613782858286016130fd565b9150509250929050565b60006020828403121561379e57600080fd5b60006137ac84828501613127565b91505092915050565b6137be816143cd565b82525050565b6137cd81614328565b82525050565b6137dc81614328565b82525050565b6137f36137ee82614328565b614445565b82525050565b6138028161434c565b82525050565b61381181614358565b82525050565b6000613822826142d4565b61382c81856142fb565b935061383c818560208601614412565b80840191505092915050565b60006138548385614317565b9350613861838584614403565b61386a83614473565b840190509392505050565b6000613880826142df565b61388a8185614306565b935061389a818560208601614412565b6138a381614473565b840191505092915050565b60006138b9826142df565b6138c38185614317565b93506138d3818560208601614412565b6138dc81614473565b840191505092915050565b600081546001811660008114613904576001811461392a5761396e565b607f60028304166139158187614317565b955060ff19831686526020860193505061396e565b600282046139388187614317565b9550613943856142bf565b60005b8281101561396557815481890152600182019150602081019050613946565b80880195505050505b505092915050565b6000613983601783614317565b91507f43616c6c6572206973206e6f7420746865206f776e65720000000000000000006000830152602082019050919050565b60006139c3600983614317565b91507f4248503a452d34303300000000000000000000000000000000000000000000006000830152602082019050919050565b6000613a03601b83614317565b91507f536166654d6174683a206164646974696f6e206f766572666c6f7700000000006000830152602082019050919050565b6000613a43603a83614317565b91507f416464726573733a20756e61626c6520746f2073656e642076616c75652c207260008301527f6563697069656e74206d617920686176652072657665727465640000000000006020830152604082019050919050565b6000613aa9601d83614317565b91507f416464726573733a20696e73756666696369656e742062616c616e63650000006000830152602082019050919050565b6000613ae9600883614317565b91507f52503a452d3130380000000000000000000000000000000000000000000000006000830152602082019050919050565b6000613b29600883614317565b91507f52503a452d3430350000000000000000000000000000000000000000000000006000830152602082019050919050565b6000613b69602183614317565b91507f536166654d6174683a206d756c7469706c69636174696f6e206f766572666c6f60008301527f77000000000000000000000000000000000000000000000000000000000000006020830152604082019050919050565b6000613bcf6000836142ea565b9150600082019050919050565b6000613be96000836142fb565b9150600082019050919050565b6000613c03601d83614317565b91507f416464726573733a2063616c6c20746f206e6f6e2d636f6e74726163740000006000830152602082019050919050565b6000613c43601383614317565b91507f416c726561647920696e697469616c697a6564000000000000000000000000006000830152602082019050919050565b6000613c83602a83614317565b91507f5361666545524332303a204552433230206f7065726174696f6e20646964206e60008301527f6f742073756363656564000000000000000000000000000000000000000000006020830152604082019050919050565b6000613ce9601f83614317565b91507f5265656e7472616e637947756172643a207265656e7472616e742063616c6c006000830152602082019050919050565b6000606083016000830151613d346000860182613dae565b506020830151613d476020860182613dae565b5060408301518482036040860152613d5f8282613875565b9150508091505092915050565b606082016000820151613d8260008501826137c4565b506020820151613d9560208501826137c4565b506040820151613da86040850182613dae565b50505050565b613db7816143b6565b82525050565b613dc6816143b6565b82525050565b613ddd613dd8826143b6565b614469565b82525050565b6000613def82856137e2565b601482019150613dff8284613dcc565b6020820191508190509392505050565b6000613e1b8284613817565b915081905092915050565b6000613e3182613bdc565b9150819050919050565b6000602082019050613e5060008301846137d3565b92915050565b6000606082019050613e6b60008301866137d3565b613e7860208301856137b5565b613e856040830184613dbd565b949350505050565b600060a082019050613ea260008301876137d3565b613eaf60208301866137b5565b613ebc6040830185613dbd565b613ec96060830184613dbd565b8181036080830152613eda81613bc2565b905095945050505050565b6000606082019050613efa60008301866137d3565b613f0760208301856137d3565b613f146040830184613dbd565b949350505050565b6000604082019050613f3160008301856137d3565b613f3e6020830184613dbd565b9392505050565b6000606082019050613f5a60008301866137d3565b613f676020830185613dbd565b613f7460408301846137d3565b949350505050565b6000602082019050613f9160008301846137f9565b92915050565b6000602082019050613fac6000830184613808565b92915050565b60006020820190508181036000830152613fcd818486613848565b90509392505050565b60006020820190508181036000830152613ff081846138ae565b905092915050565b6000602082019050818103600083015261401281846138e7565b905092915050565b6000602082019050818103600083015261403381613976565b9050919050565b60006020820190508181036000830152614053816139b6565b9050919050565b60006020820190508181036000830152614073816139f6565b9050919050565b6000602082019050818103600083015261409381613a36565b9050919050565b600060208201905081810360008301526140b381613a9c565b9050919050565b600060208201905081810360008301526140d381613adc565b9050919050565b600060208201905081810360008301526140f381613b1c565b9050919050565b6000602082019050818103600083015261411381613b5c565b9050919050565b6000602082019050818103600083015261413381613bf6565b9050919050565b6000602082019050818103600083015261415381613c36565b9050919050565b6000602082019050818103600083015261417381613c76565b9050919050565b6000602082019050818103600083015261419381613cdc565b9050919050565b600060208201905081810360008301526141b48184613d1c565b905092915050565b60006060820190506141d16000830184613d6c565b92915050565b60006020820190506141ec6000830184613dbd565b92915050565b60006060820190506142076000830187613dbd565b818103602083015261421a818587613848565b90506142296040830184613dbd565b95945050505050565b60006040820190506142476000830185613dbd565b6142546020830184613dbd565b9392505050565b60006060820190506142706000830186613dbd565b61427d6020830185613dbd565b61428a6040830184613dbd565b949350505050565b6000604051905081810181811067ffffffffffffffff821117156142b557600080fd5b8060405250919050565b60008190508160005260206000209050919050565b600081519050919050565b600081519050919050565b600082825260208201905092915050565b600081905092915050565b600082825260208201905092915050565b600082825260208201905092915050565b600061433382614396565b9050919050565b600061434582614396565b9050919050565b60008115159050919050565b60007fffffffff0000000000000000000000000000000000000000000000000000000082169050919050565b600061438f82614328565b9050919050565b600073ffffffffffffffffffffffffffffffffffffffff82169050919050565b6000819050919050565b600060ff82169050919050565b60006143d8826143df565b9050919050565b60006143ea826143f1565b9050919050565b60006143fc82614396565b9050919050565b82818337600083830152505050565b60005b83811015614430578082015181840152602081019050614415565b8381111561443f576000848401525b50505050565b600061445082614457565b9050919050565b600061446282614484565b9050919050565b6000819050919050565b6000601f19601f8301169050919050565b60008160601b9050919050565b61449a81614328565b81146144a557600080fd5b50565b6144b18161433a565b81146144bc57600080fd5b50565b6144c88161434c565b81146144d357600080fd5b50565b6144df81614358565b81146144ea57600080fd5b50565b6144f681614384565b811461450157600080fd5b50565b61450d816143b6565b811461451857600080fd5b50565b614524816143c0565b811461452f57600080fd5b5056fea264697066735822122072a00c6594c2875ffa8f25594b924f50cff8adb569738f6781186efe390da48364736f6c634300060c0033",
  "devdoc": {
    "kind": "dev",
    "methods": {
      "owner()": {
        "details": "Returns the address of the current owner."
      },
      "renounceOwnership()": {
        "details": "Leaves the contract without owner. It will not be possible to call `onlyOwner` functions anymore. Can only be called by the current owner. NOTE: Renouncing ownership will leave the contract without an owner, thereby removing any functionality that is only available to the owner."
      },
      "transferOwnership(address)": {
        "details": "Transfers ownership of the contract to a new account (`newOwner`). Can only be called by the current owner."
      }
    },
    "version": 1
  },
  "userdoc": {
    "kind": "user",
    "methods": {},
    "version": 1
  },
  "storageLayout": {
    "storage": [
      {
        "astId": 120,
        "contract": "contracts/v1/incentives/RewardProgramFactory.sol:RewardProgramFactory",
        "label": "_owner",
        "offset": 0,
        "slot": "0",
        "type": "t_address"
      },
      {
        "astId": 2700,
        "contract": "contracts/v1/incentives/RewardProgramFactory.sol:RewardProgramFactory",
        "label": "_template",
        "offset": 0,
        "slot": "1",
        "type": "t_address"
      }
    ],
    "types": {
      "t_address": {
        "encoding": "inplace",
        "label": "address",
        "numberOfBytes": "20"
      }
    }
  }
}