{
  "address": "0x9B2b11052B2A40c5e76d81c9Edd2d057b0419bF4",
  "abi": [
    {
      "inputs": [],
      "stateMutability": "nonpayable",
      "type": "constructor"
    },
    {
      "anonymous": false,
      "inputs": [
        {
          "indexed": true,
          "internalType": "address",
          "name": "contractAddress",
          "type": "address"
        },
        {
          "indexed": false,
          "internalType": "uint256",
          "name": "tokenId",
          "type": "uint256"
        },
        {
          "indexed": false,
          "internalType": "string",
          "name": "walletManagerId",
          "type": "string"
        },
        {
          "indexed": false,
          "internalType": "uint256",
          "name": "principalAmount",
          "type": "uint256"
        }
      ],
      "name": "AssetDeposit",
      "type": "event"
    },
    {
      "anonymous": false,
      "inputs": [
        {
          "indexed": true,
          "internalType": "address",
          "name": "contractAddress",
          "type": "address"
        },
        {
          "indexed": false,
          "internalType": "uint256",
          "name": "tokenId",
          "type": "uint256"
        },
        {
          "indexed": false,
          "internalType": "string",
          "name": "walletManagerId",
          "type": "string"
        },
        {
          "indexed": false,
          "internalType": "uint256",
          "name": "principalAmount",
          "type": "uint256"
        }
      ],
      "name": "AssetRegistered",
      "type": "event"
    },
    {
      "anonymous": false,
      "inputs": [
        {
          "indexed": true,
          "internalType": "address",
          "name": "contractAddress",
          "type": "address"
        },
        {
          "indexed": false,
          "internalType": "uint256",
          "name": "tokenId",
          "type": "uint256"
        },
        {
          "indexed": false,
          "internalType": "uint256",
          "name": "interestAmount",
          "type": "uint256"
        }
      ],
      "name": "AssetRelease",
      "type": "event"
    },
    {
      "anonymous": false,
      "inputs": [
        {
          "indexed": true,
          "internalType": "address",
          "name": "contractAddress",
          "type": "address"
        },
        {
          "indexed": false,
          "internalType": "uint256",
          "name": "tokenId",
          "type": "uint256"
        },
        {
          "indexed": true,
          "internalType": "address",
          "name": "nftTokenAddress",
          "type": "address"
        },
        {
          "indexed": false,
          "internalType": "uint256",
          "name": "nftTokenId",
          "type": "uint256"
        }
      ],
      "name": "NftDeposit",
      "type": "event"
    },
    {
      "anonymous": false,
      "inputs": [
        {
          "indexed": true,
          "internalType": "address",
          "name": "contractAddress",
          "type": "address"
        },
        {
          "indexed": false,
          "internalType": "uint256",
          "name": "tokenId",
          "type": "uint256"
        },
        {
          "indexed": true,
          "internalType": "address",
          "name": "nftTokenAddress",
          "type": "address"
        },
        {
          "indexed": false,
          "internalType": "uint256",
          "name": "nftTokenId",
          "type": "uint256"
        }
      ],
      "name": "NftRelease",
      "type": "event"
    },
    {
      "anonymous": false,
      "inputs": [
        {
          "indexed": true,
          "internalType": "address",
          "name": "previousOwner",
          "type": "address"
        },
        {
          "indexed": true,
          "internalType": "address",
          "name": "newOwner",
          "type": "address"
        }
      ],
      "name": "OwnershipTransferred",
      "type": "event"
    },
    {
      "anonymous": false,
      "inputs": [
        {
          "indexed": false,
          "internalType": "uint256",
          "name": "amount",
          "type": "uint256"
        }
      ],
      "name": "RewardProgramFunded",
      "type": "event"
    },
    {
      "anonymous": false,
      "inputs": [],
      "name": "RewardProgramOutOfFunds",
      "type": "event"
    },
    {
      "anonymous": false,
      "inputs": [
        {
          "indexed": true,
          "internalType": "address",
          "name": "contractAddress",
          "type": "address"
        },
        {
          "indexed": false,
          "internalType": "uint256",
          "name": "tokenId",
          "type": "uint256"
        },
        {
          "indexed": true,
          "internalType": "address",
          "name": "receiver",
          "type": "address"
        },
        {
          "indexed": false,
          "internalType": "uint256",
          "name": "rewarded",
          "type": "uint256"
        },
        {
          "indexed": false,
          "internalType": "uint256",
          "name": "remaining",
          "type": "uint256"
        }
      ],
      "name": "RewardsClaimed",
      "type": "event"
    },
    {
      "anonymous": false,
      "inputs": [
        {
          "indexed": true,
          "internalType": "address",
          "name": "receiver",
          "type": "address"
        },
        {
          "indexed": true,
          "internalType": "address",
          "name": "tokenAddress",
          "type": "address"
        },
        {
          "indexed": true,
          "internalType": "uint256",
          "name": "tokenId",
          "type": "uint256"
        },
        {
          "indexed": false,
          "internalType": "uint256",
          "name": "amount",
          "type": "uint256"
        }
      ],
      "name": "WithdrawStuckERC1155",
      "type": "event"
    },
    {
      "anonymous": false,
      "inputs": [
        {
          "indexed": true,
          "internalType": "address",
          "name": "receiver",
          "type": "address"
        },
        {
          "indexed": true,
          "internalType": "address",
          "name": "tokenAddress",
          "type": "address"
        },
        {
          "indexed": false,
          "internalType": "uint256",
          "name": "amount",
          "type": "uint256"
        }
      ],
      "name": "WithdrawStuckERC20",
      "type": "event"
    },
    {
      "anonymous": false,
      "inputs": [
        {
          "indexed": true,
          "internalType": "address",
          "name": "receiver",
          "type": "address"
        },
        {
          "indexed": true,
          "internalType": "address",
          "name": "tokenAddress",
          "type": "address"
        },
        {
          "indexed": true,
          "internalType": "uint256",
          "name": "tokenId",
          "type": "uint256"
        }
      ],
      "name": "WithdrawStuckERC721",
      "type": "event"
    },
    {
      "anonymous": false,
      "inputs": [
        {
          "indexed": true,
          "internalType": "address",
          "name": "receiver",
          "type": "address"
        },
        {
          "indexed": false,
          "internalType": "uint256",
          "name": "amount",
          "type": "uint256"
        }
      ],
      "name": "WithdrawStuckEther",
      "type": "event"
    },
    {
      "inputs": [
        {
          "internalType": "address",
          "name": "",
          "type": "address"
        }
      ],
      "name": "baseMultipliers",
      "outputs": [
        {
          "internalType": "uint256",
          "name": "",
          "type": "uint256"
        }
      ],
      "stateMutability": "view",
      "type": "function"
    },
    {
      "inputs": [
        {
          "internalType": "address",
          "name": "stakingAsset",
          "type": "address"
        },
        {
          "internalType": "uint256",
          "name": "amount",
          "type": "uint256"
        }
      ],
      "name": "calculateBaseReward",
      "outputs": [
        {
          "internalType": "uint256",
          "name": "baseReward",
          "type": "uint256"
        }
      ],
      "stateMutability": "view",
      "type": "function"
    },
    {
      "inputs": [
        {
          "internalType": "uint256",
          "name": "parentNftUuid",
          "type": "uint256"
        },
        {
          "internalType": "uint256",
          "name": "baseReward",
          "type": "uint256"
        }
      ],
      "name": "calculateMultipliedReward",
      "outputs": [
        {
          "internalType": "uint256",
          "name": "",
          "type": "uint256"
        }
      ],
      "stateMutability": "view",
      "type": "function"
    },
    {
      "inputs": [
        {
          "internalType": "uint256",
          "name": "parentNftUuid",
          "type": "uint256"
        },
        {
          "internalType": "address",
          "name": "stakingAsset",
          "type": "address"
        },
        {
          "internalType": "uint256",
          "name": "interestAmount",
          "type": "uint256"
        }
      ],
      "name": "calculateRewardsEarned",
      "outputs": [
        {
          "internalType": "uint256",
          "name": "totalReward",
          "type": "uint256"
        }
      ],
      "stateMutability": "view",
      "type": "function"
    },
    {
      "inputs": [
        {
          "internalType": "uint256",
          "name": "amount",
          "type": "uint256"
        }
      ],
      "name": "fundProgram",
      "outputs": [],
      "stateMutability": "nonpayable",
      "type": "function"
    },
    {
      "inputs": [
        {
          "internalType": "uint256",
          "name": "uuid",
          "type": "uint256"
        }
      ],
      "name": "getAssetStake",
      "outputs": [
        {
          "components": [
            {
              "internalType": "uint256",
              "name": "start",
              "type": "uint256"
            },
            {
              "internalType": "uint256",
              "name": "claimableRewards",
              "type": "uint256"
            },
            {
              "internalType": "string",
              "name": "walletManagerId",
              "type": "string"
            },
            {
              "internalType": "address",
              "name": "stakingToken",
              "type": "address"
            }
          ],
          "internalType": "struct IRewardProgram.AssetStake",
          "name": "",
          "type": "tuple"
        }
      ],
      "stateMutability": "view",
      "type": "function"
    },
    {
      "inputs": [
        {
          "internalType": "address",
          "name": "contractAddress",
          "type": "address"
        },
        {
          "internalType": "uint256",
          "name": "tokenId",
          "type": "uint256"
        }
      ],
      "name": "getClaimableRewards",
      "outputs": [
        {
          "internalType": "uint256",
          "name": "",
          "type": "uint256"
        }
      ],
      "stateMutability": "view",
      "type": "function"
    },
    {
      "inputs": [],
      "name": "getFundBalance",
      "outputs": [
        {
          "internalType": "uint256",
          "name": "",
          "type": "uint256"
        }
      ],
      "stateMutability": "view",
      "type": "function"
    },
    {
      "inputs": [
        {
          "internalType": "uint256",
          "name": "uuid",
          "type": "uint256"
        }
      ],
      "name": "getNftStake",
      "outputs": [
        {
          "components": [
            {
              "internalType": "uint256",
              "name": "multiplier",
              "type": "uint256"
            },
            {
              "internalType": "uint256",
              "name": "depositBlockNumber",
              "type": "uint256"
            },
            {
              "internalType": "uint256",
              "name": "releaseBlockNumber",
              "type": "uint256"
            }
          ],
          "internalType": "struct IRewardProgram.NftStake",
          "name": "",
          "type": "tuple"
        }
      ],
      "stateMutability": "view",
      "type": "function"
    },
    {
      "inputs": [],
      "name": "getProgramData",
      "outputs": [
        {
          "components": [
            {
              "internalType": "address",
              "name": "rewardToken",
              "type": "address"
            },
            {
              "internalType": "address",
              "name": "multiplierNft",
              "type": "address"
            }
          ],
          "internalType": "struct IRewardProgram.ProgramRewardData",
          "name": "programData",
          "type": "tuple"
        }
      ],
      "stateMutability": "view",
      "type": "function"
    },
    {
      "inputs": [
        {
          "internalType": "address",
          "name": "",
          "type": "address"
        },
        {
          "internalType": "address",
          "name": "",
          "type": "address"
        },
        {
          "internalType": "uint256[]",
          "name": "",
          "type": "uint256[]"
        },
        {
          "internalType": "uint256[]",
          "name": "",
          "type": "uint256[]"
        },
        {
          "internalType": "bytes",
          "name": "",
          "type": "bytes"
        }
      ],
      "name": "onERC1155BatchReceived",
      "outputs": [
        {
          "internalType": "bytes4",
          "name": "",
          "type": "bytes4"
        }
      ],
      "stateMutability": "nonpayable",
      "type": "function"
    },
    {
      "inputs": [
        {
          "internalType": "address",
          "name": "",
          "type": "address"
        },
        {
          "internalType": "address",
          "name": "",
          "type": "address"
        },
        {
          "internalType": "uint256",
          "name": "",
          "type": "uint256"
        },
        {
          "internalType": "uint256",
          "name": "",
          "type": "uint256"
        },
        {
          "internalType": "bytes",
          "name": "",
          "type": "bytes"
        }
      ],
      "name": "onERC1155Received",
      "outputs": [
        {
          "internalType": "bytes4",
          "name": "",
          "type": "bytes4"
        }
      ],
      "stateMutability": "nonpayable",
      "type": "function"
    },
    {
      "inputs": [
        {
          "internalType": "address",
          "name": "",
          "type": "address"
        },
        {
          "internalType": "address",
          "name": "",
          "type": "address"
        },
        {
          "internalType": "uint256",
          "name": "",
          "type": "uint256"
        },
        {
          "internalType": "bytes",
          "name": "",
          "type": "bytes"
        }
      ],
      "name": "onERC721Received",
      "outputs": [
        {
          "internalType": "bytes4",
          "name": "",
          "type": "bytes4"
        }
      ],
      "stateMutability": "nonpayable",
      "type": "function"
    },
    {
      "inputs": [],
      "name": "owner",
      "outputs": [
        {
          "internalType": "address",
          "name": "",
          "type": "address"
        }
      ],
      "stateMutability": "view",
      "type": "function"
    },
    {
      "inputs": [
        {
          "internalType": "address",
          "name": "contractAddress",
          "type": "address"
        },
        {
          "internalType": "uint256",
          "name": "tokenId",
          "type": "uint256"
        },
        {
          "internalType": "string",
          "name": "walletManagerId",
          "type": "string"
        },
        {
          "internalType": "address",
          "name": "stakingToken",
          "type": "address"
        },
        {
          "internalType": "uint256",
          "name": "principalAmount",
          "type": "uint256"
        }
      ],
      "name": "registerAssetDeposit",
      "outputs": [],
      "stateMutability": "nonpayable",
      "type": "function"
    },
    {
      "inputs": [
        {
          "internalType": "address",
          "name": "contractAddress",
          "type": "address"
        },
        {
          "internalType": "uint256",
          "name": "tokenId",
          "type": "uint256"
        },
        {
          "internalType": "uint256",
          "name": "interestAmount",
          "type": "uint256"
        }
      ],
      "name": "registerAssetRelease",
      "outputs": [
        {
          "internalType": "uint256",
          "name": "rewards",
          "type": "uint256"
        }
      ],
      "stateMutability": "nonpayable",
      "type": "function"
    },
    {
      "inputs": [
        {
          "internalType": "address",
          "name": "contractAddress",
          "type": "address"
        },
        {
          "internalType": "uint256",
          "name": "tokenId",
          "type": "uint256"
        },
        {
          "internalType": "string",
          "name": "walletManagerId",
          "type": "string"
        },
        {
          "internalType": "address",
          "name": "stakingToken",
          "type": "address"
        }
      ],
      "name": "registerExistingDeposits",
      "outputs": [],
      "stateMutability": "nonpayable",
      "type": "function"
    },
    {
      "inputs": [
        {
          "internalType": "address",
          "name": "contractAddress",
          "type": "address"
        },
        {
          "internalType": "uint256",
          "name": "tokenId",
          "type": "uint256"
        },
        {
          "internalType": "address",
          "name": "depositNftAddress",
          "type": "address"
        },
        {
          "internalType": "uint256",
          "name": "depositNftTokenId",
          "type": "uint256"
        },
        {
          "internalType": "uint256",
          "name": "",
          "type": "uint256"
        }
      ],
      "name": "registerNftDeposit",
      "outputs": [],
      "stateMutability": "nonpayable",
      "type": "function"
    },
    {
      "inputs": [
        {
          "internalType": "address",
          "name": "contractAddress",
          "type": "address"
        },
        {
          "internalType": "uint256",
          "name": "tokenId",
          "type": "uint256"
        },
        {
          "internalType": "address",
          "name": "releaseNftAddress",
          "type": "address"
        },
        {
          "internalType": "uint256",
          "name": "releaseNftTokenId",
          "type": "uint256"
        },
        {
          "internalType": "uint256",
          "name": "",
          "type": "uint256"
        }
      ],
      "name": "registerNftRelease",
      "outputs": [],
      "stateMutability": "nonpayable",
      "type": "function"
    },
    {
      "inputs": [],
      "name": "renounceOwnership",
      "outputs": [],
      "stateMutability": "nonpayable",
      "type": "function"
    },
    {
      "inputs": [
        {
          "internalType": "address",
          "name": "assetToken",
          "type": "address"
        },
        {
          "internalType": "uint256",
          "name": "newMultiplier",
          "type": "uint256"
        }
      ],
      "name": "setBaseMultiplier",
      "outputs": [],
      "stateMutability": "nonpayable",
      "type": "function"
    },
    {
      "inputs": [
        {
          "internalType": "address",
          "name": "manager",
          "type": "address"
        }
      ],
      "name": "setChargedManagers",
      "outputs": [],
      "stateMutability": "nonpayable",
      "type": "function"
    },
    {
      "inputs": [
        {
          "internalType": "address",
          "name": "nftTokenAddress",
          "type": "address"
        }
      ],
      "name": "setRewardNft",
      "outputs": [],
      "stateMutability": "nonpayable",
      "type": "function"
    },
    {
      "inputs": [
        {
          "internalType": "address",
          "name": "newRewardToken",
          "type": "address"
        }
      ],
      "name": "setRewardToken",
      "outputs": [],
      "stateMutability": "nonpayable",
      "type": "function"
    },
    {
      "inputs": [
        {
          "internalType": "address",
          "name": "universe",
          "type": "address"
        }
      ],
      "name": "setUniverse",
      "outputs": [],
      "stateMutability": "nonpayable",
      "type": "function"
    },
    {
      "inputs": [
        {
          "internalType": "bytes4",
          "name": "interfaceId",
          "type": "bytes4"
        }
      ],
      "name": "supportsInterface",
      "outputs": [
        {
          "internalType": "bool",
          "name": "",
          "type": "bool"
        }
      ],
      "stateMutability": "view",
      "type": "function"
    },
    {
      "inputs": [
        {
          "internalType": "address",
          "name": "newOwner",
          "type": "address"
        }
      ],
      "name": "transferOwnership",
      "outputs": [],
      "stateMutability": "nonpayable",
      "type": "function"
    },
    {
      "inputs": [
        {
          "internalType": "address payable",
          "name": "receiver",
          "type": "address"
        },
        {
          "internalType": "address",
          "name": "tokenAddress",
          "type": "address"
        },
        {
          "internalType": "uint256",
          "name": "tokenId",
          "type": "uint256"
        },
        {
          "internalType": "uint256",
          "name": "amount",
          "type": "uint256"
        }
      ],
      "name": "withdrawERC1155",
      "outputs": [],
      "stateMutability": "nonpayable",
      "type": "function"
    },
    {
      "inputs": [
        {
          "internalType": "address payable",
          "name": "receiver",
          "type": "address"
        },
        {
          "internalType": "address",
          "name": "tokenAddress",
          "type": "address"
        },
        {
          "internalType": "uint256",
          "name": "tokenId",
          "type": "uint256"
        }
      ],
      "name": "withdrawERC721",
      "outputs": [],
      "stateMutability": "nonpayable",
      "type": "function"
    },
    {
      "inputs": [
        {
          "internalType": "address payable",
          "name": "receiver",
          "type": "address"
        },
        {
          "internalType": "address",
          "name": "tokenAddress",
          "type": "address"
        },
        {
          "internalType": "uint256",
          "name": "amount",
          "type": "uint256"
        }
      ],
      "name": "withdrawErc20",
      "outputs": [],
      "stateMutability": "nonpayable",
      "type": "function"
    },
    {
      "inputs": [
        {
          "internalType": "address payable",
          "name": "receiver",
          "type": "address"
        },
        {
          "internalType": "uint256",
          "name": "amount",
          "type": "uint256"
        }
      ],
      "name": "withdrawEther",
      "outputs": [],
      "stateMutability": "nonpayable",
      "type": "function"
    }
  ],
  "transactionHash": "0x7fdb85e970bfd47e0228869a34535d97ec6f39de477d5d8f2d46271928655713",
  "args": [],
  "numDeployments": 1,
  "solcInputHash": "32b0731c3960278295b6d910e85ee6a7",
  "bytecode": "0x60806040523480156200001157600080fd5b50600062000024620000cf60201b60201c565b9050806000806101000a81548173ffffffffffffffffffffffffffffffffffffffff021916908373ffffffffffffffffffffffffffffffffffffffff1602179055508073ffffffffffffffffffffffffffffffffffffffff16600073ffffffffffffffffffffffffffffffffffffffff167f8be0079c531659141344cd1fd0a4f28419497f9722a3daafe3b4186f6b6457e060405160405180910390a35060018081905550620000d7565b600033905090565b61550e80620000e76000396000f3fe608060405234801561001057600080fd5b50600436106101e45760003560e01c8063836c478d1161010f578063cf4eba91116100a2578063e70c2b1e11610071578063e70c2b1e14610599578063f23a6e61146105c9578063f2fde38b146105f9578063f7ed193814610615576101e4565b8063cf4eba9114610513578063d09513ba14610543578063dae9e3791461055f578063e4ea195d1461057d576101e4565b80639609bb90116100de5780639609bb901461048f578063a0edb48b146104ab578063ae9704cd146104c7578063bc197c81146104e3576101e4565b8063836c478d146103f557806386c3acfc146104255780638aee8127146104555780638da5cb5b14610471576101e4565b8063352685bc11610187578063522f681511610156578063522f68151461036f578063533f852e1461038b578063715018a6146103bb57806378448349146103c5576101e4565b8063352685bc146102eb5780634025feb214610307578063465262851461032357806350d0c63c1461033f576101e4565b806314e5f668116101c357806314e5f66814610265578063150b7a02146102835780631593dee1146102b35780631f5b149f146102cf576101e4565b80625f329a146101e957806301ffc9a7146102195780631065490d14610249575b600080fd5b61020360048036038101906101fe919061455a565b610631565b60405161021091906151aa565b60405180910390f35b610233600480360381019061022e9190614467565b6107e0565b6040516102409190614ed4565b60405180910390f35b610263600480360381019061025e919061435d565b6108bf565b005b61026d610a5f565b60405161027a919061518f565b60405180910390f35b61029d60048036038101906102989190614118565b610b25565b6040516102aa9190614eef565b60405180910390f35b6102cd60048036038101906102c89190613f5e565b610b3a565b005b6102e960048036038101906102e49190613f0c565b610bdf565b005b610305600480360381019061030091906144b9565b610cb8565b005b610321600480360381019061031c9190613f5e565b610e6e565b005b61033d60048036038101906103389190613f0c565b610f13565b005b610359600480360381019061035491906143ef565b610fef565b60405161036691906151aa565b60405180910390f35b61038960048036038101906103849190614010565b61130c565b005b6103a560048036038101906103a0919061422a565b6113af565b6040516103b291906151aa565b60405180910390f35b6103c36113fd565b005b6103df60048036038101906103da91906144b9565b611550565b6040516103ec9190615152565b60405180910390f35b61040f600480360381019061040a91906144b9565b611689565b60405161041c9190615174565b60405180910390f35b61043f600480360381019061043a9190613f0c565b6116d4565b60405161044c91906151aa565b60405180910390f35b61046f600480360381019061046a9190613f0c565b6116ec565b005b6104796117c8565b6040516104869190614d93565b60405180910390f35b6104a960048036038101906104a4919061422a565b6117f1565b005b6104c560048036038101906104c09190613fad565b6118ce565b005b6104e160048036038101906104dc9190613f0c565b611975565b005b6104fd60048036038101906104f8919061404c565b611a4e565b60405161050a9190614eef565b60405180910390f35b61052d6004803603810190610528919061450b565b611a5c565b60405161053a91906151aa565b60405180910390f35b61055d600480360381019061055891906142dd565b611a8e565b005b610567611e8c565b60405161057491906151aa565b60405180910390f35b61059760048036038101906105929190614266565b611e9b565b005b6105b360048036038101906105ae919061422a565b612100565b6040516105c091906151aa565b60405180910390f35b6105e360048036038101906105de9190614198565b612114565b6040516105f09190614eef565b60405180910390f35b610613600480360381019061060e9190613f0c565b61212a565b005b61062f600480360381019061062a9190614266565b6122ec565b005b600080600760008581526020019081526020016000209050610651613baf565b60086000868152602001908152602001600020604051806060016040529081600082015481526020016001820154815260200160028201548152505090506000816000015190506000836000015414156106b0578493505050506107da565b60006106c984600001544361250690919063ffffffff16565b905060006106d684612550565b905060008314806106e75750600081145b806106f25750600082145b156107045786955050505050506107da565b81811115610710578190505b60006107398361072b6127108561259f90919063ffffffff16565b61260f90919063ffffffff16565b90506000610764612710610756848c61259f90919063ffffffff16565b61260f90919063ffffffff16565b905060006107a261271061079461078560648a61259f90919063ffffffff16565b8561259f90919063ffffffff16565b61260f90919063ffffffff16565b905060006107b9838c61250690919063ffffffff16565b90506107ce828261265990919063ffffffff16565b99505050505050505050505b92915050565b60007f4e2312e0000000000000000000000000000000000000000000000000000000007bffffffffffffffffffffffffffffffffffffffffffffffffffffffff1916827bffffffffffffffffffffffffffffffffffffffffffffffffffffffff191614806108ab57507f01ffc9a7000000000000000000000000000000000000000000000000000000007bffffffffffffffffffffffffffffffffffffffffffffffffffffffff1916827bffffffffffffffffffffffffffffffffffffffffffffffffffffffff1916145b156108b957600190506108ba565b5b919050565b600260009054906101000a900473ffffffffffffffffffffffffffffffffffffffff1673ffffffffffffffffffffffffffffffffffffffff163373ffffffffffffffffffffffffffffffffffffffff161461094f576040517f08c379a000000000000000000000000000000000000000000000000000000000815260040161094690615052565b60405180910390fd5b600061097a868873ffffffffffffffffffffffffffffffffffffffff166126ae90919063ffffffff16565b90506000600760008381526020019081526020016000209050600081600001541415610a5557438160000181905550838160030160006101000a81548173ffffffffffffffffffffffffffffffffffffffff021916908373ffffffffffffffffffffffffffffffffffffffff16021790555085858260020191906109ff929190613bd0565b508773ffffffffffffffffffffffffffffffffffffffff167f30d53e48465c48642e346a636a4eef45c72095b65bef5825308376e2f59f09e288888887604051610a4c94939291906151c5565b60405180910390a25b5050505050505050565b610a67613c50565b60046040518060400160405290816000820160009054906101000a900473ffffffffffffffffffffffffffffffffffffffff1673ffffffffffffffffffffffffffffffffffffffff1673ffffffffffffffffffffffffffffffffffffffff1681526020016001820160009054906101000a900473ffffffffffffffffffffffffffffffffffffffff1673ffffffffffffffffffffffffffffffffffffffff1673ffffffffffffffffffffffffffffffffffffffff1681525050905090565b600063150b7a0260e01b905095945050505050565b610b426126e4565b73ffffffffffffffffffffffffffffffffffffffff1660008054906101000a900473ffffffffffffffffffffffffffffffffffffffff1673ffffffffffffffffffffffffffffffffffffffff1614610bcf576040517f08c379a0000000000000000000000000000000000000000000000000000000008152600401610bc6906150b2565b60405180910390fd5b610bda8383836126ec565b505050565b610be76126e4565b73ffffffffffffffffffffffffffffffffffffffff1660008054906101000a900473ffffffffffffffffffffffffffffffffffffffff1673ffffffffffffffffffffffffffffffffffffffff1614610c74576040517f08c379a0000000000000000000000000000000000000000000000000000000008152600401610c6b906150b2565b60405180910390fd5b80600360006101000a81548173ffffffffffffffffffffffffffffffffffffffff021916908373ffffffffffffffffffffffffffffffffffffffff16021790555050565b610cc06126e4565b73ffffffffffffffffffffffffffffffffffffffff1660008054906101000a900473ffffffffffffffffffffffffffffffffffffffff1673ffffffffffffffffffffffffffffffffffffffff1614610d4d576040517f08c379a0000000000000000000000000000000000000000000000000000000008152600401610d44906150b2565b60405180910390fd5b600073ffffffffffffffffffffffffffffffffffffffff16600460000160009054906101000a900473ffffffffffffffffffffffffffffffffffffffff1673ffffffffffffffffffffffffffffffffffffffff161415610de2576040517f08c379a0000000000000000000000000000000000000000000000000000000008152600401610dd990615072565b60405180910390fd5b610e34333083600460000160009054906101000a900473ffffffffffffffffffffffffffffffffffffffff1673ffffffffffffffffffffffffffffffffffffffff16612881909392919063ffffffff16565b7fcbd64454da4b3587b11b8f8170d7656cbe58e29ee18fd715b0e79ad85edb6e5d81604051610e6391906151aa565b60405180910390a150565b610e766126e4565b73ffffffffffffffffffffffffffffffffffffffff1660008054906101000a900473ffffffffffffffffffffffffffffffffffffffff1673ffffffffffffffffffffffffffffffffffffffff1614610f03576040517f08c379a0000000000000000000000000000000000000000000000000000000008152600401610efa906150b2565b60405180910390fd5b610f0e83838361290a565b505050565b610f1b6126e4565b73ffffffffffffffffffffffffffffffffffffffff1660008054906101000a900473ffffffffffffffffffffffffffffffffffffffff1673ffffffffffffffffffffffffffffffffffffffff1614610fa8576040517f08c379a0000000000000000000000000000000000000000000000000000000008152600401610f9f906150b2565b60405180910390fd5b80600460010160006101000a81548173ffffffffffffffffffffffffffffffffffffffff021916908373ffffffffffffffffffffffffffffffffffffffff16021790555050565b6000600260009054906101000a900473ffffffffffffffffffffffffffffffffffffffff1673ffffffffffffffffffffffffffffffffffffffff163373ffffffffffffffffffffffffffffffffffffffff1614611081576040517f08c379a000000000000000000000000000000000000000000000000000000000815260040161107890615052565b60405180910390fd5b611089612b06565b60006110b4848673ffffffffffffffffffffffffffffffffffffffff166126ae90919063ffffffff16565b9050600060076000838152602001908152602001600020905060006110fe838360030160009054906101000a900473ffffffffffffffffffffffffffffffffffffffff1687611a5c565b905061111781836001015461265990919063ffffffff16565b82600101819055506000600360009054906101000a900473ffffffffffffffffffffffffffffffffffffffff1673ffffffffffffffffffffffffffffffffffffffff166334b7328d846002016040518263ffffffff1660e01b815260040161117f9190614f50565b60206040518083038186803b15801561119757600080fd5b505afa1580156111ab573d6000803e3d6000fd5b505050506040513d601f19601f820116820180604052508101906111cf9190614490565b905060008173ffffffffffffffffffffffffffffffffffffffff16632da9ef818a8a8760030160009054906101000a900473ffffffffffffffffffffffffffffffffffffffff166040518463ffffffff1660e01b815260040161123493929190614e9d565b602060405180830381600087803b15801561124e57600080fd5b505af1158015611262573d6000803e3d6000fd5b505050506040513d601f19601f8201168201806040525081019061128691906144e2565b9050600081141561129c57600084600001819055505b6112a68989612b56565b95508873ffffffffffffffffffffffffffffffffffffffff167f8abeaea5da22bf1966530d4f970ac7c71ae0999eb1d2181afaeff8b56c394f3f89896040516112f0929190615205565b60405180910390a25050505050611305612d84565b9392505050565b6113146126e4565b73ffffffffffffffffffffffffffffffffffffffff1660008054906101000a900473ffffffffffffffffffffffffffffffffffffffff1673ffffffffffffffffffffffffffffffffffffffff16146113a1576040517f08c379a0000000000000000000000000000000000000000000000000000000008152600401611398906150b2565b60405180910390fd5b6113ab8282612d8d565b5050565b6000806113db838573ffffffffffffffffffffffffffffffffffffffff166126ae90919063ffffffff16565b9050600760008281526020019081526020016000206001015491505092915050565b6114056126e4565b73ffffffffffffffffffffffffffffffffffffffff1660008054906101000a900473ffffffffffffffffffffffffffffffffffffffff1673ffffffffffffffffffffffffffffffffffffffff1614611492576040517f08c379a0000000000000000000000000000000000000000000000000000000008152600401611489906150b2565b60405180910390fd5b600073ffffffffffffffffffffffffffffffffffffffff1660008054906101000a900473ffffffffffffffffffffffffffffffffffffffff1673ffffffffffffffffffffffffffffffffffffffff167f8be0079c531659141344cd1fd0a4f28419497f9722a3daafe3b4186f6b6457e060405160405180910390a360008060006101000a81548173ffffffffffffffffffffffffffffffffffffffff021916908373ffffffffffffffffffffffffffffffffffffffff160217905550565b611558613c96565b600760008381526020019081526020016000206040518060800160405290816000820154815260200160018201548152602001600282018054600181600116156101000203166002900480601f0160208091040260200160405190810160405280929190818152602001828054600181600116156101000203166002900480156116235780601f106115f857610100808354040283529160200191611623565b820191906000526020600020905b81548152906001019060200180831161160657829003601f168201915b505050505081526020016003820160009054906101000a900473ffffffffffffffffffffffffffffffffffffffff1673ffffffffffffffffffffffffffffffffffffffff1673ffffffffffffffffffffffffffffffffffffffff16815250509050919050565b611691613baf565b6008600083815260200190815260200160002060405180606001604052908160008201548152602001600182015481526020016002820154815250509050919050565b60096020528060005260406000206000915090505481565b6116f46126e4565b73ffffffffffffffffffffffffffffffffffffffff1660008054906101000a900473ffffffffffffffffffffffffffffffffffffffff1673ffffffffffffffffffffffffffffffffffffffff1614611781576040517f08c379a0000000000000000000000000000000000000000000000000000000008152600401611778906150b2565b60405180910390fd5b80600460000160006101000a81548173ffffffffffffffffffffffffffffffffffffffff021916908373ffffffffffffffffffffffffffffffffffffffff16021790555050565b60008060009054906101000a900473ffffffffffffffffffffffffffffffffffffffff16905090565b6117f96126e4565b73ffffffffffffffffffffffffffffffffffffffff1660008054906101000a900473ffffffffffffffffffffffffffffffffffffffff1673ffffffffffffffffffffffffffffffffffffffff1614611886576040517f08c379a000000000000000000000000000000000000000000000000000000000815260040161187d906150b2565b60405180910390fd5b80600960008473ffffffffffffffffffffffffffffffffffffffff1673ffffffffffffffffffffffffffffffffffffffff168152602001908152602001600020819055505050565b6118d66126e4565b73ffffffffffffffffffffffffffffffffffffffff1660008054906101000a900473ffffffffffffffffffffffffffffffffffffffff1673ffffffffffffffffffffffffffffffffffffffff1614611963576040517f08c379a000000000000000000000000000000000000000000000000000000000815260040161195a906150b2565b60405180910390fd5b61196f84848484612e7f565b50505050565b61197d6126e4565b73ffffffffffffffffffffffffffffffffffffffff1660008054906101000a900473ffffffffffffffffffffffffffffffffffffffff1673ffffffffffffffffffffffffffffffffffffffff1614611a0a576040517f08c379a0000000000000000000000000000000000000000000000000000000008152600401611a01906150b2565b60405180910390fd5b80600260006101000a81548173ffffffffffffffffffffffffffffffffffffffff021916908373ffffffffffffffffffffffffffffffffffffffff16021790555050565b600098975050505050505050565b600080611a69848461305d565b90506000611a778683610631565b9050611a838186613116565b925050509392505050565b600260009054906101000a900473ffffffffffffffffffffffffffffffffffffffff1673ffffffffffffffffffffffffffffffffffffffff163373ffffffffffffffffffffffffffffffffffffffff1614611b1e576040517f08c379a0000000000000000000000000000000000000000000000000000000008152600401611b1590615052565b60405180910390fd5b611b26612b06565b6000611b51858773ffffffffffffffffffffffffffffffffffffffff166126ae90919063ffffffff16565b905060006007600083815260200190815260200160002060000154148015611b8f575060006007600083815260200190815260200160002060010154145b611bce576040517f08c379a0000000000000000000000000000000000000000000000000000000008152600401611bc590614f92565b60405180910390fd5b6000600360009054906101000a900473ffffffffffffffffffffffffffffffffffffffff1673ffffffffffffffffffffffffffffffffffffffff166334b7328d86866040518363ffffffff1660e01b8152600401611c2d929190614f0a565b60206040518083038186803b158015611c4557600080fd5b505afa158015611c59573d6000803e3d6000fd5b505050506040513d601f19601f82011682018060405250810190611c7d9190614490565b905060008173ffffffffffffffffffffffffffffffffffffffff16632da9ef818989876040518463ffffffff1660e01b8152600401611cbe93929190614e9d565b602060405180830381600087803b158015611cd857600080fd5b505af1158015611cec573d6000803e3d6000fd5b505050506040513d601f19601f82011682018060405250810190611d1091906144e2565b90506000811115611e7a5760405180608001604052804381526020016000815260200187878080601f016020809104026020016040519081016040528093929190818152602001838380828437600081840152601f19601f8201169050808301925050505050505081526020018573ffffffffffffffffffffffffffffffffffffffff168152506007600085815260200190815260200160002060008201518160000155602082015181600101556040820151816002019080519060200190611dda929190613cd4565b5060608201518160030160006101000a81548173ffffffffffffffffffffffffffffffffffffffff021916908373ffffffffffffffffffffffffffffffffffffffff1602179055509050508773ffffffffffffffffffffffffffffffffffffffff167fdd1b8616b3983aa94529955a2f7d0dd75e5a93e53875372ea41a9eab5e3ef32688888885604051611e7194939291906151c5565b60405180910390a25b505050611e85612d84565b5050505050565b6000611e966131be565b905090565b600260009054906101000a900473ffffffffffffffffffffffffffffffffffffffff1673ffffffffffffffffffffffffffffffffffffffff163373ffffffffffffffffffffffffffffffffffffffff1614611f2b576040517f08c379a0000000000000000000000000000000000000000000000000000000008152600401611f2290615052565b60405180910390fd5b611f33612b06565b8273ffffffffffffffffffffffffffffffffffffffff16600460010160009054906101000a900473ffffffffffffffffffffffffffffffffffffffff1673ffffffffffffffffffffffffffffffffffffffff1614611f90576120f1565b6000611fbb858773ffffffffffffffffffffffffffffffffffffffff166126ae90919063ffffffff16565b90506000611fc98585613273565b9050600081118015611ffd5750611ffb816006600085815260200190815260200160002061339090919063ffffffff16565b155b156120875761202781600660008581526020019081526020016000206133aa90919063ffffffff16565b506000612033836133c4565b90506040518060600160405280828152602001438152602001600081525060086000858152602001908152602001600020600082015181600001556020820151816001015560408201518160020155905050505b8473ffffffffffffffffffffffffffffffffffffffff168773ffffffffffffffffffffffffffffffffffffffff167f186ebbe503be539e070ca73b33a78f4266d96003e62b888dc31f88a39ddc9c8788876040516120e6929190615205565b60405180910390a350505b6120f9612d84565b5050505050565b600061210c838361305d565b905092915050565b600063bc197c8160e01b90509695505050505050565b6121326126e4565b73ffffffffffffffffffffffffffffffffffffffff1660008054906101000a900473ffffffffffffffffffffffffffffffffffffffff1673ffffffffffffffffffffffffffffffffffffffff16146121bf576040517f08c379a00000000000000000000000000000000000000000000000000000000081526004016121b6906150b2565b60405180910390fd5b600073ffffffffffffffffffffffffffffffffffffffff168173ffffffffffffffffffffffffffffffffffffffff16141561222f576040517f08c379a000000000000000000000000000000000000000000000000000000000815260040161222690614fb2565b60405180910390fd5b8073ffffffffffffffffffffffffffffffffffffffff1660008054906101000a900473ffffffffffffffffffffffffffffffffffffffff1673ffffffffffffffffffffffffffffffffffffffff167f8be0079c531659141344cd1fd0a4f28419497f9722a3daafe3b4186f6b6457e060405160405180910390a3806000806101000a81548173ffffffffffffffffffffffffffffffffffffffff021916908373ffffffffffffffffffffffffffffffffffffffff16021790555050565b600260009054906101000a900473ffffffffffffffffffffffffffffffffffffffff1673ffffffffffffffffffffffffffffffffffffffff163373ffffffffffffffffffffffffffffffffffffffff161461237c576040517f08c379a000000000000000000000000000000000000000000000000000000000815260040161237390615052565b60405180910390fd5b8273ffffffffffffffffffffffffffffffffffffffff16600460010160009054906101000a900473ffffffffffffffffffffffffffffffffffffffff1673ffffffffffffffffffffffffffffffffffffffff16146123d9576124ff565b6000612404858773ffffffffffffffffffffffffffffffffffffffff166126ae90919063ffffffff16565b9050600060086000838152602001908152602001600020905060006124298686613273565b9050612450816006600086815260200190815260200160002061352290919063ffffffff16565b50600061246e6006600086815260200190815260200160002061353c565b111561248a5761247d836133c4565b8260000181905550612494565b4382600201819055505b8573ffffffffffffffffffffffffffffffffffffffff168873ffffffffffffffffffffffffffffffffffffffff167ff3cfcfc091fdd683cf6c013de9806af93f3af27b256a57cb776331291cef408589886040516124f3929190615205565b60405180910390a35050505b5050505050565b600061254883836040518060400160405280601e81526020017f536166654d6174683a207375627472616374696f6e206f766572666c6f770000815250613551565b905092915050565b60008082604001511115612580576125798260200151836040015161250690919063ffffffff16565b905061259a565b61259782602001514361250690919063ffffffff16565b90505b919050565b6000808314156125b25760009050612609565b60008284029050828482816125c357fe5b0414612604576040517f08c379a00000000000000000000000000000000000000000000000000000000081526004016125fb90615092565b60405180910390fd5b809150505b92915050565b600061265183836040518060400160405280601a81526020017f536166654d6174683a206469766973696f6e206279207a65726f0000000000008152506135ac565b905092915050565b6000808284019050838110156126a4576040517f08c379a000000000000000000000000000000000000000000000000000000000815260040161269b90614ff2565b60405180910390fd5b8091505092915050565b600082826040516020016126c3929190614d3b565b6040516020818303038152906040528051906020012060001c905092915050565b600033905090565b600073ffffffffffffffffffffffffffffffffffffffff168373ffffffffffffffffffffffffffffffffffffffff16141561275c576040517f08c379a000000000000000000000000000000000000000000000000000000000815260040161275390614fd2565b60405180910390fd5b808273ffffffffffffffffffffffffffffffffffffffff166370a08231306040518263ffffffff1660e01b81526004016127969190614d93565b60206040518083038186803b1580156127ae57600080fd5b505afa1580156127c2573d6000803e3d6000fd5b505050506040513d601f19601f820116820180604052508101906127e691906144e2565b1061287c5761281683828473ffffffffffffffffffffffffffffffffffffffff1661360d9092919063ffffffff16565b8173ffffffffffffffffffffffffffffffffffffffff168373ffffffffffffffffffffffffffffffffffffffff167f6c9d637297625e945b296ff73a71fcfbd0a9e062652b6491a921c4c60194176b8360405161287391906151aa565b60405180910390a35b505050565b612904846323b872dd60e01b8585856040516024016128a293929190614e3d565b604051602081830303815290604052907bffffffffffffffffffffffffffffffffffffffffffffffffffffffff19166020820180517bffffffffffffffffffffffffffffffffffffffffffffffffffffffff8381831617835250505050613693565b50505050565b600073ffffffffffffffffffffffffffffffffffffffff168373ffffffffffffffffffffffffffffffffffffffff16141561297a576040517f08c379a000000000000000000000000000000000000000000000000000000000815260040161297190614fd2565b60405180910390fd5b3073ffffffffffffffffffffffffffffffffffffffff168273ffffffffffffffffffffffffffffffffffffffff16636352211e836040518263ffffffff1660e01b81526004016129ca91906151aa565b60206040518083038186803b1580156129e257600080fd5b505afa1580156129f6573d6000803e3d6000fd5b505050506040513d601f19601f82011682018060405250810190612a1a9190613f35565b73ffffffffffffffffffffffffffffffffffffffff161415612b01578173ffffffffffffffffffffffffffffffffffffffff166323b872dd3085846040518463ffffffff1660e01b8152600401612a7393929190614dae565b600060405180830381600087803b158015612a8d57600080fd5b505af1158015612aa1573d6000803e3d6000fd5b50505050808273ffffffffffffffffffffffffffffffffffffffff168473ffffffffffffffffffffffffffffffffffffffff167ffefe036cac4ee3a4aca074a81cbcc4376e1484693289078dbec149c890101d5b60405160405180910390a45b505050565b60026001541415612b4c576040517f08c379a0000000000000000000000000000000000000000000000000000000008152600401612b4390615132565b60405180910390fd5b6002600181905550565b600080612b82838573ffffffffffffffffffffffffffffffffffffffff166126ae90919063ffffffff16565b9050600060076000838152602001908152602001600020905060008573ffffffffffffffffffffffffffffffffffffffff16636352211e866040518263ffffffff1660e01b8152600401612bd691906151aa565b60206040518083038186803b158015612bee57600080fd5b505afa158015612c02573d6000803e3d6000fd5b505050506040513d601f19601f82011682018060405250810190612c269190613f35565b9050816001015493506000612c396131be565b90506000818611612c4b576000612c5f565b612c5e828761250690919063ffffffff16565b5b90506000811115612cac57612c7d818761250690919063ffffffff16565b95507f9fc735fd421d3eb45362ea6d0d94945975bce33842b1bc94840719e66d937e4760405160405180910390a15b6000861115612d105760008460010181905550612d0f8387600460000160009054906101000a900473ffffffffffffffffffffffffffffffffffffffff1673ffffffffffffffffffffffffffffffffffffffff1661360d9092919063ffffffff16565b5b8273ffffffffffffffffffffffffffffffffffffffff168873ffffffffffffffffffffffffffffffffffffffff167fb918e5bcd5ce5aadd59ae96fe4c568669afc7af190dbf16061540816cb407c73898985604051612d719392919061522e565b60405180910390a3505050505092915050565b60018081905550565b600073ffffffffffffffffffffffffffffffffffffffff168273ffffffffffffffffffffffffffffffffffffffff161415612dfd576040517f08c379a0000000000000000000000000000000000000000000000000000000008152600401612df490614fd2565b60405180910390fd5b804710612e7b57612e2d818373ffffffffffffffffffffffffffffffffffffffff1661375a90919063ffffffff16565b8173ffffffffffffffffffffffffffffffffffffffff167eddb683bb45cd5d0ad8a200c6fae7152b1c236ee90a4a37db692407f5cc38bd82604051612e7291906151aa565b60405180910390a25b5050565b600073ffffffffffffffffffffffffffffffffffffffff168473ffffffffffffffffffffffffffffffffffffffff161415612eef576040517f08c379a0000000000000000000000000000000000000000000000000000000008152600401612ee690614fd2565b60405180910390fd5b808373ffffffffffffffffffffffffffffffffffffffff1662fdd58e30856040518363ffffffff1660e01b8152600401612f2a929190614e74565b60206040518083038186803b158015612f4257600080fd5b505afa158015612f56573d6000803e3d6000fd5b505050506040513d601f19601f82011682018060405250810190612f7a91906144e2565b10613057578273ffffffffffffffffffffffffffffffffffffffff1663f242432a308685856040518563ffffffff1660e01b8152600401612fbe9493929190614de5565b600060405180830381600087803b158015612fd857600080fd5b505af1158015612fec573d6000803e3d6000fd5b50505050818373ffffffffffffffffffffffffffffffffffffffff168573ffffffffffffffffffffffffffffffffffffffff167f620337bf89eea2b9ae2657beead83b5fa620452817118348aff96e201d52598b8460405161304e91906151aa565b60405180910390a45b50505050565b600080600960008573ffffffffffffffffffffffffffffffffffffffff1673ffffffffffffffffffffffffffffffffffffffff16815260200190815260200160002054905060008110156130e6576040517f08c379a00000000000000000000000000000000000000000000000000000000081526004016130dd906150d2565b60405180910390fd5b61310d6127106130ff838661259f90919063ffffffff16565b61260f90919063ffffffff16565b91505092915050565b6000808273ffffffffffffffffffffffffffffffffffffffff1663313ce5676040518163ffffffff1660e01b815260040160206040518083038186803b15801561315f57600080fd5b505afa158015613173573d6000803e3d6000fd5b505050506040513d601f19601f820116820180604052508101906131979190614596565b90506131b58160ff16601203600a0a8561259f90919063ffffffff16565b91505092915050565b6000600460000160009054906101000a900473ffffffffffffffffffffffffffffffffffffffff1673ffffffffffffffffffffffffffffffffffffffff166370a08231306040518263ffffffff1660e01b815260040161321e9190614d93565b60206040518083038186803b15801561323657600080fd5b505afa15801561324a573d6000803e3d6000fd5b505050506040513d601f19601f8201168201806040525081019061326e91906144e2565b905090565b60008063adf8252d60e01b9050600060608573ffffffffffffffffffffffffffffffffffffffff1683866040516024016132ad91906151aa565b604051602081830303815290604052907bffffffffffffffffffffffffffffffffffffffffffffffffffffffff19166020820180517bffffffffffffffffffffffffffffffffffffffffffffffffffffffff83818316178352505050506040516133179190614d67565b6000604051808303816000865af19150503d8060008114613354576040519150601f19603f3d011682016040523d82523d6000602084013e613359565b606091505b50915091508115613382578080602001905181019061337891906144e2565b935050505061338a565b600093505050505b92915050565b60006133a2836000018360001b61384e565b905092915050565b60006133bc836000018360001b613871565b905092915050565b6000806133e26006600085815260200190815260200160002061353c565b90506000806000600684141561341257613407600a606461259f90919063ffffffff16565b94505050505061351d565b600484111561348a575b838110156134855761344983600660008981526020019081526020016000206138e190919063ffffffff16565b61346e82600660008a81526020019081526020016000206138e190919063ffffffff16565b1015613478578092505b808060010191505061341c565b600090505b5b838110156134f3576004841180156134a257508281145b156134ac576134e6565b6134e36134d482600660008a81526020019081526020016000206138e190919063ffffffff16565b8361265990919063ffffffff16565b91505b808060010191505061348b565b600184116135015781613516565b61351560028361260f90919063ffffffff16565b5b9450505050505b919050565b6000613534836000018360001b6138fb565b905092915050565b600061354a826000016139e3565b9050919050565b6000838311158290613599576040517f08c379a00000000000000000000000000000000000000000000000000000000081526004016135909190614f2e565b60405180910390fd5b5060008385039050809150509392505050565b600080831182906135f3576040517f08c379a00000000000000000000000000000000000000000000000000000000081526004016135ea9190614f2e565b60405180910390fd5b5060008385816135ff57fe5b049050809150509392505050565b61368e8363a9059cbb60e01b848460405160240161362c929190614e74565b604051602081830303815290604052907bffffffffffffffffffffffffffffffffffffffffffffffffffffffff19166020820180517bffffffffffffffffffffffffffffffffffffffffffffffffffffffff8381831617835250505050613693565b505050565b60606136f5826040518060400160405280602081526020017f5361666545524332303a206c6f772d6c6576656c2063616c6c206661696c65648152508573ffffffffffffffffffffffffffffffffffffffff166139f49092919063ffffffff16565b90506000815111156137555780806020019051810190613715919061443e565b613754576040517f08c379a000000000000000000000000000000000000000000000000000000000815260040161374b90615112565b60405180910390fd5b5b505050565b8047101561379d576040517f08c379a000000000000000000000000000000000000000000000000000000000815260040161379490615032565b60405180910390fd5b60008273ffffffffffffffffffffffffffffffffffffffff16826040516137c390614d7e565b60006040518083038185875af1925050503d8060008114613800576040519150601f19603f3d011682016040523d82523d6000602084013e613805565b606091505b5050905080613849576040517f08c379a000000000000000000000000000000000000000000000000000000000815260040161384090615012565b60405180910390fd5b505050565b600080836001016000848152602001908152602001600020541415905092915050565b600061387d838361384e565b6138d65782600001829080600181540180825580915050600190039060005260206000200160009091909190915055826000018054905083600101600084815260200190815260200160002081905550600190506138db565b600090505b92915050565b60006138f08360000183613a0c565b60001c905092915050565b600080836001016000848152602001908152602001600020549050600081146139d7576000600182039050600060018660000180549050039050600086600001828154811061394657fe5b906000526020600020015490508087600001848154811061396357fe5b906000526020600020018190555060018301876001016000838152602001908152602001600020819055508660000180548061399b57fe5b600190038181906000526020600020016000905590558660010160008781526020019081526020016000206000905560019450505050506139dd565b60009150505b92915050565b600081600001805490509050919050565b6060613a038484600085613a79565b90509392505050565b600081836000018054905011613a57576040517f08c379a0000000000000000000000000000000000000000000000000000000008152600401613a4e90614f72565b60405180910390fd5b826000018281548110613a6657fe5b9060005260206000200154905092915050565b6060613a8485613b9c565b613ac3576040517f08c379a0000000000000000000000000000000000000000000000000000000008152600401613aba906150f2565b60405180910390fd5b600060608673ffffffffffffffffffffffffffffffffffffffff168587604051613aed9190614d67565b60006040518083038185875af1925050503d8060008114613b2a576040519150601f19603f3d011682016040523d82523d6000602084013e613b2f565b606091505b50915091508115613b44578092505050613b94565b600081511115613b575780518082602001fd5b836040517f08c379a0000000000000000000000000000000000000000000000000000000008152600401613b8b9190614f2e565b60405180910390fd5b949350505050565b600080823b905060008111915050919050565b60405180606001604052806000815260200160008152602001600081525090565b828054600181600116156101000203166002900490600052602060002090601f016020900481019282601f10613c1157803560ff1916838001178555613c3f565b82800160010185558215613c3f579182015b82811115613c3e578235825591602001919060010190613c23565b5b509050613c4c9190613d54565b5090565b6040518060400160405280600073ffffffffffffffffffffffffffffffffffffffff168152602001600073ffffffffffffffffffffffffffffffffffffffff1681525090565b6040518060800160405280600081526020016000815260200160608152602001600073ffffffffffffffffffffffffffffffffffffffff1681525090565b828054600181600116156101000203166002900490600052602060002090601f016020900481019282601f10613d1557805160ff1916838001178555613d43565b82800160010185558215613d43579182015b82811115613d42578251825591602001919060010190613d27565b5b509050613d509190613d54565b5090565b5b80821115613d6d576000816000905550600101613d55565b5090565b600081359050613d8081615437565b92915050565b600081519050613d9581615437565b92915050565b600081359050613daa8161544e565b92915050565b60008083601f840112613dc257600080fd5b8235905067ffffffffffffffff811115613ddb57600080fd5b602083019150836020820283011115613df357600080fd5b9250929050565b600081519050613e0981615465565b92915050565b600081359050613e1e8161547c565b92915050565b60008083601f840112613e3657600080fd5b8235905067ffffffffffffffff811115613e4f57600080fd5b602083019150836001820283011115613e6757600080fd5b9250929050565b600081519050613e7d81615493565b92915050565b60008083601f840112613e9557600080fd5b8235905067ffffffffffffffff811115613eae57600080fd5b602083019150836001820283011115613ec657600080fd5b9250929050565b600081359050613edc816154aa565b92915050565b600081519050613ef1816154aa565b92915050565b600081519050613f06816154c1565b92915050565b600060208284031215613f1e57600080fd5b6000613f2c84828501613d71565b91505092915050565b600060208284031215613f4757600080fd5b6000613f5584828501613d86565b91505092915050565b600080600060608486031215613f7357600080fd5b6000613f8186828701613d9b565b9350506020613f9286828701613d71565b9250506040613fa386828701613ecd565b9150509250925092565b60008060008060808587031215613fc357600080fd5b6000613fd187828801613d9b565b9450506020613fe287828801613d71565b9350506040613ff387828801613ecd565b925050606061400487828801613ecd565b91505092959194509250565b6000806040838503121561402357600080fd5b600061403185828601613d9b565b925050602061404285828601613ecd565b9150509250929050565b60008060008060008060008060a0898b03121561406857600080fd5b60006140768b828c01613d71565b98505060206140878b828c01613d71565b975050604089013567ffffffffffffffff8111156140a457600080fd5b6140b08b828c01613db0565b9650965050606089013567ffffffffffffffff8111156140cf57600080fd5b6140db8b828c01613db0565b9450945050608089013567ffffffffffffffff8111156140fa57600080fd5b6141068b828c01613e24565b92509250509295985092959890939650565b60008060008060006080868803121561413057600080fd5b600061413e88828901613d71565b955050602061414f88828901613d71565b945050604061416088828901613ecd565b935050606086013567ffffffffffffffff81111561417d57600080fd5b61418988828901613e24565b92509250509295509295909350565b60008060008060008060a087890312156141b157600080fd5b60006141bf89828a01613d71565b96505060206141d089828a01613d71565b95505060406141e189828a01613ecd565b94505060606141f289828a01613ecd565b935050608087013567ffffffffffffffff81111561420f57600080fd5b61421b89828a01613e24565b92509250509295509295509295565b6000806040838503121561423d57600080fd5b600061424b85828601613d71565b925050602061425c85828601613ecd565b9150509250929050565b600080600080600060a0868803121561427e57600080fd5b600061428c88828901613d71565b955050602061429d88828901613ecd565b94505060406142ae88828901613d71565b93505060606142bf88828901613ecd565b92505060806142d088828901613ecd565b9150509295509295909350565b6000806000806000608086880312156142f557600080fd5b600061430388828901613d71565b955050602061431488828901613ecd565b945050604086013567ffffffffffffffff81111561433157600080fd5b61433d88828901613e83565b9350935050606061435088828901613d71565b9150509295509295909350565b60008060008060008060a0878903121561437657600080fd5b600061438489828a01613d71565b965050602061439589828a01613ecd565b955050604087013567ffffffffffffffff8111156143b257600080fd5b6143be89828a01613e83565b945094505060606143d189828a01613d71565b92505060806143e289828a01613ecd565b9150509295509295509295565b60008060006060848603121561440457600080fd5b600061441286828701613d71565b935050602061442386828701613ecd565b925050604061443486828701613ecd565b9150509250925092565b60006020828403121561445057600080fd5b600061445e84828501613dfa565b91505092915050565b60006020828403121561447957600080fd5b600061448784828501613e0f565b91505092915050565b6000602082840312156144a257600080fd5b60006144b084828501613e6e565b91505092915050565b6000602082840312156144cb57600080fd5b60006144d984828501613ecd565b91505092915050565b6000602082840312156144f457600080fd5b600061450284828501613ee2565b91505092915050565b60008060006060848603121561452057600080fd5b600061452e86828701613ecd565b935050602061453f86828701613d71565b925050604061455086828701613ecd565b9150509250925092565b6000806040838503121561456d57600080fd5b600061457b85828601613ecd565b925050602061458c85828601613ecd565b9150509250929050565b6000602082840312156145a857600080fd5b60006145b684828501613ef7565b91505092915050565b6145c881615373565b82525050565b6145d7816152ce565b82525050565b6145e6816152ce565b82525050565b6145fd6145f8826152ce565b6153eb565b82525050565b61460c816152f2565b82525050565b61461b816152fe565b82525050565b600061462c8261527a565b61463681856152a1565b93506146468185602086016153b8565b80840191505092915050565b600061465e83856152bd565b935061466b8385846153a9565b61467483615419565b840190509392505050565b600061468a82615285565b61469481856152ac565b93506146a48185602086016153b8565b6146ad81615419565b840191505092915050565b60006146c382615285565b6146cd81856152bd565b93506146dd8185602086016153b8565b6146e681615419565b840191505092915050565b60008154600181166000811461470e576001811461473457614778565b607f600283041661471f81876152bd565b955060ff198316865260208601935050614778565b6002820461474281876152bd565b955061474d85615265565b60005b8281101561476f57815481890152600182019150602081019050614750565b80880195505050505b505092915050565b600061478d6022836152bd565b91507f456e756d657261626c655365743a20696e646578206f7574206f6620626f756e60008301527f64730000000000000000000000000000000000000000000000000000000000006020830152604082019050919050565b60006147f36008836152bd565b91507f52503a452d3030320000000000000000000000000000000000000000000000006000830152602082019050919050565b60006148336026836152bd565b91507f4f776e61626c653a206e6577206f776e657220697320746865207a65726f206160008301527f64647265737300000000000000000000000000000000000000000000000000006020830152604082019050919050565b60006148996009836152bd565b91507f4248503a452d34303300000000000000000000000000000000000000000000006000830152602082019050919050565b60006148d9601b836152bd565b91507f536166654d6174683a206164646974696f6e206f766572666c6f7700000000006000830152602082019050919050565b6000614919603a836152bd565b91507f416464726573733a20756e61626c6520746f2073656e642076616c75652c207260008301527f6563697069656e74206d617920686176652072657665727465640000000000006020830152604082019050919050565b600061497f601d836152bd565b91507f416464726573733a20696e73756666696369656e742062616c616e63650000006000830152602082019050919050565b60006149bf6008836152bd565b91507f52503a452d3130380000000000000000000000000000000000000000000000006000830152602082019050919050565b60006149ff6008836152bd565b91507f52503a452d3430350000000000000000000000000000000000000000000000006000830152602082019050919050565b6000614a3f6021836152bd565b91507f536166654d6174683a206d756c7469706c69636174696f6e206f766572666c6f60008301527f77000000000000000000000000000000000000000000000000000000000000006020830152604082019050919050565b6000614aa56020836152bd565b91507f4f776e61626c653a2063616c6c6572206973206e6f7420746865206f776e65726000830152602082019050919050565b6000614ae56017836152bd565b91507f42617365206d756c7469706c696572206e6f74207365740000000000000000006000830152602082019050919050565b6000614b25600083615290565b9150600082019050919050565b6000614b3f6000836152a1565b9150600082019050919050565b6000614b59601d836152bd565b91507f416464726573733a2063616c6c20746f206e6f6e2d636f6e74726163740000006000830152602082019050919050565b6000614b99602a836152bd565b91507f5361666545524332303a204552433230206f7065726174696f6e20646964206e60008301527f6f742073756363656564000000000000000000000000000000000000000000006020830152604082019050919050565b6000614bff601f836152bd565b91507f5265656e7472616e637947756172643a207265656e7472616e742063616c6c006000830152602082019050919050565b6000608083016000830151614c4a6000860182614d06565b506020830151614c5d6020860182614d06565b5060408301518482036040860152614c75828261467f565b9150506060830151614c8a60608601826145ce565b508091505092915050565b606082016000820151614cab6000850182614d06565b506020820151614cbe6020850182614d06565b506040820151614cd16040850182614d06565b50505050565b604082016000820151614ced60008501826145ce565b506020820151614d0060208501826145ce565b50505050565b614d0f8161535c565b82525050565b614d1e8161535c565b82525050565b614d35614d308261535c565b61540f565b82525050565b6000614d4782856145ec565b601482019150614d578284614d24565b6020820191508190509392505050565b6000614d738284614621565b915081905092915050565b6000614d8982614b32565b9150819050919050565b6000602082019050614da860008301846145dd565b92915050565b6000606082019050614dc360008301866145dd565b614dd060208301856145bf565b614ddd6040830184614d15565b949350505050565b600060a082019050614dfa60008301876145dd565b614e0760208301866145bf565b614e146040830185614d15565b614e216060830184614d15565b8181036080830152614e3281614b18565b905095945050505050565b6000606082019050614e5260008301866145dd565b614e5f60208301856145dd565b614e6c6040830184614d15565b949350505050565b6000604082019050614e8960008301856145dd565b614e966020830184614d15565b9392505050565b6000606082019050614eb260008301866145dd565b614ebf6020830185614d15565b614ecc60408301846145dd565b949350505050565b6000602082019050614ee96000830184614603565b92915050565b6000602082019050614f046000830184614612565b92915050565b60006020820190508181036000830152614f25818486614652565b90509392505050565b60006020820190508181036000830152614f4881846146b8565b905092915050565b60006020820190508181036000830152614f6a81846146f1565b905092915050565b60006020820190508181036000830152614f8b81614780565b9050919050565b60006020820190508181036000830152614fab816147e6565b9050919050565b60006020820190508181036000830152614fcb81614826565b9050919050565b60006020820190508181036000830152614feb8161488c565b9050919050565b6000602082019050818103600083015261500b816148cc565b9050919050565b6000602082019050818103600083015261502b8161490c565b9050919050565b6000602082019050818103600083015261504b81614972565b9050919050565b6000602082019050818103600083015261506b816149b2565b9050919050565b6000602082019050818103600083015261508b816149f2565b9050919050565b600060208201905081810360008301526150ab81614a32565b9050919050565b600060208201905081810360008301526150cb81614a98565b9050919050565b600060208201905081810360008301526150eb81614ad8565b9050919050565b6000602082019050818103600083015261510b81614b4c565b9050919050565b6000602082019050818103600083015261512b81614b8c565b9050919050565b6000602082019050818103600083015261514b81614bf2565b9050919050565b6000602082019050818103600083015261516c8184614c32565b905092915050565b60006060820190506151896000830184614c95565b92915050565b60006040820190506151a46000830184614cd7565b92915050565b60006020820190506151bf6000830184614d15565b92915050565b60006060820190506151da6000830187614d15565b81810360208301526151ed818587614652565b90506151fc6040830184614d15565b95945050505050565b600060408201905061521a6000830185614d15565b6152276020830184614d15565b9392505050565b60006060820190506152436000830186614d15565b6152506020830185614d15565b61525d6040830184614d15565b949350505050565b60008190508160005260206000209050919050565b600081519050919050565b600081519050919050565b600082825260208201905092915050565b600081905092915050565b600082825260208201905092915050565b600082825260208201905092915050565b60006152d98261533c565b9050919050565b60006152eb8261533c565b9050919050565b60008115159050919050565b60007fffffffff0000000000000000000000000000000000000000000000000000000082169050919050565b6000615335826152ce565b9050919050565b600073ffffffffffffffffffffffffffffffffffffffff82169050919050565b6000819050919050565b600060ff82169050919050565b600061537e82615385565b9050919050565b600061539082615397565b9050919050565b60006153a28261533c565b9050919050565b82818337600083830152505050565b60005b838110156153d65780820151818401526020810190506153bb565b838111156153e5576000848401525b50505050565b60006153f6826153fd565b9050919050565b60006154088261542a565b9050919050565b6000819050919050565b6000601f19601f8301169050919050565b60008160601b9050919050565b615440816152ce565b811461544b57600080fd5b50565b615457816152e0565b811461546257600080fd5b50565b61546e816152f2565b811461547957600080fd5b50565b615485816152fe565b811461549057600080fd5b50565b61549c8161532a565b81146154a757600080fd5b50565b6154b38161535c565b81146154be57600080fd5b50565b6154ca81615366565b81146154d557600080fd5b5056fea264697066735822122047a419d58f0cb9076dd7bd9e37fd5d0a20d861ecf3bfd9a2045d97d90e63e31864736f6c634300060c0033",
  "devdoc": {
    "kind": "dev",
    "methods": {
      "owner()": {
        "details": "Returns the address of the current owner."
      },
      "renounceOwnership()": {
        "details": "Leaves the contract without owner. It will not be possible to call `onlyOwner` functions anymore. Can only be called by the current owner. NOTE: Renouncing ownership will leave the contract without an owner, thereby removing any functionality that is only available to the owner."
      },
      "supportsInterface(bytes4)": {
        "details": "Returns true if this contract implements the interface defined by `interfaceId`. See the corresponding https://eips.ethereum.org/EIPS/eip-165#how-interfaces-are-identified[EIP section] to learn more about how these ids are created. This function call must use less than 30 000 gas."
      },
      "transferOwnership(address)": {
        "details": "Transfers ownership of the contract to a new account (`newOwner`). Can only be called by the current owner."
      }
    },
    "version": 1
  },
  "userdoc": {
    "kind": "user",
    "methods": {},
    "version": 1
  },
  "storageLayout": {
    "storage": [
      {
        "astId": 4406,
        "contract": "contracts/v1/incentives/RewardProgram.sol:RewardProgram",
        "label": "_owner",
        "offset": 0,
        "slot": "0",
        "type": "t_address"
      },
      {
        "astId": 33595,
        "contract": "contracts/v1/incentives/RewardProgram.sol:RewardProgram",
        "label": "_status",
        "offset": 0,
        "slot": "1",
        "type": "t_uint256"
      },
      {
        "astId": 18473,
        "contract": "contracts/v1/incentives/RewardProgram.sol:RewardProgram",
        "label": "_universe",
        "offset": 0,
        "slot": "2",
        "type": "t_address"
      },
      {
        "astId": 18475,
        "contract": "contracts/v1/incentives/RewardProgram.sol:RewardProgram",
        "label": "_chargedManagers",
        "offset": 0,
        "slot": "3",
        "type": "t_contract(IChargedManagers)26842"
      },
      {
        "astId": 18477,
        "contract": "contracts/v1/incentives/RewardProgram.sol:RewardProgram",
        "label": "_programData",
        "offset": 0,
        "slot": "4",
        "type": "t_struct(ProgramRewardData)28675_storage"
      },
      {
        "astId": 18481,
        "contract": "contracts/v1/incentives/RewardProgram.sol:RewardProgram",
        "label": "_multiplierNftsSet",
        "offset": 0,
        "slot": "6",
        "type": "t_mapping(t_uint256,t_struct(UintSet)8991_storage)"
      },
      {
        "astId": 18485,
        "contract": "contracts/v1/incentives/RewardProgram.sol:RewardProgram",
        "label": "_assetStake",
        "offset": 0,
        "slot": "7",
        "type": "t_mapping(t_uint256,t_struct(AssetStake)28684_storage)"
      },
      {
        "astId": 18489,
        "contract": "contracts/v1/incentives/RewardProgram.sol:RewardProgram",
        "label": "_nftStake",
        "offset": 0,
        "slot": "8",
        "type": "t_mapping(t_uint256,t_struct(NftStake)28691_storage)"
      },
      {
        "astId": 18493,
        "contract": "contracts/v1/incentives/RewardProgram.sol:RewardProgram",
        "label": "baseMultipliers",
        "offset": 0,
        "slot": "9",
        "type": "t_mapping(t_address,t_uint256)"
      }
    ],
    "types": {
      "t_address": {
        "encoding": "inplace",
        "label": "address",
        "numberOfBytes": "20"
      },
      "t_array(t_bytes32)dyn_storage": {
        "base": "t_bytes32",
        "encoding": "dynamic_array",
        "label": "bytes32[]",
        "numberOfBytes": "32"
      },
      "t_bytes32": {
        "encoding": "inplace",
        "label": "bytes32",
        "numberOfBytes": "32"
      },
      "t_contract(IChargedManagers)26842": {
        "encoding": "inplace",
        "label": "contract IChargedManagers",
        "numberOfBytes": "20"
      },
      "t_mapping(t_address,t_uint256)": {
        "encoding": "mapping",
        "key": "t_address",
        "label": "mapping(address => uint256)",
        "numberOfBytes": "32",
        "value": "t_uint256"
      },
      "t_mapping(t_bytes32,t_uint256)": {
        "encoding": "mapping",
        "key": "t_bytes32",
        "label": "mapping(bytes32 => uint256)",
        "numberOfBytes": "32",
        "value": "t_uint256"
      },
      "t_mapping(t_uint256,t_struct(AssetStake)28684_storage)": {
        "encoding": "mapping",
        "key": "t_uint256",
        "label": "mapping(uint256 => struct IRewardProgram.AssetStake)",
        "numberOfBytes": "32",
        "value": "t_struct(AssetStake)28684_storage"
      },
      "t_mapping(t_uint256,t_struct(NftStake)28691_storage)": {
        "encoding": "mapping",
        "key": "t_uint256",
        "label": "mapping(uint256 => struct IRewardProgram.NftStake)",
        "numberOfBytes": "32",
        "value": "t_struct(NftStake)28691_storage"
      },
      "t_mapping(t_uint256,t_struct(UintSet)8991_storage)": {
        "encoding": "mapping",
        "key": "t_uint256",
        "label": "mapping(uint256 => struct EnumerableSet.UintSet)",
        "numberOfBytes": "32",
        "value": "t_struct(UintSet)8991_storage"
      },
      "t_string_storage": {
        "encoding": "bytes",
        "label": "string",
        "numberOfBytes": "32"
      },
      "t_struct(AssetStake)28684_storage": {
        "encoding": "inplace",
        "label": "struct IRewardProgram.AssetStake",
        "members": [
          {
            "astId": 28677,
            "contract": "contracts/v1/incentives/RewardProgram.sol:RewardProgram",
            "label": "start",
            "offset": 0,
            "slot": "0",
            "type": "t_uint256"
          },
          {
            "astId": 28679,
            "contract": "contracts/v1/incentives/RewardProgram.sol:RewardProgram",
            "label": "claimableRewards",
            "offset": 0,
            "slot": "1",
            "type": "t_uint256"
          },
          {
            "astId": 28681,
            "contract": "contracts/v1/incentives/RewardProgram.sol:RewardProgram",
            "label": "walletManagerId",
            "offset": 0,
            "slot": "2",
            "type": "t_string_storage"
          },
          {
            "astId": 28683,
            "contract": "contracts/v1/incentives/RewardProgram.sol:RewardProgram",
            "label": "stakingToken",
            "offset": 0,
            "slot": "3",
            "type": "t_address"
          }
        ],
        "numberOfBytes": "128"
      },
      "t_struct(NftStake)28691_storage": {
        "encoding": "inplace",
        "label": "struct IRewardProgram.NftStake",
        "members": [
          {
            "astId": 28686,
            "contract": "contracts/v1/incentives/RewardProgram.sol:RewardProgram",
            "label": "multiplier",
            "offset": 0,
            "slot": "0",
            "type": "t_uint256"
          },
          {
            "astId": 28688,
            "contract": "contracts/v1/incentives/RewardProgram.sol:RewardProgram",
            "label": "depositBlockNumber",
            "offset": 0,
            "slot": "1",
            "type": "t_uint256"
          },
          {
            "astId": 28690,
            "contract": "contracts/v1/incentives/RewardProgram.sol:RewardProgram",
            "label": "releaseBlockNumber",
            "offset": 0,
            "slot": "2",
            "type": "t_uint256"
          }
        ],
        "numberOfBytes": "96"
      },
      "t_struct(ProgramRewardData)28675_storage": {
        "encoding": "inplace",
        "label": "struct IRewardProgram.ProgramRewardData",
        "members": [
          {
            "astId": 28672,
            "contract": "contracts/v1/incentives/RewardProgram.sol:RewardProgram",
            "label": "rewardToken",
            "offset": 0,
            "slot": "0",
            "type": "t_address"
          },
          {
            "astId": 28674,
            "contract": "contracts/v1/incentives/RewardProgram.sol:RewardProgram",
            "label": "multiplierNft",
            "offset": 0,
            "slot": "1",
            "type": "t_address"
          }
        ],
        "numberOfBytes": "64"
      },
      "t_struct(Set)8702_storage": {
        "encoding": "inplace",
        "label": "struct EnumerableSet.Set",
        "members": [
          {
            "astId": 8697,
            "contract": "contracts/v1/incentives/RewardProgram.sol:RewardProgram",
            "label": "_values",
            "offset": 0,
            "slot": "0",
            "type": "t_array(t_bytes32)dyn_storage"
          },
          {
            "astId": 8701,
            "contract": "contracts/v1/incentives/RewardProgram.sol:RewardProgram",
            "label": "_indexes",
            "offset": 0,
            "slot": "1",
            "type": "t_mapping(t_bytes32,t_uint256)"
          }
        ],
        "numberOfBytes": "64"
      },
      "t_struct(UintSet)8991_storage": {
        "encoding": "inplace",
        "label": "struct EnumerableSet.UintSet",
        "members": [
          {
            "astId": 8990,
            "contract": "contracts/v1/incentives/RewardProgram.sol:RewardProgram",
            "label": "_inner",
            "offset": 0,
            "slot": "0",
            "type": "t_struct(Set)8702_storage"
          }
        ],
        "numberOfBytes": "64"
      },
      "t_uint256": {
        "encoding": "inplace",
        "label": "uint256",
        "numberOfBytes": "32"
      }
    }
  }
}