{
  "address": "0xA0fe62f5aFD5F0666CA24b0E6f08A80a7cdB1564",
  "abi": [
    {
      "inputs": [],
      "stateMutability": "nonpayable",
      "type": "constructor"
    },
    {
      "anonymous": false,
      "inputs": [
        {
          "indexed": true,
          "internalType": "address",
          "name": "previousOwner",
          "type": "address"
        },
        {
          "indexed": true,
          "internalType": "address",
          "name": "newOwner",
          "type": "address"
        }
      ],
      "name": "OwnershipTransferred",
      "type": "event"
    },
    {
      "anonymous": false,
      "inputs": [
        {
          "indexed": true,
          "internalType": "address",
          "name": "rewardProgram",
          "type": "address"
        }
      ],
      "name": "RewardProgramCreated",
      "type": "event"
    },
    {
      "anonymous": false,
      "inputs": [
        {
          "indexed": true,
          "internalType": "address",
          "name": "receiver",
          "type": "address"
        },
        {
          "indexed": true,
          "internalType": "address",
          "name": "tokenAddress",
          "type": "address"
        },
        {
          "indexed": true,
          "internalType": "uint256",
          "name": "tokenId",
          "type": "uint256"
        },
        {
          "indexed": false,
          "internalType": "uint256",
          "name": "amount",
          "type": "uint256"
        }
      ],
      "name": "WithdrawStuckERC1155",
      "type": "event"
    },
    {
      "anonymous": false,
      "inputs": [
        {
          "indexed": true,
          "internalType": "address",
          "name": "receiver",
          "type": "address"
        },
        {
          "indexed": true,
          "internalType": "address",
          "name": "tokenAddress",
          "type": "address"
        },
        {
          "indexed": false,
          "internalType": "uint256",
          "name": "amount",
          "type": "uint256"
        }
      ],
      "name": "WithdrawStuckERC20",
      "type": "event"
    },
    {
      "anonymous": false,
      "inputs": [
        {
          "indexed": true,
          "internalType": "address",
          "name": "receiver",
          "type": "address"
        },
        {
          "indexed": true,
          "internalType": "address",
          "name": "tokenAddress",
          "type": "address"
        },
        {
          "indexed": true,
          "internalType": "uint256",
          "name": "tokenId",
          "type": "uint256"
        }
      ],
      "name": "WithdrawStuckERC721",
      "type": "event"
    },
    {
      "anonymous": false,
      "inputs": [
        {
          "indexed": true,
          "internalType": "address",
          "name": "receiver",
          "type": "address"
        },
        {
          "indexed": false,
          "internalType": "uint256",
          "name": "amount",
          "type": "uint256"
        }
      ],
      "name": "WithdrawStuckEther",
      "type": "event"
    },
    {
      "inputs": [
        {
          "internalType": "address",
          "name": "stakingToken",
          "type": "address"
        },
        {
          "internalType": "address",
          "name": "rewardToken",
          "type": "address"
        },
        {
          "internalType": "uint256",
          "name": "baseMultiplier",
          "type": "uint256"
        },
        {
          "internalType": "address",
          "name": "chargedManagers",
          "type": "address"
        },
        {
          "internalType": "address",
          "name": "universe",
          "type": "address"
        }
      ],
      "name": "createRewardProgram",
      "outputs": [
        {
          "internalType": "address",
          "name": "",
          "type": "address"
        }
      ],
      "stateMutability": "nonpayable",
      "type": "function"
    },
    {
      "inputs": [],
      "name": "owner",
      "outputs": [
        {
          "internalType": "address",
          "name": "",
          "type": "address"
        }
      ],
      "stateMutability": "view",
      "type": "function"
    },
    {
      "inputs": [],
      "name": "renounceOwnership",
      "outputs": [],
      "stateMutability": "nonpayable",
      "type": "function"
    },
    {
      "inputs": [
        {
          "internalType": "address",
          "name": "newOwner",
          "type": "address"
        }
      ],
      "name": "transferOwnership",
      "outputs": [],
      "stateMutability": "nonpayable",
      "type": "function"
    },
    {
      "inputs": [
        {
          "internalType": "address payable",
          "name": "receiver",
          "type": "address"
        },
        {
          "internalType": "address",
          "name": "tokenAddress",
          "type": "address"
        },
        {
          "internalType": "uint256",
          "name": "tokenId",
          "type": "uint256"
        },
        {
          "internalType": "uint256",
          "name": "amount",
          "type": "uint256"
        }
      ],
      "name": "withdrawERC1155",
      "outputs": [],
      "stateMutability": "nonpayable",
      "type": "function"
    },
    {
      "inputs": [
        {
          "internalType": "address payable",
          "name": "receiver",
          "type": "address"
        },
        {
          "internalType": "address",
          "name": "tokenAddress",
          "type": "address"
        },
        {
          "internalType": "uint256",
          "name": "tokenId",
          "type": "uint256"
        }
      ],
      "name": "withdrawERC721",
      "outputs": [],
      "stateMutability": "nonpayable",
      "type": "function"
    },
    {
      "inputs": [
        {
          "internalType": "address payable",
          "name": "receiver",
          "type": "address"
        },
        {
          "internalType": "address",
          "name": "tokenAddress",
          "type": "address"
        },
        {
          "internalType": "uint256",
          "name": "amount",
          "type": "uint256"
        }
      ],
      "name": "withdrawErc20",
      "outputs": [],
      "stateMutability": "nonpayable",
      "type": "function"
    },
    {
      "inputs": [
        {
          "internalType": "address payable",
          "name": "receiver",
          "type": "address"
        },
        {
          "internalType": "uint256",
          "name": "amount",
          "type": "uint256"
        }
      ],
      "name": "withdrawEther",
      "outputs": [],
      "stateMutability": "nonpayable",
      "type": "function"
    }
  ],
  "transactionHash": "0x4ede6369e98822e42e974fb911d1e333e7b51a63d3a387337d8ea75258a33152",
  "args": [],
  "numDeployments": 2,
  "solcInputHash": "57a205024463fa464ac8538d77566e01",
  "bytecode": "0x60806040523480156200001157600080fd5b506000620000246200013460201b60201c565b9050806000806101000a81548173ffffffffffffffffffffffffffffffffffffffff021916908373ffffffffffffffffffffffffffffffffffffffff1602179055508073ffffffffffffffffffffffffffffffffffffffff16600073ffffffffffffffffffffffffffffffffffffffff167f8be0079c531659141344cd1fd0a4f28419497f9722a3daafe3b4186f6b6457e060405160405180910390a350604051620000d0906200013c565b604051809103906000f080158015620000ed573d6000803e3d6000fd5b50600160006101000a81548173ffffffffffffffffffffffffffffffffffffffff021916908373ffffffffffffffffffffffffffffffffffffffff1602179055506200014a565b600033905090565b61458f8062001e4183390190565b611ce7806200015a6000396000f3fe608060405234801561001057600080fd5b50600436106100885760003560e01c8063715018a61161005b578063715018a6146101115780638da5cb5b1461011b578063a0edb48b14610139578063f2fde38b1461015557610088565b80631593dee11461008d5780634025feb2146100a9578063522f6815146100c55780636f9d5f78146100e1575b600080fd5b6100a760048036038101906100a2919061140d565b610171565b005b6100c360048036038101906100be919061140d565b610216565b005b6100df60048036038101906100da91906114bf565b6102bb565b005b6100fb60048036038101906100f691906114fb565b61035e565b60405161010891906118ed565b60405180910390f35b6101196104f6565b005b610123610649565b60405161013091906118ed565b60405180910390f35b610153600480360381019061014e919061145c565b610672565b005b61016f600480360381019061016a91906113bb565b610719565b005b6101796108db565b73ffffffffffffffffffffffffffffffffffffffff1660008054906101000a900473ffffffffffffffffffffffffffffffffffffffff1673ffffffffffffffffffffffffffffffffffffffff1614610206576040517f08c379a00000000000000000000000000000000000000000000000000000000081526004016101fd90611ac3565b60405180910390fd5b6102118383836108e3565b505050565b61021e6108db565b73ffffffffffffffffffffffffffffffffffffffff1660008054906101000a900473ffffffffffffffffffffffffffffffffffffffff1673ffffffffffffffffffffffffffffffffffffffff16146102ab576040517f08c379a00000000000000000000000000000000000000000000000000000000081526004016102a290611ac3565b60405180910390fd5b6102b6838383610a78565b505050565b6102c36108db565b73ffffffffffffffffffffffffffffffffffffffff1660008054906101000a900473ffffffffffffffffffffffffffffffffffffffff1673ffffffffffffffffffffffffffffffffffffffff1614610350576040517f08c379a000000000000000000000000000000000000000000000000000000000815260040161034790611ac3565b60405180910390fd5b61035a8282610c74565b5050565b60006103686108db565b73ffffffffffffffffffffffffffffffffffffffff1660008054906101000a900473ffffffffffffffffffffffffffffffffffffffff1673ffffffffffffffffffffffffffffffffffffffff16146103f5576040517f08c379a00000000000000000000000000000000000000000000000000000000081526004016103ec90611ac3565b60405180910390fd5b6000610422600160009054906101000a900473ffffffffffffffffffffffffffffffffffffffff16610d66565b905060008190508073ffffffffffffffffffffffffffffffffffffffff1663ff9935cb89898989896104526108db565b6040518763ffffffff1660e01b815260040161047396959493929190611997565b600060405180830381600087803b15801561048d57600080fd5b505af11580156104a1573d6000803e3d6000fd5b505050508173ffffffffffffffffffffffffffffffffffffffff167f6ecb2838bef4560681475e8bb5e7feccefe33df915df2d6757024bc6fe4c616a60405160405180910390a2819250505095945050505050565b6104fe6108db565b73ffffffffffffffffffffffffffffffffffffffff1660008054906101000a900473ffffffffffffffffffffffffffffffffffffffff1673ffffffffffffffffffffffffffffffffffffffff161461058b576040517f08c379a000000000000000000000000000000000000000000000000000000000815260040161058290611ac3565b60405180910390fd5b600073ffffffffffffffffffffffffffffffffffffffff1660008054906101000a900473ffffffffffffffffffffffffffffffffffffffff1673ffffffffffffffffffffffffffffffffffffffff167f8be0079c531659141344cd1fd0a4f28419497f9722a3daafe3b4186f6b6457e060405160405180910390a360008060006101000a81548173ffffffffffffffffffffffffffffffffffffffff021916908373ffffffffffffffffffffffffffffffffffffffff160217905550565b60008060009054906101000a900473ffffffffffffffffffffffffffffffffffffffff16905090565b61067a6108db565b73ffffffffffffffffffffffffffffffffffffffff1660008054906101000a900473ffffffffffffffffffffffffffffffffffffffff1673ffffffffffffffffffffffffffffffffffffffff1614610707576040517f08c379a00000000000000000000000000000000000000000000000000000000081526004016106fe90611ac3565b60405180910390fd5b61071384848484610dd0565b50505050565b6107216108db565b73ffffffffffffffffffffffffffffffffffffffff1660008054906101000a900473ffffffffffffffffffffffffffffffffffffffff1673ffffffffffffffffffffffffffffffffffffffff16146107ae576040517f08c379a00000000000000000000000000000000000000000000000000000000081526004016107a590611ac3565b60405180910390fd5b600073ffffffffffffffffffffffffffffffffffffffff168173ffffffffffffffffffffffffffffffffffffffff16141561081e576040517f08c379a000000000000000000000000000000000000000000000000000000000815260040161081590611a43565b60405180910390fd5b8073ffffffffffffffffffffffffffffffffffffffff1660008054906101000a900473ffffffffffffffffffffffffffffffffffffffff1673ffffffffffffffffffffffffffffffffffffffff167f8be0079c531659141344cd1fd0a4f28419497f9722a3daafe3b4186f6b6457e060405160405180910390a3806000806101000a81548173ffffffffffffffffffffffffffffffffffffffff021916908373ffffffffffffffffffffffffffffffffffffffff16021790555050565b600033905090565b600073ffffffffffffffffffffffffffffffffffffffff168373ffffffffffffffffffffffffffffffffffffffff161415610953576040517f08c379a000000000000000000000000000000000000000000000000000000000815260040161094a90611a63565b60405180910390fd5b808273ffffffffffffffffffffffffffffffffffffffff166370a08231306040518263ffffffff1660e01b815260040161098d91906118ed565b60206040518083038186803b1580156109a557600080fd5b505afa1580156109b9573d6000803e3d6000fd5b505050506040513d601f19601f820116820180604052508101906109dd919061159b565b10610a7357610a0d83828473ffffffffffffffffffffffffffffffffffffffff16610fae9092919063ffffffff16565b8173ffffffffffffffffffffffffffffffffffffffff168373ffffffffffffffffffffffffffffffffffffffff167f6c9d637297625e945b296ff73a71fcfbd0a9e062652b6491a921c4c60194176b83604051610a6a9190611b23565b60405180910390a35b505050565b600073ffffffffffffffffffffffffffffffffffffffff168373ffffffffffffffffffffffffffffffffffffffff161415610ae8576040517f08c379a0000000000000000000000000000000000000000000000000000000008152600401610adf90611a63565b60405180910390fd5b3073ffffffffffffffffffffffffffffffffffffffff168273ffffffffffffffffffffffffffffffffffffffff16636352211e836040518263ffffffff1660e01b8152600401610b389190611b23565b60206040518083038186803b158015610b5057600080fd5b505afa158015610b64573d6000803e3d6000fd5b505050506040513d601f19601f82011682018060405250810190610b8891906113e4565b73ffffffffffffffffffffffffffffffffffffffff161415610c6f578173ffffffffffffffffffffffffffffffffffffffff166323b872dd3085846040518463ffffffff1660e01b8152600401610be193929190611908565b600060405180830381600087803b158015610bfb57600080fd5b505af1158015610c0f573d6000803e3d6000fd5b50505050808273ffffffffffffffffffffffffffffffffffffffff168473ffffffffffffffffffffffffffffffffffffffff167ffefe036cac4ee3a4aca074a81cbcc4376e1484693289078dbec149c890101d5b60405160405180910390a45b505050565b600073ffffffffffffffffffffffffffffffffffffffff168273ffffffffffffffffffffffffffffffffffffffff161415610ce4576040517f08c379a0000000000000000000000000000000000000000000000000000000008152600401610cdb90611a63565b60405180910390fd5b804710610d6257610d14818373ffffffffffffffffffffffffffffffffffffffff1661103490919063ffffffff16565b8173ffffffffffffffffffffffffffffffffffffffff167eddb683bb45cd5d0ad8a200c6fae7152b1c236ee90a4a37db692407f5cc38bd82604051610d599190611b23565b60405180910390a25b5050565b6000808260601b90506040517f3d602d80600a3d3981f3363d3d373d3d3d363d7300000000000000000000000081528160148201527f5af43d82803e903d91602b57fd5bf3000000000000000000000000000000000060288201526037816000f092505050919050565b600073ffffffffffffffffffffffffffffffffffffffff168473ffffffffffffffffffffffffffffffffffffffff161415610e40576040517f08c379a0000000000000000000000000000000000000000000000000000000008152600401610e3790611a63565b60405180910390fd5b808373ffffffffffffffffffffffffffffffffffffffff1662fdd58e30856040518363ffffffff1660e01b8152600401610e7b9291906119f8565b60206040518083038186803b158015610e9357600080fd5b505afa158015610ea7573d6000803e3d6000fd5b505050506040513d601f19601f82011682018060405250810190610ecb919061159b565b10610fa8578273ffffffffffffffffffffffffffffffffffffffff1663f242432a308685856040518563ffffffff1660e01b8152600401610f0f949392919061193f565b600060405180830381600087803b158015610f2957600080fd5b505af1158015610f3d573d6000803e3d6000fd5b50505050818373ffffffffffffffffffffffffffffffffffffffff168573ffffffffffffffffffffffffffffffffffffffff167f620337bf89eea2b9ae2657beead83b5fa620452817118348aff96e201d52598b84604051610f9f9190611b23565b60405180910390a45b50505050565b61102f8363a9059cbb60e01b8484604051602401610fcd9291906119f8565b604051602081830303815290604052907bffffffffffffffffffffffffffffffffffffffffffffffffffffffff19166020820180517bffffffffffffffffffffffffffffffffffffffffffffffffffffffff8381831617835250505050611128565b505050565b80471015611077576040517f08c379a000000000000000000000000000000000000000000000000000000000815260040161106e90611aa3565b60405180910390fd5b60008273ffffffffffffffffffffffffffffffffffffffff168260405161109d906118d8565b60006040518083038185875af1925050503d80600081146110da576040519150601f19603f3d011682016040523d82523d6000602084013e6110df565b606091505b5050905080611123576040517f08c379a000000000000000000000000000000000000000000000000000000000815260040161111a90611a83565b60405180910390fd5b505050565b606061118a826040518060400160405280602081526020017f5361666545524332303a206c6f772d6c6576656c2063616c6c206661696c65648152508573ffffffffffffffffffffffffffffffffffffffff166111ef9092919063ffffffff16565b90506000815111156111ea57808060200190518101906111aa9190611572565b6111e9576040517f08c379a00000000000000000000000000000000000000000000000000000000081526004016111e090611b03565b60405180910390fd5b5b505050565b60606111fe8484600085611207565b90509392505050565b60606112128561132a565b611251576040517f08c379a000000000000000000000000000000000000000000000000000000000815260040161124890611ae3565b60405180910390fd5b600060608673ffffffffffffffffffffffffffffffffffffffff16858760405161127b91906118c1565b60006040518083038185875af1925050503d80600081146112b8576040519150601f19603f3d011682016040523d82523d6000602084013e6112bd565b606091505b509150915081156112d2578092505050611322565b6000815111156112e55780518082602001fd5b836040517f08c379a00000000000000000000000000000000000000000000000000000000081526004016113199190611a21565b60405180910390fd5b949350505050565b600080823b905060008111915050919050565b60008135905061134c81611c55565b92915050565b60008151905061136181611c55565b92915050565b60008135905061137681611c6c565b92915050565b60008151905061138b81611c83565b92915050565b6000813590506113a081611c9a565b92915050565b6000815190506113b581611c9a565b92915050565b6000602082840312156113cd57600080fd5b60006113db8482850161133d565b91505092915050565b6000602082840312156113f657600080fd5b600061140484828501611352565b91505092915050565b60008060006060848603121561142257600080fd5b600061143086828701611367565b93505060206114418682870161133d565b925050604061145286828701611391565b9150509250925092565b6000806000806080858703121561147257600080fd5b600061148087828801611367565b94505060206114918782880161133d565b93505060406114a287828801611391565b92505060606114b387828801611391565b91505092959194509250565b600080604083850312156114d257600080fd5b60006114e085828601611367565b92505060206114f185828601611391565b9150509250929050565b600080600080600060a0868803121561151357600080fd5b60006115218882890161133d565b95505060206115328882890161133d565b945050604061154388828901611391565b93505060606115548882890161133d565b92505060806115658882890161133d565b9150509295509295909350565b60006020828403121561158457600080fd5b60006115928482850161137c565b91505092915050565b6000602082840312156115ad57600080fd5b60006115bb848285016113a6565b91505092915050565b6115cd81611bdb565b82525050565b6115dc81611b81565b82525050565b60006115ed82611b3e565b6115f78185611b65565b9350611607818560208601611c11565b80840191505092915050565b600061161e82611b49565b6116288185611b70565b9350611638818560208601611c11565b61164181611c44565b840191505092915050565b6000611659602683611b70565b91507f4f776e61626c653a206e6577206f776e657220697320746865207a65726f206160008301527f64647265737300000000000000000000000000000000000000000000000000006020830152604082019050919050565b60006116bf600983611b70565b91507f4248503a452d34303300000000000000000000000000000000000000000000006000830152602082019050919050565b60006116ff603a83611b70565b91507f416464726573733a20756e61626c6520746f2073656e642076616c75652c207260008301527f6563697069656e74206d617920686176652072657665727465640000000000006020830152604082019050919050565b6000611765601d83611b70565b91507f416464726573733a20696e73756666696369656e742062616c616e63650000006000830152602082019050919050565b60006117a5602083611b70565b91507f4f776e61626c653a2063616c6c6572206973206e6f7420746865206f776e65726000830152602082019050919050565b60006117e5600083611b54565b9150600082019050919050565b60006117ff600083611b65565b9150600082019050919050565b6000611819601d83611b70565b91507f416464726573733a2063616c6c20746f206e6f6e2d636f6e74726163740000006000830152602082019050919050565b6000611859602a83611b70565b91507f5361666545524332303a204552433230206f7065726174696f6e20646964206e60008301527f6f742073756363656564000000000000000000000000000000000000000000006020830152604082019050919050565b6118bb81611bd1565b82525050565b60006118cd82846115e2565b915081905092915050565b60006118e3826117f2565b9150819050919050565b600060208201905061190260008301846115d3565b92915050565b600060608201905061191d60008301866115d3565b61192a60208301856115c4565b61193760408301846118b2565b949350505050565b600060a08201905061195460008301876115d3565b61196160208301866115c4565b61196e60408301856118b2565b61197b60608301846118b2565b818103608083015261198c816117d8565b905095945050505050565b600060c0820190506119ac60008301896115d3565b6119b960208301886115d3565b6119c660408301876118b2565b6119d360608301866115d3565b6119e060808301856115d3565b6119ed60a08301846115c4565b979650505050505050565b6000604082019050611a0d60008301856115d3565b611a1a60208301846118b2565b9392505050565b60006020820190508181036000830152611a3b8184611613565b905092915050565b60006020820190508181036000830152611a5c8161164c565b9050919050565b60006020820190508181036000830152611a7c816116b2565b9050919050565b60006020820190508181036000830152611a9c816116f2565b9050919050565b60006020820190508181036000830152611abc81611758565b9050919050565b60006020820190508181036000830152611adc81611798565b9050919050565b60006020820190508181036000830152611afc8161180c565b9050919050565b60006020820190508181036000830152611b1c8161184c565b9050919050565b6000602082019050611b3860008301846118b2565b92915050565b600081519050919050565b600081519050919050565b600082825260208201905092915050565b600081905092915050565b600082825260208201905092915050565b6000611b8c82611bb1565b9050919050565b6000611b9e82611bb1565b9050919050565b60008115159050919050565b600073ffffffffffffffffffffffffffffffffffffffff82169050919050565b6000819050919050565b6000611be682611bed565b9050919050565b6000611bf882611bff565b9050919050565b6000611c0a82611bb1565b9050919050565b60005b83811015611c2f578082015181840152602081019050611c14565b83811115611c3e576000848401525b50505050565b6000601f19601f8301169050919050565b611c5e81611b81565b8114611c6957600080fd5b50565b611c7581611b93565b8114611c8057600080fd5b50565b611c8c81611ba5565b8114611c9757600080fd5b50565b611ca381611bd1565b8114611cae57600080fd5b5056fea26469706673582212207e6d14ceefa696edb2415c15bd7fc5317b374a1f53b129d6c4b408004564545864736f6c634300060c0033608060405234801561001057600080fd5b506001600081905550614567806100286000396000f3fe608060405234801561001057600080fd5b50600436106101585760003560e01c8063533f852e116100c3578063ae9704cd1161007c578063ae9704cd146103bd578063bc197c81146103d9578063dae9e37914610409578063e3043ee814610427578063f23a6e6114610457578063ff9935cb1461048757610158565b8063533f852e146102eb57806370d2e5cd1461031b57806378448349146103375780638aee8127146103675780638da5cb5b14610383578063a0edb48b146103a157610158565b8063352685bc11610115578063352685bc1461022f5780634025feb21461024b57806346c65f6214610267578063494b01001461028357806350d0c63c1461029f578063522f6815146102cf57610158565b806301ffc9a71461015d57806314e5f6681461018d578063150b7a02146101ab5780631593dee1146101db5780631e9b12ef146101f75780631f5b149f14610213575b600080fd5b61017760048036038101906101729190613682565b6104a3565b6040516101849190613f7b565b60405180910390f35b6101956105ea565b6040516101a291906141bb565b60405180910390f35b6101c560048036038101906101c091906133d0565b6106ba565b6040516101d29190613f96565b60405180910390f35b6101f560048036038101906101f0919061318d565b6106cf565b005b610211600480360381019061020c919061313b565b61076f565b005b61022d6004803603810190610228919061313b565b610846565b005b610249600480360381019061024491906136fd565b61091a565b005b6102656004803603810190610260919061318d565b610acb565b005b610281600480360381019061027c919061358a565b610b6b565b005b61029d6004803603810190610298919061351e565b610cc7565b005b6102b960048036038101906102b4919061360a565b610ffb565b6040516102c691906141d6565b60405180910390f35b6102e960048036038101906102e4919061323f565b6112f4565b005b610305600480360381019061030091906134e2565b611392565b60405161031291906141d6565b60405180910390f35b610335600480360381019061033091906136fd565b6113e0565b005b610351600480360381019061034c91906136fd565b61147d565b60405161035e9190614199565b60405180910390f35b610381600480360381019061037c919061313b565b611560565b005b61038b611637565b6040516103989190613e3a565b60405180910390f35b6103bb60048036038101906103b691906131dc565b611661565b005b6103d760048036038101906103d2919061313b565b611703565b005b6103f360048036038101906103ee919061327b565b6117d7565b6040516104009190613f96565b60405180910390f35b6104116117e5565b60405161041e91906141d6565b60405180910390f35b610441600480360381019061043c919061374f565b6117f4565b60405161044e91906141d6565b60405180910390f35b610471600480360381019061046c9190613450565b611807565b60405161047e9190613f96565b60405180910390f35b6104a1600480360381019061049c9190613347565b61181d565b005b60007f150b7a02000000000000000000000000000000000000000000000000000000007bffffffffffffffffffffffffffffffffffffffffffffffffffffffff1916827bffffffffffffffffffffffffffffffffffffffffffffffffffffffff1916148061056e57507f4e2312e0000000000000000000000000000000000000000000000000000000007bffffffffffffffffffffffffffffffffffffffffffffffffffffffff1916827bffffffffffffffffffffffffffffffffffffffffffffffffffffffff1916145b806105d657507f01ffc9a7000000000000000000000000000000000000000000000000000000007bffffffffffffffffffffffffffffffffffffffffffffffffffffffff1916827bffffffffffffffffffffffffffffffffffffffffffffffffffffffff1916145b156105e457600190506105e5565b5b919050565b6105f2612d94565b60046040518060600160405290816000820160009054906101000a900473ffffffffffffffffffffffffffffffffffffffff1673ffffffffffffffffffffffffffffffffffffffff1673ffffffffffffffffffffffffffffffffffffffff1681526020016001820160009054906101000a900473ffffffffffffffffffffffffffffffffffffffff1673ffffffffffffffffffffffffffffffffffffffff1673ffffffffffffffffffffffffffffffffffffffff168152602001600282015481525050905090565b600063150b7a0260e01b905095945050505050565b3373ffffffffffffffffffffffffffffffffffffffff16600160009054906101000a900473ffffffffffffffffffffffffffffffffffffffff1673ffffffffffffffffffffffffffffffffffffffff161461075f576040517f08c379a000000000000000000000000000000000000000000000000000000000815260040161075690614019565b60405180910390fd5b61076a838383611a0b565b505050565b3373ffffffffffffffffffffffffffffffffffffffff16600160009054906101000a900473ffffffffffffffffffffffffffffffffffffffff1673ffffffffffffffffffffffffffffffffffffffff16146107ff576040517f08c379a00000000000000000000000000000000000000000000000000000000081526004016107f690614019565b60405180910390fd5b80600460000160006101000a81548173ffffffffffffffffffffffffffffffffffffffff021916908373ffffffffffffffffffffffffffffffffffffffff16021790555050565b3373ffffffffffffffffffffffffffffffffffffffff16600160009054906101000a900473ffffffffffffffffffffffffffffffffffffffff1673ffffffffffffffffffffffffffffffffffffffff16146108d6576040517f08c379a00000000000000000000000000000000000000000000000000000000081526004016108cd90614019565b60405180910390fd5b80600360006101000a81548173ffffffffffffffffffffffffffffffffffffffff021916908373ffffffffffffffffffffffffffffffffffffffff16021790555050565b3373ffffffffffffffffffffffffffffffffffffffff16600160009054906101000a900473ffffffffffffffffffffffffffffffffffffffff1673ffffffffffffffffffffffffffffffffffffffff16146109aa576040517f08c379a00000000000000000000000000000000000000000000000000000000081526004016109a190614019565b60405180910390fd5b600073ffffffffffffffffffffffffffffffffffffffff16600460010160009054906101000a900473ffffffffffffffffffffffffffffffffffffffff1673ffffffffffffffffffffffffffffffffffffffff161415610a3f576040517f08c379a0000000000000000000000000000000000000000000000000000000008152600401610a36906140d9565b60405180910390fd5b610a91333083600460010160009054906101000a900473ffffffffffffffffffffffffffffffffffffffff1673ffffffffffffffffffffffffffffffffffffffff16611ba0909392919063ffffffff16565b7fcbd64454da4b3587b11b8f8170d7656cbe58e29ee18fd715b0e79ad85edb6e5d81604051610ac091906141d6565b60405180910390a150565b3373ffffffffffffffffffffffffffffffffffffffff16600160009054906101000a900473ffffffffffffffffffffffffffffffffffffffff1673ffffffffffffffffffffffffffffffffffffffff1614610b5b576040517f08c379a0000000000000000000000000000000000000000000000000000000008152600401610b5290614019565b60405180910390fd5b610b66838383611c29565b505050565b600260009054906101000a900473ffffffffffffffffffffffffffffffffffffffff1673ffffffffffffffffffffffffffffffffffffffff163373ffffffffffffffffffffffffffffffffffffffff1614610bfb576040517f08c379a0000000000000000000000000000000000000000000000000000000008152600401610bf2906140b9565b60405180910390fd5b6000610c26858773ffffffffffffffffffffffffffffffffffffffff16611e2590919063ffffffff16565b90506000600760008381526020019081526020016000209050600081600001541415610c6a574381600001819055508484826002019190610c68929190612de1565b505b8673ffffffffffffffffffffffffffffffffffffffff167f30d53e48465c48642e346a636a4eef45c72095b65bef5825308376e2f59f09e287878787604051610cb694939291906141f1565b60405180910390a250505050505050565b3373ffffffffffffffffffffffffffffffffffffffff16600160009054906101000a900473ffffffffffffffffffffffffffffffffffffffff1673ffffffffffffffffffffffffffffffffffffffff1614610d57576040517f08c379a0000000000000000000000000000000000000000000000000000000008152600401610d4e90614019565b60405180910390fd5b6000610d82848673ffffffffffffffffffffffffffffffffffffffff16611e2590919063ffffffff16565b90506000600360009054906101000a900473ffffffffffffffffffffffffffffffffffffffff1673ffffffffffffffffffffffffffffffffffffffff166334b7328d85856040518363ffffffff1660e01b8152600401610de3929190613fb1565b60206040518083038186803b158015610dfb57600080fd5b505afa158015610e0f573d6000803e3d6000fd5b505050506040513d601f19601f82011682018060405250810190610e3391906136ab565b905060008173ffffffffffffffffffffffffffffffffffffffff16632da9ef818888600460000160009054906101000a900473ffffffffffffffffffffffffffffffffffffffff166040518463ffffffff1660e01b8152600401610e9993929190613f44565b602060405180830381600087803b158015610eb357600080fd5b505af1158015610ec7573d6000803e3d6000fd5b505050506040513d601f19601f82011682018060405250810190610eeb9190613726565b90506000811115610ff25760405180606001604052804381526020016000815260200186868080601f016020809104026020016040519081016040528093929190818152602001838380828437600081840152601f19601f820116905080830192505050505050508152506007600085815260200190815260200160002060008201518160000155602082015181600101556040820151816002019080519060200190610f99929190612e61565b509050508673ffffffffffffffffffffffffffffffffffffffff167fdd1b8616b3983aa94529955a2f7d0dd75e5a93e53875372ea41a9eab5e3ef32687878785604051610fe994939291906141f1565b60405180910390a25b50505050505050565b6000600260009054906101000a900473ffffffffffffffffffffffffffffffffffffffff1673ffffffffffffffffffffffffffffffffffffffff163373ffffffffffffffffffffffffffffffffffffffff161461108d576040517f08c379a0000000000000000000000000000000000000000000000000000000008152600401611084906140b9565b60405180910390fd5b611095611e5b565b60006110c0848673ffffffffffffffffffffffffffffffffffffffff16611e2590919063ffffffff16565b9050600060076000838152602001908152602001600020905060006110e58386611eab565b90506110fe818360010154611eda90919063ffffffff16565b82600101819055506000600360009054906101000a900473ffffffffffffffffffffffffffffffffffffffff1673ffffffffffffffffffffffffffffffffffffffff166334b7328d846002016040518263ffffffff1660e01b81526004016111669190613ff7565b60206040518083038186803b15801561117e57600080fd5b505afa158015611192573d6000803e3d6000fd5b505050506040513d601f19601f820116820180604052508101906111b691906136ab565b905060008173ffffffffffffffffffffffffffffffffffffffff16632da9ef818a8a600460000160009054906101000a900473ffffffffffffffffffffffffffffffffffffffff166040518463ffffffff1660e01b815260040161121c93929190613f44565b602060405180830381600087803b15801561123657600080fd5b505af115801561124a573d6000803e3d6000fd5b505050506040513d601f19601f8201168201806040525081019061126e9190613726565b9050600081141561128457600084600001819055505b61128e8989611f2f565b95508873ffffffffffffffffffffffffffffffffffffffff167f8abeaea5da22bf1966530d4f970ac7c71ae0999eb1d2181afaeff8b56c394f3f89896040516112d8929190614231565b60405180910390a250505050506112ed61215c565b9392505050565b3373ffffffffffffffffffffffffffffffffffffffff16600160009054906101000a900473ffffffffffffffffffffffffffffffffffffffff1673ffffffffffffffffffffffffffffffffffffffff1614611384576040517f08c379a000000000000000000000000000000000000000000000000000000000815260040161137b90614019565b60405180910390fd5b61138e8282612166565b5050565b6000806113be838573ffffffffffffffffffffffffffffffffffffffff16611e2590919063ffffffff16565b9050600760008281526020019081526020016000206001015491505092915050565b3373ffffffffffffffffffffffffffffffffffffffff16600160009054906101000a900473ffffffffffffffffffffffffffffffffffffffff1673ffffffffffffffffffffffffffffffffffffffff1614611470576040517f08c379a000000000000000000000000000000000000000000000000000000000815260040161146790614019565b60405180910390fd5b8060046002018190555050565b611485612ee1565b600760008381526020019081526020016000206040518060600160405290816000820154815260200160018201548152602001600282018054600181600116156101000203166002900480601f0160208091040260200160405190810160405280929190818152602001828054600181600116156101000203166002900480156115505780601f1061152557610100808354040283529160200191611550565b820191906000526020600020905b81548152906001019060200180831161153357829003601f168201915b5050505050815250509050919050565b3373ffffffffffffffffffffffffffffffffffffffff16600160009054906101000a900473ffffffffffffffffffffffffffffffffffffffff1673ffffffffffffffffffffffffffffffffffffffff16146115f0576040517f08c379a00000000000000000000000000000000000000000000000000000000081526004016115e790614019565b60405180910390fd5b80600460010160006101000a81548173ffffffffffffffffffffffffffffffffffffffff021916908373ffffffffffffffffffffffffffffffffffffffff16021790555050565b6000600160009054906101000a900473ffffffffffffffffffffffffffffffffffffffff16905090565b3373ffffffffffffffffffffffffffffffffffffffff16600160009054906101000a900473ffffffffffffffffffffffffffffffffffffffff1673ffffffffffffffffffffffffffffffffffffffff16146116f1576040517f08c379a00000000000000000000000000000000000000000000000000000000081526004016116e890614019565b60405180910390fd5b6116fd84848484612258565b50505050565b3373ffffffffffffffffffffffffffffffffffffffff16600160009054906101000a900473ffffffffffffffffffffffffffffffffffffffff1673ffffffffffffffffffffffffffffffffffffffff1614611793576040517f08c379a000000000000000000000000000000000000000000000000000000000815260040161178a90614019565b60405180910390fd5b80600260006101000a81548173ffffffffffffffffffffffffffffffffffffffff021916908373ffffffffffffffffffffffffffffffffffffffff16021790555050565b600098975050505050505050565b60006117ef612436565b905090565b60006118008383611eab565b5092915050565b600063bc197c8160e01b90509695505050505050565b600073ffffffffffffffffffffffffffffffffffffffff16600160009054906101000a900473ffffffffffffffffffffffffffffffffffffffff1673ffffffffffffffffffffffffffffffffffffffff16146118ae576040517f08c379a00000000000000000000000000000000000000000000000000000000081526004016118a590614139565b60405180910390fd5b80600160006101000a81548173ffffffffffffffffffffffffffffffffffffffff021916908373ffffffffffffffffffffffffffffffffffffffff16021790555085600460000160006101000a81548173ffffffffffffffffffffffffffffffffffffffff021916908373ffffffffffffffffffffffffffffffffffffffff16021790555084600460010160006101000a81548173ffffffffffffffffffffffffffffffffffffffff021916908373ffffffffffffffffffffffffffffffffffffffff1602179055508360046002018190555082600360006101000a81548173ffffffffffffffffffffffffffffffffffffffff021916908373ffffffffffffffffffffffffffffffffffffffff16021790555081600260006101000a81548173ffffffffffffffffffffffffffffffffffffffff021916908373ffffffffffffffffffffffffffffffffffffffff160217905550505050505050565b600073ffffffffffffffffffffffffffffffffffffffff168373ffffffffffffffffffffffffffffffffffffffff161415611a7b576040517f08c379a0000000000000000000000000000000000000000000000000000000008152600401611a7290614039565b60405180910390fd5b808273ffffffffffffffffffffffffffffffffffffffff166370a08231306040518263ffffffff1660e01b8152600401611ab59190613e3a565b60206040518083038186803b158015611acd57600080fd5b505afa158015611ae1573d6000803e3d6000fd5b505050506040513d601f19601f82011682018060405250810190611b059190613726565b10611b9b57611b3583828473ffffffffffffffffffffffffffffffffffffffff166124eb9092919063ffffffff16565b8173ffffffffffffffffffffffffffffffffffffffff168373ffffffffffffffffffffffffffffffffffffffff167f6c9d637297625e945b296ff73a71fcfbd0a9e062652b6491a921c4c60194176b83604051611b9291906141d6565b60405180910390a35b505050565b611c23846323b872dd60e01b858585604051602401611bc193929190613ee4565b604051602081830303815290604052907bffffffffffffffffffffffffffffffffffffffffffffffffffffffff19166020820180517bffffffffffffffffffffffffffffffffffffffffffffffffffffffff8381831617835250505050612571565b50505050565b600073ffffffffffffffffffffffffffffffffffffffff168373ffffffffffffffffffffffffffffffffffffffff161415611c99576040517f08c379a0000000000000000000000000000000000000000000000000000000008152600401611c9090614039565b60405180910390fd5b3073ffffffffffffffffffffffffffffffffffffffff168273ffffffffffffffffffffffffffffffffffffffff16636352211e836040518263ffffffff1660e01b8152600401611ce991906141d6565b60206040518083038186803b158015611d0157600080fd5b505afa158015611d15573d6000803e3d6000fd5b505050506040513d601f19601f82011682018060405250810190611d399190613164565b73ffffffffffffffffffffffffffffffffffffffff161415611e20578173ffffffffffffffffffffffffffffffffffffffff166323b872dd3085846040518463ffffffff1660e01b8152600401611d9293929190613e55565b600060405180830381600087803b158015611dac57600080fd5b505af1158015611dc0573d6000803e3d6000fd5b50505050808273ffffffffffffffffffffffffffffffffffffffff168473ffffffffffffffffffffffffffffffffffffffff167ffefe036cac4ee3a4aca074a81cbcc4376e1484693289078dbec149c890101d5b60405160405180910390a45b505050565b60008282604051602001611e3a929190613de2565b6040516020818303038152906040528051906020012060001c905092915050565b60026000541415611ea1576040517f08c379a0000000000000000000000000000000000000000000000000000000008152600401611e9890614179565b60405180910390fd5b6002600081905550565b600080611eb783612638565b90506000611ec5858361266d565b9050611ed0816128c6565b9250505092915050565b600080828401905083811015611f25576040517f08c379a0000000000000000000000000000000000000000000000000000000008152600401611f1c90614059565b60405180910390fd5b8091505092915050565b600080611f5b838573ffffffffffffffffffffffffffffffffffffffff16611e2590919063ffffffff16565b9050600060076000838152602001908152602001600020905060008573ffffffffffffffffffffffffffffffffffffffff16636352211e866040518263ffffffff1660e01b8152600401611faf91906141d6565b60206040518083038186803b158015611fc757600080fd5b505afa158015611fdb573d6000803e3d6000fd5b505050506040513d601f19601f82011682018060405250810190611fff9190613164565b9050816001015493506000612012612436565b90506000818611612024576000612038565b612037828761299290919063ffffffff16565b5b9050600081111561208557612056818761299290919063ffffffff16565b95507f9fc735fd421d3eb45362ea6d0d94945975bce33842b1bc94840719e66d937e4760405160405180910390a15b80846001018190555060008611156120e8576120e78387600460010160009054906101000a900473ffffffffffffffffffffffffffffffffffffffff1673ffffffffffffffffffffffffffffffffffffffff166124eb9092919063ffffffff16565b5b8273ffffffffffffffffffffffffffffffffffffffff168873ffffffffffffffffffffffffffffffffffffffff167fb918e5bcd5ce5aadd59ae96fe4c568669afc7af190dbf16061540816cb407c738989856040516121499392919061425a565b60405180910390a3505050505092915050565b6001600081905550565b600073ffffffffffffffffffffffffffffffffffffffff168273ffffffffffffffffffffffffffffffffffffffff1614156121d6576040517f08c379a00000000000000000000000000000000000000000000000000000000081526004016121cd90614039565b60405180910390fd5b80471061225457612206818373ffffffffffffffffffffffffffffffffffffffff166129dc90919063ffffffff16565b8173ffffffffffffffffffffffffffffffffffffffff167eddb683bb45cd5d0ad8a200c6fae7152b1c236ee90a4a37db692407f5cc38bd8260405161224b91906141d6565b60405180910390a25b5050565b600073ffffffffffffffffffffffffffffffffffffffff168473ffffffffffffffffffffffffffffffffffffffff1614156122c8576040517f08c379a00000000000000000000000000000000000000000000000000000000081526004016122bf90614039565b60405180910390fd5b808373ffffffffffffffffffffffffffffffffffffffff1662fdd58e30856040518363ffffffff1660e01b8152600401612303929190613f1b565b60206040518083038186803b15801561231b57600080fd5b505afa15801561232f573d6000803e3d6000fd5b505050506040513d601f19601f820116820180604052508101906123539190613726565b10612430578273ffffffffffffffffffffffffffffffffffffffff1663f242432a308685856040518563ffffffff1660e01b81526004016123979493929190613e8c565b600060405180830381600087803b1580156123b157600080fd5b505af11580156123c5573d6000803e3d6000fd5b50505050818373ffffffffffffffffffffffffffffffffffffffff168573ffffffffffffffffffffffffffffffffffffffff167f620337bf89eea2b9ae2657beead83b5fa620452817118348aff96e201d52598b8460405161242791906141d6565b60405180910390a45b50505050565b6000600460010160009054906101000a900473ffffffffffffffffffffffffffffffffffffffff1673ffffffffffffffffffffffffffffffffffffffff166370a08231306040518263ffffffff1660e01b81526004016124969190613e3a565b60206040518083038186803b1580156124ae57600080fd5b505afa1580156124c2573d6000803e3d6000fd5b505050506040513d601f19601f820116820180604052508101906124e69190613726565b905090565b61256c8363a9059cbb60e01b848460405160240161250a929190613f1b565b604051602081830303815290604052907bffffffffffffffffffffffffffffffffffffffffffffffffffffffff19166020820180517bffffffffffffffffffffffffffffffffffffffffffffffffffffffff8381831617835250505050612571565b505050565b60606125d3826040518060400160405280602081526020017f5361666545524332303a206c6f772d6c6576656c2063616c6c206661696c65648152508573ffffffffffffffffffffffffffffffffffffffff16612ad09092919063ffffffff16565b905060008151111561263357808060200190518101906125f39190613659565b612632576040517f08c379a000000000000000000000000000000000000000000000000000000000815260040161262990614159565b60405180910390fd5b5b505050565b600061266661271061265860046002015485612ae890919063ffffffff16565b612b5890919063ffffffff16565b9050919050565b60008060076000858152602001908152602001600020905060008160000154141561269b57829150506128c0565b6126a3612f02565b600260009054906101000a900473ffffffffffffffffffffffffffffffffffffffff1673ffffffffffffffffffffffffffffffffffffffff1663836c478d866040518263ffffffff1660e01b81526004016126fe91906141d6565b60606040518083038186803b15801561271657600080fd5b505afa15801561272a573d6000803e3d6000fd5b505050506040513d601f19601f8201168201806040525081019061274e91906136d4565b9050600081600001519050600061277284600001544361299290919063ffffffff16565b9050600080846040015111156127a45761279d8460200151856040015161299290919063ffffffff16565b90506127be565b6127bb84602001514361299290919063ffffffff16565b90505b60008314806127cd5750600081145b806127d85750600082145b156127ea5786955050505050506128c0565b818111156127f6578190505b600061281f8361281161271085612ae890919063ffffffff16565b612b5890919063ffffffff16565b9050600061284a61271061283c848c612ae890919063ffffffff16565b612b5890919063ffffffff16565b9050600061288861271061287a61286b60648a612ae890919063ffffffff16565b85612ae890919063ffffffff16565b612b5890919063ffffffff16565b9050600061289f838c61299290919063ffffffff16565b90506128b48282611eda90919063ffffffff16565b99505050505050505050505b92915050565b600080600460000160009054906101000a900473ffffffffffffffffffffffffffffffffffffffff1673ffffffffffffffffffffffffffffffffffffffff1663313ce5676040518163ffffffff1660e01b815260040160206040518083038186803b15801561293457600080fd5b505afa158015612948573d6000803e3d6000fd5b505050506040513d601f19601f8201168201806040525081019061296c919061378b565b905061298a8160ff16601203600a0a84612ae890919063ffffffff16565b915050919050565b60006129d483836040518060400160405280601e81526020017f536166654d6174683a207375627472616374696f6e206f766572666c6f770000815250612ba2565b905092915050565b80471015612a1f576040517f08c379a0000000000000000000000000000000000000000000000000000000008152600401612a1690614099565b60405180910390fd5b60008273ffffffffffffffffffffffffffffffffffffffff1682604051612a4590613e25565b60006040518083038185875af1925050503d8060008114612a82576040519150601f19603f3d011682016040523d82523d6000602084013e612a87565b606091505b5050905080612acb576040517f08c379a0000000000000000000000000000000000000000000000000000000008152600401612ac290614079565b60405180910390fd5b505050565b6060612adf8484600085612bfd565b90509392505050565b600080831415612afb5760009050612b52565b6000828402905082848281612b0c57fe5b0414612b4d576040517f08c379a0000000000000000000000000000000000000000000000000000000008152600401612b44906140f9565b60405180910390fd5b809150505b92915050565b6000612b9a83836040518060400160405280601a81526020017f536166654d6174683a206469766973696f6e206279207a65726f000000000000815250612d20565b905092915050565b6000838311158290612bea576040517f08c379a0000000000000000000000000000000000000000000000000000000008152600401612be19190613fd5565b60405180910390fd5b5060008385039050809150509392505050565b6060612c0885612d81565b612c47576040517f08c379a0000000000000000000000000000000000000000000000000000000008152600401612c3e90614119565b60405180910390fd5b600060608673ffffffffffffffffffffffffffffffffffffffff168587604051612c719190613e0e565b60006040518083038185875af1925050503d8060008114612cae576040519150601f19603f3d011682016040523d82523d6000602084013e612cb3565b606091505b50915091508115612cc8578092505050612d18565b600081511115612cdb5780518082602001fd5b836040517f08c379a0000000000000000000000000000000000000000000000000000000008152600401612d0f9190613fd5565b60405180910390fd5b949350505050565b60008083118290612d67576040517f08c379a0000000000000000000000000000000000000000000000000000000008152600401612d5e9190613fd5565b60405180910390fd5b506000838581612d7357fe5b049050809150509392505050565b600080823b905060008111915050919050565b6040518060600160405280600073ffffffffffffffffffffffffffffffffffffffff168152602001600073ffffffffffffffffffffffffffffffffffffffff168152602001600081525090565b828054600181600116156101000203166002900490600052602060002090601f016020900481019282601f10612e2257803560ff1916838001178555612e50565b82800160010185558215612e50579182015b82811115612e4f578235825591602001919060010190612e34565b5b509050612e5d9190612f23565b5090565b828054600181600116156101000203166002900490600052602060002090601f016020900481019282601f10612ea257805160ff1916838001178555612ed0565b82800160010185558215612ed0579182015b82811115612ecf578251825591602001919060010190612eb4565b5b509050612edd9190612f23565b5090565b60405180606001604052806000815260200160008152602001606081525090565b60405180606001604052806000815260200160008152602001600081525090565b5b80821115612f3c576000816000905550600101612f24565b5090565b600081359050612f4f81614490565b92915050565b600081519050612f6481614490565b92915050565b600081359050612f79816144a7565b92915050565b60008083601f840112612f9157600080fd5b8235905067ffffffffffffffff811115612faa57600080fd5b602083019150836020820283011115612fc257600080fd5b9250929050565b600081519050612fd8816144be565b92915050565b600081359050612fed816144d5565b92915050565b60008083601f84011261300557600080fd5b8235905067ffffffffffffffff81111561301e57600080fd5b60208301915083600182028301111561303657600080fd5b9250929050565b60008151905061304c816144ec565b92915050565b60008083601f84011261306457600080fd5b8235905067ffffffffffffffff81111561307d57600080fd5b60208301915083600182028301111561309557600080fd5b9250929050565b6000606082840312156130ae57600080fd5b6130b86060614291565b905060006130c884828501613111565b60008301525060206130dc84828501613111565b60208301525060406130f084828501613111565b60408301525092915050565b60008135905061310b81614503565b92915050565b60008151905061312081614503565b92915050565b6000815190506131358161451a565b92915050565b60006020828403121561314d57600080fd5b600061315b84828501612f40565b91505092915050565b60006020828403121561317657600080fd5b600061318484828501612f55565b91505092915050565b6000806000606084860312156131a257600080fd5b60006131b086828701612f6a565b93505060206131c186828701612f40565b92505060406131d2868287016130fc565b9150509250925092565b600080600080608085870312156131f257600080fd5b600061320087828801612f6a565b945050602061321187828801612f40565b9350506040613222878288016130fc565b9250506060613233878288016130fc565b91505092959194509250565b6000806040838503121561325257600080fd5b600061326085828601612f6a565b9250506020613271858286016130fc565b9150509250929050565b60008060008060008060008060a0898b03121561329757600080fd5b60006132a58b828c01612f40565b98505060206132b68b828c01612f40565b975050604089013567ffffffffffffffff8111156132d357600080fd5b6132df8b828c01612f7f565b9650965050606089013567ffffffffffffffff8111156132fe57600080fd5b61330a8b828c01612f7f565b9450945050608089013567ffffffffffffffff81111561332957600080fd5b6133358b828c01612ff3565b92509250509295985092959890939650565b60008060008060008060c0878903121561336057600080fd5b600061336e89828a01612f40565b965050602061337f89828a01612f40565b955050604061339089828a016130fc565b94505060606133a189828a01612f40565b93505060806133b289828a01612f40565b92505060a06133c389828a01612f40565b9150509295509295509295565b6000806000806000608086880312156133e857600080fd5b60006133f688828901612f40565b955050602061340788828901612f40565b9450506040613418888289016130fc565b935050606086013567ffffffffffffffff81111561343557600080fd5b61344188828901612ff3565b92509250509295509295909350565b60008060008060008060a0878903121561346957600080fd5b600061347789828a01612f40565b965050602061348889828a01612f40565b955050604061349989828a016130fc565b94505060606134aa89828a016130fc565b935050608087013567ffffffffffffffff8111156134c757600080fd5b6134d389828a01612ff3565b92509250509295509295509295565b600080604083850312156134f557600080fd5b600061350385828601612f40565b9250506020613514858286016130fc565b9150509250929050565b6000806000806060858703121561353457600080fd5b600061354287828801612f40565b9450506020613553878288016130fc565b935050604085013567ffffffffffffffff81111561357057600080fd5b61357c87828801613052565b925092505092959194509250565b6000806000806000608086880312156135a257600080fd5b60006135b088828901612f40565b95505060206135c1888289016130fc565b945050604086013567ffffffffffffffff8111156135de57600080fd5b6135ea88828901613052565b935093505060606135fd888289016130fc565b9150509295509295909350565b60008060006060848603121561361f57600080fd5b600061362d86828701612f40565b935050602061363e868287016130fc565b925050604061364f868287016130fc565b9150509250925092565b60006020828403121561366b57600080fd5b600061367984828501612fc9565b91505092915050565b60006020828403121561369457600080fd5b60006136a284828501612fde565b91505092915050565b6000602082840312156136bd57600080fd5b60006136cb8482850161303d565b91505092915050565b6000606082840312156136e657600080fd5b60006136f48482850161309c565b91505092915050565b60006020828403121561370f57600080fd5b600061371d848285016130fc565b91505092915050565b60006020828403121561373857600080fd5b600061374684828501613111565b91505092915050565b6000806040838503121561376257600080fd5b6000613770858286016130fc565b9250506020613781858286016130fc565b9150509250929050565b60006020828403121561379d57600080fd5b60006137ab84828501613126565b91505092915050565b6137bd816143cc565b82525050565b6137cc81614327565b82525050565b6137db81614327565b82525050565b6137f26137ed82614327565b614444565b82525050565b6138018161434b565b82525050565b61381081614357565b82525050565b6000613821826142d3565b61382b81856142fa565b935061383b818560208601614411565b80840191505092915050565b60006138538385614316565b9350613860838584614402565b61386983614472565b840190509392505050565b600061387f826142de565b6138898185614305565b9350613899818560208601614411565b6138a281614472565b840191505092915050565b60006138b8826142de565b6138c28185614316565b93506138d2818560208601614411565b6138db81614472565b840191505092915050565b60008154600181166000811461390357600181146139295761396d565b607f60028304166139148187614316565b955060ff19831686526020860193505061396d565b600282046139378187614316565b9550613942856142be565b60005b8281101561396457815481890152600182019150602081019050613945565b80880195505050505b505092915050565b6000613982601783614316565b91507f43616c6c6572206973206e6f7420746865206f776e65720000000000000000006000830152602082019050919050565b60006139c2600983614316565b91507f4248503a452d34303300000000000000000000000000000000000000000000006000830152602082019050919050565b6000613a02601b83614316565b91507f536166654d6174683a206164646974696f6e206f766572666c6f7700000000006000830152602082019050919050565b6000613a42603a83614316565b91507f416464726573733a20756e61626c6520746f2073656e642076616c75652c207260008301527f6563697069656e74206d617920686176652072657665727465640000000000006020830152604082019050919050565b6000613aa8601d83614316565b91507f416464726573733a20696e73756666696369656e742062616c616e63650000006000830152602082019050919050565b6000613ae8600883614316565b91507f52503a452d3130380000000000000000000000000000000000000000000000006000830152602082019050919050565b6000613b28600883614316565b91507f52503a452d3430350000000000000000000000000000000000000000000000006000830152602082019050919050565b6000613b68602183614316565b91507f536166654d6174683a206d756c7469706c69636174696f6e206f766572666c6f60008301527f77000000000000000000000000000000000000000000000000000000000000006020830152604082019050919050565b6000613bce6000836142e9565b9150600082019050919050565b6000613be86000836142fa565b9150600082019050919050565b6000613c02601d83614316565b91507f416464726573733a2063616c6c20746f206e6f6e2d636f6e74726163740000006000830152602082019050919050565b6000613c42601383614316565b91507f416c726561647920696e697469616c697a6564000000000000000000000000006000830152602082019050919050565b6000613c82602a83614316565b91507f5361666545524332303a204552433230206f7065726174696f6e20646964206e60008301527f6f742073756363656564000000000000000000000000000000000000000000006020830152604082019050919050565b6000613ce8601f83614316565b91507f5265656e7472616e637947756172643a207265656e7472616e742063616c6c006000830152602082019050919050565b6000606083016000830151613d336000860182613dad565b506020830151613d466020860182613dad565b5060408301518482036040860152613d5e8282613874565b9150508091505092915050565b606082016000820151613d8160008501826137c3565b506020820151613d9460208501826137c3565b506040820151613da76040850182613dad565b50505050565b613db6816143b5565b82525050565b613dc5816143b5565b82525050565b613ddc613dd7826143b5565b614468565b82525050565b6000613dee82856137e1565b601482019150613dfe8284613dcb565b6020820191508190509392505050565b6000613e1a8284613816565b915081905092915050565b6000613e3082613bdb565b9150819050919050565b6000602082019050613e4f60008301846137d2565b92915050565b6000606082019050613e6a60008301866137d2565b613e7760208301856137b4565b613e846040830184613dbc565b949350505050565b600060a082019050613ea160008301876137d2565b613eae60208301866137b4565b613ebb6040830185613dbc565b613ec86060830184613dbc565b8181036080830152613ed981613bc1565b905095945050505050565b6000606082019050613ef960008301866137d2565b613f0660208301856137d2565b613f136040830184613dbc565b949350505050565b6000604082019050613f3060008301856137d2565b613f3d6020830184613dbc565b9392505050565b6000606082019050613f5960008301866137d2565b613f666020830185613dbc565b613f7360408301846137d2565b949350505050565b6000602082019050613f9060008301846137f8565b92915050565b6000602082019050613fab6000830184613807565b92915050565b60006020820190508181036000830152613fcc818486613847565b90509392505050565b60006020820190508181036000830152613fef81846138ad565b905092915050565b6000602082019050818103600083015261401181846138e6565b905092915050565b6000602082019050818103600083015261403281613975565b9050919050565b60006020820190508181036000830152614052816139b5565b9050919050565b60006020820190508181036000830152614072816139f5565b9050919050565b6000602082019050818103600083015261409281613a35565b9050919050565b600060208201905081810360008301526140b281613a9b565b9050919050565b600060208201905081810360008301526140d281613adb565b9050919050565b600060208201905081810360008301526140f281613b1b565b9050919050565b6000602082019050818103600083015261411281613b5b565b9050919050565b6000602082019050818103600083015261413281613bf5565b9050919050565b6000602082019050818103600083015261415281613c35565b9050919050565b6000602082019050818103600083015261417281613c75565b9050919050565b6000602082019050818103600083015261419281613cdb565b9050919050565b600060208201905081810360008301526141b38184613d1b565b905092915050565b60006060820190506141d06000830184613d6b565b92915050565b60006020820190506141eb6000830184613dbc565b92915050565b60006060820190506142066000830187613dbc565b8181036020830152614219818587613847565b90506142286040830184613dbc565b95945050505050565b60006040820190506142466000830185613dbc565b6142536020830184613dbc565b9392505050565b600060608201905061426f6000830186613dbc565b61427c6020830185613dbc565b6142896040830184613dbc565b949350505050565b6000604051905081810181811067ffffffffffffffff821117156142b457600080fd5b8060405250919050565b60008190508160005260206000209050919050565b600081519050919050565b600081519050919050565b600082825260208201905092915050565b600081905092915050565b600082825260208201905092915050565b600082825260208201905092915050565b600061433282614395565b9050919050565b600061434482614395565b9050919050565b60008115159050919050565b60007fffffffff0000000000000000000000000000000000000000000000000000000082169050919050565b600061438e82614327565b9050919050565b600073ffffffffffffffffffffffffffffffffffffffff82169050919050565b6000819050919050565b600060ff82169050919050565b60006143d7826143de565b9050919050565b60006143e9826143f0565b9050919050565b60006143fb82614395565b9050919050565b82818337600083830152505050565b60005b8381101561442f578082015181840152602081019050614414565b8381111561443e576000848401525b50505050565b600061444f82614456565b9050919050565b600061446182614483565b9050919050565b6000819050919050565b6000601f19601f8301169050919050565b60008160601b9050919050565b61449981614327565b81146144a457600080fd5b50565b6144b081614339565b81146144bb57600080fd5b50565b6144c78161434b565b81146144d257600080fd5b50565b6144de81614357565b81146144e957600080fd5b50565b6144f581614383565b811461450057600080fd5b50565b61450c816143b5565b811461451757600080fd5b50565b614523816143bf565b811461452e57600080fd5b5056fea2646970667358221220b556d88be6a0096f3734bbf25f4e4a224cf9ab5cb94058c5b50d00af301d95a864736f6c634300060c0033",
  "devdoc": {
    "kind": "dev",
    "methods": {
      "owner()": {
        "details": "Returns the address of the current owner."
      },
      "renounceOwnership()": {
        "details": "Leaves the contract without owner. It will not be possible to call `onlyOwner` functions anymore. Can only be called by the current owner. NOTE: Renouncing ownership will leave the contract without an owner, thereby removing any functionality that is only available to the owner."
      },
      "transferOwnership(address)": {
        "details": "Transfers ownership of the contract to a new account (`newOwner`). Can only be called by the current owner."
      }
    },
    "version": 1
  },
  "userdoc": {
    "kind": "user",
    "methods": {},
    "version": 1
  },
  "storageLayout": {
    "storage": [
      {
        "astId": 120,
        "contract": "contracts/v1/incentives/RewardProgramFactory.sol:RewardProgramFactory",
        "label": "_owner",
        "offset": 0,
        "slot": "0",
        "type": "t_address"
      },
      {
        "astId": 2700,
        "contract": "contracts/v1/incentives/RewardProgramFactory.sol:RewardProgramFactory",
        "label": "_template",
        "offset": 0,
        "slot": "1",
        "type": "t_address"
      }
    ],
    "types": {
      "t_address": {
        "encoding": "inplace",
        "label": "address",
        "numberOfBytes": "20"
      }
    }
  }
}