{
  "address": "0xca9049dc745CE47f72238F6314Aede3C44C8E5a4",
  "abi": [
    {
      "anonymous": false,
      "inputs": [
        {
          "indexed": true,
          "internalType": "address",
          "name": "bosonToken",
          "type": "address"
        }
      ],
      "name": "BosonTokenSet",
      "type": "event"
    },
    {
      "anonymous": false,
      "inputs": [
        {
          "indexed": true,
          "internalType": "address",
          "name": "chargedParticles",
          "type": "address"
        }
      ],
      "name": "ChargedParticlesSet",
      "type": "event"
    },
    {
      "anonymous": false,
      "inputs": [
        {
          "indexed": true,
          "internalType": "address",
          "name": "account",
          "type": "address"
        },
        {
          "indexed": false,
          "internalType": "address",
          "name": "photonSource",
          "type": "address"
        },
        {
          "indexed": false,
          "internalType": "uint256",
          "name": "energy",
          "type": "uint256"
        },
        {
          "indexed": false,
          "internalType": "uint256",
          "name": "multiplier",
          "type": "uint256"
        }
      ],
      "name": "ElectrostaticAttraction",
      "type": "event"
    },
    {
      "anonymous": false,
      "inputs": [
        {
          "indexed": true,
          "internalType": "address",
          "name": "account",
          "type": "address"
        },
        {
          "indexed": false,
          "internalType": "address",
          "name": "photonSource",
          "type": "address"
        },
        {
          "indexed": false,
          "internalType": "uint256",
          "name": "energy",
          "type": "uint256"
        }
      ],
      "name": "ElectrostaticDischarge",
      "type": "event"
    },
    {
      "anonymous": false,
      "inputs": [
        {
          "indexed": true,
          "internalType": "address",
          "name": "assetToken",
          "type": "address"
        },
        {
          "indexed": false,
          "internalType": "uint256",
          "name": "multiplier",
          "type": "uint256"
        }
      ],
      "name": "EsaMultiplierSet",
      "type": "event"
    },
    {
      "anonymous": false,
      "inputs": [
        {
          "indexed": true,
          "internalType": "address",
          "name": "leptonToken",
          "type": "address"
        }
      ],
      "name": "LeptonTokenSet",
      "type": "event"
    },
    {
      "anonymous": false,
      "inputs": [
        {
          "indexed": true,
          "internalType": "address",
          "name": "contractAddress",
          "type": "address"
        },
        {
          "indexed": false,
          "internalType": "uint256",
          "name": "tokenId",
          "type": "uint256"
        },
        {
          "indexed": true,
          "internalType": "address",
          "name": "nftTokenAddress",
          "type": "address"
        },
        {
          "indexed": false,
          "internalType": "uint256",
          "name": "nftTokenId",
          "type": "uint256"
        }
      ],
      "name": "NftDeposit",
      "type": "event"
    },
    {
      "anonymous": false,
      "inputs": [
        {
          "indexed": true,
          "internalType": "address",
          "name": "contractAddress",
          "type": "address"
        },
        {
          "indexed": false,
          "internalType": "uint256",
          "name": "tokenId",
          "type": "uint256"
        },
        {
          "indexed": true,
          "internalType": "address",
          "name": "nftTokenAddress",
          "type": "address"
        },
        {
          "indexed": false,
          "internalType": "uint256",
          "name": "nftTokenId",
          "type": "uint256"
        }
      ],
      "name": "NftRelease",
      "type": "event"
    },
    {
      "anonymous": false,
      "inputs": [
        {
          "indexed": true,
          "internalType": "address",
          "name": "previousOwner",
          "type": "address"
        },
        {
          "indexed": true,
          "internalType": "address",
          "name": "newOwner",
          "type": "address"
        }
      ],
      "name": "OwnershipTransferred",
      "type": "event"
    },
    {
      "anonymous": false,
      "inputs": [
        {
          "indexed": true,
          "internalType": "address",
          "name": "photonToken",
          "type": "address"
        },
        {
          "indexed": false,
          "internalType": "uint256",
          "name": "maxSupply",
          "type": "uint256"
        }
      ],
      "name": "PhotonSet",
      "type": "event"
    },
    {
      "anonymous": false,
      "inputs": [
        {
          "indexed": true,
          "internalType": "address",
          "name": "protonToken",
          "type": "address"
        }
      ],
      "name": "ProtonTokenSet",
      "type": "event"
    },
    {
      "anonymous": false,
      "inputs": [
        {
          "indexed": true,
          "internalType": "address",
          "name": "quarkToken",
          "type": "address"
        }
      ],
      "name": "QuarkTokenSet",
      "type": "event"
    },
    {
      "anonymous": false,
      "inputs": [
        {
          "indexed": true,
          "internalType": "address",
          "name": "assetToken",
          "type": "address"
        }
      ],
      "name": "RewardProgramRemoved",
      "type": "event"
    },
    {
      "anonymous": false,
      "inputs": [
        {
          "indexed": true,
          "internalType": "address",
          "name": "assetToken",
          "type": "address"
        },
        {
          "indexed": true,
          "internalType": "address",
          "name": "rewardProgram",
          "type": "address"
        }
      ],
      "name": "RewardProgramSet",
      "type": "event"
    },
    {
      "anonymous": false,
      "inputs": [
        {
          "indexed": true,
          "internalType": "address",
          "name": "receiver",
          "type": "address"
        },
        {
          "indexed": true,
          "internalType": "address",
          "name": "tokenAddress",
          "type": "address"
        },
        {
          "indexed": true,
          "internalType": "uint256",
          "name": "tokenId",
          "type": "uint256"
        },
        {
          "indexed": false,
          "internalType": "uint256",
          "name": "amount",
          "type": "uint256"
        }
      ],
      "name": "WithdrawStuckERC1155",
      "type": "event"
    },
    {
      "anonymous": false,
      "inputs": [
        {
          "indexed": true,
          "internalType": "address",
          "name": "receiver",
          "type": "address"
        },
        {
          "indexed": true,
          "internalType": "address",
          "name": "tokenAddress",
          "type": "address"
        },
        {
          "indexed": false,
          "internalType": "uint256",
          "name": "amount",
          "type": "uint256"
        }
      ],
      "name": "WithdrawStuckERC20",
      "type": "event"
    },
    {
      "anonymous": false,
      "inputs": [
        {
          "indexed": true,
          "internalType": "address",
          "name": "receiver",
          "type": "address"
        },
        {
          "indexed": true,
          "internalType": "address",
          "name": "tokenAddress",
          "type": "address"
        },
        {
          "indexed": true,
          "internalType": "uint256",
          "name": "tokenId",
          "type": "uint256"
        }
      ],
      "name": "WithdrawStuckERC721",
      "type": "event"
    },
    {
      "anonymous": false,
      "inputs": [
        {
          "indexed": true,
          "internalType": "address",
          "name": "receiver",
          "type": "address"
        },
        {
          "indexed": false,
          "internalType": "uint256",
          "name": "amount",
          "type": "uint256"
        }
      ],
      "name": "WithdrawStuckEther",
      "type": "event"
    },
    {
      "inputs": [],
      "name": "_chargedParticles",
      "outputs": [
        {
          "internalType": "address",
          "name": "",
          "type": "address"
        }
      ],
      "stateMutability": "view",
      "type": "function"
    },
    {
      "inputs": [],
      "name": "_multiplierNft",
      "outputs": [
        {
          "internalType": "address",
          "name": "",
          "type": "address"
        }
      ],
      "stateMutability": "view",
      "type": "function"
    },
    {
      "inputs": [
        {
          "internalType": "uint256",
          "name": "uuid",
          "type": "uint256"
        }
      ],
      "name": "getNftStake",
      "outputs": [
        {
          "components": [
            {
              "internalType": "uint256",
              "name": "multiplier",
              "type": "uint256"
            },
            {
              "internalType": "uint256",
              "name": "depositBlockNumber",
              "type": "uint256"
            },
            {
              "internalType": "uint256",
              "name": "releaseBlockNumber",
              "type": "uint256"
            }
          ],
          "internalType": "struct IUniverseRP.NftStake",
          "name": "",
          "type": "tuple"
        }
      ],
      "stateMutability": "view",
      "type": "function"
    },
    {
      "inputs": [
        {
          "internalType": "address",
          "name": "asset",
          "type": "address"
        }
      ],
      "name": "getRewardProgram",
      "outputs": [
        {
          "internalType": "address",
          "name": "",
          "type": "address"
        }
      ],
      "stateMutability": "view",
      "type": "function"
    },
    {
      "inputs": [],
      "name": "initialize",
      "outputs": [],
      "stateMutability": "nonpayable",
      "type": "function"
    },
    {
      "inputs": [
        {
          "internalType": "address",
          "name": "contractAddress",
          "type": "address"
        },
        {
          "internalType": "uint256",
          "name": "tokenId",
          "type": "uint256"
        },
        {
          "internalType": "string",
          "name": "",
          "type": "string"
        },
        {
          "internalType": "address",
          "name": "nftTokenAddress",
          "type": "address"
        },
        {
          "internalType": "uint256",
          "name": "nftTokenId",
          "type": "uint256"
        },
        {
          "internalType": "uint256",
          "name": "nftTokenAmount",
          "type": "uint256"
        }
      ],
      "name": "onCovalentBond",
      "outputs": [],
      "stateMutability": "nonpayable",
      "type": "function"
    },
    {
      "inputs": [
        {
          "internalType": "address",
          "name": "contractAddress",
          "type": "address"
        },
        {
          "internalType": "uint256",
          "name": "tokenId",
          "type": "uint256"
        },
        {
          "internalType": "string",
          "name": "",
          "type": "string"
        },
        {
          "internalType": "address",
          "name": "nftTokenAddress",
          "type": "address"
        },
        {
          "internalType": "uint256",
          "name": "nftTokenId",
          "type": "uint256"
        },
        {
          "internalType": "uint256",
          "name": "nftTokenAmount",
          "type": "uint256"
        }
      ],
      "name": "onCovalentBreak",
      "outputs": [],
      "stateMutability": "nonpayable",
      "type": "function"
    },
    {
      "inputs": [
        {
          "internalType": "address",
          "name": "contractAddress",
          "type": "address"
        },
        {
          "internalType": "uint256",
          "name": "tokenId",
          "type": "uint256"
        },
        {
          "internalType": "string",
          "name": "",
          "type": "string"
        },
        {
          "internalType": "address",
          "name": "assetToken",
          "type": "address"
        },
        {
          "internalType": "uint256",
          "name": "creatorEnergy",
          "type": "uint256"
        },
        {
          "internalType": "uint256",
          "name": "receiverEnergy",
          "type": "uint256"
        }
      ],
      "name": "onDischarge",
      "outputs": [],
      "stateMutability": "nonpayable",
      "type": "function"
    },
    {
      "inputs": [
        {
          "internalType": "address",
          "name": "contractAddress",
          "type": "address"
        },
        {
          "internalType": "uint256",
          "name": "tokenId",
          "type": "uint256"
        },
        {
          "internalType": "string",
          "name": "",
          "type": "string"
        },
        {
          "internalType": "address",
          "name": "",
          "type": "address"
        },
        {
          "internalType": "address",
          "name": "assetToken",
          "type": "address"
        },
        {
          "internalType": "uint256",
          "name": "receiverEnergy",
          "type": "uint256"
        }
      ],
      "name": "onDischargeForCreator",
      "outputs": [],
      "stateMutability": "nonpayable",
      "type": "function"
    },
    {
      "inputs": [
        {
          "internalType": "address",
          "name": "",
          "type": "address"
        },
        {
          "internalType": "address",
          "name": "",
          "type": "address"
        },
        {
          "internalType": "address",
          "name": "contractAddress",
          "type": "address"
        },
        {
          "internalType": "uint256",
          "name": "tokenId",
          "type": "uint256"
        },
        {
          "internalType": "string",
          "name": "walletManagerId",
          "type": "string"
        },
        {
          "internalType": "address",
          "name": "assetToken",
          "type": "address"
        },
        {
          "internalType": "uint256",
          "name": "assetAmount",
          "type": "uint256"
        }
      ],
      "name": "onEnergize",
      "outputs": [],
      "stateMutability": "nonpayable",
      "type": "function"
    },
    {
      "inputs": [
        {
          "internalType": "address",
          "name": "contractAddress",
          "type": "address"
        },
        {
          "internalType": "uint256",
          "name": "tokenId",
          "type": "uint256"
        },
        {
          "internalType": "address",
          "name": "oldOwner",
          "type": "address"
        },
        {
          "internalType": "address",
          "name": "newOwner",
          "type": "address"
        },
        {
          "internalType": "uint256",
          "name": "salePrice",
          "type": "uint256"
        },
        {
          "internalType": "address",
          "name": "creator",
          "type": "address"
        },
        {
          "internalType": "uint256",
          "name": "creatorRoyalties",
          "type": "uint256"
        }
      ],
      "name": "onProtonSale",
      "outputs": [],
      "stateMutability": "nonpayable",
      "type": "function"
    },
    {
      "inputs": [
        {
          "internalType": "address",
          "name": "contractAddress",
          "type": "address"
        },
        {
          "internalType": "uint256",
          "name": "tokenId",
          "type": "uint256"
        },
        {
          "internalType": "string",
          "name": "",
          "type": "string"
        },
        {
          "internalType": "address",
          "name": "assetToken",
          "type": "address"
        },
        {
          "internalType": "uint256",
          "name": "principalAmount",
          "type": "uint256"
        },
        {
          "internalType": "uint256",
          "name": "creatorEnergy",
          "type": "uint256"
        },
        {
          "internalType": "uint256",
          "name": "receiverEnergy",
          "type": "uint256"
        }
      ],
      "name": "onRelease",
      "outputs": [],
      "stateMutability": "nonpayable",
      "type": "function"
    },
    {
      "inputs": [],
      "name": "owner",
      "outputs": [
        {
          "internalType": "address",
          "name": "",
          "type": "address"
        }
      ],
      "stateMutability": "view",
      "type": "function"
    },
    {
      "inputs": [
        {
          "internalType": "address",
          "name": "assetToken",
          "type": "address"
        }
      ],
      "name": "removeRewardProgram",
      "outputs": [],
      "stateMutability": "nonpayable",
      "type": "function"
    },
    {
      "inputs": [],
      "name": "renounceOwnership",
      "outputs": [],
      "stateMutability": "nonpayable",
      "type": "function"
    },
    {
      "inputs": [
        {
          "internalType": "address",
          "name": "controller",
          "type": "address"
        }
      ],
      "name": "setChargedParticles",
      "outputs": [],
      "stateMutability": "nonpayable",
      "type": "function"
    },
    {
      "inputs": [
        {
          "internalType": "address",
          "name": "nftTokenAddress",
          "type": "address"
        }
      ],
      "name": "setMultiplierNft",
      "outputs": [],
      "stateMutability": "nonpayable",
      "type": "function"
    },
    {
      "inputs": [
        {
          "internalType": "address",
          "name": "rewardProgam",
          "type": "address"
        },
        {
          "internalType": "address",
          "name": "assetToken",
          "type": "address"
        }
      ],
      "name": "setRewardProgram",
      "outputs": [],
      "stateMutability": "nonpayable",
      "type": "function"
    },
    {
      "inputs": [
        {
          "internalType": "address",
          "name": "newOwner",
          "type": "address"
        }
      ],
      "name": "transferOwnership",
      "outputs": [],
      "stateMutability": "nonpayable",
      "type": "function"
    },
    {
      "inputs": [
        {
          "internalType": "address payable",
          "name": "receiver",
          "type": "address"
        },
        {
          "internalType": "address",
          "name": "tokenAddress",
          "type": "address"
        },
        {
          "internalType": "uint256",
          "name": "tokenId",
          "type": "uint256"
        },
        {
          "internalType": "uint256",
          "name": "amount",
          "type": "uint256"
        }
      ],
      "name": "withdrawERC1155",
      "outputs": [],
      "stateMutability": "nonpayable",
      "type": "function"
    },
    {
      "inputs": [
        {
          "internalType": "address payable",
          "name": "receiver",
          "type": "address"
        },
        {
          "internalType": "address",
          "name": "tokenAddress",
          "type": "address"
        },
        {
          "internalType": "uint256",
          "name": "tokenId",
          "type": "uint256"
        }
      ],
      "name": "withdrawERC721",
      "outputs": [],
      "stateMutability": "nonpayable",
      "type": "function"
    },
    {
      "inputs": [
        {
          "internalType": "address payable",
          "name": "receiver",
          "type": "address"
        },
        {
          "internalType": "address",
          "name": "tokenAddress",
          "type": "address"
        },
        {
          "internalType": "uint256",
          "name": "amount",
          "type": "uint256"
        }
      ],
      "name": "withdrawErc20",
      "outputs": [],
      "stateMutability": "nonpayable",
      "type": "function"
    },
    {
      "inputs": [
        {
          "internalType": "address payable",
          "name": "receiver",
          "type": "address"
        },
        {
          "internalType": "uint256",
          "name": "amount",
          "type": "uint256"
        }
      ],
      "name": "withdrawEther",
      "outputs": [],
      "stateMutability": "nonpayable",
      "type": "function"
    }
  ],
  "transactionHash": "0xd82d93e302c2c92a9e59d48352f801530b577e7edf76637a148576bb73d9c952",
  "args": [],
  "numDeployments": 1,
  "solcInputHash": "dbd91ed1997e211460bedc81ba3fa34f",
  "bytecode": "0x608060405234801561001057600080fd5b50614360806100206000396000f3fe608060405234801561001057600080fd5b506004361061014d5760003560e01c80638da5cb5b116100c3578063b9e09b4b1161007c578063b9e09b4b14610322578063bbf1da841461033e578063bea38be01461035c578063c5d1d70614610378578063f2fde38b146103a8578063fbf5ca14146103c45761014d565b80638da5cb5b14610278578063945233e21461029657806395469dfc146102b25780639a87c0de146102ce578063a0edb48b146102ea578063aa29542d146103065761014d565b8063522f681511610115578063522f6815146101e05780636e5559fd146101fc578063715018a6146102185780638129fc1c14610222578063836c478d1461022c5780638b9309b21461025c5761014d565b80631593dee1146101525780632bdbb77f1461016e57806330219ef41461018a5780634025feb2146101a857806341db85d6146101c4575b600080fd5b61016c600480360381019061016791906131dc565b6103e0565b005b61018860048036038101906101839190613505565b61046c565b005b610192610512565b60405161019f9190613d94565b60405180910390f35b6101c260048036038101906101bd91906131dc565b610538565b005b6101de60048036038101906101d99190613505565b6105c4565b005b6101fa60048036038101906101f5919061328e565b610748565b005b6102166004803603810190610211919061318a565b6107d2565b005b61022061096e565b005b61022a610aab565b005b6102466004803603810190610241919061368f565b610b9b565b604051610253919061410e565b60405180910390f35b610276600480360381019061027191906133c0565b610be6565b005b610280610bef565b60405161028d9190613d94565b60405180910390f35b6102b060048036038101906102ab919061318a565b610c19565b005b6102cc60048036038101906102c791906132ca565b610d3d565b005b6102e860048036038101906102e3919061318a565b610f9e565b005b61030460048036038101906102ff919061322b565b6110f7565b005b610320600480360381019061031b919061345e565b611185565b005b61033c60048036038101906103379190613306565b6112f1565b005b610346611441565b6040516103539190613d94565b60405180910390f35b61037660048036038101906103719190613505565b611467565b005b610392600480360381019061038d919061318a565b61150d565b60405161039f9190613d94565b60405180910390f35b6103c260048036038101906103bd919061318a565b61151f565b005b6103de60048036038101906103d991906135ac565b6116cb565b005b6103e8611862565b73ffffffffffffffffffffffffffffffffffffffff16610406610bef565b73ffffffffffffffffffffffffffffffffffffffff161461045c576040517f08c379a00000000000000000000000000000000000000000000000000000000081526004016104539061408e565b60405180910390fd5b61046783838361186a565b505050565b3373ffffffffffffffffffffffffffffffffffffffff16606560009054906101000a900473ffffffffffffffffffffffffffffffffffffffff1673ffffffffffffffffffffffffffffffffffffffff16146104fc576040517f08c379a00000000000000000000000000000000000000000000000000000000081526004016104f3906140ae565b60405180910390fd5b61050987878585856119ff565b50505050505050565b606560009054906101000a900473ffffffffffffffffffffffffffffffffffffffff1681565b610540611862565b73ffffffffffffffffffffffffffffffffffffffff1661055e610bef565b73ffffffffffffffffffffffffffffffffffffffff16146105b4576040517f08c379a00000000000000000000000000000000000000000000000000000000081526004016105ab9061408e565b60405180910390fd5b6105bf838383611c75565b505050565b3373ffffffffffffffffffffffffffffffffffffffff16606560009054906101000a900473ffffffffffffffffffffffffffffffffffffffff1673ffffffffffffffffffffffffffffffffffffffff1614610654576040517f08c379a000000000000000000000000000000000000000000000000000000000815260040161064b906140ae565b60405180910390fd5b600061065f84611e71565b9050600073ffffffffffffffffffffffffffffffffffffffff168173ffffffffffffffffffffffffffffffffffffffff161461073e5760006106aa8484611eda90919063ffffffff16565b90508173ffffffffffffffffffffffffffffffffffffffff166350d0c63c8a8a846040518463ffffffff1660e01b81526004016106e993929190613eb5565b602060405180830381600087803b15801561070357600080fd5b505af1158015610717573d6000803e3d6000fd5b505050506040513d601f19601f8201168201806040525081019061073b91906136b8565b50505b5050505050505050565b610750611862565b73ffffffffffffffffffffffffffffffffffffffff1661076e610bef565b73ffffffffffffffffffffffffffffffffffffffff16146107c4576040517f08c379a00000000000000000000000000000000000000000000000000000000081526004016107bb9061408e565b60405180910390fd5b6107ce8282611f2f565b5050565b6107da611862565b73ffffffffffffffffffffffffffffffffffffffff166107f8610bef565b73ffffffffffffffffffffffffffffffffffffffff161461084e576040517f08c379a00000000000000000000000000000000000000000000000000000000081526004016108459061408e565b60405180910390fd5b80600073ffffffffffffffffffffffffffffffffffffffff168173ffffffffffffffffffffffffffffffffffffffff16141580156108a757506108a68173ffffffffffffffffffffffffffffffffffffffff16612021565b5b6108e6576040517f08c379a00000000000000000000000000000000000000000000000000000000081526004016108dd90613f8e565b60405180910390fd5b81606560006101000a81548173ffffffffffffffffffffffffffffffffffffffff021916908373ffffffffffffffffffffffffffffffffffffffff1602179055508173ffffffffffffffffffffffffffffffffffffffff167f5ce0e6b7fd36339ee97339831b6c72694ecee88c62aab49919d9cabe0a732e4160405160405180910390a25050565b610976611862565b73ffffffffffffffffffffffffffffffffffffffff16610994610bef565b73ffffffffffffffffffffffffffffffffffffffff16146109ea576040517f08c379a00000000000000000000000000000000000000000000000000000000081526004016109e19061408e565b60405180910390fd5b600073ffffffffffffffffffffffffffffffffffffffff16603360009054906101000a900473ffffffffffffffffffffffffffffffffffffffff1673ffffffffffffffffffffffffffffffffffffffff167f8be0079c531659141344cd1fd0a4f28419497f9722a3daafe3b4186f6b6457e060405160405180910390a36000603360006101000a81548173ffffffffffffffffffffffffffffffffffffffff021916908373ffffffffffffffffffffffffffffffffffffffff160217905550565b600060019054906101000a900460ff1680610aca5750610ac961206c565b5b80610ae0575060008054906101000a900460ff16155b610b1f576040517f08c379a0000000000000000000000000000000000000000000000000000000008152600401610b169061404e565b60405180910390fd5b60008060019054906101000a900460ff161590508015610b6f576001600060016101000a81548160ff02191690831515021790555060016000806101000a81548160ff0219169083151502179055505b610b7761207d565b8015610b985760008060016101000a81548160ff0219169083151502179055505b50565b610ba36130a1565b6069600083815260200190815260200160002060405180606001604052908160008201548152602001600182015481526020016002820154815250509050919050565b50505050505050565b6000603360009054906101000a900473ffffffffffffffffffffffffffffffffffffffff16905090565b610c21611862565b73ffffffffffffffffffffffffffffffffffffffff16610c3f610bef565b73ffffffffffffffffffffffffffffffffffffffff1614610c95576040517f08c379a0000000000000000000000000000000000000000000000000000000008152600401610c8c9061408e565b60405180910390fd5b606760008273ffffffffffffffffffffffffffffffffffffffff1673ffffffffffffffffffffffffffffffffffffffff16815260200190815260200160002060006101000a81549073ffffffffffffffffffffffffffffffffffffffff02191690558073ffffffffffffffffffffffffffffffffffffffff167f87e1027e3dc61d1977f39f0dfe911b66a943946b4ceb39210dee01495621de5260405160405180910390a250565b610d45611862565b73ffffffffffffffffffffffffffffffffffffffff16610d63610bef565b73ffffffffffffffffffffffffffffffffffffffff1614610db9576040517f08c379a0000000000000000000000000000000000000000000000000000000008152600401610db09061408e565b60405180910390fd5b81600073ffffffffffffffffffffffffffffffffffffffff168173ffffffffffffffffffffffffffffffffffffffff1614158015610e125750610e118173ffffffffffffffffffffffffffffffffffffffff16612021565b5b610e51576040517f08c379a0000000000000000000000000000000000000000000000000000000008152600401610e4890613f8e565b60405180910390fd5b600073ffffffffffffffffffffffffffffffffffffffff168273ffffffffffffffffffffffffffffffffffffffff161415610ec1576040517f08c379a0000000000000000000000000000000000000000000000000000000008152600401610eb890613f2e565b60405180910390fd5b82606760008473ffffffffffffffffffffffffffffffffffffffff1673ffffffffffffffffffffffffffffffffffffffff16815260200190815260200160002060006101000a81548173ffffffffffffffffffffffffffffffffffffffff021916908373ffffffffffffffffffffffffffffffffffffffff1602179055508273ffffffffffffffffffffffffffffffffffffffff168273ffffffffffffffffffffffffffffffffffffffff167f3b76c6366ef8a1f8d2dbb75e4be27be1e0749716fff3e6bc327da9c6158deada60405160405180910390a3505050565b610fa6611862565b73ffffffffffffffffffffffffffffffffffffffff16610fc4610bef565b73ffffffffffffffffffffffffffffffffffffffff161461101a576040517f08c379a00000000000000000000000000000000000000000000000000000000081526004016110119061408e565b60405180910390fd5b80600073ffffffffffffffffffffffffffffffffffffffff168173ffffffffffffffffffffffffffffffffffffffff161415801561107357506110728173ffffffffffffffffffffffffffffffffffffffff16612021565b5b6110b2576040517f08c379a00000000000000000000000000000000000000000000000000000000081526004016110a990613f8e565b60405180910390fd5b81606660006101000a81548173ffffffffffffffffffffffffffffffffffffffff021916908373ffffffffffffffffffffffffffffffffffffffff1602179055505050565b6110ff611862565b73ffffffffffffffffffffffffffffffffffffffff1661111d610bef565b73ffffffffffffffffffffffffffffffffffffffff1614611173576040517f08c379a000000000000000000000000000000000000000000000000000000000815260040161116a9061408e565b60405180910390fd5b61117f84848484612175565b50505050565b3373ffffffffffffffffffffffffffffffffffffffff16606560009054906101000a900473ffffffffffffffffffffffffffffffffffffffff1673ffffffffffffffffffffffffffffffffffffffff1614611215576040517f08c379a000000000000000000000000000000000000000000000000000000000815260040161120c906140ae565b60405180910390fd5b600061122083611e71565b9050600073ffffffffffffffffffffffffffffffffffffffff168173ffffffffffffffffffffffffffffffffffffffff16146112e7578073ffffffffffffffffffffffffffffffffffffffff166350d0c63c8989856040518463ffffffff1660e01b815260040161129393929190613eb5565b602060405180830381600087803b1580156112ad57600080fd5b505af11580156112c1573d6000803e3d6000fd5b505050506040513d601f19601f820116820180604052508101906112e591906136b8565b505b5050505050505050565b3373ffffffffffffffffffffffffffffffffffffffff16606560009054906101000a900473ffffffffffffffffffffffffffffffffffffffff1673ffffffffffffffffffffffffffffffffffffffff1614611381576040517f08c379a0000000000000000000000000000000000000000000000000000000008152600401611378906140ae565b60405180910390fd5b600061138c83611e71565b9050600073ffffffffffffffffffffffffffffffffffffffff168173ffffffffffffffffffffffffffffffffffffffff1614611436578073ffffffffffffffffffffffffffffffffffffffff166346c65f6288888888876040518663ffffffff1660e01b8152600401611403959493929190613e67565b600060405180830381600087803b15801561141d57600080fd5b505af1158015611431573d6000803e3d6000fd5b505050505b505050505050505050565b606660009054906101000a900473ffffffffffffffffffffffffffffffffffffffff1681565b3373ffffffffffffffffffffffffffffffffffffffff16606560009054906101000a900473ffffffffffffffffffffffffffffffffffffffff1673ffffffffffffffffffffffffffffffffffffffff16146114f7576040517f08c379a00000000000000000000000000000000000000000000000000000000081526004016114ee906140ae565b60405180910390fd5b6115048787858585612353565b50505050505050565b600061151882611e71565b9050919050565b611527611862565b73ffffffffffffffffffffffffffffffffffffffff16611545610bef565b73ffffffffffffffffffffffffffffffffffffffff161461159b576040517f08c379a00000000000000000000000000000000000000000000000000000000081526004016115929061408e565b60405180910390fd5b600073ffffffffffffffffffffffffffffffffffffffff168173ffffffffffffffffffffffffffffffffffffffff16141561160b576040517f08c379a000000000000000000000000000000000000000000000000000000000815260040161160290613f4e565b60405180910390fd5b8073ffffffffffffffffffffffffffffffffffffffff16603360009054906101000a900473ffffffffffffffffffffffffffffffffffffffff1673ffffffffffffffffffffffffffffffffffffffff167f8be0079c531659141344cd1fd0a4f28419497f9722a3daafe3b4186f6b6457e060405160405180910390a380603360006101000a81548173ffffffffffffffffffffffffffffffffffffffff021916908373ffffffffffffffffffffffffffffffffffffffff16021790555050565b3373ffffffffffffffffffffffffffffffffffffffff16606560009054906101000a900473ffffffffffffffffffffffffffffffffffffffff1673ffffffffffffffffffffffffffffffffffffffff161461175b576040517f08c379a0000000000000000000000000000000000000000000000000000000008152600401611752906140ae565b60405180910390fd5b600061176685611e71565b9050600073ffffffffffffffffffffffffffffffffffffffff168173ffffffffffffffffffffffffffffffffffffffff16146118575760006117c3846117b587866124da90919063ffffffff16565b611eda90919063ffffffff16565b90508173ffffffffffffffffffffffffffffffffffffffff166350d0c63c8b8b846040518463ffffffff1660e01b815260040161180293929190613eb5565b602060405180830381600087803b15801561181c57600080fd5b505af1158015611830573d6000803e3d6000fd5b505050506040513d601f19601f8201168201806040525081019061185491906136b8565b50505b505050505050505050565b600033905090565b600073ffffffffffffffffffffffffffffffffffffffff168373ffffffffffffffffffffffffffffffffffffffff1614156118da576040517f08c379a00000000000000000000000000000000000000000000000000000000081526004016118d190613f6e565b60405180910390fd5b808273ffffffffffffffffffffffffffffffffffffffff166370a08231306040518263ffffffff1660e01b81526004016119149190613d94565b60206040518083038186803b15801561192c57600080fd5b505afa158015611940573d6000803e3d6000fd5b505050506040513d601f19601f8201168201806040525081019061196491906136b8565b106119fa5761199483828473ffffffffffffffffffffffffffffffffffffffff1661252a9092919063ffffffff16565b8173ffffffffffffffffffffffffffffffffffffffff168373ffffffffffffffffffffffffffffffffffffffff167f6c9d637297625e945b296ff73a71fcfbd0a9e062652b6491a921c4c60194176b836040516119f19190614129565b60405180910390a35b505050565b8273ffffffffffffffffffffffffffffffffffffffff16606660009054906101000a900473ffffffffffffffffffffffffffffffffffffffff1673ffffffffffffffffffffffffffffffffffffffff1614611a5957611c6e565b6000611a84858773ffffffffffffffffffffffffffffffffffffffff166125b090919063ffffffff16565b90506000611a9285856125e6565b9050600081118015611ac65750611ac4816068600085815260200190815260200160002061270390919063ffffffff16565b155b15611c0457611af0816068600085815260200190815260200160002061271d90919063ffffffff16565b506000611afc83612737565b9050600060696000858152602001908152602001600020600101541415611b72576040518060600160405280828152602001438152602001600081525060696000858152602001908152602001600020600082015181600001556020820151816001015560408201518160020155905050611c02565b6000606960008581526020019081526020016000206001015443039050816069600086815260200190815260200160002060000181905550611be6611bc160028361280490919063ffffffff16565b6069600087815260200190815260200160002060010154611eda90919063ffffffff16565b6069600086815260200190815260200160002060010181905550505b505b8473ffffffffffffffffffffffffffffffffffffffff168773ffffffffffffffffffffffffffffffffffffffff167f186ebbe503be539e070ca73b33a78f4266d96003e62b888dc31f88a39ddc9c878887604051611c63929190614144565b60405180910390a350505b5050505050565b600073ffffffffffffffffffffffffffffffffffffffff168373ffffffffffffffffffffffffffffffffffffffff161415611ce5576040517f08c379a0000000000000000000000000000000000000000000000000000000008152600401611cdc90613f6e565b60405180910390fd5b3073ffffffffffffffffffffffffffffffffffffffff168273ffffffffffffffffffffffffffffffffffffffff16636352211e836040518263ffffffff1660e01b8152600401611d359190614129565b60206040518083038186803b158015611d4d57600080fd5b505afa158015611d61573d6000803e3d6000fd5b505050506040513d601f19601f82011682018060405250810190611d8591906131b3565b73ffffffffffffffffffffffffffffffffffffffff161415611e6c578173ffffffffffffffffffffffffffffffffffffffff166323b872dd3085846040518463ffffffff1660e01b8152600401611dde93929190613daf565b600060405180830381600087803b158015611df857600080fd5b505af1158015611e0c573d6000803e3d6000fd5b50505050808273ffffffffffffffffffffffffffffffffffffffff168473ffffffffffffffffffffffffffffffffffffffff167ffefe036cac4ee3a4aca074a81cbcc4376e1484693289078dbec149c890101d5b60405160405180910390a45b505050565b6000606760008373ffffffffffffffffffffffffffffffffffffffff1673ffffffffffffffffffffffffffffffffffffffff16815260200190815260200160002060009054906101000a900473ffffffffffffffffffffffffffffffffffffffff169050919050565b600080828401905083811015611f25576040517f08c379a0000000000000000000000000000000000000000000000000000000008152600401611f1c90613fae565b60405180910390fd5b8091505092915050565b600073ffffffffffffffffffffffffffffffffffffffff168273ffffffffffffffffffffffffffffffffffffffff161415611f9f576040517f08c379a0000000000000000000000000000000000000000000000000000000008152600401611f9690613f6e565b60405180910390fd5b80471061201d57611fcf818373ffffffffffffffffffffffffffffffffffffffff1661285a90919063ffffffff16565b8173ffffffffffffffffffffffffffffffffffffffff167eddb683bb45cd5d0ad8a200c6fae7152b1c236ee90a4a37db692407f5cc38bd826040516120149190614129565b60405180910390a25b5050565b60008060007fc5d2460186f7233c927e7db2dcc703c0e500b653ca82273b7bfad8045d85a47060001b9050833f915080821415801561206357506000801b8214155b92505050919050565b60006120773061294e565b15905090565b600060019054906101000a900460ff168061209c575061209b61206c565b5b806120b2575060008054906101000a900460ff16155b6120f1576040517f08c379a00000000000000000000000000000000000000000000000000000000081526004016120e89061404e565b60405180910390fd5b60008060019054906101000a900460ff161590508015612141576001600060016101000a81548160ff02191690831515021790555060016000806101000a81548160ff0219169083151502179055505b612149612961565b612151612a49565b80156121725760008060016101000a81548160ff0219169083151502179055505b50565b600073ffffffffffffffffffffffffffffffffffffffff168473ffffffffffffffffffffffffffffffffffffffff1614156121e5576040517f08c379a00000000000000000000000000000000000000000000000000000000081526004016121dc90613f6e565b60405180910390fd5b808373ffffffffffffffffffffffffffffffffffffffff1662fdd58e30856040518363ffffffff1660e01b8152600401612220929190613e3e565b60206040518083038186803b15801561223857600080fd5b505afa15801561224c573d6000803e3d6000fd5b505050506040513d601f19601f8201168201806040525081019061227091906136b8565b1061234d578273ffffffffffffffffffffffffffffffffffffffff1663f242432a308685856040518563ffffffff1660e01b81526004016122b49493929190613de6565b600060405180830381600087803b1580156122ce57600080fd5b505af11580156122e2573d6000803e3d6000fd5b50505050818373ffffffffffffffffffffffffffffffffffffffff168573ffffffffffffffffffffffffffffffffffffffff167f620337bf89eea2b9ae2657beead83b5fa620452817118348aff96e201d52598b846040516123449190614129565b60405180910390a45b50505050565b8273ffffffffffffffffffffffffffffffffffffffff16606660009054906101000a900473ffffffffffffffffffffffffffffffffffffffff1673ffffffffffffffffffffffffffffffffffffffff16146123ad576124d3565b60006123d8858773ffffffffffffffffffffffffffffffffffffffff166125b090919063ffffffff16565b9050600060696000838152602001908152602001600020905060006123fd86866125e6565b90506124248160686000868152602001908152602001600020612bda90919063ffffffff16565b50600061244260686000868152602001908152602001600020612bf4565b111561245e5761245183612737565b8260000181905550612468565b4382600201819055505b8573ffffffffffffffffffffffffffffffffffffffff168873ffffffffffffffffffffffffffffffffffffffff167ff3cfcfc091fdd683cf6c013de9806af93f3af27b256a57cb776331291cef408589886040516124c7929190614144565b60405180910390a35050505b5050505050565b60008282111561251f576040517f08c379a000000000000000000000000000000000000000000000000000000000815260040161251690613fce565b60405180910390fd5b818303905092915050565b6125ab8363a9059cbb60e01b8484604051602401612549929190613e3e565b604051602081830303815290604052907bffffffffffffffffffffffffffffffffffffffffffffffffffffffff19166020820180517bffffffffffffffffffffffffffffffffffffffffffffffffffffffff8381831617835250505050612c09565b505050565b600082826040516020016125c5929190613d3c565b6040516020818303038152906040528051906020012060001c905092915050565b60008063adf8252d60e01b9050600060608573ffffffffffffffffffffffffffffffffffffffff1683866040516024016126209190614129565b604051602081830303815290604052907bffffffffffffffffffffffffffffffffffffffffffffffffffffffff19166020820180517bffffffffffffffffffffffffffffffffffffffffffffffffffffffff838183161783525050505060405161268a9190613d68565b6000604051808303816000865af19150503d80600081146126c7576040519150601f19603f3d011682016040523d82523d6000602084013e6126cc565b606091505b509150915081156126f557808060200190518101906126eb91906136b8565b93505050506126fd565b600093505050505b92915050565b6000612715836000018360001b612cd0565b905092915050565b600061272f836000018360001b612cf3565b905092915050565b60008061275560686000858152602001908152602001600020612bf4565b9050600080600683141561278257612778600a6064612d6390919063ffffffff16565b93505050506127ff565b60018311156127f8575b828110156127da576127cb6127bc8260686000898152602001908152602001600020612dd390919063ffffffff16565b83611eda90919063ffffffff16565b9150808060010191505061278c565b6127ee60028361280490919063ffffffff16565b93505050506127ff565b8193505050505b919050565b6000808211612848576040517f08c379a000000000000000000000000000000000000000000000000000000000815260040161283f9061402e565b60405180910390fd5b81838161285157fe5b04905092915050565b8047101561289d576040517f08c379a00000000000000000000000000000000000000000000000000000000081526004016128949061400e565b60405180910390fd5b60008273ffffffffffffffffffffffffffffffffffffffff16826040516128c390613d7f565b60006040518083038185875af1925050503d8060008114612900576040519150601f19603f3d011682016040523d82523d6000602084013e612905565b606091505b5050905080612949576040517f08c379a000000000000000000000000000000000000000000000000000000000815260040161294090613fee565b60405180910390fd5b505050565b600080823b905060008111915050919050565b600060019054906101000a900460ff1680612980575061297f61206c565b5b80612996575060008054906101000a900460ff16155b6129d5576040517f08c379a00000000000000000000000000000000000000000000000000000000081526004016129cc9061404e565b60405180910390fd5b60008060019054906101000a900460ff161590508015612a25576001600060016101000a81548160ff02191690831515021790555060016000806101000a81548160ff0219169083151502179055505b8015612a465760008060016101000a81548160ff0219169083151502179055505b50565b600060019054906101000a900460ff1680612a685750612a6761206c565b5b80612a7e575060008054906101000a900460ff16155b612abd576040517f08c379a0000000000000000000000000000000000000000000000000000000008152600401612ab49061404e565b60405180910390fd5b60008060019054906101000a900460ff161590508015612b0d576001600060016101000a81548160ff02191690831515021790555060016000806101000a81548160ff0219169083151502179055505b6000612b17611862565b905080603360006101000a81548173ffffffffffffffffffffffffffffffffffffffff021916908373ffffffffffffffffffffffffffffffffffffffff1602179055508073ffffffffffffffffffffffffffffffffffffffff16600073ffffffffffffffffffffffffffffffffffffffff167f8be0079c531659141344cd1fd0a4f28419497f9722a3daafe3b4186f6b6457e060405160405180910390a3508015612bd75760008060016101000a81548160ff0219169083151502179055505b50565b6000612bec836000018360001b612ded565b905092915050565b6000612c0282600001612ed5565b9050919050565b6060612c6b826040518060400160405280602081526020017f5361666545524332303a206c6f772d6c6576656c2063616c6c206661696c65648152508573ffffffffffffffffffffffffffffffffffffffff16612ee69092919063ffffffff16565b9050600081511115612ccb5780806020019051810190612c8b9190613666565b612cca576040517f08c379a0000000000000000000000000000000000000000000000000000000008152600401612cc1906140ee565b60405180910390fd5b5b505050565b600080836001016000848152602001908152602001600020541415905092915050565b6000612cff8383612cd0565b612d58578260000182908060018154018082558091505060019003906000526020600020016000909190919091505582600001805490508360010160008481526020019081526020016000208190555060019050612d5d565b600090505b92915050565b600080831415612d765760009050612dcd565b6000828402905082848281612d8757fe5b0414612dc8576040517f08c379a0000000000000000000000000000000000000000000000000000000008152600401612dbf9061406e565b60405180910390fd5b809150505b92915050565b6000612de28360000183612efe565b60001c905092915050565b60008083600101600084815260200190815260200160002054905060008114612ec95760006001820390506000600186600001805490500390506000866000018281548110612e3857fe5b9060005260206000200154905080876000018481548110612e5557fe5b9060005260206000200181905550600183018760010160008381526020019081526020016000208190555086600001805480612e8d57fe5b60019003818190600052602060002001600090559055866001016000878152602001908152602001600020600090556001945050505050612ecf565b60009150505b92915050565b600081600001805490509050919050565b6060612ef58484600085612f6b565b90509392505050565b600081836000018054905011612f49576040517f08c379a0000000000000000000000000000000000000000000000000000000008152600401612f4090613f0e565b60405180910390fd5b826000018281548110612f5857fe5b9060005260206000200154905092915050565b6060612f768561308e565b612fb5576040517f08c379a0000000000000000000000000000000000000000000000000000000008152600401612fac906140ce565b60405180910390fd5b600060608673ffffffffffffffffffffffffffffffffffffffff168587604051612fdf9190613d68565b60006040518083038185875af1925050503d806000811461301c576040519150601f19603f3d011682016040523d82523d6000602084013e613021565b606091505b50915091508115613036578092505050613086565b6000815111156130495780518082602001fd5b836040517f08c379a000000000000000000000000000000000000000000000000000000000815260040161307d9190613eec565b60405180910390fd5b949350505050565b600080823b905060008111915050919050565b60405180606001604052806000815260200160008152602001600081525090565b6000813590506130d1816142ce565b92915050565b6000815190506130e6816142ce565b92915050565b6000813590506130fb816142e5565b92915050565b600081519050613110816142fc565b92915050565b60008083601f84011261312857600080fd5b8235905067ffffffffffffffff81111561314157600080fd5b60208301915083600182028301111561315957600080fd5b9250929050565b60008135905061316f81614313565b92915050565b60008151905061318481614313565b92915050565b60006020828403121561319c57600080fd5b60006131aa848285016130c2565b91505092915050565b6000602082840312156131c557600080fd5b60006131d3848285016130d7565b91505092915050565b6000806000606084860312156131f157600080fd5b60006131ff868287016130ec565b9350506020613210868287016130c2565b925050604061322186828701613160565b9150509250925092565b6000806000806080858703121561324157600080fd5b600061324f878288016130ec565b9450506020613260878288016130c2565b935050604061327187828801613160565b925050606061328287828801613160565b91505092959194509250565b600080604083850312156132a157600080fd5b60006132af858286016130ec565b92505060206132c085828601613160565b9150509250929050565b600080604083850312156132dd57600080fd5b60006132eb858286016130c2565b92505060206132fc858286016130c2565b9150509250929050565b60008060008060008060008060e0898b03121561332257600080fd5b60006133308b828c016130c2565b98505060206133418b828c016130c2565b97505060406133528b828c016130c2565b96505060606133638b828c01613160565b955050608089013567ffffffffffffffff81111561338057600080fd5b61338c8b828c01613116565b945094505060a061339f8b828c016130c2565b92505060c06133b08b828c01613160565b9150509295985092959890939650565b600080600080600080600060e0888a0312156133db57600080fd5b60006133e98a828b016130c2565b97505060206133fa8a828b01613160565b965050604061340b8a828b016130c2565b955050606061341c8a828b016130c2565b945050608061342d8a828b01613160565b93505060a061343e8a828b016130c2565b92505060c061344f8a828b01613160565b91505092959891949750929550565b600080600080600080600060c0888a03121561347957600080fd5b60006134878a828b016130c2565b97505060206134988a828b01613160565b965050604088013567ffffffffffffffff8111156134b557600080fd5b6134c18a828b01613116565b955095505060606134d48a828b016130c2565b93505060806134e58a828b016130c2565b92505060a06134f68a828b01613160565b91505092959891949750929550565b600080600080600080600060c0888a03121561352057600080fd5b600061352e8a828b016130c2565b975050602061353f8a828b01613160565b965050604088013567ffffffffffffffff81111561355c57600080fd5b6135688a828b01613116565b9550955050606061357b8a828b016130c2565b935050608061358c8a828b01613160565b92505060a061359d8a828b01613160565b91505092959891949750929550565b60008060008060008060008060e0898b0312156135c857600080fd5b60006135d68b828c016130c2565b98505060206135e78b828c01613160565b975050604089013567ffffffffffffffff81111561360457600080fd5b6136108b828c01613116565b965096505060606136238b828c016130c2565b94505060806136348b828c01613160565b93505060a06136458b828c01613160565b92505060c06136568b828c01613160565b9150509295985092959890939650565b60006020828403121561367857600080fd5b600061368684828501613101565b91505092915050565b6000602082840312156136a157600080fd5b60006136af84828501613160565b91505092915050565b6000602082840312156136ca57600080fd5b60006136d884828501613175565b91505092915050565b6136ea8161420a565b82525050565b6136f9816141b0565b82525050565b61371061370b826141b0565b614282565b82525050565b60006137218261416d565b61372b8185614194565b935061373b81856020860161424f565b80840191505092915050565b6000613753838561419f565b9350613760838584614240565b613769836142b0565b840190509392505050565b600061377f82614178565b613789818561419f565b935061379981856020860161424f565b6137a2816142b0565b840191505092915050565b60006137ba60228361419f565b91507f456e756d657261626c655365743a20696e646578206f7574206f6620626f756e60008301527f64730000000000000000000000000000000000000000000000000000000000006020830152604082019050919050565b600061382060098361419f565b91507f554e493a452d34303300000000000000000000000000000000000000000000006000830152602082019050919050565b600061386060268361419f565b91507f4f776e61626c653a206e6577206f776e657220697320746865207a65726f206160008301527f64647265737300000000000000000000000000000000000000000000000000006020830152604082019050919050565b60006138c660098361419f565b91507f4248503a452d34303300000000000000000000000000000000000000000000006000830152602082019050919050565b600061390660098361419f565b91507f554e493a452d34313700000000000000000000000000000000000000000000006000830152602082019050919050565b6000613946601b8361419f565b91507f536166654d6174683a206164646974696f6e206f766572666c6f7700000000006000830152602082019050919050565b6000613986601e8361419f565b91507f536166654d6174683a207375627472616374696f6e206f766572666c6f7700006000830152602082019050919050565b60006139c6603a8361419f565b91507f416464726573733a20756e61626c6520746f2073656e642076616c75652c207260008301527f6563697069656e74206d617920686176652072657665727465640000000000006020830152604082019050919050565b6000613a2c601d8361419f565b91507f416464726573733a20696e73756666696369656e742062616c616e63650000006000830152602082019050919050565b6000613a6c601a8361419f565b91507f536166654d6174683a206469766973696f6e206279207a65726f0000000000006000830152602082019050919050565b6000613aac602e8361419f565b91507f496e697469616c697a61626c653a20636f6e747261637420697320616c72656160008301527f647920696e697469616c697a65640000000000000000000000000000000000006020830152604082019050919050565b6000613b1260218361419f565b91507f536166654d6174683a206d756c7469706c69636174696f6e206f766572666c6f60008301527f77000000000000000000000000000000000000000000000000000000000000006020830152604082019050919050565b6000613b7860208361419f565b91507f4f776e61626c653a2063616c6c6572206973206e6f7420746865206f776e65726000830152602082019050919050565b6000613bb860098361419f565b91507f554e493a452d31303800000000000000000000000000000000000000000000006000830152602082019050919050565b6000613bf8600083614183565b9150600082019050919050565b6000613c12600083614194565b9150600082019050919050565b6000613c2c601d8361419f565b91507f416464726573733a2063616c6c20746f206e6f6e2d636f6e74726163740000006000830152602082019050919050565b6000613c6c602a8361419f565b91507f5361666545524332303a204552433230206f7065726174696f6e20646964206e60008301527f6f742073756363656564000000000000000000000000000000000000000000006020830152604082019050919050565b606082016000820151613cdb6000850182613d07565b506020820151613cee6020850182613d07565b506040820151613d016040850182613d07565b50505050565b613d1081614200565b82525050565b613d1f81614200565b82525050565b613d36613d3182614200565b6142a6565b82525050565b6000613d4882856136ff565b601482019150613d588284613d25565b6020820191508190509392505050565b6000613d748284613716565b915081905092915050565b6000613d8a82613c05565b9150819050919050565b6000602082019050613da960008301846136f0565b92915050565b6000606082019050613dc460008301866136f0565b613dd160208301856136e1565b613dde6040830184613d16565b949350505050565b600060a082019050613dfb60008301876136f0565b613e0860208301866136e1565b613e156040830185613d16565b613e226060830184613d16565b8181036080830152613e3381613beb565b905095945050505050565b6000604082019050613e5360008301856136f0565b613e606020830184613d16565b9392505050565b6000608082019050613e7c60008301886136f0565b613e896020830187613d16565b8181036040830152613e9c818587613747565b9050613eab6060830184613d16565b9695505050505050565b6000606082019050613eca60008301866136f0565b613ed76020830185613d16565b613ee46040830184613d16565b949350505050565b60006020820190508181036000830152613f068184613774565b905092915050565b60006020820190508181036000830152613f27816137ad565b9050919050565b60006020820190508181036000830152613f4781613813565b9050919050565b60006020820190508181036000830152613f6781613853565b9050919050565b60006020820190508181036000830152613f87816138b9565b9050919050565b60006020820190508181036000830152613fa7816138f9565b9050919050565b60006020820190508181036000830152613fc781613939565b9050919050565b60006020820190508181036000830152613fe781613979565b9050919050565b60006020820190508181036000830152614007816139b9565b9050919050565b6000602082019050818103600083015261402781613a1f565b9050919050565b6000602082019050818103600083015261404781613a5f565b9050919050565b6000602082019050818103600083015261406781613a9f565b9050919050565b6000602082019050818103600083015261408781613b05565b9050919050565b600060208201905081810360008301526140a781613b6b565b9050919050565b600060208201905081810360008301526140c781613bab565b9050919050565b600060208201905081810360008301526140e781613c1f565b9050919050565b6000602082019050818103600083015261410781613c5f565b9050919050565b60006060820190506141236000830184613cc5565b92915050565b600060208201905061413e6000830184613d16565b92915050565b60006040820190506141596000830185613d16565b6141666020830184613d16565b9392505050565b600081519050919050565b600081519050919050565b600082825260208201905092915050565b600081905092915050565b600082825260208201905092915050565b60006141bb826141e0565b9050919050565b60006141cd826141e0565b9050919050565b60008115159050919050565b600073ffffffffffffffffffffffffffffffffffffffff82169050919050565b6000819050919050565b60006142158261421c565b9050919050565b60006142278261422e565b9050919050565b6000614239826141e0565b9050919050565b82818337600083830152505050565b60005b8381101561426d578082015181840152602081019050614252565b8381111561427c576000848401525b50505050565b600061428d82614294565b9050919050565b600061429f826142c1565b9050919050565b6000819050919050565b6000601f19601f8301169050919050565b60008160601b9050919050565b6142d7816141b0565b81146142e257600080fd5b50565b6142ee816141c2565b81146142f957600080fd5b50565b614305816141d4565b811461431057600080fd5b50565b61431c81614200565b811461432757600080fd5b5056fea2646970667358221220643bc036ace90d4b292ebe1860441bbf67f35183e58e5495cfd18b0c40e1279e64736f6c634300060c0033",
  "devdoc": {
    "details": "Upgradeable Contract",
    "kind": "dev",
    "methods": {
      "owner()": {
        "details": "Returns the address of the current owner."
      },
      "renounceOwnership()": {
        "details": "Leaves the contract without owner. It will not be possible to call `onlyOwner` functions anymore. Can only be called by the current owner. NOTE: Renouncing ownership will leave the contract without an owner, thereby removing any functionality that is only available to the owner."
      },
      "transferOwnership(address)": {
        "details": "Transfers ownership of the contract to a new account (`newOwner`). Can only be called by the current owner."
      }
    },
    "version": 1
  },
  "userdoc": {
    "kind": "user",
    "methods": {},
    "notice": "Charged Particles Universe Contract with Rewards Program",
    "version": 1
  },
  "storageLayout": {
    "storage": [
      {
        "astId": 605,
        "contract": "contracts/v1/UniverseRP.sol:UniverseRP",
        "label": "_initialized",
        "offset": 0,
        "slot": "0",
        "type": "t_bool"
      },
      {
        "astId": 608,
        "contract": "contracts/v1/UniverseRP.sol:UniverseRP",
        "label": "_initializing",
        "offset": 1,
        "slot": "0",
        "type": "t_bool"
      },
      {
        "astId": 1540,
        "contract": "contracts/v1/UniverseRP.sol:UniverseRP",
        "label": "__gap",
        "offset": 0,
        "slot": "1",
        "type": "t_array(t_uint256)50_storage"
      },
      {
        "astId": 111,
        "contract": "contracts/v1/UniverseRP.sol:UniverseRP",
        "label": "_owner",
        "offset": 0,
        "slot": "51",
        "type": "t_address"
      },
      {
        "astId": 230,
        "contract": "contracts/v1/UniverseRP.sol:UniverseRP",
        "label": "__gap",
        "offset": 0,
        "slot": "52",
        "type": "t_array(t_uint256)49_storage"
      },
      {
        "astId": 13905,
        "contract": "contracts/v1/UniverseRP.sol:UniverseRP",
        "label": "_chargedParticles",
        "offset": 0,
        "slot": "101",
        "type": "t_address"
      },
      {
        "astId": 13907,
        "contract": "contracts/v1/UniverseRP.sol:UniverseRP",
        "label": "_multiplierNft",
        "offset": 0,
        "slot": "102",
        "type": "t_address"
      },
      {
        "astId": 13911,
        "contract": "contracts/v1/UniverseRP.sol:UniverseRP",
        "label": "_assetRewardPrograms",
        "offset": 0,
        "slot": "103",
        "type": "t_mapping(t_address,t_address)"
      },
      {
        "astId": 13915,
        "contract": "contracts/v1/UniverseRP.sol:UniverseRP",
        "label": "_multiplierNftsSet",
        "offset": 0,
        "slot": "104",
        "type": "t_mapping(t_uint256,t_struct(UintSet)6144_storage)"
      },
      {
        "astId": 13919,
        "contract": "contracts/v1/UniverseRP.sol:UniverseRP",
        "label": "_nftStake",
        "offset": 0,
        "slot": "105",
        "type": "t_mapping(t_uint256,t_struct(NftStake)25795_storage)"
      }
    ],
    "types": {
      "t_address": {
        "encoding": "inplace",
        "label": "address",
        "numberOfBytes": "20"
      },
      "t_array(t_bytes32)dyn_storage": {
        "base": "t_bytes32",
        "encoding": "dynamic_array",
        "label": "bytes32[]",
        "numberOfBytes": "32"
      },
      "t_array(t_uint256)49_storage": {
        "base": "t_uint256",
        "encoding": "inplace",
        "label": "uint256[49]",
        "numberOfBytes": "1568"
      },
      "t_array(t_uint256)50_storage": {
        "base": "t_uint256",
        "encoding": "inplace",
        "label": "uint256[50]",
        "numberOfBytes": "1600"
      },
      "t_bool": {
        "encoding": "inplace",
        "label": "bool",
        "numberOfBytes": "1"
      },
      "t_bytes32": {
        "encoding": "inplace",
        "label": "bytes32",
        "numberOfBytes": "32"
      },
      "t_mapping(t_address,t_address)": {
        "encoding": "mapping",
        "key": "t_address",
        "label": "mapping(address => address)",
        "numberOfBytes": "32",
        "value": "t_address"
      },
      "t_mapping(t_bytes32,t_uint256)": {
        "encoding": "mapping",
        "key": "t_bytes32",
        "label": "mapping(bytes32 => uint256)",
        "numberOfBytes": "32",
        "value": "t_uint256"
      },
      "t_mapping(t_uint256,t_struct(NftStake)25795_storage)": {
        "encoding": "mapping",
        "key": "t_uint256",
        "label": "mapping(uint256 => struct IUniverseRP.NftStake)",
        "numberOfBytes": "32",
        "value": "t_struct(NftStake)25795_storage"
      },
      "t_mapping(t_uint256,t_struct(UintSet)6144_storage)": {
        "encoding": "mapping",
        "key": "t_uint256",
        "label": "mapping(uint256 => struct EnumerableSet.UintSet)",
        "numberOfBytes": "32",
        "value": "t_struct(UintSet)6144_storage"
      },
      "t_struct(NftStake)25795_storage": {
        "encoding": "inplace",
        "label": "struct IUniverseRP.NftStake",
        "members": [
          {
            "astId": 25790,
            "contract": "contracts/v1/UniverseRP.sol:UniverseRP",
            "label": "multiplier",
            "offset": 0,
            "slot": "0",
            "type": "t_uint256"
          },
          {
            "astId": 25792,
            "contract": "contracts/v1/UniverseRP.sol:UniverseRP",
            "label": "depositBlockNumber",
            "offset": 0,
            "slot": "1",
            "type": "t_uint256"
          },
          {
            "astId": 25794,
            "contract": "contracts/v1/UniverseRP.sol:UniverseRP",
            "label": "releaseBlockNumber",
            "offset": 0,
            "slot": "2",
            "type": "t_uint256"
          }
        ],
        "numberOfBytes": "96"
      },
      "t_struct(Set)5855_storage": {
        "encoding": "inplace",
        "label": "struct EnumerableSet.Set",
        "members": [
          {
            "astId": 5850,
            "contract": "contracts/v1/UniverseRP.sol:UniverseRP",
            "label": "_values",
            "offset": 0,
            "slot": "0",
            "type": "t_array(t_bytes32)dyn_storage"
          },
          {
            "astId": 5854,
            "contract": "contracts/v1/UniverseRP.sol:UniverseRP",
            "label": "_indexes",
            "offset": 0,
            "slot": "1",
            "type": "t_mapping(t_bytes32,t_uint256)"
          }
        ],
        "numberOfBytes": "64"
      },
      "t_struct(UintSet)6144_storage": {
        "encoding": "inplace",
        "label": "struct EnumerableSet.UintSet",
        "members": [
          {
            "astId": 6143,
            "contract": "contracts/v1/UniverseRP.sol:UniverseRP",
            "label": "_inner",
            "offset": 0,
            "slot": "0",
            "type": "t_struct(Set)5855_storage"
          }
        ],
        "numberOfBytes": "64"
      },
      "t_uint256": {
        "encoding": "inplace",
        "label": "uint256",
        "numberOfBytes": "32"
      }
    }
  }
}