{
  "_format": "hh-sol-artifact-1",
  "contractName": "GenericSmartWalletB",
  "sourceName": "contracts/v1/yield/generic/ERC20/GenericSmartWalletB.sol",
  "abi": [
    {
      "anonymous": false,
      "inputs": [
        {
          "indexed": true,
          "internalType": "address",
          "name": "receiver",
          "type": "address"
        },
        {
          "indexed": true,
          "internalType": "address",
          "name": "tokenAddress",
          "type": "address"
        },
        {
          "indexed": true,
          "internalType": "uint256",
          "name": "tokenId",
          "type": "uint256"
        },
        {
          "indexed": false,
          "internalType": "uint256",
          "name": "amount",
          "type": "uint256"
        }
      ],
      "name": "WithdrawStuckERC1155",
      "type": "event"
    },
    {
      "anonymous": false,
      "inputs": [
        {
          "indexed": true,
          "internalType": "address",
          "name": "receiver",
          "type": "address"
        },
        {
          "indexed": true,
          "internalType": "address",
          "name": "tokenAddress",
          "type": "address"
        },
        {
          "indexed": false,
          "internalType": "uint256",
          "name": "amount",
          "type": "uint256"
        }
      ],
      "name": "WithdrawStuckERC20",
      "type": "event"
    },
    {
      "anonymous": false,
      "inputs": [
        {
          "indexed": true,
          "internalType": "address",
          "name": "receiver",
          "type": "address"
        },
        {
          "indexed": true,
          "internalType": "address",
          "name": "tokenAddress",
          "type": "address"
        },
        {
          "indexed": true,
          "internalType": "uint256",
          "name": "tokenId",
          "type": "uint256"
        }
      ],
      "name": "WithdrawStuckERC721",
      "type": "event"
    },
    {
      "anonymous": false,
      "inputs": [
        {
          "indexed": true,
          "internalType": "address",
          "name": "receiver",
          "type": "address"
        },
        {
          "indexed": false,
          "internalType": "uint256",
          "name": "amount",
          "type": "uint256"
        }
      ],
      "name": "WithdrawStuckEther",
      "type": "event"
    },
    {
      "inputs": [
        {
          "internalType": "address",
          "name": "assetToken",
          "type": "address"
        },
        {
          "internalType": "uint256",
          "name": "assetAmount",
          "type": "uint256"
        },
        {
          "internalType": "uint256",
          "name": "",
          "type": "uint256"
        }
      ],
      "name": "deposit",
      "outputs": [
        {
          "internalType": "uint256",
          "name": "",
          "type": "uint256"
        }
      ],
      "stateMutability": "nonpayable",
      "type": "function"
    },
    {
      "inputs": [
        {
          "internalType": "address",
          "name": "contractAddress",
          "type": "address"
        },
        {
          "internalType": "uint256",
          "name": "ethValue",
          "type": "uint256"
        },
        {
          "internalType": "bytes",
          "name": "encodedParams",
          "type": "bytes"
        }
      ],
      "name": "executeForAccount",
      "outputs": [
        {
          "internalType": "bytes",
          "name": "",
          "type": "bytes"
        }
      ],
      "stateMutability": "nonpayable",
      "type": "function"
    },
    {
      "inputs": [
        {
          "internalType": "uint256",
          "name": "index",
          "type": "uint256"
        }
      ],
      "name": "getAssetTokenByIndex",
      "outputs": [
        {
          "internalType": "address",
          "name": "",
          "type": "address"
        }
      ],
      "stateMutability": "view",
      "type": "function"
    },
    {
      "inputs": [],
      "name": "getAssetTokenCount",
      "outputs": [
        {
          "internalType": "uint256",
          "name": "",
          "type": "uint256"
        }
      ],
      "stateMutability": "view",
      "type": "function"
    },
    {
      "inputs": [
        {
          "internalType": "address",
          "name": "",
          "type": "address"
        },
        {
          "internalType": "uint256",
          "name": "",
          "type": "uint256"
        }
      ],
      "name": "getInterest",
      "outputs": [
        {
          "internalType": "uint256",
          "name": "creatorInterest",
          "type": "uint256"
        },
        {
          "internalType": "uint256",
          "name": "ownerInterest",
          "type": "uint256"
        }
      ],
      "stateMutability": "nonpayable",
      "type": "function"
    },
    {
      "inputs": [
        {
          "internalType": "address",
          "name": "assetToken",
          "type": "address"
        }
      ],
      "name": "getPrincipal",
      "outputs": [
        {
          "internalType": "uint256",
          "name": "",
          "type": "uint256"
        }
      ],
      "stateMutability": "nonpayable",
      "type": "function"
    },
    {
      "inputs": [
        {
          "internalType": "address",
          "name": "assetToken",
          "type": "address"
        }
      ],
      "name": "getReserveInterestToken",
      "outputs": [
        {
          "internalType": "address",
          "name": "",
          "type": "address"
        }
      ],
      "stateMutability": "view",
      "type": "function"
    },
    {
      "inputs": [
        {
          "internalType": "address",
          "name": "assetToken",
          "type": "address"
        }
      ],
      "name": "getRewards",
      "outputs": [
        {
          "internalType": "uint256",
          "name": "",
          "type": "uint256"
        }
      ],
      "stateMutability": "nonpayable",
      "type": "function"
    },
    {
      "inputs": [
        {
          "internalType": "address",
          "name": "assetToken",
          "type": "address"
        }
      ],
      "name": "getTotal",
      "outputs": [
        {
          "internalType": "uint256",
          "name": "",
          "type": "uint256"
        }
      ],
      "stateMutability": "nonpayable",
      "type": "function"
    },
    {
      "inputs": [],
      "name": "initialize",
      "outputs": [],
      "stateMutability": "nonpayable",
      "type": "function"
    },
    {
      "inputs": [],
      "name": "initializeBase",
      "outputs": [],
      "stateMutability": "nonpayable",
      "type": "function"
    },
    {
      "inputs": [
        {
          "internalType": "address",
          "name": "assetToken",
          "type": "address"
        }
      ],
      "name": "isReserveActive",
      "outputs": [
        {
          "internalType": "bool",
          "name": "",
          "type": "bool"
        }
      ],
      "stateMutability": "view",
      "type": "function"
    },
    {
      "inputs": [
        {
          "internalType": "address",
          "name": "assetToken",
          "type": "address"
        }
      ],
      "name": "refreshPrincipal",
      "outputs": [],
      "stateMutability": "nonpayable",
      "type": "function"
    },
    {
      "inputs": [
        {
          "internalType": "address",
          "name": "receiver",
          "type": "address"
        },
        {
          "internalType": "address",
          "name": "",
          "type": "address"
        },
        {
          "internalType": "uint256",
          "name": "",
          "type": "uint256"
        },
        {
          "internalType": "address",
          "name": "assetToken",
          "type": "address"
        }
      ],
      "name": "withdraw",
      "outputs": [
        {
          "internalType": "uint256",
          "name": "creatorAmount",
          "type": "uint256"
        },
        {
          "internalType": "uint256",
          "name": "receiverAmount",
          "type": "uint256"
        }
      ],
      "stateMutability": "nonpayable",
      "type": "function"
    },
    {
      "inputs": [
        {
          "internalType": "address",
          "name": "receiver",
          "type": "address"
        },
        {
          "internalType": "address",
          "name": "",
          "type": "address"
        },
        {
          "internalType": "uint256",
          "name": "",
          "type": "uint256"
        },
        {
          "internalType": "address",
          "name": "assetToken",
          "type": "address"
        },
        {
          "internalType": "uint256",
          "name": "assetAmount",
          "type": "uint256"
        }
      ],
      "name": "withdrawAmount",
      "outputs": [
        {
          "internalType": "uint256",
          "name": "creatorAmount",
          "type": "uint256"
        },
        {
          "internalType": "uint256",
          "name": "receiverAmount",
          "type": "uint256"
        }
      ],
      "stateMutability": "nonpayable",
      "type": "function"
    },
    {
      "inputs": [
        {
          "internalType": "address",
          "name": "",
          "type": "address"
        },
        {
          "internalType": "uint256",
          "name": "",
          "type": "uint256"
        },
        {
          "internalType": "address",
          "name": "",
          "type": "address"
        },
        {
          "internalType": "uint256",
          "name": "",
          "type": "uint256"
        }
      ],
      "name": "withdrawAmountForCreator",
      "outputs": [
        {
          "internalType": "uint256",
          "name": "receiverAmount",
          "type": "uint256"
        }
      ],
      "stateMutability": "nonpayable",
      "type": "function"
    },
    {
      "inputs": [
        {
          "internalType": "address payable",
          "name": "receiver",
          "type": "address"
        },
        {
          "internalType": "address",
          "name": "tokenAddress",
          "type": "address"
        },
        {
          "internalType": "uint256",
          "name": "tokenId",
          "type": "uint256"
        },
        {
          "internalType": "uint256",
          "name": "amount",
          "type": "uint256"
        }
      ],
      "name": "withdrawERC1155",
      "outputs": [],
      "stateMutability": "nonpayable",
      "type": "function"
    },
    {
      "inputs": [
        {
          "internalType": "address payable",
          "name": "receiver",
          "type": "address"
        },
        {
          "internalType": "address",
          "name": "tokenAddress",
          "type": "address"
        },
        {
          "internalType": "uint256",
          "name": "amount",
          "type": "uint256"
        }
      ],
      "name": "withdrawERC20",
      "outputs": [],
      "stateMutability": "nonpayable",
      "type": "function"
    },
    {
      "inputs": [
        {
          "internalType": "address payable",
          "name": "receiver",
          "type": "address"
        },
        {
          "internalType": "address",
          "name": "tokenAddress",
          "type": "address"
        },
        {
          "internalType": "uint256",
          "name": "tokenId",
          "type": "uint256"
        }
      ],
      "name": "withdrawERC721",
      "outputs": [],
      "stateMutability": "nonpayable",
      "type": "function"
    },
    {
      "inputs": [
        {
          "internalType": "address payable",
          "name": "receiver",
          "type": "address"
        },
        {
          "internalType": "uint256",
          "name": "amount",
          "type": "uint256"
        }
      ],
      "name": "withdrawEther",
      "outputs": [],
      "stateMutability": "nonpayable",
      "type": "function"
    },
    {
      "inputs": [
        {
          "internalType": "address",
          "name": "receiver",
          "type": "address"
        },
        {
          "internalType": "address",
          "name": "rewardsTokenAddress",
          "type": "address"
        },
        {
          "internalType": "uint256",
          "name": "rewardsAmount",
          "type": "uint256"
        }
      ],
      "name": "withdrawRewards",
      "outputs": [
        {
          "internalType": "uint256",
          "name": "",
          "type": "uint256"
        }
      ],
      "stateMutability": "nonpayable",
      "type": "function"
    }
  ],
  "bytecode": "0x608060405234801561001057600080fd5b50612c96806100206000396000f3fe608060405234801561001057600080fd5b50600436106101375760003560e01c80638129fc1c116100b8578063b62e48111161007c578063b62e4811146107b7578063b744a85014610843578063c87f3c031461089b578063d6cf57e6146108a5578063ebb6dad81461090e578063f4fadc821461096657610137565b80638129fc1c1461050f578063883c042b14610519578063a0cc02e014610573578063a0edb48b146105e1578063a18ea08f1461065957610137565b80634b6b8150116100ff5780634b6b81501461034b578063522f68151461038f57806374ee6b62146103dd57806379ee54f71461045f5780637abdd2d1146104b757610137565b80630e917f761461013c5780630efe6a8b146101e55780631071dd99146102515780634025feb21461026f57806344004cc1146102dd575b600080fd5b6101c86004803603608081101561015257600080fd5b81019080803573ffffffffffffffffffffffffffffffffffffffff169060200190929190803573ffffffffffffffffffffffffffffffffffffffff16906020019092919080359060200190929190803573ffffffffffffffffffffffffffffffffffffffff169060200190929190505050610a19565b604051808381526020018281526020019250505060405180910390f35b61023b600480360360608110156101fb57600080fd5b81019080803573ffffffffffffffffffffffffffffffffffffffff1690602001909291908035906020019092919080359060200190929190505050610bb5565b6040518082815260200191505060405180910390f35b610259610d1d565b6040518082815260200191505060405180910390f35b6102db6004803603606081101561028557600080fd5b81019080803573ffffffffffffffffffffffffffffffffffffffff169060200190929190803573ffffffffffffffffffffffffffffffffffffffff16906020019092919080359060200190929190505050610d2e565b005b610349600480360360608110156102f357600080fd5b81019080803573ffffffffffffffffffffffffffffffffffffffff169060200190929190803573ffffffffffffffffffffffffffffffffffffffff16906020019092919080359060200190929190505050610dff565b005b61038d6004803603602081101561036157600080fd5b81019080803573ffffffffffffffffffffffffffffffffffffffff169060200190929190505050610ed0565b005b6103db600480360360408110156103a557600080fd5b81019080803573ffffffffffffffffffffffffffffffffffffffff16906020019092919080359060200190929190505050611079565b005b610449600480360360608110156103f357600080fd5b81019080803573ffffffffffffffffffffffffffffffffffffffff169060200190929190803573ffffffffffffffffffffffffffffffffffffffff16906020019092919080359060200190929190505050611148565b6040518082815260200191505060405180910390f35b6104a16004803603602081101561047557600080fd5b81019080803573ffffffffffffffffffffffffffffffffffffffff169060200190929190505050611369565b6040518082815260200191505060405180910390f35b6104f9600480360360208110156104cd57600080fd5b81019080803573ffffffffffffffffffffffffffffffffffffffff169060200190929190505050611414565b6040518082815260200191505060405180910390f35b610517611426565b005b61055b6004803603602081101561052f57600080fd5b81019080803573ffffffffffffffffffffffffffffffffffffffff169060200190929190505050611430565b60405180821515815260200191505060405180910390f35b6105b56004803603602081101561058957600080fd5b81019080803573ffffffffffffffffffffffffffffffffffffffff169060200190929190505050611444565b604051808273ffffffffffffffffffffffffffffffffffffffff16815260200191505060405180910390f35b610657600480360360808110156105f757600080fd5b81019080803573ffffffffffffffffffffffffffffffffffffffff169060200190929190803573ffffffffffffffffffffffffffffffffffffffff169060200190929190803590602001909291908035906020019092919050505061144e565b005b61073c6004803603606081101561066f57600080fd5b81019080803573ffffffffffffffffffffffffffffffffffffffff16906020019092919080359060200190929190803590602001906401000000008111156106b657600080fd5b8201836020820111156106c857600080fd5b803590602001918460018302840111640100000000831117156106ea57600080fd5b91908080601f016020809104026020016040519081016040528093929190818152602001838380828437600081840152601f19601f820116905080830192505050505050509192919290505050611521565b6040518080602001828103825283818151815260200191508051906020019080838360005b8381101561077c578082015181840152602081019050610761565b50505050905090810190601f1680156107a95780820380516001836020036101000a031916815260200191505b509250505060405180910390f35b61082d600480360360808110156107cd57600080fd5b81019080803573ffffffffffffffffffffffffffffffffffffffff16906020019092919080359060200190929190803573ffffffffffffffffffffffffffffffffffffffff16906020019092919080359060200190929190505050611755565b6040518082815260200191505060405180910390f35b61086f6004803603602081101561085957600080fd5b8101908080359060200190929190505050611824565b604051808273ffffffffffffffffffffffffffffffffffffffff16815260200191505060405180910390f35b6108a361185b565b005b6108f1600480360360408110156108bb57600080fd5b81019080803573ffffffffffffffffffffffffffffffffffffffff1690602001909291908035906020019092919050505061195f565b604051808381526020018281526020019250505060405180910390f35b6109506004803603602081101561092457600080fd5b81019080803573ffffffffffffffffffffffffffffffffffffffff169060200190929190505050611970565b6040518082815260200191505060405180910390f35b6109fc600480360360a081101561097c57600080fd5b81019080803573ffffffffffffffffffffffffffffffffffffffff169060200190929190803573ffffffffffffffffffffffffffffffffffffffff16906020019092919080359060200190929190803573ffffffffffffffffffffffffffffffffffffffff16906020019092919080359060200190929190505050611982565b604051808381526020018281526020019250505060405180910390f35b6000803373ffffffffffffffffffffffffffffffffffffffff1660008054906101000a900473ffffffffffffffffffffffffffffffffffffffff1673ffffffffffffffffffffffffffffffffffffffff1614610add576040517f08c379a00000000000000000000000000000000000000000000000000000000081526004018080602001828103825260098152602001807f5357423a452d313039000000000000000000000000000000000000000000000081525060200191505060405180910390fd5b60009150610aea83611b2a565b9050610b3e81600360008673ffffffffffffffffffffffffffffffffffffffff1673ffffffffffffffffffffffffffffffffffffffff16815260200190815260200160002054611b7390919063ffffffff16565b600360008573ffffffffffffffffffffffffffffffffffffffff1673ffffffffffffffffffffffffffffffffffffffff16815260200190815260200160002081905550610bac86828573ffffffffffffffffffffffffffffffffffffffff16611bbd9092919063ffffffff16565b94509492505050565b60003373ffffffffffffffffffffffffffffffffffffffff1660008054906101000a900473ffffffffffffffffffffffffffffffffffffffff1673ffffffffffffffffffffffffffffffffffffffff1614610c78576040517f08c379a00000000000000000000000000000000000000000000000000000000081526004018080602001828103825260098152602001807f5357423a452d313039000000000000000000000000000000000000000000000081525060200191505060405180910390fd5b610c8184611c5f565b610cd383600360008773ffffffffffffffffffffffffffffffffffffffff1673ffffffffffffffffffffffffffffffffffffffff16815260200190815260200160002054611c9090919063ffffffff16565b600360008673ffffffffffffffffffffffffffffffffffffffff1673ffffffffffffffffffffffffffffffffffffffff168152602001908152602001600020819055509392505050565b6000610d296001611d18565b905090565b3373ffffffffffffffffffffffffffffffffffffffff1660008054906101000a900473ffffffffffffffffffffffffffffffffffffffff1673ffffffffffffffffffffffffffffffffffffffff1614610def576040517f08c379a00000000000000000000000000000000000000000000000000000000081526004018080602001828103825260098152602001807f5357423a452d313039000000000000000000000000000000000000000000000081525060200191505060405180910390fd5b610dfa838383611d2d565b505050565b3373ffffffffffffffffffffffffffffffffffffffff1660008054906101000a900473ffffffffffffffffffffffffffffffffffffffff1673ffffffffffffffffffffffffffffffffffffffff1614610ec0576040517f08c379a00000000000000000000000000000000000000000000000000000000081526004018080602001828103825260098152602001807f5357423a452d313039000000000000000000000000000000000000000000000081525060200191505060405180910390fd5b610ecb838383611f97565b505050565b3373ffffffffffffffffffffffffffffffffffffffff1660008054906101000a900473ffffffffffffffffffffffffffffffffffffffff1673ffffffffffffffffffffffffffffffffffffffff1614610f91576040517f08c379a00000000000000000000000000000000000000000000000000000000081526004018080602001828103825260098152602001807f5357423a452d313039000000000000000000000000000000000000000000000081525060200191505060405180910390fd5b8073ffffffffffffffffffffffffffffffffffffffff166370a08231306040518263ffffffff1660e01b8152600401808273ffffffffffffffffffffffffffffffffffffffff16815260200191505060206040518083038186803b158015610ff857600080fd5b505afa15801561100c573d6000803e3d6000fd5b505050506040513d602081101561102257600080fd5b8101908080519060200190929190505050600360008373ffffffffffffffffffffffffffffffffffffffff1673ffffffffffffffffffffffffffffffffffffffff1681526020019081526020016000208190555050565b3373ffffffffffffffffffffffffffffffffffffffff1660008054906101000a900473ffffffffffffffffffffffffffffffffffffffff1673ffffffffffffffffffffffffffffffffffffffff161461113a576040517f08c379a00000000000000000000000000000000000000000000000000000000081526004018080602001828103825260098152602001807f5357423a452d313039000000000000000000000000000000000000000000000081525060200191505060405180910390fd5b6111448282612178565b5050565b60003373ffffffffffffffffffffffffffffffffffffffff1660008054906101000a900473ffffffffffffffffffffffffffffffffffffffff1673ffffffffffffffffffffffffffffffffffffffff161461120b576040517f08c379a00000000000000000000000000000000000000000000000000000000081526004018080602001828103825260098152602001807f5357423a452d313039000000000000000000000000000000000000000000000081525060200191505060405180910390fd5b6000309050600084905060008173ffffffffffffffffffffffffffffffffffffffff166370a08231846040518263ffffffff1660e01b8152600401808273ffffffffffffffffffffffffffffffffffffffff16815260200191505060206040518083038186803b15801561127e57600080fd5b505afa158015611292573d6000803e3d6000fd5b505050506040513d60208110156112a857600080fd5b8101908080519060200190929190505050905084811015611331576040517f08c379a00000000000000000000000000000000000000000000000000000000081526004018080602001828103825260098152602001807f4753573a452d343131000000000000000000000000000000000000000000000081525060200191505060405180910390fd5b61135c87868473ffffffffffffffffffffffffffffffffffffffff16611bbd9092919063ffffffff16565b8493505050509392505050565b60008173ffffffffffffffffffffffffffffffffffffffff166370a08231306040518263ffffffff1660e01b8152600401808273ffffffffffffffffffffffffffffffffffffffff16815260200191505060206040518083038186803b1580156113d257600080fd5b505afa1580156113e6573d6000803e3d6000fd5b505050506040513d60208110156113fc57600080fd5b81019080805190602001909291905050509050919050565b600061141f82611b2a565b9050919050565b61142e61185b565b565b60008061143c83611b2a565b149050919050565b6000819050919050565b3373ffffffffffffffffffffffffffffffffffffffff1660008054906101000a900473ffffffffffffffffffffffffffffffffffffffff1673ffffffffffffffffffffffffffffffffffffffff161461150f576040517f08c379a00000000000000000000000000000000000000000000000000000000081526004018080602001828103825260098152602001807f5357423a452d313039000000000000000000000000000000000000000000000081525060200191505060405180910390fd5b61151b8484848461229d565b50505050565b60603373ffffffffffffffffffffffffffffffffffffffff1660008054906101000a900473ffffffffffffffffffffffffffffffffffffffff1673ffffffffffffffffffffffffffffffffffffffff16146115e4576040517f08c379a00000000000000000000000000000000000000000000000000000000081526004018080602001828103825260098152602001807f5357423a452d313039000000000000000000000000000000000000000000000081525060200191505060405180910390fd5b600060608573ffffffffffffffffffffffffffffffffffffffff1685856040518082805190602001908083835b602083106116345780518252602082019150602081019050602083039250611611565b6001836020036101000a03801982511681845116808217855250505050505090500191505060006040518083038185875af1925050503d8060008114611696576040519150601f19603f3d011682016040523d82523d6000602084013e61169b565b606091505b5091509150818190611748576040517f08c379a00000000000000000000000000000000000000000000000000000000081526004018080602001828103825283818151815260200191508051906020019080838360005b8381101561170d5780820151818401526020810190506116f2565b50505050905090810190601f16801561173a5780820380516001836020036101000a031916815260200191505b509250505060405180910390fd5b5080925050509392505050565b60003373ffffffffffffffffffffffffffffffffffffffff1660008054906101000a900473ffffffffffffffffffffffffffffffffffffffff1673ffffffffffffffffffffffffffffffffffffffff1614611818576040517f08c379a00000000000000000000000000000000000000000000000000000000081526004018080602001828103825260098152602001807f5357423a452d313039000000000000000000000000000000000000000000000081525060200191505060405180910390fd5b60009050949350505050565b60006118306001611d18565b821061183f5760009050611856565b61185382600161251f90919063ffffffff16565b90505b919050565b600073ffffffffffffffffffffffffffffffffffffffff1660008054906101000a900473ffffffffffffffffffffffffffffffffffffffff1673ffffffffffffffffffffffffffffffffffffffff161461191d576040517f08c379a00000000000000000000000000000000000000000000000000000000081526004018080602001828103825260098152602001807f5357423a452d303032000000000000000000000000000000000000000000000081525060200191505060405180910390fd5b336000806101000a81548173ffffffffffffffffffffffffffffffffffffffff021916908373ffffffffffffffffffffffffffffffffffffffff160217905550565b600080600080915091509250929050565b600061197b82611b2a565b9050919050565b6000803373ffffffffffffffffffffffffffffffffffffffff1660008054906101000a900473ffffffffffffffffffffffffffffffffffffffff1673ffffffffffffffffffffffffffffffffffffffff1614611a46576040517f08c379a00000000000000000000000000000000000000000000000000000000081526004018080602001828103825260098152602001807f5357423a452d313039000000000000000000000000000000000000000000000081525060200191505060405180910390fd5b60009150611a5384611b2a565b9050828110611a60578290505b611ab281600360008773ffffffffffffffffffffffffffffffffffffffff1673ffffffffffffffffffffffffffffffffffffffff16815260200190815260200160002054611b7390919063ffffffff16565b600360008673ffffffffffffffffffffffffffffffffffffffff1673ffffffffffffffffffffffffffffffffffffffff16815260200190815260200160002081905550611b2087828673ffffffffffffffffffffffffffffffffffffffff16611bbd9092919063ffffffff16565b9550959350505050565b6000600360008373ffffffffffffffffffffffffffffffffffffffff1673ffffffffffffffffffffffffffffffffffffffff168152602001908152602001600020549050919050565b6000611bb583836040518060400160405280601e81526020017f536166654d6174683a207375627472616374696f6e206f766572666c6f770000815250612539565b905092915050565b611c5a8363a9059cbb60e01b8484604051602401808373ffffffffffffffffffffffffffffffffffffffff16815260200182815260200192505050604051602081830303815290604052907bffffffffffffffffffffffffffffffffffffffffffffffffffffffff19166020820180517bffffffffffffffffffffffffffffffffffffffffffffffffffffffff83818316178352505050506125f9565b505050565b611c738160016126e890919063ffffffff16565b611c8d57611c8b81600161271890919063ffffffff16565b505b50565b600080828401905083811015611d0e576040517f08c379a000000000000000000000000000000000000000000000000000000000815260040180806020018281038252601b8152602001807f536166654d6174683a206164646974696f6e206f766572666c6f77000000000081525060200191505060405180910390fd5b8091505092915050565b6000611d2682600001612748565b9050919050565b600073ffffffffffffffffffffffffffffffffffffffff168373ffffffffffffffffffffffffffffffffffffffff161415611dd0576040517f08c379a00000000000000000000000000000000000000000000000000000000081526004018080602001828103825260098152602001807f4248503a452d343033000000000000000000000000000000000000000000000081525060200191505060405180910390fd5b3073ffffffffffffffffffffffffffffffffffffffff168273ffffffffffffffffffffffffffffffffffffffff16636352211e836040518263ffffffff1660e01b81526004018082815260200191505060206040518083038186803b158015611e3857600080fd5b505afa158015611e4c573d6000803e3d6000fd5b505050506040513d6020811015611e6257600080fd5b810190808051906020019092919050505073ffffffffffffffffffffffffffffffffffffffff161415611f92578173ffffffffffffffffffffffffffffffffffffffff166323b872dd3085846040518463ffffffff1660e01b8152600401808473ffffffffffffffffffffffffffffffffffffffff1681526020018373ffffffffffffffffffffffffffffffffffffffff1681526020018281526020019350505050600060405180830381600087803b158015611f1e57600080fd5b505af1158015611f32573d6000803e3d6000fd5b50505050808273ffffffffffffffffffffffffffffffffffffffff168473ffffffffffffffffffffffffffffffffffffffff167ffefe036cac4ee3a4aca074a81cbcc4376e1484693289078dbec149c890101d5b60405160405180910390a45b505050565b600073ffffffffffffffffffffffffffffffffffffffff168373ffffffffffffffffffffffffffffffffffffffff16141561203a576040517f08c379a00000000000000000000000000000000000000000000000000000000081526004018080602001828103825260098152602001807f4248503a452d343033000000000000000000000000000000000000000000000081525060200191505060405180910390fd5b808273ffffffffffffffffffffffffffffffffffffffff166370a08231306040518263ffffffff1660e01b8152600401808273ffffffffffffffffffffffffffffffffffffffff16815260200191505060206040518083038186803b1580156120a257600080fd5b505afa1580156120b6573d6000803e3d6000fd5b505050506040513d60208110156120cc57600080fd5b8101908080519060200190929190505050106121735761210d83828473ffffffffffffffffffffffffffffffffffffffff16611bbd9092919063ffffffff16565b8173ffffffffffffffffffffffffffffffffffffffff168373ffffffffffffffffffffffffffffffffffffffff167f6c9d637297625e945b296ff73a71fcfbd0a9e062652b6491a921c4c60194176b836040518082815260200191505060405180910390a35b505050565b600073ffffffffffffffffffffffffffffffffffffffff168273ffffffffffffffffffffffffffffffffffffffff16141561221b576040517f08c379a00000000000000000000000000000000000000000000000000000000081526004018080602001828103825260098152602001807f4248503a452d343033000000000000000000000000000000000000000000000081525060200191505060405180910390fd5b8047106122995761224b818373ffffffffffffffffffffffffffffffffffffffff1661275990919063ffffffff16565b8173ffffffffffffffffffffffffffffffffffffffff167eddb683bb45cd5d0ad8a200c6fae7152b1c236ee90a4a37db692407f5cc38bd826040518082815260200191505060405180910390a25b5050565b600073ffffffffffffffffffffffffffffffffffffffff168473ffffffffffffffffffffffffffffffffffffffff161415612340576040517f08c379a00000000000000000000000000000000000000000000000000000000081526004018080602001828103825260098152602001807f4248503a452d343033000000000000000000000000000000000000000000000081525060200191505060405180910390fd5b808373ffffffffffffffffffffffffffffffffffffffff1662fdd58e30856040518363ffffffff1660e01b8152600401808373ffffffffffffffffffffffffffffffffffffffff1681526020018281526020019250505060206040518083038186803b1580156123af57600080fd5b505afa1580156123c3573d6000803e3d6000fd5b505050506040513d60208110156123d957600080fd5b810190808051906020019092919050505010612519578273ffffffffffffffffffffffffffffffffffffffff1663f242432a308685856040518563ffffffff1660e01b8152600401808573ffffffffffffffffffffffffffffffffffffffff1681526020018473ffffffffffffffffffffffffffffffffffffffff1681526020018381526020018281526020018060200182810382526000815260200160200195505050505050600060405180830381600087803b15801561249a57600080fd5b505af11580156124ae573d6000803e3d6000fd5b50505050818373ffffffffffffffffffffffffffffffffffffffff168573ffffffffffffffffffffffffffffffffffffffff167f620337bf89eea2b9ae2657beead83b5fa620452817118348aff96e201d52598b846040518082815260200191505060405180910390a45b50505050565b600061252e8360000183612893565b60001c905092915050565b60008383111582906125e6576040517f08c379a00000000000000000000000000000000000000000000000000000000081526004018080602001828103825283818151815260200191508051906020019080838360005b838110156125ab578082015181840152602081019050612590565b50505050905090810190601f1680156125d85780820380516001836020036101000a031916815260200191505b509250505060405180910390fd5b5060008385039050809150509392505050565b606061265b826040518060400160405280602081526020017f5361666545524332303a206c6f772d6c6576656c2063616c6c206661696c65648152508573ffffffffffffffffffffffffffffffffffffffff166129169092919063ffffffff16565b90506000815111156126e35780806020019051602081101561267c57600080fd5b81019080805190602001909291905050506126e2576040517f08c379a000000000000000000000000000000000000000000000000000000000815260040180806020018281038252602a815260200180612c37602a913960400191505060405180910390fd5b5b505050565b6000612710836000018373ffffffffffffffffffffffffffffffffffffffff1660001b61292e565b905092915050565b6000612740836000018373ffffffffffffffffffffffffffffffffffffffff1660001b612951565b905092915050565b600081600001805490509050919050565b804710156127cf576040517f08c379a000000000000000000000000000000000000000000000000000000000815260040180806020018281038252601d8152602001807f416464726573733a20696e73756666696369656e742062616c616e636500000081525060200191505060405180910390fd5b60008273ffffffffffffffffffffffffffffffffffffffff168260405180600001905060006040518083038185875af1925050503d806000811461282f576040519150601f19603f3d011682016040523d82523d6000602084013e612834565b606091505b505090508061288e576040517f08c379a000000000000000000000000000000000000000000000000000000000815260040180806020018281038252603a815260200180612bfd603a913960400191505060405180910390fd5b505050565b6000818360000180549050116128f4576040517f08c379a0000000000000000000000000000000000000000000000000000000008152600401808060200182810382526022815260200180612bdb6022913960400191505060405180910390fd5b82600001828154811061290357fe5b9060005260206000200154905092915050565b606061292584846000856129c1565b90509392505050565b600080836001016000848152602001908152602001600020541415905092915050565b600061295d838361292e565b6129b65782600001829080600181540180825580915050600190039060005260206000200160009091909190915055826000018054905083600101600084815260200190815260200160002081905550600190506129bb565b600090505b92915050565b60606129cc85612bc7565b612a3e576040517f08c379a000000000000000000000000000000000000000000000000000000000815260040180806020018281038252601d8152602001807f416464726573733a2063616c6c20746f206e6f6e2d636f6e747261637400000081525060200191505060405180910390fd5b600060608673ffffffffffffffffffffffffffffffffffffffff1685876040518082805190602001908083835b60208310612a8e5780518252602082019150602081019050602083039250612a6b565b6001836020036101000a03801982511681845116808217855250505050505090500191505060006040518083038185875af1925050503d8060008114612af0576040519150601f19603f3d011682016040523d82523d6000602084013e612af5565b606091505b50915091508115612b0a578092505050612bbf565b600081511115612b1d5780518082602001fd5b836040517f08c379a00000000000000000000000000000000000000000000000000000000081526004018080602001828103825283818151815260200191508051906020019080838360005b83811015612b84578082015181840152602081019050612b69565b50505050905090810190601f168015612bb15780820380516001836020036101000a031916815260200191505b509250505060405180910390fd5b949350505050565b600080823b90506000811191505091905056fe456e756d657261626c655365743a20696e646578206f7574206f6620626f756e6473416464726573733a20756e61626c6520746f2073656e642076616c75652c20726563697069656e74206d617920686176652072657665727465645361666545524332303a204552433230206f7065726174696f6e20646964206e6f742073756363656564a2646970667358221220e55947412ff8c6c03a349a78f83f550463a77038458180f7ea0c2ab95ebc95e464736f6c634300060c0033",
  "linkReferences": {},
  "deployedLinkReferences": {}
}