{
  "_format": "hh-sol-artifact-1",
  "contractName": "DoppelgangerWithExec",
  "sourceName": "contracts/v1/test/DoppelgangerWithExec.sol",
  "abi": [
    {
      "stateMutability": "payable",
      "type": "fallback"
    },
    {
      "inputs": [
        {
          "internalType": "address",
          "name": "target",
          "type": "address"
        },
        {
          "internalType": "bytes",
          "name": "data",
          "type": "bytes"
        }
      ],
      "name": "__waffle__call",
      "outputs": [
        {
          "internalType": "bytes",
          "name": "",
          "type": "bytes"
        }
      ],
      "stateMutability": "nonpayable",
      "type": "function"
    },
    {
      "inputs": [
        {
          "internalType": "bytes",
          "name": "data",
          "type": "bytes"
        },
        {
          "internalType": "bytes",
          "name": "value",
          "type": "bytes"
        }
      ],
      "name": "__waffle__mockReturns",
      "outputs": [],
      "stateMutability": "nonpayable",
      "type": "function"
    },
    {
      "inputs": [
        {
          "internalType": "bytes",
          "name": "data",
          "type": "bytes"
        }
      ],
      "name": "__waffle__mockReverts",
      "outputs": [],
      "stateMutability": "nonpayable",
      "type": "function"
    },
    {
      "inputs": [
        {
          "internalType": "address",
          "name": "target",
          "type": "address"
        },
        {
          "internalType": "bytes",
          "name": "data",
          "type": "bytes"
        }
      ],
      "name": "__waffle__staticcall",
      "outputs": [
        {
          "internalType": "bytes",
          "name": "",
          "type": "bytes"
        }
      ],
      "stateMutability": "view",
      "type": "function"
    },
    {
      "stateMutability": "payable",
      "type": "receive"
    }
  ],
  "bytecode": "0x608060405234801561001057600080fd5b50610bf0806100206000396000f3fe6080604052600436106100435760003560e01c8063ad92410d1461012b578063d80225191461028a578063df37701314610352578063e8fcd32c146104715761004a565b3661004a57005b6000610054610590565b9050600115158160000160019054906101000a900460ff16151514156100825761007c6106da565b50610129565b610127816001018054600181600116156101000203166002900480601f01602080910402602001604051908101604052809291908181526020018280546001816001161561010002031660029004801561011d5780601f106100f25761010080835404028352916020019161011d565b820191906000526020600020905b81548152906001019060200180831161010057829003601f168201915b5050505050610748565b505b005b34801561013757600080fd5b506102886004803603604081101561014e57600080fd5b810190808035906020019064010000000081111561016b57600080fd5b82018360208201111561017d57600080fd5b8035906020019184600183028401116401000000008311171561019f57600080fd5b91908080601f016020809104026020016040519081016040528093929190818152602001838380828437600081840152601f19601f8201169050808301925050505050505091929192908035906020019064010000000081111561020257600080fd5b82018360208201111561021457600080fd5b8035906020019184600183028401116401000000008311171561023657600080fd5b91908080601f016020809104026020016040519081016040528093929190818152602001838380828437600081840152601f19601f820116905080830192505050505050509192919290505050610750565b005b34801561029657600080fd5b50610350600480360360208110156102ad57600080fd5b81019080803590602001906401000000008111156102ca57600080fd5b8201836020820111156102dc57600080fd5b803590602001918460018302840111640100000000831117156102fe57600080fd5b91908080601f016020809104026020016040519081016040528093929190818152602001838380828437600081840152601f19601f8201169050808301925050505050505091929192905050506107ee565b005b34801561035e57600080fd5b506103f66004803603604081101561037557600080fd5b81019080803573ffffffffffffffffffffffffffffffffffffffff169060200190929190803590602001906401000000008111156103b257600080fd5b8201836020820111156103c457600080fd5b803590602001918460018302840111640100000000831117156103e657600080fd5b909192939192939050505061089a565b6040518080602001828103825283818151815260200191508051906020019080838360005b8381101561043657808201518184015260208101905061041b565b50505050905090810190601f1680156104635780820380516001836020036101000a031916815260200191505b509250505060405180910390f35b34801561047d57600080fd5b506105156004803603604081101561049457600080fd5b81019080803573ffffffffffffffffffffffffffffffffffffffff169060200190929190803590602001906401000000008111156104d157600080fd5b8201836020820111156104e357600080fd5b8035906020019184600183028401116401000000008311171561050557600080fd5b90919293919293905050506109c8565b6040518080602001828103825283818151815260200191508051906020019080838360005b8381101561055557808201518184015260208101905061053a565b50505050905090810190601f1680156105825780820380516001836020036101000a031916815260200191505b509250505060405180910390f35b60008060008036604051808383808284378083019250505092505050604051809103902081526020019081526020016000209050600115158160000160009054906101000a900460ff16151514156105e7576106d7565b60008080357fffffffff000000000000000000000000000000000000000000000000000000001660405160200180827bffffffffffffffffffffffffffffffffffffffffffffffffffffffff191681526004019150506040516020818303038152906040528051906020012081526020019081526020016000209050600115158160000160009054906101000a900460ff1615151415610686576106d7565b6040517f08c379a0000000000000000000000000000000000000000000000000000000008152600401808060200182810382526025815260200180610b966025913960400191505060405180910390fd5b90565b6040517f08c379a000000000000000000000000000000000000000000000000000000000815260040180806020018281038252600b8152602001807f4d6f636b2072657665727400000000000000000000000000000000000000000081525060200191505060405180910390fd5b805160208201f35b6040518060600160405280600115158152602001600015158152602001828152506000808480519060200120815260200190815260200160002060008201518160000160006101000a81548160ff02191690831515021790555060208201518160000160016101000a81548160ff02191690831515021790555060408201518160010190805190602001906107e6929190610af8565b509050505050565b6040518060600160405280600115158152602001600115158152602001604051806020016040528060008152508152506000808380519060200120815260200190815260200160002060008201518160000160006101000a81548160ff02191690831515021790555060208201518160000160016101000a81548160ff0219169083151502179055506040820151816001019080519060200190610893929190610af8565b5090505050565b6060600060608573ffffffffffffffffffffffffffffffffffffffff168585604051808383808284378083019250505092505050600060405180830381855afa9150503d8060008114610909576040519150601f19603f3d011682016040523d82523d6000602084013e61090e565b606091505b50915091508181906109bb576040517f08c379a00000000000000000000000000000000000000000000000000000000081526004018080602001828103825283818151815260200191508051906020019080838360005b83811015610980578082015181840152602081019050610965565b50505050905090810190601f1680156109ad5780820380516001836020036101000a031916815260200191505b509250505060405180910390fd5b5080925050509392505050565b6060600060608573ffffffffffffffffffffffffffffffffffffffff1685856040518083838082843780830192505050925050506000604051808303816000865af19150503d8060008114610a39576040519150601f19603f3d011682016040523d82523d6000602084013e610a3e565b606091505b5091509150818190610aeb576040517f08c379a00000000000000000000000000000000000000000000000000000000081526004018080602001828103825283818151815260200191508051906020019080838360005b83811015610ab0578082015181840152602081019050610a95565b50505050905090810190601f168015610add5780820380516001836020036101000a031916815260200191505b509250505060405180910390fd5b5080925050509392505050565b828054600181600116156101000203166002900490600052602060002090601f016020900481019282601f10610b3957805160ff1916838001178555610b67565b82800160010185558215610b67579182015b82811115610b66578251825591602001919060010190610b4b565b5b509050610b749190610b78565b5090565b5b80821115610b91576000816000905550600101610b79565b509056fe4d6f636b206f6e20746865206d6574686f64206973206e6f7420696e697469616c697a6564a2646970667358221220808820ae5923e23ee18a5359e46a73cc0d2a795423c1d8f5f15a8fd865536bf464736f6c634300060c0033",
  "linkReferences": {},
  "deployedLinkReferences": {}
}