{
  "_format": "hh-sol-artifact-1",
  "contractName": "ChargedParticles",
  "sourceName": "contracts/ChargedParticles.sol",
  "abi": [
    {
      "inputs": [],
      "name": "IMPLMENTATION",
      "outputs": [
        {
          "internalType": "address",
          "name": "",
          "type": "address"
        }
      ],
      "stateMutability": "view",
      "type": "function"
    },
    {
      "inputs": [],
      "name": "REGISTRY",
      "outputs": [
        {
          "internalType": "address",
          "name": "",
          "type": "address"
        }
      ],
      "stateMutability": "view",
      "type": "function"
    },
    {
      "inputs": [
        {
          "internalType": "address",
          "name": "contractAddress",
          "type": "address"
        },
        {
          "internalType": "uint256",
          "name": "tokenId",
          "type": "uint256"
        }
      ],
      "name": "account",
      "outputs": [
        {
          "internalType": "address",
          "name": "",
          "type": "address"
        }
      ],
      "stateMutability": "view",
      "type": "function"
    },
    {
      "inputs": [
        {
          "internalType": "address",
          "name": "receiver",
          "type": "address"
        },
        {
          "internalType": "address",
          "name": "contractAddress",
          "type": "address"
        },
        {
          "internalType": "uint256",
          "name": "tokenId",
          "type": "uint256"
        },
        {
          "internalType": "string",
          "name": "basketManagerId",
          "type": "string"
        },
        {
          "internalType": "address",
          "name": "nftTokenAddress",
          "type": "address"
        },
        {
          "internalType": "uint256",
          "name": "nftTokenId",
          "type": "uint256"
        },
        {
          "internalType": "uint256",
          "name": "nftTokenAmount",
          "type": "uint256"
        }
      ],
      "name": "breakCovalentBond",
      "outputs": [
        {
          "internalType": "bool",
          "name": "success",
          "type": "bool"
        }
      ],
      "stateMutability": "nonpayable",
      "type": "function"
    },
    {
      "inputs": [
        {
          "internalType": "address",
          "name": "contractAddress",
          "type": "address"
        },
        {
          "internalType": "uint256",
          "name": "tokenId",
          "type": "uint256"
        },
        {
          "internalType": "string",
          "name": "basketManagerId",
          "type": "string"
        },
        {
          "internalType": "address",
          "name": "nftTokenAddress",
          "type": "address"
        },
        {
          "internalType": "uint256",
          "name": "nftTokenId",
          "type": "uint256"
        },
        {
          "internalType": "uint256",
          "name": "nftTokenAmount",
          "type": "uint256"
        }
      ],
      "name": "covalentBond",
      "outputs": [
        {
          "internalType": "bool",
          "name": "success",
          "type": "bool"
        }
      ],
      "stateMutability": "nonpayable",
      "type": "function"
    },
    {
      "inputs": [
        {
          "internalType": "address",
          "name": "contractAddress",
          "type": "address"
        },
        {
          "internalType": "uint256",
          "name": "tokenId",
          "type": "uint256"
        }
      ],
      "name": "createAccount",
      "outputs": [
        {
          "internalType": "address",
          "name": "",
          "type": "address"
        }
      ],
      "stateMutability": "nonpayable",
      "type": "function"
    },
    {
      "inputs": [
        {
          "internalType": "address",
          "name": "receiver",
          "type": "address"
        },
        {
          "internalType": "address",
          "name": "contractAddress",
          "type": "address"
        },
        {
          "internalType": "uint256",
          "name": "tokenId",
          "type": "uint256"
        },
        {
          "internalType": "string",
          "name": "walletManagerId",
          "type": "string"
        },
        {
          "internalType": "address",
          "name": "assetToken",
          "type": "address"
        }
      ],
      "name": "dischargeParticle",
      "outputs": [
        {
          "internalType": "uint256",
          "name": "creatorAmount",
          "type": "uint256"
        },
        {
          "internalType": "uint256",
          "name": "receiverAmount",
          "type": "uint256"
        }
      ],
      "stateMutability": "nonpayable",
      "type": "function"
    },
    {
      "inputs": [
        {
          "internalType": "address",
          "name": "receiver",
          "type": "address"
        },
        {
          "internalType": "address",
          "name": "contractAddress",
          "type": "address"
        },
        {
          "internalType": "uint256",
          "name": "tokenId",
          "type": "uint256"
        },
        {
          "internalType": "string",
          "name": "walletManagerId",
          "type": "string"
        },
        {
          "internalType": "address",
          "name": "assetToken",
          "type": "address"
        },
        {
          "internalType": "uint256",
          "name": "assetAmount",
          "type": "uint256"
        }
      ],
      "name": "dischargeParticleAmount",
      "outputs": [
        {
          "internalType": "uint256",
          "name": "creatorAmount",
          "type": "uint256"
        },
        {
          "internalType": "uint256",
          "name": "receiverAmount",
          "type": "uint256"
        }
      ],
      "stateMutability": "nonpayable",
      "type": "function"
    },
    {
      "inputs": [
        {
          "internalType": "address",
          "name": "receiver",
          "type": "address"
        },
        {
          "internalType": "address",
          "name": "contractAddress",
          "type": "address"
        },
        {
          "internalType": "uint256",
          "name": "tokenId",
          "type": "uint256"
        },
        {
          "internalType": "string",
          "name": "walletManagerId",
          "type": "string"
        },
        {
          "internalType": "address",
          "name": "assetToken",
          "type": "address"
        },
        {
          "internalType": "uint256",
          "name": "assetAmount",
          "type": "uint256"
        }
      ],
      "name": "dischargeParticleForCreator",
      "outputs": [
        {
          "internalType": "uint256",
          "name": "receiverAmount",
          "type": "uint256"
        }
      ],
      "stateMutability": "nonpayable",
      "type": "function"
    },
    {
      "inputs": [
        {
          "internalType": "address",
          "name": "contractAddress",
          "type": "address"
        },
        {
          "internalType": "uint256",
          "name": "tokenId",
          "type": "uint256"
        },
        {
          "internalType": "string",
          "name": "walletManagerId",
          "type": "string"
        },
        {
          "internalType": "address",
          "name": "assetToken",
          "type": "address"
        },
        {
          "internalType": "uint256",
          "name": "assetAmount",
          "type": "uint256"
        },
        {
          "internalType": "address",
          "name": "referrer",
          "type": "address"
        }
      ],
      "name": "energizeParticle",
      "outputs": [
        {
          "internalType": "uint256",
          "name": "yieldTokensAmount",
          "type": "uint256"
        }
      ],
      "stateMutability": "nonpayable",
      "type": "function"
    },
    {
      "inputs": [
        {
          "internalType": "address",
          "name": "receiver",
          "type": "address"
        },
        {
          "internalType": "address",
          "name": "contractAddress",
          "type": "address"
        },
        {
          "internalType": "uint256",
          "name": "tokenId",
          "type": "uint256"
        },
        {
          "internalType": "string",
          "name": "walletManagerId",
          "type": "string"
        },
        {
          "internalType": "address",
          "name": "assetToken",
          "type": "address"
        }
      ],
      "name": "releaseParticle",
      "outputs": [
        {
          "internalType": "uint256",
          "name": "creatorAmount",
          "type": "uint256"
        },
        {
          "internalType": "uint256",
          "name": "receiverAmount",
          "type": "uint256"
        }
      ],
      "stateMutability": "nonpayable",
      "type": "function"
    },
    {
      "inputs": [
        {
          "internalType": "address",
          "name": "receiver",
          "type": "address"
        },
        {
          "internalType": "address",
          "name": "contractAddress",
          "type": "address"
        },
        {
          "internalType": "uint256",
          "name": "tokenId",
          "type": "uint256"
        },
        {
          "internalType": "string",
          "name": "walletManagerId",
          "type": "string"
        },
        {
          "internalType": "address",
          "name": "assetToken",
          "type": "address"
        },
        {
          "internalType": "uint256",
          "name": "assetAmount",
          "type": "uint256"
        }
      ],
      "name": "releaseParticleAmount",
      "outputs": [
        {
          "internalType": "uint256",
          "name": "creatorAmount",
          "type": "uint256"
        },
        {
          "internalType": "uint256",
          "name": "receiverAmount",
          "type": "uint256"
        }
      ],
      "stateMutability": "nonpayable",
      "type": "function"
    }
  ],
  "bytecode": "0x608060405234801561001057600080fd5b50610841806100206000396000f3fe608060405234801561001057600080fd5b50600436106100b45760003560e01c806365d20ce21161007157806365d20ce2146101945780636697b359146101a25780637fdfc7b2146101bf578063a8abef47146101a2578063acab923c14610163578063fe02fb00146101da57600080fd5b806306433b1b146100b95780630bdde2ca146100f1578063192df6551461011a5780633ff956cc1461012d5780635fbfb9cf14610150578063621a3b7014610163575b600080fd5b6100d47302101dfb77fde026414827fdc604ddaf224f092181565b6040516001600160a01b0390911681526020015b60405180910390f35b61010c6100ff366004610500565b6000979650505050505050565b6040519081526020016100e8565b6100d4610128366004610590565b6101f6565b61014061013b3660046105bc565b6102aa565b60405190151581526020016100e8565b6100d461015e366004610590565b61039d565b61017f610171366004610642565b600080965096945050505050565b604080519283526020830191909152016100e8565b61010c6100ff3660046106c7565b61017f6101b03660046106c7565b60008097509795505050505050565b6100d4732d25602551487c3f3354dd80d76d54383a24335881565b6101406101e8366004610757565b600098975050505050505050565b604051632f4de29b60e11b8152732d25602551487c3f3354dd80d76d54383a24335860048201524660248201526001600160a01b038316604482015260648101829052600060848201819052907302101dfb77fde026414827fdc604ddaf224f092190635e9bc5369060a401602060405180830381865afa15801561027f573d6000803e3d6000fd5b505050506040513d601f19601f820116820180604052508101906102a391906107ee565b9392505050565b60405163192df65560e01b81526001600160a01b0388166004820152602481018790526000908190309063192df65590604401602060405180830381865afa1580156102fa573d6000803e3d6000fd5b505050506040513d601f19601f8201168201806040525081019061031e91906107ee565b905061032981610436565b604051632142170760e11b81523360048201526001600160a01b038281166024830152604482018690528616906342842e0e90606401600060405180830381600087803b15801561037957600080fd5b505af115801561038d573d6000803e3d6000fd5b5050505050979650505050505050565b60405163da7323b360e01b8152732d25602551487c3f3354dd80d76d54383a24335860048201524660248201526001600160a01b03831660448201526064810182905260006084820181905260c060a483015260c48201819052907302101dfb77fde026414827fdc604ddaf224f09219063da7323b39060e4016020604051808303816000875af115801561027f573d6000803e3d6000fd5b6040516001600160a01b038216602482015261047e9060440160408051601f198184030181529190526020810180516001600160e01b031663161765e160e11b179052610481565b50565b60006a636f6e736f6c652e6c6f679050600080835160208501845afa505050565b6001600160a01b038116811461047e57600080fd5b60008083601f8401126104c957600080fd5b50813567ffffffffffffffff8111156104e157600080fd5b6020830191508360208285010111156104f957600080fd5b9250929050565b600080600080600080600060c0888a03121561051b57600080fd5b8735610526816104a2565b965060208801359550604088013567ffffffffffffffff81111561054957600080fd5b6105558a828b016104b7565b9096509450506060880135610569816104a2565b92506080880135915060a0880135610580816104a2565b8091505092959891949750929550565b600080604083850312156105a357600080fd5b82356105ae816104a2565b946020939093013593505050565b600080600080600080600060c0888a0312156105d757600080fd5b87356105e2816104a2565b965060208801359550604088013567ffffffffffffffff81111561060557600080fd5b6106118a828b016104b7565b9096509450506060880135610625816104a2565b969995985093969295946080840135945060a09093013592915050565b60008060008060008060a0878903121561065b57600080fd5b8635610666816104a2565b95506020870135610676816104a2565b945060408701359350606087013567ffffffffffffffff81111561069957600080fd5b6106a589828a016104b7565b90945092505060808701356106b9816104a2565b809150509295509295509295565b600080600080600080600060c0888a0312156106e257600080fd5b87356106ed816104a2565b965060208801356106fd816104a2565b955060408801359450606088013567ffffffffffffffff81111561072057600080fd5b61072c8a828b016104b7565b9095509350506080880135610740816104a2565b8092505060a0880135905092959891949750929550565b60008060008060008060008060e0898b03121561077357600080fd5b883561077e816104a2565b9750602089013561078e816104a2565b965060408901359550606089013567ffffffffffffffff8111156107b157600080fd5b6107bd8b828c016104b7565b90965094505060808901356107d1816104a2565b979a969950949793969295929450505060a08201359160c0013590565b60006020828403121561080057600080fd5b81516102a3816104a256fea26469706673582212202142bcfd1ad3031edfe53da4001631f50adb14fe295de18cc5552dc3b0301d5d64736f6c63430008110033",
  "linkReferences": {},
  "deployedLinkReferences": {}
}