{
  "_format": "hh-sol-artifact-1",
  "contractName": "Soul",
  "sourceName": "contracts/v1/lib/Soul.sol",
  "abi": [
    {
      "anonymous": false,
      "inputs": [
        {
          "indexed": false,
          "internalType": "uint256",
          "name": "tokenId",
          "type": "uint256"
        }
      ],
      "name": "Locked",
      "type": "event"
    },
    {
      "anonymous": false,
      "inputs": [
        {
          "indexed": false,
          "internalType": "uint256",
          "name": "tokenId",
          "type": "uint256"
        }
      ],
      "name": "Unlocked",
      "type": "event"
    },
    {
      "inputs": [
        {
          "internalType": "uint256",
          "name": "tokenId",
          "type": "uint256"
        }
      ],
      "name": "locked",
      "outputs": [
        {
          "internalType": "bool",
          "name": "",
          "type": "bool"
        }
      ],
      "stateMutability": "view",
      "type": "function"
    },
    {
      "inputs": [
        {
          "internalType": "uint256",
          "name": "",
          "type": "uint256"
        }
      ],
      "name": "lockedTokens",
      "outputs": [
        {
          "internalType": "bool",
          "name": "",
          "type": "bool"
        }
      ],
      "stateMutability": "view",
      "type": "function"
    }
  ],
  "bytecode": "0x608060405234801561001057600080fd5b50610142806100206000396000f3fe608060405234801561001057600080fd5b50600436106100365760003560e01c8063b45a3c0e1461003b578063dcec32941461007f575b600080fd5b6100676004803603602081101561005157600080fd5b81019080803590602001909291905050506100c3565b60405180821515815260200191505060405180910390f35b6100ab6004803603602081101561009557600080fd5b81019080803590602001909291905050506100ec565b60405180821515815260200191505060405180910390f35b600080600083815260200190815260200160002060009054906101000a900460ff169050919050565b60006020528060005260406000206000915054906101000a900460ff168156fea26469706673582212209051318083eaeca154c81e040378d1e2234a3e0b2d31b6143fd57bff8da0d15464736f6c634300060c0033",
  "linkReferences": {},
  "deployedLinkReferences": {}
}