{
  "_format": "hh-sol-artifact-1",
  "contractName": "AccountRegistryBridge",
  "sourceName": "contracts/AccountRegistryBridge.sol",
  "abi": [
    {
      "inputs": [],
      "name": "IMPLMENTATION",
      "outputs": [
        {
          "internalType": "address",
          "name": "",
          "type": "address"
        }
      ],
      "stateMutability": "view",
      "type": "function"
    },
    {
      "inputs": [],
      "name": "REGISTRY",
      "outputs": [
        {
          "internalType": "address",
          "name": "",
          "type": "address"
        }
      ],
      "stateMutability": "view",
      "type": "function"
    },
    {
      "inputs": [
        {
          "internalType": "address",
          "name": "contractAddress",
          "type": "address"
        },
        {
          "internalType": "uint256",
          "name": "tokenId",
          "type": "uint256"
        }
      ],
      "name": "account",
      "outputs": [
        {
          "internalType": "address",
          "name": "",
          "type": "address"
        }
      ],
      "stateMutability": "view",
      "type": "function"
    },
    {
      "inputs": [
        {
          "internalType": "address",
          "name": "contractAddress",
          "type": "address"
        },
        {
          "internalType": "uint256",
          "name": "tokenId",
          "type": "uint256"
        }
      ],
      "name": "createAccount",
      "outputs": [
        {
          "internalType": "address",
          "name": "",
          "type": "address"
        }
      ],
      "stateMutability": "nonpayable",
      "type": "function"
    }
  ],
  "bytecode": "0x608060405234801561001057600080fd5b506102ad806100206000396000f3fe608060405234801561001057600080fd5b506004361061004c5760003560e01c806306433b1b14610051578063192df655146100885780635fbfb9cf1461009b5780637fdfc7b2146100ae575b600080fd5b61006c732d25602551487c3f3354dd80d76d54383a24335881565b6040516001600160a01b03909116815260200160405180910390f35b61006c61009636600461022e565b6100c9565b61006c6100a936600461022e565b61017d565b61006c73db46d1dc155634fbc732f92e853b10b288ad5a1d81565b604051632f4de29b60e11b815273db46d1dc155634fbc732f92e853b10b288ad5a1d60048201524660248201526001600160a01b03831660448201526064810182905260006084820181905290732d25602551487c3f3354dd80d76d54383a24335890635e9bc5369060a401602060405180830381865afa158015610152573d6000803e3d6000fd5b505050506040513d601f19601f82011682018060405250810190610176919061025a565b9392505050565b60405163da7323b360e01b815273db46d1dc155634fbc732f92e853b10b288ad5a1d60048201524660248201526001600160a01b03831660448201526064810182905260006084820181905260c060a483015260c4820181905290732d25602551487c3f3354dd80d76d54383a2433589063da7323b39060e4016020604051808303816000875af1158015610152573d6000803e3d6000fd5b6001600160a01b038116811461022b57600080fd5b50565b6000806040838503121561024157600080fd5b823561024c81610216565b946020939093013593505050565b60006020828403121561026c57600080fd5b81516101768161021656fea26469706673582212206a5aa5e0dc8e57020b1904a66487285e34b6ea5734af007ef5995dfb6eea458664736f6c63430008110033",
  "linkReferences": {},
  "deployedLinkReferences": {}
}