{
  "_format": "hh-sol-artifact-1",
  "contractName": "AccountRegistryBridge",
  "sourceName": "contracts/AccountRegistryBridge.sol",
  "abi": [
    {
      "inputs": [],
      "name": "IMPLEMENTATION",
      "outputs": [
        {
          "internalType": "address",
          "name": "",
          "type": "address"
        }
      ],
      "stateMutability": "view",
      "type": "function"
    },
    {
      "inputs": [],
      "name": "REGISTRY",
      "outputs": [
        {
          "internalType": "address",
          "name": "",
          "type": "address"
        }
      ],
      "stateMutability": "view",
      "type": "function"
    },
    {
      "inputs": [
        {
          "internalType": "address",
          "name": "contractAddress",
          "type": "address"
        },
        {
          "internalType": "uint256",
          "name": "tokenId",
          "type": "uint256"
        }
      ],
      "name": "account",
      "outputs": [
        {
          "internalType": "address",
          "name": "",
          "type": "address"
        }
      ],
      "stateMutability": "view",
      "type": "function"
    },
    {
      "inputs": [
        {
          "internalType": "address",
          "name": "contractAddress",
          "type": "address"
        },
        {
          "internalType": "uint256",
          "name": "tokenId",
          "type": "uint256"
        }
      ],
      "name": "createAccount",
      "outputs": [
        {
          "internalType": "address",
          "name": "",
          "type": "address"
        }
      ],
      "stateMutability": "nonpayable",
      "type": "function"
    }
  ],
  "bytecode": "0x608060405234801561001057600080fd5b5061029f806100206000396000f3fe608060405234801561001057600080fd5b506004361061004c5760003560e01c806306433b1b14610051578063192df655146100885780633a4741bd1461009b5780635fbfb9cf146100b6575b600080fd5b61006c7302101dfb77fde026414827fdc604ddaf224f092181565b6040516001600160a01b03909116815260200160405180910390f35b61006c610096366004610220565b6100c9565b61006c732d25602551487c3f3354dd80d76d54383a24335881565b61006c6100c4366004610220565b61017d565b60405163246a002160e01b8152732d25602551487c3f3354dd80d76d54383a24335860048201526000602482018190524660448301526001600160a01b038416606483015260848201839052907302101dfb77fde026414827fdc604ddaf224f09219063246a00219060a401602060405180830381865afa158015610152573d6000803e3d6000fd5b505050506040513d601f19601f82011682018060405250810190610176919061024c565b9392505050565b604051638a54c52f60e01b8152732d25602551487c3f3354dd80d76d54383a24335860048201526000602482018190524660448301526001600160a01b038416606483015260848201839052907302101dfb77fde026414827fdc604ddaf224f092190638a54c52f9060a4016020604051808303816000875af1158015610152573d6000803e3d6000fd5b6001600160a01b038116811461021d57600080fd5b50565b6000806040838503121561023357600080fd5b823561023e81610208565b946020939093013593505050565b60006020828403121561025e57600080fd5b81516101768161020856fea264697066735822122076764d0e6825b0a387a421cff599da2214256000f08c283c24ee97998cb6a4c764736f6c63430008110033",
  "linkReferences": {},
  "deployedLinkReferences": {}
}