{
  "address": "0x7Bf70a3DC2d5Da7c924ce3E414E14C4564A59b1b",
  "abi": [
    {
      "inputs": [
        {
          "internalType": "address",
          "name": "_lepton",
          "type": "address"
        },
        {
          "internalType": "address",
          "name": "_ionx",
          "type": "address"
        },
        {
          "internalType": "uint256",
          "name": "_ionxPerLepton",
          "type": "uint256"
        }
      ],
      "stateMutability": "nonpayable",
      "type": "constructor"
    },
    {
      "anonymous": false,
      "inputs": [
        {
          "indexed": true,
          "internalType": "address",
          "name": "previousOwner",
          "type": "address"
        },
        {
          "indexed": true,
          "internalType": "address",
          "name": "newOwner",
          "type": "address"
        }
      ],
      "name": "OwnershipTransferred",
      "type": "event"
    },
    {
      "anonymous": false,
      "inputs": [
        {
          "indexed": true,
          "internalType": "address",
          "name": "buyer",
          "type": "address"
        },
        {
          "indexed": false,
          "internalType": "uint256",
          "name": "amount",
          "type": "uint256"
        },
        {
          "indexed": false,
          "internalType": "uint256",
          "name": "price",
          "type": "uint256"
        }
      ],
      "name": "SoldLepton",
      "type": "event"
    },
    {
      "anonymous": false,
      "inputs": [
        {
          "indexed": true,
          "internalType": "address",
          "name": "receiver",
          "type": "address"
        },
        {
          "indexed": true,
          "internalType": "address",
          "name": "tokenAddress",
          "type": "address"
        },
        {
          "indexed": true,
          "internalType": "uint256",
          "name": "tokenId",
          "type": "uint256"
        },
        {
          "indexed": false,
          "internalType": "uint256",
          "name": "amount",
          "type": "uint256"
        }
      ],
      "name": "WithdrawStuckERC1155",
      "type": "event"
    },
    {
      "anonymous": false,
      "inputs": [
        {
          "indexed": true,
          "internalType": "address",
          "name": "receiver",
          "type": "address"
        },
        {
          "indexed": true,
          "internalType": "address",
          "name": "tokenAddress",
          "type": "address"
        },
        {
          "indexed": false,
          "internalType": "uint256",
          "name": "amount",
          "type": "uint256"
        }
      ],
      "name": "WithdrawStuckERC20",
      "type": "event"
    },
    {
      "anonymous": false,
      "inputs": [
        {
          "indexed": true,
          "internalType": "address",
          "name": "receiver",
          "type": "address"
        },
        {
          "indexed": true,
          "internalType": "address",
          "name": "tokenAddress",
          "type": "address"
        },
        {
          "indexed": true,
          "internalType": "uint256",
          "name": "tokenId",
          "type": "uint256"
        }
      ],
      "name": "WithdrawStuckERC721",
      "type": "event"
    },
    {
      "anonymous": false,
      "inputs": [
        {
          "indexed": true,
          "internalType": "address",
          "name": "receiver",
          "type": "address"
        },
        {
          "indexed": false,
          "internalType": "uint256",
          "name": "amount",
          "type": "uint256"
        }
      ],
      "name": "WithdrawStuckEther",
      "type": "event"
    },
    {
      "inputs": [
        {
          "internalType": "uint256",
          "name": "leptonAmount",
          "type": "uint256"
        },
        {
          "internalType": "uint256",
          "name": "deadline",
          "type": "uint256"
        },
        {
          "internalType": "uint8",
          "name": "v",
          "type": "uint8"
        },
        {
          "internalType": "bytes32",
          "name": "r",
          "type": "bytes32"
        },
        {
          "internalType": "bytes32",
          "name": "s",
          "type": "bytes32"
        }
      ],
      "name": "buyWithIonx",
      "outputs": [],
      "stateMutability": "nonpayable",
      "type": "function"
    },
    {
      "inputs": [],
      "name": "getIonxBalance",
      "outputs": [
        {
          "internalType": "uint256",
          "name": "",
          "type": "uint256"
        }
      ],
      "stateMutability": "view",
      "type": "function"
    },
    {
      "inputs": [],
      "name": "getLeptonBalance",
      "outputs": [
        {
          "internalType": "uint256",
          "name": "",
          "type": "uint256"
        }
      ],
      "stateMutability": "view",
      "type": "function"
    },
    {
      "inputs": [],
      "name": "ionx",
      "outputs": [
        {
          "internalType": "contract Ionx",
          "name": "",
          "type": "address"
        }
      ],
      "stateMutability": "view",
      "type": "function"
    },
    {
      "inputs": [],
      "name": "ionxPerLepton",
      "outputs": [
        {
          "internalType": "uint256",
          "name": "",
          "type": "uint256"
        }
      ],
      "stateMutability": "view",
      "type": "function"
    },
    {
      "inputs": [],
      "name": "lepton",
      "outputs": [
        {
          "internalType": "contract Lepton2",
          "name": "",
          "type": "address"
        }
      ],
      "stateMutability": "view",
      "type": "function"
    },
    {
      "inputs": [
        {
          "internalType": "uint256",
          "name": "amount",
          "type": "uint256"
        }
      ],
      "name": "load",
      "outputs": [],
      "stateMutability": "payable",
      "type": "function"
    },
    {
      "inputs": [],
      "name": "nextTokenId",
      "outputs": [
        {
          "internalType": "uint256",
          "name": "",
          "type": "uint256"
        }
      ],
      "stateMutability": "view",
      "type": "function"
    },
    {
      "inputs": [
        {
          "internalType": "address",
          "name": "",
          "type": "address"
        },
        {
          "internalType": "address",
          "name": "",
          "type": "address"
        },
        {
          "internalType": "uint256",
          "name": "",
          "type": "uint256"
        },
        {
          "internalType": "bytes",
          "name": "",
          "type": "bytes"
        }
      ],
      "name": "onERC721Received",
      "outputs": [
        {
          "internalType": "bytes4",
          "name": "",
          "type": "bytes4"
        }
      ],
      "stateMutability": "nonpayable",
      "type": "function"
    },
    {
      "inputs": [],
      "name": "owner",
      "outputs": [
        {
          "internalType": "address",
          "name": "",
          "type": "address"
        }
      ],
      "stateMutability": "view",
      "type": "function"
    },
    {
      "inputs": [],
      "name": "renounceOwnership",
      "outputs": [],
      "stateMutability": "nonpayable",
      "type": "function"
    },
    {
      "inputs": [
        {
          "internalType": "address",
          "name": "_ionx",
          "type": "address"
        }
      ],
      "name": "setIonx",
      "outputs": [],
      "stateMutability": "nonpayable",
      "type": "function"
    },
    {
      "inputs": [
        {
          "internalType": "uint256",
          "name": "ionxAmount",
          "type": "uint256"
        }
      ],
      "name": "setIonxPerLepton",
      "outputs": [],
      "stateMutability": "nonpayable",
      "type": "function"
    },
    {
      "inputs": [
        {
          "internalType": "address",
          "name": "_lepton",
          "type": "address"
        }
      ],
      "name": "setLepton",
      "outputs": [],
      "stateMutability": "nonpayable",
      "type": "function"
    },
    {
      "inputs": [
        {
          "internalType": "uint256",
          "name": "tokenId",
          "type": "uint256"
        }
      ],
      "name": "setNextTokenId",
      "outputs": [],
      "stateMutability": "nonpayable",
      "type": "function"
    },
    {
      "inputs": [
        {
          "internalType": "address",
          "name": "newOwner",
          "type": "address"
        }
      ],
      "name": "transferOwnership",
      "outputs": [],
      "stateMutability": "nonpayable",
      "type": "function"
    },
    {
      "inputs": [
        {
          "internalType": "address payable",
          "name": "receiver",
          "type": "address"
        },
        {
          "internalType": "address",
          "name": "tokenAddress",
          "type": "address"
        },
        {
          "internalType": "uint256",
          "name": "tokenId",
          "type": "uint256"
        },
        {
          "internalType": "uint256",
          "name": "amount",
          "type": "uint256"
        }
      ],
      "name": "withdrawERC1155",
      "outputs": [],
      "stateMutability": "nonpayable",
      "type": "function"
    },
    {
      "inputs": [
        {
          "internalType": "address payable",
          "name": "receiver",
          "type": "address"
        },
        {
          "internalType": "address",
          "name": "tokenAddress",
          "type": "address"
        },
        {
          "internalType": "uint256",
          "name": "tokenId",
          "type": "uint256"
        }
      ],
      "name": "withdrawERC721",
      "outputs": [],
      "stateMutability": "nonpayable",
      "type": "function"
    },
    {
      "inputs": [
        {
          "internalType": "address payable",
          "name": "receiver",
          "type": "address"
        },
        {
          "internalType": "address",
          "name": "tokenAddress",
          "type": "address"
        },
        {
          "internalType": "uint256",
          "name": "amount",
          "type": "uint256"
        }
      ],
      "name": "withdrawErc20",
      "outputs": [],
      "stateMutability": "nonpayable",
      "type": "function"
    },
    {
      "inputs": [
        {
          "internalType": "address payable",
          "name": "receiver",
          "type": "address"
        },
        {
          "internalType": "uint256",
          "name": "amount",
          "type": "uint256"
        }
      ],
      "name": "withdrawEther",
      "outputs": [],
      "stateMutability": "nonpayable",
      "type": "function"
    }
  ],
  "transactionHash": "0xfd93351d808a919195332d3fc3533bdf24fe0f9b9b59fc696310ee15e084feec",
  "args": [
    "0x3Cd2410EAa9c2dCE50aF6CCAb72Dc93879a09c1F",
    "0x02D3A27Ac3f55d5D91Fb0f52759842696a864217",
    "15000000000000000000000"
  ],
  "numDeployments": 1,
  "solcInputHash": "e9994e7fbdc698929d4e56cc732a0db2",
  "bytecode": "0x608060405234801561001057600080fd5b50604051611b40380380611b408339818101604052606081101561003357600080fd5b5080516020820151604090920151909190600061004e6100d0565b600080546001600160a01b0319166001600160a01b0383169081178255604051929350917f8be0079c531659141344cd1fd0a4f28419497f9722a3daafe3b4186f6b6457e0908290a350600180546001600160a01b039485166001600160a01b03199182161790915560028054939094169216919091179091556004556100d4565b3390565b611a5d806100e36000396000f3fe60806040526004361061011f5760003560e01c80638da5cb5b116100a0578063c29ccc1511610064578063c29ccc1514610438578063d2a126731461044d578063e27e1b0814610492578063efeab4ab146104c5578063f2fde38b146104da5761011f565b80638da5cb5b1461036057806399d548aa146103755780639a20f66514610392578063a0edb48b146103bc578063b8d820f8146104055761011f565b80635a362235116100e75780635a362235146102c6578063715018a6146102db57806375794a3c146102f05780637d0e13a51461030557806383e3500f146103365761011f565b8063150b7a02146101245780631593dee1146101de5780634025feb2146102235780634cf65a4814610266578063522f68151461028d575b600080fd5b34801561013057600080fd5b506101c16004803603608081101561014757600080fd5b6001600160a01b0382358116926020810135909116916040820135919081019060808101606082013564010000000081111561018257600080fd5b82018360208201111561019457600080fd5b803590602001918460018302840111640100000000831117156101b657600080fd5b50909250905061050d565b604080516001600160e01b03199092168252519081900360200190f35b3480156101ea57600080fd5b506102216004803603606081101561020157600080fd5b506001600160a01b0381358116916020810135909116906040013561051e565b005b34801561022f57600080fd5b506102216004803603606081101561024657600080fd5b506001600160a01b03813581169160208101359091169060400135610586565b34801561027257600080fd5b5061027b6105e9565b60408051918252519081900360200190f35b34801561029957600080fd5b50610221600480360360408110156102b057600080fd5b506001600160a01b0381351690602001356105ef565b3480156102d257600080fd5b5061027b610655565b3480156102e757600080fd5b506102216106d1565b3480156102fc57600080fd5b5061027b610773565b34801561031157600080fd5b5061031a610779565b604080516001600160a01b039092168252519081900360200190f35b34801561034257600080fd5b506102216004803603602081101561035957600080fd5b5035610788565b34801561036c57600080fd5b5061031a61086c565b6102216004803603602081101561038b57600080fd5b503561087b565b34801561039e57600080fd5b50610221600480360360208110156103b557600080fd5b503561093d565b3480156103c857600080fd5b50610221600480360360808110156103df57600080fd5b506001600160a01b0381358116916020810135909116906040810135906060013561099a565b34801561041157600080fd5b506102216004803603602081101561042857600080fd5b50356001600160a01b0316610a04565b34801561044457600080fd5b5061027b610acb565b34801561045957600080fd5b50610221600480360360a081101561047057600080fd5b5080359060208101359060ff6040820135169060608101359060800135610b16565b34801561049e57600080fd5b50610221600480360360208110156104b557600080fd5b50356001600160a01b0316610ea6565b3480156104d157600080fd5b5061031a610f6d565b3480156104e657600080fd5b50610221600480360360208110156104fd57600080fd5b50356001600160a01b0316610f7c565b630a85bd0160e11b95945050505050565b610526611074565b6000546001600160a01b03908116911614610576576040805162461bcd60e51b815260206004820181905260248201526000805160206119de833981519152604482015290519081900360640190fd5b610581838383611078565b505050565b61058e611074565b6000546001600160a01b039081169116146105de576040805162461bcd60e51b815260206004820181905260248201526000805160206119de833981519152604482015290519081900360640190fd5b6105818383836111a2565b60045481565b6105f7611074565b6000546001600160a01b03908116911614610647576040805162461bcd60e51b815260206004820181905260248201526000805160206119de833981519152604482015290519081900360640190fd5b6106518282611328565b5050565b600154604080516370a0823160e01b815230600482015290516000926001600160a01b0316916370a08231916024808301926020929190829003018186803b1580156106a057600080fd5b505afa1580156106b4573d6000803e3d6000fd5b505050506040513d60208110156106ca57600080fd5b5051905090565b6106d9611074565b6000546001600160a01b03908116911614610729576040805162461bcd60e51b815260206004820181905260248201526000805160206119de833981519152604482015290519081900360640190fd5b600080546040516001600160a01b03909116907f8be0079c531659141344cd1fd0a4f28419497f9722a3daafe3b4186f6b6457e0908390a3600080546001600160a01b0319169055565b60035481565b6001546001600160a01b031681565b610790611074565b6000546001600160a01b039081169116146107e0576040805162461bcd60e51b815260206004820181905260248201526000805160206119de833981519152604482015290519081900360640190fd5b80156107ec5780610866565b60018054604080516318160ddd60e01b8152905161086693926001600160a01b0316916318160ddd916004808301926020929190829003018186803b15801561083457600080fd5b505afa158015610848573d6000803e3d6000fd5b505050506040513d602081101561085e57600080fd5b5051906113cb565b60035550565b6000546001600160a01b031690565b610883611074565b6000546001600160a01b039081169116146108d3576040805162461bcd60e51b815260206004820181905260248201526000805160206119de833981519152604482015290519081900360640190fd5b60015460408051630afd902b60e01b81526004810184905290516001600160a01b0390921691630afd902b913491602480830192600092919082900301818588803b15801561092157600080fd5b505af1158015610935573d6000803e3d6000fd5b505050505050565b610945611074565b6000546001600160a01b03908116911614610995576040805162461bcd60e51b815260206004820181905260248201526000805160206119de833981519152604482015290519081900360640190fd5b600455565b6109a2611074565b6000546001600160a01b039081169116146109f2576040805162461bcd60e51b815260206004820181905260248201526000805160206119de833981519152604482015290519081900360640190fd5b6109fe8484848461142c565b50505050565b610a0c611074565b6000546001600160a01b03908116911614610a5c576040805162461bcd60e51b815260206004820181905260248201526000805160206119de833981519152604482015290519081900360640190fd5b6001600160a01b038116610aa9576040805162461bcd60e51b815260206004820152600f60248201526e496e76616c6964206164647265737360881b604482015290519081900360640190fd5b600180546001600160a01b0319166001600160a01b0392909216919091179055565b600254604080516370a0823160e01b815230600482015290516000926001600160a01b0316916370a08231916024808301926020929190829003018186803b1580156106a057600080fd5b60048054600254604080516370a0823160e01b81523394810194909452519188029283926001600160a01b03909216916370a0823191602480820192602092909190829003018186803b158015610b6c57600080fd5b505afa158015610b80573d6000803e3d6000fd5b505050506040513d6020811015610b9657600080fd5b50511015610beb576040805162461bcd60e51b815260206004820152601960248201527f496e73756666696369656e7420494f4e582062616c616e636500000000000000604482015290519081900360640190fd5b600154604080516370a0823160e01b8152306004820152905188926001600160a01b0316916370a08231916024808301926020929190829003018186803b158015610c3557600080fd5b505afa158015610c49573d6000803e3d6000fd5b505050506040513d6020811015610c5f57600080fd5b50511015610cb4576040805162461bcd60e51b815260206004820152601b60248201527f496e73756666696369656e74204c6570746f6e2062616c616e63650000000000604482015290519081900360640190fd5b6002546040805163d505accf60e01b8152336004820152306024820152604481018490526064810188905260ff8716608482015260a4810186905260c4810185905290516001600160a01b039092169163d505accf9160e48082019260009290919082900301818387803b158015610d2b57600080fd5b505af1158015610d3f573d6000803e3d6000fd5b5050600254604080516323b872dd60e01b81523360048201523060248201526044810186905290516001600160a01b0390921693506323b872dd92506064808201926020929091908290030181600087803b158015610d9d57600080fd5b505af1158015610db1573d6000803e3d6000fd5b505050506040513d6020811015610dc757600080fd5b50600090505b86811015610e6357600354610de38160016113cb565b60035560015460408051632142170760e11b81523060048201523360248201526044810184905290516001600160a01b03909216916342842e0e9160648082019260009290919082900301818387803b158015610e3f57600080fd5b505af1158015610e53573d6000803e3d6000fd5b5050505050806001019050610dcd565b506040805187815260208101839052815133927f56d4a3892345beae7b80a9cb4d571ef4929baf938bc67960aa0f17606a934bc0928290030190a2505050505050565b610eae611074565b6000546001600160a01b03908116911614610efe576040805162461bcd60e51b815260206004820181905260248201526000805160206119de833981519152604482015290519081900360640190fd5b6001600160a01b038116610f4b576040805162461bcd60e51b815260206004820152600f60248201526e496e76616c6964206164647265737360881b604482015290519081900360640190fd5b600280546001600160a01b0319166001600160a01b0392909216919091179055565b6002546001600160a01b031681565b610f84611074565b6000546001600160a01b03908116911614610fd4576040805162461bcd60e51b815260206004820181905260248201526000805160206119de833981519152604482015290519081900360640190fd5b6001600160a01b0381166110195760405162461bcd60e51b815260040180806020018281038252602681526020018061197e6026913960400191505060405180910390fd5b600080546040516001600160a01b03808516939216917f8be0079c531659141344cd1fd0a4f28419497f9722a3daafe3b4186f6b6457e091a3600080546001600160a01b0319166001600160a01b0392909216919091179055565b3390565b6001600160a01b0383166110bf576040805162461bcd60e51b81526020600482015260096024820152684248503a452d34303360b81b604482015290519081900360640190fd5b80826001600160a01b03166370a08231306040518263ffffffff1660e01b815260040180826001600160a01b0316815260200191505060206040518083038186803b15801561110d57600080fd5b505afa158015611121573d6000803e3d6000fd5b505050506040513d602081101561113757600080fd5b505110610581576111526001600160a01b03831684836115cd565b816001600160a01b0316836001600160a01b03167f6c9d637297625e945b296ff73a71fcfbd0a9e062652b6491a921c4c60194176b836040518082815260200191505060405180910390a3505050565b6001600160a01b0383166111e9576040805162461bcd60e51b81526020600482015260096024820152684248503a452d34303360b81b604482015290519081900360640190fd5b306001600160a01b0316826001600160a01b0316636352211e836040518263ffffffff1660e01b81526004018082815260200191505060206040518083038186803b15801561123757600080fd5b505afa15801561124b573d6000803e3d6000fd5b505050506040513d602081101561126157600080fd5b50516001600160a01b0316141561058157604080516323b872dd60e01b81523060048201526001600160a01b038581166024830152604482018490529151918416916323b872dd9160648082019260009290919082900301818387803b1580156112ca57600080fd5b505af11580156112de573d6000803e3d6000fd5b5050505080826001600160a01b0316846001600160a01b03167ffefe036cac4ee3a4aca074a81cbcc4376e1484693289078dbec149c890101d5b60405160405180910390a4505050565b6001600160a01b03821661136f576040805162461bcd60e51b81526020600482015260096024820152684248503a452d34303360b81b604482015290519081900360640190fd5b804710610651576113896001600160a01b0383168261161f565b6040805182815290516001600160a01b038416917eddb683bb45cd5d0ad8a200c6fae7152b1c236ee90a4a37db692407f5cc38bd919081900360200190a25050565b600082820183811015611425576040805162461bcd60e51b815260206004820152601b60248201527f536166654d6174683a206164646974696f6e206f766572666c6f770000000000604482015290519081900360640190fd5b9392505050565b6001600160a01b038416611473576040805162461bcd60e51b81526020600482015260096024820152684248503a452d34303360b81b604482015290519081900360640190fd5b80836001600160a01b031662fdd58e30856040518363ffffffff1660e01b815260040180836001600160a01b031681526020018281526020019250505060206040518083038186803b1580156114c857600080fd5b505afa1580156114dc573d6000803e3d6000fd5b505050506040513d60208110156114f257600080fd5b5051106109fe5760408051637921219560e11b81523060048201526001600160a01b038681166024830152604482018590526064820184905260a06084830152600060a4830181905292519086169263f242432a9260e4808201939182900301818387803b15801561156357600080fd5b505af1158015611577573d6000803e3d6000fd5b5050505081836001600160a01b0316856001600160a01b03167f620337bf89eea2b9ae2657beead83b5fa620452817118348aff96e201d52598b846040518082815260200191505060405180910390a450505050565b604080516001600160a01b038416602482015260448082018490528251808303909101815260649091019091526020810180516001600160e01b031663a9059cbb60e01b179052610581908490611704565b80471015611674576040805162461bcd60e51b815260206004820152601d60248201527f416464726573733a20696e73756666696369656e742062616c616e6365000000604482015290519081900360640190fd5b6040516000906001600160a01b0384169083908381818185875af1925050503d80600081146116bf576040519150601f19603f3d011682016040523d82523d6000602084013e6116c4565b606091505b50509050806105815760405162461bcd60e51b815260040180806020018281038252603a8152602001806119a4603a913960400191505060405180910390fd5b6060611759826040518060400160405280602081526020017f5361666545524332303a206c6f772d6c6576656c2063616c6c206661696c6564815250856001600160a01b03166117b59092919063ffffffff16565b8051909150156105815780806020019051602081101561177857600080fd5b50516105815760405162461bcd60e51b815260040180806020018281038252602a8152602001806119fe602a913960400191505060405180910390fd5b60606117c484846000856117cc565b949350505050565b60606117d785611977565b611828576040805162461bcd60e51b815260206004820152601d60248201527f416464726573733a2063616c6c20746f206e6f6e2d636f6e7472616374000000604482015290519081900360640190fd5b60006060866001600160a01b031685876040518082805190602001908083835b602083106118675780518252601f199092019160209182019101611848565b6001836020036101000a03801982511681845116808217855250505050505090500191505060006040518083038185875af1925050503d80600081146118c9576040519150601f19603f3d011682016040523d82523d6000602084013e6118ce565b606091505b509150915081156118e25791506117c49050565b8051156118f25780518082602001fd5b8360405162461bcd60e51b81526004018080602001828103825283818151815260200191508051906020019080838360005b8381101561193c578181015183820152602001611924565b50505050905090810190601f1680156119695780820380516001836020036101000a031916815260200191505b509250505060405180910390fd5b3b15159056fe4f776e61626c653a206e6577206f776e657220697320746865207a65726f2061646472657373416464726573733a20756e61626c6520746f2073656e642076616c75652c20726563697069656e74206d617920686176652072657665727465644f776e61626c653a2063616c6c6572206973206e6f7420746865206f776e65725361666545524332303a204552433230206f7065726174696f6e20646964206e6f742073756363656564a264697066735822122052c6f5dca3cb93f92d58411ee76c0d6fd159b06b263d0ec3fbf23b02e261cb1a64736f6c634300060c0033",
  "devdoc": {
    "kind": "dev",
    "methods": {
      "owner()": {
        "details": "Returns the address of the current owner."
      },
      "renounceOwnership()": {
        "details": "Leaves the contract without owner. It will not be possible to call `onlyOwner` functions anymore. Can only be called by the current owner. NOTE: Renouncing ownership will leave the contract without an owner, thereby removing any functionality that is only available to the owner."
      },
      "transferOwnership(address)": {
        "details": "Transfers ownership of the contract to a new account (`newOwner`). Can only be called by the current owner."
      }
    },
    "version": 1
  },
  "userdoc": {
    "kind": "user",
    "methods": {},
    "version": 1
  },
  "storageLayout": {
    "storage": [
      {
        "astId": 4406,
        "contract": "contracts/v1/leptons/store.sol:LeptonsStore",
        "label": "_owner",
        "offset": 0,
        "slot": "0",
        "type": "t_address"
      },
      {
        "astId": 30802,
        "contract": "contracts/v1/leptons/store.sol:LeptonsStore",
        "label": "lepton",
        "offset": 0,
        "slot": "1",
        "type": "t_contract(Lepton2)38485"
      },
      {
        "astId": 30804,
        "contract": "contracts/v1/leptons/store.sol:LeptonsStore",
        "label": "ionx",
        "offset": 0,
        "slot": "2",
        "type": "t_contract(Ionx)37047"
      },
      {
        "astId": 30806,
        "contract": "contracts/v1/leptons/store.sol:LeptonsStore",
        "label": "nextTokenId",
        "offset": 0,
        "slot": "3",
        "type": "t_uint256"
      },
      {
        "astId": 30808,
        "contract": "contracts/v1/leptons/store.sol:LeptonsStore",
        "label": "ionxPerLepton",
        "offset": 0,
        "slot": "4",
        "type": "t_uint256"
      }
    ],
    "types": {
      "t_address": {
        "encoding": "inplace",
        "label": "address",
        "numberOfBytes": "20"
      },
      "t_contract(Ionx)37047": {
        "encoding": "inplace",
        "label": "contract Ionx",
        "numberOfBytes": "20"
      },
      "t_contract(Lepton2)38485": {
        "encoding": "inplace",
        "label": "contract Lepton2",
        "numberOfBytes": "20"
      },
      "t_uint256": {
        "encoding": "inplace",
        "label": "uint256",
        "numberOfBytes": "32"
      }
    }
  }
}