{
  "address": "0x696a1b75a93fE7f28CFaE616cCd391690acE7c3d",
  "abi": [
    {
      "inputs": [],
      "stateMutability": "nonpayable",
      "type": "constructor"
    },
    {
      "anonymous": false,
      "inputs": [
        {
          "indexed": true,
          "internalType": "address",
          "name": "previousOwner",
          "type": "address"
        },
        {
          "indexed": true,
          "internalType": "address",
          "name": "newOwner",
          "type": "address"
        }
      ],
      "name": "OwnershipTransferred",
      "type": "event"
    },
    {
      "anonymous": false,
      "inputs": [
        {
          "indexed": true,
          "internalType": "address",
          "name": "rewardProgram",
          "type": "address"
        }
      ],
      "name": "RewardProgramCreated",
      "type": "event"
    },
    {
      "anonymous": false,
      "inputs": [
        {
          "indexed": true,
          "internalType": "address",
          "name": "receiver",
          "type": "address"
        },
        {
          "indexed": true,
          "internalType": "address",
          "name": "tokenAddress",
          "type": "address"
        },
        {
          "indexed": true,
          "internalType": "uint256",
          "name": "tokenId",
          "type": "uint256"
        },
        {
          "indexed": false,
          "internalType": "uint256",
          "name": "amount",
          "type": "uint256"
        }
      ],
      "name": "WithdrawStuckERC1155",
      "type": "event"
    },
    {
      "anonymous": false,
      "inputs": [
        {
          "indexed": true,
          "internalType": "address",
          "name": "receiver",
          "type": "address"
        },
        {
          "indexed": true,
          "internalType": "address",
          "name": "tokenAddress",
          "type": "address"
        },
        {
          "indexed": false,
          "internalType": "uint256",
          "name": "amount",
          "type": "uint256"
        }
      ],
      "name": "WithdrawStuckERC20",
      "type": "event"
    },
    {
      "anonymous": false,
      "inputs": [
        {
          "indexed": true,
          "internalType": "address",
          "name": "receiver",
          "type": "address"
        },
        {
          "indexed": true,
          "internalType": "address",
          "name": "tokenAddress",
          "type": "address"
        },
        {
          "indexed": true,
          "internalType": "uint256",
          "name": "tokenId",
          "type": "uint256"
        }
      ],
      "name": "WithdrawStuckERC721",
      "type": "event"
    },
    {
      "anonymous": false,
      "inputs": [
        {
          "indexed": true,
          "internalType": "address",
          "name": "receiver",
          "type": "address"
        },
        {
          "indexed": false,
          "internalType": "uint256",
          "name": "amount",
          "type": "uint256"
        }
      ],
      "name": "WithdrawStuckEther",
      "type": "event"
    },
    {
      "inputs": [],
      "name": "_template",
      "outputs": [
        {
          "internalType": "address",
          "name": "",
          "type": "address"
        }
      ],
      "stateMutability": "view",
      "type": "function"
    },
    {
      "inputs": [
        {
          "internalType": "address",
          "name": "stakingToken",
          "type": "address"
        },
        {
          "internalType": "address",
          "name": "rewardToken",
          "type": "address"
        },
        {
          "internalType": "uint256",
          "name": "baseMultiplier",
          "type": "uint256"
        },
        {
          "internalType": "address",
          "name": "chargedManagers",
          "type": "address"
        },
        {
          "internalType": "address",
          "name": "universe",
          "type": "address"
        }
      ],
      "name": "createRewardProgram",
      "outputs": [
        {
          "internalType": "address",
          "name": "",
          "type": "address"
        }
      ],
      "stateMutability": "nonpayable",
      "type": "function"
    },
    {
      "inputs": [],
      "name": "owner",
      "outputs": [
        {
          "internalType": "address",
          "name": "",
          "type": "address"
        }
      ],
      "stateMutability": "view",
      "type": "function"
    },
    {
      "inputs": [],
      "name": "renounceOwnership",
      "outputs": [],
      "stateMutability": "nonpayable",
      "type": "function"
    },
    {
      "inputs": [
        {
          "internalType": "address",
          "name": "newOwner",
          "type": "address"
        }
      ],
      "name": "transferOwnership",
      "outputs": [],
      "stateMutability": "nonpayable",
      "type": "function"
    },
    {
      "inputs": [
        {
          "internalType": "address payable",
          "name": "receiver",
          "type": "address"
        },
        {
          "internalType": "address",
          "name": "tokenAddress",
          "type": "address"
        },
        {
          "internalType": "uint256",
          "name": "tokenId",
          "type": "uint256"
        },
        {
          "internalType": "uint256",
          "name": "amount",
          "type": "uint256"
        }
      ],
      "name": "withdrawERC1155",
      "outputs": [],
      "stateMutability": "nonpayable",
      "type": "function"
    },
    {
      "inputs": [
        {
          "internalType": "address payable",
          "name": "receiver",
          "type": "address"
        },
        {
          "internalType": "address",
          "name": "tokenAddress",
          "type": "address"
        },
        {
          "internalType": "uint256",
          "name": "tokenId",
          "type": "uint256"
        }
      ],
      "name": "withdrawERC721",
      "outputs": [],
      "stateMutability": "nonpayable",
      "type": "function"
    },
    {
      "inputs": [
        {
          "internalType": "address payable",
          "name": "receiver",
          "type": "address"
        },
        {
          "internalType": "address",
          "name": "tokenAddress",
          "type": "address"
        },
        {
          "internalType": "uint256",
          "name": "amount",
          "type": "uint256"
        }
      ],
      "name": "withdrawErc20",
      "outputs": [],
      "stateMutability": "nonpayable",
      "type": "function"
    },
    {
      "inputs": [
        {
          "internalType": "address payable",
          "name": "receiver",
          "type": "address"
        },
        {
          "internalType": "uint256",
          "name": "amount",
          "type": "uint256"
        }
      ],
      "name": "withdrawEther",
      "outputs": [],
      "stateMutability": "nonpayable",
      "type": "function"
    }
  ],
  "transactionHash": "0xd6e3dfc8ba873940b4c5250f1df35260ab5882f3f2f08e8f739202273f02f861",
  "args": [],
  "numDeployments": 1,
  "solcInputHash": "39876b9d6995fafd8c4442fb1a03f418",
  "bytecode": "0x608060405234801561001057600080fd5b50600061001b6100b3565b600080546001600160a01b0319166001600160a01b0383169081178255604051929350917f8be0079c531659141344cd1fd0a4f28419497f9722a3daafe3b4186f6b6457e0908290a350604051610071906100b7565b604051809103906000f08015801561008d573d6000803e3d6000fd5b50600180546001600160a01b0319166001600160a01b03929092169190911790556100c4565b3390565b6127bd8061115483390190565b611081806100d36000396000f3fe608060405234801561001057600080fd5b50600436106100935760003560e01c80636fe6fabb116100665780636fe6fabb146100fc578063715018a6146101045780638da5cb5b1461010c578063a0edb48b14610114578063f2fde38b1461012757610093565b80631593dee1146100985780634025feb2146100ad578063522f6815146100c05780636f9d5f78146100d3575b600080fd5b6100ab6100a6366004610be7565b61013a565b005b6100ab6100bb366004610be7565b610188565b6100ab6100ce366004610c6c565b6101c8565b6100e66100e1366004610c97565b61020b565b6040516100f39190610d55565b60405180910390f35b6100e661030b565b6100ab61031a565b6100e6610399565b6100ab610122366004610c27565b6103a8565b6100ab610135366004610ba8565b6103ef565b6101426104a5565b6000546001600160a01b039081169116146101785760405162461bcd60e51b815260040161016f90610f48565b60405180910390fd5b6101838383836104a9565b505050565b6101906104a5565b6000546001600160a01b039081169116146101bd5760405162461bcd60e51b815260040161016f90610f48565b6101838383836105b6565b6101d06104a5565b6000546001600160a01b039081169116146101fd5760405162461bcd60e51b815260040161016f90610f48565b6102078282610711565b5050565b60006102156104a5565b6000546001600160a01b039081169116146102425760405162461bcd60e51b815260040161016f90610f48565b60015460009061025a906001600160a01b0316610795565b9050806001600160a01b03811663ff9935cb89898989896102796104a5565b6040518763ffffffff1660e01b815260040161029a96959493929190610dc5565b600060405180830381600087803b1580156102b457600080fd5b505af11580156102c8573d6000803e3d6000fd5b50506040516001600160a01b03851692507f6ecb2838bef4560681475e8bb5e7feccefe33df915df2d6757024bc6fe4c616a9150600090a2509695505050505050565b6001546001600160a01b031681565b6103226104a5565b6000546001600160a01b0390811691161461034f5760405162461bcd60e51b815260040161016f90610f48565b600080546040516001600160a01b03909116907f8be0079c531659141344cd1fd0a4f28419497f9722a3daafe3b4186f6b6457e0908390a3600080546001600160a01b0319169055565b6000546001600160a01b031690565b6103b06104a5565b6000546001600160a01b039081169116146103dd5760405162461bcd60e51b815260040161016f90610f48565b6103e9848484846107e7565b50505050565b6103f76104a5565b6000546001600160a01b039081169116146104245760405162461bcd60e51b815260040161016f90610f48565b6001600160a01b03811661044a5760405162461bcd60e51b815260040161016f90610e4b565b600080546040516001600160a01b03808516939216917f8be0079c531659141344cd1fd0a4f28419497f9722a3daafe3b4186f6b6457e091a3600080546001600160a01b0319166001600160a01b0392909216919091179055565b3390565b6001600160a01b0383166104cf5760405162461bcd60e51b815260040161016f90610e91565b6040516370a0823160e01b815281906001600160a01b038416906370a08231906104fd903090600401610d55565b60206040518083038186803b15801561051557600080fd5b505afa158015610529573d6000803e3d6000fd5b505050506040513d601f19601f8201168201806040525081019061054d9190610d1e565b10610183576105666001600160a01b0383168483610946565b816001600160a01b0316836001600160a01b03167f6c9d637297625e945b296ff73a71fcfbd0a9e062652b6491a921c4c60194176b836040516105a99190610ffe565b60405180910390a3505050565b6001600160a01b0383166105dc5760405162461bcd60e51b815260040161016f90610e91565b6040516331a9108f60e11b815230906001600160a01b03841690636352211e9061060a908590600401610ffe565b60206040518083038186803b15801561062257600080fd5b505afa158015610636573d6000803e3d6000fd5b505050506040513d601f19601f8201168201806040525081019061065a9190610bcb565b6001600160a01b03161415610183576040516323b872dd60e01b81526001600160a01b038316906323b872dd9061069990309087908690600401610d69565b600060405180830381600087803b1580156106b357600080fd5b505af11580156106c7573d6000803e3d6000fd5b5050505080826001600160a01b0316846001600160a01b03167ffefe036cac4ee3a4aca074a81cbcc4376e1484693289078dbec149c890101d5b60405160405180910390a4505050565b6001600160a01b0382166107375760405162461bcd60e51b815260040161016f90610e91565b804710610207576107516001600160a01b0383168261099c565b816001600160a01b03167eddb683bb45cd5d0ad8a200c6fae7152b1c236ee90a4a37db692407f5cc38bd826040516107899190610ffe565b60405180910390a25050565b6000808260601b9050604051733d602d80600a3d3981f3363d3d373d3d3d363d7360601b81528160148201526e5af43d82803e903d91602b57fd5bf360881b60288201526037816000f0949350505050565b6001600160a01b03841661080d5760405162461bcd60e51b815260040161016f90610e91565b604051627eeac760e11b815281906001600160a01b0385169062fdd58e9061083b9030908790600401610dff565b60206040518083038186803b15801561085357600080fd5b505afa158015610867573d6000803e3d6000fd5b505050506040513d601f19601f8201168201806040525081019061088b9190610d1e565b106103e957604051637921219560e11b81526001600160a01b0384169063f242432a906108c2903090889087908790600401610d8d565b600060405180830381600087803b1580156108dc57600080fd5b505af11580156108f0573d6000803e3d6000fd5b5050505081836001600160a01b0316856001600160a01b03167f620337bf89eea2b9ae2657beead83b5fa620452817118348aff96e201d52598b846040516109389190610ffe565b60405180910390a450505050565b6101838363a9059cbb60e01b8484604051602401610965929190610dff565b60408051601f198184030181529190526020810180516001600160e01b03166001600160e01b031990931692909217909152610a38565b804710156109bc5760405162461bcd60e51b815260040161016f90610f11565b6000826001600160a01b0316826040516109d590610d52565b60006040518083038185875af1925050503d8060008114610a12576040519150601f19603f3d011682016040523d82523d6000602084013e610a17565b606091505b50509050806101835760405162461bcd60e51b815260040161016f90610eb4565b6060610a8d826040518060400160405280602081526020017f5361666545524332303a206c6f772d6c6576656c2063616c6c206661696c6564815250856001600160a01b0316610ac79092919063ffffffff16565b8051909150156101835780806020019051810190610aab9190610cfe565b6101835760405162461bcd60e51b815260040161016f90610fb4565b6060610ad68484600085610ade565b949350505050565b6060610ae985610ba2565b610b055760405162461bcd60e51b815260040161016f90610f7d565b60006060866001600160a01b03168587604051610b229190610d36565b60006040518083038185875af1925050503d8060008114610b5f576040519150601f19603f3d011682016040523d82523d6000602084013e610b64565b606091505b50915091508115610b78579150610ad69050565b805115610b885780518082602001fd5b8360405162461bcd60e51b815260040161016f9190610e18565b3b151590565b600060208284031215610bb9578081fd5b8135610bc481611033565b9392505050565b600060208284031215610bdc578081fd5b8151610bc481611033565b600080600060608486031215610bfb578182fd5b8335610c0681611033565b92506020840135610c1681611033565b929592945050506040919091013590565b60008060008060808587031215610c3c578081fd5b8435610c4781611033565b93506020850135610c5781611033565b93969395505050506040820135916060013590565b60008060408385031215610c7e578182fd5b8235610c8981611033565b946020939093013593505050565b600080600080600060a08688031215610cae578081fd5b8535610cb981611033565b94506020860135610cc981611033565b9350604086013592506060860135610ce081611033565b91506080860135610cf081611033565b809150509295509295909350565b600060208284031215610d0f578081fd5b81518015158114610bc4578182fd5b600060208284031215610d2f578081fd5b5051919050565b60008251610d48818460208701611007565b9190910192915050565b90565b6001600160a01b0391909116815260200190565b6001600160a01b039384168152919092166020820152604081019190915260600190565b6001600160a01b0394851681529290931660208301526040820152606081019190915260a06080820181905260009082015260c00190565b6001600160a01b0396871681529486166020860152604085019390935290841660608401528316608083015290911660a082015260c00190565b6001600160a01b03929092168252602082015260400190565b6000602082528251806020840152610e37816040850160208701611007565b601f01601f19169190910160400192915050565b60208082526026908201527f4f776e61626c653a206e6577206f776e657220697320746865207a65726f206160408201526564647265737360d01b606082015260800190565b6020808252600990820152684248503a452d34303360b81b604082015260600190565b6020808252603a908201527f416464726573733a20756e61626c6520746f2073656e642076616c75652c207260408201527f6563697069656e74206d61792068617665207265766572746564000000000000606082015260800190565b6020808252601d908201527f416464726573733a20696e73756666696369656e742062616c616e6365000000604082015260600190565b6020808252818101527f4f776e61626c653a2063616c6c6572206973206e6f7420746865206f776e6572604082015260600190565b6020808252601d908201527f416464726573733a2063616c6c20746f206e6f6e2d636f6e7472616374000000604082015260600190565b6020808252602a908201527f5361666545524332303a204552433230206f7065726174696f6e20646964206e6040820152691bdd081cdd58d8d9595960b21b606082015260800190565b90815260200190565b60005b8381101561102257818101518382015260200161100a565b838111156103e95750506000910152565b6001600160a01b038116811461104857600080fd5b5056fea2646970667358221220260383f23709db660967a522664682b39439430262c686f1ff999462e44f3aff64736f6c634300060c0033608060405234801561001057600080fd5b506001600055612798806100256000396000f3fe608060405234801561001057600080fd5b50600436106101585760003560e01c8063533f852e116100c3578063ae9704cd1161007c578063ae9704cd146102f6578063bc197c8114610309578063dae9e3791461031c578063e3043ee814610324578063f23a6e6114610337578063ff9935cb1461034a57610158565b8063533f852e1461027557806370d2e5cd14610288578063784483491461029b5780638aee8127146102bb5780638da5cb5b146102ce578063a0edb48b146102e357610158565b8063352685bc11610115578063352685bc146101f65780634025feb21461020957806346c65f621461021c578063494b01001461022f57806350d0c63c14610242578063522f68151461026257610158565b806301ffc9a71461015d57806314e5f66814610186578063150b7a021461019b5780631593dee1146101bb5780631e9b12ef146101d05780631f5b149f146101e3575b600080fd5b61017061016b3660046120c8565b61035d565b60405161017d91906122fc565b60405180910390f35b61018e6103b7565b60405161017d919061268b565b6101ae6101a9366004611ecd565b6103f0565b60405161017d9190612307565b6101ce6101c9366004611cea565b610401565b005b6101ce6101de366004611cb2565b610444565b6101ce6101f1366004611cb2565b610490565b6101ce610204366004612147565b6104dc565b6101ce610217366004611cea565b610580565b6101ce61022a366004612012565b6105b5565b6101ce61023d366004611fb8565b61066f565b610255610250366004612074565b61089f565b60405161017d91906126ba565b6101ce610270366004611d6f565b610a9a565b610255610283366004611d6f565b610ad2565b6101ce610296366004612147565b610b04565b6102ae6102a9366004612147565b610b33565b60405161017d919061265c565b6101ce6102c9366004611cb2565b610c16565b6102d6610c62565b60405161017d9190612250565b6101ce6102f1366004611d2a565b610c71565b6101ce610304366004611cb2565b610cad565b6101ae610317366004611d9a565b610cf9565b610255610d07565b610255610332366004612177565b610d16565b6101ae610345366004611f3e565b610d22565b6101ce610358366004611e55565b610d34565b60006001600160e01b03198216630a85bd0160e11b148061038e57506001600160e01b03198216630271189760e51b145b806103a957506001600160e01b031982166301ffc9a760e01b145b156103b2575060015b919050565b6103bf611ac6565b50604080516060810182526004546001600160a01b0390811682526005541660208201526006549181019190915290565b630a85bd0160e11b95945050505050565b6001546001600160a01b031633146104345760405162461bcd60e51b815260040161042b906123cd565b60405180910390fd5b61043f838383610dbf565b505050565b6001546001600160a01b0316331461046e5760405162461bcd60e51b815260040161042b906123cd565b600480546001600160a01b0319166001600160a01b0392909216919091179055565b6001546001600160a01b031633146104ba5760405162461bcd60e51b815260040161042b906123cd565b600380546001600160a01b0319166001600160a01b0392909216919091179055565b6001546001600160a01b031633146105065760405162461bcd60e51b815260040161042b906123cd565b6005546001600160a01b031661052e5760405162461bcd60e51b815260040161042b90612514565b600554610546906001600160a01b0316333084610ecc565b7fcbd64454da4b3587b11b8f8170d7656cbe58e29ee18fd715b0e79ad85edb6e5d8160405161057591906126ba565b60405180910390a150565b6001546001600160a01b031633146105aa5760405162461bcd60e51b815260040161042b906123cd565b61043f838383610f24565b6002546001600160a01b031633146105df5760405162461bcd60e51b815260040161042b906124f2565b60006105f46001600160a01b0387168661107f565b600081815260076020526040902080549192509061061f5743815561061d600282018686611ae6565b505b866001600160a01b03167f30d53e48465c48642e346a636a4eef45c72095b65bef5825308376e2f59f09e28787878760405161065e94939291906126c3565b60405180910390a250505050505050565b6001546001600160a01b031633146106995760405162461bcd60e51b815260040161042b906123cd565b60006106ae6001600160a01b0386168561107f565b6003546040516334b7328d60e01b81529192506000916001600160a01b03909116906334b7328d906106e6908790879060040161231c565b60206040518083038186803b1580156106fe57600080fd5b505afa158015610712573d6000803e3d6000fd5b505050506040513d601f19601f820116820180604052508101906107369190611cce565b60048054604051632da9ef8160e01b81529293506000926001600160a01b0380861693632da9ef8193610770938d938d93921691016122d9565b602060405180830381600087803b15801561078a57600080fd5b505af115801561079e573d6000803e3d6000fd5b505050506040513d601f19601f820116820180604052508101906107c2919061215f565b905080156108965760405180606001604052804381526020016000815260200186868080601f016020809104026020016040519081016040528093929190818152602001838380828437600092018290525093909452505085815260076020908152604091829020845181558482015160018201559184015180519293506108539260028501929190910190611b64565b50905050866001600160a01b03167fdd1b8616b3983aa94529955a2f7d0dd75e5a93e53875372ea41a9eab5e3ef3268787878560405161065e94939291906126c3565b50505050505050565b6002546000906001600160a01b031633146108cc5760405162461bcd60e51b815260040161042b906124f2565b6108d46110b3565b60006108e96001600160a01b0386168561107f565b600081815260076020526040812091925061090483866110dd565b6001830154909150610916908261110b565b60018301556003546040516334b7328d60e01b81526000916001600160a01b0316906334b7328d9061094f906002870190600401612343565b60206040518083038186803b15801561096757600080fd5b505afa15801561097b573d6000803e3d6000fd5b505050506040513d601f19601f8201168201806040525081019061099f9190611cce565b60048054604051632da9ef8160e01b81529293506000926001600160a01b0380861693632da9ef81936109d9938f938f93921691016122d9565b602060405180830381600087803b1580156109f357600080fd5b505af1158015610a07573d6000803e3d6000fd5b505050506040513d601f19601f82011682018060405250810190610a2b919061215f565b905080610a3757600084555b610a418989611130565b9550886001600160a01b03167f8abeaea5da22bf1966530d4f970ac7c71ae0999eb1d2181afaeff8b56c394f3f8989604051610a7e9291906126ee565b60405180910390a25050505050610a936112c0565b9392505050565b6001546001600160a01b03163314610ac45760405162461bcd60e51b815260040161042b906123cd565b610ace82826112c7565b5050565b600080610ae86001600160a01b0385168461107f565b6000908152600760205260409020600101549150505b92915050565b6001546001600160a01b03163314610b2e5760405162461bcd60e51b815260040161042b906123cd565b600655565b610b3b611bd2565b600760008381526020019081526020016000206040518060600160405290816000820154815260200160018201548152602001600282018054600181600116156101000203166002900480601f016020809104026020016040519081016040528092919081815260200182805460018160011615610100020316600290048015610c065780601f10610bdb57610100808354040283529160200191610c06565b820191906000526020600020905b815481529060010190602001808311610be957829003601f168201915b5050505050815250509050919050565b6001546001600160a01b03163314610c405760405162461bcd60e51b815260040161042b906123cd565b600580546001600160a01b0319166001600160a01b0392909216919091179055565b6001546001600160a01b031690565b6001546001600160a01b03163314610c9b5760405162461bcd60e51b815260040161042b906123cd565b610ca78484848461134b565b50505050565b6001546001600160a01b03163314610cd75760405162461bcd60e51b815260040161042b906123cd565b600280546001600160a01b0319166001600160a01b0392909216919091179055565b600098975050505050505050565b6000610d116114aa565b905090565b6000610a9383836110dd565b63bc197c8160e01b9695505050505050565b6001546001600160a01b031615610d5d5760405162461bcd60e51b815260040161042b906125ae565b600180546001600160a01b03199081166001600160a01b03938416179091556004805482169783169790971790965560058054871695821695909517909455600692909255600380548516918416919091179055600280549093169116179055565b6001600160a01b038316610de55760405162461bcd60e51b815260040161042b90612404565b6040516370a0823160e01b815281906001600160a01b038416906370a0823190610e13903090600401612250565b60206040518083038186803b158015610e2b57600080fd5b505afa158015610e3f573d6000803e3d6000fd5b505050506040513d601f19601f82011682018060405250810190610e63919061215f565b1061043f57610e7c6001600160a01b038316848361152b565b816001600160a01b0316836001600160a01b03167f6c9d637297625e945b296ff73a71fcfbd0a9e062652b6491a921c4c60194176b83604051610ebf91906126ba565b60405180910390a3505050565b610ca7846323b872dd60e01b858585604051602401610eed93929190612264565b60408051601f198184030181529190526020810180516001600160e01b03166001600160e01b03199093169290921790915261154a565b6001600160a01b038316610f4a5760405162461bcd60e51b815260040161042b90612404565b6040516331a9108f60e11b815230906001600160a01b03841690636352211e90610f789085906004016126ba565b60206040518083038186803b158015610f9057600080fd5b505afa158015610fa4573d6000803e3d6000fd5b505050506040513d601f19601f82011682018060405250810190610fc89190611cce565b6001600160a01b0316141561043f576040516323b872dd60e01b81526001600160a01b038316906323b872dd9061100790309087908690600401612264565b600060405180830381600087803b15801561102157600080fd5b505af1158015611035573d6000803e3d6000fd5b5050505080826001600160a01b0316846001600160a01b03167ffefe036cac4ee3a4aca074a81cbcc4376e1484693289078dbec149c890101d5b60405160405180910390a4505050565b6000828260405160200161109492919061220f565b60408051601f1981840301815291905280516020909101209392505050565b600260005414156110d65760405162461bcd60e51b815260040161042b90612625565b6002600055565b6000806110e9836115d9565b905060006110f785836115ff565b905061110281611797565b95945050505050565b600082820183811015610a935760405162461bcd60e51b815260040161042b90612427565b6000806111466001600160a01b0385168461107f565b60008181526007602052604080822090516331a9108f60e11b8152929350916001600160a01b03871690636352211e906111849088906004016126ba565b60206040518083038186803b15801561119c57600080fd5b505afa1580156111b0573d6000803e3d6000fd5b505050506040513d601f19601f820116820180604052508101906111d49190611cce565b90508160010154935060006111e76114aa565b905060008186116111f9576000611203565b6112038683611828565b90508015611242576112158682611828565b6040519096507f9fc735fd421d3eb45362ea6d0d94945975bce33842b1bc94840719e66d937e4790600090a15b60018401819055851561126657600554611266906001600160a01b0316848861152b565b826001600160a01b0316886001600160a01b03167fb918e5bcd5ce5aadd59ae96fe4c568669afc7af190dbf16061540816cb407c738989856040516112ad939291906126fc565b60405180910390a3505050505092915050565b6001600055565b6001600160a01b0382166112ed5760405162461bcd60e51b815260040161042b90612404565b804710610ace576113076001600160a01b0383168261186a565b816001600160a01b03167eddb683bb45cd5d0ad8a200c6fae7152b1c236ee90a4a37db692407f5cc38bd8260405161133f91906126ba565b60405180910390a25050565b6001600160a01b0384166113715760405162461bcd60e51b815260040161042b90612404565b604051627eeac760e11b815281906001600160a01b0385169062fdd58e9061139f90309087906004016122c0565b60206040518083038186803b1580156113b757600080fd5b505afa1580156113cb573d6000803e3d6000fd5b505050506040513d601f19601f820116820180604052508101906113ef919061215f565b10610ca757604051637921219560e11b81526001600160a01b0384169063f242432a90611426903090889087908790600401612288565b600060405180830381600087803b15801561144057600080fd5b505af1158015611454573d6000803e3d6000fd5b5050505081836001600160a01b0316856001600160a01b03167f620337bf89eea2b9ae2657beead83b5fa620452817118348aff96e201d52598b8460405161149c91906126ba565b60405180910390a450505050565b6005546040516370a0823160e01b81526000916001600160a01b0316906370a08231906114db903090600401612250565b60206040518083038186803b1580156114f357600080fd5b505afa158015611507573d6000803e3d6000fd5b505050506040513d601f19601f82011682018060405250810190610d11919061215f565b61043f8363a9059cbb60e01b8484604051602401610eed9291906122c0565b606061159f826040518060400160405280602081526020017f5361666545524332303a206c6f772d6c6576656c2063616c6c206661696c6564815250856001600160a01b03166119069092919063ffffffff16565b80519091501561043f57808060200190518101906115bd91906120a8565b61043f5760405162461bcd60e51b815260040161042b906125db565b6000610afe6127106115f96004600201548561191d90919063ffffffff16565b90611957565b6000828152600760205260408120805461161c5782915050610afe565b611624611bf3565b60025460405163836c478d60e01b81526001600160a01b039091169063836c478d906116549088906004016126ba565b60606040518083038186803b15801561166c57600080fd5b505afa158015611680573d6000803e3d6000fd5b505050506040513d601f19601f820116820180604052508101906116a491906120f0565b80518354919250906000906116ba904390611828565b9050600080846040015111156116e457602084015160408501516116dd91611828565b90506116f7565b60208401516116f4904390611828565b90505b821580611702575080155b8061170b575081155b1561171d578695505050505050610afe565b818111156117285750805b600061173a836115f98461271061191d565b9050600061174e6127106115f98b8561191d565b9050600061176d6127106115f961176689606461191d565b859061191d565b9050600061177b8b84611828565b9050611787818361110b565b9c9b505050505050505050505050565b600480546040805163313ce56760e01b8152905160009384936001600160a01b03169263313ce5679281830192602092829003018186803b1580156117db57600080fd5b505afa1580156117ef573d6000803e3d6000fd5b505050506040513d601f19601f820116820180604052508101906118139190612198565b9050610a938360ff8316601203600a0a61191d565b6000610a9383836040518060400160405280601e81526020017f536166654d6174683a207375627472616374696f6e206f766572666c6f770000815250611999565b8047101561188a5760405162461bcd60e51b815260040161042b906124bb565b6000826001600160a01b0316826040516118a39061224d565b60006040518083038185875af1925050503d80600081146118e0576040519150601f19603f3d011682016040523d82523d6000602084013e6118e5565b606091505b505090508061043f5760405162461bcd60e51b815260040161042b9061245e565b606061191584846000856119c5565b949350505050565b60008261192c57506000610afe565b8282028284828161193957fe5b0414610a935760405162461bcd60e51b815260040161042b90612536565b6000610a9383836040518060400160405280601a81526020017f536166654d6174683a206469766973696f6e206279207a65726f000000000000815250611a89565b600081848411156119bd5760405162461bcd60e51b815260040161042b9190612330565b505050900390565b60606119d085611ac0565b6119ec5760405162461bcd60e51b815260040161042b90612577565b60006060866001600160a01b03168587604051611a099190612231565b60006040518083038185875af1925050503d8060008114611a46576040519150601f19603f3d011682016040523d82523d6000602084013e611a4b565b606091505b50915091508115611a5f5791506119159050565b805115611a6f5780518082602001fd5b8360405162461bcd60e51b815260040161042b9190612330565b60008183611aaa5760405162461bcd60e51b815260040161042b9190612330565b506000838581611ab657fe5b0495945050505050565b3b151590565b604080516060810182526000808252602082018190529181019190915290565b828054600181600116156101000203166002900490600052602060002090601f016020900481019282601f10611b275782800160ff19823516178555611b54565b82800160010185558215611b54579182015b82811115611b54578235825591602001919060010190611b39565b50611b60929150611c14565b5090565b828054600181600116156101000203166002900490600052602060002090601f016020900481019282601f10611ba557805160ff1916838001178555611b54565b82800160010185558215611b54579182015b82811115611b54578251825591602001919060010190611bb7565b60405180606001604052806000815260200160008152602001606081525090565b60405180606001604052806000815260200160008152602001600081525090565b5b80821115611b605760008155600101611c15565b60008083601f840112611c3a578182fd5b50813567ffffffffffffffff811115611c51578182fd5b6020830191508360208083028501011115611c6b57600080fd5b9250929050565b60008083601f840112611c83578182fd5b50813567ffffffffffffffff811115611c9a578182fd5b602083019150836020828501011115611c6b57600080fd5b600060208284031215611cc3578081fd5b8135610a938161274a565b600060208284031215611cdf578081fd5b8151610a938161274a565b600080600060608486031215611cfe578182fd5b8335611d098161274a565b92506020840135611d198161274a565b929592945050506040919091013590565b60008060008060808587031215611d3f578081fd5b8435611d4a8161274a565b93506020850135611d5a8161274a565b93969395505050506040820135916060013590565b60008060408385031215611d81578182fd5b8235611d8c8161274a565b946020939093013593505050565b60008060008060008060008060a0898b031215611db5578384fd5b8835611dc08161274a565b97506020890135611dd08161274a565b9650604089013567ffffffffffffffff80821115611dec578586fd5b611df88c838d01611c29565b909850965060608b0135915080821115611e10578586fd5b611e1c8c838d01611c29565b909650945060808b0135915080821115611e34578384fd5b50611e418b828c01611c72565b999c989b5096995094979396929594505050565b60008060008060008060c08789031215611e6d578182fd5b8635611e788161274a565b95506020870135611e888161274a565b9450604087013593506060870135611e9f8161274a565b92506080870135611eaf8161274a565b915060a0870135611ebf8161274a565b809150509295509295509295565b600080600080600060808688031215611ee4578081fd5b8535611eef8161274a565b94506020860135611eff8161274a565b935060408601359250606086013567ffffffffffffffff811115611f21578182fd5b611f2d88828901611c72565b969995985093965092949392505050565b60008060008060008060a08789031215611f56578384fd5b8635611f618161274a565b95506020870135611f718161274a565b94506040870135935060608701359250608087013567ffffffffffffffff811115611f9a578283fd5b611fa689828a01611c72565b979a9699509497509295939492505050565b60008060008060608587031215611fcd578182fd5b8435611fd88161274a565b935060208501359250604085013567ffffffffffffffff811115611ffa578283fd5b61200687828801611c72565b95989497509550505050565b600080600080600060808688031215612029578283fd5b85356120348161274a565b945060208601359350604086013567ffffffffffffffff811115612056578384fd5b61206288828901611c72565b96999598509660600135949350505050565b600080600060608486031215612088578081fd5b83356120938161274a565b95602085013595506040909401359392505050565b6000602082840312156120b9578081fd5b81518015158114610a93578182fd5b6000602082840312156120d9578081fd5b81356001600160e01b031981168114610a93578182fd5b600060608284031215612101578081fd5b6040516060810181811067ffffffffffffffff82111715612120578283fd5b80604052508251815260208301516020820152604083015160408201528091505092915050565b600060208284031215612158578081fd5b5035919050565b600060208284031215612170578081fd5b5051919050565b60008060408385031215612189578182fd5b50508035926020909101359150565b6000602082840312156121a9578081fd5b815160ff81168114610a93578182fd5b60008284528282602086013780602084860101526020601f19601f85011685010190509392505050565b600081518084526121fb81602086016020860161271e565b601f01601f19169290920160200192915050565b60609290921b6bffffffffffffffffffffffff19168252601482015260340190565b6000825161224381846020870161271e565b9190910192915050565b90565b6001600160a01b0391909116815260200190565b6001600160a01b039384168152919092166020820152604081019190915260600190565b6001600160a01b0394851681529290931660208301526040820152606081019190915260a06080820181905260009082015260c00190565b6001600160a01b03929092168252602082015260400190565b6001600160a01b0393841681526020810192909252909116604082015260600190565b901515815260200190565b6001600160e01b031991909116815260200190565b6000602082526119156020830184866121b9565b600060208252610a9360208301846121e3565b6000602080830181845282855460018082166000811461236a5760018114612388576123c0565b60028304607f16855260ff19831660408901526060880193506123c0565b600283048086526123988a612712565b885b828110156123b65781548b82016040015290840190880161239a565b8a01604001955050505b5091979650505050505050565b60208082526017908201527f43616c6c6572206973206e6f7420746865206f776e6572000000000000000000604082015260600190565b6020808252600990820152684248503a452d34303360b81b604082015260600190565b6020808252601b908201527f536166654d6174683a206164646974696f6e206f766572666c6f770000000000604082015260600190565b6020808252603a908201527f416464726573733a20756e61626c6520746f2073656e642076616c75652c207260408201527f6563697069656e74206d61792068617665207265766572746564000000000000606082015260800190565b6020808252601d908201527f416464726573733a20696e73756666696369656e742062616c616e6365000000604082015260600190565b6020808252600890820152670a4a0748a5a6260760c31b604082015260600190565b60208082526008908201526752503a452d34303560c01b604082015260600190565b60208082526021908201527f536166654d6174683a206d756c7469706c69636174696f6e206f766572666c6f6040820152607760f81b606082015260800190565b6020808252601d908201527f416464726573733a2063616c6c20746f206e6f6e2d636f6e7472616374000000604082015260600190565b602080825260139082015272105b1c9958591e481a5b9a5d1a585b1a5e9959606a1b604082015260600190565b6020808252602a908201527f5361666545524332303a204552433230206f7065726174696f6e20646964206e6040820152691bdd081cdd58d8d9595960b21b606082015260800190565b6020808252601f908201527f5265656e7472616e637947756172643a207265656e7472616e742063616c6c00604082015260600190565b6000602082528251602083015260208301516040830152604083015160608084015261191560808401826121e3565b81516001600160a01b039081168252602080840151909116908201526040918201519181019190915260600190565b90815260200190565b6000858252606060208301526126dd6060830185876121b9565b905082604083015295945050505050565b918252602082015260400190565b9283526020830191909152604082015260600190565b60009081526020902090565b60005b83811015612739578181015183820152602001612721565b83811115610ca75750506000910152565b6001600160a01b038116811461275f57600080fd5b5056fea264697066735822122089923bf05c0e88235caef82d9eb9c338dbdb5c9a300cc0b182773089e351721e64736f6c634300060c0033",
  "devdoc": {
    "kind": "dev",
    "methods": {
      "owner()": {
        "details": "Returns the address of the current owner."
      },
      "renounceOwnership()": {
        "details": "Leaves the contract without owner. It will not be possible to call `onlyOwner` functions anymore. Can only be called by the current owner. NOTE: Renouncing ownership will leave the contract without an owner, thereby removing any functionality that is only available to the owner."
      },
      "transferOwnership(address)": {
        "details": "Transfers ownership of the contract to a new account (`newOwner`). Can only be called by the current owner."
      }
    },
    "version": 1
  },
  "userdoc": {
    "kind": "user",
    "methods": {},
    "version": 1
  },
  "storageLayout": {
    "storage": [
      {
        "astId": 4406,
        "contract": "contracts/v1/incentives/RewardProgramFactory.sol:RewardProgramFactory",
        "label": "_owner",
        "offset": 0,
        "slot": "0",
        "type": "t_address"
      },
      {
        "astId": 19454,
        "contract": "contracts/v1/incentives/RewardProgramFactory.sol:RewardProgramFactory",
        "label": "_template",
        "offset": 0,
        "slot": "1",
        "type": "t_address"
      }
    ],
    "types": {
      "t_address": {
        "encoding": "inplace",
        "label": "address",
        "numberOfBytes": "20"
      }
    }
  }
}