{
  "_format": "hh-sol-artifact-1",
  "contractName": "ChargedState",
  "sourceName": "contracts/v1/ChargedState.sol",
  "abi": [
    {
      "anonymous": false,
      "inputs": [
        {
          "indexed": true,
          "internalType": "address",
          "name": "contractAddress",
          "type": "address"
        },
        {
          "indexed": true,
          "internalType": "uint256",
          "name": "tokenId",
          "type": "uint256"
        },
        {
          "indexed": true,
          "internalType": "address",
          "name": "owner",
          "type": "address"
        },
        {
          "indexed": false,
          "internalType": "address",
          "name": "operator",
          "type": "address"
        }
      ],
      "name": "BreakBondApproval",
      "type": "event"
    },
    {
      "anonymous": false,
      "inputs": [
        {
          "indexed": true,
          "internalType": "address",
          "name": "controllerAddress",
          "type": "address"
        },
        {
          "indexed": false,
          "internalType": "string",
          "name": "controllerId",
          "type": "string"
        }
      ],
      "name": "ControllerSet",
      "type": "event"
    },
    {
      "anonymous": false,
      "inputs": [
        {
          "indexed": true,
          "internalType": "address",
          "name": "contractAddress",
          "type": "address"
        },
        {
          "indexed": true,
          "internalType": "uint256",
          "name": "tokenId",
          "type": "uint256"
        },
        {
          "indexed": true,
          "internalType": "address",
          "name": "owner",
          "type": "address"
        },
        {
          "indexed": false,
          "internalType": "address",
          "name": "operator",
          "type": "address"
        }
      ],
      "name": "DischargeApproval",
      "type": "event"
    },
    {
      "anonymous": false,
      "inputs": [
        {
          "indexed": true,
          "internalType": "address",
          "name": "initiator",
          "type": "address"
        }
      ],
      "name": "Initialized",
      "type": "event"
    },
    {
      "anonymous": false,
      "inputs": [
        {
          "indexed": true,
          "internalType": "address",
          "name": "previousOwner",
          "type": "address"
        },
        {
          "indexed": true,
          "internalType": "address",
          "name": "newOwner",
          "type": "address"
        }
      ],
      "name": "OwnershipTransferred",
      "type": "event"
    },
    {
      "anonymous": false,
      "inputs": [
        {
          "indexed": true,
          "internalType": "address",
          "name": "contractAddress",
          "type": "address"
        },
        {
          "indexed": true,
          "internalType": "uint256",
          "name": "tokenId",
          "type": "uint256"
        },
        {
          "indexed": false,
          "internalType": "bool",
          "name": "state",
          "type": "bool"
        }
      ],
      "name": "PermsSetForAllowBreakBond",
      "type": "event"
    },
    {
      "anonymous": false,
      "inputs": [
        {
          "indexed": true,
          "internalType": "address",
          "name": "contractAddress",
          "type": "address"
        },
        {
          "indexed": true,
          "internalType": "uint256",
          "name": "tokenId",
          "type": "uint256"
        },
        {
          "indexed": false,
          "internalType": "bool",
          "name": "state",
          "type": "bool"
        }
      ],
      "name": "PermsSetForAllowDischarge",
      "type": "event"
    },
    {
      "anonymous": false,
      "inputs": [
        {
          "indexed": true,
          "internalType": "address",
          "name": "contractAddress",
          "type": "address"
        },
        {
          "indexed": true,
          "internalType": "uint256",
          "name": "tokenId",
          "type": "uint256"
        },
        {
          "indexed": false,
          "internalType": "bool",
          "name": "state",
          "type": "bool"
        }
      ],
      "name": "PermsSetForAllowRelease",
      "type": "event"
    },
    {
      "anonymous": false,
      "inputs": [
        {
          "indexed": true,
          "internalType": "address",
          "name": "contractAddress",
          "type": "address"
        },
        {
          "indexed": true,
          "internalType": "uint256",
          "name": "tokenId",
          "type": "uint256"
        },
        {
          "indexed": false,
          "internalType": "bool",
          "name": "state",
          "type": "bool"
        }
      ],
      "name": "PermsSetForRestrictBond",
      "type": "event"
    },
    {
      "anonymous": false,
      "inputs": [
        {
          "indexed": true,
          "internalType": "address",
          "name": "contractAddress",
          "type": "address"
        },
        {
          "indexed": true,
          "internalType": "uint256",
          "name": "tokenId",
          "type": "uint256"
        },
        {
          "indexed": false,
          "internalType": "bool",
          "name": "state",
          "type": "bool"
        }
      ],
      "name": "PermsSetForRestrictCharge",
      "type": "event"
    },
    {
      "anonymous": false,
      "inputs": [
        {
          "indexed": true,
          "internalType": "address",
          "name": "contractAddress",
          "type": "address"
        },
        {
          "indexed": true,
          "internalType": "uint256",
          "name": "tokenId",
          "type": "uint256"
        },
        {
          "indexed": true,
          "internalType": "address",
          "name": "owner",
          "type": "address"
        },
        {
          "indexed": false,
          "internalType": "address",
          "name": "operator",
          "type": "address"
        }
      ],
      "name": "ReleaseApproval",
      "type": "event"
    },
    {
      "anonymous": false,
      "inputs": [
        {
          "indexed": true,
          "internalType": "address",
          "name": "contractAddress",
          "type": "address"
        },
        {
          "indexed": true,
          "internalType": "uint256",
          "name": "tokenId",
          "type": "uint256"
        },
        {
          "indexed": true,
          "internalType": "address",
          "name": "owner",
          "type": "address"
        },
        {
          "indexed": false,
          "internalType": "address",
          "name": "operator",
          "type": "address"
        }
      ],
      "name": "TimelockApproval",
      "type": "event"
    },
    {
      "anonymous": false,
      "inputs": [
        {
          "indexed": true,
          "internalType": "address",
          "name": "contractAddress",
          "type": "address"
        },
        {
          "indexed": true,
          "internalType": "uint256",
          "name": "tokenId",
          "type": "uint256"
        },
        {
          "indexed": true,
          "internalType": "address",
          "name": "operator",
          "type": "address"
        },
        {
          "indexed": false,
          "internalType": "uint256",
          "name": "unlockBlock",
          "type": "uint256"
        }
      ],
      "name": "TokenBreakBondTimelock",
      "type": "event"
    },
    {
      "anonymous": false,
      "inputs": [
        {
          "indexed": true,
          "internalType": "address",
          "name": "contractAddress",
          "type": "address"
        },
        {
          "indexed": true,
          "internalType": "uint256",
          "name": "tokenId",
          "type": "uint256"
        },
        {
          "indexed": true,
          "internalType": "address",
          "name": "operator",
          "type": "address"
        },
        {
          "indexed": false,
          "internalType": "uint256",
          "name": "unlockBlock",
          "type": "uint256"
        }
      ],
      "name": "TokenDischargeTimelock",
      "type": "event"
    },
    {
      "anonymous": false,
      "inputs": [
        {
          "indexed": true,
          "internalType": "address",
          "name": "contractAddress",
          "type": "address"
        },
        {
          "indexed": true,
          "internalType": "uint256",
          "name": "tokenId",
          "type": "uint256"
        },
        {
          "indexed": true,
          "internalType": "address",
          "name": "operator",
          "type": "address"
        },
        {
          "indexed": false,
          "internalType": "uint256",
          "name": "unlockBlock",
          "type": "uint256"
        }
      ],
      "name": "TokenReleaseTimelock",
      "type": "event"
    },
    {
      "anonymous": false,
      "inputs": [
        {
          "indexed": true,
          "internalType": "address",
          "name": "contractAddress",
          "type": "address"
        },
        {
          "indexed": true,
          "internalType": "uint256",
          "name": "tokenId",
          "type": "uint256"
        },
        {
          "indexed": false,
          "internalType": "uint256",
          "name": "unlockBlock",
          "type": "uint256"
        }
      ],
      "name": "TokenTempLock",
      "type": "event"
    },
    {
      "anonymous": false,
      "inputs": [
        {
          "indexed": true,
          "internalType": "address",
          "name": "receiver",
          "type": "address"
        },
        {
          "indexed": true,
          "internalType": "address",
          "name": "tokenAddress",
          "type": "address"
        },
        {
          "indexed": true,
          "internalType": "uint256",
          "name": "tokenId",
          "type": "uint256"
        },
        {
          "indexed": false,
          "internalType": "uint256",
          "name": "amount",
          "type": "uint256"
        }
      ],
      "name": "WithdrawStuckERC1155",
      "type": "event"
    },
    {
      "anonymous": false,
      "inputs": [
        {
          "indexed": true,
          "internalType": "address",
          "name": "receiver",
          "type": "address"
        },
        {
          "indexed": true,
          "internalType": "address",
          "name": "tokenAddress",
          "type": "address"
        },
        {
          "indexed": false,
          "internalType": "uint256",
          "name": "amount",
          "type": "uint256"
        }
      ],
      "name": "WithdrawStuckERC20",
      "type": "event"
    },
    {
      "anonymous": false,
      "inputs": [
        {
          "indexed": true,
          "internalType": "address",
          "name": "receiver",
          "type": "address"
        },
        {
          "indexed": true,
          "internalType": "address",
          "name": "tokenAddress",
          "type": "address"
        },
        {
          "indexed": true,
          "internalType": "uint256",
          "name": "tokenId",
          "type": "uint256"
        }
      ],
      "name": "WithdrawStuckERC721",
      "type": "event"
    },
    {
      "anonymous": false,
      "inputs": [
        {
          "indexed": true,
          "internalType": "address",
          "name": "receiver",
          "type": "address"
        },
        {
          "indexed": false,
          "internalType": "uint256",
          "name": "amount",
          "type": "uint256"
        }
      ],
      "name": "WithdrawStuckEther",
      "type": "event"
    },
    {
      "inputs": [
        {
          "internalType": "address",
          "name": "contractAddress",
          "type": "address"
        },
        {
          "internalType": "uint256",
          "name": "tokenId",
          "type": "uint256"
        },
        {
          "internalType": "address",
          "name": "sender",
          "type": "address"
        }
      ],
      "name": "getBreakBondState",
      "outputs": [
        {
          "internalType": "bool",
          "name": "allowFromAll",
          "type": "bool"
        },
        {
          "internalType": "bool",
          "name": "isApproved",
          "type": "bool"
        },
        {
          "internalType": "uint256",
          "name": "timelock",
          "type": "uint256"
        },
        {
          "internalType": "uint256",
          "name": "tempLockExpiry",
          "type": "uint256"
        }
      ],
      "stateMutability": "nonpayable",
      "type": "function"
    },
    {
      "inputs": [
        {
          "internalType": "address",
          "name": "contractAddress",
          "type": "address"
        },
        {
          "internalType": "uint256",
          "name": "tokenId",
          "type": "uint256"
        }
      ],
      "name": "getBreakBondTimelockExpiry",
      "outputs": [
        {
          "internalType": "uint256",
          "name": "lockExpiry",
          "type": "uint256"
        }
      ],
      "stateMutability": "view",
      "type": "function"
    },
    {
      "inputs": [
        {
          "internalType": "address",
          "name": "contractAddress",
          "type": "address"
        },
        {
          "internalType": "uint256",
          "name": "tokenId",
          "type": "uint256"
        },
        {
          "internalType": "address",
          "name": "sender",
          "type": "address"
        }
      ],
      "name": "getDischargeState",
      "outputs": [
        {
          "internalType": "bool",
          "name": "allowFromAll",
          "type": "bool"
        },
        {
          "internalType": "bool",
          "name": "isApproved",
          "type": "bool"
        },
        {
          "internalType": "uint256",
          "name": "timelock",
          "type": "uint256"
        },
        {
          "internalType": "uint256",
          "name": "tempLockExpiry",
          "type": "uint256"
        }
      ],
      "stateMutability": "nonpayable",
      "type": "function"
    },
    {
      "inputs": [
        {
          "internalType": "address",
          "name": "contractAddress",
          "type": "address"
        },
        {
          "internalType": "uint256",
          "name": "tokenId",
          "type": "uint256"
        }
      ],
      "name": "getDischargeTimelockExpiry",
      "outputs": [
        {
          "internalType": "uint256",
          "name": "lockExpiry",
          "type": "uint256"
        }
      ],
      "stateMutability": "view",
      "type": "function"
    },
    {
      "inputs": [
        {
          "internalType": "address",
          "name": "contractAddress",
          "type": "address"
        },
        {
          "internalType": "uint256",
          "name": "tokenId",
          "type": "uint256"
        },
        {
          "internalType": "address",
          "name": "sender",
          "type": "address"
        }
      ],
      "name": "getReleaseState",
      "outputs": [
        {
          "internalType": "bool",
          "name": "allowFromAll",
          "type": "bool"
        },
        {
          "internalType": "bool",
          "name": "isApproved",
          "type": "bool"
        },
        {
          "internalType": "uint256",
          "name": "timelock",
          "type": "uint256"
        },
        {
          "internalType": "uint256",
          "name": "tempLockExpiry",
          "type": "uint256"
        }
      ],
      "stateMutability": "nonpayable",
      "type": "function"
    },
    {
      "inputs": [
        {
          "internalType": "address",
          "name": "contractAddress",
          "type": "address"
        },
        {
          "internalType": "uint256",
          "name": "tokenId",
          "type": "uint256"
        }
      ],
      "name": "getReleaseTimelockExpiry",
      "outputs": [
        {
          "internalType": "uint256",
          "name": "lockExpiry",
          "type": "uint256"
        }
      ],
      "stateMutability": "view",
      "type": "function"
    },
    {
      "inputs": [
        {
          "internalType": "address",
          "name": "initiator",
          "type": "address"
        }
      ],
      "name": "initialize",
      "outputs": [],
      "stateMutability": "nonpayable",
      "type": "function"
    },
    {
      "inputs": [
        {
          "internalType": "address",
          "name": "contractAddress",
          "type": "address"
        },
        {
          "internalType": "uint256",
          "name": "tokenId",
          "type": "uint256"
        },
        {
          "internalType": "address",
          "name": "operator",
          "type": "address"
        }
      ],
      "name": "isApprovedForBreakBond",
      "outputs": [
        {
          "internalType": "bool",
          "name": "",
          "type": "bool"
        }
      ],
      "stateMutability": "nonpayable",
      "type": "function"
    },
    {
      "inputs": [
        {
          "internalType": "address",
          "name": "contractAddress",
          "type": "address"
        },
        {
          "internalType": "uint256",
          "name": "tokenId",
          "type": "uint256"
        },
        {
          "internalType": "address",
          "name": "operator",
          "type": "address"
        }
      ],
      "name": "isApprovedForDischarge",
      "outputs": [
        {
          "internalType": "bool",
          "name": "",
          "type": "bool"
        }
      ],
      "stateMutability": "nonpayable",
      "type": "function"
    },
    {
      "inputs": [
        {
          "internalType": "address",
          "name": "contractAddress",
          "type": "address"
        },
        {
          "internalType": "uint256",
          "name": "tokenId",
          "type": "uint256"
        },
        {
          "internalType": "address",
          "name": "operator",
          "type": "address"
        }
      ],
      "name": "isApprovedForRelease",
      "outputs": [
        {
          "internalType": "bool",
          "name": "",
          "type": "bool"
        }
      ],
      "stateMutability": "nonpayable",
      "type": "function"
    },
    {
      "inputs": [
        {
          "internalType": "address",
          "name": "contractAddress",
          "type": "address"
        },
        {
          "internalType": "uint256",
          "name": "tokenId",
          "type": "uint256"
        },
        {
          "internalType": "address",
          "name": "operator",
          "type": "address"
        }
      ],
      "name": "isApprovedForTimelock",
      "outputs": [
        {
          "internalType": "bool",
          "name": "",
          "type": "bool"
        }
      ],
      "stateMutability": "nonpayable",
      "type": "function"
    },
    {
      "inputs": [
        {
          "internalType": "address",
          "name": "contractAddress",
          "type": "address"
        },
        {
          "internalType": "uint256",
          "name": "tokenId",
          "type": "uint256"
        }
      ],
      "name": "isCovalentBondRestricted",
      "outputs": [
        {
          "internalType": "bool",
          "name": "",
          "type": "bool"
        }
      ],
      "stateMutability": "view",
      "type": "function"
    },
    {
      "inputs": [
        {
          "internalType": "address",
          "name": "contractAddress",
          "type": "address"
        },
        {
          "internalType": "uint256",
          "name": "tokenId",
          "type": "uint256"
        }
      ],
      "name": "isEnergizeRestricted",
      "outputs": [
        {
          "internalType": "bool",
          "name": "",
          "type": "bool"
        }
      ],
      "stateMutability": "view",
      "type": "function"
    },
    {
      "inputs": [
        {
          "internalType": "address",
          "name": "forwarder",
          "type": "address"
        }
      ],
      "name": "isTrustedForwarder",
      "outputs": [
        {
          "internalType": "bool",
          "name": "",
          "type": "bool"
        }
      ],
      "stateMutability": "view",
      "type": "function"
    },
    {
      "inputs": [
        {
          "internalType": "address",
          "name": "contractAddress",
          "type": "address"
        },
        {
          "internalType": "uint256",
          "name": "tokenId",
          "type": "uint256"
        },
        {
          "internalType": "uint256",
          "name": "releaseTimelockExpiry",
          "type": "uint256"
        },
        {
          "internalType": "address",
          "name": "releaseTimelockLockedBy",
          "type": "address"
        },
        {
          "internalType": "uint256",
          "name": "tempLockExpiry",
          "type": "uint256"
        }
      ],
      "name": "migrateToken",
      "outputs": [],
      "stateMutability": "nonpayable",
      "type": "function"
    },
    {
      "inputs": [],
      "name": "owner",
      "outputs": [
        {
          "internalType": "address",
          "name": "",
          "type": "address"
        }
      ],
      "stateMutability": "view",
      "type": "function"
    },
    {
      "inputs": [],
      "name": "renounceOwnership",
      "outputs": [],
      "stateMutability": "nonpayable",
      "type": "function"
    },
    {
      "inputs": [
        {
          "internalType": "address",
          "name": "contractAddress",
          "type": "address"
        },
        {
          "internalType": "uint256",
          "name": "tokenId",
          "type": "uint256"
        },
        {
          "internalType": "address",
          "name": "operator",
          "type": "address"
        }
      ],
      "name": "setApprovalForAll",
      "outputs": [],
      "stateMutability": "nonpayable",
      "type": "function"
    },
    {
      "inputs": [
        {
          "internalType": "address",
          "name": "contractAddress",
          "type": "address"
        },
        {
          "internalType": "uint256",
          "name": "tokenId",
          "type": "uint256"
        },
        {
          "internalType": "address",
          "name": "operator",
          "type": "address"
        }
      ],
      "name": "setBreakBondApproval",
      "outputs": [],
      "stateMutability": "nonpayable",
      "type": "function"
    },
    {
      "inputs": [
        {
          "internalType": "address",
          "name": "contractAddress",
          "type": "address"
        },
        {
          "internalType": "uint256",
          "name": "tokenId",
          "type": "uint256"
        },
        {
          "internalType": "uint256",
          "name": "unlockBlock",
          "type": "uint256"
        }
      ],
      "name": "setBreakBondTimelock",
      "outputs": [],
      "stateMutability": "nonpayable",
      "type": "function"
    },
    {
      "inputs": [
        {
          "internalType": "address",
          "name": "controller",
          "type": "address"
        },
        {
          "internalType": "string",
          "name": "controllerId",
          "type": "string"
        }
      ],
      "name": "setController",
      "outputs": [],
      "stateMutability": "nonpayable",
      "type": "function"
    },
    {
      "inputs": [
        {
          "internalType": "address",
          "name": "contractAddress",
          "type": "address"
        },
        {
          "internalType": "uint256",
          "name": "tokenId",
          "type": "uint256"
        },
        {
          "internalType": "address",
          "name": "operator",
          "type": "address"
        }
      ],
      "name": "setDischargeApproval",
      "outputs": [],
      "stateMutability": "nonpayable",
      "type": "function"
    },
    {
      "inputs": [
        {
          "internalType": "address",
          "name": "contractAddress",
          "type": "address"
        },
        {
          "internalType": "uint256",
          "name": "tokenId",
          "type": "uint256"
        },
        {
          "internalType": "uint256",
          "name": "unlockBlock",
          "type": "uint256"
        }
      ],
      "name": "setDischargeTimelock",
      "outputs": [],
      "stateMutability": "nonpayable",
      "type": "function"
    },
    {
      "inputs": [
        {
          "internalType": "address",
          "name": "contractAddress",
          "type": "address"
        },
        {
          "internalType": "uint256",
          "name": "tokenId",
          "type": "uint256"
        },
        {
          "internalType": "bool",
          "name": "state",
          "type": "bool"
        }
      ],
      "name": "setPermsForAllowBreakBond",
      "outputs": [],
      "stateMutability": "nonpayable",
      "type": "function"
    },
    {
      "inputs": [
        {
          "internalType": "address",
          "name": "contractAddress",
          "type": "address"
        },
        {
          "internalType": "uint256",
          "name": "tokenId",
          "type": "uint256"
        },
        {
          "internalType": "bool",
          "name": "state",
          "type": "bool"
        }
      ],
      "name": "setPermsForAllowDischarge",
      "outputs": [],
      "stateMutability": "nonpayable",
      "type": "function"
    },
    {
      "inputs": [
        {
          "internalType": "address",
          "name": "contractAddress",
          "type": "address"
        },
        {
          "internalType": "uint256",
          "name": "tokenId",
          "type": "uint256"
        },
        {
          "internalType": "bool",
          "name": "state",
          "type": "bool"
        }
      ],
      "name": "setPermsForAllowRelease",
      "outputs": [],
      "stateMutability": "nonpayable",
      "type": "function"
    },
    {
      "inputs": [
        {
          "internalType": "address",
          "name": "contractAddress",
          "type": "address"
        },
        {
          "internalType": "uint256",
          "name": "tokenId",
          "type": "uint256"
        },
        {
          "internalType": "bool",
          "name": "state",
          "type": "bool"
        }
      ],
      "name": "setPermsForRestrictBond",
      "outputs": [],
      "stateMutability": "nonpayable",
      "type": "function"
    },
    {
      "inputs": [
        {
          "internalType": "address",
          "name": "contractAddress",
          "type": "address"
        },
        {
          "internalType": "uint256",
          "name": "tokenId",
          "type": "uint256"
        },
        {
          "internalType": "bool",
          "name": "state",
          "type": "bool"
        }
      ],
      "name": "setPermsForRestrictCharge",
      "outputs": [],
      "stateMutability": "nonpayable",
      "type": "function"
    },
    {
      "inputs": [
        {
          "internalType": "address",
          "name": "contractAddress",
          "type": "address"
        },
        {
          "internalType": "uint256",
          "name": "tokenId",
          "type": "uint256"
        },
        {
          "internalType": "address",
          "name": "operator",
          "type": "address"
        }
      ],
      "name": "setReleaseApproval",
      "outputs": [],
      "stateMutability": "nonpayable",
      "type": "function"
    },
    {
      "inputs": [
        {
          "internalType": "address",
          "name": "contractAddress",
          "type": "address"
        },
        {
          "internalType": "uint256",
          "name": "tokenId",
          "type": "uint256"
        },
        {
          "internalType": "uint256",
          "name": "unlockBlock",
          "type": "uint256"
        }
      ],
      "name": "setReleaseTimelock",
      "outputs": [],
      "stateMutability": "nonpayable",
      "type": "function"
    },
    {
      "inputs": [
        {
          "internalType": "address",
          "name": "contractAddress",
          "type": "address"
        },
        {
          "internalType": "uint256",
          "name": "tokenId",
          "type": "uint256"
        },
        {
          "internalType": "bool",
          "name": "isLocked",
          "type": "bool"
        }
      ],
      "name": "setTemporaryLock",
      "outputs": [],
      "stateMutability": "nonpayable",
      "type": "function"
    },
    {
      "inputs": [
        {
          "internalType": "address",
          "name": "contractAddress",
          "type": "address"
        },
        {
          "internalType": "uint256",
          "name": "tokenId",
          "type": "uint256"
        },
        {
          "internalType": "address",
          "name": "operator",
          "type": "address"
        }
      ],
      "name": "setTimelockApproval",
      "outputs": [],
      "stateMutability": "nonpayable",
      "type": "function"
    },
    {
      "inputs": [
        {
          "internalType": "address",
          "name": "newOwner",
          "type": "address"
        }
      ],
      "name": "transferOwnership",
      "outputs": [],
      "stateMutability": "nonpayable",
      "type": "function"
    },
    {
      "inputs": [],
      "name": "trustedForwarder",
      "outputs": [
        {
          "internalType": "address",
          "name": "",
          "type": "address"
        }
      ],
      "stateMutability": "view",
      "type": "function"
    },
    {
      "inputs": [],
      "name": "versionRecipient",
      "outputs": [
        {
          "internalType": "string",
          "name": "",
          "type": "string"
        }
      ],
      "stateMutability": "view",
      "type": "function"
    },
    {
      "inputs": [
        {
          "internalType": "address payable",
          "name": "receiver",
          "type": "address"
        },
        {
          "internalType": "address",
          "name": "tokenAddress",
          "type": "address"
        },
        {
          "internalType": "uint256",
          "name": "tokenId",
          "type": "uint256"
        },
        {
          "internalType": "uint256",
          "name": "amount",
          "type": "uint256"
        }
      ],
      "name": "withdrawERC1155",
      "outputs": [],
      "stateMutability": "nonpayable",
      "type": "function"
    },
    {
      "inputs": [
        {
          "internalType": "address payable",
          "name": "receiver",
          "type": "address"
        },
        {
          "internalType": "address",
          "name": "tokenAddress",
          "type": "address"
        },
        {
          "internalType": "uint256",
          "name": "tokenId",
          "type": "uint256"
        }
      ],
      "name": "withdrawERC721",
      "outputs": [],
      "stateMutability": "nonpayable",
      "type": "function"
    },
    {
      "inputs": [
        {
          "internalType": "address payable",
          "name": "receiver",
          "type": "address"
        },
        {
          "internalType": "address",
          "name": "tokenAddress",
          "type": "address"
        },
        {
          "internalType": "uint256",
          "name": "amount",
          "type": "uint256"
        }
      ],
      "name": "withdrawErc20",
      "outputs": [],
      "stateMutability": "nonpayable",
      "type": "function"
    },
    {
      "inputs": [
        {
          "internalType": "address payable",
          "name": "receiver",
          "type": "address"
        },
        {
          "internalType": "uint256",
          "name": "amount",
          "type": "uint256"
        }
      ],
      "name": "withdrawEther",
      "outputs": [],
      "stateMutability": "nonpayable",
      "type": "function"
    }
  ],
  "bytecode": "0x608060405234801561001057600080fd5b50616f0280620000216000396000f3fe608060405234801561001057600080fd5b506004361061023d5760003560e01c80637d2c51661161013b578063a0edb48b116100b8578063d4a0195f1161007c578063d4a0195f14610fee578063d4bf57f11461105c578063d4bf9916146110f7578063f2fde38b14611151578063fcedc4f0146111955761023d565b8063a0edb48b14610da7578063ab29642114610e1f578063bd3d500614610e8d578063c4d66de814610f28578063c8c04e0514610f6c5761023d565b80638da5cb5b116100ff5780638da5cb5b14610c035780639079900114610c37578063976bd5f714610c8f5780639abeceab14610cf35780639b9f2c9f14610d4d5761023d565b80637d2c516614610a375780637da0a87714610a99578063807c568914610acd57806387cb154c14610b3b578063887ed28414610b955761023d565b8063522f6815116101c95780635d5942cb1161018d5780635d5942cb1461085057806364d95cbc146108eb5780636cc61e161461094f57806370f84fbc146109d3578063715018a614610a2d5761023d565b8063522f68151461060757806355f0ab2114610655578063572b6c05146106d95780635a797f01146107335780635d00020d146107cc5761023d565b80632ed47e59116102105780632ed47e59146103d8578063332340be1461043a5780634025feb2146104925780634677b99a14610500578063486ff0cd146105845761023d565b8063090003d21461024257806313682c711461029a5780631593dee11461030857806315cedecd14610376575b600080fd5b6102986004803603606081101561025857600080fd5b81019080803573ffffffffffffffffffffffffffffffffffffffff16906020019092919080359060200190929190803590602001909291905050506111ef565b005b610306600480360360608110156102b057600080fd5b81019080803573ffffffffffffffffffffffffffffffffffffffff16906020019092919080359060200190929190803573ffffffffffffffffffffffffffffffffffffffff1690602001909291905050506114cb565b005b6103746004803603606081101561031e57600080fd5b81019080803573ffffffffffffffffffffffffffffffffffffffff169060200190929190803573ffffffffffffffffffffffffffffffffffffffff169060200190929190803590602001909291905050506117bc565b005b6103c26004803603604081101561038c57600080fd5b81019080803573ffffffffffffffffffffffffffffffffffffffff1690602001909291908035906020019092919050505061187b565b6040518082815260200191505060405180910390f35b610424600480360360408110156103ee57600080fd5b81019080803573ffffffffffffffffffffffffffffffffffffffff16906020019092919080359060200190929190505050611932565b6040518082815260200191505060405180910390f35b6104906004803603606081101561045057600080fd5b81019080803573ffffffffffffffffffffffffffffffffffffffff16906020019092919080359060200190929190803590602001909291905050506119e9565b005b6104fe600480360360608110156104a857600080fd5b81019080803573ffffffffffffffffffffffffffffffffffffffff169060200190929190803573ffffffffffffffffffffffffffffffffffffffff16906020019092919080359060200190929190505050611cc5565b005b61056c6004803603606081101561051657600080fd5b81019080803573ffffffffffffffffffffffffffffffffffffffff16906020019092919080359060200190929190803573ffffffffffffffffffffffffffffffffffffffff169060200190929190505050611d84565b60405180821515815260200191505060405180910390f35b61058c611d9a565b6040518080602001828103825283818151815260200191508051906020019080838360005b838110156105cc5780820151818401526020810190506105b1565b50505050905090810190601f1680156105f95780820380516001836020036101000a031916815260200191505b509250505060405180910390f35b6106536004803603604081101561061d57600080fd5b81019080803573ffffffffffffffffffffffffffffffffffffffff16906020019092919080359060200190929190505050611dba565b005b6106c16004803603606081101561066b57600080fd5b81019080803573ffffffffffffffffffffffffffffffffffffffff16906020019092919080359060200190929190803573ffffffffffffffffffffffffffffffffffffffff169060200190929190505050611e77565b60405180821515815260200191505060405180910390f35b61071b600480360360208110156106ef57600080fd5b81019080803573ffffffffffffffffffffffffffffffffffffffff169060200190929190505050611e8d565b60405180821515815260200191505060405180910390f35b6107ca6004803603604081101561074957600080fd5b81019080803573ffffffffffffffffffffffffffffffffffffffff1690602001909291908035906020019064010000000081111561078657600080fd5b82018360208201111561079857600080fd5b803590602001918460018302840111640100000000831117156107ba57600080fd5b9091929391929390505050611ee7565b005b610838600480360360608110156107e257600080fd5b81019080803573ffffffffffffffffffffffffffffffffffffffff16906020019092919080359060200190929190803573ffffffffffffffffffffffffffffffffffffffff16906020019092919050505061216f565b60405180821515815260200191505060405180910390f35b6108bc6004803603606081101561086657600080fd5b81019080803573ffffffffffffffffffffffffffffffffffffffff16906020019092919080359060200190929190803573ffffffffffffffffffffffffffffffffffffffff169060200190929190505050612185565b604051808515158152602001841515815260200183815260200182815260200194505050505060405180910390f35b6109376004803603604081101561090157600080fd5b81019080803573ffffffffffffffffffffffffffffffffffffffff1690602001909291908035906020019092919050505061223a565b60405180821515815260200191505060405180910390f35b6109bb6004803603606081101561096557600080fd5b81019080803573ffffffffffffffffffffffffffffffffffffffff16906020019092919080359060200190929190803573ffffffffffffffffffffffffffffffffffffffff1690602001909291905050506122ae565b60405180821515815260200191505060405180910390f35b610a2b600480360360608110156109e957600080fd5b81019080803573ffffffffffffffffffffffffffffffffffffffff169060200190929190803590602001909291908035151590602001909291905050506122c4565b005b610a3561243f565b005b610a8360048036036040811015610a4d57600080fd5b81019080803573ffffffffffffffffffffffffffffffffffffffff169060200190929190803590602001909291905050506125af565b6040518082815260200191505060405180910390f35b610aa1612666565b604051808273ffffffffffffffffffffffffffffffffffffffff16815260200191505060405180910390f35b610b3960048036036060811015610ae357600080fd5b81019080803573ffffffffffffffffffffffffffffffffffffffff16906020019092919080359060200190929190803573ffffffffffffffffffffffffffffffffffffffff16906020019092919050505061268c565b005b610b9360048036036060811015610b5157600080fd5b81019080803573ffffffffffffffffffffffffffffffffffffffff169060200190929190803590602001909291908035151590602001909291905050506129a1565b005b610c0160048036036060811015610bab57600080fd5b81019080803573ffffffffffffffffffffffffffffffffffffffff16906020019092919080359060200190929190803573ffffffffffffffffffffffffffffffffffffffff169060200190929190505050612b1c565b005b610c0b612e0d565b604051808273ffffffffffffffffffffffffffffffffffffffff16815260200191505060405180910390f35b610c8d60048036036060811015610c4d57600080fd5b81019080803573ffffffffffffffffffffffffffffffffffffffff1690602001909291908035906020019092919080359060200190929190505050612e37565b005b610cdb60048036036040811015610ca557600080fd5b81019080803573ffffffffffffffffffffffffffffffffffffffff16906020019092919080359060200190929190505050613113565b60405180821515815260200191505060405180910390f35b610d4b60048036036060811015610d0957600080fd5b81019080803573ffffffffffffffffffffffffffffffffffffffff16906020019092919080359060200190929190803515159060200190929190505050613187565b005b610da560048036036060811015610d6357600080fd5b81019080803573ffffffffffffffffffffffffffffffffffffffff16906020019092919080359060200190929190803515159060200190929190505050613302565b005b610e1d60048036036080811015610dbd57600080fd5b81019080803573ffffffffffffffffffffffffffffffffffffffff169060200190929190803573ffffffffffffffffffffffffffffffffffffffff169060200190929190803590602001909291908035906020019092919050505061347d565b005b610e8b60048036036060811015610e3557600080fd5b81019080803573ffffffffffffffffffffffffffffffffffffffff16906020019092919080359060200190929190803573ffffffffffffffffffffffffffffffffffffffff16906020019092919050505061353e565b005b610ef960048036036060811015610ea357600080fd5b81019080803573ffffffffffffffffffffffffffffffffffffffff16906020019092919080359060200190929190803573ffffffffffffffffffffffffffffffffffffffff16906020019092919050505061382f565b604051808515158152602001841515815260200183815260200182815260200194505050505060405180910390f35b610f6a60048036036020811015610f3e57600080fd5b81019080803573ffffffffffffffffffffffffffffffffffffffff1690602001909291905050506138e4565b005b610fec600480360360a0811015610f8257600080fd5b81019080803573ffffffffffffffffffffffffffffffffffffffff1690602001909291908035906020019092919080359060200190929190803573ffffffffffffffffffffffffffffffffffffffff16906020019092919080359060200190929190505050613a2e565b005b61105a6004803603606081101561100457600080fd5b81019080803573ffffffffffffffffffffffffffffffffffffffff16906020019092919080359060200190929190803573ffffffffffffffffffffffffffffffffffffffff169060200190929190505050613c95565b005b6110c86004803603606081101561107257600080fd5b81019080803573ffffffffffffffffffffffffffffffffffffffff16906020019092919080359060200190929190803573ffffffffffffffffffffffffffffffffffffffff169060200190929190505050613f86565b604051808515158152602001841515815260200183815260200182815260200194505050505060405180910390f35b61114f6004803603606081101561110d57600080fd5b81019080803573ffffffffffffffffffffffffffffffffffffffff1690602001909291908035906020019092919080351515906020019092919050505061403b565b005b6111936004803603602081101561116757600080fd5b81019080803573ffffffffffffffffffffffffffffffffffffffff169060200190929190505050614275565b005b6111ed600480360360608110156111ab57600080fd5b81019080803573ffffffffffffffffffffffffffffffffffffffff1690602001909291908035906020019092919080351515906020019092919050505061446a565b005b60006111f96145e5565b90506000611226848673ffffffffffffffffffffffffffffffffffffffff166145f490919063ffffffff16565b905060008314801561129657508173ffffffffffffffffffffffffffffffffffffffff16606b600083815260200190815260200160002060009054906101000a900473ffffffffffffffffffffffffffffffffffffffff1673ffffffffffffffffffffffffffffffffffffffff16145b156112ed57606a600082815260200190815260200160002060009055606b600082815260200190815260200160002060006101000a81549073ffffffffffffffffffffffffffffffffffffffff021916905561145e565b6112f8858584614649565b61136a576040517f08c379a00000000000000000000000000000000000000000000000000000000081526004018080602001828103825260088152602001807f43503a452d31303500000000000000000000000000000000000000000000000081525060200191505060405180910390fd5b606a6000828152602001908152602001600020544310156113f3576040517f08c379a00000000000000000000000000000000000000000000000000000000081526004018080602001828103825260088152602001807f43503a452d33303200000000000000000000000000000000000000000000000081525060200191505060405180910390fd5b82606a60008381526020019081526020016000208190555081606b600083815260200190815260200160002060006101000a81548173ffffffffffffffffffffffffffffffffffffffff021916908373ffffffffffffffffffffffffffffffffffffffff1602179055505b8173ffffffffffffffffffffffffffffffffffffffff16848673ffffffffffffffffffffffffffffffffffffffff167f5e0dabff697f9743e52ccc618312a1c2e1ed16ef7f22f44dfd1ba9cf5458c035866040518082815260200191505060405180910390a45050505050565b82826114d56145e5565b606760009054906101000a900473ffffffffffffffffffffffffffffffffffffffff1673ffffffffffffffffffffffffffffffffffffffff16630e21258c8484846040518463ffffffff1660e01b8152600401808473ffffffffffffffffffffffffffffffffffffffff1681526020018381526020018273ffffffffffffffffffffffffffffffffffffffff1681526020019350505050602060405180830381600087803b15801561158657600080fd5b505af115801561159a573d6000803e3d6000fd5b505050506040513d60208110156115b057600080fd5b8101908080519060200190929190505050611633576040517f08c379a00000000000000000000000000000000000000000000000000000000081526004018080602001828103825260088152602001807f43503a452d31303500000000000000000000000000000000000000000000000081525060200191505060405180910390fd5b6000606760009054906101000a900473ffffffffffffffffffffffffffffffffffffffff1673ffffffffffffffffffffffffffffffffffffffff16632df926cc88886040518363ffffffff1660e01b8152600401808373ffffffffffffffffffffffffffffffffffffffff16815260200182815260200192505050602060405180830381600087803b1580156116c857600080fd5b505af11580156116dc573d6000803e3d6000fd5b505050506040513d60208110156116f257600080fd5b810190808051906020019092919050505090508073ffffffffffffffffffffffffffffffffffffffff168573ffffffffffffffffffffffffffffffffffffffff1614156117a7576040517f08c379a00000000000000000000000000000000000000000000000000000000081526004018080602001828103825260088152602001807f43503a452d31303600000000000000000000000000000000000000000000000081525060200191505060405180910390fd5b6117b387878388614951565b50505050505050565b6117c46145e5565b73ffffffffffffffffffffffffffffffffffffffff166117e2612e0d565b73ffffffffffffffffffffffffffffffffffffffff161461186b576040517f08c379a00000000000000000000000000000000000000000000000000000000081526004018080602001828103825260208152602001807f4f776e61626c653a2063616c6c6572206973206e6f7420746865206f776e657281525060200191505060405180910390fd5b611876838383614a90565b505050565b6000806118a7838573ffffffffffffffffffffffffffffffffffffffff166145f490919063ffffffff16565b905043606860008381526020019081526020016000205411156118db57606860008281526020019081526020016000205491505b43606f60008381526020019081526020016000205411801561190f575081606f600083815260200190815260200160002054115b1561192b57606f60008281526020019081526020016000205491505b5092915050565b60008061195e838573ffffffffffffffffffffffffffffffffffffffff166145f490919063ffffffff16565b905043606a600083815260200190815260200160002054111561199257606a60008281526020019081526020016000205491505b43606f6000838152602001908152602001600020541180156119c6575081606f600083815260200190815260200160002054115b156119e257606f60008281526020019081526020016000205491505b5092915050565b60006119f36145e5565b90506000611a20848673ffffffffffffffffffffffffffffffffffffffff166145f490919063ffffffff16565b9050600083148015611a9057508173ffffffffffffffffffffffffffffffffffffffff166069600083815260200190815260200160002060009054906101000a900473ffffffffffffffffffffffffffffffffffffffff1673ffffffffffffffffffffffffffffffffffffffff16145b15611ae75760686000828152602001908152602001600020600090556069600082815260200190815260200160002060006101000a81549073ffffffffffffffffffffffffffffffffffffffff0219169055611c58565b611af2858584614649565b611b64576040517f08c379a00000000000000000000000000000000000000000000000000000000081526004018080602001828103825260088152602001807f43503a452d31303500000000000000000000000000000000000000000000000081525060200191505060405180910390fd5b6068600082815260200190815260200160002054431015611bed576040517f08c379a00000000000000000000000000000000000000000000000000000000081526004018080602001828103825260088152602001807f43503a452d33303200000000000000000000000000000000000000000000000081525060200191505060405180910390fd5b826068600083815260200190815260200160002081905550816069600083815260200190815260200160002060006101000a81548173ffffffffffffffffffffffffffffffffffffffff021916908373ffffffffffffffffffffffffffffffffffffffff1602179055505b8173ffffffffffffffffffffffffffffffffffffffff16848673ffffffffffffffffffffffffffffffffffffffff167f21f4b7d7136878f9dd97a01489ac4d8ffcab738da5a683f02c6b0f6f02971224866040518082815260200191505060405180910390a45050505050565b611ccd6145e5565b73ffffffffffffffffffffffffffffffffffffffff16611ceb612e0d565b73ffffffffffffffffffffffffffffffffffffffff1614611d74576040517f08c379a00000000000000000000000000000000000000000000000000000000081526004018080602001828103825260208152602001807f4f776e61626c653a2063616c6c6572206973206e6f7420746865206f776e657281525060200191505060405180910390fd5b611d7f838383614c71565b505050565b6000611d91848484614edb565b90509392505050565b60606040518060600160405280602e8152602001616e75602e9139905090565b611dc26145e5565b73ffffffffffffffffffffffffffffffffffffffff16611de0612e0d565b73ffffffffffffffffffffffffffffffffffffffff1614611e69576040517f08c379a00000000000000000000000000000000000000000000000000000000081526004018080602001828103825260208152602001807f4f776e61626c653a2063616c6c6572206973206e6f7420746865206f776e657281525060200191505060405180910390fd5b611e7382826150f1565b5050565b6000611e84848484615216565b90509392505050565b6000606560009054906101000a900473ffffffffffffffffffffffffffffffffffffffff1673ffffffffffffffffffffffffffffffffffffffff168273ffffffffffffffffffffffffffffffffffffffff16149050919050565b611eef6145e5565b73ffffffffffffffffffffffffffffffffffffffff16611f0d612e0d565b73ffffffffffffffffffffffffffffffffffffffff1614611f96576040517f08c379a00000000000000000000000000000000000000000000000000000000081526004018080602001828103825260208152602001807f4f776e61626c653a2063616c6c6572206973206e6f7420746865206f776e657281525060200191505060405180910390fd5b6000828260405160200180838380828437808301925050509250505060405160208183030381529060405280519060200120905060405160200180807f73657474696e677300000000000000000000000000000000000000000000000081525060080190506040516020818303038152906040528051906020012081141561205e5783606660006101000a81548173ffffffffffffffffffffffffffffffffffffffff021916908373ffffffffffffffffffffffffffffffffffffffff1602179055506120ef565b60405160200180807f746f6b656e696e666f00000000000000000000000000000000000000000000008152506009019050604051602081830303815290604052805190602001208114156120ee5783606760006101000a81548173ffffffffffffffffffffffffffffffffffffffff021916908373ffffffffffffffffffffffffffffffffffffffff1602179055505b5b8373ffffffffffffffffffffffffffffffffffffffff167fd28287e4c8d4f4d61f75c41e3e0732ca8d95f32ccddc45658621a7ae71f8ce95848460405180806020018281038252848482818152602001925080828437600081840152601f19601f820116905080830192505050935050505060405180910390a250505050565b600061217c848484614649565b90509392505050565b60008060008060006121b6878973ffffffffffffffffffffffffffffffffffffffff166145f490919063ffffffff16565b90506121f56002606e600084815260200190815260200160002060009054906101000a900463ffffffff1663ffffffff1661542c90919063ffffffff16565b945061220288888861544c565b935060686000828152602001908152602001600020549250606f60008281526020019081526020016000205491505093509350935093565b600080612266838573ffffffffffffffffffffffffffffffffffffffff166145f490919063ffffffff16565b90506122a56008606e600084815260200190815260200160002060009054906101000a900463ffffffff1663ffffffff1661542c90919063ffffffff16565b91505092915050565b60006122bb84848461544c565b90509392505050565b82826122ce6145e5565b606760009054906101000a900473ffffffffffffffffffffffffffffffffffffffff1673ffffffffffffffffffffffffffffffffffffffff16630e21258c8484846040518463ffffffff1660e01b8152600401808473ffffffffffffffffffffffffffffffffffffffff1681526020018381526020018273ffffffffffffffffffffffffffffffffffffffff1681526020019350505050602060405180830381600087803b15801561237f57600080fd5b505af1158015612393573d6000803e3d6000fd5b505050506040513d60208110156123a957600080fd5b810190808051906020019092919050505061242c576040517f08c379a00000000000000000000000000000000000000000000000000000000081526004018080602001828103825260088152602001807f43503a452d31303500000000000000000000000000000000000000000000000081525060200191505060405180910390fd5b612437868686615662565b505050505050565b6124476145e5565b73ffffffffffffffffffffffffffffffffffffffff16612465612e0d565b73ffffffffffffffffffffffffffffffffffffffff16146124ee576040517f08c379a00000000000000000000000000000000000000000000000000000000081526004018080602001828103825260208152602001807f4f776e61626c653a2063616c6c6572206973206e6f7420746865206f776e657281525060200191505060405180910390fd5b600073ffffffffffffffffffffffffffffffffffffffff16603360009054906101000a900473ffffffffffffffffffffffffffffffffffffffff1673ffffffffffffffffffffffffffffffffffffffff167f8be0079c531659141344cd1fd0a4f28419497f9722a3daafe3b4186f6b6457e060405160405180910390a36000603360006101000a81548173ffffffffffffffffffffffffffffffffffffffff021916908373ffffffffffffffffffffffffffffffffffffffff160217905550565b6000806125db838573ffffffffffffffffffffffffffffffffffffffff166145f490919063ffffffff16565b905043606c600083815260200190815260200160002054111561260f57606c60008281526020019081526020016000205491505b43606f600083815260200190815260200160002054118015612643575081606f600083815260200190815260200160002054115b1561265f57606f60008281526020019081526020016000205491505b5092915050565b606560009054906101000a900473ffffffffffffffffffffffffffffffffffffffff1681565b82826126966145e5565b606760009054906101000a900473ffffffffffffffffffffffffffffffffffffffff1673ffffffffffffffffffffffffffffffffffffffff16630e21258c8484846040518463ffffffff1660e01b8152600401808473ffffffffffffffffffffffffffffffffffffffff1681526020018381526020018273ffffffffffffffffffffffffffffffffffffffff1681526020019350505050602060405180830381600087803b15801561274757600080fd5b505af115801561275b573d6000803e3d6000fd5b505050506040513d602081101561277157600080fd5b81019080805190602001909291905050506127f4576040517f08c379a00000000000000000000000000000000000000000000000000000000081526004018080602001828103825260088152602001807f43503a452d31303500000000000000000000000000000000000000000000000081525060200191505060405180910390fd5b6000606760009054906101000a900473ffffffffffffffffffffffffffffffffffffffff1673ffffffffffffffffffffffffffffffffffffffff16632df926cc88886040518363ffffffff1660e01b8152600401808373ffffffffffffffffffffffffffffffffffffffff16815260200182815260200192505050602060405180830381600087803b15801561288957600080fd5b505af115801561289d573d6000803e3d6000fd5b505050506040513d60208110156128b357600080fd5b810190808051906020019092919050505090508073ffffffffffffffffffffffffffffffffffffffff168573ffffffffffffffffffffffffffffffffffffffff161415612968576040517f08c379a00000000000000000000000000000000000000000000000000000000081526004018080602001828103825260088152602001807f43503a452d31303600000000000000000000000000000000000000000000000081525060200191505060405180910390fd5b612974878783886157ce565b6129808787838861590d565b61298c87878388614951565b61299887878388615a4c565b50505050505050565b82826129ab6145e5565b606760009054906101000a900473ffffffffffffffffffffffffffffffffffffffff1673ffffffffffffffffffffffffffffffffffffffff16630e21258c8484846040518463ffffffff1660e01b8152600401808473ffffffffffffffffffffffffffffffffffffffff1681526020018381526020018273ffffffffffffffffffffffffffffffffffffffff1681526020019350505050602060405180830381600087803b158015612a5c57600080fd5b505af1158015612a70573d6000803e3d6000fd5b505050506040513d6020811015612a8657600080fd5b8101908080519060200190929190505050612b09576040517f08c379a00000000000000000000000000000000000000000000000000000000081526004018080602001828103825260088152602001807f43503a452d31303500000000000000000000000000000000000000000000000081525060200191505060405180910390fd5b612b14868686615b8b565b505050505050565b8282612b266145e5565b606760009054906101000a900473ffffffffffffffffffffffffffffffffffffffff1673ffffffffffffffffffffffffffffffffffffffff16630e21258c8484846040518463ffffffff1660e01b8152600401808473ffffffffffffffffffffffffffffffffffffffff1681526020018381526020018273ffffffffffffffffffffffffffffffffffffffff1681526020019350505050602060405180830381600087803b158015612bd757600080fd5b505af1158015612beb573d6000803e3d6000fd5b505050506040513d6020811015612c0157600080fd5b8101908080519060200190929190505050612c84576040517f08c379a00000000000000000000000000000000000000000000000000000000081526004018080602001828103825260088152602001807f43503a452d31303500000000000000000000000000000000000000000000000081525060200191505060405180910390fd5b6000606760009054906101000a900473ffffffffffffffffffffffffffffffffffffffff1673ffffffffffffffffffffffffffffffffffffffff16632df926cc88886040518363ffffffff1660e01b8152600401808373ffffffffffffffffffffffffffffffffffffffff16815260200182815260200192505050602060405180830381600087803b158015612d1957600080fd5b505af1158015612d2d573d6000803e3d6000fd5b505050506040513d6020811015612d4357600080fd5b810190808051906020019092919050505090508073ffffffffffffffffffffffffffffffffffffffff168573ffffffffffffffffffffffffffffffffffffffff161415612df8576040517f08c379a00000000000000000000000000000000000000000000000000000000081526004018080602001828103825260088152602001807f43503a452d31303600000000000000000000000000000000000000000000000081525060200191505060405180910390fd5b612e048787838861590d565b50505050505050565b6000603360009054906101000a900473ffffffffffffffffffffffffffffffffffffffff16905090565b6000612e416145e5565b90506000612e6e848673ffffffffffffffffffffffffffffffffffffffff166145f490919063ffffffff16565b9050600083148015612ede57508173ffffffffffffffffffffffffffffffffffffffff16606d600083815260200190815260200160002060009054906101000a900473ffffffffffffffffffffffffffffffffffffffff1673ffffffffffffffffffffffffffffffffffffffff16145b15612f3557606c600082815260200190815260200160002060009055606d600082815260200190815260200160002060006101000a81549073ffffffffffffffffffffffffffffffffffffffff02191690556130a6565b612f40858584614649565b612fb2576040517f08c379a00000000000000000000000000000000000000000000000000000000081526004018080602001828103825260088152602001807f43503a452d31303500000000000000000000000000000000000000000000000081525060200191505060405180910390fd5b606c60008281526020019081526020016000205443101561303b576040517f08c379a00000000000000000000000000000000000000000000000000000000081526004018080602001828103825260088152602001807f43503a452d33303200000000000000000000000000000000000000000000000081525060200191505060405180910390fd5b82606c60008381526020019081526020016000208190555081606d600083815260200190815260200160002060006101000a81548173ffffffffffffffffffffffffffffffffffffffff021916908373ffffffffffffffffffffffffffffffffffffffff1602179055505b8173ffffffffffffffffffffffffffffffffffffffff16848673ffffffffffffffffffffffffffffffffffffffff167f758077f0101f3c7abec72875f1cd7ea8386e31c97cea81676acd97e5652ef124866040518082815260200191505060405180910390a45050505050565b60008061313f838573ffffffffffffffffffffffffffffffffffffffff166145f490919063ffffffff16565b905061317e6001606e600084815260200190815260200160002060009054906101000a900463ffffffff1663ffffffff1661542c90919063ffffffff16565b91505092915050565b82826131916145e5565b606760009054906101000a900473ffffffffffffffffffffffffffffffffffffffff1673ffffffffffffffffffffffffffffffffffffffff16630e21258c8484846040518463ffffffff1660e01b8152600401808473ffffffffffffffffffffffffffffffffffffffff1681526020018381526020018273ffffffffffffffffffffffffffffffffffffffff1681526020019350505050602060405180830381600087803b15801561324257600080fd5b505af1158015613256573d6000803e3d6000fd5b505050506040513d602081101561326c57600080fd5b81019080805190602001909291905050506132ef576040517f08c379a00000000000000000000000000000000000000000000000000000000081526004018080602001828103825260088152602001807f43503a452d31303500000000000000000000000000000000000000000000000081525060200191505060405180910390fd5b6132fa868686615cf7565b505050505050565b828261330c6145e5565b606760009054906101000a900473ffffffffffffffffffffffffffffffffffffffff1673ffffffffffffffffffffffffffffffffffffffff16630e21258c8484846040518463ffffffff1660e01b8152600401808473ffffffffffffffffffffffffffffffffffffffff1681526020018381526020018273ffffffffffffffffffffffffffffffffffffffff1681526020019350505050602060405180830381600087803b1580156133bd57600080fd5b505af11580156133d1573d6000803e3d6000fd5b505050506040513d60208110156133e757600080fd5b810190808051906020019092919050505061346a576040517f08c379a00000000000000000000000000000000000000000000000000000000081526004018080602001828103825260088152602001807f43503a452d31303500000000000000000000000000000000000000000000000081525060200191505060405180910390fd5b613475868686615e63565b505050505050565b6134856145e5565b73ffffffffffffffffffffffffffffffffffffffff166134a3612e0d565b73ffffffffffffffffffffffffffffffffffffffff161461352c576040517f08c379a00000000000000000000000000000000000000000000000000000000081526004018080602001828103825260208152602001807f4f776e61626c653a2063616c6c6572206973206e6f7420746865206f776e657281525060200191505060405180910390fd5b61353884848484615fcf565b50505050565b82826135486145e5565b606760009054906101000a900473ffffffffffffffffffffffffffffffffffffffff1673ffffffffffffffffffffffffffffffffffffffff16630e21258c8484846040518463ffffffff1660e01b8152600401808473ffffffffffffffffffffffffffffffffffffffff1681526020018381526020018273ffffffffffffffffffffffffffffffffffffffff1681526020019350505050602060405180830381600087803b1580156135f957600080fd5b505af115801561360d573d6000803e3d6000fd5b505050506040513d602081101561362357600080fd5b81019080805190602001909291905050506136a6576040517f08c379a00000000000000000000000000000000000000000000000000000000081526004018080602001828103825260088152602001807f43503a452d31303500000000000000000000000000000000000000000000000081525060200191505060405180910390fd5b6000606760009054906101000a900473ffffffffffffffffffffffffffffffffffffffff1673ffffffffffffffffffffffffffffffffffffffff16632df926cc88886040518363ffffffff1660e01b8152600401808373ffffffffffffffffffffffffffffffffffffffff16815260200182815260200192505050602060405180830381600087803b15801561373b57600080fd5b505af115801561374f573d6000803e3d6000fd5b505050506040513d602081101561376557600080fd5b810190808051906020019092919050505090508073ffffffffffffffffffffffffffffffffffffffff168573ffffffffffffffffffffffffffffffffffffffff16141561381a576040517f08c379a00000000000000000000000000000000000000000000000000000000081526004018080602001828103825260088152602001807f43503a452d31303600000000000000000000000000000000000000000000000081525060200191505060405180910390fd5b61382687878388615a4c565b50505050505050565b6000806000806000613860878973ffffffffffffffffffffffffffffffffffffffff166145f490919063ffffffff16565b905061389f6010606e600084815260200190815260200160002060009054906101000a900463ffffffff1663ffffffff1661542c90919063ffffffff16565b94506138ac888888615216565b9350606c6000828152602001908152602001600020549250606f60008281526020019081526020016000205491505093509350935093565b600060019054906101000a900460ff16806139035750613902616251565b5b80613919575060008054906101000a900460ff16155b61396e576040517f08c379a000000000000000000000000000000000000000000000000000000000815260040180806020018281038252602e815260200180616e47602e913960400191505060405180910390fd5b60008060019054906101000a900460ff1615905080156139be576001600060016101000a81548160ff02191690831515021790555060016000806101000a81548160ff0219169083151502179055505b6139c6616262565b8173ffffffffffffffffffffffffffffffffffffffff167f908408e307fc569b417f6cbec5d5a06f44a0a505ac0479b47d421a4b2fd6a1e660405160405180910390a28015613a2a5760008060016101000a81548160ff0219169083151502179055505b5050565b613a366145e5565b73ffffffffffffffffffffffffffffffffffffffff16613a54612e0d565b73ffffffffffffffffffffffffffffffffffffffff1614613add576040517f08c379a00000000000000000000000000000000000000000000000000000000081526004018080602001828103825260208152602001807f4f776e61626c653a2063616c6c6572206973206e6f7420746865206f776e657281525060200191505060405180910390fd5b6000613b08858773ffffffffffffffffffffffffffffffffffffffff166145f490919063ffffffff16565b90504384118015613b465750600073ffffffffffffffffffffffffffffffffffffffff168373ffffffffffffffffffffffffffffffffffffffff1614155b15613c1c5783606a60008381526020019081526020016000208190555082606b600083815260200190815260200160002060006101000a81548173ffffffffffffffffffffffffffffffffffffffff021916908373ffffffffffffffffffffffffffffffffffffffff1602179055508273ffffffffffffffffffffffffffffffffffffffff16858773ffffffffffffffffffffffffffffffffffffffff167f5e0dabff697f9743e52ccc618312a1c2e1ed16ef7f22f44dfd1ba9cf5458c035876040518082815260200191505060405180910390a45b6000821115613c8d5781606f600083815260200190815260200160002081905550848673ffffffffffffffffffffffffffffffffffffffff167f0b5c7a4085b6a300c607444f618613634e56ee3d37a141f747f24e670eddd0ff846040518082815260200191505060405180910390a35b505050505050565b8282613c9f6145e5565b606760009054906101000a900473ffffffffffffffffffffffffffffffffffffffff1673ffffffffffffffffffffffffffffffffffffffff16630e21258c8484846040518463ffffffff1660e01b8152600401808473ffffffffffffffffffffffffffffffffffffffff1681526020018381526020018273ffffffffffffffffffffffffffffffffffffffff1681526020019350505050602060405180830381600087803b158015613d5057600080fd5b505af1158015613d64573d6000803e3d6000fd5b505050506040513d6020811015613d7a57600080fd5b8101908080519060200190929190505050613dfd576040517f08c379a00000000000000000000000000000000000000000000000000000000081526004018080602001828103825260088152602001807f43503a452d31303500000000000000000000000000000000000000000000000081525060200191505060405180910390fd5b6000606760009054906101000a900473ffffffffffffffffffffffffffffffffffffffff1673ffffffffffffffffffffffffffffffffffffffff16632df926cc88886040518363ffffffff1660e01b8152600401808373ffffffffffffffffffffffffffffffffffffffff16815260200182815260200192505050602060405180830381600087803b158015613e9257600080fd5b505af1158015613ea6573d6000803e3d6000fd5b505050506040513d6020811015613ebc57600080fd5b810190808051906020019092919050505090508073ffffffffffffffffffffffffffffffffffffffff168573ffffffffffffffffffffffffffffffffffffffff161415613f71576040517f08c379a00000000000000000000000000000000000000000000000000000000081526004018080602001828103825260088152602001807f43503a452d31303600000000000000000000000000000000000000000000000081525060200191505060405180910390fd5b613f7d878783886157ce565b50505050505050565b6000806000806000613fb7878973ffffffffffffffffffffffffffffffffffffffff166145f490919063ffffffff16565b9050613ff66004606e600084815260200190815260200160002060009054906101000a900463ffffffff1663ffffffff1661542c90919063ffffffff16565b9450614003888888614edb565b9350606a6000828152602001908152602001600020549250606f60008281526020019081526020016000205491505093509350935093565b8273ffffffffffffffffffffffffffffffffffffffff163373ffffffffffffffffffffffffffffffffffffffff16146140dc576040517f08c379a00000000000000000000000000000000000000000000000000000000081526004018080602001828103825260088152602001807f43503a452d31313200000000000000000000000000000000000000000000000081525060200191505060405180910390fd5b6000614107838573ffffffffffffffffffffffffffffffffffffffff166145f490919063ffffffff16565b9050600082801561412b57506000606f600084815260200190815260200160002054145b15614200576141e5606660009054906101000a900473ffffffffffffffffffffffffffffffffffffffff1673ffffffffffffffffffffffffffffffffffffffff1663cf74fe616040518163ffffffff1660e01b815260040160206040518083038186803b15801561419b57600080fd5b505afa1580156141af573d6000803e3d6000fd5b505050506040513d60208110156141c557600080fd5b81019080805190602001909291905050504361637090919063ffffffff16565b905080606f6000848152602001908152602001600020819055505b8261421f576000606f6000848152602001908152602001600020819055505b838573ffffffffffffffffffffffffffffffffffffffff167f0b5c7a4085b6a300c607444f618613634e56ee3d37a141f747f24e670eddd0ff836040518082815260200191505060405180910390a35050505050565b61427d6145e5565b73ffffffffffffffffffffffffffffffffffffffff1661429b612e0d565b73ffffffffffffffffffffffffffffffffffffffff1614614324576040517f08c379a00000000000000000000000000000000000000000000000000000000081526004018080602001828103825260208152602001807f4f776e61626c653a2063616c6c6572206973206e6f7420746865206f776e657281525060200191505060405180910390fd5b600073ffffffffffffffffffffffffffffffffffffffff168173ffffffffffffffffffffffffffffffffffffffff1614156143aa576040517f08c379a0000000000000000000000000000000000000000000000000000000008152600401808060200182810382526026815260200180616de76026913960400191505060405180910390fd5b8073ffffffffffffffffffffffffffffffffffffffff16603360009054906101000a900473ffffffffffffffffffffffffffffffffffffffff1673ffffffffffffffffffffffffffffffffffffffff167f8be0079c531659141344cd1fd0a4f28419497f9722a3daafe3b4186f6b6457e060405160405180910390a380603360006101000a81548173ffffffffffffffffffffffffffffffffffffffff021916908373ffffffffffffffffffffffffffffffffffffffff16021790555050565b82826144746145e5565b606760009054906101000a900473ffffffffffffffffffffffffffffffffffffffff1673ffffffffffffffffffffffffffffffffffffffff16630e21258c8484846040518463ffffffff1660e01b8152600401808473ffffffffffffffffffffffffffffffffffffffff1681526020018381526020018273ffffffffffffffffffffffffffffffffffffffff1681526020019350505050602060405180830381600087803b15801561452557600080fd5b505af1158015614539573d6000803e3d6000fd5b505050506040513d602081101561454f57600080fd5b81019080805190602001909291905050506145d2576040517f08c379a00000000000000000000000000000000000000000000000000000000081526004018080602001828103825260088152602001807f43503a452d31303500000000000000000000000000000000000000000000000081525060200191505060405180910390fd5b6145dd8686866163f8565b505050505050565b60006145ef616564565b905090565b60008282604051602001808373ffffffffffffffffffffffffffffffffffffffff1660601b8152601401828152602001925050506040516020818303038152906040528051906020012060001c905092915050565b6000806000606660009054906101000a900473ffffffffffffffffffffffffffffffffffffffff1673ffffffffffffffffffffffffffffffffffffffff166370d9e4f0856040518263ffffffff1660e01b8152600401808273ffffffffffffffffffffffffffffffffffffffff168152602001915050604080518083038186803b1580156146d657600080fd5b505afa1580156146ea573d6000803e3d6000fd5b505050506040513d604081101561470057600080fd5b81019080805190602001909291908051906020019092919050505091509150818061475f575080801561475e57508373ffffffffffffffffffffffffffffffffffffffff168673ffffffffffffffffffffffffffffffffffffffff16145b5b1561476f5760019250505061494a565b6000606760009054906101000a900473ffffffffffffffffffffffffffffffffffffffff1673ffffffffffffffffffffffffffffffffffffffff16632df926cc88886040518363ffffffff1660e01b8152600401808373ffffffffffffffffffffffffffffffffffffffff16815260200182815260200192505050602060405180830381600087803b15801561480457600080fd5b505af1158015614818573d6000803e3d6000fd5b505050506040513d602081101561482e57600080fd5b81019080805190602001909291905050509050600061486c878973ffffffffffffffffffffffffffffffffffffffff166145f490919063ffffffff16565b90508573ffffffffffffffffffffffffffffffffffffffff168273ffffffffffffffffffffffffffffffffffffffff16148061494357508573ffffffffffffffffffffffffffffffffffffffff166073600083815260200190815260200160002060008473ffffffffffffffffffffffffffffffffffffffff1673ffffffffffffffffffffffffffffffffffffffff16815260200190815260200160002060009054906101000a900473ffffffffffffffffffffffffffffffffffffffff1673ffffffffffffffffffffffffffffffffffffffff16145b9450505050505b9392505050565b600061497c848673ffffffffffffffffffffffffffffffffffffffff166145f490919063ffffffff16565b9050816072600083815260200190815260200160002060008573ffffffffffffffffffffffffffffffffffffffff1673ffffffffffffffffffffffffffffffffffffffff16815260200190815260200160002060006101000a81548173ffffffffffffffffffffffffffffffffffffffff021916908373ffffffffffffffffffffffffffffffffffffffff1602179055508273ffffffffffffffffffffffffffffffffffffffff16848673ffffffffffffffffffffffffffffffffffffffff167fd1d8262a7c0385d940cfc858eddede2109c33acd42d02175201d3c0c73f2371485604051808273ffffffffffffffffffffffffffffffffffffffff16815260200191505060405180910390a45050505050565b600073ffffffffffffffffffffffffffffffffffffffff168373ffffffffffffffffffffffffffffffffffffffff161415614b33576040517f08c379a00000000000000000000000000000000000000000000000000000000081526004018080602001828103825260098152602001807f4248503a452d343033000000000000000000000000000000000000000000000081525060200191505060405180910390fd5b808273ffffffffffffffffffffffffffffffffffffffff166370a08231306040518263ffffffff1660e01b8152600401808273ffffffffffffffffffffffffffffffffffffffff16815260200191505060206040518083038186803b158015614b9b57600080fd5b505afa158015614baf573d6000803e3d6000fd5b505050506040513d6020811015614bc557600080fd5b810190808051906020019092919050505010614c6c57614c0683828473ffffffffffffffffffffffffffffffffffffffff166165a09092919063ffffffff16565b8173ffffffffffffffffffffffffffffffffffffffff168373ffffffffffffffffffffffffffffffffffffffff167f6c9d637297625e945b296ff73a71fcfbd0a9e062652b6491a921c4c60194176b836040518082815260200191505060405180910390a35b505050565b600073ffffffffffffffffffffffffffffffffffffffff168373ffffffffffffffffffffffffffffffffffffffff161415614d14576040517f08c379a00000000000000000000000000000000000000000000000000000000081526004018080602001828103825260098152602001807f4248503a452d343033000000000000000000000000000000000000000000000081525060200191505060405180910390fd5b3073ffffffffffffffffffffffffffffffffffffffff168273ffffffffffffffffffffffffffffffffffffffff16636352211e836040518263ffffffff1660e01b81526004018082815260200191505060206040518083038186803b158015614d7c57600080fd5b505afa158015614d90573d6000803e3d6000fd5b505050506040513d6020811015614da657600080fd5b810190808051906020019092919050505073ffffffffffffffffffffffffffffffffffffffff161415614ed6578173ffffffffffffffffffffffffffffffffffffffff166323b872dd3085846040518463ffffffff1660e01b8152600401808473ffffffffffffffffffffffffffffffffffffffff1681526020018373ffffffffffffffffffffffffffffffffffffffff1681526020018281526020019350505050600060405180830381600087803b158015614e6257600080fd5b505af1158015614e76573d6000803e3d6000fd5b50505050808273ffffffffffffffffffffffffffffffffffffffff168473ffffffffffffffffffffffffffffffffffffffff167ffefe036cac4ee3a4aca074a81cbcc4376e1484693289078dbec149c890101d5b60405160405180910390a45b505050565b600080606760009054906101000a900473ffffffffffffffffffffffffffffffffffffffff1673ffffffffffffffffffffffffffffffffffffffff16632df926cc86866040518363ffffffff1660e01b8152600401808373ffffffffffffffffffffffffffffffffffffffff16815260200182815260200192505050602060405180830381600087803b158015614f7157600080fd5b505af1158015614f85573d6000803e3d6000fd5b505050506040513d6020811015614f9b57600080fd5b810190808051906020019092919050505090506000614fd9858773ffffffffffffffffffffffffffffffffffffffff166145f490919063ffffffff16565b90508373ffffffffffffffffffffffffffffffffffffffff168673ffffffffffffffffffffffffffffffffffffffff16148061504057508373ffffffffffffffffffffffffffffffffffffffff168273ffffffffffffffffffffffffffffffffffffffff16145b806150e657508373ffffffffffffffffffffffffffffffffffffffff166071600083815260200190815260200160002060008473ffffffffffffffffffffffffffffffffffffffff1673ffffffffffffffffffffffffffffffffffffffff16815260200190815260200160002060009054906101000a900473ffffffffffffffffffffffffffffffffffffffff1673ffffffffffffffffffffffffffffffffffffffff16145b925050509392505050565b600073ffffffffffffffffffffffffffffffffffffffff168273ffffffffffffffffffffffffffffffffffffffff161415615194576040517f08c379a00000000000000000000000000000000000000000000000000000000081526004018080602001828103825260098152602001807f4248503a452d343033000000000000000000000000000000000000000000000081525060200191505060405180910390fd5b804710615212576151c4818373ffffffffffffffffffffffffffffffffffffffff1661664290919063ffffffff16565b8173ffffffffffffffffffffffffffffffffffffffff167eddb683bb45cd5d0ad8a200c6fae7152b1c236ee90a4a37db692407f5cc38bd826040518082815260200191505060405180910390a25b5050565b600080606760009054906101000a900473ffffffffffffffffffffffffffffffffffffffff1673ffffffffffffffffffffffffffffffffffffffff16632df926cc86866040518363ffffffff1660e01b8152600401808373ffffffffffffffffffffffffffffffffffffffff16815260200182815260200192505050602060405180830381600087803b1580156152ac57600080fd5b505af11580156152c0573d6000803e3d6000fd5b505050506040513d60208110156152d657600080fd5b810190808051906020019092919050505090506000615314858773ffffffffffffffffffffffffffffffffffffffff166145f490919063ffffffff16565b90508373ffffffffffffffffffffffffffffffffffffffff168673ffffffffffffffffffffffffffffffffffffffff16148061537b57508373ffffffffffffffffffffffffffffffffffffffff168273ffffffffffffffffffffffffffffffffffffffff16145b8061542157508373ffffffffffffffffffffffffffffffffffffffff166072600083815260200190815260200160002060008473ffffffffffffffffffffffffffffffffffffffff1673ffffffffffffffffffffffffffffffffffffffff16815260200190815260200160002060009054906101000a900473ffffffffffffffffffffffffffffffffffffffff1673ffffffffffffffffffffffffffffffffffffffff16145b925050509392505050565b60008061543a60018461677c565b841663ffffffff161415905092915050565b600080606760009054906101000a900473ffffffffffffffffffffffffffffffffffffffff1673ffffffffffffffffffffffffffffffffffffffff16632df926cc86866040518363ffffffff1660e01b8152600401808373ffffffffffffffffffffffffffffffffffffffff16815260200182815260200192505050602060405180830381600087803b1580156154e257600080fd5b505af11580156154f6573d6000803e3d6000fd5b505050506040513d602081101561550c57600080fd5b81019080805190602001909291905050509050600061554a858773ffffffffffffffffffffffffffffffffffffffff166145f490919063ffffffff16565b90508373ffffffffffffffffffffffffffffffffffffffff168673ffffffffffffffffffffffffffffffffffffffff1614806155b157508373ffffffffffffffffffffffffffffffffffffffff168273ffffffffffffffffffffffffffffffffffffffff16145b8061565757508373ffffffffffffffffffffffffffffffffffffffff166070600083815260200190815260200160002060008473ffffffffffffffffffffffffffffffffffffffff1673ffffffffffffffffffffffffffffffffffffffff16815260200190815260200160002060009054906101000a900473ffffffffffffffffffffffffffffffffffffffff1673ffffffffffffffffffffffffffffffffffffffff16145b925050509392505050565b600061568d838573ffffffffffffffffffffffffffffffffffffffff166145f490919063ffffffff16565b90508115615708576156d26004606e600084815260200190815260200160002060009054906101000a900463ffffffff1663ffffffff1661679890919063ffffffff16565b606e600083815260200190815260200160002060006101000a81548163ffffffff021916908363ffffffff160217905550615777565b6157456004606e600084815260200190815260200160002060009054906101000a900463ffffffff1663ffffffff166167af90919063ffffffff16565b606e600083815260200190815260200160002060006101000a81548163ffffffff021916908363ffffffff1602179055505b828473ffffffffffffffffffffffffffffffffffffffff167f60b065401831ca3775c611d50407d2d9e7e615a8b398776f217cffe08e25fc258460405180821515815260200191505060405180910390a350505050565b60006157f9848673ffffffffffffffffffffffffffffffffffffffff166145f490919063ffffffff16565b9050816070600083815260200190815260200160002060008573ffffffffffffffffffffffffffffffffffffffff1673ffffffffffffffffffffffffffffffffffffffff16815260200190815260200160002060006101000a81548173ffffffffffffffffffffffffffffffffffffffff021916908373ffffffffffffffffffffffffffffffffffffffff1602179055508273ffffffffffffffffffffffffffffffffffffffff16848673ffffffffffffffffffffffffffffffffffffffff167fe37a9a01b315d1c563b8ac93eeb4e09b640626e6460050dec5a60baa1c3b30aa85604051808273ffffffffffffffffffffffffffffffffffffffff16815260200191505060405180910390a45050505050565b6000615938848673ffffffffffffffffffffffffffffffffffffffff166145f490919063ffffffff16565b9050816071600083815260200190815260200160002060008573ffffffffffffffffffffffffffffffffffffffff1673ffffffffffffffffffffffffffffffffffffffff16815260200190815260200160002060006101000a81548173ffffffffffffffffffffffffffffffffffffffff021916908373ffffffffffffffffffffffffffffffffffffffff1602179055508273ffffffffffffffffffffffffffffffffffffffff16848673ffffffffffffffffffffffffffffffffffffffff167fd802cd84562e02fc8bc0204a289d2965ccffd71b7ed25363be2ca74dd9e523ee85604051808273ffffffffffffffffffffffffffffffffffffffff16815260200191505060405180910390a45050505050565b6000615a77848673ffffffffffffffffffffffffffffffffffffffff166145f490919063ffffffff16565b9050816073600083815260200190815260200160002060008573ffffffffffffffffffffffffffffffffffffffff1673ffffffffffffffffffffffffffffffffffffffff16815260200190815260200160002060006101000a81548173ffffffffffffffffffffffffffffffffffffffff021916908373ffffffffffffffffffffffffffffffffffffffff1602179055508273ffffffffffffffffffffffffffffffffffffffff16848673ffffffffffffffffffffffffffffffffffffffff167f55a70bf11ae9c3741ac5aeab2504a3e79626c53205130f80f441a0acd44fc09b85604051808273ffffffffffffffffffffffffffffffffffffffff16815260200191505060405180910390a45050505050565b6000615bb6838573ffffffffffffffffffffffffffffffffffffffff166145f490919063ffffffff16565b90508115615c3157615bfb6001606e600084815260200190815260200160002060009054906101000a900463ffffffff1663ffffffff1661679890919063ffffffff16565b606e600083815260200190815260200160002060006101000a81548163ffffffff021916908363ffffffff160217905550615ca0565b615c6e6001606e600084815260200190815260200160002060009054906101000a900463ffffffff1663ffffffff166167af90919063ffffffff16565b606e600083815260200190815260200160002060006101000a81548163ffffffff021916908363ffffffff1602179055505b828473ffffffffffffffffffffffffffffffffffffffff167f6fa629b4e45691a0208dc92254c095c4e2c7c58046dbc976fa149cb034de62108460405180821515815260200191505060405180910390a350505050565b6000615d22838573ffffffffffffffffffffffffffffffffffffffff166145f490919063ffffffff16565b90508115615d9d57615d676002606e600084815260200190815260200160002060009054906101000a900463ffffffff1663ffffffff1661679890919063ffffffff16565b606e600083815260200190815260200160002060006101000a81548163ffffffff021916908363ffffffff160217905550615e0c565b615dda6002606e600084815260200190815260200160002060009054906101000a900463ffffffff1663ffffffff166167af90919063ffffffff16565b606e600083815260200190815260200160002060006101000a81548163ffffffff021916908363ffffffff1602179055505b828473ffffffffffffffffffffffffffffffffffffffff167fa3238936997a7f1288b3cd08147c59dfb6a0dadb9a618cf89146e0972654645a8460405180821515815260200191505060405180910390a350505050565b6000615e8e838573ffffffffffffffffffffffffffffffffffffffff166145f490919063ffffffff16565b90508115615f0957615ed36010606e600084815260200190815260200160002060009054906101000a900463ffffffff1663ffffffff1661679890919063ffffffff16565b606e600083815260200190815260200160002060006101000a81548163ffffffff021916908363ffffffff160217905550615f78565b615f466010606e600084815260200190815260200160002060009054906101000a900463ffffffff1663ffffffff166167af90919063ffffffff16565b606e600083815260200190815260200160002060006101000a81548163ffffffff021916908363ffffffff1602179055505b828473ffffffffffffffffffffffffffffffffffffffff167f7ec1a86903b11ee157701f0396f3b20f9b74a6ce9b5185aea79ef7f8f063f2b08460405180821515815260200191505060405180910390a350505050565b600073ffffffffffffffffffffffffffffffffffffffff168473ffffffffffffffffffffffffffffffffffffffff161415616072576040517f08c379a00000000000000000000000000000000000000000000000000000000081526004018080602001828103825260098152602001807f4248503a452d343033000000000000000000000000000000000000000000000081525060200191505060405180910390fd5b808373ffffffffffffffffffffffffffffffffffffffff1662fdd58e30856040518363ffffffff1660e01b8152600401808373ffffffffffffffffffffffffffffffffffffffff1681526020018281526020019250505060206040518083038186803b1580156160e157600080fd5b505afa1580156160f5573d6000803e3d6000fd5b505050506040513d602081101561610b57600080fd5b81019080805190602001909291905050501061624b578273ffffffffffffffffffffffffffffffffffffffff1663f242432a308685856040518563ffffffff1660e01b8152600401808573ffffffffffffffffffffffffffffffffffffffff1681526020018473ffffffffffffffffffffffffffffffffffffffff1681526020018381526020018281526020018060200182810382526000815260200160200195505050505050600060405180830381600087803b1580156161cc57600080fd5b505af11580156161e0573d6000803e3d6000fd5b50505050818373ffffffffffffffffffffffffffffffffffffffff168573ffffffffffffffffffffffffffffffffffffffff167f620337bf89eea2b9ae2657beead83b5fa620452817118348aff96e201d52598b846040518082815260200191505060405180910390a45b50505050565b600061625c306167d3565b15905090565b600060019054906101000a900460ff16806162815750616280616251565b5b80616297575060008054906101000a900460ff16155b6162ec576040517f08c379a000000000000000000000000000000000000000000000000000000000815260040180806020018281038252602e815260200180616e47602e913960400191505060405180910390fd5b60008060019054906101000a900460ff16159050801561633c576001600060016101000a81548160ff02191690831515021790555060016000806101000a81548160ff0219169083151502179055505b6163446167e6565b61634c6168e4565b801561636d5760008060016101000a81548160ff0219169083151502179055505b50565b6000808284019050838110156163ee576040517f08c379a000000000000000000000000000000000000000000000000000000000815260040180806020018281038252601b8152602001807f536166654d6174683a206164646974696f6e206f766572666c6f77000000000081525060200191505060405180910390fd5b8091505092915050565b6000616423838573ffffffffffffffffffffffffffffffffffffffff166145f490919063ffffffff16565b9050811561649e576164686008606e600084815260200190815260200160002060009054906101000a900463ffffffff1663ffffffff1661679890919063ffffffff16565b606e600083815260200190815260200160002060006101000a81548163ffffffff021916908363ffffffff16021790555061650d565b6164db6008606e600084815260200190815260200160002060009054906101000a900463ffffffff1663ffffffff166167af90919063ffffffff16565b606e600083815260200190815260200160002060006101000a81548163ffffffff021916908363ffffffff1602179055505b828473ffffffffffffffffffffffffffffffffffffffff167f6ec38741515d4750763d848e355368717861814d782e6f0182de492e529c24c38460405180821515815260200191505060405180910390a350505050565b60006018600036905010158015616580575061657f33611e8d565b5b1561659457601436033560601c905061659c565b33905061659d565b5b90565b61663d8363a9059cbb60e01b8484604051602401808373ffffffffffffffffffffffffffffffffffffffff16815260200182815260200192505050604051602081830303815290604052907bffffffffffffffffffffffffffffffffffffffffffffffffffffffff19166020820180517bffffffffffffffffffffffffffffffffffffffffffffffffffffffff8381831617835250505050616a8b565b505050565b804710156166b8576040517f08c379a000000000000000000000000000000000000000000000000000000000815260040180806020018281038252601d8152602001807f416464726573733a20696e73756666696369656e742062616c616e636500000081525060200191505060405180910390fd5b60008273ffffffffffffffffffffffffffffffffffffffff168260405180600001905060006040518083038185875af1925050503d8060008114616718576040519150601f19603f3d011682016040523d82523d6000602084013e61671d565b606091505b5050905080616777576040517f08c379a000000000000000000000000000000000000000000000000000000000815260040180806020018281038252603a815260200180616e0d603a913960400191505060405180910390fd5b505050565b60008163ffffffff16600263ffffffff160a8302905092915050565b60006167a560018361677c565b8317905092915050565b6000806167c56167c060018561677c565b616b7a565b905080841691505092915050565b600080823b905060008111915050919050565b600060019054906101000a900460ff16806168055750616804616251565b5b8061681b575060008054906101000a900460ff16155b616870576040517f08c379a000000000000000000000000000000000000000000000000000000000815260040180806020018281038252602e815260200180616e47602e913960400191505060405180910390fd5b60008060019054906101000a900460ff1615905080156168c0576001600060016101000a81548160ff02191690831515021790555060016000806101000a81548160ff0219169083151502179055505b80156168e15760008060016101000a81548160ff0219169083151502179055505b50565b600060019054906101000a900460ff16806169035750616902616251565b5b80616919575060008054906101000a900460ff16155b61696e576040517f08c379a000000000000000000000000000000000000000000000000000000000815260040180806020018281038252602e815260200180616e47602e913960400191505060405180910390fd5b60008060019054906101000a900460ff1615905080156169be576001600060016101000a81548160ff02191690831515021790555060016000806101000a81548160ff0219169083151502179055505b60006169c86145e5565b905080603360006101000a81548173ffffffffffffffffffffffffffffffffffffffff021916908373ffffffffffffffffffffffffffffffffffffffff1602179055508073ffffffffffffffffffffffffffffffffffffffff16600073ffffffffffffffffffffffffffffffffffffffff167f8be0079c531659141344cd1fd0a4f28419497f9722a3daafe3b4186f6b6457e060405160405180910390a3508015616a885760008060016101000a81548160ff0219169083151502179055505b50565b6060616aed826040518060400160405280602081526020017f5361666545524332303a206c6f772d6c6576656c2063616c6c206661696c65648152508573ffffffffffffffffffffffffffffffffffffffff16616b8d9092919063ffffffff16565b9050600081511115616b7557808060200190516020811015616b0e57600080fd5b8101908080519060200190929190505050616b74576040517f08c379a000000000000000000000000000000000000000000000000000000000815260040180806020018281038252602a815260200180616ea3602a913960400191505060405180910390fd5b5b505050565b6000616b84616ba5565b82189050919050565b6060616b9c8484600085616bcd565b90509392505050565b60007fffffffffffffffffffffffffffffffffffffffffffffffffffffffffffffffff905090565b6060616bd885616dd3565b616c4a576040517f08c379a000000000000000000000000000000000000000000000000000000000815260040180806020018281038252601d8152602001807f416464726573733a2063616c6c20746f206e6f6e2d636f6e747261637400000081525060200191505060405180910390fd5b600060608673ffffffffffffffffffffffffffffffffffffffff1685876040518082805190602001908083835b60208310616c9a5780518252602082019150602081019050602083039250616c77565b6001836020036101000a03801982511681845116808217855250505050505090500191505060006040518083038185875af1925050503d8060008114616cfc576040519150601f19603f3d011682016040523d82523d6000602084013e616d01565b606091505b50915091508115616d16578092505050616dcb565b600081511115616d295780518082602001fd5b836040517f08c379a00000000000000000000000000000000000000000000000000000000081526004018080602001828103825283818151815260200191508051906020019080838360005b83811015616d90578082015181840152602081019050616d75565b50505050905090810190601f168015616dbd5780820380516001836020036101000a031916815260200191505b509250505060405180910390fd5b949350505050565b600080823b90506000811191505091905056fe4f776e61626c653a206e6577206f776e657220697320746865207a65726f2061646472657373416464726573733a20756e61626c6520746f2073656e642076616c75652c20726563697069656e74206d61792068617665207265766572746564496e697469616c697a61626c653a20636f6e747261637420697320616c726561647920696e697469616c697a6564312e302e302d626574612e312f636861726765642d7061727469636c65732e72656c61792e726563697069656e745361666545524332303a204552433230206f7065726174696f6e20646964206e6f742073756363656564a2646970667358221220be296953816a0f45e60b408456a822a27c17608a0efdf75beecbed847d46625d64736f6c634300060c0033",
  "linkReferences": {},
  "deployedLinkReferences": {}
}